{
	"contracts/Erc20token.sol": {
		"MyToken": {
			"abi": [
				{
					"inputs": [],
					"stateMutability": "nonpayable",
					"type": "constructor"
				},
				{
					"anonymous": false,
					"inputs": [
						{
							"indexed": true,
							"internalType": "address",
							"name": "from",
							"type": "address"
						},
						{
							"indexed": true,
							"internalType": "address",
							"name": "to",
							"type": "address"
						},
						{
							"indexed": false,
							"internalType": "uint256",
							"name": "tokens",
							"type": "uint256"
						}
					],
					"name": "Transfer",
					"type": "event"
				},
				{
					"inputs": [
						{
							"internalType": "address",
							"name": "tokenOwner",
							"type": "address"
						}
					],
					"name": "balanceOf",
					"outputs": [
						{
							"internalType": "uint256",
							"name": "balance",
							"type": "uint256"
						}
					],
					"stateMutability": "view",
					"type": "function"
				},
				{
					"inputs": [],
					"name": "decimals",
					"outputs": [
						{
							"internalType": "uint256",
							"name": "",
							"type": "uint256"
						}
					],
					"stateMutability": "view",
					"type": "function"
				},
				{
					"inputs": [],
					"name": "founder",
					"outputs": [
						{
							"internalType": "address",
							"name": "",
							"type": "address"
						}
					],
					"stateMutability": "view",
					"type": "function"
				},
				{
					"inputs": [],
					"name": "name",
					"outputs": [
						{
							"internalType": "string",
							"name": "",
							"type": "string"
						}
					],
					"stateMutability": "view",
					"type": "function"
				},
				{
					"inputs": [],
					"name": "symbol",
					"outputs": [
						{
							"internalType": "string",
							"name": "",
							"type": "string"
						}
					],
					"stateMutability": "view",
					"type": "function"
				},
				{
					"inputs": [],
					"name": "totalSupply",
					"outputs": [
						{
							"internalType": "uint256",
							"name": "",
							"type": "uint256"
						}
					],
					"stateMutability": "view",
					"type": "function"
				},
				{
					"inputs": [
						{
							"internalType": "address",
							"name": "to",
							"type": "address"
						},
						{
							"internalType": "uint256",
							"name": "tokens",
							"type": "uint256"
						}
					],
					"name": "transfer",
					"outputs": [
						{
							"internalType": "bool",
							"name": "success",
							"type": "bool"
						}
					],
					"stateMutability": "nonpayable",
					"type": "function"
				}
			],
			"devdoc": {
				"kind": "dev",
				"methods": {},
				"version": 1
			},
			"evm": {
				"assembly": "    /* \"contracts/Erc20token.sol\":1003:1706  contract MyToken is ERC20Interface{\r... */\n  mstore(0x40, 0x80)\n    /* \"contracts/Erc20token.sol\":1044:1073  string public name = \"ZILLAX\" */\n  mload(0x40)\n  dup1\n  0x40\n  add\n  0x40\n  mstore\n  dup1\n  0x06\n  dup2\n  mstore\n  0x20\n  add\n  0x5a494c4c41580000000000000000000000000000000000000000000000000000\n  dup2\n  mstore\n  pop\n  0x00\n  swap1\n  dup1\n  mload\n  swap1\n  0x20\n  add\n  swap1\n  tag_1\n  swap3\n  swap2\n  swap1\n  tag_2\n  jump\t// in\ntag_1:\n  pop\n    /* \"contracts/Erc20token.sol\":1080:1108  string public symbol = \"ZLZ\" */\n  mload(0x40)\n  dup1\n  0x40\n  add\n  0x40\n  mstore\n  dup1\n  0x03\n  dup2\n  mstore\n  0x20\n  add\n  0x5a4c5a0000000000000000000000000000000000000000000000000000000000\n  dup2\n  mstore\n  pop\n  0x01\n  swap1\n  dup1\n  mload\n  swap1\n  0x20\n  add\n  swap1\n  tag_3\n  swap3\n  swap2\n  swap1\n  tag_2\n  jump\t// in\ntag_3:\n  pop\n    /* \"contracts/Erc20token.sol\":1138:1139  0 */\n  0x00\n    /* \"contracts/Erc20token.sol\":1115:1139  uint public decimals = 0 */\n  0x02\n  sstore\n    /* \"contracts/Erc20token.sol\":1262:1388  constructor(){\r... */\n  callvalue\n  dup1\n  iszero\n  tag_4\n  jumpi\n  0x00\n  dup1\n  revert\ntag_4:\n  pop\n    /* \"contracts/Erc20token.sol\":1300:1307  1000000 */\n  0x0f4240\n    /* \"contracts/Erc20token.sol\":1286:1297  totalSupply */\n  0x04\n    /* \"contracts/Erc20token.sol\":1286:1307  totalSupply = 1000000 */\n  dup2\n  swap1\n  sstore\n  pop\n    /* \"contracts/Erc20token.sol\":1328:1338  msg.sender */\n  caller\n    /* \"contracts/Erc20token.sol\":1318:1325  founder */\n  0x03\n  0x00\n    /* \"contracts/Erc20token.sol\":1318:1338  founder = msg.sender */\n  0x0100\n  exp\n  dup2\n  sload\n  dup2\n  0xffffffffffffffffffffffffffffffffffffffff\n  mul\n  not\n  and\n  swap1\n  dup4\n  0xffffffffffffffffffffffffffffffffffffffff\n  and\n  mul\n  or\n  swap1\n  sstore\n  pop\n    /* \"contracts/Erc20token.sol\":1369:1380  totalSupply */\n  sload(0x04)\n    /* \"contracts/Erc20token.sol\":1349:1357  balances */\n  0x05\n    /* \"contracts/Erc20token.sol\":1349:1366  balances[founder] */\n  0x00\n    /* \"contracts/Erc20token.sol\":1358:1365  founder */\n  0x03\n  0x00\n  swap1\n  sload\n  swap1\n  0x0100\n  exp\n  swap1\n  div\n  0xffffffffffffffffffffffffffffffffffffffff\n  and\n    /* \"contracts/Erc20token.sol\":1349:1366  balances[founder] */\n  0xffffffffffffffffffffffffffffffffffffffff\n  and\n  0xffffffffffffffffffffffffffffffffffffffff\n  and\n  dup2\n  mstore\n  0x20\n  add\n  swap1\n  dup2\n  mstore\n  0x20\n  add\n  0x00\n  keccak256\n    /* \"contracts/Erc20token.sol\":1349:1380  balances[founder] = totalSupply */\n  dup2\n  swap1\n  sstore\n  pop\n    /* \"contracts/Erc20token.sol\":1003:1706  contract MyToken is ERC20Interface{\r... */\n  jump(tag_7)\ntag_2:\n  dup3\n  dup1\n  sload\n  tag_8\n  swap1\n  tag_9\n  jump\t// in\ntag_8:\n  swap1\n  0x00\n  mstore\n  keccak256(0x00, 0x20)\n  swap1\n  0x1f\n  add\n  0x20\n  swap1\n  div\n  dup2\n  add\n  swap3\n  dup3\n  tag_11\n  jumpi\n  0x00\n  dup6\n  sstore\n  jump(tag_10)\ntag_11:\n  dup3\n  0x1f\n  lt\n  tag_12\n  jumpi\n  dup1\n  mload\n  not(0xff)\n  and\n  dup4\n  dup1\n  add\n  or\n  dup6\n  sstore\n  jump(tag_10)\ntag_12:\n  dup3\n  dup1\n  add\n  0x01\n  add\n  dup6\n  sstore\n  dup3\n  iszero\n  tag_10\n  jumpi\n  swap2\n  dup3\n  add\ntag_13:\n  dup3\n  dup2\n  gt\n  iszero\n  tag_14\n  jumpi\n  dup3\n  mload\n  dup3\n  sstore\n  swap2\n  0x20\n  add\n  swap2\n  swap1\n  0x01\n  add\n  swap1\n  jump(tag_13)\ntag_14:\ntag_10:\n  pop\n  swap1\n  pop\n  tag_15\n  swap2\n  swap1\n  tag_16\n  jump\t// in\ntag_15:\n  pop\n  swap1\n  jump\t// out\ntag_16:\ntag_17:\n  dup1\n  dup3\n  gt\n  iszero\n  tag_18\n  jumpi\n  0x00\n  dup2\n  0x00\n  swap1\n  sstore\n  pop\n  0x01\n  add\n  jump(tag_17)\ntag_18:\n  pop\n  swap1\n  jump\t// out\n    /* \"#utility.yul\":7:327   */\ntag_9:\n    /* \"#utility.yul\":51:57   */\n  0x00\n    /* \"#utility.yul\":88:89   */\n  0x02\n    /* \"#utility.yul\":82:86   */\n  dup3\n    /* \"#utility.yul\":78:90   */\n  div\n    /* \"#utility.yul\":68:90   */\n  swap1\n  pop\n    /* \"#utility.yul\":135:136   */\n  0x01\n    /* \"#utility.yul\":129:133   */\n  dup3\n    /* \"#utility.yul\":125:137   */\n  and\n    /* \"#utility.yul\":156:174   */\n  dup1\n    /* \"#utility.yul\":146:227   */\n  tag_21\n  jumpi\n    /* \"#utility.yul\":212:216   */\n  0x7f\n    /* \"#utility.yul\":204:210   */\n  dup3\n    /* \"#utility.yul\":200:217   */\n  and\n    /* \"#utility.yul\":190:217   */\n  swap2\n  pop\n    /* \"#utility.yul\":146:227   */\ntag_21:\n    /* \"#utility.yul\":274:276   */\n  0x20\n    /* \"#utility.yul\":266:272   */\n  dup3\n    /* \"#utility.yul\":263:277   */\n  lt\n    /* \"#utility.yul\":243:261   */\n  dup2\n    /* \"#utility.yul\":240:278   */\n  eq\n    /* \"#utility.yul\":237:321   */\n  iszero\n  tag_22\n  jumpi\n    /* \"#utility.yul\":293:311   */\n  tag_23\n  tag_24\n  jump\t// in\ntag_23:\n    /* \"#utility.yul\":237:321   */\ntag_22:\n    /* \"#utility.yul\":58:327   */\n  pop\n    /* \"#utility.yul\":7:327   */\n  swap2\n  swap1\n  pop\n  jump\t// out\n    /* \"#utility.yul\":333:513   */\ntag_24:\n    /* \"#utility.yul\":381:458   */\n  0x4e487b7100000000000000000000000000000000000000000000000000000000\n    /* \"#utility.yul\":378:379   */\n  0x00\n    /* \"#utility.yul\":371:459   */\n  mstore\n    /* \"#utility.yul\":478:482   */\n  0x22\n    /* \"#utility.yul\":475:476   */\n  0x04\n    /* \"#utility.yul\":468:483   */\n  mstore\n    /* \"#utility.yul\":502:506   */\n  0x24\n    /* \"#utility.yul\":499:500   */\n  0x00\n    /* \"#utility.yul\":492:507   */\n  revert\n    /* \"contracts/Erc20token.sol\":1003:1706  contract MyToken is ERC20Interface{\r... */\ntag_7:\n  dataSize(sub_0)\n  dup1\n  dataOffset(sub_0)\n  0x00\n  codecopy\n  0x00\n  return\nstop\n\nsub_0: assembly {\n        /* \"contracts/Erc20token.sol\":1003:1706  contract MyToken is ERC20Interface{\r... */\n      mstore(0x40, 0x80)\n      callvalue\n      dup1\n      iszero\n      tag_1\n      jumpi\n      0x00\n      dup1\n      revert\n    tag_1:\n      pop\n      jumpi(tag_2, lt(calldatasize, 0x04))\n      shr(0xe0, calldataload(0x00))\n      dup1\n      0x4d853ee5\n      gt\n      tag_10\n      jumpi\n      dup1\n      0x4d853ee5\n      eq\n      tag_6\n      jumpi\n      dup1\n      0x70a08231\n      eq\n      tag_7\n      jumpi\n      dup1\n      0x95d89b41\n      eq\n      tag_8\n      jumpi\n      dup1\n      0xa9059cbb\n      eq\n      tag_9\n      jumpi\n      jump(tag_2)\n    tag_10:\n      dup1\n      0x06fdde03\n      eq\n      tag_3\n      jumpi\n      dup1\n      0x18160ddd\n      eq\n      tag_4\n      jumpi\n      dup1\n      0x313ce567\n      eq\n      tag_5\n      jumpi\n    tag_2:\n      0x00\n      dup1\n      revert\n        /* \"contracts/Erc20token.sol\":1044:1073  string public name = \"ZILLAX\" */\n    tag_3:\n      tag_11\n      tag_12\n      jump\t// in\n    tag_11:\n      mload(0x40)\n      tag_13\n      swap2\n      swap1\n      tag_14\n      jump\t// in\n    tag_13:\n      mload(0x40)\n      dup1\n      swap2\n      sub\n      swap1\n      return\n        /* \"contracts/Erc20token.sol\":1179:1211  uint public override totalSupply */\n    tag_4:\n      tag_15\n      tag_16\n      jump\t// in\n    tag_15:\n      mload(0x40)\n      tag_17\n      swap2\n      swap1\n      tag_18\n      jump\t// in\n    tag_17:\n      mload(0x40)\n      dup1\n      swap2\n      sub\n      swap1\n      return\n        /* \"contracts/Erc20token.sol\":1115:1139  uint public decimals = 0 */\n    tag_5:\n      tag_19\n      tag_20\n      jump\t// in\n    tag_19:\n      mload(0x40)\n      tag_21\n      swap2\n      swap1\n      tag_18\n      jump\t// in\n    tag_21:\n      mload(0x40)\n      dup1\n      swap2\n      sub\n      swap1\n      return\n        /* \"contracts/Erc20token.sol\":1148:1170  address public founder */\n    tag_6:\n      tag_22\n      tag_23\n      jump\t// in\n    tag_22:\n      mload(0x40)\n      tag_24\n      swap2\n      swap1\n      tag_25\n      jump\t// in\n    tag_24:\n      mload(0x40)\n      dup1\n      swap2\n      sub\n      swap1\n      return\n        /* \"contracts/Erc20token.sol\":1396:1524  function balanceOf(address tokenOwner) public override view returns (uint balance){\r... */\n    tag_7:\n      tag_26\n      0x04\n      dup1\n      calldatasize\n      sub\n      dup2\n      add\n      swap1\n      tag_27\n      swap2\n      swap1\n      tag_28\n      jump\t// in\n    tag_27:\n      tag_29\n      jump\t// in\n    tag_26:\n      mload(0x40)\n      tag_30\n      swap2\n      swap1\n      tag_18\n      jump\t// in\n    tag_30:\n      mload(0x40)\n      dup1\n      swap2\n      sub\n      swap1\n      return\n        /* \"contracts/Erc20token.sol\":1080:1108  string public symbol = \"ZLZ\" */\n    tag_8:\n      tag_31\n      tag_32\n      jump\t// in\n    tag_31:\n      mload(0x40)\n      tag_33\n      swap2\n      swap1\n      tag_14\n      jump\t// in\n    tag_33:\n      mload(0x40)\n      dup1\n      swap2\n      sub\n      swap1\n      return\n        /* \"contracts/Erc20token.sol\":1532:1703  function transfer(address to, uint tokens) public override returns (bool success){\r... */\n    tag_9:\n      tag_34\n      0x04\n      dup1\n      calldatasize\n      sub\n      dup2\n      add\n      swap1\n      tag_35\n      swap2\n      swap1\n      tag_36\n      jump\t// in\n    tag_35:\n      tag_37\n      jump\t// in\n    tag_34:\n      mload(0x40)\n      tag_38\n      swap2\n      swap1\n      tag_39\n      jump\t// in\n    tag_38:\n      mload(0x40)\n      dup1\n      swap2\n      sub\n      swap1\n      return\n        /* \"contracts/Erc20token.sol\":1044:1073  string public name = \"ZILLAX\" */\n    tag_12:\n      0x00\n      dup1\n      sload\n      tag_40\n      swap1\n      tag_41\n      jump\t// in\n    tag_40:\n      dup1\n      0x1f\n      add\n      0x20\n      dup1\n      swap2\n      div\n      mul\n      0x20\n      add\n      mload(0x40)\n      swap1\n      dup2\n      add\n      0x40\n      mstore\n      dup1\n      swap3\n      swap2\n      swap1\n      dup2\n      dup2\n      mstore\n      0x20\n      add\n      dup3\n      dup1\n      sload\n      tag_42\n      swap1\n      tag_41\n      jump\t// in\n    tag_42:\n      dup1\n      iszero\n      tag_43\n      jumpi\n      dup1\n      0x1f\n      lt\n      tag_44\n      jumpi\n      0x0100\n      dup1\n      dup4\n      sload\n      div\n      mul\n      dup4\n      mstore\n      swap2\n      0x20\n      add\n      swap2\n      jump(tag_43)\n    tag_44:\n      dup3\n      add\n      swap2\n      swap1\n      0x00\n      mstore\n      keccak256(0x00, 0x20)\n      swap1\n    tag_45:\n      dup2\n      sload\n      dup2\n      mstore\n      swap1\n      0x01\n      add\n      swap1\n      0x20\n      add\n      dup1\n      dup4\n      gt\n      tag_45\n      jumpi\n      dup3\n      swap1\n      sub\n      0x1f\n      and\n      dup3\n      add\n      swap2\n    tag_43:\n      pop\n      pop\n      pop\n      pop\n      pop\n      dup2\n      jump\t// out\n        /* \"contracts/Erc20token.sol\":1179:1211  uint public override totalSupply */\n    tag_16:\n      sload(0x04)\n      dup2\n      jump\t// out\n        /* \"contracts/Erc20token.sol\":1115:1139  uint public decimals = 0 */\n    tag_20:\n      sload(0x02)\n      dup2\n      jump\t// out\n        /* \"contracts/Erc20token.sol\":1148:1170  address public founder */\n    tag_23:\n      0x03\n      0x00\n      swap1\n      sload\n      swap1\n      0x0100\n      exp\n      swap1\n      div\n      0xffffffffffffffffffffffffffffffffffffffff\n      and\n      dup2\n      jump\t// out\n        /* \"contracts/Erc20token.sol\":1396:1524  function balanceOf(address tokenOwner) public override view returns (uint balance){\r... */\n    tag_29:\n        /* \"contracts/Erc20token.sol\":1465:1477  uint balance */\n      0x00\n        /* \"contracts/Erc20token.sol\":1496:1504  balances */\n      0x05\n        /* \"contracts/Erc20token.sol\":1496:1516  balances[tokenOwner] */\n      0x00\n        /* \"contracts/Erc20token.sol\":1505:1515  tokenOwner */\n      dup4\n        /* \"contracts/Erc20token.sol\":1496:1516  balances[tokenOwner] */\n      0xffffffffffffffffffffffffffffffffffffffff\n      and\n      0xffffffffffffffffffffffffffffffffffffffff\n      and\n      dup2\n      mstore\n      0x20\n      add\n      swap1\n      dup2\n      mstore\n      0x20\n      add\n      0x00\n      keccak256\n      sload\n        /* \"contracts/Erc20token.sol\":1489:1516  return balances[tokenOwner] */\n      swap1\n      pop\n        /* \"contracts/Erc20token.sol\":1396:1524  function balanceOf(address tokenOwner) public override view returns (uint balance){\r... */\n      swap2\n      swap1\n      pop\n      jump\t// out\n        /* \"contracts/Erc20token.sol\":1080:1108  string public symbol = \"ZLZ\" */\n    tag_32:\n      0x01\n      dup1\n      sload\n      tag_47\n      swap1\n      tag_41\n      jump\t// in\n    tag_47:\n      dup1\n      0x1f\n      add\n      0x20\n      dup1\n      swap2\n      div\n      mul\n      0x20\n      add\n      mload(0x40)\n      swap1\n      dup2\n      add\n      0x40\n      mstore\n      dup1\n      swap3\n      swap2\n      swap1\n      dup2\n      dup2\n      mstore\n      0x20\n      add\n      dup3\n      dup1\n      sload\n      tag_48\n      swap1\n      tag_41\n      jump\t// in\n    tag_48:\n      dup1\n      iszero\n      tag_49\n      jumpi\n      dup1\n      0x1f\n      lt\n      tag_50\n      jumpi\n      0x0100\n      dup1\n      dup4\n      sload\n      div\n      mul\n      dup4\n      mstore\n      swap2\n      0x20\n      add\n      swap2\n      jump(tag_49)\n    tag_50:\n      dup3\n      add\n      swap2\n      swap1\n      0x00\n      mstore\n      keccak256(0x00, 0x20)\n      swap1\n    tag_51:\n      dup2\n      sload\n      dup2\n      mstore\n      swap1\n      0x01\n      add\n      swap1\n      0x20\n      add\n      dup1\n      dup4\n      gt\n      tag_51\n      jumpi\n      dup3\n      swap1\n      sub\n      0x1f\n      and\n      dup3\n      add\n      swap2\n    tag_49:\n      pop\n      pop\n      pop\n      pop\n      pop\n      dup2\n      jump\t// out\n        /* \"contracts/Erc20token.sol\":1532:1703  function transfer(address to, uint tokens) public override returns (bool success){\r... */\n    tag_37:\n        /* \"contracts/Erc20token.sol\":1600:1612  bool success */\n      0x00\n        /* \"contracts/Erc20token.sol\":1656:1662  tokens */\n      dup2\n        /* \"contracts/Erc20token.sol\":1632:1640  balances */\n      0x05\n        /* \"contracts/Erc20token.sol\":1632:1652  balances[msg.sender] */\n      0x00\n        /* \"contracts/Erc20token.sol\":1641:1651  msg.sender */\n      caller\n        /* \"contracts/Erc20token.sol\":1632:1652  balances[msg.sender] */\n      0xffffffffffffffffffffffffffffffffffffffff\n      and\n      0xffffffffffffffffffffffffffffffffffffffff\n      and\n      dup2\n      mstore\n      0x20\n      add\n      swap1\n      dup2\n      mstore\n      0x20\n      add\n      0x00\n      keccak256\n      sload\n        /* \"contracts/Erc20token.sol\":1632:1662  balances[msg.sender] >= tokens */\n      lt\n      iszero\n        /* \"contracts/Erc20token.sol\":1624:1695  require(balances[msg.sender] >= tokens, \"Insufficient Account Balance\") */\n      tag_53\n      jumpi\n      mload(0x40)\n      0x08c379a000000000000000000000000000000000000000000000000000000000\n      dup2\n      mstore\n      0x04\n      add\n      tag_54\n      swap1\n      tag_55\n      jump\t// in\n    tag_54:\n      mload(0x40)\n      dup1\n      swap2\n      sub\n      swap1\n      revert\n    tag_53:\n        /* \"contracts/Erc20token.sol\":1532:1703  function transfer(address to, uint tokens) public override returns (bool success){\r... */\n      swap3\n      swap2\n      pop\n      pop\n      jump\t// out\n        /* \"#utility.yul\":7:146   */\n    tag_57:\n        /* \"#utility.yul\":53:58   */\n      0x00\n        /* \"#utility.yul\":91:97   */\n      dup2\n        /* \"#utility.yul\":78:98   */\n      calldataload\n        /* \"#utility.yul\":69:98   */\n      swap1\n      pop\n        /* \"#utility.yul\":107:140   */\n      tag_59\n        /* \"#utility.yul\":134:139   */\n      dup2\n        /* \"#utility.yul\":107:140   */\n      tag_60\n      jump\t// in\n    tag_59:\n        /* \"#utility.yul\":7:146   */\n      swap3\n      swap2\n      pop\n      pop\n      jump\t// out\n        /* \"#utility.yul\":152:291   */\n    tag_61:\n        /* \"#utility.yul\":198:203   */\n      0x00\n        /* \"#utility.yul\":236:242   */\n      dup2\n        /* \"#utility.yul\":223:243   */\n      calldataload\n        /* \"#utility.yul\":214:243   */\n      swap1\n      pop\n        /* \"#utility.yul\":252:285   */\n      tag_63\n        /* \"#utility.yul\":279:284   */\n      dup2\n        /* \"#utility.yul\":252:285   */\n      tag_64\n      jump\t// in\n    tag_63:\n        /* \"#utility.yul\":152:291   */\n      swap3\n      swap2\n      pop\n      pop\n      jump\t// out\n        /* \"#utility.yul\":297:626   */\n    tag_28:\n        /* \"#utility.yul\":356:362   */\n      0x00\n        /* \"#utility.yul\":405:407   */\n      0x20\n        /* \"#utility.yul\":393:402   */\n      dup3\n        /* \"#utility.yul\":384:391   */\n      dup5\n        /* \"#utility.yul\":380:403   */\n      sub\n        /* \"#utility.yul\":376:408   */\n      slt\n        /* \"#utility.yul\":373:492   */\n      iszero\n      tag_66\n      jumpi\n        /* \"#utility.yul\":411:490   */\n      tag_67\n      tag_68\n      jump\t// in\n    tag_67:\n        /* \"#utility.yul\":373:492   */\n    tag_66:\n        /* \"#utility.yul\":531:532   */\n      0x00\n        /* \"#utility.yul\":556:609   */\n      tag_69\n        /* \"#utility.yul\":601:608   */\n      dup5\n        /* \"#utility.yul\":592:598   */\n      dup3\n        /* \"#utility.yul\":581:590   */\n      dup6\n        /* \"#utility.yul\":577:599   */\n      add\n        /* \"#utility.yul\":556:609   */\n      tag_57\n      jump\t// in\n    tag_69:\n        /* \"#utility.yul\":546:609   */\n      swap2\n      pop\n        /* \"#utility.yul\":502:619   */\n      pop\n        /* \"#utility.yul\":297:626   */\n      swap3\n      swap2\n      pop\n      pop\n      jump\t// out\n        /* \"#utility.yul\":632:1106   */\n    tag_36:\n        /* \"#utility.yul\":700:706   */\n      0x00\n        /* \"#utility.yul\":708:714   */\n      dup1\n        /* \"#utility.yul\":757:759   */\n      0x40\n        /* \"#utility.yul\":745:754   */\n      dup4\n        /* \"#utility.yul\":736:743   */\n      dup6\n        /* \"#utility.yul\":732:755   */\n      sub\n        /* \"#utility.yul\":728:760   */\n      slt\n        /* \"#utility.yul\":725:844   */\n      iszero\n      tag_71\n      jumpi\n        /* \"#utility.yul\":763:842   */\n      tag_72\n      tag_68\n      jump\t// in\n    tag_72:\n        /* \"#utility.yul\":725:844   */\n    tag_71:\n        /* \"#utility.yul\":883:884   */\n      0x00\n        /* \"#utility.yul\":908:961   */\n      tag_73\n        /* \"#utility.yul\":953:960   */\n      dup6\n        /* \"#utility.yul\":944:950   */\n      dup3\n        /* \"#utility.yul\":933:942   */\n      dup7\n        /* \"#utility.yul\":929:951   */\n      add\n        /* \"#utility.yul\":908:961   */\n      tag_57\n      jump\t// in\n    tag_73:\n        /* \"#utility.yul\":898:961   */\n      swap3\n      pop\n        /* \"#utility.yul\":854:971   */\n      pop\n        /* \"#utility.yul\":1010:1012   */\n      0x20\n        /* \"#utility.yul\":1036:1089   */\n      tag_74\n        /* \"#utility.yul\":1081:1088   */\n      dup6\n        /* \"#utility.yul\":1072:1078   */\n      dup3\n        /* \"#utility.yul\":1061:1070   */\n      dup7\n        /* \"#utility.yul\":1057:1079   */\n      add\n        /* \"#utility.yul\":1036:1089   */\n      tag_61\n      jump\t// in\n    tag_74:\n        /* \"#utility.yul\":1026:1089   */\n      swap2\n      pop\n        /* \"#utility.yul\":981:1099   */\n      pop\n        /* \"#utility.yul\":632:1106   */\n      swap3\n      pop\n      swap3\n      swap1\n      pop\n      jump\t// out\n        /* \"#utility.yul\":1112:1230   */\n    tag_75:\n        /* \"#utility.yul\":1199:1223   */\n      tag_77\n        /* \"#utility.yul\":1217:1222   */\n      dup2\n        /* \"#utility.yul\":1199:1223   */\n      tag_78\n      jump\t// in\n    tag_77:\n        /* \"#utility.yul\":1194:1197   */\n      dup3\n        /* \"#utility.yul\":1187:1224   */\n      mstore\n        /* \"#utility.yul\":1112:1230   */\n      pop\n      pop\n      jump\t// out\n        /* \"#utility.yul\":1236:1345   */\n    tag_79:\n        /* \"#utility.yul\":1317:1338   */\n      tag_81\n        /* \"#utility.yul\":1332:1337   */\n      dup2\n        /* \"#utility.yul\":1317:1338   */\n      tag_82\n      jump\t// in\n    tag_81:\n        /* \"#utility.yul\":1312:1315   */\n      dup3\n        /* \"#utility.yul\":1305:1339   */\n      mstore\n        /* \"#utility.yul\":1236:1345   */\n      pop\n      pop\n      jump\t// out\n        /* \"#utility.yul\":1351:1715   */\n    tag_83:\n        /* \"#utility.yul\":1439:1442   */\n      0x00\n        /* \"#utility.yul\":1467:1506   */\n      tag_85\n        /* \"#utility.yul\":1500:1505   */\n      dup3\n        /* \"#utility.yul\":1467:1506   */\n      tag_86\n      jump\t// in\n    tag_85:\n        /* \"#utility.yul\":1522:1593   */\n      tag_87\n        /* \"#utility.yul\":1586:1592   */\n      dup2\n        /* \"#utility.yul\":1581:1584   */\n      dup6\n        /* \"#utility.yul\":1522:1593   */\n      tag_88\n      jump\t// in\n    tag_87:\n        /* \"#utility.yul\":1515:1593   */\n      swap4\n      pop\n        /* \"#utility.yul\":1602:1654   */\n      tag_89\n        /* \"#utility.yul\":1647:1653   */\n      dup2\n        /* \"#utility.yul\":1642:1645   */\n      dup6\n        /* \"#utility.yul\":1635:1639   */\n      0x20\n        /* \"#utility.yul\":1628:1633   */\n      dup7\n        /* \"#utility.yul\":1624:1640   */\n      add\n        /* \"#utility.yul\":1602:1654   */\n      tag_90\n      jump\t// in\n    tag_89:\n        /* \"#utility.yul\":1679:1708   */\n      tag_91\n        /* \"#utility.yul\":1701:1707   */\n      dup2\n        /* \"#utility.yul\":1679:1708   */\n      tag_92\n      jump\t// in\n    tag_91:\n        /* \"#utility.yul\":1674:1677   */\n      dup5\n        /* \"#utility.yul\":1670:1709   */\n      add\n        /* \"#utility.yul\":1663:1709   */\n      swap2\n      pop\n        /* \"#utility.yul\":1443:1715   */\n      pop\n        /* \"#utility.yul\":1351:1715   */\n      swap3\n      swap2\n      pop\n      pop\n      jump\t// out\n        /* \"#utility.yul\":1721:2087   */\n    tag_93:\n        /* \"#utility.yul\":1863:1866   */\n      0x00\n        /* \"#utility.yul\":1884:1951   */\n      tag_95\n        /* \"#utility.yul\":1948:1950   */\n      0x1c\n        /* \"#utility.yul\":1943:1946   */\n      dup4\n        /* \"#utility.yul\":1884:1951   */\n      tag_88\n      jump\t// in\n    tag_95:\n        /* \"#utility.yul\":1877:1951   */\n      swap2\n      pop\n        /* \"#utility.yul\":1960:2053   */\n      tag_96\n        /* \"#utility.yul\":2049:2052   */\n      dup3\n        /* \"#utility.yul\":1960:2053   */\n      tag_97\n      jump\t// in\n    tag_96:\n        /* \"#utility.yul\":2078:2080   */\n      0x20\n        /* \"#utility.yul\":2073:2076   */\n      dup3\n        /* \"#utility.yul\":2069:2081   */\n      add\n        /* \"#utility.yul\":2062:2081   */\n      swap1\n      pop\n        /* \"#utility.yul\":1721:2087   */\n      swap2\n      swap1\n      pop\n      jump\t// out\n        /* \"#utility.yul\":2093:2211   */\n    tag_98:\n        /* \"#utility.yul\":2180:2204   */\n      tag_100\n        /* \"#utility.yul\":2198:2203   */\n      dup2\n        /* \"#utility.yul\":2180:2204   */\n      tag_101\n      jump\t// in\n    tag_100:\n        /* \"#utility.yul\":2175:2178   */\n      dup3\n        /* \"#utility.yul\":2168:2205   */\n      mstore\n        /* \"#utility.yul\":2093:2211   */\n      pop\n      pop\n      jump\t// out\n        /* \"#utility.yul\":2217:2439   */\n    tag_25:\n        /* \"#utility.yul\":2310:2314   */\n      0x00\n        /* \"#utility.yul\":2348:2350   */\n      0x20\n        /* \"#utility.yul\":2337:2346   */\n      dup3\n        /* \"#utility.yul\":2333:2351   */\n      add\n        /* \"#utility.yul\":2325:2351   */\n      swap1\n      pop\n        /* \"#utility.yul\":2361:2432   */\n      tag_103\n        /* \"#utility.yul\":2429:2430   */\n      0x00\n        /* \"#utility.yul\":2418:2427   */\n      dup4\n        /* \"#utility.yul\":2414:2431   */\n      add\n        /* \"#utility.yul\":2405:2411   */\n      dup5\n        /* \"#utility.yul\":2361:2432   */\n      tag_75\n      jump\t// in\n    tag_103:\n        /* \"#utility.yul\":2217:2439   */\n      swap3\n      swap2\n      pop\n      pop\n      jump\t// out\n        /* \"#utility.yul\":2445:2655   */\n    tag_39:\n        /* \"#utility.yul\":2532:2536   */\n      0x00\n        /* \"#utility.yul\":2570:2572   */\n      0x20\n        /* \"#utility.yul\":2559:2568   */\n      dup3\n        /* \"#utility.yul\":2555:2573   */\n      add\n        /* \"#utility.yul\":2547:2573   */\n      swap1\n      pop\n        /* \"#utility.yul\":2583:2648   */\n      tag_105\n        /* \"#utility.yul\":2645:2646   */\n      0x00\n        /* \"#utility.yul\":2634:2643   */\n      dup4\n        /* \"#utility.yul\":2630:2647   */\n      add\n        /* \"#utility.yul\":2621:2627   */\n      dup5\n        /* \"#utility.yul\":2583:2648   */\n      tag_79\n      jump\t// in\n    tag_105:\n        /* \"#utility.yul\":2445:2655   */\n      swap3\n      swap2\n      pop\n      pop\n      jump\t// out\n        /* \"#utility.yul\":2661:2974   */\n    tag_14:\n        /* \"#utility.yul\":2774:2778   */\n      0x00\n        /* \"#utility.yul\":2812:2814   */\n      0x20\n        /* \"#utility.yul\":2801:2810   */\n      dup3\n        /* \"#utility.yul\":2797:2815   */\n      add\n        /* \"#utility.yul\":2789:2815   */\n      swap1\n      pop\n        /* \"#utility.yul\":2861:2870   */\n      dup2\n        /* \"#utility.yul\":2855:2859   */\n      dup2\n        /* \"#utility.yul\":2851:2871   */\n      sub\n        /* \"#utility.yul\":2847:2848   */\n      0x00\n        /* \"#utility.yul\":2836:2845   */\n      dup4\n        /* \"#utility.yul\":2832:2849   */\n      add\n        /* \"#utility.yul\":2825:2872   */\n      mstore\n        /* \"#utility.yul\":2889:2967   */\n      tag_107\n        /* \"#utility.yul\":2962:2966   */\n      dup2\n        /* \"#utility.yul\":2953:2959   */\n      dup5\n        /* \"#utility.yul\":2889:2967   */\n      tag_83\n      jump\t// in\n    tag_107:\n        /* \"#utility.yul\":2881:2967   */\n      swap1\n      pop\n        /* \"#utility.yul\":2661:2974   */\n      swap3\n      swap2\n      pop\n      pop\n      jump\t// out\n        /* \"#utility.yul\":2980:3399   */\n    tag_55:\n        /* \"#utility.yul\":3146:3150   */\n      0x00\n        /* \"#utility.yul\":3184:3186   */\n      0x20\n        /* \"#utility.yul\":3173:3182   */\n      dup3\n        /* \"#utility.yul\":3169:3187   */\n      add\n        /* \"#utility.yul\":3161:3187   */\n      swap1\n      pop\n        /* \"#utility.yul\":3233:3242   */\n      dup2\n        /* \"#utility.yul\":3227:3231   */\n      dup2\n        /* \"#utility.yul\":3223:3243   */\n      sub\n        /* \"#utility.yul\":3219:3220   */\n      0x00\n        /* \"#utility.yul\":3208:3217   */\n      dup4\n        /* \"#utility.yul\":3204:3221   */\n      add\n        /* \"#utility.yul\":3197:3244   */\n      mstore\n        /* \"#utility.yul\":3261:3392   */\n      tag_109\n        /* \"#utility.yul\":3387:3391   */\n      dup2\n        /* \"#utility.yul\":3261:3392   */\n      tag_93\n      jump\t// in\n    tag_109:\n        /* \"#utility.yul\":3253:3392   */\n      swap1\n      pop\n        /* \"#utility.yul\":2980:3399   */\n      swap2\n      swap1\n      pop\n      jump\t// out\n        /* \"#utility.yul\":3405:3627   */\n    tag_18:\n        /* \"#utility.yul\":3498:3502   */\n      0x00\n        /* \"#utility.yul\":3536:3538   */\n      0x20\n        /* \"#utility.yul\":3525:3534   */\n      dup3\n        /* \"#utility.yul\":3521:3539   */\n      add\n        /* \"#utility.yul\":3513:3539   */\n      swap1\n      pop\n        /* \"#utility.yul\":3549:3620   */\n      tag_111\n        /* \"#utility.yul\":3617:3618   */\n      0x00\n        /* \"#utility.yul\":3606:3615   */\n      dup4\n        /* \"#utility.yul\":3602:3619   */\n      add\n        /* \"#utility.yul\":3593:3599   */\n      dup5\n        /* \"#utility.yul\":3549:3620   */\n      tag_98\n      jump\t// in\n    tag_111:\n        /* \"#utility.yul\":3405:3627   */\n      swap3\n      swap2\n      pop\n      pop\n      jump\t// out\n        /* \"#utility.yul\":3714:3813   */\n    tag_86:\n        /* \"#utility.yul\":3766:3772   */\n      0x00\n        /* \"#utility.yul\":3800:3805   */\n      dup2\n        /* \"#utility.yul\":3794:3806   */\n      mload\n        /* \"#utility.yul\":3784:3806   */\n      swap1\n      pop\n        /* \"#utility.yul\":3714:3813   */\n      swap2\n      swap1\n      pop\n      jump\t// out\n        /* \"#utility.yul\":3819:3988   */\n    tag_88:\n        /* \"#utility.yul\":3903:3914   */\n      0x00\n        /* \"#utility.yul\":3937:3943   */\n      dup3\n        /* \"#utility.yul\":3932:3935   */\n      dup3\n        /* \"#utility.yul\":3925:3944   */\n      mstore\n        /* \"#utility.yul\":3977:3981   */\n      0x20\n        /* \"#utility.yul\":3972:3975   */\n      dup3\n        /* \"#utility.yul\":3968:3982   */\n      add\n        /* \"#utility.yul\":3953:3982   */\n      swap1\n      pop\n        /* \"#utility.yul\":3819:3988   */\n      swap3\n      swap2\n      pop\n      pop\n      jump\t// out\n        /* \"#utility.yul\":3994:4090   */\n    tag_78:\n        /* \"#utility.yul\":4031:4038   */\n      0x00\n        /* \"#utility.yul\":4060:4084   */\n      tag_117\n        /* \"#utility.yul\":4078:4083   */\n      dup3\n        /* \"#utility.yul\":4060:4084   */\n      tag_118\n      jump\t// in\n    tag_117:\n        /* \"#utility.yul\":4049:4084   */\n      swap1\n      pop\n        /* \"#utility.yul\":3994:4090   */\n      swap2\n      swap1\n      pop\n      jump\t// out\n        /* \"#utility.yul\":4096:4186   */\n    tag_82:\n        /* \"#utility.yul\":4130:4137   */\n      0x00\n        /* \"#utility.yul\":4173:4178   */\n      dup2\n        /* \"#utility.yul\":4166:4179   */\n      iszero\n        /* \"#utility.yul\":4159:4180   */\n      iszero\n        /* \"#utility.yul\":4148:4180   */\n      swap1\n      pop\n        /* \"#utility.yul\":4096:4186   */\n      swap2\n      swap1\n      pop\n      jump\t// out\n        /* \"#utility.yul\":4192:4318   */\n    tag_118:\n        /* \"#utility.yul\":4229:4236   */\n      0x00\n        /* \"#utility.yul\":4269:4311   */\n      0xffffffffffffffffffffffffffffffffffffffff\n        /* \"#utility.yul\":4262:4267   */\n      dup3\n        /* \"#utility.yul\":4258:4312   */\n      and\n        /* \"#utility.yul\":4247:4312   */\n      swap1\n      pop\n        /* \"#utility.yul\":4192:4318   */\n      swap2\n      swap1\n      pop\n      jump\t// out\n        /* \"#utility.yul\":4324:4401   */\n    tag_101:\n        /* \"#utility.yul\":4361:4368   */\n      0x00\n        /* \"#utility.yul\":4390:4395   */\n      dup2\n        /* \"#utility.yul\":4379:4395   */\n      swap1\n      pop\n        /* \"#utility.yul\":4324:4401   */\n      swap2\n      swap1\n      pop\n      jump\t// out\n        /* \"#utility.yul\":4407:4714   */\n    tag_90:\n        /* \"#utility.yul\":4475:4476   */\n      0x00\n        /* \"#utility.yul\":4485:4598   */\n    tag_123:\n        /* \"#utility.yul\":4499:4505   */\n      dup4\n        /* \"#utility.yul\":4496:4497   */\n      dup2\n        /* \"#utility.yul\":4493:4506   */\n      lt\n        /* \"#utility.yul\":4485:4598   */\n      iszero\n      tag_125\n      jumpi\n        /* \"#utility.yul\":4584:4585   */\n      dup1\n        /* \"#utility.yul\":4579:4582   */\n      dup3\n        /* \"#utility.yul\":4575:4586   */\n      add\n        /* \"#utility.yul\":4569:4587   */\n      mload\n        /* \"#utility.yul\":4565:4566   */\n      dup2\n        /* \"#utility.yul\":4560:4563   */\n      dup5\n        /* \"#utility.yul\":4556:4567   */\n      add\n        /* \"#utility.yul\":4549:4588   */\n      mstore\n        /* \"#utility.yul\":4521:4523   */\n      0x20\n        /* \"#utility.yul\":4518:4519   */\n      dup2\n        /* \"#utility.yul\":4514:4524   */\n      add\n        /* \"#utility.yul\":4509:4524   */\n      swap1\n      pop\n        /* \"#utility.yul\":4485:4598   */\n      jump(tag_123)\n    tag_125:\n        /* \"#utility.yul\":4616:4622   */\n      dup4\n        /* \"#utility.yul\":4613:4614   */\n      dup2\n        /* \"#utility.yul\":4610:4623   */\n      gt\n        /* \"#utility.yul\":4607:4708   */\n      iszero\n      tag_126\n      jumpi\n        /* \"#utility.yul\":4696:4697   */\n      0x00\n        /* \"#utility.yul\":4687:4693   */\n      dup5\n        /* \"#utility.yul\":4682:4685   */\n      dup5\n        /* \"#utility.yul\":4678:4694   */\n      add\n        /* \"#utility.yul\":4671:4698   */\n      mstore\n        /* \"#utility.yul\":4607:4708   */\n    tag_126:\n        /* \"#utility.yul\":4456:4714   */\n      pop\n        /* \"#utility.yul\":4407:4714   */\n      pop\n      pop\n      pop\n      jump\t// out\n        /* \"#utility.yul\":4720:5040   */\n    tag_41:\n        /* \"#utility.yul\":4764:4770   */\n      0x00\n        /* \"#utility.yul\":4801:4802   */\n      0x02\n        /* \"#utility.yul\":4795:4799   */\n      dup3\n        /* \"#utility.yul\":4791:4803   */\n      div\n        /* \"#utility.yul\":4781:4803   */\n      swap1\n      pop\n        /* \"#utility.yul\":4848:4849   */\n      0x01\n        /* \"#utility.yul\":4842:4846   */\n      dup3\n        /* \"#utility.yul\":4838:4850   */\n      and\n        /* \"#utility.yul\":4869:4887   */\n      dup1\n        /* \"#utility.yul\":4859:4940   */\n      tag_128\n      jumpi\n        /* \"#utility.yul\":4925:4929   */\n      0x7f\n        /* \"#utility.yul\":4917:4923   */\n      dup3\n        /* \"#utility.yul\":4913:4930   */\n      and\n        /* \"#utility.yul\":4903:4930   */\n      swap2\n      pop\n        /* \"#utility.yul\":4859:4940   */\n    tag_128:\n        /* \"#utility.yul\":4987:4989   */\n      0x20\n        /* \"#utility.yul\":4979:4985   */\n      dup3\n        /* \"#utility.yul\":4976:4990   */\n      lt\n        /* \"#utility.yul\":4956:4974   */\n      dup2\n        /* \"#utility.yul\":4953:4991   */\n      eq\n        /* \"#utility.yul\":4950:5034   */\n      iszero\n      tag_129\n      jumpi\n        /* \"#utility.yul\":5006:5024   */\n      tag_130\n      tag_131\n      jump\t// in\n    tag_130:\n        /* \"#utility.yul\":4950:5034   */\n    tag_129:\n        /* \"#utility.yul\":4771:5040   */\n      pop\n        /* \"#utility.yul\":4720:5040   */\n      swap2\n      swap1\n      pop\n      jump\t// out\n        /* \"#utility.yul\":5046:5226   */\n    tag_131:\n        /* \"#utility.yul\":5094:5171   */\n      0x4e487b7100000000000000000000000000000000000000000000000000000000\n        /* \"#utility.yul\":5091:5092   */\n      0x00\n        /* \"#utility.yul\":5084:5172   */\n      mstore\n        /* \"#utility.yul\":5191:5195   */\n      0x22\n        /* \"#utility.yul\":5188:5189   */\n      0x04\n        /* \"#utility.yul\":5181:5196   */\n      mstore\n        /* \"#utility.yul\":5215:5219   */\n      0x24\n        /* \"#utility.yul\":5212:5213   */\n      0x00\n        /* \"#utility.yul\":5205:5220   */\n      revert\n        /* \"#utility.yul\":5355:5472   */\n    tag_68:\n        /* \"#utility.yul\":5464:5465   */\n      0x00\n        /* \"#utility.yul\":5461:5462   */\n      dup1\n        /* \"#utility.yul\":5454:5466   */\n      revert\n        /* \"#utility.yul\":5478:5580   */\n    tag_92:\n        /* \"#utility.yul\":5519:5525   */\n      0x00\n        /* \"#utility.yul\":5570:5572   */\n      0x1f\n        /* \"#utility.yul\":5566:5573   */\n      not\n        /* \"#utility.yul\":5561:5563   */\n      0x1f\n        /* \"#utility.yul\":5554:5559   */\n      dup4\n        /* \"#utility.yul\":5550:5564   */\n      add\n        /* \"#utility.yul\":5546:5574   */\n      and\n        /* \"#utility.yul\":5536:5574   */\n      swap1\n      pop\n        /* \"#utility.yul\":5478:5580   */\n      swap2\n      swap1\n      pop\n      jump\t// out\n        /* \"#utility.yul\":5586:5764   */\n    tag_97:\n        /* \"#utility.yul\":5726:5756   */\n      0x496e73756666696369656e74204163636f756e742042616c616e636500000000\n        /* \"#utility.yul\":5722:5723   */\n      0x00\n        /* \"#utility.yul\":5714:5720   */\n      dup3\n        /* \"#utility.yul\":5710:5724   */\n      add\n        /* \"#utility.yul\":5703:5757   */\n      mstore\n        /* \"#utility.yul\":5586:5764   */\n      pop\n      jump\t// out\n        /* \"#utility.yul\":5770:5892   */\n    tag_60:\n        /* \"#utility.yul\":5843:5867   */\n      tag_139\n        /* \"#utility.yul\":5861:5866   */\n      dup2\n        /* \"#utility.yul\":5843:5867   */\n      tag_78\n      jump\t// in\n    tag_139:\n        /* \"#utility.yul\":5836:5841   */\n      dup2\n        /* \"#utility.yul\":5833:5868   */\n      eq\n        /* \"#utility.yul\":5823:5886   */\n      tag_140\n      jumpi\n        /* \"#utility.yul\":5882:5883   */\n      0x00\n        /* \"#utility.yul\":5879:5880   */\n      dup1\n        /* \"#utility.yul\":5872:5884   */\n      revert\n        /* \"#utility.yul\":5823:5886   */\n    tag_140:\n        /* \"#utility.yul\":5770:5892   */\n      pop\n      jump\t// out\n        /* \"#utility.yul\":5898:6020   */\n    tag_64:\n        /* \"#utility.yul\":5971:5995   */\n      tag_142\n        /* \"#utility.yul\":5989:5994   */\n      dup2\n        /* \"#utility.yul\":5971:5995   */\n      tag_101\n      jump\t// in\n    tag_142:\n        /* \"#utility.yul\":5964:5969   */\n      dup2\n        /* \"#utility.yul\":5961:5996   */\n      eq\n        /* \"#utility.yul\":5951:6014   */\n      tag_143\n      jumpi\n        /* \"#utility.yul\":6010:6011   */\n      0x00\n        /* \"#utility.yul\":6007:6008   */\n      dup1\n        /* \"#utility.yul\":6000:6012   */\n      revert\n        /* \"#utility.yul\":5951:6014   */\n    tag_143:\n        /* \"#utility.yul\":5898:6020   */\n      pop\n      jump\t// out\n\n    auxdata: 0xa26469706673582212209d2bb49a1adfb04b36417736bce4763dedcb1f5085ed1d601a10a3d8ad265f2d64736f6c63430008070033\n}\n",
				"bytecode": {
					"linkReferences": {},
					"object": "60806040526040518060400160405280600681526020017f5a494c4c415800000000000000000000000000000000000000000000000000008152506000908051906020019061004f929190610166565b506040518060400160405280600381526020017f5a4c5a00000000000000000000000000000000000000000000000000000000008152506001908051906020019061009b929190610166565b5060006002553480156100ad57600080fd5b50620f424060048190555033600360006101000a81548173ffffffffffffffffffffffffffffffffffffffff021916908373ffffffffffffffffffffffffffffffffffffffff16021790555060045460056000600360009054906101000a900473ffffffffffffffffffffffffffffffffffffffff1673ffffffffffffffffffffffffffffffffffffffff1673ffffffffffffffffffffffffffffffffffffffff1681526020019081526020016000208190555061026a565b82805461017290610209565b90600052602060002090601f01602090048101928261019457600085556101db565b82601f106101ad57805160ff19168380011785556101db565b828001600101855582156101db579182015b828111156101da5782518255916020019190600101906101bf565b5b5090506101e891906101ec565b5090565b5b808211156102055760008160009055506001016101ed565b5090565b6000600282049050600182168061022157607f821691505b602082108114156102355761023461023b565b5b50919050565b7f4e487b7100000000000000000000000000000000000000000000000000000000600052602260045260246000fd5b6106e7806102796000396000f3fe608060405234801561001057600080fd5b506004361061007d5760003560e01c80634d853ee51161005b5780634d853ee5146100dc57806370a08231146100fa57806395d89b411461012a578063a9059cbb146101485761007d565b806306fdde031461008257806318160ddd146100a0578063313ce567146100be575b600080fd5b61008a610178565b60405161009791906104ef565b60405180910390f35b6100a8610206565b6040516100b59190610531565b60405180910390f35b6100c661020c565b6040516100d39190610531565b60405180910390f35b6100e4610212565b6040516100f191906104b9565b60405180910390f35b610114600480360381019061010f91906103c3565b610238565b6040516101219190610531565b60405180910390f35b610132610281565b60405161013f91906104ef565b60405180910390f35b610162600480360381019061015d91906103f0565b61030f565b60405161016f91906104d4565b60405180910390f35b60008054610185906105e3565b80601f01602080910402602001604051908101604052809291908181526020018280546101b1906105e3565b80156101fe5780601f106101d3576101008083540402835291602001916101fe565b820191906000526020600020905b8154815290600101906020018083116101e157829003601f168201915b505050505081565b60045481565b60025481565b600360009054906101000a900473ffffffffffffffffffffffffffffffffffffffff1681565b6000600560008373ffffffffffffffffffffffffffffffffffffffff1673ffffffffffffffffffffffffffffffffffffffff168152602001908152602001600020549050919050565b6001805461028e906105e3565b80601f01602080910402602001604051908101604052809291908181526020018280546102ba906105e3565b80156103075780601f106102dc57610100808354040283529160200191610307565b820191906000526020600020905b8154815290600101906020018083116102ea57829003601f168201915b505050505081565b600081600560003373ffffffffffffffffffffffffffffffffffffffff1673ffffffffffffffffffffffffffffffffffffffff168152602001908152602001600020541015610393576040517f08c379a000000000000000000000000000000000000000000000000000000000815260040161038a90610511565b60405180910390fd5b92915050565b6000813590506103a881610683565b92915050565b6000813590506103bd8161069a565b92915050565b6000602082840312156103d9576103d8610644565b5b60006103e784828501610399565b91505092915050565b6000806040838503121561040757610406610644565b5b600061041585828601610399565b9250506020610426858286016103ae565b9150509250929050565b61043981610568565b82525050565b6104488161057a565b82525050565b60006104598261054c565b6104638185610557565b93506104738185602086016105b0565b61047c81610649565b840191505092915050565b6000610494601c83610557565b915061049f8261065a565b602082019050919050565b6104b3816105a6565b82525050565b60006020820190506104ce6000830184610430565b92915050565b60006020820190506104e9600083018461043f565b92915050565b60006020820190508181036000830152610509818461044e565b905092915050565b6000602082019050818103600083015261052a81610487565b9050919050565b600060208201905061054660008301846104aa565b92915050565b600081519050919050565b600082825260208201905092915050565b600061057382610586565b9050919050565b60008115159050919050565b600073ffffffffffffffffffffffffffffffffffffffff82169050919050565b6000819050919050565b60005b838110156105ce5780820151818401526020810190506105b3565b838111156105dd576000848401525b50505050565b600060028204905060018216806105fb57607f821691505b6020821081141561060f5761060e610615565b5b50919050565b7f4e487b7100000000000000000000000000000000000000000000000000000000600052602260045260246000fd5b600080fd5b6000601f19601f8301169050919050565b7f496e73756666696369656e74204163636f756e742042616c616e636500000000600082015250565b61068c81610568565b811461069757600080fd5b50565b6106a3816105a6565b81146106ae57600080fd5b5056fea26469706673582212209d2bb49a1adfb04b36417736bce4763dedcb1f5085ed1d601a10a3d8ad265f2d64736f6c63430008070033",
					"opcodes": "PUSH1 0x80 PUSH1 0x40 MSTORE PUSH1 0x40 MLOAD DUP1 PUSH1 0x40 ADD PUSH1 0x40 MSTORE DUP1 PUSH1 0x6 DUP2 MSTORE PUSH1 0x20 ADD PUSH32 0x5A494C4C41580000000000000000000000000000000000000000000000000000 DUP2 MSTORE POP PUSH1 0x0 SWAP1 DUP1 MLOAD SWAP1 PUSH1 0x20 ADD SWAP1 PUSH2 0x4F SWAP3 SWAP2 SWAP1 PUSH2 0x166 JUMP JUMPDEST POP PUSH1 0x40 MLOAD DUP1 PUSH1 0x40 ADD PUSH1 0x40 MSTORE DUP1 PUSH1 0x3 DUP2 MSTORE PUSH1 0x20 ADD PUSH32 0x5A4C5A0000000000000000000000000000000000000000000000000000000000 DUP2 MSTORE POP PUSH1 0x1 SWAP1 DUP1 MLOAD SWAP1 PUSH1 0x20 ADD SWAP1 PUSH2 0x9B SWAP3 SWAP2 SWAP1 PUSH2 0x166 JUMP JUMPDEST POP PUSH1 0x0 PUSH1 0x2 SSTORE CALLVALUE DUP1 ISZERO PUSH2 0xAD JUMPI PUSH1 0x0 DUP1 REVERT JUMPDEST POP PUSH3 0xF4240 PUSH1 0x4 DUP2 SWAP1 SSTORE POP CALLER PUSH1 0x3 PUSH1 0x0 PUSH2 0x100 EXP DUP2 SLOAD DUP2 PUSH20 0xFFFFFFFFFFFFFFFFFFFFFFFFFFFFFFFFFFFFFFFF MUL NOT AND SWAP1 DUP4 PUSH20 0xFFFFFFFFFFFFFFFFFFFFFFFFFFFFFFFFFFFFFFFF AND MUL OR SWAP1 SSTORE POP PUSH1 0x4 SLOAD PUSH1 0x5 PUSH1 0x0 PUSH1 0x3 PUSH1 0x0 SWAP1 SLOAD SWAP1 PUSH2 0x100 EXP SWAP1 DIV PUSH20 0xFFFFFFFFFFFFFFFFFFFFFFFFFFFFFFFFFFFFFFFF AND PUSH20 0xFFFFFFFFFFFFFFFFFFFFFFFFFFFFFFFFFFFFFFFF AND PUSH20 0xFFFFFFFFFFFFFFFFFFFFFFFFFFFFFFFFFFFFFFFF AND DUP2 MSTORE PUSH1 0x20 ADD SWAP1 DUP2 MSTORE PUSH1 0x20 ADD PUSH1 0x0 KECCAK256 DUP2 SWAP1 SSTORE POP PUSH2 0x26A JUMP JUMPDEST DUP3 DUP1 SLOAD PUSH2 0x172 SWAP1 PUSH2 0x209 JUMP JUMPDEST SWAP1 PUSH1 0x0 MSTORE PUSH1 0x20 PUSH1 0x0 KECCAK256 SWAP1 PUSH1 0x1F ADD PUSH1 0x20 SWAP1 DIV DUP2 ADD SWAP3 DUP3 PUSH2 0x194 JUMPI PUSH1 0x0 DUP6 SSTORE PUSH2 0x1DB JUMP JUMPDEST DUP3 PUSH1 0x1F LT PUSH2 0x1AD JUMPI DUP1 MLOAD PUSH1 0xFF NOT AND DUP4 DUP1 ADD OR DUP6 SSTORE PUSH2 0x1DB JUMP JUMPDEST DUP3 DUP1 ADD PUSH1 0x1 ADD DUP6 SSTORE DUP3 ISZERO PUSH2 0x1DB JUMPI SWAP2 DUP3 ADD JUMPDEST DUP3 DUP2 GT ISZERO PUSH2 0x1DA JUMPI DUP3 MLOAD DUP3 SSTORE SWAP2 PUSH1 0x20 ADD SWAP2 SWAP1 PUSH1 0x1 ADD SWAP1 PUSH2 0x1BF JUMP JUMPDEST JUMPDEST POP SWAP1 POP PUSH2 0x1E8 SWAP2 SWAP1 PUSH2 0x1EC JUMP JUMPDEST POP SWAP1 JUMP JUMPDEST JUMPDEST DUP1 DUP3 GT ISZERO PUSH2 0x205 JUMPI PUSH1 0x0 DUP2 PUSH1 0x0 SWAP1 SSTORE POP PUSH1 0x1 ADD PUSH2 0x1ED JUMP JUMPDEST POP SWAP1 JUMP JUMPDEST PUSH1 0x0 PUSH1 0x2 DUP3 DIV SWAP1 POP PUSH1 0x1 DUP3 AND DUP1 PUSH2 0x221 JUMPI PUSH1 0x7F DUP3 AND SWAP2 POP JUMPDEST PUSH1 0x20 DUP3 LT DUP2 EQ ISZERO PUSH2 0x235 JUMPI PUSH2 0x234 PUSH2 0x23B JUMP JUMPDEST JUMPDEST POP SWAP2 SWAP1 POP JUMP JUMPDEST PUSH32 0x4E487B7100000000000000000000000000000000000000000000000000000000 PUSH1 0x0 MSTORE PUSH1 0x22 PUSH1 0x4 MSTORE PUSH1 0x24 PUSH1 0x0 REVERT JUMPDEST PUSH2 0x6E7 DUP1 PUSH2 0x279 PUSH1 0x0 CODECOPY PUSH1 0x0 RETURN INVALID PUSH1 0x80 PUSH1 0x40 MSTORE CALLVALUE DUP1 ISZERO PUSH2 0x10 JUMPI PUSH1 0x0 DUP1 REVERT JUMPDEST POP PUSH1 0x4 CALLDATASIZE LT PUSH2 0x7D JUMPI PUSH1 0x0 CALLDATALOAD PUSH1 0xE0 SHR DUP1 PUSH4 0x4D853EE5 GT PUSH2 0x5B JUMPI DUP1 PUSH4 0x4D853EE5 EQ PUSH2 0xDC JUMPI DUP1 PUSH4 0x70A08231 EQ PUSH2 0xFA JUMPI DUP1 PUSH4 0x95D89B41 EQ PUSH2 0x12A JUMPI DUP1 PUSH4 0xA9059CBB EQ PUSH2 0x148 JUMPI PUSH2 0x7D JUMP JUMPDEST DUP1 PUSH4 0x6FDDE03 EQ PUSH2 0x82 JUMPI DUP1 PUSH4 0x18160DDD EQ PUSH2 0xA0 JUMPI DUP1 PUSH4 0x313CE567 EQ PUSH2 0xBE JUMPI JUMPDEST PUSH1 0x0 DUP1 REVERT JUMPDEST PUSH2 0x8A PUSH2 0x178 JUMP JUMPDEST PUSH1 0x40 MLOAD PUSH2 0x97 SWAP2 SWAP1 PUSH2 0x4EF JUMP JUMPDEST PUSH1 0x40 MLOAD DUP1 SWAP2 SUB SWAP1 RETURN JUMPDEST PUSH2 0xA8 PUSH2 0x206 JUMP JUMPDEST PUSH1 0x40 MLOAD PUSH2 0xB5 SWAP2 SWAP1 PUSH2 0x531 JUMP JUMPDEST PUSH1 0x40 MLOAD DUP1 SWAP2 SUB SWAP1 RETURN JUMPDEST PUSH2 0xC6 PUSH2 0x20C JUMP JUMPDEST PUSH1 0x40 MLOAD PUSH2 0xD3 SWAP2 SWAP1 PUSH2 0x531 JUMP JUMPDEST PUSH1 0x40 MLOAD DUP1 SWAP2 SUB SWAP1 RETURN JUMPDEST PUSH2 0xE4 PUSH2 0x212 JUMP JUMPDEST PUSH1 0x40 MLOAD PUSH2 0xF1 SWAP2 SWAP1 PUSH2 0x4B9 JUMP JUMPDEST PUSH1 0x40 MLOAD DUP1 SWAP2 SUB SWAP1 RETURN JUMPDEST PUSH2 0x114 PUSH1 0x4 DUP1 CALLDATASIZE SUB DUP2 ADD SWAP1 PUSH2 0x10F SWAP2 SWAP1 PUSH2 0x3C3 JUMP JUMPDEST PUSH2 0x238 JUMP JUMPDEST PUSH1 0x40 MLOAD PUSH2 0x121 SWAP2 SWAP1 PUSH2 0x531 JUMP JUMPDEST PUSH1 0x40 MLOAD DUP1 SWAP2 SUB SWAP1 RETURN JUMPDEST PUSH2 0x132 PUSH2 0x281 JUMP JUMPDEST PUSH1 0x40 MLOAD PUSH2 0x13F SWAP2 SWAP1 PUSH2 0x4EF JUMP JUMPDEST PUSH1 0x40 MLOAD DUP1 SWAP2 SUB SWAP1 RETURN JUMPDEST PUSH2 0x162 PUSH1 0x4 DUP1 CALLDATASIZE SUB DUP2 ADD SWAP1 PUSH2 0x15D SWAP2 SWAP1 PUSH2 0x3F0 JUMP JUMPDEST PUSH2 0x30F JUMP JUMPDEST PUSH1 0x40 MLOAD PUSH2 0x16F SWAP2 SWAP1 PUSH2 0x4D4 JUMP JUMPDEST PUSH1 0x40 MLOAD DUP1 SWAP2 SUB SWAP1 RETURN JUMPDEST PUSH1 0x0 DUP1 SLOAD PUSH2 0x185 SWAP1 PUSH2 0x5E3 JUMP JUMPDEST DUP1 PUSH1 0x1F ADD PUSH1 0x20 DUP1 SWAP2 DIV MUL PUSH1 0x20 ADD PUSH1 0x40 MLOAD SWAP1 DUP2 ADD PUSH1 0x40 MSTORE DUP1 SWAP3 SWAP2 SWAP1 DUP2 DUP2 MSTORE PUSH1 0x20 ADD DUP3 DUP1 SLOAD PUSH2 0x1B1 SWAP1 PUSH2 0x5E3 JUMP JUMPDEST DUP1 ISZERO PUSH2 0x1FE JUMPI DUP1 PUSH1 0x1F LT PUSH2 0x1D3 JUMPI PUSH2 0x100 DUP1 DUP4 SLOAD DIV MUL DUP4 MSTORE SWAP2 PUSH1 0x20 ADD SWAP2 PUSH2 0x1FE JUMP JUMPDEST DUP3 ADD SWAP2 SWAP1 PUSH1 0x0 MSTORE PUSH1 0x20 PUSH1 0x0 KECCAK256 SWAP1 JUMPDEST DUP2 SLOAD DUP2 MSTORE SWAP1 PUSH1 0x1 ADD SWAP1 PUSH1 0x20 ADD DUP1 DUP4 GT PUSH2 0x1E1 JUMPI DUP3 SWAP1 SUB PUSH1 0x1F AND DUP3 ADD SWAP2 JUMPDEST POP POP POP POP POP DUP2 JUMP JUMPDEST PUSH1 0x4 SLOAD DUP2 JUMP JUMPDEST PUSH1 0x2 SLOAD DUP2 JUMP JUMPDEST PUSH1 0x3 PUSH1 0x0 SWAP1 SLOAD SWAP1 PUSH2 0x100 EXP SWAP1 DIV PUSH20 0xFFFFFFFFFFFFFFFFFFFFFFFFFFFFFFFFFFFFFFFF AND DUP2 JUMP JUMPDEST PUSH1 0x0 PUSH1 0x5 PUSH1 0x0 DUP4 PUSH20 0xFFFFFFFFFFFFFFFFFFFFFFFFFFFFFFFFFFFFFFFF AND PUSH20 0xFFFFFFFFFFFFFFFFFFFFFFFFFFFFFFFFFFFFFFFF AND DUP2 MSTORE PUSH1 0x20 ADD SWAP1 DUP2 MSTORE PUSH1 0x20 ADD PUSH1 0x0 KECCAK256 SLOAD SWAP1 POP SWAP2 SWAP1 POP JUMP JUMPDEST PUSH1 0x1 DUP1 SLOAD PUSH2 0x28E SWAP1 PUSH2 0x5E3 JUMP JUMPDEST DUP1 PUSH1 0x1F ADD PUSH1 0x20 DUP1 SWAP2 DIV MUL PUSH1 0x20 ADD PUSH1 0x40 MLOAD SWAP1 DUP2 ADD PUSH1 0x40 MSTORE DUP1 SWAP3 SWAP2 SWAP1 DUP2 DUP2 MSTORE PUSH1 0x20 ADD DUP3 DUP1 SLOAD PUSH2 0x2BA SWAP1 PUSH2 0x5E3 JUMP JUMPDEST DUP1 ISZERO PUSH2 0x307 JUMPI DUP1 PUSH1 0x1F LT PUSH2 0x2DC JUMPI PUSH2 0x100 DUP1 DUP4 SLOAD DIV MUL DUP4 MSTORE SWAP2 PUSH1 0x20 ADD SWAP2 PUSH2 0x307 JUMP JUMPDEST DUP3 ADD SWAP2 SWAP1 PUSH1 0x0 MSTORE PUSH1 0x20 PUSH1 0x0 KECCAK256 SWAP1 JUMPDEST DUP2 SLOAD DUP2 MSTORE SWAP1 PUSH1 0x1 ADD SWAP1 PUSH1 0x20 ADD DUP1 DUP4 GT PUSH2 0x2EA JUMPI DUP3 SWAP1 SUB PUSH1 0x1F AND DUP3 ADD SWAP2 JUMPDEST POP POP POP POP POP DUP2 JUMP JUMPDEST PUSH1 0x0 DUP2 PUSH1 0x5 PUSH1 0x0 CALLER PUSH20 0xFFFFFFFFFFFFFFFFFFFFFFFFFFFFFFFFFFFFFFFF AND PUSH20 0xFFFFFFFFFFFFFFFFFFFFFFFFFFFFFFFFFFFFFFFF AND DUP2 MSTORE PUSH1 0x20 ADD SWAP1 DUP2 MSTORE PUSH1 0x20 ADD PUSH1 0x0 KECCAK256 SLOAD LT ISZERO PUSH2 0x393 JUMPI PUSH1 0x40 MLOAD PUSH32 0x8C379A000000000000000000000000000000000000000000000000000000000 DUP2 MSTORE PUSH1 0x4 ADD PUSH2 0x38A SWAP1 PUSH2 0x511 JUMP JUMPDEST PUSH1 0x40 MLOAD DUP1 SWAP2 SUB SWAP1 REVERT JUMPDEST SWAP3 SWAP2 POP POP JUMP JUMPDEST PUSH1 0x0 DUP2 CALLDATALOAD SWAP1 POP PUSH2 0x3A8 DUP2 PUSH2 0x683 JUMP JUMPDEST SWAP3 SWAP2 POP POP JUMP JUMPDEST PUSH1 0x0 DUP2 CALLDATALOAD SWAP1 POP PUSH2 0x3BD DUP2 PUSH2 0x69A JUMP JUMPDEST SWAP3 SWAP2 POP POP JUMP JUMPDEST PUSH1 0x0 PUSH1 0x20 DUP3 DUP5 SUB SLT ISZERO PUSH2 0x3D9 JUMPI PUSH2 0x3D8 PUSH2 0x644 JUMP JUMPDEST JUMPDEST PUSH1 0x0 PUSH2 0x3E7 DUP5 DUP3 DUP6 ADD PUSH2 0x399 JUMP JUMPDEST SWAP2 POP POP SWAP3 SWAP2 POP POP JUMP JUMPDEST PUSH1 0x0 DUP1 PUSH1 0x40 DUP4 DUP6 SUB SLT ISZERO PUSH2 0x407 JUMPI PUSH2 0x406 PUSH2 0x644 JUMP JUMPDEST JUMPDEST PUSH1 0x0 PUSH2 0x415 DUP6 DUP3 DUP7 ADD PUSH2 0x399 JUMP JUMPDEST SWAP3 POP POP PUSH1 0x20 PUSH2 0x426 DUP6 DUP3 DUP7 ADD PUSH2 0x3AE JUMP JUMPDEST SWAP2 POP POP SWAP3 POP SWAP3 SWAP1 POP JUMP JUMPDEST PUSH2 0x439 DUP2 PUSH2 0x568 JUMP JUMPDEST DUP3 MSTORE POP POP JUMP JUMPDEST PUSH2 0x448 DUP2 PUSH2 0x57A JUMP JUMPDEST DUP3 MSTORE POP POP JUMP JUMPDEST PUSH1 0x0 PUSH2 0x459 DUP3 PUSH2 0x54C JUMP JUMPDEST PUSH2 0x463 DUP2 DUP6 PUSH2 0x557 JUMP JUMPDEST SWAP4 POP PUSH2 0x473 DUP2 DUP6 PUSH1 0x20 DUP7 ADD PUSH2 0x5B0 JUMP JUMPDEST PUSH2 0x47C DUP2 PUSH2 0x649 JUMP JUMPDEST DUP5 ADD SWAP2 POP POP SWAP3 SWAP2 POP POP JUMP JUMPDEST PUSH1 0x0 PUSH2 0x494 PUSH1 0x1C DUP4 PUSH2 0x557 JUMP JUMPDEST SWAP2 POP PUSH2 0x49F DUP3 PUSH2 0x65A JUMP JUMPDEST PUSH1 0x20 DUP3 ADD SWAP1 POP SWAP2 SWAP1 POP JUMP JUMPDEST PUSH2 0x4B3 DUP2 PUSH2 0x5A6 JUMP JUMPDEST DUP3 MSTORE POP POP JUMP JUMPDEST PUSH1 0x0 PUSH1 0x20 DUP3 ADD SWAP1 POP PUSH2 0x4CE PUSH1 0x0 DUP4 ADD DUP5 PUSH2 0x430 JUMP JUMPDEST SWAP3 SWAP2 POP POP JUMP JUMPDEST PUSH1 0x0 PUSH1 0x20 DUP3 ADD SWAP1 POP PUSH2 0x4E9 PUSH1 0x0 DUP4 ADD DUP5 PUSH2 0x43F JUMP JUMPDEST SWAP3 SWAP2 POP POP JUMP JUMPDEST PUSH1 0x0 PUSH1 0x20 DUP3 ADD SWAP1 POP DUP2 DUP2 SUB PUSH1 0x0 DUP4 ADD MSTORE PUSH2 0x509 DUP2 DUP5 PUSH2 0x44E JUMP JUMPDEST SWAP1 POP SWAP3 SWAP2 POP POP JUMP JUMPDEST PUSH1 0x0 PUSH1 0x20 DUP3 ADD SWAP1 POP DUP2 DUP2 SUB PUSH1 0x0 DUP4 ADD MSTORE PUSH2 0x52A DUP2 PUSH2 0x487 JUMP JUMPDEST SWAP1 POP SWAP2 SWAP1 POP JUMP JUMPDEST PUSH1 0x0 PUSH1 0x20 DUP3 ADD SWAP1 POP PUSH2 0x546 PUSH1 0x0 DUP4 ADD DUP5 PUSH2 0x4AA JUMP JUMPDEST SWAP3 SWAP2 POP POP JUMP JUMPDEST PUSH1 0x0 DUP2 MLOAD SWAP1 POP SWAP2 SWAP1 POP JUMP JUMPDEST PUSH1 0x0 DUP3 DUP3 MSTORE PUSH1 0x20 DUP3 ADD SWAP1 POP SWAP3 SWAP2 POP POP JUMP JUMPDEST PUSH1 0x0 PUSH2 0x573 DUP3 PUSH2 0x586 JUMP JUMPDEST SWAP1 POP SWAP2 SWAP1 POP JUMP JUMPDEST PUSH1 0x0 DUP2 ISZERO ISZERO SWAP1 POP SWAP2 SWAP1 POP JUMP JUMPDEST PUSH1 0x0 PUSH20 0xFFFFFFFFFFFFFFFFFFFFFFFFFFFFFFFFFFFFFFFF DUP3 AND SWAP1 POP SWAP2 SWAP1 POP JUMP JUMPDEST PUSH1 0x0 DUP2 SWAP1 POP SWAP2 SWAP1 POP JUMP JUMPDEST PUSH1 0x0 JUMPDEST DUP4 DUP2 LT ISZERO PUSH2 0x5CE JUMPI DUP1 DUP3 ADD MLOAD DUP2 DUP5 ADD MSTORE PUSH1 0x20 DUP2 ADD SWAP1 POP PUSH2 0x5B3 JUMP JUMPDEST DUP4 DUP2 GT ISZERO PUSH2 0x5DD JUMPI PUSH1 0x0 DUP5 DUP5 ADD MSTORE JUMPDEST POP POP POP POP JUMP JUMPDEST PUSH1 0x0 PUSH1 0x2 DUP3 DIV SWAP1 POP PUSH1 0x1 DUP3 AND DUP1 PUSH2 0x5FB JUMPI PUSH1 0x7F DUP3 AND SWAP2 POP JUMPDEST PUSH1 0x20 DUP3 LT DUP2 EQ ISZERO PUSH2 0x60F JUMPI PUSH2 0x60E PUSH2 0x615 JUMP JUMPDEST JUMPDEST POP SWAP2 SWAP1 POP JUMP JUMPDEST PUSH32 0x4E487B7100000000000000000000000000000000000000000000000000000000 PUSH1 0x0 MSTORE PUSH1 0x22 PUSH1 0x4 MSTORE PUSH1 0x24 PUSH1 0x0 REVERT JUMPDEST PUSH1 0x0 DUP1 REVERT JUMPDEST PUSH1 0x0 PUSH1 0x1F NOT PUSH1 0x1F DUP4 ADD AND SWAP1 POP SWAP2 SWAP1 POP JUMP JUMPDEST PUSH32 0x496E73756666696369656E74204163636F756E742042616C616E636500000000 PUSH1 0x0 DUP3 ADD MSTORE POP JUMP JUMPDEST PUSH2 0x68C DUP2 PUSH2 0x568 JUMP JUMPDEST DUP2 EQ PUSH2 0x697 JUMPI PUSH1 0x0 DUP1 REVERT JUMPDEST POP JUMP JUMPDEST PUSH2 0x6A3 DUP2 PUSH2 0x5A6 JUMP JUMPDEST DUP2 EQ PUSH2 0x6AE JUMPI PUSH1 0x0 DUP1 REVERT JUMPDEST POP JUMP INVALID LOG2 PUSH5 0x6970667358 0x22 SLT KECCAK256 SWAP14 0x2B 0xB4 SWAP11 BYTE 0xDF 0xB0 0x4B CALLDATASIZE COINBASE PUSH24 0x36BCE4763DEDCB1F5085ED1D601A10A3D8AD265F2D64736F PUSH13 0x63430008070033000000000000 "
				},
				"gasEstimates": {
					"creation": {
						"codeDepositCost": "353400",
						"executionCost": "infinite",
						"totalCost": "infinite"
					},
					"external": {
						"balanceOf(address)": "2863",
						"decimals()": "2474",
						"founder()": "2514",
						"name()": "infinite",
						"symbol()": "infinite",
						"totalSupply()": "2452",
						"transfer(address,uint256)": "3197"
					}
				},
				"methodIdentifiers": {
					"balanceOf(address)": "70a08231",
					"decimals()": "313ce567",
					"founder()": "4d853ee5",
					"name()": "06fdde03",
					"symbol()": "95d89b41",
					"totalSupply()": "18160ddd",
					"transfer(address,uint256)": "a9059cbb"
				}
			},
			"storageLayout": {
				"storage": [
					{
						"astId": 36,
						"contract": "contracts/Erc20token.sol:MyToken",
						"label": "name",
						"offset": 0,
						"slot": "0",
						"type": "t_string_storage"
					},
					{
						"astId": 39,
						"contract": "contracts/Erc20token.sol:MyToken",
						"label": "symbol",
						"offset": 0,
						"slot": "1",
						"type": "t_string_storage"
					},
					{
						"astId": 42,
						"contract": "contracts/Erc20token.sol:MyToken",
						"label": "decimals",
						"offset": 0,
						"slot": "2",
						"type": "t_uint256"
					},
					{
						"astId": 44,
						"contract": "contracts/Erc20token.sol:MyToken",
						"label": "founder",
						"offset": 0,
						"slot": "3",
						"type": "t_address"
					},
					{
						"astId": 47,
						"contract": "contracts/Erc20token.sol:MyToken",
						"label": "totalSupply",
						"offset": 0,
						"slot": "4",
						"type": "t_uint256"
					},
					{
						"astId": 51,
						"contract": "contracts/Erc20token.sol:MyToken",
						"label": "balances",
						"offset": 0,
						"slot": "5",
						"type": "t_mapping(t_address,t_uint256)"
					}
				],
				"types": {
					"t_address": {
						"encoding": "inplace",
						"label": "address",
						"numberOfBytes": "20"
					},
					"t_mapping(t_address,t_uint256)": {
						"encoding": "mapping",
						"key": "t_address",
						"label": "mapping(address => uint256)",
						"numberOfBytes": "32",
						"value": "t_uint256"
					},
					"t_string_storage": {
						"encoding": "bytes",
						"label": "string",
						"numberOfBytes": "32"
					},
					"t_uint256": {
						"encoding": "inplace",
						"label": "uint256",
						"numberOfBytes": "32"
					}
				}
			},
			"userdoc": {
				"kind": "user",
				"methods": {},
				"version": 1
			}
		}
	}
}