{
	"contracts/Auctionsol.sol": {
		"Lottery": {
			"abi": [
				{
					"inputs": [],
					"stateMutability": "nonpayable",
					"type": "constructor"
				},
				{
					"inputs": [],
					"name": "auctionState",
					"outputs": [
						{
							"internalType": "enum Lottery.State",
							"name": "",
							"type": "uint8"
						}
					],
					"stateMutability": "view",
					"type": "function"
				},
				{
					"inputs": [],
					"name": "bidIncrement",
					"outputs": [
						{
							"internalType": "uint256",
							"name": "",
							"type": "uint256"
						}
					],
					"stateMutability": "view",
					"type": "function"
				},
				{
					"inputs": [
						{
							"internalType": "address",
							"name": "",
							"type": "address"
						}
					],
					"name": "bidsMap",
					"outputs": [
						{
							"internalType": "uint256",
							"name": "",
							"type": "uint256"
						}
					],
					"stateMutability": "view",
					"type": "function"
				},
				{
					"inputs": [],
					"name": "endBlock",
					"outputs": [
						{
							"internalType": "uint256",
							"name": "",
							"type": "uint256"
						}
					],
					"stateMutability": "view",
					"type": "function"
				},
				{
					"inputs": [],
					"name": "finalizeAuction",
					"outputs": [],
					"stateMutability": "nonpayable",
					"type": "function"
				},
				{
					"inputs": [],
					"name": "higestBindingBid",
					"outputs": [
						{
							"internalType": "uint256",
							"name": "",
							"type": "uint256"
						}
					],
					"stateMutability": "view",
					"type": "function"
				},
				{
					"inputs": [],
					"name": "highestBidder",
					"outputs": [
						{
							"internalType": "address payable",
							"name": "",
							"type": "address"
						}
					],
					"stateMutability": "view",
					"type": "function"
				},
				{
					"inputs": [],
					"name": "ipfsHash",
					"outputs": [
						{
							"internalType": "string",
							"name": "",
							"type": "string"
						}
					],
					"stateMutability": "view",
					"type": "function"
				},
				{
					"inputs": [],
					"name": "makeABid",
					"outputs": [],
					"stateMutability": "payable",
					"type": "function"
				},
				{
					"inputs": [],
					"name": "owner",
					"outputs": [
						{
							"internalType": "address payable",
							"name": "",
							"type": "address"
						}
					],
					"stateMutability": "view",
					"type": "function"
				},
				{
					"inputs": [],
					"name": "startBlock",
					"outputs": [
						{
							"internalType": "uint256",
							"name": "",
							"type": "uint256"
						}
					],
					"stateMutability": "view",
					"type": "function"
				}
			],
			"devdoc": {
				"kind": "dev",
				"methods": {},
				"version": 1
			},
			"evm": {
				"assembly": "    /* \"contracts/Auctionsol.sol\":74:3805  contract Lottery{\r... */\n  mstore(0x40, 0x80)\n    /* \"contracts/Auctionsol.sol\":527:754  constructor(){\r... */\n  callvalue\n  dup1\n  iszero\n  tag_1\n  jumpi\n  0x00\n  dup1\n  revert\ntag_1:\n  pop\n    /* \"contracts/Auctionsol.sol\":567:577  msg.sender */\n  caller\n    /* \"contracts/Auctionsol.sol\":551:556  owner */\n  0x01\n  0x00\n    /* \"contracts/Auctionsol.sol\":551:578  owner = payable(msg.sender) */\n  0x0100\n  exp\n  dup2\n  sload\n  dup2\n  0xffffffffffffffffffffffffffffffffffffffff\n  mul\n  not\n  and\n  swap1\n  dup4\n  0xffffffffffffffffffffffffffffffffffffffff\n  and\n  mul\n  or\n  swap1\n  sstore\n  pop\n    /* \"contracts/Auctionsol.sol\":604:607  100 */\n  0x64\n    /* \"contracts/Auctionsol.sol\":589:601  bidIncrement */\n  0x04\n    /* \"contracts/Auctionsol.sol\":589:607  bidIncrement = 100 */\n  dup2\n  swap1\n  sstore\n  pop\n    /* \"contracts/Auctionsol.sol\":633:646  State.Running */\n  0x01\n    /* \"contracts/Auctionsol.sol\":618:630  auctionState */\n  0x07\n  0x00\n    /* \"contracts/Auctionsol.sol\":618:646  auctionState = State.Running */\n  0x0100\n  exp\n  dup2\n  sload\n  dup2\n  0xff\n  mul\n  not\n  and\n  swap1\n  dup4\n  0x03\n  dup2\n  gt\n  iszero\n  tag_4\n  jumpi\n  tag_5\n  tag_6\n  jump\t// in\ntag_5:\ntag_4:\n  mul\n  or\n  swap1\n  sstore\n  pop\n    /* \"contracts/Auctionsol.sol\":659:672  ipfsHash = '' */\n  mload(0x40)\n  dup1\n  0x20\n  add\n  0x40\n  mstore\n  dup1\n  0x00\n  dup2\n  mstore\n  pop\n    /* \"contracts/Auctionsol.sol\":659:667  ipfsHash */\n  0x08\n    /* \"contracts/Auctionsol.sol\":659:672  ipfsHash = '' */\n  swap1\n  dup1\n  mload\n  swap1\n  0x20\n  add\n  swap1\n  tag_7\n  swap3\n  swap2\n  swap1\n  tag_8\n  jump\t// in\ntag_7:\n  pop\n    /* \"contracts/Auctionsol.sol\":698:710  block.number */\n  number\n    /* \"contracts/Auctionsol.sol\":685:695  startBlock */\n  0x05\n    /* \"contracts/Auctionsol.sol\":685:710  startBlock = block.number */\n  dup2\n  swap1\n  sstore\n  pop\n    /* \"contracts/Auctionsol.sol\":745:746  3 */\n  0x03\n    /* \"contracts/Auctionsol.sol\":732:742  startBlock */\n  sload(0x05)\n    /* \"contracts/Auctionsol.sol\":732:746  startBlock + 3 */\n  tag_9\n  swap2\n  swap1\n  tag_10\n  jump\t// in\ntag_9:\n    /* \"contracts/Auctionsol.sol\":721:729  endBlock */\n  0x06\n    /* \"contracts/Auctionsol.sol\":721:746  endBlock = startBlock + 3 */\n  dup2\n  swap1\n  sstore\n  pop\n    /* \"contracts/Auctionsol.sol\":74:3805  contract Lottery{\r... */\n  jump(tag_11)\ntag_8:\n  dup3\n  dup1\n  sload\n  tag_12\n  swap1\n  tag_13\n  jump\t// in\ntag_12:\n  swap1\n  0x00\n  mstore\n  keccak256(0x00, 0x20)\n  swap1\n  0x1f\n  add\n  0x20\n  swap1\n  div\n  dup2\n  add\n  swap3\n  dup3\n  tag_15\n  jumpi\n  0x00\n  dup6\n  sstore\n  jump(tag_14)\ntag_15:\n  dup3\n  0x1f\n  lt\n  tag_16\n  jumpi\n  dup1\n  mload\n  not(0xff)\n  and\n  dup4\n  dup1\n  add\n  or\n  dup6\n  sstore\n  jump(tag_14)\ntag_16:\n  dup3\n  dup1\n  add\n  0x01\n  add\n  dup6\n  sstore\n  dup3\n  iszero\n  tag_14\n  jumpi\n  swap2\n  dup3\n  add\ntag_17:\n  dup3\n  dup2\n  gt\n  iszero\n  tag_18\n  jumpi\n  dup3\n  mload\n  dup3\n  sstore\n  swap2\n  0x20\n  add\n  swap2\n  swap1\n  0x01\n  add\n  swap1\n  jump(tag_17)\ntag_18:\ntag_14:\n  pop\n  swap1\n  pop\n  tag_19\n  swap2\n  swap1\n  tag_20\n  jump\t// in\ntag_19:\n  pop\n  swap1\n  jump\t// out\ntag_20:\ntag_21:\n  dup1\n  dup3\n  gt\n  iszero\n  tag_22\n  jumpi\n  0x00\n  dup2\n  0x00\n  swap1\n  sstore\n  pop\n  0x01\n  add\n  jump(tag_21)\ntag_22:\n  pop\n  swap1\n  jump\t// out\n    /* \"#utility.yul\":7:312   */\ntag_10:\n    /* \"#utility.yul\":47:50   */\n  0x00\n    /* \"#utility.yul\":66:86   */\n  tag_25\n    /* \"#utility.yul\":84:85   */\n  dup3\n    /* \"#utility.yul\":66:86   */\n  tag_26\n  jump\t// in\ntag_25:\n    /* \"#utility.yul\":61:86   */\n  swap2\n  pop\n    /* \"#utility.yul\":100:120   */\n  tag_27\n    /* \"#utility.yul\":118:119   */\n  dup4\n    /* \"#utility.yul\":100:120   */\n  tag_26\n  jump\t// in\ntag_27:\n    /* \"#utility.yul\":95:120   */\n  swap3\n  pop\n    /* \"#utility.yul\":254:255   */\n  dup3\n    /* \"#utility.yul\":186:252   */\n  0xffffffffffffffffffffffffffffffffffffffffffffffffffffffffffffffff\n    /* \"#utility.yul\":182:256   */\n  sub\n    /* \"#utility.yul\":179:180   */\n  dup3\n    /* \"#utility.yul\":176:257   */\n  gt\n    /* \"#utility.yul\":173:280   */\n  iszero\n  tag_28\n  jumpi\n    /* \"#utility.yul\":260:278   */\n  tag_29\n  tag_30\n  jump\t// in\ntag_29:\n    /* \"#utility.yul\":173:280   */\ntag_28:\n    /* \"#utility.yul\":304:305   */\n  dup3\n    /* \"#utility.yul\":301:302   */\n  dup3\n    /* \"#utility.yul\":297:306   */\n  add\n    /* \"#utility.yul\":290:306   */\n  swap1\n  pop\n    /* \"#utility.yul\":7:312   */\n  swap3\n  swap2\n  pop\n  pop\n  jump\t// out\n    /* \"#utility.yul\":318:395   */\ntag_26:\n    /* \"#utility.yul\":355:362   */\n  0x00\n    /* \"#utility.yul\":384:389   */\n  dup2\n    /* \"#utility.yul\":373:389   */\n  swap1\n  pop\n    /* \"#utility.yul\":318:395   */\n  swap2\n  swap1\n  pop\n  jump\t// out\n    /* \"#utility.yul\":401:721   */\ntag_13:\n    /* \"#utility.yul\":445:451   */\n  0x00\n    /* \"#utility.yul\":482:483   */\n  0x02\n    /* \"#utility.yul\":476:480   */\n  dup3\n    /* \"#utility.yul\":472:484   */\n  div\n    /* \"#utility.yul\":462:484   */\n  swap1\n  pop\n    /* \"#utility.yul\":529:530   */\n  0x01\n    /* \"#utility.yul\":523:527   */\n  dup3\n    /* \"#utility.yul\":519:531   */\n  and\n    /* \"#utility.yul\":550:568   */\n  dup1\n    /* \"#utility.yul\":540:621   */\n  tag_33\n  jumpi\n    /* \"#utility.yul\":606:610   */\n  0x7f\n    /* \"#utility.yul\":598:604   */\n  dup3\n    /* \"#utility.yul\":594:611   */\n  and\n    /* \"#utility.yul\":584:611   */\n  swap2\n  pop\n    /* \"#utility.yul\":540:621   */\ntag_33:\n    /* \"#utility.yul\":668:670   */\n  0x20\n    /* \"#utility.yul\":660:666   */\n  dup3\n    /* \"#utility.yul\":657:671   */\n  lt\n    /* \"#utility.yul\":637:655   */\n  dup2\n    /* \"#utility.yul\":634:672   */\n  eq\n    /* \"#utility.yul\":631:715   */\n  iszero\n  tag_34\n  jumpi\n    /* \"#utility.yul\":687:705   */\n  tag_35\n  tag_36\n  jump\t// in\ntag_35:\n    /* \"#utility.yul\":631:715   */\ntag_34:\n    /* \"#utility.yul\":452:721   */\n  pop\n    /* \"#utility.yul\":401:721   */\n  swap2\n  swap1\n  pop\n  jump\t// out\n    /* \"#utility.yul\":727:907   */\ntag_30:\n    /* \"#utility.yul\":775:852   */\n  0x4e487b7100000000000000000000000000000000000000000000000000000000\n    /* \"#utility.yul\":772:773   */\n  0x00\n    /* \"#utility.yul\":765:853   */\n  mstore\n    /* \"#utility.yul\":872:876   */\n  0x11\n    /* \"#utility.yul\":869:870   */\n  0x04\n    /* \"#utility.yul\":862:877   */\n  mstore\n    /* \"#utility.yul\":896:900   */\n  0x24\n    /* \"#utility.yul\":893:894   */\n  0x00\n    /* \"#utility.yul\":886:901   */\n  revert\n    /* \"#utility.yul\":913:1093   */\ntag_6:\n    /* \"#utility.yul\":961:1038   */\n  0x4e487b7100000000000000000000000000000000000000000000000000000000\n    /* \"#utility.yul\":958:959   */\n  0x00\n    /* \"#utility.yul\":951:1039   */\n  mstore\n    /* \"#utility.yul\":1058:1062   */\n  0x21\n    /* \"#utility.yul\":1055:1056   */\n  0x04\n    /* \"#utility.yul\":1048:1063   */\n  mstore\n    /* \"#utility.yul\":1082:1086   */\n  0x24\n    /* \"#utility.yul\":1079:1080   */\n  0x00\n    /* \"#utility.yul\":1072:1087   */\n  revert\n    /* \"#utility.yul\":1099:1279   */\ntag_36:\n    /* \"#utility.yul\":1147:1224   */\n  0x4e487b7100000000000000000000000000000000000000000000000000000000\n    /* \"#utility.yul\":1144:1145   */\n  0x00\n    /* \"#utility.yul\":1137:1225   */\n  mstore\n    /* \"#utility.yul\":1244:1248   */\n  0x22\n    /* \"#utility.yul\":1241:1242   */\n  0x04\n    /* \"#utility.yul\":1234:1249   */\n  mstore\n    /* \"#utility.yul\":1268:1272   */\n  0x24\n    /* \"#utility.yul\":1265:1266   */\n  0x00\n    /* \"#utility.yul\":1258:1273   */\n  revert\n    /* \"contracts/Auctionsol.sol\":74:3805  contract Lottery{\r... */\ntag_11:\n  dataSize(sub_0)\n  dup1\n  dataOffset(sub_0)\n  0x00\n  codecopy\n  0x00\n  return\nstop\n\nsub_0: assembly {\n        /* \"contracts/Auctionsol.sol\":74:3805  contract Lottery{\r... */\n      mstore(0x40, 0x80)\n      jumpi(tag_1, lt(calldatasize, 0x04))\n      shr(0xe0, calldataload(0x00))\n      dup1\n      0x91c11f7d\n      gt\n      tag_13\n      jumpi\n      dup1\n      0x91c11f7d\n      eq\n      tag_7\n      jumpi\n      dup1\n      0x91f90157\n      eq\n      tag_8\n      jumpi\n      dup1\n      0xb3cc167a\n      eq\n      tag_9\n      jumpi\n      dup1\n      0xc623674f\n      eq\n      tag_10\n      jumpi\n      dup1\n      0xeb36a479\n      eq\n      tag_11\n      jumpi\n      dup1\n      0xf77282ab\n      eq\n      tag_12\n      jumpi\n      jump(tag_1)\n    tag_13:\n      dup1\n      0x083c6323\n      eq\n      tag_2\n      jumpi\n      dup1\n      0x48cd4cb1\n      eq\n      tag_3\n      jumpi\n      dup1\n      0x7fb45099\n      eq\n      tag_4\n      jumpi\n      dup1\n      0x8da5cb5b\n      eq\n      tag_5\n      jumpi\n      dup1\n      0x8ee77512\n      eq\n      tag_6\n      jumpi\n    tag_1:\n      0x00\n      dup1\n      revert\n        /* \"contracts/Auctionsol.sol\":338:358  uint public endBlock */\n    tag_2:\n      callvalue\n      dup1\n      iszero\n      tag_14\n      jumpi\n      0x00\n      dup1\n      revert\n    tag_14:\n      pop\n      tag_15\n      tag_16\n      jump\t// in\n    tag_15:\n      mload(0x40)\n      tag_17\n      swap2\n      swap1\n      tag_18\n      jump\t// in\n    tag_17:\n      mload(0x40)\n      dup1\n      swap2\n      sub\n      swap1\n      return\n        /* \"contracts/Auctionsol.sol\":309:331  uint public startBlock */\n    tag_3:\n      callvalue\n      dup1\n      iszero\n      tag_19\n      jumpi\n      0x00\n      dup1\n      revert\n    tag_19:\n      pop\n      tag_20\n      tag_21\n      jump\t// in\n    tag_20:\n      mload(0x40)\n      tag_22\n      swap2\n      swap1\n      tag_18\n      jump\t// in\n    tag_22:\n      mload(0x40)\n      dup1\n      swap2\n      sub\n      swap1\n      return\n        /* \"contracts/Auctionsol.sol\":460:485  State public auctionState */\n    tag_4:\n      callvalue\n      dup1\n      iszero\n      tag_23\n      jumpi\n      0x00\n      dup1\n      revert\n    tag_23:\n      pop\n      tag_24\n      tag_25\n      jump\t// in\n    tag_24:\n      mload(0x40)\n      tag_26\n      swap2\n      swap1\n      tag_27\n      jump\t// in\n    tag_26:\n      mload(0x40)\n      dup1\n      swap2\n      sub\n      swap1\n      return\n        /* \"contracts/Auctionsol.sol\":145:173  address payable public owner */\n    tag_5:\n      callvalue\n      dup1\n      iszero\n      tag_28\n      jumpi\n      0x00\n      dup1\n      revert\n    tag_28:\n      pop\n      tag_29\n      tag_30\n      jump\t// in\n    tag_29:\n      mload(0x40)\n      tag_31\n      swap2\n      swap1\n      tag_32\n      jump\t// in\n    tag_31:\n      mload(0x40)\n      dup1\n      swap2\n      sub\n      swap1\n      return\n        /* \"contracts/Auctionsol.sol\":99:138  mapping(address => uint) public bidsMap */\n    tag_6:\n      callvalue\n      dup1\n      iszero\n      tag_33\n      jumpi\n      0x00\n      dup1\n      revert\n    tag_33:\n      pop\n      tag_34\n      0x04\n      dup1\n      calldatasize\n      sub\n      dup2\n      add\n      swap1\n      tag_35\n      swap2\n      swap1\n      tag_36\n      jump\t// in\n    tag_35:\n      tag_37\n      jump\t// in\n    tag_34:\n      mload(0x40)\n      tag_38\n      swap2\n      swap1\n      tag_18\n      jump\t// in\n    tag_38:\n      mload(0x40)\n      dup1\n      swap2\n      sub\n      swap1\n      return\n        /* \"contracts/Auctionsol.sol\":227:255  uint public higestBindingBid */\n    tag_7:\n      callvalue\n      dup1\n      iszero\n      tag_39\n      jumpi\n      0x00\n      dup1\n      revert\n    tag_39:\n      pop\n      tag_40\n      tag_41\n      jump\t// in\n    tag_40:\n      mload(0x40)\n      tag_42\n      swap2\n      swap1\n      tag_18\n      jump\t// in\n    tag_42:\n      mload(0x40)\n      dup1\n      swap2\n      sub\n      swap1\n      return\n        /* \"contracts/Auctionsol.sol\":184:220  address payable public highestBidder */\n    tag_8:\n      callvalue\n      dup1\n      iszero\n      tag_43\n      jumpi\n      0x00\n      dup1\n      revert\n    tag_43:\n      pop\n      tag_44\n      tag_45\n      jump\t// in\n    tag_44:\n      mload(0x40)\n      tag_46\n      swap2\n      swap1\n      tag_32\n      jump\t// in\n    tag_46:\n      mload(0x40)\n      dup1\n      swap2\n      sub\n      swap1\n      return\n        /* \"contracts/Auctionsol.sol\":262:286  uint public bidIncrement */\n    tag_9:\n      callvalue\n      dup1\n      iszero\n      tag_47\n      jumpi\n      0x00\n      dup1\n      revert\n    tag_47:\n      pop\n      tag_48\n      tag_49\n      jump\t// in\n    tag_48:\n      mload(0x40)\n      tag_50\n      swap2\n      swap1\n      tag_18\n      jump\t// in\n    tag_50:\n      mload(0x40)\n      dup1\n      swap2\n      sub\n      swap1\n      return\n        /* \"contracts/Auctionsol.sol\":494:516  string public ipfsHash */\n    tag_10:\n      callvalue\n      dup1\n      iszero\n      tag_51\n      jumpi\n      0x00\n      dup1\n      revert\n    tag_51:\n      pop\n      tag_52\n      tag_53\n      jump\t// in\n    tag_52:\n      mload(0x40)\n      tag_54\n      swap2\n      swap1\n      tag_55\n      jump\t// in\n    tag_54:\n      mload(0x40)\n      dup1\n      swap2\n      sub\n      swap1\n      return\n        /* \"contracts/Auctionsol.sol\":1731:2610  function makeABid() payable public notOwner afterStart beforeEnd {\r... */\n    tag_11:\n      tag_56\n      tag_57\n      jump\t// in\n    tag_56:\n      stop\n        /* \"contracts/Auctionsol.sol\":2618:3800  function finalizeAuction() public {\r... */\n    tag_12:\n      callvalue\n      dup1\n      iszero\n      tag_58\n      jumpi\n      0x00\n      dup1\n      revert\n    tag_58:\n      pop\n      tag_59\n      tag_60\n      jump\t// in\n    tag_59:\n      stop\n        /* \"contracts/Auctionsol.sol\":338:358  uint public endBlock */\n    tag_16:\n      sload(0x06)\n      dup2\n      jump\t// out\n        /* \"contracts/Auctionsol.sol\":309:331  uint public startBlock */\n    tag_21:\n      sload(0x05)\n      dup2\n      jump\t// out\n        /* \"contracts/Auctionsol.sol\":460:485  State public auctionState */\n    tag_25:\n      0x07\n      0x00\n      swap1\n      sload\n      swap1\n      0x0100\n      exp\n      swap1\n      div\n      0xff\n      and\n      dup2\n      jump\t// out\n        /* \"contracts/Auctionsol.sol\":145:173  address payable public owner */\n    tag_30:\n      0x01\n      0x00\n      swap1\n      sload\n      swap1\n      0x0100\n      exp\n      swap1\n      div\n      0xffffffffffffffffffffffffffffffffffffffff\n      and\n      dup2\n      jump\t// out\n        /* \"contracts/Auctionsol.sol\":99:138  mapping(address => uint) public bidsMap */\n    tag_37:\n      mstore(0x20, 0x00)\n      dup1\n      0x00\n      mstore\n      keccak256(0x00, 0x40)\n      0x00\n      swap2\n      pop\n      swap1\n      pop\n      sload\n      dup2\n      jump\t// out\n        /* \"contracts/Auctionsol.sol\":227:255  uint public higestBindingBid */\n    tag_41:\n      sload(0x03)\n      dup2\n      jump\t// out\n        /* \"contracts/Auctionsol.sol\":184:220  address payable public highestBidder */\n    tag_45:\n      0x02\n      0x00\n      swap1\n      sload\n      swap1\n      0x0100\n      exp\n      swap1\n      div\n      0xffffffffffffffffffffffffffffffffffffffff\n      and\n      dup2\n      jump\t// out\n        /* \"contracts/Auctionsol.sol\":262:286  uint public bidIncrement */\n    tag_49:\n      sload(0x04)\n      dup2\n      jump\t// out\n        /* \"contracts/Auctionsol.sol\":494:516  string public ipfsHash */\n    tag_53:\n      0x08\n      dup1\n      sload\n      tag_61\n      swap1\n      tag_62\n      jump\t// in\n    tag_61:\n      dup1\n      0x1f\n      add\n      0x20\n      dup1\n      swap2\n      div\n      mul\n      0x20\n      add\n      mload(0x40)\n      swap1\n      dup2\n      add\n      0x40\n      mstore\n      dup1\n      swap3\n      swap2\n      swap1\n      dup2\n      dup2\n      mstore\n      0x20\n      add\n      dup3\n      dup1\n      sload\n      tag_63\n      swap1\n      tag_62\n      jump\t// in\n    tag_63:\n      dup1\n      iszero\n      tag_64\n      jumpi\n      dup1\n      0x1f\n      lt\n      tag_65\n      jumpi\n      0x0100\n      dup1\n      dup4\n      sload\n      div\n      mul\n      dup4\n      mstore\n      swap2\n      0x20\n      add\n      swap2\n      jump(tag_64)\n    tag_65:\n      dup3\n      add\n      swap2\n      swap1\n      0x00\n      mstore\n      keccak256(0x00, 0x20)\n      swap1\n    tag_66:\n      dup2\n      sload\n      dup2\n      mstore\n      swap1\n      0x01\n      add\n      swap1\n      0x20\n      add\n      dup1\n      dup4\n      gt\n      tag_66\n      jumpi\n      dup3\n      swap1\n      sub\n      0x1f\n      and\n      dup3\n      add\n      swap2\n    tag_64:\n      pop\n      pop\n      pop\n      pop\n      pop\n      dup2\n      jump\t// out\n        /* \"contracts/Auctionsol.sol\":1731:2610  function makeABid() payable public notOwner afterStart beforeEnd {\r... */\n    tag_57:\n        /* \"contracts/Auctionsol.sol\":815:820  owner */\n      0x01\n      0x00\n      swap1\n      sload\n      swap1\n      0x0100\n      exp\n      swap1\n      div\n      0xffffffffffffffffffffffffffffffffffffffff\n      and\n        /* \"contracts/Auctionsol.sol\":801:820  msg.sender != owner */\n      0xffffffffffffffffffffffffffffffffffffffff\n      and\n        /* \"contracts/Auctionsol.sol\":801:811  msg.sender */\n      caller\n        /* \"contracts/Auctionsol.sol\":801:820  msg.sender != owner */\n      0xffffffffffffffffffffffffffffffffffffffff\n      and\n      eq\n      iszero\n        /* \"contracts/Auctionsol.sol\":793:858  require(msg.sender != owner, \"Bids can only be placed by owners\") */\n      tag_68\n      jumpi\n      mload(0x40)\n      0x08c379a000000000000000000000000000000000000000000000000000000000\n      dup2\n      mstore\n      0x04\n      add\n      tag_69\n      swap1\n      tag_70\n      jump\t// in\n    tag_69:\n      mload(0x40)\n      dup1\n      swap2\n      sub\n      swap1\n      revert\n    tag_68:\n        /* \"contracts/Auctionsol.sol\":943:953  startBlock */\n      sload(0x05)\n        /* \"contracts/Auctionsol.sol\":927:939  block.number */\n      number\n        /* \"contracts/Auctionsol.sol\":927:953  block.number >= startBlock */\n      lt\n      iszero\n        /* \"contracts/Auctionsol.sol\":919:995  require(block.number >= startBlock, \"Auction cannot be played at this time\") */\n      tag_72\n      jumpi\n      mload(0x40)\n      0x08c379a000000000000000000000000000000000000000000000000000000000\n      dup2\n      mstore\n      0x04\n      add\n      tag_73\n      swap1\n      tag_74\n      jump\t// in\n    tag_73:\n      mload(0x40)\n      dup1\n      swap2\n      sub\n      swap1\n      revert\n    tag_72:\n        /* \"contracts/Auctionsol.sol\":1079:1087  endBlock */\n      sload(0x06)\n        /* \"contracts/Auctionsol.sol\":1063:1075  block.number */\n      number\n        /* \"contracts/Auctionsol.sol\":1063:1087  block.number <= endBlock */\n      gt\n      iszero\n        /* \"contracts/Auctionsol.sol\":1055:1116  require(block.number <= endBlock, \"Auction time has elasped\") */\n      tag_76\n      jumpi\n      mload(0x40)\n      0x08c379a000000000000000000000000000000000000000000000000000000000\n      dup2\n      mstore\n      0x04\n      add\n      tag_77\n      swap1\n      tag_78\n      jump\t// in\n    tag_77:\n      mload(0x40)\n      dup1\n      swap2\n      sub\n      swap1\n      revert\n    tag_76:\n        /* \"contracts/Auctionsol.sol\":1827:1834  1 ether */\n      0x0de0b6b3a7640000\n        /* \"contracts/Auctionsol.sol\":1815:1824  msg.value */\n      callvalue\n        /* \"contracts/Auctionsol.sol\":1815:1834  msg.value > 1 ether */\n      gt\n        /* \"contracts/Auctionsol.sol\":1807:1835  require(msg.value > 1 ether) */\n      tag_80\n      jumpi\n      0x00\n      dup1\n      revert\n    tag_80:\n        /* \"contracts/Auctionsol.sol\":1907:1920  State.Running */\n      0x01\n        /* \"contracts/Auctionsol.sol\":1891:1920  auctionState == State.Running */\n      0x03\n      dup2\n      gt\n      iszero\n      tag_81\n      jumpi\n      tag_82\n      tag_83\n      jump\t// in\n    tag_82:\n    tag_81:\n        /* \"contracts/Auctionsol.sol\":1891:1903  auctionState */\n      0x07\n      0x00\n      swap1\n      sload\n      swap1\n      0x0100\n      exp\n      swap1\n      div\n      0xff\n      and\n        /* \"contracts/Auctionsol.sol\":1891:1920  auctionState == State.Running */\n      0x03\n      dup2\n      gt\n      iszero\n      tag_84\n      jumpi\n      tag_85\n      tag_83\n      jump\t// in\n    tag_85:\n    tag_84:\n      eq\n        /* \"contracts/Auctionsol.sol\":1883:1921  require(auctionState == State.Running) */\n      tag_86\n      jumpi\n      0x00\n      dup1\n      revert\n    tag_86:\n        /* \"contracts/Auctionsol.sol\":1999:2014  uint currentBid */\n      0x00\n        /* \"contracts/Auctionsol.sol\":2029:2036  bidsMap */\n      dup1\n        /* \"contracts/Auctionsol.sol\":2029:2048  bidsMap[msg.sender] */\n      0x00\n        /* \"contracts/Auctionsol.sol\":2037:2047  msg.sender */\n      caller\n        /* \"contracts/Auctionsol.sol\":2029:2048  bidsMap[msg.sender] */\n      0xffffffffffffffffffffffffffffffffffffffff\n      and\n      0xffffffffffffffffffffffffffffffffffffffff\n      and\n      dup2\n      mstore\n      0x20\n      add\n      swap1\n      dup2\n      mstore\n      0x20\n      add\n      0x00\n      keccak256\n      sload\n        /* \"contracts/Auctionsol.sol\":2017:2026  msg.value */\n      callvalue\n        /* \"contracts/Auctionsol.sol\":2017:2048  msg.value + bidsMap[msg.sender] */\n      tag_87\n      swap2\n      swap1\n      tag_88\n      jump\t// in\n    tag_87:\n        /* \"contracts/Auctionsol.sol\":1999:2048  uint currentBid = msg.value + bidsMap[msg.sender] */\n      swap1\n      pop\n        /* \"contracts/Auctionsol.sol\":2082:2098  higestBindingBid */\n      sload(0x03)\n        /* \"contracts/Auctionsol.sol\":2069:2079  currentBid */\n      dup2\n        /* \"contracts/Auctionsol.sol\":2069:2098  currentBid > higestBindingBid */\n      gt\n        /* \"contracts/Auctionsol.sol\":2061:2099  require(currentBid > higestBindingBid) */\n      tag_89\n      jumpi\n      0x00\n      dup1\n      revert\n    tag_89:\n        /* \"contracts/Auctionsol.sol\":2242:2252  currentBid */\n      dup1\n        /* \"contracts/Auctionsol.sol\":2220:2227  bidsMap */\n      0x00\n        /* \"contracts/Auctionsol.sol\":2220:2239  bidsMap[msg.sender] */\n      dup1\n        /* \"contracts/Auctionsol.sol\":2228:2238  msg.sender */\n      caller\n        /* \"contracts/Auctionsol.sol\":2220:2239  bidsMap[msg.sender] */\n      0xffffffffffffffffffffffffffffffffffffffff\n      and\n      0xffffffffffffffffffffffffffffffffffffffff\n      and\n      dup2\n      mstore\n      0x20\n      add\n      swap1\n      dup2\n      mstore\n      0x20\n      add\n      0x00\n      keccak256\n        /* \"contracts/Auctionsol.sol\":2220:2252  bidsMap[msg.sender] = currentBid */\n      dup2\n      swap1\n      sstore\n      pop\n        /* \"contracts/Auctionsol.sol\":2324:2331  bidsMap */\n      0x00\n        /* \"contracts/Auctionsol.sol\":2324:2346  bidsMap[highestBidder] */\n      dup1\n        /* \"contracts/Auctionsol.sol\":2332:2345  highestBidder */\n      0x02\n      0x00\n      swap1\n      sload\n      swap1\n      0x0100\n      exp\n      swap1\n      div\n      0xffffffffffffffffffffffffffffffffffffffff\n      and\n        /* \"contracts/Auctionsol.sol\":2324:2346  bidsMap[highestBidder] */\n      0xffffffffffffffffffffffffffffffffffffffff\n      and\n      0xffffffffffffffffffffffffffffffffffffffff\n      and\n      dup2\n      mstore\n      0x20\n      add\n      swap1\n      dup2\n      mstore\n      0x20\n      add\n      0x00\n      keccak256\n      sload\n        /* \"contracts/Auctionsol.sol\":2311:2321  currentBid */\n      dup2\n        /* \"contracts/Auctionsol.sol\":2311:2346  currentBid < bidsMap[highestBidder] */\n      lt\n        /* \"contracts/Auctionsol.sol\":2308:2601  if(currentBid < bidsMap[highestBidder]){\r... */\n      iszero\n      tag_90\n      jumpi\n        /* \"contracts/Auctionsol.sol\":2381:2435  min(currentBid + bidIncrement, bidsMap[highestBidder]) */\n      tag_91\n        /* \"contracts/Auctionsol.sol\":2398:2410  bidIncrement */\n      sload(0x04)\n        /* \"contracts/Auctionsol.sol\":2385:2395  currentBid */\n      dup3\n        /* \"contracts/Auctionsol.sol\":2385:2410  currentBid + bidIncrement */\n      tag_92\n      swap2\n      swap1\n      tag_88\n      jump\t// in\n    tag_92:\n        /* \"contracts/Auctionsol.sol\":2412:2419  bidsMap */\n      0x00\n        /* \"contracts/Auctionsol.sol\":2412:2434  bidsMap[highestBidder] */\n      dup1\n        /* \"contracts/Auctionsol.sol\":2420:2433  highestBidder */\n      0x02\n      0x00\n      swap1\n      sload\n      swap1\n      0x0100\n      exp\n      swap1\n      div\n      0xffffffffffffffffffffffffffffffffffffffff\n      and\n        /* \"contracts/Auctionsol.sol\":2412:2434  bidsMap[highestBidder] */\n      0xffffffffffffffffffffffffffffffffffffffff\n      and\n      0xffffffffffffffffffffffffffffffffffffffff\n      and\n      dup2\n      mstore\n      0x20\n      add\n      swap1\n      dup2\n      mstore\n      0x20\n      add\n      0x00\n      keccak256\n      sload\n        /* \"contracts/Auctionsol.sol\":2381:2384  min */\n      tag_93\n        /* \"contracts/Auctionsol.sol\":2381:2435  min(currentBid + bidIncrement, bidsMap[highestBidder]) */\n      jump\t// in\n    tag_91:\n        /* \"contracts/Auctionsol.sol\":2362:2378  higestBindingBid */\n      0x03\n        /* \"contracts/Auctionsol.sol\":2362:2435  higestBindingBid = min(currentBid + bidIncrement, bidsMap[highestBidder]) */\n      dup2\n      swap1\n      sstore\n      pop\n        /* \"contracts/Auctionsol.sol\":2308:2601  if(currentBid < bidsMap[highestBidder]){\r... */\n      jump(tag_94)\n    tag_90:\n        /* \"contracts/Auctionsol.sol\":2485:2539  min(currentBid, bidsMap[highestBidder] + bidIncrement) */\n      tag_95\n        /* \"contracts/Auctionsol.sol\":2489:2499  currentBid */\n      dup2\n        /* \"contracts/Auctionsol.sol\":2526:2538  bidIncrement */\n      sload(0x04)\n        /* \"contracts/Auctionsol.sol\":2501:2508  bidsMap */\n      0x00\n        /* \"contracts/Auctionsol.sol\":2501:2523  bidsMap[highestBidder] */\n      dup1\n        /* \"contracts/Auctionsol.sol\":2509:2522  highestBidder */\n      0x02\n      0x00\n      swap1\n      sload\n      swap1\n      0x0100\n      exp\n      swap1\n      div\n      0xffffffffffffffffffffffffffffffffffffffff\n      and\n        /* \"contracts/Auctionsol.sol\":2501:2523  bidsMap[highestBidder] */\n      0xffffffffffffffffffffffffffffffffffffffff\n      and\n      0xffffffffffffffffffffffffffffffffffffffff\n      and\n      dup2\n      mstore\n      0x20\n      add\n      swap1\n      dup2\n      mstore\n      0x20\n      add\n      0x00\n      keccak256\n      sload\n        /* \"contracts/Auctionsol.sol\":2501:2538  bidsMap[highestBidder] + bidIncrement */\n      tag_96\n      swap2\n      swap1\n      tag_88\n      jump\t// in\n    tag_96:\n        /* \"contracts/Auctionsol.sol\":2485:2488  min */\n      tag_93\n        /* \"contracts/Auctionsol.sol\":2485:2539  min(currentBid, bidsMap[highestBidder] + bidIncrement) */\n      jump\t// in\n    tag_95:\n        /* \"contracts/Auctionsol.sol\":2466:2482  higestBindingBid */\n      0x03\n        /* \"contracts/Auctionsol.sol\":2466:2539  higestBindingBid = min(currentBid, bidsMap[highestBidder] + bidIncrement) */\n      dup2\n      swap1\n      sstore\n      pop\n        /* \"contracts/Auctionsol.sol\":2578:2588  msg.sender */\n      caller\n        /* \"contracts/Auctionsol.sol\":2554:2567  highestBidder */\n      0x02\n      0x00\n        /* \"contracts/Auctionsol.sol\":2554:2589  highestBidder = payable(msg.sender) */\n      0x0100\n      exp\n      dup2\n      sload\n      dup2\n      0xffffffffffffffffffffffffffffffffffffffff\n      mul\n      not\n      and\n      swap1\n      dup4\n      0xffffffffffffffffffffffffffffffffffffffff\n      and\n      mul\n      or\n      swap1\n      sstore\n      pop\n        /* \"contracts/Auctionsol.sol\":2308:2601  if(currentBid < bidsMap[highestBidder]){\r... */\n    tag_94:\n        /* \"contracts/Auctionsol.sol\":1796:2610  {\r... */\n      pop\n        /* \"contracts/Auctionsol.sol\":1731:2610  function makeABid() payable public notOwner afterStart beforeEnd {\r... */\n      jump\t// out\n        /* \"contracts/Auctionsol.sol\":2618:3800  function finalizeAuction() public {\r... */\n    tag_60:\n        /* \"contracts/Auctionsol.sol\":2787:2799  auctionState */\n      0x07\n      0x00\n      swap1\n      sload\n      swap1\n      0x0100\n      exp\n      swap1\n      div\n      0xff\n      and\n        /* \"contracts/Auctionsol.sol\":2768:2799  State.Cancelled == auctionState */\n      0x03\n      dup2\n      gt\n      iszero\n      tag_98\n      jumpi\n      tag_99\n      tag_83\n      jump\t// in\n    tag_99:\n    tag_98:\n        /* \"contracts/Auctionsol.sol\":2768:2783  State.Cancelled */\n      0x03\n        /* \"contracts/Auctionsol.sol\":2768:2799  State.Cancelled == auctionState */\n      dup1\n      dup2\n      gt\n      iszero\n      tag_100\n      jumpi\n      tag_101\n      tag_83\n      jump\t// in\n    tag_101:\n    tag_100:\n      eq\n        /* \"contracts/Auctionsol.sol\":2768:2826  State.Cancelled == auctionState || block.number > endBlock */\n      dup1\n      tag_102\n      jumpi\n      pop\n        /* \"contracts/Auctionsol.sol\":2818:2826  endBlock */\n      sload(0x06)\n        /* \"contracts/Auctionsol.sol\":2803:2815  block.number */\n      number\n        /* \"contracts/Auctionsol.sol\":2803:2826  block.number > endBlock */\n      gt\n        /* \"contracts/Auctionsol.sol\":2768:2826  State.Cancelled == auctionState || block.number > endBlock */\n    tag_102:\n        /* \"contracts/Auctionsol.sol\":2760:2827  require(State.Cancelled == auctionState || block.number > endBlock) */\n      tag_103\n      jumpi\n      0x00\n      dup1\n      revert\n    tag_103:\n        /* \"contracts/Auctionsol.sol\":3012:3013  0 */\n      0x00\n        /* \"contracts/Auctionsol.sol\":2990:2997  bidsMap */\n      dup1\n        /* \"contracts/Auctionsol.sol\":2990:3009  bidsMap[msg.sender] */\n      0x00\n        /* \"contracts/Auctionsol.sol\":2998:3008  msg.sender */\n      caller\n        /* \"contracts/Auctionsol.sol\":2990:3009  bidsMap[msg.sender] */\n      0xffffffffffffffffffffffffffffffffffffffff\n      and\n      0xffffffffffffffffffffffffffffffffffffffff\n      and\n      dup2\n      mstore\n      0x20\n      add\n      swap1\n      dup2\n      mstore\n      0x20\n      add\n      0x00\n      keccak256\n      sload\n        /* \"contracts/Auctionsol.sol\":2990:3013  bidsMap[msg.sender] > 0 */\n      gt\n        /* \"contracts/Auctionsol.sol\":2990:3036  bidsMap[msg.sender] > 0 || msg.sender == owner */\n      dup1\n      tag_104\n      jumpi\n      pop\n        /* \"contracts/Auctionsol.sol\":3031:3036  owner */\n      0x01\n      0x00\n      swap1\n      sload\n      swap1\n      0x0100\n      exp\n      swap1\n      div\n      0xffffffffffffffffffffffffffffffffffffffff\n      and\n        /* \"contracts/Auctionsol.sol\":3017:3036  msg.sender == owner */\n      0xffffffffffffffffffffffffffffffffffffffff\n      and\n        /* \"contracts/Auctionsol.sol\":3017:3027  msg.sender */\n      caller\n        /* \"contracts/Auctionsol.sol\":3017:3036  msg.sender == owner */\n      0xffffffffffffffffffffffffffffffffffffffff\n      and\n      eq\n        /* \"contracts/Auctionsol.sol\":2990:3036  bidsMap[msg.sender] > 0 || msg.sender == owner */\n    tag_104:\n        /* \"contracts/Auctionsol.sol\":2982:3037  require(bidsMap[msg.sender] > 0 || msg.sender == owner) */\n      tag_105\n      jumpi\n      0x00\n      dup1\n      revert\n    tag_105:\n        /* \"contracts/Auctionsol.sol\":3050:3063  uint theValue */\n      0x00\n        /* \"contracts/Auctionsol.sol\":3074:3099  address payable recipient */\n      dup1\n        /* \"contracts/Auctionsol.sol\":3131:3146  State.Cancelled */\n      0x03\n        /* \"contracts/Auctionsol.sol\":3115:3146  auctionState == State.Cancelled */\n      dup1\n      dup2\n      gt\n      iszero\n      tag_106\n      jumpi\n      tag_107\n      tag_83\n      jump\t// in\n    tag_107:\n    tag_106:\n        /* \"contracts/Auctionsol.sol\":3115:3127  auctionState */\n      0x07\n      0x00\n      swap1\n      sload\n      swap1\n      0x0100\n      exp\n      swap1\n      div\n      0xff\n      and\n        /* \"contracts/Auctionsol.sol\":3115:3146  auctionState == State.Cancelled */\n      0x03\n      dup2\n      gt\n      iszero\n      tag_108\n      jumpi\n      tag_109\n      tag_83\n      jump\t// in\n    tag_109:\n    tag_108:\n      eq\n        /* \"contracts/Auctionsol.sol\":3112:3783  if(auctionState == State.Cancelled){\r... */\n      iszero\n      tag_110\n      jumpi\n        /* \"contracts/Auctionsol.sol\":3182:3192  msg.sender */\n      caller\n        /* \"contracts/Auctionsol.sol\":3162:3193  recipient = payable(msg.sender) */\n      swap1\n      pop\n        /* \"contracts/Auctionsol.sol\":3219:3226  bidsMap */\n      0x00\n        /* \"contracts/Auctionsol.sol\":3219:3241  bidsMap[highestBidder] */\n      dup1\n        /* \"contracts/Auctionsol.sol\":3227:3240  highestBidder */\n      0x02\n      0x00\n      swap1\n      sload\n      swap1\n      0x0100\n      exp\n      swap1\n      div\n      0xffffffffffffffffffffffffffffffffffffffff\n      and\n        /* \"contracts/Auctionsol.sol\":3219:3241  bidsMap[highestBidder] */\n      0xffffffffffffffffffffffffffffffffffffffff\n      and\n      0xffffffffffffffffffffffffffffffffffffffff\n      and\n      dup2\n      mstore\n      0x20\n      add\n      swap1\n      dup2\n      mstore\n      0x20\n      add\n      0x00\n      keccak256\n      sload\n        /* \"contracts/Auctionsol.sol\":3208:3241  theValue = bidsMap[highestBidder] */\n      swap2\n      pop\n        /* \"contracts/Auctionsol.sol\":3112:3783  if(auctionState == State.Cancelled){\r... */\n      jump(tag_111)\n    tag_110:\n        /* \"contracts/Auctionsol.sol\":3323:3328  owner */\n      0x01\n      0x00\n      swap1\n      sload\n      swap1\n      0x0100\n      exp\n      swap1\n      div\n      0xffffffffffffffffffffffffffffffffffffffff\n      and\n        /* \"contracts/Auctionsol.sol\":3309:3328  msg.sender == owner */\n      0xffffffffffffffffffffffffffffffffffffffff\n      and\n        /* \"contracts/Auctionsol.sol\":3309:3319  msg.sender */\n      caller\n        /* \"contracts/Auctionsol.sol\":3309:3328  msg.sender == owner */\n      0xffffffffffffffffffffffffffffffffffffffff\n      and\n      eq\n        /* \"contracts/Auctionsol.sol\":3306:3772  if(msg.sender == owner){\r... */\n      iszero\n      tag_112\n      jumpi\n        /* \"contracts/Auctionsol.sol\":3360:3365  owner */\n      0x01\n      0x00\n      swap1\n      sload\n      swap1\n      0x0100\n      exp\n      swap1\n      div\n      0xffffffffffffffffffffffffffffffffffffffff\n      and\n        /* \"contracts/Auctionsol.sol\":3348:3365  recipient = owner */\n      swap1\n      pop\n        /* \"contracts/Auctionsol.sol\":3395:3411  higestBindingBid */\n      sload(0x03)\n        /* \"contracts/Auctionsol.sol\":3384:3411  theValue = higestBindingBid */\n      swap2\n      pop\n        /* \"contracts/Auctionsol.sol\":3306:3772  if(msg.sender == owner){\r... */\n      jump(tag_113)\n    tag_112:\n        /* \"contracts/Auctionsol.sol\":3469:3482  highestBidder */\n      0x02\n      0x00\n      swap1\n      sload\n      swap1\n      0x0100\n      exp\n      swap1\n      div\n      0xffffffffffffffffffffffffffffffffffffffff\n      and\n        /* \"contracts/Auctionsol.sol\":3455:3482  msg.sender == highestBidder */\n      0xffffffffffffffffffffffffffffffffffffffff\n      and\n        /* \"contracts/Auctionsol.sol\":3455:3465  msg.sender */\n      caller\n        /* \"contracts/Auctionsol.sol\":3455:3482  msg.sender == highestBidder */\n      0xffffffffffffffffffffffffffffffffffffffff\n      and\n      eq\n        /* \"contracts/Auctionsol.sol\":3452:3757  if(msg.sender == highestBidder){\r... */\n      iszero\n      tag_114\n      jumpi\n        /* \"contracts/Auctionsol.sol\":3518:3531  highestBidder */\n      0x02\n      0x00\n      swap1\n      sload\n      swap1\n      0x0100\n      exp\n      swap1\n      div\n      0xffffffffffffffffffffffffffffffffffffffff\n      and\n        /* \"contracts/Auctionsol.sol\":3506:3531  recipient = highestBidder */\n      swap1\n      pop\n        /* \"contracts/Auctionsol.sol\":3590:3606  higestBindingBid */\n      sload(0x03)\n        /* \"contracts/Auctionsol.sol\":3565:3572  bidsMap */\n      0x00\n        /* \"contracts/Auctionsol.sol\":3565:3587  bidsMap[highestBidder] */\n      dup1\n        /* \"contracts/Auctionsol.sol\":3573:3586  highestBidder */\n      0x02\n      0x00\n      swap1\n      sload\n      swap1\n      0x0100\n      exp\n      swap1\n      div\n      0xffffffffffffffffffffffffffffffffffffffff\n      and\n        /* \"contracts/Auctionsol.sol\":3565:3587  bidsMap[highestBidder] */\n      0xffffffffffffffffffffffffffffffffffffffff\n      and\n      0xffffffffffffffffffffffffffffffffffffffff\n      and\n      dup2\n      mstore\n      0x20\n      add\n      swap1\n      dup2\n      mstore\n      0x20\n      add\n      0x00\n      keccak256\n      sload\n        /* \"contracts/Auctionsol.sol\":3565:3606  bidsMap[highestBidder] - higestBindingBid */\n      tag_115\n      swap2\n      swap1\n      tag_116\n      jump\t// in\n    tag_115:\n        /* \"contracts/Auctionsol.sol\":3554:3606  theValue = bidsMap[highestBidder] - higestBindingBid */\n      swap2\n      pop\n        /* \"contracts/Auctionsol.sol\":3452:3757  if(msg.sender == highestBidder){\r... */\n      jump(tag_117)\n    tag_114:\n        /* \"contracts/Auctionsol.sol\":3673:3683  msg.sender */\n      caller\n        /* \"contracts/Auctionsol.sol\":3653:3684  recipient = payable(msg.sender) */\n      swap1\n      pop\n        /* \"contracts/Auctionsol.sol\":3718:3725  bidsMap */\n      0x00\n        /* \"contracts/Auctionsol.sol\":3718:3737  bidsMap[msg.sender] */\n      dup1\n        /* \"contracts/Auctionsol.sol\":3726:3736  msg.sender */\n      caller\n        /* \"contracts/Auctionsol.sol\":3718:3737  bidsMap[msg.sender] */\n      0xffffffffffffffffffffffffffffffffffffffff\n      and\n      0xffffffffffffffffffffffffffffffffffffffff\n      and\n      dup2\n      mstore\n      0x20\n      add\n      swap1\n      dup2\n      mstore\n      0x20\n      add\n      0x00\n      keccak256\n      sload\n        /* \"contracts/Auctionsol.sol\":3707:3737  theValue = bidsMap[msg.sender] */\n      swap2\n      pop\n        /* \"contracts/Auctionsol.sol\":3452:3757  if(msg.sender == highestBidder){\r... */\n    tag_117:\n        /* \"contracts/Auctionsol.sol\":3306:3772  if(msg.sender == owner){\r... */\n    tag_113:\n        /* \"contracts/Auctionsol.sol\":3112:3783  if(auctionState == State.Cancelled){\r... */\n    tag_111:\n        /* \"contracts/Auctionsol.sol\":2652:3800  {\r... */\n      pop\n      pop\n        /* \"contracts/Auctionsol.sol\":2618:3800  function finalizeAuction() public {\r... */\n      jump\t// out\n        /* \"contracts/Auctionsol.sol\":1208:1366  function min(uint a, uint b) pure internal returns(uint){\r... */\n    tag_93:\n        /* \"contracts/Auctionsol.sol\":1259:1263  uint */\n      0x00\n        /* \"contracts/Auctionsol.sol\":1283:1284  b */\n      dup2\n        /* \"contracts/Auctionsol.sol\":1278:1279  a */\n      dup4\n        /* \"contracts/Auctionsol.sol\":1278:1284  a <= b */\n      gt\n        /* \"contracts/Auctionsol.sol\":1275:1359  if(a <= b){\r... */\n      tag_119\n      jumpi\n        /* \"contracts/Auctionsol.sol\":1307:1308  a */\n      dup3\n        /* \"contracts/Auctionsol.sol\":1300:1308  return a */\n      swap1\n      pop\n      jump(tag_118)\n        /* \"contracts/Auctionsol.sol\":1275:1359  if(a <= b){\r... */\n    tag_119:\n        /* \"contracts/Auctionsol.sol\":1346:1347  b */\n      dup2\n        /* \"contracts/Auctionsol.sol\":1339:1347  return b */\n      swap1\n      pop\n        /* \"contracts/Auctionsol.sol\":1208:1366  function min(uint a, uint b) pure internal returns(uint){\r... */\n    tag_118:\n      swap3\n      swap2\n      pop\n      pop\n      jump\t// out\n        /* \"#utility.yul\":7:146   */\n    tag_122:\n        /* \"#utility.yul\":53:58   */\n      0x00\n        /* \"#utility.yul\":91:97   */\n      dup2\n        /* \"#utility.yul\":78:98   */\n      calldataload\n        /* \"#utility.yul\":69:98   */\n      swap1\n      pop\n        /* \"#utility.yul\":107:140   */\n      tag_124\n        /* \"#utility.yul\":134:139   */\n      dup2\n        /* \"#utility.yul\":107:140   */\n      tag_125\n      jump\t// in\n    tag_124:\n        /* \"#utility.yul\":7:146   */\n      swap3\n      swap2\n      pop\n      pop\n      jump\t// out\n        /* \"#utility.yul\":152:481   */\n    tag_36:\n        /* \"#utility.yul\":211:217   */\n      0x00\n        /* \"#utility.yul\":260:262   */\n      0x20\n        /* \"#utility.yul\":248:257   */\n      dup3\n        /* \"#utility.yul\":239:246   */\n      dup5\n        /* \"#utility.yul\":235:258   */\n      sub\n        /* \"#utility.yul\":231:263   */\n      slt\n        /* \"#utility.yul\":228:347   */\n      iszero\n      tag_127\n      jumpi\n        /* \"#utility.yul\":266:345   */\n      tag_128\n      tag_129\n      jump\t// in\n    tag_128:\n        /* \"#utility.yul\":228:347   */\n    tag_127:\n        /* \"#utility.yul\":386:387   */\n      0x00\n        /* \"#utility.yul\":411:464   */\n      tag_130\n        /* \"#utility.yul\":456:463   */\n      dup5\n        /* \"#utility.yul\":447:453   */\n      dup3\n        /* \"#utility.yul\":436:445   */\n      dup6\n        /* \"#utility.yul\":432:454   */\n      add\n        /* \"#utility.yul\":411:464   */\n      tag_122\n      jump\t// in\n    tag_130:\n        /* \"#utility.yul\":401:464   */\n      swap2\n      pop\n        /* \"#utility.yul\":357:474   */\n      pop\n        /* \"#utility.yul\":152:481   */\n      swap3\n      swap2\n      pop\n      pop\n      jump\t// out\n        /* \"#utility.yul\":487:629   */\n    tag_131:\n        /* \"#utility.yul\":590:622   */\n      tag_133\n        /* \"#utility.yul\":616:621   */\n      dup2\n        /* \"#utility.yul\":590:622   */\n      tag_134\n      jump\t// in\n    tag_133:\n        /* \"#utility.yul\":585:588   */\n      dup3\n        /* \"#utility.yul\":578:623   */\n      mstore\n        /* \"#utility.yul\":487:629   */\n      pop\n      pop\n      jump\t// out\n        /* \"#utility.yul\":635:778   */\n    tag_135:\n        /* \"#utility.yul\":728:771   */\n      tag_137\n        /* \"#utility.yul\":765:770   */\n      dup2\n        /* \"#utility.yul\":728:771   */\n      tag_138\n      jump\t// in\n    tag_137:\n        /* \"#utility.yul\":723:726   */\n      dup3\n        /* \"#utility.yul\":716:772   */\n      mstore\n        /* \"#utility.yul\":635:778   */\n      pop\n      pop\n      jump\t// out\n        /* \"#utility.yul\":784:1148   */\n    tag_139:\n        /* \"#utility.yul\":872:875   */\n      0x00\n        /* \"#utility.yul\":900:939   */\n      tag_141\n        /* \"#utility.yul\":933:938   */\n      dup3\n        /* \"#utility.yul\":900:939   */\n      tag_142\n      jump\t// in\n    tag_141:\n        /* \"#utility.yul\":955:1026   */\n      tag_143\n        /* \"#utility.yul\":1019:1025   */\n      dup2\n        /* \"#utility.yul\":1014:1017   */\n      dup6\n        /* \"#utility.yul\":955:1026   */\n      tag_144\n      jump\t// in\n    tag_143:\n        /* \"#utility.yul\":948:1026   */\n      swap4\n      pop\n        /* \"#utility.yul\":1035:1087   */\n      tag_145\n        /* \"#utility.yul\":1080:1086   */\n      dup2\n        /* \"#utility.yul\":1075:1078   */\n      dup6\n        /* \"#utility.yul\":1068:1072   */\n      0x20\n        /* \"#utility.yul\":1061:1066   */\n      dup7\n        /* \"#utility.yul\":1057:1073   */\n      add\n        /* \"#utility.yul\":1035:1087   */\n      tag_146\n      jump\t// in\n    tag_145:\n        /* \"#utility.yul\":1112:1141   */\n      tag_147\n        /* \"#utility.yul\":1134:1140   */\n      dup2\n        /* \"#utility.yul\":1112:1141   */\n      tag_148\n      jump\t// in\n    tag_147:\n        /* \"#utility.yul\":1107:1110   */\n      dup5\n        /* \"#utility.yul\":1103:1142   */\n      add\n        /* \"#utility.yul\":1096:1142   */\n      swap2\n      pop\n        /* \"#utility.yul\":876:1148   */\n      pop\n        /* \"#utility.yul\":784:1148   */\n      swap3\n      swap2\n      pop\n      pop\n      jump\t// out\n        /* \"#utility.yul\":1154:1520   */\n    tag_149:\n        /* \"#utility.yul\":1296:1299   */\n      0x00\n        /* \"#utility.yul\":1317:1384   */\n      tag_151\n        /* \"#utility.yul\":1381:1383   */\n      0x21\n        /* \"#utility.yul\":1376:1379   */\n      dup4\n        /* \"#utility.yul\":1317:1384   */\n      tag_144\n      jump\t// in\n    tag_151:\n        /* \"#utility.yul\":1310:1384   */\n      swap2\n      pop\n        /* \"#utility.yul\":1393:1486   */\n      tag_152\n        /* \"#utility.yul\":1482:1485   */\n      dup3\n        /* \"#utility.yul\":1393:1486   */\n      tag_153\n      jump\t// in\n    tag_152:\n        /* \"#utility.yul\":1511:1513   */\n      0x40\n        /* \"#utility.yul\":1506:1509   */\n      dup3\n        /* \"#utility.yul\":1502:1514   */\n      add\n        /* \"#utility.yul\":1495:1514   */\n      swap1\n      pop\n        /* \"#utility.yul\":1154:1520   */\n      swap2\n      swap1\n      pop\n      jump\t// out\n        /* \"#utility.yul\":1526:1892   */\n    tag_154:\n        /* \"#utility.yul\":1668:1671   */\n      0x00\n        /* \"#utility.yul\":1689:1756   */\n      tag_156\n        /* \"#utility.yul\":1753:1755   */\n      0x18\n        /* \"#utility.yul\":1748:1751   */\n      dup4\n        /* \"#utility.yul\":1689:1756   */\n      tag_144\n      jump\t// in\n    tag_156:\n        /* \"#utility.yul\":1682:1756   */\n      swap2\n      pop\n        /* \"#utility.yul\":1765:1858   */\n      tag_157\n        /* \"#utility.yul\":1854:1857   */\n      dup3\n        /* \"#utility.yul\":1765:1858   */\n      tag_158\n      jump\t// in\n    tag_157:\n        /* \"#utility.yul\":1883:1885   */\n      0x20\n        /* \"#utility.yul\":1878:1881   */\n      dup3\n        /* \"#utility.yul\":1874:1886   */\n      add\n        /* \"#utility.yul\":1867:1886   */\n      swap1\n      pop\n        /* \"#utility.yul\":1526:1892   */\n      swap2\n      swap1\n      pop\n      jump\t// out\n        /* \"#utility.yul\":1898:2264   */\n    tag_159:\n        /* \"#utility.yul\":2040:2043   */\n      0x00\n        /* \"#utility.yul\":2061:2128   */\n      tag_161\n        /* \"#utility.yul\":2125:2127   */\n      0x25\n        /* \"#utility.yul\":2120:2123   */\n      dup4\n        /* \"#utility.yul\":2061:2128   */\n      tag_144\n      jump\t// in\n    tag_161:\n        /* \"#utility.yul\":2054:2128   */\n      swap2\n      pop\n        /* \"#utility.yul\":2137:2230   */\n      tag_162\n        /* \"#utility.yul\":2226:2229   */\n      dup3\n        /* \"#utility.yul\":2137:2230   */\n      tag_163\n      jump\t// in\n    tag_162:\n        /* \"#utility.yul\":2255:2257   */\n      0x40\n        /* \"#utility.yul\":2250:2253   */\n      dup3\n        /* \"#utility.yul\":2246:2258   */\n      add\n        /* \"#utility.yul\":2239:2258   */\n      swap1\n      pop\n        /* \"#utility.yul\":1898:2264   */\n      swap2\n      swap1\n      pop\n      jump\t// out\n        /* \"#utility.yul\":2270:2388   */\n    tag_164:\n        /* \"#utility.yul\":2357:2381   */\n      tag_166\n        /* \"#utility.yul\":2375:2380   */\n      dup2\n        /* \"#utility.yul\":2357:2381   */\n      tag_167\n      jump\t// in\n    tag_166:\n        /* \"#utility.yul\":2352:2355   */\n      dup3\n        /* \"#utility.yul\":2345:2382   */\n      mstore\n        /* \"#utility.yul\":2270:2388   */\n      pop\n      pop\n      jump\t// out\n        /* \"#utility.yul\":2394:2648   */\n    tag_32:\n        /* \"#utility.yul\":2503:2507   */\n      0x00\n        /* \"#utility.yul\":2541:2543   */\n      0x20\n        /* \"#utility.yul\":2530:2539   */\n      dup3\n        /* \"#utility.yul\":2526:2544   */\n      add\n        /* \"#utility.yul\":2518:2544   */\n      swap1\n      pop\n        /* \"#utility.yul\":2554:2641   */\n      tag_169\n        /* \"#utility.yul\":2638:2639   */\n      0x00\n        /* \"#utility.yul\":2627:2636   */\n      dup4\n        /* \"#utility.yul\":2623:2640   */\n      add\n        /* \"#utility.yul\":2614:2620   */\n      dup5\n        /* \"#utility.yul\":2554:2641   */\n      tag_131\n      jump\t// in\n    tag_169:\n        /* \"#utility.yul\":2394:2648   */\n      swap3\n      swap2\n      pop\n      pop\n      jump\t// out\n        /* \"#utility.yul\":2654:2888   */\n    tag_27:\n        /* \"#utility.yul\":2753:2757   */\n      0x00\n        /* \"#utility.yul\":2791:2793   */\n      0x20\n        /* \"#utility.yul\":2780:2789   */\n      dup3\n        /* \"#utility.yul\":2776:2794   */\n      add\n        /* \"#utility.yul\":2768:2794   */\n      swap1\n      pop\n        /* \"#utility.yul\":2804:2881   */\n      tag_171\n        /* \"#utility.yul\":2878:2879   */\n      0x00\n        /* \"#utility.yul\":2867:2876   */\n      dup4\n        /* \"#utility.yul\":2863:2880   */\n      add\n        /* \"#utility.yul\":2854:2860   */\n      dup5\n        /* \"#utility.yul\":2804:2881   */\n      tag_135\n      jump\t// in\n    tag_171:\n        /* \"#utility.yul\":2654:2888   */\n      swap3\n      swap2\n      pop\n      pop\n      jump\t// out\n        /* \"#utility.yul\":2894:3207   */\n    tag_55:\n        /* \"#utility.yul\":3007:3011   */\n      0x00\n        /* \"#utility.yul\":3045:3047   */\n      0x20\n        /* \"#utility.yul\":3034:3043   */\n      dup3\n        /* \"#utility.yul\":3030:3048   */\n      add\n        /* \"#utility.yul\":3022:3048   */\n      swap1\n      pop\n        /* \"#utility.yul\":3094:3103   */\n      dup2\n        /* \"#utility.yul\":3088:3092   */\n      dup2\n        /* \"#utility.yul\":3084:3104   */\n      sub\n        /* \"#utility.yul\":3080:3081   */\n      0x00\n        /* \"#utility.yul\":3069:3078   */\n      dup4\n        /* \"#utility.yul\":3065:3082   */\n      add\n        /* \"#utility.yul\":3058:3105   */\n      mstore\n        /* \"#utility.yul\":3122:3200   */\n      tag_173\n        /* \"#utility.yul\":3195:3199   */\n      dup2\n        /* \"#utility.yul\":3186:3192   */\n      dup5\n        /* \"#utility.yul\":3122:3200   */\n      tag_139\n      jump\t// in\n    tag_173:\n        /* \"#utility.yul\":3114:3200   */\n      swap1\n      pop\n        /* \"#utility.yul\":2894:3207   */\n      swap3\n      swap2\n      pop\n      pop\n      jump\t// out\n        /* \"#utility.yul\":3213:3632   */\n    tag_70:\n        /* \"#utility.yul\":3379:3383   */\n      0x00\n        /* \"#utility.yul\":3417:3419   */\n      0x20\n        /* \"#utility.yul\":3406:3415   */\n      dup3\n        /* \"#utility.yul\":3402:3420   */\n      add\n        /* \"#utility.yul\":3394:3420   */\n      swap1\n      pop\n        /* \"#utility.yul\":3466:3475   */\n      dup2\n        /* \"#utility.yul\":3460:3464   */\n      dup2\n        /* \"#utility.yul\":3456:3476   */\n      sub\n        /* \"#utility.yul\":3452:3453   */\n      0x00\n        /* \"#utility.yul\":3441:3450   */\n      dup4\n        /* \"#utility.yul\":3437:3454   */\n      add\n        /* \"#utility.yul\":3430:3477   */\n      mstore\n        /* \"#utility.yul\":3494:3625   */\n      tag_175\n        /* \"#utility.yul\":3620:3624   */\n      dup2\n        /* \"#utility.yul\":3494:3625   */\n      tag_149\n      jump\t// in\n    tag_175:\n        /* \"#utility.yul\":3486:3625   */\n      swap1\n      pop\n        /* \"#utility.yul\":3213:3632   */\n      swap2\n      swap1\n      pop\n      jump\t// out\n        /* \"#utility.yul\":3638:4057   */\n    tag_78:\n        /* \"#utility.yul\":3804:3808   */\n      0x00\n        /* \"#utility.yul\":3842:3844   */\n      0x20\n        /* \"#utility.yul\":3831:3840   */\n      dup3\n        /* \"#utility.yul\":3827:3845   */\n      add\n        /* \"#utility.yul\":3819:3845   */\n      swap1\n      pop\n        /* \"#utility.yul\":3891:3900   */\n      dup2\n        /* \"#utility.yul\":3885:3889   */\n      dup2\n        /* \"#utility.yul\":3881:3901   */\n      sub\n        /* \"#utility.yul\":3877:3878   */\n      0x00\n        /* \"#utility.yul\":3866:3875   */\n      dup4\n        /* \"#utility.yul\":3862:3879   */\n      add\n        /* \"#utility.yul\":3855:3902   */\n      mstore\n        /* \"#utility.yul\":3919:4050   */\n      tag_177\n        /* \"#utility.yul\":4045:4049   */\n      dup2\n        /* \"#utility.yul\":3919:4050   */\n      tag_154\n      jump\t// in\n    tag_177:\n        /* \"#utility.yul\":3911:4050   */\n      swap1\n      pop\n        /* \"#utility.yul\":3638:4057   */\n      swap2\n      swap1\n      pop\n      jump\t// out\n        /* \"#utility.yul\":4063:4482   */\n    tag_74:\n        /* \"#utility.yul\":4229:4233   */\n      0x00\n        /* \"#utility.yul\":4267:4269   */\n      0x20\n        /* \"#utility.yul\":4256:4265   */\n      dup3\n        /* \"#utility.yul\":4252:4270   */\n      add\n        /* \"#utility.yul\":4244:4270   */\n      swap1\n      pop\n        /* \"#utility.yul\":4316:4325   */\n      dup2\n        /* \"#utility.yul\":4310:4314   */\n      dup2\n        /* \"#utility.yul\":4306:4326   */\n      sub\n        /* \"#utility.yul\":4302:4303   */\n      0x00\n        /* \"#utility.yul\":4291:4300   */\n      dup4\n        /* \"#utility.yul\":4287:4304   */\n      add\n        /* \"#utility.yul\":4280:4327   */\n      mstore\n        /* \"#utility.yul\":4344:4475   */\n      tag_179\n        /* \"#utility.yul\":4470:4474   */\n      dup2\n        /* \"#utility.yul\":4344:4475   */\n      tag_159\n      jump\t// in\n    tag_179:\n        /* \"#utility.yul\":4336:4475   */\n      swap1\n      pop\n        /* \"#utility.yul\":4063:4482   */\n      swap2\n      swap1\n      pop\n      jump\t// out\n        /* \"#utility.yul\":4488:4710   */\n    tag_18:\n        /* \"#utility.yul\":4581:4585   */\n      0x00\n        /* \"#utility.yul\":4619:4621   */\n      0x20\n        /* \"#utility.yul\":4608:4617   */\n      dup3\n        /* \"#utility.yul\":4604:4622   */\n      add\n        /* \"#utility.yul\":4596:4622   */\n      swap1\n      pop\n        /* \"#utility.yul\":4632:4703   */\n      tag_181\n        /* \"#utility.yul\":4700:4701   */\n      0x00\n        /* \"#utility.yul\":4689:4698   */\n      dup4\n        /* \"#utility.yul\":4685:4702   */\n      add\n        /* \"#utility.yul\":4676:4682   */\n      dup5\n        /* \"#utility.yul\":4632:4703   */\n      tag_164\n      jump\t// in\n    tag_181:\n        /* \"#utility.yul\":4488:4710   */\n      swap3\n      swap2\n      pop\n      pop\n      jump\t// out\n        /* \"#utility.yul\":4797:4896   */\n    tag_142:\n        /* \"#utility.yul\":4849:4855   */\n      0x00\n        /* \"#utility.yul\":4883:4888   */\n      dup2\n        /* \"#utility.yul\":4877:4889   */\n      mload\n        /* \"#utility.yul\":4867:4889   */\n      swap1\n      pop\n        /* \"#utility.yul\":4797:4896   */\n      swap2\n      swap1\n      pop\n      jump\t// out\n        /* \"#utility.yul\":4902:5071   */\n    tag_144:\n        /* \"#utility.yul\":4986:4997   */\n      0x00\n        /* \"#utility.yul\":5020:5026   */\n      dup3\n        /* \"#utility.yul\":5015:5018   */\n      dup3\n        /* \"#utility.yul\":5008:5027   */\n      mstore\n        /* \"#utility.yul\":5060:5064   */\n      0x20\n        /* \"#utility.yul\":5055:5058   */\n      dup3\n        /* \"#utility.yul\":5051:5065   */\n      add\n        /* \"#utility.yul\":5036:5065   */\n      swap1\n      pop\n        /* \"#utility.yul\":4902:5071   */\n      swap3\n      swap2\n      pop\n      pop\n      jump\t// out\n        /* \"#utility.yul\":5077:5382   */\n    tag_88:\n        /* \"#utility.yul\":5117:5120   */\n      0x00\n        /* \"#utility.yul\":5136:5156   */\n      tag_187\n        /* \"#utility.yul\":5154:5155   */\n      dup3\n        /* \"#utility.yul\":5136:5156   */\n      tag_167\n      jump\t// in\n    tag_187:\n        /* \"#utility.yul\":5131:5156   */\n      swap2\n      pop\n        /* \"#utility.yul\":5170:5190   */\n      tag_188\n        /* \"#utility.yul\":5188:5189   */\n      dup4\n        /* \"#utility.yul\":5170:5190   */\n      tag_167\n      jump\t// in\n    tag_188:\n        /* \"#utility.yul\":5165:5190   */\n      swap3\n      pop\n        /* \"#utility.yul\":5324:5325   */\n      dup3\n        /* \"#utility.yul\":5256:5322   */\n      0xffffffffffffffffffffffffffffffffffffffffffffffffffffffffffffffff\n        /* \"#utility.yul\":5252:5326   */\n      sub\n        /* \"#utility.yul\":5249:5250   */\n      dup3\n        /* \"#utility.yul\":5246:5327   */\n      gt\n        /* \"#utility.yul\":5243:5350   */\n      iszero\n      tag_189\n      jumpi\n        /* \"#utility.yul\":5330:5348   */\n      tag_190\n      tag_191\n      jump\t// in\n    tag_190:\n        /* \"#utility.yul\":5243:5350   */\n    tag_189:\n        /* \"#utility.yul\":5374:5375   */\n      dup3\n        /* \"#utility.yul\":5371:5372   */\n      dup3\n        /* \"#utility.yul\":5367:5376   */\n      add\n        /* \"#utility.yul\":5360:5376   */\n      swap1\n      pop\n        /* \"#utility.yul\":5077:5382   */\n      swap3\n      swap2\n      pop\n      pop\n      jump\t// out\n        /* \"#utility.yul\":5388:5579   */\n    tag_116:\n        /* \"#utility.yul\":5428:5432   */\n      0x00\n        /* \"#utility.yul\":5448:5468   */\n      tag_193\n        /* \"#utility.yul\":5466:5467   */\n      dup3\n        /* \"#utility.yul\":5448:5468   */\n      tag_167\n      jump\t// in\n    tag_193:\n        /* \"#utility.yul\":5443:5468   */\n      swap2\n      pop\n        /* \"#utility.yul\":5482:5502   */\n      tag_194\n        /* \"#utility.yul\":5500:5501   */\n      dup4\n        /* \"#utility.yul\":5482:5502   */\n      tag_167\n      jump\t// in\n    tag_194:\n        /* \"#utility.yul\":5477:5502   */\n      swap3\n      pop\n        /* \"#utility.yul\":5521:5522   */\n      dup3\n        /* \"#utility.yul\":5518:5519   */\n      dup3\n        /* \"#utility.yul\":5515:5523   */\n      lt\n        /* \"#utility.yul\":5512:5546   */\n      iszero\n      tag_195\n      jumpi\n        /* \"#utility.yul\":5526:5544   */\n      tag_196\n      tag_191\n      jump\t// in\n    tag_196:\n        /* \"#utility.yul\":5512:5546   */\n    tag_195:\n        /* \"#utility.yul\":5571:5572   */\n      dup3\n        /* \"#utility.yul\":5568:5569   */\n      dup3\n        /* \"#utility.yul\":5564:5573   */\n      sub\n        /* \"#utility.yul\":5556:5573   */\n      swap1\n      pop\n        /* \"#utility.yul\":5388:5579   */\n      swap3\n      swap2\n      pop\n      pop\n      jump\t// out\n        /* \"#utility.yul\":5585:5681   */\n    tag_197:\n        /* \"#utility.yul\":5622:5629   */\n      0x00\n        /* \"#utility.yul\":5651:5675   */\n      tag_199\n        /* \"#utility.yul\":5669:5674   */\n      dup3\n        /* \"#utility.yul\":5651:5675   */\n      tag_200\n      jump\t// in\n    tag_199:\n        /* \"#utility.yul\":5640:5675   */\n      swap1\n      pop\n        /* \"#utility.yul\":5585:5681   */\n      swap2\n      swap1\n      pop\n      jump\t// out\n        /* \"#utility.yul\":5687:5791   */\n    tag_134:\n        /* \"#utility.yul\":5732:5739   */\n      0x00\n        /* \"#utility.yul\":5761:5785   */\n      tag_202\n        /* \"#utility.yul\":5779:5784   */\n      dup3\n        /* \"#utility.yul\":5761:5785   */\n      tag_200\n      jump\t// in\n    tag_202:\n        /* \"#utility.yul\":5750:5785   */\n      swap1\n      pop\n        /* \"#utility.yul\":5687:5791   */\n      swap2\n      swap1\n      pop\n      jump\t// out\n        /* \"#utility.yul\":5797:5924   */\n    tag_203:\n        /* \"#utility.yul\":5842:5849   */\n      0x00\n        /* \"#utility.yul\":5871:5876   */\n      dup2\n        /* \"#utility.yul\":5860:5876   */\n      swap1\n      pop\n        /* \"#utility.yul\":5877:5918   */\n      tag_205\n        /* \"#utility.yul\":5912:5917   */\n      dup3\n        /* \"#utility.yul\":5877:5918   */\n      tag_206\n      jump\t// in\n    tag_205:\n        /* \"#utility.yul\":5797:5924   */\n      swap2\n      swap1\n      pop\n      jump\t// out\n        /* \"#utility.yul\":5930:6056   */\n    tag_200:\n        /* \"#utility.yul\":5967:5974   */\n      0x00\n        /* \"#utility.yul\":6007:6049   */\n      0xffffffffffffffffffffffffffffffffffffffff\n        /* \"#utility.yul\":6000:6005   */\n      dup3\n        /* \"#utility.yul\":5996:6050   */\n      and\n        /* \"#utility.yul\":5985:6050   */\n      swap1\n      pop\n        /* \"#utility.yul\":5930:6056   */\n      swap2\n      swap1\n      pop\n      jump\t// out\n        /* \"#utility.yul\":6062:6139   */\n    tag_167:\n        /* \"#utility.yul\":6099:6106   */\n      0x00\n        /* \"#utility.yul\":6128:6133   */\n      dup2\n        /* \"#utility.yul\":6117:6133   */\n      swap1\n      pop\n        /* \"#utility.yul\":6062:6139   */\n      swap2\n      swap1\n      pop\n      jump\t// out\n        /* \"#utility.yul\":6145:6272   */\n    tag_138:\n        /* \"#utility.yul\":6201:6210   */\n      0x00\n        /* \"#utility.yul\":6234:6266   */\n      tag_210\n        /* \"#utility.yul\":6260:6265   */\n      dup3\n        /* \"#utility.yul\":6234:6266   */\n      tag_203\n      jump\t// in\n    tag_210:\n        /* \"#utility.yul\":6221:6266   */\n      swap1\n      pop\n        /* \"#utility.yul\":6145:6272   */\n      swap2\n      swap1\n      pop\n      jump\t// out\n        /* \"#utility.yul\":6278:6585   */\n    tag_146:\n        /* \"#utility.yul\":6346:6347   */\n      0x00\n        /* \"#utility.yul\":6356:6469   */\n    tag_212:\n        /* \"#utility.yul\":6370:6376   */\n      dup4\n        /* \"#utility.yul\":6367:6368   */\n      dup2\n        /* \"#utility.yul\":6364:6377   */\n      lt\n        /* \"#utility.yul\":6356:6469   */\n      iszero\n      tag_214\n      jumpi\n        /* \"#utility.yul\":6455:6456   */\n      dup1\n        /* \"#utility.yul\":6450:6453   */\n      dup3\n        /* \"#utility.yul\":6446:6457   */\n      add\n        /* \"#utility.yul\":6440:6458   */\n      mload\n        /* \"#utility.yul\":6436:6437   */\n      dup2\n        /* \"#utility.yul\":6431:6434   */\n      dup5\n        /* \"#utility.yul\":6427:6438   */\n      add\n        /* \"#utility.yul\":6420:6459   */\n      mstore\n        /* \"#utility.yul\":6392:6394   */\n      0x20\n        /* \"#utility.yul\":6389:6390   */\n      dup2\n        /* \"#utility.yul\":6385:6395   */\n      add\n        /* \"#utility.yul\":6380:6395   */\n      swap1\n      pop\n        /* \"#utility.yul\":6356:6469   */\n      jump(tag_212)\n    tag_214:\n        /* \"#utility.yul\":6487:6493   */\n      dup4\n        /* \"#utility.yul\":6484:6485   */\n      dup2\n        /* \"#utility.yul\":6481:6494   */\n      gt\n        /* \"#utility.yul\":6478:6579   */\n      iszero\n      tag_215\n      jumpi\n        /* \"#utility.yul\":6567:6568   */\n      0x00\n        /* \"#utility.yul\":6558:6564   */\n      dup5\n        /* \"#utility.yul\":6553:6556   */\n      dup5\n        /* \"#utility.yul\":6549:6565   */\n      add\n        /* \"#utility.yul\":6542:6569   */\n      mstore\n        /* \"#utility.yul\":6478:6579   */\n    tag_215:\n        /* \"#utility.yul\":6327:6585   */\n      pop\n        /* \"#utility.yul\":6278:6585   */\n      pop\n      pop\n      pop\n      jump\t// out\n        /* \"#utility.yul\":6591:6911   */\n    tag_62:\n        /* \"#utility.yul\":6635:6641   */\n      0x00\n        /* \"#utility.yul\":6672:6673   */\n      0x02\n        /* \"#utility.yul\":6666:6670   */\n      dup3\n        /* \"#utility.yul\":6662:6674   */\n      div\n        /* \"#utility.yul\":6652:6674   */\n      swap1\n      pop\n        /* \"#utility.yul\":6719:6720   */\n      0x01\n        /* \"#utility.yul\":6713:6717   */\n      dup3\n        /* \"#utility.yul\":6709:6721   */\n      and\n        /* \"#utility.yul\":6740:6758   */\n      dup1\n        /* \"#utility.yul\":6730:6811   */\n      tag_217\n      jumpi\n        /* \"#utility.yul\":6796:6800   */\n      0x7f\n        /* \"#utility.yul\":6788:6794   */\n      dup3\n        /* \"#utility.yul\":6784:6801   */\n      and\n        /* \"#utility.yul\":6774:6801   */\n      swap2\n      pop\n        /* \"#utility.yul\":6730:6811   */\n    tag_217:\n        /* \"#utility.yul\":6858:6860   */\n      0x20\n        /* \"#utility.yul\":6850:6856   */\n      dup3\n        /* \"#utility.yul\":6847:6861   */\n      lt\n        /* \"#utility.yul\":6827:6845   */\n      dup2\n        /* \"#utility.yul\":6824:6862   */\n      eq\n        /* \"#utility.yul\":6821:6905   */\n      iszero\n      tag_218\n      jumpi\n        /* \"#utility.yul\":6877:6895   */\n      tag_219\n      tag_220\n      jump\t// in\n    tag_219:\n        /* \"#utility.yul\":6821:6905   */\n    tag_218:\n        /* \"#utility.yul\":6642:6911   */\n      pop\n        /* \"#utility.yul\":6591:6911   */\n      swap2\n      swap1\n      pop\n      jump\t// out\n        /* \"#utility.yul\":6917:7097   */\n    tag_191:\n        /* \"#utility.yul\":6965:7042   */\n      0x4e487b7100000000000000000000000000000000000000000000000000000000\n        /* \"#utility.yul\":6962:6963   */\n      0x00\n        /* \"#utility.yul\":6955:7043   */\n      mstore\n        /* \"#utility.yul\":7062:7066   */\n      0x11\n        /* \"#utility.yul\":7059:7060   */\n      0x04\n        /* \"#utility.yul\":7052:7067   */\n      mstore\n        /* \"#utility.yul\":7086:7090   */\n      0x24\n        /* \"#utility.yul\":7083:7084   */\n      0x00\n        /* \"#utility.yul\":7076:7091   */\n      revert\n        /* \"#utility.yul\":7103:7283   */\n    tag_83:\n        /* \"#utility.yul\":7151:7228   */\n      0x4e487b7100000000000000000000000000000000000000000000000000000000\n        /* \"#utility.yul\":7148:7149   */\n      0x00\n        /* \"#utility.yul\":7141:7229   */\n      mstore\n        /* \"#utility.yul\":7248:7252   */\n      0x21\n        /* \"#utility.yul\":7245:7246   */\n      0x04\n        /* \"#utility.yul\":7238:7253   */\n      mstore\n        /* \"#utility.yul\":7272:7276   */\n      0x24\n        /* \"#utility.yul\":7269:7270   */\n      0x00\n        /* \"#utility.yul\":7262:7277   */\n      revert\n        /* \"#utility.yul\":7289:7469   */\n    tag_220:\n        /* \"#utility.yul\":7337:7414   */\n      0x4e487b7100000000000000000000000000000000000000000000000000000000\n        /* \"#utility.yul\":7334:7335   */\n      0x00\n        /* \"#utility.yul\":7327:7415   */\n      mstore\n        /* \"#utility.yul\":7434:7438   */\n      0x22\n        /* \"#utility.yul\":7431:7432   */\n      0x04\n        /* \"#utility.yul\":7424:7439   */\n      mstore\n        /* \"#utility.yul\":7458:7462   */\n      0x24\n        /* \"#utility.yul\":7455:7456   */\n      0x00\n        /* \"#utility.yul\":7448:7463   */\n      revert\n        /* \"#utility.yul\":7598:7715   */\n    tag_129:\n        /* \"#utility.yul\":7707:7708   */\n      0x00\n        /* \"#utility.yul\":7704:7705   */\n      dup1\n        /* \"#utility.yul\":7697:7709   */\n      revert\n        /* \"#utility.yul\":7721:7823   */\n    tag_148:\n        /* \"#utility.yul\":7762:7768   */\n      0x00\n        /* \"#utility.yul\":7813:7815   */\n      0x1f\n        /* \"#utility.yul\":7809:7816   */\n      not\n        /* \"#utility.yul\":7804:7806   */\n      0x1f\n        /* \"#utility.yul\":7797:7802   */\n      dup4\n        /* \"#utility.yul\":7793:7807   */\n      add\n        /* \"#utility.yul\":7789:7817   */\n      and\n        /* \"#utility.yul\":7779:7817   */\n      swap1\n      pop\n        /* \"#utility.yul\":7721:7823   */\n      swap2\n      swap1\n      pop\n      jump\t// out\n        /* \"#utility.yul\":7829:8049   */\n    tag_153:\n        /* \"#utility.yul\":7969:8003   */\n      0x426964732063616e206f6e6c7920626520706c61636564206279206f776e6572\n        /* \"#utility.yul\":7965:7966   */\n      0x00\n        /* \"#utility.yul\":7957:7963   */\n      dup3\n        /* \"#utility.yul\":7953:7967   */\n      add\n        /* \"#utility.yul\":7946:8004   */\n      mstore\n        /* \"#utility.yul\":8038:8041   */\n      0x7300000000000000000000000000000000000000000000000000000000000000\n        /* \"#utility.yul\":8033:8035   */\n      0x20\n        /* \"#utility.yul\":8025:8031   */\n      dup3\n        /* \"#utility.yul\":8021:8036   */\n      add\n        /* \"#utility.yul\":8014:8042   */\n      mstore\n        /* \"#utility.yul\":7829:8049   */\n      pop\n      jump\t// out\n        /* \"#utility.yul\":8055:8229   */\n    tag_158:\n        /* \"#utility.yul\":8195:8221   */\n      0x41756374696f6e2074696d652068617320656c61737065640000000000000000\n        /* \"#utility.yul\":8191:8192   */\n      0x00\n        /* \"#utility.yul\":8183:8189   */\n      dup3\n        /* \"#utility.yul\":8179:8193   */\n      add\n        /* \"#utility.yul\":8172:8222   */\n      mstore\n        /* \"#utility.yul\":8055:8229   */\n      pop\n      jump\t// out\n        /* \"#utility.yul\":8235:8459   */\n    tag_163:\n        /* \"#utility.yul\":8375:8409   */\n      0x41756374696f6e2063616e6e6f7420626520706c617965642061742074686973\n        /* \"#utility.yul\":8371:8372   */\n      0x00\n        /* \"#utility.yul\":8363:8369   */\n      dup3\n        /* \"#utility.yul\":8359:8373   */\n      add\n        /* \"#utility.yul\":8352:8410   */\n      mstore\n        /* \"#utility.yul\":8444:8451   */\n      0x2074696d65000000000000000000000000000000000000000000000000000000\n        /* \"#utility.yul\":8439:8441   */\n      0x20\n        /* \"#utility.yul\":8431:8437   */\n      dup3\n        /* \"#utility.yul\":8427:8442   */\n      add\n        /* \"#utility.yul\":8420:8452   */\n      mstore\n        /* \"#utility.yul\":8235:8459   */\n      pop\n      jump\t// out\n        /* \"#utility.yul\":8465:8578   */\n    tag_206:\n        /* \"#utility.yul\":8546:8547   */\n      0x04\n        /* \"#utility.yul\":8539:8544   */\n      dup2\n        /* \"#utility.yul\":8536:8548   */\n      lt\n        /* \"#utility.yul\":8526:8572   */\n      tag_232\n      jumpi\n        /* \"#utility.yul\":8552:8570   */\n      tag_233\n      tag_83\n      jump\t// in\n    tag_233:\n        /* \"#utility.yul\":8526:8572   */\n    tag_232:\n        /* \"#utility.yul\":8465:8578   */\n      pop\n      jump\t// out\n        /* \"#utility.yul\":8584:8706   */\n    tag_125:\n        /* \"#utility.yul\":8657:8681   */\n      tag_235\n        /* \"#utility.yul\":8675:8680   */\n      dup2\n        /* \"#utility.yul\":8657:8681   */\n      tag_197\n      jump\t// in\n    tag_235:\n        /* \"#utility.yul\":8650:8655   */\n      dup2\n        /* \"#utility.yul\":8647:8682   */\n      eq\n        /* \"#utility.yul\":8637:8700   */\n      tag_236\n      jumpi\n        /* \"#utility.yul\":8696:8697   */\n      0x00\n        /* \"#utility.yul\":8693:8694   */\n      dup1\n        /* \"#utility.yul\":8686:8698   */\n      revert\n        /* \"#utility.yul\":8637:8700   */\n    tag_236:\n        /* \"#utility.yul\":8584:8706   */\n      pop\n      jump\t// out\n\n    auxdata: 0xa2646970667358221220da5849581197bc63ea728439e038102de248eb7876f56639e6dd7dfb2bec0e6664736f6c63430008070033\n}\n",
				"bytecode": {
					"linkReferences": {},
					"object": "60806040523480156200001157600080fd5b5033600160006101000a81548173ffffffffffffffffffffffffffffffffffffffff021916908373ffffffffffffffffffffffffffffffffffffffff16021790555060646004819055506001600760006101000a81548160ff0219169083600381111562000084576200008362000251565b5b02179055506040518060200160405280600081525060089080519060200190620000b0929190620000d5565b50436005819055506003600554620000c9919062000185565b600681905550620002af565b828054620000e390620001ec565b90600052602060002090601f01602090048101928262000107576000855562000153565b82601f106200012257805160ff191683800117855562000153565b8280016001018555821562000153579182015b828111156200015257825182559160200191906001019062000135565b5b50905062000162919062000166565b5090565b5b808211156200018157600081600090555060010162000167565b5090565b60006200019282620001e2565b91506200019f83620001e2565b9250827fffffffffffffffffffffffffffffffffffffffffffffffffffffffffffffffff03821115620001d757620001d662000222565b5b828201905092915050565b6000819050919050565b600060028204905060018216806200020557607f821691505b602082108114156200021c576200021b62000280565b5b50919050565b7f4e487b7100000000000000000000000000000000000000000000000000000000600052601160045260246000fd5b7f4e487b7100000000000000000000000000000000000000000000000000000000600052602160045260246000fd5b7f4e487b7100000000000000000000000000000000000000000000000000000000600052602260045260246000fd5b610fcd80620002bf6000396000f3fe60806040526004361061009c5760003560e01c806391c11f7d1161006457806391c11f7d1461018a57806391f90157146101b5578063b3cc167a146101e0578063c623674f1461020b578063eb36a47914610236578063f77282ab146102405761009c565b8063083c6323146100a157806348cd4cb1146100cc5780637fb45099146100f75780638da5cb5b146101225780638ee775121461014d575b600080fd5b3480156100ad57600080fd5b506100b6610257565b6040516100c39190610c69565b60405180910390f35b3480156100d857600080fd5b506100e161025d565b6040516100ee9190610c69565b60405180910390f35b34801561010357600080fd5b5061010c610263565b6040516101199190610bcc565b60405180910390f35b34801561012e57600080fd5b50610137610276565b6040516101449190610bb1565b60405180910390f35b34801561015957600080fd5b50610174600480360381019061016f9190610ab5565b61029c565b6040516101819190610c69565b60405180910390f35b34801561019657600080fd5b5061019f6102b4565b6040516101ac9190610c69565b60405180910390f35b3480156101c157600080fd5b506101ca6102ba565b6040516101d79190610bb1565b60405180910390f35b3480156101ec57600080fd5b506101f56102e0565b6040516102029190610c69565b60405180910390f35b34801561021757600080fd5b506102206102e6565b60405161022d9190610be7565b60405180910390f35b61023e610374565b005b34801561024c57600080fd5b5061025561072e565b005b60065481565b60055481565b600760009054906101000a900460ff1681565b600160009054906101000a900473ffffffffffffffffffffffffffffffffffffffff1681565b60006020528060005260406000206000915090505481565b60035481565b600260009054906101000a900473ffffffffffffffffffffffffffffffffffffffff1681565b60045481565b600880546102f390610dd0565b80601f016020809104026020016040519081016040528092919081815260200182805461031f90610dd0565b801561036c5780601f106103415761010080835404028352916020019161036c565b820191906000526020600020905b81548152906001019060200180831161034f57829003601f168201915b505050505081565b600160009054906101000a900473ffffffffffffffffffffffffffffffffffffffff1673ffffffffffffffffffffffffffffffffffffffff163373ffffffffffffffffffffffffffffffffffffffff161415610405576040517f08c379a00000000000000000000000000000000000000000000000000000000081526004016103fc90610c09565b60405180910390fd5b60055443101561044a576040517f08c379a000000000000000000000000000000000000000000000000000000000815260040161044190610c49565b60405180910390fd5b60065443111561048f576040517f08c379a000000000000000000000000000000000000000000000000000000000815260040161048690610c29565b60405180910390fd5b670de0b6b3a764000034116104a357600080fd5b600160038111156104b7576104b6610e31565b5b600760009054906101000a900460ff1660038111156104d9576104d8610e31565b5b146104e357600080fd5b60008060003373ffffffffffffffffffffffffffffffffffffffff1673ffffffffffffffffffffffffffffffffffffffff168152602001908152602001600020543461052f9190610ca0565b9050600354811161053f57600080fd5b806000803373ffffffffffffffffffffffffffffffffffffffff1673ffffffffffffffffffffffffffffffffffffffff16815260200190815260200160002081905550600080600260009054906101000a900473ffffffffffffffffffffffffffffffffffffffff1673ffffffffffffffffffffffffffffffffffffffff1673ffffffffffffffffffffffffffffffffffffffff1681526020019081526020016000205481101561066c57610661600454826105fb9190610ca0565b600080600260009054906101000a900473ffffffffffffffffffffffffffffffffffffffff1673ffffffffffffffffffffffffffffffffffffffff1673ffffffffffffffffffffffffffffffffffffffff16815260200190815260200160002054610a85565b60038190555061072b565b6106e381600454600080600260009054906101000a900473ffffffffffffffffffffffffffffffffffffffff1673ffffffffffffffffffffffffffffffffffffffff1673ffffffffffffffffffffffffffffffffffffffff168152602001908152602001600020546106de9190610ca0565b610a85565b60038190555033600260006101000a81548173ffffffffffffffffffffffffffffffffffffffff021916908373ffffffffffffffffffffffffffffffffffffffff1602179055505b50565b600760009054906101000a900460ff1660038111156107505761074f610e31565b5b60038081111561076357610762610e31565b5b1480610770575060065443115b61077957600080fd5b60008060003373ffffffffffffffffffffffffffffffffffffffff1673ffffffffffffffffffffffffffffffffffffffff1681526020019081526020016000205411806108135750600160009054906101000a900473ffffffffffffffffffffffffffffffffffffffff1673ffffffffffffffffffffffffffffffffffffffff163373ffffffffffffffffffffffffffffffffffffffff16145b61081c57600080fd5b60008060038081111561083257610831610e31565b5b600760009054906101000a900460ff16600381111561085457610853610e31565b5b14156108c557339050600080600260009054906101000a900473ffffffffffffffffffffffffffffffffffffffff1673ffffffffffffffffffffffffffffffffffffffff1673ffffffffffffffffffffffffffffffffffffffff168152602001908152602001600020549150610a81565b600160009054906101000a900473ffffffffffffffffffffffffffffffffffffffff1673ffffffffffffffffffffffffffffffffffffffff163373ffffffffffffffffffffffffffffffffffffffff16141561094a57600160009054906101000a900473ffffffffffffffffffffffffffffffffffffffff1690506003549150610a80565b600260009054906101000a900473ffffffffffffffffffffffffffffffffffffffff1673ffffffffffffffffffffffffffffffffffffffff163373ffffffffffffffffffffffffffffffffffffffff161415610a3a57600260009054906101000a900473ffffffffffffffffffffffffffffffffffffffff169050600354600080600260009054906101000a900473ffffffffffffffffffffffffffffffffffffffff1673ffffffffffffffffffffffffffffffffffffffff1673ffffffffffffffffffffffffffffffffffffffff16815260200190815260200160002054610a339190610cf6565b9150610a7f565b3390506000803373ffffffffffffffffffffffffffffffffffffffff1673ffffffffffffffffffffffffffffffffffffffff1681526020019081526020016000205491505b5b5b5050565b6000818311610a9657829050610a9a565b8190505b92915050565b600081359050610aaf81610f80565b92915050565b600060208284031215610acb57610aca610e8f565b5b6000610ad984828501610aa0565b91505092915050565b610aeb81610d3c565b82525050565b610afa81610d8b565b82525050565b6000610b0b82610c84565b610b158185610c8f565b9350610b25818560208601610d9d565b610b2e81610e94565b840191505092915050565b6000610b46602183610c8f565b9150610b5182610ea5565b604082019050919050565b6000610b69601883610c8f565b9150610b7482610ef4565b602082019050919050565b6000610b8c602583610c8f565b9150610b9782610f1d565b604082019050919050565b610bab81610d81565b82525050565b6000602082019050610bc66000830184610ae2565b92915050565b6000602082019050610be16000830184610af1565b92915050565b60006020820190508181036000830152610c018184610b00565b905092915050565b60006020820190508181036000830152610c2281610b39565b9050919050565b60006020820190508181036000830152610c4281610b5c565b9050919050565b60006020820190508181036000830152610c6281610b7f565b9050919050565b6000602082019050610c7e6000830184610ba2565b92915050565b600081519050919050565b600082825260208201905092915050565b6000610cab82610d81565b9150610cb683610d81565b9250827fffffffffffffffffffffffffffffffffffffffffffffffffffffffffffffffff03821115610ceb57610cea610e02565b5b828201905092915050565b6000610d0182610d81565b9150610d0c83610d81565b925082821015610d1f57610d1e610e02565b5b828203905092915050565b6000610d3582610d61565b9050919050565b6000610d4782610d61565b9050919050565b6000819050610d5c82610f6c565b919050565b600073ffffffffffffffffffffffffffffffffffffffff82169050919050565b6000819050919050565b6000610d9682610d4e565b9050919050565b60005b83811015610dbb578082015181840152602081019050610da0565b83811115610dca576000848401525b50505050565b60006002820490506001821680610de857607f821691505b60208210811415610dfc57610dfb610e60565b5b50919050565b7f4e487b7100000000000000000000000000000000000000000000000000000000600052601160045260246000fd5b7f4e487b7100000000000000000000000000000000000000000000000000000000600052602160045260246000fd5b7f4e487b7100000000000000000000000000000000000000000000000000000000600052602260045260246000fd5b600080fd5b6000601f19601f8301169050919050565b7f426964732063616e206f6e6c7920626520706c61636564206279206f776e657260008201527f7300000000000000000000000000000000000000000000000000000000000000602082015250565b7f41756374696f6e2074696d652068617320656c61737065640000000000000000600082015250565b7f41756374696f6e2063616e6e6f7420626520706c61796564206174207468697360008201527f2074696d65000000000000000000000000000000000000000000000000000000602082015250565b60048110610f7d57610f7c610e31565b5b50565b610f8981610d2a565b8114610f9457600080fd5b5056fea2646970667358221220da5849581197bc63ea728439e038102de248eb7876f56639e6dd7dfb2bec0e6664736f6c63430008070033",
					"opcodes": "PUSH1 0x80 PUSH1 0x40 MSTORE CALLVALUE DUP1 ISZERO PUSH3 0x11 JUMPI PUSH1 0x0 DUP1 REVERT JUMPDEST POP CALLER PUSH1 0x1 PUSH1 0x0 PUSH2 0x100 EXP DUP2 SLOAD DUP2 PUSH20 0xFFFFFFFFFFFFFFFFFFFFFFFFFFFFFFFFFFFFFFFF MUL NOT AND SWAP1 DUP4 PUSH20 0xFFFFFFFFFFFFFFFFFFFFFFFFFFFFFFFFFFFFFFFF AND MUL OR SWAP1 SSTORE POP PUSH1 0x64 PUSH1 0x4 DUP2 SWAP1 SSTORE POP PUSH1 0x1 PUSH1 0x7 PUSH1 0x0 PUSH2 0x100 EXP DUP2 SLOAD DUP2 PUSH1 0xFF MUL NOT AND SWAP1 DUP4 PUSH1 0x3 DUP2 GT ISZERO PUSH3 0x84 JUMPI PUSH3 0x83 PUSH3 0x251 JUMP JUMPDEST JUMPDEST MUL OR SWAP1 SSTORE POP PUSH1 0x40 MLOAD DUP1 PUSH1 0x20 ADD PUSH1 0x40 MSTORE DUP1 PUSH1 0x0 DUP2 MSTORE POP PUSH1 0x8 SWAP1 DUP1 MLOAD SWAP1 PUSH1 0x20 ADD SWAP1 PUSH3 0xB0 SWAP3 SWAP2 SWAP1 PUSH3 0xD5 JUMP JUMPDEST POP NUMBER PUSH1 0x5 DUP2 SWAP1 SSTORE POP PUSH1 0x3 PUSH1 0x5 SLOAD PUSH3 0xC9 SWAP2 SWAP1 PUSH3 0x185 JUMP JUMPDEST PUSH1 0x6 DUP2 SWAP1 SSTORE POP PUSH3 0x2AF JUMP JUMPDEST DUP3 DUP1 SLOAD PUSH3 0xE3 SWAP1 PUSH3 0x1EC JUMP JUMPDEST SWAP1 PUSH1 0x0 MSTORE PUSH1 0x20 PUSH1 0x0 KECCAK256 SWAP1 PUSH1 0x1F ADD PUSH1 0x20 SWAP1 DIV DUP2 ADD SWAP3 DUP3 PUSH3 0x107 JUMPI PUSH1 0x0 DUP6 SSTORE PUSH3 0x153 JUMP JUMPDEST DUP3 PUSH1 0x1F LT PUSH3 0x122 JUMPI DUP1 MLOAD PUSH1 0xFF NOT AND DUP4 DUP1 ADD OR DUP6 SSTORE PUSH3 0x153 JUMP JUMPDEST DUP3 DUP1 ADD PUSH1 0x1 ADD DUP6 SSTORE DUP3 ISZERO PUSH3 0x153 JUMPI SWAP2 DUP3 ADD JUMPDEST DUP3 DUP2 GT ISZERO PUSH3 0x152 JUMPI DUP3 MLOAD DUP3 SSTORE SWAP2 PUSH1 0x20 ADD SWAP2 SWAP1 PUSH1 0x1 ADD SWAP1 PUSH3 0x135 JUMP JUMPDEST JUMPDEST POP SWAP1 POP PUSH3 0x162 SWAP2 SWAP1 PUSH3 0x166 JUMP JUMPDEST POP SWAP1 JUMP JUMPDEST JUMPDEST DUP1 DUP3 GT ISZERO PUSH3 0x181 JUMPI PUSH1 0x0 DUP2 PUSH1 0x0 SWAP1 SSTORE POP PUSH1 0x1 ADD PUSH3 0x167 JUMP JUMPDEST POP SWAP1 JUMP JUMPDEST PUSH1 0x0 PUSH3 0x192 DUP3 PUSH3 0x1E2 JUMP JUMPDEST SWAP2 POP PUSH3 0x19F DUP4 PUSH3 0x1E2 JUMP JUMPDEST SWAP3 POP DUP3 PUSH32 0xFFFFFFFFFFFFFFFFFFFFFFFFFFFFFFFFFFFFFFFFFFFFFFFFFFFFFFFFFFFFFFFF SUB DUP3 GT ISZERO PUSH3 0x1D7 JUMPI PUSH3 0x1D6 PUSH3 0x222 JUMP JUMPDEST JUMPDEST DUP3 DUP3 ADD SWAP1 POP SWAP3 SWAP2 POP POP JUMP JUMPDEST PUSH1 0x0 DUP2 SWAP1 POP SWAP2 SWAP1 POP JUMP JUMPDEST PUSH1 0x0 PUSH1 0x2 DUP3 DIV SWAP1 POP PUSH1 0x1 DUP3 AND DUP1 PUSH3 0x205 JUMPI PUSH1 0x7F DUP3 AND SWAP2 POP JUMPDEST PUSH1 0x20 DUP3 LT DUP2 EQ ISZERO PUSH3 0x21C JUMPI PUSH3 0x21B PUSH3 0x280 JUMP JUMPDEST JUMPDEST POP SWAP2 SWAP1 POP JUMP JUMPDEST PUSH32 0x4E487B7100000000000000000000000000000000000000000000000000000000 PUSH1 0x0 MSTORE PUSH1 0x11 PUSH1 0x4 MSTORE PUSH1 0x24 PUSH1 0x0 REVERT JUMPDEST PUSH32 0x4E487B7100000000000000000000000000000000000000000000000000000000 PUSH1 0x0 MSTORE PUSH1 0x21 PUSH1 0x4 MSTORE PUSH1 0x24 PUSH1 0x0 REVERT JUMPDEST PUSH32 0x4E487B7100000000000000000000000000000000000000000000000000000000 PUSH1 0x0 MSTORE PUSH1 0x22 PUSH1 0x4 MSTORE PUSH1 0x24 PUSH1 0x0 REVERT JUMPDEST PUSH2 0xFCD DUP1 PUSH3 0x2BF PUSH1 0x0 CODECOPY PUSH1 0x0 RETURN INVALID PUSH1 0x80 PUSH1 0x40 MSTORE PUSH1 0x4 CALLDATASIZE LT PUSH2 0x9C JUMPI PUSH1 0x0 CALLDATALOAD PUSH1 0xE0 SHR DUP1 PUSH4 0x91C11F7D GT PUSH2 0x64 JUMPI DUP1 PUSH4 0x91C11F7D EQ PUSH2 0x18A JUMPI DUP1 PUSH4 0x91F90157 EQ PUSH2 0x1B5 JUMPI DUP1 PUSH4 0xB3CC167A EQ PUSH2 0x1E0 JUMPI DUP1 PUSH4 0xC623674F EQ PUSH2 0x20B JUMPI DUP1 PUSH4 0xEB36A479 EQ PUSH2 0x236 JUMPI DUP1 PUSH4 0xF77282AB EQ PUSH2 0x240 JUMPI PUSH2 0x9C JUMP JUMPDEST DUP1 PUSH4 0x83C6323 EQ PUSH2 0xA1 JUMPI DUP1 PUSH4 0x48CD4CB1 EQ PUSH2 0xCC JUMPI DUP1 PUSH4 0x7FB45099 EQ PUSH2 0xF7 JUMPI DUP1 PUSH4 0x8DA5CB5B EQ PUSH2 0x122 JUMPI DUP1 PUSH4 0x8EE77512 EQ PUSH2 0x14D JUMPI JUMPDEST PUSH1 0x0 DUP1 REVERT JUMPDEST CALLVALUE DUP1 ISZERO PUSH2 0xAD JUMPI PUSH1 0x0 DUP1 REVERT JUMPDEST POP PUSH2 0xB6 PUSH2 0x257 JUMP JUMPDEST PUSH1 0x40 MLOAD PUSH2 0xC3 SWAP2 SWAP1 PUSH2 0xC69 JUMP JUMPDEST PUSH1 0x40 MLOAD DUP1 SWAP2 SUB SWAP1 RETURN JUMPDEST CALLVALUE DUP1 ISZERO PUSH2 0xD8 JUMPI PUSH1 0x0 DUP1 REVERT JUMPDEST POP PUSH2 0xE1 PUSH2 0x25D JUMP JUMPDEST PUSH1 0x40 MLOAD PUSH2 0xEE SWAP2 SWAP1 PUSH2 0xC69 JUMP JUMPDEST PUSH1 0x40 MLOAD DUP1 SWAP2 SUB SWAP1 RETURN JUMPDEST CALLVALUE DUP1 ISZERO PUSH2 0x103 JUMPI PUSH1 0x0 DUP1 REVERT JUMPDEST POP PUSH2 0x10C PUSH2 0x263 JUMP JUMPDEST PUSH1 0x40 MLOAD PUSH2 0x119 SWAP2 SWAP1 PUSH2 0xBCC JUMP JUMPDEST PUSH1 0x40 MLOAD DUP1 SWAP2 SUB SWAP1 RETURN JUMPDEST CALLVALUE DUP1 ISZERO PUSH2 0x12E JUMPI PUSH1 0x0 DUP1 REVERT JUMPDEST POP PUSH2 0x137 PUSH2 0x276 JUMP JUMPDEST PUSH1 0x40 MLOAD PUSH2 0x144 SWAP2 SWAP1 PUSH2 0xBB1 JUMP JUMPDEST PUSH1 0x40 MLOAD DUP1 SWAP2 SUB SWAP1 RETURN JUMPDEST CALLVALUE DUP1 ISZERO PUSH2 0x159 JUMPI PUSH1 0x0 DUP1 REVERT JUMPDEST POP PUSH2 0x174 PUSH1 0x4 DUP1 CALLDATASIZE SUB DUP2 ADD SWAP1 PUSH2 0x16F SWAP2 SWAP1 PUSH2 0xAB5 JUMP JUMPDEST PUSH2 0x29C JUMP JUMPDEST PUSH1 0x40 MLOAD PUSH2 0x181 SWAP2 SWAP1 PUSH2 0xC69 JUMP JUMPDEST PUSH1 0x40 MLOAD DUP1 SWAP2 SUB SWAP1 RETURN JUMPDEST CALLVALUE DUP1 ISZERO PUSH2 0x196 JUMPI PUSH1 0x0 DUP1 REVERT JUMPDEST POP PUSH2 0x19F PUSH2 0x2B4 JUMP JUMPDEST PUSH1 0x40 MLOAD PUSH2 0x1AC SWAP2 SWAP1 PUSH2 0xC69 JUMP JUMPDEST PUSH1 0x40 MLOAD DUP1 SWAP2 SUB SWAP1 RETURN JUMPDEST CALLVALUE DUP1 ISZERO PUSH2 0x1C1 JUMPI PUSH1 0x0 DUP1 REVERT JUMPDEST POP PUSH2 0x1CA PUSH2 0x2BA JUMP JUMPDEST PUSH1 0x40 MLOAD PUSH2 0x1D7 SWAP2 SWAP1 PUSH2 0xBB1 JUMP JUMPDEST PUSH1 0x40 MLOAD DUP1 SWAP2 SUB SWAP1 RETURN JUMPDEST CALLVALUE DUP1 ISZERO PUSH2 0x1EC JUMPI PUSH1 0x0 DUP1 REVERT JUMPDEST POP PUSH2 0x1F5 PUSH2 0x2E0 JUMP JUMPDEST PUSH1 0x40 MLOAD PUSH2 0x202 SWAP2 SWAP1 PUSH2 0xC69 JUMP JUMPDEST PUSH1 0x40 MLOAD DUP1 SWAP2 SUB SWAP1 RETURN JUMPDEST CALLVALUE DUP1 ISZERO PUSH2 0x217 JUMPI PUSH1 0x0 DUP1 REVERT JUMPDEST POP PUSH2 0x220 PUSH2 0x2E6 JUMP JUMPDEST PUSH1 0x40 MLOAD PUSH2 0x22D SWAP2 SWAP1 PUSH2 0xBE7 JUMP JUMPDEST PUSH1 0x40 MLOAD DUP1 SWAP2 SUB SWAP1 RETURN JUMPDEST PUSH2 0x23E PUSH2 0x374 JUMP JUMPDEST STOP JUMPDEST CALLVALUE DUP1 ISZERO PUSH2 0x24C JUMPI PUSH1 0x0 DUP1 REVERT JUMPDEST POP PUSH2 0x255 PUSH2 0x72E JUMP JUMPDEST STOP JUMPDEST PUSH1 0x6 SLOAD DUP2 JUMP JUMPDEST PUSH1 0x5 SLOAD DUP2 JUMP JUMPDEST PUSH1 0x7 PUSH1 0x0 SWAP1 SLOAD SWAP1 PUSH2 0x100 EXP SWAP1 DIV PUSH1 0xFF AND DUP2 JUMP JUMPDEST PUSH1 0x1 PUSH1 0x0 SWAP1 SLOAD SWAP1 PUSH2 0x100 EXP SWAP1 DIV PUSH20 0xFFFFFFFFFFFFFFFFFFFFFFFFFFFFFFFFFFFFFFFF AND DUP2 JUMP JUMPDEST PUSH1 0x0 PUSH1 0x20 MSTORE DUP1 PUSH1 0x0 MSTORE PUSH1 0x40 PUSH1 0x0 KECCAK256 PUSH1 0x0 SWAP2 POP SWAP1 POP SLOAD DUP2 JUMP JUMPDEST PUSH1 0x3 SLOAD DUP2 JUMP JUMPDEST PUSH1 0x2 PUSH1 0x0 SWAP1 SLOAD SWAP1 PUSH2 0x100 EXP SWAP1 DIV PUSH20 0xFFFFFFFFFFFFFFFFFFFFFFFFFFFFFFFFFFFFFFFF AND DUP2 JUMP JUMPDEST PUSH1 0x4 SLOAD DUP2 JUMP JUMPDEST PUSH1 0x8 DUP1 SLOAD PUSH2 0x2F3 SWAP1 PUSH2 0xDD0 JUMP JUMPDEST DUP1 PUSH1 0x1F ADD PUSH1 0x20 DUP1 SWAP2 DIV MUL PUSH1 0x20 ADD PUSH1 0x40 MLOAD SWAP1 DUP2 ADD PUSH1 0x40 MSTORE DUP1 SWAP3 SWAP2 SWAP1 DUP2 DUP2 MSTORE PUSH1 0x20 ADD DUP3 DUP1 SLOAD PUSH2 0x31F SWAP1 PUSH2 0xDD0 JUMP JUMPDEST DUP1 ISZERO PUSH2 0x36C JUMPI DUP1 PUSH1 0x1F LT PUSH2 0x341 JUMPI PUSH2 0x100 DUP1 DUP4 SLOAD DIV MUL DUP4 MSTORE SWAP2 PUSH1 0x20 ADD SWAP2 PUSH2 0x36C JUMP JUMPDEST DUP3 ADD SWAP2 SWAP1 PUSH1 0x0 MSTORE PUSH1 0x20 PUSH1 0x0 KECCAK256 SWAP1 JUMPDEST DUP2 SLOAD DUP2 MSTORE SWAP1 PUSH1 0x1 ADD SWAP1 PUSH1 0x20 ADD DUP1 DUP4 GT PUSH2 0x34F JUMPI DUP3 SWAP1 SUB PUSH1 0x1F AND DUP3 ADD SWAP2 JUMPDEST POP POP POP POP POP DUP2 JUMP JUMPDEST PUSH1 0x1 PUSH1 0x0 SWAP1 SLOAD SWAP1 PUSH2 0x100 EXP SWAP1 DIV PUSH20 0xFFFFFFFFFFFFFFFFFFFFFFFFFFFFFFFFFFFFFFFF AND PUSH20 0xFFFFFFFFFFFFFFFFFFFFFFFFFFFFFFFFFFFFFFFF AND CALLER PUSH20 0xFFFFFFFFFFFFFFFFFFFFFFFFFFFFFFFFFFFFFFFF AND EQ ISZERO PUSH2 0x405 JUMPI PUSH1 0x40 MLOAD PUSH32 0x8C379A000000000000000000000000000000000000000000000000000000000 DUP2 MSTORE PUSH1 0x4 ADD PUSH2 0x3FC SWAP1 PUSH2 0xC09 JUMP JUMPDEST PUSH1 0x40 MLOAD DUP1 SWAP2 SUB SWAP1 REVERT JUMPDEST PUSH1 0x5 SLOAD NUMBER LT ISZERO PUSH2 0x44A JUMPI PUSH1 0x40 MLOAD PUSH32 0x8C379A000000000000000000000000000000000000000000000000000000000 DUP2 MSTORE PUSH1 0x4 ADD PUSH2 0x441 SWAP1 PUSH2 0xC49 JUMP JUMPDEST PUSH1 0x40 MLOAD DUP1 SWAP2 SUB SWAP1 REVERT JUMPDEST PUSH1 0x6 SLOAD NUMBER GT ISZERO PUSH2 0x48F JUMPI PUSH1 0x40 MLOAD PUSH32 0x8C379A000000000000000000000000000000000000000000000000000000000 DUP2 MSTORE PUSH1 0x4 ADD PUSH2 0x486 SWAP1 PUSH2 0xC29 JUMP JUMPDEST PUSH1 0x40 MLOAD DUP1 SWAP2 SUB SWAP1 REVERT JUMPDEST PUSH8 0xDE0B6B3A7640000 CALLVALUE GT PUSH2 0x4A3 JUMPI PUSH1 0x0 DUP1 REVERT JUMPDEST PUSH1 0x1 PUSH1 0x3 DUP2 GT ISZERO PUSH2 0x4B7 JUMPI PUSH2 0x4B6 PUSH2 0xE31 JUMP JUMPDEST JUMPDEST PUSH1 0x7 PUSH1 0x0 SWAP1 SLOAD SWAP1 PUSH2 0x100 EXP SWAP1 DIV PUSH1 0xFF AND PUSH1 0x3 DUP2 GT ISZERO PUSH2 0x4D9 JUMPI PUSH2 0x4D8 PUSH2 0xE31 JUMP JUMPDEST JUMPDEST EQ PUSH2 0x4E3 JUMPI PUSH1 0x0 DUP1 REVERT JUMPDEST PUSH1 0x0 DUP1 PUSH1 0x0 CALLER PUSH20 0xFFFFFFFFFFFFFFFFFFFFFFFFFFFFFFFFFFFFFFFF AND PUSH20 0xFFFFFFFFFFFFFFFFFFFFFFFFFFFFFFFFFFFFFFFF AND DUP2 MSTORE PUSH1 0x20 ADD SWAP1 DUP2 MSTORE PUSH1 0x20 ADD PUSH1 0x0 KECCAK256 SLOAD CALLVALUE PUSH2 0x52F SWAP2 SWAP1 PUSH2 0xCA0 JUMP JUMPDEST SWAP1 POP PUSH1 0x3 SLOAD DUP2 GT PUSH2 0x53F JUMPI PUSH1 0x0 DUP1 REVERT JUMPDEST DUP1 PUSH1 0x0 DUP1 CALLER PUSH20 0xFFFFFFFFFFFFFFFFFFFFFFFFFFFFFFFFFFFFFFFF AND PUSH20 0xFFFFFFFFFFFFFFFFFFFFFFFFFFFFFFFFFFFFFFFF AND DUP2 MSTORE PUSH1 0x20 ADD SWAP1 DUP2 MSTORE PUSH1 0x20 ADD PUSH1 0x0 KECCAK256 DUP2 SWAP1 SSTORE POP PUSH1 0x0 DUP1 PUSH1 0x2 PUSH1 0x0 SWAP1 SLOAD SWAP1 PUSH2 0x100 EXP SWAP1 DIV PUSH20 0xFFFFFFFFFFFFFFFFFFFFFFFFFFFFFFFFFFFFFFFF AND PUSH20 0xFFFFFFFFFFFFFFFFFFFFFFFFFFFFFFFFFFFFFFFF AND PUSH20 0xFFFFFFFFFFFFFFFFFFFFFFFFFFFFFFFFFFFFFFFF AND DUP2 MSTORE PUSH1 0x20 ADD SWAP1 DUP2 MSTORE PUSH1 0x20 ADD PUSH1 0x0 KECCAK256 SLOAD DUP2 LT ISZERO PUSH2 0x66C JUMPI PUSH2 0x661 PUSH1 0x4 SLOAD DUP3 PUSH2 0x5FB SWAP2 SWAP1 PUSH2 0xCA0 JUMP JUMPDEST PUSH1 0x0 DUP1 PUSH1 0x2 PUSH1 0x0 SWAP1 SLOAD SWAP1 PUSH2 0x100 EXP SWAP1 DIV PUSH20 0xFFFFFFFFFFFFFFFFFFFFFFFFFFFFFFFFFFFFFFFF AND PUSH20 0xFFFFFFFFFFFFFFFFFFFFFFFFFFFFFFFFFFFFFFFF AND PUSH20 0xFFFFFFFFFFFFFFFFFFFFFFFFFFFFFFFFFFFFFFFF AND DUP2 MSTORE PUSH1 0x20 ADD SWAP1 DUP2 MSTORE PUSH1 0x20 ADD PUSH1 0x0 KECCAK256 SLOAD PUSH2 0xA85 JUMP JUMPDEST PUSH1 0x3 DUP2 SWAP1 SSTORE POP PUSH2 0x72B JUMP JUMPDEST PUSH2 0x6E3 DUP2 PUSH1 0x4 SLOAD PUSH1 0x0 DUP1 PUSH1 0x2 PUSH1 0x0 SWAP1 SLOAD SWAP1 PUSH2 0x100 EXP SWAP1 DIV PUSH20 0xFFFFFFFFFFFFFFFFFFFFFFFFFFFFFFFFFFFFFFFF AND PUSH20 0xFFFFFFFFFFFFFFFFFFFFFFFFFFFFFFFFFFFFFFFF AND PUSH20 0xFFFFFFFFFFFFFFFFFFFFFFFFFFFFFFFFFFFFFFFF AND DUP2 MSTORE PUSH1 0x20 ADD SWAP1 DUP2 MSTORE PUSH1 0x20 ADD PUSH1 0x0 KECCAK256 SLOAD PUSH2 0x6DE SWAP2 SWAP1 PUSH2 0xCA0 JUMP JUMPDEST PUSH2 0xA85 JUMP JUMPDEST PUSH1 0x3 DUP2 SWAP1 SSTORE POP CALLER PUSH1 0x2 PUSH1 0x0 PUSH2 0x100 EXP DUP2 SLOAD DUP2 PUSH20 0xFFFFFFFFFFFFFFFFFFFFFFFFFFFFFFFFFFFFFFFF MUL NOT AND SWAP1 DUP4 PUSH20 0xFFFFFFFFFFFFFFFFFFFFFFFFFFFFFFFFFFFFFFFF AND MUL OR SWAP1 SSTORE POP JUMPDEST POP JUMP JUMPDEST PUSH1 0x7 PUSH1 0x0 SWAP1 SLOAD SWAP1 PUSH2 0x100 EXP SWAP1 DIV PUSH1 0xFF AND PUSH1 0x3 DUP2 GT ISZERO PUSH2 0x750 JUMPI PUSH2 0x74F PUSH2 0xE31 JUMP JUMPDEST JUMPDEST PUSH1 0x3 DUP1 DUP2 GT ISZERO PUSH2 0x763 JUMPI PUSH2 0x762 PUSH2 0xE31 JUMP JUMPDEST JUMPDEST EQ DUP1 PUSH2 0x770 JUMPI POP PUSH1 0x6 SLOAD NUMBER GT JUMPDEST PUSH2 0x779 JUMPI PUSH1 0x0 DUP1 REVERT JUMPDEST PUSH1 0x0 DUP1 PUSH1 0x0 CALLER PUSH20 0xFFFFFFFFFFFFFFFFFFFFFFFFFFFFFFFFFFFFFFFF AND PUSH20 0xFFFFFFFFFFFFFFFFFFFFFFFFFFFFFFFFFFFFFFFF AND DUP2 MSTORE PUSH1 0x20 ADD SWAP1 DUP2 MSTORE PUSH1 0x20 ADD PUSH1 0x0 KECCAK256 SLOAD GT DUP1 PUSH2 0x813 JUMPI POP PUSH1 0x1 PUSH1 0x0 SWAP1 SLOAD SWAP1 PUSH2 0x100 EXP SWAP1 DIV PUSH20 0xFFFFFFFFFFFFFFFFFFFFFFFFFFFFFFFFFFFFFFFF AND PUSH20 0xFFFFFFFFFFFFFFFFFFFFFFFFFFFFFFFFFFFFFFFF AND CALLER PUSH20 0xFFFFFFFFFFFFFFFFFFFFFFFFFFFFFFFFFFFFFFFF AND EQ JUMPDEST PUSH2 0x81C JUMPI PUSH1 0x0 DUP1 REVERT JUMPDEST PUSH1 0x0 DUP1 PUSH1 0x3 DUP1 DUP2 GT ISZERO PUSH2 0x832 JUMPI PUSH2 0x831 PUSH2 0xE31 JUMP JUMPDEST JUMPDEST PUSH1 0x7 PUSH1 0x0 SWAP1 SLOAD SWAP1 PUSH2 0x100 EXP SWAP1 DIV PUSH1 0xFF AND PUSH1 0x3 DUP2 GT ISZERO PUSH2 0x854 JUMPI PUSH2 0x853 PUSH2 0xE31 JUMP JUMPDEST JUMPDEST EQ ISZERO PUSH2 0x8C5 JUMPI CALLER SWAP1 POP PUSH1 0x0 DUP1 PUSH1 0x2 PUSH1 0x0 SWAP1 SLOAD SWAP1 PUSH2 0x100 EXP SWAP1 DIV PUSH20 0xFFFFFFFFFFFFFFFFFFFFFFFFFFFFFFFFFFFFFFFF AND PUSH20 0xFFFFFFFFFFFFFFFFFFFFFFFFFFFFFFFFFFFFFFFF AND PUSH20 0xFFFFFFFFFFFFFFFFFFFFFFFFFFFFFFFFFFFFFFFF AND DUP2 MSTORE PUSH1 0x20 ADD SWAP1 DUP2 MSTORE PUSH1 0x20 ADD PUSH1 0x0 KECCAK256 SLOAD SWAP2 POP PUSH2 0xA81 JUMP JUMPDEST PUSH1 0x1 PUSH1 0x0 SWAP1 SLOAD SWAP1 PUSH2 0x100 EXP SWAP1 DIV PUSH20 0xFFFFFFFFFFFFFFFFFFFFFFFFFFFFFFFFFFFFFFFF AND PUSH20 0xFFFFFFFFFFFFFFFFFFFFFFFFFFFFFFFFFFFFFFFF AND CALLER PUSH20 0xFFFFFFFFFFFFFFFFFFFFFFFFFFFFFFFFFFFFFFFF AND EQ ISZERO PUSH2 0x94A JUMPI PUSH1 0x1 PUSH1 0x0 SWAP1 SLOAD SWAP1 PUSH2 0x100 EXP SWAP1 DIV PUSH20 0xFFFFFFFFFFFFFFFFFFFFFFFFFFFFFFFFFFFFFFFF AND SWAP1 POP PUSH1 0x3 SLOAD SWAP2 POP PUSH2 0xA80 JUMP JUMPDEST PUSH1 0x2 PUSH1 0x0 SWAP1 SLOAD SWAP1 PUSH2 0x100 EXP SWAP1 DIV PUSH20 0xFFFFFFFFFFFFFFFFFFFFFFFFFFFFFFFFFFFFFFFF AND PUSH20 0xFFFFFFFFFFFFFFFFFFFFFFFFFFFFFFFFFFFFFFFF AND CALLER PUSH20 0xFFFFFFFFFFFFFFFFFFFFFFFFFFFFFFFFFFFFFFFF AND EQ ISZERO PUSH2 0xA3A JUMPI PUSH1 0x2 PUSH1 0x0 SWAP1 SLOAD SWAP1 PUSH2 0x100 EXP SWAP1 DIV PUSH20 0xFFFFFFFFFFFFFFFFFFFFFFFFFFFFFFFFFFFFFFFF AND SWAP1 POP PUSH1 0x3 SLOAD PUSH1 0x0 DUP1 PUSH1 0x2 PUSH1 0x0 SWAP1 SLOAD SWAP1 PUSH2 0x100 EXP SWAP1 DIV PUSH20 0xFFFFFFFFFFFFFFFFFFFFFFFFFFFFFFFFFFFFFFFF AND PUSH20 0xFFFFFFFFFFFFFFFFFFFFFFFFFFFFFFFFFFFFFFFF AND PUSH20 0xFFFFFFFFFFFFFFFFFFFFFFFFFFFFFFFFFFFFFFFF AND DUP2 MSTORE PUSH1 0x20 ADD SWAP1 DUP2 MSTORE PUSH1 0x20 ADD PUSH1 0x0 KECCAK256 SLOAD PUSH2 0xA33 SWAP2 SWAP1 PUSH2 0xCF6 JUMP JUMPDEST SWAP2 POP PUSH2 0xA7F JUMP JUMPDEST CALLER SWAP1 POP PUSH1 0x0 DUP1 CALLER PUSH20 0xFFFFFFFFFFFFFFFFFFFFFFFFFFFFFFFFFFFFFFFF AND PUSH20 0xFFFFFFFFFFFFFFFFFFFFFFFFFFFFFFFFFFFFFFFF AND DUP2 MSTORE PUSH1 0x20 ADD SWAP1 DUP2 MSTORE PUSH1 0x20 ADD PUSH1 0x0 KECCAK256 SLOAD SWAP2 POP JUMPDEST JUMPDEST JUMPDEST POP POP JUMP JUMPDEST PUSH1 0x0 DUP2 DUP4 GT PUSH2 0xA96 JUMPI DUP3 SWAP1 POP PUSH2 0xA9A JUMP JUMPDEST DUP2 SWAP1 POP JUMPDEST SWAP3 SWAP2 POP POP JUMP JUMPDEST PUSH1 0x0 DUP2 CALLDATALOAD SWAP1 POP PUSH2 0xAAF DUP2 PUSH2 0xF80 JUMP JUMPDEST SWAP3 SWAP2 POP POP JUMP JUMPDEST PUSH1 0x0 PUSH1 0x20 DUP3 DUP5 SUB SLT ISZERO PUSH2 0xACB JUMPI PUSH2 0xACA PUSH2 0xE8F JUMP JUMPDEST JUMPDEST PUSH1 0x0 PUSH2 0xAD9 DUP5 DUP3 DUP6 ADD PUSH2 0xAA0 JUMP JUMPDEST SWAP2 POP POP SWAP3 SWAP2 POP POP JUMP JUMPDEST PUSH2 0xAEB DUP2 PUSH2 0xD3C JUMP JUMPDEST DUP3 MSTORE POP POP JUMP JUMPDEST PUSH2 0xAFA DUP2 PUSH2 0xD8B JUMP JUMPDEST DUP3 MSTORE POP POP JUMP JUMPDEST PUSH1 0x0 PUSH2 0xB0B DUP3 PUSH2 0xC84 JUMP JUMPDEST PUSH2 0xB15 DUP2 DUP6 PUSH2 0xC8F JUMP JUMPDEST SWAP4 POP PUSH2 0xB25 DUP2 DUP6 PUSH1 0x20 DUP7 ADD PUSH2 0xD9D JUMP JUMPDEST PUSH2 0xB2E DUP2 PUSH2 0xE94 JUMP JUMPDEST DUP5 ADD SWAP2 POP POP SWAP3 SWAP2 POP POP JUMP JUMPDEST PUSH1 0x0 PUSH2 0xB46 PUSH1 0x21 DUP4 PUSH2 0xC8F JUMP JUMPDEST SWAP2 POP PUSH2 0xB51 DUP3 PUSH2 0xEA5 JUMP JUMPDEST PUSH1 0x40 DUP3 ADD SWAP1 POP SWAP2 SWAP1 POP JUMP JUMPDEST PUSH1 0x0 PUSH2 0xB69 PUSH1 0x18 DUP4 PUSH2 0xC8F JUMP JUMPDEST SWAP2 POP PUSH2 0xB74 DUP3 PUSH2 0xEF4 JUMP JUMPDEST PUSH1 0x20 DUP3 ADD SWAP1 POP SWAP2 SWAP1 POP JUMP JUMPDEST PUSH1 0x0 PUSH2 0xB8C PUSH1 0x25 DUP4 PUSH2 0xC8F JUMP JUMPDEST SWAP2 POP PUSH2 0xB97 DUP3 PUSH2 0xF1D JUMP JUMPDEST PUSH1 0x40 DUP3 ADD SWAP1 POP SWAP2 SWAP1 POP JUMP JUMPDEST PUSH2 0xBAB DUP2 PUSH2 0xD81 JUMP JUMPDEST DUP3 MSTORE POP POP JUMP JUMPDEST PUSH1 0x0 PUSH1 0x20 DUP3 ADD SWAP1 POP PUSH2 0xBC6 PUSH1 0x0 DUP4 ADD DUP5 PUSH2 0xAE2 JUMP JUMPDEST SWAP3 SWAP2 POP POP JUMP JUMPDEST PUSH1 0x0 PUSH1 0x20 DUP3 ADD SWAP1 POP PUSH2 0xBE1 PUSH1 0x0 DUP4 ADD DUP5 PUSH2 0xAF1 JUMP JUMPDEST SWAP3 SWAP2 POP POP JUMP JUMPDEST PUSH1 0x0 PUSH1 0x20 DUP3 ADD SWAP1 POP DUP2 DUP2 SUB PUSH1 0x0 DUP4 ADD MSTORE PUSH2 0xC01 DUP2 DUP5 PUSH2 0xB00 JUMP JUMPDEST SWAP1 POP SWAP3 SWAP2 POP POP JUMP JUMPDEST PUSH1 0x0 PUSH1 0x20 DUP3 ADD SWAP1 POP DUP2 DUP2 SUB PUSH1 0x0 DUP4 ADD MSTORE PUSH2 0xC22 DUP2 PUSH2 0xB39 JUMP JUMPDEST SWAP1 POP SWAP2 SWAP1 POP JUMP JUMPDEST PUSH1 0x0 PUSH1 0x20 DUP3 ADD SWAP1 POP DUP2 DUP2 SUB PUSH1 0x0 DUP4 ADD MSTORE PUSH2 0xC42 DUP2 PUSH2 0xB5C JUMP JUMPDEST SWAP1 POP SWAP2 SWAP1 POP JUMP JUMPDEST PUSH1 0x0 PUSH1 0x20 DUP3 ADD SWAP1 POP DUP2 DUP2 SUB PUSH1 0x0 DUP4 ADD MSTORE PUSH2 0xC62 DUP2 PUSH2 0xB7F JUMP JUMPDEST SWAP1 POP SWAP2 SWAP1 POP JUMP JUMPDEST PUSH1 0x0 PUSH1 0x20 DUP3 ADD SWAP1 POP PUSH2 0xC7E PUSH1 0x0 DUP4 ADD DUP5 PUSH2 0xBA2 JUMP JUMPDEST SWAP3 SWAP2 POP POP JUMP JUMPDEST PUSH1 0x0 DUP2 MLOAD SWAP1 POP SWAP2 SWAP1 POP JUMP JUMPDEST PUSH1 0x0 DUP3 DUP3 MSTORE PUSH1 0x20 DUP3 ADD SWAP1 POP SWAP3 SWAP2 POP POP JUMP JUMPDEST PUSH1 0x0 PUSH2 0xCAB DUP3 PUSH2 0xD81 JUMP JUMPDEST SWAP2 POP PUSH2 0xCB6 DUP4 PUSH2 0xD81 JUMP JUMPDEST SWAP3 POP DUP3 PUSH32 0xFFFFFFFFFFFFFFFFFFFFFFFFFFFFFFFFFFFFFFFFFFFFFFFFFFFFFFFFFFFFFFFF SUB DUP3 GT ISZERO PUSH2 0xCEB JUMPI PUSH2 0xCEA PUSH2 0xE02 JUMP JUMPDEST JUMPDEST DUP3 DUP3 ADD SWAP1 POP SWAP3 SWAP2 POP POP JUMP JUMPDEST PUSH1 0x0 PUSH2 0xD01 DUP3 PUSH2 0xD81 JUMP JUMPDEST SWAP2 POP PUSH2 0xD0C DUP4 PUSH2 0xD81 JUMP JUMPDEST SWAP3 POP DUP3 DUP3 LT ISZERO PUSH2 0xD1F JUMPI PUSH2 0xD1E PUSH2 0xE02 JUMP JUMPDEST JUMPDEST DUP3 DUP3 SUB SWAP1 POP SWAP3 SWAP2 POP POP JUMP JUMPDEST PUSH1 0x0 PUSH2 0xD35 DUP3 PUSH2 0xD61 JUMP JUMPDEST SWAP1 POP SWAP2 SWAP1 POP JUMP JUMPDEST PUSH1 0x0 PUSH2 0xD47 DUP3 PUSH2 0xD61 JUMP JUMPDEST SWAP1 POP SWAP2 SWAP1 POP JUMP JUMPDEST PUSH1 0x0 DUP2 SWAP1 POP PUSH2 0xD5C DUP3 PUSH2 0xF6C JUMP JUMPDEST SWAP2 SWAP1 POP JUMP JUMPDEST PUSH1 0x0 PUSH20 0xFFFFFFFFFFFFFFFFFFFFFFFFFFFFFFFFFFFFFFFF DUP3 AND SWAP1 POP SWAP2 SWAP1 POP JUMP JUMPDEST PUSH1 0x0 DUP2 SWAP1 POP SWAP2 SWAP1 POP JUMP JUMPDEST PUSH1 0x0 PUSH2 0xD96 DUP3 PUSH2 0xD4E JUMP JUMPDEST SWAP1 POP SWAP2 SWAP1 POP JUMP JUMPDEST PUSH1 0x0 JUMPDEST DUP4 DUP2 LT ISZERO PUSH2 0xDBB JUMPI DUP1 DUP3 ADD MLOAD DUP2 DUP5 ADD MSTORE PUSH1 0x20 DUP2 ADD SWAP1 POP PUSH2 0xDA0 JUMP JUMPDEST DUP4 DUP2 GT ISZERO PUSH2 0xDCA JUMPI PUSH1 0x0 DUP5 DUP5 ADD MSTORE JUMPDEST POP POP POP POP JUMP JUMPDEST PUSH1 0x0 PUSH1 0x2 DUP3 DIV SWAP1 POP PUSH1 0x1 DUP3 AND DUP1 PUSH2 0xDE8 JUMPI PUSH1 0x7F DUP3 AND SWAP2 POP JUMPDEST PUSH1 0x20 DUP3 LT DUP2 EQ ISZERO PUSH2 0xDFC JUMPI PUSH2 0xDFB PUSH2 0xE60 JUMP JUMPDEST JUMPDEST POP SWAP2 SWAP1 POP JUMP JUMPDEST PUSH32 0x4E487B7100000000000000000000000000000000000000000000000000000000 PUSH1 0x0 MSTORE PUSH1 0x11 PUSH1 0x4 MSTORE PUSH1 0x24 PUSH1 0x0 REVERT JUMPDEST PUSH32 0x4E487B7100000000000000000000000000000000000000000000000000000000 PUSH1 0x0 MSTORE PUSH1 0x21 PUSH1 0x4 MSTORE PUSH1 0x24 PUSH1 0x0 REVERT JUMPDEST PUSH32 0x4E487B7100000000000000000000000000000000000000000000000000000000 PUSH1 0x0 MSTORE PUSH1 0x22 PUSH1 0x4 MSTORE PUSH1 0x24 PUSH1 0x0 REVERT JUMPDEST PUSH1 0x0 DUP1 REVERT JUMPDEST PUSH1 0x0 PUSH1 0x1F NOT PUSH1 0x1F DUP4 ADD AND SWAP1 POP SWAP2 SWAP1 POP JUMP JUMPDEST PUSH32 0x426964732063616E206F6E6C7920626520706C61636564206279206F776E6572 PUSH1 0x0 DUP3 ADD MSTORE PUSH32 0x7300000000000000000000000000000000000000000000000000000000000000 PUSH1 0x20 DUP3 ADD MSTORE POP JUMP JUMPDEST PUSH32 0x41756374696F6E2074696D652068617320656C61737065640000000000000000 PUSH1 0x0 DUP3 ADD MSTORE POP JUMP JUMPDEST PUSH32 0x41756374696F6E2063616E6E6F7420626520706C617965642061742074686973 PUSH1 0x0 DUP3 ADD MSTORE PUSH32 0x2074696D65000000000000000000000000000000000000000000000000000000 PUSH1 0x20 DUP3 ADD MSTORE POP JUMP JUMPDEST PUSH1 0x4 DUP2 LT PUSH2 0xF7D JUMPI PUSH2 0xF7C PUSH2 0xE31 JUMP JUMPDEST JUMPDEST POP JUMP JUMPDEST PUSH2 0xF89 DUP2 PUSH2 0xD2A JUMP JUMPDEST DUP2 EQ PUSH2 0xF94 JUMPI PUSH1 0x0 DUP1 REVERT JUMPDEST POP JUMP INVALID LOG2 PUSH5 0x6970667358 0x22 SLT KECCAK256 0xDA PC 0x49 PC GT SWAP8 0xBC PUSH4 0xEA728439 0xE0 CODESIZE LT 0x2D 0xE2 BASEFEE 0xEB PUSH25 0x76F56639E6DD7DFB2BEC0E6664736F6C634300080700330000 "
				},
				"gasEstimates": {
					"creation": {
						"codeDepositCost": "809000",
						"executionCost": "infinite",
						"totalCost": "infinite"
					},
					"external": {
						"auctionState()": "2605",
						"bidIncrement()": "2473",
						"bidsMap(address)": "2903",
						"endBlock()": "2430",
						"finalizeAuction()": "infinite",
						"higestBindingBid()": "2429",
						"highestBidder()": "2536",
						"ipfsHash()": "infinite",
						"makeABid()": "infinite",
						"owner()": "2581",
						"startBlock()": "2452"
					},
					"internal": {
						"min(uint256,uint256)": "64"
					}
				},
				"methodIdentifiers": {
					"auctionState()": "7fb45099",
					"bidIncrement()": "b3cc167a",
					"bidsMap(address)": "8ee77512",
					"endBlock()": "083c6323",
					"finalizeAuction()": "f77282ab",
					"higestBindingBid()": "91c11f7d",
					"highestBidder()": "91f90157",
					"ipfsHash()": "c623674f",
					"makeABid()": "eb36a479",
					"owner()": "8da5cb5b",
					"startBlock()": "48cd4cb1"
				}
			},
			"storageLayout": {
				"storage": [
					{
						"astId": 5,
						"contract": "contracts/Auctionsol.sol:Lottery",
						"label": "bidsMap",
						"offset": 0,
						"slot": "0",
						"type": "t_mapping(t_address,t_uint256)"
					},
					{
						"astId": 7,
						"contract": "contracts/Auctionsol.sol:Lottery",
						"label": "owner",
						"offset": 0,
						"slot": "1",
						"type": "t_address_payable"
					},
					{
						"astId": 9,
						"contract": "contracts/Auctionsol.sol:Lottery",
						"label": "highestBidder",
						"offset": 0,
						"slot": "2",
						"type": "t_address_payable"
					},
					{
						"astId": 11,
						"contract": "contracts/Auctionsol.sol:Lottery",
						"label": "higestBindingBid",
						"offset": 0,
						"slot": "3",
						"type": "t_uint256"
					},
					{
						"astId": 13,
						"contract": "contracts/Auctionsol.sol:Lottery",
						"label": "bidIncrement",
						"offset": 0,
						"slot": "4",
						"type": "t_uint256"
					},
					{
						"astId": 15,
						"contract": "contracts/Auctionsol.sol:Lottery",
						"label": "startBlock",
						"offset": 0,
						"slot": "5",
						"type": "t_uint256"
					},
					{
						"astId": 17,
						"contract": "contracts/Auctionsol.sol:Lottery",
						"label": "endBlock",
						"offset": 0,
						"slot": "6",
						"type": "t_uint256"
					},
					{
						"astId": 25,
						"contract": "contracts/Auctionsol.sol:Lottery",
						"label": "auctionState",
						"offset": 0,
						"slot": "7",
						"type": "t_enum(State)22"
					},
					{
						"astId": 27,
						"contract": "contracts/Auctionsol.sol:Lottery",
						"label": "ipfsHash",
						"offset": 0,
						"slot": "8",
						"type": "t_string_storage"
					}
				],
				"types": {
					"t_address": {
						"encoding": "inplace",
						"label": "address",
						"numberOfBytes": "20"
					},
					"t_address_payable": {
						"encoding": "inplace",
						"label": "address payable",
						"numberOfBytes": "20"
					},
					"t_enum(State)22": {
						"encoding": "inplace",
						"label": "enum Lottery.State",
						"numberOfBytes": "1"
					},
					"t_mapping(t_address,t_uint256)": {
						"encoding": "mapping",
						"key": "t_address",
						"label": "mapping(address => uint256)",
						"numberOfBytes": "32",
						"value": "t_uint256"
					},
					"t_string_storage": {
						"encoding": "bytes",
						"label": "string",
						"numberOfBytes": "32"
					},
					"t_uint256": {
						"encoding": "inplace",
						"label": "uint256",
						"numberOfBytes": "32"
					}
				}
			},
			"userdoc": {
				"kind": "user",
				"methods": {},
				"version": 1
			}
		}
	}
}