{
	"contracts/TodoList.sol": {
		"TodoList": {
			"abi": [
				{
					"inputs": [
						{
							"internalType": "uint256",
							"name": "",
							"type": "uint256"
						}
					],
					"name": "Task_Details",
					"outputs": [
						{
							"internalType": "uint256",
							"name": "id",
							"type": "uint256"
						},
						{
							"internalType": "string",
							"name": "details",
							"type": "string"
						},
						{
							"internalType": "bool",
							"name": "status",
							"type": "bool"
						}
					],
					"stateMutability": "view",
					"type": "function"
				},
				{
					"inputs": [],
					"name": "TodoListNumber",
					"outputs": [
						{
							"internalType": "uint256",
							"name": "",
							"type": "uint256"
						}
					],
					"stateMutability": "view",
					"type": "function"
				},
				{
					"inputs": [],
					"name": "controlNum",
					"outputs": [
						{
							"internalType": "uint256",
							"name": "",
							"type": "uint256"
						}
					],
					"stateMutability": "view",
					"type": "function"
				},
				{
					"inputs": [
						{
							"internalType": "string",
							"name": "_details",
							"type": "string"
						}
					],
					"name": "createToDo",
					"outputs": [],
					"stateMutability": "nonpayable",
					"type": "function"
				},
				{
					"inputs": [],
					"name": "returnAllList",
					"outputs": [
						{
							"internalType": "uint256[]",
							"name": "",
							"type": "uint256[]"
						},
						{
							"internalType": "string[]",
							"name": "",
							"type": "string[]"
						},
						{
							"internalType": "bool[]",
							"name": "",
							"type": "bool[]"
						}
					],
					"stateMutability": "view",
					"type": "function"
				}
			],
			"devdoc": {
				"kind": "dev",
				"methods": {},
				"version": 1
			},
			"evm": {
				"assembly": "    /* \"contracts/TodoList.sol\":73:1272  contract TodoList{\r... */\n  mstore(0x40, 0x80)\n    /* \"contracts/TodoList.sol\":157:158  1 */\n  0x01\n    /* \"contracts/TodoList.sol\":132:158  uint public controlNum = 1 */\n  dup1\n  sstore\n    /* \"contracts/TodoList.sol\":73:1272  contract TodoList{\r... */\n  callvalue\n  dup1\n  iszero\n  tag_1\n  jumpi\n  0x00\n  dup1\n  revert\ntag_1:\n  pop\n  dataSize(sub_0)\n  dup1\n  dataOffset(sub_0)\n  0x00\n  codecopy\n  0x00\n  return\nstop\n\nsub_0: assembly {\n        /* \"contracts/TodoList.sol\":73:1272  contract TodoList{\r... */\n      mstore(0x40, 0x80)\n      callvalue\n      dup1\n      iszero\n      tag_1\n      jumpi\n      0x00\n      dup1\n      revert\n    tag_1:\n      pop\n      jumpi(tag_2, lt(calldatasize, 0x04))\n      shr(0xe0, calldataload(0x00))\n      dup1\n      0x3b359d53\n      eq\n      tag_3\n      jumpi\n      dup1\n      0x60cf802f\n      eq\n      tag_4\n      jumpi\n      dup1\n      0x9e96b1d2\n      eq\n      tag_5\n      jumpi\n      dup1\n      0xa1dbe017\n      eq\n      tag_6\n      jumpi\n      dup1\n      0xa25b79ca\n      eq\n      tag_7\n      jumpi\n    tag_2:\n      0x00\n      dup1\n      revert\n        /* \"contracts/TodoList.sol\":690:1267  function returnAllList() public view returns(uint[] memory, string[] memory, bool[] memory){\r... */\n    tag_3:\n      tag_8\n      tag_9\n      jump\t// in\n    tag_8:\n      mload(0x40)\n      tag_10\n      swap4\n      swap3\n      swap2\n      swap1\n      tag_11\n      jump\t// in\n    tag_10:\n      mload(0x40)\n      dup1\n      swap2\n      sub\n      swap1\n      return\n        /* \"contracts/TodoList.sol\":324:682  function createToDo(string memory _details) public {\r... */\n    tag_4:\n      tag_12\n      0x04\n      dup1\n      calldatasize\n      sub\n      dup2\n      add\n      swap1\n      tag_13\n      swap2\n      swap1\n      tag_14\n      jump\t// in\n    tag_13:\n      tag_15\n      jump\t// in\n    tag_12:\n      stop\n        /* \"contracts/TodoList.sol\":132:158  uint public controlNum = 1 */\n    tag_5:\n      tag_16\n      tag_17\n      jump\t// in\n    tag_16:\n      mload(0x40)\n      tag_18\n      swap2\n      swap1\n      tag_19\n      jump\t// in\n    tag_18:\n      mload(0x40)\n      dup1\n      swap2\n      sub\n      swap1\n      return\n        /* \"contracts/TodoList.sol\":267:315  mapping(uint => TaskDetails) public Task_Details */\n    tag_6:\n      tag_20\n      0x04\n      dup1\n      calldatasize\n      sub\n      dup2\n      add\n      swap1\n      tag_21\n      swap2\n      swap1\n      tag_22\n      jump\t// in\n    tag_21:\n      tag_23\n      jump\t// in\n    tag_20:\n      mload(0x40)\n      tag_24\n      swap4\n      swap3\n      swap2\n      swap1\n      tag_25\n      jump\t// in\n    tag_24:\n      mload(0x40)\n      dup1\n      swap2\n      sub\n      swap1\n      return\n        /* \"contracts/TodoList.sol\":99:125  uint public TodoListNumber */\n    tag_7:\n      tag_26\n      tag_27\n      jump\t// in\n    tag_26:\n      mload(0x40)\n      tag_28\n      swap2\n      swap1\n      tag_19\n      jump\t// in\n    tag_28:\n      mload(0x40)\n      dup1\n      swap2\n      sub\n      swap1\n      return\n        /* \"contracts/TodoList.sol\":690:1267  function returnAllList() public view returns(uint[] memory, string[] memory, bool[] memory){\r... */\n    tag_9:\n        /* \"contracts/TodoList.sol\":735:748  uint[] memory */\n      0x60\n        /* \"contracts/TodoList.sol\":750:765  string[] memory */\n      dup1\n        /* \"contracts/TodoList.sol\":767:780  bool[] memory */\n      0x60\n        /* \"contracts/TodoList.sol\":794:815  uint[] memory idArray */\n      0x00\n        /* \"contracts/TodoList.sol\":829:843  TodoListNumber */\n      dup1\n      sload\n        /* \"contracts/TodoList.sol\":818:844  new uint[](TodoListNumber) */\n      0xffffffffffffffff\n      dup2\n      gt\n      iszero\n      tag_30\n      jumpi\n      tag_31\n      tag_32\n      jump\t// in\n    tag_31:\n    tag_30:\n      mload(0x40)\n      swap1\n      dup1\n      dup3\n      mstore\n      dup1\n      0x20\n      mul\n      0x20\n      add\n      dup3\n      add\n      0x40\n      mstore\n      dup1\n      iszero\n      tag_33\n      jumpi\n      dup2\n      0x20\n      add\n      0x20\n      dup3\n      mul\n      dup1\n      calldatasize\n      dup4\n      calldatacopy\n      dup1\n      dup3\n      add\n      swap2\n      pop\n      pop\n      swap1\n      pop\n    tag_33:\n      pop\n        /* \"contracts/TodoList.sol\":794:844  uint[] memory idArray = new uint[](TodoListNumber) */\n      swap1\n      pop\n        /* \"contracts/TodoList.sol\":855:883  string[] memory detailsArray */\n      0x00\n        /* \"contracts/TodoList.sol\":899:913  TodoListNumber */\n      dup1\n      sload\n        /* \"contracts/TodoList.sol\":886:914  new string[](TodoListNumber) */\n      0xffffffffffffffff\n      dup2\n      gt\n      iszero\n      tag_34\n      jumpi\n      tag_35\n      tag_32\n      jump\t// in\n    tag_35:\n    tag_34:\n      mload(0x40)\n      swap1\n      dup1\n      dup3\n      mstore\n      dup1\n      0x20\n      mul\n      0x20\n      add\n      dup3\n      add\n      0x40\n      mstore\n      dup1\n      iszero\n      tag_36\n      jumpi\n      dup2\n      0x20\n      add\n    tag_37:\n      0x60\n      dup2\n      mstore\n      0x20\n      add\n      swap1\n      0x01\n      swap1\n      sub\n      swap1\n      dup2\n      tag_37\n      jumpi\n      swap1\n      pop\n    tag_36:\n      pop\n        /* \"contracts/TodoList.sol\":855:914  string[] memory detailsArray = new string[](TodoListNumber) */\n      swap1\n      pop\n        /* \"contracts/TodoList.sol\":925:950  bool[] memory statusArray */\n      0x00\n        /* \"contracts/TodoList.sol\":964:978  TodoListNumber */\n      dup1\n      sload\n        /* \"contracts/TodoList.sol\":953:979  new bool[](TodoListNumber) */\n      0xffffffffffffffff\n      dup2\n      gt\n      iszero\n      tag_38\n      jumpi\n      tag_39\n      tag_32\n      jump\t// in\n    tag_39:\n    tag_38:\n      mload(0x40)\n      swap1\n      dup1\n      dup3\n      mstore\n      dup1\n      0x20\n      mul\n      0x20\n      add\n      dup3\n      add\n      0x40\n      mstore\n      dup1\n      iszero\n      tag_40\n      jumpi\n      dup2\n      0x20\n      add\n      0x20\n      dup3\n      mul\n      dup1\n      calldatasize\n      dup4\n      calldatacopy\n      dup1\n      dup3\n      add\n      swap2\n      pop\n      pop\n      swap1\n      pop\n    tag_40:\n      pop\n        /* \"contracts/TodoList.sol\":925:979  bool[] memory statusArray = new bool[](TodoListNumber) */\n      swap1\n      pop\n        /* \"contracts/TodoList.sol\":997:1003  uint i */\n      0x00\n        /* \"contracts/TodoList.sol\":1006:1007  1 */\n      0x01\n        /* \"contracts/TodoList.sol\":997:1007  uint i = 1 */\n      swap1\n      pop\n        /* \"contracts/TodoList.sol\":992:1202  for (uint i = 1; i < TodoListNumber; i++) {\r... */\n    tag_41:\n        /* \"contracts/TodoList.sol\":1013:1027  TodoListNumber */\n      sload(0x00)\n        /* \"contracts/TodoList.sol\":1009:1010  i */\n      dup2\n        /* \"contracts/TodoList.sol\":1009:1027  i < TodoListNumber */\n      lt\n        /* \"contracts/TodoList.sol\":992:1202  for (uint i = 1; i < TodoListNumber; i++) {\r... */\n      iszero\n      tag_42\n      jumpi\n        /* \"contracts/TodoList.sol\":1062:1074  Task_Details */\n      0x02\n        /* \"contracts/TodoList.sol\":1062:1077  Task_Details[i] */\n      0x00\n        /* \"contracts/TodoList.sol\":1075:1076  i */\n      dup3\n        /* \"contracts/TodoList.sol\":1062:1077  Task_Details[i] */\n      dup2\n      mstore\n      0x20\n      add\n      swap1\n      dup2\n      mstore\n      0x20\n      add\n      0x00\n      keccak256\n        /* \"contracts/TodoList.sol\":1062:1080  Task_Details[i].id */\n      0x00\n      add\n      sload\n        /* \"contracts/TodoList.sol\":1049:1056  idArray */\n      dup5\n        /* \"contracts/TodoList.sol\":1057:1058  i */\n      dup3\n        /* \"contracts/TodoList.sol\":1049:1059  idArray[i] */\n      dup2\n      mload\n      dup2\n      lt\n      tag_44\n      jumpi\n      tag_45\n      tag_46\n      jump\t// in\n    tag_45:\n    tag_44:\n      0x20\n      mul\n      0x20\n      add\n      add\n        /* \"contracts/TodoList.sol\":1049:1080  idArray[i] = Task_Details[i].id */\n      dup2\n      dup2\n      mstore\n      pop\n      pop\n        /* \"contracts/TodoList.sol\":1113:1125  Task_Details */\n      0x02\n        /* \"contracts/TodoList.sol\":1113:1128  Task_Details[i] */\n      0x00\n        /* \"contracts/TodoList.sol\":1126:1127  i */\n      dup3\n        /* \"contracts/TodoList.sol\":1113:1128  Task_Details[i] */\n      dup2\n      mstore\n      0x20\n      add\n      swap1\n      dup2\n      mstore\n      0x20\n      add\n      0x00\n      keccak256\n        /* \"contracts/TodoList.sol\":1113:1136  Task_Details[i].details */\n      0x01\n      add\n        /* \"contracts/TodoList.sol\":1095:1136  detailsArray[i] = Task_Details[i].details */\n      dup1\n      sload\n      tag_47\n      swap1\n      tag_48\n      jump\t// in\n    tag_47:\n      dup1\n      0x1f\n      add\n      0x20\n      dup1\n      swap2\n      div\n      mul\n      0x20\n      add\n      mload(0x40)\n      swap1\n      dup2\n      add\n      0x40\n      mstore\n      dup1\n      swap3\n      swap2\n      swap1\n      dup2\n      dup2\n      mstore\n      0x20\n      add\n      dup3\n      dup1\n      sload\n      tag_49\n      swap1\n      tag_48\n      jump\t// in\n    tag_49:\n      dup1\n      iszero\n      tag_50\n      jumpi\n      dup1\n      0x1f\n      lt\n      tag_51\n      jumpi\n      0x0100\n      dup1\n      dup4\n      sload\n      div\n      mul\n      dup4\n      mstore\n      swap2\n      0x20\n      add\n      swap2\n      jump(tag_50)\n    tag_51:\n      dup3\n      add\n      swap2\n      swap1\n      0x00\n      mstore\n      keccak256(0x00, 0x20)\n      swap1\n    tag_52:\n      dup2\n      sload\n      dup2\n      mstore\n      swap1\n      0x01\n      add\n      swap1\n      0x20\n      add\n      dup1\n      dup4\n      gt\n      tag_52\n      jumpi\n      dup3\n      swap1\n      sub\n      0x1f\n      and\n      dup3\n      add\n      swap2\n    tag_50:\n      pop\n      pop\n      pop\n      pop\n      pop\n        /* \"contracts/TodoList.sol\":1095:1107  detailsArray */\n      dup4\n        /* \"contracts/TodoList.sol\":1108:1109  i */\n      dup3\n        /* \"contracts/TodoList.sol\":1095:1110  detailsArray[i] */\n      dup2\n      mload\n      dup2\n      lt\n      tag_53\n      jumpi\n      tag_54\n      tag_46\n      jump\t// in\n    tag_54:\n    tag_53:\n      0x20\n      mul\n      0x20\n      add\n      add\n        /* \"contracts/TodoList.sol\":1095:1136  detailsArray[i] = Task_Details[i].details */\n      dup2\n      swap1\n      mstore\n      pop\n        /* \"contracts/TodoList.sol\":1168:1180  Task_Details */\n      0x02\n        /* \"contracts/TodoList.sol\":1168:1183  Task_Details[i] */\n      0x00\n        /* \"contracts/TodoList.sol\":1181:1182  i */\n      dup3\n        /* \"contracts/TodoList.sol\":1168:1183  Task_Details[i] */\n      dup2\n      mstore\n      0x20\n      add\n      swap1\n      dup2\n      mstore\n      0x20\n      add\n      0x00\n      keccak256\n        /* \"contracts/TodoList.sol\":1168:1190  Task_Details[i].status */\n      0x02\n      add\n      0x00\n      swap1\n      sload\n      swap1\n      0x0100\n      exp\n      swap1\n      div\n      0xff\n      and\n        /* \"contracts/TodoList.sol\":1151:1162  statusArray */\n      dup3\n        /* \"contracts/TodoList.sol\":1163:1164  i */\n      dup3\n        /* \"contracts/TodoList.sol\":1151:1165  statusArray[i] */\n      dup2\n      mload\n      dup2\n      lt\n      tag_55\n      jumpi\n      tag_56\n      tag_46\n      jump\t// in\n    tag_56:\n    tag_55:\n      0x20\n      mul\n      0x20\n      add\n      add\n        /* \"contracts/TodoList.sol\":1151:1190  statusArray[i] = Task_Details[i].status */\n      swap1\n      iszero\n      iszero\n      swap1\n      dup2\n      iszero\n      iszero\n      dup2\n      mstore\n      pop\n      pop\n        /* \"contracts/TodoList.sol\":1029:1032  i++ */\n      dup1\n      dup1\n      tag_57\n      swap1\n      tag_58\n      jump\t// in\n    tag_57:\n      swap2\n      pop\n      pop\n        /* \"contracts/TodoList.sol\":992:1202  for (uint i = 1; i < TodoListNumber; i++) {\r... */\n      jump(tag_41)\n    tag_42:\n      pop\n        /* \"contracts/TodoList.sol\":1222:1229  idArray */\n      dup3\n        /* \"contracts/TodoList.sol\":1231:1243  detailsArray */\n      dup3\n        /* \"contracts/TodoList.sol\":1245:1256  statusArray */\n      dup3\n        /* \"contracts/TodoList.sol\":1214:1257  return (idArray, detailsArray, statusArray) */\n      swap6\n      pop\n      swap6\n      pop\n      swap6\n      pop\n      pop\n      pop\n      pop\n        /* \"contracts/TodoList.sol\":690:1267  function returnAllList() public view returns(uint[] memory, string[] memory, bool[] memory){\r... */\n      swap1\n      swap2\n      swap3\n      jump\t// out\n        /* \"contracts/TodoList.sol\":324:682  function createToDo(string memory _details) public {\r... */\n    tag_15:\n        /* \"contracts/TodoList.sol\":447:481  TaskDetails storage newTaskDetails */\n      0x00\n        /* \"contracts/TodoList.sol\":484:496  Task_Details */\n      0x02\n        /* \"contracts/TodoList.sol\":484:512  Task_Details[TodoListNumber] */\n      0x00\n        /* \"contracts/TodoList.sol\":497:511  TodoListNumber */\n      dup1\n      sload\n        /* \"contracts/TodoList.sol\":484:512  Task_Details[TodoListNumber] */\n      dup2\n      mstore\n      0x20\n      add\n      swap1\n      dup2\n      mstore\n      0x20\n      add\n      0x00\n      keccak256\n        /* \"contracts/TodoList.sol\":447:512  TaskDetails storage newTaskDetails = Task_Details[TodoListNumber] */\n      swap1\n      pop\n        /* \"contracts/TodoList.sol\":525:539  TodoListNumber */\n      0x00\n      dup1\n        /* \"contracts/TodoList.sol\":525:541  TodoListNumber++ */\n      dup2\n      sload\n      dup1\n      swap3\n      swap2\n      swap1\n      tag_60\n      swap1\n      tag_58\n      jump\t// in\n    tag_60:\n      swap2\n      swap1\n      pop\n      sstore\n      pop\n        /* \"contracts/TodoList.sol\":574:588  TodoListNumber */\n      sload(0x00)\n        /* \"contracts/TodoList.sol\":554:568  newTaskDetails */\n      dup2\n        /* \"contracts/TodoList.sol\":554:571  newTaskDetails.id */\n      0x00\n      add\n        /* \"contracts/TodoList.sol\":554:588  newTaskDetails.id = TodoListNumber */\n      dup2\n      swap1\n      sstore\n      pop\n        /* \"contracts/TodoList.sol\":624:632  _details */\n      dup2\n        /* \"contracts/TodoList.sol\":599:613  newTaskDetails */\n      dup2\n        /* \"contracts/TodoList.sol\":599:621  newTaskDetails.details */\n      0x01\n      add\n        /* \"contracts/TodoList.sol\":599:632  newTaskDetails.details = _details */\n      swap1\n      dup1\n      mload\n      swap1\n      0x20\n      add\n      swap1\n      tag_61\n      swap3\n      swap2\n      swap1\n      tag_62\n      jump\t// in\n    tag_61:\n      pop\n        /* \"contracts/TodoList.sol\":667:672  false */\n      0x00\n        /* \"contracts/TodoList.sol\":643:657  newTaskDetails */\n      dup2\n        /* \"contracts/TodoList.sol\":643:664  newTaskDetails.status */\n      0x02\n      add\n      0x00\n        /* \"contracts/TodoList.sol\":643:672  newTaskDetails.status = false */\n      0x0100\n      exp\n      dup2\n      sload\n      dup2\n      0xff\n      mul\n      not\n      and\n      swap1\n      dup4\n      iszero\n      iszero\n      mul\n      or\n      swap1\n      sstore\n      pop\n        /* \"contracts/TodoList.sol\":375:682  {\r... */\n      pop\n        /* \"contracts/TodoList.sol\":324:682  function createToDo(string memory _details) public {\r... */\n      pop\n      jump\t// out\n        /* \"contracts/TodoList.sol\":132:158  uint public controlNum = 1 */\n    tag_17:\n      sload(0x01)\n      dup2\n      jump\t// out\n        /* \"contracts/TodoList.sol\":267:315  mapping(uint => TaskDetails) public Task_Details */\n    tag_23:\n      mstore(0x20, 0x02)\n      dup1\n      0x00\n      mstore\n      keccak256(0x00, 0x40)\n      0x00\n      swap2\n      pop\n      swap1\n      pop\n      dup1\n      0x00\n      add\n      sload\n      swap1\n      dup1\n      0x01\n      add\n      dup1\n      sload\n      tag_63\n      swap1\n      tag_48\n      jump\t// in\n    tag_63:\n      dup1\n      0x1f\n      add\n      0x20\n      dup1\n      swap2\n      div\n      mul\n      0x20\n      add\n      mload(0x40)\n      swap1\n      dup2\n      add\n      0x40\n      mstore\n      dup1\n      swap3\n      swap2\n      swap1\n      dup2\n      dup2\n      mstore\n      0x20\n      add\n      dup3\n      dup1\n      sload\n      tag_64\n      swap1\n      tag_48\n      jump\t// in\n    tag_64:\n      dup1\n      iszero\n      tag_65\n      jumpi\n      dup1\n      0x1f\n      lt\n      tag_66\n      jumpi\n      0x0100\n      dup1\n      dup4\n      sload\n      div\n      mul\n      dup4\n      mstore\n      swap2\n      0x20\n      add\n      swap2\n      jump(tag_65)\n    tag_66:\n      dup3\n      add\n      swap2\n      swap1\n      0x00\n      mstore\n      keccak256(0x00, 0x20)\n      swap1\n    tag_67:\n      dup2\n      sload\n      dup2\n      mstore\n      swap1\n      0x01\n      add\n      swap1\n      0x20\n      add\n      dup1\n      dup4\n      gt\n      tag_67\n      jumpi\n      dup3\n      swap1\n      sub\n      0x1f\n      and\n      dup3\n      add\n      swap2\n    tag_65:\n      pop\n      pop\n      pop\n      pop\n      pop\n      swap1\n      dup1\n      0x02\n      add\n      0x00\n      swap1\n      sload\n      swap1\n      0x0100\n      exp\n      swap1\n      div\n      0xff\n      and\n      swap1\n      pop\n      dup4\n      jump\t// out\n        /* \"contracts/TodoList.sol\":99:125  uint public TodoListNumber */\n    tag_27:\n      sload(0x00)\n      dup2\n      jump\t// out\n    tag_62:\n      dup3\n      dup1\n      sload\n      tag_68\n      swap1\n      tag_48\n      jump\t// in\n    tag_68:\n      swap1\n      0x00\n      mstore\n      keccak256(0x00, 0x20)\n      swap1\n      0x1f\n      add\n      0x20\n      swap1\n      div\n      dup2\n      add\n      swap3\n      dup3\n      tag_70\n      jumpi\n      0x00\n      dup6\n      sstore\n      jump(tag_69)\n    tag_70:\n      dup3\n      0x1f\n      lt\n      tag_71\n      jumpi\n      dup1\n      mload\n      not(0xff)\n      and\n      dup4\n      dup1\n      add\n      or\n      dup6\n      sstore\n      jump(tag_69)\n    tag_71:\n      dup3\n      dup1\n      add\n      0x01\n      add\n      dup6\n      sstore\n      dup3\n      iszero\n      tag_69\n      jumpi\n      swap2\n      dup3\n      add\n    tag_72:\n      dup3\n      dup2\n      gt\n      iszero\n      tag_73\n      jumpi\n      dup3\n      mload\n      dup3\n      sstore\n      swap2\n      0x20\n      add\n      swap2\n      swap1\n      0x01\n      add\n      swap1\n      jump(tag_72)\n    tag_73:\n    tag_69:\n      pop\n      swap1\n      pop\n      tag_74\n      swap2\n      swap1\n      tag_75\n      jump\t// in\n    tag_74:\n      pop\n      swap1\n      jump\t// out\n    tag_75:\n    tag_76:\n      dup1\n      dup3\n      gt\n      iszero\n      tag_77\n      jumpi\n      0x00\n      dup2\n      0x00\n      swap1\n      sstore\n      pop\n      0x01\n      add\n      jump(tag_76)\n    tag_77:\n      pop\n      swap1\n      jump\t// out\n        /* \"#utility.yul\":7:419   */\n    tag_79:\n        /* \"#utility.yul\":85:90   */\n      0x00\n        /* \"#utility.yul\":110:176   */\n      tag_81\n        /* \"#utility.yul\":126:175   */\n      tag_82\n        /* \"#utility.yul\":168:174   */\n      dup5\n        /* \"#utility.yul\":126:175   */\n      tag_83\n      jump\t// in\n    tag_82:\n        /* \"#utility.yul\":110:176   */\n      tag_84\n      jump\t// in\n    tag_81:\n        /* \"#utility.yul\":101:176   */\n      swap1\n      pop\n        /* \"#utility.yul\":199:205   */\n      dup3\n        /* \"#utility.yul\":192:197   */\n      dup2\n        /* \"#utility.yul\":185:206   */\n      mstore\n        /* \"#utility.yul\":237:241   */\n      0x20\n        /* \"#utility.yul\":230:235   */\n      dup2\n        /* \"#utility.yul\":226:242   */\n      add\n        /* \"#utility.yul\":275:278   */\n      dup5\n        /* \"#utility.yul\":266:272   */\n      dup5\n        /* \"#utility.yul\":261:264   */\n      dup5\n        /* \"#utility.yul\":257:273   */\n      add\n        /* \"#utility.yul\":254:279   */\n      gt\n        /* \"#utility.yul\":251:363   */\n      iszero\n      tag_85\n      jumpi\n        /* \"#utility.yul\":282:361   */\n      tag_86\n      tag_87\n      jump\t// in\n    tag_86:\n        /* \"#utility.yul\":251:363   */\n    tag_85:\n        /* \"#utility.yul\":372:413   */\n      tag_88\n        /* \"#utility.yul\":406:412   */\n      dup5\n        /* \"#utility.yul\":401:404   */\n      dup3\n        /* \"#utility.yul\":396:399   */\n      dup6\n        /* \"#utility.yul\":372:413   */\n      tag_89\n      jump\t// in\n    tag_88:\n        /* \"#utility.yul\":91:419   */\n      pop\n        /* \"#utility.yul\":7:419   */\n      swap4\n      swap3\n      pop\n      pop\n      pop\n      jump\t// out\n        /* \"#utility.yul\":439:779   */\n    tag_90:\n        /* \"#utility.yul\":495:500   */\n      0x00\n        /* \"#utility.yul\":544:547   */\n      dup3\n        /* \"#utility.yul\":537:541   */\n      0x1f\n        /* \"#utility.yul\":529:535   */\n      dup4\n        /* \"#utility.yul\":525:542   */\n      add\n        /* \"#utility.yul\":521:548   */\n      slt\n        /* \"#utility.yul\":511:633   */\n      tag_92\n      jumpi\n        /* \"#utility.yul\":552:631   */\n      tag_93\n      tag_94\n      jump\t// in\n    tag_93:\n        /* \"#utility.yul\":511:633   */\n    tag_92:\n        /* \"#utility.yul\":669:675   */\n      dup2\n        /* \"#utility.yul\":656:676   */\n      calldataload\n        /* \"#utility.yul\":694:773   */\n      tag_95\n        /* \"#utility.yul\":769:772   */\n      dup5\n        /* \"#utility.yul\":761:767   */\n      dup3\n        /* \"#utility.yul\":754:758   */\n      0x20\n        /* \"#utility.yul\":746:752   */\n      dup7\n        /* \"#utility.yul\":742:759   */\n      add\n        /* \"#utility.yul\":694:773   */\n      tag_79\n      jump\t// in\n    tag_95:\n        /* \"#utility.yul\":685:773   */\n      swap2\n      pop\n        /* \"#utility.yul\":501:779   */\n      pop\n        /* \"#utility.yul\":439:779   */\n      swap3\n      swap2\n      pop\n      pop\n      jump\t// out\n        /* \"#utility.yul\":785:924   */\n    tag_96:\n        /* \"#utility.yul\":831:836   */\n      0x00\n        /* \"#utility.yul\":869:875   */\n      dup2\n        /* \"#utility.yul\":856:876   */\n      calldataload\n        /* \"#utility.yul\":847:876   */\n      swap1\n      pop\n        /* \"#utility.yul\":885:918   */\n      tag_98\n        /* \"#utility.yul\":912:917   */\n      dup2\n        /* \"#utility.yul\":885:918   */\n      tag_99\n      jump\t// in\n    tag_98:\n        /* \"#utility.yul\":785:924   */\n      swap3\n      swap2\n      pop\n      pop\n      jump\t// out\n        /* \"#utility.yul\":930:1439   */\n    tag_14:\n        /* \"#utility.yul\":999:1005   */\n      0x00\n        /* \"#utility.yul\":1048:1050   */\n      0x20\n        /* \"#utility.yul\":1036:1045   */\n      dup3\n        /* \"#utility.yul\":1027:1034   */\n      dup5\n        /* \"#utility.yul\":1023:1046   */\n      sub\n        /* \"#utility.yul\":1019:1051   */\n      slt\n        /* \"#utility.yul\":1016:1135   */\n      iszero\n      tag_101\n      jumpi\n        /* \"#utility.yul\":1054:1133   */\n      tag_102\n      tag_103\n      jump\t// in\n    tag_102:\n        /* \"#utility.yul\":1016:1135   */\n    tag_101:\n        /* \"#utility.yul\":1202:1203   */\n      0x00\n        /* \"#utility.yul\":1191:1200   */\n      dup3\n        /* \"#utility.yul\":1187:1204   */\n      add\n        /* \"#utility.yul\":1174:1205   */\n      calldataload\n        /* \"#utility.yul\":1232:1250   */\n      0xffffffffffffffff\n        /* \"#utility.yul\":1224:1230   */\n      dup2\n        /* \"#utility.yul\":1221:1251   */\n      gt\n        /* \"#utility.yul\":1218:1335   */\n      iszero\n      tag_104\n      jumpi\n        /* \"#utility.yul\":1254:1333   */\n      tag_105\n      tag_106\n      jump\t// in\n    tag_105:\n        /* \"#utility.yul\":1218:1335   */\n    tag_104:\n        /* \"#utility.yul\":1359:1422   */\n      tag_107\n        /* \"#utility.yul\":1414:1421   */\n      dup5\n        /* \"#utility.yul\":1405:1411   */\n      dup3\n        /* \"#utility.yul\":1394:1403   */\n      dup6\n        /* \"#utility.yul\":1390:1412   */\n      add\n        /* \"#utility.yul\":1359:1422   */\n      tag_90\n      jump\t// in\n    tag_107:\n        /* \"#utility.yul\":1349:1422   */\n      swap2\n      pop\n        /* \"#utility.yul\":1145:1432   */\n      pop\n        /* \"#utility.yul\":930:1439   */\n      swap3\n      swap2\n      pop\n      pop\n      jump\t// out\n        /* \"#utility.yul\":1445:1774   */\n    tag_22:\n        /* \"#utility.yul\":1504:1510   */\n      0x00\n        /* \"#utility.yul\":1553:1555   */\n      0x20\n        /* \"#utility.yul\":1541:1550   */\n      dup3\n        /* \"#utility.yul\":1532:1539   */\n      dup5\n        /* \"#utility.yul\":1528:1551   */\n      sub\n        /* \"#utility.yul\":1524:1556   */\n      slt\n        /* \"#utility.yul\":1521:1640   */\n      iszero\n      tag_109\n      jumpi\n        /* \"#utility.yul\":1559:1638   */\n      tag_110\n      tag_103\n      jump\t// in\n    tag_110:\n        /* \"#utility.yul\":1521:1640   */\n    tag_109:\n        /* \"#utility.yul\":1679:1680   */\n      0x00\n        /* \"#utility.yul\":1704:1757   */\n      tag_111\n        /* \"#utility.yul\":1749:1756   */\n      dup5\n        /* \"#utility.yul\":1740:1746   */\n      dup3\n        /* \"#utility.yul\":1729:1738   */\n      dup6\n        /* \"#utility.yul\":1725:1747   */\n      add\n        /* \"#utility.yul\":1704:1757   */\n      tag_96\n      jump\t// in\n    tag_111:\n        /* \"#utility.yul\":1694:1757   */\n      swap2\n      pop\n        /* \"#utility.yul\":1650:1767   */\n      pop\n        /* \"#utility.yul\":1445:1774   */\n      swap3\n      swap2\n      pop\n      pop\n      jump\t// out\n        /* \"#utility.yul\":1780:1947   */\n    tag_112:\n        /* \"#utility.yul\":1843:1853   */\n      0x00\n        /* \"#utility.yul\":1864:1904   */\n      tag_114\n        /* \"#utility.yul\":1900:1903   */\n      dup4\n        /* \"#utility.yul\":1892:1898   */\n      dup4\n        /* \"#utility.yul\":1864:1904   */\n      tag_115\n      jump\t// in\n    tag_114:\n        /* \"#utility.yul\":1936:1940   */\n      0x20\n        /* \"#utility.yul\":1931:1934   */\n      dup4\n        /* \"#utility.yul\":1927:1941   */\n      add\n        /* \"#utility.yul\":1913:1941   */\n      swap1\n      pop\n        /* \"#utility.yul\":1780:1947   */\n      swap3\n      swap2\n      pop\n      pop\n      jump\t// out\n        /* \"#utility.yul\":1953:2149   */\n    tag_116:\n        /* \"#utility.yul\":2042:2052   */\n      0x00\n        /* \"#utility.yul\":2077:2143   */\n      tag_118\n        /* \"#utility.yul\":2139:2142   */\n      dup4\n        /* \"#utility.yul\":2131:2137   */\n      dup4\n        /* \"#utility.yul\":2077:2143   */\n      tag_119\n      jump\t// in\n    tag_118:\n        /* \"#utility.yul\":2063:2143   */\n      swap1\n      pop\n        /* \"#utility.yul\":1953:2149   */\n      swap3\n      swap2\n      pop\n      pop\n      jump\t// out\n        /* \"#utility.yul\":2155:2334   */\n    tag_120:\n        /* \"#utility.yul\":2224:2234   */\n      0x00\n        /* \"#utility.yul\":2245:2291   */\n      tag_122\n        /* \"#utility.yul\":2287:2290   */\n      dup4\n        /* \"#utility.yul\":2279:2285   */\n      dup4\n        /* \"#utility.yul\":2245:2291   */\n      tag_123\n      jump\t// in\n    tag_122:\n        /* \"#utility.yul\":2323:2327   */\n      0x20\n        /* \"#utility.yul\":2318:2321   */\n      dup4\n        /* \"#utility.yul\":2314:2328   */\n      add\n        /* \"#utility.yul\":2300:2328   */\n      swap1\n      pop\n        /* \"#utility.yul\":2155:2334   */\n      swap3\n      swap2\n      pop\n      pop\n      jump\t// out\n        /* \"#utility.yul\":2364:3072   */\n    tag_124:\n        /* \"#utility.yul\":2477:2480   */\n      0x00\n        /* \"#utility.yul\":2506:2557   */\n      tag_126\n        /* \"#utility.yul\":2551:2556   */\n      dup3\n        /* \"#utility.yul\":2506:2557   */\n      tag_127\n      jump\t// in\n    tag_126:\n        /* \"#utility.yul\":2573:2656   */\n      tag_128\n        /* \"#utility.yul\":2649:2655   */\n      dup2\n        /* \"#utility.yul\":2644:2647   */\n      dup6\n        /* \"#utility.yul\":2573:2656   */\n      tag_129\n      jump\t// in\n    tag_128:\n        /* \"#utility.yul\":2566:2656   */\n      swap4\n      pop\n        /* \"#utility.yul\":2680:2733   */\n      tag_130\n        /* \"#utility.yul\":2727:2732   */\n      dup4\n        /* \"#utility.yul\":2680:2733   */\n      tag_131\n      jump\t// in\n    tag_130:\n        /* \"#utility.yul\":2756:2763   */\n      dup1\n        /* \"#utility.yul\":2787:2788   */\n      0x00\n        /* \"#utility.yul\":2772:3047   */\n    tag_132:\n        /* \"#utility.yul\":2797:2803   */\n      dup4\n        /* \"#utility.yul\":2794:2795   */\n      dup2\n        /* \"#utility.yul\":2791:2804   */\n      lt\n        /* \"#utility.yul\":2772:3047   */\n      iszero\n      tag_134\n      jumpi\n        /* \"#utility.yul\":2873:2879   */\n      dup2\n        /* \"#utility.yul\":2867:2880   */\n      mload\n        /* \"#utility.yul\":2900:2957   */\n      tag_135\n        /* \"#utility.yul\":2953:2956   */\n      dup9\n        /* \"#utility.yul\":2938:2951   */\n      dup3\n        /* \"#utility.yul\":2900:2957   */\n      tag_112\n      jump\t// in\n    tag_135:\n        /* \"#utility.yul\":2893:2957   */\n      swap8\n      pop\n        /* \"#utility.yul\":2980:3037   */\n      tag_136\n        /* \"#utility.yul\":3030:3036   */\n      dup4\n        /* \"#utility.yul\":2980:3037   */\n      tag_137\n      jump\t// in\n    tag_136:\n        /* \"#utility.yul\":2970:3037   */\n      swap3\n      pop\n        /* \"#utility.yul\":2832:3047   */\n      pop\n        /* \"#utility.yul\":2819:2820   */\n      0x01\n        /* \"#utility.yul\":2816:2817   */\n      dup2\n        /* \"#utility.yul\":2812:2821   */\n      add\n        /* \"#utility.yul\":2807:2821   */\n      swap1\n      pop\n        /* \"#utility.yul\":2772:3047   */\n      jump(tag_132)\n    tag_134:\n        /* \"#utility.yul\":2776:2790   */\n      pop\n        /* \"#utility.yul\":3063:3066   */\n      dup6\n        /* \"#utility.yul\":3056:3066   */\n      swap4\n      pop\n        /* \"#utility.yul\":2482:3072   */\n      pop\n      pop\n      pop\n        /* \"#utility.yul\":2364:3072   */\n      swap3\n      swap2\n      pop\n      pop\n      jump\t// out\n        /* \"#utility.yul\":3106:4097   */\n    tag_138:\n        /* \"#utility.yul\":3245:3248   */\n      0x00\n        /* \"#utility.yul\":3274:3338   */\n      tag_140\n        /* \"#utility.yul\":3332:3337   */\n      dup3\n        /* \"#utility.yul\":3274:3338   */\n      tag_141\n      jump\t// in\n    tag_140:\n        /* \"#utility.yul\":3354:3450   */\n      tag_142\n        /* \"#utility.yul\":3443:3449   */\n      dup2\n        /* \"#utility.yul\":3438:3441   */\n      dup6\n        /* \"#utility.yul\":3354:3450   */\n      tag_143\n      jump\t// in\n    tag_142:\n        /* \"#utility.yul\":3347:3450   */\n      swap4\n      pop\n        /* \"#utility.yul\":3476:3479   */\n      dup4\n        /* \"#utility.yul\":3521:3525   */\n      0x20\n        /* \"#utility.yul\":3513:3519   */\n      dup3\n        /* \"#utility.yul\":3509:3526   */\n      mul\n        /* \"#utility.yul\":3504:3507   */\n      dup6\n        /* \"#utility.yul\":3500:3527   */\n      add\n        /* \"#utility.yul\":3551:3617   */\n      tag_144\n        /* \"#utility.yul\":3611:3616   */\n      dup6\n        /* \"#utility.yul\":3551:3617   */\n      tag_145\n      jump\t// in\n    tag_144:\n        /* \"#utility.yul\":3640:3647   */\n      dup1\n        /* \"#utility.yul\":3671:3672   */\n      0x00\n        /* \"#utility.yul\":3656:4052   */\n    tag_146:\n        /* \"#utility.yul\":3681:3687   */\n      dup6\n        /* \"#utility.yul\":3678:3679   */\n      dup2\n        /* \"#utility.yul\":3675:3688   */\n      lt\n        /* \"#utility.yul\":3656:4052   */\n      iszero\n      tag_148\n      jumpi\n        /* \"#utility.yul\":3752:3761   */\n      dup5\n        /* \"#utility.yul\":3746:3750   */\n      dup5\n        /* \"#utility.yul\":3742:3762   */\n      sub\n        /* \"#utility.yul\":3737:3740   */\n      dup10\n        /* \"#utility.yul\":3730:3763   */\n      mstore\n        /* \"#utility.yul\":3803:3809   */\n      dup2\n        /* \"#utility.yul\":3797:3810   */\n      mload\n        /* \"#utility.yul\":3831:3915   */\n      tag_149\n        /* \"#utility.yul\":3910:3914   */\n      dup6\n        /* \"#utility.yul\":3895:3908   */\n      dup3\n        /* \"#utility.yul\":3831:3915   */\n      tag_116\n      jump\t// in\n    tag_149:\n        /* \"#utility.yul\":3823:3915   */\n      swap5\n      pop\n        /* \"#utility.yul\":3938:4008   */\n      tag_150\n        /* \"#utility.yul\":4001:4007   */\n      dup4\n        /* \"#utility.yul\":3938:4008   */\n      tag_151\n      jump\t// in\n    tag_150:\n        /* \"#utility.yul\":3928:4008   */\n      swap3\n      pop\n        /* \"#utility.yul\":4037:4041   */\n      0x20\n        /* \"#utility.yul\":4032:4035   */\n      dup11\n        /* \"#utility.yul\":4028:4042   */\n      add\n        /* \"#utility.yul\":4021:4042   */\n      swap10\n      pop\n        /* \"#utility.yul\":3716:4052   */\n      pop\n        /* \"#utility.yul\":3703:3704   */\n      0x01\n        /* \"#utility.yul\":3700:3701   */\n      dup2\n        /* \"#utility.yul\":3696:3705   */\n      add\n        /* \"#utility.yul\":3691:3705   */\n      swap1\n      pop\n        /* \"#utility.yul\":3656:4052   */\n      jump(tag_146)\n    tag_148:\n        /* \"#utility.yul\":3660:3674   */\n      pop\n        /* \"#utility.yul\":4068:4072   */\n      dup3\n        /* \"#utility.yul\":4061:4072   */\n      swap8\n      pop\n        /* \"#utility.yul\":4088:4091   */\n      dup8\n        /* \"#utility.yul\":4081:4091   */\n      swap6\n      pop\n        /* \"#utility.yul\":3250:4097   */\n      pop\n      pop\n      pop\n      pop\n      pop\n        /* \"#utility.yul\":3106:4097   */\n      swap3\n      swap2\n      pop\n      pop\n      jump\t// out\n        /* \"#utility.yul\":4133:4865   */\n    tag_152:\n        /* \"#utility.yul\":4252:4255   */\n      0x00\n        /* \"#utility.yul\":4281:4335   */\n      tag_154\n        /* \"#utility.yul\":4329:4334   */\n      dup3\n        /* \"#utility.yul\":4281:4335   */\n      tag_155\n      jump\t// in\n    tag_154:\n        /* \"#utility.yul\":4351:4437   */\n      tag_156\n        /* \"#utility.yul\":4430:4436   */\n      dup2\n        /* \"#utility.yul\":4425:4428   */\n      dup6\n        /* \"#utility.yul\":4351:4437   */\n      tag_157\n      jump\t// in\n    tag_156:\n        /* \"#utility.yul\":4344:4437   */\n      swap4\n      pop\n        /* \"#utility.yul\":4461:4517   */\n      tag_158\n        /* \"#utility.yul\":4511:4516   */\n      dup4\n        /* \"#utility.yul\":4461:4517   */\n      tag_159\n      jump\t// in\n    tag_158:\n        /* \"#utility.yul\":4540:4547   */\n      dup1\n        /* \"#utility.yul\":4571:4572   */\n      0x00\n        /* \"#utility.yul\":4556:4840   */\n    tag_160:\n        /* \"#utility.yul\":4581:4587   */\n      dup4\n        /* \"#utility.yul\":4578:4579   */\n      dup2\n        /* \"#utility.yul\":4575:4588   */\n      lt\n        /* \"#utility.yul\":4556:4840   */\n      iszero\n      tag_162\n      jumpi\n        /* \"#utility.yul\":4657:4663   */\n      dup2\n        /* \"#utility.yul\":4651:4664   */\n      mload\n        /* \"#utility.yul\":4684:4747   */\n      tag_163\n        /* \"#utility.yul\":4743:4746   */\n      dup9\n        /* \"#utility.yul\":4728:4741   */\n      dup3\n        /* \"#utility.yul\":4684:4747   */\n      tag_120\n      jump\t// in\n    tag_163:\n        /* \"#utility.yul\":4677:4747   */\n      swap8\n      pop\n        /* \"#utility.yul\":4770:4830   */\n      tag_164\n        /* \"#utility.yul\":4823:4829   */\n      dup4\n        /* \"#utility.yul\":4770:4830   */\n      tag_165\n      jump\t// in\n    tag_164:\n        /* \"#utility.yul\":4760:4830   */\n      swap3\n      pop\n        /* \"#utility.yul\":4616:4840   */\n      pop\n        /* \"#utility.yul\":4603:4604   */\n      0x01\n        /* \"#utility.yul\":4600:4601   */\n      dup2\n        /* \"#utility.yul\":4596:4605   */\n      add\n        /* \"#utility.yul\":4591:4605   */\n      swap1\n      pop\n        /* \"#utility.yul\":4556:4840   */\n      jump(tag_160)\n    tag_162:\n        /* \"#utility.yul\":4560:4574   */\n      pop\n        /* \"#utility.yul\":4856:4859   */\n      dup6\n        /* \"#utility.yul\":4849:4859   */\n      swap4\n      pop\n        /* \"#utility.yul\":4257:4865   */\n      pop\n      pop\n      pop\n        /* \"#utility.yul\":4133:4865   */\n      swap3\n      swap2\n      pop\n      pop\n      jump\t// out\n        /* \"#utility.yul\":4871:4970   */\n    tag_115:\n        /* \"#utility.yul\":4942:4963   */\n      tag_167\n        /* \"#utility.yul\":4957:4962   */\n      dup2\n        /* \"#utility.yul\":4942:4963   */\n      tag_168\n      jump\t// in\n    tag_167:\n        /* \"#utility.yul\":4937:4940   */\n      dup3\n        /* \"#utility.yul\":4930:4964   */\n      mstore\n        /* \"#utility.yul\":4871:4970   */\n      pop\n      pop\n      jump\t// out\n        /* \"#utility.yul\":4976:5085   */\n    tag_169:\n        /* \"#utility.yul\":5057:5078   */\n      tag_171\n        /* \"#utility.yul\":5072:5077   */\n      dup2\n        /* \"#utility.yul\":5057:5078   */\n      tag_168\n      jump\t// in\n    tag_171:\n        /* \"#utility.yul\":5052:5055   */\n      dup3\n        /* \"#utility.yul\":5045:5079   */\n      mstore\n        /* \"#utility.yul\":4976:5085   */\n      pop\n      pop\n      jump\t// out\n        /* \"#utility.yul\":5091:5435   */\n    tag_119:\n        /* \"#utility.yul\":5169:5172   */\n      0x00\n        /* \"#utility.yul\":5197:5236   */\n      tag_173\n        /* \"#utility.yul\":5230:5235   */\n      dup3\n        /* \"#utility.yul\":5197:5236   */\n      tag_174\n      jump\t// in\n    tag_173:\n        /* \"#utility.yul\":5252:5313   */\n      tag_175\n        /* \"#utility.yul\":5306:5312   */\n      dup2\n        /* \"#utility.yul\":5301:5304   */\n      dup6\n        /* \"#utility.yul\":5252:5313   */\n      tag_176\n      jump\t// in\n    tag_175:\n        /* \"#utility.yul\":5245:5313   */\n      swap4\n      pop\n        /* \"#utility.yul\":5322:5374   */\n      tag_177\n        /* \"#utility.yul\":5367:5373   */\n      dup2\n        /* \"#utility.yul\":5362:5365   */\n      dup6\n        /* \"#utility.yul\":5355:5359   */\n      0x20\n        /* \"#utility.yul\":5348:5353   */\n      dup7\n        /* \"#utility.yul\":5344:5360   */\n      add\n        /* \"#utility.yul\":5322:5374   */\n      tag_178\n      jump\t// in\n    tag_177:\n        /* \"#utility.yul\":5399:5428   */\n      tag_179\n        /* \"#utility.yul\":5421:5427   */\n      dup2\n        /* \"#utility.yul\":5399:5428   */\n      tag_180\n      jump\t// in\n    tag_179:\n        /* \"#utility.yul\":5394:5397   */\n      dup5\n        /* \"#utility.yul\":5390:5429   */\n      add\n        /* \"#utility.yul\":5383:5429   */\n      swap2\n      pop\n        /* \"#utility.yul\":5173:5435   */\n      pop\n        /* \"#utility.yul\":5091:5435   */\n      swap3\n      swap2\n      pop\n      pop\n      jump\t// out\n        /* \"#utility.yul\":5441:5805   */\n    tag_181:\n        /* \"#utility.yul\":5529:5532   */\n      0x00\n        /* \"#utility.yul\":5557:5596   */\n      tag_183\n        /* \"#utility.yul\":5590:5595   */\n      dup3\n        /* \"#utility.yul\":5557:5596   */\n      tag_174\n      jump\t// in\n    tag_183:\n        /* \"#utility.yul\":5612:5683   */\n      tag_184\n        /* \"#utility.yul\":5676:5682   */\n      dup2\n        /* \"#utility.yul\":5671:5674   */\n      dup6\n        /* \"#utility.yul\":5612:5683   */\n      tag_185\n      jump\t// in\n    tag_184:\n        /* \"#utility.yul\":5605:5683   */\n      swap4\n      pop\n        /* \"#utility.yul\":5692:5744   */\n      tag_186\n        /* \"#utility.yul\":5737:5743   */\n      dup2\n        /* \"#utility.yul\":5732:5735   */\n      dup6\n        /* \"#utility.yul\":5725:5729   */\n      0x20\n        /* \"#utility.yul\":5718:5723   */\n      dup7\n        /* \"#utility.yul\":5714:5730   */\n      add\n        /* \"#utility.yul\":5692:5744   */\n      tag_178\n      jump\t// in\n    tag_186:\n        /* \"#utility.yul\":5769:5798   */\n      tag_187\n        /* \"#utility.yul\":5791:5797   */\n      dup2\n        /* \"#utility.yul\":5769:5798   */\n      tag_180\n      jump\t// in\n    tag_187:\n        /* \"#utility.yul\":5764:5767   */\n      dup5\n        /* \"#utility.yul\":5760:5799   */\n      add\n        /* \"#utility.yul\":5753:5799   */\n      swap2\n      pop\n        /* \"#utility.yul\":5533:5805   */\n      pop\n        /* \"#utility.yul\":5441:5805   */\n      swap3\n      swap2\n      pop\n      pop\n      jump\t// out\n        /* \"#utility.yul\":5811:5919   */\n    tag_123:\n        /* \"#utility.yul\":5888:5912   */\n      tag_189\n        /* \"#utility.yul\":5906:5911   */\n      dup2\n        /* \"#utility.yul\":5888:5912   */\n      tag_190\n      jump\t// in\n    tag_189:\n        /* \"#utility.yul\":5883:5886   */\n      dup3\n        /* \"#utility.yul\":5876:5913   */\n      mstore\n        /* \"#utility.yul\":5811:5919   */\n      pop\n      pop\n      jump\t// out\n        /* \"#utility.yul\":5925:6043   */\n    tag_191:\n        /* \"#utility.yul\":6012:6036   */\n      tag_193\n        /* \"#utility.yul\":6030:6035   */\n      dup2\n        /* \"#utility.yul\":6012:6036   */\n      tag_190\n      jump\t// in\n    tag_193:\n        /* \"#utility.yul\":6007:6010   */\n      dup3\n        /* \"#utility.yul\":6000:6037   */\n      mstore\n        /* \"#utility.yul\":5925:6043   */\n      pop\n      pop\n      jump\t// out\n        /* \"#utility.yul\":6049:6972   */\n    tag_11:\n        /* \"#utility.yul\":6362:6366   */\n      0x00\n        /* \"#utility.yul\":6400:6402   */\n      0x60\n        /* \"#utility.yul\":6389:6398   */\n      dup3\n        /* \"#utility.yul\":6385:6403   */\n      add\n        /* \"#utility.yul\":6377:6403   */\n      swap1\n      pop\n        /* \"#utility.yul\":6449:6458   */\n      dup2\n        /* \"#utility.yul\":6443:6447   */\n      dup2\n        /* \"#utility.yul\":6439:6459   */\n      sub\n        /* \"#utility.yul\":6435:6436   */\n      0x00\n        /* \"#utility.yul\":6424:6433   */\n      dup4\n        /* \"#utility.yul\":6420:6437   */\n      add\n        /* \"#utility.yul\":6413:6460   */\n      mstore\n        /* \"#utility.yul\":6477:6585   */\n      tag_195\n        /* \"#utility.yul\":6580:6584   */\n      dup2\n        /* \"#utility.yul\":6571:6577   */\n      dup7\n        /* \"#utility.yul\":6477:6585   */\n      tag_152\n      jump\t// in\n    tag_195:\n        /* \"#utility.yul\":6469:6585   */\n      swap1\n      pop\n        /* \"#utility.yul\":6632:6641   */\n      dup2\n        /* \"#utility.yul\":6626:6630   */\n      dup2\n        /* \"#utility.yul\":6622:6642   */\n      sub\n        /* \"#utility.yul\":6617:6619   */\n      0x20\n        /* \"#utility.yul\":6606:6615   */\n      dup4\n        /* \"#utility.yul\":6602:6620   */\n      add\n        /* \"#utility.yul\":6595:6643   */\n      mstore\n        /* \"#utility.yul\":6660:6788   */\n      tag_196\n        /* \"#utility.yul\":6783:6787   */\n      dup2\n        /* \"#utility.yul\":6774:6780   */\n      dup6\n        /* \"#utility.yul\":6660:6788   */\n      tag_138\n      jump\t// in\n    tag_196:\n        /* \"#utility.yul\":6652:6788   */\n      swap1\n      pop\n        /* \"#utility.yul\":6835:6844   */\n      dup2\n        /* \"#utility.yul\":6829:6833   */\n      dup2\n        /* \"#utility.yul\":6825:6845   */\n      sub\n        /* \"#utility.yul\":6820:6822   */\n      0x40\n        /* \"#utility.yul\":6809:6818   */\n      dup4\n        /* \"#utility.yul\":6805:6823   */\n      add\n        /* \"#utility.yul\":6798:6846   */\n      mstore\n        /* \"#utility.yul\":6863:6965   */\n      tag_197\n        /* \"#utility.yul\":6960:6964   */\n      dup2\n        /* \"#utility.yul\":6951:6957   */\n      dup5\n        /* \"#utility.yul\":6863:6965   */\n      tag_124\n      jump\t// in\n    tag_197:\n        /* \"#utility.yul\":6855:6965   */\n      swap1\n      pop\n        /* \"#utility.yul\":6049:6972   */\n      swap5\n      swap4\n      pop\n      pop\n      pop\n      pop\n      jump\t// out\n        /* \"#utility.yul\":6978:7200   */\n    tag_19:\n        /* \"#utility.yul\":7071:7075   */\n      0x00\n        /* \"#utility.yul\":7109:7111   */\n      0x20\n        /* \"#utility.yul\":7098:7107   */\n      dup3\n        /* \"#utility.yul\":7094:7112   */\n      add\n        /* \"#utility.yul\":7086:7112   */\n      swap1\n      pop\n        /* \"#utility.yul\":7122:7193   */\n      tag_199\n        /* \"#utility.yul\":7190:7191   */\n      0x00\n        /* \"#utility.yul\":7179:7188   */\n      dup4\n        /* \"#utility.yul\":7175:7192   */\n      add\n        /* \"#utility.yul\":7166:7172   */\n      dup5\n        /* \"#utility.yul\":7122:7193   */\n      tag_191\n      jump\t// in\n    tag_199:\n        /* \"#utility.yul\":6978:7200   */\n      swap3\n      swap2\n      pop\n      pop\n      jump\t// out\n        /* \"#utility.yul\":7206:7727   */\n    tag_25:\n        /* \"#utility.yul\":7369:7373   */\n      0x00\n        /* \"#utility.yul\":7407:7409   */\n      0x60\n        /* \"#utility.yul\":7396:7405   */\n      dup3\n        /* \"#utility.yul\":7392:7410   */\n      add\n        /* \"#utility.yul\":7384:7410   */\n      swap1\n      pop\n        /* \"#utility.yul\":7420:7491   */\n      tag_201\n        /* \"#utility.yul\":7488:7489   */\n      0x00\n        /* \"#utility.yul\":7477:7486   */\n      dup4\n        /* \"#utility.yul\":7473:7490   */\n      add\n        /* \"#utility.yul\":7464:7470   */\n      dup7\n        /* \"#utility.yul\":7420:7491   */\n      tag_191\n      jump\t// in\n    tag_201:\n        /* \"#utility.yul\":7538:7547   */\n      dup2\n        /* \"#utility.yul\":7532:7536   */\n      dup2\n        /* \"#utility.yul\":7528:7548   */\n      sub\n        /* \"#utility.yul\":7523:7525   */\n      0x20\n        /* \"#utility.yul\":7512:7521   */\n      dup4\n        /* \"#utility.yul\":7508:7526   */\n      add\n        /* \"#utility.yul\":7501:7549   */\n      mstore\n        /* \"#utility.yul\":7566:7644   */\n      tag_202\n        /* \"#utility.yul\":7639:7643   */\n      dup2\n        /* \"#utility.yul\":7630:7636   */\n      dup6\n        /* \"#utility.yul\":7566:7644   */\n      tag_181\n      jump\t// in\n    tag_202:\n        /* \"#utility.yul\":7558:7644   */\n      swap1\n      pop\n        /* \"#utility.yul\":7654:7720   */\n      tag_203\n        /* \"#utility.yul\":7716:7718   */\n      0x40\n        /* \"#utility.yul\":7705:7714   */\n      dup4\n        /* \"#utility.yul\":7701:7719   */\n      add\n        /* \"#utility.yul\":7692:7698   */\n      dup5\n        /* \"#utility.yul\":7654:7720   */\n      tag_169\n      jump\t// in\n    tag_203:\n        /* \"#utility.yul\":7206:7727   */\n      swap5\n      swap4\n      pop\n      pop\n      pop\n      pop\n      jump\t// out\n        /* \"#utility.yul\":7733:7862   */\n    tag_84:\n        /* \"#utility.yul\":7767:7773   */\n      0x00\n        /* \"#utility.yul\":7794:7814   */\n      tag_205\n      tag_206\n      jump\t// in\n    tag_205:\n        /* \"#utility.yul\":7784:7814   */\n      swap1\n      pop\n        /* \"#utility.yul\":7823:7856   */\n      tag_207\n        /* \"#utility.yul\":7851:7855   */\n      dup3\n        /* \"#utility.yul\":7843:7849   */\n      dup3\n        /* \"#utility.yul\":7823:7856   */\n      tag_208\n      jump\t// in\n    tag_207:\n        /* \"#utility.yul\":7733:7862   */\n      swap2\n      swap1\n      pop\n      jump\t// out\n        /* \"#utility.yul\":7868:7943   */\n    tag_206:\n        /* \"#utility.yul\":7901:7907   */\n      0x00\n        /* \"#utility.yul\":7934:7936   */\n      0x40\n        /* \"#utility.yul\":7928:7937   */\n      mload\n        /* \"#utility.yul\":7918:7937   */\n      swap1\n      pop\n        /* \"#utility.yul\":7868:7943   */\n      swap1\n      jump\t// out\n        /* \"#utility.yul\":7949:8257   */\n    tag_83:\n        /* \"#utility.yul\":8011:8015   */\n      0x00\n        /* \"#utility.yul\":8101:8119   */\n      0xffffffffffffffff\n        /* \"#utility.yul\":8093:8099   */\n      dup3\n        /* \"#utility.yul\":8090:8120   */\n      gt\n        /* \"#utility.yul\":8087:8143   */\n      iszero\n      tag_211\n      jumpi\n        /* \"#utility.yul\":8123:8141   */\n      tag_212\n      tag_32\n      jump\t// in\n    tag_212:\n        /* \"#utility.yul\":8087:8143   */\n    tag_211:\n        /* \"#utility.yul\":8161:8190   */\n      tag_213\n        /* \"#utility.yul\":8183:8189   */\n      dup3\n        /* \"#utility.yul\":8161:8190   */\n      tag_180\n      jump\t// in\n    tag_213:\n        /* \"#utility.yul\":8153:8190   */\n      swap1\n      pop\n        /* \"#utility.yul\":8245:8249   */\n      0x20\n        /* \"#utility.yul\":8239:8243   */\n      dup2\n        /* \"#utility.yul\":8235:8250   */\n      add\n        /* \"#utility.yul\":8227:8250   */\n      swap1\n      pop\n        /* \"#utility.yul\":7949:8257   */\n      swap2\n      swap1\n      pop\n      jump\t// out\n        /* \"#utility.yul\":8263:8392   */\n    tag_131:\n        /* \"#utility.yul\":8327:8331   */\n      0x00\n        /* \"#utility.yul\":8350:8353   */\n      dup2\n        /* \"#utility.yul\":8342:8353   */\n      swap1\n      pop\n        /* \"#utility.yul\":8380:8384   */\n      0x20\n        /* \"#utility.yul\":8375:8378   */\n      dup3\n        /* \"#utility.yul\":8371:8385   */\n      add\n        /* \"#utility.yul\":8363:8385   */\n      swap1\n      pop\n        /* \"#utility.yul\":8263:8392   */\n      swap2\n      swap1\n      pop\n      jump\t// out\n        /* \"#utility.yul\":8398:8540   */\n    tag_145:\n        /* \"#utility.yul\":8475:8479   */\n      0x00\n        /* \"#utility.yul\":8498:8501   */\n      dup2\n        /* \"#utility.yul\":8490:8501   */\n      swap1\n      pop\n        /* \"#utility.yul\":8528:8532   */\n      0x20\n        /* \"#utility.yul\":8523:8526   */\n      dup3\n        /* \"#utility.yul\":8519:8533   */\n      add\n        /* \"#utility.yul\":8511:8533   */\n      swap1\n      pop\n        /* \"#utility.yul\":8398:8540   */\n      swap2\n      swap1\n      pop\n      jump\t// out\n        /* \"#utility.yul\":8546:8678   */\n    tag_159:\n        /* \"#utility.yul\":8613:8617   */\n      0x00\n        /* \"#utility.yul\":8636:8639   */\n      dup2\n        /* \"#utility.yul\":8628:8639   */\n      swap1\n      pop\n        /* \"#utility.yul\":8666:8670   */\n      0x20\n        /* \"#utility.yul\":8661:8664   */\n      dup3\n        /* \"#utility.yul\":8657:8671   */\n      add\n        /* \"#utility.yul\":8649:8671   */\n      swap1\n      pop\n        /* \"#utility.yul\":8546:8678   */\n      swap2\n      swap1\n      pop\n      jump\t// out\n        /* \"#utility.yul\":8684:8795   */\n    tag_127:\n        /* \"#utility.yul\":8748:8754   */\n      0x00\n        /* \"#utility.yul\":8782:8787   */\n      dup2\n        /* \"#utility.yul\":8776:8788   */\n      mload\n        /* \"#utility.yul\":8766:8788   */\n      swap1\n      pop\n        /* \"#utility.yul\":8684:8795   */\n      swap2\n      swap1\n      pop\n      jump\t// out\n        /* \"#utility.yul\":8801:8925   */\n    tag_141:\n        /* \"#utility.yul\":8878:8884   */\n      0x00\n        /* \"#utility.yul\":8912:8917   */\n      dup2\n        /* \"#utility.yul\":8906:8918   */\n      mload\n        /* \"#utility.yul\":8896:8918   */\n      swap1\n      pop\n        /* \"#utility.yul\":8801:8925   */\n      swap2\n      swap1\n      pop\n      jump\t// out\n        /* \"#utility.yul\":8931:9045   */\n    tag_155:\n        /* \"#utility.yul\":8998:9004   */\n      0x00\n        /* \"#utility.yul\":9032:9037   */\n      dup2\n        /* \"#utility.yul\":9026:9038   */\n      mload\n        /* \"#utility.yul\":9016:9038   */\n      swap1\n      pop\n        /* \"#utility.yul\":8931:9045   */\n      swap2\n      swap1\n      pop\n      jump\t// out\n        /* \"#utility.yul\":9051:9150   */\n    tag_174:\n        /* \"#utility.yul\":9103:9109   */\n      0x00\n        /* \"#utility.yul\":9137:9142   */\n      dup2\n        /* \"#utility.yul\":9131:9143   */\n      mload\n        /* \"#utility.yul\":9121:9143   */\n      swap1\n      pop\n        /* \"#utility.yul\":9051:9150   */\n      swap2\n      swap1\n      pop\n      jump\t// out\n        /* \"#utility.yul\":9156:9266   */\n    tag_137:\n        /* \"#utility.yul\":9223:9227   */\n      0x00\n        /* \"#utility.yul\":9255:9259   */\n      0x20\n        /* \"#utility.yul\":9250:9253   */\n      dup3\n        /* \"#utility.yul\":9246:9260   */\n      add\n        /* \"#utility.yul\":9238:9260   */\n      swap1\n      pop\n        /* \"#utility.yul\":9156:9266   */\n      swap2\n      swap1\n      pop\n      jump\t// out\n        /* \"#utility.yul\":9272:9395   */\n    tag_151:\n        /* \"#utility.yul\":9352:9356   */\n      0x00\n        /* \"#utility.yul\":9384:9388   */\n      0x20\n        /* \"#utility.yul\":9379:9382   */\n      dup3\n        /* \"#utility.yul\":9375:9389   */\n      add\n        /* \"#utility.yul\":9367:9389   */\n      swap1\n      pop\n        /* \"#utility.yul\":9272:9395   */\n      swap2\n      swap1\n      pop\n      jump\t// out\n        /* \"#utility.yul\":9401:9514   */\n    tag_165:\n        /* \"#utility.yul\":9471:9475   */\n      0x00\n        /* \"#utility.yul\":9503:9507   */\n      0x20\n        /* \"#utility.yul\":9498:9501   */\n      dup3\n        /* \"#utility.yul\":9494:9508   */\n      add\n        /* \"#utility.yul\":9486:9508   */\n      swap1\n      pop\n        /* \"#utility.yul\":9401:9514   */\n      swap2\n      swap1\n      pop\n      jump\t// out\n        /* \"#utility.yul\":9520:9701   */\n    tag_129:\n        /* \"#utility.yul\":9616:9627   */\n      0x00\n        /* \"#utility.yul\":9650:9656   */\n      dup3\n        /* \"#utility.yul\":9645:9648   */\n      dup3\n        /* \"#utility.yul\":9638:9657   */\n      mstore\n        /* \"#utility.yul\":9690:9694   */\n      0x20\n        /* \"#utility.yul\":9685:9688   */\n      dup3\n        /* \"#utility.yul\":9681:9695   */\n      add\n        /* \"#utility.yul\":9666:9695   */\n      swap1\n      pop\n        /* \"#utility.yul\":9520:9701   */\n      swap3\n      swap2\n      pop\n      pop\n      jump\t// out\n        /* \"#utility.yul\":9707:9901   */\n    tag_143:\n        /* \"#utility.yul\":9816:9827   */\n      0x00\n        /* \"#utility.yul\":9850:9856   */\n      dup3\n        /* \"#utility.yul\":9845:9848   */\n      dup3\n        /* \"#utility.yul\":9838:9857   */\n      mstore\n        /* \"#utility.yul\":9890:9894   */\n      0x20\n        /* \"#utility.yul\":9885:9888   */\n      dup3\n        /* \"#utility.yul\":9881:9895   */\n      add\n        /* \"#utility.yul\":9866:9895   */\n      swap1\n      pop\n        /* \"#utility.yul\":9707:9901   */\n      swap3\n      swap2\n      pop\n      pop\n      jump\t// out\n        /* \"#utility.yul\":9907:10091   */\n    tag_157:\n        /* \"#utility.yul\":10006:10017   */\n      0x00\n        /* \"#utility.yul\":10040:10046   */\n      dup3\n        /* \"#utility.yul\":10035:10038   */\n      dup3\n        /* \"#utility.yul\":10028:10047   */\n      mstore\n        /* \"#utility.yul\":10080:10084   */\n      0x20\n        /* \"#utility.yul\":10075:10078   */\n      dup3\n        /* \"#utility.yul\":10071:10085   */\n      add\n        /* \"#utility.yul\":10056:10085   */\n      swap1\n      pop\n        /* \"#utility.yul\":9907:10091   */\n      swap3\n      swap2\n      pop\n      pop\n      jump\t// out\n        /* \"#utility.yul\":10097:10256   */\n    tag_176:\n        /* \"#utility.yul\":10171:10182   */\n      0x00\n        /* \"#utility.yul\":10205:10211   */\n      dup3\n        /* \"#utility.yul\":10200:10203   */\n      dup3\n        /* \"#utility.yul\":10193:10212   */\n      mstore\n        /* \"#utility.yul\":10245:10249   */\n      0x20\n        /* \"#utility.yul\":10240:10243   */\n      dup3\n        /* \"#utility.yul\":10236:10250   */\n      add\n        /* \"#utility.yul\":10221:10250   */\n      swap1\n      pop\n        /* \"#utility.yul\":10097:10256   */\n      swap3\n      swap2\n      pop\n      pop\n      jump\t// out\n        /* \"#utility.yul\":10262:10431   */\n    tag_185:\n        /* \"#utility.yul\":10346:10357   */\n      0x00\n        /* \"#utility.yul\":10380:10386   */\n      dup3\n        /* \"#utility.yul\":10375:10378   */\n      dup3\n        /* \"#utility.yul\":10368:10387   */\n      mstore\n        /* \"#utility.yul\":10420:10424   */\n      0x20\n        /* \"#utility.yul\":10415:10418   */\n      dup3\n        /* \"#utility.yul\":10411:10425   */\n      add\n        /* \"#utility.yul\":10396:10425   */\n      swap1\n      pop\n        /* \"#utility.yul\":10262:10431   */\n      swap3\n      swap2\n      pop\n      pop\n      jump\t// out\n        /* \"#utility.yul\":10437:10527   */\n    tag_168:\n        /* \"#utility.yul\":10471:10478   */\n      0x00\n        /* \"#utility.yul\":10514:10519   */\n      dup2\n        /* \"#utility.yul\":10507:10520   */\n      iszero\n        /* \"#utility.yul\":10500:10521   */\n      iszero\n        /* \"#utility.yul\":10489:10521   */\n      swap1\n      pop\n        /* \"#utility.yul\":10437:10527   */\n      swap2\n      swap1\n      pop\n      jump\t// out\n        /* \"#utility.yul\":10533:10610   */\n    tag_190:\n        /* \"#utility.yul\":10570:10577   */\n      0x00\n        /* \"#utility.yul\":10599:10604   */\n      dup2\n        /* \"#utility.yul\":10588:10604   */\n      swap1\n      pop\n        /* \"#utility.yul\":10533:10610   */\n      swap2\n      swap1\n      pop\n      jump\t// out\n        /* \"#utility.yul\":10616:10770   */\n    tag_89:\n        /* \"#utility.yul\":10700:10706   */\n      dup3\n        /* \"#utility.yul\":10695:10698   */\n      dup2\n        /* \"#utility.yul\":10690:10693   */\n      dup4\n        /* \"#utility.yul\":10677:10707   */\n      calldatacopy\n        /* \"#utility.yul\":10762:10763   */\n      0x00\n        /* \"#utility.yul\":10753:10759   */\n      dup4\n        /* \"#utility.yul\":10748:10751   */\n      dup4\n        /* \"#utility.yul\":10744:10760   */\n      add\n        /* \"#utility.yul\":10737:10764   */\n      mstore\n        /* \"#utility.yul\":10616:10770   */\n      pop\n      pop\n      pop\n      jump\t// out\n        /* \"#utility.yul\":10776:11083   */\n    tag_178:\n        /* \"#utility.yul\":10844:10845   */\n      0x00\n        /* \"#utility.yul\":10854:10967   */\n    tag_233:\n        /* \"#utility.yul\":10868:10874   */\n      dup4\n        /* \"#utility.yul\":10865:10866   */\n      dup2\n        /* \"#utility.yul\":10862:10875   */\n      lt\n        /* \"#utility.yul\":10854:10967   */\n      iszero\n      tag_235\n      jumpi\n        /* \"#utility.yul\":10953:10954   */\n      dup1\n        /* \"#utility.yul\":10948:10951   */\n      dup3\n        /* \"#utility.yul\":10944:10955   */\n      add\n        /* \"#utility.yul\":10938:10956   */\n      mload\n        /* \"#utility.yul\":10934:10935   */\n      dup2\n        /* \"#utility.yul\":10929:10932   */\n      dup5\n        /* \"#utility.yul\":10925:10936   */\n      add\n        /* \"#utility.yul\":10918:10957   */\n      mstore\n        /* \"#utility.yul\":10890:10892   */\n      0x20\n        /* \"#utility.yul\":10887:10888   */\n      dup2\n        /* \"#utility.yul\":10883:10893   */\n      add\n        /* \"#utility.yul\":10878:10893   */\n      swap1\n      pop\n        /* \"#utility.yul\":10854:10967   */\n      jump(tag_233)\n    tag_235:\n        /* \"#utility.yul\":10985:10991   */\n      dup4\n        /* \"#utility.yul\":10982:10983   */\n      dup2\n        /* \"#utility.yul\":10979:10992   */\n      gt\n        /* \"#utility.yul\":10976:11077   */\n      iszero\n      tag_236\n      jumpi\n        /* \"#utility.yul\":11065:11066   */\n      0x00\n        /* \"#utility.yul\":11056:11062   */\n      dup5\n        /* \"#utility.yul\":11051:11054   */\n      dup5\n        /* \"#utility.yul\":11047:11063   */\n      add\n        /* \"#utility.yul\":11040:11067   */\n      mstore\n        /* \"#utility.yul\":10976:11077   */\n    tag_236:\n        /* \"#utility.yul\":10825:11083   */\n      pop\n        /* \"#utility.yul\":10776:11083   */\n      pop\n      pop\n      pop\n      jump\t// out\n        /* \"#utility.yul\":11089:11409   */\n    tag_48:\n        /* \"#utility.yul\":11133:11139   */\n      0x00\n        /* \"#utility.yul\":11170:11171   */\n      0x02\n        /* \"#utility.yul\":11164:11168   */\n      dup3\n        /* \"#utility.yul\":11160:11172   */\n      div\n        /* \"#utility.yul\":11150:11172   */\n      swap1\n      pop\n        /* \"#utility.yul\":11217:11218   */\n      0x01\n        /* \"#utility.yul\":11211:11215   */\n      dup3\n        /* \"#utility.yul\":11207:11219   */\n      and\n        /* \"#utility.yul\":11238:11256   */\n      dup1\n        /* \"#utility.yul\":11228:11309   */\n      tag_238\n      jumpi\n        /* \"#utility.yul\":11294:11298   */\n      0x7f\n        /* \"#utility.yul\":11286:11292   */\n      dup3\n        /* \"#utility.yul\":11282:11299   */\n      and\n        /* \"#utility.yul\":11272:11299   */\n      swap2\n      pop\n        /* \"#utility.yul\":11228:11309   */\n    tag_238:\n        /* \"#utility.yul\":11356:11358   */\n      0x20\n        /* \"#utility.yul\":11348:11354   */\n      dup3\n        /* \"#utility.yul\":11345:11359   */\n      lt\n        /* \"#utility.yul\":11325:11343   */\n      dup2\n        /* \"#utility.yul\":11322:11360   */\n      eq\n        /* \"#utility.yul\":11319:11403   */\n      iszero\n      tag_239\n      jumpi\n        /* \"#utility.yul\":11375:11393   */\n      tag_240\n      tag_241\n      jump\t// in\n    tag_240:\n        /* \"#utility.yul\":11319:11403   */\n    tag_239:\n        /* \"#utility.yul\":11140:11409   */\n      pop\n        /* \"#utility.yul\":11089:11409   */\n      swap2\n      swap1\n      pop\n      jump\t// out\n        /* \"#utility.yul\":11415:11696   */\n    tag_208:\n        /* \"#utility.yul\":11498:11525   */\n      tag_243\n        /* \"#utility.yul\":11520:11524   */\n      dup3\n        /* \"#utility.yul\":11498:11525   */\n      tag_180\n      jump\t// in\n    tag_243:\n        /* \"#utility.yul\":11490:11496   */\n      dup2\n        /* \"#utility.yul\":11486:11526   */\n      add\n        /* \"#utility.yul\":11628:11634   */\n      dup2\n        /* \"#utility.yul\":11616:11626   */\n      dup2\n        /* \"#utility.yul\":11613:11635   */\n      lt\n        /* \"#utility.yul\":11592:11610   */\n      0xffffffffffffffff\n        /* \"#utility.yul\":11580:11590   */\n      dup3\n        /* \"#utility.yul\":11577:11611   */\n      gt\n        /* \"#utility.yul\":11574:11636   */\n      or\n        /* \"#utility.yul\":11571:11659   */\n      iszero\n      tag_244\n      jumpi\n        /* \"#utility.yul\":11639:11657   */\n      tag_245\n      tag_32\n      jump\t// in\n    tag_245:\n        /* \"#utility.yul\":11571:11659   */\n    tag_244:\n        /* \"#utility.yul\":11679:11689   */\n      dup1\n        /* \"#utility.yul\":11675:11677   */\n      0x40\n        /* \"#utility.yul\":11668:11690   */\n      mstore\n        /* \"#utility.yul\":11458:11696   */\n      pop\n        /* \"#utility.yul\":11415:11696   */\n      pop\n      pop\n      jump\t// out\n        /* \"#utility.yul\":11702:11935   */\n    tag_58:\n        /* \"#utility.yul\":11741:11744   */\n      0x00\n        /* \"#utility.yul\":11764:11788   */\n      tag_247\n        /* \"#utility.yul\":11782:11787   */\n      dup3\n        /* \"#utility.yul\":11764:11788   */\n      tag_190\n      jump\t// in\n    tag_247:\n        /* \"#utility.yul\":11755:11788   */\n      swap2\n      pop\n        /* \"#utility.yul\":11810:11876   */\n      0xffffffffffffffffffffffffffffffffffffffffffffffffffffffffffffffff\n        /* \"#utility.yul\":11803:11808   */\n      dup3\n        /* \"#utility.yul\":11800:11877   */\n      eq\n        /* \"#utility.yul\":11797:11900   */\n      iszero\n      tag_248\n      jumpi\n        /* \"#utility.yul\":11880:11898   */\n      tag_249\n      tag_250\n      jump\t// in\n    tag_249:\n        /* \"#utility.yul\":11797:11900   */\n    tag_248:\n        /* \"#utility.yul\":11927:11928   */\n      0x01\n        /* \"#utility.yul\":11920:11925   */\n      dup3\n        /* \"#utility.yul\":11916:11929   */\n      add\n        /* \"#utility.yul\":11909:11929   */\n      swap1\n      pop\n        /* \"#utility.yul\":11702:11935   */\n      swap2\n      swap1\n      pop\n      jump\t// out\n        /* \"#utility.yul\":11941:12121   */\n    tag_250:\n        /* \"#utility.yul\":11989:12066   */\n      0x4e487b7100000000000000000000000000000000000000000000000000000000\n        /* \"#utility.yul\":11986:11987   */\n      0x00\n        /* \"#utility.yul\":11979:12067   */\n      mstore\n        /* \"#utility.yul\":12086:12090   */\n      0x11\n        /* \"#utility.yul\":12083:12084   */\n      0x04\n        /* \"#utility.yul\":12076:12091   */\n      mstore\n        /* \"#utility.yul\":12110:12114   */\n      0x24\n        /* \"#utility.yul\":12107:12108   */\n      0x00\n        /* \"#utility.yul\":12100:12115   */\n      revert\n        /* \"#utility.yul\":12127:12307   */\n    tag_241:\n        /* \"#utility.yul\":12175:12252   */\n      0x4e487b7100000000000000000000000000000000000000000000000000000000\n        /* \"#utility.yul\":12172:12173   */\n      0x00\n        /* \"#utility.yul\":12165:12253   */\n      mstore\n        /* \"#utility.yul\":12272:12276   */\n      0x22\n        /* \"#utility.yul\":12269:12270   */\n      0x04\n        /* \"#utility.yul\":12262:12277   */\n      mstore\n        /* \"#utility.yul\":12296:12300   */\n      0x24\n        /* \"#utility.yul\":12293:12294   */\n      0x00\n        /* \"#utility.yul\":12286:12301   */\n      revert\n        /* \"#utility.yul\":12313:12493   */\n    tag_46:\n        /* \"#utility.yul\":12361:12438   */\n      0x4e487b7100000000000000000000000000000000000000000000000000000000\n        /* \"#utility.yul\":12358:12359   */\n      0x00\n        /* \"#utility.yul\":12351:12439   */\n      mstore\n        /* \"#utility.yul\":12458:12462   */\n      0x32\n        /* \"#utility.yul\":12455:12456   */\n      0x04\n        /* \"#utility.yul\":12448:12463   */\n      mstore\n        /* \"#utility.yul\":12482:12486   */\n      0x24\n        /* \"#utility.yul\":12479:12480   */\n      0x00\n        /* \"#utility.yul\":12472:12487   */\n      revert\n        /* \"#utility.yul\":12499:12679   */\n    tag_32:\n        /* \"#utility.yul\":12547:12624   */\n      0x4e487b7100000000000000000000000000000000000000000000000000000000\n        /* \"#utility.yul\":12544:12545   */\n      0x00\n        /* \"#utility.yul\":12537:12625   */\n      mstore\n        /* \"#utility.yul\":12644:12648   */\n      0x41\n        /* \"#utility.yul\":12641:12642   */\n      0x04\n        /* \"#utility.yul\":12634:12649   */\n      mstore\n        /* \"#utility.yul\":12668:12672   */\n      0x24\n        /* \"#utility.yul\":12665:12666   */\n      0x00\n        /* \"#utility.yul\":12658:12673   */\n      revert\n        /* \"#utility.yul\":12685:12802   */\n    tag_94:\n        /* \"#utility.yul\":12794:12795   */\n      0x00\n        /* \"#utility.yul\":12791:12792   */\n      dup1\n        /* \"#utility.yul\":12784:12796   */\n      revert\n        /* \"#utility.yul\":12808:12925   */\n    tag_87:\n        /* \"#utility.yul\":12917:12918   */\n      0x00\n        /* \"#utility.yul\":12914:12915   */\n      dup1\n        /* \"#utility.yul\":12907:12919   */\n      revert\n        /* \"#utility.yul\":12931:13048   */\n    tag_106:\n        /* \"#utility.yul\":13040:13041   */\n      0x00\n        /* \"#utility.yul\":13037:13038   */\n      dup1\n        /* \"#utility.yul\":13030:13042   */\n      revert\n        /* \"#utility.yul\":13054:13171   */\n    tag_103:\n        /* \"#utility.yul\":13163:13164   */\n      0x00\n        /* \"#utility.yul\":13160:13161   */\n      dup1\n        /* \"#utility.yul\":13153:13165   */\n      revert\n        /* \"#utility.yul\":13177:13279   */\n    tag_180:\n        /* \"#utility.yul\":13218:13224   */\n      0x00\n        /* \"#utility.yul\":13269:13271   */\n      0x1f\n        /* \"#utility.yul\":13265:13272   */\n      not\n        /* \"#utility.yul\":13260:13262   */\n      0x1f\n        /* \"#utility.yul\":13253:13258   */\n      dup4\n        /* \"#utility.yul\":13249:13263   */\n      add\n        /* \"#utility.yul\":13245:13273   */\n      and\n        /* \"#utility.yul\":13235:13273   */\n      swap1\n      pop\n        /* \"#utility.yul\":13177:13279   */\n      swap2\n      swap1\n      pop\n      jump\t// out\n        /* \"#utility.yul\":13285:13407   */\n    tag_99:\n        /* \"#utility.yul\":13358:13382   */\n      tag_261\n        /* \"#utility.yul\":13376:13381   */\n      dup2\n        /* \"#utility.yul\":13358:13382   */\n      tag_190\n      jump\t// in\n    tag_261:\n        /* \"#utility.yul\":13351:13356   */\n      dup2\n        /* \"#utility.yul\":13348:13383   */\n      eq\n        /* \"#utility.yul\":13338:13401   */\n      tag_262\n      jumpi\n        /* \"#utility.yul\":13397:13398   */\n      0x00\n        /* \"#utility.yul\":13394:13395   */\n      dup1\n        /* \"#utility.yul\":13387:13399   */\n      revert\n        /* \"#utility.yul\":13338:13401   */\n    tag_262:\n        /* \"#utility.yul\":13285:13407   */\n      pop\n      jump\t// out\n\n    auxdata: 0xa2646970667358221220225b665245ce40e94e463154f5dacec0c3a67722d7337ddb01bd429bac7b5e5d64736f6c63430008070033\n}\n",
				"bytecode": {
					"linkReferences": {},
					"object": "60806040526001805534801561001457600080fd5b50610c71806100246000396000f3fe608060405234801561001057600080fd5b50600436106100575760003560e01c80633b359d531461005c57806360cf802f1461007c5780639e96b1d214610098578063a1dbe017146100b6578063a25b79ca146100e8575b600080fd5b610064610106565b6040516100739392919061086c565b60405180910390f35b610096600480360381019061009191906105d3565b61036c565b005b6100a06103e0565b6040516100ad91906108b8565b60405180910390f35b6100d060048036038101906100cb919061061c565b6103e6565b6040516100df939291906108d3565b60405180910390f35b6100f06104a5565b6040516100fd91906108b8565b60405180910390f35b60608060606000805467ffffffffffffffff81111561012857610127610bd0565b5b6040519080825280602002602001820160405280156101565781602001602082028036833780820191505090505b5090506000805467ffffffffffffffff81111561017657610175610bd0565b5b6040519080825280602002602001820160405280156101a957816020015b60608152602001906001900390816101945790505b5090506000805467ffffffffffffffff8111156101c9576101c8610bd0565b5b6040519080825280602002602001820160405280156101f75781602001602082028036833780820191505090505b5090506000600190505b60005481101561035a57600260008281526020019081526020016000206000015484828151811061023557610234610ba1565b5b60200260200101818152505060026000828152602001908152602001600020600101805461026290610a97565b80601f016020809104026020016040519081016040528092919081815260200182805461028e90610a97565b80156102db5780601f106102b0576101008083540402835291602001916102db565b820191906000526020600020905b8154815290600101906020018083116102be57829003601f168201915b50505050508382815181106102f3576102f2610ba1565b5b60200260200101819052506002600082815260200190815260200160002060020160009054906101000a900460ff1682828151811061033557610334610ba1565b5b602002602001019015159081151581525050808061035290610afa565b915050610201565b50828282955095509550505050909192565b60006002600080548152602001908152602001600020905060008081548092919061039690610afa565b91905055506000548160000181905550818160010190805190602001906103be9291906104ab565b5060008160020160006101000a81548160ff0219169083151502179055505050565b60015481565b600260205280600052604060002060009150905080600001549080600101805461040f90610a97565b80601f016020809104026020016040519081016040528092919081815260200182805461043b90610a97565b80156104885780601f1061045d57610100808354040283529160200191610488565b820191906000526020600020905b81548152906001019060200180831161046b57829003601f168201915b5050505050908060020160009054906101000a900460ff16905083565b60005481565b8280546104b790610a97565b90600052602060002090601f0160209004810192826104d95760008555610520565b82601f106104f257805160ff1916838001178555610520565b82800160010185558215610520579182015b8281111561051f578251825591602001919060010190610504565b5b50905061052d9190610531565b5090565b5b8082111561054a576000816000905550600101610532565b5090565b600061056161055c84610936565b610911565b90508281526020810184848401111561057d5761057c610c04565b5b610588848285610a55565b509392505050565b600082601f8301126105a5576105a4610bff565b5b81356105b584826020860161054e565b91505092915050565b6000813590506105cd81610c24565b92915050565b6000602082840312156105e9576105e8610c0e565b5b600082013567ffffffffffffffff81111561060757610606610c09565b5b61061384828501610590565b91505092915050565b60006020828403121561063257610631610c0e565b5b6000610640848285016105be565b91505092915050565b600061065583836107be565b60208301905092915050565b600061066d83836107dc565b905092915050565b6000610681838361084e565b60208301905092915050565b600061069882610997565b6106a281856109ea565b93506106ad83610967565b8060005b838110156106de5781516106c58882610649565b97506106d0836109c3565b9250506001810190506106b1565b5085935050505092915050565b60006106f6826109a2565b61070081856109fb565b93508360208202850161071285610977565b8060005b8581101561074e578484038952815161072f8582610661565b945061073a836109d0565b925060208a01995050600181019050610716565b50829750879550505050505092915050565b600061076b826109ad565b6107758185610a0c565b935061078083610987565b8060005b838110156107b15781516107988882610675565b97506107a3836109dd565b925050600181019050610784565b5085935050505092915050565b6107c781610a3f565b82525050565b6107d681610a3f565b82525050565b60006107e7826109b8565b6107f18185610a1d565b9350610801818560208601610a64565b61080a81610c13565b840191505092915050565b6000610820826109b8565b61082a8185610a2e565b935061083a818560208601610a64565b61084381610c13565b840191505092915050565b61085781610a4b565b82525050565b61086681610a4b565b82525050565b600060608201905081810360008301526108868186610760565b9050818103602083015261089a81856106eb565b905081810360408301526108ae818461068d565b9050949350505050565b60006020820190506108cd600083018461085d565b92915050565b60006060820190506108e8600083018661085d565b81810360208301526108fa8185610815565b905061090960408301846107cd565b949350505050565b600061091b61092c565b90506109278282610ac9565b919050565b6000604051905090565b600067ffffffffffffffff82111561095157610950610bd0565b5b61095a82610c13565b9050602081019050919050565b6000819050602082019050919050565b6000819050602082019050919050565b6000819050602082019050919050565b600081519050919050565b600081519050919050565b600081519050919050565b600081519050919050565b6000602082019050919050565b6000602082019050919050565b6000602082019050919050565b600082825260208201905092915050565b600082825260208201905092915050565b600082825260208201905092915050565b600082825260208201905092915050565b600082825260208201905092915050565b60008115159050919050565b6000819050919050565b82818337600083830152505050565b60005b83811015610a82578082015181840152602081019050610a67565b83811115610a91576000848401525b50505050565b60006002820490506001821680610aaf57607f821691505b60208210811415610ac357610ac2610b72565b5b50919050565b610ad282610c13565b810181811067ffffffffffffffff82111715610af157610af0610bd0565b5b80604052505050565b6000610b0582610a4b565b91507fffffffffffffffffffffffffffffffffffffffffffffffffffffffffffffffff821415610b3857610b37610b43565b5b600182019050919050565b7f4e487b7100000000000000000000000000000000000000000000000000000000600052601160045260246000fd5b7f4e487b7100000000000000000000000000000000000000000000000000000000600052602260045260246000fd5b7f4e487b7100000000000000000000000000000000000000000000000000000000600052603260045260246000fd5b7f4e487b7100000000000000000000000000000000000000000000000000000000600052604160045260246000fd5b600080fd5b600080fd5b600080fd5b600080fd5b6000601f19601f8301169050919050565b610c2d81610a4b565b8114610c3857600080fd5b5056fea2646970667358221220225b665245ce40e94e463154f5dacec0c3a67722d7337ddb01bd429bac7b5e5d64736f6c63430008070033",
					"opcodes": "PUSH1 0x80 PUSH1 0x40 MSTORE PUSH1 0x1 DUP1 SSTORE CALLVALUE DUP1 ISZERO PUSH2 0x14 JUMPI PUSH1 0x0 DUP1 REVERT JUMPDEST POP PUSH2 0xC71 DUP1 PUSH2 0x24 PUSH1 0x0 CODECOPY PUSH1 0x0 RETURN INVALID PUSH1 0x80 PUSH1 0x40 MSTORE CALLVALUE DUP1 ISZERO PUSH2 0x10 JUMPI PUSH1 0x0 DUP1 REVERT JUMPDEST POP PUSH1 0x4 CALLDATASIZE LT PUSH2 0x57 JUMPI PUSH1 0x0 CALLDATALOAD PUSH1 0xE0 SHR DUP1 PUSH4 0x3B359D53 EQ PUSH2 0x5C JUMPI DUP1 PUSH4 0x60CF802F EQ PUSH2 0x7C JUMPI DUP1 PUSH4 0x9E96B1D2 EQ PUSH2 0x98 JUMPI DUP1 PUSH4 0xA1DBE017 EQ PUSH2 0xB6 JUMPI DUP1 PUSH4 0xA25B79CA EQ PUSH2 0xE8 JUMPI JUMPDEST PUSH1 0x0 DUP1 REVERT JUMPDEST PUSH2 0x64 PUSH2 0x106 JUMP JUMPDEST PUSH1 0x40 MLOAD PUSH2 0x73 SWAP4 SWAP3 SWAP2 SWAP1 PUSH2 0x86C JUMP JUMPDEST PUSH1 0x40 MLOAD DUP1 SWAP2 SUB SWAP1 RETURN JUMPDEST PUSH2 0x96 PUSH1 0x4 DUP1 CALLDATASIZE SUB DUP2 ADD SWAP1 PUSH2 0x91 SWAP2 SWAP1 PUSH2 0x5D3 JUMP JUMPDEST PUSH2 0x36C JUMP JUMPDEST STOP JUMPDEST PUSH2 0xA0 PUSH2 0x3E0 JUMP JUMPDEST PUSH1 0x40 MLOAD PUSH2 0xAD SWAP2 SWAP1 PUSH2 0x8B8 JUMP JUMPDEST PUSH1 0x40 MLOAD DUP1 SWAP2 SUB SWAP1 RETURN JUMPDEST PUSH2 0xD0 PUSH1 0x4 DUP1 CALLDATASIZE SUB DUP2 ADD SWAP1 PUSH2 0xCB SWAP2 SWAP1 PUSH2 0x61C JUMP JUMPDEST PUSH2 0x3E6 JUMP JUMPDEST PUSH1 0x40 MLOAD PUSH2 0xDF SWAP4 SWAP3 SWAP2 SWAP1 PUSH2 0x8D3 JUMP JUMPDEST PUSH1 0x40 MLOAD DUP1 SWAP2 SUB SWAP1 RETURN JUMPDEST PUSH2 0xF0 PUSH2 0x4A5 JUMP JUMPDEST PUSH1 0x40 MLOAD PUSH2 0xFD SWAP2 SWAP1 PUSH2 0x8B8 JUMP JUMPDEST PUSH1 0x40 MLOAD DUP1 SWAP2 SUB SWAP1 RETURN JUMPDEST PUSH1 0x60 DUP1 PUSH1 0x60 PUSH1 0x0 DUP1 SLOAD PUSH8 0xFFFFFFFFFFFFFFFF DUP2 GT ISZERO PUSH2 0x128 JUMPI PUSH2 0x127 PUSH2 0xBD0 JUMP JUMPDEST JUMPDEST PUSH1 0x40 MLOAD SWAP1 DUP1 DUP3 MSTORE DUP1 PUSH1 0x20 MUL PUSH1 0x20 ADD DUP3 ADD PUSH1 0x40 MSTORE DUP1 ISZERO PUSH2 0x156 JUMPI DUP2 PUSH1 0x20 ADD PUSH1 0x20 DUP3 MUL DUP1 CALLDATASIZE DUP4 CALLDATACOPY DUP1 DUP3 ADD SWAP2 POP POP SWAP1 POP JUMPDEST POP SWAP1 POP PUSH1 0x0 DUP1 SLOAD PUSH8 0xFFFFFFFFFFFFFFFF DUP2 GT ISZERO PUSH2 0x176 JUMPI PUSH2 0x175 PUSH2 0xBD0 JUMP JUMPDEST JUMPDEST PUSH1 0x40 MLOAD SWAP1 DUP1 DUP3 MSTORE DUP1 PUSH1 0x20 MUL PUSH1 0x20 ADD DUP3 ADD PUSH1 0x40 MSTORE DUP1 ISZERO PUSH2 0x1A9 JUMPI DUP2 PUSH1 0x20 ADD JUMPDEST PUSH1 0x60 DUP2 MSTORE PUSH1 0x20 ADD SWAP1 PUSH1 0x1 SWAP1 SUB SWAP1 DUP2 PUSH2 0x194 JUMPI SWAP1 POP JUMPDEST POP SWAP1 POP PUSH1 0x0 DUP1 SLOAD PUSH8 0xFFFFFFFFFFFFFFFF DUP2 GT ISZERO PUSH2 0x1C9 JUMPI PUSH2 0x1C8 PUSH2 0xBD0 JUMP JUMPDEST JUMPDEST PUSH1 0x40 MLOAD SWAP1 DUP1 DUP3 MSTORE DUP1 PUSH1 0x20 MUL PUSH1 0x20 ADD DUP3 ADD PUSH1 0x40 MSTORE DUP1 ISZERO PUSH2 0x1F7 JUMPI DUP2 PUSH1 0x20 ADD PUSH1 0x20 DUP3 MUL DUP1 CALLDATASIZE DUP4 CALLDATACOPY DUP1 DUP3 ADD SWAP2 POP POP SWAP1 POP JUMPDEST POP SWAP1 POP PUSH1 0x0 PUSH1 0x1 SWAP1 POP JUMPDEST PUSH1 0x0 SLOAD DUP2 LT ISZERO PUSH2 0x35A JUMPI PUSH1 0x2 PUSH1 0x0 DUP3 DUP2 MSTORE PUSH1 0x20 ADD SWAP1 DUP2 MSTORE PUSH1 0x20 ADD PUSH1 0x0 KECCAK256 PUSH1 0x0 ADD SLOAD DUP5 DUP3 DUP2 MLOAD DUP2 LT PUSH2 0x235 JUMPI PUSH2 0x234 PUSH2 0xBA1 JUMP JUMPDEST JUMPDEST PUSH1 0x20 MUL PUSH1 0x20 ADD ADD DUP2 DUP2 MSTORE POP POP PUSH1 0x2 PUSH1 0x0 DUP3 DUP2 MSTORE PUSH1 0x20 ADD SWAP1 DUP2 MSTORE PUSH1 0x20 ADD PUSH1 0x0 KECCAK256 PUSH1 0x1 ADD DUP1 SLOAD PUSH2 0x262 SWAP1 PUSH2 0xA97 JUMP JUMPDEST DUP1 PUSH1 0x1F ADD PUSH1 0x20 DUP1 SWAP2 DIV MUL PUSH1 0x20 ADD PUSH1 0x40 MLOAD SWAP1 DUP2 ADD PUSH1 0x40 MSTORE DUP1 SWAP3 SWAP2 SWAP1 DUP2 DUP2 MSTORE PUSH1 0x20 ADD DUP3 DUP1 SLOAD PUSH2 0x28E SWAP1 PUSH2 0xA97 JUMP JUMPDEST DUP1 ISZERO PUSH2 0x2DB JUMPI DUP1 PUSH1 0x1F LT PUSH2 0x2B0 JUMPI PUSH2 0x100 DUP1 DUP4 SLOAD DIV MUL DUP4 MSTORE SWAP2 PUSH1 0x20 ADD SWAP2 PUSH2 0x2DB JUMP JUMPDEST DUP3 ADD SWAP2 SWAP1 PUSH1 0x0 MSTORE PUSH1 0x20 PUSH1 0x0 KECCAK256 SWAP1 JUMPDEST DUP2 SLOAD DUP2 MSTORE SWAP1 PUSH1 0x1 ADD SWAP1 PUSH1 0x20 ADD DUP1 DUP4 GT PUSH2 0x2BE JUMPI DUP3 SWAP1 SUB PUSH1 0x1F AND DUP3 ADD SWAP2 JUMPDEST POP POP POP POP POP DUP4 DUP3 DUP2 MLOAD DUP2 LT PUSH2 0x2F3 JUMPI PUSH2 0x2F2 PUSH2 0xBA1 JUMP JUMPDEST JUMPDEST PUSH1 0x20 MUL PUSH1 0x20 ADD ADD DUP2 SWAP1 MSTORE POP PUSH1 0x2 PUSH1 0x0 DUP3 DUP2 MSTORE PUSH1 0x20 ADD SWAP1 DUP2 MSTORE PUSH1 0x20 ADD PUSH1 0x0 KECCAK256 PUSH1 0x2 ADD PUSH1 0x0 SWAP1 SLOAD SWAP1 PUSH2 0x100 EXP SWAP1 DIV PUSH1 0xFF AND DUP3 DUP3 DUP2 MLOAD DUP2 LT PUSH2 0x335 JUMPI PUSH2 0x334 PUSH2 0xBA1 JUMP JUMPDEST JUMPDEST PUSH1 0x20 MUL PUSH1 0x20 ADD ADD SWAP1 ISZERO ISZERO SWAP1 DUP2 ISZERO ISZERO DUP2 MSTORE POP POP DUP1 DUP1 PUSH2 0x352 SWAP1 PUSH2 0xAFA JUMP JUMPDEST SWAP2 POP POP PUSH2 0x201 JUMP JUMPDEST POP DUP3 DUP3 DUP3 SWAP6 POP SWAP6 POP SWAP6 POP POP POP POP SWAP1 SWAP2 SWAP3 JUMP JUMPDEST PUSH1 0x0 PUSH1 0x2 PUSH1 0x0 DUP1 SLOAD DUP2 MSTORE PUSH1 0x20 ADD SWAP1 DUP2 MSTORE PUSH1 0x20 ADD PUSH1 0x0 KECCAK256 SWAP1 POP PUSH1 0x0 DUP1 DUP2 SLOAD DUP1 SWAP3 SWAP2 SWAP1 PUSH2 0x396 SWAP1 PUSH2 0xAFA JUMP JUMPDEST SWAP2 SWAP1 POP SSTORE POP PUSH1 0x0 SLOAD DUP2 PUSH1 0x0 ADD DUP2 SWAP1 SSTORE POP DUP2 DUP2 PUSH1 0x1 ADD SWAP1 DUP1 MLOAD SWAP1 PUSH1 0x20 ADD SWAP1 PUSH2 0x3BE SWAP3 SWAP2 SWAP1 PUSH2 0x4AB JUMP JUMPDEST POP PUSH1 0x0 DUP2 PUSH1 0x2 ADD PUSH1 0x0 PUSH2 0x100 EXP DUP2 SLOAD DUP2 PUSH1 0xFF MUL NOT AND SWAP1 DUP4 ISZERO ISZERO MUL OR SWAP1 SSTORE POP POP POP JUMP JUMPDEST PUSH1 0x1 SLOAD DUP2 JUMP JUMPDEST PUSH1 0x2 PUSH1 0x20 MSTORE DUP1 PUSH1 0x0 MSTORE PUSH1 0x40 PUSH1 0x0 KECCAK256 PUSH1 0x0 SWAP2 POP SWAP1 POP DUP1 PUSH1 0x0 ADD SLOAD SWAP1 DUP1 PUSH1 0x1 ADD DUP1 SLOAD PUSH2 0x40F SWAP1 PUSH2 0xA97 JUMP JUMPDEST DUP1 PUSH1 0x1F ADD PUSH1 0x20 DUP1 SWAP2 DIV MUL PUSH1 0x20 ADD PUSH1 0x40 MLOAD SWAP1 DUP2 ADD PUSH1 0x40 MSTORE DUP1 SWAP3 SWAP2 SWAP1 DUP2 DUP2 MSTORE PUSH1 0x20 ADD DUP3 DUP1 SLOAD PUSH2 0x43B SWAP1 PUSH2 0xA97 JUMP JUMPDEST DUP1 ISZERO PUSH2 0x488 JUMPI DUP1 PUSH1 0x1F LT PUSH2 0x45D JUMPI PUSH2 0x100 DUP1 DUP4 SLOAD DIV MUL DUP4 MSTORE SWAP2 PUSH1 0x20 ADD SWAP2 PUSH2 0x488 JUMP JUMPDEST DUP3 ADD SWAP2 SWAP1 PUSH1 0x0 MSTORE PUSH1 0x20 PUSH1 0x0 KECCAK256 SWAP1 JUMPDEST DUP2 SLOAD DUP2 MSTORE SWAP1 PUSH1 0x1 ADD SWAP1 PUSH1 0x20 ADD DUP1 DUP4 GT PUSH2 0x46B JUMPI DUP3 SWAP1 SUB PUSH1 0x1F AND DUP3 ADD SWAP2 JUMPDEST POP POP POP POP POP SWAP1 DUP1 PUSH1 0x2 ADD PUSH1 0x0 SWAP1 SLOAD SWAP1 PUSH2 0x100 EXP SWAP1 DIV PUSH1 0xFF AND SWAP1 POP DUP4 JUMP JUMPDEST PUSH1 0x0 SLOAD DUP2 JUMP JUMPDEST DUP3 DUP1 SLOAD PUSH2 0x4B7 SWAP1 PUSH2 0xA97 JUMP JUMPDEST SWAP1 PUSH1 0x0 MSTORE PUSH1 0x20 PUSH1 0x0 KECCAK256 SWAP1 PUSH1 0x1F ADD PUSH1 0x20 SWAP1 DIV DUP2 ADD SWAP3 DUP3 PUSH2 0x4D9 JUMPI PUSH1 0x0 DUP6 SSTORE PUSH2 0x520 JUMP JUMPDEST DUP3 PUSH1 0x1F LT PUSH2 0x4F2 JUMPI DUP1 MLOAD PUSH1 0xFF NOT AND DUP4 DUP1 ADD OR DUP6 SSTORE PUSH2 0x520 JUMP JUMPDEST DUP3 DUP1 ADD PUSH1 0x1 ADD DUP6 SSTORE DUP3 ISZERO PUSH2 0x520 JUMPI SWAP2 DUP3 ADD JUMPDEST DUP3 DUP2 GT ISZERO PUSH2 0x51F JUMPI DUP3 MLOAD DUP3 SSTORE SWAP2 PUSH1 0x20 ADD SWAP2 SWAP1 PUSH1 0x1 ADD SWAP1 PUSH2 0x504 JUMP JUMPDEST JUMPDEST POP SWAP1 POP PUSH2 0x52D SWAP2 SWAP1 PUSH2 0x531 JUMP JUMPDEST POP SWAP1 JUMP JUMPDEST JUMPDEST DUP1 DUP3 GT ISZERO PUSH2 0x54A JUMPI PUSH1 0x0 DUP2 PUSH1 0x0 SWAP1 SSTORE POP PUSH1 0x1 ADD PUSH2 0x532 JUMP JUMPDEST POP SWAP1 JUMP JUMPDEST PUSH1 0x0 PUSH2 0x561 PUSH2 0x55C DUP5 PUSH2 0x936 JUMP JUMPDEST PUSH2 0x911 JUMP JUMPDEST SWAP1 POP DUP3 DUP2 MSTORE PUSH1 0x20 DUP2 ADD DUP5 DUP5 DUP5 ADD GT ISZERO PUSH2 0x57D JUMPI PUSH2 0x57C PUSH2 0xC04 JUMP JUMPDEST JUMPDEST PUSH2 0x588 DUP5 DUP3 DUP6 PUSH2 0xA55 JUMP JUMPDEST POP SWAP4 SWAP3 POP POP POP JUMP JUMPDEST PUSH1 0x0 DUP3 PUSH1 0x1F DUP4 ADD SLT PUSH2 0x5A5 JUMPI PUSH2 0x5A4 PUSH2 0xBFF JUMP JUMPDEST JUMPDEST DUP2 CALLDATALOAD PUSH2 0x5B5 DUP5 DUP3 PUSH1 0x20 DUP7 ADD PUSH2 0x54E JUMP JUMPDEST SWAP2 POP POP SWAP3 SWAP2 POP POP JUMP JUMPDEST PUSH1 0x0 DUP2 CALLDATALOAD SWAP1 POP PUSH2 0x5CD DUP2 PUSH2 0xC24 JUMP JUMPDEST SWAP3 SWAP2 POP POP JUMP JUMPDEST PUSH1 0x0 PUSH1 0x20 DUP3 DUP5 SUB SLT ISZERO PUSH2 0x5E9 JUMPI PUSH2 0x5E8 PUSH2 0xC0E JUMP JUMPDEST JUMPDEST PUSH1 0x0 DUP3 ADD CALLDATALOAD PUSH8 0xFFFFFFFFFFFFFFFF DUP2 GT ISZERO PUSH2 0x607 JUMPI PUSH2 0x606 PUSH2 0xC09 JUMP JUMPDEST JUMPDEST PUSH2 0x613 DUP5 DUP3 DUP6 ADD PUSH2 0x590 JUMP JUMPDEST SWAP2 POP POP SWAP3 SWAP2 POP POP JUMP JUMPDEST PUSH1 0x0 PUSH1 0x20 DUP3 DUP5 SUB SLT ISZERO PUSH2 0x632 JUMPI PUSH2 0x631 PUSH2 0xC0E JUMP JUMPDEST JUMPDEST PUSH1 0x0 PUSH2 0x640 DUP5 DUP3 DUP6 ADD PUSH2 0x5BE JUMP JUMPDEST SWAP2 POP POP SWAP3 SWAP2 POP POP JUMP JUMPDEST PUSH1 0x0 PUSH2 0x655 DUP4 DUP4 PUSH2 0x7BE JUMP JUMPDEST PUSH1 0x20 DUP4 ADD SWAP1 POP SWAP3 SWAP2 POP POP JUMP JUMPDEST PUSH1 0x0 PUSH2 0x66D DUP4 DUP4 PUSH2 0x7DC JUMP JUMPDEST SWAP1 POP SWAP3 SWAP2 POP POP JUMP JUMPDEST PUSH1 0x0 PUSH2 0x681 DUP4 DUP4 PUSH2 0x84E JUMP JUMPDEST PUSH1 0x20 DUP4 ADD SWAP1 POP SWAP3 SWAP2 POP POP JUMP JUMPDEST PUSH1 0x0 PUSH2 0x698 DUP3 PUSH2 0x997 JUMP JUMPDEST PUSH2 0x6A2 DUP2 DUP6 PUSH2 0x9EA JUMP JUMPDEST SWAP4 POP PUSH2 0x6AD DUP4 PUSH2 0x967 JUMP JUMPDEST DUP1 PUSH1 0x0 JUMPDEST DUP4 DUP2 LT ISZERO PUSH2 0x6DE JUMPI DUP2 MLOAD PUSH2 0x6C5 DUP9 DUP3 PUSH2 0x649 JUMP JUMPDEST SWAP8 POP PUSH2 0x6D0 DUP4 PUSH2 0x9C3 JUMP JUMPDEST SWAP3 POP POP PUSH1 0x1 DUP2 ADD SWAP1 POP PUSH2 0x6B1 JUMP JUMPDEST POP DUP6 SWAP4 POP POP POP POP SWAP3 SWAP2 POP POP JUMP JUMPDEST PUSH1 0x0 PUSH2 0x6F6 DUP3 PUSH2 0x9A2 JUMP JUMPDEST PUSH2 0x700 DUP2 DUP6 PUSH2 0x9FB JUMP JUMPDEST SWAP4 POP DUP4 PUSH1 0x20 DUP3 MUL DUP6 ADD PUSH2 0x712 DUP6 PUSH2 0x977 JUMP JUMPDEST DUP1 PUSH1 0x0 JUMPDEST DUP6 DUP2 LT ISZERO PUSH2 0x74E JUMPI DUP5 DUP5 SUB DUP10 MSTORE DUP2 MLOAD PUSH2 0x72F DUP6 DUP3 PUSH2 0x661 JUMP JUMPDEST SWAP5 POP PUSH2 0x73A DUP4 PUSH2 0x9D0 JUMP JUMPDEST SWAP3 POP PUSH1 0x20 DUP11 ADD SWAP10 POP POP PUSH1 0x1 DUP2 ADD SWAP1 POP PUSH2 0x716 JUMP JUMPDEST POP DUP3 SWAP8 POP DUP8 SWAP6 POP POP POP POP POP POP SWAP3 SWAP2 POP POP JUMP JUMPDEST PUSH1 0x0 PUSH2 0x76B DUP3 PUSH2 0x9AD JUMP JUMPDEST PUSH2 0x775 DUP2 DUP6 PUSH2 0xA0C JUMP JUMPDEST SWAP4 POP PUSH2 0x780 DUP4 PUSH2 0x987 JUMP JUMPDEST DUP1 PUSH1 0x0 JUMPDEST DUP4 DUP2 LT ISZERO PUSH2 0x7B1 JUMPI DUP2 MLOAD PUSH2 0x798 DUP9 DUP3 PUSH2 0x675 JUMP JUMPDEST SWAP8 POP PUSH2 0x7A3 DUP4 PUSH2 0x9DD JUMP JUMPDEST SWAP3 POP POP PUSH1 0x1 DUP2 ADD SWAP1 POP PUSH2 0x784 JUMP JUMPDEST POP DUP6 SWAP4 POP POP POP POP SWAP3 SWAP2 POP POP JUMP JUMPDEST PUSH2 0x7C7 DUP2 PUSH2 0xA3F JUMP JUMPDEST DUP3 MSTORE POP POP JUMP JUMPDEST PUSH2 0x7D6 DUP2 PUSH2 0xA3F JUMP JUMPDEST DUP3 MSTORE POP POP JUMP JUMPDEST PUSH1 0x0 PUSH2 0x7E7 DUP3 PUSH2 0x9B8 JUMP JUMPDEST PUSH2 0x7F1 DUP2 DUP6 PUSH2 0xA1D JUMP JUMPDEST SWAP4 POP PUSH2 0x801 DUP2 DUP6 PUSH1 0x20 DUP7 ADD PUSH2 0xA64 JUMP JUMPDEST PUSH2 0x80A DUP2 PUSH2 0xC13 JUMP JUMPDEST DUP5 ADD SWAP2 POP POP SWAP3 SWAP2 POP POP JUMP JUMPDEST PUSH1 0x0 PUSH2 0x820 DUP3 PUSH2 0x9B8 JUMP JUMPDEST PUSH2 0x82A DUP2 DUP6 PUSH2 0xA2E JUMP JUMPDEST SWAP4 POP PUSH2 0x83A DUP2 DUP6 PUSH1 0x20 DUP7 ADD PUSH2 0xA64 JUMP JUMPDEST PUSH2 0x843 DUP2 PUSH2 0xC13 JUMP JUMPDEST DUP5 ADD SWAP2 POP POP SWAP3 SWAP2 POP POP JUMP JUMPDEST PUSH2 0x857 DUP2 PUSH2 0xA4B JUMP JUMPDEST DUP3 MSTORE POP POP JUMP JUMPDEST PUSH2 0x866 DUP2 PUSH2 0xA4B JUMP JUMPDEST DUP3 MSTORE POP POP JUMP JUMPDEST PUSH1 0x0 PUSH1 0x60 DUP3 ADD SWAP1 POP DUP2 DUP2 SUB PUSH1 0x0 DUP4 ADD MSTORE PUSH2 0x886 DUP2 DUP7 PUSH2 0x760 JUMP JUMPDEST SWAP1 POP DUP2 DUP2 SUB PUSH1 0x20 DUP4 ADD MSTORE PUSH2 0x89A DUP2 DUP6 PUSH2 0x6EB JUMP JUMPDEST SWAP1 POP DUP2 DUP2 SUB PUSH1 0x40 DUP4 ADD MSTORE PUSH2 0x8AE DUP2 DUP5 PUSH2 0x68D JUMP JUMPDEST SWAP1 POP SWAP5 SWAP4 POP POP POP POP JUMP JUMPDEST PUSH1 0x0 PUSH1 0x20 DUP3 ADD SWAP1 POP PUSH2 0x8CD PUSH1 0x0 DUP4 ADD DUP5 PUSH2 0x85D JUMP JUMPDEST SWAP3 SWAP2 POP POP JUMP JUMPDEST PUSH1 0x0 PUSH1 0x60 DUP3 ADD SWAP1 POP PUSH2 0x8E8 PUSH1 0x0 DUP4 ADD DUP7 PUSH2 0x85D JUMP JUMPDEST DUP2 DUP2 SUB PUSH1 0x20 DUP4 ADD MSTORE PUSH2 0x8FA DUP2 DUP6 PUSH2 0x815 JUMP JUMPDEST SWAP1 POP PUSH2 0x909 PUSH1 0x40 DUP4 ADD DUP5 PUSH2 0x7CD JUMP JUMPDEST SWAP5 SWAP4 POP POP POP POP JUMP JUMPDEST PUSH1 0x0 PUSH2 0x91B PUSH2 0x92C JUMP JUMPDEST SWAP1 POP PUSH2 0x927 DUP3 DUP3 PUSH2 0xAC9 JUMP JUMPDEST SWAP2 SWAP1 POP JUMP JUMPDEST PUSH1 0x0 PUSH1 0x40 MLOAD SWAP1 POP SWAP1 JUMP JUMPDEST PUSH1 0x0 PUSH8 0xFFFFFFFFFFFFFFFF DUP3 GT ISZERO PUSH2 0x951 JUMPI PUSH2 0x950 PUSH2 0xBD0 JUMP JUMPDEST JUMPDEST PUSH2 0x95A DUP3 PUSH2 0xC13 JUMP JUMPDEST SWAP1 POP PUSH1 0x20 DUP2 ADD SWAP1 POP SWAP2 SWAP1 POP JUMP JUMPDEST PUSH1 0x0 DUP2 SWAP1 POP PUSH1 0x20 DUP3 ADD SWAP1 POP SWAP2 SWAP1 POP JUMP JUMPDEST PUSH1 0x0 DUP2 SWAP1 POP PUSH1 0x20 DUP3 ADD SWAP1 POP SWAP2 SWAP1 POP JUMP JUMPDEST PUSH1 0x0 DUP2 SWAP1 POP PUSH1 0x20 DUP3 ADD SWAP1 POP SWAP2 SWAP1 POP JUMP JUMPDEST PUSH1 0x0 DUP2 MLOAD SWAP1 POP SWAP2 SWAP1 POP JUMP JUMPDEST PUSH1 0x0 DUP2 MLOAD SWAP1 POP SWAP2 SWAP1 POP JUMP JUMPDEST PUSH1 0x0 DUP2 MLOAD SWAP1 POP SWAP2 SWAP1 POP JUMP JUMPDEST PUSH1 0x0 DUP2 MLOAD SWAP1 POP SWAP2 SWAP1 POP JUMP JUMPDEST PUSH1 0x0 PUSH1 0x20 DUP3 ADD SWAP1 POP SWAP2 SWAP1 POP JUMP JUMPDEST PUSH1 0x0 PUSH1 0x20 DUP3 ADD SWAP1 POP SWAP2 SWAP1 POP JUMP JUMPDEST PUSH1 0x0 PUSH1 0x20 DUP3 ADD SWAP1 POP SWAP2 SWAP1 POP JUMP JUMPDEST PUSH1 0x0 DUP3 DUP3 MSTORE PUSH1 0x20 DUP3 ADD SWAP1 POP SWAP3 SWAP2 POP POP JUMP JUMPDEST PUSH1 0x0 DUP3 DUP3 MSTORE PUSH1 0x20 DUP3 ADD SWAP1 POP SWAP3 SWAP2 POP POP JUMP JUMPDEST PUSH1 0x0 DUP3 DUP3 MSTORE PUSH1 0x20 DUP3 ADD SWAP1 POP SWAP3 SWAP2 POP POP JUMP JUMPDEST PUSH1 0x0 DUP3 DUP3 MSTORE PUSH1 0x20 DUP3 ADD SWAP1 POP SWAP3 SWAP2 POP POP JUMP JUMPDEST PUSH1 0x0 DUP3 DUP3 MSTORE PUSH1 0x20 DUP3 ADD SWAP1 POP SWAP3 SWAP2 POP POP JUMP JUMPDEST PUSH1 0x0 DUP2 ISZERO ISZERO SWAP1 POP SWAP2 SWAP1 POP JUMP JUMPDEST PUSH1 0x0 DUP2 SWAP1 POP SWAP2 SWAP1 POP JUMP JUMPDEST DUP3 DUP2 DUP4 CALLDATACOPY PUSH1 0x0 DUP4 DUP4 ADD MSTORE POP POP POP JUMP JUMPDEST PUSH1 0x0 JUMPDEST DUP4 DUP2 LT ISZERO PUSH2 0xA82 JUMPI DUP1 DUP3 ADD MLOAD DUP2 DUP5 ADD MSTORE PUSH1 0x20 DUP2 ADD SWAP1 POP PUSH2 0xA67 JUMP JUMPDEST DUP4 DUP2 GT ISZERO PUSH2 0xA91 JUMPI PUSH1 0x0 DUP5 DUP5 ADD MSTORE JUMPDEST POP POP POP POP JUMP JUMPDEST PUSH1 0x0 PUSH1 0x2 DUP3 DIV SWAP1 POP PUSH1 0x1 DUP3 AND DUP1 PUSH2 0xAAF JUMPI PUSH1 0x7F DUP3 AND SWAP2 POP JUMPDEST PUSH1 0x20 DUP3 LT DUP2 EQ ISZERO PUSH2 0xAC3 JUMPI PUSH2 0xAC2 PUSH2 0xB72 JUMP JUMPDEST JUMPDEST POP SWAP2 SWAP1 POP JUMP JUMPDEST PUSH2 0xAD2 DUP3 PUSH2 0xC13 JUMP JUMPDEST DUP2 ADD DUP2 DUP2 LT PUSH8 0xFFFFFFFFFFFFFFFF DUP3 GT OR ISZERO PUSH2 0xAF1 JUMPI PUSH2 0xAF0 PUSH2 0xBD0 JUMP JUMPDEST JUMPDEST DUP1 PUSH1 0x40 MSTORE POP POP POP JUMP JUMPDEST PUSH1 0x0 PUSH2 0xB05 DUP3 PUSH2 0xA4B JUMP JUMPDEST SWAP2 POP PUSH32 0xFFFFFFFFFFFFFFFFFFFFFFFFFFFFFFFFFFFFFFFFFFFFFFFFFFFFFFFFFFFFFFFF DUP3 EQ ISZERO PUSH2 0xB38 JUMPI PUSH2 0xB37 PUSH2 0xB43 JUMP JUMPDEST JUMPDEST PUSH1 0x1 DUP3 ADD SWAP1 POP SWAP2 SWAP1 POP JUMP JUMPDEST PUSH32 0x4E487B7100000000000000000000000000000000000000000000000000000000 PUSH1 0x0 MSTORE PUSH1 0x11 PUSH1 0x4 MSTORE PUSH1 0x24 PUSH1 0x0 REVERT JUMPDEST PUSH32 0x4E487B7100000000000000000000000000000000000000000000000000000000 PUSH1 0x0 MSTORE PUSH1 0x22 PUSH1 0x4 MSTORE PUSH1 0x24 PUSH1 0x0 REVERT JUMPDEST PUSH32 0x4E487B7100000000000000000000000000000000000000000000000000000000 PUSH1 0x0 MSTORE PUSH1 0x32 PUSH1 0x4 MSTORE PUSH1 0x24 PUSH1 0x0 REVERT JUMPDEST PUSH32 0x4E487B7100000000000000000000000000000000000000000000000000000000 PUSH1 0x0 MSTORE PUSH1 0x41 PUSH1 0x4 MSTORE PUSH1 0x24 PUSH1 0x0 REVERT JUMPDEST PUSH1 0x0 DUP1 REVERT JUMPDEST PUSH1 0x0 DUP1 REVERT JUMPDEST PUSH1 0x0 DUP1 REVERT JUMPDEST PUSH1 0x0 DUP1 REVERT JUMPDEST PUSH1 0x0 PUSH1 0x1F NOT PUSH1 0x1F DUP4 ADD AND SWAP1 POP SWAP2 SWAP1 POP JUMP JUMPDEST PUSH2 0xC2D DUP2 PUSH2 0xA4B JUMP JUMPDEST DUP2 EQ PUSH2 0xC38 JUMPI PUSH1 0x0 DUP1 REVERT JUMPDEST POP JUMP INVALID LOG2 PUSH5 0x6970667358 0x22 SLT KECCAK256 0x22 JUMPDEST PUSH7 0x5245CE40E94E46 BALANCE SLOAD CREATE2 0xDA 0xCE 0xC0 0xC3 0xA6 PUSH24 0x22D7337DDB01BD429BAC7B5E5D64736F6C63430008070033 "
				},
				"gasEstimates": {
					"creation": {
						"codeDepositCost": "637000",
						"executionCost": "22776",
						"totalCost": "659776"
					},
					"external": {
						"Task_Details(uint256)": "infinite",
						"TodoListNumber()": "2495",
						"controlNum()": "2451",
						"createToDo(string)": "infinite",
						"returnAllList()": "infinite"
					}
				},
				"methodIdentifiers": {
					"Task_Details(uint256)": "a1dbe017",
					"TodoListNumber()": "a25b79ca",
					"controlNum()": "9e96b1d2",
					"createToDo(string)": "60cf802f",
					"returnAllList()": "3b359d53"
				}
			},
			"storageLayout": {
				"storage": [
					{
						"astId": 3,
						"contract": "contracts/TodoList.sol:TodoList",
						"label": "TodoListNumber",
						"offset": 0,
						"slot": "0",
						"type": "t_uint256"
					},
					{
						"astId": 6,
						"contract": "contracts/TodoList.sol:TodoList",
						"label": "controlNum",
						"offset": 0,
						"slot": "1",
						"type": "t_uint256"
					},
					{
						"astId": 18,
						"contract": "contracts/TodoList.sol:TodoList",
						"label": "Task_Details",
						"offset": 0,
						"slot": "2",
						"type": "t_mapping(t_uint256,t_struct(TaskDetails)13_storage)"
					}
				],
				"types": {
					"t_bool": {
						"encoding": "inplace",
						"label": "bool",
						"numberOfBytes": "1"
					},
					"t_mapping(t_uint256,t_struct(TaskDetails)13_storage)": {
						"encoding": "mapping",
						"key": "t_uint256",
						"label": "mapping(uint256 => struct TodoList.TaskDetails)",
						"numberOfBytes": "32",
						"value": "t_struct(TaskDetails)13_storage"
					},
					"t_string_storage": {
						"encoding": "bytes",
						"label": "string",
						"numberOfBytes": "32"
					},
					"t_struct(TaskDetails)13_storage": {
						"encoding": "inplace",
						"label": "struct TodoList.TaskDetails",
						"members": [
							{
								"astId": 8,
								"contract": "contracts/TodoList.sol:TodoList",
								"label": "id",
								"offset": 0,
								"slot": "0",
								"type": "t_uint256"
							},
							{
								"astId": 10,
								"contract": "contracts/TodoList.sol:TodoList",
								"label": "details",
								"offset": 0,
								"slot": "1",
								"type": "t_string_storage"
							},
							{
								"astId": 12,
								"contract": "contracts/TodoList.sol:TodoList",
								"label": "status",
								"offset": 0,
								"slot": "2",
								"type": "t_bool"
							}
						],
						"numberOfBytes": "96"
					},
					"t_uint256": {
						"encoding": "inplace",
						"label": "uint256",
						"numberOfBytes": "32"
					}
				}
			},
			"userdoc": {
				"kind": "user",
				"methods": {},
				"version": 1
			}
		}
	}
}