{
	"contracts/Auctionsol.sol": {
		"Lottery": {
			"abi": [
				{
					"inputs": [],
					"stateMutability": "nonpayable",
					"type": "constructor"
				},
				{
					"inputs": [],
					"name": "auctionState",
					"outputs": [
						{
							"internalType": "enum Lottery.State",
							"name": "",
							"type": "uint8"
						}
					],
					"stateMutability": "view",
					"type": "function"
				},
				{
					"inputs": [],
					"name": "bidIncrement",
					"outputs": [
						{
							"internalType": "uint256",
							"name": "",
							"type": "uint256"
						}
					],
					"stateMutability": "view",
					"type": "function"
				},
				{
					"inputs": [
						{
							"internalType": "address",
							"name": "",
							"type": "address"
						}
					],
					"name": "bidsMap",
					"outputs": [
						{
							"internalType": "uint256",
							"name": "",
							"type": "uint256"
						}
					],
					"stateMutability": "view",
					"type": "function"
				},
				{
					"inputs": [],
					"name": "endBlock",
					"outputs": [
						{
							"internalType": "uint256",
							"name": "",
							"type": "uint256"
						}
					],
					"stateMutability": "view",
					"type": "function"
				},
				{
					"inputs": [],
					"name": "higestBindingBid",
					"outputs": [
						{
							"internalType": "uint256",
							"name": "",
							"type": "uint256"
						}
					],
					"stateMutability": "view",
					"type": "function"
				},
				{
					"inputs": [],
					"name": "highestBidder",
					"outputs": [
						{
							"internalType": "address payable",
							"name": "",
							"type": "address"
						}
					],
					"stateMutability": "view",
					"type": "function"
				},
				{
					"inputs": [],
					"name": "ipfsHash",
					"outputs": [
						{
							"internalType": "string",
							"name": "",
							"type": "string"
						}
					],
					"stateMutability": "view",
					"type": "function"
				},
				{
					"inputs": [],
					"name": "makeABid",
					"outputs": [],
					"stateMutability": "payable",
					"type": "function"
				},
				{
					"inputs": [],
					"name": "owner",
					"outputs": [
						{
							"internalType": "address payable",
							"name": "",
							"type": "address"
						}
					],
					"stateMutability": "view",
					"type": "function"
				},
				{
					"inputs": [],
					"name": "startBlock",
					"outputs": [
						{
							"internalType": "uint256",
							"name": "",
							"type": "uint256"
						}
					],
					"stateMutability": "view",
					"type": "function"
				}
			],
			"devdoc": {
				"kind": "dev",
				"methods": {},
				"version": 1
			},
			"evm": {
				"assembly": "    /* \"contracts/Auctionsol.sol\":74:1223  contract Lottery{\r... */\n  mstore(0x40, 0x80)\n    /* \"contracts/Auctionsol.sol\":527:754  constructor(){\r... */\n  callvalue\n  dup1\n  iszero\n  tag_1\n  jumpi\n  0x00\n  dup1\n  revert\ntag_1:\n  pop\n    /* \"contracts/Auctionsol.sol\":567:577  msg.sender */\n  caller\n    /* \"contracts/Auctionsol.sol\":551:556  owner */\n  0x01\n  0x00\n    /* \"contracts/Auctionsol.sol\":551:578  owner = payable(msg.sender) */\n  0x0100\n  exp\n  dup2\n  sload\n  dup2\n  0xffffffffffffffffffffffffffffffffffffffff\n  mul\n  not\n  and\n  swap1\n  dup4\n  0xffffffffffffffffffffffffffffffffffffffff\n  and\n  mul\n  or\n  swap1\n  sstore\n  pop\n    /* \"contracts/Auctionsol.sol\":604:607  100 */\n  0x64\n    /* \"contracts/Auctionsol.sol\":589:601  bidIncrement */\n  0x04\n    /* \"contracts/Auctionsol.sol\":589:607  bidIncrement = 100 */\n  dup2\n  swap1\n  sstore\n  pop\n    /* \"contracts/Auctionsol.sol\":633:646  State.Running */\n  0x01\n    /* \"contracts/Auctionsol.sol\":618:630  auctionState */\n  0x07\n  0x00\n    /* \"contracts/Auctionsol.sol\":618:646  auctionState = State.Running */\n  0x0100\n  exp\n  dup2\n  sload\n  dup2\n  0xff\n  mul\n  not\n  and\n  swap1\n  dup4\n  0x03\n  dup2\n  gt\n  iszero\n  tag_4\n  jumpi\n  tag_5\n  tag_6\n  jump\t// in\ntag_5:\ntag_4:\n  mul\n  or\n  swap1\n  sstore\n  pop\n    /* \"contracts/Auctionsol.sol\":659:672  ipfsHash = '' */\n  mload(0x40)\n  dup1\n  0x20\n  add\n  0x40\n  mstore\n  dup1\n  0x00\n  dup2\n  mstore\n  pop\n    /* \"contracts/Auctionsol.sol\":659:667  ipfsHash */\n  0x08\n    /* \"contracts/Auctionsol.sol\":659:672  ipfsHash = '' */\n  swap1\n  dup1\n  mload\n  swap1\n  0x20\n  add\n  swap1\n  tag_7\n  swap3\n  swap2\n  swap1\n  tag_8\n  jump\t// in\ntag_7:\n  pop\n    /* \"contracts/Auctionsol.sol\":698:710  block.number */\n  number\n    /* \"contracts/Auctionsol.sol\":685:695  startBlock */\n  0x05\n    /* \"contracts/Auctionsol.sol\":685:710  startBlock = block.number */\n  dup2\n  swap1\n  sstore\n  pop\n    /* \"contracts/Auctionsol.sol\":745:746  3 */\n  0x03\n    /* \"contracts/Auctionsol.sol\":732:742  startBlock */\n  sload(0x05)\n    /* \"contracts/Auctionsol.sol\":732:746  startBlock + 3 */\n  tag_9\n  swap2\n  swap1\n  tag_10\n  jump\t// in\ntag_9:\n    /* \"contracts/Auctionsol.sol\":721:729  endBlock */\n  0x06\n    /* \"contracts/Auctionsol.sol\":721:746  endBlock = startBlock + 3 */\n  dup2\n  swap1\n  sstore\n  pop\n    /* \"contracts/Auctionsol.sol\":74:1223  contract Lottery{\r... */\n  jump(tag_11)\ntag_8:\n  dup3\n  dup1\n  sload\n  tag_12\n  swap1\n  tag_13\n  jump\t// in\ntag_12:\n  swap1\n  0x00\n  mstore\n  keccak256(0x00, 0x20)\n  swap1\n  0x1f\n  add\n  0x20\n  swap1\n  div\n  dup2\n  add\n  swap3\n  dup3\n  tag_15\n  jumpi\n  0x00\n  dup6\n  sstore\n  jump(tag_14)\ntag_15:\n  dup3\n  0x1f\n  lt\n  tag_16\n  jumpi\n  dup1\n  mload\n  not(0xff)\n  and\n  dup4\n  dup1\n  add\n  or\n  dup6\n  sstore\n  jump(tag_14)\ntag_16:\n  dup3\n  dup1\n  add\n  0x01\n  add\n  dup6\n  sstore\n  dup3\n  iszero\n  tag_14\n  jumpi\n  swap2\n  dup3\n  add\ntag_17:\n  dup3\n  dup2\n  gt\n  iszero\n  tag_18\n  jumpi\n  dup3\n  mload\n  dup3\n  sstore\n  swap2\n  0x20\n  add\n  swap2\n  swap1\n  0x01\n  add\n  swap1\n  jump(tag_17)\ntag_18:\ntag_14:\n  pop\n  swap1\n  pop\n  tag_19\n  swap2\n  swap1\n  tag_20\n  jump\t// in\ntag_19:\n  pop\n  swap1\n  jump\t// out\ntag_20:\ntag_21:\n  dup1\n  dup3\n  gt\n  iszero\n  tag_22\n  jumpi\n  0x00\n  dup2\n  0x00\n  swap1\n  sstore\n  pop\n  0x01\n  add\n  jump(tag_21)\ntag_22:\n  pop\n  swap1\n  jump\t// out\n    /* \"#utility.yul\":7:312   */\ntag_10:\n    /* \"#utility.yul\":47:50   */\n  0x00\n    /* \"#utility.yul\":66:86   */\n  tag_25\n    /* \"#utility.yul\":84:85   */\n  dup3\n    /* \"#utility.yul\":66:86   */\n  tag_26\n  jump\t// in\ntag_25:\n    /* \"#utility.yul\":61:86   */\n  swap2\n  pop\n    /* \"#utility.yul\":100:120   */\n  tag_27\n    /* \"#utility.yul\":118:119   */\n  dup4\n    /* \"#utility.yul\":100:120   */\n  tag_26\n  jump\t// in\ntag_27:\n    /* \"#utility.yul\":95:120   */\n  swap3\n  pop\n    /* \"#utility.yul\":254:255   */\n  dup3\n    /* \"#utility.yul\":186:252   */\n  0xffffffffffffffffffffffffffffffffffffffffffffffffffffffffffffffff\n    /* \"#utility.yul\":182:256   */\n  sub\n    /* \"#utility.yul\":179:180   */\n  dup3\n    /* \"#utility.yul\":176:257   */\n  gt\n    /* \"#utility.yul\":173:280   */\n  iszero\n  tag_28\n  jumpi\n    /* \"#utility.yul\":260:278   */\n  tag_29\n  tag_30\n  jump\t// in\ntag_29:\n    /* \"#utility.yul\":173:280   */\ntag_28:\n    /* \"#utility.yul\":304:305   */\n  dup3\n    /* \"#utility.yul\":301:302   */\n  dup3\n    /* \"#utility.yul\":297:306   */\n  add\n    /* \"#utility.yul\":290:306   */\n  swap1\n  pop\n    /* \"#utility.yul\":7:312   */\n  swap3\n  swap2\n  pop\n  pop\n  jump\t// out\n    /* \"#utility.yul\":318:395   */\ntag_26:\n    /* \"#utility.yul\":355:362   */\n  0x00\n    /* \"#utility.yul\":384:389   */\n  dup2\n    /* \"#utility.yul\":373:389   */\n  swap1\n  pop\n    /* \"#utility.yul\":318:395   */\n  swap2\n  swap1\n  pop\n  jump\t// out\n    /* \"#utility.yul\":401:721   */\ntag_13:\n    /* \"#utility.yul\":445:451   */\n  0x00\n    /* \"#utility.yul\":482:483   */\n  0x02\n    /* \"#utility.yul\":476:480   */\n  dup3\n    /* \"#utility.yul\":472:484   */\n  div\n    /* \"#utility.yul\":462:484   */\n  swap1\n  pop\n    /* \"#utility.yul\":529:530   */\n  0x01\n    /* \"#utility.yul\":523:527   */\n  dup3\n    /* \"#utility.yul\":519:531   */\n  and\n    /* \"#utility.yul\":550:568   */\n  dup1\n    /* \"#utility.yul\":540:621   */\n  tag_33\n  jumpi\n    /* \"#utility.yul\":606:610   */\n  0x7f\n    /* \"#utility.yul\":598:604   */\n  dup3\n    /* \"#utility.yul\":594:611   */\n  and\n    /* \"#utility.yul\":584:611   */\n  swap2\n  pop\n    /* \"#utility.yul\":540:621   */\ntag_33:\n    /* \"#utility.yul\":668:670   */\n  0x20\n    /* \"#utility.yul\":660:666   */\n  dup3\n    /* \"#utility.yul\":657:671   */\n  lt\n    /* \"#utility.yul\":637:655   */\n  dup2\n    /* \"#utility.yul\":634:672   */\n  eq\n    /* \"#utility.yul\":631:715   */\n  iszero\n  tag_34\n  jumpi\n    /* \"#utility.yul\":687:705   */\n  tag_35\n  tag_36\n  jump\t// in\ntag_35:\n    /* \"#utility.yul\":631:715   */\ntag_34:\n    /* \"#utility.yul\":452:721   */\n  pop\n    /* \"#utility.yul\":401:721   */\n  swap2\n  swap1\n  pop\n  jump\t// out\n    /* \"#utility.yul\":727:907   */\ntag_30:\n    /* \"#utility.yul\":775:852   */\n  0x4e487b7100000000000000000000000000000000000000000000000000000000\n    /* \"#utility.yul\":772:773   */\n  0x00\n    /* \"#utility.yul\":765:853   */\n  mstore\n    /* \"#utility.yul\":872:876   */\n  0x11\n    /* \"#utility.yul\":869:870   */\n  0x04\n    /* \"#utility.yul\":862:877   */\n  mstore\n    /* \"#utility.yul\":896:900   */\n  0x24\n    /* \"#utility.yul\":893:894   */\n  0x00\n    /* \"#utility.yul\":886:901   */\n  revert\n    /* \"#utility.yul\":913:1093   */\ntag_6:\n    /* \"#utility.yul\":961:1038   */\n  0x4e487b7100000000000000000000000000000000000000000000000000000000\n    /* \"#utility.yul\":958:959   */\n  0x00\n    /* \"#utility.yul\":951:1039   */\n  mstore\n    /* \"#utility.yul\":1058:1062   */\n  0x21\n    /* \"#utility.yul\":1055:1056   */\n  0x04\n    /* \"#utility.yul\":1048:1063   */\n  mstore\n    /* \"#utility.yul\":1082:1086   */\n  0x24\n    /* \"#utility.yul\":1079:1080   */\n  0x00\n    /* \"#utility.yul\":1072:1087   */\n  revert\n    /* \"#utility.yul\":1099:1279   */\ntag_36:\n    /* \"#utility.yul\":1147:1224   */\n  0x4e487b7100000000000000000000000000000000000000000000000000000000\n    /* \"#utility.yul\":1144:1145   */\n  0x00\n    /* \"#utility.yul\":1137:1225   */\n  mstore\n    /* \"#utility.yul\":1244:1248   */\n  0x22\n    /* \"#utility.yul\":1241:1242   */\n  0x04\n    /* \"#utility.yul\":1234:1249   */\n  mstore\n    /* \"#utility.yul\":1268:1272   */\n  0x24\n    /* \"#utility.yul\":1265:1266   */\n  0x00\n    /* \"#utility.yul\":1258:1273   */\n  revert\n    /* \"contracts/Auctionsol.sol\":74:1223  contract Lottery{\r... */\ntag_11:\n  dataSize(sub_0)\n  dup1\n  dataOffset(sub_0)\n  0x00\n  codecopy\n  0x00\n  return\nstop\n\nsub_0: assembly {\n        /* \"contracts/Auctionsol.sol\":74:1223  contract Lottery{\r... */\n      mstore(0x40, 0x80)\n      jumpi(tag_1, lt(calldatasize, 0x04))\n      shr(0xe0, calldataload(0x00))\n      dup1\n      0x91c11f7d\n      gt\n      tag_12\n      jumpi\n      dup1\n      0x91c11f7d\n      eq\n      tag_7\n      jumpi\n      dup1\n      0x91f90157\n      eq\n      tag_8\n      jumpi\n      dup1\n      0xb3cc167a\n      eq\n      tag_9\n      jumpi\n      dup1\n      0xc623674f\n      eq\n      tag_10\n      jumpi\n      dup1\n      0xeb36a479\n      eq\n      tag_11\n      jumpi\n      jump(tag_1)\n    tag_12:\n      dup1\n      0x083c6323\n      eq\n      tag_2\n      jumpi\n      dup1\n      0x48cd4cb1\n      eq\n      tag_3\n      jumpi\n      dup1\n      0x7fb45099\n      eq\n      tag_4\n      jumpi\n      dup1\n      0x8da5cb5b\n      eq\n      tag_5\n      jumpi\n      dup1\n      0x8ee77512\n      eq\n      tag_6\n      jumpi\n    tag_1:\n      0x00\n      dup1\n      revert\n        /* \"contracts/Auctionsol.sol\":338:358  uint public endBlock */\n    tag_2:\n      callvalue\n      dup1\n      iszero\n      tag_13\n      jumpi\n      0x00\n      dup1\n      revert\n    tag_13:\n      pop\n      tag_14\n      tag_15\n      jump\t// in\n    tag_14:\n      mload(0x40)\n      tag_16\n      swap2\n      swap1\n      tag_17\n      jump\t// in\n    tag_16:\n      mload(0x40)\n      dup1\n      swap2\n      sub\n      swap1\n      return\n        /* \"contracts/Auctionsol.sol\":309:331  uint public startBlock */\n    tag_3:\n      callvalue\n      dup1\n      iszero\n      tag_18\n      jumpi\n      0x00\n      dup1\n      revert\n    tag_18:\n      pop\n      tag_19\n      tag_20\n      jump\t// in\n    tag_19:\n      mload(0x40)\n      tag_21\n      swap2\n      swap1\n      tag_17\n      jump\t// in\n    tag_21:\n      mload(0x40)\n      dup1\n      swap2\n      sub\n      swap1\n      return\n        /* \"contracts/Auctionsol.sol\":460:485  State public auctionState */\n    tag_4:\n      callvalue\n      dup1\n      iszero\n      tag_22\n      jumpi\n      0x00\n      dup1\n      revert\n    tag_22:\n      pop\n      tag_23\n      tag_24\n      jump\t// in\n    tag_23:\n      mload(0x40)\n      tag_25\n      swap2\n      swap1\n      tag_26\n      jump\t// in\n    tag_25:\n      mload(0x40)\n      dup1\n      swap2\n      sub\n      swap1\n      return\n        /* \"contracts/Auctionsol.sol\":145:173  address payable public owner */\n    tag_5:\n      callvalue\n      dup1\n      iszero\n      tag_27\n      jumpi\n      0x00\n      dup1\n      revert\n    tag_27:\n      pop\n      tag_28\n      tag_29\n      jump\t// in\n    tag_28:\n      mload(0x40)\n      tag_30\n      swap2\n      swap1\n      tag_31\n      jump\t// in\n    tag_30:\n      mload(0x40)\n      dup1\n      swap2\n      sub\n      swap1\n      return\n        /* \"contracts/Auctionsol.sol\":99:138  mapping(address => uint) public bidsMap */\n    tag_6:\n      callvalue\n      dup1\n      iszero\n      tag_32\n      jumpi\n      0x00\n      dup1\n      revert\n    tag_32:\n      pop\n      tag_33\n      0x04\n      dup1\n      calldatasize\n      sub\n      dup2\n      add\n      swap1\n      tag_34\n      swap2\n      swap1\n      tag_35\n      jump\t// in\n    tag_34:\n      tag_36\n      jump\t// in\n    tag_33:\n      mload(0x40)\n      tag_37\n      swap2\n      swap1\n      tag_17\n      jump\t// in\n    tag_37:\n      mload(0x40)\n      dup1\n      swap2\n      sub\n      swap1\n      return\n        /* \"contracts/Auctionsol.sol\":227:255  uint public higestBindingBid */\n    tag_7:\n      callvalue\n      dup1\n      iszero\n      tag_38\n      jumpi\n      0x00\n      dup1\n      revert\n    tag_38:\n      pop\n      tag_39\n      tag_40\n      jump\t// in\n    tag_39:\n      mload(0x40)\n      tag_41\n      swap2\n      swap1\n      tag_17\n      jump\t// in\n    tag_41:\n      mload(0x40)\n      dup1\n      swap2\n      sub\n      swap1\n      return\n        /* \"contracts/Auctionsol.sol\":184:220  address payable public highestBidder */\n    tag_8:\n      callvalue\n      dup1\n      iszero\n      tag_42\n      jumpi\n      0x00\n      dup1\n      revert\n    tag_42:\n      pop\n      tag_43\n      tag_44\n      jump\t// in\n    tag_43:\n      mload(0x40)\n      tag_45\n      swap2\n      swap1\n      tag_31\n      jump\t// in\n    tag_45:\n      mload(0x40)\n      dup1\n      swap2\n      sub\n      swap1\n      return\n        /* \"contracts/Auctionsol.sol\":262:286  uint public bidIncrement */\n    tag_9:\n      callvalue\n      dup1\n      iszero\n      tag_46\n      jumpi\n      0x00\n      dup1\n      revert\n    tag_46:\n      pop\n      tag_47\n      tag_48\n      jump\t// in\n    tag_47:\n      mload(0x40)\n      tag_49\n      swap2\n      swap1\n      tag_17\n      jump\t// in\n    tag_49:\n      mload(0x40)\n      dup1\n      swap2\n      sub\n      swap1\n      return\n        /* \"contracts/Auctionsol.sol\":494:516  string public ipfsHash */\n    tag_10:\n      callvalue\n      dup1\n      iszero\n      tag_50\n      jumpi\n      0x00\n      dup1\n      revert\n    tag_50:\n      pop\n      tag_51\n      tag_52\n      jump\t// in\n    tag_51:\n      mload(0x40)\n      tag_53\n      swap2\n      swap1\n      tag_54\n      jump\t// in\n    tag_53:\n      mload(0x40)\n      dup1\n      swap2\n      sub\n      swap1\n      return\n        /* \"contracts/Auctionsol.sol\":1144:1218  function makeABid() payable public notOwner afterStart beforeEnd{\r... */\n    tag_11:\n      tag_55\n      tag_56\n      jump\t// in\n    tag_55:\n      stop\n        /* \"contracts/Auctionsol.sol\":338:358  uint public endBlock */\n    tag_15:\n      sload(0x06)\n      dup2\n      jump\t// out\n        /* \"contracts/Auctionsol.sol\":309:331  uint public startBlock */\n    tag_20:\n      sload(0x05)\n      dup2\n      jump\t// out\n        /* \"contracts/Auctionsol.sol\":460:485  State public auctionState */\n    tag_24:\n      0x07\n      0x00\n      swap1\n      sload\n      swap1\n      0x0100\n      exp\n      swap1\n      div\n      0xff\n      and\n      dup2\n      jump\t// out\n        /* \"contracts/Auctionsol.sol\":145:173  address payable public owner */\n    tag_29:\n      0x01\n      0x00\n      swap1\n      sload\n      swap1\n      0x0100\n      exp\n      swap1\n      div\n      0xffffffffffffffffffffffffffffffffffffffff\n      and\n      dup2\n      jump\t// out\n        /* \"contracts/Auctionsol.sol\":99:138  mapping(address => uint) public bidsMap */\n    tag_36:\n      mstore(0x20, 0x00)\n      dup1\n      0x00\n      mstore\n      keccak256(0x00, 0x40)\n      0x00\n      swap2\n      pop\n      swap1\n      pop\n      sload\n      dup2\n      jump\t// out\n        /* \"contracts/Auctionsol.sol\":227:255  uint public higestBindingBid */\n    tag_40:\n      sload(0x03)\n      dup2\n      jump\t// out\n        /* \"contracts/Auctionsol.sol\":184:220  address payable public highestBidder */\n    tag_44:\n      0x02\n      0x00\n      swap1\n      sload\n      swap1\n      0x0100\n      exp\n      swap1\n      div\n      0xffffffffffffffffffffffffffffffffffffffff\n      and\n      dup2\n      jump\t// out\n        /* \"contracts/Auctionsol.sol\":262:286  uint public bidIncrement */\n    tag_48:\n      sload(0x04)\n      dup2\n      jump\t// out\n        /* \"contracts/Auctionsol.sol\":494:516  string public ipfsHash */\n    tag_52:\n      0x08\n      dup1\n      sload\n      tag_57\n      swap1\n      tag_58\n      jump\t// in\n    tag_57:\n      dup1\n      0x1f\n      add\n      0x20\n      dup1\n      swap2\n      div\n      mul\n      0x20\n      add\n      mload(0x40)\n      swap1\n      dup2\n      add\n      0x40\n      mstore\n      dup1\n      swap3\n      swap2\n      swap1\n      dup2\n      dup2\n      mstore\n      0x20\n      add\n      dup3\n      dup1\n      sload\n      tag_59\n      swap1\n      tag_58\n      jump\t// in\n    tag_59:\n      dup1\n      iszero\n      tag_60\n      jumpi\n      dup1\n      0x1f\n      lt\n      tag_61\n      jumpi\n      0x0100\n      dup1\n      dup4\n      sload\n      div\n      mul\n      dup4\n      mstore\n      swap2\n      0x20\n      add\n      swap2\n      jump(tag_60)\n    tag_61:\n      dup3\n      add\n      swap2\n      swap1\n      0x00\n      mstore\n      keccak256(0x00, 0x20)\n      swap1\n    tag_62:\n      dup2\n      sload\n      dup2\n      mstore\n      swap1\n      0x01\n      add\n      swap1\n      0x20\n      add\n      dup1\n      dup4\n      gt\n      tag_62\n      jumpi\n      dup3\n      swap1\n      sub\n      0x1f\n      and\n      dup3\n      add\n      swap2\n    tag_60:\n      pop\n      pop\n      pop\n      pop\n      pop\n      dup2\n      jump\t// out\n        /* \"contracts/Auctionsol.sol\":1144:1218  function makeABid() payable public notOwner afterStart beforeEnd{\r... */\n    tag_56:\n        /* \"contracts/Auctionsol.sol\":815:820  owner */\n      0x01\n      0x00\n      swap1\n      sload\n      swap1\n      0x0100\n      exp\n      swap1\n      div\n      0xffffffffffffffffffffffffffffffffffffffff\n      and\n        /* \"contracts/Auctionsol.sol\":801:820  msg.sender != owner */\n      0xffffffffffffffffffffffffffffffffffffffff\n      and\n        /* \"contracts/Auctionsol.sol\":801:811  msg.sender */\n      caller\n        /* \"contracts/Auctionsol.sol\":801:820  msg.sender != owner */\n      0xffffffffffffffffffffffffffffffffffffffff\n      and\n      eq\n      iszero\n        /* \"contracts/Auctionsol.sol\":793:858  require(msg.sender != owner, \"Bids can only be placed by owners\") */\n      tag_64\n      jumpi\n      mload(0x40)\n      0x08c379a000000000000000000000000000000000000000000000000000000000\n      dup2\n      mstore\n      0x04\n      add\n      tag_65\n      swap1\n      tag_66\n      jump\t// in\n    tag_65:\n      mload(0x40)\n      dup1\n      swap2\n      sub\n      swap1\n      revert\n    tag_64:\n        /* \"contracts/Auctionsol.sol\":943:953  startBlock */\n      sload(0x05)\n        /* \"contracts/Auctionsol.sol\":927:939  block.number */\n      number\n        /* \"contracts/Auctionsol.sol\":927:953  block.number >= startBlock */\n      lt\n      iszero\n        /* \"contracts/Auctionsol.sol\":919:995  require(block.number >= startBlock, \"Auction cannot be played at this time\") */\n      tag_68\n      jumpi\n      mload(0x40)\n      0x08c379a000000000000000000000000000000000000000000000000000000000\n      dup2\n      mstore\n      0x04\n      add\n      tag_69\n      swap1\n      tag_70\n      jump\t// in\n    tag_69:\n      mload(0x40)\n      dup1\n      swap2\n      sub\n      swap1\n      revert\n    tag_68:\n        /* \"contracts/Auctionsol.sol\":1079:1087  endBlock */\n      sload(0x06)\n        /* \"contracts/Auctionsol.sol\":1063:1075  block.number */\n      number\n        /* \"contracts/Auctionsol.sol\":1063:1087  block.number <= endBlock */\n      gt\n      iszero\n        /* \"contracts/Auctionsol.sol\":1055:1116  require(block.number <= endBlock, \"Auction time has elasped\") */\n      tag_72\n      jumpi\n      mload(0x40)\n      0x08c379a000000000000000000000000000000000000000000000000000000000\n      dup2\n      mstore\n      0x04\n      add\n      tag_73\n      swap1\n      tag_74\n      jump\t// in\n    tag_73:\n      mload(0x40)\n      dup1\n      swap2\n      sub\n      swap1\n      revert\n    tag_72:\n        /* \"contracts/Auctionsol.sol\":1144:1218  function makeABid() payable public notOwner afterStart beforeEnd{\r... */\n      jump\t// out\n        /* \"#utility.yul\":7:146   */\n    tag_77:\n        /* \"#utility.yul\":53:58   */\n      0x00\n        /* \"#utility.yul\":91:97   */\n      dup2\n        /* \"#utility.yul\":78:98   */\n      calldataload\n        /* \"#utility.yul\":69:98   */\n      swap1\n      pop\n        /* \"#utility.yul\":107:140   */\n      tag_79\n        /* \"#utility.yul\":134:139   */\n      dup2\n        /* \"#utility.yul\":107:140   */\n      tag_80\n      jump\t// in\n    tag_79:\n        /* \"#utility.yul\":7:146   */\n      swap3\n      swap2\n      pop\n      pop\n      jump\t// out\n        /* \"#utility.yul\":152:481   */\n    tag_35:\n        /* \"#utility.yul\":211:217   */\n      0x00\n        /* \"#utility.yul\":260:262   */\n      0x20\n        /* \"#utility.yul\":248:257   */\n      dup3\n        /* \"#utility.yul\":239:246   */\n      dup5\n        /* \"#utility.yul\":235:258   */\n      sub\n        /* \"#utility.yul\":231:263   */\n      slt\n        /* \"#utility.yul\":228:347   */\n      iszero\n      tag_82\n      jumpi\n        /* \"#utility.yul\":266:345   */\n      tag_83\n      tag_84\n      jump\t// in\n    tag_83:\n        /* \"#utility.yul\":228:347   */\n    tag_82:\n        /* \"#utility.yul\":386:387   */\n      0x00\n        /* \"#utility.yul\":411:464   */\n      tag_85\n        /* \"#utility.yul\":456:463   */\n      dup5\n        /* \"#utility.yul\":447:453   */\n      dup3\n        /* \"#utility.yul\":436:445   */\n      dup6\n        /* \"#utility.yul\":432:454   */\n      add\n        /* \"#utility.yul\":411:464   */\n      tag_77\n      jump\t// in\n    tag_85:\n        /* \"#utility.yul\":401:464   */\n      swap2\n      pop\n        /* \"#utility.yul\":357:474   */\n      pop\n        /* \"#utility.yul\":152:481   */\n      swap3\n      swap2\n      pop\n      pop\n      jump\t// out\n        /* \"#utility.yul\":487:629   */\n    tag_86:\n        /* \"#utility.yul\":590:622   */\n      tag_88\n        /* \"#utility.yul\":616:621   */\n      dup2\n        /* \"#utility.yul\":590:622   */\n      tag_89\n      jump\t// in\n    tag_88:\n        /* \"#utility.yul\":585:588   */\n      dup3\n        /* \"#utility.yul\":578:623   */\n      mstore\n        /* \"#utility.yul\":487:629   */\n      pop\n      pop\n      jump\t// out\n        /* \"#utility.yul\":635:778   */\n    tag_90:\n        /* \"#utility.yul\":728:771   */\n      tag_92\n        /* \"#utility.yul\":765:770   */\n      dup2\n        /* \"#utility.yul\":728:771   */\n      tag_93\n      jump\t// in\n    tag_92:\n        /* \"#utility.yul\":723:726   */\n      dup3\n        /* \"#utility.yul\":716:772   */\n      mstore\n        /* \"#utility.yul\":635:778   */\n      pop\n      pop\n      jump\t// out\n        /* \"#utility.yul\":784:1148   */\n    tag_94:\n        /* \"#utility.yul\":872:875   */\n      0x00\n        /* \"#utility.yul\":900:939   */\n      tag_96\n        /* \"#utility.yul\":933:938   */\n      dup3\n        /* \"#utility.yul\":900:939   */\n      tag_97\n      jump\t// in\n    tag_96:\n        /* \"#utility.yul\":955:1026   */\n      tag_98\n        /* \"#utility.yul\":1019:1025   */\n      dup2\n        /* \"#utility.yul\":1014:1017   */\n      dup6\n        /* \"#utility.yul\":955:1026   */\n      tag_99\n      jump\t// in\n    tag_98:\n        /* \"#utility.yul\":948:1026   */\n      swap4\n      pop\n        /* \"#utility.yul\":1035:1087   */\n      tag_100\n        /* \"#utility.yul\":1080:1086   */\n      dup2\n        /* \"#utility.yul\":1075:1078   */\n      dup6\n        /* \"#utility.yul\":1068:1072   */\n      0x20\n        /* \"#utility.yul\":1061:1066   */\n      dup7\n        /* \"#utility.yul\":1057:1073   */\n      add\n        /* \"#utility.yul\":1035:1087   */\n      tag_101\n      jump\t// in\n    tag_100:\n        /* \"#utility.yul\":1112:1141   */\n      tag_102\n        /* \"#utility.yul\":1134:1140   */\n      dup2\n        /* \"#utility.yul\":1112:1141   */\n      tag_103\n      jump\t// in\n    tag_102:\n        /* \"#utility.yul\":1107:1110   */\n      dup5\n        /* \"#utility.yul\":1103:1142   */\n      add\n        /* \"#utility.yul\":1096:1142   */\n      swap2\n      pop\n        /* \"#utility.yul\":876:1148   */\n      pop\n        /* \"#utility.yul\":784:1148   */\n      swap3\n      swap2\n      pop\n      pop\n      jump\t// out\n        /* \"#utility.yul\":1154:1520   */\n    tag_104:\n        /* \"#utility.yul\":1296:1299   */\n      0x00\n        /* \"#utility.yul\":1317:1384   */\n      tag_106\n        /* \"#utility.yul\":1381:1383   */\n      0x21\n        /* \"#utility.yul\":1376:1379   */\n      dup4\n        /* \"#utility.yul\":1317:1384   */\n      tag_99\n      jump\t// in\n    tag_106:\n        /* \"#utility.yul\":1310:1384   */\n      swap2\n      pop\n        /* \"#utility.yul\":1393:1486   */\n      tag_107\n        /* \"#utility.yul\":1482:1485   */\n      dup3\n        /* \"#utility.yul\":1393:1486   */\n      tag_108\n      jump\t// in\n    tag_107:\n        /* \"#utility.yul\":1511:1513   */\n      0x40\n        /* \"#utility.yul\":1506:1509   */\n      dup3\n        /* \"#utility.yul\":1502:1514   */\n      add\n        /* \"#utility.yul\":1495:1514   */\n      swap1\n      pop\n        /* \"#utility.yul\":1154:1520   */\n      swap2\n      swap1\n      pop\n      jump\t// out\n        /* \"#utility.yul\":1526:1892   */\n    tag_109:\n        /* \"#utility.yul\":1668:1671   */\n      0x00\n        /* \"#utility.yul\":1689:1756   */\n      tag_111\n        /* \"#utility.yul\":1753:1755   */\n      0x18\n        /* \"#utility.yul\":1748:1751   */\n      dup4\n        /* \"#utility.yul\":1689:1756   */\n      tag_99\n      jump\t// in\n    tag_111:\n        /* \"#utility.yul\":1682:1756   */\n      swap2\n      pop\n        /* \"#utility.yul\":1765:1858   */\n      tag_112\n        /* \"#utility.yul\":1854:1857   */\n      dup3\n        /* \"#utility.yul\":1765:1858   */\n      tag_113\n      jump\t// in\n    tag_112:\n        /* \"#utility.yul\":1883:1885   */\n      0x20\n        /* \"#utility.yul\":1878:1881   */\n      dup3\n        /* \"#utility.yul\":1874:1886   */\n      add\n        /* \"#utility.yul\":1867:1886   */\n      swap1\n      pop\n        /* \"#utility.yul\":1526:1892   */\n      swap2\n      swap1\n      pop\n      jump\t// out\n        /* \"#utility.yul\":1898:2264   */\n    tag_114:\n        /* \"#utility.yul\":2040:2043   */\n      0x00\n        /* \"#utility.yul\":2061:2128   */\n      tag_116\n        /* \"#utility.yul\":2125:2127   */\n      0x25\n        /* \"#utility.yul\":2120:2123   */\n      dup4\n        /* \"#utility.yul\":2061:2128   */\n      tag_99\n      jump\t// in\n    tag_116:\n        /* \"#utility.yul\":2054:2128   */\n      swap2\n      pop\n        /* \"#utility.yul\":2137:2230   */\n      tag_117\n        /* \"#utility.yul\":2226:2229   */\n      dup3\n        /* \"#utility.yul\":2137:2230   */\n      tag_118\n      jump\t// in\n    tag_117:\n        /* \"#utility.yul\":2255:2257   */\n      0x40\n        /* \"#utility.yul\":2250:2253   */\n      dup3\n        /* \"#utility.yul\":2246:2258   */\n      add\n        /* \"#utility.yul\":2239:2258   */\n      swap1\n      pop\n        /* \"#utility.yul\":1898:2264   */\n      swap2\n      swap1\n      pop\n      jump\t// out\n        /* \"#utility.yul\":2270:2388   */\n    tag_119:\n        /* \"#utility.yul\":2357:2381   */\n      tag_121\n        /* \"#utility.yul\":2375:2380   */\n      dup2\n        /* \"#utility.yul\":2357:2381   */\n      tag_122\n      jump\t// in\n    tag_121:\n        /* \"#utility.yul\":2352:2355   */\n      dup3\n        /* \"#utility.yul\":2345:2382   */\n      mstore\n        /* \"#utility.yul\":2270:2388   */\n      pop\n      pop\n      jump\t// out\n        /* \"#utility.yul\":2394:2648   */\n    tag_31:\n        /* \"#utility.yul\":2503:2507   */\n      0x00\n        /* \"#utility.yul\":2541:2543   */\n      0x20\n        /* \"#utility.yul\":2530:2539   */\n      dup3\n        /* \"#utility.yul\":2526:2544   */\n      add\n        /* \"#utility.yul\":2518:2544   */\n      swap1\n      pop\n        /* \"#utility.yul\":2554:2641   */\n      tag_124\n        /* \"#utility.yul\":2638:2639   */\n      0x00\n        /* \"#utility.yul\":2627:2636   */\n      dup4\n        /* \"#utility.yul\":2623:2640   */\n      add\n        /* \"#utility.yul\":2614:2620   */\n      dup5\n        /* \"#utility.yul\":2554:2641   */\n      tag_86\n      jump\t// in\n    tag_124:\n        /* \"#utility.yul\":2394:2648   */\n      swap3\n      swap2\n      pop\n      pop\n      jump\t// out\n        /* \"#utility.yul\":2654:2888   */\n    tag_26:\n        /* \"#utility.yul\":2753:2757   */\n      0x00\n        /* \"#utility.yul\":2791:2793   */\n      0x20\n        /* \"#utility.yul\":2780:2789   */\n      dup3\n        /* \"#utility.yul\":2776:2794   */\n      add\n        /* \"#utility.yul\":2768:2794   */\n      swap1\n      pop\n        /* \"#utility.yul\":2804:2881   */\n      tag_126\n        /* \"#utility.yul\":2878:2879   */\n      0x00\n        /* \"#utility.yul\":2867:2876   */\n      dup4\n        /* \"#utility.yul\":2863:2880   */\n      add\n        /* \"#utility.yul\":2854:2860   */\n      dup5\n        /* \"#utility.yul\":2804:2881   */\n      tag_90\n      jump\t// in\n    tag_126:\n        /* \"#utility.yul\":2654:2888   */\n      swap3\n      swap2\n      pop\n      pop\n      jump\t// out\n        /* \"#utility.yul\":2894:3207   */\n    tag_54:\n        /* \"#utility.yul\":3007:3011   */\n      0x00\n        /* \"#utility.yul\":3045:3047   */\n      0x20\n        /* \"#utility.yul\":3034:3043   */\n      dup3\n        /* \"#utility.yul\":3030:3048   */\n      add\n        /* \"#utility.yul\":3022:3048   */\n      swap1\n      pop\n        /* \"#utility.yul\":3094:3103   */\n      dup2\n        /* \"#utility.yul\":3088:3092   */\n      dup2\n        /* \"#utility.yul\":3084:3104   */\n      sub\n        /* \"#utility.yul\":3080:3081   */\n      0x00\n        /* \"#utility.yul\":3069:3078   */\n      dup4\n        /* \"#utility.yul\":3065:3082   */\n      add\n        /* \"#utility.yul\":3058:3105   */\n      mstore\n        /* \"#utility.yul\":3122:3200   */\n      tag_128\n        /* \"#utility.yul\":3195:3199   */\n      dup2\n        /* \"#utility.yul\":3186:3192   */\n      dup5\n        /* \"#utility.yul\":3122:3200   */\n      tag_94\n      jump\t// in\n    tag_128:\n        /* \"#utility.yul\":3114:3200   */\n      swap1\n      pop\n        /* \"#utility.yul\":2894:3207   */\n      swap3\n      swap2\n      pop\n      pop\n      jump\t// out\n        /* \"#utility.yul\":3213:3632   */\n    tag_66:\n        /* \"#utility.yul\":3379:3383   */\n      0x00\n        /* \"#utility.yul\":3417:3419   */\n      0x20\n        /* \"#utility.yul\":3406:3415   */\n      dup3\n        /* \"#utility.yul\":3402:3420   */\n      add\n        /* \"#utility.yul\":3394:3420   */\n      swap1\n      pop\n        /* \"#utility.yul\":3466:3475   */\n      dup2\n        /* \"#utility.yul\":3460:3464   */\n      dup2\n        /* \"#utility.yul\":3456:3476   */\n      sub\n        /* \"#utility.yul\":3452:3453   */\n      0x00\n        /* \"#utility.yul\":3441:3450   */\n      dup4\n        /* \"#utility.yul\":3437:3454   */\n      add\n        /* \"#utility.yul\":3430:3477   */\n      mstore\n        /* \"#utility.yul\":3494:3625   */\n      tag_130\n        /* \"#utility.yul\":3620:3624   */\n      dup2\n        /* \"#utility.yul\":3494:3625   */\n      tag_104\n      jump\t// in\n    tag_130:\n        /* \"#utility.yul\":3486:3625   */\n      swap1\n      pop\n        /* \"#utility.yul\":3213:3632   */\n      swap2\n      swap1\n      pop\n      jump\t// out\n        /* \"#utility.yul\":3638:4057   */\n    tag_74:\n        /* \"#utility.yul\":3804:3808   */\n      0x00\n        /* \"#utility.yul\":3842:3844   */\n      0x20\n        /* \"#utility.yul\":3831:3840   */\n      dup3\n        /* \"#utility.yul\":3827:3845   */\n      add\n        /* \"#utility.yul\":3819:3845   */\n      swap1\n      pop\n        /* \"#utility.yul\":3891:3900   */\n      dup2\n        /* \"#utility.yul\":3885:3889   */\n      dup2\n        /* \"#utility.yul\":3881:3901   */\n      sub\n        /* \"#utility.yul\":3877:3878   */\n      0x00\n        /* \"#utility.yul\":3866:3875   */\n      dup4\n        /* \"#utility.yul\":3862:3879   */\n      add\n        /* \"#utility.yul\":3855:3902   */\n      mstore\n        /* \"#utility.yul\":3919:4050   */\n      tag_132\n        /* \"#utility.yul\":4045:4049   */\n      dup2\n        /* \"#utility.yul\":3919:4050   */\n      tag_109\n      jump\t// in\n    tag_132:\n        /* \"#utility.yul\":3911:4050   */\n      swap1\n      pop\n        /* \"#utility.yul\":3638:4057   */\n      swap2\n      swap1\n      pop\n      jump\t// out\n        /* \"#utility.yul\":4063:4482   */\n    tag_70:\n        /* \"#utility.yul\":4229:4233   */\n      0x00\n        /* \"#utility.yul\":4267:4269   */\n      0x20\n        /* \"#utility.yul\":4256:4265   */\n      dup3\n        /* \"#utility.yul\":4252:4270   */\n      add\n        /* \"#utility.yul\":4244:4270   */\n      swap1\n      pop\n        /* \"#utility.yul\":4316:4325   */\n      dup2\n        /* \"#utility.yul\":4310:4314   */\n      dup2\n        /* \"#utility.yul\":4306:4326   */\n      sub\n        /* \"#utility.yul\":4302:4303   */\n      0x00\n        /* \"#utility.yul\":4291:4300   */\n      dup4\n        /* \"#utility.yul\":4287:4304   */\n      add\n        /* \"#utility.yul\":4280:4327   */\n      mstore\n        /* \"#utility.yul\":4344:4475   */\n      tag_134\n        /* \"#utility.yul\":4470:4474   */\n      dup2\n        /* \"#utility.yul\":4344:4475   */\n      tag_114\n      jump\t// in\n    tag_134:\n        /* \"#utility.yul\":4336:4475   */\n      swap1\n      pop\n        /* \"#utility.yul\":4063:4482   */\n      swap2\n      swap1\n      pop\n      jump\t// out\n        /* \"#utility.yul\":4488:4710   */\n    tag_17:\n        /* \"#utility.yul\":4581:4585   */\n      0x00\n        /* \"#utility.yul\":4619:4621   */\n      0x20\n        /* \"#utility.yul\":4608:4617   */\n      dup3\n        /* \"#utility.yul\":4604:4622   */\n      add\n        /* \"#utility.yul\":4596:4622   */\n      swap1\n      pop\n        /* \"#utility.yul\":4632:4703   */\n      tag_136\n        /* \"#utility.yul\":4700:4701   */\n      0x00\n        /* \"#utility.yul\":4689:4698   */\n      dup4\n        /* \"#utility.yul\":4685:4702   */\n      add\n        /* \"#utility.yul\":4676:4682   */\n      dup5\n        /* \"#utility.yul\":4632:4703   */\n      tag_119\n      jump\t// in\n    tag_136:\n        /* \"#utility.yul\":4488:4710   */\n      swap3\n      swap2\n      pop\n      pop\n      jump\t// out\n        /* \"#utility.yul\":4797:4896   */\n    tag_97:\n        /* \"#utility.yul\":4849:4855   */\n      0x00\n        /* \"#utility.yul\":4883:4888   */\n      dup2\n        /* \"#utility.yul\":4877:4889   */\n      mload\n        /* \"#utility.yul\":4867:4889   */\n      swap1\n      pop\n        /* \"#utility.yul\":4797:4896   */\n      swap2\n      swap1\n      pop\n      jump\t// out\n        /* \"#utility.yul\":4902:5071   */\n    tag_99:\n        /* \"#utility.yul\":4986:4997   */\n      0x00\n        /* \"#utility.yul\":5020:5026   */\n      dup3\n        /* \"#utility.yul\":5015:5018   */\n      dup3\n        /* \"#utility.yul\":5008:5027   */\n      mstore\n        /* \"#utility.yul\":5060:5064   */\n      0x20\n        /* \"#utility.yul\":5055:5058   */\n      dup3\n        /* \"#utility.yul\":5051:5065   */\n      add\n        /* \"#utility.yul\":5036:5065   */\n      swap1\n      pop\n        /* \"#utility.yul\":4902:5071   */\n      swap3\n      swap2\n      pop\n      pop\n      jump\t// out\n        /* \"#utility.yul\":5077:5173   */\n    tag_141:\n        /* \"#utility.yul\":5114:5121   */\n      0x00\n        /* \"#utility.yul\":5143:5167   */\n      tag_143\n        /* \"#utility.yul\":5161:5166   */\n      dup3\n        /* \"#utility.yul\":5143:5167   */\n      tag_144\n      jump\t// in\n    tag_143:\n        /* \"#utility.yul\":5132:5167   */\n      swap1\n      pop\n        /* \"#utility.yul\":5077:5173   */\n      swap2\n      swap1\n      pop\n      jump\t// out\n        /* \"#utility.yul\":5179:5283   */\n    tag_89:\n        /* \"#utility.yul\":5224:5231   */\n      0x00\n        /* \"#utility.yul\":5253:5277   */\n      tag_146\n        /* \"#utility.yul\":5271:5276   */\n      dup3\n        /* \"#utility.yul\":5253:5277   */\n      tag_144\n      jump\t// in\n    tag_146:\n        /* \"#utility.yul\":5242:5277   */\n      swap1\n      pop\n        /* \"#utility.yul\":5179:5283   */\n      swap2\n      swap1\n      pop\n      jump\t// out\n        /* \"#utility.yul\":5289:5416   */\n    tag_147:\n        /* \"#utility.yul\":5334:5341   */\n      0x00\n        /* \"#utility.yul\":5363:5368   */\n      dup2\n        /* \"#utility.yul\":5352:5368   */\n      swap1\n      pop\n        /* \"#utility.yul\":5369:5410   */\n      tag_149\n        /* \"#utility.yul\":5404:5409   */\n      dup3\n        /* \"#utility.yul\":5369:5410   */\n      tag_150\n      jump\t// in\n    tag_149:\n        /* \"#utility.yul\":5289:5416   */\n      swap2\n      swap1\n      pop\n      jump\t// out\n        /* \"#utility.yul\":5422:5548   */\n    tag_144:\n        /* \"#utility.yul\":5459:5466   */\n      0x00\n        /* \"#utility.yul\":5499:5541   */\n      0xffffffffffffffffffffffffffffffffffffffff\n        /* \"#utility.yul\":5492:5497   */\n      dup3\n        /* \"#utility.yul\":5488:5542   */\n      and\n        /* \"#utility.yul\":5477:5542   */\n      swap1\n      pop\n        /* \"#utility.yul\":5422:5548   */\n      swap2\n      swap1\n      pop\n      jump\t// out\n        /* \"#utility.yul\":5554:5631   */\n    tag_122:\n        /* \"#utility.yul\":5591:5598   */\n      0x00\n        /* \"#utility.yul\":5620:5625   */\n      dup2\n        /* \"#utility.yul\":5609:5625   */\n      swap1\n      pop\n        /* \"#utility.yul\":5554:5631   */\n      swap2\n      swap1\n      pop\n      jump\t// out\n        /* \"#utility.yul\":5637:5764   */\n    tag_93:\n        /* \"#utility.yul\":5693:5702   */\n      0x00\n        /* \"#utility.yul\":5726:5758   */\n      tag_154\n        /* \"#utility.yul\":5752:5757   */\n      dup3\n        /* \"#utility.yul\":5726:5758   */\n      tag_147\n      jump\t// in\n    tag_154:\n        /* \"#utility.yul\":5713:5758   */\n      swap1\n      pop\n        /* \"#utility.yul\":5637:5764   */\n      swap2\n      swap1\n      pop\n      jump\t// out\n        /* \"#utility.yul\":5770:6077   */\n    tag_101:\n        /* \"#utility.yul\":5838:5839   */\n      0x00\n        /* \"#utility.yul\":5848:5961   */\n    tag_156:\n        /* \"#utility.yul\":5862:5868   */\n      dup4\n        /* \"#utility.yul\":5859:5860   */\n      dup2\n        /* \"#utility.yul\":5856:5869   */\n      lt\n        /* \"#utility.yul\":5848:5961   */\n      iszero\n      tag_158\n      jumpi\n        /* \"#utility.yul\":5947:5948   */\n      dup1\n        /* \"#utility.yul\":5942:5945   */\n      dup3\n        /* \"#utility.yul\":5938:5949   */\n      add\n        /* \"#utility.yul\":5932:5950   */\n      mload\n        /* \"#utility.yul\":5928:5929   */\n      dup2\n        /* \"#utility.yul\":5923:5926   */\n      dup5\n        /* \"#utility.yul\":5919:5930   */\n      add\n        /* \"#utility.yul\":5912:5951   */\n      mstore\n        /* \"#utility.yul\":5884:5886   */\n      0x20\n        /* \"#utility.yul\":5881:5882   */\n      dup2\n        /* \"#utility.yul\":5877:5887   */\n      add\n        /* \"#utility.yul\":5872:5887   */\n      swap1\n      pop\n        /* \"#utility.yul\":5848:5961   */\n      jump(tag_156)\n    tag_158:\n        /* \"#utility.yul\":5979:5985   */\n      dup4\n        /* \"#utility.yul\":5976:5977   */\n      dup2\n        /* \"#utility.yul\":5973:5986   */\n      gt\n        /* \"#utility.yul\":5970:6071   */\n      iszero\n      tag_159\n      jumpi\n        /* \"#utility.yul\":6059:6060   */\n      0x00\n        /* \"#utility.yul\":6050:6056   */\n      dup5\n        /* \"#utility.yul\":6045:6048   */\n      dup5\n        /* \"#utility.yul\":6041:6057   */\n      add\n        /* \"#utility.yul\":6034:6061   */\n      mstore\n        /* \"#utility.yul\":5970:6071   */\n    tag_159:\n        /* \"#utility.yul\":5819:6077   */\n      pop\n        /* \"#utility.yul\":5770:6077   */\n      pop\n      pop\n      pop\n      jump\t// out\n        /* \"#utility.yul\":6083:6403   */\n    tag_58:\n        /* \"#utility.yul\":6127:6133   */\n      0x00\n        /* \"#utility.yul\":6164:6165   */\n      0x02\n        /* \"#utility.yul\":6158:6162   */\n      dup3\n        /* \"#utility.yul\":6154:6166   */\n      div\n        /* \"#utility.yul\":6144:6166   */\n      swap1\n      pop\n        /* \"#utility.yul\":6211:6212   */\n      0x01\n        /* \"#utility.yul\":6205:6209   */\n      dup3\n        /* \"#utility.yul\":6201:6213   */\n      and\n        /* \"#utility.yul\":6232:6250   */\n      dup1\n        /* \"#utility.yul\":6222:6303   */\n      tag_161\n      jumpi\n        /* \"#utility.yul\":6288:6292   */\n      0x7f\n        /* \"#utility.yul\":6280:6286   */\n      dup3\n        /* \"#utility.yul\":6276:6293   */\n      and\n        /* \"#utility.yul\":6266:6293   */\n      swap2\n      pop\n        /* \"#utility.yul\":6222:6303   */\n    tag_161:\n        /* \"#utility.yul\":6350:6352   */\n      0x20\n        /* \"#utility.yul\":6342:6348   */\n      dup3\n        /* \"#utility.yul\":6339:6353   */\n      lt\n        /* \"#utility.yul\":6319:6337   */\n      dup2\n        /* \"#utility.yul\":6316:6354   */\n      eq\n        /* \"#utility.yul\":6313:6397   */\n      iszero\n      tag_162\n      jumpi\n        /* \"#utility.yul\":6369:6387   */\n      tag_163\n      tag_164\n      jump\t// in\n    tag_163:\n        /* \"#utility.yul\":6313:6397   */\n    tag_162:\n        /* \"#utility.yul\":6134:6403   */\n      pop\n        /* \"#utility.yul\":6083:6403   */\n      swap2\n      swap1\n      pop\n      jump\t// out\n        /* \"#utility.yul\":6409:6589   */\n    tag_165:\n        /* \"#utility.yul\":6457:6534   */\n      0x4e487b7100000000000000000000000000000000000000000000000000000000\n        /* \"#utility.yul\":6454:6455   */\n      0x00\n        /* \"#utility.yul\":6447:6535   */\n      mstore\n        /* \"#utility.yul\":6554:6558   */\n      0x21\n        /* \"#utility.yul\":6551:6552   */\n      0x04\n        /* \"#utility.yul\":6544:6559   */\n      mstore\n        /* \"#utility.yul\":6578:6582   */\n      0x24\n        /* \"#utility.yul\":6575:6576   */\n      0x00\n        /* \"#utility.yul\":6568:6583   */\n      revert\n        /* \"#utility.yul\":6595:6775   */\n    tag_164:\n        /* \"#utility.yul\":6643:6720   */\n      0x4e487b7100000000000000000000000000000000000000000000000000000000\n        /* \"#utility.yul\":6640:6641   */\n      0x00\n        /* \"#utility.yul\":6633:6721   */\n      mstore\n        /* \"#utility.yul\":6740:6744   */\n      0x22\n        /* \"#utility.yul\":6737:6738   */\n      0x04\n        /* \"#utility.yul\":6730:6745   */\n      mstore\n        /* \"#utility.yul\":6764:6768   */\n      0x24\n        /* \"#utility.yul\":6761:6762   */\n      0x00\n        /* \"#utility.yul\":6754:6769   */\n      revert\n        /* \"#utility.yul\":6904:7021   */\n    tag_84:\n        /* \"#utility.yul\":7013:7014   */\n      0x00\n        /* \"#utility.yul\":7010:7011   */\n      dup1\n        /* \"#utility.yul\":7003:7015   */\n      revert\n        /* \"#utility.yul\":7027:7129   */\n    tag_103:\n        /* \"#utility.yul\":7068:7074   */\n      0x00\n        /* \"#utility.yul\":7119:7121   */\n      0x1f\n        /* \"#utility.yul\":7115:7122   */\n      not\n        /* \"#utility.yul\":7110:7112   */\n      0x1f\n        /* \"#utility.yul\":7103:7108   */\n      dup4\n        /* \"#utility.yul\":7099:7113   */\n      add\n        /* \"#utility.yul\":7095:7123   */\n      and\n        /* \"#utility.yul\":7085:7123   */\n      swap1\n      pop\n        /* \"#utility.yul\":7027:7129   */\n      swap2\n      swap1\n      pop\n      jump\t// out\n        /* \"#utility.yul\":7135:7355   */\n    tag_108:\n        /* \"#utility.yul\":7275:7309   */\n      0x426964732063616e206f6e6c7920626520706c61636564206279206f776e6572\n        /* \"#utility.yul\":7271:7272   */\n      0x00\n        /* \"#utility.yul\":7263:7269   */\n      dup3\n        /* \"#utility.yul\":7259:7273   */\n      add\n        /* \"#utility.yul\":7252:7310   */\n      mstore\n        /* \"#utility.yul\":7344:7347   */\n      0x7300000000000000000000000000000000000000000000000000000000000000\n        /* \"#utility.yul\":7339:7341   */\n      0x20\n        /* \"#utility.yul\":7331:7337   */\n      dup3\n        /* \"#utility.yul\":7327:7342   */\n      add\n        /* \"#utility.yul\":7320:7348   */\n      mstore\n        /* \"#utility.yul\":7135:7355   */\n      pop\n      jump\t// out\n        /* \"#utility.yul\":7361:7535   */\n    tag_113:\n        /* \"#utility.yul\":7501:7527   */\n      0x41756374696f6e2074696d652068617320656c61737065640000000000000000\n        /* \"#utility.yul\":7497:7498   */\n      0x00\n        /* \"#utility.yul\":7489:7495   */\n      dup3\n        /* \"#utility.yul\":7485:7499   */\n      add\n        /* \"#utility.yul\":7478:7528   */\n      mstore\n        /* \"#utility.yul\":7361:7535   */\n      pop\n      jump\t// out\n        /* \"#utility.yul\":7541:7765   */\n    tag_118:\n        /* \"#utility.yul\":7681:7715   */\n      0x41756374696f6e2063616e6e6f7420626520706c617965642061742074686973\n        /* \"#utility.yul\":7677:7678   */\n      0x00\n        /* \"#utility.yul\":7669:7675   */\n      dup3\n        /* \"#utility.yul\":7665:7679   */\n      add\n        /* \"#utility.yul\":7658:7716   */\n      mstore\n        /* \"#utility.yul\":7750:7757   */\n      0x2074696d65000000000000000000000000000000000000000000000000000000\n        /* \"#utility.yul\":7745:7747   */\n      0x20\n        /* \"#utility.yul\":7737:7743   */\n      dup3\n        /* \"#utility.yul\":7733:7748   */\n      add\n        /* \"#utility.yul\":7726:7758   */\n      mstore\n        /* \"#utility.yul\":7541:7765   */\n      pop\n      jump\t// out\n        /* \"#utility.yul\":7771:7884   */\n    tag_150:\n        /* \"#utility.yul\":7852:7853   */\n      0x04\n        /* \"#utility.yul\":7845:7850   */\n      dup2\n        /* \"#utility.yul\":7842:7854   */\n      lt\n        /* \"#utility.yul\":7832:7878   */\n      tag_176\n      jumpi\n        /* \"#utility.yul\":7858:7876   */\n      tag_177\n      tag_165\n      jump\t// in\n    tag_177:\n        /* \"#utility.yul\":7832:7878   */\n    tag_176:\n        /* \"#utility.yul\":7771:7884   */\n      pop\n      jump\t// out\n        /* \"#utility.yul\":7890:8012   */\n    tag_80:\n        /* \"#utility.yul\":7963:7987   */\n      tag_179\n        /* \"#utility.yul\":7981:7986   */\n      dup2\n        /* \"#utility.yul\":7963:7987   */\n      tag_141\n      jump\t// in\n    tag_179:\n        /* \"#utility.yul\":7956:7961   */\n      dup2\n        /* \"#utility.yul\":7953:7988   */\n      eq\n        /* \"#utility.yul\":7943:8006   */\n      tag_180\n      jumpi\n        /* \"#utility.yul\":8002:8003   */\n      0x00\n        /* \"#utility.yul\":7999:8000   */\n      dup1\n        /* \"#utility.yul\":7992:8004   */\n      revert\n        /* \"#utility.yul\":7943:8006   */\n    tag_180:\n        /* \"#utility.yul\":7890:8012   */\n      pop\n      jump\t// out\n\n    auxdata: 0xa26469706673582212207124e6b918811508340a558fedf35269540da21e591a3d290dd5b48f39c4f0ef64736f6c63430008070033\n}\n",
				"bytecode": {
					"linkReferences": {},
					"object": "60806040523480156200001157600080fd5b5033600160006101000a81548173ffffffffffffffffffffffffffffffffffffffff021916908373ffffffffffffffffffffffffffffffffffffffff16021790555060646004819055506001600760006101000a81548160ff0219169083600381111562000084576200008362000251565b5b02179055506040518060200160405280600081525060089080519060200190620000b0929190620000d5565b50436005819055506003600554620000c9919062000185565b600681905550620002af565b828054620000e390620001ec565b90600052602060002090601f01602090048101928262000107576000855562000153565b82601f106200012257805160ff191683800117855562000153565b8280016001018555821562000153579182015b828111156200015257825182559160200191906001019062000135565b5b50905062000162919062000166565b5090565b5b808211156200018157600081600090555060010162000167565b5090565b60006200019282620001e2565b91506200019f83620001e2565b9250827fffffffffffffffffffffffffffffffffffffffffffffffffffffffffffffffff03821115620001d757620001d662000222565b5b828201905092915050565b6000819050919050565b600060028204905060018216806200020557607f821691505b602082108114156200021c576200021b62000280565b5b50919050565b7f4e487b7100000000000000000000000000000000000000000000000000000000600052601160045260246000fd5b7f4e487b7100000000000000000000000000000000000000000000000000000000600052602160045260246000fd5b7f4e487b7100000000000000000000000000000000000000000000000000000000600052602260045260246000fd5b6108e380620002bf6000396000f3fe6080604052600436106100915760003560e01c806391c11f7d1161005957806391c11f7d1461017f57806391f90157146101aa578063b3cc167a146101d5578063c623674f14610200578063eb36a4791461022b57610091565b8063083c63231461009657806348cd4cb1146100c15780637fb45099146100ec5780638da5cb5b146101175780638ee7751214610142575b600080fd5b3480156100a257600080fd5b506100ab610235565b6040516100b89190610638565b60405180910390f35b3480156100cd57600080fd5b506100d661023b565b6040516100e39190610638565b60405180910390f35b3480156100f857600080fd5b50610101610241565b60405161010e919061059b565b60405180910390f35b34801561012357600080fd5b5061012c610254565b6040516101399190610580565b60405180910390f35b34801561014e57600080fd5b5061016960048036038101906101649190610484565b61027a565b6040516101769190610638565b60405180910390f35b34801561018b57600080fd5b50610194610292565b6040516101a19190610638565b60405180910390f35b3480156101b657600080fd5b506101bf610298565b6040516101cc9190610580565b60405180910390f35b3480156101e157600080fd5b506101ea6102be565b6040516101f79190610638565b60405180910390f35b34801561020c57600080fd5b506102156102c4565b60405161022291906105b6565b60405180910390f35b610233610352565b005b60065481565b60055481565b600760009054906101000a900460ff1681565b600160009054906101000a900473ffffffffffffffffffffffffffffffffffffffff1681565b60006020528060005260406000206000915090505481565b60035481565b600260009054906101000a900473ffffffffffffffffffffffffffffffffffffffff1681565b60045481565b600880546102d190610715565b80601f01602080910402602001604051908101604052809291908181526020018280546102fd90610715565b801561034a5780601f1061031f5761010080835404028352916020019161034a565b820191906000526020600020905b81548152906001019060200180831161032d57829003601f168201915b505050505081565b600160009054906101000a900473ffffffffffffffffffffffffffffffffffffffff1673ffffffffffffffffffffffffffffffffffffffff163373ffffffffffffffffffffffffffffffffffffffff1614156103e3576040517f08c379a00000000000000000000000000000000000000000000000000000000081526004016103da906105d8565b60405180910390fd5b600554431015610428576040517f08c379a000000000000000000000000000000000000000000000000000000000815260040161041f90610618565b60405180910390fd5b60065443111561046d576040517f08c379a0000000000000000000000000000000000000000000000000000000008152600401610464906105f8565b60405180910390fd5b565b60008135905061047e81610896565b92915050565b60006020828403121561049a576104996107a5565b5b60006104a88482850161046f565b91505092915050565b6104ba81610681565b82525050565b6104c9816106d0565b82525050565b60006104da82610653565b6104e4818561065e565b93506104f48185602086016106e2565b6104fd816107aa565b840191505092915050565b600061051560218361065e565b9150610520826107bb565b604082019050919050565b600061053860188361065e565b91506105438261080a565b602082019050919050565b600061055b60258361065e565b915061056682610833565b604082019050919050565b61057a816106c6565b82525050565b600060208201905061059560008301846104b1565b92915050565b60006020820190506105b060008301846104c0565b92915050565b600060208201905081810360008301526105d081846104cf565b905092915050565b600060208201905081810360008301526105f181610508565b9050919050565b600060208201905081810360008301526106118161052b565b9050919050565b600060208201905081810360008301526106318161054e565b9050919050565b600060208201905061064d6000830184610571565b92915050565b600081519050919050565b600082825260208201905092915050565b600061067a826106a6565b9050919050565b600061068c826106a6565b9050919050565b60008190506106a182610882565b919050565b600073ffffffffffffffffffffffffffffffffffffffff82169050919050565b6000819050919050565b60006106db82610693565b9050919050565b60005b838110156107005780820151818401526020810190506106e5565b8381111561070f576000848401525b50505050565b6000600282049050600182168061072d57607f821691505b6020821081141561074157610740610776565b5b50919050565b7f4e487b7100000000000000000000000000000000000000000000000000000000600052602160045260246000fd5b7f4e487b7100000000000000000000000000000000000000000000000000000000600052602260045260246000fd5b600080fd5b6000601f19601f8301169050919050565b7f426964732063616e206f6e6c7920626520706c61636564206279206f776e657260008201527f7300000000000000000000000000000000000000000000000000000000000000602082015250565b7f41756374696f6e2074696d652068617320656c61737065640000000000000000600082015250565b7f41756374696f6e2063616e6e6f7420626520706c61796564206174207468697360008201527f2074696d65000000000000000000000000000000000000000000000000000000602082015250565b6004811061089357610892610747565b5b50565b61089f8161066f565b81146108aa57600080fd5b5056fea26469706673582212207124e6b918811508340a558fedf35269540da21e591a3d290dd5b48f39c4f0ef64736f6c63430008070033",
					"opcodes": "PUSH1 0x80 PUSH1 0x40 MSTORE CALLVALUE DUP1 ISZERO PUSH3 0x11 JUMPI PUSH1 0x0 DUP1 REVERT JUMPDEST POP CALLER PUSH1 0x1 PUSH1 0x0 PUSH2 0x100 EXP DUP2 SLOAD DUP2 PUSH20 0xFFFFFFFFFFFFFFFFFFFFFFFFFFFFFFFFFFFFFFFF MUL NOT AND SWAP1 DUP4 PUSH20 0xFFFFFFFFFFFFFFFFFFFFFFFFFFFFFFFFFFFFFFFF AND MUL OR SWAP1 SSTORE POP PUSH1 0x64 PUSH1 0x4 DUP2 SWAP1 SSTORE POP PUSH1 0x1 PUSH1 0x7 PUSH1 0x0 PUSH2 0x100 EXP DUP2 SLOAD DUP2 PUSH1 0xFF MUL NOT AND SWAP1 DUP4 PUSH1 0x3 DUP2 GT ISZERO PUSH3 0x84 JUMPI PUSH3 0x83 PUSH3 0x251 JUMP JUMPDEST JUMPDEST MUL OR SWAP1 SSTORE POP PUSH1 0x40 MLOAD DUP1 PUSH1 0x20 ADD PUSH1 0x40 MSTORE DUP1 PUSH1 0x0 DUP2 MSTORE POP PUSH1 0x8 SWAP1 DUP1 MLOAD SWAP1 PUSH1 0x20 ADD SWAP1 PUSH3 0xB0 SWAP3 SWAP2 SWAP1 PUSH3 0xD5 JUMP JUMPDEST POP NUMBER PUSH1 0x5 DUP2 SWAP1 SSTORE POP PUSH1 0x3 PUSH1 0x5 SLOAD PUSH3 0xC9 SWAP2 SWAP1 PUSH3 0x185 JUMP JUMPDEST PUSH1 0x6 DUP2 SWAP1 SSTORE POP PUSH3 0x2AF JUMP JUMPDEST DUP3 DUP1 SLOAD PUSH3 0xE3 SWAP1 PUSH3 0x1EC JUMP JUMPDEST SWAP1 PUSH1 0x0 MSTORE PUSH1 0x20 PUSH1 0x0 KECCAK256 SWAP1 PUSH1 0x1F ADD PUSH1 0x20 SWAP1 DIV DUP2 ADD SWAP3 DUP3 PUSH3 0x107 JUMPI PUSH1 0x0 DUP6 SSTORE PUSH3 0x153 JUMP JUMPDEST DUP3 PUSH1 0x1F LT PUSH3 0x122 JUMPI DUP1 MLOAD PUSH1 0xFF NOT AND DUP4 DUP1 ADD OR DUP6 SSTORE PUSH3 0x153 JUMP JUMPDEST DUP3 DUP1 ADD PUSH1 0x1 ADD DUP6 SSTORE DUP3 ISZERO PUSH3 0x153 JUMPI SWAP2 DUP3 ADD JUMPDEST DUP3 DUP2 GT ISZERO PUSH3 0x152 JUMPI DUP3 MLOAD DUP3 SSTORE SWAP2 PUSH1 0x20 ADD SWAP2 SWAP1 PUSH1 0x1 ADD SWAP1 PUSH3 0x135 JUMP JUMPDEST JUMPDEST POP SWAP1 POP PUSH3 0x162 SWAP2 SWAP1 PUSH3 0x166 JUMP JUMPDEST POP SWAP1 JUMP JUMPDEST JUMPDEST DUP1 DUP3 GT ISZERO PUSH3 0x181 JUMPI PUSH1 0x0 DUP2 PUSH1 0x0 SWAP1 SSTORE POP PUSH1 0x1 ADD PUSH3 0x167 JUMP JUMPDEST POP SWAP1 JUMP JUMPDEST PUSH1 0x0 PUSH3 0x192 DUP3 PUSH3 0x1E2 JUMP JUMPDEST SWAP2 POP PUSH3 0x19F DUP4 PUSH3 0x1E2 JUMP JUMPDEST SWAP3 POP DUP3 PUSH32 0xFFFFFFFFFFFFFFFFFFFFFFFFFFFFFFFFFFFFFFFFFFFFFFFFFFFFFFFFFFFFFFFF SUB DUP3 GT ISZERO PUSH3 0x1D7 JUMPI PUSH3 0x1D6 PUSH3 0x222 JUMP JUMPDEST JUMPDEST DUP3 DUP3 ADD SWAP1 POP SWAP3 SWAP2 POP POP JUMP JUMPDEST PUSH1 0x0 DUP2 SWAP1 POP SWAP2 SWAP1 POP JUMP JUMPDEST PUSH1 0x0 PUSH1 0x2 DUP3 DIV SWAP1 POP PUSH1 0x1 DUP3 AND DUP1 PUSH3 0x205 JUMPI PUSH1 0x7F DUP3 AND SWAP2 POP JUMPDEST PUSH1 0x20 DUP3 LT DUP2 EQ ISZERO PUSH3 0x21C JUMPI PUSH3 0x21B PUSH3 0x280 JUMP JUMPDEST JUMPDEST POP SWAP2 SWAP1 POP JUMP JUMPDEST PUSH32 0x4E487B7100000000000000000000000000000000000000000000000000000000 PUSH1 0x0 MSTORE PUSH1 0x11 PUSH1 0x4 MSTORE PUSH1 0x24 PUSH1 0x0 REVERT JUMPDEST PUSH32 0x4E487B7100000000000000000000000000000000000000000000000000000000 PUSH1 0x0 MSTORE PUSH1 0x21 PUSH1 0x4 MSTORE PUSH1 0x24 PUSH1 0x0 REVERT JUMPDEST PUSH32 0x4E487B7100000000000000000000000000000000000000000000000000000000 PUSH1 0x0 MSTORE PUSH1 0x22 PUSH1 0x4 MSTORE PUSH1 0x24 PUSH1 0x0 REVERT JUMPDEST PUSH2 0x8E3 DUP1 PUSH3 0x2BF PUSH1 0x0 CODECOPY PUSH1 0x0 RETURN INVALID PUSH1 0x80 PUSH1 0x40 MSTORE PUSH1 0x4 CALLDATASIZE LT PUSH2 0x91 JUMPI PUSH1 0x0 CALLDATALOAD PUSH1 0xE0 SHR DUP1 PUSH4 0x91C11F7D GT PUSH2 0x59 JUMPI DUP1 PUSH4 0x91C11F7D EQ PUSH2 0x17F JUMPI DUP1 PUSH4 0x91F90157 EQ PUSH2 0x1AA JUMPI DUP1 PUSH4 0xB3CC167A EQ PUSH2 0x1D5 JUMPI DUP1 PUSH4 0xC623674F EQ PUSH2 0x200 JUMPI DUP1 PUSH4 0xEB36A479 EQ PUSH2 0x22B JUMPI PUSH2 0x91 JUMP JUMPDEST DUP1 PUSH4 0x83C6323 EQ PUSH2 0x96 JUMPI DUP1 PUSH4 0x48CD4CB1 EQ PUSH2 0xC1 JUMPI DUP1 PUSH4 0x7FB45099 EQ PUSH2 0xEC JUMPI DUP1 PUSH4 0x8DA5CB5B EQ PUSH2 0x117 JUMPI DUP1 PUSH4 0x8EE77512 EQ PUSH2 0x142 JUMPI JUMPDEST PUSH1 0x0 DUP1 REVERT JUMPDEST CALLVALUE DUP1 ISZERO PUSH2 0xA2 JUMPI PUSH1 0x0 DUP1 REVERT JUMPDEST POP PUSH2 0xAB PUSH2 0x235 JUMP JUMPDEST PUSH1 0x40 MLOAD PUSH2 0xB8 SWAP2 SWAP1 PUSH2 0x638 JUMP JUMPDEST PUSH1 0x40 MLOAD DUP1 SWAP2 SUB SWAP1 RETURN JUMPDEST CALLVALUE DUP1 ISZERO PUSH2 0xCD JUMPI PUSH1 0x0 DUP1 REVERT JUMPDEST POP PUSH2 0xD6 PUSH2 0x23B JUMP JUMPDEST PUSH1 0x40 MLOAD PUSH2 0xE3 SWAP2 SWAP1 PUSH2 0x638 JUMP JUMPDEST PUSH1 0x40 MLOAD DUP1 SWAP2 SUB SWAP1 RETURN JUMPDEST CALLVALUE DUP1 ISZERO PUSH2 0xF8 JUMPI PUSH1 0x0 DUP1 REVERT JUMPDEST POP PUSH2 0x101 PUSH2 0x241 JUMP JUMPDEST PUSH1 0x40 MLOAD PUSH2 0x10E SWAP2 SWAP1 PUSH2 0x59B JUMP JUMPDEST PUSH1 0x40 MLOAD DUP1 SWAP2 SUB SWAP1 RETURN JUMPDEST CALLVALUE DUP1 ISZERO PUSH2 0x123 JUMPI PUSH1 0x0 DUP1 REVERT JUMPDEST POP PUSH2 0x12C PUSH2 0x254 JUMP JUMPDEST PUSH1 0x40 MLOAD PUSH2 0x139 SWAP2 SWAP1 PUSH2 0x580 JUMP JUMPDEST PUSH1 0x40 MLOAD DUP1 SWAP2 SUB SWAP1 RETURN JUMPDEST CALLVALUE DUP1 ISZERO PUSH2 0x14E JUMPI PUSH1 0x0 DUP1 REVERT JUMPDEST POP PUSH2 0x169 PUSH1 0x4 DUP1 CALLDATASIZE SUB DUP2 ADD SWAP1 PUSH2 0x164 SWAP2 SWAP1 PUSH2 0x484 JUMP JUMPDEST PUSH2 0x27A JUMP JUMPDEST PUSH1 0x40 MLOAD PUSH2 0x176 SWAP2 SWAP1 PUSH2 0x638 JUMP JUMPDEST PUSH1 0x40 MLOAD DUP1 SWAP2 SUB SWAP1 RETURN JUMPDEST CALLVALUE DUP1 ISZERO PUSH2 0x18B JUMPI PUSH1 0x0 DUP1 REVERT JUMPDEST POP PUSH2 0x194 PUSH2 0x292 JUMP JUMPDEST PUSH1 0x40 MLOAD PUSH2 0x1A1 SWAP2 SWAP1 PUSH2 0x638 JUMP JUMPDEST PUSH1 0x40 MLOAD DUP1 SWAP2 SUB SWAP1 RETURN JUMPDEST CALLVALUE DUP1 ISZERO PUSH2 0x1B6 JUMPI PUSH1 0x0 DUP1 REVERT JUMPDEST POP PUSH2 0x1BF PUSH2 0x298 JUMP JUMPDEST PUSH1 0x40 MLOAD PUSH2 0x1CC SWAP2 SWAP1 PUSH2 0x580 JUMP JUMPDEST PUSH1 0x40 MLOAD DUP1 SWAP2 SUB SWAP1 RETURN JUMPDEST CALLVALUE DUP1 ISZERO PUSH2 0x1E1 JUMPI PUSH1 0x0 DUP1 REVERT JUMPDEST POP PUSH2 0x1EA PUSH2 0x2BE JUMP JUMPDEST PUSH1 0x40 MLOAD PUSH2 0x1F7 SWAP2 SWAP1 PUSH2 0x638 JUMP JUMPDEST PUSH1 0x40 MLOAD DUP1 SWAP2 SUB SWAP1 RETURN JUMPDEST CALLVALUE DUP1 ISZERO PUSH2 0x20C JUMPI PUSH1 0x0 DUP1 REVERT JUMPDEST POP PUSH2 0x215 PUSH2 0x2C4 JUMP JUMPDEST PUSH1 0x40 MLOAD PUSH2 0x222 SWAP2 SWAP1 PUSH2 0x5B6 JUMP JUMPDEST PUSH1 0x40 MLOAD DUP1 SWAP2 SUB SWAP1 RETURN JUMPDEST PUSH2 0x233 PUSH2 0x352 JUMP JUMPDEST STOP JUMPDEST PUSH1 0x6 SLOAD DUP2 JUMP JUMPDEST PUSH1 0x5 SLOAD DUP2 JUMP JUMPDEST PUSH1 0x7 PUSH1 0x0 SWAP1 SLOAD SWAP1 PUSH2 0x100 EXP SWAP1 DIV PUSH1 0xFF AND DUP2 JUMP JUMPDEST PUSH1 0x1 PUSH1 0x0 SWAP1 SLOAD SWAP1 PUSH2 0x100 EXP SWAP1 DIV PUSH20 0xFFFFFFFFFFFFFFFFFFFFFFFFFFFFFFFFFFFFFFFF AND DUP2 JUMP JUMPDEST PUSH1 0x0 PUSH1 0x20 MSTORE DUP1 PUSH1 0x0 MSTORE PUSH1 0x40 PUSH1 0x0 KECCAK256 PUSH1 0x0 SWAP2 POP SWAP1 POP SLOAD DUP2 JUMP JUMPDEST PUSH1 0x3 SLOAD DUP2 JUMP JUMPDEST PUSH1 0x2 PUSH1 0x0 SWAP1 SLOAD SWAP1 PUSH2 0x100 EXP SWAP1 DIV PUSH20 0xFFFFFFFFFFFFFFFFFFFFFFFFFFFFFFFFFFFFFFFF AND DUP2 JUMP JUMPDEST PUSH1 0x4 SLOAD DUP2 JUMP JUMPDEST PUSH1 0x8 DUP1 SLOAD PUSH2 0x2D1 SWAP1 PUSH2 0x715 JUMP JUMPDEST DUP1 PUSH1 0x1F ADD PUSH1 0x20 DUP1 SWAP2 DIV MUL PUSH1 0x20 ADD PUSH1 0x40 MLOAD SWAP1 DUP2 ADD PUSH1 0x40 MSTORE DUP1 SWAP3 SWAP2 SWAP1 DUP2 DUP2 MSTORE PUSH1 0x20 ADD DUP3 DUP1 SLOAD PUSH2 0x2FD SWAP1 PUSH2 0x715 JUMP JUMPDEST DUP1 ISZERO PUSH2 0x34A JUMPI DUP1 PUSH1 0x1F LT PUSH2 0x31F JUMPI PUSH2 0x100 DUP1 DUP4 SLOAD DIV MUL DUP4 MSTORE SWAP2 PUSH1 0x20 ADD SWAP2 PUSH2 0x34A JUMP JUMPDEST DUP3 ADD SWAP2 SWAP1 PUSH1 0x0 MSTORE PUSH1 0x20 PUSH1 0x0 KECCAK256 SWAP1 JUMPDEST DUP2 SLOAD DUP2 MSTORE SWAP1 PUSH1 0x1 ADD SWAP1 PUSH1 0x20 ADD DUP1 DUP4 GT PUSH2 0x32D JUMPI DUP3 SWAP1 SUB PUSH1 0x1F AND DUP3 ADD SWAP2 JUMPDEST POP POP POP POP POP DUP2 JUMP JUMPDEST PUSH1 0x1 PUSH1 0x0 SWAP1 SLOAD SWAP1 PUSH2 0x100 EXP SWAP1 DIV PUSH20 0xFFFFFFFFFFFFFFFFFFFFFFFFFFFFFFFFFFFFFFFF AND PUSH20 0xFFFFFFFFFFFFFFFFFFFFFFFFFFFFFFFFFFFFFFFF AND CALLER PUSH20 0xFFFFFFFFFFFFFFFFFFFFFFFFFFFFFFFFFFFFFFFF AND EQ ISZERO PUSH2 0x3E3 JUMPI PUSH1 0x40 MLOAD PUSH32 0x8C379A000000000000000000000000000000000000000000000000000000000 DUP2 MSTORE PUSH1 0x4 ADD PUSH2 0x3DA SWAP1 PUSH2 0x5D8 JUMP JUMPDEST PUSH1 0x40 MLOAD DUP1 SWAP2 SUB SWAP1 REVERT JUMPDEST PUSH1 0x5 SLOAD NUMBER LT ISZERO PUSH2 0x428 JUMPI PUSH1 0x40 MLOAD PUSH32 0x8C379A000000000000000000000000000000000000000000000000000000000 DUP2 MSTORE PUSH1 0x4 ADD PUSH2 0x41F SWAP1 PUSH2 0x618 JUMP JUMPDEST PUSH1 0x40 MLOAD DUP1 SWAP2 SUB SWAP1 REVERT JUMPDEST PUSH1 0x6 SLOAD NUMBER GT ISZERO PUSH2 0x46D JUMPI PUSH1 0x40 MLOAD PUSH32 0x8C379A000000000000000000000000000000000000000000000000000000000 DUP2 MSTORE PUSH1 0x4 ADD PUSH2 0x464 SWAP1 PUSH2 0x5F8 JUMP JUMPDEST PUSH1 0x40 MLOAD DUP1 SWAP2 SUB SWAP1 REVERT JUMPDEST JUMP JUMPDEST PUSH1 0x0 DUP2 CALLDATALOAD SWAP1 POP PUSH2 0x47E DUP2 PUSH2 0x896 JUMP JUMPDEST SWAP3 SWAP2 POP POP JUMP JUMPDEST PUSH1 0x0 PUSH1 0x20 DUP3 DUP5 SUB SLT ISZERO PUSH2 0x49A JUMPI PUSH2 0x499 PUSH2 0x7A5 JUMP JUMPDEST JUMPDEST PUSH1 0x0 PUSH2 0x4A8 DUP5 DUP3 DUP6 ADD PUSH2 0x46F JUMP JUMPDEST SWAP2 POP POP SWAP3 SWAP2 POP POP JUMP JUMPDEST PUSH2 0x4BA DUP2 PUSH2 0x681 JUMP JUMPDEST DUP3 MSTORE POP POP JUMP JUMPDEST PUSH2 0x4C9 DUP2 PUSH2 0x6D0 JUMP JUMPDEST DUP3 MSTORE POP POP JUMP JUMPDEST PUSH1 0x0 PUSH2 0x4DA DUP3 PUSH2 0x653 JUMP JUMPDEST PUSH2 0x4E4 DUP2 DUP6 PUSH2 0x65E JUMP JUMPDEST SWAP4 POP PUSH2 0x4F4 DUP2 DUP6 PUSH1 0x20 DUP7 ADD PUSH2 0x6E2 JUMP JUMPDEST PUSH2 0x4FD DUP2 PUSH2 0x7AA JUMP JUMPDEST DUP5 ADD SWAP2 POP POP SWAP3 SWAP2 POP POP JUMP JUMPDEST PUSH1 0x0 PUSH2 0x515 PUSH1 0x21 DUP4 PUSH2 0x65E JUMP JUMPDEST SWAP2 POP PUSH2 0x520 DUP3 PUSH2 0x7BB JUMP JUMPDEST PUSH1 0x40 DUP3 ADD SWAP1 POP SWAP2 SWAP1 POP JUMP JUMPDEST PUSH1 0x0 PUSH2 0x538 PUSH1 0x18 DUP4 PUSH2 0x65E JUMP JUMPDEST SWAP2 POP PUSH2 0x543 DUP3 PUSH2 0x80A JUMP JUMPDEST PUSH1 0x20 DUP3 ADD SWAP1 POP SWAP2 SWAP1 POP JUMP JUMPDEST PUSH1 0x0 PUSH2 0x55B PUSH1 0x25 DUP4 PUSH2 0x65E JUMP JUMPDEST SWAP2 POP PUSH2 0x566 DUP3 PUSH2 0x833 JUMP JUMPDEST PUSH1 0x40 DUP3 ADD SWAP1 POP SWAP2 SWAP1 POP JUMP JUMPDEST PUSH2 0x57A DUP2 PUSH2 0x6C6 JUMP JUMPDEST DUP3 MSTORE POP POP JUMP JUMPDEST PUSH1 0x0 PUSH1 0x20 DUP3 ADD SWAP1 POP PUSH2 0x595 PUSH1 0x0 DUP4 ADD DUP5 PUSH2 0x4B1 JUMP JUMPDEST SWAP3 SWAP2 POP POP JUMP JUMPDEST PUSH1 0x0 PUSH1 0x20 DUP3 ADD SWAP1 POP PUSH2 0x5B0 PUSH1 0x0 DUP4 ADD DUP5 PUSH2 0x4C0 JUMP JUMPDEST SWAP3 SWAP2 POP POP JUMP JUMPDEST PUSH1 0x0 PUSH1 0x20 DUP3 ADD SWAP1 POP DUP2 DUP2 SUB PUSH1 0x0 DUP4 ADD MSTORE PUSH2 0x5D0 DUP2 DUP5 PUSH2 0x4CF JUMP JUMPDEST SWAP1 POP SWAP3 SWAP2 POP POP JUMP JUMPDEST PUSH1 0x0 PUSH1 0x20 DUP3 ADD SWAP1 POP DUP2 DUP2 SUB PUSH1 0x0 DUP4 ADD MSTORE PUSH2 0x5F1 DUP2 PUSH2 0x508 JUMP JUMPDEST SWAP1 POP SWAP2 SWAP1 POP JUMP JUMPDEST PUSH1 0x0 PUSH1 0x20 DUP3 ADD SWAP1 POP DUP2 DUP2 SUB PUSH1 0x0 DUP4 ADD MSTORE PUSH2 0x611 DUP2 PUSH2 0x52B JUMP JUMPDEST SWAP1 POP SWAP2 SWAP1 POP JUMP JUMPDEST PUSH1 0x0 PUSH1 0x20 DUP3 ADD SWAP1 POP DUP2 DUP2 SUB PUSH1 0x0 DUP4 ADD MSTORE PUSH2 0x631 DUP2 PUSH2 0x54E JUMP JUMPDEST SWAP1 POP SWAP2 SWAP1 POP JUMP JUMPDEST PUSH1 0x0 PUSH1 0x20 DUP3 ADD SWAP1 POP PUSH2 0x64D PUSH1 0x0 DUP4 ADD DUP5 PUSH2 0x571 JUMP JUMPDEST SWAP3 SWAP2 POP POP JUMP JUMPDEST PUSH1 0x0 DUP2 MLOAD SWAP1 POP SWAP2 SWAP1 POP JUMP JUMPDEST PUSH1 0x0 DUP3 DUP3 MSTORE PUSH1 0x20 DUP3 ADD SWAP1 POP SWAP3 SWAP2 POP POP JUMP JUMPDEST PUSH1 0x0 PUSH2 0x67A DUP3 PUSH2 0x6A6 JUMP JUMPDEST SWAP1 POP SWAP2 SWAP1 POP JUMP JUMPDEST PUSH1 0x0 PUSH2 0x68C DUP3 PUSH2 0x6A6 JUMP JUMPDEST SWAP1 POP SWAP2 SWAP1 POP JUMP JUMPDEST PUSH1 0x0 DUP2 SWAP1 POP PUSH2 0x6A1 DUP3 PUSH2 0x882 JUMP JUMPDEST SWAP2 SWAP1 POP JUMP JUMPDEST PUSH1 0x0 PUSH20 0xFFFFFFFFFFFFFFFFFFFFFFFFFFFFFFFFFFFFFFFF DUP3 AND SWAP1 POP SWAP2 SWAP1 POP JUMP JUMPDEST PUSH1 0x0 DUP2 SWAP1 POP SWAP2 SWAP1 POP JUMP JUMPDEST PUSH1 0x0 PUSH2 0x6DB DUP3 PUSH2 0x693 JUMP JUMPDEST SWAP1 POP SWAP2 SWAP1 POP JUMP JUMPDEST PUSH1 0x0 JUMPDEST DUP4 DUP2 LT ISZERO PUSH2 0x700 JUMPI DUP1 DUP3 ADD MLOAD DUP2 DUP5 ADD MSTORE PUSH1 0x20 DUP2 ADD SWAP1 POP PUSH2 0x6E5 JUMP JUMPDEST DUP4 DUP2 GT ISZERO PUSH2 0x70F JUMPI PUSH1 0x0 DUP5 DUP5 ADD MSTORE JUMPDEST POP POP POP POP JUMP JUMPDEST PUSH1 0x0 PUSH1 0x2 DUP3 DIV SWAP1 POP PUSH1 0x1 DUP3 AND DUP1 PUSH2 0x72D JUMPI PUSH1 0x7F DUP3 AND SWAP2 POP JUMPDEST PUSH1 0x20 DUP3 LT DUP2 EQ ISZERO PUSH2 0x741 JUMPI PUSH2 0x740 PUSH2 0x776 JUMP JUMPDEST JUMPDEST POP SWAP2 SWAP1 POP JUMP JUMPDEST PUSH32 0x4E487B7100000000000000000000000000000000000000000000000000000000 PUSH1 0x0 MSTORE PUSH1 0x21 PUSH1 0x4 MSTORE PUSH1 0x24 PUSH1 0x0 REVERT JUMPDEST PUSH32 0x4E487B7100000000000000000000000000000000000000000000000000000000 PUSH1 0x0 MSTORE PUSH1 0x22 PUSH1 0x4 MSTORE PUSH1 0x24 PUSH1 0x0 REVERT JUMPDEST PUSH1 0x0 DUP1 REVERT JUMPDEST PUSH1 0x0 PUSH1 0x1F NOT PUSH1 0x1F DUP4 ADD AND SWAP1 POP SWAP2 SWAP1 POP JUMP JUMPDEST PUSH32 0x426964732063616E206F6E6C7920626520706C61636564206279206F776E6572 PUSH1 0x0 DUP3 ADD MSTORE PUSH32 0x7300000000000000000000000000000000000000000000000000000000000000 PUSH1 0x20 DUP3 ADD MSTORE POP JUMP JUMPDEST PUSH32 0x41756374696F6E2074696D652068617320656C61737065640000000000000000 PUSH1 0x0 DUP3 ADD MSTORE POP JUMP JUMPDEST PUSH32 0x41756374696F6E2063616E6E6F7420626520706C617965642061742074686973 PUSH1 0x0 DUP3 ADD MSTORE PUSH32 0x2074696D65000000000000000000000000000000000000000000000000000000 PUSH1 0x20 DUP3 ADD MSTORE POP JUMP JUMPDEST PUSH1 0x4 DUP2 LT PUSH2 0x893 JUMPI PUSH2 0x892 PUSH2 0x747 JUMP JUMPDEST JUMPDEST POP JUMP JUMPDEST PUSH2 0x89F DUP2 PUSH2 0x66F JUMP JUMPDEST DUP2 EQ PUSH2 0x8AA JUMPI PUSH1 0x0 DUP1 REVERT JUMPDEST POP JUMP INVALID LOG2 PUSH5 0x6970667358 0x22 SLT KECCAK256 PUSH18 0x24E6B918811508340A558FEDF35269540DA2 0x1E MSIZE BYTE RETURNDATASIZE 0x29 0xD 0xD5 0xB4 DUP16 CODECOPY 0xC4 CREATE 0xEF PUSH5 0x736F6C6343 STOP ADDMOD SMOD STOP CALLER "
				},
				"gasEstimates": {
					"creation": {
						"codeDepositCost": "455000",
						"executionCost": "infinite",
						"totalCost": "infinite"
					},
					"external": {
						"auctionState()": "2605",
						"bidIncrement()": "2473",
						"bidsMap(address)": "2903",
						"endBlock()": "2430",
						"higestBindingBid()": "2429",
						"highestBidder()": "2536",
						"ipfsHash()": "infinite",
						"makeABid()": "6920",
						"owner()": "2581",
						"startBlock()": "2452"
					}
				},
				"methodIdentifiers": {
					"auctionState()": "7fb45099",
					"bidIncrement()": "b3cc167a",
					"bidsMap(address)": "8ee77512",
					"endBlock()": "083c6323",
					"higestBindingBid()": "91c11f7d",
					"highestBidder()": "91f90157",
					"ipfsHash()": "c623674f",
					"makeABid()": "eb36a479",
					"owner()": "8da5cb5b",
					"startBlock()": "48cd4cb1"
				}
			},
			"storageLayout": {
				"storage": [
					{
						"astId": 5,
						"contract": "contracts/Auctionsol.sol:Lottery",
						"label": "bidsMap",
						"offset": 0,
						"slot": "0",
						"type": "t_mapping(t_address,t_uint256)"
					},
					{
						"astId": 7,
						"contract": "contracts/Auctionsol.sol:Lottery",
						"label": "owner",
						"offset": 0,
						"slot": "1",
						"type": "t_address_payable"
					},
					{
						"astId": 9,
						"contract": "contracts/Auctionsol.sol:Lottery",
						"label": "highestBidder",
						"offset": 0,
						"slot": "2",
						"type": "t_address_payable"
					},
					{
						"astId": 11,
						"contract": "contracts/Auctionsol.sol:Lottery",
						"label": "higestBindingBid",
						"offset": 0,
						"slot": "3",
						"type": "t_uint256"
					},
					{
						"astId": 13,
						"contract": "contracts/Auctionsol.sol:Lottery",
						"label": "bidIncrement",
						"offset": 0,
						"slot": "4",
						"type": "t_uint256"
					},
					{
						"astId": 15,
						"contract": "contracts/Auctionsol.sol:Lottery",
						"label": "startBlock",
						"offset": 0,
						"slot": "5",
						"type": "t_uint256"
					},
					{
						"astId": 17,
						"contract": "contracts/Auctionsol.sol:Lottery",
						"label": "endBlock",
						"offset": 0,
						"slot": "6",
						"type": "t_uint256"
					},
					{
						"astId": 25,
						"contract": "contracts/Auctionsol.sol:Lottery",
						"label": "auctionState",
						"offset": 0,
						"slot": "7",
						"type": "t_enum(State)22"
					},
					{
						"astId": 27,
						"contract": "contracts/Auctionsol.sol:Lottery",
						"label": "ipfsHash",
						"offset": 0,
						"slot": "8",
						"type": "t_string_storage"
					}
				],
				"types": {
					"t_address": {
						"encoding": "inplace",
						"label": "address",
						"numberOfBytes": "20"
					},
					"t_address_payable": {
						"encoding": "inplace",
						"label": "address payable",
						"numberOfBytes": "20"
					},
					"t_enum(State)22": {
						"encoding": "inplace",
						"label": "enum Lottery.State",
						"numberOfBytes": "1"
					},
					"t_mapping(t_address,t_uint256)": {
						"encoding": "mapping",
						"key": "t_address",
						"label": "mapping(address => uint256)",
						"numberOfBytes": "32",
						"value": "t_uint256"
					},
					"t_string_storage": {
						"encoding": "bytes",
						"label": "string",
						"numberOfBytes": "32"
					},
					"t_uint256": {
						"encoding": "inplace",
						"label": "uint256",
						"numberOfBytes": "32"
					}
				}
			},
			"userdoc": {
				"kind": "user",
				"methods": {},
				"version": 1
			}
		}
	}
}