{
	"contracts/TodoList.sol": {
		"TodoList": {
			"abi": [
				{
					"inputs": [
						{
							"internalType": "uint256",
							"name": "",
							"type": "uint256"
						}
					],
					"name": "Task_Details",
					"outputs": [
						{
							"internalType": "uint256",
							"name": "id",
							"type": "uint256"
						},
						{
							"internalType": "string",
							"name": "details",
							"type": "string"
						},
						{
							"internalType": "bool",
							"name": "status",
							"type": "bool"
						}
					],
					"stateMutability": "view",
					"type": "function"
				},
				{
					"inputs": [],
					"name": "TodoListNumber",
					"outputs": [
						{
							"internalType": "uint256",
							"name": "",
							"type": "uint256"
						}
					],
					"stateMutability": "view",
					"type": "function"
				},
				{
					"inputs": [
						{
							"internalType": "string",
							"name": "_details",
							"type": "string"
						}
					],
					"name": "createToDo",
					"outputs": [],
					"stateMutability": "nonpayable",
					"type": "function"
				}
			],
			"devdoc": {
				"kind": "dev",
				"methods": {},
				"version": 1
			},
			"evm": {
				"assembly": "    /* \"contracts/TodoList.sol\":73:654  contract TodoList{\r... */\n  mstore(0x40, 0x80)\n  callvalue\n  dup1\n  iszero\n  tag_1\n  jumpi\n  0x00\n  dup1\n  revert\ntag_1:\n  pop\n  dataSize(sub_0)\n  dup1\n  dataOffset(sub_0)\n  0x00\n  codecopy\n  0x00\n  return\nstop\n\nsub_0: assembly {\n        /* \"contracts/TodoList.sol\":73:654  contract TodoList{\r... */\n      mstore(0x40, 0x80)\n      callvalue\n      dup1\n      iszero\n      tag_1\n      jumpi\n      0x00\n      dup1\n      revert\n    tag_1:\n      pop\n      jumpi(tag_2, lt(calldatasize, 0x04))\n      shr(0xe0, calldataload(0x00))\n      dup1\n      0x60cf802f\n      eq\n      tag_3\n      jumpi\n      dup1\n      0xa1dbe017\n      eq\n      tag_4\n      jumpi\n      dup1\n      0xa25b79ca\n      eq\n      tag_5\n      jumpi\n    tag_2:\n      0x00\n      dup1\n      revert\n        /* \"contracts/TodoList.sol\":291:649  function createToDo(string memory _details) public {\r... */\n    tag_3:\n      tag_6\n      0x04\n      dup1\n      calldatasize\n      sub\n      dup2\n      add\n      swap1\n      tag_7\n      swap2\n      swap1\n      tag_8\n      jump\t// in\n    tag_7:\n      tag_9\n      jump\t// in\n    tag_6:\n      stop\n        /* \"contracts/TodoList.sol\":234:282  mapping(uint => TaskDetails) public Task_Details */\n    tag_4:\n      tag_10\n      0x04\n      dup1\n      calldatasize\n      sub\n      dup2\n      add\n      swap1\n      tag_11\n      swap2\n      swap1\n      tag_12\n      jump\t// in\n    tag_11:\n      tag_13\n      jump\t// in\n    tag_10:\n      mload(0x40)\n      tag_14\n      swap4\n      swap3\n      swap2\n      swap1\n      tag_15\n      jump\t// in\n    tag_14:\n      mload(0x40)\n      dup1\n      swap2\n      sub\n      swap1\n      return\n        /* \"contracts/TodoList.sol\":99:125  uint public TodoListNumber */\n    tag_5:\n      tag_16\n      tag_17\n      jump\t// in\n    tag_16:\n      mload(0x40)\n      tag_18\n      swap2\n      swap1\n      tag_19\n      jump\t// in\n    tag_18:\n      mload(0x40)\n      dup1\n      swap2\n      sub\n      swap1\n      return\n        /* \"contracts/TodoList.sol\":291:649  function createToDo(string memory _details) public {\r... */\n    tag_9:\n        /* \"contracts/TodoList.sol\":414:428  TodoListNumber */\n      0x00\n      dup1\n        /* \"contracts/TodoList.sol\":414:430  TodoListNumber++ */\n      dup2\n      sload\n      dup1\n      swap3\n      swap2\n      swap1\n      tag_21\n      swap1\n      tag_22\n      jump\t// in\n    tag_21:\n      swap2\n      swap1\n      pop\n      sstore\n      pop\n        /* \"contracts/TodoList.sol\":443:477  TaskDetails storage newTaskDetails */\n      0x00\n        /* \"contracts/TodoList.sol\":480:492  Task_Details */\n      0x01\n        /* \"contracts/TodoList.sol\":480:508  Task_Details[TodoListNumber] */\n      0x00\n        /* \"contracts/TodoList.sol\":493:507  TodoListNumber */\n      dup1\n      sload\n        /* \"contracts/TodoList.sol\":480:508  Task_Details[TodoListNumber] */\n      dup2\n      mstore\n      0x20\n      add\n      swap1\n      dup2\n      mstore\n      0x20\n      add\n      0x00\n      keccak256\n        /* \"contracts/TodoList.sol\":443:508  TaskDetails storage newTaskDetails = Task_Details[TodoListNumber] */\n      swap1\n      pop\n        /* \"contracts/TodoList.sol\":541:555  TodoListNumber */\n      sload(0x00)\n        /* \"contracts/TodoList.sol\":521:535  newTaskDetails */\n      dup2\n        /* \"contracts/TodoList.sol\":521:538  newTaskDetails.id */\n      0x00\n      add\n        /* \"contracts/TodoList.sol\":521:555  newTaskDetails.id = TodoListNumber */\n      dup2\n      swap1\n      sstore\n      pop\n        /* \"contracts/TodoList.sol\":591:599  _details */\n      dup2\n        /* \"contracts/TodoList.sol\":566:580  newTaskDetails */\n      dup2\n        /* \"contracts/TodoList.sol\":566:588  newTaskDetails.details */\n      0x01\n      add\n        /* \"contracts/TodoList.sol\":566:599  newTaskDetails.details = _details */\n      swap1\n      dup1\n      mload\n      swap1\n      0x20\n      add\n      swap1\n      tag_23\n      swap3\n      swap2\n      swap1\n      tag_24\n      jump\t// in\n    tag_23:\n      pop\n        /* \"contracts/TodoList.sol\":634:639  false */\n      0x00\n        /* \"contracts/TodoList.sol\":610:624  newTaskDetails */\n      dup2\n        /* \"contracts/TodoList.sol\":610:631  newTaskDetails.status */\n      0x02\n      add\n      0x00\n        /* \"contracts/TodoList.sol\":610:639  newTaskDetails.status = false */\n      0x0100\n      exp\n      dup2\n      sload\n      dup2\n      0xff\n      mul\n      not\n      and\n      swap1\n      dup4\n      iszero\n      iszero\n      mul\n      or\n      swap1\n      sstore\n      pop\n        /* \"contracts/TodoList.sol\":342:649  {\r... */\n      pop\n        /* \"contracts/TodoList.sol\":291:649  function createToDo(string memory _details) public {\r... */\n      pop\n      jump\t// out\n        /* \"contracts/TodoList.sol\":234:282  mapping(uint => TaskDetails) public Task_Details */\n    tag_13:\n      mstore(0x20, 0x01)\n      dup1\n      0x00\n      mstore\n      keccak256(0x00, 0x40)\n      0x00\n      swap2\n      pop\n      swap1\n      pop\n      dup1\n      0x00\n      add\n      sload\n      swap1\n      dup1\n      0x01\n      add\n      dup1\n      sload\n      tag_25\n      swap1\n      tag_26\n      jump\t// in\n    tag_25:\n      dup1\n      0x1f\n      add\n      0x20\n      dup1\n      swap2\n      div\n      mul\n      0x20\n      add\n      mload(0x40)\n      swap1\n      dup2\n      add\n      0x40\n      mstore\n      dup1\n      swap3\n      swap2\n      swap1\n      dup2\n      dup2\n      mstore\n      0x20\n      add\n      dup3\n      dup1\n      sload\n      tag_27\n      swap1\n      tag_26\n      jump\t// in\n    tag_27:\n      dup1\n      iszero\n      tag_28\n      jumpi\n      dup1\n      0x1f\n      lt\n      tag_29\n      jumpi\n      0x0100\n      dup1\n      dup4\n      sload\n      div\n      mul\n      dup4\n      mstore\n      swap2\n      0x20\n      add\n      swap2\n      jump(tag_28)\n    tag_29:\n      dup3\n      add\n      swap2\n      swap1\n      0x00\n      mstore\n      keccak256(0x00, 0x20)\n      swap1\n    tag_30:\n      dup2\n      sload\n      dup2\n      mstore\n      swap1\n      0x01\n      add\n      swap1\n      0x20\n      add\n      dup1\n      dup4\n      gt\n      tag_30\n      jumpi\n      dup3\n      swap1\n      sub\n      0x1f\n      and\n      dup3\n      add\n      swap2\n    tag_28:\n      pop\n      pop\n      pop\n      pop\n      pop\n      swap1\n      dup1\n      0x02\n      add\n      0x00\n      swap1\n      sload\n      swap1\n      0x0100\n      exp\n      swap1\n      div\n      0xff\n      and\n      swap1\n      pop\n      dup4\n      jump\t// out\n        /* \"contracts/TodoList.sol\":99:125  uint public TodoListNumber */\n    tag_17:\n      sload(0x00)\n      dup2\n      jump\t// out\n    tag_24:\n      dup3\n      dup1\n      sload\n      tag_31\n      swap1\n      tag_26\n      jump\t// in\n    tag_31:\n      swap1\n      0x00\n      mstore\n      keccak256(0x00, 0x20)\n      swap1\n      0x1f\n      add\n      0x20\n      swap1\n      div\n      dup2\n      add\n      swap3\n      dup3\n      tag_33\n      jumpi\n      0x00\n      dup6\n      sstore\n      jump(tag_32)\n    tag_33:\n      dup3\n      0x1f\n      lt\n      tag_34\n      jumpi\n      dup1\n      mload\n      not(0xff)\n      and\n      dup4\n      dup1\n      add\n      or\n      dup6\n      sstore\n      jump(tag_32)\n    tag_34:\n      dup3\n      dup1\n      add\n      0x01\n      add\n      dup6\n      sstore\n      dup3\n      iszero\n      tag_32\n      jumpi\n      swap2\n      dup3\n      add\n    tag_35:\n      dup3\n      dup2\n      gt\n      iszero\n      tag_36\n      jumpi\n      dup3\n      mload\n      dup3\n      sstore\n      swap2\n      0x20\n      add\n      swap2\n      swap1\n      0x01\n      add\n      swap1\n      jump(tag_35)\n    tag_36:\n    tag_32:\n      pop\n      swap1\n      pop\n      tag_37\n      swap2\n      swap1\n      tag_38\n      jump\t// in\n    tag_37:\n      pop\n      swap1\n      jump\t// out\n    tag_38:\n    tag_39:\n      dup1\n      dup3\n      gt\n      iszero\n      tag_40\n      jumpi\n      0x00\n      dup2\n      0x00\n      swap1\n      sstore\n      pop\n      0x01\n      add\n      jump(tag_39)\n    tag_40:\n      pop\n      swap1\n      jump\t// out\n        /* \"#utility.yul\":7:419   */\n    tag_42:\n        /* \"#utility.yul\":85:90   */\n      0x00\n        /* \"#utility.yul\":110:176   */\n      tag_44\n        /* \"#utility.yul\":126:175   */\n      tag_45\n        /* \"#utility.yul\":168:174   */\n      dup5\n        /* \"#utility.yul\":126:175   */\n      tag_46\n      jump\t// in\n    tag_45:\n        /* \"#utility.yul\":110:176   */\n      tag_47\n      jump\t// in\n    tag_44:\n        /* \"#utility.yul\":101:176   */\n      swap1\n      pop\n        /* \"#utility.yul\":199:205   */\n      dup3\n        /* \"#utility.yul\":192:197   */\n      dup2\n        /* \"#utility.yul\":185:206   */\n      mstore\n        /* \"#utility.yul\":237:241   */\n      0x20\n        /* \"#utility.yul\":230:235   */\n      dup2\n        /* \"#utility.yul\":226:242   */\n      add\n        /* \"#utility.yul\":275:278   */\n      dup5\n        /* \"#utility.yul\":266:272   */\n      dup5\n        /* \"#utility.yul\":261:264   */\n      dup5\n        /* \"#utility.yul\":257:273   */\n      add\n        /* \"#utility.yul\":254:279   */\n      gt\n        /* \"#utility.yul\":251:363   */\n      iszero\n      tag_48\n      jumpi\n        /* \"#utility.yul\":282:361   */\n      tag_49\n      tag_50\n      jump\t// in\n    tag_49:\n        /* \"#utility.yul\":251:363   */\n    tag_48:\n        /* \"#utility.yul\":372:413   */\n      tag_51\n        /* \"#utility.yul\":406:412   */\n      dup5\n        /* \"#utility.yul\":401:404   */\n      dup3\n        /* \"#utility.yul\":396:399   */\n      dup6\n        /* \"#utility.yul\":372:413   */\n      tag_52\n      jump\t// in\n    tag_51:\n        /* \"#utility.yul\":91:419   */\n      pop\n        /* \"#utility.yul\":7:419   */\n      swap4\n      swap3\n      pop\n      pop\n      pop\n      jump\t// out\n        /* \"#utility.yul\":439:779   */\n    tag_53:\n        /* \"#utility.yul\":495:500   */\n      0x00\n        /* \"#utility.yul\":544:547   */\n      dup3\n        /* \"#utility.yul\":537:541   */\n      0x1f\n        /* \"#utility.yul\":529:535   */\n      dup4\n        /* \"#utility.yul\":525:542   */\n      add\n        /* \"#utility.yul\":521:548   */\n      slt\n        /* \"#utility.yul\":511:633   */\n      tag_55\n      jumpi\n        /* \"#utility.yul\":552:631   */\n      tag_56\n      tag_57\n      jump\t// in\n    tag_56:\n        /* \"#utility.yul\":511:633   */\n    tag_55:\n        /* \"#utility.yul\":669:675   */\n      dup2\n        /* \"#utility.yul\":656:676   */\n      calldataload\n        /* \"#utility.yul\":694:773   */\n      tag_58\n        /* \"#utility.yul\":769:772   */\n      dup5\n        /* \"#utility.yul\":761:767   */\n      dup3\n        /* \"#utility.yul\":754:758   */\n      0x20\n        /* \"#utility.yul\":746:752   */\n      dup7\n        /* \"#utility.yul\":742:759   */\n      add\n        /* \"#utility.yul\":694:773   */\n      tag_42\n      jump\t// in\n    tag_58:\n        /* \"#utility.yul\":685:773   */\n      swap2\n      pop\n        /* \"#utility.yul\":501:779   */\n      pop\n        /* \"#utility.yul\":439:779   */\n      swap3\n      swap2\n      pop\n      pop\n      jump\t// out\n        /* \"#utility.yul\":785:924   */\n    tag_59:\n        /* \"#utility.yul\":831:836   */\n      0x00\n        /* \"#utility.yul\":869:875   */\n      dup2\n        /* \"#utility.yul\":856:876   */\n      calldataload\n        /* \"#utility.yul\":847:876   */\n      swap1\n      pop\n        /* \"#utility.yul\":885:918   */\n      tag_61\n        /* \"#utility.yul\":912:917   */\n      dup2\n        /* \"#utility.yul\":885:918   */\n      tag_62\n      jump\t// in\n    tag_61:\n        /* \"#utility.yul\":785:924   */\n      swap3\n      swap2\n      pop\n      pop\n      jump\t// out\n        /* \"#utility.yul\":930:1439   */\n    tag_8:\n        /* \"#utility.yul\":999:1005   */\n      0x00\n        /* \"#utility.yul\":1048:1050   */\n      0x20\n        /* \"#utility.yul\":1036:1045   */\n      dup3\n        /* \"#utility.yul\":1027:1034   */\n      dup5\n        /* \"#utility.yul\":1023:1046   */\n      sub\n        /* \"#utility.yul\":1019:1051   */\n      slt\n        /* \"#utility.yul\":1016:1135   */\n      iszero\n      tag_64\n      jumpi\n        /* \"#utility.yul\":1054:1133   */\n      tag_65\n      tag_66\n      jump\t// in\n    tag_65:\n        /* \"#utility.yul\":1016:1135   */\n    tag_64:\n        /* \"#utility.yul\":1202:1203   */\n      0x00\n        /* \"#utility.yul\":1191:1200   */\n      dup3\n        /* \"#utility.yul\":1187:1204   */\n      add\n        /* \"#utility.yul\":1174:1205   */\n      calldataload\n        /* \"#utility.yul\":1232:1250   */\n      0xffffffffffffffff\n        /* \"#utility.yul\":1224:1230   */\n      dup2\n        /* \"#utility.yul\":1221:1251   */\n      gt\n        /* \"#utility.yul\":1218:1335   */\n      iszero\n      tag_67\n      jumpi\n        /* \"#utility.yul\":1254:1333   */\n      tag_68\n      tag_69\n      jump\t// in\n    tag_68:\n        /* \"#utility.yul\":1218:1335   */\n    tag_67:\n        /* \"#utility.yul\":1359:1422   */\n      tag_70\n        /* \"#utility.yul\":1414:1421   */\n      dup5\n        /* \"#utility.yul\":1405:1411   */\n      dup3\n        /* \"#utility.yul\":1394:1403   */\n      dup6\n        /* \"#utility.yul\":1390:1412   */\n      add\n        /* \"#utility.yul\":1359:1422   */\n      tag_53\n      jump\t// in\n    tag_70:\n        /* \"#utility.yul\":1349:1422   */\n      swap2\n      pop\n        /* \"#utility.yul\":1145:1432   */\n      pop\n        /* \"#utility.yul\":930:1439   */\n      swap3\n      swap2\n      pop\n      pop\n      jump\t// out\n        /* \"#utility.yul\":1445:1774   */\n    tag_12:\n        /* \"#utility.yul\":1504:1510   */\n      0x00\n        /* \"#utility.yul\":1553:1555   */\n      0x20\n        /* \"#utility.yul\":1541:1550   */\n      dup3\n        /* \"#utility.yul\":1532:1539   */\n      dup5\n        /* \"#utility.yul\":1528:1551   */\n      sub\n        /* \"#utility.yul\":1524:1556   */\n      slt\n        /* \"#utility.yul\":1521:1640   */\n      iszero\n      tag_72\n      jumpi\n        /* \"#utility.yul\":1559:1638   */\n      tag_73\n      tag_66\n      jump\t// in\n    tag_73:\n        /* \"#utility.yul\":1521:1640   */\n    tag_72:\n        /* \"#utility.yul\":1679:1680   */\n      0x00\n        /* \"#utility.yul\":1704:1757   */\n      tag_74\n        /* \"#utility.yul\":1749:1756   */\n      dup5\n        /* \"#utility.yul\":1740:1746   */\n      dup3\n        /* \"#utility.yul\":1729:1738   */\n      dup6\n        /* \"#utility.yul\":1725:1747   */\n      add\n        /* \"#utility.yul\":1704:1757   */\n      tag_59\n      jump\t// in\n    tag_74:\n        /* \"#utility.yul\":1694:1757   */\n      swap2\n      pop\n        /* \"#utility.yul\":1650:1767   */\n      pop\n        /* \"#utility.yul\":1445:1774   */\n      swap3\n      swap2\n      pop\n      pop\n      jump\t// out\n        /* \"#utility.yul\":1780:1889   */\n    tag_75:\n        /* \"#utility.yul\":1861:1882   */\n      tag_77\n        /* \"#utility.yul\":1876:1881   */\n      dup2\n        /* \"#utility.yul\":1861:1882   */\n      tag_78\n      jump\t// in\n    tag_77:\n        /* \"#utility.yul\":1856:1859   */\n      dup3\n        /* \"#utility.yul\":1849:1883   */\n      mstore\n        /* \"#utility.yul\":1780:1889   */\n      pop\n      pop\n      jump\t// out\n        /* \"#utility.yul\":1895:2259   */\n    tag_79:\n        /* \"#utility.yul\":1983:1986   */\n      0x00\n        /* \"#utility.yul\":2011:2050   */\n      tag_81\n        /* \"#utility.yul\":2044:2049   */\n      dup3\n        /* \"#utility.yul\":2011:2050   */\n      tag_82\n      jump\t// in\n    tag_81:\n        /* \"#utility.yul\":2066:2137   */\n      tag_83\n        /* \"#utility.yul\":2130:2136   */\n      dup2\n        /* \"#utility.yul\":2125:2128   */\n      dup6\n        /* \"#utility.yul\":2066:2137   */\n      tag_84\n      jump\t// in\n    tag_83:\n        /* \"#utility.yul\":2059:2137   */\n      swap4\n      pop\n        /* \"#utility.yul\":2146:2198   */\n      tag_85\n        /* \"#utility.yul\":2191:2197   */\n      dup2\n        /* \"#utility.yul\":2186:2189   */\n      dup6\n        /* \"#utility.yul\":2179:2183   */\n      0x20\n        /* \"#utility.yul\":2172:2177   */\n      dup7\n        /* \"#utility.yul\":2168:2184   */\n      add\n        /* \"#utility.yul\":2146:2198   */\n      tag_86\n      jump\t// in\n    tag_85:\n        /* \"#utility.yul\":2223:2252   */\n      tag_87\n        /* \"#utility.yul\":2245:2251   */\n      dup2\n        /* \"#utility.yul\":2223:2252   */\n      tag_88\n      jump\t// in\n    tag_87:\n        /* \"#utility.yul\":2218:2221   */\n      dup5\n        /* \"#utility.yul\":2214:2253   */\n      add\n        /* \"#utility.yul\":2207:2253   */\n      swap2\n      pop\n        /* \"#utility.yul\":1987:2259   */\n      pop\n        /* \"#utility.yul\":1895:2259   */\n      swap3\n      swap2\n      pop\n      pop\n      jump\t// out\n        /* \"#utility.yul\":2265:2383   */\n    tag_89:\n        /* \"#utility.yul\":2352:2376   */\n      tag_91\n        /* \"#utility.yul\":2370:2375   */\n      dup2\n        /* \"#utility.yul\":2352:2376   */\n      tag_92\n      jump\t// in\n    tag_91:\n        /* \"#utility.yul\":2347:2350   */\n      dup3\n        /* \"#utility.yul\":2340:2377   */\n      mstore\n        /* \"#utility.yul\":2265:2383   */\n      pop\n      pop\n      jump\t// out\n        /* \"#utility.yul\":2389:2611   */\n    tag_19:\n        /* \"#utility.yul\":2482:2486   */\n      0x00\n        /* \"#utility.yul\":2520:2522   */\n      0x20\n        /* \"#utility.yul\":2509:2518   */\n      dup3\n        /* \"#utility.yul\":2505:2523   */\n      add\n        /* \"#utility.yul\":2497:2523   */\n      swap1\n      pop\n        /* \"#utility.yul\":2533:2604   */\n      tag_94\n        /* \"#utility.yul\":2601:2602   */\n      0x00\n        /* \"#utility.yul\":2590:2599   */\n      dup4\n        /* \"#utility.yul\":2586:2603   */\n      add\n        /* \"#utility.yul\":2577:2583   */\n      dup5\n        /* \"#utility.yul\":2533:2604   */\n      tag_89\n      jump\t// in\n    tag_94:\n        /* \"#utility.yul\":2389:2611   */\n      swap3\n      swap2\n      pop\n      pop\n      jump\t// out\n        /* \"#utility.yul\":2617:3138   */\n    tag_15:\n        /* \"#utility.yul\":2780:2784   */\n      0x00\n        /* \"#utility.yul\":2818:2820   */\n      0x60\n        /* \"#utility.yul\":2807:2816   */\n      dup3\n        /* \"#utility.yul\":2803:2821   */\n      add\n        /* \"#utility.yul\":2795:2821   */\n      swap1\n      pop\n        /* \"#utility.yul\":2831:2902   */\n      tag_96\n        /* \"#utility.yul\":2899:2900   */\n      0x00\n        /* \"#utility.yul\":2888:2897   */\n      dup4\n        /* \"#utility.yul\":2884:2901   */\n      add\n        /* \"#utility.yul\":2875:2881   */\n      dup7\n        /* \"#utility.yul\":2831:2902   */\n      tag_89\n      jump\t// in\n    tag_96:\n        /* \"#utility.yul\":2949:2958   */\n      dup2\n        /* \"#utility.yul\":2943:2947   */\n      dup2\n        /* \"#utility.yul\":2939:2959   */\n      sub\n        /* \"#utility.yul\":2934:2936   */\n      0x20\n        /* \"#utility.yul\":2923:2932   */\n      dup4\n        /* \"#utility.yul\":2919:2937   */\n      add\n        /* \"#utility.yul\":2912:2960   */\n      mstore\n        /* \"#utility.yul\":2977:3055   */\n      tag_97\n        /* \"#utility.yul\":3050:3054   */\n      dup2\n        /* \"#utility.yul\":3041:3047   */\n      dup6\n        /* \"#utility.yul\":2977:3055   */\n      tag_79\n      jump\t// in\n    tag_97:\n        /* \"#utility.yul\":2969:3055   */\n      swap1\n      pop\n        /* \"#utility.yul\":3065:3131   */\n      tag_98\n        /* \"#utility.yul\":3127:3129   */\n      0x40\n        /* \"#utility.yul\":3116:3125   */\n      dup4\n        /* \"#utility.yul\":3112:3130   */\n      add\n        /* \"#utility.yul\":3103:3109   */\n      dup5\n        /* \"#utility.yul\":3065:3131   */\n      tag_75\n      jump\t// in\n    tag_98:\n        /* \"#utility.yul\":2617:3138   */\n      swap5\n      swap4\n      pop\n      pop\n      pop\n      pop\n      jump\t// out\n        /* \"#utility.yul\":3144:3273   */\n    tag_47:\n        /* \"#utility.yul\":3178:3184   */\n      0x00\n        /* \"#utility.yul\":3205:3225   */\n      tag_100\n      tag_101\n      jump\t// in\n    tag_100:\n        /* \"#utility.yul\":3195:3225   */\n      swap1\n      pop\n        /* \"#utility.yul\":3234:3267   */\n      tag_102\n        /* \"#utility.yul\":3262:3266   */\n      dup3\n        /* \"#utility.yul\":3254:3260   */\n      dup3\n        /* \"#utility.yul\":3234:3267   */\n      tag_103\n      jump\t// in\n    tag_102:\n        /* \"#utility.yul\":3144:3273   */\n      swap2\n      swap1\n      pop\n      jump\t// out\n        /* \"#utility.yul\":3279:3354   */\n    tag_101:\n        /* \"#utility.yul\":3312:3318   */\n      0x00\n        /* \"#utility.yul\":3345:3347   */\n      0x40\n        /* \"#utility.yul\":3339:3348   */\n      mload\n        /* \"#utility.yul\":3329:3348   */\n      swap1\n      pop\n        /* \"#utility.yul\":3279:3354   */\n      swap1\n      jump\t// out\n        /* \"#utility.yul\":3360:3668   */\n    tag_46:\n        /* \"#utility.yul\":3422:3426   */\n      0x00\n        /* \"#utility.yul\":3512:3530   */\n      0xffffffffffffffff\n        /* \"#utility.yul\":3504:3510   */\n      dup3\n        /* \"#utility.yul\":3501:3531   */\n      gt\n        /* \"#utility.yul\":3498:3554   */\n      iszero\n      tag_106\n      jumpi\n        /* \"#utility.yul\":3534:3552   */\n      tag_107\n      tag_108\n      jump\t// in\n    tag_107:\n        /* \"#utility.yul\":3498:3554   */\n    tag_106:\n        /* \"#utility.yul\":3572:3601   */\n      tag_109\n        /* \"#utility.yul\":3594:3600   */\n      dup3\n        /* \"#utility.yul\":3572:3601   */\n      tag_88\n      jump\t// in\n    tag_109:\n        /* \"#utility.yul\":3564:3601   */\n      swap1\n      pop\n        /* \"#utility.yul\":3656:3660   */\n      0x20\n        /* \"#utility.yul\":3650:3654   */\n      dup2\n        /* \"#utility.yul\":3646:3661   */\n      add\n        /* \"#utility.yul\":3638:3661   */\n      swap1\n      pop\n        /* \"#utility.yul\":3360:3668   */\n      swap2\n      swap1\n      pop\n      jump\t// out\n        /* \"#utility.yul\":3674:3773   */\n    tag_82:\n        /* \"#utility.yul\":3726:3732   */\n      0x00\n        /* \"#utility.yul\":3760:3765   */\n      dup2\n        /* \"#utility.yul\":3754:3766   */\n      mload\n        /* \"#utility.yul\":3744:3766   */\n      swap1\n      pop\n        /* \"#utility.yul\":3674:3773   */\n      swap2\n      swap1\n      pop\n      jump\t// out\n        /* \"#utility.yul\":3779:3948   */\n    tag_84:\n        /* \"#utility.yul\":3863:3874   */\n      0x00\n        /* \"#utility.yul\":3897:3903   */\n      dup3\n        /* \"#utility.yul\":3892:3895   */\n      dup3\n        /* \"#utility.yul\":3885:3904   */\n      mstore\n        /* \"#utility.yul\":3937:3941   */\n      0x20\n        /* \"#utility.yul\":3932:3935   */\n      dup3\n        /* \"#utility.yul\":3928:3942   */\n      add\n        /* \"#utility.yul\":3913:3942   */\n      swap1\n      pop\n        /* \"#utility.yul\":3779:3948   */\n      swap3\n      swap2\n      pop\n      pop\n      jump\t// out\n        /* \"#utility.yul\":3954:4044   */\n    tag_78:\n        /* \"#utility.yul\":3988:3995   */\n      0x00\n        /* \"#utility.yul\":4031:4036   */\n      dup2\n        /* \"#utility.yul\":4024:4037   */\n      iszero\n        /* \"#utility.yul\":4017:4038   */\n      iszero\n        /* \"#utility.yul\":4006:4038   */\n      swap1\n      pop\n        /* \"#utility.yul\":3954:4044   */\n      swap2\n      swap1\n      pop\n      jump\t// out\n        /* \"#utility.yul\":4050:4127   */\n    tag_92:\n        /* \"#utility.yul\":4087:4094   */\n      0x00\n        /* \"#utility.yul\":4116:4121   */\n      dup2\n        /* \"#utility.yul\":4105:4121   */\n      swap1\n      pop\n        /* \"#utility.yul\":4050:4127   */\n      swap2\n      swap1\n      pop\n      jump\t// out\n        /* \"#utility.yul\":4133:4287   */\n    tag_52:\n        /* \"#utility.yul\":4217:4223   */\n      dup3\n        /* \"#utility.yul\":4212:4215   */\n      dup2\n        /* \"#utility.yul\":4207:4210   */\n      dup4\n        /* \"#utility.yul\":4194:4224   */\n      calldatacopy\n        /* \"#utility.yul\":4279:4280   */\n      0x00\n        /* \"#utility.yul\":4270:4276   */\n      dup4\n        /* \"#utility.yul\":4265:4268   */\n      dup4\n        /* \"#utility.yul\":4261:4277   */\n      add\n        /* \"#utility.yul\":4254:4281   */\n      mstore\n        /* \"#utility.yul\":4133:4287   */\n      pop\n      pop\n      pop\n      jump\t// out\n        /* \"#utility.yul\":4293:4600   */\n    tag_86:\n        /* \"#utility.yul\":4361:4362   */\n      0x00\n        /* \"#utility.yul\":4371:4484   */\n    tag_116:\n        /* \"#utility.yul\":4385:4391   */\n      dup4\n        /* \"#utility.yul\":4382:4383   */\n      dup2\n        /* \"#utility.yul\":4379:4392   */\n      lt\n        /* \"#utility.yul\":4371:4484   */\n      iszero\n      tag_118\n      jumpi\n        /* \"#utility.yul\":4470:4471   */\n      dup1\n        /* \"#utility.yul\":4465:4468   */\n      dup3\n        /* \"#utility.yul\":4461:4472   */\n      add\n        /* \"#utility.yul\":4455:4473   */\n      mload\n        /* \"#utility.yul\":4451:4452   */\n      dup2\n        /* \"#utility.yul\":4446:4449   */\n      dup5\n        /* \"#utility.yul\":4442:4453   */\n      add\n        /* \"#utility.yul\":4435:4474   */\n      mstore\n        /* \"#utility.yul\":4407:4409   */\n      0x20\n        /* \"#utility.yul\":4404:4405   */\n      dup2\n        /* \"#utility.yul\":4400:4410   */\n      add\n        /* \"#utility.yul\":4395:4410   */\n      swap1\n      pop\n        /* \"#utility.yul\":4371:4484   */\n      jump(tag_116)\n    tag_118:\n        /* \"#utility.yul\":4502:4508   */\n      dup4\n        /* \"#utility.yul\":4499:4500   */\n      dup2\n        /* \"#utility.yul\":4496:4509   */\n      gt\n        /* \"#utility.yul\":4493:4594   */\n      iszero\n      tag_119\n      jumpi\n        /* \"#utility.yul\":4582:4583   */\n      0x00\n        /* \"#utility.yul\":4573:4579   */\n      dup5\n        /* \"#utility.yul\":4568:4571   */\n      dup5\n        /* \"#utility.yul\":4564:4580   */\n      add\n        /* \"#utility.yul\":4557:4584   */\n      mstore\n        /* \"#utility.yul\":4493:4594   */\n    tag_119:\n        /* \"#utility.yul\":4342:4600   */\n      pop\n        /* \"#utility.yul\":4293:4600   */\n      pop\n      pop\n      pop\n      jump\t// out\n        /* \"#utility.yul\":4606:4926   */\n    tag_26:\n        /* \"#utility.yul\":4650:4656   */\n      0x00\n        /* \"#utility.yul\":4687:4688   */\n      0x02\n        /* \"#utility.yul\":4681:4685   */\n      dup3\n        /* \"#utility.yul\":4677:4689   */\n      div\n        /* \"#utility.yul\":4667:4689   */\n      swap1\n      pop\n        /* \"#utility.yul\":4734:4735   */\n      0x01\n        /* \"#utility.yul\":4728:4732   */\n      dup3\n        /* \"#utility.yul\":4724:4736   */\n      and\n        /* \"#utility.yul\":4755:4773   */\n      dup1\n        /* \"#utility.yul\":4745:4826   */\n      tag_121\n      jumpi\n        /* \"#utility.yul\":4811:4815   */\n      0x7f\n        /* \"#utility.yul\":4803:4809   */\n      dup3\n        /* \"#utility.yul\":4799:4816   */\n      and\n        /* \"#utility.yul\":4789:4816   */\n      swap2\n      pop\n        /* \"#utility.yul\":4745:4826   */\n    tag_121:\n        /* \"#utility.yul\":4873:4875   */\n      0x20\n        /* \"#utility.yul\":4865:4871   */\n      dup3\n        /* \"#utility.yul\":4862:4876   */\n      lt\n        /* \"#utility.yul\":4842:4860   */\n      dup2\n        /* \"#utility.yul\":4839:4877   */\n      eq\n        /* \"#utility.yul\":4836:4920   */\n      iszero\n      tag_122\n      jumpi\n        /* \"#utility.yul\":4892:4910   */\n      tag_123\n      tag_124\n      jump\t// in\n    tag_123:\n        /* \"#utility.yul\":4836:4920   */\n    tag_122:\n        /* \"#utility.yul\":4657:4926   */\n      pop\n        /* \"#utility.yul\":4606:4926   */\n      swap2\n      swap1\n      pop\n      jump\t// out\n        /* \"#utility.yul\":4932:5213   */\n    tag_103:\n        /* \"#utility.yul\":5015:5042   */\n      tag_126\n        /* \"#utility.yul\":5037:5041   */\n      dup3\n        /* \"#utility.yul\":5015:5042   */\n      tag_88\n      jump\t// in\n    tag_126:\n        /* \"#utility.yul\":5007:5013   */\n      dup2\n        /* \"#utility.yul\":5003:5043   */\n      add\n        /* \"#utility.yul\":5145:5151   */\n      dup2\n        /* \"#utility.yul\":5133:5143   */\n      dup2\n        /* \"#utility.yul\":5130:5152   */\n      lt\n        /* \"#utility.yul\":5109:5127   */\n      0xffffffffffffffff\n        /* \"#utility.yul\":5097:5107   */\n      dup3\n        /* \"#utility.yul\":5094:5128   */\n      gt\n        /* \"#utility.yul\":5091:5153   */\n      or\n        /* \"#utility.yul\":5088:5176   */\n      iszero\n      tag_127\n      jumpi\n        /* \"#utility.yul\":5156:5174   */\n      tag_128\n      tag_108\n      jump\t// in\n    tag_128:\n        /* \"#utility.yul\":5088:5176   */\n    tag_127:\n        /* \"#utility.yul\":5196:5206   */\n      dup1\n        /* \"#utility.yul\":5192:5194   */\n      0x40\n        /* \"#utility.yul\":5185:5207   */\n      mstore\n        /* \"#utility.yul\":4975:5213   */\n      pop\n        /* \"#utility.yul\":4932:5213   */\n      pop\n      pop\n      jump\t// out\n        /* \"#utility.yul\":5219:5452   */\n    tag_22:\n        /* \"#utility.yul\":5258:5261   */\n      0x00\n        /* \"#utility.yul\":5281:5305   */\n      tag_130\n        /* \"#utility.yul\":5299:5304   */\n      dup3\n        /* \"#utility.yul\":5281:5305   */\n      tag_92\n      jump\t// in\n    tag_130:\n        /* \"#utility.yul\":5272:5305   */\n      swap2\n      pop\n        /* \"#utility.yul\":5327:5393   */\n      0xffffffffffffffffffffffffffffffffffffffffffffffffffffffffffffffff\n        /* \"#utility.yul\":5320:5325   */\n      dup3\n        /* \"#utility.yul\":5317:5394   */\n      eq\n        /* \"#utility.yul\":5314:5417   */\n      iszero\n      tag_131\n      jumpi\n        /* \"#utility.yul\":5397:5415   */\n      tag_132\n      tag_133\n      jump\t// in\n    tag_132:\n        /* \"#utility.yul\":5314:5417   */\n    tag_131:\n        /* \"#utility.yul\":5444:5445   */\n      0x01\n        /* \"#utility.yul\":5437:5442   */\n      dup3\n        /* \"#utility.yul\":5433:5446   */\n      add\n        /* \"#utility.yul\":5426:5446   */\n      swap1\n      pop\n        /* \"#utility.yul\":5219:5452   */\n      swap2\n      swap1\n      pop\n      jump\t// out\n        /* \"#utility.yul\":5458:5638   */\n    tag_133:\n        /* \"#utility.yul\":5506:5583   */\n      0x4e487b7100000000000000000000000000000000000000000000000000000000\n        /* \"#utility.yul\":5503:5504   */\n      0x00\n        /* \"#utility.yul\":5496:5584   */\n      mstore\n        /* \"#utility.yul\":5603:5607   */\n      0x11\n        /* \"#utility.yul\":5600:5601   */\n      0x04\n        /* \"#utility.yul\":5593:5608   */\n      mstore\n        /* \"#utility.yul\":5627:5631   */\n      0x24\n        /* \"#utility.yul\":5624:5625   */\n      0x00\n        /* \"#utility.yul\":5617:5632   */\n      revert\n        /* \"#utility.yul\":5644:5824   */\n    tag_124:\n        /* \"#utility.yul\":5692:5769   */\n      0x4e487b7100000000000000000000000000000000000000000000000000000000\n        /* \"#utility.yul\":5689:5690   */\n      0x00\n        /* \"#utility.yul\":5682:5770   */\n      mstore\n        /* \"#utility.yul\":5789:5793   */\n      0x22\n        /* \"#utility.yul\":5786:5787   */\n      0x04\n        /* \"#utility.yul\":5779:5794   */\n      mstore\n        /* \"#utility.yul\":5813:5817   */\n      0x24\n        /* \"#utility.yul\":5810:5811   */\n      0x00\n        /* \"#utility.yul\":5803:5818   */\n      revert\n        /* \"#utility.yul\":5830:6010   */\n    tag_108:\n        /* \"#utility.yul\":5878:5955   */\n      0x4e487b7100000000000000000000000000000000000000000000000000000000\n        /* \"#utility.yul\":5875:5876   */\n      0x00\n        /* \"#utility.yul\":5868:5956   */\n      mstore\n        /* \"#utility.yul\":5975:5979   */\n      0x41\n        /* \"#utility.yul\":5972:5973   */\n      0x04\n        /* \"#utility.yul\":5965:5980   */\n      mstore\n        /* \"#utility.yul\":5999:6003   */\n      0x24\n        /* \"#utility.yul\":5996:5997   */\n      0x00\n        /* \"#utility.yul\":5989:6004   */\n      revert\n        /* \"#utility.yul\":6016:6133   */\n    tag_57:\n        /* \"#utility.yul\":6125:6126   */\n      0x00\n        /* \"#utility.yul\":6122:6123   */\n      dup1\n        /* \"#utility.yul\":6115:6127   */\n      revert\n        /* \"#utility.yul\":6139:6256   */\n    tag_50:\n        /* \"#utility.yul\":6248:6249   */\n      0x00\n        /* \"#utility.yul\":6245:6246   */\n      dup1\n        /* \"#utility.yul\":6238:6250   */\n      revert\n        /* \"#utility.yul\":6262:6379   */\n    tag_69:\n        /* \"#utility.yul\":6371:6372   */\n      0x00\n        /* \"#utility.yul\":6368:6369   */\n      dup1\n        /* \"#utility.yul\":6361:6373   */\n      revert\n        /* \"#utility.yul\":6385:6502   */\n    tag_66:\n        /* \"#utility.yul\":6494:6495   */\n      0x00\n        /* \"#utility.yul\":6491:6492   */\n      dup1\n        /* \"#utility.yul\":6484:6496   */\n      revert\n        /* \"#utility.yul\":6508:6610   */\n    tag_88:\n        /* \"#utility.yul\":6549:6555   */\n      0x00\n        /* \"#utility.yul\":6600:6602   */\n      0x1f\n        /* \"#utility.yul\":6596:6603   */\n      not\n        /* \"#utility.yul\":6591:6593   */\n      0x1f\n        /* \"#utility.yul\":6584:6589   */\n      dup4\n        /* \"#utility.yul\":6580:6594   */\n      add\n        /* \"#utility.yul\":6576:6604   */\n      and\n        /* \"#utility.yul\":6566:6604   */\n      swap1\n      pop\n        /* \"#utility.yul\":6508:6610   */\n      swap2\n      swap1\n      pop\n      jump\t// out\n        /* \"#utility.yul\":6616:6738   */\n    tag_62:\n        /* \"#utility.yul\":6689:6713   */\n      tag_143\n        /* \"#utility.yul\":6707:6712   */\n      dup2\n        /* \"#utility.yul\":6689:6713   */\n      tag_92\n      jump\t// in\n    tag_143:\n        /* \"#utility.yul\":6682:6687   */\n      dup2\n        /* \"#utility.yul\":6679:6714   */\n      eq\n        /* \"#utility.yul\":6669:6732   */\n      tag_144\n      jumpi\n        /* \"#utility.yul\":6728:6729   */\n      0x00\n        /* \"#utility.yul\":6725:6726   */\n      dup1\n        /* \"#utility.yul\":6718:6730   */\n      revert\n        /* \"#utility.yul\":6669:6732   */\n    tag_144:\n        /* \"#utility.yul\":6616:6738   */\n      pop\n      jump\t// out\n\n    auxdata: 0xa2646970667358221220f8ec81fea185049e9262c955a0093a0e0d198721b1f3c45e9ef4fe29daec568064736f6c63430008070033\n}\n",
				"bytecode": {
					"linkReferences": {},
					"object": "608060405234801561001057600080fd5b506106ae806100206000396000f3fe608060405234801561001057600080fd5b50600436106100415760003560e01c806360cf802f14610046578063a1dbe01714610062578063a25b79ca14610094575b600080fd5b610060600480360381019061005b9190610313565b6100b2565b005b61007c6004803603810190610077919061035c565b610126565b60405161008b939291906103fb565b60405180910390f35b61009c6101e5565b6040516100a991906103e0565b60405180910390f35b6000808154809291906100c490610566565b91905055506000600160008054815260200190815260200160002090506000548160000181905550818160010190805190602001906101049291906101eb565b5060008160020160006101000a81548160ff0219169083151502179055505050565b600160205280600052604060002060009150905080600001549080600101805461014f90610503565b80601f016020809104026020016040519081016040528092919081815260200182805461017b90610503565b80156101c85780601f1061019d576101008083540402835291602001916101c8565b820191906000526020600020905b8154815290600101906020018083116101ab57829003601f168201915b5050505050908060020160009054906101000a900460ff16905083565b60005481565b8280546101f790610503565b90600052602060002090601f0160209004810192826102195760008555610260565b82601f1061023257805160ff1916838001178555610260565b82800160010185558215610260579182015b8281111561025f578251825591602001919060010190610244565b5b50905061026d9190610271565b5090565b5b8082111561028a576000816000905550600101610272565b5090565b60006102a161029c8461045e565b610439565b9050828152602081018484840111156102bd576102bc610641565b5b6102c88482856104c1565b509392505050565b600082601f8301126102e5576102e461063c565b5b81356102f584826020860161028e565b91505092915050565b60008135905061030d81610661565b92915050565b6000602082840312156103295761032861064b565b5b600082013567ffffffffffffffff81111561034757610346610646565b5b610353848285016102d0565b91505092915050565b6000602082840312156103725761037161064b565b5b6000610380848285016102fe565b91505092915050565b610392816104ab565b82525050565b60006103a38261048f565b6103ad818561049a565b93506103bd8185602086016104d0565b6103c681610650565b840191505092915050565b6103da816104b7565b82525050565b60006020820190506103f560008301846103d1565b92915050565b600060608201905061041060008301866103d1565b81810360208301526104228185610398565b90506104316040830184610389565b949350505050565b6000610443610454565b905061044f8282610535565b919050565b6000604051905090565b600067ffffffffffffffff8211156104795761047861060d565b5b61048282610650565b9050602081019050919050565b600081519050919050565b600082825260208201905092915050565b60008115159050919050565b6000819050919050565b82818337600083830152505050565b60005b838110156104ee5780820151818401526020810190506104d3565b838111156104fd576000848401525b50505050565b6000600282049050600182168061051b57607f821691505b6020821081141561052f5761052e6105de565b5b50919050565b61053e82610650565b810181811067ffffffffffffffff8211171561055d5761055c61060d565b5b80604052505050565b6000610571826104b7565b91507fffffffffffffffffffffffffffffffffffffffffffffffffffffffffffffffff8214156105a4576105a36105af565b5b600182019050919050565b7f4e487b7100000000000000000000000000000000000000000000000000000000600052601160045260246000fd5b7f4e487b7100000000000000000000000000000000000000000000000000000000600052602260045260246000fd5b7f4e487b7100000000000000000000000000000000000000000000000000000000600052604160045260246000fd5b600080fd5b600080fd5b600080fd5b600080fd5b6000601f19601f8301169050919050565b61066a816104b7565b811461067557600080fd5b5056fea2646970667358221220f8ec81fea185049e9262c955a0093a0e0d198721b1f3c45e9ef4fe29daec568064736f6c63430008070033",
					"opcodes": "PUSH1 0x80 PUSH1 0x40 MSTORE CALLVALUE DUP1 ISZERO PUSH2 0x10 JUMPI PUSH1 0x0 DUP1 REVERT JUMPDEST POP PUSH2 0x6AE DUP1 PUSH2 0x20 PUSH1 0x0 CODECOPY PUSH1 0x0 RETURN INVALID PUSH1 0x80 PUSH1 0x40 MSTORE CALLVALUE DUP1 ISZERO PUSH2 0x10 JUMPI PUSH1 0x0 DUP1 REVERT JUMPDEST POP PUSH1 0x4 CALLDATASIZE LT PUSH2 0x41 JUMPI PUSH1 0x0 CALLDATALOAD PUSH1 0xE0 SHR DUP1 PUSH4 0x60CF802F EQ PUSH2 0x46 JUMPI DUP1 PUSH4 0xA1DBE017 EQ PUSH2 0x62 JUMPI DUP1 PUSH4 0xA25B79CA EQ PUSH2 0x94 JUMPI JUMPDEST PUSH1 0x0 DUP1 REVERT JUMPDEST PUSH2 0x60 PUSH1 0x4 DUP1 CALLDATASIZE SUB DUP2 ADD SWAP1 PUSH2 0x5B SWAP2 SWAP1 PUSH2 0x313 JUMP JUMPDEST PUSH2 0xB2 JUMP JUMPDEST STOP JUMPDEST PUSH2 0x7C PUSH1 0x4 DUP1 CALLDATASIZE SUB DUP2 ADD SWAP1 PUSH2 0x77 SWAP2 SWAP1 PUSH2 0x35C JUMP JUMPDEST PUSH2 0x126 JUMP JUMPDEST PUSH1 0x40 MLOAD PUSH2 0x8B SWAP4 SWAP3 SWAP2 SWAP1 PUSH2 0x3FB JUMP JUMPDEST PUSH1 0x40 MLOAD DUP1 SWAP2 SUB SWAP1 RETURN JUMPDEST PUSH2 0x9C PUSH2 0x1E5 JUMP JUMPDEST PUSH1 0x40 MLOAD PUSH2 0xA9 SWAP2 SWAP1 PUSH2 0x3E0 JUMP JUMPDEST PUSH1 0x40 MLOAD DUP1 SWAP2 SUB SWAP1 RETURN JUMPDEST PUSH1 0x0 DUP1 DUP2 SLOAD DUP1 SWAP3 SWAP2 SWAP1 PUSH2 0xC4 SWAP1 PUSH2 0x566 JUMP JUMPDEST SWAP2 SWAP1 POP SSTORE POP PUSH1 0x0 PUSH1 0x1 PUSH1 0x0 DUP1 SLOAD DUP2 MSTORE PUSH1 0x20 ADD SWAP1 DUP2 MSTORE PUSH1 0x20 ADD PUSH1 0x0 KECCAK256 SWAP1 POP PUSH1 0x0 SLOAD DUP2 PUSH1 0x0 ADD DUP2 SWAP1 SSTORE POP DUP2 DUP2 PUSH1 0x1 ADD SWAP1 DUP1 MLOAD SWAP1 PUSH1 0x20 ADD SWAP1 PUSH2 0x104 SWAP3 SWAP2 SWAP1 PUSH2 0x1EB JUMP JUMPDEST POP PUSH1 0x0 DUP2 PUSH1 0x2 ADD PUSH1 0x0 PUSH2 0x100 EXP DUP2 SLOAD DUP2 PUSH1 0xFF MUL NOT AND SWAP1 DUP4 ISZERO ISZERO MUL OR SWAP1 SSTORE POP POP POP JUMP JUMPDEST PUSH1 0x1 PUSH1 0x20 MSTORE DUP1 PUSH1 0x0 MSTORE PUSH1 0x40 PUSH1 0x0 KECCAK256 PUSH1 0x0 SWAP2 POP SWAP1 POP DUP1 PUSH1 0x0 ADD SLOAD SWAP1 DUP1 PUSH1 0x1 ADD DUP1 SLOAD PUSH2 0x14F SWAP1 PUSH2 0x503 JUMP JUMPDEST DUP1 PUSH1 0x1F ADD PUSH1 0x20 DUP1 SWAP2 DIV MUL PUSH1 0x20 ADD PUSH1 0x40 MLOAD SWAP1 DUP2 ADD PUSH1 0x40 MSTORE DUP1 SWAP3 SWAP2 SWAP1 DUP2 DUP2 MSTORE PUSH1 0x20 ADD DUP3 DUP1 SLOAD PUSH2 0x17B SWAP1 PUSH2 0x503 JUMP JUMPDEST DUP1 ISZERO PUSH2 0x1C8 JUMPI DUP1 PUSH1 0x1F LT PUSH2 0x19D JUMPI PUSH2 0x100 DUP1 DUP4 SLOAD DIV MUL DUP4 MSTORE SWAP2 PUSH1 0x20 ADD SWAP2 PUSH2 0x1C8 JUMP JUMPDEST DUP3 ADD SWAP2 SWAP1 PUSH1 0x0 MSTORE PUSH1 0x20 PUSH1 0x0 KECCAK256 SWAP1 JUMPDEST DUP2 SLOAD DUP2 MSTORE SWAP1 PUSH1 0x1 ADD SWAP1 PUSH1 0x20 ADD DUP1 DUP4 GT PUSH2 0x1AB JUMPI DUP3 SWAP1 SUB PUSH1 0x1F AND DUP3 ADD SWAP2 JUMPDEST POP POP POP POP POP SWAP1 DUP1 PUSH1 0x2 ADD PUSH1 0x0 SWAP1 SLOAD SWAP1 PUSH2 0x100 EXP SWAP1 DIV PUSH1 0xFF AND SWAP1 POP DUP4 JUMP JUMPDEST PUSH1 0x0 SLOAD DUP2 JUMP JUMPDEST DUP3 DUP1 SLOAD PUSH2 0x1F7 SWAP1 PUSH2 0x503 JUMP JUMPDEST SWAP1 PUSH1 0x0 MSTORE PUSH1 0x20 PUSH1 0x0 KECCAK256 SWAP1 PUSH1 0x1F ADD PUSH1 0x20 SWAP1 DIV DUP2 ADD SWAP3 DUP3 PUSH2 0x219 JUMPI PUSH1 0x0 DUP6 SSTORE PUSH2 0x260 JUMP JUMPDEST DUP3 PUSH1 0x1F LT PUSH2 0x232 JUMPI DUP1 MLOAD PUSH1 0xFF NOT AND DUP4 DUP1 ADD OR DUP6 SSTORE PUSH2 0x260 JUMP JUMPDEST DUP3 DUP1 ADD PUSH1 0x1 ADD DUP6 SSTORE DUP3 ISZERO PUSH2 0x260 JUMPI SWAP2 DUP3 ADD JUMPDEST DUP3 DUP2 GT ISZERO PUSH2 0x25F JUMPI DUP3 MLOAD DUP3 SSTORE SWAP2 PUSH1 0x20 ADD SWAP2 SWAP1 PUSH1 0x1 ADD SWAP1 PUSH2 0x244 JUMP JUMPDEST JUMPDEST POP SWAP1 POP PUSH2 0x26D SWAP2 SWAP1 PUSH2 0x271 JUMP JUMPDEST POP SWAP1 JUMP JUMPDEST JUMPDEST DUP1 DUP3 GT ISZERO PUSH2 0x28A JUMPI PUSH1 0x0 DUP2 PUSH1 0x0 SWAP1 SSTORE POP PUSH1 0x1 ADD PUSH2 0x272 JUMP JUMPDEST POP SWAP1 JUMP JUMPDEST PUSH1 0x0 PUSH2 0x2A1 PUSH2 0x29C DUP5 PUSH2 0x45E JUMP JUMPDEST PUSH2 0x439 JUMP JUMPDEST SWAP1 POP DUP3 DUP2 MSTORE PUSH1 0x20 DUP2 ADD DUP5 DUP5 DUP5 ADD GT ISZERO PUSH2 0x2BD JUMPI PUSH2 0x2BC PUSH2 0x641 JUMP JUMPDEST JUMPDEST PUSH2 0x2C8 DUP5 DUP3 DUP6 PUSH2 0x4C1 JUMP JUMPDEST POP SWAP4 SWAP3 POP POP POP JUMP JUMPDEST PUSH1 0x0 DUP3 PUSH1 0x1F DUP4 ADD SLT PUSH2 0x2E5 JUMPI PUSH2 0x2E4 PUSH2 0x63C JUMP JUMPDEST JUMPDEST DUP2 CALLDATALOAD PUSH2 0x2F5 DUP5 DUP3 PUSH1 0x20 DUP7 ADD PUSH2 0x28E JUMP JUMPDEST SWAP2 POP POP SWAP3 SWAP2 POP POP JUMP JUMPDEST PUSH1 0x0 DUP2 CALLDATALOAD SWAP1 POP PUSH2 0x30D DUP2 PUSH2 0x661 JUMP JUMPDEST SWAP3 SWAP2 POP POP JUMP JUMPDEST PUSH1 0x0 PUSH1 0x20 DUP3 DUP5 SUB SLT ISZERO PUSH2 0x329 JUMPI PUSH2 0x328 PUSH2 0x64B JUMP JUMPDEST JUMPDEST PUSH1 0x0 DUP3 ADD CALLDATALOAD PUSH8 0xFFFFFFFFFFFFFFFF DUP2 GT ISZERO PUSH2 0x347 JUMPI PUSH2 0x346 PUSH2 0x646 JUMP JUMPDEST JUMPDEST PUSH2 0x353 DUP5 DUP3 DUP6 ADD PUSH2 0x2D0 JUMP JUMPDEST SWAP2 POP POP SWAP3 SWAP2 POP POP JUMP JUMPDEST PUSH1 0x0 PUSH1 0x20 DUP3 DUP5 SUB SLT ISZERO PUSH2 0x372 JUMPI PUSH2 0x371 PUSH2 0x64B JUMP JUMPDEST JUMPDEST PUSH1 0x0 PUSH2 0x380 DUP5 DUP3 DUP6 ADD PUSH2 0x2FE JUMP JUMPDEST SWAP2 POP POP SWAP3 SWAP2 POP POP JUMP JUMPDEST PUSH2 0x392 DUP2 PUSH2 0x4AB JUMP JUMPDEST DUP3 MSTORE POP POP JUMP JUMPDEST PUSH1 0x0 PUSH2 0x3A3 DUP3 PUSH2 0x48F JUMP JUMPDEST PUSH2 0x3AD DUP2 DUP6 PUSH2 0x49A JUMP JUMPDEST SWAP4 POP PUSH2 0x3BD DUP2 DUP6 PUSH1 0x20 DUP7 ADD PUSH2 0x4D0 JUMP JUMPDEST PUSH2 0x3C6 DUP2 PUSH2 0x650 JUMP JUMPDEST DUP5 ADD SWAP2 POP POP SWAP3 SWAP2 POP POP JUMP JUMPDEST PUSH2 0x3DA DUP2 PUSH2 0x4B7 JUMP JUMPDEST DUP3 MSTORE POP POP JUMP JUMPDEST PUSH1 0x0 PUSH1 0x20 DUP3 ADD SWAP1 POP PUSH2 0x3F5 PUSH1 0x0 DUP4 ADD DUP5 PUSH2 0x3D1 JUMP JUMPDEST SWAP3 SWAP2 POP POP JUMP JUMPDEST PUSH1 0x0 PUSH1 0x60 DUP3 ADD SWAP1 POP PUSH2 0x410 PUSH1 0x0 DUP4 ADD DUP7 PUSH2 0x3D1 JUMP JUMPDEST DUP2 DUP2 SUB PUSH1 0x20 DUP4 ADD MSTORE PUSH2 0x422 DUP2 DUP6 PUSH2 0x398 JUMP JUMPDEST SWAP1 POP PUSH2 0x431 PUSH1 0x40 DUP4 ADD DUP5 PUSH2 0x389 JUMP JUMPDEST SWAP5 SWAP4 POP POP POP POP JUMP JUMPDEST PUSH1 0x0 PUSH2 0x443 PUSH2 0x454 JUMP JUMPDEST SWAP1 POP PUSH2 0x44F DUP3 DUP3 PUSH2 0x535 JUMP JUMPDEST SWAP2 SWAP1 POP JUMP JUMPDEST PUSH1 0x0 PUSH1 0x40 MLOAD SWAP1 POP SWAP1 JUMP JUMPDEST PUSH1 0x0 PUSH8 0xFFFFFFFFFFFFFFFF DUP3 GT ISZERO PUSH2 0x479 JUMPI PUSH2 0x478 PUSH2 0x60D JUMP JUMPDEST JUMPDEST PUSH2 0x482 DUP3 PUSH2 0x650 JUMP JUMPDEST SWAP1 POP PUSH1 0x20 DUP2 ADD SWAP1 POP SWAP2 SWAP1 POP JUMP JUMPDEST PUSH1 0x0 DUP2 MLOAD SWAP1 POP SWAP2 SWAP1 POP JUMP JUMPDEST PUSH1 0x0 DUP3 DUP3 MSTORE PUSH1 0x20 DUP3 ADD SWAP1 POP SWAP3 SWAP2 POP POP JUMP JUMPDEST PUSH1 0x0 DUP2 ISZERO ISZERO SWAP1 POP SWAP2 SWAP1 POP JUMP JUMPDEST PUSH1 0x0 DUP2 SWAP1 POP SWAP2 SWAP1 POP JUMP JUMPDEST DUP3 DUP2 DUP4 CALLDATACOPY PUSH1 0x0 DUP4 DUP4 ADD MSTORE POP POP POP JUMP JUMPDEST PUSH1 0x0 JUMPDEST DUP4 DUP2 LT ISZERO PUSH2 0x4EE JUMPI DUP1 DUP3 ADD MLOAD DUP2 DUP5 ADD MSTORE PUSH1 0x20 DUP2 ADD SWAP1 POP PUSH2 0x4D3 JUMP JUMPDEST DUP4 DUP2 GT ISZERO PUSH2 0x4FD JUMPI PUSH1 0x0 DUP5 DUP5 ADD MSTORE JUMPDEST POP POP POP POP JUMP JUMPDEST PUSH1 0x0 PUSH1 0x2 DUP3 DIV SWAP1 POP PUSH1 0x1 DUP3 AND DUP1 PUSH2 0x51B JUMPI PUSH1 0x7F DUP3 AND SWAP2 POP JUMPDEST PUSH1 0x20 DUP3 LT DUP2 EQ ISZERO PUSH2 0x52F JUMPI PUSH2 0x52E PUSH2 0x5DE JUMP JUMPDEST JUMPDEST POP SWAP2 SWAP1 POP JUMP JUMPDEST PUSH2 0x53E DUP3 PUSH2 0x650 JUMP JUMPDEST DUP2 ADD DUP2 DUP2 LT PUSH8 0xFFFFFFFFFFFFFFFF DUP3 GT OR ISZERO PUSH2 0x55D JUMPI PUSH2 0x55C PUSH2 0x60D JUMP JUMPDEST JUMPDEST DUP1 PUSH1 0x40 MSTORE POP POP POP JUMP JUMPDEST PUSH1 0x0 PUSH2 0x571 DUP3 PUSH2 0x4B7 JUMP JUMPDEST SWAP2 POP PUSH32 0xFFFFFFFFFFFFFFFFFFFFFFFFFFFFFFFFFFFFFFFFFFFFFFFFFFFFFFFFFFFFFFFF DUP3 EQ ISZERO PUSH2 0x5A4 JUMPI PUSH2 0x5A3 PUSH2 0x5AF JUMP JUMPDEST JUMPDEST PUSH1 0x1 DUP3 ADD SWAP1 POP SWAP2 SWAP1 POP JUMP JUMPDEST PUSH32 0x4E487B7100000000000000000000000000000000000000000000000000000000 PUSH1 0x0 MSTORE PUSH1 0x11 PUSH1 0x4 MSTORE PUSH1 0x24 PUSH1 0x0 REVERT JUMPDEST PUSH32 0x4E487B7100000000000000000000000000000000000000000000000000000000 PUSH1 0x0 MSTORE PUSH1 0x22 PUSH1 0x4 MSTORE PUSH1 0x24 PUSH1 0x0 REVERT JUMPDEST PUSH32 0x4E487B7100000000000000000000000000000000000000000000000000000000 PUSH1 0x0 MSTORE PUSH1 0x41 PUSH1 0x4 MSTORE PUSH1 0x24 PUSH1 0x0 REVERT JUMPDEST PUSH1 0x0 DUP1 REVERT JUMPDEST PUSH1 0x0 DUP1 REVERT JUMPDEST PUSH1 0x0 DUP1 REVERT JUMPDEST PUSH1 0x0 DUP1 REVERT JUMPDEST PUSH1 0x0 PUSH1 0x1F NOT PUSH1 0x1F DUP4 ADD AND SWAP1 POP SWAP2 SWAP1 POP JUMP JUMPDEST PUSH2 0x66A DUP2 PUSH2 0x4B7 JUMP JUMPDEST DUP2 EQ PUSH2 0x675 JUMPI PUSH1 0x0 DUP1 REVERT JUMPDEST POP JUMP INVALID LOG2 PUSH5 0x6970667358 0x22 SLT KECCAK256 0xF8 0xEC DUP2 INVALID LOG1 DUP6 DIV SWAP15 SWAP3 PUSH3 0xC955A0 MULMOD GASPRICE 0xE 0xD NOT DUP8 0x21 0xB1 RETURN 0xC4 0x5E SWAP15 DELEGATECALL INVALID 0x29 0xDA 0xEC JUMP DUP1 PUSH5 0x736F6C6343 STOP ADDMOD SMOD STOP CALLER "
				},
				"gasEstimates": {
					"creation": {
						"codeDepositCost": "342000",
						"executionCost": "380",
						"totalCost": "342380"
					},
					"external": {
						"Task_Details(uint256)": "infinite",
						"TodoListNumber()": "2451",
						"createToDo(string)": "infinite"
					}
				},
				"methodIdentifiers": {
					"Task_Details(uint256)": "a1dbe017",
					"TodoListNumber()": "a25b79ca",
					"createToDo(string)": "60cf802f"
				}
			},
			"storageLayout": {
				"storage": [
					{
						"astId": 3,
						"contract": "contracts/TodoList.sol:TodoList",
						"label": "TodoListNumber",
						"offset": 0,
						"slot": "0",
						"type": "t_uint256"
					},
					{
						"astId": 15,
						"contract": "contracts/TodoList.sol:TodoList",
						"label": "Task_Details",
						"offset": 0,
						"slot": "1",
						"type": "t_mapping(t_uint256,t_struct(TaskDetails)10_storage)"
					}
				],
				"types": {
					"t_bool": {
						"encoding": "inplace",
						"label": "bool",
						"numberOfBytes": "1"
					},
					"t_mapping(t_uint256,t_struct(TaskDetails)10_storage)": {
						"encoding": "mapping",
						"key": "t_uint256",
						"label": "mapping(uint256 => struct TodoList.TaskDetails)",
						"numberOfBytes": "32",
						"value": "t_struct(TaskDetails)10_storage"
					},
					"t_string_storage": {
						"encoding": "bytes",
						"label": "string",
						"numberOfBytes": "32"
					},
					"t_struct(TaskDetails)10_storage": {
						"encoding": "inplace",
						"label": "struct TodoList.TaskDetails",
						"members": [
							{
								"astId": 5,
								"contract": "contracts/TodoList.sol:TodoList",
								"label": "id",
								"offset": 0,
								"slot": "0",
								"type": "t_uint256"
							},
							{
								"astId": 7,
								"contract": "contracts/TodoList.sol:TodoList",
								"label": "details",
								"offset": 0,
								"slot": "1",
								"type": "t_string_storage"
							},
							{
								"astId": 9,
								"contract": "contracts/TodoList.sol:TodoList",
								"label": "status",
								"offset": 0,
								"slot": "2",
								"type": "t_bool"
							}
						],
						"numberOfBytes": "96"
					},
					"t_uint256": {
						"encoding": "inplace",
						"label": "uint256",
						"numberOfBytes": "32"
					}
				}
			},
			"userdoc": {
				"kind": "user",
				"methods": {},
				"version": 1
			}
		}
	}
}