{
	"contracts/Erc20token.sol": {
		"MyToken": {
			"abi": [
				{
					"inputs": [],
					"stateMutability": "nonpayable",
					"type": "constructor"
				},
				{
					"anonymous": false,
					"inputs": [
						{
							"indexed": true,
							"internalType": "address",
							"name": "tokenOwner",
							"type": "address"
						},
						{
							"indexed": true,
							"internalType": "address",
							"name": "spender",
							"type": "address"
						},
						{
							"indexed": false,
							"internalType": "uint256",
							"name": "tokens",
							"type": "uint256"
						}
					],
					"name": "Approval",
					"type": "event"
				},
				{
					"anonymous": false,
					"inputs": [
						{
							"indexed": true,
							"internalType": "address",
							"name": "from",
							"type": "address"
						},
						{
							"indexed": true,
							"internalType": "address",
							"name": "to",
							"type": "address"
						},
						{
							"indexed": false,
							"internalType": "uint256",
							"name": "tokens",
							"type": "uint256"
						}
					],
					"name": "Transfer",
					"type": "event"
				},
				{
					"inputs": [
						{
							"internalType": "address",
							"name": "tokenOwner",
							"type": "address"
						},
						{
							"internalType": "address",
							"name": "spender",
							"type": "address"
						}
					],
					"name": "allowance",
					"outputs": [
						{
							"internalType": "uint256",
							"name": "remaining",
							"type": "uint256"
						}
					],
					"stateMutability": "view",
					"type": "function"
				},
				{
					"inputs": [
						{
							"internalType": "address",
							"name": "",
							"type": "address"
						},
						{
							"internalType": "address",
							"name": "",
							"type": "address"
						}
					],
					"name": "allowed",
					"outputs": [
						{
							"internalType": "uint256",
							"name": "",
							"type": "uint256"
						}
					],
					"stateMutability": "view",
					"type": "function"
				},
				{
					"inputs": [
						{
							"internalType": "address",
							"name": "spender",
							"type": "address"
						},
						{
							"internalType": "uint256",
							"name": "tokens",
							"type": "uint256"
						}
					],
					"name": "approve",
					"outputs": [
						{
							"internalType": "bool",
							"name": "success",
							"type": "bool"
						}
					],
					"stateMutability": "nonpayable",
					"type": "function"
				},
				{
					"inputs": [
						{
							"internalType": "address",
							"name": "tokenOwner",
							"type": "address"
						}
					],
					"name": "balanceOf",
					"outputs": [
						{
							"internalType": "uint256",
							"name": "balance",
							"type": "uint256"
						}
					],
					"stateMutability": "view",
					"type": "function"
				},
				{
					"inputs": [
						{
							"internalType": "address",
							"name": "",
							"type": "address"
						}
					],
					"name": "balances",
					"outputs": [
						{
							"internalType": "uint256",
							"name": "",
							"type": "uint256"
						}
					],
					"stateMutability": "view",
					"type": "function"
				},
				{
					"inputs": [],
					"name": "decimals",
					"outputs": [
						{
							"internalType": "uint256",
							"name": "",
							"type": "uint256"
						}
					],
					"stateMutability": "view",
					"type": "function"
				},
				{
					"inputs": [],
					"name": "founder",
					"outputs": [
						{
							"internalType": "address",
							"name": "",
							"type": "address"
						}
					],
					"stateMutability": "view",
					"type": "function"
				},
				{
					"inputs": [],
					"name": "name",
					"outputs": [
						{
							"internalType": "string",
							"name": "",
							"type": "string"
						}
					],
					"stateMutability": "view",
					"type": "function"
				},
				{
					"inputs": [],
					"name": "symbol",
					"outputs": [
						{
							"internalType": "string",
							"name": "",
							"type": "string"
						}
					],
					"stateMutability": "view",
					"type": "function"
				},
				{
					"inputs": [],
					"name": "totalSupply",
					"outputs": [
						{
							"internalType": "uint256",
							"name": "",
							"type": "uint256"
						}
					],
					"stateMutability": "view",
					"type": "function"
				},
				{
					"inputs": [
						{
							"internalType": "address",
							"name": "to",
							"type": "address"
						},
						{
							"internalType": "uint256",
							"name": "tokens",
							"type": "uint256"
						}
					],
					"name": "transfer",
					"outputs": [
						{
							"internalType": "bool",
							"name": "success",
							"type": "bool"
						}
					],
					"stateMutability": "nonpayable",
					"type": "function"
				},
				{
					"inputs": [
						{
							"internalType": "address",
							"name": "from",
							"type": "address"
						},
						{
							"internalType": "address",
							"name": "to",
							"type": "address"
						},
						{
							"internalType": "uint256",
							"name": "tokens",
							"type": "uint256"
						}
					],
					"name": "transferFrom",
					"outputs": [
						{
							"internalType": "bool",
							"name": "success",
							"type": "bool"
						}
					],
					"stateMutability": "nonpayable",
					"type": "function"
				}
			],
			"devdoc": {
				"kind": "dev",
				"methods": {},
				"version": 1
			},
			"evm": {
				"assembly": "    /* \"contracts/Erc20token.sol\":992:3109  contract MyToken is ERC20Interface{\r... */\n  mstore(0x40, 0x80)\n    /* \"contracts/Erc20token.sol\":1033:1062  string public name = \"ZILLAX\" */\n  mload(0x40)\n  dup1\n  0x40\n  add\n  0x40\n  mstore\n  dup1\n  0x06\n  dup2\n  mstore\n  0x20\n  add\n  0x5a494c4c41580000000000000000000000000000000000000000000000000000\n  dup2\n  mstore\n  pop\n  0x00\n  swap1\n  dup1\n  mload\n  swap1\n  0x20\n  add\n  swap1\n  tag_1\n  swap3\n  swap2\n  swap1\n  tag_2\n  jump\t// in\ntag_1:\n  pop\n    /* \"contracts/Erc20token.sol\":1069:1097  string public symbol = \"ZLZ\" */\n  mload(0x40)\n  dup1\n  0x40\n  add\n  0x40\n  mstore\n  dup1\n  0x03\n  dup2\n  mstore\n  0x20\n  add\n  0x5a4c5a0000000000000000000000000000000000000000000000000000000000\n  dup2\n  mstore\n  pop\n  0x01\n  swap1\n  dup1\n  mload\n  swap1\n  0x20\n  add\n  swap1\n  tag_3\n  swap3\n  swap2\n  swap1\n  tag_2\n  jump\t// in\ntag_3:\n  pop\n    /* \"contracts/Erc20token.sol\":1127:1128  0 */\n  0x00\n    /* \"contracts/Erc20token.sol\":1104:1128  uint public decimals = 0 */\n  0x02\n  sstore\n    /* \"contracts/Erc20token.sol\":1327:1453  constructor(){\r... */\n  callvalue\n  dup1\n  iszero\n  tag_4\n  jumpi\n  0x00\n  dup1\n  revert\ntag_4:\n  pop\n    /* \"contracts/Erc20token.sol\":1365:1372  1000000 */\n  0x0f4240\n    /* \"contracts/Erc20token.sol\":1351:1362  totalSupply */\n  0x04\n    /* \"contracts/Erc20token.sol\":1351:1372  totalSupply = 1000000 */\n  dup2\n  swap1\n  sstore\n  pop\n    /* \"contracts/Erc20token.sol\":1393:1403  msg.sender */\n  caller\n    /* \"contracts/Erc20token.sol\":1383:1390  founder */\n  0x03\n  0x00\n    /* \"contracts/Erc20token.sol\":1383:1403  founder = msg.sender */\n  0x0100\n  exp\n  dup2\n  sload\n  dup2\n  0xffffffffffffffffffffffffffffffffffffffff\n  mul\n  not\n  and\n  swap1\n  dup4\n  0xffffffffffffffffffffffffffffffffffffffff\n  and\n  mul\n  or\n  swap1\n  sstore\n  pop\n    /* \"contracts/Erc20token.sol\":1434:1445  totalSupply */\n  sload(0x04)\n    /* \"contracts/Erc20token.sol\":1414:1422  balances */\n  0x05\n    /* \"contracts/Erc20token.sol\":1414:1431  balances[founder] */\n  0x00\n    /* \"contracts/Erc20token.sol\":1423:1430  founder */\n  0x03\n  0x00\n  swap1\n  sload\n  swap1\n  0x0100\n  exp\n  swap1\n  div\n  0xffffffffffffffffffffffffffffffffffffffff\n  and\n    /* \"contracts/Erc20token.sol\":1414:1431  balances[founder] */\n  0xffffffffffffffffffffffffffffffffffffffff\n  and\n  0xffffffffffffffffffffffffffffffffffffffff\n  and\n  dup2\n  mstore\n  0x20\n  add\n  swap1\n  dup2\n  mstore\n  0x20\n  add\n  0x00\n  keccak256\n    /* \"contracts/Erc20token.sol\":1414:1445  balances[founder] = totalSupply */\n  dup2\n  swap1\n  sstore\n  pop\n    /* \"contracts/Erc20token.sol\":992:3109  contract MyToken is ERC20Interface{\r... */\n  jump(tag_7)\ntag_2:\n  dup3\n  dup1\n  sload\n  tag_8\n  swap1\n  tag_9\n  jump\t// in\ntag_8:\n  swap1\n  0x00\n  mstore\n  keccak256(0x00, 0x20)\n  swap1\n  0x1f\n  add\n  0x20\n  swap1\n  div\n  dup2\n  add\n  swap3\n  dup3\n  tag_11\n  jumpi\n  0x00\n  dup6\n  sstore\n  jump(tag_10)\ntag_11:\n  dup3\n  0x1f\n  lt\n  tag_12\n  jumpi\n  dup1\n  mload\n  not(0xff)\n  and\n  dup4\n  dup1\n  add\n  or\n  dup6\n  sstore\n  jump(tag_10)\ntag_12:\n  dup3\n  dup1\n  add\n  0x01\n  add\n  dup6\n  sstore\n  dup3\n  iszero\n  tag_10\n  jumpi\n  swap2\n  dup3\n  add\ntag_13:\n  dup3\n  dup2\n  gt\n  iszero\n  tag_14\n  jumpi\n  dup3\n  mload\n  dup3\n  sstore\n  swap2\n  0x20\n  add\n  swap2\n  swap1\n  0x01\n  add\n  swap1\n  jump(tag_13)\ntag_14:\ntag_10:\n  pop\n  swap1\n  pop\n  tag_15\n  swap2\n  swap1\n  tag_16\n  jump\t// in\ntag_15:\n  pop\n  swap1\n  jump\t// out\ntag_16:\ntag_17:\n  dup1\n  dup3\n  gt\n  iszero\n  tag_18\n  jumpi\n  0x00\n  dup2\n  0x00\n  swap1\n  sstore\n  pop\n  0x01\n  add\n  jump(tag_17)\ntag_18:\n  pop\n  swap1\n  jump\t// out\n    /* \"#utility.yul\":7:327   */\ntag_9:\n    /* \"#utility.yul\":51:57   */\n  0x00\n    /* \"#utility.yul\":88:89   */\n  0x02\n    /* \"#utility.yul\":82:86   */\n  dup3\n    /* \"#utility.yul\":78:90   */\n  div\n    /* \"#utility.yul\":68:90   */\n  swap1\n  pop\n    /* \"#utility.yul\":135:136   */\n  0x01\n    /* \"#utility.yul\":129:133   */\n  dup3\n    /* \"#utility.yul\":125:137   */\n  and\n    /* \"#utility.yul\":156:174   */\n  dup1\n    /* \"#utility.yul\":146:227   */\n  tag_21\n  jumpi\n    /* \"#utility.yul\":212:216   */\n  0x7f\n    /* \"#utility.yul\":204:210   */\n  dup3\n    /* \"#utility.yul\":200:217   */\n  and\n    /* \"#utility.yul\":190:217   */\n  swap2\n  pop\n    /* \"#utility.yul\":146:227   */\ntag_21:\n    /* \"#utility.yul\":274:276   */\n  0x20\n    /* \"#utility.yul\":266:272   */\n  dup3\n    /* \"#utility.yul\":263:277   */\n  lt\n    /* \"#utility.yul\":243:261   */\n  dup2\n    /* \"#utility.yul\":240:278   */\n  eq\n    /* \"#utility.yul\":237:321   */\n  iszero\n  tag_22\n  jumpi\n    /* \"#utility.yul\":293:311   */\n  tag_23\n  tag_24\n  jump\t// in\ntag_23:\n    /* \"#utility.yul\":237:321   */\ntag_22:\n    /* \"#utility.yul\":58:327   */\n  pop\n    /* \"#utility.yul\":7:327   */\n  swap2\n  swap1\n  pop\n  jump\t// out\n    /* \"#utility.yul\":333:513   */\ntag_24:\n    /* \"#utility.yul\":381:458   */\n  0x4e487b7100000000000000000000000000000000000000000000000000000000\n    /* \"#utility.yul\":378:379   */\n  0x00\n    /* \"#utility.yul\":371:459   */\n  mstore\n    /* \"#utility.yul\":478:482   */\n  0x22\n    /* \"#utility.yul\":475:476   */\n  0x04\n    /* \"#utility.yul\":468:483   */\n  mstore\n    /* \"#utility.yul\":502:506   */\n  0x24\n    /* \"#utility.yul\":499:500   */\n  0x00\n    /* \"#utility.yul\":492:507   */\n  revert\n    /* \"contracts/Erc20token.sol\":992:3109  contract MyToken is ERC20Interface{\r... */\ntag_7:\n  dataSize(sub_0)\n  dup1\n  dataOffset(sub_0)\n  0x00\n  codecopy\n  0x00\n  return\nstop\n\nsub_0: assembly {\n        /* \"contracts/Erc20token.sol\":992:3109  contract MyToken is ERC20Interface{\r... */\n      mstore(0x40, 0x80)\n      callvalue\n      dup1\n      iszero\n      tag_1\n      jumpi\n      0x00\n      dup1\n      revert\n    tag_1:\n      pop\n      jumpi(tag_2, lt(calldatasize, 0x04))\n      shr(0xe0, calldataload(0x00))\n      dup1\n      0x4d853ee5\n      gt\n      tag_15\n      jumpi\n      dup1\n      0x4d853ee5\n      eq\n      tag_9\n      jumpi\n      dup1\n      0x5c658165\n      eq\n      tag_10\n      jumpi\n      dup1\n      0x70a08231\n      eq\n      tag_11\n      jumpi\n      dup1\n      0x95d89b41\n      eq\n      tag_12\n      jumpi\n      dup1\n      0xa9059cbb\n      eq\n      tag_13\n      jumpi\n      dup1\n      0xdd62ed3e\n      eq\n      tag_14\n      jumpi\n      jump(tag_2)\n    tag_15:\n      dup1\n      0x06fdde03\n      eq\n      tag_3\n      jumpi\n      dup1\n      0x095ea7b3\n      eq\n      tag_4\n      jumpi\n      dup1\n      0x18160ddd\n      eq\n      tag_5\n      jumpi\n      dup1\n      0x23b872dd\n      eq\n      tag_6\n      jumpi\n      dup1\n      0x27e235e3\n      eq\n      tag_7\n      jumpi\n      dup1\n      0x313ce567\n      eq\n      tag_8\n      jumpi\n    tag_2:\n      0x00\n      dup1\n      revert\n        /* \"contracts/Erc20token.sol\":1033:1062  string public name = \"ZILLAX\" */\n    tag_3:\n      tag_16\n      tag_17\n      jump\t// in\n    tag_16:\n      mload(0x40)\n      tag_18\n      swap2\n      swap1\n      tag_19\n      jump\t// in\n    tag_18:\n      mload(0x40)\n      dup1\n      swap2\n      sub\n      swap1\n      return\n        /* \"contracts/Erc20token.sol\":2135:2537  function approve(address spender, uint tokens) public override returns (bool success){\r... */\n    tag_4:\n      tag_20\n      0x04\n      dup1\n      calldatasize\n      sub\n      dup2\n      add\n      swap1\n      tag_21\n      swap2\n      swap1\n      tag_22\n      jump\t// in\n    tag_21:\n      tag_23\n      jump\t// in\n    tag_20:\n      mload(0x40)\n      tag_24\n      swap2\n      swap1\n      tag_25\n      jump\t// in\n    tag_24:\n      mload(0x40)\n      dup1\n      swap2\n      sub\n      swap1\n      return\n        /* \"contracts/Erc20token.sol\":1168:1200  uint public override totalSupply */\n    tag_5:\n      tag_26\n      tag_27\n      jump\t// in\n    tag_26:\n      mload(0x40)\n      tag_28\n      swap2\n      swap1\n      tag_29\n      jump\t// in\n    tag_28:\n      mload(0x40)\n      dup1\n      swap2\n      sub\n      swap1\n      return\n        /* \"contracts/Erc20token.sol\":2545:3104  function transferFrom(address from, address to, uint tokens) public override returns (bool success){\r... */\n    tag_6:\n      tag_30\n      0x04\n      dup1\n      calldatasize\n      sub\n      dup2\n      add\n      swap1\n      tag_31\n      swap2\n      swap1\n      tag_32\n      jump\t// in\n    tag_31:\n      tag_33\n      jump\t// in\n    tag_30:\n      mload(0x40)\n      tag_34\n      swap2\n      swap1\n      tag_25\n      jump\t// in\n    tag_34:\n      mload(0x40)\n      dup1\n      swap2\n      sub\n      swap1\n      return\n        /* \"contracts/Erc20token.sol\":1209:1250  mapping(address => uint) public  balances */\n    tag_7:\n      tag_35\n      0x04\n      dup1\n      calldatasize\n      sub\n      dup2\n      add\n      swap1\n      tag_36\n      swap2\n      swap1\n      tag_37\n      jump\t// in\n    tag_36:\n      tag_38\n      jump\t// in\n    tag_35:\n      mload(0x40)\n      tag_39\n      swap2\n      swap1\n      tag_29\n      jump\t// in\n    tag_39:\n      mload(0x40)\n      dup1\n      swap2\n      sub\n      swap1\n      return\n        /* \"contracts/Erc20token.sol\":1104:1128  uint public decimals = 0 */\n    tag_8:\n      tag_40\n      tag_41\n      jump\t// in\n    tag_40:\n      mload(0x40)\n      tag_42\n      swap2\n      swap1\n      tag_29\n      jump\t// in\n    tag_42:\n      mload(0x40)\n      dup1\n      swap2\n      sub\n      swap1\n      return\n        /* \"contracts/Erc20token.sol\":1137:1159  address public founder */\n    tag_9:\n      tag_43\n      tag_44\n      jump\t// in\n    tag_43:\n      mload(0x40)\n      tag_45\n      swap2\n      swap1\n      tag_46\n      jump\t// in\n    tag_45:\n      mload(0x40)\n      dup1\n      swap2\n      sub\n      swap1\n      return\n        /* \"contracts/Erc20token.sol\":1259:1318  mapping(address => mapping(address => uint)) public allowed */\n    tag_10:\n      tag_47\n      0x04\n      dup1\n      calldatasize\n      sub\n      dup2\n      add\n      swap1\n      tag_48\n      swap2\n      swap1\n      tag_49\n      jump\t// in\n    tag_48:\n      tag_50\n      jump\t// in\n    tag_47:\n      mload(0x40)\n      tag_51\n      swap2\n      swap1\n      tag_29\n      jump\t// in\n    tag_51:\n      mload(0x40)\n      dup1\n      swap2\n      sub\n      swap1\n      return\n        /* \"contracts/Erc20token.sol\":1461:1589  function balanceOf(address tokenOwner) public override view returns (uint balance){\r... */\n    tag_11:\n      tag_52\n      0x04\n      dup1\n      calldatasize\n      sub\n      dup2\n      add\n      swap1\n      tag_53\n      swap2\n      swap1\n      tag_37\n      jump\t// in\n    tag_53:\n      tag_54\n      jump\t// in\n    tag_52:\n      mload(0x40)\n      tag_55\n      swap2\n      swap1\n      tag_29\n      jump\t// in\n    tag_55:\n      mload(0x40)\n      dup1\n      swap2\n      sub\n      swap1\n      return\n        /* \"contracts/Erc20token.sol\":1069:1097  string public symbol = \"ZLZ\" */\n    tag_12:\n      tag_56\n      tag_57\n      jump\t// in\n    tag_56:\n      mload(0x40)\n      tag_58\n      swap2\n      swap1\n      tag_19\n      jump\t// in\n    tag_58:\n      mload(0x40)\n      dup1\n      swap2\n      sub\n      swap1\n      return\n        /* \"contracts/Erc20token.sol\":1643:1964  function transfer(address to, uint tokens) public override returns (bool success){\r... */\n    tag_13:\n      tag_59\n      0x04\n      dup1\n      calldatasize\n      sub\n      dup2\n      add\n      swap1\n      tag_60\n      swap2\n      swap1\n      tag_22\n      jump\t// in\n    tag_60:\n      tag_61\n      jump\t// in\n    tag_59:\n      mload(0x40)\n      tag_62\n      swap2\n      swap1\n      tag_25\n      jump\t// in\n    tag_62:\n      mload(0x40)\n      dup1\n      swap2\n      sub\n      swap1\n      return\n        /* \"contracts/Erc20token.sol\":1972:2127  function allowance(address tokenOwner, address spender) public override view returns (uint remaining){\r... */\n    tag_14:\n      tag_63\n      0x04\n      dup1\n      calldatasize\n      sub\n      dup2\n      add\n      swap1\n      tag_64\n      swap2\n      swap1\n      tag_49\n      jump\t// in\n    tag_64:\n      tag_65\n      jump\t// in\n    tag_63:\n      mload(0x40)\n      tag_66\n      swap2\n      swap1\n      tag_29\n      jump\t// in\n    tag_66:\n      mload(0x40)\n      dup1\n      swap2\n      sub\n      swap1\n      return\n        /* \"contracts/Erc20token.sol\":1033:1062  string public name = \"ZILLAX\" */\n    tag_17:\n      0x00\n      dup1\n      sload\n      tag_67\n      swap1\n      tag_68\n      jump\t// in\n    tag_67:\n      dup1\n      0x1f\n      add\n      0x20\n      dup1\n      swap2\n      div\n      mul\n      0x20\n      add\n      mload(0x40)\n      swap1\n      dup2\n      add\n      0x40\n      mstore\n      dup1\n      swap3\n      swap2\n      swap1\n      dup2\n      dup2\n      mstore\n      0x20\n      add\n      dup3\n      dup1\n      sload\n      tag_69\n      swap1\n      tag_68\n      jump\t// in\n    tag_69:\n      dup1\n      iszero\n      tag_70\n      jumpi\n      dup1\n      0x1f\n      lt\n      tag_71\n      jumpi\n      0x0100\n      dup1\n      dup4\n      sload\n      div\n      mul\n      dup4\n      mstore\n      swap2\n      0x20\n      add\n      swap2\n      jump(tag_70)\n    tag_71:\n      dup3\n      add\n      swap2\n      swap1\n      0x00\n      mstore\n      keccak256(0x00, 0x20)\n      swap1\n    tag_72:\n      dup2\n      sload\n      dup2\n      mstore\n      swap1\n      0x01\n      add\n      swap1\n      0x20\n      add\n      dup1\n      dup4\n      gt\n      tag_72\n      jumpi\n      dup3\n      swap1\n      sub\n      0x1f\n      and\n      dup3\n      add\n      swap2\n    tag_70:\n      pop\n      pop\n      pop\n      pop\n      pop\n      dup2\n      jump\t// out\n        /* \"contracts/Erc20token.sol\":2135:2537  function approve(address spender, uint tokens) public override returns (bool success){\r... */\n    tag_23:\n        /* \"contracts/Erc20token.sol\":2207:2219  bool success */\n      0x00\n        /* \"contracts/Erc20token.sol\":2265:2271  tokens */\n      dup2\n        /* \"contracts/Erc20token.sol\":2241:2249  balances */\n      0x05\n        /* \"contracts/Erc20token.sol\":2241:2261  balances[msg.sender] */\n      0x00\n        /* \"contracts/Erc20token.sol\":2250:2260  msg.sender */\n      caller\n        /* \"contracts/Erc20token.sol\":2241:2261  balances[msg.sender] */\n      0xffffffffffffffffffffffffffffffffffffffff\n      and\n      0xffffffffffffffffffffffffffffffffffffffff\n      and\n      dup2\n      mstore\n      0x20\n      add\n      swap1\n      dup2\n      mstore\n      0x20\n      add\n      0x00\n      keccak256\n      sload\n        /* \"contracts/Erc20token.sol\":2241:2271  balances[msg.sender] >= tokens */\n      lt\n      iszero\n        /* \"contracts/Erc20token.sol\":2233:2324  require(balances[msg.sender] >= tokens, \"Token value is greater than your current holding\") */\n      tag_74\n      jumpi\n      mload(0x40)\n      0x08c379a000000000000000000000000000000000000000000000000000000000\n      dup2\n      mstore\n      0x04\n      add\n      tag_75\n      swap1\n      tag_76\n      jump\t// in\n    tag_75:\n      mload(0x40)\n      dup1\n      swap2\n      sub\n      swap1\n      revert\n    tag_74:\n        /* \"contracts/Erc20token.sol\":2352:2353  0 */\n      0x00\n        /* \"contracts/Erc20token.sol\":2343:2349  tokens */\n      dup3\n        /* \"contracts/Erc20token.sol\":2343:2353  tokens > 0 */\n      gt\n        /* \"contracts/Erc20token.sol\":2335:2392  require(tokens > 0, \"Token value must be greater than 0\") */\n      tag_77\n      jumpi\n      mload(0x40)\n      0x08c379a000000000000000000000000000000000000000000000000000000000\n      dup2\n      mstore\n      0x04\n      add\n      tag_78\n      swap1\n      tag_79\n      jump\t// in\n    tag_78:\n      mload(0x40)\n      dup1\n      swap2\n      sub\n      swap1\n      revert\n    tag_77:\n        /* \"contracts/Erc20token.sol\":2444:2450  tokens */\n      dup2\n        /* \"contracts/Erc20token.sol\":2413:2420  allowed */\n      0x06\n        /* \"contracts/Erc20token.sol\":2413:2432  allowed[msg.sender] */\n      0x00\n        /* \"contracts/Erc20token.sol\":2421:2431  msg.sender */\n      caller\n        /* \"contracts/Erc20token.sol\":2413:2432  allowed[msg.sender] */\n      0xffffffffffffffffffffffffffffffffffffffff\n      and\n      0xffffffffffffffffffffffffffffffffffffffff\n      and\n      dup2\n      mstore\n      0x20\n      add\n      swap1\n      dup2\n      mstore\n      0x20\n      add\n      0x00\n      keccak256\n        /* \"contracts/Erc20token.sol\":2413:2441  allowed[msg.sender][spender] */\n      0x00\n        /* \"contracts/Erc20token.sol\":2433:2440  spender */\n      dup6\n        /* \"contracts/Erc20token.sol\":2413:2441  allowed[msg.sender][spender] */\n      0xffffffffffffffffffffffffffffffffffffffff\n      and\n      0xffffffffffffffffffffffffffffffffffffffff\n      and\n      dup2\n      mstore\n      0x20\n      add\n      swap1\n      dup2\n      mstore\n      0x20\n      add\n      0x00\n      keccak256\n        /* \"contracts/Erc20token.sol\":2413:2450  allowed[msg.sender][spender] = tokens */\n      dup2\n      swap1\n      sstore\n      pop\n        /* \"contracts/Erc20token.sol\":2489:2496  spender */\n      dup3\n        /* \"contracts/Erc20token.sol\":2468:2505  Approval(msg.sender, spender, tokens) */\n      0xffffffffffffffffffffffffffffffffffffffff\n      and\n        /* \"contracts/Erc20token.sol\":2477:2487  msg.sender */\n      caller\n        /* \"contracts/Erc20token.sol\":2468:2505  Approval(msg.sender, spender, tokens) */\n      0xffffffffffffffffffffffffffffffffffffffff\n      and\n      0x8c5be1e5ebec7d5bd14f71427d1e84f3dd0314c0f7b2291e5b200ac8c7c3b925\n        /* \"contracts/Erc20token.sol\":2498:2504  tokens */\n      dup5\n        /* \"contracts/Erc20token.sol\":2468:2505  Approval(msg.sender, spender, tokens) */\n      mload(0x40)\n      tag_80\n      swap2\n      swap1\n      tag_29\n      jump\t// in\n    tag_80:\n      mload(0x40)\n      dup1\n      swap2\n      sub\n      swap1\n      log3\n        /* \"contracts/Erc20token.sol\":2525:2529  true */\n      0x01\n        /* \"contracts/Erc20token.sol\":2518:2529  return true */\n      swap1\n      pop\n        /* \"contracts/Erc20token.sol\":2135:2537  function approve(address spender, uint tokens) public override returns (bool success){\r... */\n      swap3\n      swap2\n      pop\n      pop\n      jump\t// out\n        /* \"contracts/Erc20token.sol\":1168:1200  uint public override totalSupply */\n    tag_27:\n      sload(0x04)\n      dup2\n      jump\t// out\n        /* \"contracts/Erc20token.sol\":2545:3104  function transferFrom(address from, address to, uint tokens) public override returns (bool success){\r... */\n    tag_33:\n        /* \"contracts/Erc20token.sol\":2631:2643  bool success */\n      0x00\n        /* \"contracts/Erc20token.sol\":2692:2698  tokens */\n      dup2\n        /* \"contracts/Erc20token.sol\":2663:2670  allowed */\n      0x06\n        /* \"contracts/Erc20token.sol\":2663:2676  allowed[from] */\n      0x00\n        /* \"contracts/Erc20token.sol\":2671:2675  from */\n      dup7\n        /* \"contracts/Erc20token.sol\":2663:2676  allowed[from] */\n      0xffffffffffffffffffffffffffffffffffffffff\n      and\n      0xffffffffffffffffffffffffffffffffffffffff\n      and\n      dup2\n      mstore\n      0x20\n      add\n      swap1\n      dup2\n      mstore\n      0x20\n      add\n      0x00\n      keccak256\n        /* \"contracts/Erc20token.sol\":2663:2688  allowed[from][msg.sender] */\n      0x00\n        /* \"contracts/Erc20token.sol\":2677:2687  msg.sender */\n      caller\n        /* \"contracts/Erc20token.sol\":2663:2688  allowed[from][msg.sender] */\n      0xffffffffffffffffffffffffffffffffffffffff\n      and\n      0xffffffffffffffffffffffffffffffffffffffff\n      and\n      dup2\n      mstore\n      0x20\n      add\n      swap1\n      dup2\n      mstore\n      0x20\n      add\n      0x00\n      keccak256\n      sload\n        /* \"contracts/Erc20token.sol\":2663:2698  allowed[from][msg.sender] >= tokens */\n      lt\n      iszero\n        /* \"contracts/Erc20token.sol\":2655:2751  require(allowed[from][msg.sender] >= tokens, \"Token value is greater than the approved balance\") */\n      tag_82\n      jumpi\n      mload(0x40)\n      0x08c379a000000000000000000000000000000000000000000000000000000000\n      dup2\n      mstore\n      0x04\n      add\n      tag_83\n      swap1\n      tag_84\n      jump\t// in\n    tag_83:\n      mload(0x40)\n      dup1\n      swap2\n      sub\n      swap1\n      revert\n    tag_82:\n        /* \"contracts/Erc20token.sol\":2788:2794  tokens */\n      dup2\n        /* \"contracts/Erc20token.sol\":2770:2778  balances */\n      0x05\n        /* \"contracts/Erc20token.sol\":2770:2784  balances[from] */\n      0x00\n        /* \"contracts/Erc20token.sol\":2779:2783  from */\n      dup7\n        /* \"contracts/Erc20token.sol\":2770:2784  balances[from] */\n      0xffffffffffffffffffffffffffffffffffffffff\n      and\n      0xffffffffffffffffffffffffffffffffffffffff\n      and\n      dup2\n      mstore\n      0x20\n      add\n      swap1\n      dup2\n      mstore\n      0x20\n      add\n      0x00\n      keccak256\n      sload\n        /* \"contracts/Erc20token.sol\":2770:2794  balances[from] >= tokens */\n      lt\n      iszero\n        /* \"contracts/Erc20token.sol\":2762:2817  require(balances[from] >= tokens, \"Insuficient Balnce\") */\n      tag_85\n      jumpi\n      mload(0x40)\n      0x08c379a000000000000000000000000000000000000000000000000000000000\n      dup2\n      mstore\n      0x04\n      add\n      tag_86\n      swap1\n      tag_87\n      jump\t// in\n    tag_86:\n      mload(0x40)\n      dup1\n      swap2\n      sub\n      swap1\n      revert\n    tag_85:\n        /* \"contracts/Erc20token.sol\":2845:2846  0 */\n      0x00\n        /* \"contracts/Erc20token.sol\":2836:2842  tokens */\n      dup3\n        /* \"contracts/Erc20token.sol\":2836:2846  tokens > 0 */\n      gt\n        /* \"contracts/Erc20token.sol\":2828:2885  require(tokens > 0, \"Token value must be greater than 0\") */\n      tag_88\n      jumpi\n      mload(0x40)\n      0x08c379a000000000000000000000000000000000000000000000000000000000\n      dup2\n      mstore\n      0x04\n      add\n      tag_89\n      swap1\n      tag_79\n      jump\t// in\n    tag_89:\n      mload(0x40)\n      dup1\n      swap2\n      sub\n      swap1\n      revert\n    tag_88:\n        /* \"contracts/Erc20token.sol\":2927:2933  tokens */\n      dup2\n        /* \"contracts/Erc20token.sol\":2898:2905  allowed */\n      0x06\n        /* \"contracts/Erc20token.sol\":2898:2911  allowed[from] */\n      0x00\n        /* \"contracts/Erc20token.sol\":2906:2910  from */\n      dup7\n        /* \"contracts/Erc20token.sol\":2898:2911  allowed[from] */\n      0xffffffffffffffffffffffffffffffffffffffff\n      and\n      0xffffffffffffffffffffffffffffffffffffffff\n      and\n      dup2\n      mstore\n      0x20\n      add\n      swap1\n      dup2\n      mstore\n      0x20\n      add\n      0x00\n      keccak256\n        /* \"contracts/Erc20token.sol\":2898:2923  allowed[from][msg.sender] */\n      0x00\n        /* \"contracts/Erc20token.sol\":2912:2922  msg.sender */\n      caller\n        /* \"contracts/Erc20token.sol\":2898:2923  allowed[from][msg.sender] */\n      0xffffffffffffffffffffffffffffffffffffffff\n      and\n      0xffffffffffffffffffffffffffffffffffffffff\n      and\n      dup2\n      mstore\n      0x20\n      add\n      swap1\n      dup2\n      mstore\n      0x20\n      add\n      0x00\n      keccak256\n      0x00\n        /* \"contracts/Erc20token.sol\":2898:2933  allowed[from][msg.sender] -= tokens */\n      dup3\n      dup3\n      sload\n      tag_90\n      swap2\n      swap1\n      tag_91\n      jump\t// in\n    tag_90:\n      swap3\n      pop\n      pop\n      dup2\n      swap1\n      sstore\n      pop\n        /* \"contracts/Erc20token.sol\":3015:3021  tokens */\n      dup2\n        /* \"contracts/Erc20token.sol\":2997:3005  balances */\n      0x05\n        /* \"contracts/Erc20token.sol\":2997:3011  balances[from] */\n      0x00\n        /* \"contracts/Erc20token.sol\":3006:3010  from */\n      dup7\n        /* \"contracts/Erc20token.sol\":2997:3011  balances[from] */\n      0xffffffffffffffffffffffffffffffffffffffff\n      and\n      0xffffffffffffffffffffffffffffffffffffffff\n      and\n      dup2\n      mstore\n      0x20\n      add\n      swap1\n      dup2\n      mstore\n      0x20\n      add\n      0x00\n      keccak256\n      0x00\n        /* \"contracts/Erc20token.sol\":2997:3021  balances[from] -= tokens */\n      dup3\n      dup3\n      sload\n      tag_92\n      swap2\n      swap1\n      tag_91\n      jump\t// in\n    tag_92:\n      swap3\n      pop\n      pop\n      dup2\n      swap1\n      sstore\n      pop\n        /* \"contracts/Erc20token.sol\":3092:3096  true */\n      0x01\n        /* \"contracts/Erc20token.sol\":3085:3096  return true */\n      swap1\n      pop\n        /* \"contracts/Erc20token.sol\":2545:3104  function transferFrom(address from, address to, uint tokens) public override returns (bool success){\r... */\n      swap4\n      swap3\n      pop\n      pop\n      pop\n      jump\t// out\n        /* \"contracts/Erc20token.sol\":1209:1250  mapping(address => uint) public  balances */\n    tag_38:\n      mstore(0x20, 0x05)\n      dup1\n      0x00\n      mstore\n      keccak256(0x00, 0x40)\n      0x00\n      swap2\n      pop\n      swap1\n      pop\n      sload\n      dup2\n      jump\t// out\n        /* \"contracts/Erc20token.sol\":1104:1128  uint public decimals = 0 */\n    tag_41:\n      sload(0x02)\n      dup2\n      jump\t// out\n        /* \"contracts/Erc20token.sol\":1137:1159  address public founder */\n    tag_44:\n      0x03\n      0x00\n      swap1\n      sload\n      swap1\n      0x0100\n      exp\n      swap1\n      div\n      0xffffffffffffffffffffffffffffffffffffffff\n      and\n      dup2\n      jump\t// out\n        /* \"contracts/Erc20token.sol\":1259:1318  mapping(address => mapping(address => uint)) public allowed */\n    tag_50:\n      mstore(0x20, 0x06)\n      dup2\n      0x00\n      mstore\n      mstore(0x20, keccak256(0x00, 0x40))\n      dup1\n      0x00\n      mstore\n      keccak256(0x00, 0x40)\n      0x00\n      swap2\n      pop\n      swap2\n      pop\n      pop\n      sload\n      dup2\n      jump\t// out\n        /* \"contracts/Erc20token.sol\":1461:1589  function balanceOf(address tokenOwner) public override view returns (uint balance){\r... */\n    tag_54:\n        /* \"contracts/Erc20token.sol\":1530:1542  uint balance */\n      0x00\n        /* \"contracts/Erc20token.sol\":1561:1569  balances */\n      0x05\n        /* \"contracts/Erc20token.sol\":1561:1581  balances[tokenOwner] */\n      0x00\n        /* \"contracts/Erc20token.sol\":1570:1580  tokenOwner */\n      dup4\n        /* \"contracts/Erc20token.sol\":1561:1581  balances[tokenOwner] */\n      0xffffffffffffffffffffffffffffffffffffffff\n      and\n      0xffffffffffffffffffffffffffffffffffffffff\n      and\n      dup2\n      mstore\n      0x20\n      add\n      swap1\n      dup2\n      mstore\n      0x20\n      add\n      0x00\n      keccak256\n      sload\n        /* \"contracts/Erc20token.sol\":1554:1581  return balances[tokenOwner] */\n      swap1\n      pop\n        /* \"contracts/Erc20token.sol\":1461:1589  function balanceOf(address tokenOwner) public override view returns (uint balance){\r... */\n      swap2\n      swap1\n      pop\n      jump\t// out\n        /* \"contracts/Erc20token.sol\":1069:1097  string public symbol = \"ZLZ\" */\n    tag_57:\n      0x01\n      dup1\n      sload\n      tag_94\n      swap1\n      tag_68\n      jump\t// in\n    tag_94:\n      dup1\n      0x1f\n      add\n      0x20\n      dup1\n      swap2\n      div\n      mul\n      0x20\n      add\n      mload(0x40)\n      swap1\n      dup2\n      add\n      0x40\n      mstore\n      dup1\n      swap3\n      swap2\n      swap1\n      dup2\n      dup2\n      mstore\n      0x20\n      add\n      dup3\n      dup1\n      sload\n      tag_95\n      swap1\n      tag_68\n      jump\t// in\n    tag_95:\n      dup1\n      iszero\n      tag_96\n      jumpi\n      dup1\n      0x1f\n      lt\n      tag_97\n      jumpi\n      0x0100\n      dup1\n      dup4\n      sload\n      div\n      mul\n      dup4\n      mstore\n      swap2\n      0x20\n      add\n      swap2\n      jump(tag_96)\n    tag_97:\n      dup3\n      add\n      swap2\n      swap1\n      0x00\n      mstore\n      keccak256(0x00, 0x20)\n      swap1\n    tag_98:\n      dup2\n      sload\n      dup2\n      mstore\n      swap1\n      0x01\n      add\n      swap1\n      0x20\n      add\n      dup1\n      dup4\n      gt\n      tag_98\n      jumpi\n      dup3\n      swap1\n      sub\n      0x1f\n      and\n      dup3\n      add\n      swap2\n    tag_96:\n      pop\n      pop\n      pop\n      pop\n      pop\n      dup2\n      jump\t// out\n        /* \"contracts/Erc20token.sol\":1643:1964  function transfer(address to, uint tokens) public override returns (bool success){\r... */\n    tag_61:\n        /* \"contracts/Erc20token.sol\":1711:1723  bool success */\n      0x00\n        /* \"contracts/Erc20token.sol\":1767:1773  tokens */\n      dup2\n        /* \"contracts/Erc20token.sol\":1743:1751  balances */\n      0x05\n        /* \"contracts/Erc20token.sol\":1743:1763  balances[msg.sender] */\n      0x00\n        /* \"contracts/Erc20token.sol\":1752:1762  msg.sender */\n      caller\n        /* \"contracts/Erc20token.sol\":1743:1763  balances[msg.sender] */\n      0xffffffffffffffffffffffffffffffffffffffff\n      and\n      0xffffffffffffffffffffffffffffffffffffffff\n      and\n      dup2\n      mstore\n      0x20\n      add\n      swap1\n      dup2\n      mstore\n      0x20\n      add\n      0x00\n      keccak256\n      sload\n        /* \"contracts/Erc20token.sol\":1743:1773  balances[msg.sender] >= tokens */\n      lt\n      iszero\n        /* \"contracts/Erc20token.sol\":1735:1806  require(balances[msg.sender] >= tokens, \"Insufficient Account Balance\") */\n      tag_100\n      jumpi\n      mload(0x40)\n      0x08c379a000000000000000000000000000000000000000000000000000000000\n      dup2\n      mstore\n      0x04\n      add\n      tag_101\n      swap1\n      tag_102\n      jump\t// in\n    tag_101:\n      mload(0x40)\n      dup1\n      swap2\n      sub\n      swap1\n      revert\n    tag_100:\n        /* \"contracts/Erc20token.sol\":1835:1841  tokens */\n      dup2\n        /* \"contracts/Erc20token.sol\":1819:1827  balances */\n      0x05\n        /* \"contracts/Erc20token.sol\":1819:1831  balances[to] */\n      0x00\n        /* \"contracts/Erc20token.sol\":1828:1830  to */\n      dup6\n        /* \"contracts/Erc20token.sol\":1819:1831  balances[to] */\n      0xffffffffffffffffffffffffffffffffffffffff\n      and\n      0xffffffffffffffffffffffffffffffffffffffff\n      and\n      dup2\n      mstore\n      0x20\n      add\n      swap1\n      dup2\n      mstore\n      0x20\n      add\n      0x00\n      keccak256\n      0x00\n        /* \"contracts/Erc20token.sol\":1819:1841  balances[to] += tokens */\n      dup3\n      dup3\n      sload\n      tag_103\n      swap2\n      swap1\n      tag_104\n      jump\t// in\n    tag_103:\n      swap3\n      pop\n      pop\n      dup2\n      swap1\n      sstore\n      pop\n        /* \"contracts/Erc20token.sol\":1876:1882  tokens */\n      dup2\n        /* \"contracts/Erc20token.sol\":1852:1860  balances */\n      0x05\n        /* \"contracts/Erc20token.sol\":1852:1872  balances[msg.sender] */\n      0x00\n        /* \"contracts/Erc20token.sol\":1861:1871  msg.sender */\n      caller\n        /* \"contracts/Erc20token.sol\":1852:1872  balances[msg.sender] */\n      0xffffffffffffffffffffffffffffffffffffffff\n      and\n      0xffffffffffffffffffffffffffffffffffffffff\n      and\n      dup2\n      mstore\n      0x20\n      add\n      swap1\n      dup2\n      mstore\n      0x20\n      add\n      0x00\n      keccak256\n      0x00\n        /* \"contracts/Erc20token.sol\":1852:1882  balances[msg.sender] -= tokens */\n      dup3\n      dup3\n      sload\n      tag_105\n      swap2\n      swap1\n      tag_91\n      jump\t// in\n    tag_105:\n      swap3\n      pop\n      pop\n      dup2\n      swap1\n      sstore\n      pop\n        /* \"contracts/Erc20token.sol\":1921:1923  to */\n      dup3\n        /* \"contracts/Erc20token.sol\":1900:1932  Transfer(msg.sender, to, tokens) */\n      0xffffffffffffffffffffffffffffffffffffffff\n      and\n        /* \"contracts/Erc20token.sol\":1909:1919  msg.sender */\n      caller\n        /* \"contracts/Erc20token.sol\":1900:1932  Transfer(msg.sender, to, tokens) */\n      0xffffffffffffffffffffffffffffffffffffffff\n      and\n      0xddf252ad1be2c89b69c2b068fc378daa952ba7f163c4a11628f55a4df523b3ef\n        /* \"contracts/Erc20token.sol\":1925:1931  tokens */\n      dup5\n        /* \"contracts/Erc20token.sol\":1900:1932  Transfer(msg.sender, to, tokens) */\n      mload(0x40)\n      tag_106\n      swap2\n      swap1\n      tag_29\n      jump\t// in\n    tag_106:\n      mload(0x40)\n      dup1\n      swap2\n      sub\n      swap1\n      log3\n        /* \"contracts/Erc20token.sol\":1952:1956  true */\n      0x01\n        /* \"contracts/Erc20token.sol\":1945:1956  return true */\n      swap1\n      pop\n        /* \"contracts/Erc20token.sol\":1643:1964  function transfer(address to, uint tokens) public override returns (bool success){\r... */\n      swap3\n      swap2\n      pop\n      pop\n      jump\t// out\n        /* \"contracts/Erc20token.sol\":1972:2127  function allowance(address tokenOwner, address spender) public override view returns (uint remaining){\r... */\n    tag_65:\n        /* \"contracts/Erc20token.sol\":2058:2072  uint remaining */\n      0x00\n        /* \"contracts/Erc20token.sol\":2091:2098  allowed */\n      0x06\n        /* \"contracts/Erc20token.sol\":2091:2110  allowed[tokenOwner] */\n      0x00\n        /* \"contracts/Erc20token.sol\":2099:2109  tokenOwner */\n      dup5\n        /* \"contracts/Erc20token.sol\":2091:2110  allowed[tokenOwner] */\n      0xffffffffffffffffffffffffffffffffffffffff\n      and\n      0xffffffffffffffffffffffffffffffffffffffff\n      and\n      dup2\n      mstore\n      0x20\n      add\n      swap1\n      dup2\n      mstore\n      0x20\n      add\n      0x00\n      keccak256\n        /* \"contracts/Erc20token.sol\":2091:2119  allowed[tokenOwner][spender] */\n      0x00\n        /* \"contracts/Erc20token.sol\":2111:2118  spender */\n      dup4\n        /* \"contracts/Erc20token.sol\":2091:2119  allowed[tokenOwner][spender] */\n      0xffffffffffffffffffffffffffffffffffffffff\n      and\n      0xffffffffffffffffffffffffffffffffffffffff\n      and\n      dup2\n      mstore\n      0x20\n      add\n      swap1\n      dup2\n      mstore\n      0x20\n      add\n      0x00\n      keccak256\n      sload\n        /* \"contracts/Erc20token.sol\":2084:2119  return allowed[tokenOwner][spender] */\n      swap1\n      pop\n        /* \"contracts/Erc20token.sol\":1972:2127  function allowance(address tokenOwner, address spender) public override view returns (uint remaining){\r... */\n      swap3\n      swap2\n      pop\n      pop\n      jump\t// out\n        /* \"#utility.yul\":7:146   */\n    tag_109:\n        /* \"#utility.yul\":53:58   */\n      0x00\n        /* \"#utility.yul\":91:97   */\n      dup2\n        /* \"#utility.yul\":78:98   */\n      calldataload\n        /* \"#utility.yul\":69:98   */\n      swap1\n      pop\n        /* \"#utility.yul\":107:140   */\n      tag_111\n        /* \"#utility.yul\":134:139   */\n      dup2\n        /* \"#utility.yul\":107:140   */\n      tag_112\n      jump\t// in\n    tag_111:\n        /* \"#utility.yul\":7:146   */\n      swap3\n      swap2\n      pop\n      pop\n      jump\t// out\n        /* \"#utility.yul\":152:291   */\n    tag_113:\n        /* \"#utility.yul\":198:203   */\n      0x00\n        /* \"#utility.yul\":236:242   */\n      dup2\n        /* \"#utility.yul\":223:243   */\n      calldataload\n        /* \"#utility.yul\":214:243   */\n      swap1\n      pop\n        /* \"#utility.yul\":252:285   */\n      tag_115\n        /* \"#utility.yul\":279:284   */\n      dup2\n        /* \"#utility.yul\":252:285   */\n      tag_116\n      jump\t// in\n    tag_115:\n        /* \"#utility.yul\":152:291   */\n      swap3\n      swap2\n      pop\n      pop\n      jump\t// out\n        /* \"#utility.yul\":297:626   */\n    tag_37:\n        /* \"#utility.yul\":356:362   */\n      0x00\n        /* \"#utility.yul\":405:407   */\n      0x20\n        /* \"#utility.yul\":393:402   */\n      dup3\n        /* \"#utility.yul\":384:391   */\n      dup5\n        /* \"#utility.yul\":380:403   */\n      sub\n        /* \"#utility.yul\":376:408   */\n      slt\n        /* \"#utility.yul\":373:492   */\n      iszero\n      tag_118\n      jumpi\n        /* \"#utility.yul\":411:490   */\n      tag_119\n      tag_120\n      jump\t// in\n    tag_119:\n        /* \"#utility.yul\":373:492   */\n    tag_118:\n        /* \"#utility.yul\":531:532   */\n      0x00\n        /* \"#utility.yul\":556:609   */\n      tag_121\n        /* \"#utility.yul\":601:608   */\n      dup5\n        /* \"#utility.yul\":592:598   */\n      dup3\n        /* \"#utility.yul\":581:590   */\n      dup6\n        /* \"#utility.yul\":577:599   */\n      add\n        /* \"#utility.yul\":556:609   */\n      tag_109\n      jump\t// in\n    tag_121:\n        /* \"#utility.yul\":546:609   */\n      swap2\n      pop\n        /* \"#utility.yul\":502:619   */\n      pop\n        /* \"#utility.yul\":297:626   */\n      swap3\n      swap2\n      pop\n      pop\n      jump\t// out\n        /* \"#utility.yul\":632:1106   */\n    tag_49:\n        /* \"#utility.yul\":700:706   */\n      0x00\n        /* \"#utility.yul\":708:714   */\n      dup1\n        /* \"#utility.yul\":757:759   */\n      0x40\n        /* \"#utility.yul\":745:754   */\n      dup4\n        /* \"#utility.yul\":736:743   */\n      dup6\n        /* \"#utility.yul\":732:755   */\n      sub\n        /* \"#utility.yul\":728:760   */\n      slt\n        /* \"#utility.yul\":725:844   */\n      iszero\n      tag_123\n      jumpi\n        /* \"#utility.yul\":763:842   */\n      tag_124\n      tag_120\n      jump\t// in\n    tag_124:\n        /* \"#utility.yul\":725:844   */\n    tag_123:\n        /* \"#utility.yul\":883:884   */\n      0x00\n        /* \"#utility.yul\":908:961   */\n      tag_125\n        /* \"#utility.yul\":953:960   */\n      dup6\n        /* \"#utility.yul\":944:950   */\n      dup3\n        /* \"#utility.yul\":933:942   */\n      dup7\n        /* \"#utility.yul\":929:951   */\n      add\n        /* \"#utility.yul\":908:961   */\n      tag_109\n      jump\t// in\n    tag_125:\n        /* \"#utility.yul\":898:961   */\n      swap3\n      pop\n        /* \"#utility.yul\":854:971   */\n      pop\n        /* \"#utility.yul\":1010:1012   */\n      0x20\n        /* \"#utility.yul\":1036:1089   */\n      tag_126\n        /* \"#utility.yul\":1081:1088   */\n      dup6\n        /* \"#utility.yul\":1072:1078   */\n      dup3\n        /* \"#utility.yul\":1061:1070   */\n      dup7\n        /* \"#utility.yul\":1057:1079   */\n      add\n        /* \"#utility.yul\":1036:1089   */\n      tag_109\n      jump\t// in\n    tag_126:\n        /* \"#utility.yul\":1026:1089   */\n      swap2\n      pop\n        /* \"#utility.yul\":981:1099   */\n      pop\n        /* \"#utility.yul\":632:1106   */\n      swap3\n      pop\n      swap3\n      swap1\n      pop\n      jump\t// out\n        /* \"#utility.yul\":1112:1731   */\n    tag_32:\n        /* \"#utility.yul\":1189:1195   */\n      0x00\n        /* \"#utility.yul\":1197:1203   */\n      dup1\n        /* \"#utility.yul\":1205:1211   */\n      0x00\n        /* \"#utility.yul\":1254:1256   */\n      0x60\n        /* \"#utility.yul\":1242:1251   */\n      dup5\n        /* \"#utility.yul\":1233:1240   */\n      dup7\n        /* \"#utility.yul\":1229:1252   */\n      sub\n        /* \"#utility.yul\":1225:1257   */\n      slt\n        /* \"#utility.yul\":1222:1341   */\n      iszero\n      tag_128\n      jumpi\n        /* \"#utility.yul\":1260:1339   */\n      tag_129\n      tag_120\n      jump\t// in\n    tag_129:\n        /* \"#utility.yul\":1222:1341   */\n    tag_128:\n        /* \"#utility.yul\":1380:1381   */\n      0x00\n        /* \"#utility.yul\":1405:1458   */\n      tag_130\n        /* \"#utility.yul\":1450:1457   */\n      dup7\n        /* \"#utility.yul\":1441:1447   */\n      dup3\n        /* \"#utility.yul\":1430:1439   */\n      dup8\n        /* \"#utility.yul\":1426:1448   */\n      add\n        /* \"#utility.yul\":1405:1458   */\n      tag_109\n      jump\t// in\n    tag_130:\n        /* \"#utility.yul\":1395:1458   */\n      swap4\n      pop\n        /* \"#utility.yul\":1351:1468   */\n      pop\n        /* \"#utility.yul\":1507:1509   */\n      0x20\n        /* \"#utility.yul\":1533:1586   */\n      tag_131\n        /* \"#utility.yul\":1578:1585   */\n      dup7\n        /* \"#utility.yul\":1569:1575   */\n      dup3\n        /* \"#utility.yul\":1558:1567   */\n      dup8\n        /* \"#utility.yul\":1554:1576   */\n      add\n        /* \"#utility.yul\":1533:1586   */\n      tag_109\n      jump\t// in\n    tag_131:\n        /* \"#utility.yul\":1523:1586   */\n      swap3\n      pop\n        /* \"#utility.yul\":1478:1596   */\n      pop\n        /* \"#utility.yul\":1635:1637   */\n      0x40\n        /* \"#utility.yul\":1661:1714   */\n      tag_132\n        /* \"#utility.yul\":1706:1713   */\n      dup7\n        /* \"#utility.yul\":1697:1703   */\n      dup3\n        /* \"#utility.yul\":1686:1695   */\n      dup8\n        /* \"#utility.yul\":1682:1704   */\n      add\n        /* \"#utility.yul\":1661:1714   */\n      tag_113\n      jump\t// in\n    tag_132:\n        /* \"#utility.yul\":1651:1714   */\n      swap2\n      pop\n        /* \"#utility.yul\":1606:1724   */\n      pop\n        /* \"#utility.yul\":1112:1731   */\n      swap3\n      pop\n      swap3\n      pop\n      swap3\n      jump\t// out\n        /* \"#utility.yul\":1737:2211   */\n    tag_22:\n        /* \"#utility.yul\":1805:1811   */\n      0x00\n        /* \"#utility.yul\":1813:1819   */\n      dup1\n        /* \"#utility.yul\":1862:1864   */\n      0x40\n        /* \"#utility.yul\":1850:1859   */\n      dup4\n        /* \"#utility.yul\":1841:1848   */\n      dup6\n        /* \"#utility.yul\":1837:1860   */\n      sub\n        /* \"#utility.yul\":1833:1865   */\n      slt\n        /* \"#utility.yul\":1830:1949   */\n      iszero\n      tag_134\n      jumpi\n        /* \"#utility.yul\":1868:1947   */\n      tag_135\n      tag_120\n      jump\t// in\n    tag_135:\n        /* \"#utility.yul\":1830:1949   */\n    tag_134:\n        /* \"#utility.yul\":1988:1989   */\n      0x00\n        /* \"#utility.yul\":2013:2066   */\n      tag_136\n        /* \"#utility.yul\":2058:2065   */\n      dup6\n        /* \"#utility.yul\":2049:2055   */\n      dup3\n        /* \"#utility.yul\":2038:2047   */\n      dup7\n        /* \"#utility.yul\":2034:2056   */\n      add\n        /* \"#utility.yul\":2013:2066   */\n      tag_109\n      jump\t// in\n    tag_136:\n        /* \"#utility.yul\":2003:2066   */\n      swap3\n      pop\n        /* \"#utility.yul\":1959:2076   */\n      pop\n        /* \"#utility.yul\":2115:2117   */\n      0x20\n        /* \"#utility.yul\":2141:2194   */\n      tag_137\n        /* \"#utility.yul\":2186:2193   */\n      dup6\n        /* \"#utility.yul\":2177:2183   */\n      dup3\n        /* \"#utility.yul\":2166:2175   */\n      dup7\n        /* \"#utility.yul\":2162:2184   */\n      add\n        /* \"#utility.yul\":2141:2194   */\n      tag_113\n      jump\t// in\n    tag_137:\n        /* \"#utility.yul\":2131:2194   */\n      swap2\n      pop\n        /* \"#utility.yul\":2086:2204   */\n      pop\n        /* \"#utility.yul\":1737:2211   */\n      swap3\n      pop\n      swap3\n      swap1\n      pop\n      jump\t// out\n        /* \"#utility.yul\":2217:2335   */\n    tag_138:\n        /* \"#utility.yul\":2304:2328   */\n      tag_140\n        /* \"#utility.yul\":2322:2327   */\n      dup2\n        /* \"#utility.yul\":2304:2328   */\n      tag_141\n      jump\t// in\n    tag_140:\n        /* \"#utility.yul\":2299:2302   */\n      dup3\n        /* \"#utility.yul\":2292:2329   */\n      mstore\n        /* \"#utility.yul\":2217:2335   */\n      pop\n      pop\n      jump\t// out\n        /* \"#utility.yul\":2341:2450   */\n    tag_142:\n        /* \"#utility.yul\":2422:2443   */\n      tag_144\n        /* \"#utility.yul\":2437:2442   */\n      dup2\n        /* \"#utility.yul\":2422:2443   */\n      tag_145\n      jump\t// in\n    tag_144:\n        /* \"#utility.yul\":2417:2420   */\n      dup3\n        /* \"#utility.yul\":2410:2444   */\n      mstore\n        /* \"#utility.yul\":2341:2450   */\n      pop\n      pop\n      jump\t// out\n        /* \"#utility.yul\":2456:2820   */\n    tag_146:\n        /* \"#utility.yul\":2544:2547   */\n      0x00\n        /* \"#utility.yul\":2572:2611   */\n      tag_148\n        /* \"#utility.yul\":2605:2610   */\n      dup3\n        /* \"#utility.yul\":2572:2611   */\n      tag_149\n      jump\t// in\n    tag_148:\n        /* \"#utility.yul\":2627:2698   */\n      tag_150\n        /* \"#utility.yul\":2691:2697   */\n      dup2\n        /* \"#utility.yul\":2686:2689   */\n      dup6\n        /* \"#utility.yul\":2627:2698   */\n      tag_151\n      jump\t// in\n    tag_150:\n        /* \"#utility.yul\":2620:2698   */\n      swap4\n      pop\n        /* \"#utility.yul\":2707:2759   */\n      tag_152\n        /* \"#utility.yul\":2752:2758   */\n      dup2\n        /* \"#utility.yul\":2747:2750   */\n      dup6\n        /* \"#utility.yul\":2740:2744   */\n      0x20\n        /* \"#utility.yul\":2733:2738   */\n      dup7\n        /* \"#utility.yul\":2729:2745   */\n      add\n        /* \"#utility.yul\":2707:2759   */\n      tag_153\n      jump\t// in\n    tag_152:\n        /* \"#utility.yul\":2784:2813   */\n      tag_154\n        /* \"#utility.yul\":2806:2812   */\n      dup2\n        /* \"#utility.yul\":2784:2813   */\n      tag_155\n      jump\t// in\n    tag_154:\n        /* \"#utility.yul\":2779:2782   */\n      dup5\n        /* \"#utility.yul\":2775:2814   */\n      add\n        /* \"#utility.yul\":2768:2814   */\n      swap2\n      pop\n        /* \"#utility.yul\":2548:2820   */\n      pop\n        /* \"#utility.yul\":2456:2820   */\n      swap3\n      swap2\n      pop\n      pop\n      jump\t// out\n        /* \"#utility.yul\":2826:3192   */\n    tag_156:\n        /* \"#utility.yul\":2968:2971   */\n      0x00\n        /* \"#utility.yul\":2989:3056   */\n      tag_158\n        /* \"#utility.yul\":3053:3055   */\n      0x30\n        /* \"#utility.yul\":3048:3051   */\n      dup4\n        /* \"#utility.yul\":2989:3056   */\n      tag_151\n      jump\t// in\n    tag_158:\n        /* \"#utility.yul\":2982:3056   */\n      swap2\n      pop\n        /* \"#utility.yul\":3065:3158   */\n      tag_159\n        /* \"#utility.yul\":3154:3157   */\n      dup3\n        /* \"#utility.yul\":3065:3158   */\n      tag_160\n      jump\t// in\n    tag_159:\n        /* \"#utility.yul\":3183:3185   */\n      0x40\n        /* \"#utility.yul\":3178:3181   */\n      dup3\n        /* \"#utility.yul\":3174:3186   */\n      add\n        /* \"#utility.yul\":3167:3186   */\n      swap1\n      pop\n        /* \"#utility.yul\":2826:3192   */\n      swap2\n      swap1\n      pop\n      jump\t// out\n        /* \"#utility.yul\":3198:3564   */\n    tag_161:\n        /* \"#utility.yul\":3340:3343   */\n      0x00\n        /* \"#utility.yul\":3361:3428   */\n      tag_163\n        /* \"#utility.yul\":3425:3427   */\n      0x22\n        /* \"#utility.yul\":3420:3423   */\n      dup4\n        /* \"#utility.yul\":3361:3428   */\n      tag_151\n      jump\t// in\n    tag_163:\n        /* \"#utility.yul\":3354:3428   */\n      swap2\n      pop\n        /* \"#utility.yul\":3437:3530   */\n      tag_164\n        /* \"#utility.yul\":3526:3529   */\n      dup3\n        /* \"#utility.yul\":3437:3530   */\n      tag_165\n      jump\t// in\n    tag_164:\n        /* \"#utility.yul\":3555:3557   */\n      0x40\n        /* \"#utility.yul\":3550:3553   */\n      dup3\n        /* \"#utility.yul\":3546:3558   */\n      add\n        /* \"#utility.yul\":3539:3558   */\n      swap1\n      pop\n        /* \"#utility.yul\":3198:3564   */\n      swap2\n      swap1\n      pop\n      jump\t// out\n        /* \"#utility.yul\":3570:3936   */\n    tag_166:\n        /* \"#utility.yul\":3712:3715   */\n      0x00\n        /* \"#utility.yul\":3733:3800   */\n      tag_168\n        /* \"#utility.yul\":3797:3799   */\n      0x30\n        /* \"#utility.yul\":3792:3795   */\n      dup4\n        /* \"#utility.yul\":3733:3800   */\n      tag_151\n      jump\t// in\n    tag_168:\n        /* \"#utility.yul\":3726:3800   */\n      swap2\n      pop\n        /* \"#utility.yul\":3809:3902   */\n      tag_169\n        /* \"#utility.yul\":3898:3901   */\n      dup3\n        /* \"#utility.yul\":3809:3902   */\n      tag_170\n      jump\t// in\n    tag_169:\n        /* \"#utility.yul\":3927:3929   */\n      0x40\n        /* \"#utility.yul\":3922:3925   */\n      dup3\n        /* \"#utility.yul\":3918:3930   */\n      add\n        /* \"#utility.yul\":3911:3930   */\n      swap1\n      pop\n        /* \"#utility.yul\":3570:3936   */\n      swap2\n      swap1\n      pop\n      jump\t// out\n        /* \"#utility.yul\":3942:4308   */\n    tag_171:\n        /* \"#utility.yul\":4084:4087   */\n      0x00\n        /* \"#utility.yul\":4105:4172   */\n      tag_173\n        /* \"#utility.yul\":4169:4171   */\n      0x1c\n        /* \"#utility.yul\":4164:4167   */\n      dup4\n        /* \"#utility.yul\":4105:4172   */\n      tag_151\n      jump\t// in\n    tag_173:\n        /* \"#utility.yul\":4098:4172   */\n      swap2\n      pop\n        /* \"#utility.yul\":4181:4274   */\n      tag_174\n        /* \"#utility.yul\":4270:4273   */\n      dup3\n        /* \"#utility.yul\":4181:4274   */\n      tag_175\n      jump\t// in\n    tag_174:\n        /* \"#utility.yul\":4299:4301   */\n      0x20\n        /* \"#utility.yul\":4294:4297   */\n      dup3\n        /* \"#utility.yul\":4290:4302   */\n      add\n        /* \"#utility.yul\":4283:4302   */\n      swap1\n      pop\n        /* \"#utility.yul\":3942:4308   */\n      swap2\n      swap1\n      pop\n      jump\t// out\n        /* \"#utility.yul\":4314:4680   */\n    tag_176:\n        /* \"#utility.yul\":4456:4459   */\n      0x00\n        /* \"#utility.yul\":4477:4544   */\n      tag_178\n        /* \"#utility.yul\":4541:4543   */\n      0x12\n        /* \"#utility.yul\":4536:4539   */\n      dup4\n        /* \"#utility.yul\":4477:4544   */\n      tag_151\n      jump\t// in\n    tag_178:\n        /* \"#utility.yul\":4470:4544   */\n      swap2\n      pop\n        /* \"#utility.yul\":4553:4646   */\n      tag_179\n        /* \"#utility.yul\":4642:4645   */\n      dup3\n        /* \"#utility.yul\":4553:4646   */\n      tag_180\n      jump\t// in\n    tag_179:\n        /* \"#utility.yul\":4671:4673   */\n      0x20\n        /* \"#utility.yul\":4666:4669   */\n      dup3\n        /* \"#utility.yul\":4662:4674   */\n      add\n        /* \"#utility.yul\":4655:4674   */\n      swap1\n      pop\n        /* \"#utility.yul\":4314:4680   */\n      swap2\n      swap1\n      pop\n      jump\t// out\n        /* \"#utility.yul\":4686:4804   */\n    tag_181:\n        /* \"#utility.yul\":4773:4797   */\n      tag_183\n        /* \"#utility.yul\":4791:4796   */\n      dup2\n        /* \"#utility.yul\":4773:4797   */\n      tag_184\n      jump\t// in\n    tag_183:\n        /* \"#utility.yul\":4768:4771   */\n      dup3\n        /* \"#utility.yul\":4761:4798   */\n      mstore\n        /* \"#utility.yul\":4686:4804   */\n      pop\n      pop\n      jump\t// out\n        /* \"#utility.yul\":4810:5032   */\n    tag_46:\n        /* \"#utility.yul\":4903:4907   */\n      0x00\n        /* \"#utility.yul\":4941:4943   */\n      0x20\n        /* \"#utility.yul\":4930:4939   */\n      dup3\n        /* \"#utility.yul\":4926:4944   */\n      add\n        /* \"#utility.yul\":4918:4944   */\n      swap1\n      pop\n        /* \"#utility.yul\":4954:5025   */\n      tag_186\n        /* \"#utility.yul\":5022:5023   */\n      0x00\n        /* \"#utility.yul\":5011:5020   */\n      dup4\n        /* \"#utility.yul\":5007:5024   */\n      add\n        /* \"#utility.yul\":4998:5004   */\n      dup5\n        /* \"#utility.yul\":4954:5025   */\n      tag_138\n      jump\t// in\n    tag_186:\n        /* \"#utility.yul\":4810:5032   */\n      swap3\n      swap2\n      pop\n      pop\n      jump\t// out\n        /* \"#utility.yul\":5038:5248   */\n    tag_25:\n        /* \"#utility.yul\":5125:5129   */\n      0x00\n        /* \"#utility.yul\":5163:5165   */\n      0x20\n        /* \"#utility.yul\":5152:5161   */\n      dup3\n        /* \"#utility.yul\":5148:5166   */\n      add\n        /* \"#utility.yul\":5140:5166   */\n      swap1\n      pop\n        /* \"#utility.yul\":5176:5241   */\n      tag_188\n        /* \"#utility.yul\":5238:5239   */\n      0x00\n        /* \"#utility.yul\":5227:5236   */\n      dup4\n        /* \"#utility.yul\":5223:5240   */\n      add\n        /* \"#utility.yul\":5214:5220   */\n      dup5\n        /* \"#utility.yul\":5176:5241   */\n      tag_142\n      jump\t// in\n    tag_188:\n        /* \"#utility.yul\":5038:5248   */\n      swap3\n      swap2\n      pop\n      pop\n      jump\t// out\n        /* \"#utility.yul\":5254:5567   */\n    tag_19:\n        /* \"#utility.yul\":5367:5371   */\n      0x00\n        /* \"#utility.yul\":5405:5407   */\n      0x20\n        /* \"#utility.yul\":5394:5403   */\n      dup3\n        /* \"#utility.yul\":5390:5408   */\n      add\n        /* \"#utility.yul\":5382:5408   */\n      swap1\n      pop\n        /* \"#utility.yul\":5454:5463   */\n      dup2\n        /* \"#utility.yul\":5448:5452   */\n      dup2\n        /* \"#utility.yul\":5444:5464   */\n      sub\n        /* \"#utility.yul\":5440:5441   */\n      0x00\n        /* \"#utility.yul\":5429:5438   */\n      dup4\n        /* \"#utility.yul\":5425:5442   */\n      add\n        /* \"#utility.yul\":5418:5465   */\n      mstore\n        /* \"#utility.yul\":5482:5560   */\n      tag_190\n        /* \"#utility.yul\":5555:5559   */\n      dup2\n        /* \"#utility.yul\":5546:5552   */\n      dup5\n        /* \"#utility.yul\":5482:5560   */\n      tag_146\n      jump\t// in\n    tag_190:\n        /* \"#utility.yul\":5474:5560   */\n      swap1\n      pop\n        /* \"#utility.yul\":5254:5567   */\n      swap3\n      swap2\n      pop\n      pop\n      jump\t// out\n        /* \"#utility.yul\":5573:5992   */\n    tag_84:\n        /* \"#utility.yul\":5739:5743   */\n      0x00\n        /* \"#utility.yul\":5777:5779   */\n      0x20\n        /* \"#utility.yul\":5766:5775   */\n      dup3\n        /* \"#utility.yul\":5762:5780   */\n      add\n        /* \"#utility.yul\":5754:5780   */\n      swap1\n      pop\n        /* \"#utility.yul\":5826:5835   */\n      dup2\n        /* \"#utility.yul\":5820:5824   */\n      dup2\n        /* \"#utility.yul\":5816:5836   */\n      sub\n        /* \"#utility.yul\":5812:5813   */\n      0x00\n        /* \"#utility.yul\":5801:5810   */\n      dup4\n        /* \"#utility.yul\":5797:5814   */\n      add\n        /* \"#utility.yul\":5790:5837   */\n      mstore\n        /* \"#utility.yul\":5854:5985   */\n      tag_192\n        /* \"#utility.yul\":5980:5984   */\n      dup2\n        /* \"#utility.yul\":5854:5985   */\n      tag_156\n      jump\t// in\n    tag_192:\n        /* \"#utility.yul\":5846:5985   */\n      swap1\n      pop\n        /* \"#utility.yul\":5573:5992   */\n      swap2\n      swap1\n      pop\n      jump\t// out\n        /* \"#utility.yul\":5998:6417   */\n    tag_79:\n        /* \"#utility.yul\":6164:6168   */\n      0x00\n        /* \"#utility.yul\":6202:6204   */\n      0x20\n        /* \"#utility.yul\":6191:6200   */\n      dup3\n        /* \"#utility.yul\":6187:6205   */\n      add\n        /* \"#utility.yul\":6179:6205   */\n      swap1\n      pop\n        /* \"#utility.yul\":6251:6260   */\n      dup2\n        /* \"#utility.yul\":6245:6249   */\n      dup2\n        /* \"#utility.yul\":6241:6261   */\n      sub\n        /* \"#utility.yul\":6237:6238   */\n      0x00\n        /* \"#utility.yul\":6226:6235   */\n      dup4\n        /* \"#utility.yul\":6222:6239   */\n      add\n        /* \"#utility.yul\":6215:6262   */\n      mstore\n        /* \"#utility.yul\":6279:6410   */\n      tag_194\n        /* \"#utility.yul\":6405:6409   */\n      dup2\n        /* \"#utility.yul\":6279:6410   */\n      tag_161\n      jump\t// in\n    tag_194:\n        /* \"#utility.yul\":6271:6410   */\n      swap1\n      pop\n        /* \"#utility.yul\":5998:6417   */\n      swap2\n      swap1\n      pop\n      jump\t// out\n        /* \"#utility.yul\":6423:6842   */\n    tag_76:\n        /* \"#utility.yul\":6589:6593   */\n      0x00\n        /* \"#utility.yul\":6627:6629   */\n      0x20\n        /* \"#utility.yul\":6616:6625   */\n      dup3\n        /* \"#utility.yul\":6612:6630   */\n      add\n        /* \"#utility.yul\":6604:6630   */\n      swap1\n      pop\n        /* \"#utility.yul\":6676:6685   */\n      dup2\n        /* \"#utility.yul\":6670:6674   */\n      dup2\n        /* \"#utility.yul\":6666:6686   */\n      sub\n        /* \"#utility.yul\":6662:6663   */\n      0x00\n        /* \"#utility.yul\":6651:6660   */\n      dup4\n        /* \"#utility.yul\":6647:6664   */\n      add\n        /* \"#utility.yul\":6640:6687   */\n      mstore\n        /* \"#utility.yul\":6704:6835   */\n      tag_196\n        /* \"#utility.yul\":6830:6834   */\n      dup2\n        /* \"#utility.yul\":6704:6835   */\n      tag_166\n      jump\t// in\n    tag_196:\n        /* \"#utility.yul\":6696:6835   */\n      swap1\n      pop\n        /* \"#utility.yul\":6423:6842   */\n      swap2\n      swap1\n      pop\n      jump\t// out\n        /* \"#utility.yul\":6848:7267   */\n    tag_102:\n        /* \"#utility.yul\":7014:7018   */\n      0x00\n        /* \"#utility.yul\":7052:7054   */\n      0x20\n        /* \"#utility.yul\":7041:7050   */\n      dup3\n        /* \"#utility.yul\":7037:7055   */\n      add\n        /* \"#utility.yul\":7029:7055   */\n      swap1\n      pop\n        /* \"#utility.yul\":7101:7110   */\n      dup2\n        /* \"#utility.yul\":7095:7099   */\n      dup2\n        /* \"#utility.yul\":7091:7111   */\n      sub\n        /* \"#utility.yul\":7087:7088   */\n      0x00\n        /* \"#utility.yul\":7076:7085   */\n      dup4\n        /* \"#utility.yul\":7072:7089   */\n      add\n        /* \"#utility.yul\":7065:7112   */\n      mstore\n        /* \"#utility.yul\":7129:7260   */\n      tag_198\n        /* \"#utility.yul\":7255:7259   */\n      dup2\n        /* \"#utility.yul\":7129:7260   */\n      tag_171\n      jump\t// in\n    tag_198:\n        /* \"#utility.yul\":7121:7260   */\n      swap1\n      pop\n        /* \"#utility.yul\":6848:7267   */\n      swap2\n      swap1\n      pop\n      jump\t// out\n        /* \"#utility.yul\":7273:7692   */\n    tag_87:\n        /* \"#utility.yul\":7439:7443   */\n      0x00\n        /* \"#utility.yul\":7477:7479   */\n      0x20\n        /* \"#utility.yul\":7466:7475   */\n      dup3\n        /* \"#utility.yul\":7462:7480   */\n      add\n        /* \"#utility.yul\":7454:7480   */\n      swap1\n      pop\n        /* \"#utility.yul\":7526:7535   */\n      dup2\n        /* \"#utility.yul\":7520:7524   */\n      dup2\n        /* \"#utility.yul\":7516:7536   */\n      sub\n        /* \"#utility.yul\":7512:7513   */\n      0x00\n        /* \"#utility.yul\":7501:7510   */\n      dup4\n        /* \"#utility.yul\":7497:7514   */\n      add\n        /* \"#utility.yul\":7490:7537   */\n      mstore\n        /* \"#utility.yul\":7554:7685   */\n      tag_200\n        /* \"#utility.yul\":7680:7684   */\n      dup2\n        /* \"#utility.yul\":7554:7685   */\n      tag_176\n      jump\t// in\n    tag_200:\n        /* \"#utility.yul\":7546:7685   */\n      swap1\n      pop\n        /* \"#utility.yul\":7273:7692   */\n      swap2\n      swap1\n      pop\n      jump\t// out\n        /* \"#utility.yul\":7698:7920   */\n    tag_29:\n        /* \"#utility.yul\":7791:7795   */\n      0x00\n        /* \"#utility.yul\":7829:7831   */\n      0x20\n        /* \"#utility.yul\":7818:7827   */\n      dup3\n        /* \"#utility.yul\":7814:7832   */\n      add\n        /* \"#utility.yul\":7806:7832   */\n      swap1\n      pop\n        /* \"#utility.yul\":7842:7913   */\n      tag_202\n        /* \"#utility.yul\":7910:7911   */\n      0x00\n        /* \"#utility.yul\":7899:7908   */\n      dup4\n        /* \"#utility.yul\":7895:7912   */\n      add\n        /* \"#utility.yul\":7886:7892   */\n      dup5\n        /* \"#utility.yul\":7842:7913   */\n      tag_181\n      jump\t// in\n    tag_202:\n        /* \"#utility.yul\":7698:7920   */\n      swap3\n      swap2\n      pop\n      pop\n      jump\t// out\n        /* \"#utility.yul\":8007:8106   */\n    tag_149:\n        /* \"#utility.yul\":8059:8065   */\n      0x00\n        /* \"#utility.yul\":8093:8098   */\n      dup2\n        /* \"#utility.yul\":8087:8099   */\n      mload\n        /* \"#utility.yul\":8077:8099   */\n      swap1\n      pop\n        /* \"#utility.yul\":8007:8106   */\n      swap2\n      swap1\n      pop\n      jump\t// out\n        /* \"#utility.yul\":8112:8281   */\n    tag_151:\n        /* \"#utility.yul\":8196:8207   */\n      0x00\n        /* \"#utility.yul\":8230:8236   */\n      dup3\n        /* \"#utility.yul\":8225:8228   */\n      dup3\n        /* \"#utility.yul\":8218:8237   */\n      mstore\n        /* \"#utility.yul\":8270:8274   */\n      0x20\n        /* \"#utility.yul\":8265:8268   */\n      dup3\n        /* \"#utility.yul\":8261:8275   */\n      add\n        /* \"#utility.yul\":8246:8275   */\n      swap1\n      pop\n        /* \"#utility.yul\":8112:8281   */\n      swap3\n      swap2\n      pop\n      pop\n      jump\t// out\n        /* \"#utility.yul\":8287:8592   */\n    tag_104:\n        /* \"#utility.yul\":8327:8330   */\n      0x00\n        /* \"#utility.yul\":8346:8366   */\n      tag_208\n        /* \"#utility.yul\":8364:8365   */\n      dup3\n        /* \"#utility.yul\":8346:8366   */\n      tag_184\n      jump\t// in\n    tag_208:\n        /* \"#utility.yul\":8341:8366   */\n      swap2\n      pop\n        /* \"#utility.yul\":8380:8400   */\n      tag_209\n        /* \"#utility.yul\":8398:8399   */\n      dup4\n        /* \"#utility.yul\":8380:8400   */\n      tag_184\n      jump\t// in\n    tag_209:\n        /* \"#utility.yul\":8375:8400   */\n      swap3\n      pop\n        /* \"#utility.yul\":8534:8535   */\n      dup3\n        /* \"#utility.yul\":8466:8532   */\n      0xffffffffffffffffffffffffffffffffffffffffffffffffffffffffffffffff\n        /* \"#utility.yul\":8462:8536   */\n      sub\n        /* \"#utility.yul\":8459:8460   */\n      dup3\n        /* \"#utility.yul\":8456:8537   */\n      gt\n        /* \"#utility.yul\":8453:8560   */\n      iszero\n      tag_210\n      jumpi\n        /* \"#utility.yul\":8540:8558   */\n      tag_211\n      tag_212\n      jump\t// in\n    tag_211:\n        /* \"#utility.yul\":8453:8560   */\n    tag_210:\n        /* \"#utility.yul\":8584:8585   */\n      dup3\n        /* \"#utility.yul\":8581:8582   */\n      dup3\n        /* \"#utility.yul\":8577:8586   */\n      add\n        /* \"#utility.yul\":8570:8586   */\n      swap1\n      pop\n        /* \"#utility.yul\":8287:8592   */\n      swap3\n      swap2\n      pop\n      pop\n      jump\t// out\n        /* \"#utility.yul\":8598:8789   */\n    tag_91:\n        /* \"#utility.yul\":8638:8642   */\n      0x00\n        /* \"#utility.yul\":8658:8678   */\n      tag_214\n        /* \"#utility.yul\":8676:8677   */\n      dup3\n        /* \"#utility.yul\":8658:8678   */\n      tag_184\n      jump\t// in\n    tag_214:\n        /* \"#utility.yul\":8653:8678   */\n      swap2\n      pop\n        /* \"#utility.yul\":8692:8712   */\n      tag_215\n        /* \"#utility.yul\":8710:8711   */\n      dup4\n        /* \"#utility.yul\":8692:8712   */\n      tag_184\n      jump\t// in\n    tag_215:\n        /* \"#utility.yul\":8687:8712   */\n      swap3\n      pop\n        /* \"#utility.yul\":8731:8732   */\n      dup3\n        /* \"#utility.yul\":8728:8729   */\n      dup3\n        /* \"#utility.yul\":8725:8733   */\n      lt\n        /* \"#utility.yul\":8722:8756   */\n      iszero\n      tag_216\n      jumpi\n        /* \"#utility.yul\":8736:8754   */\n      tag_217\n      tag_212\n      jump\t// in\n    tag_217:\n        /* \"#utility.yul\":8722:8756   */\n    tag_216:\n        /* \"#utility.yul\":8781:8782   */\n      dup3\n        /* \"#utility.yul\":8778:8779   */\n      dup3\n        /* \"#utility.yul\":8774:8783   */\n      sub\n        /* \"#utility.yul\":8766:8783   */\n      swap1\n      pop\n        /* \"#utility.yul\":8598:8789   */\n      swap3\n      swap2\n      pop\n      pop\n      jump\t// out\n        /* \"#utility.yul\":8795:8891   */\n    tag_141:\n        /* \"#utility.yul\":8832:8839   */\n      0x00\n        /* \"#utility.yul\":8861:8885   */\n      tag_219\n        /* \"#utility.yul\":8879:8884   */\n      dup3\n        /* \"#utility.yul\":8861:8885   */\n      tag_220\n      jump\t// in\n    tag_219:\n        /* \"#utility.yul\":8850:8885   */\n      swap1\n      pop\n        /* \"#utility.yul\":8795:8891   */\n      swap2\n      swap1\n      pop\n      jump\t// out\n        /* \"#utility.yul\":8897:8987   */\n    tag_145:\n        /* \"#utility.yul\":8931:8938   */\n      0x00\n        /* \"#utility.yul\":8974:8979   */\n      dup2\n        /* \"#utility.yul\":8967:8980   */\n      iszero\n        /* \"#utility.yul\":8960:8981   */\n      iszero\n        /* \"#utility.yul\":8949:8981   */\n      swap1\n      pop\n        /* \"#utility.yul\":8897:8987   */\n      swap2\n      swap1\n      pop\n      jump\t// out\n        /* \"#utility.yul\":8993:9119   */\n    tag_220:\n        /* \"#utility.yul\":9030:9037   */\n      0x00\n        /* \"#utility.yul\":9070:9112   */\n      0xffffffffffffffffffffffffffffffffffffffff\n        /* \"#utility.yul\":9063:9068   */\n      dup3\n        /* \"#utility.yul\":9059:9113   */\n      and\n        /* \"#utility.yul\":9048:9113   */\n      swap1\n      pop\n        /* \"#utility.yul\":8993:9119   */\n      swap2\n      swap1\n      pop\n      jump\t// out\n        /* \"#utility.yul\":9125:9202   */\n    tag_184:\n        /* \"#utility.yul\":9162:9169   */\n      0x00\n        /* \"#utility.yul\":9191:9196   */\n      dup2\n        /* \"#utility.yul\":9180:9196   */\n      swap1\n      pop\n        /* \"#utility.yul\":9125:9202   */\n      swap2\n      swap1\n      pop\n      jump\t// out\n        /* \"#utility.yul\":9208:9515   */\n    tag_153:\n        /* \"#utility.yul\":9276:9277   */\n      0x00\n        /* \"#utility.yul\":9286:9399   */\n    tag_225:\n        /* \"#utility.yul\":9300:9306   */\n      dup4\n        /* \"#utility.yul\":9297:9298   */\n      dup2\n        /* \"#utility.yul\":9294:9307   */\n      lt\n        /* \"#utility.yul\":9286:9399   */\n      iszero\n      tag_227\n      jumpi\n        /* \"#utility.yul\":9385:9386   */\n      dup1\n        /* \"#utility.yul\":9380:9383   */\n      dup3\n        /* \"#utility.yul\":9376:9387   */\n      add\n        /* \"#utility.yul\":9370:9388   */\n      mload\n        /* \"#utility.yul\":9366:9367   */\n      dup2\n        /* \"#utility.yul\":9361:9364   */\n      dup5\n        /* \"#utility.yul\":9357:9368   */\n      add\n        /* \"#utility.yul\":9350:9389   */\n      mstore\n        /* \"#utility.yul\":9322:9324   */\n      0x20\n        /* \"#utility.yul\":9319:9320   */\n      dup2\n        /* \"#utility.yul\":9315:9325   */\n      add\n        /* \"#utility.yul\":9310:9325   */\n      swap1\n      pop\n        /* \"#utility.yul\":9286:9399   */\n      jump(tag_225)\n    tag_227:\n        /* \"#utility.yul\":9417:9423   */\n      dup4\n        /* \"#utility.yul\":9414:9415   */\n      dup2\n        /* \"#utility.yul\":9411:9424   */\n      gt\n        /* \"#utility.yul\":9408:9509   */\n      iszero\n      tag_228\n      jumpi\n        /* \"#utility.yul\":9497:9498   */\n      0x00\n        /* \"#utility.yul\":9488:9494   */\n      dup5\n        /* \"#utility.yul\":9483:9486   */\n      dup5\n        /* \"#utility.yul\":9479:9495   */\n      add\n        /* \"#utility.yul\":9472:9499   */\n      mstore\n        /* \"#utility.yul\":9408:9509   */\n    tag_228:\n        /* \"#utility.yul\":9257:9515   */\n      pop\n        /* \"#utility.yul\":9208:9515   */\n      pop\n      pop\n      pop\n      jump\t// out\n        /* \"#utility.yul\":9521:9841   */\n    tag_68:\n        /* \"#utility.yul\":9565:9571   */\n      0x00\n        /* \"#utility.yul\":9602:9603   */\n      0x02\n        /* \"#utility.yul\":9596:9600   */\n      dup3\n        /* \"#utility.yul\":9592:9604   */\n      div\n        /* \"#utility.yul\":9582:9604   */\n      swap1\n      pop\n        /* \"#utility.yul\":9649:9650   */\n      0x01\n        /* \"#utility.yul\":9643:9647   */\n      dup3\n        /* \"#utility.yul\":9639:9651   */\n      and\n        /* \"#utility.yul\":9670:9688   */\n      dup1\n        /* \"#utility.yul\":9660:9741   */\n      tag_230\n      jumpi\n        /* \"#utility.yul\":9726:9730   */\n      0x7f\n        /* \"#utility.yul\":9718:9724   */\n      dup3\n        /* \"#utility.yul\":9714:9731   */\n      and\n        /* \"#utility.yul\":9704:9731   */\n      swap2\n      pop\n        /* \"#utility.yul\":9660:9741   */\n    tag_230:\n        /* \"#utility.yul\":9788:9790   */\n      0x20\n        /* \"#utility.yul\":9780:9786   */\n      dup3\n        /* \"#utility.yul\":9777:9791   */\n      lt\n        /* \"#utility.yul\":9757:9775   */\n      dup2\n        /* \"#utility.yul\":9754:9792   */\n      eq\n        /* \"#utility.yul\":9751:9835   */\n      iszero\n      tag_231\n      jumpi\n        /* \"#utility.yul\":9807:9825   */\n      tag_232\n      tag_233\n      jump\t// in\n    tag_232:\n        /* \"#utility.yul\":9751:9835   */\n    tag_231:\n        /* \"#utility.yul\":9572:9841   */\n      pop\n        /* \"#utility.yul\":9521:9841   */\n      swap2\n      swap1\n      pop\n      jump\t// out\n        /* \"#utility.yul\":9847:10027   */\n    tag_212:\n        /* \"#utility.yul\":9895:9972   */\n      0x4e487b7100000000000000000000000000000000000000000000000000000000\n        /* \"#utility.yul\":9892:9893   */\n      0x00\n        /* \"#utility.yul\":9885:9973   */\n      mstore\n        /* \"#utility.yul\":9992:9996   */\n      0x11\n        /* \"#utility.yul\":9989:9990   */\n      0x04\n        /* \"#utility.yul\":9982:9997   */\n      mstore\n        /* \"#utility.yul\":10016:10020   */\n      0x24\n        /* \"#utility.yul\":10013:10014   */\n      0x00\n        /* \"#utility.yul\":10006:10021   */\n      revert\n        /* \"#utility.yul\":10033:10213   */\n    tag_233:\n        /* \"#utility.yul\":10081:10158   */\n      0x4e487b7100000000000000000000000000000000000000000000000000000000\n        /* \"#utility.yul\":10078:10079   */\n      0x00\n        /* \"#utility.yul\":10071:10159   */\n      mstore\n        /* \"#utility.yul\":10178:10182   */\n      0x22\n        /* \"#utility.yul\":10175:10176   */\n      0x04\n        /* \"#utility.yul\":10168:10183   */\n      mstore\n        /* \"#utility.yul\":10202:10206   */\n      0x24\n        /* \"#utility.yul\":10199:10200   */\n      0x00\n        /* \"#utility.yul\":10192:10207   */\n      revert\n        /* \"#utility.yul\":10342:10459   */\n    tag_120:\n        /* \"#utility.yul\":10451:10452   */\n      0x00\n        /* \"#utility.yul\":10448:10449   */\n      dup1\n        /* \"#utility.yul\":10441:10453   */\n      revert\n        /* \"#utility.yul\":10465:10567   */\n    tag_155:\n        /* \"#utility.yul\":10506:10512   */\n      0x00\n        /* \"#utility.yul\":10557:10559   */\n      0x1f\n        /* \"#utility.yul\":10553:10560   */\n      not\n        /* \"#utility.yul\":10548:10550   */\n      0x1f\n        /* \"#utility.yul\":10541:10546   */\n      dup4\n        /* \"#utility.yul\":10537:10551   */\n      add\n        /* \"#utility.yul\":10533:10561   */\n      and\n        /* \"#utility.yul\":10523:10561   */\n      swap1\n      pop\n        /* \"#utility.yul\":10465:10567   */\n      swap2\n      swap1\n      pop\n      jump\t// out\n        /* \"#utility.yul\":10573:10808   */\n    tag_160:\n        /* \"#utility.yul\":10713:10747   */\n      0x546f6b656e2076616c75652069732067726561746572207468616e2074686520\n        /* \"#utility.yul\":10709:10710   */\n      0x00\n        /* \"#utility.yul\":10701:10707   */\n      dup3\n        /* \"#utility.yul\":10697:10711   */\n      add\n        /* \"#utility.yul\":10690:10748   */\n      mstore\n        /* \"#utility.yul\":10782:10800   */\n      0x617070726f7665642062616c616e636500000000000000000000000000000000\n        /* \"#utility.yul\":10777:10779   */\n      0x20\n        /* \"#utility.yul\":10769:10775   */\n      dup3\n        /* \"#utility.yul\":10765:10780   */\n      add\n        /* \"#utility.yul\":10758:10801   */\n      mstore\n        /* \"#utility.yul\":10573:10808   */\n      pop\n      jump\t// out\n        /* \"#utility.yul\":10814:11035   */\n    tag_165:\n        /* \"#utility.yul\":10954:10988   */\n      0x546f6b656e2076616c7565206d7573742062652067726561746572207468616e\n        /* \"#utility.yul\":10950:10951   */\n      0x00\n        /* \"#utility.yul\":10942:10948   */\n      dup3\n        /* \"#utility.yul\":10938:10952   */\n      add\n        /* \"#utility.yul\":10931:10989   */\n      mstore\n        /* \"#utility.yul\":11023:11027   */\n      0x2030000000000000000000000000000000000000000000000000000000000000\n        /* \"#utility.yul\":11018:11020   */\n      0x20\n        /* \"#utility.yul\":11010:11016   */\n      dup3\n        /* \"#utility.yul\":11006:11021   */\n      add\n        /* \"#utility.yul\":10999:11028   */\n      mstore\n        /* \"#utility.yul\":10814:11035   */\n      pop\n      jump\t// out\n        /* \"#utility.yul\":11041:11276   */\n    tag_170:\n        /* \"#utility.yul\":11181:11215   */\n      0x546f6b656e2076616c75652069732067726561746572207468616e20796f7572\n        /* \"#utility.yul\":11177:11178   */\n      0x00\n        /* \"#utility.yul\":11169:11175   */\n      dup3\n        /* \"#utility.yul\":11165:11179   */\n      add\n        /* \"#utility.yul\":11158:11216   */\n      mstore\n        /* \"#utility.yul\":11250:11268   */\n      0x2063757272656e7420686f6c64696e6700000000000000000000000000000000\n        /* \"#utility.yul\":11245:11247   */\n      0x20\n        /* \"#utility.yul\":11237:11243   */\n      dup3\n        /* \"#utility.yul\":11233:11248   */\n      add\n        /* \"#utility.yul\":11226:11269   */\n      mstore\n        /* \"#utility.yul\":11041:11276   */\n      pop\n      jump\t// out\n        /* \"#utility.yul\":11282:11460   */\n    tag_175:\n        /* \"#utility.yul\":11422:11452   */\n      0x496e73756666696369656e74204163636f756e742042616c616e636500000000\n        /* \"#utility.yul\":11418:11419   */\n      0x00\n        /* \"#utility.yul\":11410:11416   */\n      dup3\n        /* \"#utility.yul\":11406:11420   */\n      add\n        /* \"#utility.yul\":11399:11453   */\n      mstore\n        /* \"#utility.yul\":11282:11460   */\n      pop\n      jump\t// out\n        /* \"#utility.yul\":11466:11634   */\n    tag_180:\n        /* \"#utility.yul\":11606:11626   */\n      0x496e737566696369656e742042616c6e63650000000000000000000000000000\n        /* \"#utility.yul\":11602:11603   */\n      0x00\n        /* \"#utility.yul\":11594:11600   */\n      dup3\n        /* \"#utility.yul\":11590:11604   */\n      add\n        /* \"#utility.yul\":11583:11627   */\n      mstore\n        /* \"#utility.yul\":11466:11634   */\n      pop\n      jump\t// out\n        /* \"#utility.yul\":11640:11762   */\n    tag_112:\n        /* \"#utility.yul\":11713:11737   */\n      tag_246\n        /* \"#utility.yul\":11731:11736   */\n      dup2\n        /* \"#utility.yul\":11713:11737   */\n      tag_141\n      jump\t// in\n    tag_246:\n        /* \"#utility.yul\":11706:11711   */\n      dup2\n        /* \"#utility.yul\":11703:11738   */\n      eq\n        /* \"#utility.yul\":11693:11756   */\n      tag_247\n      jumpi\n        /* \"#utility.yul\":11752:11753   */\n      0x00\n        /* \"#utility.yul\":11749:11750   */\n      dup1\n        /* \"#utility.yul\":11742:11754   */\n      revert\n        /* \"#utility.yul\":11693:11756   */\n    tag_247:\n        /* \"#utility.yul\":11640:11762   */\n      pop\n      jump\t// out\n        /* \"#utility.yul\":11768:11890   */\n    tag_116:\n        /* \"#utility.yul\":11841:11865   */\n      tag_249\n        /* \"#utility.yul\":11859:11864   */\n      dup2\n        /* \"#utility.yul\":11841:11865   */\n      tag_184\n      jump\t// in\n    tag_249:\n        /* \"#utility.yul\":11834:11839   */\n      dup2\n        /* \"#utility.yul\":11831:11866   */\n      eq\n        /* \"#utility.yul\":11821:11884   */\n      tag_250\n      jumpi\n        /* \"#utility.yul\":11880:11881   */\n      0x00\n        /* \"#utility.yul\":11877:11878   */\n      dup1\n        /* \"#utility.yul\":11870:11882   */\n      revert\n        /* \"#utility.yul\":11821:11884   */\n    tag_250:\n        /* \"#utility.yul\":11768:11890   */\n      pop\n      jump\t// out\n\n    auxdata: 0xa264697066735822122081bc22b972ba025408b403bd6e2bab3365dc5f8fd73b9001d259b8f2757766a264736f6c63430008070033\n}\n",
				"bytecode": {
					"linkReferences": {},
					"object": "60806040526040518060400160405280600681526020017f5a494c4c4158000000000000000000000000000000000000000000000000000081525060009080519060200190620000519291906200016c565b506040518060400160405280600381526020017f5a4c5a0000000000000000000000000000000000000000000000000000000000815250600190805190602001906200009f9291906200016c565b506000600255348015620000b257600080fd5b50620f424060048190555033600360006101000a81548173ffffffffffffffffffffffffffffffffffffffff021916908373ffffffffffffffffffffffffffffffffffffffff16021790555060045460056000600360009054906101000a900473ffffffffffffffffffffffffffffffffffffffff1673ffffffffffffffffffffffffffffffffffffffff1673ffffffffffffffffffffffffffffffffffffffff1681526020019081526020016000208190555062000281565b8280546200017a906200021c565b90600052602060002090601f0160209004810192826200019e5760008555620001ea565b82601f10620001b957805160ff1916838001178555620001ea565b82800160010185558215620001ea579182015b82811115620001e9578251825591602001919060010190620001cc565b5b509050620001f99190620001fd565b5090565b5b8082111562000218576000816000905550600101620001fe565b5090565b600060028204905060018216806200023557607f821691505b602082108114156200024c576200024b62000252565b5b50919050565b7f4e487b7100000000000000000000000000000000000000000000000000000000600052602260045260246000fd5b61118680620002916000396000f3fe608060405234801561001057600080fd5b50600436106100b45760003560e01c80634d853ee5116100715780634d853ee5146101a35780635c658165146101c157806370a08231146101f157806395d89b4114610221578063a9059cbb1461023f578063dd62ed3e1461026f576100b4565b806306fdde03146100b9578063095ea7b3146100d757806318160ddd1461010757806323b872dd1461012557806327e235e314610155578063313ce56714610185575b600080fd5b6100c161029f565b6040516100ce9190610d3f565b60405180910390f35b6100f160048036038101906100ec9190610bb4565b61032d565b6040516100fe9190610d24565b60405180910390f35b61010f6104e4565b60405161011c9190610e01565b60405180910390f35b61013f600480360381019061013a9190610b61565b6104ea565b60405161014c9190610d24565b60405180910390f35b61016f600480360381019061016a9190610af4565b610764565b60405161017c9190610e01565b60405180910390f35b61018d61077c565b60405161019a9190610e01565b60405180910390f35b6101ab610782565b6040516101b89190610d09565b60405180910390f35b6101db60048036038101906101d69190610b21565b6107a8565b6040516101e89190610e01565b60405180910390f35b61020b60048036038101906102069190610af4565b6107cd565b6040516102189190610e01565b60405180910390f35b610229610816565b6040516102369190610d3f565b60405180910390f35b61025960048036038101906102549190610bb4565b6108a4565b6040516102669190610d24565b60405180910390f35b61028960048036038101906102849190610b21565b610a43565b6040516102969190610e01565b60405180910390f35b600080546102ac90610f3d565b80601f01602080910402602001604051908101604052809291908181526020018280546102d890610f3d565b80156103255780601f106102fa57610100808354040283529160200191610325565b820191906000526020600020905b81548152906001019060200180831161030857829003601f168201915b505050505081565b600081600560003373ffffffffffffffffffffffffffffffffffffffff1673ffffffffffffffffffffffffffffffffffffffff1681526020019081526020016000205410156103b1576040517f08c379a00000000000000000000000000000000000000000000000000000000081526004016103a890610da1565b60405180910390fd5b600082116103f4576040517f08c379a00000000000000000000000000000000000000000000000000000000081526004016103eb90610d81565b60405180910390fd5b81600660003373ffffffffffffffffffffffffffffffffffffffff1673ffffffffffffffffffffffffffffffffffffffff16815260200190815260200160002060008573ffffffffffffffffffffffffffffffffffffffff1673ffffffffffffffffffffffffffffffffffffffff168152602001908152602001600020819055508273ffffffffffffffffffffffffffffffffffffffff163373ffffffffffffffffffffffffffffffffffffffff167f8c5be1e5ebec7d5bd14f71427d1e84f3dd0314c0f7b2291e5b200ac8c7c3b925846040516104d29190610e01565b60405180910390a36001905092915050565b60045481565b600081600660008673ffffffffffffffffffffffffffffffffffffffff1673ffffffffffffffffffffffffffffffffffffffff16815260200190815260200160002060003373ffffffffffffffffffffffffffffffffffffffff1673ffffffffffffffffffffffffffffffffffffffff1681526020019081526020016000205410156105ab576040517f08c379a00000000000000000000000000000000000000000000000000000000081526004016105a290610d61565b60405180910390fd5b81600560008673ffffffffffffffffffffffffffffffffffffffff1673ffffffffffffffffffffffffffffffffffffffff16815260200190815260200160002054101561062d576040517f08c379a000000000000000000000000000000000000000000000000000000000815260040161062490610de1565b60405180910390fd5b60008211610670576040517f08c379a000000000000000000000000000000000000000000000000000000000815260040161066790610d81565b60405180910390fd5b81600660008673ffffffffffffffffffffffffffffffffffffffff1673ffffffffffffffffffffffffffffffffffffffff16815260200190815260200160002060003373ffffffffffffffffffffffffffffffffffffffff1673ffffffffffffffffffffffffffffffffffffffff16815260200190815260200160002060008282546106fc9190610e8e565b9250508190555081600560008673ffffffffffffffffffffffffffffffffffffffff1673ffffffffffffffffffffffffffffffffffffffff16815260200190815260200160002060008282546107529190610e8e565b92505081905550600190509392505050565b60056020528060005260406000206000915090505481565b60025481565b600360009054906101000a900473ffffffffffffffffffffffffffffffffffffffff1681565b6006602052816000526040600020602052806000526040600020600091509150505481565b6000600560008373ffffffffffffffffffffffffffffffffffffffff1673ffffffffffffffffffffffffffffffffffffffff168152602001908152602001600020549050919050565b6001805461082390610f3d565b80601f016020809104026020016040519081016040528092919081815260200182805461084f90610f3d565b801561089c5780601f106108715761010080835404028352916020019161089c565b820191906000526020600020905b81548152906001019060200180831161087f57829003601f168201915b505050505081565b600081600560003373ffffffffffffffffffffffffffffffffffffffff1673ffffffffffffffffffffffffffffffffffffffff168152602001908152602001600020541015610928576040517f08c379a000000000000000000000000000000000000000000000000000000000815260040161091f90610dc1565b60405180910390fd5b81600560008573ffffffffffffffffffffffffffffffffffffffff1673ffffffffffffffffffffffffffffffffffffffff16815260200190815260200160002060008282546109779190610e38565b9250508190555081600560003373ffffffffffffffffffffffffffffffffffffffff1673ffffffffffffffffffffffffffffffffffffffff16815260200190815260200160002060008282546109cd9190610e8e565b925050819055508273ffffffffffffffffffffffffffffffffffffffff163373ffffffffffffffffffffffffffffffffffffffff167fddf252ad1be2c89b69c2b068fc378daa952ba7f163c4a11628f55a4df523b3ef84604051610a319190610e01565b60405180910390a36001905092915050565b6000600660008473ffffffffffffffffffffffffffffffffffffffff1673ffffffffffffffffffffffffffffffffffffffff16815260200190815260200160002060008373ffffffffffffffffffffffffffffffffffffffff1673ffffffffffffffffffffffffffffffffffffffff16815260200190815260200160002054905092915050565b600081359050610ad981611122565b92915050565b600081359050610aee81611139565b92915050565b600060208284031215610b0a57610b09610fcd565b5b6000610b1884828501610aca565b91505092915050565b60008060408385031215610b3857610b37610fcd565b5b6000610b4685828601610aca565b9250506020610b5785828601610aca565b9150509250929050565b600080600060608486031215610b7a57610b79610fcd565b5b6000610b8886828701610aca565b9350506020610b9986828701610aca565b9250506040610baa86828701610adf565b9150509250925092565b60008060408385031215610bcb57610bca610fcd565b5b6000610bd985828601610aca565b9250506020610bea85828601610adf565b9150509250929050565b610bfd81610ec2565b82525050565b610c0c81610ed4565b82525050565b6000610c1d82610e1c565b610c278185610e27565b9350610c37818560208601610f0a565b610c4081610fd2565b840191505092915050565b6000610c58603083610e27565b9150610c6382610fe3565b604082019050919050565b6000610c7b602283610e27565b9150610c8682611032565b604082019050919050565b6000610c9e603083610e27565b9150610ca982611081565b604082019050919050565b6000610cc1601c83610e27565b9150610ccc826110d0565b602082019050919050565b6000610ce4601283610e27565b9150610cef826110f9565b602082019050919050565b610d0381610f00565b82525050565b6000602082019050610d1e6000830184610bf4565b92915050565b6000602082019050610d396000830184610c03565b92915050565b60006020820190508181036000830152610d598184610c12565b905092915050565b60006020820190508181036000830152610d7a81610c4b565b9050919050565b60006020820190508181036000830152610d9a81610c6e565b9050919050565b60006020820190508181036000830152610dba81610c91565b9050919050565b60006020820190508181036000830152610dda81610cb4565b9050919050565b60006020820190508181036000830152610dfa81610cd7565b9050919050565b6000602082019050610e166000830184610cfa565b92915050565b600081519050919050565b600082825260208201905092915050565b6000610e4382610f00565b9150610e4e83610f00565b9250827fffffffffffffffffffffffffffffffffffffffffffffffffffffffffffffffff03821115610e8357610e82610f6f565b5b828201905092915050565b6000610e9982610f00565b9150610ea483610f00565b925082821015610eb757610eb6610f6f565b5b828203905092915050565b6000610ecd82610ee0565b9050919050565b60008115159050919050565b600073ffffffffffffffffffffffffffffffffffffffff82169050919050565b6000819050919050565b60005b83811015610f28578082015181840152602081019050610f0d565b83811115610f37576000848401525b50505050565b60006002820490506001821680610f5557607f821691505b60208210811415610f6957610f68610f9e565b5b50919050565b7f4e487b7100000000000000000000000000000000000000000000000000000000600052601160045260246000fd5b7f4e487b7100000000000000000000000000000000000000000000000000000000600052602260045260246000fd5b600080fd5b6000601f19601f8301169050919050565b7f546f6b656e2076616c75652069732067726561746572207468616e207468652060008201527f617070726f7665642062616c616e636500000000000000000000000000000000602082015250565b7f546f6b656e2076616c7565206d7573742062652067726561746572207468616e60008201527f2030000000000000000000000000000000000000000000000000000000000000602082015250565b7f546f6b656e2076616c75652069732067726561746572207468616e20796f757260008201527f2063757272656e7420686f6c64696e6700000000000000000000000000000000602082015250565b7f496e73756666696369656e74204163636f756e742042616c616e636500000000600082015250565b7f496e737566696369656e742042616c6e63650000000000000000000000000000600082015250565b61112b81610ec2565b811461113657600080fd5b50565b61114281610f00565b811461114d57600080fd5b5056fea264697066735822122081bc22b972ba025408b403bd6e2bab3365dc5f8fd73b9001d259b8f2757766a264736f6c63430008070033",
					"opcodes": "PUSH1 0x80 PUSH1 0x40 MSTORE PUSH1 0x40 MLOAD DUP1 PUSH1 0x40 ADD PUSH1 0x40 MSTORE DUP1 PUSH1 0x6 DUP2 MSTORE PUSH1 0x20 ADD PUSH32 0x5A494C4C41580000000000000000000000000000000000000000000000000000 DUP2 MSTORE POP PUSH1 0x0 SWAP1 DUP1 MLOAD SWAP1 PUSH1 0x20 ADD SWAP1 PUSH3 0x51 SWAP3 SWAP2 SWAP1 PUSH3 0x16C JUMP JUMPDEST POP PUSH1 0x40 MLOAD DUP1 PUSH1 0x40 ADD PUSH1 0x40 MSTORE DUP1 PUSH1 0x3 DUP2 MSTORE PUSH1 0x20 ADD PUSH32 0x5A4C5A0000000000000000000000000000000000000000000000000000000000 DUP2 MSTORE POP PUSH1 0x1 SWAP1 DUP1 MLOAD SWAP1 PUSH1 0x20 ADD SWAP1 PUSH3 0x9F SWAP3 SWAP2 SWAP1 PUSH3 0x16C JUMP JUMPDEST POP PUSH1 0x0 PUSH1 0x2 SSTORE CALLVALUE DUP1 ISZERO PUSH3 0xB2 JUMPI PUSH1 0x0 DUP1 REVERT JUMPDEST POP PUSH3 0xF4240 PUSH1 0x4 DUP2 SWAP1 SSTORE POP CALLER PUSH1 0x3 PUSH1 0x0 PUSH2 0x100 EXP DUP2 SLOAD DUP2 PUSH20 0xFFFFFFFFFFFFFFFFFFFFFFFFFFFFFFFFFFFFFFFF MUL NOT AND SWAP1 DUP4 PUSH20 0xFFFFFFFFFFFFFFFFFFFFFFFFFFFFFFFFFFFFFFFF AND MUL OR SWAP1 SSTORE POP PUSH1 0x4 SLOAD PUSH1 0x5 PUSH1 0x0 PUSH1 0x3 PUSH1 0x0 SWAP1 SLOAD SWAP1 PUSH2 0x100 EXP SWAP1 DIV PUSH20 0xFFFFFFFFFFFFFFFFFFFFFFFFFFFFFFFFFFFFFFFF AND PUSH20 0xFFFFFFFFFFFFFFFFFFFFFFFFFFFFFFFFFFFFFFFF AND PUSH20 0xFFFFFFFFFFFFFFFFFFFFFFFFFFFFFFFFFFFFFFFF AND DUP2 MSTORE PUSH1 0x20 ADD SWAP1 DUP2 MSTORE PUSH1 0x20 ADD PUSH1 0x0 KECCAK256 DUP2 SWAP1 SSTORE POP PUSH3 0x281 JUMP JUMPDEST DUP3 DUP1 SLOAD PUSH3 0x17A SWAP1 PUSH3 0x21C JUMP JUMPDEST SWAP1 PUSH1 0x0 MSTORE PUSH1 0x20 PUSH1 0x0 KECCAK256 SWAP1 PUSH1 0x1F ADD PUSH1 0x20 SWAP1 DIV DUP2 ADD SWAP3 DUP3 PUSH3 0x19E JUMPI PUSH1 0x0 DUP6 SSTORE PUSH3 0x1EA JUMP JUMPDEST DUP3 PUSH1 0x1F LT PUSH3 0x1B9 JUMPI DUP1 MLOAD PUSH1 0xFF NOT AND DUP4 DUP1 ADD OR DUP6 SSTORE PUSH3 0x1EA JUMP JUMPDEST DUP3 DUP1 ADD PUSH1 0x1 ADD DUP6 SSTORE DUP3 ISZERO PUSH3 0x1EA JUMPI SWAP2 DUP3 ADD JUMPDEST DUP3 DUP2 GT ISZERO PUSH3 0x1E9 JUMPI DUP3 MLOAD DUP3 SSTORE SWAP2 PUSH1 0x20 ADD SWAP2 SWAP1 PUSH1 0x1 ADD SWAP1 PUSH3 0x1CC JUMP JUMPDEST JUMPDEST POP SWAP1 POP PUSH3 0x1F9 SWAP2 SWAP1 PUSH3 0x1FD JUMP JUMPDEST POP SWAP1 JUMP JUMPDEST JUMPDEST DUP1 DUP3 GT ISZERO PUSH3 0x218 JUMPI PUSH1 0x0 DUP2 PUSH1 0x0 SWAP1 SSTORE POP PUSH1 0x1 ADD PUSH3 0x1FE JUMP JUMPDEST POP SWAP1 JUMP JUMPDEST PUSH1 0x0 PUSH1 0x2 DUP3 DIV SWAP1 POP PUSH1 0x1 DUP3 AND DUP1 PUSH3 0x235 JUMPI PUSH1 0x7F DUP3 AND SWAP2 POP JUMPDEST PUSH1 0x20 DUP3 LT DUP2 EQ ISZERO PUSH3 0x24C JUMPI PUSH3 0x24B PUSH3 0x252 JUMP JUMPDEST JUMPDEST POP SWAP2 SWAP1 POP JUMP JUMPDEST PUSH32 0x4E487B7100000000000000000000000000000000000000000000000000000000 PUSH1 0x0 MSTORE PUSH1 0x22 PUSH1 0x4 MSTORE PUSH1 0x24 PUSH1 0x0 REVERT JUMPDEST PUSH2 0x1186 DUP1 PUSH3 0x291 PUSH1 0x0 CODECOPY PUSH1 0x0 RETURN INVALID PUSH1 0x80 PUSH1 0x40 MSTORE CALLVALUE DUP1 ISZERO PUSH2 0x10 JUMPI PUSH1 0x0 DUP1 REVERT JUMPDEST POP PUSH1 0x4 CALLDATASIZE LT PUSH2 0xB4 JUMPI PUSH1 0x0 CALLDATALOAD PUSH1 0xE0 SHR DUP1 PUSH4 0x4D853EE5 GT PUSH2 0x71 JUMPI DUP1 PUSH4 0x4D853EE5 EQ PUSH2 0x1A3 JUMPI DUP1 PUSH4 0x5C658165 EQ PUSH2 0x1C1 JUMPI DUP1 PUSH4 0x70A08231 EQ PUSH2 0x1F1 JUMPI DUP1 PUSH4 0x95D89B41 EQ PUSH2 0x221 JUMPI DUP1 PUSH4 0xA9059CBB EQ PUSH2 0x23F JUMPI DUP1 PUSH4 0xDD62ED3E EQ PUSH2 0x26F JUMPI PUSH2 0xB4 JUMP JUMPDEST DUP1 PUSH4 0x6FDDE03 EQ PUSH2 0xB9 JUMPI DUP1 PUSH4 0x95EA7B3 EQ PUSH2 0xD7 JUMPI DUP1 PUSH4 0x18160DDD EQ PUSH2 0x107 JUMPI DUP1 PUSH4 0x23B872DD EQ PUSH2 0x125 JUMPI DUP1 PUSH4 0x27E235E3 EQ PUSH2 0x155 JUMPI DUP1 PUSH4 0x313CE567 EQ PUSH2 0x185 JUMPI JUMPDEST PUSH1 0x0 DUP1 REVERT JUMPDEST PUSH2 0xC1 PUSH2 0x29F JUMP JUMPDEST PUSH1 0x40 MLOAD PUSH2 0xCE SWAP2 SWAP1 PUSH2 0xD3F JUMP JUMPDEST PUSH1 0x40 MLOAD DUP1 SWAP2 SUB SWAP1 RETURN JUMPDEST PUSH2 0xF1 PUSH1 0x4 DUP1 CALLDATASIZE SUB DUP2 ADD SWAP1 PUSH2 0xEC SWAP2 SWAP1 PUSH2 0xBB4 JUMP JUMPDEST PUSH2 0x32D JUMP JUMPDEST PUSH1 0x40 MLOAD PUSH2 0xFE SWAP2 SWAP1 PUSH2 0xD24 JUMP JUMPDEST PUSH1 0x40 MLOAD DUP1 SWAP2 SUB SWAP1 RETURN JUMPDEST PUSH2 0x10F PUSH2 0x4E4 JUMP JUMPDEST PUSH1 0x40 MLOAD PUSH2 0x11C SWAP2 SWAP1 PUSH2 0xE01 JUMP JUMPDEST PUSH1 0x40 MLOAD DUP1 SWAP2 SUB SWAP1 RETURN JUMPDEST PUSH2 0x13F PUSH1 0x4 DUP1 CALLDATASIZE SUB DUP2 ADD SWAP1 PUSH2 0x13A SWAP2 SWAP1 PUSH2 0xB61 JUMP JUMPDEST PUSH2 0x4EA JUMP JUMPDEST PUSH1 0x40 MLOAD PUSH2 0x14C SWAP2 SWAP1 PUSH2 0xD24 JUMP JUMPDEST PUSH1 0x40 MLOAD DUP1 SWAP2 SUB SWAP1 RETURN JUMPDEST PUSH2 0x16F PUSH1 0x4 DUP1 CALLDATASIZE SUB DUP2 ADD SWAP1 PUSH2 0x16A SWAP2 SWAP1 PUSH2 0xAF4 JUMP JUMPDEST PUSH2 0x764 JUMP JUMPDEST PUSH1 0x40 MLOAD PUSH2 0x17C SWAP2 SWAP1 PUSH2 0xE01 JUMP JUMPDEST PUSH1 0x40 MLOAD DUP1 SWAP2 SUB SWAP1 RETURN JUMPDEST PUSH2 0x18D PUSH2 0x77C JUMP JUMPDEST PUSH1 0x40 MLOAD PUSH2 0x19A SWAP2 SWAP1 PUSH2 0xE01 JUMP JUMPDEST PUSH1 0x40 MLOAD DUP1 SWAP2 SUB SWAP1 RETURN JUMPDEST PUSH2 0x1AB PUSH2 0x782 JUMP JUMPDEST PUSH1 0x40 MLOAD PUSH2 0x1B8 SWAP2 SWAP1 PUSH2 0xD09 JUMP JUMPDEST PUSH1 0x40 MLOAD DUP1 SWAP2 SUB SWAP1 RETURN JUMPDEST PUSH2 0x1DB PUSH1 0x4 DUP1 CALLDATASIZE SUB DUP2 ADD SWAP1 PUSH2 0x1D6 SWAP2 SWAP1 PUSH2 0xB21 JUMP JUMPDEST PUSH2 0x7A8 JUMP JUMPDEST PUSH1 0x40 MLOAD PUSH2 0x1E8 SWAP2 SWAP1 PUSH2 0xE01 JUMP JUMPDEST PUSH1 0x40 MLOAD DUP1 SWAP2 SUB SWAP1 RETURN JUMPDEST PUSH2 0x20B PUSH1 0x4 DUP1 CALLDATASIZE SUB DUP2 ADD SWAP1 PUSH2 0x206 SWAP2 SWAP1 PUSH2 0xAF4 JUMP JUMPDEST PUSH2 0x7CD JUMP JUMPDEST PUSH1 0x40 MLOAD PUSH2 0x218 SWAP2 SWAP1 PUSH2 0xE01 JUMP JUMPDEST PUSH1 0x40 MLOAD DUP1 SWAP2 SUB SWAP1 RETURN JUMPDEST PUSH2 0x229 PUSH2 0x816 JUMP JUMPDEST PUSH1 0x40 MLOAD PUSH2 0x236 SWAP2 SWAP1 PUSH2 0xD3F JUMP JUMPDEST PUSH1 0x40 MLOAD DUP1 SWAP2 SUB SWAP1 RETURN JUMPDEST PUSH2 0x259 PUSH1 0x4 DUP1 CALLDATASIZE SUB DUP2 ADD SWAP1 PUSH2 0x254 SWAP2 SWAP1 PUSH2 0xBB4 JUMP JUMPDEST PUSH2 0x8A4 JUMP JUMPDEST PUSH1 0x40 MLOAD PUSH2 0x266 SWAP2 SWAP1 PUSH2 0xD24 JUMP JUMPDEST PUSH1 0x40 MLOAD DUP1 SWAP2 SUB SWAP1 RETURN JUMPDEST PUSH2 0x289 PUSH1 0x4 DUP1 CALLDATASIZE SUB DUP2 ADD SWAP1 PUSH2 0x284 SWAP2 SWAP1 PUSH2 0xB21 JUMP JUMPDEST PUSH2 0xA43 JUMP JUMPDEST PUSH1 0x40 MLOAD PUSH2 0x296 SWAP2 SWAP1 PUSH2 0xE01 JUMP JUMPDEST PUSH1 0x40 MLOAD DUP1 SWAP2 SUB SWAP1 RETURN JUMPDEST PUSH1 0x0 DUP1 SLOAD PUSH2 0x2AC SWAP1 PUSH2 0xF3D JUMP JUMPDEST DUP1 PUSH1 0x1F ADD PUSH1 0x20 DUP1 SWAP2 DIV MUL PUSH1 0x20 ADD PUSH1 0x40 MLOAD SWAP1 DUP2 ADD PUSH1 0x40 MSTORE DUP1 SWAP3 SWAP2 SWAP1 DUP2 DUP2 MSTORE PUSH1 0x20 ADD DUP3 DUP1 SLOAD PUSH2 0x2D8 SWAP1 PUSH2 0xF3D JUMP JUMPDEST DUP1 ISZERO PUSH2 0x325 JUMPI DUP1 PUSH1 0x1F LT PUSH2 0x2FA JUMPI PUSH2 0x100 DUP1 DUP4 SLOAD DIV MUL DUP4 MSTORE SWAP2 PUSH1 0x20 ADD SWAP2 PUSH2 0x325 JUMP JUMPDEST DUP3 ADD SWAP2 SWAP1 PUSH1 0x0 MSTORE PUSH1 0x20 PUSH1 0x0 KECCAK256 SWAP1 JUMPDEST DUP2 SLOAD DUP2 MSTORE SWAP1 PUSH1 0x1 ADD SWAP1 PUSH1 0x20 ADD DUP1 DUP4 GT PUSH2 0x308 JUMPI DUP3 SWAP1 SUB PUSH1 0x1F AND DUP3 ADD SWAP2 JUMPDEST POP POP POP POP POP DUP2 JUMP JUMPDEST PUSH1 0x0 DUP2 PUSH1 0x5 PUSH1 0x0 CALLER PUSH20 0xFFFFFFFFFFFFFFFFFFFFFFFFFFFFFFFFFFFFFFFF AND PUSH20 0xFFFFFFFFFFFFFFFFFFFFFFFFFFFFFFFFFFFFFFFF AND DUP2 MSTORE PUSH1 0x20 ADD SWAP1 DUP2 MSTORE PUSH1 0x20 ADD PUSH1 0x0 KECCAK256 SLOAD LT ISZERO PUSH2 0x3B1 JUMPI PUSH1 0x40 MLOAD PUSH32 0x8C379A000000000000000000000000000000000000000000000000000000000 DUP2 MSTORE PUSH1 0x4 ADD PUSH2 0x3A8 SWAP1 PUSH2 0xDA1 JUMP JUMPDEST PUSH1 0x40 MLOAD DUP1 SWAP2 SUB SWAP1 REVERT JUMPDEST PUSH1 0x0 DUP3 GT PUSH2 0x3F4 JUMPI PUSH1 0x40 MLOAD PUSH32 0x8C379A000000000000000000000000000000000000000000000000000000000 DUP2 MSTORE PUSH1 0x4 ADD PUSH2 0x3EB SWAP1 PUSH2 0xD81 JUMP JUMPDEST PUSH1 0x40 MLOAD DUP1 SWAP2 SUB SWAP1 REVERT JUMPDEST DUP2 PUSH1 0x6 PUSH1 0x0 CALLER PUSH20 0xFFFFFFFFFFFFFFFFFFFFFFFFFFFFFFFFFFFFFFFF AND PUSH20 0xFFFFFFFFFFFFFFFFFFFFFFFFFFFFFFFFFFFFFFFF AND DUP2 MSTORE PUSH1 0x20 ADD SWAP1 DUP2 MSTORE PUSH1 0x20 ADD PUSH1 0x0 KECCAK256 PUSH1 0x0 DUP6 PUSH20 0xFFFFFFFFFFFFFFFFFFFFFFFFFFFFFFFFFFFFFFFF AND PUSH20 0xFFFFFFFFFFFFFFFFFFFFFFFFFFFFFFFFFFFFFFFF AND DUP2 MSTORE PUSH1 0x20 ADD SWAP1 DUP2 MSTORE PUSH1 0x20 ADD PUSH1 0x0 KECCAK256 DUP2 SWAP1 SSTORE POP DUP3 PUSH20 0xFFFFFFFFFFFFFFFFFFFFFFFFFFFFFFFFFFFFFFFF AND CALLER PUSH20 0xFFFFFFFFFFFFFFFFFFFFFFFFFFFFFFFFFFFFFFFF AND PUSH32 0x8C5BE1E5EBEC7D5BD14F71427D1E84F3DD0314C0F7B2291E5B200AC8C7C3B925 DUP5 PUSH1 0x40 MLOAD PUSH2 0x4D2 SWAP2 SWAP1 PUSH2 0xE01 JUMP JUMPDEST PUSH1 0x40 MLOAD DUP1 SWAP2 SUB SWAP1 LOG3 PUSH1 0x1 SWAP1 POP SWAP3 SWAP2 POP POP JUMP JUMPDEST PUSH1 0x4 SLOAD DUP2 JUMP JUMPDEST PUSH1 0x0 DUP2 PUSH1 0x6 PUSH1 0x0 DUP7 PUSH20 0xFFFFFFFFFFFFFFFFFFFFFFFFFFFFFFFFFFFFFFFF AND PUSH20 0xFFFFFFFFFFFFFFFFFFFFFFFFFFFFFFFFFFFFFFFF AND DUP2 MSTORE PUSH1 0x20 ADD SWAP1 DUP2 MSTORE PUSH1 0x20 ADD PUSH1 0x0 KECCAK256 PUSH1 0x0 CALLER PUSH20 0xFFFFFFFFFFFFFFFFFFFFFFFFFFFFFFFFFFFFFFFF AND PUSH20 0xFFFFFFFFFFFFFFFFFFFFFFFFFFFFFFFFFFFFFFFF AND DUP2 MSTORE PUSH1 0x20 ADD SWAP1 DUP2 MSTORE PUSH1 0x20 ADD PUSH1 0x0 KECCAK256 SLOAD LT ISZERO PUSH2 0x5AB JUMPI PUSH1 0x40 MLOAD PUSH32 0x8C379A000000000000000000000000000000000000000000000000000000000 DUP2 MSTORE PUSH1 0x4 ADD PUSH2 0x5A2 SWAP1 PUSH2 0xD61 JUMP JUMPDEST PUSH1 0x40 MLOAD DUP1 SWAP2 SUB SWAP1 REVERT JUMPDEST DUP2 PUSH1 0x5 PUSH1 0x0 DUP7 PUSH20 0xFFFFFFFFFFFFFFFFFFFFFFFFFFFFFFFFFFFFFFFF AND PUSH20 0xFFFFFFFFFFFFFFFFFFFFFFFFFFFFFFFFFFFFFFFF AND DUP2 MSTORE PUSH1 0x20 ADD SWAP1 DUP2 MSTORE PUSH1 0x20 ADD PUSH1 0x0 KECCAK256 SLOAD LT ISZERO PUSH2 0x62D JUMPI PUSH1 0x40 MLOAD PUSH32 0x8C379A000000000000000000000000000000000000000000000000000000000 DUP2 MSTORE PUSH1 0x4 ADD PUSH2 0x624 SWAP1 PUSH2 0xDE1 JUMP JUMPDEST PUSH1 0x40 MLOAD DUP1 SWAP2 SUB SWAP1 REVERT JUMPDEST PUSH1 0x0 DUP3 GT PUSH2 0x670 JUMPI PUSH1 0x40 MLOAD PUSH32 0x8C379A000000000000000000000000000000000000000000000000000000000 DUP2 MSTORE PUSH1 0x4 ADD PUSH2 0x667 SWAP1 PUSH2 0xD81 JUMP JUMPDEST PUSH1 0x40 MLOAD DUP1 SWAP2 SUB SWAP1 REVERT JUMPDEST DUP2 PUSH1 0x6 PUSH1 0x0 DUP7 PUSH20 0xFFFFFFFFFFFFFFFFFFFFFFFFFFFFFFFFFFFFFFFF AND PUSH20 0xFFFFFFFFFFFFFFFFFFFFFFFFFFFFFFFFFFFFFFFF AND DUP2 MSTORE PUSH1 0x20 ADD SWAP1 DUP2 MSTORE PUSH1 0x20 ADD PUSH1 0x0 KECCAK256 PUSH1 0x0 CALLER PUSH20 0xFFFFFFFFFFFFFFFFFFFFFFFFFFFFFFFFFFFFFFFF AND PUSH20 0xFFFFFFFFFFFFFFFFFFFFFFFFFFFFFFFFFFFFFFFF AND DUP2 MSTORE PUSH1 0x20 ADD SWAP1 DUP2 MSTORE PUSH1 0x20 ADD PUSH1 0x0 KECCAK256 PUSH1 0x0 DUP3 DUP3 SLOAD PUSH2 0x6FC SWAP2 SWAP1 PUSH2 0xE8E JUMP JUMPDEST SWAP3 POP POP DUP2 SWAP1 SSTORE POP DUP2 PUSH1 0x5 PUSH1 0x0 DUP7 PUSH20 0xFFFFFFFFFFFFFFFFFFFFFFFFFFFFFFFFFFFFFFFF AND PUSH20 0xFFFFFFFFFFFFFFFFFFFFFFFFFFFFFFFFFFFFFFFF AND DUP2 MSTORE PUSH1 0x20 ADD SWAP1 DUP2 MSTORE PUSH1 0x20 ADD PUSH1 0x0 KECCAK256 PUSH1 0x0 DUP3 DUP3 SLOAD PUSH2 0x752 SWAP2 SWAP1 PUSH2 0xE8E JUMP JUMPDEST SWAP3 POP POP DUP2 SWAP1 SSTORE POP PUSH1 0x1 SWAP1 POP SWAP4 SWAP3 POP POP POP JUMP JUMPDEST PUSH1 0x5 PUSH1 0x20 MSTORE DUP1 PUSH1 0x0 MSTORE PUSH1 0x40 PUSH1 0x0 KECCAK256 PUSH1 0x0 SWAP2 POP SWAP1 POP SLOAD DUP2 JUMP JUMPDEST PUSH1 0x2 SLOAD DUP2 JUMP JUMPDEST PUSH1 0x3 PUSH1 0x0 SWAP1 SLOAD SWAP1 PUSH2 0x100 EXP SWAP1 DIV PUSH20 0xFFFFFFFFFFFFFFFFFFFFFFFFFFFFFFFFFFFFFFFF AND DUP2 JUMP JUMPDEST PUSH1 0x6 PUSH1 0x20 MSTORE DUP2 PUSH1 0x0 MSTORE PUSH1 0x40 PUSH1 0x0 KECCAK256 PUSH1 0x20 MSTORE DUP1 PUSH1 0x0 MSTORE PUSH1 0x40 PUSH1 0x0 KECCAK256 PUSH1 0x0 SWAP2 POP SWAP2 POP POP SLOAD DUP2 JUMP JUMPDEST PUSH1 0x0 PUSH1 0x5 PUSH1 0x0 DUP4 PUSH20 0xFFFFFFFFFFFFFFFFFFFFFFFFFFFFFFFFFFFFFFFF AND PUSH20 0xFFFFFFFFFFFFFFFFFFFFFFFFFFFFFFFFFFFFFFFF AND DUP2 MSTORE PUSH1 0x20 ADD SWAP1 DUP2 MSTORE PUSH1 0x20 ADD PUSH1 0x0 KECCAK256 SLOAD SWAP1 POP SWAP2 SWAP1 POP JUMP JUMPDEST PUSH1 0x1 DUP1 SLOAD PUSH2 0x823 SWAP1 PUSH2 0xF3D JUMP JUMPDEST DUP1 PUSH1 0x1F ADD PUSH1 0x20 DUP1 SWAP2 DIV MUL PUSH1 0x20 ADD PUSH1 0x40 MLOAD SWAP1 DUP2 ADD PUSH1 0x40 MSTORE DUP1 SWAP3 SWAP2 SWAP1 DUP2 DUP2 MSTORE PUSH1 0x20 ADD DUP3 DUP1 SLOAD PUSH2 0x84F SWAP1 PUSH2 0xF3D JUMP JUMPDEST DUP1 ISZERO PUSH2 0x89C JUMPI DUP1 PUSH1 0x1F LT PUSH2 0x871 JUMPI PUSH2 0x100 DUP1 DUP4 SLOAD DIV MUL DUP4 MSTORE SWAP2 PUSH1 0x20 ADD SWAP2 PUSH2 0x89C JUMP JUMPDEST DUP3 ADD SWAP2 SWAP1 PUSH1 0x0 MSTORE PUSH1 0x20 PUSH1 0x0 KECCAK256 SWAP1 JUMPDEST DUP2 SLOAD DUP2 MSTORE SWAP1 PUSH1 0x1 ADD SWAP1 PUSH1 0x20 ADD DUP1 DUP4 GT PUSH2 0x87F JUMPI DUP3 SWAP1 SUB PUSH1 0x1F AND DUP3 ADD SWAP2 JUMPDEST POP POP POP POP POP DUP2 JUMP JUMPDEST PUSH1 0x0 DUP2 PUSH1 0x5 PUSH1 0x0 CALLER PUSH20 0xFFFFFFFFFFFFFFFFFFFFFFFFFFFFFFFFFFFFFFFF AND PUSH20 0xFFFFFFFFFFFFFFFFFFFFFFFFFFFFFFFFFFFFFFFF AND DUP2 MSTORE PUSH1 0x20 ADD SWAP1 DUP2 MSTORE PUSH1 0x20 ADD PUSH1 0x0 KECCAK256 SLOAD LT ISZERO PUSH2 0x928 JUMPI PUSH1 0x40 MLOAD PUSH32 0x8C379A000000000000000000000000000000000000000000000000000000000 DUP2 MSTORE PUSH1 0x4 ADD PUSH2 0x91F SWAP1 PUSH2 0xDC1 JUMP JUMPDEST PUSH1 0x40 MLOAD DUP1 SWAP2 SUB SWAP1 REVERT JUMPDEST DUP2 PUSH1 0x5 PUSH1 0x0 DUP6 PUSH20 0xFFFFFFFFFFFFFFFFFFFFFFFFFFFFFFFFFFFFFFFF AND PUSH20 0xFFFFFFFFFFFFFFFFFFFFFFFFFFFFFFFFFFFFFFFF AND DUP2 MSTORE PUSH1 0x20 ADD SWAP1 DUP2 MSTORE PUSH1 0x20 ADD PUSH1 0x0 KECCAK256 PUSH1 0x0 DUP3 DUP3 SLOAD PUSH2 0x977 SWAP2 SWAP1 PUSH2 0xE38 JUMP JUMPDEST SWAP3 POP POP DUP2 SWAP1 SSTORE POP DUP2 PUSH1 0x5 PUSH1 0x0 CALLER PUSH20 0xFFFFFFFFFFFFFFFFFFFFFFFFFFFFFFFFFFFFFFFF AND PUSH20 0xFFFFFFFFFFFFFFFFFFFFFFFFFFFFFFFFFFFFFFFF AND DUP2 MSTORE PUSH1 0x20 ADD SWAP1 DUP2 MSTORE PUSH1 0x20 ADD PUSH1 0x0 KECCAK256 PUSH1 0x0 DUP3 DUP3 SLOAD PUSH2 0x9CD SWAP2 SWAP1 PUSH2 0xE8E JUMP JUMPDEST SWAP3 POP POP DUP2 SWAP1 SSTORE POP DUP3 PUSH20 0xFFFFFFFFFFFFFFFFFFFFFFFFFFFFFFFFFFFFFFFF AND CALLER PUSH20 0xFFFFFFFFFFFFFFFFFFFFFFFFFFFFFFFFFFFFFFFF AND PUSH32 0xDDF252AD1BE2C89B69C2B068FC378DAA952BA7F163C4A11628F55A4DF523B3EF DUP5 PUSH1 0x40 MLOAD PUSH2 0xA31 SWAP2 SWAP1 PUSH2 0xE01 JUMP JUMPDEST PUSH1 0x40 MLOAD DUP1 SWAP2 SUB SWAP1 LOG3 PUSH1 0x1 SWAP1 POP SWAP3 SWAP2 POP POP JUMP JUMPDEST PUSH1 0x0 PUSH1 0x6 PUSH1 0x0 DUP5 PUSH20 0xFFFFFFFFFFFFFFFFFFFFFFFFFFFFFFFFFFFFFFFF AND PUSH20 0xFFFFFFFFFFFFFFFFFFFFFFFFFFFFFFFFFFFFFFFF AND DUP2 MSTORE PUSH1 0x20 ADD SWAP1 DUP2 MSTORE PUSH1 0x20 ADD PUSH1 0x0 KECCAK256 PUSH1 0x0 DUP4 PUSH20 0xFFFFFFFFFFFFFFFFFFFFFFFFFFFFFFFFFFFFFFFF AND PUSH20 0xFFFFFFFFFFFFFFFFFFFFFFFFFFFFFFFFFFFFFFFF AND DUP2 MSTORE PUSH1 0x20 ADD SWAP1 DUP2 MSTORE PUSH1 0x20 ADD PUSH1 0x0 KECCAK256 SLOAD SWAP1 POP SWAP3 SWAP2 POP POP JUMP JUMPDEST PUSH1 0x0 DUP2 CALLDATALOAD SWAP1 POP PUSH2 0xAD9 DUP2 PUSH2 0x1122 JUMP JUMPDEST SWAP3 SWAP2 POP POP JUMP JUMPDEST PUSH1 0x0 DUP2 CALLDATALOAD SWAP1 POP PUSH2 0xAEE DUP2 PUSH2 0x1139 JUMP JUMPDEST SWAP3 SWAP2 POP POP JUMP JUMPDEST PUSH1 0x0 PUSH1 0x20 DUP3 DUP5 SUB SLT ISZERO PUSH2 0xB0A JUMPI PUSH2 0xB09 PUSH2 0xFCD JUMP JUMPDEST JUMPDEST PUSH1 0x0 PUSH2 0xB18 DUP5 DUP3 DUP6 ADD PUSH2 0xACA JUMP JUMPDEST SWAP2 POP POP SWAP3 SWAP2 POP POP JUMP JUMPDEST PUSH1 0x0 DUP1 PUSH1 0x40 DUP4 DUP6 SUB SLT ISZERO PUSH2 0xB38 JUMPI PUSH2 0xB37 PUSH2 0xFCD JUMP JUMPDEST JUMPDEST PUSH1 0x0 PUSH2 0xB46 DUP6 DUP3 DUP7 ADD PUSH2 0xACA JUMP JUMPDEST SWAP3 POP POP PUSH1 0x20 PUSH2 0xB57 DUP6 DUP3 DUP7 ADD PUSH2 0xACA JUMP JUMPDEST SWAP2 POP POP SWAP3 POP SWAP3 SWAP1 POP JUMP JUMPDEST PUSH1 0x0 DUP1 PUSH1 0x0 PUSH1 0x60 DUP5 DUP7 SUB SLT ISZERO PUSH2 0xB7A JUMPI PUSH2 0xB79 PUSH2 0xFCD JUMP JUMPDEST JUMPDEST PUSH1 0x0 PUSH2 0xB88 DUP7 DUP3 DUP8 ADD PUSH2 0xACA JUMP JUMPDEST SWAP4 POP POP PUSH1 0x20 PUSH2 0xB99 DUP7 DUP3 DUP8 ADD PUSH2 0xACA JUMP JUMPDEST SWAP3 POP POP PUSH1 0x40 PUSH2 0xBAA DUP7 DUP3 DUP8 ADD PUSH2 0xADF JUMP JUMPDEST SWAP2 POP POP SWAP3 POP SWAP3 POP SWAP3 JUMP JUMPDEST PUSH1 0x0 DUP1 PUSH1 0x40 DUP4 DUP6 SUB SLT ISZERO PUSH2 0xBCB JUMPI PUSH2 0xBCA PUSH2 0xFCD JUMP JUMPDEST JUMPDEST PUSH1 0x0 PUSH2 0xBD9 DUP6 DUP3 DUP7 ADD PUSH2 0xACA JUMP JUMPDEST SWAP3 POP POP PUSH1 0x20 PUSH2 0xBEA DUP6 DUP3 DUP7 ADD PUSH2 0xADF JUMP JUMPDEST SWAP2 POP POP SWAP3 POP SWAP3 SWAP1 POP JUMP JUMPDEST PUSH2 0xBFD DUP2 PUSH2 0xEC2 JUMP JUMPDEST DUP3 MSTORE POP POP JUMP JUMPDEST PUSH2 0xC0C DUP2 PUSH2 0xED4 JUMP JUMPDEST DUP3 MSTORE POP POP JUMP JUMPDEST PUSH1 0x0 PUSH2 0xC1D DUP3 PUSH2 0xE1C JUMP JUMPDEST PUSH2 0xC27 DUP2 DUP6 PUSH2 0xE27 JUMP JUMPDEST SWAP4 POP PUSH2 0xC37 DUP2 DUP6 PUSH1 0x20 DUP7 ADD PUSH2 0xF0A JUMP JUMPDEST PUSH2 0xC40 DUP2 PUSH2 0xFD2 JUMP JUMPDEST DUP5 ADD SWAP2 POP POP SWAP3 SWAP2 POP POP JUMP JUMPDEST PUSH1 0x0 PUSH2 0xC58 PUSH1 0x30 DUP4 PUSH2 0xE27 JUMP JUMPDEST SWAP2 POP PUSH2 0xC63 DUP3 PUSH2 0xFE3 JUMP JUMPDEST PUSH1 0x40 DUP3 ADD SWAP1 POP SWAP2 SWAP1 POP JUMP JUMPDEST PUSH1 0x0 PUSH2 0xC7B PUSH1 0x22 DUP4 PUSH2 0xE27 JUMP JUMPDEST SWAP2 POP PUSH2 0xC86 DUP3 PUSH2 0x1032 JUMP JUMPDEST PUSH1 0x40 DUP3 ADD SWAP1 POP SWAP2 SWAP1 POP JUMP JUMPDEST PUSH1 0x0 PUSH2 0xC9E PUSH1 0x30 DUP4 PUSH2 0xE27 JUMP JUMPDEST SWAP2 POP PUSH2 0xCA9 DUP3 PUSH2 0x1081 JUMP JUMPDEST PUSH1 0x40 DUP3 ADD SWAP1 POP SWAP2 SWAP1 POP JUMP JUMPDEST PUSH1 0x0 PUSH2 0xCC1 PUSH1 0x1C DUP4 PUSH2 0xE27 JUMP JUMPDEST SWAP2 POP PUSH2 0xCCC DUP3 PUSH2 0x10D0 JUMP JUMPDEST PUSH1 0x20 DUP3 ADD SWAP1 POP SWAP2 SWAP1 POP JUMP JUMPDEST PUSH1 0x0 PUSH2 0xCE4 PUSH1 0x12 DUP4 PUSH2 0xE27 JUMP JUMPDEST SWAP2 POP PUSH2 0xCEF DUP3 PUSH2 0x10F9 JUMP JUMPDEST PUSH1 0x20 DUP3 ADD SWAP1 POP SWAP2 SWAP1 POP JUMP JUMPDEST PUSH2 0xD03 DUP2 PUSH2 0xF00 JUMP JUMPDEST DUP3 MSTORE POP POP JUMP JUMPDEST PUSH1 0x0 PUSH1 0x20 DUP3 ADD SWAP1 POP PUSH2 0xD1E PUSH1 0x0 DUP4 ADD DUP5 PUSH2 0xBF4 JUMP JUMPDEST SWAP3 SWAP2 POP POP JUMP JUMPDEST PUSH1 0x0 PUSH1 0x20 DUP3 ADD SWAP1 POP PUSH2 0xD39 PUSH1 0x0 DUP4 ADD DUP5 PUSH2 0xC03 JUMP JUMPDEST SWAP3 SWAP2 POP POP JUMP JUMPDEST PUSH1 0x0 PUSH1 0x20 DUP3 ADD SWAP1 POP DUP2 DUP2 SUB PUSH1 0x0 DUP4 ADD MSTORE PUSH2 0xD59 DUP2 DUP5 PUSH2 0xC12 JUMP JUMPDEST SWAP1 POP SWAP3 SWAP2 POP POP JUMP JUMPDEST PUSH1 0x0 PUSH1 0x20 DUP3 ADD SWAP1 POP DUP2 DUP2 SUB PUSH1 0x0 DUP4 ADD MSTORE PUSH2 0xD7A DUP2 PUSH2 0xC4B JUMP JUMPDEST SWAP1 POP SWAP2 SWAP1 POP JUMP JUMPDEST PUSH1 0x0 PUSH1 0x20 DUP3 ADD SWAP1 POP DUP2 DUP2 SUB PUSH1 0x0 DUP4 ADD MSTORE PUSH2 0xD9A DUP2 PUSH2 0xC6E JUMP JUMPDEST SWAP1 POP SWAP2 SWAP1 POP JUMP JUMPDEST PUSH1 0x0 PUSH1 0x20 DUP3 ADD SWAP1 POP DUP2 DUP2 SUB PUSH1 0x0 DUP4 ADD MSTORE PUSH2 0xDBA DUP2 PUSH2 0xC91 JUMP JUMPDEST SWAP1 POP SWAP2 SWAP1 POP JUMP JUMPDEST PUSH1 0x0 PUSH1 0x20 DUP3 ADD SWAP1 POP DUP2 DUP2 SUB PUSH1 0x0 DUP4 ADD MSTORE PUSH2 0xDDA DUP2 PUSH2 0xCB4 JUMP JUMPDEST SWAP1 POP SWAP2 SWAP1 POP JUMP JUMPDEST PUSH1 0x0 PUSH1 0x20 DUP3 ADD SWAP1 POP DUP2 DUP2 SUB PUSH1 0x0 DUP4 ADD MSTORE PUSH2 0xDFA DUP2 PUSH2 0xCD7 JUMP JUMPDEST SWAP1 POP SWAP2 SWAP1 POP JUMP JUMPDEST PUSH1 0x0 PUSH1 0x20 DUP3 ADD SWAP1 POP PUSH2 0xE16 PUSH1 0x0 DUP4 ADD DUP5 PUSH2 0xCFA JUMP JUMPDEST SWAP3 SWAP2 POP POP JUMP JUMPDEST PUSH1 0x0 DUP2 MLOAD SWAP1 POP SWAP2 SWAP1 POP JUMP JUMPDEST PUSH1 0x0 DUP3 DUP3 MSTORE PUSH1 0x20 DUP3 ADD SWAP1 POP SWAP3 SWAP2 POP POP JUMP JUMPDEST PUSH1 0x0 PUSH2 0xE43 DUP3 PUSH2 0xF00 JUMP JUMPDEST SWAP2 POP PUSH2 0xE4E DUP4 PUSH2 0xF00 JUMP JUMPDEST SWAP3 POP DUP3 PUSH32 0xFFFFFFFFFFFFFFFFFFFFFFFFFFFFFFFFFFFFFFFFFFFFFFFFFFFFFFFFFFFFFFFF SUB DUP3 GT ISZERO PUSH2 0xE83 JUMPI PUSH2 0xE82 PUSH2 0xF6F JUMP JUMPDEST JUMPDEST DUP3 DUP3 ADD SWAP1 POP SWAP3 SWAP2 POP POP JUMP JUMPDEST PUSH1 0x0 PUSH2 0xE99 DUP3 PUSH2 0xF00 JUMP JUMPDEST SWAP2 POP PUSH2 0xEA4 DUP4 PUSH2 0xF00 JUMP JUMPDEST SWAP3 POP DUP3 DUP3 LT ISZERO PUSH2 0xEB7 JUMPI PUSH2 0xEB6 PUSH2 0xF6F JUMP JUMPDEST JUMPDEST DUP3 DUP3 SUB SWAP1 POP SWAP3 SWAP2 POP POP JUMP JUMPDEST PUSH1 0x0 PUSH2 0xECD DUP3 PUSH2 0xEE0 JUMP JUMPDEST SWAP1 POP SWAP2 SWAP1 POP JUMP JUMPDEST PUSH1 0x0 DUP2 ISZERO ISZERO SWAP1 POP SWAP2 SWAP1 POP JUMP JUMPDEST PUSH1 0x0 PUSH20 0xFFFFFFFFFFFFFFFFFFFFFFFFFFFFFFFFFFFFFFFF DUP3 AND SWAP1 POP SWAP2 SWAP1 POP JUMP JUMPDEST PUSH1 0x0 DUP2 SWAP1 POP SWAP2 SWAP1 POP JUMP JUMPDEST PUSH1 0x0 JUMPDEST DUP4 DUP2 LT ISZERO PUSH2 0xF28 JUMPI DUP1 DUP3 ADD MLOAD DUP2 DUP5 ADD MSTORE PUSH1 0x20 DUP2 ADD SWAP1 POP PUSH2 0xF0D JUMP JUMPDEST DUP4 DUP2 GT ISZERO PUSH2 0xF37 JUMPI PUSH1 0x0 DUP5 DUP5 ADD MSTORE JUMPDEST POP POP POP POP JUMP JUMPDEST PUSH1 0x0 PUSH1 0x2 DUP3 DIV SWAP1 POP PUSH1 0x1 DUP3 AND DUP1 PUSH2 0xF55 JUMPI PUSH1 0x7F DUP3 AND SWAP2 POP JUMPDEST PUSH1 0x20 DUP3 LT DUP2 EQ ISZERO PUSH2 0xF69 JUMPI PUSH2 0xF68 PUSH2 0xF9E JUMP JUMPDEST JUMPDEST POP SWAP2 SWAP1 POP JUMP JUMPDEST PUSH32 0x4E487B7100000000000000000000000000000000000000000000000000000000 PUSH1 0x0 MSTORE PUSH1 0x11 PUSH1 0x4 MSTORE PUSH1 0x24 PUSH1 0x0 REVERT JUMPDEST PUSH32 0x4E487B7100000000000000000000000000000000000000000000000000000000 PUSH1 0x0 MSTORE PUSH1 0x22 PUSH1 0x4 MSTORE PUSH1 0x24 PUSH1 0x0 REVERT JUMPDEST PUSH1 0x0 DUP1 REVERT JUMPDEST PUSH1 0x0 PUSH1 0x1F NOT PUSH1 0x1F DUP4 ADD AND SWAP1 POP SWAP2 SWAP1 POP JUMP JUMPDEST PUSH32 0x546F6B656E2076616C75652069732067726561746572207468616E2074686520 PUSH1 0x0 DUP3 ADD MSTORE PUSH32 0x617070726F7665642062616C616E636500000000000000000000000000000000 PUSH1 0x20 DUP3 ADD MSTORE POP JUMP JUMPDEST PUSH32 0x546F6B656E2076616C7565206D7573742062652067726561746572207468616E PUSH1 0x0 DUP3 ADD MSTORE PUSH32 0x2030000000000000000000000000000000000000000000000000000000000000 PUSH1 0x20 DUP3 ADD MSTORE POP JUMP JUMPDEST PUSH32 0x546F6B656E2076616C75652069732067726561746572207468616E20796F7572 PUSH1 0x0 DUP3 ADD MSTORE PUSH32 0x2063757272656E7420686F6C64696E6700000000000000000000000000000000 PUSH1 0x20 DUP3 ADD MSTORE POP JUMP JUMPDEST PUSH32 0x496E73756666696369656E74204163636F756E742042616C616E636500000000 PUSH1 0x0 DUP3 ADD MSTORE POP JUMP JUMPDEST PUSH32 0x496E737566696369656E742042616C6E63650000000000000000000000000000 PUSH1 0x0 DUP3 ADD MSTORE POP JUMP JUMPDEST PUSH2 0x112B DUP2 PUSH2 0xEC2 JUMP JUMPDEST DUP2 EQ PUSH2 0x1136 JUMPI PUSH1 0x0 DUP1 REVERT JUMPDEST POP JUMP JUMPDEST PUSH2 0x1142 DUP2 PUSH2 0xF00 JUMP JUMPDEST DUP2 EQ PUSH2 0x114D JUMPI PUSH1 0x0 DUP1 REVERT JUMPDEST POP JUMP INVALID LOG2 PUSH5 0x6970667358 0x22 SLT KECCAK256 DUP2 0xBC 0x22 0xB9 PUSH19 0xBA025408B403BD6E2BAB3365DC5F8FD73B9001 0xD2 MSIZE 0xB8 CALLCODE PUSH22 0x7766A264736F6C634300080700330000000000000000 "
				},
				"gasEstimates": {
					"creation": {
						"codeDepositCost": "897200",
						"executionCost": "infinite",
						"totalCost": "infinite"
					},
					"external": {
						"allowance(address,address)": "infinite",
						"allowed(address,address)": "infinite",
						"approve(address,uint256)": "infinite",
						"balanceOf(address)": "2885",
						"balances(address)": "2903",
						"decimals()": "2540",
						"founder()": "2514",
						"name()": "infinite",
						"symbol()": "infinite",
						"totalSupply()": "2474",
						"transfer(address,uint256)": "infinite",
						"transferFrom(address,address,uint256)": "infinite"
					}
				},
				"methodIdentifiers": {
					"allowance(address,address)": "dd62ed3e",
					"allowed(address,address)": "5c658165",
					"approve(address,uint256)": "095ea7b3",
					"balanceOf(address)": "70a08231",
					"balances(address)": "27e235e3",
					"decimals()": "313ce567",
					"founder()": "4d853ee5",
					"name()": "06fdde03",
					"symbol()": "95d89b41",
					"totalSupply()": "18160ddd",
					"transfer(address,uint256)": "a9059cbb",
					"transferFrom(address,address,uint256)": "23b872dd"
				}
			},
			"storageLayout": {
				"storage": [
					{
						"astId": 73,
						"contract": "contracts/Erc20token.sol:MyToken",
						"label": "name",
						"offset": 0,
						"slot": "0",
						"type": "t_string_storage"
					},
					{
						"astId": 76,
						"contract": "contracts/Erc20token.sol:MyToken",
						"label": "symbol",
						"offset": 0,
						"slot": "1",
						"type": "t_string_storage"
					},
					{
						"astId": 79,
						"contract": "contracts/Erc20token.sol:MyToken",
						"label": "decimals",
						"offset": 0,
						"slot": "2",
						"type": "t_uint256"
					},
					{
						"astId": 81,
						"contract": "contracts/Erc20token.sol:MyToken",
						"label": "founder",
						"offset": 0,
						"slot": "3",
						"type": "t_address"
					},
					{
						"astId": 84,
						"contract": "contracts/Erc20token.sol:MyToken",
						"label": "totalSupply",
						"offset": 0,
						"slot": "4",
						"type": "t_uint256"
					},
					{
						"astId": 88,
						"contract": "contracts/Erc20token.sol:MyToken",
						"label": "balances",
						"offset": 0,
						"slot": "5",
						"type": "t_mapping(t_address,t_uint256)"
					},
					{
						"astId": 94,
						"contract": "contracts/Erc20token.sol:MyToken",
						"label": "allowed",
						"offset": 0,
						"slot": "6",
						"type": "t_mapping(t_address,t_mapping(t_address,t_uint256))"
					}
				],
				"types": {
					"t_address": {
						"encoding": "inplace",
						"label": "address",
						"numberOfBytes": "20"
					},
					"t_mapping(t_address,t_mapping(t_address,t_uint256))": {
						"encoding": "mapping",
						"key": "t_address",
						"label": "mapping(address => mapping(address => uint256))",
						"numberOfBytes": "32",
						"value": "t_mapping(t_address,t_uint256)"
					},
					"t_mapping(t_address,t_uint256)": {
						"encoding": "mapping",
						"key": "t_address",
						"label": "mapping(address => uint256)",
						"numberOfBytes": "32",
						"value": "t_uint256"
					},
					"t_string_storage": {
						"encoding": "bytes",
						"label": "string",
						"numberOfBytes": "32"
					},
					"t_uint256": {
						"encoding": "inplace",
						"label": "uint256",
						"numberOfBytes": "32"
					}
				}
			},
			"userdoc": {
				"kind": "user",
				"methods": {},
				"version": 1
			}
		}
	}
}