{
	"contracts/deposit_transfer.sol": {
		"Deposit": {
			"abi": [
				{
					"inputs": [],
					"name": "admin",
					"outputs": [
						{
							"internalType": "string",
							"name": "",
							"type": "string"
						}
					],
					"stateMutability": "view",
					"type": "function"
				},
				{
					"inputs": [],
					"name": "getBalance",
					"outputs": [
						{
							"internalType": "uint256",
							"name": "",
							"type": "uint256"
						}
					],
					"stateMutability": "view",
					"type": "function"
				},
				{
					"inputs": [
						{
							"internalType": "address payable",
							"name": "recipient",
							"type": "address"
						}
					],
					"name": "transferBalance",
					"outputs": [],
					"stateMutability": "nonpayable",
					"type": "function"
				},
				{
					"stateMutability": "payable",
					"type": "receive"
				}
			],
			"devdoc": {
				"kind": "dev",
				"methods": {},
				"version": 1
			},
			"evm": {
				"assembly": "    /* \"contracts/deposit_transfer.sol\":71:403  contract Deposit{... */\n  mstore(0x40, 0x80)\n  callvalue\n  dup1\n  iszero\n  tag_1\n  jumpi\n  0x00\n  dup1\n  revert\ntag_1:\n  pop\n  dataSize(sub_0)\n  dup1\n  dataOffset(sub_0)\n  0x00\n  codecopy\n  0x00\n  return\nstop\n\nsub_0: assembly {\n        /* \"contracts/deposit_transfer.sol\":71:403  contract Deposit{... */\n      mstore(0x40, 0x80)\n      jumpi(tag_1, lt(calldatasize, 0x04))\n      shr(0xe0, calldataload(0x00))\n      dup1\n      0x12065fe0\n      eq\n      tag_3\n      jumpi\n      dup1\n      0x63b6b31f\n      eq\n      tag_4\n      jumpi\n      dup1\n      0xf851a440\n      eq\n      tag_5\n      jumpi\n      jump(tag_2)\n    tag_1:\n      jumpi(tag_2, calldatasize)\n      stop\n    tag_2:\n      0x00\n      dup1\n      revert\n        /* \"contracts/deposit_transfer.sol\":158:252  function getBalance() public view returns (uint) {... */\n    tag_3:\n      callvalue\n      dup1\n      iszero\n      tag_8\n      jumpi\n      0x00\n      dup1\n      revert\n    tag_8:\n      pop\n      tag_9\n      tag_10\n      jump\t// in\n    tag_9:\n      mload(0x40)\n      tag_11\n      swap2\n      swap1\n      tag_12\n      jump\t// in\n    tag_11:\n      mload(0x40)\n      dup1\n      swap2\n      sub\n      swap1\n      return\n        /* \"contracts/deposit_transfer.sol\":262:401  function transferBalance(address payable recipient) public{... */\n    tag_4:\n      callvalue\n      dup1\n      iszero\n      tag_13\n      jumpi\n      0x00\n      dup1\n      revert\n    tag_13:\n      pop\n      tag_14\n      0x04\n      dup1\n      calldatasize\n      sub\n      dup2\n      add\n      swap1\n      tag_15\n      swap2\n      swap1\n      tag_16\n      jump\t// in\n    tag_15:\n      tag_17\n      jump\t// in\n    tag_14:\n      stop\n        /* \"contracts/deposit_transfer.sol\":94:113  string public admin */\n    tag_5:\n      callvalue\n      dup1\n      iszero\n      tag_18\n      jumpi\n      0x00\n      dup1\n      revert\n    tag_18:\n      pop\n      tag_19\n      tag_20\n      jump\t// in\n    tag_19:\n      mload(0x40)\n      tag_21\n      swap2\n      swap1\n      tag_22\n      jump\t// in\n    tag_21:\n      mload(0x40)\n      dup1\n      swap2\n      sub\n      swap1\n      return\n        /* \"contracts/deposit_transfer.sol\":158:252  function getBalance() public view returns (uint) {... */\n    tag_10:\n        /* \"contracts/deposit_transfer.sol\":201:205  uint */\n      0x00\n        /* \"contracts/deposit_transfer.sol\":224:245  address(this).balance */\n      selfbalance\n        /* \"contracts/deposit_transfer.sol\":217:245  return address(this).balance */\n      swap1\n      pop\n        /* \"contracts/deposit_transfer.sol\":158:252  function getBalance() public view returns (uint) {... */\n      swap1\n      jump\t// out\n        /* \"contracts/deposit_transfer.sol\":262:401  function transferBalance(address payable recipient) public{... */\n    tag_17:\n        /* \"contracts/deposit_transfer.sol\":330:342  uint balance */\n      0x00\n        /* \"contracts/deposit_transfer.sol\":345:357  getBalance() */\n      tag_25\n        /* \"contracts/deposit_transfer.sol\":345:355  getBalance */\n      tag_10\n        /* \"contracts/deposit_transfer.sol\":345:357  getBalance() */\n      jump\t// in\n    tag_25:\n        /* \"contracts/deposit_transfer.sol\":330:357  uint balance = getBalance() */\n      swap1\n      pop\n        /* \"contracts/deposit_transfer.sol\":367:376  recipient */\n      dup2\n        /* \"contracts/deposit_transfer.sol\":367:385  recipient.transfer */\n      0xffffffffffffffffffffffffffffffffffffffff\n      and\n        /* \"contracts/deposit_transfer.sol\":367:394  recipient.transfer(balance) */\n      0x08fc\n        /* \"contracts/deposit_transfer.sol\":386:393  balance */\n      dup3\n        /* \"contracts/deposit_transfer.sol\":367:394  recipient.transfer(balance) */\n      swap1\n      dup2\n      iszero\n      mul\n      swap1\n      mload(0x40)\n      0x00\n      mload(0x40)\n      dup1\n      dup4\n      sub\n      dup2\n      dup6\n      dup9\n      dup9\n      call\n      swap4\n      pop\n      pop\n      pop\n      pop\n      iszero\n      dup1\n      iszero\n      tag_27\n      jumpi\n      returndatasize\n      0x00\n      dup1\n      returndatacopy\n      revert(0x00, returndatasize)\n    tag_27:\n      pop\n        /* \"contracts/deposit_transfer.sol\":320:401  {... */\n      pop\n        /* \"contracts/deposit_transfer.sol\":262:401  function transferBalance(address payable recipient) public{... */\n      pop\n      jump\t// out\n        /* \"contracts/deposit_transfer.sol\":94:113  string public admin */\n    tag_20:\n      0x00\n      dup1\n      sload\n      tag_28\n      swap1\n      tag_29\n      jump\t// in\n    tag_28:\n      dup1\n      0x1f\n      add\n      0x20\n      dup1\n      swap2\n      div\n      mul\n      0x20\n      add\n      mload(0x40)\n      swap1\n      dup2\n      add\n      0x40\n      mstore\n      dup1\n      swap3\n      swap2\n      swap1\n      dup2\n      dup2\n      mstore\n      0x20\n      add\n      dup3\n      dup1\n      sload\n      tag_30\n      swap1\n      tag_29\n      jump\t// in\n    tag_30:\n      dup1\n      iszero\n      tag_31\n      jumpi\n      dup1\n      0x1f\n      lt\n      tag_32\n      jumpi\n      0x0100\n      dup1\n      dup4\n      sload\n      div\n      mul\n      dup4\n      mstore\n      swap2\n      0x20\n      add\n      swap2\n      jump(tag_31)\n    tag_32:\n      dup3\n      add\n      swap2\n      swap1\n      0x00\n      mstore\n      keccak256(0x00, 0x20)\n      swap1\n    tag_33:\n      dup2\n      sload\n      dup2\n      mstore\n      swap1\n      0x01\n      add\n      swap1\n      0x20\n      add\n      dup1\n      dup4\n      gt\n      tag_33\n      jumpi\n      dup3\n      swap1\n      sub\n      0x1f\n      and\n      dup3\n      add\n      swap2\n    tag_31:\n      pop\n      pop\n      pop\n      pop\n      pop\n      dup2\n      jump\t// out\n        /* \"#utility.yul\":7:162   */\n    tag_35:\n        /* \"#utility.yul\":61:66   */\n      0x00\n        /* \"#utility.yul\":99:105   */\n      dup2\n        /* \"#utility.yul\":86:106   */\n      calldataload\n        /* \"#utility.yul\":77:106   */\n      swap1\n      pop\n        /* \"#utility.yul\":115:156   */\n      tag_37\n        /* \"#utility.yul\":150:155   */\n      dup2\n        /* \"#utility.yul\":115:156   */\n      tag_38\n      jump\t// in\n    tag_37:\n        /* \"#utility.yul\":7:162   */\n      swap3\n      swap2\n      pop\n      pop\n      jump\t// out\n        /* \"#utility.yul\":168:513   */\n    tag_16:\n        /* \"#utility.yul\":235:241   */\n      0x00\n        /* \"#utility.yul\":284:286   */\n      0x20\n        /* \"#utility.yul\":272:281   */\n      dup3\n        /* \"#utility.yul\":263:270   */\n      dup5\n        /* \"#utility.yul\":259:282   */\n      sub\n        /* \"#utility.yul\":255:287   */\n      slt\n        /* \"#utility.yul\":252:371   */\n      iszero\n      tag_40\n      jumpi\n        /* \"#utility.yul\":290:369   */\n      tag_41\n      tag_42\n      jump\t// in\n    tag_41:\n        /* \"#utility.yul\":252:371   */\n    tag_40:\n        /* \"#utility.yul\":410:411   */\n      0x00\n        /* \"#utility.yul\":435:496   */\n      tag_43\n        /* \"#utility.yul\":488:495   */\n      dup5\n        /* \"#utility.yul\":479:485   */\n      dup3\n        /* \"#utility.yul\":468:477   */\n      dup6\n        /* \"#utility.yul\":464:486   */\n      add\n        /* \"#utility.yul\":435:496   */\n      tag_35\n      jump\t// in\n    tag_43:\n        /* \"#utility.yul\":425:496   */\n      swap2\n      pop\n        /* \"#utility.yul\":381:506   */\n      pop\n        /* \"#utility.yul\":168:513   */\n      swap3\n      swap2\n      pop\n      pop\n      jump\t// out\n        /* \"#utility.yul\":519:883   */\n    tag_44:\n        /* \"#utility.yul\":607:610   */\n      0x00\n        /* \"#utility.yul\":635:674   */\n      tag_46\n        /* \"#utility.yul\":668:673   */\n      dup3\n        /* \"#utility.yul\":635:674   */\n      tag_47\n      jump\t// in\n    tag_46:\n        /* \"#utility.yul\":690:761   */\n      tag_48\n        /* \"#utility.yul\":754:760   */\n      dup2\n        /* \"#utility.yul\":749:752   */\n      dup6\n        /* \"#utility.yul\":690:761   */\n      tag_49\n      jump\t// in\n    tag_48:\n        /* \"#utility.yul\":683:761   */\n      swap4\n      pop\n        /* \"#utility.yul\":770:822   */\n      tag_50\n        /* \"#utility.yul\":815:821   */\n      dup2\n        /* \"#utility.yul\":810:813   */\n      dup6\n        /* \"#utility.yul\":803:807   */\n      0x20\n        /* \"#utility.yul\":796:801   */\n      dup7\n        /* \"#utility.yul\":792:808   */\n      add\n        /* \"#utility.yul\":770:822   */\n      tag_51\n      jump\t// in\n    tag_50:\n        /* \"#utility.yul\":847:876   */\n      tag_52\n        /* \"#utility.yul\":869:875   */\n      dup2\n        /* \"#utility.yul\":847:876   */\n      tag_53\n      jump\t// in\n    tag_52:\n        /* \"#utility.yul\":842:845   */\n      dup5\n        /* \"#utility.yul\":838:877   */\n      add\n        /* \"#utility.yul\":831:877   */\n      swap2\n      pop\n        /* \"#utility.yul\":611:883   */\n      pop\n        /* \"#utility.yul\":519:883   */\n      swap3\n      swap2\n      pop\n      pop\n      jump\t// out\n        /* \"#utility.yul\":889:1007   */\n    tag_54:\n        /* \"#utility.yul\":976:1000   */\n      tag_56\n        /* \"#utility.yul\":994:999   */\n      dup2\n        /* \"#utility.yul\":976:1000   */\n      tag_57\n      jump\t// in\n    tag_56:\n        /* \"#utility.yul\":971:974   */\n      dup3\n        /* \"#utility.yul\":964:1001   */\n      mstore\n        /* \"#utility.yul\":889:1007   */\n      pop\n      pop\n      jump\t// out\n        /* \"#utility.yul\":1013:1326   */\n    tag_22:\n        /* \"#utility.yul\":1126:1130   */\n      0x00\n        /* \"#utility.yul\":1164:1166   */\n      0x20\n        /* \"#utility.yul\":1153:1162   */\n      dup3\n        /* \"#utility.yul\":1149:1167   */\n      add\n        /* \"#utility.yul\":1141:1167   */\n      swap1\n      pop\n        /* \"#utility.yul\":1213:1222   */\n      dup2\n        /* \"#utility.yul\":1207:1211   */\n      dup2\n        /* \"#utility.yul\":1203:1223   */\n      sub\n        /* \"#utility.yul\":1199:1200   */\n      0x00\n        /* \"#utility.yul\":1188:1197   */\n      dup4\n        /* \"#utility.yul\":1184:1201   */\n      add\n        /* \"#utility.yul\":1177:1224   */\n      mstore\n        /* \"#utility.yul\":1241:1319   */\n      tag_59\n        /* \"#utility.yul\":1314:1318   */\n      dup2\n        /* \"#utility.yul\":1305:1311   */\n      dup5\n        /* \"#utility.yul\":1241:1319   */\n      tag_44\n      jump\t// in\n    tag_59:\n        /* \"#utility.yul\":1233:1319   */\n      swap1\n      pop\n        /* \"#utility.yul\":1013:1326   */\n      swap3\n      swap2\n      pop\n      pop\n      jump\t// out\n        /* \"#utility.yul\":1332:1554   */\n    tag_12:\n        /* \"#utility.yul\":1425:1429   */\n      0x00\n        /* \"#utility.yul\":1463:1465   */\n      0x20\n        /* \"#utility.yul\":1452:1461   */\n      dup3\n        /* \"#utility.yul\":1448:1466   */\n      add\n        /* \"#utility.yul\":1440:1466   */\n      swap1\n      pop\n        /* \"#utility.yul\":1476:1547   */\n      tag_61\n        /* \"#utility.yul\":1544:1545   */\n      0x00\n        /* \"#utility.yul\":1533:1542   */\n      dup4\n        /* \"#utility.yul\":1529:1546   */\n      add\n        /* \"#utility.yul\":1520:1526   */\n      dup5\n        /* \"#utility.yul\":1476:1547   */\n      tag_54\n      jump\t// in\n    tag_61:\n        /* \"#utility.yul\":1332:1554   */\n      swap3\n      swap2\n      pop\n      pop\n      jump\t// out\n        /* \"#utility.yul\":1641:1740   */\n    tag_47:\n        /* \"#utility.yul\":1693:1699   */\n      0x00\n        /* \"#utility.yul\":1727:1732   */\n      dup2\n        /* \"#utility.yul\":1721:1733   */\n      mload\n        /* \"#utility.yul\":1711:1733   */\n      swap1\n      pop\n        /* \"#utility.yul\":1641:1740   */\n      swap2\n      swap1\n      pop\n      jump\t// out\n        /* \"#utility.yul\":1746:1915   */\n    tag_49:\n        /* \"#utility.yul\":1830:1841   */\n      0x00\n        /* \"#utility.yul\":1864:1870   */\n      dup3\n        /* \"#utility.yul\":1859:1862   */\n      dup3\n        /* \"#utility.yul\":1852:1871   */\n      mstore\n        /* \"#utility.yul\":1904:1908   */\n      0x20\n        /* \"#utility.yul\":1899:1902   */\n      dup3\n        /* \"#utility.yul\":1895:1909   */\n      add\n        /* \"#utility.yul\":1880:1909   */\n      swap1\n      pop\n        /* \"#utility.yul\":1746:1915   */\n      swap3\n      swap2\n      pop\n      pop\n      jump\t// out\n        /* \"#utility.yul\":1921:2025   */\n    tag_66:\n        /* \"#utility.yul\":1966:1973   */\n      0x00\n        /* \"#utility.yul\":1995:2019   */\n      tag_68\n        /* \"#utility.yul\":2013:2018   */\n      dup3\n        /* \"#utility.yul\":1995:2019   */\n      tag_69\n      jump\t// in\n    tag_68:\n        /* \"#utility.yul\":1984:2019   */\n      swap1\n      pop\n        /* \"#utility.yul\":1921:2025   */\n      swap2\n      swap1\n      pop\n      jump\t// out\n        /* \"#utility.yul\":2031:2157   */\n    tag_69:\n        /* \"#utility.yul\":2068:2075   */\n      0x00\n        /* \"#utility.yul\":2108:2150   */\n      0xffffffffffffffffffffffffffffffffffffffff\n        /* \"#utility.yul\":2101:2106   */\n      dup3\n        /* \"#utility.yul\":2097:2151   */\n      and\n        /* \"#utility.yul\":2086:2151   */\n      swap1\n      pop\n        /* \"#utility.yul\":2031:2157   */\n      swap2\n      swap1\n      pop\n      jump\t// out\n        /* \"#utility.yul\":2163:2240   */\n    tag_57:\n        /* \"#utility.yul\":2200:2207   */\n      0x00\n        /* \"#utility.yul\":2229:2234   */\n      dup2\n        /* \"#utility.yul\":2218:2234   */\n      swap1\n      pop\n        /* \"#utility.yul\":2163:2240   */\n      swap2\n      swap1\n      pop\n      jump\t// out\n        /* \"#utility.yul\":2246:2553   */\n    tag_51:\n        /* \"#utility.yul\":2314:2315   */\n      0x00\n        /* \"#utility.yul\":2324:2437   */\n    tag_73:\n        /* \"#utility.yul\":2338:2344   */\n      dup4\n        /* \"#utility.yul\":2335:2336   */\n      dup2\n        /* \"#utility.yul\":2332:2345   */\n      lt\n        /* \"#utility.yul\":2324:2437   */\n      iszero\n      tag_75\n      jumpi\n        /* \"#utility.yul\":2423:2424   */\n      dup1\n        /* \"#utility.yul\":2418:2421   */\n      dup3\n        /* \"#utility.yul\":2414:2425   */\n      add\n        /* \"#utility.yul\":2408:2426   */\n      mload\n        /* \"#utility.yul\":2404:2405   */\n      dup2\n        /* \"#utility.yul\":2399:2402   */\n      dup5\n        /* \"#utility.yul\":2395:2406   */\n      add\n        /* \"#utility.yul\":2388:2427   */\n      mstore\n        /* \"#utility.yul\":2360:2362   */\n      0x20\n        /* \"#utility.yul\":2357:2358   */\n      dup2\n        /* \"#utility.yul\":2353:2363   */\n      add\n        /* \"#utility.yul\":2348:2363   */\n      swap1\n      pop\n        /* \"#utility.yul\":2324:2437   */\n      jump(tag_73)\n    tag_75:\n        /* \"#utility.yul\":2455:2461   */\n      dup4\n        /* \"#utility.yul\":2452:2453   */\n      dup2\n        /* \"#utility.yul\":2449:2462   */\n      gt\n        /* \"#utility.yul\":2446:2547   */\n      iszero\n      tag_76\n      jumpi\n        /* \"#utility.yul\":2535:2536   */\n      0x00\n        /* \"#utility.yul\":2526:2532   */\n      dup5\n        /* \"#utility.yul\":2521:2524   */\n      dup5\n        /* \"#utility.yul\":2517:2533   */\n      add\n        /* \"#utility.yul\":2510:2537   */\n      mstore\n        /* \"#utility.yul\":2446:2547   */\n    tag_76:\n        /* \"#utility.yul\":2295:2553   */\n      pop\n        /* \"#utility.yul\":2246:2553   */\n      pop\n      pop\n      pop\n      jump\t// out\n        /* \"#utility.yul\":2559:2879   */\n    tag_29:\n        /* \"#utility.yul\":2603:2609   */\n      0x00\n        /* \"#utility.yul\":2640:2641   */\n      0x02\n        /* \"#utility.yul\":2634:2638   */\n      dup3\n        /* \"#utility.yul\":2630:2642   */\n      div\n        /* \"#utility.yul\":2620:2642   */\n      swap1\n      pop\n        /* \"#utility.yul\":2687:2688   */\n      0x01\n        /* \"#utility.yul\":2681:2685   */\n      dup3\n        /* \"#utility.yul\":2677:2689   */\n      and\n        /* \"#utility.yul\":2708:2726   */\n      dup1\n        /* \"#utility.yul\":2698:2779   */\n      tag_78\n      jumpi\n        /* \"#utility.yul\":2764:2768   */\n      0x7f\n        /* \"#utility.yul\":2756:2762   */\n      dup3\n        /* \"#utility.yul\":2752:2769   */\n      and\n        /* \"#utility.yul\":2742:2769   */\n      swap2\n      pop\n        /* \"#utility.yul\":2698:2779   */\n    tag_78:\n        /* \"#utility.yul\":2826:2828   */\n      0x20\n        /* \"#utility.yul\":2818:2824   */\n      dup3\n        /* \"#utility.yul\":2815:2829   */\n      lt\n        /* \"#utility.yul\":2795:2813   */\n      dup2\n        /* \"#utility.yul\":2792:2830   */\n      eq\n        /* \"#utility.yul\":2789:2873   */\n      iszero\n      tag_79\n      jumpi\n        /* \"#utility.yul\":2845:2863   */\n      tag_80\n      tag_81\n      jump\t// in\n    tag_80:\n        /* \"#utility.yul\":2789:2873   */\n    tag_79:\n        /* \"#utility.yul\":2610:2879   */\n      pop\n        /* \"#utility.yul\":2559:2879   */\n      swap2\n      swap1\n      pop\n      jump\t// out\n        /* \"#utility.yul\":2885:3065   */\n    tag_81:\n        /* \"#utility.yul\":2933:3010   */\n      0x4e487b7100000000000000000000000000000000000000000000000000000000\n        /* \"#utility.yul\":2930:2931   */\n      0x00\n        /* \"#utility.yul\":2923:3011   */\n      mstore\n        /* \"#utility.yul\":3030:3034   */\n      0x22\n        /* \"#utility.yul\":3027:3028   */\n      0x04\n        /* \"#utility.yul\":3020:3035   */\n      mstore\n        /* \"#utility.yul\":3054:3058   */\n      0x24\n        /* \"#utility.yul\":3051:3052   */\n      0x00\n        /* \"#utility.yul\":3044:3059   */\n      revert\n        /* \"#utility.yul\":3194:3311   */\n    tag_42:\n        /* \"#utility.yul\":3303:3304   */\n      0x00\n        /* \"#utility.yul\":3300:3301   */\n      dup1\n        /* \"#utility.yul\":3293:3305   */\n      revert\n        /* \"#utility.yul\":3317:3419   */\n    tag_53:\n        /* \"#utility.yul\":3358:3364   */\n      0x00\n        /* \"#utility.yul\":3409:3411   */\n      0x1f\n        /* \"#utility.yul\":3405:3412   */\n      not\n        /* \"#utility.yul\":3400:3402   */\n      0x1f\n        /* \"#utility.yul\":3393:3398   */\n      dup4\n        /* \"#utility.yul\":3389:3403   */\n      add\n        /* \"#utility.yul\":3385:3413   */\n      and\n        /* \"#utility.yul\":3375:3413   */\n      swap1\n      pop\n        /* \"#utility.yul\":3317:3419   */\n      swap2\n      swap1\n      pop\n      jump\t// out\n        /* \"#utility.yul\":3425:3563   */\n    tag_38:\n        /* \"#utility.yul\":3506:3538   */\n      tag_88\n        /* \"#utility.yul\":3532:3537   */\n      dup2\n        /* \"#utility.yul\":3506:3538   */\n      tag_66\n      jump\t// in\n    tag_88:\n        /* \"#utility.yul\":3499:3504   */\n      dup2\n        /* \"#utility.yul\":3496:3539   */\n      eq\n        /* \"#utility.yul\":3486:3557   */\n      tag_89\n      jumpi\n        /* \"#utility.yul\":3553:3554   */\n      0x00\n        /* \"#utility.yul\":3550:3551   */\n      dup1\n        /* \"#utility.yul\":3543:3555   */\n      revert\n        /* \"#utility.yul\":3486:3557   */\n    tag_89:\n        /* \"#utility.yul\":3425:3563   */\n      pop\n      jump\t// out\n\n    auxdata: 0xa26469706673582212205c7b02a80f662354342ee9cfd8c3bea7da8dcff02ccbea4b5116921c1ce200ed64736f6c63430008070033\n}\n",
				"bytecode": {
					"linkReferences": {},
					"object": "608060405234801561001057600080fd5b506103c6806100206000396000f3fe6080604052600436106100385760003560e01c806312065fe01461004457806363b6b31f1461006f578063f851a440146100985761003f565b3661003f57005b600080fd5b34801561005057600080fd5b506100596100c3565b604051610066919061025c565b60405180910390f35b34801561007b57600080fd5b50610096600480360381019061009191906101c5565b6100cb565b005b3480156100a457600080fd5b506100ad610122565b6040516100ba919061023a565b60405180910390f35b600047905090565b60006100d56100c3565b90508173ffffffffffffffffffffffffffffffffffffffff166108fc829081150290604051600060405180830381858888f1935050505015801561011d573d6000803e3d6000fd5b505050565b6000805461012f90610302565b80601f016020809104026020016040519081016040528092919081815260200182805461015b90610302565b80156101a85780601f1061017d576101008083540402835291602001916101a8565b820191906000526020600020905b81548152906001019060200180831161018b57829003601f168201915b505050505081565b6000813590506101bf81610379565b92915050565b6000602082840312156101db576101da610363565b5b60006101e9848285016101b0565b91505092915050565b60006101fd82610277565b6102078185610282565b93506102178185602086016102cf565b61022081610368565b840191505092915050565b610234816102c5565b82525050565b6000602082019050818103600083015261025481846101f2565b905092915050565b6000602082019050610271600083018461022b565b92915050565b600081519050919050565b600082825260208201905092915050565b600061029e826102a5565b9050919050565b600073ffffffffffffffffffffffffffffffffffffffff82169050919050565b6000819050919050565b60005b838110156102ed5780820151818401526020810190506102d2565b838111156102fc576000848401525b50505050565b6000600282049050600182168061031a57607f821691505b6020821081141561032e5761032d610334565b5b50919050565b7f4e487b7100000000000000000000000000000000000000000000000000000000600052602260045260246000fd5b600080fd5b6000601f19601f8301169050919050565b61038281610293565b811461038d57600080fd5b5056fea26469706673582212205c7b02a80f662354342ee9cfd8c3bea7da8dcff02ccbea4b5116921c1ce200ed64736f6c63430008070033",
					"opcodes": "PUSH1 0x80 PUSH1 0x40 MSTORE CALLVALUE DUP1 ISZERO PUSH2 0x10 JUMPI PUSH1 0x0 DUP1 REVERT JUMPDEST POP PUSH2 0x3C6 DUP1 PUSH2 0x20 PUSH1 0x0 CODECOPY PUSH1 0x0 RETURN INVALID PUSH1 0x80 PUSH1 0x40 MSTORE PUSH1 0x4 CALLDATASIZE LT PUSH2 0x38 JUMPI PUSH1 0x0 CALLDATALOAD PUSH1 0xE0 SHR DUP1 PUSH4 0x12065FE0 EQ PUSH2 0x44 JUMPI DUP1 PUSH4 0x63B6B31F EQ PUSH2 0x6F JUMPI DUP1 PUSH4 0xF851A440 EQ PUSH2 0x98 JUMPI PUSH2 0x3F JUMP JUMPDEST CALLDATASIZE PUSH2 0x3F JUMPI STOP JUMPDEST PUSH1 0x0 DUP1 REVERT JUMPDEST CALLVALUE DUP1 ISZERO PUSH2 0x50 JUMPI PUSH1 0x0 DUP1 REVERT JUMPDEST POP PUSH2 0x59 PUSH2 0xC3 JUMP JUMPDEST PUSH1 0x40 MLOAD PUSH2 0x66 SWAP2 SWAP1 PUSH2 0x25C JUMP JUMPDEST PUSH1 0x40 MLOAD DUP1 SWAP2 SUB SWAP1 RETURN JUMPDEST CALLVALUE DUP1 ISZERO PUSH2 0x7B JUMPI PUSH1 0x0 DUP1 REVERT JUMPDEST POP PUSH2 0x96 PUSH1 0x4 DUP1 CALLDATASIZE SUB DUP2 ADD SWAP1 PUSH2 0x91 SWAP2 SWAP1 PUSH2 0x1C5 JUMP JUMPDEST PUSH2 0xCB JUMP JUMPDEST STOP JUMPDEST CALLVALUE DUP1 ISZERO PUSH2 0xA4 JUMPI PUSH1 0x0 DUP1 REVERT JUMPDEST POP PUSH2 0xAD PUSH2 0x122 JUMP JUMPDEST PUSH1 0x40 MLOAD PUSH2 0xBA SWAP2 SWAP1 PUSH2 0x23A JUMP JUMPDEST PUSH1 0x40 MLOAD DUP1 SWAP2 SUB SWAP1 RETURN JUMPDEST PUSH1 0x0 SELFBALANCE SWAP1 POP SWAP1 JUMP JUMPDEST PUSH1 0x0 PUSH2 0xD5 PUSH2 0xC3 JUMP JUMPDEST SWAP1 POP DUP2 PUSH20 0xFFFFFFFFFFFFFFFFFFFFFFFFFFFFFFFFFFFFFFFF AND PUSH2 0x8FC DUP3 SWAP1 DUP2 ISZERO MUL SWAP1 PUSH1 0x40 MLOAD PUSH1 0x0 PUSH1 0x40 MLOAD DUP1 DUP4 SUB DUP2 DUP6 DUP9 DUP9 CALL SWAP4 POP POP POP POP ISZERO DUP1 ISZERO PUSH2 0x11D JUMPI RETURNDATASIZE PUSH1 0x0 DUP1 RETURNDATACOPY RETURNDATASIZE PUSH1 0x0 REVERT JUMPDEST POP POP POP JUMP JUMPDEST PUSH1 0x0 DUP1 SLOAD PUSH2 0x12F SWAP1 PUSH2 0x302 JUMP JUMPDEST DUP1 PUSH1 0x1F ADD PUSH1 0x20 DUP1 SWAP2 DIV MUL PUSH1 0x20 ADD PUSH1 0x40 MLOAD SWAP1 DUP2 ADD PUSH1 0x40 MSTORE DUP1 SWAP3 SWAP2 SWAP1 DUP2 DUP2 MSTORE PUSH1 0x20 ADD DUP3 DUP1 SLOAD PUSH2 0x15B SWAP1 PUSH2 0x302 JUMP JUMPDEST DUP1 ISZERO PUSH2 0x1A8 JUMPI DUP1 PUSH1 0x1F LT PUSH2 0x17D JUMPI PUSH2 0x100 DUP1 DUP4 SLOAD DIV MUL DUP4 MSTORE SWAP2 PUSH1 0x20 ADD SWAP2 PUSH2 0x1A8 JUMP JUMPDEST DUP3 ADD SWAP2 SWAP1 PUSH1 0x0 MSTORE PUSH1 0x20 PUSH1 0x0 KECCAK256 SWAP1 JUMPDEST DUP2 SLOAD DUP2 MSTORE SWAP1 PUSH1 0x1 ADD SWAP1 PUSH1 0x20 ADD DUP1 DUP4 GT PUSH2 0x18B JUMPI DUP3 SWAP1 SUB PUSH1 0x1F AND DUP3 ADD SWAP2 JUMPDEST POP POP POP POP POP DUP2 JUMP JUMPDEST PUSH1 0x0 DUP2 CALLDATALOAD SWAP1 POP PUSH2 0x1BF DUP2 PUSH2 0x379 JUMP JUMPDEST SWAP3 SWAP2 POP POP JUMP JUMPDEST PUSH1 0x0 PUSH1 0x20 DUP3 DUP5 SUB SLT ISZERO PUSH2 0x1DB JUMPI PUSH2 0x1DA PUSH2 0x363 JUMP JUMPDEST JUMPDEST PUSH1 0x0 PUSH2 0x1E9 DUP5 DUP3 DUP6 ADD PUSH2 0x1B0 JUMP JUMPDEST SWAP2 POP POP SWAP3 SWAP2 POP POP JUMP JUMPDEST PUSH1 0x0 PUSH2 0x1FD DUP3 PUSH2 0x277 JUMP JUMPDEST PUSH2 0x207 DUP2 DUP6 PUSH2 0x282 JUMP JUMPDEST SWAP4 POP PUSH2 0x217 DUP2 DUP6 PUSH1 0x20 DUP7 ADD PUSH2 0x2CF JUMP JUMPDEST PUSH2 0x220 DUP2 PUSH2 0x368 JUMP JUMPDEST DUP5 ADD SWAP2 POP POP SWAP3 SWAP2 POP POP JUMP JUMPDEST PUSH2 0x234 DUP2 PUSH2 0x2C5 JUMP JUMPDEST DUP3 MSTORE POP POP JUMP JUMPDEST PUSH1 0x0 PUSH1 0x20 DUP3 ADD SWAP1 POP DUP2 DUP2 SUB PUSH1 0x0 DUP4 ADD MSTORE PUSH2 0x254 DUP2 DUP5 PUSH2 0x1F2 JUMP JUMPDEST SWAP1 POP SWAP3 SWAP2 POP POP JUMP JUMPDEST PUSH1 0x0 PUSH1 0x20 DUP3 ADD SWAP1 POP PUSH2 0x271 PUSH1 0x0 DUP4 ADD DUP5 PUSH2 0x22B JUMP JUMPDEST SWAP3 SWAP2 POP POP JUMP JUMPDEST PUSH1 0x0 DUP2 MLOAD SWAP1 POP SWAP2 SWAP1 POP JUMP JUMPDEST PUSH1 0x0 DUP3 DUP3 MSTORE PUSH1 0x20 DUP3 ADD SWAP1 POP SWAP3 SWAP2 POP POP JUMP JUMPDEST PUSH1 0x0 PUSH2 0x29E DUP3 PUSH2 0x2A5 JUMP JUMPDEST SWAP1 POP SWAP2 SWAP1 POP JUMP JUMPDEST PUSH1 0x0 PUSH20 0xFFFFFFFFFFFFFFFFFFFFFFFFFFFFFFFFFFFFFFFF DUP3 AND SWAP1 POP SWAP2 SWAP1 POP JUMP JUMPDEST PUSH1 0x0 DUP2 SWAP1 POP SWAP2 SWAP1 POP JUMP JUMPDEST PUSH1 0x0 JUMPDEST DUP4 DUP2 LT ISZERO PUSH2 0x2ED JUMPI DUP1 DUP3 ADD MLOAD DUP2 DUP5 ADD MSTORE PUSH1 0x20 DUP2 ADD SWAP1 POP PUSH2 0x2D2 JUMP JUMPDEST DUP4 DUP2 GT ISZERO PUSH2 0x2FC JUMPI PUSH1 0x0 DUP5 DUP5 ADD MSTORE JUMPDEST POP POP POP POP JUMP JUMPDEST PUSH1 0x0 PUSH1 0x2 DUP3 DIV SWAP1 POP PUSH1 0x1 DUP3 AND DUP1 PUSH2 0x31A JUMPI PUSH1 0x7F DUP3 AND SWAP2 POP JUMPDEST PUSH1 0x20 DUP3 LT DUP2 EQ ISZERO PUSH2 0x32E JUMPI PUSH2 0x32D PUSH2 0x334 JUMP JUMPDEST JUMPDEST POP SWAP2 SWAP1 POP JUMP JUMPDEST PUSH32 0x4E487B7100000000000000000000000000000000000000000000000000000000 PUSH1 0x0 MSTORE PUSH1 0x22 PUSH1 0x4 MSTORE PUSH1 0x24 PUSH1 0x0 REVERT JUMPDEST PUSH1 0x0 DUP1 REVERT JUMPDEST PUSH1 0x0 PUSH1 0x1F NOT PUSH1 0x1F DUP4 ADD AND SWAP1 POP SWAP2 SWAP1 POP JUMP JUMPDEST PUSH2 0x382 DUP2 PUSH2 0x293 JUMP JUMPDEST DUP2 EQ PUSH2 0x38D JUMPI PUSH1 0x0 DUP1 REVERT JUMPDEST POP JUMP INVALID LOG2 PUSH5 0x6970667358 0x22 SLT KECCAK256 0x5C PUSH28 0x2A80F662354342EE9CFD8C3BEA7DA8DCFF02CCBEA4B5116921C1CE2 STOP 0xED PUSH5 0x736F6C6343 STOP ADDMOD SMOD STOP CALLER "
				},
				"gasEstimates": {
					"creation": {
						"codeDepositCost": "193200",
						"executionCost": "238",
						"totalCost": "193438"
					},
					"external": {
						"admin()": "infinite",
						"getBalance()": "317",
						"transferBalance(address)": "infinite"
					}
				},
				"methodIdentifiers": {
					"admin()": "f851a440",
					"getBalance()": "12065fe0",
					"transferBalance(address)": "63b6b31f"
				}
			},
			"storageLayout": {
				"storage": [
					{
						"astId": 3,
						"contract": "contracts/deposit_transfer.sol:Deposit",
						"label": "admin",
						"offset": 0,
						"slot": "0",
						"type": "t_string_storage"
					}
				],
				"types": {
					"t_string_storage": {
						"encoding": "bytes",
						"label": "string",
						"numberOfBytes": "32"
					}
				}
			},
			"userdoc": {
				"kind": "user",
				"methods": {},
				"version": 1
			}
		}
	}
}