{
	"contracts/TodoList.sol": {
		"TodoList": {
			"abi": [
				{
					"inputs": [
						{
							"internalType": "uint256",
							"name": "",
							"type": "uint256"
						}
					],
					"name": "Task_Details",
					"outputs": [
						{
							"internalType": "uint256",
							"name": "id",
							"type": "uint256"
						},
						{
							"internalType": "string",
							"name": "details",
							"type": "string"
						},
						{
							"internalType": "bool",
							"name": "status",
							"type": "bool"
						}
					],
					"stateMutability": "view",
					"type": "function"
				},
				{
					"inputs": [],
					"name": "TodoListNumber",
					"outputs": [
						{
							"internalType": "uint256",
							"name": "",
							"type": "uint256"
						}
					],
					"stateMutability": "view",
					"type": "function"
				},
				{
					"inputs": [
						{
							"internalType": "string",
							"name": "_details",
							"type": "string"
						}
					],
					"name": "createToDo",
					"outputs": [],
					"stateMutability": "nonpayable",
					"type": "function"
				}
			],
			"devdoc": {
				"kind": "dev",
				"methods": {},
				"version": 1
			},
			"evm": {
				"assembly": "    /* \"contracts/TodoList.sol\":73:523  contract TodoList{\r... */\n  mstore(0x40, 0x80)\n  callvalue\n  dup1\n  iszero\n  tag_1\n  jumpi\n  0x00\n  dup1\n  revert\ntag_1:\n  pop\n  dataSize(sub_0)\n  dup1\n  dataOffset(sub_0)\n  0x00\n  codecopy\n  0x00\n  return\nstop\n\nsub_0: assembly {\n        /* \"contracts/TodoList.sol\":73:523  contract TodoList{\r... */\n      mstore(0x40, 0x80)\n      callvalue\n      dup1\n      iszero\n      tag_1\n      jumpi\n      0x00\n      dup1\n      revert\n    tag_1:\n      pop\n      jumpi(tag_2, lt(calldatasize, 0x04))\n      shr(0xe0, calldataload(0x00))\n      dup1\n      0x60cf802f\n      eq\n      tag_3\n      jumpi\n      dup1\n      0xa1dbe017\n      eq\n      tag_4\n      jumpi\n      dup1\n      0xa25b79ca\n      eq\n      tag_5\n      jumpi\n    tag_2:\n      0x00\n      dup1\n      revert\n        /* \"contracts/TodoList.sol\":291:518  function createToDo(string memory _details) public {\r... */\n    tag_3:\n      tag_6\n      0x04\n      dup1\n      calldatasize\n      sub\n      dup2\n      add\n      swap1\n      tag_7\n      swap2\n      swap1\n      tag_8\n      jump\t// in\n    tag_7:\n      tag_9\n      jump\t// in\n    tag_6:\n      stop\n        /* \"contracts/TodoList.sol\":234:282  mapping(uint => TaskDetails) public Task_Details */\n    tag_4:\n      tag_10\n      0x04\n      dup1\n      calldatasize\n      sub\n      dup2\n      add\n      swap1\n      tag_11\n      swap2\n      swap1\n      tag_12\n      jump\t// in\n    tag_11:\n      tag_13\n      jump\t// in\n    tag_10:\n      mload(0x40)\n      tag_14\n      swap4\n      swap3\n      swap2\n      swap1\n      tag_15\n      jump\t// in\n    tag_14:\n      mload(0x40)\n      dup1\n      swap2\n      sub\n      swap1\n      return\n        /* \"contracts/TodoList.sol\":99:125  uint public TodoListNumber */\n    tag_5:\n      tag_16\n      tag_17\n      jump\t// in\n    tag_16:\n      mload(0x40)\n      tag_18\n      swap2\n      swap1\n      tag_19\n      jump\t// in\n    tag_18:\n      mload(0x40)\n      dup1\n      swap2\n      sub\n      swap1\n      return\n        /* \"contracts/TodoList.sol\":291:518  function createToDo(string memory _details) public {\r... */\n    tag_9:\n        /* \"contracts/TodoList.sol\":414:428  TodoListNumber */\n      0x00\n      dup1\n        /* \"contracts/TodoList.sol\":414:430  TodoListNumber++ */\n      dup2\n      sload\n      dup1\n      swap3\n      swap2\n      swap1\n      tag_21\n      swap1\n      tag_22\n      jump\t// in\n    tag_21:\n      swap2\n      swap1\n      pop\n      sstore\n      pop\n        /* \"contracts/TodoList.sol\":443:476  TaskDetails memory newTaskDetails */\n      0x00\n        /* \"contracts/TodoList.sol\":479:491  Task_Details */\n      0x01\n        /* \"contracts/TodoList.sol\":479:507  Task_Details[TodoListNumber] */\n      0x00\n        /* \"contracts/TodoList.sol\":492:506  TodoListNumber */\n      dup1\n      sload\n        /* \"contracts/TodoList.sol\":479:507  Task_Details[TodoListNumber] */\n      dup2\n      mstore\n      0x20\n      add\n      swap1\n      dup2\n      mstore\n      0x20\n      add\n      0x00\n      keccak256\n        /* \"contracts/TodoList.sol\":443:507  TaskDetails memory newTaskDetails = Task_Details[TodoListNumber] */\n      mload(0x40)\n      dup1\n      0x60\n      add\n      0x40\n      mstore\n      swap1\n      dup2\n      0x00\n      dup3\n      add\n      sload\n      dup2\n      mstore\n      0x20\n      add\n      0x01\n      dup3\n      add\n      dup1\n      sload\n      tag_23\n      swap1\n      tag_24\n      jump\t// in\n    tag_23:\n      dup1\n      0x1f\n      add\n      0x20\n      dup1\n      swap2\n      div\n      mul\n      0x20\n      add\n      mload(0x40)\n      swap1\n      dup2\n      add\n      0x40\n      mstore\n      dup1\n      swap3\n      swap2\n      swap1\n      dup2\n      dup2\n      mstore\n      0x20\n      add\n      dup3\n      dup1\n      sload\n      tag_25\n      swap1\n      tag_24\n      jump\t// in\n    tag_25:\n      dup1\n      iszero\n      tag_26\n      jumpi\n      dup1\n      0x1f\n      lt\n      tag_27\n      jumpi\n      0x0100\n      dup1\n      dup4\n      sload\n      div\n      mul\n      dup4\n      mstore\n      swap2\n      0x20\n      add\n      swap2\n      jump(tag_26)\n    tag_27:\n      dup3\n      add\n      swap2\n      swap1\n      0x00\n      mstore\n      keccak256(0x00, 0x20)\n      swap1\n    tag_28:\n      dup2\n      sload\n      dup2\n      mstore\n      swap1\n      0x01\n      add\n      swap1\n      0x20\n      add\n      dup1\n      dup4\n      gt\n      tag_28\n      jumpi\n      dup3\n      swap1\n      sub\n      0x1f\n      and\n      dup3\n      add\n      swap2\n    tag_26:\n      pop\n      pop\n      pop\n      pop\n      pop\n      dup2\n      mstore\n      0x20\n      add\n      0x02\n      dup3\n      add\n      0x00\n      swap1\n      sload\n      swap1\n      0x0100\n      exp\n      swap1\n      div\n      0xff\n      and\n      iszero\n      iszero\n      iszero\n      iszero\n      dup2\n      mstore\n      pop\n      pop\n      swap1\n      pop\n        /* \"contracts/TodoList.sol\":342:518  {\r... */\n      pop\n        /* \"contracts/TodoList.sol\":291:518  function createToDo(string memory _details) public {\r... */\n      pop\n      jump\t// out\n        /* \"contracts/TodoList.sol\":234:282  mapping(uint => TaskDetails) public Task_Details */\n    tag_13:\n      mstore(0x20, 0x01)\n      dup1\n      0x00\n      mstore\n      keccak256(0x00, 0x40)\n      0x00\n      swap2\n      pop\n      swap1\n      pop\n      dup1\n      0x00\n      add\n      sload\n      swap1\n      dup1\n      0x01\n      add\n      dup1\n      sload\n      tag_29\n      swap1\n      tag_24\n      jump\t// in\n    tag_29:\n      dup1\n      0x1f\n      add\n      0x20\n      dup1\n      swap2\n      div\n      mul\n      0x20\n      add\n      mload(0x40)\n      swap1\n      dup2\n      add\n      0x40\n      mstore\n      dup1\n      swap3\n      swap2\n      swap1\n      dup2\n      dup2\n      mstore\n      0x20\n      add\n      dup3\n      dup1\n      sload\n      tag_30\n      swap1\n      tag_24\n      jump\t// in\n    tag_30:\n      dup1\n      iszero\n      tag_31\n      jumpi\n      dup1\n      0x1f\n      lt\n      tag_32\n      jumpi\n      0x0100\n      dup1\n      dup4\n      sload\n      div\n      mul\n      dup4\n      mstore\n      swap2\n      0x20\n      add\n      swap2\n      jump(tag_31)\n    tag_32:\n      dup3\n      add\n      swap2\n      swap1\n      0x00\n      mstore\n      keccak256(0x00, 0x20)\n      swap1\n    tag_33:\n      dup2\n      sload\n      dup2\n      mstore\n      swap1\n      0x01\n      add\n      swap1\n      0x20\n      add\n      dup1\n      dup4\n      gt\n      tag_33\n      jumpi\n      dup3\n      swap1\n      sub\n      0x1f\n      and\n      dup3\n      add\n      swap2\n    tag_31:\n      pop\n      pop\n      pop\n      pop\n      pop\n      swap1\n      dup1\n      0x02\n      add\n      0x00\n      swap1\n      sload\n      swap1\n      0x0100\n      exp\n      swap1\n      div\n      0xff\n      and\n      swap1\n      pop\n      dup4\n      jump\t// out\n        /* \"contracts/TodoList.sol\":99:125  uint public TodoListNumber */\n    tag_17:\n      sload(0x00)\n      dup2\n      jump\t// out\n        /* \"#utility.yul\":7:419   */\n    tag_35:\n        /* \"#utility.yul\":85:90   */\n      0x00\n        /* \"#utility.yul\":110:176   */\n      tag_37\n        /* \"#utility.yul\":126:175   */\n      tag_38\n        /* \"#utility.yul\":168:174   */\n      dup5\n        /* \"#utility.yul\":126:175   */\n      tag_39\n      jump\t// in\n    tag_38:\n        /* \"#utility.yul\":110:176   */\n      tag_40\n      jump\t// in\n    tag_37:\n        /* \"#utility.yul\":101:176   */\n      swap1\n      pop\n        /* \"#utility.yul\":199:205   */\n      dup3\n        /* \"#utility.yul\":192:197   */\n      dup2\n        /* \"#utility.yul\":185:206   */\n      mstore\n        /* \"#utility.yul\":237:241   */\n      0x20\n        /* \"#utility.yul\":230:235   */\n      dup2\n        /* \"#utility.yul\":226:242   */\n      add\n        /* \"#utility.yul\":275:278   */\n      dup5\n        /* \"#utility.yul\":266:272   */\n      dup5\n        /* \"#utility.yul\":261:264   */\n      dup5\n        /* \"#utility.yul\":257:273   */\n      add\n        /* \"#utility.yul\":254:279   */\n      gt\n        /* \"#utility.yul\":251:363   */\n      iszero\n      tag_41\n      jumpi\n        /* \"#utility.yul\":282:361   */\n      tag_42\n      tag_43\n      jump\t// in\n    tag_42:\n        /* \"#utility.yul\":251:363   */\n    tag_41:\n        /* \"#utility.yul\":372:413   */\n      tag_44\n        /* \"#utility.yul\":406:412   */\n      dup5\n        /* \"#utility.yul\":401:404   */\n      dup3\n        /* \"#utility.yul\":396:399   */\n      dup6\n        /* \"#utility.yul\":372:413   */\n      tag_45\n      jump\t// in\n    tag_44:\n        /* \"#utility.yul\":91:419   */\n      pop\n        /* \"#utility.yul\":7:419   */\n      swap4\n      swap3\n      pop\n      pop\n      pop\n      jump\t// out\n        /* \"#utility.yul\":439:779   */\n    tag_46:\n        /* \"#utility.yul\":495:500   */\n      0x00\n        /* \"#utility.yul\":544:547   */\n      dup3\n        /* \"#utility.yul\":537:541   */\n      0x1f\n        /* \"#utility.yul\":529:535   */\n      dup4\n        /* \"#utility.yul\":525:542   */\n      add\n        /* \"#utility.yul\":521:548   */\n      slt\n        /* \"#utility.yul\":511:633   */\n      tag_48\n      jumpi\n        /* \"#utility.yul\":552:631   */\n      tag_49\n      tag_50\n      jump\t// in\n    tag_49:\n        /* \"#utility.yul\":511:633   */\n    tag_48:\n        /* \"#utility.yul\":669:675   */\n      dup2\n        /* \"#utility.yul\":656:676   */\n      calldataload\n        /* \"#utility.yul\":694:773   */\n      tag_51\n        /* \"#utility.yul\":769:772   */\n      dup5\n        /* \"#utility.yul\":761:767   */\n      dup3\n        /* \"#utility.yul\":754:758   */\n      0x20\n        /* \"#utility.yul\":746:752   */\n      dup7\n        /* \"#utility.yul\":742:759   */\n      add\n        /* \"#utility.yul\":694:773   */\n      tag_35\n      jump\t// in\n    tag_51:\n        /* \"#utility.yul\":685:773   */\n      swap2\n      pop\n        /* \"#utility.yul\":501:779   */\n      pop\n        /* \"#utility.yul\":439:779   */\n      swap3\n      swap2\n      pop\n      pop\n      jump\t// out\n        /* \"#utility.yul\":785:924   */\n    tag_52:\n        /* \"#utility.yul\":831:836   */\n      0x00\n        /* \"#utility.yul\":869:875   */\n      dup2\n        /* \"#utility.yul\":856:876   */\n      calldataload\n        /* \"#utility.yul\":847:876   */\n      swap1\n      pop\n        /* \"#utility.yul\":885:918   */\n      tag_54\n        /* \"#utility.yul\":912:917   */\n      dup2\n        /* \"#utility.yul\":885:918   */\n      tag_55\n      jump\t// in\n    tag_54:\n        /* \"#utility.yul\":785:924   */\n      swap3\n      swap2\n      pop\n      pop\n      jump\t// out\n        /* \"#utility.yul\":930:1439   */\n    tag_8:\n        /* \"#utility.yul\":999:1005   */\n      0x00\n        /* \"#utility.yul\":1048:1050   */\n      0x20\n        /* \"#utility.yul\":1036:1045   */\n      dup3\n        /* \"#utility.yul\":1027:1034   */\n      dup5\n        /* \"#utility.yul\":1023:1046   */\n      sub\n        /* \"#utility.yul\":1019:1051   */\n      slt\n        /* \"#utility.yul\":1016:1135   */\n      iszero\n      tag_57\n      jumpi\n        /* \"#utility.yul\":1054:1133   */\n      tag_58\n      tag_59\n      jump\t// in\n    tag_58:\n        /* \"#utility.yul\":1016:1135   */\n    tag_57:\n        /* \"#utility.yul\":1202:1203   */\n      0x00\n        /* \"#utility.yul\":1191:1200   */\n      dup3\n        /* \"#utility.yul\":1187:1204   */\n      add\n        /* \"#utility.yul\":1174:1205   */\n      calldataload\n        /* \"#utility.yul\":1232:1250   */\n      0xffffffffffffffff\n        /* \"#utility.yul\":1224:1230   */\n      dup2\n        /* \"#utility.yul\":1221:1251   */\n      gt\n        /* \"#utility.yul\":1218:1335   */\n      iszero\n      tag_60\n      jumpi\n        /* \"#utility.yul\":1254:1333   */\n      tag_61\n      tag_62\n      jump\t// in\n    tag_61:\n        /* \"#utility.yul\":1218:1335   */\n    tag_60:\n        /* \"#utility.yul\":1359:1422   */\n      tag_63\n        /* \"#utility.yul\":1414:1421   */\n      dup5\n        /* \"#utility.yul\":1405:1411   */\n      dup3\n        /* \"#utility.yul\":1394:1403   */\n      dup6\n        /* \"#utility.yul\":1390:1412   */\n      add\n        /* \"#utility.yul\":1359:1422   */\n      tag_46\n      jump\t// in\n    tag_63:\n        /* \"#utility.yul\":1349:1422   */\n      swap2\n      pop\n        /* \"#utility.yul\":1145:1432   */\n      pop\n        /* \"#utility.yul\":930:1439   */\n      swap3\n      swap2\n      pop\n      pop\n      jump\t// out\n        /* \"#utility.yul\":1445:1774   */\n    tag_12:\n        /* \"#utility.yul\":1504:1510   */\n      0x00\n        /* \"#utility.yul\":1553:1555   */\n      0x20\n        /* \"#utility.yul\":1541:1550   */\n      dup3\n        /* \"#utility.yul\":1532:1539   */\n      dup5\n        /* \"#utility.yul\":1528:1551   */\n      sub\n        /* \"#utility.yul\":1524:1556   */\n      slt\n        /* \"#utility.yul\":1521:1640   */\n      iszero\n      tag_65\n      jumpi\n        /* \"#utility.yul\":1559:1638   */\n      tag_66\n      tag_59\n      jump\t// in\n    tag_66:\n        /* \"#utility.yul\":1521:1640   */\n    tag_65:\n        /* \"#utility.yul\":1679:1680   */\n      0x00\n        /* \"#utility.yul\":1704:1757   */\n      tag_67\n        /* \"#utility.yul\":1749:1756   */\n      dup5\n        /* \"#utility.yul\":1740:1746   */\n      dup3\n        /* \"#utility.yul\":1729:1738   */\n      dup6\n        /* \"#utility.yul\":1725:1747   */\n      add\n        /* \"#utility.yul\":1704:1757   */\n      tag_52\n      jump\t// in\n    tag_67:\n        /* \"#utility.yul\":1694:1757   */\n      swap2\n      pop\n        /* \"#utility.yul\":1650:1767   */\n      pop\n        /* \"#utility.yul\":1445:1774   */\n      swap3\n      swap2\n      pop\n      pop\n      jump\t// out\n        /* \"#utility.yul\":1780:1889   */\n    tag_68:\n        /* \"#utility.yul\":1861:1882   */\n      tag_70\n        /* \"#utility.yul\":1876:1881   */\n      dup2\n        /* \"#utility.yul\":1861:1882   */\n      tag_71\n      jump\t// in\n    tag_70:\n        /* \"#utility.yul\":1856:1859   */\n      dup3\n        /* \"#utility.yul\":1849:1883   */\n      mstore\n        /* \"#utility.yul\":1780:1889   */\n      pop\n      pop\n      jump\t// out\n        /* \"#utility.yul\":1895:2259   */\n    tag_72:\n        /* \"#utility.yul\":1983:1986   */\n      0x00\n        /* \"#utility.yul\":2011:2050   */\n      tag_74\n        /* \"#utility.yul\":2044:2049   */\n      dup3\n        /* \"#utility.yul\":2011:2050   */\n      tag_75\n      jump\t// in\n    tag_74:\n        /* \"#utility.yul\":2066:2137   */\n      tag_76\n        /* \"#utility.yul\":2130:2136   */\n      dup2\n        /* \"#utility.yul\":2125:2128   */\n      dup6\n        /* \"#utility.yul\":2066:2137   */\n      tag_77\n      jump\t// in\n    tag_76:\n        /* \"#utility.yul\":2059:2137   */\n      swap4\n      pop\n        /* \"#utility.yul\":2146:2198   */\n      tag_78\n        /* \"#utility.yul\":2191:2197   */\n      dup2\n        /* \"#utility.yul\":2186:2189   */\n      dup6\n        /* \"#utility.yul\":2179:2183   */\n      0x20\n        /* \"#utility.yul\":2172:2177   */\n      dup7\n        /* \"#utility.yul\":2168:2184   */\n      add\n        /* \"#utility.yul\":2146:2198   */\n      tag_79\n      jump\t// in\n    tag_78:\n        /* \"#utility.yul\":2223:2252   */\n      tag_80\n        /* \"#utility.yul\":2245:2251   */\n      dup2\n        /* \"#utility.yul\":2223:2252   */\n      tag_81\n      jump\t// in\n    tag_80:\n        /* \"#utility.yul\":2218:2221   */\n      dup5\n        /* \"#utility.yul\":2214:2253   */\n      add\n        /* \"#utility.yul\":2207:2253   */\n      swap2\n      pop\n        /* \"#utility.yul\":1987:2259   */\n      pop\n        /* \"#utility.yul\":1895:2259   */\n      swap3\n      swap2\n      pop\n      pop\n      jump\t// out\n        /* \"#utility.yul\":2265:2383   */\n    tag_82:\n        /* \"#utility.yul\":2352:2376   */\n      tag_84\n        /* \"#utility.yul\":2370:2375   */\n      dup2\n        /* \"#utility.yul\":2352:2376   */\n      tag_85\n      jump\t// in\n    tag_84:\n        /* \"#utility.yul\":2347:2350   */\n      dup3\n        /* \"#utility.yul\":2340:2377   */\n      mstore\n        /* \"#utility.yul\":2265:2383   */\n      pop\n      pop\n      jump\t// out\n        /* \"#utility.yul\":2389:2611   */\n    tag_19:\n        /* \"#utility.yul\":2482:2486   */\n      0x00\n        /* \"#utility.yul\":2520:2522   */\n      0x20\n        /* \"#utility.yul\":2509:2518   */\n      dup3\n        /* \"#utility.yul\":2505:2523   */\n      add\n        /* \"#utility.yul\":2497:2523   */\n      swap1\n      pop\n        /* \"#utility.yul\":2533:2604   */\n      tag_87\n        /* \"#utility.yul\":2601:2602   */\n      0x00\n        /* \"#utility.yul\":2590:2599   */\n      dup4\n        /* \"#utility.yul\":2586:2603   */\n      add\n        /* \"#utility.yul\":2577:2583   */\n      dup5\n        /* \"#utility.yul\":2533:2604   */\n      tag_82\n      jump\t// in\n    tag_87:\n        /* \"#utility.yul\":2389:2611   */\n      swap3\n      swap2\n      pop\n      pop\n      jump\t// out\n        /* \"#utility.yul\":2617:3138   */\n    tag_15:\n        /* \"#utility.yul\":2780:2784   */\n      0x00\n        /* \"#utility.yul\":2818:2820   */\n      0x60\n        /* \"#utility.yul\":2807:2816   */\n      dup3\n        /* \"#utility.yul\":2803:2821   */\n      add\n        /* \"#utility.yul\":2795:2821   */\n      swap1\n      pop\n        /* \"#utility.yul\":2831:2902   */\n      tag_89\n        /* \"#utility.yul\":2899:2900   */\n      0x00\n        /* \"#utility.yul\":2888:2897   */\n      dup4\n        /* \"#utility.yul\":2884:2901   */\n      add\n        /* \"#utility.yul\":2875:2881   */\n      dup7\n        /* \"#utility.yul\":2831:2902   */\n      tag_82\n      jump\t// in\n    tag_89:\n        /* \"#utility.yul\":2949:2958   */\n      dup2\n        /* \"#utility.yul\":2943:2947   */\n      dup2\n        /* \"#utility.yul\":2939:2959   */\n      sub\n        /* \"#utility.yul\":2934:2936   */\n      0x20\n        /* \"#utility.yul\":2923:2932   */\n      dup4\n        /* \"#utility.yul\":2919:2937   */\n      add\n        /* \"#utility.yul\":2912:2960   */\n      mstore\n        /* \"#utility.yul\":2977:3055   */\n      tag_90\n        /* \"#utility.yul\":3050:3054   */\n      dup2\n        /* \"#utility.yul\":3041:3047   */\n      dup6\n        /* \"#utility.yul\":2977:3055   */\n      tag_72\n      jump\t// in\n    tag_90:\n        /* \"#utility.yul\":2969:3055   */\n      swap1\n      pop\n        /* \"#utility.yul\":3065:3131   */\n      tag_91\n        /* \"#utility.yul\":3127:3129   */\n      0x40\n        /* \"#utility.yul\":3116:3125   */\n      dup4\n        /* \"#utility.yul\":3112:3130   */\n      add\n        /* \"#utility.yul\":3103:3109   */\n      dup5\n        /* \"#utility.yul\":3065:3131   */\n      tag_68\n      jump\t// in\n    tag_91:\n        /* \"#utility.yul\":2617:3138   */\n      swap5\n      swap4\n      pop\n      pop\n      pop\n      pop\n      jump\t// out\n        /* \"#utility.yul\":3144:3273   */\n    tag_40:\n        /* \"#utility.yul\":3178:3184   */\n      0x00\n        /* \"#utility.yul\":3205:3225   */\n      tag_93\n      tag_94\n      jump\t// in\n    tag_93:\n        /* \"#utility.yul\":3195:3225   */\n      swap1\n      pop\n        /* \"#utility.yul\":3234:3267   */\n      tag_95\n        /* \"#utility.yul\":3262:3266   */\n      dup3\n        /* \"#utility.yul\":3254:3260   */\n      dup3\n        /* \"#utility.yul\":3234:3267   */\n      tag_96\n      jump\t// in\n    tag_95:\n        /* \"#utility.yul\":3144:3273   */\n      swap2\n      swap1\n      pop\n      jump\t// out\n        /* \"#utility.yul\":3279:3354   */\n    tag_94:\n        /* \"#utility.yul\":3312:3318   */\n      0x00\n        /* \"#utility.yul\":3345:3347   */\n      0x40\n        /* \"#utility.yul\":3339:3348   */\n      mload\n        /* \"#utility.yul\":3329:3348   */\n      swap1\n      pop\n        /* \"#utility.yul\":3279:3354   */\n      swap1\n      jump\t// out\n        /* \"#utility.yul\":3360:3668   */\n    tag_39:\n        /* \"#utility.yul\":3422:3426   */\n      0x00\n        /* \"#utility.yul\":3512:3530   */\n      0xffffffffffffffff\n        /* \"#utility.yul\":3504:3510   */\n      dup3\n        /* \"#utility.yul\":3501:3531   */\n      gt\n        /* \"#utility.yul\":3498:3554   */\n      iszero\n      tag_99\n      jumpi\n        /* \"#utility.yul\":3534:3552   */\n      tag_100\n      tag_101\n      jump\t// in\n    tag_100:\n        /* \"#utility.yul\":3498:3554   */\n    tag_99:\n        /* \"#utility.yul\":3572:3601   */\n      tag_102\n        /* \"#utility.yul\":3594:3600   */\n      dup3\n        /* \"#utility.yul\":3572:3601   */\n      tag_81\n      jump\t// in\n    tag_102:\n        /* \"#utility.yul\":3564:3601   */\n      swap1\n      pop\n        /* \"#utility.yul\":3656:3660   */\n      0x20\n        /* \"#utility.yul\":3650:3654   */\n      dup2\n        /* \"#utility.yul\":3646:3661   */\n      add\n        /* \"#utility.yul\":3638:3661   */\n      swap1\n      pop\n        /* \"#utility.yul\":3360:3668   */\n      swap2\n      swap1\n      pop\n      jump\t// out\n        /* \"#utility.yul\":3674:3773   */\n    tag_75:\n        /* \"#utility.yul\":3726:3732   */\n      0x00\n        /* \"#utility.yul\":3760:3765   */\n      dup2\n        /* \"#utility.yul\":3754:3766   */\n      mload\n        /* \"#utility.yul\":3744:3766   */\n      swap1\n      pop\n        /* \"#utility.yul\":3674:3773   */\n      swap2\n      swap1\n      pop\n      jump\t// out\n        /* \"#utility.yul\":3779:3948   */\n    tag_77:\n        /* \"#utility.yul\":3863:3874   */\n      0x00\n        /* \"#utility.yul\":3897:3903   */\n      dup3\n        /* \"#utility.yul\":3892:3895   */\n      dup3\n        /* \"#utility.yul\":3885:3904   */\n      mstore\n        /* \"#utility.yul\":3937:3941   */\n      0x20\n        /* \"#utility.yul\":3932:3935   */\n      dup3\n        /* \"#utility.yul\":3928:3942   */\n      add\n        /* \"#utility.yul\":3913:3942   */\n      swap1\n      pop\n        /* \"#utility.yul\":3779:3948   */\n      swap3\n      swap2\n      pop\n      pop\n      jump\t// out\n        /* \"#utility.yul\":3954:4044   */\n    tag_71:\n        /* \"#utility.yul\":3988:3995   */\n      0x00\n        /* \"#utility.yul\":4031:4036   */\n      dup2\n        /* \"#utility.yul\":4024:4037   */\n      iszero\n        /* \"#utility.yul\":4017:4038   */\n      iszero\n        /* \"#utility.yul\":4006:4038   */\n      swap1\n      pop\n        /* \"#utility.yul\":3954:4044   */\n      swap2\n      swap1\n      pop\n      jump\t// out\n        /* \"#utility.yul\":4050:4127   */\n    tag_85:\n        /* \"#utility.yul\":4087:4094   */\n      0x00\n        /* \"#utility.yul\":4116:4121   */\n      dup2\n        /* \"#utility.yul\":4105:4121   */\n      swap1\n      pop\n        /* \"#utility.yul\":4050:4127   */\n      swap2\n      swap1\n      pop\n      jump\t// out\n        /* \"#utility.yul\":4133:4287   */\n    tag_45:\n        /* \"#utility.yul\":4217:4223   */\n      dup3\n        /* \"#utility.yul\":4212:4215   */\n      dup2\n        /* \"#utility.yul\":4207:4210   */\n      dup4\n        /* \"#utility.yul\":4194:4224   */\n      calldatacopy\n        /* \"#utility.yul\":4279:4280   */\n      0x00\n        /* \"#utility.yul\":4270:4276   */\n      dup4\n        /* \"#utility.yul\":4265:4268   */\n      dup4\n        /* \"#utility.yul\":4261:4277   */\n      add\n        /* \"#utility.yul\":4254:4281   */\n      mstore\n        /* \"#utility.yul\":4133:4287   */\n      pop\n      pop\n      pop\n      jump\t// out\n        /* \"#utility.yul\":4293:4600   */\n    tag_79:\n        /* \"#utility.yul\":4361:4362   */\n      0x00\n        /* \"#utility.yul\":4371:4484   */\n    tag_109:\n        /* \"#utility.yul\":4385:4391   */\n      dup4\n        /* \"#utility.yul\":4382:4383   */\n      dup2\n        /* \"#utility.yul\":4379:4392   */\n      lt\n        /* \"#utility.yul\":4371:4484   */\n      iszero\n      tag_111\n      jumpi\n        /* \"#utility.yul\":4470:4471   */\n      dup1\n        /* \"#utility.yul\":4465:4468   */\n      dup3\n        /* \"#utility.yul\":4461:4472   */\n      add\n        /* \"#utility.yul\":4455:4473   */\n      mload\n        /* \"#utility.yul\":4451:4452   */\n      dup2\n        /* \"#utility.yul\":4446:4449   */\n      dup5\n        /* \"#utility.yul\":4442:4453   */\n      add\n        /* \"#utility.yul\":4435:4474   */\n      mstore\n        /* \"#utility.yul\":4407:4409   */\n      0x20\n        /* \"#utility.yul\":4404:4405   */\n      dup2\n        /* \"#utility.yul\":4400:4410   */\n      add\n        /* \"#utility.yul\":4395:4410   */\n      swap1\n      pop\n        /* \"#utility.yul\":4371:4484   */\n      jump(tag_109)\n    tag_111:\n        /* \"#utility.yul\":4502:4508   */\n      dup4\n        /* \"#utility.yul\":4499:4500   */\n      dup2\n        /* \"#utility.yul\":4496:4509   */\n      gt\n        /* \"#utility.yul\":4493:4594   */\n      iszero\n      tag_112\n      jumpi\n        /* \"#utility.yul\":4582:4583   */\n      0x00\n        /* \"#utility.yul\":4573:4579   */\n      dup5\n        /* \"#utility.yul\":4568:4571   */\n      dup5\n        /* \"#utility.yul\":4564:4580   */\n      add\n        /* \"#utility.yul\":4557:4584   */\n      mstore\n        /* \"#utility.yul\":4493:4594   */\n    tag_112:\n        /* \"#utility.yul\":4342:4600   */\n      pop\n        /* \"#utility.yul\":4293:4600   */\n      pop\n      pop\n      pop\n      jump\t// out\n        /* \"#utility.yul\":4606:4926   */\n    tag_24:\n        /* \"#utility.yul\":4650:4656   */\n      0x00\n        /* \"#utility.yul\":4687:4688   */\n      0x02\n        /* \"#utility.yul\":4681:4685   */\n      dup3\n        /* \"#utility.yul\":4677:4689   */\n      div\n        /* \"#utility.yul\":4667:4689   */\n      swap1\n      pop\n        /* \"#utility.yul\":4734:4735   */\n      0x01\n        /* \"#utility.yul\":4728:4732   */\n      dup3\n        /* \"#utility.yul\":4724:4736   */\n      and\n        /* \"#utility.yul\":4755:4773   */\n      dup1\n        /* \"#utility.yul\":4745:4826   */\n      tag_114\n      jumpi\n        /* \"#utility.yul\":4811:4815   */\n      0x7f\n        /* \"#utility.yul\":4803:4809   */\n      dup3\n        /* \"#utility.yul\":4799:4816   */\n      and\n        /* \"#utility.yul\":4789:4816   */\n      swap2\n      pop\n        /* \"#utility.yul\":4745:4826   */\n    tag_114:\n        /* \"#utility.yul\":4873:4875   */\n      0x20\n        /* \"#utility.yul\":4865:4871   */\n      dup3\n        /* \"#utility.yul\":4862:4876   */\n      lt\n        /* \"#utility.yul\":4842:4860   */\n      dup2\n        /* \"#utility.yul\":4839:4877   */\n      eq\n        /* \"#utility.yul\":4836:4920   */\n      iszero\n      tag_115\n      jumpi\n        /* \"#utility.yul\":4892:4910   */\n      tag_116\n      tag_117\n      jump\t// in\n    tag_116:\n        /* \"#utility.yul\":4836:4920   */\n    tag_115:\n        /* \"#utility.yul\":4657:4926   */\n      pop\n        /* \"#utility.yul\":4606:4926   */\n      swap2\n      swap1\n      pop\n      jump\t// out\n        /* \"#utility.yul\":4932:5213   */\n    tag_96:\n        /* \"#utility.yul\":5015:5042   */\n      tag_119\n        /* \"#utility.yul\":5037:5041   */\n      dup3\n        /* \"#utility.yul\":5015:5042   */\n      tag_81\n      jump\t// in\n    tag_119:\n        /* \"#utility.yul\":5007:5013   */\n      dup2\n        /* \"#utility.yul\":5003:5043   */\n      add\n        /* \"#utility.yul\":5145:5151   */\n      dup2\n        /* \"#utility.yul\":5133:5143   */\n      dup2\n        /* \"#utility.yul\":5130:5152   */\n      lt\n        /* \"#utility.yul\":5109:5127   */\n      0xffffffffffffffff\n        /* \"#utility.yul\":5097:5107   */\n      dup3\n        /* \"#utility.yul\":5094:5128   */\n      gt\n        /* \"#utility.yul\":5091:5153   */\n      or\n        /* \"#utility.yul\":5088:5176   */\n      iszero\n      tag_120\n      jumpi\n        /* \"#utility.yul\":5156:5174   */\n      tag_121\n      tag_101\n      jump\t// in\n    tag_121:\n        /* \"#utility.yul\":5088:5176   */\n    tag_120:\n        /* \"#utility.yul\":5196:5206   */\n      dup1\n        /* \"#utility.yul\":5192:5194   */\n      0x40\n        /* \"#utility.yul\":5185:5207   */\n      mstore\n        /* \"#utility.yul\":4975:5213   */\n      pop\n        /* \"#utility.yul\":4932:5213   */\n      pop\n      pop\n      jump\t// out\n        /* \"#utility.yul\":5219:5452   */\n    tag_22:\n        /* \"#utility.yul\":5258:5261   */\n      0x00\n        /* \"#utility.yul\":5281:5305   */\n      tag_123\n        /* \"#utility.yul\":5299:5304   */\n      dup3\n        /* \"#utility.yul\":5281:5305   */\n      tag_85\n      jump\t// in\n    tag_123:\n        /* \"#utility.yul\":5272:5305   */\n      swap2\n      pop\n        /* \"#utility.yul\":5327:5393   */\n      0xffffffffffffffffffffffffffffffffffffffffffffffffffffffffffffffff\n        /* \"#utility.yul\":5320:5325   */\n      dup3\n        /* \"#utility.yul\":5317:5394   */\n      eq\n        /* \"#utility.yul\":5314:5417   */\n      iszero\n      tag_124\n      jumpi\n        /* \"#utility.yul\":5397:5415   */\n      tag_125\n      tag_126\n      jump\t// in\n    tag_125:\n        /* \"#utility.yul\":5314:5417   */\n    tag_124:\n        /* \"#utility.yul\":5444:5445   */\n      0x01\n        /* \"#utility.yul\":5437:5442   */\n      dup3\n        /* \"#utility.yul\":5433:5446   */\n      add\n        /* \"#utility.yul\":5426:5446   */\n      swap1\n      pop\n        /* \"#utility.yul\":5219:5452   */\n      swap2\n      swap1\n      pop\n      jump\t// out\n        /* \"#utility.yul\":5458:5638   */\n    tag_126:\n        /* \"#utility.yul\":5506:5583   */\n      0x4e487b7100000000000000000000000000000000000000000000000000000000\n        /* \"#utility.yul\":5503:5504   */\n      0x00\n        /* \"#utility.yul\":5496:5584   */\n      mstore\n        /* \"#utility.yul\":5603:5607   */\n      0x11\n        /* \"#utility.yul\":5600:5601   */\n      0x04\n        /* \"#utility.yul\":5593:5608   */\n      mstore\n        /* \"#utility.yul\":5627:5631   */\n      0x24\n        /* \"#utility.yul\":5624:5625   */\n      0x00\n        /* \"#utility.yul\":5617:5632   */\n      revert\n        /* \"#utility.yul\":5644:5824   */\n    tag_117:\n        /* \"#utility.yul\":5692:5769   */\n      0x4e487b7100000000000000000000000000000000000000000000000000000000\n        /* \"#utility.yul\":5689:5690   */\n      0x00\n        /* \"#utility.yul\":5682:5770   */\n      mstore\n        /* \"#utility.yul\":5789:5793   */\n      0x22\n        /* \"#utility.yul\":5786:5787   */\n      0x04\n        /* \"#utility.yul\":5779:5794   */\n      mstore\n        /* \"#utility.yul\":5813:5817   */\n      0x24\n        /* \"#utility.yul\":5810:5811   */\n      0x00\n        /* \"#utility.yul\":5803:5818   */\n      revert\n        /* \"#utility.yul\":5830:6010   */\n    tag_101:\n        /* \"#utility.yul\":5878:5955   */\n      0x4e487b7100000000000000000000000000000000000000000000000000000000\n        /* \"#utility.yul\":5875:5876   */\n      0x00\n        /* \"#utility.yul\":5868:5956   */\n      mstore\n        /* \"#utility.yul\":5975:5979   */\n      0x41\n        /* \"#utility.yul\":5972:5973   */\n      0x04\n        /* \"#utility.yul\":5965:5980   */\n      mstore\n        /* \"#utility.yul\":5999:6003   */\n      0x24\n        /* \"#utility.yul\":5996:5997   */\n      0x00\n        /* \"#utility.yul\":5989:6004   */\n      revert\n        /* \"#utility.yul\":6016:6133   */\n    tag_50:\n        /* \"#utility.yul\":6125:6126   */\n      0x00\n        /* \"#utility.yul\":6122:6123   */\n      dup1\n        /* \"#utility.yul\":6115:6127   */\n      revert\n        /* \"#utility.yul\":6139:6256   */\n    tag_43:\n        /* \"#utility.yul\":6248:6249   */\n      0x00\n        /* \"#utility.yul\":6245:6246   */\n      dup1\n        /* \"#utility.yul\":6238:6250   */\n      revert\n        /* \"#utility.yul\":6262:6379   */\n    tag_62:\n        /* \"#utility.yul\":6371:6372   */\n      0x00\n        /* \"#utility.yul\":6368:6369   */\n      dup1\n        /* \"#utility.yul\":6361:6373   */\n      revert\n        /* \"#utility.yul\":6385:6502   */\n    tag_59:\n        /* \"#utility.yul\":6494:6495   */\n      0x00\n        /* \"#utility.yul\":6491:6492   */\n      dup1\n        /* \"#utility.yul\":6484:6496   */\n      revert\n        /* \"#utility.yul\":6508:6610   */\n    tag_81:\n        /* \"#utility.yul\":6549:6555   */\n      0x00\n        /* \"#utility.yul\":6600:6602   */\n      0x1f\n        /* \"#utility.yul\":6596:6603   */\n      not\n        /* \"#utility.yul\":6591:6593   */\n      0x1f\n        /* \"#utility.yul\":6584:6589   */\n      dup4\n        /* \"#utility.yul\":6580:6594   */\n      add\n        /* \"#utility.yul\":6576:6604   */\n      and\n        /* \"#utility.yul\":6566:6604   */\n      swap1\n      pop\n        /* \"#utility.yul\":6508:6610   */\n      swap2\n      swap1\n      pop\n      jump\t// out\n        /* \"#utility.yul\":6616:6738   */\n    tag_55:\n        /* \"#utility.yul\":6689:6713   */\n      tag_136\n        /* \"#utility.yul\":6707:6712   */\n      dup2\n        /* \"#utility.yul\":6689:6713   */\n      tag_85\n      jump\t// in\n    tag_136:\n        /* \"#utility.yul\":6682:6687   */\n      dup2\n        /* \"#utility.yul\":6679:6714   */\n      eq\n        /* \"#utility.yul\":6669:6732   */\n      tag_137\n      jumpi\n        /* \"#utility.yul\":6728:6729   */\n      0x00\n        /* \"#utility.yul\":6725:6726   */\n      dup1\n        /* \"#utility.yul\":6718:6730   */\n      revert\n        /* \"#utility.yul\":6669:6732   */\n    tag_137:\n        /* \"#utility.yul\":6616:6738   */\n      pop\n      jump\t// out\n\n    auxdata: 0xa26469706673582212206d341b944b8a8735d15571a342f81f2a97ef758e0f6efe2e93704bde41f9bb9964736f6c63430008070033\n}\n",
				"bytecode": {
					"linkReferences": {},
					"object": "608060405234801561001057600080fd5b5061068c806100206000396000f3fe608060405234801561001057600080fd5b50600436106100415760003560e01c806360cf802f14610046578063a1dbe01714610062578063a25b79ca14610094575b600080fd5b610060600480360381019061005b91906102f1565b6100b2565b005b61007c6004803603810190610077919061033a565b6101a7565b60405161008b939291906103d9565b60405180910390f35b61009c610266565b6040516100a991906103be565b60405180910390f35b6000808154809291906100c490610544565b91905055506000600160008054815260200190815260200160002060405180606001604052908160008201548152602001600182018054610104906104e1565b80601f0160208091040260200160405190810160405280929190818152602001828054610130906104e1565b801561017d5780601f106101525761010080835404028352916020019161017d565b820191906000526020600020905b81548152906001019060200180831161016057829003601f168201915b505050505081526020016002820160009054906101000a900460ff16151515158152505090505050565b60016020528060005260406000206000915090508060000154908060010180546101d0906104e1565b80601f01602080910402602001604051908101604052809291908181526020018280546101fc906104e1565b80156102495780601f1061021e57610100808354040283529160200191610249565b820191906000526020600020905b81548152906001019060200180831161022c57829003601f168201915b5050505050908060020160009054906101000a900460ff16905083565b60005481565b600061027f61027a8461043c565b610417565b90508281526020810184848401111561029b5761029a61061f565b5b6102a684828561049f565b509392505050565b600082601f8301126102c3576102c261061a565b5b81356102d384826020860161026c565b91505092915050565b6000813590506102eb8161063f565b92915050565b60006020828403121561030757610306610629565b5b600082013567ffffffffffffffff81111561032557610324610624565b5b610331848285016102ae565b91505092915050565b6000602082840312156103505761034f610629565b5b600061035e848285016102dc565b91505092915050565b61037081610489565b82525050565b60006103818261046d565b61038b8185610478565b935061039b8185602086016104ae565b6103a48161062e565b840191505092915050565b6103b881610495565b82525050565b60006020820190506103d360008301846103af565b92915050565b60006060820190506103ee60008301866103af565b81810360208301526104008185610376565b905061040f6040830184610367565b949350505050565b6000610421610432565b905061042d8282610513565b919050565b6000604051905090565b600067ffffffffffffffff821115610457576104566105eb565b5b6104608261062e565b9050602081019050919050565b600081519050919050565b600082825260208201905092915050565b60008115159050919050565b6000819050919050565b82818337600083830152505050565b60005b838110156104cc5780820151818401526020810190506104b1565b838111156104db576000848401525b50505050565b600060028204905060018216806104f957607f821691505b6020821081141561050d5761050c6105bc565b5b50919050565b61051c8261062e565b810181811067ffffffffffffffff8211171561053b5761053a6105eb565b5b80604052505050565b600061054f82610495565b91507fffffffffffffffffffffffffffffffffffffffffffffffffffffffffffffffff8214156105825761058161058d565b5b600182019050919050565b7f4e487b7100000000000000000000000000000000000000000000000000000000600052601160045260246000fd5b7f4e487b7100000000000000000000000000000000000000000000000000000000600052602260045260246000fd5b7f4e487b7100000000000000000000000000000000000000000000000000000000600052604160045260246000fd5b600080fd5b600080fd5b600080fd5b600080fd5b6000601f19601f8301169050919050565b61064881610495565b811461065357600080fd5b5056fea26469706673582212206d341b944b8a8735d15571a342f81f2a97ef758e0f6efe2e93704bde41f9bb9964736f6c63430008070033",
					"opcodes": "PUSH1 0x80 PUSH1 0x40 MSTORE CALLVALUE DUP1 ISZERO PUSH2 0x10 JUMPI PUSH1 0x0 DUP1 REVERT JUMPDEST POP PUSH2 0x68C DUP1 PUSH2 0x20 PUSH1 0x0 CODECOPY PUSH1 0x0 RETURN INVALID PUSH1 0x80 PUSH1 0x40 MSTORE CALLVALUE DUP1 ISZERO PUSH2 0x10 JUMPI PUSH1 0x0 DUP1 REVERT JUMPDEST POP PUSH1 0x4 CALLDATASIZE LT PUSH2 0x41 JUMPI PUSH1 0x0 CALLDATALOAD PUSH1 0xE0 SHR DUP1 PUSH4 0x60CF802F EQ PUSH2 0x46 JUMPI DUP1 PUSH4 0xA1DBE017 EQ PUSH2 0x62 JUMPI DUP1 PUSH4 0xA25B79CA EQ PUSH2 0x94 JUMPI JUMPDEST PUSH1 0x0 DUP1 REVERT JUMPDEST PUSH2 0x60 PUSH1 0x4 DUP1 CALLDATASIZE SUB DUP2 ADD SWAP1 PUSH2 0x5B SWAP2 SWAP1 PUSH2 0x2F1 JUMP JUMPDEST PUSH2 0xB2 JUMP JUMPDEST STOP JUMPDEST PUSH2 0x7C PUSH1 0x4 DUP1 CALLDATASIZE SUB DUP2 ADD SWAP1 PUSH2 0x77 SWAP2 SWAP1 PUSH2 0x33A JUMP JUMPDEST PUSH2 0x1A7 JUMP JUMPDEST PUSH1 0x40 MLOAD PUSH2 0x8B SWAP4 SWAP3 SWAP2 SWAP1 PUSH2 0x3D9 JUMP JUMPDEST PUSH1 0x40 MLOAD DUP1 SWAP2 SUB SWAP1 RETURN JUMPDEST PUSH2 0x9C PUSH2 0x266 JUMP JUMPDEST PUSH1 0x40 MLOAD PUSH2 0xA9 SWAP2 SWAP1 PUSH2 0x3BE JUMP JUMPDEST PUSH1 0x40 MLOAD DUP1 SWAP2 SUB SWAP1 RETURN JUMPDEST PUSH1 0x0 DUP1 DUP2 SLOAD DUP1 SWAP3 SWAP2 SWAP1 PUSH2 0xC4 SWAP1 PUSH2 0x544 JUMP JUMPDEST SWAP2 SWAP1 POP SSTORE POP PUSH1 0x0 PUSH1 0x1 PUSH1 0x0 DUP1 SLOAD DUP2 MSTORE PUSH1 0x20 ADD SWAP1 DUP2 MSTORE PUSH1 0x20 ADD PUSH1 0x0 KECCAK256 PUSH1 0x40 MLOAD DUP1 PUSH1 0x60 ADD PUSH1 0x40 MSTORE SWAP1 DUP2 PUSH1 0x0 DUP3 ADD SLOAD DUP2 MSTORE PUSH1 0x20 ADD PUSH1 0x1 DUP3 ADD DUP1 SLOAD PUSH2 0x104 SWAP1 PUSH2 0x4E1 JUMP JUMPDEST DUP1 PUSH1 0x1F ADD PUSH1 0x20 DUP1 SWAP2 DIV MUL PUSH1 0x20 ADD PUSH1 0x40 MLOAD SWAP1 DUP2 ADD PUSH1 0x40 MSTORE DUP1 SWAP3 SWAP2 SWAP1 DUP2 DUP2 MSTORE PUSH1 0x20 ADD DUP3 DUP1 SLOAD PUSH2 0x130 SWAP1 PUSH2 0x4E1 JUMP JUMPDEST DUP1 ISZERO PUSH2 0x17D JUMPI DUP1 PUSH1 0x1F LT PUSH2 0x152 JUMPI PUSH2 0x100 DUP1 DUP4 SLOAD DIV MUL DUP4 MSTORE SWAP2 PUSH1 0x20 ADD SWAP2 PUSH2 0x17D JUMP JUMPDEST DUP3 ADD SWAP2 SWAP1 PUSH1 0x0 MSTORE PUSH1 0x20 PUSH1 0x0 KECCAK256 SWAP1 JUMPDEST DUP2 SLOAD DUP2 MSTORE SWAP1 PUSH1 0x1 ADD SWAP1 PUSH1 0x20 ADD DUP1 DUP4 GT PUSH2 0x160 JUMPI DUP3 SWAP1 SUB PUSH1 0x1F AND DUP3 ADD SWAP2 JUMPDEST POP POP POP POP POP DUP2 MSTORE PUSH1 0x20 ADD PUSH1 0x2 DUP3 ADD PUSH1 0x0 SWAP1 SLOAD SWAP1 PUSH2 0x100 EXP SWAP1 DIV PUSH1 0xFF AND ISZERO ISZERO ISZERO ISZERO DUP2 MSTORE POP POP SWAP1 POP POP POP JUMP JUMPDEST PUSH1 0x1 PUSH1 0x20 MSTORE DUP1 PUSH1 0x0 MSTORE PUSH1 0x40 PUSH1 0x0 KECCAK256 PUSH1 0x0 SWAP2 POP SWAP1 POP DUP1 PUSH1 0x0 ADD SLOAD SWAP1 DUP1 PUSH1 0x1 ADD DUP1 SLOAD PUSH2 0x1D0 SWAP1 PUSH2 0x4E1 JUMP JUMPDEST DUP1 PUSH1 0x1F ADD PUSH1 0x20 DUP1 SWAP2 DIV MUL PUSH1 0x20 ADD PUSH1 0x40 MLOAD SWAP1 DUP2 ADD PUSH1 0x40 MSTORE DUP1 SWAP3 SWAP2 SWAP1 DUP2 DUP2 MSTORE PUSH1 0x20 ADD DUP3 DUP1 SLOAD PUSH2 0x1FC SWAP1 PUSH2 0x4E1 JUMP JUMPDEST DUP1 ISZERO PUSH2 0x249 JUMPI DUP1 PUSH1 0x1F LT PUSH2 0x21E JUMPI PUSH2 0x100 DUP1 DUP4 SLOAD DIV MUL DUP4 MSTORE SWAP2 PUSH1 0x20 ADD SWAP2 PUSH2 0x249 JUMP JUMPDEST DUP3 ADD SWAP2 SWAP1 PUSH1 0x0 MSTORE PUSH1 0x20 PUSH1 0x0 KECCAK256 SWAP1 JUMPDEST DUP2 SLOAD DUP2 MSTORE SWAP1 PUSH1 0x1 ADD SWAP1 PUSH1 0x20 ADD DUP1 DUP4 GT PUSH2 0x22C JUMPI DUP3 SWAP1 SUB PUSH1 0x1F AND DUP3 ADD SWAP2 JUMPDEST POP POP POP POP POP SWAP1 DUP1 PUSH1 0x2 ADD PUSH1 0x0 SWAP1 SLOAD SWAP1 PUSH2 0x100 EXP SWAP1 DIV PUSH1 0xFF AND SWAP1 POP DUP4 JUMP JUMPDEST PUSH1 0x0 SLOAD DUP2 JUMP JUMPDEST PUSH1 0x0 PUSH2 0x27F PUSH2 0x27A DUP5 PUSH2 0x43C JUMP JUMPDEST PUSH2 0x417 JUMP JUMPDEST SWAP1 POP DUP3 DUP2 MSTORE PUSH1 0x20 DUP2 ADD DUP5 DUP5 DUP5 ADD GT ISZERO PUSH2 0x29B JUMPI PUSH2 0x29A PUSH2 0x61F JUMP JUMPDEST JUMPDEST PUSH2 0x2A6 DUP5 DUP3 DUP6 PUSH2 0x49F JUMP JUMPDEST POP SWAP4 SWAP3 POP POP POP JUMP JUMPDEST PUSH1 0x0 DUP3 PUSH1 0x1F DUP4 ADD SLT PUSH2 0x2C3 JUMPI PUSH2 0x2C2 PUSH2 0x61A JUMP JUMPDEST JUMPDEST DUP2 CALLDATALOAD PUSH2 0x2D3 DUP5 DUP3 PUSH1 0x20 DUP7 ADD PUSH2 0x26C JUMP JUMPDEST SWAP2 POP POP SWAP3 SWAP2 POP POP JUMP JUMPDEST PUSH1 0x0 DUP2 CALLDATALOAD SWAP1 POP PUSH2 0x2EB DUP2 PUSH2 0x63F JUMP JUMPDEST SWAP3 SWAP2 POP POP JUMP JUMPDEST PUSH1 0x0 PUSH1 0x20 DUP3 DUP5 SUB SLT ISZERO PUSH2 0x307 JUMPI PUSH2 0x306 PUSH2 0x629 JUMP JUMPDEST JUMPDEST PUSH1 0x0 DUP3 ADD CALLDATALOAD PUSH8 0xFFFFFFFFFFFFFFFF DUP2 GT ISZERO PUSH2 0x325 JUMPI PUSH2 0x324 PUSH2 0x624 JUMP JUMPDEST JUMPDEST PUSH2 0x331 DUP5 DUP3 DUP6 ADD PUSH2 0x2AE JUMP JUMPDEST SWAP2 POP POP SWAP3 SWAP2 POP POP JUMP JUMPDEST PUSH1 0x0 PUSH1 0x20 DUP3 DUP5 SUB SLT ISZERO PUSH2 0x350 JUMPI PUSH2 0x34F PUSH2 0x629 JUMP JUMPDEST JUMPDEST PUSH1 0x0 PUSH2 0x35E DUP5 DUP3 DUP6 ADD PUSH2 0x2DC JUMP JUMPDEST SWAP2 POP POP SWAP3 SWAP2 POP POP JUMP JUMPDEST PUSH2 0x370 DUP2 PUSH2 0x489 JUMP JUMPDEST DUP3 MSTORE POP POP JUMP JUMPDEST PUSH1 0x0 PUSH2 0x381 DUP3 PUSH2 0x46D JUMP JUMPDEST PUSH2 0x38B DUP2 DUP6 PUSH2 0x478 JUMP JUMPDEST SWAP4 POP PUSH2 0x39B DUP2 DUP6 PUSH1 0x20 DUP7 ADD PUSH2 0x4AE JUMP JUMPDEST PUSH2 0x3A4 DUP2 PUSH2 0x62E JUMP JUMPDEST DUP5 ADD SWAP2 POP POP SWAP3 SWAP2 POP POP JUMP JUMPDEST PUSH2 0x3B8 DUP2 PUSH2 0x495 JUMP JUMPDEST DUP3 MSTORE POP POP JUMP JUMPDEST PUSH1 0x0 PUSH1 0x20 DUP3 ADD SWAP1 POP PUSH2 0x3D3 PUSH1 0x0 DUP4 ADD DUP5 PUSH2 0x3AF JUMP JUMPDEST SWAP3 SWAP2 POP POP JUMP JUMPDEST PUSH1 0x0 PUSH1 0x60 DUP3 ADD SWAP1 POP PUSH2 0x3EE PUSH1 0x0 DUP4 ADD DUP7 PUSH2 0x3AF JUMP JUMPDEST DUP2 DUP2 SUB PUSH1 0x20 DUP4 ADD MSTORE PUSH2 0x400 DUP2 DUP6 PUSH2 0x376 JUMP JUMPDEST SWAP1 POP PUSH2 0x40F PUSH1 0x40 DUP4 ADD DUP5 PUSH2 0x367 JUMP JUMPDEST SWAP5 SWAP4 POP POP POP POP JUMP JUMPDEST PUSH1 0x0 PUSH2 0x421 PUSH2 0x432 JUMP JUMPDEST SWAP1 POP PUSH2 0x42D DUP3 DUP3 PUSH2 0x513 JUMP JUMPDEST SWAP2 SWAP1 POP JUMP JUMPDEST PUSH1 0x0 PUSH1 0x40 MLOAD SWAP1 POP SWAP1 JUMP JUMPDEST PUSH1 0x0 PUSH8 0xFFFFFFFFFFFFFFFF DUP3 GT ISZERO PUSH2 0x457 JUMPI PUSH2 0x456 PUSH2 0x5EB JUMP JUMPDEST JUMPDEST PUSH2 0x460 DUP3 PUSH2 0x62E JUMP JUMPDEST SWAP1 POP PUSH1 0x20 DUP2 ADD SWAP1 POP SWAP2 SWAP1 POP JUMP JUMPDEST PUSH1 0x0 DUP2 MLOAD SWAP1 POP SWAP2 SWAP1 POP JUMP JUMPDEST PUSH1 0x0 DUP3 DUP3 MSTORE PUSH1 0x20 DUP3 ADD SWAP1 POP SWAP3 SWAP2 POP POP JUMP JUMPDEST PUSH1 0x0 DUP2 ISZERO ISZERO SWAP1 POP SWAP2 SWAP1 POP JUMP JUMPDEST PUSH1 0x0 DUP2 SWAP1 POP SWAP2 SWAP1 POP JUMP JUMPDEST DUP3 DUP2 DUP4 CALLDATACOPY PUSH1 0x0 DUP4 DUP4 ADD MSTORE POP POP POP JUMP JUMPDEST PUSH1 0x0 JUMPDEST DUP4 DUP2 LT ISZERO PUSH2 0x4CC JUMPI DUP1 DUP3 ADD MLOAD DUP2 DUP5 ADD MSTORE PUSH1 0x20 DUP2 ADD SWAP1 POP PUSH2 0x4B1 JUMP JUMPDEST DUP4 DUP2 GT ISZERO PUSH2 0x4DB JUMPI PUSH1 0x0 DUP5 DUP5 ADD MSTORE JUMPDEST POP POP POP POP JUMP JUMPDEST PUSH1 0x0 PUSH1 0x2 DUP3 DIV SWAP1 POP PUSH1 0x1 DUP3 AND DUP1 PUSH2 0x4F9 JUMPI PUSH1 0x7F DUP3 AND SWAP2 POP JUMPDEST PUSH1 0x20 DUP3 LT DUP2 EQ ISZERO PUSH2 0x50D JUMPI PUSH2 0x50C PUSH2 0x5BC JUMP JUMPDEST JUMPDEST POP SWAP2 SWAP1 POP JUMP JUMPDEST PUSH2 0x51C DUP3 PUSH2 0x62E JUMP JUMPDEST DUP2 ADD DUP2 DUP2 LT PUSH8 0xFFFFFFFFFFFFFFFF DUP3 GT OR ISZERO PUSH2 0x53B JUMPI PUSH2 0x53A PUSH2 0x5EB JUMP JUMPDEST JUMPDEST DUP1 PUSH1 0x40 MSTORE POP POP POP JUMP JUMPDEST PUSH1 0x0 PUSH2 0x54F DUP3 PUSH2 0x495 JUMP JUMPDEST SWAP2 POP PUSH32 0xFFFFFFFFFFFFFFFFFFFFFFFFFFFFFFFFFFFFFFFFFFFFFFFFFFFFFFFFFFFFFFFF DUP3 EQ ISZERO PUSH2 0x582 JUMPI PUSH2 0x581 PUSH2 0x58D JUMP JUMPDEST JUMPDEST PUSH1 0x1 DUP3 ADD SWAP1 POP SWAP2 SWAP1 POP JUMP JUMPDEST PUSH32 0x4E487B7100000000000000000000000000000000000000000000000000000000 PUSH1 0x0 MSTORE PUSH1 0x11 PUSH1 0x4 MSTORE PUSH1 0x24 PUSH1 0x0 REVERT JUMPDEST PUSH32 0x4E487B7100000000000000000000000000000000000000000000000000000000 PUSH1 0x0 MSTORE PUSH1 0x22 PUSH1 0x4 MSTORE PUSH1 0x24 PUSH1 0x0 REVERT JUMPDEST PUSH32 0x4E487B7100000000000000000000000000000000000000000000000000000000 PUSH1 0x0 MSTORE PUSH1 0x41 PUSH1 0x4 MSTORE PUSH1 0x24 PUSH1 0x0 REVERT JUMPDEST PUSH1 0x0 DUP1 REVERT JUMPDEST PUSH1 0x0 DUP1 REVERT JUMPDEST PUSH1 0x0 DUP1 REVERT JUMPDEST PUSH1 0x0 DUP1 REVERT JUMPDEST PUSH1 0x0 PUSH1 0x1F NOT PUSH1 0x1F DUP4 ADD AND SWAP1 POP SWAP2 SWAP1 POP JUMP JUMPDEST PUSH2 0x648 DUP2 PUSH2 0x495 JUMP JUMPDEST DUP2 EQ PUSH2 0x653 JUMPI PUSH1 0x0 DUP1 REVERT JUMPDEST POP JUMP INVALID LOG2 PUSH5 0x6970667358 0x22 SLT KECCAK256 PUSH14 0x341B944B8A8735D15571A342F81F 0x2A SWAP8 0xEF PUSH22 0x8E0F6EFE2E93704BDE41F9BB9964736F6C6343000807 STOP CALLER "
				},
				"gasEstimates": {
					"creation": {
						"codeDepositCost": "335200",
						"executionCost": "374",
						"totalCost": "335574"
					},
					"external": {
						"Task_Details(uint256)": "infinite",
						"TodoListNumber()": "2451",
						"createToDo(string)": "infinite"
					}
				},
				"methodIdentifiers": {
					"Task_Details(uint256)": "a1dbe017",
					"TodoListNumber()": "a25b79ca",
					"createToDo(string)": "60cf802f"
				}
			},
			"storageLayout": {
				"storage": [
					{
						"astId": 3,
						"contract": "contracts/TodoList.sol:TodoList",
						"label": "TodoListNumber",
						"offset": 0,
						"slot": "0",
						"type": "t_uint256"
					},
					{
						"astId": 15,
						"contract": "contracts/TodoList.sol:TodoList",
						"label": "Task_Details",
						"offset": 0,
						"slot": "1",
						"type": "t_mapping(t_uint256,t_struct(TaskDetails)10_storage)"
					}
				],
				"types": {
					"t_bool": {
						"encoding": "inplace",
						"label": "bool",
						"numberOfBytes": "1"
					},
					"t_mapping(t_uint256,t_struct(TaskDetails)10_storage)": {
						"encoding": "mapping",
						"key": "t_uint256",
						"label": "mapping(uint256 => struct TodoList.TaskDetails)",
						"numberOfBytes": "32",
						"value": "t_struct(TaskDetails)10_storage"
					},
					"t_string_storage": {
						"encoding": "bytes",
						"label": "string",
						"numberOfBytes": "32"
					},
					"t_struct(TaskDetails)10_storage": {
						"encoding": "inplace",
						"label": "struct TodoList.TaskDetails",
						"members": [
							{
								"astId": 5,
								"contract": "contracts/TodoList.sol:TodoList",
								"label": "id",
								"offset": 0,
								"slot": "0",
								"type": "t_uint256"
							},
							{
								"astId": 7,
								"contract": "contracts/TodoList.sol:TodoList",
								"label": "details",
								"offset": 0,
								"slot": "1",
								"type": "t_string_storage"
							},
							{
								"astId": 9,
								"contract": "contracts/TodoList.sol:TodoList",
								"label": "status",
								"offset": 0,
								"slot": "2",
								"type": "t_bool"
							}
						],
						"numberOfBytes": "96"
					},
					"t_uint256": {
						"encoding": "inplace",
						"label": "uint256",
						"numberOfBytes": "32"
					}
				}
			},
			"userdoc": {
				"kind": "user",
				"methods": {},
				"version": 1
			}
		}
	}
}