{
	"contracts/Erc20token.sol": {
		"icoContract": {
			"abi": [
				{
					"inputs": [
						{
							"internalType": "uint256",
							"name": "_duration",
							"type": "uint256"
						},
						{
							"internalType": "address payable",
							"name": "_depositAddress",
							"type": "address"
						}
					],
					"stateMutability": "nonpayable",
					"type": "constructor"
				},
				{
					"anonymous": false,
					"inputs": [
						{
							"indexed": true,
							"internalType": "address",
							"name": "tokenOwner",
							"type": "address"
						},
						{
							"indexed": true,
							"internalType": "address",
							"name": "spender",
							"type": "address"
						},
						{
							"indexed": false,
							"internalType": "uint256",
							"name": "tokens",
							"type": "uint256"
						}
					],
					"name": "Approval",
					"type": "event"
				},
				{
					"anonymous": false,
					"inputs": [
						{
							"indexed": false,
							"internalType": "address",
							"name": "_sender",
							"type": "address"
						},
						{
							"indexed": false,
							"internalType": "uint256",
							"name": "_amount",
							"type": "uint256"
						},
						{
							"indexed": false,
							"internalType": "uint256",
							"name": "_tokens",
							"type": "uint256"
						}
					],
					"name": "Invest",
					"type": "event"
				},
				{
					"anonymous": false,
					"inputs": [
						{
							"indexed": true,
							"internalType": "address",
							"name": "from",
							"type": "address"
						},
						{
							"indexed": true,
							"internalType": "address",
							"name": "to",
							"type": "address"
						},
						{
							"indexed": false,
							"internalType": "uint256",
							"name": "tokens",
							"type": "uint256"
						}
					],
					"name": "Transfer",
					"type": "event"
				},
				{
					"inputs": [],
					"name": "admin",
					"outputs": [
						{
							"internalType": "address",
							"name": "",
							"type": "address"
						}
					],
					"stateMutability": "view",
					"type": "function"
				},
				{
					"inputs": [
						{
							"internalType": "address",
							"name": "tokenOwner",
							"type": "address"
						},
						{
							"internalType": "address",
							"name": "spender",
							"type": "address"
						}
					],
					"name": "allowance",
					"outputs": [
						{
							"internalType": "uint256",
							"name": "remaining",
							"type": "uint256"
						}
					],
					"stateMutability": "view",
					"type": "function"
				},
				{
					"inputs": [
						{
							"internalType": "address",
							"name": "",
							"type": "address"
						},
						{
							"internalType": "address",
							"name": "",
							"type": "address"
						}
					],
					"name": "allowed",
					"outputs": [
						{
							"internalType": "uint256",
							"name": "",
							"type": "uint256"
						}
					],
					"stateMutability": "view",
					"type": "function"
				},
				{
					"inputs": [
						{
							"internalType": "address",
							"name": "spender",
							"type": "address"
						},
						{
							"internalType": "uint256",
							"name": "tokens",
							"type": "uint256"
						}
					],
					"name": "approve",
					"outputs": [
						{
							"internalType": "bool",
							"name": "success",
							"type": "bool"
						}
					],
					"stateMutability": "nonpayable",
					"type": "function"
				},
				{
					"inputs": [
						{
							"internalType": "address",
							"name": "tokenOwner",
							"type": "address"
						}
					],
					"name": "balanceOf",
					"outputs": [
						{
							"internalType": "uint256",
							"name": "balance",
							"type": "uint256"
						}
					],
					"stateMutability": "view",
					"type": "function"
				},
				{
					"inputs": [
						{
							"internalType": "address",
							"name": "",
							"type": "address"
						}
					],
					"name": "balances",
					"outputs": [
						{
							"internalType": "uint256",
							"name": "",
							"type": "uint256"
						}
					],
					"stateMutability": "view",
					"type": "function"
				},
				{
					"inputs": [],
					"name": "burnTokens",
					"outputs": [],
					"stateMutability": "nonpayable",
					"type": "function"
				},
				{
					"inputs": [
						{
							"internalType": "address payable",
							"name": "newDepositAddress",
							"type": "address"
						}
					],
					"name": "changeDepositAddress",
					"outputs": [],
					"stateMutability": "nonpayable",
					"type": "function"
				},
				{
					"inputs": [
						{
							"internalType": "uint256",
							"name": "_minimumAmount",
							"type": "uint256"
						}
					],
					"name": "changeMaximumAmount",
					"outputs": [],
					"stateMutability": "nonpayable",
					"type": "function"
				},
				{
					"inputs": [
						{
							"internalType": "uint256",
							"name": "_maximumAmount",
							"type": "uint256"
						}
					],
					"name": "changeMinimumAmount",
					"outputs": [],
					"stateMutability": "nonpayable",
					"type": "function"
				},
				{
					"inputs": [],
					"name": "checkIcoState",
					"outputs": [
						{
							"internalType": "enum icoContract.State",
							"name": "",
							"type": "uint8"
						}
					],
					"stateMutability": "view",
					"type": "function"
				},
				{
					"inputs": [],
					"name": "decimals",
					"outputs": [
						{
							"internalType": "uint256",
							"name": "",
							"type": "uint256"
						}
					],
					"stateMutability": "view",
					"type": "function"
				},
				{
					"inputs": [],
					"name": "depositAddress",
					"outputs": [
						{
							"internalType": "address payable",
							"name": "",
							"type": "address"
						}
					],
					"stateMutability": "view",
					"type": "function"
				},
				{
					"inputs": [],
					"name": "endTime",
					"outputs": [
						{
							"internalType": "uint256",
							"name": "",
							"type": "uint256"
						}
					],
					"stateMutability": "view",
					"type": "function"
				},
				{
					"inputs": [],
					"name": "founder",
					"outputs": [
						{
							"internalType": "address",
							"name": "",
							"type": "address"
						}
					],
					"stateMutability": "view",
					"type": "function"
				},
				{
					"inputs": [],
					"name": "halt",
					"outputs": [],
					"stateMutability": "nonpayable",
					"type": "function"
				},
				{
					"inputs": [],
					"name": "hardCap",
					"outputs": [
						{
							"internalType": "uint256",
							"name": "",
							"type": "uint256"
						}
					],
					"stateMutability": "view",
					"type": "function"
				},
				{
					"inputs": [],
					"name": "icoState",
					"outputs": [
						{
							"internalType": "enum icoContract.State",
							"name": "",
							"type": "uint8"
						}
					],
					"stateMutability": "view",
					"type": "function"
				},
				{
					"inputs": [],
					"name": "invest",
					"outputs": [
						{
							"internalType": "bool",
							"name": "",
							"type": "bool"
						}
					],
					"stateMutability": "payable",
					"type": "function"
				},
				{
					"inputs": [],
					"name": "maximumAmount",
					"outputs": [
						{
							"internalType": "uint256",
							"name": "",
							"type": "uint256"
						}
					],
					"stateMutability": "view",
					"type": "function"
				},
				{
					"inputs": [],
					"name": "minimumAmount",
					"outputs": [
						{
							"internalType": "uint256",
							"name": "",
							"type": "uint256"
						}
					],
					"stateMutability": "view",
					"type": "function"
				},
				{
					"inputs": [],
					"name": "name",
					"outputs": [
						{
							"internalType": "string",
							"name": "",
							"type": "string"
						}
					],
					"stateMutability": "view",
					"type": "function"
				},
				{
					"inputs": [],
					"name": "raisedAmount",
					"outputs": [
						{
							"internalType": "uint256",
							"name": "",
							"type": "uint256"
						}
					],
					"stateMutability": "view",
					"type": "function"
				},
				{
					"inputs": [],
					"name": "resume",
					"outputs": [],
					"stateMutability": "nonpayable",
					"type": "function"
				},
				{
					"inputs": [],
					"name": "startTime",
					"outputs": [
						{
							"internalType": "uint256",
							"name": "",
							"type": "uint256"
						}
					],
					"stateMutability": "view",
					"type": "function"
				},
				{
					"inputs": [],
					"name": "symbol",
					"outputs": [
						{
							"internalType": "string",
							"name": "",
							"type": "string"
						}
					],
					"stateMutability": "view",
					"type": "function"
				},
				{
					"inputs": [],
					"name": "totalSupply",
					"outputs": [
						{
							"internalType": "uint256",
							"name": "",
							"type": "uint256"
						}
					],
					"stateMutability": "view",
					"type": "function"
				},
				{
					"inputs": [
						{
							"internalType": "address",
							"name": "to",
							"type": "address"
						},
						{
							"internalType": "uint256",
							"name": "tokens",
							"type": "uint256"
						}
					],
					"name": "transfer",
					"outputs": [
						{
							"internalType": "bool",
							"name": "success",
							"type": "bool"
						}
					],
					"stateMutability": "nonpayable",
					"type": "function"
				},
				{
					"inputs": [
						{
							"internalType": "address",
							"name": "from",
							"type": "address"
						},
						{
							"internalType": "address",
							"name": "to",
							"type": "address"
						},
						{
							"internalType": "uint256",
							"name": "tokens",
							"type": "uint256"
						}
					],
					"name": "transferFrom",
					"outputs": [
						{
							"internalType": "bool",
							"name": "success",
							"type": "bool"
						}
					],
					"stateMutability": "nonpayable",
					"type": "function"
				}
			],
			"devdoc": {
				"kind": "dev",
				"methods": {},
				"version": 1
			},
			"evm": {
				"assembly": "    /* \"contracts/Erc20token.sol\":3288:7705  contract icoContract is MyToken{\r... */\n  mstore(0x40, 0x80)\n    /* \"contracts/Erc20token.sol\":1033:1062  string public name = \"ZILLAX\" */\n  mload(0x40)\n  dup1\n  0x40\n  add\n  0x40\n  mstore\n  dup1\n  0x06\n  dup2\n  mstore\n  0x20\n  add\n  0x5a494c4c41580000000000000000000000000000000000000000000000000000\n  dup2\n  mstore\n  pop\n  0x00\n  swap1\n  dup1\n  mload\n  swap1\n  0x20\n  add\n  swap1\n  tag_1\n  swap3\n  swap2\n  swap1\n  tag_2\n  jump\t// in\ntag_1:\n  pop\n    /* \"contracts/Erc20token.sol\":1069:1097  string public symbol = \"ZLZ\" */\n  mload(0x40)\n  dup1\n  0x40\n  add\n  0x40\n  mstore\n  dup1\n  0x03\n  dup2\n  mstore\n  0x20\n  add\n  0x5a4c5a0000000000000000000000000000000000000000000000000000000000\n  dup2\n  mstore\n  pop\n  0x01\n  swap1\n  dup1\n  mload\n  swap1\n  0x20\n  add\n  swap1\n  tag_3\n  swap3\n  swap2\n  swap1\n  tag_2\n  jump\t// in\ntag_3:\n  pop\n    /* \"contracts/Erc20token.sol\":1127:1128  0 */\n  0x00\n    /* \"contracts/Erc20token.sol\":1104:1128  uint public decimals = 0 */\n  0x02\n  sstore\n    /* \"contracts/Erc20token.sol\":3455:3466  0.001 ether */\n  0x038d7ea4c68000\n    /* \"contracts/Erc20token.sol\":3437:3466  uint tokenPrice = 0.001 ether */\n  0x08\n  sstore\n    /* \"contracts/Erc20token.sol\":3630:3637  5 ether */\n  0x4563918244f40000\n    /* \"contracts/Erc20token.sol\":3608:3637  uint public hardCap = 5 ether */\n  0x0a\n  sstore\n    /* \"contracts/Erc20token.sol\":3803:3818  block.timestamp */\n  timestamp\n    /* \"contracts/Erc20token.sol\":3779:3818  uint public startTime = block.timestamp */\n  0x0b\n  sstore\n    /* \"contracts/Erc20token.sol\":3928:3937  0.1 ether */\n  0x016345785d8a0000\n    /* \"contracts/Erc20token.sol\":3900:3937  uint public minimumAmount = 0.1 ether */\n  0x0d\n  sstore\n    /* \"contracts/Erc20token.sol\":3972:3979  1 ether */\n  0x0de0b6b3a7640000\n    /* \"contracts/Erc20token.sol\":3944:3979  uint public maximumAmount = 1 ether */\n  0x0e\n  sstore\n    /* \"contracts/Erc20token.sol\":4228:4549  constructor(uint _duration, address payable _depositAddress){\r... */\n  callvalue\n  dup1\n  iszero\n  tag_4\n  jumpi\n  0x00\n  dup1\n  revert\ntag_4:\n  pop\n  mload(0x40)\n  sub(codesize, bytecodeSize)\n  dup1\n  bytecodeSize\n  dup4\n  codecopy\n  dup2\n  dup2\n  add\n  0x40\n  mstore\n  dup2\n  add\n  swap1\n  tag_5\n  swap2\n  swap1\n  tag_6\n  jump\t// in\ntag_5:\n    /* \"contracts/Erc20token.sol\":1365:1372  1000000 */\n  0x0f4240\n    /* \"contracts/Erc20token.sol\":1351:1362  totalSupply */\n  0x04\n    /* \"contracts/Erc20token.sol\":1351:1372  totalSupply = 1000000 */\n  dup2\n  swap1\n  sstore\n  pop\n    /* \"contracts/Erc20token.sol\":1393:1403  msg.sender */\n  caller\n    /* \"contracts/Erc20token.sol\":1383:1390  founder */\n  0x03\n  0x00\n    /* \"contracts/Erc20token.sol\":1383:1403  founder = msg.sender */\n  0x0100\n  exp\n  dup2\n  sload\n  dup2\n  0xffffffffffffffffffffffffffffffffffffffff\n  mul\n  not\n  and\n  swap1\n  dup4\n  0xffffffffffffffffffffffffffffffffffffffff\n  and\n  mul\n  or\n  swap1\n  sstore\n  pop\n    /* \"contracts/Erc20token.sol\":1434:1445  totalSupply */\n  sload(0x04)\n    /* \"contracts/Erc20token.sol\":1414:1422  balances */\n  0x05\n    /* \"contracts/Erc20token.sol\":1414:1431  balances[founder] */\n  0x00\n    /* \"contracts/Erc20token.sol\":1423:1430  founder */\n  0x03\n  0x00\n  swap1\n  sload\n  swap1\n  0x0100\n  exp\n  swap1\n  div\n  0xffffffffffffffffffffffffffffffffffffffff\n  and\n    /* \"contracts/Erc20token.sol\":1414:1431  balances[founder] */\n  0xffffffffffffffffffffffffffffffffffffffff\n  and\n  0xffffffffffffffffffffffffffffffffffffffff\n  and\n  dup2\n  mstore\n  0x20\n  add\n  swap1\n  dup2\n  mstore\n  0x20\n  add\n  0x00\n  keccak256\n    /* \"contracts/Erc20token.sol\":1414:1445  balances[founder] = totalSupply */\n  dup2\n  swap1\n  sstore\n  pop\n    /* \"contracts/Erc20token.sol\":4310:4327  State.beforeStart */\n  0x00\n    /* \"contracts/Erc20token.sol\":4299:4307  icoState */\n  0x0f\n  0x00\n    /* \"contracts/Erc20token.sol\":4299:4327  icoState = State.beforeStart */\n  0x0100\n  exp\n  dup2\n  sload\n  dup2\n  0xff\n  mul\n  not\n  and\n  swap1\n  dup4\n  0x04\n  dup2\n  gt\n  iszero\n  tag_11\n  jumpi\n  tag_12\n  tag_13\n  jump\t// in\ntag_12:\ntag_11:\n  mul\n  or\n  swap1\n  sstore\n  pop\n    /* \"contracts/Erc20token.sol\":4375:4385  msg.sender */\n  caller\n    /* \"contracts/Erc20token.sol\":4367:4372  admin */\n  0x07\n  0x00\n    /* \"contracts/Erc20token.sol\":4367:4385  admin = msg.sender */\n  0x0100\n  exp\n  dup2\n  sload\n  dup2\n  0xffffffffffffffffffffffffffffffffffffffff\n  mul\n  not\n  and\n  swap1\n  dup4\n  0xffffffffffffffffffffffffffffffffffffffff\n  and\n  mul\n  or\n  swap1\n  sstore\n  pop\n    /* \"contracts/Erc20token.sol\":4450:4459  _duration */\n  dup2\n    /* \"contracts/Erc20token.sol\":4438:4447  startTime */\n  sload(0x0b)\n    /* \"contracts/Erc20token.sol\":4438:4459  startTime + _duration */\n  tag_14\n  swap2\n  swap1\n  tag_15\n  jump\t// in\ntag_14:\n    /* \"contracts/Erc20token.sol\":4428:4435  endTime */\n  0x0c\n    /* \"contracts/Erc20token.sol\":4428:4459  endTime = startTime + _duration */\n  dup2\n  swap1\n  sstore\n  pop\n    /* \"contracts/Erc20token.sol\":4524:4539  _depositAddress */\n  dup1\n    /* \"contracts/Erc20token.sol\":4507:4521  depositAddress */\n  0x0f\n  0x01\n    /* \"contracts/Erc20token.sol\":4507:4539  depositAddress = _depositAddress */\n  0x0100\n  exp\n  dup2\n  sload\n  dup2\n  0xffffffffffffffffffffffffffffffffffffffff\n  mul\n  not\n  and\n  swap1\n  dup4\n  0xffffffffffffffffffffffffffffffffffffffff\n  and\n  mul\n  or\n  swap1\n  sstore\n  pop\n    /* \"contracts/Erc20token.sol\":4228:4549  constructor(uint _duration, address payable _depositAddress){\r... */\n  pop\n  pop\n    /* \"contracts/Erc20token.sol\":3288:7705  contract icoContract is MyToken{\r... */\n  jump(tag_16)\ntag_2:\n  dup3\n  dup1\n  sload\n  tag_17\n  swap1\n  tag_18\n  jump\t// in\ntag_17:\n  swap1\n  0x00\n  mstore\n  keccak256(0x00, 0x20)\n  swap1\n  0x1f\n  add\n  0x20\n  swap1\n  div\n  dup2\n  add\n  swap3\n  dup3\n  tag_20\n  jumpi\n  0x00\n  dup6\n  sstore\n  jump(tag_19)\ntag_20:\n  dup3\n  0x1f\n  lt\n  tag_21\n  jumpi\n  dup1\n  mload\n  not(0xff)\n  and\n  dup4\n  dup1\n  add\n  or\n  dup6\n  sstore\n  jump(tag_19)\ntag_21:\n  dup3\n  dup1\n  add\n  0x01\n  add\n  dup6\n  sstore\n  dup3\n  iszero\n  tag_19\n  jumpi\n  swap2\n  dup3\n  add\ntag_22:\n  dup3\n  dup2\n  gt\n  iszero\n  tag_23\n  jumpi\n  dup3\n  mload\n  dup3\n  sstore\n  swap2\n  0x20\n  add\n  swap2\n  swap1\n  0x01\n  add\n  swap1\n  jump(tag_22)\ntag_23:\ntag_19:\n  pop\n  swap1\n  pop\n  tag_24\n  swap2\n  swap1\n  tag_25\n  jump\t// in\ntag_24:\n  pop\n  swap1\n  jump\t// out\ntag_25:\ntag_26:\n  dup1\n  dup3\n  gt\n  iszero\n  tag_27\n  jumpi\n  0x00\n  dup2\n  0x00\n  swap1\n  sstore\n  pop\n  0x01\n  add\n  jump(tag_26)\ntag_27:\n  pop\n  swap1\n  jump\t// out\n    /* \"#utility.yul\":7:166   */\ntag_29:\n    /* \"#utility.yul\":72:77   */\n  0x00\n    /* \"#utility.yul\":103:109   */\n  dup2\n    /* \"#utility.yul\":97:110   */\n  mload\n    /* \"#utility.yul\":88:110   */\n  swap1\n  pop\n    /* \"#utility.yul\":119:160   */\n  tag_31\n    /* \"#utility.yul\":154:159   */\n  dup2\n    /* \"#utility.yul\":119:160   */\n  tag_32\n  jump\t// in\ntag_31:\n    /* \"#utility.yul\":7:166   */\n  swap3\n  swap2\n  pop\n  pop\n  jump\t// out\n    /* \"#utility.yul\":172:315   */\ntag_33:\n    /* \"#utility.yul\":229:234   */\n  0x00\n    /* \"#utility.yul\":260:266   */\n  dup2\n    /* \"#utility.yul\":254:267   */\n  mload\n    /* \"#utility.yul\":245:267   */\n  swap1\n  pop\n    /* \"#utility.yul\":276:309   */\n  tag_35\n    /* \"#utility.yul\":303:308   */\n  dup2\n    /* \"#utility.yul\":276:309   */\n  tag_36\n  jump\t// in\ntag_35:\n    /* \"#utility.yul\":172:315   */\n  swap3\n  swap2\n  pop\n  pop\n  jump\t// out\n    /* \"#utility.yul\":321:844   */\ntag_6:\n    /* \"#utility.yul\":408:414   */\n  0x00\n    /* \"#utility.yul\":416:422   */\n  dup1\n    /* \"#utility.yul\":465:467   */\n  0x40\n    /* \"#utility.yul\":453:462   */\n  dup4\n    /* \"#utility.yul\":444:451   */\n  dup6\n    /* \"#utility.yul\":440:463   */\n  sub\n    /* \"#utility.yul\":436:468   */\n  slt\n    /* \"#utility.yul\":433:552   */\n  iszero\n  tag_38\n  jumpi\n    /* \"#utility.yul\":471:550   */\n  tag_39\n  tag_40\n  jump\t// in\ntag_39:\n    /* \"#utility.yul\":433:552   */\ntag_38:\n    /* \"#utility.yul\":591:592   */\n  0x00\n    /* \"#utility.yul\":616:680   */\n  tag_41\n    /* \"#utility.yul\":672:679   */\n  dup6\n    /* \"#utility.yul\":663:669   */\n  dup3\n    /* \"#utility.yul\":652:661   */\n  dup7\n    /* \"#utility.yul\":648:670   */\n  add\n    /* \"#utility.yul\":616:680   */\n  tag_33\n  jump\t// in\ntag_41:\n    /* \"#utility.yul\":606:680   */\n  swap3\n  pop\n    /* \"#utility.yul\":562:690   */\n  pop\n    /* \"#utility.yul\":729:731   */\n  0x20\n    /* \"#utility.yul\":755:827   */\n  tag_42\n    /* \"#utility.yul\":819:826   */\n  dup6\n    /* \"#utility.yul\":810:816   */\n  dup3\n    /* \"#utility.yul\":799:808   */\n  dup7\n    /* \"#utility.yul\":795:817   */\n  add\n    /* \"#utility.yul\":755:827   */\n  tag_29\n  jump\t// in\ntag_42:\n    /* \"#utility.yul\":745:827   */\n  swap2\n  pop\n    /* \"#utility.yul\":700:837   */\n  pop\n    /* \"#utility.yul\":321:844   */\n  swap3\n  pop\n  swap3\n  swap1\n  pop\n  jump\t// out\n    /* \"#utility.yul\":931:1236   */\ntag_15:\n    /* \"#utility.yul\":971:974   */\n  0x00\n    /* \"#utility.yul\":990:1010   */\n  tag_46\n    /* \"#utility.yul\":1008:1009   */\n  dup3\n    /* \"#utility.yul\":990:1010   */\n  tag_47\n  jump\t// in\ntag_46:\n    /* \"#utility.yul\":985:1010   */\n  swap2\n  pop\n    /* \"#utility.yul\":1024:1044   */\n  tag_48\n    /* \"#utility.yul\":1042:1043   */\n  dup4\n    /* \"#utility.yul\":1024:1044   */\n  tag_47\n  jump\t// in\ntag_48:\n    /* \"#utility.yul\":1019:1044   */\n  swap3\n  pop\n    /* \"#utility.yul\":1178:1179   */\n  dup3\n    /* \"#utility.yul\":1110:1176   */\n  0xffffffffffffffffffffffffffffffffffffffffffffffffffffffffffffffff\n    /* \"#utility.yul\":1106:1180   */\n  sub\n    /* \"#utility.yul\":1103:1104   */\n  dup3\n    /* \"#utility.yul\":1100:1181   */\n  gt\n    /* \"#utility.yul\":1097:1204   */\n  iszero\n  tag_49\n  jumpi\n    /* \"#utility.yul\":1184:1202   */\n  tag_50\n  tag_51\n  jump\t// in\ntag_50:\n    /* \"#utility.yul\":1097:1204   */\ntag_49:\n    /* \"#utility.yul\":1228:1229   */\n  dup3\n    /* \"#utility.yul\":1225:1226   */\n  dup3\n    /* \"#utility.yul\":1221:1230   */\n  add\n    /* \"#utility.yul\":1214:1230   */\n  swap1\n  pop\n    /* \"#utility.yul\":931:1236   */\n  swap3\n  swap2\n  pop\n  pop\n  jump\t// out\n    /* \"#utility.yul\":1242:1346   */\ntag_52:\n    /* \"#utility.yul\":1287:1294   */\n  0x00\n    /* \"#utility.yul\":1316:1340   */\n  tag_54\n    /* \"#utility.yul\":1334:1339   */\n  dup3\n    /* \"#utility.yul\":1316:1340   */\n  tag_55\n  jump\t// in\ntag_54:\n    /* \"#utility.yul\":1305:1340   */\n  swap1\n  pop\n    /* \"#utility.yul\":1242:1346   */\n  swap2\n  swap1\n  pop\n  jump\t// out\n    /* \"#utility.yul\":1352:1478   */\ntag_55:\n    /* \"#utility.yul\":1389:1396   */\n  0x00\n    /* \"#utility.yul\":1429:1471   */\n  0xffffffffffffffffffffffffffffffffffffffff\n    /* \"#utility.yul\":1422:1427   */\n  dup3\n    /* \"#utility.yul\":1418:1472   */\n  and\n    /* \"#utility.yul\":1407:1472   */\n  swap1\n  pop\n    /* \"#utility.yul\":1352:1478   */\n  swap2\n  swap1\n  pop\n  jump\t// out\n    /* \"#utility.yul\":1484:1561   */\ntag_47:\n    /* \"#utility.yul\":1521:1528   */\n  0x00\n    /* \"#utility.yul\":1550:1555   */\n  dup2\n    /* \"#utility.yul\":1539:1555   */\n  swap1\n  pop\n    /* \"#utility.yul\":1484:1561   */\n  swap2\n  swap1\n  pop\n  jump\t// out\n    /* \"#utility.yul\":1567:1887   */\ntag_18:\n    /* \"#utility.yul\":1611:1617   */\n  0x00\n    /* \"#utility.yul\":1648:1649   */\n  0x02\n    /* \"#utility.yul\":1642:1646   */\n  dup3\n    /* \"#utility.yul\":1638:1650   */\n  div\n    /* \"#utility.yul\":1628:1650   */\n  swap1\n  pop\n    /* \"#utility.yul\":1695:1696   */\n  0x01\n    /* \"#utility.yul\":1689:1693   */\n  dup3\n    /* \"#utility.yul\":1685:1697   */\n  and\n    /* \"#utility.yul\":1716:1734   */\n  dup1\n    /* \"#utility.yul\":1706:1787   */\n  tag_59\n  jumpi\n    /* \"#utility.yul\":1772:1776   */\n  0x7f\n    /* \"#utility.yul\":1764:1770   */\n  dup3\n    /* \"#utility.yul\":1760:1777   */\n  and\n    /* \"#utility.yul\":1750:1777   */\n  swap2\n  pop\n    /* \"#utility.yul\":1706:1787   */\ntag_59:\n    /* \"#utility.yul\":1834:1836   */\n  0x20\n    /* \"#utility.yul\":1826:1832   */\n  dup3\n    /* \"#utility.yul\":1823:1837   */\n  lt\n    /* \"#utility.yul\":1803:1821   */\n  dup2\n    /* \"#utility.yul\":1800:1838   */\n  eq\n    /* \"#utility.yul\":1797:1881   */\n  iszero\n  tag_60\n  jumpi\n    /* \"#utility.yul\":1853:1871   */\n  tag_61\n  tag_62\n  jump\t// in\ntag_61:\n    /* \"#utility.yul\":1797:1881   */\ntag_60:\n    /* \"#utility.yul\":1618:1887   */\n  pop\n    /* \"#utility.yul\":1567:1887   */\n  swap2\n  swap1\n  pop\n  jump\t// out\n    /* \"#utility.yul\":1893:2073   */\ntag_51:\n    /* \"#utility.yul\":1941:2018   */\n  0x4e487b7100000000000000000000000000000000000000000000000000000000\n    /* \"#utility.yul\":1938:1939   */\n  0x00\n    /* \"#utility.yul\":1931:2019   */\n  mstore\n    /* \"#utility.yul\":2038:2042   */\n  0x11\n    /* \"#utility.yul\":2035:2036   */\n  0x04\n    /* \"#utility.yul\":2028:2043   */\n  mstore\n    /* \"#utility.yul\":2062:2066   */\n  0x24\n    /* \"#utility.yul\":2059:2060   */\n  0x00\n    /* \"#utility.yul\":2052:2067   */\n  revert\n    /* \"#utility.yul\":2079:2259   */\ntag_13:\n    /* \"#utility.yul\":2127:2204   */\n  0x4e487b7100000000000000000000000000000000000000000000000000000000\n    /* \"#utility.yul\":2124:2125   */\n  0x00\n    /* \"#utility.yul\":2117:2205   */\n  mstore\n    /* \"#utility.yul\":2224:2228   */\n  0x21\n    /* \"#utility.yul\":2221:2222   */\n  0x04\n    /* \"#utility.yul\":2214:2229   */\n  mstore\n    /* \"#utility.yul\":2248:2252   */\n  0x24\n    /* \"#utility.yul\":2245:2246   */\n  0x00\n    /* \"#utility.yul\":2238:2253   */\n  revert\n    /* \"#utility.yul\":2265:2445   */\ntag_62:\n    /* \"#utility.yul\":2313:2390   */\n  0x4e487b7100000000000000000000000000000000000000000000000000000000\n    /* \"#utility.yul\":2310:2311   */\n  0x00\n    /* \"#utility.yul\":2303:2391   */\n  mstore\n    /* \"#utility.yul\":2410:2414   */\n  0x22\n    /* \"#utility.yul\":2407:2408   */\n  0x04\n    /* \"#utility.yul\":2400:2415   */\n  mstore\n    /* \"#utility.yul\":2434:2438   */\n  0x24\n    /* \"#utility.yul\":2431:2432   */\n  0x00\n    /* \"#utility.yul\":2424:2439   */\n  revert\n    /* \"#utility.yul\":2574:2691   */\ntag_40:\n    /* \"#utility.yul\":2683:2684   */\n  0x00\n    /* \"#utility.yul\":2680:2681   */\n  dup1\n    /* \"#utility.yul\":2673:2685   */\n  revert\n    /* \"#utility.yul\":2697:2835   */\ntag_32:\n    /* \"#utility.yul\":2778:2810   */\n  tag_70\n    /* \"#utility.yul\":2804:2809   */\n  dup2\n    /* \"#utility.yul\":2778:2810   */\n  tag_52\n  jump\t// in\ntag_70:\n    /* \"#utility.yul\":2771:2776   */\n  dup2\n    /* \"#utility.yul\":2768:2811   */\n  eq\n    /* \"#utility.yul\":2758:2829   */\n  tag_71\n  jumpi\n    /* \"#utility.yul\":2825:2826   */\n  0x00\n    /* \"#utility.yul\":2822:2823   */\n  dup1\n    /* \"#utility.yul\":2815:2827   */\n  revert\n    /* \"#utility.yul\":2758:2829   */\ntag_71:\n    /* \"#utility.yul\":2697:2835   */\n  pop\n  jump\t// out\n    /* \"#utility.yul\":2841:2963   */\ntag_36:\n    /* \"#utility.yul\":2914:2938   */\n  tag_73\n    /* \"#utility.yul\":2932:2937   */\n  dup2\n    /* \"#utility.yul\":2914:2938   */\n  tag_47\n  jump\t// in\ntag_73:\n    /* \"#utility.yul\":2907:2912   */\n  dup2\n    /* \"#utility.yul\":2904:2939   */\n  eq\n    /* \"#utility.yul\":2894:2957   */\n  tag_74\n  jumpi\n    /* \"#utility.yul\":2953:2954   */\n  0x00\n    /* \"#utility.yul\":2950:2951   */\n  dup1\n    /* \"#utility.yul\":2943:2955   */\n  revert\n    /* \"#utility.yul\":2894:2957   */\ntag_74:\n    /* \"#utility.yul\":2841:2963   */\n  pop\n  jump\t// out\n    /* \"contracts/Erc20token.sol\":3288:7705  contract icoContract is MyToken{\r... */\ntag_16:\n  dataSize(sub_0)\n  dup1\n  dataOffset(sub_0)\n  0x00\n  codecopy\n  0x00\n  return\nstop\n\nsub_0: assembly {\n        /* \"contracts/Erc20token.sol\":3288:7705  contract icoContract is MyToken{\r... */\n      mstore(0x40, 0x80)\n      jumpi(tag_1, lt(calldatasize, 0x04))\n      shr(0xe0, calldataload(0x00))\n      dup1\n      0x5ed7ca5b\n      gt\n      tag_31\n      jumpi\n      dup1\n      0xa9bcea61\n      gt\n      tag_32\n      jumpi\n      dup1\n      0xdd62ed3e\n      gt\n      tag_33\n      jumpi\n      dup1\n      0xdd62ed3e\n      eq\n      tag_27\n      jumpi\n      dup1\n      0xe8b5e51f\n      eq\n      tag_28\n      jumpi\n      dup1\n      0xf851a440\n      eq\n      tag_29\n      jumpi\n      dup1\n      0xfb86a404\n      eq\n      tag_30\n      jumpi\n      jump(tag_1)\n    tag_33:\n      dup1\n      0xa9bcea61\n      eq\n      tag_23\n      jumpi\n      dup1\n      0xbb0c8298\n      eq\n      tag_24\n      jumpi\n      dup1\n      0xc59ee1dc\n      eq\n      tag_25\n      jumpi\n      dup1\n      0xcf942c79\n      eq\n      tag_26\n      jumpi\n      jump(tag_1)\n    tag_32:\n      dup1\n      0x77eab3e3\n      gt\n      tag_34\n      jumpi\n      dup1\n      0x77eab3e3\n      eq\n      tag_19\n      jumpi\n      dup1\n      0x78e97925\n      eq\n      tag_20\n      jumpi\n      dup1\n      0x95d89b41\n      eq\n      tag_21\n      jumpi\n      dup1\n      0xa9059cbb\n      eq\n      tag_22\n      jumpi\n      jump(tag_1)\n    tag_34:\n      dup1\n      0x5ed7ca5b\n      eq\n      tag_16\n      jumpi\n      dup1\n      0x6d58c88f\n      eq\n      tag_17\n      jumpi\n      dup1\n      0x70a08231\n      eq\n      tag_18\n      jumpi\n      jump(tag_1)\n    tag_31:\n      dup1\n      0x28f833b7\n      gt\n      tag_35\n      jumpi\n      dup1\n      0x3197cbb6\n      gt\n      tag_36\n      jumpi\n      dup1\n      0x3197cbb6\n      eq\n      tag_12\n      jumpi\n      dup1\n      0x44f38756\n      eq\n      tag_13\n      jumpi\n      dup1\n      0x4d853ee5\n      eq\n      tag_14\n      jumpi\n      dup1\n      0x5c658165\n      eq\n      tag_15\n      jumpi\n      jump(tag_1)\n    tag_36:\n      dup1\n      0x28f833b7\n      eq\n      tag_9\n      jumpi\n      dup1\n      0x2942b61a\n      eq\n      tag_10\n      jumpi\n      dup1\n      0x313ce567\n      eq\n      tag_11\n      jumpi\n      jump(tag_1)\n    tag_35:\n      dup1\n      0x095ea7b3\n      gt\n      tag_37\n      jumpi\n      dup1\n      0x095ea7b3\n      eq\n      tag_5\n      jumpi\n      dup1\n      0x18160ddd\n      eq\n      tag_6\n      jumpi\n      dup1\n      0x23b872dd\n      eq\n      tag_7\n      jumpi\n      dup1\n      0x27e235e3\n      eq\n      tag_8\n      jumpi\n      jump(tag_1)\n    tag_37:\n      dup1\n      0x046f7da2\n      eq\n      tag_2\n      jumpi\n      dup1\n      0x06fdde03\n      eq\n      tag_3\n      jumpi\n      dup1\n      0x08003f78\n      eq\n      tag_4\n      jumpi\n    tag_1:\n      0x00\n      dup1\n      revert\n        /* \"contracts/Erc20token.sol\":4842:4919  function resume() public onlyAdmin{\r... */\n    tag_2:\n      callvalue\n      dup1\n      iszero\n      tag_38\n      jumpi\n      0x00\n      dup1\n      revert\n    tag_38:\n      pop\n      tag_39\n      tag_40\n      jump\t// in\n    tag_39:\n      stop\n        /* \"contracts/Erc20token.sol\":1033:1062  string public name = \"ZILLAX\" */\n    tag_3:\n      callvalue\n      dup1\n      iszero\n      tag_41\n      jumpi\n      0x00\n      dup1\n      revert\n    tag_41:\n      pop\n      tag_42\n      tag_43\n      jump\t// in\n    tag_42:\n      mload(0x40)\n      tag_44\n      swap2\n      swap1\n      tag_45\n      jump\t// in\n    tag_44:\n      mload(0x40)\n      dup1\n      swap2\n      sub\n      swap1\n      return\n        /* \"contracts/Erc20token.sol\":7438:7700  function burnTokens() public {\r... */\n    tag_4:\n      callvalue\n      dup1\n      iszero\n      tag_46\n      jumpi\n      0x00\n      dup1\n      revert\n    tag_46:\n      pop\n      tag_47\n      tag_48\n      jump\t// in\n    tag_47:\n      stop\n        /* \"contracts/Erc20token.sol\":2233:2635  function approve(address spender, uint tokens) public override returns (bool success){\r... */\n    tag_5:\n      callvalue\n      dup1\n      iszero\n      tag_49\n      jumpi\n      0x00\n      dup1\n      revert\n    tag_49:\n      pop\n      tag_50\n      0x04\n      dup1\n      calldatasize\n      sub\n      dup2\n      add\n      swap1\n      tag_51\n      swap2\n      swap1\n      tag_52\n      jump\t// in\n    tag_51:\n      tag_53\n      jump\t// in\n    tag_50:\n      mload(0x40)\n      tag_54\n      swap2\n      swap1\n      tag_55\n      jump\t// in\n    tag_54:\n      mload(0x40)\n      dup1\n      swap2\n      sub\n      swap1\n      return\n        /* \"contracts/Erc20token.sol\":1168:1200  uint public override totalSupply */\n    tag_6:\n      callvalue\n      dup1\n      iszero\n      tag_56\n      jumpi\n      0x00\n      dup1\n      revert\n    tag_56:\n      pop\n      tag_57\n      tag_58\n      jump\t// in\n    tag_57:\n      mload(0x40)\n      tag_59\n      swap2\n      swap1\n      tag_60\n      jump\t// in\n    tag_59:\n      mload(0x40)\n      dup1\n      swap2\n      sub\n      swap1\n      return\n        /* \"contracts/Erc20token.sol\":2643:3279  function transferFrom(address from, address to, uint tokens) public override returns (bool success){\r... */\n    tag_7:\n      callvalue\n      dup1\n      iszero\n      tag_61\n      jumpi\n      0x00\n      dup1\n      revert\n    tag_61:\n      pop\n      tag_62\n      0x04\n      dup1\n      calldatasize\n      sub\n      dup2\n      add\n      swap1\n      tag_63\n      swap2\n      swap1\n      tag_64\n      jump\t// in\n    tag_63:\n      tag_65\n      jump\t// in\n    tag_62:\n      mload(0x40)\n      tag_66\n      swap2\n      swap1\n      tag_55\n      jump\t// in\n    tag_66:\n      mload(0x40)\n      dup1\n      swap2\n      sub\n      swap1\n      return\n        /* \"contracts/Erc20token.sol\":1209:1250  mapping(address => uint) public  balances */\n    tag_8:\n      callvalue\n      dup1\n      iszero\n      tag_67\n      jumpi\n      0x00\n      dup1\n      revert\n    tag_67:\n      pop\n      tag_68\n      0x04\n      dup1\n      calldatasize\n      sub\n      dup2\n      add\n      swap1\n      tag_69\n      swap2\n      swap1\n      tag_70\n      jump\t// in\n    tag_69:\n      tag_71\n      jump\t// in\n    tag_68:\n      mload(0x40)\n      tag_72\n      swap2\n      swap1\n      tag_60\n      jump\t// in\n    tag_72:\n      mload(0x40)\n      dup1\n      swap2\n      sub\n      swap1\n      return\n        /* \"contracts/Erc20token.sol\":4085:4122  address payable public depositAddress */\n    tag_9:\n      callvalue\n      dup1\n      iszero\n      tag_73\n      jumpi\n      0x00\n      dup1\n      revert\n    tag_73:\n      pop\n      tag_74\n      tag_75\n      jump\t// in\n    tag_74:\n      mload(0x40)\n      tag_76\n      swap2\n      swap1\n      tag_77\n      jump\t// in\n    tag_76:\n      mload(0x40)\n      dup1\n      swap2\n      sub\n      swap1\n      return\n        /* \"contracts/Erc20token.sol\":5339:5825  function checkIcoState() public view returns(State){\r... */\n    tag_10:\n      callvalue\n      dup1\n      iszero\n      tag_78\n      jumpi\n      0x00\n      dup1\n      revert\n    tag_78:\n      pop\n      tag_79\n      tag_80\n      jump\t// in\n    tag_79:\n      mload(0x40)\n      tag_81\n      swap2\n      swap1\n      tag_82\n      jump\t// in\n    tag_81:\n      mload(0x40)\n      dup1\n      swap2\n      sub\n      swap1\n      return\n        /* \"contracts/Erc20token.sol\":1104:1128  uint public decimals = 0 */\n    tag_11:\n      callvalue\n      dup1\n      iszero\n      tag_83\n      jumpi\n      0x00\n      dup1\n      revert\n    tag_83:\n      pop\n      tag_84\n      tag_85\n      jump\t// in\n    tag_84:\n      mload(0x40)\n      tag_86\n      swap2\n      swap1\n      tag_60\n      jump\t// in\n    tag_86:\n      mload(0x40)\n      dup1\n      swap2\n      sub\n      swap1\n      return\n        /* \"contracts/Erc20token.sol\":3825:3844  uint public endTime */\n    tag_12:\n      callvalue\n      dup1\n      iszero\n      tag_87\n      jumpi\n      0x00\n      dup1\n      revert\n    tag_87:\n      pop\n      tag_88\n      tag_89\n      jump\t// in\n    tag_88:\n      mload(0x40)\n      tag_90\n      swap2\n      swap1\n      tag_60\n      jump\t// in\n    tag_90:\n      mload(0x40)\n      dup1\n      swap2\n      sub\n      swap1\n      return\n        /* \"contracts/Erc20token.sol\":4028:4049  State public icoState */\n    tag_13:\n      callvalue\n      dup1\n      iszero\n      tag_91\n      jumpi\n      0x00\n      dup1\n      revert\n    tag_91:\n      pop\n      tag_92\n      tag_93\n      jump\t// in\n    tag_92:\n      mload(0x40)\n      tag_94\n      swap2\n      swap1\n      tag_82\n      jump\t// in\n    tag_94:\n      mload(0x40)\n      dup1\n      swap2\n      sub\n      swap1\n      return\n        /* \"contracts/Erc20token.sol\":1137:1159  address public founder */\n    tag_14:\n      callvalue\n      dup1\n      iszero\n      tag_95\n      jumpi\n      0x00\n      dup1\n      revert\n    tag_95:\n      pop\n      tag_96\n      tag_97\n      jump\t// in\n    tag_96:\n      mload(0x40)\n      tag_98\n      swap2\n      swap1\n      tag_99\n      jump\t// in\n    tag_98:\n      mload(0x40)\n      dup1\n      swap2\n      sub\n      swap1\n      return\n        /* \"contracts/Erc20token.sol\":1259:1318  mapping(address => mapping(address => uint)) public allowed */\n    tag_15:\n      callvalue\n      dup1\n      iszero\n      tag_100\n      jumpi\n      0x00\n      dup1\n      revert\n    tag_100:\n      pop\n      tag_101\n      0x04\n      dup1\n      calldatasize\n      sub\n      dup2\n      add\n      swap1\n      tag_102\n      swap2\n      swap1\n      tag_103\n      jump\t// in\n    tag_102:\n      tag_104\n      jump\t// in\n    tag_101:\n      mload(0x40)\n      tag_105\n      swap2\n      swap1\n      tag_60\n      jump\t// in\n    tag_105:\n      mload(0x40)\n      dup1\n      swap2\n      sub\n      swap1\n      return\n        /* \"contracts/Erc20token.sol\":4750:4824  function halt() public onlyAdmin{\r... */\n    tag_16:\n      callvalue\n      dup1\n      iszero\n      tag_106\n      jumpi\n      0x00\n      dup1\n      revert\n    tag_106:\n      pop\n      tag_107\n      tag_108\n      jump\t// in\n    tag_107:\n      stop\n        /* \"contracts/Erc20token.sol\":5197:5331  function changeDepositAddress(address payable newDepositAddress) public onlyAdmin{\r... */\n    tag_17:\n      callvalue\n      dup1\n      iszero\n      tag_109\n      jumpi\n      0x00\n      dup1\n      revert\n    tag_109:\n      pop\n      tag_110\n      0x04\n      dup1\n      calldatasize\n      sub\n      dup2\n      add\n      swap1\n      tag_111\n      swap2\n      swap1\n      tag_112\n      jump\t// in\n    tag_111:\n      tag_113\n      jump\t// in\n    tag_110:\n      stop\n        /* \"contracts/Erc20token.sol\":1461:1589  function balanceOf(address tokenOwner) public override view returns (uint balance){\r... */\n    tag_18:\n      callvalue\n      dup1\n      iszero\n      tag_114\n      jumpi\n      0x00\n      dup1\n      revert\n    tag_114:\n      pop\n      tag_115\n      0x04\n      dup1\n      calldatasize\n      sub\n      dup2\n      add\n      swap1\n      tag_116\n      swap2\n      swap1\n      tag_70\n      jump\t// in\n    tag_116:\n      tag_117\n      jump\t// in\n    tag_115:\n      mload(0x40)\n      tag_118\n      swap2\n      swap1\n      tag_60\n      jump\t// in\n    tag_118:\n      mload(0x40)\n      dup1\n      swap2\n      sub\n      swap1\n      return\n        /* \"contracts/Erc20token.sol\":5064:5179  function changeMinimumAmount(uint _maximumAmount) public onlyAdmin{\r... */\n    tag_19:\n      callvalue\n      dup1\n      iszero\n      tag_119\n      jumpi\n      0x00\n      dup1\n      revert\n    tag_119:\n      pop\n      tag_120\n      0x04\n      dup1\n      calldatasize\n      sub\n      dup2\n      add\n      swap1\n      tag_121\n      swap2\n      swap1\n      tag_122\n      jump\t// in\n    tag_121:\n      tag_123\n      jump\t// in\n    tag_120:\n      stop\n        /* \"contracts/Erc20token.sol\":3779:3818  uint public startTime = block.timestamp */\n    tag_20:\n      callvalue\n      dup1\n      iszero\n      tag_124\n      jumpi\n      0x00\n      dup1\n      revert\n    tag_124:\n      pop\n      tag_125\n      tag_126\n      jump\t// in\n    tag_125:\n      mload(0x40)\n      tag_127\n      swap2\n      swap1\n      tag_60\n      jump\t// in\n    tag_127:\n      mload(0x40)\n      dup1\n      swap2\n      sub\n      swap1\n      return\n        /* \"contracts/Erc20token.sol\":1069:1097  string public symbol = \"ZLZ\" */\n    tag_21:\n      callvalue\n      dup1\n      iszero\n      tag_128\n      jumpi\n      0x00\n      dup1\n      revert\n    tag_128:\n      pop\n      tag_129\n      tag_130\n      jump\t// in\n    tag_129:\n      mload(0x40)\n      tag_131\n      swap2\n      swap1\n      tag_45\n      jump\t// in\n    tag_131:\n      mload(0x40)\n      dup1\n      swap2\n      sub\n      swap1\n      return\n        /* \"contracts/Erc20token.sol\":7202:7430  function transfer(address to, uint tokens) public override returns (bool success){\r... */\n    tag_22:\n      callvalue\n      dup1\n      iszero\n      tag_132\n      jumpi\n      0x00\n      dup1\n      revert\n    tag_132:\n      pop\n      tag_133\n      0x04\n      dup1\n      calldatasize\n      sub\n      dup2\n      add\n      swap1\n      tag_134\n      swap2\n      swap1\n      tag_52\n      jump\t// in\n    tag_134:\n      tag_135\n      jump\t// in\n    tag_133:\n      mload(0x40)\n      tag_136\n      swap2\n      swap1\n      tag_55\n      jump\t// in\n    tag_136:\n      mload(0x40)\n      dup1\n      swap2\n      sub\n      swap1\n      return\n        /* \"contracts/Erc20token.sol\":3944:3979  uint public maximumAmount = 1 ether */\n    tag_23:\n      callvalue\n      dup1\n      iszero\n      tag_137\n      jumpi\n      0x00\n      dup1\n      revert\n    tag_137:\n      pop\n      tag_138\n      tag_139\n      jump\t// in\n    tag_138:\n      mload(0x40)\n      tag_140\n      swap2\n      swap1\n      tag_60\n      jump\t// in\n    tag_140:\n      mload(0x40)\n      dup1\n      swap2\n      sub\n      swap1\n      return\n        /* \"contracts/Erc20token.sol\":3900:3937  uint public minimumAmount = 0.1 ether */\n    tag_24:\n      callvalue\n      dup1\n      iszero\n      tag_141\n      jumpi\n      0x00\n      dup1\n      revert\n    tag_141:\n      pop\n      tag_142\n      tag_143\n      jump\t// in\n    tag_142:\n      mload(0x40)\n      tag_144\n      swap2\n      swap1\n      tag_60\n      jump\t// in\n    tag_144:\n      mload(0x40)\n      dup1\n      swap2\n      sub\n      swap1\n      return\n        /* \"contracts/Erc20token.sol\":3525:3549  uint public raisedAmount */\n    tag_25:\n      callvalue\n      dup1\n      iszero\n      tag_145\n      jumpi\n      0x00\n      dup1\n      revert\n    tag_145:\n      pop\n      tag_146\n      tag_147\n      jump\t// in\n    tag_146:\n      mload(0x40)\n      tag_148\n      swap2\n      swap1\n      tag_60\n      jump\t// in\n    tag_148:\n      mload(0x40)\n      dup1\n      swap2\n      sub\n      swap1\n      return\n        /* \"contracts/Erc20token.sol\":4937:5052  function changeMaximumAmount(uint _minimumAmount) public onlyAdmin{\r... */\n    tag_26:\n      callvalue\n      dup1\n      iszero\n      tag_149\n      jumpi\n      0x00\n      dup1\n      revert\n    tag_149:\n      pop\n      tag_150\n      0x04\n      dup1\n      calldatasize\n      sub\n      dup2\n      add\n      swap1\n      tag_151\n      swap2\n      swap1\n      tag_122\n      jump\t// in\n    tag_151:\n      tag_152\n      jump\t// in\n    tag_150:\n      stop\n        /* \"contracts/Erc20token.sol\":2070:2225  function allowance(address tokenOwner, address spender) public override view returns (uint remaining){\r... */\n    tag_27:\n      callvalue\n      dup1\n      iszero\n      tag_153\n      jumpi\n      0x00\n      dup1\n      revert\n    tag_153:\n      pop\n      tag_154\n      0x04\n      dup1\n      calldatasize\n      sub\n      dup2\n      add\n      swap1\n      tag_155\n      swap2\n      swap1\n      tag_103\n      jump\t// in\n    tag_155:\n      tag_156\n      jump\t// in\n    tag_154:\n      mload(0x40)\n      tag_157\n      swap2\n      swap1\n      tag_60\n      jump\t// in\n    tag_157:\n      mload(0x40)\n      dup1\n      swap2\n      sub\n      swap1\n      return\n        /* \"contracts/Erc20token.sol\":5874:7194  function invest() public payable onlyAdmin returns(bool){\r... */\n    tag_28:\n      tag_158\n      tag_159\n      jump\t// in\n    tag_158:\n      mload(0x40)\n      tag_160\n      swap2\n      swap1\n      tag_55\n      jump\t// in\n    tag_160:\n      mload(0x40)\n      dup1\n      swap2\n      sub\n      swap1\n      return\n        /* \"contracts/Erc20token.sol\":3328:3348  address public admin */\n    tag_29:\n      callvalue\n      dup1\n      iszero\n      tag_161\n      jumpi\n      0x00\n      dup1\n      revert\n    tag_161:\n      pop\n      tag_162\n      tag_163\n      jump\t// in\n    tag_162:\n      mload(0x40)\n      tag_164\n      swap2\n      swap1\n      tag_99\n      jump\t// in\n    tag_164:\n      mload(0x40)\n      dup1\n      swap2\n      sub\n      swap1\n      return\n        /* \"contracts/Erc20token.sol\":3608:3637  uint public hardCap = 5 ether */\n    tag_30:\n      callvalue\n      dup1\n      iszero\n      tag_165\n      jumpi\n      0x00\n      dup1\n      revert\n    tag_165:\n      pop\n      tag_166\n      tag_167\n      jump\t// in\n    tag_166:\n      mload(0x40)\n      tag_168\n      swap2\n      swap1\n      tag_60\n      jump\t// in\n    tag_168:\n      mload(0x40)\n      dup1\n      swap2\n      sub\n      swap1\n      return\n        /* \"contracts/Erc20token.sol\":4842:4919  function resume() public onlyAdmin{\r... */\n    tag_40:\n        /* \"contracts/Erc20token.sol\":4651:4656  admin */\n      0x07\n      0x00\n      swap1\n      sload\n      swap1\n      0x0100\n      exp\n      swap1\n      div\n      0xffffffffffffffffffffffffffffffffffffffff\n      and\n        /* \"contracts/Erc20token.sol\":4637:4656  msg.sender == admin */\n      0xffffffffffffffffffffffffffffffffffffffff\n      and\n        /* \"contracts/Erc20token.sol\":4637:4647  msg.sender */\n      caller\n        /* \"contracts/Erc20token.sol\":4637:4656  msg.sender == admin */\n      0xffffffffffffffffffffffffffffffffffffffff\n      and\n      eq\n        /* \"contracts/Erc20token.sol\":4629:4695  require(msg.sender == admin, \"Access denied, you ae not an admin\") */\n      tag_170\n      jumpi\n      mload(0x40)\n      0x08c379a000000000000000000000000000000000000000000000000000000000\n      dup2\n      mstore\n      0x04\n      add\n      tag_171\n      swap1\n      tag_172\n      jump\t// in\n    tag_171:\n      mload(0x40)\n      dup1\n      swap2\n      sub\n      swap1\n      revert\n    tag_170:\n        /* \"contracts/Erc20token.sol\":4898:4911  State.Running */\n      0x01\n        /* \"contracts/Erc20token.sol\":4887:4895  icoState */\n      0x0f\n      0x00\n        /* \"contracts/Erc20token.sol\":4887:4911  icoState = State.Running */\n      0x0100\n      exp\n      dup2\n      sload\n      dup2\n      0xff\n      mul\n      not\n      and\n      swap1\n      dup4\n      0x04\n      dup2\n      gt\n      iszero\n      tag_174\n      jumpi\n      tag_175\n      tag_176\n      jump\t// in\n    tag_175:\n    tag_174:\n      mul\n      or\n      swap1\n      sstore\n      pop\n        /* \"contracts/Erc20token.sol\":4842:4919  function resume() public onlyAdmin{\r... */\n      jump\t// out\n        /* \"contracts/Erc20token.sol\":1033:1062  string public name = \"ZILLAX\" */\n    tag_43:\n      0x00\n      dup1\n      sload\n      tag_177\n      swap1\n      tag_178\n      jump\t// in\n    tag_177:\n      dup1\n      0x1f\n      add\n      0x20\n      dup1\n      swap2\n      div\n      mul\n      0x20\n      add\n      mload(0x40)\n      swap1\n      dup2\n      add\n      0x40\n      mstore\n      dup1\n      swap3\n      swap2\n      swap1\n      dup2\n      dup2\n      mstore\n      0x20\n      add\n      dup3\n      dup1\n      sload\n      tag_179\n      swap1\n      tag_178\n      jump\t// in\n    tag_179:\n      dup1\n      iszero\n      tag_180\n      jumpi\n      dup1\n      0x1f\n      lt\n      tag_181\n      jumpi\n      0x0100\n      dup1\n      dup4\n      sload\n      div\n      mul\n      dup4\n      mstore\n      swap2\n      0x20\n      add\n      swap2\n      jump(tag_180)\n    tag_181:\n      dup3\n      add\n      swap2\n      swap1\n      0x00\n      mstore\n      keccak256(0x00, 0x20)\n      swap1\n    tag_182:\n      dup2\n      sload\n      dup2\n      mstore\n      swap1\n      0x01\n      add\n      swap1\n      0x20\n      add\n      dup1\n      dup4\n      gt\n      tag_182\n      jumpi\n      dup3\n      swap1\n      sub\n      0x1f\n      and\n      dup3\n      add\n      swap2\n    tag_180:\n      pop\n      pop\n      pop\n      pop\n      pop\n      dup2\n      jump\t// out\n        /* \"contracts/Erc20token.sol\":7438:7700  function burnTokens() public {\r... */\n    tag_48:\n        /* \"contracts/Erc20token.sol\":7489:7504  checkIcoState() */\n      tag_184\n        /* \"contracts/Erc20token.sol\":7489:7502  checkIcoState */\n      tag_80\n        /* \"contracts/Erc20token.sol\":7489:7504  checkIcoState() */\n      jump\t// in\n    tag_184:\n        /* \"contracts/Erc20token.sol\":7478:7486  icoState */\n      0x0f\n      0x00\n        /* \"contracts/Erc20token.sol\":7478:7504  icoState = checkIcoState() */\n      0x0100\n      exp\n      dup2\n      sload\n      dup2\n      0xff\n      mul\n      not\n      and\n      swap1\n      dup4\n      0x04\n      dup2\n      gt\n      iszero\n      tag_185\n      jumpi\n      tag_186\n      tag_176\n      jump\t// in\n    tag_186:\n    tag_185:\n      mul\n      or\n      swap1\n      sstore\n      pop\n        /* \"contracts/Erc20token.sol\":7535:7549  State.AfterEnd */\n      0x03\n        /* \"contracts/Erc20token.sol\":7523:7549  icoState == State.AfterEnd */\n      0x04\n      dup2\n      gt\n      iszero\n      tag_187\n      jumpi\n      tag_188\n      tag_176\n      jump\t// in\n    tag_188:\n    tag_187:\n        /* \"contracts/Erc20token.sol\":7523:7531  icoState */\n      0x0f\n      0x00\n      swap1\n      sload\n      swap1\n      0x0100\n      exp\n      swap1\n      div\n      0xff\n      and\n        /* \"contracts/Erc20token.sol\":7523:7549  icoState == State.AfterEnd */\n      0x04\n      dup2\n      gt\n      iszero\n      tag_189\n      jumpi\n      tag_190\n      tag_176\n      jump\t// in\n    tag_190:\n    tag_189:\n      eq\n        /* \"contracts/Erc20token.sol\":7515:7585  require(icoState == State.AfterEnd, \"Token sales is not yet finished\") */\n      tag_191\n      jumpi\n      mload(0x40)\n      0x08c379a000000000000000000000000000000000000000000000000000000000\n      dup2\n      mstore\n      0x04\n      add\n      tag_192\n      swap1\n      tag_193\n      jump\t// in\n    tag_192:\n      mload(0x40)\n      dup1\n      swap2\n      sub\n      swap1\n      revert\n    tag_191:\n        /* \"contracts/Erc20token.sol\":7624:7625  0 */\n      0x00\n        /* \"contracts/Erc20token.sol\":7604:7612  balances */\n      0x05\n        /* \"contracts/Erc20token.sol\":7604:7621  balances[founder] */\n      0x00\n        /* \"contracts/Erc20token.sol\":7613:7620  founder */\n      0x03\n      0x00\n      swap1\n      sload\n      swap1\n      0x0100\n      exp\n      swap1\n      div\n      0xffffffffffffffffffffffffffffffffffffffff\n      and\n        /* \"contracts/Erc20token.sol\":7604:7621  balances[founder] */\n      0xffffffffffffffffffffffffffffffffffffffff\n      and\n      0xffffffffffffffffffffffffffffffffffffffff\n      and\n      dup2\n      mstore\n      0x20\n      add\n      swap1\n      dup2\n      mstore\n      0x20\n      add\n      0x00\n      keccak256\n      sload\n        /* \"contracts/Erc20token.sol\":7604:7625  balances[founder] > 0 */\n      gt\n        /* \"contracts/Erc20token.sol\":7596:7660  require(balances[founder] > 0, \"No token available for burning\") */\n      tag_194\n      jumpi\n      mload(0x40)\n      0x08c379a000000000000000000000000000000000000000000000000000000000\n      dup2\n      mstore\n      0x04\n      add\n      tag_195\n      swap1\n      tag_196\n      jump\t// in\n    tag_195:\n      mload(0x40)\n      dup1\n      swap2\n      sub\n      swap1\n      revert\n    tag_194:\n        /* \"contracts/Erc20token.sol\":7691:7692  0 */\n      0x00\n        /* \"contracts/Erc20token.sol\":7671:7679  balances */\n      0x05\n        /* \"contracts/Erc20token.sol\":7671:7688  balances[founder] */\n      0x00\n        /* \"contracts/Erc20token.sol\":7680:7687  founder */\n      0x03\n      0x00\n      swap1\n      sload\n      swap1\n      0x0100\n      exp\n      swap1\n      div\n      0xffffffffffffffffffffffffffffffffffffffff\n      and\n        /* \"contracts/Erc20token.sol\":7671:7688  balances[founder] */\n      0xffffffffffffffffffffffffffffffffffffffff\n      and\n      0xffffffffffffffffffffffffffffffffffffffff\n      and\n      dup2\n      mstore\n      0x20\n      add\n      swap1\n      dup2\n      mstore\n      0x20\n      add\n      0x00\n      keccak256\n        /* \"contracts/Erc20token.sol\":7671:7692  balances[founder] = 0 */\n      dup2\n      swap1\n      sstore\n      pop\n        /* \"contracts/Erc20token.sol\":7438:7700  function burnTokens() public {\r... */\n      jump\t// out\n        /* \"contracts/Erc20token.sol\":2233:2635  function approve(address spender, uint tokens) public override returns (bool success){\r... */\n    tag_53:\n        /* \"contracts/Erc20token.sol\":2305:2317  bool success */\n      0x00\n        /* \"contracts/Erc20token.sol\":2363:2369  tokens */\n      dup2\n        /* \"contracts/Erc20token.sol\":2339:2347  balances */\n      0x05\n        /* \"contracts/Erc20token.sol\":2339:2359  balances[msg.sender] */\n      0x00\n        /* \"contracts/Erc20token.sol\":2348:2358  msg.sender */\n      caller\n        /* \"contracts/Erc20token.sol\":2339:2359  balances[msg.sender] */\n      0xffffffffffffffffffffffffffffffffffffffff\n      and\n      0xffffffffffffffffffffffffffffffffffffffff\n      and\n      dup2\n      mstore\n      0x20\n      add\n      swap1\n      dup2\n      mstore\n      0x20\n      add\n      0x00\n      keccak256\n      sload\n        /* \"contracts/Erc20token.sol\":2339:2369  balances[msg.sender] >= tokens */\n      lt\n      iszero\n        /* \"contracts/Erc20token.sol\":2331:2422  require(balances[msg.sender] >= tokens, \"Token value is greater than your current holding\") */\n      tag_198\n      jumpi\n      mload(0x40)\n      0x08c379a000000000000000000000000000000000000000000000000000000000\n      dup2\n      mstore\n      0x04\n      add\n      tag_199\n      swap1\n      tag_200\n      jump\t// in\n    tag_199:\n      mload(0x40)\n      dup1\n      swap2\n      sub\n      swap1\n      revert\n    tag_198:\n        /* \"contracts/Erc20token.sol\":2450:2451  0 */\n      0x00\n        /* \"contracts/Erc20token.sol\":2441:2447  tokens */\n      dup3\n        /* \"contracts/Erc20token.sol\":2441:2451  tokens > 0 */\n      gt\n        /* \"contracts/Erc20token.sol\":2433:2490  require(tokens > 0, \"Token value must be greater than 0\") */\n      tag_201\n      jumpi\n      mload(0x40)\n      0x08c379a000000000000000000000000000000000000000000000000000000000\n      dup2\n      mstore\n      0x04\n      add\n      tag_202\n      swap1\n      tag_203\n      jump\t// in\n    tag_202:\n      mload(0x40)\n      dup1\n      swap2\n      sub\n      swap1\n      revert\n    tag_201:\n        /* \"contracts/Erc20token.sol\":2542:2548  tokens */\n      dup2\n        /* \"contracts/Erc20token.sol\":2511:2518  allowed */\n      0x06\n        /* \"contracts/Erc20token.sol\":2511:2530  allowed[msg.sender] */\n      0x00\n        /* \"contracts/Erc20token.sol\":2519:2529  msg.sender */\n      caller\n        /* \"contracts/Erc20token.sol\":2511:2530  allowed[msg.sender] */\n      0xffffffffffffffffffffffffffffffffffffffff\n      and\n      0xffffffffffffffffffffffffffffffffffffffff\n      and\n      dup2\n      mstore\n      0x20\n      add\n      swap1\n      dup2\n      mstore\n      0x20\n      add\n      0x00\n      keccak256\n        /* \"contracts/Erc20token.sol\":2511:2539  allowed[msg.sender][spender] */\n      0x00\n        /* \"contracts/Erc20token.sol\":2531:2538  spender */\n      dup6\n        /* \"contracts/Erc20token.sol\":2511:2539  allowed[msg.sender][spender] */\n      0xffffffffffffffffffffffffffffffffffffffff\n      and\n      0xffffffffffffffffffffffffffffffffffffffff\n      and\n      dup2\n      mstore\n      0x20\n      add\n      swap1\n      dup2\n      mstore\n      0x20\n      add\n      0x00\n      keccak256\n        /* \"contracts/Erc20token.sol\":2511:2548  allowed[msg.sender][spender] = tokens */\n      dup2\n      swap1\n      sstore\n      pop\n        /* \"contracts/Erc20token.sol\":2587:2594  spender */\n      dup3\n        /* \"contracts/Erc20token.sol\":2566:2603  Approval(msg.sender, spender, tokens) */\n      0xffffffffffffffffffffffffffffffffffffffff\n      and\n        /* \"contracts/Erc20token.sol\":2575:2585  msg.sender */\n      caller\n        /* \"contracts/Erc20token.sol\":2566:2603  Approval(msg.sender, spender, tokens) */\n      0xffffffffffffffffffffffffffffffffffffffff\n      and\n      0x8c5be1e5ebec7d5bd14f71427d1e84f3dd0314c0f7b2291e5b200ac8c7c3b925\n        /* \"contracts/Erc20token.sol\":2596:2602  tokens */\n      dup5\n        /* \"contracts/Erc20token.sol\":2566:2603  Approval(msg.sender, spender, tokens) */\n      mload(0x40)\n      tag_204\n      swap2\n      swap1\n      tag_60\n      jump\t// in\n    tag_204:\n      mload(0x40)\n      dup1\n      swap2\n      sub\n      swap1\n      log3\n        /* \"contracts/Erc20token.sol\":2623:2627  true */\n      0x01\n        /* \"contracts/Erc20token.sol\":2616:2627  return true */\n      swap1\n      pop\n        /* \"contracts/Erc20token.sol\":2233:2635  function approve(address spender, uint tokens) public override returns (bool success){\r... */\n      swap3\n      swap2\n      pop\n      pop\n      jump\t// out\n        /* \"contracts/Erc20token.sol\":1168:1200  uint public override totalSupply */\n    tag_58:\n      sload(0x04)\n      dup2\n      jump\t// out\n        /* \"contracts/Erc20token.sol\":2643:3279  function transferFrom(address from, address to, uint tokens) public override returns (bool success){\r... */\n    tag_65:\n        /* \"contracts/Erc20token.sol\":2729:2741  bool success */\n      0x00\n        /* \"contracts/Erc20token.sol\":2790:2796  tokens */\n      dup2\n        /* \"contracts/Erc20token.sol\":2761:2768  allowed */\n      0x06\n        /* \"contracts/Erc20token.sol\":2761:2774  allowed[from] */\n      0x00\n        /* \"contracts/Erc20token.sol\":2769:2773  from */\n      dup7\n        /* \"contracts/Erc20token.sol\":2761:2774  allowed[from] */\n      0xffffffffffffffffffffffffffffffffffffffff\n      and\n      0xffffffffffffffffffffffffffffffffffffffff\n      and\n      dup2\n      mstore\n      0x20\n      add\n      swap1\n      dup2\n      mstore\n      0x20\n      add\n      0x00\n      keccak256\n        /* \"contracts/Erc20token.sol\":2761:2786  allowed[from][msg.sender] */\n      0x00\n        /* \"contracts/Erc20token.sol\":2775:2785  msg.sender */\n      caller\n        /* \"contracts/Erc20token.sol\":2761:2786  allowed[from][msg.sender] */\n      0xffffffffffffffffffffffffffffffffffffffff\n      and\n      0xffffffffffffffffffffffffffffffffffffffff\n      and\n      dup2\n      mstore\n      0x20\n      add\n      swap1\n      dup2\n      mstore\n      0x20\n      add\n      0x00\n      keccak256\n      sload\n        /* \"contracts/Erc20token.sol\":2761:2796  allowed[from][msg.sender] >= tokens */\n      lt\n      iszero\n        /* \"contracts/Erc20token.sol\":2753:2849  require(allowed[from][msg.sender] >= tokens, \"Token value is greater than the approved balance\") */\n      tag_206\n      jumpi\n      mload(0x40)\n      0x08c379a000000000000000000000000000000000000000000000000000000000\n      dup2\n      mstore\n      0x04\n      add\n      tag_207\n      swap1\n      tag_208\n      jump\t// in\n    tag_207:\n      mload(0x40)\n      dup1\n      swap2\n      sub\n      swap1\n      revert\n    tag_206:\n        /* \"contracts/Erc20token.sol\":2886:2892  tokens */\n      dup2\n        /* \"contracts/Erc20token.sol\":2868:2876  balances */\n      0x05\n        /* \"contracts/Erc20token.sol\":2868:2882  balances[from] */\n      0x00\n        /* \"contracts/Erc20token.sol\":2877:2881  from */\n      dup7\n        /* \"contracts/Erc20token.sol\":2868:2882  balances[from] */\n      0xffffffffffffffffffffffffffffffffffffffff\n      and\n      0xffffffffffffffffffffffffffffffffffffffff\n      and\n      dup2\n      mstore\n      0x20\n      add\n      swap1\n      dup2\n      mstore\n      0x20\n      add\n      0x00\n      keccak256\n      sload\n        /* \"contracts/Erc20token.sol\":2868:2892  balances[from] >= tokens */\n      lt\n      iszero\n        /* \"contracts/Erc20token.sol\":2860:2915  require(balances[from] >= tokens, \"Insuficient Balnce\") */\n      tag_209\n      jumpi\n      mload(0x40)\n      0x08c379a000000000000000000000000000000000000000000000000000000000\n      dup2\n      mstore\n      0x04\n      add\n      tag_210\n      swap1\n      tag_211\n      jump\t// in\n    tag_210:\n      mload(0x40)\n      dup1\n      swap2\n      sub\n      swap1\n      revert\n    tag_209:\n        /* \"contracts/Erc20token.sol\":2943:2944  0 */\n      0x00\n        /* \"contracts/Erc20token.sol\":2934:2940  tokens */\n      dup3\n        /* \"contracts/Erc20token.sol\":2934:2944  tokens > 0 */\n      gt\n        /* \"contracts/Erc20token.sol\":2926:2983  require(tokens > 0, \"Token value must be greater than 0\") */\n      tag_212\n      jumpi\n      mload(0x40)\n      0x08c379a000000000000000000000000000000000000000000000000000000000\n      dup2\n      mstore\n      0x04\n      add\n      tag_213\n      swap1\n      tag_203\n      jump\t// in\n    tag_213:\n      mload(0x40)\n      dup1\n      swap2\n      sub\n      swap1\n      revert\n    tag_212:\n        /* \"contracts/Erc20token.sol\":3025:3031  tokens */\n      dup2\n        /* \"contracts/Erc20token.sol\":2996:3003  allowed */\n      0x06\n        /* \"contracts/Erc20token.sol\":2996:3009  allowed[from] */\n      0x00\n        /* \"contracts/Erc20token.sol\":3004:3008  from */\n      dup7\n        /* \"contracts/Erc20token.sol\":2996:3009  allowed[from] */\n      0xffffffffffffffffffffffffffffffffffffffff\n      and\n      0xffffffffffffffffffffffffffffffffffffffff\n      and\n      dup2\n      mstore\n      0x20\n      add\n      swap1\n      dup2\n      mstore\n      0x20\n      add\n      0x00\n      keccak256\n        /* \"contracts/Erc20token.sol\":2996:3021  allowed[from][msg.sender] */\n      0x00\n        /* \"contracts/Erc20token.sol\":3010:3020  msg.sender */\n      caller\n        /* \"contracts/Erc20token.sol\":2996:3021  allowed[from][msg.sender] */\n      0xffffffffffffffffffffffffffffffffffffffff\n      and\n      0xffffffffffffffffffffffffffffffffffffffff\n      and\n      dup2\n      mstore\n      0x20\n      add\n      swap1\n      dup2\n      mstore\n      0x20\n      add\n      0x00\n      keccak256\n      0x00\n        /* \"contracts/Erc20token.sol\":2996:3031  allowed[from][msg.sender] -= tokens */\n      dup3\n      dup3\n      sload\n      tag_214\n      swap2\n      swap1\n      tag_215\n      jump\t// in\n    tag_214:\n      swap3\n      pop\n      pop\n      dup2\n      swap1\n      sstore\n      pop\n        /* \"contracts/Erc20token.sol\":3113:3119  tokens */\n      dup2\n        /* \"contracts/Erc20token.sol\":3095:3103  balances */\n      0x05\n        /* \"contracts/Erc20token.sol\":3095:3109  balances[from] */\n      0x00\n        /* \"contracts/Erc20token.sol\":3104:3108  from */\n      dup7\n        /* \"contracts/Erc20token.sol\":3095:3109  balances[from] */\n      0xffffffffffffffffffffffffffffffffffffffff\n      and\n      0xffffffffffffffffffffffffffffffffffffffff\n      and\n      dup2\n      mstore\n      0x20\n      add\n      swap1\n      dup2\n      mstore\n      0x20\n      add\n      0x00\n      keccak256\n      0x00\n        /* \"contracts/Erc20token.sol\":3095:3119  balances[from] -= tokens */\n      dup3\n      dup3\n      sload\n      tag_216\n      swap2\n      swap1\n      tag_215\n      jump\t// in\n    tag_216:\n      swap3\n      pop\n      pop\n      dup2\n      swap1\n      sstore\n      pop\n        /* \"contracts/Erc20token.sol\":3197:3203  tokens */\n      dup2\n        /* \"contracts/Erc20token.sol\":3181:3189  balances */\n      0x05\n        /* \"contracts/Erc20token.sol\":3181:3193  balances[to] */\n      0x00\n        /* \"contracts/Erc20token.sol\":3190:3192  to */\n      dup6\n        /* \"contracts/Erc20token.sol\":3181:3193  balances[to] */\n      0xffffffffffffffffffffffffffffffffffffffff\n      and\n      0xffffffffffffffffffffffffffffffffffffffff\n      and\n      dup2\n      mstore\n      0x20\n      add\n      swap1\n      dup2\n      mstore\n      0x20\n      add\n      0x00\n      keccak256\n      0x00\n        /* \"contracts/Erc20token.sol\":3181:3203  balances[to] += tokens */\n      dup3\n      dup3\n      sload\n      tag_217\n      swap2\n      swap1\n      tag_218\n      jump\t// in\n    tag_217:\n      swap3\n      pop\n      pop\n      dup2\n      swap1\n      sstore\n      pop\n        /* \"contracts/Erc20token.sol\":3236:3238  to */\n      dup3\n        /* \"contracts/Erc20token.sol\":3221:3247  Transfer(from, to, tokens) */\n      0xffffffffffffffffffffffffffffffffffffffff\n      and\n        /* \"contracts/Erc20token.sol\":3230:3234  from */\n      dup5\n        /* \"contracts/Erc20token.sol\":3221:3247  Transfer(from, to, tokens) */\n      0xffffffffffffffffffffffffffffffffffffffff\n      and\n      0xddf252ad1be2c89b69c2b068fc378daa952ba7f163c4a11628f55a4df523b3ef\n        /* \"contracts/Erc20token.sol\":3240:3246  tokens */\n      dup5\n        /* \"contracts/Erc20token.sol\":3221:3247  Transfer(from, to, tokens) */\n      mload(0x40)\n      tag_219\n      swap2\n      swap1\n      tag_60\n      jump\t// in\n    tag_219:\n      mload(0x40)\n      dup1\n      swap2\n      sub\n      swap1\n      log3\n        /* \"contracts/Erc20token.sol\":3267:3271  true */\n      0x01\n        /* \"contracts/Erc20token.sol\":3260:3271  return true */\n      swap1\n      pop\n        /* \"contracts/Erc20token.sol\":2643:3279  function transferFrom(address from, address to, uint tokens) public override returns (bool success){\r... */\n      swap4\n      swap3\n      pop\n      pop\n      pop\n      jump\t// out\n        /* \"contracts/Erc20token.sol\":1209:1250  mapping(address => uint) public  balances */\n    tag_71:\n      mstore(0x20, 0x05)\n      dup1\n      0x00\n      mstore\n      keccak256(0x00, 0x40)\n      0x00\n      swap2\n      pop\n      swap1\n      pop\n      sload\n      dup2\n      jump\t// out\n        /* \"contracts/Erc20token.sol\":4085:4122  address payable public depositAddress */\n    tag_75:\n      0x0f\n      0x01\n      swap1\n      sload\n      swap1\n      0x0100\n      exp\n      swap1\n      div\n      0xffffffffffffffffffffffffffffffffffffffff\n      and\n      dup2\n      jump\t// out\n        /* \"contracts/Erc20token.sol\":5339:5825  function checkIcoState() public view returns(State){\r... */\n    tag_80:\n        /* \"contracts/Erc20token.sol\":5384:5389  State */\n      0x00\n        /* \"contracts/Erc20token.sol\":5401:5419  State currentState */\n      dup1\n        /* \"contracts/Erc20token.sol\":5445:5457  State.Halted */\n      0x04\n        /* \"contracts/Erc20token.sol\":5433:5457  icoState == State.Halted */\n      dup1\n      dup2\n      gt\n      iszero\n      tag_221\n      jumpi\n      tag_222\n      tag_176\n      jump\t// in\n    tag_222:\n    tag_221:\n        /* \"contracts/Erc20token.sol\":5433:5441  icoState */\n      0x0f\n      0x00\n      swap1\n      sload\n      swap1\n      0x0100\n      exp\n      swap1\n      div\n      0xff\n      and\n        /* \"contracts/Erc20token.sol\":5433:5457  icoState == State.Halted */\n      0x04\n      dup2\n      gt\n      iszero\n      tag_223\n      jumpi\n      tag_224\n      tag_176\n      jump\t// in\n    tag_224:\n    tag_223:\n      eq\n        /* \"contracts/Erc20token.sol\":5430:5788  if(icoState == State.Halted){\r... */\n      iszero\n      tag_225\n      jumpi\n        /* \"contracts/Erc20token.sol\":5488:5500  State.Halted */\n      0x04\n        /* \"contracts/Erc20token.sol\":5473:5500  currentState = State.Halted */\n      swap1\n      pop\n        /* \"contracts/Erc20token.sol\":5430:5788  if(icoState == State.Halted){\r... */\n      jump(tag_226)\n    tag_225:\n        /* \"contracts/Erc20token.sol\":5538:5547  startTime */\n      sload(0x0b)\n        /* \"contracts/Erc20token.sol\":5520:5535  block.timestamp */\n      timestamp\n        /* \"contracts/Erc20token.sol\":5520:5547  block.timestamp < startTime */\n      lt\n        /* \"contracts/Erc20token.sol\":5517:5788  if(block.timestamp < startTime){\r... */\n      iszero\n      tag_227\n      jumpi\n        /* \"contracts/Erc20token.sol\":5578:5595  State.beforeStart */\n      0x00\n        /* \"contracts/Erc20token.sol\":5563:5595  currentState = State.beforeStart */\n      swap1\n      pop\n        /* \"contracts/Erc20token.sol\":5517:5788  if(block.timestamp < startTime){\r... */\n      jump(tag_228)\n    tag_227:\n        /* \"contracts/Erc20token.sol\":5634:5643  startTime */\n      sload(0x0b)\n        /* \"contracts/Erc20token.sol\":5615:5630  block.timestamp */\n      timestamp\n        /* \"contracts/Erc20token.sol\":5615:5643  block.timestamp >= startTime */\n      lt\n      iszero\n        /* \"contracts/Erc20token.sol\":5615:5672  block.timestamp >= startTime && block.timestamp < endTime */\n      dup1\n      iszero\n      tag_229\n      jumpi\n      pop\n        /* \"contracts/Erc20token.sol\":5665:5672  endTime */\n      sload(0x0c)\n        /* \"contracts/Erc20token.sol\":5647:5662  block.timestamp */\n      timestamp\n        /* \"contracts/Erc20token.sol\":5647:5672  block.timestamp < endTime */\n      lt\n        /* \"contracts/Erc20token.sol\":5615:5672  block.timestamp >= startTime && block.timestamp < endTime */\n    tag_229:\n        /* \"contracts/Erc20token.sol\":5612:5788  if(block.timestamp >= startTime && block.timestamp < endTime){\r... */\n      iszero\n      tag_230\n      jumpi\n        /* \"contracts/Erc20token.sol\":5703:5716  State.Running */\n      0x01\n        /* \"contracts/Erc20token.sol\":5688:5716  currentState = State.Running */\n      swap1\n      pop\n        /* \"contracts/Erc20token.sol\":5612:5788  if(block.timestamp >= startTime && block.timestamp < endTime){\r... */\n      jump(tag_231)\n    tag_230:\n        /* \"contracts/Erc20token.sol\":5762:5776  State.AfterEnd */\n      0x03\n        /* \"contracts/Erc20token.sol\":5747:5776  currentState = State.AfterEnd */\n      swap1\n      pop\n        /* \"contracts/Erc20token.sol\":5612:5788  if(block.timestamp >= startTime && block.timestamp < endTime){\r... */\n    tag_231:\n        /* \"contracts/Erc20token.sol\":5517:5788  if(block.timestamp < startTime){\r... */\n    tag_228:\n        /* \"contracts/Erc20token.sol\":5430:5788  if(icoState == State.Halted){\r... */\n    tag_226:\n        /* \"contracts/Erc20token.sol\":5805:5817  currentState */\n      dup1\n        /* \"contracts/Erc20token.sol\":5798:5817  return currentState */\n      swap2\n      pop\n      pop\n        /* \"contracts/Erc20token.sol\":5339:5825  function checkIcoState() public view returns(State){\r... */\n      swap1\n      jump\t// out\n        /* \"contracts/Erc20token.sol\":1104:1128  uint public decimals = 0 */\n    tag_85:\n      sload(0x02)\n      dup2\n      jump\t// out\n        /* \"contracts/Erc20token.sol\":3825:3844  uint public endTime */\n    tag_89:\n      sload(0x0c)\n      dup2\n      jump\t// out\n        /* \"contracts/Erc20token.sol\":4028:4049  State public icoState */\n    tag_93:\n      0x0f\n      0x00\n      swap1\n      sload\n      swap1\n      0x0100\n      exp\n      swap1\n      div\n      0xff\n      and\n      dup2\n      jump\t// out\n        /* \"contracts/Erc20token.sol\":1137:1159  address public founder */\n    tag_97:\n      0x03\n      0x00\n      swap1\n      sload\n      swap1\n      0x0100\n      exp\n      swap1\n      div\n      0xffffffffffffffffffffffffffffffffffffffff\n      and\n      dup2\n      jump\t// out\n        /* \"contracts/Erc20token.sol\":1259:1318  mapping(address => mapping(address => uint)) public allowed */\n    tag_104:\n      mstore(0x20, 0x06)\n      dup2\n      0x00\n      mstore\n      mstore(0x20, keccak256(0x00, 0x40))\n      dup1\n      0x00\n      mstore\n      keccak256(0x00, 0x40)\n      0x00\n      swap2\n      pop\n      swap2\n      pop\n      pop\n      sload\n      dup2\n      jump\t// out\n        /* \"contracts/Erc20token.sol\":4750:4824  function halt() public onlyAdmin{\r... */\n    tag_108:\n        /* \"contracts/Erc20token.sol\":4651:4656  admin */\n      0x07\n      0x00\n      swap1\n      sload\n      swap1\n      0x0100\n      exp\n      swap1\n      div\n      0xffffffffffffffffffffffffffffffffffffffff\n      and\n        /* \"contracts/Erc20token.sol\":4637:4656  msg.sender == admin */\n      0xffffffffffffffffffffffffffffffffffffffff\n      and\n        /* \"contracts/Erc20token.sol\":4637:4647  msg.sender */\n      caller\n        /* \"contracts/Erc20token.sol\":4637:4656  msg.sender == admin */\n      0xffffffffffffffffffffffffffffffffffffffff\n      and\n      eq\n        /* \"contracts/Erc20token.sol\":4629:4695  require(msg.sender == admin, \"Access denied, you ae not an admin\") */\n      tag_233\n      jumpi\n      mload(0x40)\n      0x08c379a000000000000000000000000000000000000000000000000000000000\n      dup2\n      mstore\n      0x04\n      add\n      tag_234\n      swap1\n      tag_172\n      jump\t// in\n    tag_234:\n      mload(0x40)\n      dup1\n      swap2\n      sub\n      swap1\n      revert\n    tag_233:\n        /* \"contracts/Erc20token.sol\":4804:4816  State.Halted */\n      0x04\n        /* \"contracts/Erc20token.sol\":4793:4801  icoState */\n      0x0f\n      0x00\n        /* \"contracts/Erc20token.sol\":4793:4816  icoState = State.Halted */\n      0x0100\n      exp\n      dup2\n      sload\n      dup2\n      0xff\n      mul\n      not\n      and\n      swap1\n      dup4\n      0x04\n      dup2\n      gt\n      iszero\n      tag_236\n      jumpi\n      tag_237\n      tag_176\n      jump\t// in\n    tag_237:\n    tag_236:\n      mul\n      or\n      swap1\n      sstore\n      pop\n        /* \"contracts/Erc20token.sol\":4750:4824  function halt() public onlyAdmin{\r... */\n      jump\t// out\n        /* \"contracts/Erc20token.sol\":5197:5331  function changeDepositAddress(address payable newDepositAddress) public onlyAdmin{\r... */\n    tag_113:\n        /* \"contracts/Erc20token.sol\":4651:4656  admin */\n      0x07\n      0x00\n      swap1\n      sload\n      swap1\n      0x0100\n      exp\n      swap1\n      div\n      0xffffffffffffffffffffffffffffffffffffffff\n      and\n        /* \"contracts/Erc20token.sol\":4637:4656  msg.sender == admin */\n      0xffffffffffffffffffffffffffffffffffffffff\n      and\n        /* \"contracts/Erc20token.sol\":4637:4647  msg.sender */\n      caller\n        /* \"contracts/Erc20token.sol\":4637:4656  msg.sender == admin */\n      0xffffffffffffffffffffffffffffffffffffffff\n      and\n      eq\n        /* \"contracts/Erc20token.sol\":4629:4695  require(msg.sender == admin, \"Access denied, you ae not an admin\") */\n      tag_239\n      jumpi\n      mload(0x40)\n      0x08c379a000000000000000000000000000000000000000000000000000000000\n      dup2\n      mstore\n      0x04\n      add\n      tag_240\n      swap1\n      tag_172\n      jump\t// in\n    tag_240:\n      mload(0x40)\n      dup1\n      swap2\n      sub\n      swap1\n      revert\n    tag_239:\n        /* \"contracts/Erc20token.sol\":5306:5323  newDepositAddress */\n      dup1\n        /* \"contracts/Erc20token.sol\":5289:5303  depositAddress */\n      0x0f\n      0x01\n        /* \"contracts/Erc20token.sol\":5289:5323  depositAddress = newDepositAddress */\n      0x0100\n      exp\n      dup2\n      sload\n      dup2\n      0xffffffffffffffffffffffffffffffffffffffff\n      mul\n      not\n      and\n      swap1\n      dup4\n      0xffffffffffffffffffffffffffffffffffffffff\n      and\n      mul\n      or\n      swap1\n      sstore\n      pop\n        /* \"contracts/Erc20token.sol\":5197:5331  function changeDepositAddress(address payable newDepositAddress) public onlyAdmin{\r... */\n      pop\n      jump\t// out\n        /* \"contracts/Erc20token.sol\":1461:1589  function balanceOf(address tokenOwner) public override view returns (uint balance){\r... */\n    tag_117:\n        /* \"contracts/Erc20token.sol\":1530:1542  uint balance */\n      0x00\n        /* \"contracts/Erc20token.sol\":1561:1569  balances */\n      0x05\n        /* \"contracts/Erc20token.sol\":1561:1581  balances[tokenOwner] */\n      0x00\n        /* \"contracts/Erc20token.sol\":1570:1580  tokenOwner */\n      dup4\n        /* \"contracts/Erc20token.sol\":1561:1581  balances[tokenOwner] */\n      0xffffffffffffffffffffffffffffffffffffffff\n      and\n      0xffffffffffffffffffffffffffffffffffffffff\n      and\n      dup2\n      mstore\n      0x20\n      add\n      swap1\n      dup2\n      mstore\n      0x20\n      add\n      0x00\n      keccak256\n      sload\n        /* \"contracts/Erc20token.sol\":1554:1581  return balances[tokenOwner] */\n      swap1\n      pop\n        /* \"contracts/Erc20token.sol\":1461:1589  function balanceOf(address tokenOwner) public override view returns (uint balance){\r... */\n      swap2\n      swap1\n      pop\n      jump\t// out\n        /* \"contracts/Erc20token.sol\":5064:5179  function changeMinimumAmount(uint _maximumAmount) public onlyAdmin{\r... */\n    tag_123:\n        /* \"contracts/Erc20token.sol\":4651:4656  admin */\n      0x07\n      0x00\n      swap1\n      sload\n      swap1\n      0x0100\n      exp\n      swap1\n      div\n      0xffffffffffffffffffffffffffffffffffffffff\n      and\n        /* \"contracts/Erc20token.sol\":4637:4656  msg.sender == admin */\n      0xffffffffffffffffffffffffffffffffffffffff\n      and\n        /* \"contracts/Erc20token.sol\":4637:4647  msg.sender */\n      caller\n        /* \"contracts/Erc20token.sol\":4637:4656  msg.sender == admin */\n      0xffffffffffffffffffffffffffffffffffffffff\n      and\n      eq\n        /* \"contracts/Erc20token.sol\":4629:4695  require(msg.sender == admin, \"Access denied, you ae not an admin\") */\n      tag_244\n      jumpi\n      mload(0x40)\n      0x08c379a000000000000000000000000000000000000000000000000000000000\n      dup2\n      mstore\n      0x04\n      add\n      tag_245\n      swap1\n      tag_172\n      jump\t// in\n    tag_245:\n      mload(0x40)\n      dup1\n      swap2\n      sub\n      swap1\n      revert\n    tag_244:\n        /* \"contracts/Erc20token.sol\":5157:5171  _maximumAmount */\n      dup1\n        /* \"contracts/Erc20token.sol\":5141:5154  maximumAmount */\n      0x0e\n        /* \"contracts/Erc20token.sol\":5141:5171  maximumAmount = _maximumAmount */\n      dup2\n      swap1\n      sstore\n      pop\n        /* \"contracts/Erc20token.sol\":5064:5179  function changeMinimumAmount(uint _maximumAmount) public onlyAdmin{\r... */\n      pop\n      jump\t// out\n        /* \"contracts/Erc20token.sol\":3779:3818  uint public startTime = block.timestamp */\n    tag_126:\n      sload(0x0b)\n      dup2\n      jump\t// out\n        /* \"contracts/Erc20token.sol\":1069:1097  string public symbol = \"ZLZ\" */\n    tag_130:\n      0x01\n      dup1\n      sload\n      tag_247\n      swap1\n      tag_178\n      jump\t// in\n    tag_247:\n      dup1\n      0x1f\n      add\n      0x20\n      dup1\n      swap2\n      div\n      mul\n      0x20\n      add\n      mload(0x40)\n      swap1\n      dup2\n      add\n      0x40\n      mstore\n      dup1\n      swap3\n      swap2\n      swap1\n      dup2\n      dup2\n      mstore\n      0x20\n      add\n      dup3\n      dup1\n      sload\n      tag_248\n      swap1\n      tag_178\n      jump\t// in\n    tag_248:\n      dup1\n      iszero\n      tag_249\n      jumpi\n      dup1\n      0x1f\n      lt\n      tag_250\n      jumpi\n      0x0100\n      dup1\n      dup4\n      sload\n      div\n      mul\n      dup4\n      mstore\n      swap2\n      0x20\n      add\n      swap2\n      jump(tag_249)\n    tag_250:\n      dup3\n      add\n      swap2\n      swap1\n      0x00\n      mstore\n      keccak256(0x00, 0x20)\n      swap1\n    tag_251:\n      dup2\n      sload\n      dup2\n      mstore\n      swap1\n      0x01\n      add\n      swap1\n      0x20\n      add\n      dup1\n      dup4\n      gt\n      tag_251\n      jumpi\n      dup3\n      swap1\n      sub\n      0x1f\n      and\n      dup3\n      add\n      swap2\n    tag_249:\n      pop\n      pop\n      pop\n      pop\n      pop\n      dup2\n      jump\t// out\n        /* \"contracts/Erc20token.sol\":7202:7430  function transfer(address to, uint tokens) public override returns (bool success){\r... */\n    tag_135:\n        /* \"contracts/Erc20token.sol\":7270:7282  bool success */\n      0x00\n        /* \"contracts/Erc20token.sol\":7320:7327  endTime */\n      sload(0x0c)\n        /* \"contracts/Erc20token.sol\":7302:7317  block.timestamp */\n      timestamp\n        /* \"contracts/Erc20token.sol\":7302:7327  block.timestamp > endTime */\n      gt\n        /* \"contracts/Erc20token.sol\":7294:7363  require(block.timestamp > endTime, \"Token sales is not yet finished\") */\n      tag_253\n      jumpi\n      mload(0x40)\n      0x08c379a000000000000000000000000000000000000000000000000000000000\n      dup2\n      mstore\n      0x04\n      add\n      tag_254\n      swap1\n      tag_193\n      jump\t// in\n    tag_254:\n      mload(0x40)\n      dup1\n      swap2\n      sub\n      swap1\n      revert\n    tag_253:\n        /* \"contracts/Erc20token.sol\":7374:7400  super.transfer(to, tokens) */\n      tag_255\n        /* \"contracts/Erc20token.sol\":7389:7391  to */\n      dup4\n        /* \"contracts/Erc20token.sol\":7393:7399  tokens */\n      dup4\n        /* \"contracts/Erc20token.sol\":7374:7388  super.transfer */\n      tag_256\n        /* \"contracts/Erc20token.sol\":7374:7400  super.transfer(to, tokens) */\n      jump\t// in\n    tag_255:\n      pop\n        /* \"contracts/Erc20token.sol\":7418:7422  true */\n      0x01\n        /* \"contracts/Erc20token.sol\":7411:7422  return true */\n      swap1\n      pop\n        /* \"contracts/Erc20token.sol\":7202:7430  function transfer(address to, uint tokens) public override returns (bool success){\r... */\n      swap3\n      swap2\n      pop\n      pop\n      jump\t// out\n        /* \"contracts/Erc20token.sol\":3944:3979  uint public maximumAmount = 1 ether */\n    tag_139:\n      sload(0x0e)\n      dup2\n      jump\t// out\n        /* \"contracts/Erc20token.sol\":3900:3937  uint public minimumAmount = 0.1 ether */\n    tag_143:\n      sload(0x0d)\n      dup2\n      jump\t// out\n        /* \"contracts/Erc20token.sol\":3525:3549  uint public raisedAmount */\n    tag_147:\n      sload(0x09)\n      dup2\n      jump\t// out\n        /* \"contracts/Erc20token.sol\":4937:5052  function changeMaximumAmount(uint _minimumAmount) public onlyAdmin{\r... */\n    tag_152:\n        /* \"contracts/Erc20token.sol\":4651:4656  admin */\n      0x07\n      0x00\n      swap1\n      sload\n      swap1\n      0x0100\n      exp\n      swap1\n      div\n      0xffffffffffffffffffffffffffffffffffffffff\n      and\n        /* \"contracts/Erc20token.sol\":4637:4656  msg.sender == admin */\n      0xffffffffffffffffffffffffffffffffffffffff\n      and\n        /* \"contracts/Erc20token.sol\":4637:4647  msg.sender */\n      caller\n        /* \"contracts/Erc20token.sol\":4637:4656  msg.sender == admin */\n      0xffffffffffffffffffffffffffffffffffffffff\n      and\n      eq\n        /* \"contracts/Erc20token.sol\":4629:4695  require(msg.sender == admin, \"Access denied, you ae not an admin\") */\n      tag_258\n      jumpi\n      mload(0x40)\n      0x08c379a000000000000000000000000000000000000000000000000000000000\n      dup2\n      mstore\n      0x04\n      add\n      tag_259\n      swap1\n      tag_172\n      jump\t// in\n    tag_259:\n      mload(0x40)\n      dup1\n      swap2\n      sub\n      swap1\n      revert\n    tag_258:\n        /* \"contracts/Erc20token.sol\":5030:5044  _minimumAmount */\n      dup1\n        /* \"contracts/Erc20token.sol\":5014:5027  minimumAmount */\n      0x0d\n        /* \"contracts/Erc20token.sol\":5014:5044  minimumAmount = _minimumAmount */\n      dup2\n      swap1\n      sstore\n      pop\n        /* \"contracts/Erc20token.sol\":4937:5052  function changeMaximumAmount(uint _minimumAmount) public onlyAdmin{\r... */\n      pop\n      jump\t// out\n        /* \"contracts/Erc20token.sol\":2070:2225  function allowance(address tokenOwner, address spender) public override view returns (uint remaining){\r... */\n    tag_156:\n        /* \"contracts/Erc20token.sol\":2156:2170  uint remaining */\n      0x00\n        /* \"contracts/Erc20token.sol\":2189:2196  allowed */\n      0x06\n        /* \"contracts/Erc20token.sol\":2189:2208  allowed[tokenOwner] */\n      0x00\n        /* \"contracts/Erc20token.sol\":2197:2207  tokenOwner */\n      dup5\n        /* \"contracts/Erc20token.sol\":2189:2208  allowed[tokenOwner] */\n      0xffffffffffffffffffffffffffffffffffffffff\n      and\n      0xffffffffffffffffffffffffffffffffffffffff\n      and\n      dup2\n      mstore\n      0x20\n      add\n      swap1\n      dup2\n      mstore\n      0x20\n      add\n      0x00\n      keccak256\n        /* \"contracts/Erc20token.sol\":2189:2217  allowed[tokenOwner][spender] */\n      0x00\n        /* \"contracts/Erc20token.sol\":2209:2216  spender */\n      dup4\n        /* \"contracts/Erc20token.sol\":2189:2217  allowed[tokenOwner][spender] */\n      0xffffffffffffffffffffffffffffffffffffffff\n      and\n      0xffffffffffffffffffffffffffffffffffffffff\n      and\n      dup2\n      mstore\n      0x20\n      add\n      swap1\n      dup2\n      mstore\n      0x20\n      add\n      0x00\n      keccak256\n      sload\n        /* \"contracts/Erc20token.sol\":2182:2217  return allowed[tokenOwner][spender] */\n      swap1\n      pop\n        /* \"contracts/Erc20token.sol\":2070:2225  function allowance(address tokenOwner, address spender) public override view returns (uint remaining){\r... */\n      swap3\n      swap2\n      pop\n      pop\n      jump\t// out\n        /* \"contracts/Erc20token.sol\":5874:7194  function invest() public payable onlyAdmin returns(bool){\r... */\n    tag_159:\n        /* \"contracts/Erc20token.sol\":5925:5929  bool */\n      0x00\n        /* \"contracts/Erc20token.sol\":4651:4656  admin */\n      0x07\n      0x00\n      swap1\n      sload\n      swap1\n      0x0100\n      exp\n      swap1\n      div\n      0xffffffffffffffffffffffffffffffffffffffff\n      and\n        /* \"contracts/Erc20token.sol\":4637:4656  msg.sender == admin */\n      0xffffffffffffffffffffffffffffffffffffffff\n      and\n        /* \"contracts/Erc20token.sol\":4637:4647  msg.sender */\n      caller\n        /* \"contracts/Erc20token.sol\":4637:4656  msg.sender == admin */\n      0xffffffffffffffffffffffffffffffffffffffff\n      and\n      eq\n        /* \"contracts/Erc20token.sol\":4629:4695  require(msg.sender == admin, \"Access denied, you ae not an admin\") */\n      tag_263\n      jumpi\n      mload(0x40)\n      0x08c379a000000000000000000000000000000000000000000000000000000000\n      dup2\n      mstore\n      0x04\n      add\n      tag_264\n      swap1\n      tag_172\n      jump\t// in\n    tag_264:\n      mload(0x40)\n      dup1\n      swap2\n      sub\n      swap1\n      revert\n    tag_263:\n        /* \"contracts/Erc20token.sol\":5992:6007  checkIcoState() */\n      tag_266\n        /* \"contracts/Erc20token.sol\":5992:6005  checkIcoState */\n      tag_80\n        /* \"contracts/Erc20token.sol\":5992:6007  checkIcoState() */\n      jump\t// in\n    tag_266:\n        /* \"contracts/Erc20token.sol\":5981:5989  icoState */\n      0x0f\n      0x00\n        /* \"contracts/Erc20token.sol\":5981:6007  icoState = checkIcoState() */\n      0x0100\n      exp\n      dup2\n      sload\n      dup2\n      0xff\n      mul\n      not\n      and\n      swap1\n      dup4\n      0x04\n      dup2\n      gt\n      iszero\n      tag_267\n      jumpi\n      tag_268\n      tag_176\n      jump\t// in\n    tag_268:\n    tag_267:\n      mul\n      or\n      swap1\n      sstore\n      pop\n        /* \"contracts/Erc20token.sol\":6038:6051  State.Running */\n      0x01\n        /* \"contracts/Erc20token.sol\":6026:6051  icoState == State.Running */\n      0x04\n      dup2\n      gt\n      iszero\n      tag_269\n      jumpi\n      tag_270\n      tag_176\n      jump\t// in\n    tag_270:\n    tag_269:\n        /* \"contracts/Erc20token.sol\":6026:6034  icoState */\n      0x0f\n      0x00\n      swap1\n      sload\n      swap1\n      0x0100\n      exp\n      swap1\n      div\n      0xff\n      and\n        /* \"contracts/Erc20token.sol\":6026:6051  icoState == State.Running */\n      0x04\n      dup2\n      gt\n      iszero\n      tag_271\n      jumpi\n      tag_272\n      tag_176\n      jump\t// in\n    tag_272:\n    tag_271:\n      eq\n        /* \"contracts/Erc20token.sol\":6018:6088  require(icoState == State.Running, \"Amount must be greater than zero\") */\n      tag_273\n      jumpi\n      mload(0x40)\n      0x08c379a000000000000000000000000000000000000000000000000000000000\n      dup2\n      mstore\n      0x04\n      add\n      tag_274\n      swap1\n      tag_275\n      jump\t// in\n    tag_274:\n      mload(0x40)\n      dup1\n      swap2\n      sub\n      swap1\n      revert\n    tag_273:\n        /* \"contracts/Erc20token.sol\":6176:6177  0 */\n      0x00\n        /* \"contracts/Erc20token.sol\":6164:6173  msg.value */\n      callvalue\n        /* \"contracts/Erc20token.sol\":6164:6177  msg.value > 0 */\n      gt\n        /* \"contracts/Erc20token.sol\":6156:6214  require(msg.value > 0, \"Amount must be greater than zero\") */\n      tag_276\n      jumpi\n      mload(0x40)\n      0x08c379a000000000000000000000000000000000000000000000000000000000\n      dup2\n      mstore\n      0x04\n      add\n      tag_277\n      swap1\n      tag_275\n      jump\t// in\n    tag_277:\n      mload(0x40)\n      dup1\n      swap2\n      sub\n      swap1\n      revert\n    tag_276:\n        /* \"contracts/Erc20token.sol\":6258:6274  string memory s1 */\n      0x00\n        /* \"contracts/Erc20token.sol\":6336:6349  minimumAmount */\n      sload(0x0d)\n        /* \"contracts/Erc20token.sol\":6284:6350  abi.encodePacked(\"Amount cannot not be lower than\", minimumAmount) */\n      add(0x20, mload(0x40))\n      tag_278\n      swap2\n      swap1\n      tag_279\n      jump\t// in\n    tag_278:\n      mload(0x40)\n      0x20\n      dup2\n      dup4\n      sub\n      sub\n      dup2\n      mstore\n      swap1\n      0x40\n      mstore\n        /* \"contracts/Erc20token.sol\":6258:6351  string memory s1 = string(abi.encodePacked(\"Amount cannot not be lower than\", minimumAmount)) */\n      swap1\n      pop\n        /* \"contracts/Erc20token.sol\":6362:6378  string memory s2 */\n      0x00\n        /* \"contracts/Erc20token.sol\":6442:6455  maximumAmount */\n      sload(0x0e)\n        /* \"contracts/Erc20token.sol\":6388:6456  abi.encodePacked(\"Amount cannot not be higgher than\", maximumAmount) */\n      add(0x20, mload(0x40))\n      tag_280\n      swap2\n      swap1\n      tag_281\n      jump\t// in\n    tag_280:\n      mload(0x40)\n      0x20\n      dup2\n      dup4\n      sub\n      sub\n      dup2\n      mstore\n      swap1\n      0x40\n      mstore\n        /* \"contracts/Erc20token.sol\":6362:6457  string memory s2 = string(abi.encodePacked(\"Amount cannot not be higgher than\", maximumAmount)) */\n      swap1\n      pop\n        /* \"contracts/Erc20token.sol\":6468:6484  string memory s3 */\n      0x00\n        /* \"contracts/Erc20token.sol\":6511:6513  s1 */\n      dup3\n        /* \"contracts/Erc20token.sol\":6515:6517  s2 */\n      dup3\n        /* \"contracts/Erc20token.sol\":6494:6518  abi.encodePacked(s1, s2) */\n      add(0x20, mload(0x40))\n      tag_282\n      swap3\n      swap2\n      swap1\n      tag_283\n      jump\t// in\n    tag_282:\n      mload(0x40)\n      0x20\n      dup2\n      dup4\n      sub\n      sub\n      dup2\n      mstore\n      swap1\n      0x40\n      mstore\n        /* \"contracts/Erc20token.sol\":6468:6519  string memory s3 = string(abi.encodePacked(s1, s2)) */\n      swap1\n      pop\n        /* \"contracts/Erc20token.sol\":6551:6564  minimumAmount */\n      sload(0x0d)\n        /* \"contracts/Erc20token.sol\":6538:6547  msg.value */\n      callvalue\n        /* \"contracts/Erc20token.sol\":6538:6564  msg.value >= minimumAmount */\n      lt\n      iszero\n        /* \"contracts/Erc20token.sol\":6538:6594  msg.value >= minimumAmount && msg.value <= maximumAmount */\n      dup1\n      iszero\n      tag_284\n      jumpi\n      pop\n        /* \"contracts/Erc20token.sol\":6581:6594  maximumAmount */\n      sload(0x0e)\n        /* \"contracts/Erc20token.sol\":6568:6577  msg.value */\n      callvalue\n        /* \"contracts/Erc20token.sol\":6568:6594  msg.value <= maximumAmount */\n      gt\n      iszero\n        /* \"contracts/Erc20token.sol\":6538:6594  msg.value >= minimumAmount && msg.value <= maximumAmount */\n    tag_284:\n        /* \"contracts/Erc20token.sol\":6596:6598  s3 */\n      dup2\n        /* \"contracts/Erc20token.sol\":6530:6599  require(msg.value >= minimumAmount && msg.value <= maximumAmount, s3) */\n      swap1\n      tag_285\n      jumpi\n      mload(0x40)\n      0x08c379a000000000000000000000000000000000000000000000000000000000\n      dup2\n      mstore\n      0x04\n      add\n      tag_286\n      swap2\n      swap1\n      tag_45\n      jump\t// in\n    tag_286:\n      mload(0x40)\n      dup1\n      swap2\n      sub\n      swap1\n      revert\n    tag_285:\n      pop\n        /* \"contracts/Erc20token.sol\":6612:6623  uint amount */\n      0x00\n        /* \"contracts/Erc20token.sol\":6641:6650  msg.value */\n      callvalue\n        /* \"contracts/Erc20token.sol\":6626:6638  raisedAmount */\n      sload(0x09)\n        /* \"contracts/Erc20token.sol\":6626:6650  raisedAmount + msg.value */\n      tag_287\n      swap2\n      swap1\n      tag_218\n      jump\t// in\n    tag_287:\n        /* \"contracts/Erc20token.sol\":6612:6650  uint amount = raisedAmount + msg.value */\n      swap1\n      pop\n        /* \"contracts/Erc20token.sol\":6679:6686  hardCap */\n      sload(0x0a)\n        /* \"contracts/Erc20token.sol\":6669:6675  amount */\n      dup2\n        /* \"contracts/Erc20token.sol\":6669:6686  amount <= hardCap */\n      gt\n      iszero\n        /* \"contracts/Erc20token.sol\":6661:6739  require(amount <= hardCap, \"The maximum amount to be raised has been reached\") */\n      tag_288\n      jumpi\n      mload(0x40)\n      0x08c379a000000000000000000000000000000000000000000000000000000000\n      dup2\n      mstore\n      0x04\n      add\n      tag_289\n      swap1\n      tag_290\n      jump\t// in\n    tag_289:\n      mload(0x40)\n      dup1\n      swap2\n      sub\n      swap1\n      revert\n    tag_288:\n        /* \"contracts/Erc20token.sol\":6859:6870  uint tokens */\n      0x00\n        /* \"contracts/Erc20token.sol\":6885:6895  tokenPrice */\n      sload(0x08)\n        /* \"contracts/Erc20token.sol\":6873:6882  msg.value */\n      callvalue\n        /* \"contracts/Erc20token.sol\":6873:6895  msg.value * tokenPrice */\n      tag_291\n      swap2\n      swap1\n      tag_292\n      jump\t// in\n    tag_291:\n        /* \"contracts/Erc20token.sol\":6859:6895  uint tokens = msg.value * tokenPrice */\n      swap1\n      pop\n        /* \"contracts/Erc20token.sol\":6965:6971  tokens */\n      dup1\n        /* \"contracts/Erc20token.sol\":6941:6949  balances */\n      0x05\n        /* \"contracts/Erc20token.sol\":6941:6961  balances[msg.sender] */\n      0x00\n        /* \"contracts/Erc20token.sol\":6950:6960  msg.sender */\n      caller\n        /* \"contracts/Erc20token.sol\":6941:6961  balances[msg.sender] */\n      0xffffffffffffffffffffffffffffffffffffffff\n      and\n      0xffffffffffffffffffffffffffffffffffffffff\n      and\n      dup2\n      mstore\n      0x20\n      add\n      swap1\n      dup2\n      mstore\n      0x20\n      add\n      0x00\n      keccak256\n      0x00\n        /* \"contracts/Erc20token.sol\":6941:6971  balances[msg.sender] += tokens */\n      dup3\n      dup3\n      sload\n      tag_293\n      swap2\n      swap1\n      tag_218\n      jump\t// in\n    tag_293:\n      swap3\n      pop\n      pop\n      dup2\n      swap1\n      sstore\n      pop\n        /* \"contracts/Erc20token.sol\":7003:7009  tokens */\n      dup1\n        /* \"contracts/Erc20token.sol\":6982:6990  balances */\n      0x05\n        /* \"contracts/Erc20token.sol\":6982:6999  balances[founder] */\n      0x00\n        /* \"contracts/Erc20token.sol\":6991:6998  founder */\n      0x03\n      0x00\n      swap1\n      sload\n      swap1\n      0x0100\n      exp\n      swap1\n      div\n      0xffffffffffffffffffffffffffffffffffffffff\n      and\n        /* \"contracts/Erc20token.sol\":6982:6999  balances[founder] */\n      0xffffffffffffffffffffffffffffffffffffffff\n      and\n      0xffffffffffffffffffffffffffffffffffffffff\n      and\n      dup2\n      mstore\n      0x20\n      add\n      swap1\n      dup2\n      mstore\n      0x20\n      add\n      0x00\n      keccak256\n      0x00\n        /* \"contracts/Erc20token.sol\":6982:7009  balances[founder] -= tokens */\n      dup3\n      dup3\n      sload\n      tag_294\n      swap2\n      swap1\n      tag_215\n      jump\t// in\n    tag_294:\n      swap3\n      pop\n      pop\n      dup2\n      swap1\n      sstore\n      pop\n        /* \"contracts/Erc20token.sol\":7071:7085  depositAddress */\n      0x0f\n      0x01\n      swap1\n      sload\n      swap1\n      0x0100\n      exp\n      swap1\n      div\n      0xffffffffffffffffffffffffffffffffffffffff\n      and\n        /* \"contracts/Erc20token.sol\":7071:7094  depositAddress.transfer */\n      0xffffffffffffffffffffffffffffffffffffffff\n      and\n        /* \"contracts/Erc20token.sol\":7071:7105  depositAddress.transfer(msg.value) */\n      0x08fc\n        /* \"contracts/Erc20token.sol\":7095:7104  msg.value */\n      callvalue\n        /* \"contracts/Erc20token.sol\":7071:7105  depositAddress.transfer(msg.value) */\n      swap1\n      dup2\n      iszero\n      mul\n      swap1\n      mload(0x40)\n      0x00\n      mload(0x40)\n      dup1\n      dup4\n      sub\n      dup2\n      dup6\n      dup9\n      dup9\n      call\n      swap4\n      pop\n      pop\n      pop\n      pop\n      iszero\n      dup1\n      iszero\n      tag_296\n      jumpi\n      returndatasize\n      0x00\n      dup1\n      returndatacopy\n      revert(0x00, returndatasize)\n    tag_296:\n      pop\n        /* \"contracts/Erc20token.sol\":7123:7160  Invest(msg.sender, msg.value, tokens) */\n      0x4ae4bd7655e0d350876a23cd90c4227b13db560e34435c6a488150a9c844bf5f\n        /* \"contracts/Erc20token.sol\":7130:7140  msg.sender */\n      caller\n        /* \"contracts/Erc20token.sol\":7142:7151  msg.value */\n      callvalue\n        /* \"contracts/Erc20token.sol\":7153:7159  tokens */\n      dup4\n        /* \"contracts/Erc20token.sol\":7123:7160  Invest(msg.sender, msg.value, tokens) */\n      mload(0x40)\n      tag_297\n      swap4\n      swap3\n      swap2\n      swap1\n      tag_298\n      jump\t// in\n    tag_297:\n      mload(0x40)\n      dup1\n      swap2\n      sub\n      swap1\n      log1\n        /* \"contracts/Erc20token.sol\":7180:7184  true */\n      0x01\n        /* \"contracts/Erc20token.sol\":7173:7184  return true */\n      swap6\n      pop\n      pop\n      pop\n      pop\n      pop\n      pop\n        /* \"contracts/Erc20token.sol\":5874:7194  function invest() public payable onlyAdmin returns(bool){\r... */\n      swap1\n      jump\t// out\n        /* \"contracts/Erc20token.sol\":3328:3348  address public admin */\n    tag_163:\n      0x07\n      0x00\n      swap1\n      sload\n      swap1\n      0x0100\n      exp\n      swap1\n      div\n      0xffffffffffffffffffffffffffffffffffffffff\n      and\n      dup2\n      jump\t// out\n        /* \"contracts/Erc20token.sol\":3608:3637  uint public hardCap = 5 ether */\n    tag_167:\n      sload(0x0a)\n      dup2\n      jump\t// out\n        /* \"contracts/Erc20token.sol\":1643:1972  function transfer(address to, uint tokens) public virtual override returns (bool success){\r... */\n    tag_256:\n        /* \"contracts/Erc20token.sol\":1719:1731  bool success */\n      0x00\n        /* \"contracts/Erc20token.sol\":1775:1781  tokens */\n      dup2\n        /* \"contracts/Erc20token.sol\":1751:1759  balances */\n      0x05\n        /* \"contracts/Erc20token.sol\":1751:1771  balances[msg.sender] */\n      0x00\n        /* \"contracts/Erc20token.sol\":1760:1770  msg.sender */\n      caller\n        /* \"contracts/Erc20token.sol\":1751:1771  balances[msg.sender] */\n      0xffffffffffffffffffffffffffffffffffffffff\n      and\n      0xffffffffffffffffffffffffffffffffffffffff\n      and\n      dup2\n      mstore\n      0x20\n      add\n      swap1\n      dup2\n      mstore\n      0x20\n      add\n      0x00\n      keccak256\n      sload\n        /* \"contracts/Erc20token.sol\":1751:1781  balances[msg.sender] >= tokens */\n      lt\n      iszero\n        /* \"contracts/Erc20token.sol\":1743:1814  require(balances[msg.sender] >= tokens, \"Insufficient Account Balance\") */\n      tag_300\n      jumpi\n      mload(0x40)\n      0x08c379a000000000000000000000000000000000000000000000000000000000\n      dup2\n      mstore\n      0x04\n      add\n      tag_301\n      swap1\n      tag_302\n      jump\t// in\n    tag_301:\n      mload(0x40)\n      dup1\n      swap2\n      sub\n      swap1\n      revert\n    tag_300:\n        /* \"contracts/Erc20token.sol\":1843:1849  tokens */\n      dup2\n        /* \"contracts/Erc20token.sol\":1827:1835  balances */\n      0x05\n        /* \"contracts/Erc20token.sol\":1827:1839  balances[to] */\n      0x00\n        /* \"contracts/Erc20token.sol\":1836:1838  to */\n      dup6\n        /* \"contracts/Erc20token.sol\":1827:1839  balances[to] */\n      0xffffffffffffffffffffffffffffffffffffffff\n      and\n      0xffffffffffffffffffffffffffffffffffffffff\n      and\n      dup2\n      mstore\n      0x20\n      add\n      swap1\n      dup2\n      mstore\n      0x20\n      add\n      0x00\n      keccak256\n      0x00\n        /* \"contracts/Erc20token.sol\":1827:1849  balances[to] += tokens */\n      dup3\n      dup3\n      sload\n      tag_303\n      swap2\n      swap1\n      tag_218\n      jump\t// in\n    tag_303:\n      swap3\n      pop\n      pop\n      dup2\n      swap1\n      sstore\n      pop\n        /* \"contracts/Erc20token.sol\":1884:1890  tokens */\n      dup2\n        /* \"contracts/Erc20token.sol\":1860:1868  balances */\n      0x05\n        /* \"contracts/Erc20token.sol\":1860:1880  balances[msg.sender] */\n      0x00\n        /* \"contracts/Erc20token.sol\":1869:1879  msg.sender */\n      caller\n        /* \"contracts/Erc20token.sol\":1860:1880  balances[msg.sender] */\n      0xffffffffffffffffffffffffffffffffffffffff\n      and\n      0xffffffffffffffffffffffffffffffffffffffff\n      and\n      dup2\n      mstore\n      0x20\n      add\n      swap1\n      dup2\n      mstore\n      0x20\n      add\n      0x00\n      keccak256\n      0x00\n        /* \"contracts/Erc20token.sol\":1860:1890  balances[msg.sender] -= tokens */\n      dup3\n      dup3\n      sload\n      tag_304\n      swap2\n      swap1\n      tag_215\n      jump\t// in\n    tag_304:\n      swap3\n      pop\n      pop\n      dup2\n      swap1\n      sstore\n      pop\n        /* \"contracts/Erc20token.sol\":1929:1931  to */\n      dup3\n        /* \"contracts/Erc20token.sol\":1908:1940  Transfer(msg.sender, to, tokens) */\n      0xffffffffffffffffffffffffffffffffffffffff\n      and\n        /* \"contracts/Erc20token.sol\":1917:1927  msg.sender */\n      caller\n        /* \"contracts/Erc20token.sol\":1908:1940  Transfer(msg.sender, to, tokens) */\n      0xffffffffffffffffffffffffffffffffffffffff\n      and\n      0xddf252ad1be2c89b69c2b068fc378daa952ba7f163c4a11628f55a4df523b3ef\n        /* \"contracts/Erc20token.sol\":1933:1939  tokens */\n      dup5\n        /* \"contracts/Erc20token.sol\":1908:1940  Transfer(msg.sender, to, tokens) */\n      mload(0x40)\n      tag_305\n      swap2\n      swap1\n      tag_60\n      jump\t// in\n    tag_305:\n      mload(0x40)\n      dup1\n      swap2\n      sub\n      swap1\n      log3\n        /* \"contracts/Erc20token.sol\":1960:1964  true */\n      0x01\n        /* \"contracts/Erc20token.sol\":1953:1964  return true */\n      swap1\n      pop\n        /* \"contracts/Erc20token.sol\":1643:1972  function transfer(address to, uint tokens) public virtual override returns (bool success){\r... */\n      swap3\n      swap2\n      pop\n      pop\n      jump\t// out\n        /* \"#utility.yul\":7:146   */\n    tag_307:\n        /* \"#utility.yul\":53:58   */\n      0x00\n        /* \"#utility.yul\":91:97   */\n      dup2\n        /* \"#utility.yul\":78:98   */\n      calldataload\n        /* \"#utility.yul\":69:98   */\n      swap1\n      pop\n        /* \"#utility.yul\":107:140   */\n      tag_309\n        /* \"#utility.yul\":134:139   */\n      dup2\n        /* \"#utility.yul\":107:140   */\n      tag_310\n      jump\t// in\n    tag_309:\n        /* \"#utility.yul\":7:146   */\n      swap3\n      swap2\n      pop\n      pop\n      jump\t// out\n        /* \"#utility.yul\":152:307   */\n    tag_311:\n        /* \"#utility.yul\":206:211   */\n      0x00\n        /* \"#utility.yul\":244:250   */\n      dup2\n        /* \"#utility.yul\":231:251   */\n      calldataload\n        /* \"#utility.yul\":222:251   */\n      swap1\n      pop\n        /* \"#utility.yul\":260:301   */\n      tag_313\n        /* \"#utility.yul\":295:300   */\n      dup2\n        /* \"#utility.yul\":260:301   */\n      tag_314\n      jump\t// in\n    tag_313:\n        /* \"#utility.yul\":152:307   */\n      swap3\n      swap2\n      pop\n      pop\n      jump\t// out\n        /* \"#utility.yul\":313:452   */\n    tag_315:\n        /* \"#utility.yul\":359:364   */\n      0x00\n        /* \"#utility.yul\":397:403   */\n      dup2\n        /* \"#utility.yul\":384:404   */\n      calldataload\n        /* \"#utility.yul\":375:404   */\n      swap1\n      pop\n        /* \"#utility.yul\":413:446   */\n      tag_317\n        /* \"#utility.yul\":440:445   */\n      dup2\n        /* \"#utility.yul\":413:446   */\n      tag_318\n      jump\t// in\n    tag_317:\n        /* \"#utility.yul\":313:452   */\n      swap3\n      swap2\n      pop\n      pop\n      jump\t// out\n        /* \"#utility.yul\":458:787   */\n    tag_70:\n        /* \"#utility.yul\":517:523   */\n      0x00\n        /* \"#utility.yul\":566:568   */\n      0x20\n        /* \"#utility.yul\":554:563   */\n      dup3\n        /* \"#utility.yul\":545:552   */\n      dup5\n        /* \"#utility.yul\":541:564   */\n      sub\n        /* \"#utility.yul\":537:569   */\n      slt\n        /* \"#utility.yul\":534:653   */\n      iszero\n      tag_320\n      jumpi\n        /* \"#utility.yul\":572:651   */\n      tag_321\n      tag_322\n      jump\t// in\n    tag_321:\n        /* \"#utility.yul\":534:653   */\n    tag_320:\n        /* \"#utility.yul\":692:693   */\n      0x00\n        /* \"#utility.yul\":717:770   */\n      tag_323\n        /* \"#utility.yul\":762:769   */\n      dup5\n        /* \"#utility.yul\":753:759   */\n      dup3\n        /* \"#utility.yul\":742:751   */\n      dup6\n        /* \"#utility.yul\":738:760   */\n      add\n        /* \"#utility.yul\":717:770   */\n      tag_307\n      jump\t// in\n    tag_323:\n        /* \"#utility.yul\":707:770   */\n      swap2\n      pop\n        /* \"#utility.yul\":663:780   */\n      pop\n        /* \"#utility.yul\":458:787   */\n      swap3\n      swap2\n      pop\n      pop\n      jump\t// out\n        /* \"#utility.yul\":793:1138   */\n    tag_112:\n        /* \"#utility.yul\":860:866   */\n      0x00\n        /* \"#utility.yul\":909:911   */\n      0x20\n        /* \"#utility.yul\":897:906   */\n      dup3\n        /* \"#utility.yul\":888:895   */\n      dup5\n        /* \"#utility.yul\":884:907   */\n      sub\n        /* \"#utility.yul\":880:912   */\n      slt\n        /* \"#utility.yul\":877:996   */\n      iszero\n      tag_325\n      jumpi\n        /* \"#utility.yul\":915:994   */\n      tag_326\n      tag_322\n      jump\t// in\n    tag_326:\n        /* \"#utility.yul\":877:996   */\n    tag_325:\n        /* \"#utility.yul\":1035:1036   */\n      0x00\n        /* \"#utility.yul\":1060:1121   */\n      tag_327\n        /* \"#utility.yul\":1113:1120   */\n      dup5\n        /* \"#utility.yul\":1104:1110   */\n      dup3\n        /* \"#utility.yul\":1093:1102   */\n      dup6\n        /* \"#utility.yul\":1089:1111   */\n      add\n        /* \"#utility.yul\":1060:1121   */\n      tag_311\n      jump\t// in\n    tag_327:\n        /* \"#utility.yul\":1050:1121   */\n      swap2\n      pop\n        /* \"#utility.yul\":1006:1131   */\n      pop\n        /* \"#utility.yul\":793:1138   */\n      swap3\n      swap2\n      pop\n      pop\n      jump\t// out\n        /* \"#utility.yul\":1144:1618   */\n    tag_103:\n        /* \"#utility.yul\":1212:1218   */\n      0x00\n        /* \"#utility.yul\":1220:1226   */\n      dup1\n        /* \"#utility.yul\":1269:1271   */\n      0x40\n        /* \"#utility.yul\":1257:1266   */\n      dup4\n        /* \"#utility.yul\":1248:1255   */\n      dup6\n        /* \"#utility.yul\":1244:1267   */\n      sub\n        /* \"#utility.yul\":1240:1272   */\n      slt\n        /* \"#utility.yul\":1237:1356   */\n      iszero\n      tag_329\n      jumpi\n        /* \"#utility.yul\":1275:1354   */\n      tag_330\n      tag_322\n      jump\t// in\n    tag_330:\n        /* \"#utility.yul\":1237:1356   */\n    tag_329:\n        /* \"#utility.yul\":1395:1396   */\n      0x00\n        /* \"#utility.yul\":1420:1473   */\n      tag_331\n        /* \"#utility.yul\":1465:1472   */\n      dup6\n        /* \"#utility.yul\":1456:1462   */\n      dup3\n        /* \"#utility.yul\":1445:1454   */\n      dup7\n        /* \"#utility.yul\":1441:1463   */\n      add\n        /* \"#utility.yul\":1420:1473   */\n      tag_307\n      jump\t// in\n    tag_331:\n        /* \"#utility.yul\":1410:1473   */\n      swap3\n      pop\n        /* \"#utility.yul\":1366:1483   */\n      pop\n        /* \"#utility.yul\":1522:1524   */\n      0x20\n        /* \"#utility.yul\":1548:1601   */\n      tag_332\n        /* \"#utility.yul\":1593:1600   */\n      dup6\n        /* \"#utility.yul\":1584:1590   */\n      dup3\n        /* \"#utility.yul\":1573:1582   */\n      dup7\n        /* \"#utility.yul\":1569:1591   */\n      add\n        /* \"#utility.yul\":1548:1601   */\n      tag_307\n      jump\t// in\n    tag_332:\n        /* \"#utility.yul\":1538:1601   */\n      swap2\n      pop\n        /* \"#utility.yul\":1493:1611   */\n      pop\n        /* \"#utility.yul\":1144:1618   */\n      swap3\n      pop\n      swap3\n      swap1\n      pop\n      jump\t// out\n        /* \"#utility.yul\":1624:2243   */\n    tag_64:\n        /* \"#utility.yul\":1701:1707   */\n      0x00\n        /* \"#utility.yul\":1709:1715   */\n      dup1\n        /* \"#utility.yul\":1717:1723   */\n      0x00\n        /* \"#utility.yul\":1766:1768   */\n      0x60\n        /* \"#utility.yul\":1754:1763   */\n      dup5\n        /* \"#utility.yul\":1745:1752   */\n      dup7\n        /* \"#utility.yul\":1741:1764   */\n      sub\n        /* \"#utility.yul\":1737:1769   */\n      slt\n        /* \"#utility.yul\":1734:1853   */\n      iszero\n      tag_334\n      jumpi\n        /* \"#utility.yul\":1772:1851   */\n      tag_335\n      tag_322\n      jump\t// in\n    tag_335:\n        /* \"#utility.yul\":1734:1853   */\n    tag_334:\n        /* \"#utility.yul\":1892:1893   */\n      0x00\n        /* \"#utility.yul\":1917:1970   */\n      tag_336\n        /* \"#utility.yul\":1962:1969   */\n      dup7\n        /* \"#utility.yul\":1953:1959   */\n      dup3\n        /* \"#utility.yul\":1942:1951   */\n      dup8\n        /* \"#utility.yul\":1938:1960   */\n      add\n        /* \"#utility.yul\":1917:1970   */\n      tag_307\n      jump\t// in\n    tag_336:\n        /* \"#utility.yul\":1907:1970   */\n      swap4\n      pop\n        /* \"#utility.yul\":1863:1980   */\n      pop\n        /* \"#utility.yul\":2019:2021   */\n      0x20\n        /* \"#utility.yul\":2045:2098   */\n      tag_337\n        /* \"#utility.yul\":2090:2097   */\n      dup7\n        /* \"#utility.yul\":2081:2087   */\n      dup3\n        /* \"#utility.yul\":2070:2079   */\n      dup8\n        /* \"#utility.yul\":2066:2088   */\n      add\n        /* \"#utility.yul\":2045:2098   */\n      tag_307\n      jump\t// in\n    tag_337:\n        /* \"#utility.yul\":2035:2098   */\n      swap3\n      pop\n        /* \"#utility.yul\":1990:2108   */\n      pop\n        /* \"#utility.yul\":2147:2149   */\n      0x40\n        /* \"#utility.yul\":2173:2226   */\n      tag_338\n        /* \"#utility.yul\":2218:2225   */\n      dup7\n        /* \"#utility.yul\":2209:2215   */\n      dup3\n        /* \"#utility.yul\":2198:2207   */\n      dup8\n        /* \"#utility.yul\":2194:2216   */\n      add\n        /* \"#utility.yul\":2173:2226   */\n      tag_315\n      jump\t// in\n    tag_338:\n        /* \"#utility.yul\":2163:2226   */\n      swap2\n      pop\n        /* \"#utility.yul\":2118:2236   */\n      pop\n        /* \"#utility.yul\":1624:2243   */\n      swap3\n      pop\n      swap3\n      pop\n      swap3\n      jump\t// out\n        /* \"#utility.yul\":2249:2723   */\n    tag_52:\n        /* \"#utility.yul\":2317:2323   */\n      0x00\n        /* \"#utility.yul\":2325:2331   */\n      dup1\n        /* \"#utility.yul\":2374:2376   */\n      0x40\n        /* \"#utility.yul\":2362:2371   */\n      dup4\n        /* \"#utility.yul\":2353:2360   */\n      dup6\n        /* \"#utility.yul\":2349:2372   */\n      sub\n        /* \"#utility.yul\":2345:2377   */\n      slt\n        /* \"#utility.yul\":2342:2461   */\n      iszero\n      tag_340\n      jumpi\n        /* \"#utility.yul\":2380:2459   */\n      tag_341\n      tag_322\n      jump\t// in\n    tag_341:\n        /* \"#utility.yul\":2342:2461   */\n    tag_340:\n        /* \"#utility.yul\":2500:2501   */\n      0x00\n        /* \"#utility.yul\":2525:2578   */\n      tag_342\n        /* \"#utility.yul\":2570:2577   */\n      dup6\n        /* \"#utility.yul\":2561:2567   */\n      dup3\n        /* \"#utility.yul\":2550:2559   */\n      dup7\n        /* \"#utility.yul\":2546:2568   */\n      add\n        /* \"#utility.yul\":2525:2578   */\n      tag_307\n      jump\t// in\n    tag_342:\n        /* \"#utility.yul\":2515:2578   */\n      swap3\n      pop\n        /* \"#utility.yul\":2471:2588   */\n      pop\n        /* \"#utility.yul\":2627:2629   */\n      0x20\n        /* \"#utility.yul\":2653:2706   */\n      tag_343\n        /* \"#utility.yul\":2698:2705   */\n      dup6\n        /* \"#utility.yul\":2689:2695   */\n      dup3\n        /* \"#utility.yul\":2678:2687   */\n      dup7\n        /* \"#utility.yul\":2674:2696   */\n      add\n        /* \"#utility.yul\":2653:2706   */\n      tag_315\n      jump\t// in\n    tag_343:\n        /* \"#utility.yul\":2643:2706   */\n      swap2\n      pop\n        /* \"#utility.yul\":2598:2716   */\n      pop\n        /* \"#utility.yul\":2249:2723   */\n      swap3\n      pop\n      swap3\n      swap1\n      pop\n      jump\t// out\n        /* \"#utility.yul\":2729:3058   */\n    tag_122:\n        /* \"#utility.yul\":2788:2794   */\n      0x00\n        /* \"#utility.yul\":2837:2839   */\n      0x20\n        /* \"#utility.yul\":2825:2834   */\n      dup3\n        /* \"#utility.yul\":2816:2823   */\n      dup5\n        /* \"#utility.yul\":2812:2835   */\n      sub\n        /* \"#utility.yul\":2808:2840   */\n      slt\n        /* \"#utility.yul\":2805:2924   */\n      iszero\n      tag_345\n      jumpi\n        /* \"#utility.yul\":2843:2922   */\n      tag_346\n      tag_322\n      jump\t// in\n    tag_346:\n        /* \"#utility.yul\":2805:2924   */\n    tag_345:\n        /* \"#utility.yul\":2963:2964   */\n      0x00\n        /* \"#utility.yul\":2988:3041   */\n      tag_347\n        /* \"#utility.yul\":3033:3040   */\n      dup5\n        /* \"#utility.yul\":3024:3030   */\n      dup3\n        /* \"#utility.yul\":3013:3022   */\n      dup6\n        /* \"#utility.yul\":3009:3031   */\n      add\n        /* \"#utility.yul\":2988:3041   */\n      tag_315\n      jump\t// in\n    tag_347:\n        /* \"#utility.yul\":2978:3041   */\n      swap2\n      pop\n        /* \"#utility.yul\":2934:3051   */\n      pop\n        /* \"#utility.yul\":2729:3058   */\n      swap3\n      swap2\n      pop\n      pop\n      jump\t// out\n        /* \"#utility.yul\":3064:3206   */\n    tag_348:\n        /* \"#utility.yul\":3167:3199   */\n      tag_350\n        /* \"#utility.yul\":3193:3198   */\n      dup2\n        /* \"#utility.yul\":3167:3199   */\n      tag_351\n      jump\t// in\n    tag_350:\n        /* \"#utility.yul\":3162:3165   */\n      dup3\n        /* \"#utility.yul\":3155:3200   */\n      mstore\n        /* \"#utility.yul\":3064:3206   */\n      pop\n      pop\n      jump\t// out\n        /* \"#utility.yul\":3212:3330   */\n    tag_352:\n        /* \"#utility.yul\":3299:3323   */\n      tag_354\n        /* \"#utility.yul\":3317:3322   */\n      dup2\n        /* \"#utility.yul\":3299:3323   */\n      tag_355\n      jump\t// in\n    tag_354:\n        /* \"#utility.yul\":3294:3297   */\n      dup3\n        /* \"#utility.yul\":3287:3324   */\n      mstore\n        /* \"#utility.yul\":3212:3330   */\n      pop\n      pop\n      jump\t// out\n        /* \"#utility.yul\":3336:3445   */\n    tag_356:\n        /* \"#utility.yul\":3417:3438   */\n      tag_358\n        /* \"#utility.yul\":3432:3437   */\n      dup2\n        /* \"#utility.yul\":3417:3438   */\n      tag_359\n      jump\t// in\n    tag_358:\n        /* \"#utility.yul\":3412:3415   */\n      dup3\n        /* \"#utility.yul\":3405:3439   */\n      mstore\n        /* \"#utility.yul\":3336:3445   */\n      pop\n      pop\n      jump\t// out\n        /* \"#utility.yul\":3451:3596   */\n    tag_360:\n        /* \"#utility.yul\":3545:3589   */\n      tag_362\n        /* \"#utility.yul\":3583:3588   */\n      dup2\n        /* \"#utility.yul\":3545:3589   */\n      tag_363\n      jump\t// in\n    tag_362:\n        /* \"#utility.yul\":3540:3543   */\n      dup3\n        /* \"#utility.yul\":3533:3590   */\n      mstore\n        /* \"#utility.yul\":3451:3596   */\n      pop\n      pop\n      jump\t// out\n        /* \"#utility.yul\":3602:3966   */\n    tag_364:\n        /* \"#utility.yul\":3690:3693   */\n      0x00\n        /* \"#utility.yul\":3718:3757   */\n      tag_366\n        /* \"#utility.yul\":3751:3756   */\n      dup3\n        /* \"#utility.yul\":3718:3757   */\n      tag_367\n      jump\t// in\n    tag_366:\n        /* \"#utility.yul\":3773:3844   */\n      tag_368\n        /* \"#utility.yul\":3837:3843   */\n      dup2\n        /* \"#utility.yul\":3832:3835   */\n      dup6\n        /* \"#utility.yul\":3773:3844   */\n      tag_369\n      jump\t// in\n    tag_368:\n        /* \"#utility.yul\":3766:3844   */\n      swap4\n      pop\n        /* \"#utility.yul\":3853:3905   */\n      tag_370\n        /* \"#utility.yul\":3898:3904   */\n      dup2\n        /* \"#utility.yul\":3893:3896   */\n      dup6\n        /* \"#utility.yul\":3886:3890   */\n      0x20\n        /* \"#utility.yul\":3879:3884   */\n      dup7\n        /* \"#utility.yul\":3875:3891   */\n      add\n        /* \"#utility.yul\":3853:3905   */\n      tag_371\n      jump\t// in\n    tag_370:\n        /* \"#utility.yul\":3930:3959   */\n      tag_372\n        /* \"#utility.yul\":3952:3958   */\n      dup2\n        /* \"#utility.yul\":3930:3959   */\n      tag_373\n      jump\t// in\n    tag_372:\n        /* \"#utility.yul\":3925:3928   */\n      dup5\n        /* \"#utility.yul\":3921:3960   */\n      add\n        /* \"#utility.yul\":3914:3960   */\n      swap2\n      pop\n        /* \"#utility.yul\":3694:3966   */\n      pop\n        /* \"#utility.yul\":3602:3966   */\n      swap3\n      swap2\n      pop\n      pop\n      jump\t// out\n        /* \"#utility.yul\":3972:4349   */\n    tag_374:\n        /* \"#utility.yul\":4078:4081   */\n      0x00\n        /* \"#utility.yul\":4106:4145   */\n      tag_376\n        /* \"#utility.yul\":4139:4144   */\n      dup3\n        /* \"#utility.yul\":4106:4145   */\n      tag_367\n      jump\t// in\n    tag_376:\n        /* \"#utility.yul\":4161:4250   */\n      tag_377\n        /* \"#utility.yul\":4243:4249   */\n      dup2\n        /* \"#utility.yul\":4238:4241   */\n      dup6\n        /* \"#utility.yul\":4161:4250   */\n      tag_378\n      jump\t// in\n    tag_377:\n        /* \"#utility.yul\":4154:4250   */\n      swap4\n      pop\n        /* \"#utility.yul\":4259:4311   */\n      tag_379\n        /* \"#utility.yul\":4304:4310   */\n      dup2\n        /* \"#utility.yul\":4299:4302   */\n      dup6\n        /* \"#utility.yul\":4292:4296   */\n      0x20\n        /* \"#utility.yul\":4285:4290   */\n      dup7\n        /* \"#utility.yul\":4281:4297   */\n      add\n        /* \"#utility.yul\":4259:4311   */\n      tag_371\n      jump\t// in\n    tag_379:\n        /* \"#utility.yul\":4336:4342   */\n      dup1\n        /* \"#utility.yul\":4331:4334   */\n      dup5\n        /* \"#utility.yul\":4327:4343   */\n      add\n        /* \"#utility.yul\":4320:4343   */\n      swap2\n      pop\n        /* \"#utility.yul\":4082:4349   */\n      pop\n        /* \"#utility.yul\":3972:4349   */\n      swap3\n      swap2\n      pop\n      pop\n      jump\t// out\n        /* \"#utility.yul\":4355:4721   */\n    tag_380:\n        /* \"#utility.yul\":4497:4500   */\n      0x00\n        /* \"#utility.yul\":4518:4585   */\n      tag_382\n        /* \"#utility.yul\":4582:4584   */\n      0x30\n        /* \"#utility.yul\":4577:4580   */\n      dup4\n        /* \"#utility.yul\":4518:4585   */\n      tag_369\n      jump\t// in\n    tag_382:\n        /* \"#utility.yul\":4511:4585   */\n      swap2\n      pop\n        /* \"#utility.yul\":4594:4687   */\n      tag_383\n        /* \"#utility.yul\":4683:4686   */\n      dup3\n        /* \"#utility.yul\":4594:4687   */\n      tag_384\n      jump\t// in\n    tag_383:\n        /* \"#utility.yul\":4712:4714   */\n      0x40\n        /* \"#utility.yul\":4707:4710   */\n      dup3\n        /* \"#utility.yul\":4703:4715   */\n      add\n        /* \"#utility.yul\":4696:4715   */\n      swap1\n      pop\n        /* \"#utility.yul\":4355:4721   */\n      swap2\n      swap1\n      pop\n      jump\t// out\n        /* \"#utility.yul\":4727:5093   */\n    tag_385:\n        /* \"#utility.yul\":4869:4872   */\n      0x00\n        /* \"#utility.yul\":4890:4957   */\n      tag_387\n        /* \"#utility.yul\":4954:4956   */\n      0x1f\n        /* \"#utility.yul\":4949:4952   */\n      dup4\n        /* \"#utility.yul\":4890:4957   */\n      tag_369\n      jump\t// in\n    tag_387:\n        /* \"#utility.yul\":4883:4957   */\n      swap2\n      pop\n        /* \"#utility.yul\":4966:5059   */\n      tag_388\n        /* \"#utility.yul\":5055:5058   */\n      dup3\n        /* \"#utility.yul\":4966:5059   */\n      tag_389\n      jump\t// in\n    tag_388:\n        /* \"#utility.yul\":5084:5086   */\n      0x20\n        /* \"#utility.yul\":5079:5082   */\n      dup3\n        /* \"#utility.yul\":5075:5087   */\n      add\n        /* \"#utility.yul\":5068:5087   */\n      swap1\n      pop\n        /* \"#utility.yul\":4727:5093   */\n      swap2\n      swap1\n      pop\n      jump\t// out\n        /* \"#utility.yul\":5099:5465   */\n    tag_390:\n        /* \"#utility.yul\":5241:5244   */\n      0x00\n        /* \"#utility.yul\":5262:5329   */\n      tag_392\n        /* \"#utility.yul\":5326:5328   */\n      0x22\n        /* \"#utility.yul\":5321:5324   */\n      dup4\n        /* \"#utility.yul\":5262:5329   */\n      tag_369\n      jump\t// in\n    tag_392:\n        /* \"#utility.yul\":5255:5329   */\n      swap2\n      pop\n        /* \"#utility.yul\":5338:5431   */\n      tag_393\n        /* \"#utility.yul\":5427:5430   */\n      dup3\n        /* \"#utility.yul\":5338:5431   */\n      tag_394\n      jump\t// in\n    tag_393:\n        /* \"#utility.yul\":5456:5458   */\n      0x40\n        /* \"#utility.yul\":5451:5454   */\n      dup3\n        /* \"#utility.yul\":5447:5459   */\n      add\n        /* \"#utility.yul\":5440:5459   */\n      swap1\n      pop\n        /* \"#utility.yul\":5099:5465   */\n      swap2\n      swap1\n      pop\n      jump\t// out\n        /* \"#utility.yul\":5471:5837   */\n    tag_395:\n        /* \"#utility.yul\":5613:5616   */\n      0x00\n        /* \"#utility.yul\":5634:5701   */\n      tag_397\n        /* \"#utility.yul\":5698:5700   */\n      0x20\n        /* \"#utility.yul\":5693:5696   */\n      dup4\n        /* \"#utility.yul\":5634:5701   */\n      tag_369\n      jump\t// in\n    tag_397:\n        /* \"#utility.yul\":5627:5701   */\n      swap2\n      pop\n        /* \"#utility.yul\":5710:5803   */\n      tag_398\n        /* \"#utility.yul\":5799:5802   */\n      dup3\n        /* \"#utility.yul\":5710:5803   */\n      tag_399\n      jump\t// in\n    tag_398:\n        /* \"#utility.yul\":5828:5830   */\n      0x20\n        /* \"#utility.yul\":5823:5826   */\n      dup3\n        /* \"#utility.yul\":5819:5831   */\n      add\n        /* \"#utility.yul\":5812:5831   */\n      swap1\n      pop\n        /* \"#utility.yul\":5471:5837   */\n      swap2\n      swap1\n      pop\n      jump\t// out\n        /* \"#utility.yul\":5843:6245   */\n    tag_400:\n        /* \"#utility.yul\":6003:6006   */\n      0x00\n        /* \"#utility.yul\":6024:6109   */\n      tag_402\n        /* \"#utility.yul\":6106:6108   */\n      0x1f\n        /* \"#utility.yul\":6101:6104   */\n      dup4\n        /* \"#utility.yul\":6024:6109   */\n      tag_378\n      jump\t// in\n    tag_402:\n        /* \"#utility.yul\":6017:6109   */\n      swap2\n      pop\n        /* \"#utility.yul\":6118:6211   */\n      tag_403\n        /* \"#utility.yul\":6207:6210   */\n      dup3\n        /* \"#utility.yul\":6118:6211   */\n      tag_404\n      jump\t// in\n    tag_403:\n        /* \"#utility.yul\":6236:6238   */\n      0x1f\n        /* \"#utility.yul\":6231:6234   */\n      dup3\n        /* \"#utility.yul\":6227:6239   */\n      add\n        /* \"#utility.yul\":6220:6239   */\n      swap1\n      pop\n        /* \"#utility.yul\":5843:6245   */\n      swap2\n      swap1\n      pop\n      jump\t// out\n        /* \"#utility.yul\":6251:6617   */\n    tag_405:\n        /* \"#utility.yul\":6393:6396   */\n      0x00\n        /* \"#utility.yul\":6414:6481   */\n      tag_407\n        /* \"#utility.yul\":6478:6480   */\n      0x22\n        /* \"#utility.yul\":6473:6476   */\n      dup4\n        /* \"#utility.yul\":6414:6481   */\n      tag_369\n      jump\t// in\n    tag_407:\n        /* \"#utility.yul\":6407:6481   */\n      swap2\n      pop\n        /* \"#utility.yul\":6490:6583   */\n      tag_408\n        /* \"#utility.yul\":6579:6582   */\n      dup3\n        /* \"#utility.yul\":6490:6583   */\n      tag_409\n      jump\t// in\n    tag_408:\n        /* \"#utility.yul\":6608:6610   */\n      0x40\n        /* \"#utility.yul\":6603:6606   */\n      dup3\n        /* \"#utility.yul\":6599:6611   */\n      add\n        /* \"#utility.yul\":6592:6611   */\n      swap1\n      pop\n        /* \"#utility.yul\":6251:6617   */\n      swap2\n      swap1\n      pop\n      jump\t// out\n        /* \"#utility.yul\":6623:6989   */\n    tag_410:\n        /* \"#utility.yul\":6765:6768   */\n      0x00\n        /* \"#utility.yul\":6786:6853   */\n      tag_412\n        /* \"#utility.yul\":6850:6852   */\n      0x30\n        /* \"#utility.yul\":6845:6848   */\n      dup4\n        /* \"#utility.yul\":6786:6853   */\n      tag_369\n      jump\t// in\n    tag_412:\n        /* \"#utility.yul\":6779:6853   */\n      swap2\n      pop\n        /* \"#utility.yul\":6862:6955   */\n      tag_413\n        /* \"#utility.yul\":6951:6954   */\n      dup3\n        /* \"#utility.yul\":6862:6955   */\n      tag_414\n      jump\t// in\n    tag_413:\n        /* \"#utility.yul\":6980:6982   */\n      0x40\n        /* \"#utility.yul\":6975:6978   */\n      dup3\n        /* \"#utility.yul\":6971:6983   */\n      add\n        /* \"#utility.yul\":6964:6983   */\n      swap1\n      pop\n        /* \"#utility.yul\":6623:6989   */\n      swap2\n      swap1\n      pop\n      jump\t// out\n        /* \"#utility.yul\":6995:7361   */\n    tag_415:\n        /* \"#utility.yul\":7137:7140   */\n      0x00\n        /* \"#utility.yul\":7158:7225   */\n      tag_417\n        /* \"#utility.yul\":7222:7224   */\n      0x1e\n        /* \"#utility.yul\":7217:7220   */\n      dup4\n        /* \"#utility.yul\":7158:7225   */\n      tag_369\n      jump\t// in\n    tag_417:\n        /* \"#utility.yul\":7151:7225   */\n      swap2\n      pop\n        /* \"#utility.yul\":7234:7327   */\n      tag_418\n        /* \"#utility.yul\":7323:7326   */\n      dup3\n        /* \"#utility.yul\":7234:7327   */\n      tag_419\n      jump\t// in\n    tag_418:\n        /* \"#utility.yul\":7352:7354   */\n      0x20\n        /* \"#utility.yul\":7347:7350   */\n      dup3\n        /* \"#utility.yul\":7343:7355   */\n      add\n        /* \"#utility.yul\":7336:7355   */\n      swap1\n      pop\n        /* \"#utility.yul\":6995:7361   */\n      swap2\n      swap1\n      pop\n      jump\t// out\n        /* \"#utility.yul\":7367:7733   */\n    tag_420:\n        /* \"#utility.yul\":7509:7512   */\n      0x00\n        /* \"#utility.yul\":7530:7597   */\n      tag_422\n        /* \"#utility.yul\":7594:7596   */\n      0x30\n        /* \"#utility.yul\":7589:7592   */\n      dup4\n        /* \"#utility.yul\":7530:7597   */\n      tag_369\n      jump\t// in\n    tag_422:\n        /* \"#utility.yul\":7523:7597   */\n      swap2\n      pop\n        /* \"#utility.yul\":7606:7699   */\n      tag_423\n        /* \"#utility.yul\":7695:7698   */\n      dup3\n        /* \"#utility.yul\":7606:7699   */\n      tag_424\n      jump\t// in\n    tag_423:\n        /* \"#utility.yul\":7724:7726   */\n      0x40\n        /* \"#utility.yul\":7719:7722   */\n      dup3\n        /* \"#utility.yul\":7715:7727   */\n      add\n        /* \"#utility.yul\":7708:7727   */\n      swap1\n      pop\n        /* \"#utility.yul\":7367:7733   */\n      swap2\n      swap1\n      pop\n      jump\t// out\n        /* \"#utility.yul\":7739:8141   */\n    tag_425:\n        /* \"#utility.yul\":7899:7902   */\n      0x00\n        /* \"#utility.yul\":7920:8005   */\n      tag_427\n        /* \"#utility.yul\":8002:8004   */\n      0x21\n        /* \"#utility.yul\":7997:8000   */\n      dup4\n        /* \"#utility.yul\":7920:8005   */\n      tag_378\n      jump\t// in\n    tag_427:\n        /* \"#utility.yul\":7913:8005   */\n      swap2\n      pop\n        /* \"#utility.yul\":8014:8107   */\n      tag_428\n        /* \"#utility.yul\":8103:8106   */\n      dup3\n        /* \"#utility.yul\":8014:8107   */\n      tag_429\n      jump\t// in\n    tag_428:\n        /* \"#utility.yul\":8132:8134   */\n      0x21\n        /* \"#utility.yul\":8127:8130   */\n      dup3\n        /* \"#utility.yul\":8123:8135   */\n      add\n        /* \"#utility.yul\":8116:8135   */\n      swap1\n      pop\n        /* \"#utility.yul\":7739:8141   */\n      swap2\n      swap1\n      pop\n      jump\t// out\n        /* \"#utility.yul\":8147:8513   */\n    tag_430:\n        /* \"#utility.yul\":8289:8292   */\n      0x00\n        /* \"#utility.yul\":8310:8377   */\n      tag_432\n        /* \"#utility.yul\":8374:8376   */\n      0x1c\n        /* \"#utility.yul\":8369:8372   */\n      dup4\n        /* \"#utility.yul\":8310:8377   */\n      tag_369\n      jump\t// in\n    tag_432:\n        /* \"#utility.yul\":8303:8377   */\n      swap2\n      pop\n        /* \"#utility.yul\":8386:8479   */\n      tag_433\n        /* \"#utility.yul\":8475:8478   */\n      dup3\n        /* \"#utility.yul\":8386:8479   */\n      tag_434\n      jump\t// in\n    tag_433:\n        /* \"#utility.yul\":8504:8506   */\n      0x20\n        /* \"#utility.yul\":8499:8502   */\n      dup3\n        /* \"#utility.yul\":8495:8507   */\n      add\n        /* \"#utility.yul\":8488:8507   */\n      swap1\n      pop\n        /* \"#utility.yul\":8147:8513   */\n      swap2\n      swap1\n      pop\n      jump\t// out\n        /* \"#utility.yul\":8519:8885   */\n    tag_435:\n        /* \"#utility.yul\":8661:8664   */\n      0x00\n        /* \"#utility.yul\":8682:8749   */\n      tag_437\n        /* \"#utility.yul\":8746:8748   */\n      0x12\n        /* \"#utility.yul\":8741:8744   */\n      dup4\n        /* \"#utility.yul\":8682:8749   */\n      tag_369\n      jump\t// in\n    tag_437:\n        /* \"#utility.yul\":8675:8749   */\n      swap2\n      pop\n        /* \"#utility.yul\":8758:8851   */\n      tag_438\n        /* \"#utility.yul\":8847:8850   */\n      dup3\n        /* \"#utility.yul\":8758:8851   */\n      tag_439\n      jump\t// in\n    tag_438:\n        /* \"#utility.yul\":8876:8878   */\n      0x20\n        /* \"#utility.yul\":8871:8874   */\n      dup3\n        /* \"#utility.yul\":8867:8879   */\n      add\n        /* \"#utility.yul\":8860:8879   */\n      swap1\n      pop\n        /* \"#utility.yul\":8519:8885   */\n      swap2\n      swap1\n      pop\n      jump\t// out\n        /* \"#utility.yul\":8891:9009   */\n    tag_440:\n        /* \"#utility.yul\":8978:9002   */\n      tag_442\n        /* \"#utility.yul\":8996:9001   */\n      dup2\n        /* \"#utility.yul\":8978:9002   */\n      tag_443\n      jump\t// in\n    tag_442:\n        /* \"#utility.yul\":8973:8976   */\n      dup3\n        /* \"#utility.yul\":8966:9003   */\n      mstore\n        /* \"#utility.yul\":8891:9009   */\n      pop\n      pop\n      jump\t// out\n        /* \"#utility.yul\":9015:9172   */\n    tag_444:\n        /* \"#utility.yul\":9120:9165   */\n      tag_446\n        /* \"#utility.yul\":9140:9164   */\n      tag_447\n        /* \"#utility.yul\":9158:9163   */\n      dup3\n        /* \"#utility.yul\":9140:9164   */\n      tag_443\n      jump\t// in\n    tag_447:\n        /* \"#utility.yul\":9120:9165   */\n      tag_448\n      jump\t// in\n    tag_446:\n        /* \"#utility.yul\":9115:9118   */\n      dup3\n        /* \"#utility.yul\":9108:9166   */\n      mstore\n        /* \"#utility.yul\":9015:9172   */\n      pop\n      pop\n      jump\t// out\n        /* \"#utility.yul\":9178:9613   */\n    tag_283:\n        /* \"#utility.yul\":9358:9361   */\n      0x00\n        /* \"#utility.yul\":9380:9475   */\n      tag_450\n        /* \"#utility.yul\":9471:9474   */\n      dup3\n        /* \"#utility.yul\":9462:9468   */\n      dup6\n        /* \"#utility.yul\":9380:9475   */\n      tag_374\n      jump\t// in\n    tag_450:\n        /* \"#utility.yul\":9373:9475   */\n      swap2\n      pop\n        /* \"#utility.yul\":9492:9587   */\n      tag_451\n        /* \"#utility.yul\":9583:9586   */\n      dup3\n        /* \"#utility.yul\":9574:9580   */\n      dup5\n        /* \"#utility.yul\":9492:9587   */\n      tag_374\n      jump\t// in\n    tag_451:\n        /* \"#utility.yul\":9485:9587   */\n      swap2\n      pop\n        /* \"#utility.yul\":9604:9607   */\n      dup2\n        /* \"#utility.yul\":9597:9607   */\n      swap1\n      pop\n        /* \"#utility.yul\":9178:9613   */\n      swap4\n      swap3\n      pop\n      pop\n      pop\n      jump\t// out\n        /* \"#utility.yul\":9619:10141   */\n    tag_279:\n        /* \"#utility.yul\":9832:9835   */\n      0x00\n        /* \"#utility.yul\":9854:10002   */\n      tag_453\n        /* \"#utility.yul\":9998:10001   */\n      dup3\n        /* \"#utility.yul\":9854:10002   */\n      tag_400\n      jump\t// in\n    tag_453:\n        /* \"#utility.yul\":9847:10002   */\n      swap2\n      pop\n        /* \"#utility.yul\":10012:10087   */\n      tag_454\n        /* \"#utility.yul\":10083:10086   */\n      dup3\n        /* \"#utility.yul\":10074:10080   */\n      dup5\n        /* \"#utility.yul\":10012:10087   */\n      tag_444\n      jump\t// in\n    tag_454:\n        /* \"#utility.yul\":10112:10114   */\n      0x20\n        /* \"#utility.yul\":10107:10110   */\n      dup3\n        /* \"#utility.yul\":10103:10115   */\n      add\n        /* \"#utility.yul\":10096:10115   */\n      swap2\n      pop\n        /* \"#utility.yul\":10132:10135   */\n      dup2\n        /* \"#utility.yul\":10125:10135   */\n      swap1\n      pop\n        /* \"#utility.yul\":9619:10141   */\n      swap3\n      swap2\n      pop\n      pop\n      jump\t// out\n        /* \"#utility.yul\":10147:10669   */\n    tag_281:\n        /* \"#utility.yul\":10360:10363   */\n      0x00\n        /* \"#utility.yul\":10382:10530   */\n      tag_456\n        /* \"#utility.yul\":10526:10529   */\n      dup3\n        /* \"#utility.yul\":10382:10530   */\n      tag_425\n      jump\t// in\n    tag_456:\n        /* \"#utility.yul\":10375:10530   */\n      swap2\n      pop\n        /* \"#utility.yul\":10540:10615   */\n      tag_457\n        /* \"#utility.yul\":10611:10614   */\n      dup3\n        /* \"#utility.yul\":10602:10608   */\n      dup5\n        /* \"#utility.yul\":10540:10615   */\n      tag_444\n      jump\t// in\n    tag_457:\n        /* \"#utility.yul\":10640:10642   */\n      0x20\n        /* \"#utility.yul\":10635:10638   */\n      dup3\n        /* \"#utility.yul\":10631:10643   */\n      add\n        /* \"#utility.yul\":10624:10643   */\n      swap2\n      pop\n        /* \"#utility.yul\":10660:10663   */\n      dup2\n        /* \"#utility.yul\":10653:10663   */\n      swap1\n      pop\n        /* \"#utility.yul\":10147:10669   */\n      swap3\n      swap2\n      pop\n      pop\n      jump\t// out\n        /* \"#utility.yul\":10675:10897   */\n    tag_99:\n        /* \"#utility.yul\":10768:10772   */\n      0x00\n        /* \"#utility.yul\":10806:10808   */\n      0x20\n        /* \"#utility.yul\":10795:10804   */\n      dup3\n        /* \"#utility.yul\":10791:10809   */\n      add\n        /* \"#utility.yul\":10783:10809   */\n      swap1\n      pop\n        /* \"#utility.yul\":10819:10890   */\n      tag_459\n        /* \"#utility.yul\":10887:10888   */\n      0x00\n        /* \"#utility.yul\":10876:10885   */\n      dup4\n        /* \"#utility.yul\":10872:10889   */\n      add\n        /* \"#utility.yul\":10863:10869   */\n      dup5\n        /* \"#utility.yul\":10819:10890   */\n      tag_352\n      jump\t// in\n    tag_459:\n        /* \"#utility.yul\":10675:10897   */\n      swap3\n      swap2\n      pop\n      pop\n      jump\t// out\n        /* \"#utility.yul\":10903:11157   */\n    tag_77:\n        /* \"#utility.yul\":11012:11016   */\n      0x00\n        /* \"#utility.yul\":11050:11052   */\n      0x20\n        /* \"#utility.yul\":11039:11048   */\n      dup3\n        /* \"#utility.yul\":11035:11053   */\n      add\n        /* \"#utility.yul\":11027:11053   */\n      swap1\n      pop\n        /* \"#utility.yul\":11063:11150   */\n      tag_461\n        /* \"#utility.yul\":11147:11148   */\n      0x00\n        /* \"#utility.yul\":11136:11145   */\n      dup4\n        /* \"#utility.yul\":11132:11149   */\n      add\n        /* \"#utility.yul\":11123:11129   */\n      dup5\n        /* \"#utility.yul\":11063:11150   */\n      tag_348\n      jump\t// in\n    tag_461:\n        /* \"#utility.yul\":10903:11157   */\n      swap3\n      swap2\n      pop\n      pop\n      jump\t// out\n        /* \"#utility.yul\":11163:11605   */\n    tag_298:\n        /* \"#utility.yul\":11312:11316   */\n      0x00\n        /* \"#utility.yul\":11350:11352   */\n      0x60\n        /* \"#utility.yul\":11339:11348   */\n      dup3\n        /* \"#utility.yul\":11335:11353   */\n      add\n        /* \"#utility.yul\":11327:11353   */\n      swap1\n      pop\n        /* \"#utility.yul\":11363:11434   */\n      tag_463\n        /* \"#utility.yul\":11431:11432   */\n      0x00\n        /* \"#utility.yul\":11420:11429   */\n      dup4\n        /* \"#utility.yul\":11416:11433   */\n      add\n        /* \"#utility.yul\":11407:11413   */\n      dup7\n        /* \"#utility.yul\":11363:11434   */\n      tag_352\n      jump\t// in\n    tag_463:\n        /* \"#utility.yul\":11444:11516   */\n      tag_464\n        /* \"#utility.yul\":11512:11514   */\n      0x20\n        /* \"#utility.yul\":11501:11510   */\n      dup4\n        /* \"#utility.yul\":11497:11515   */\n      add\n        /* \"#utility.yul\":11488:11494   */\n      dup6\n        /* \"#utility.yul\":11444:11516   */\n      tag_440\n      jump\t// in\n    tag_464:\n        /* \"#utility.yul\":11526:11598   */\n      tag_465\n        /* \"#utility.yul\":11594:11596   */\n      0x40\n        /* \"#utility.yul\":11583:11592   */\n      dup4\n        /* \"#utility.yul\":11579:11597   */\n      add\n        /* \"#utility.yul\":11570:11576   */\n      dup5\n        /* \"#utility.yul\":11526:11598   */\n      tag_440\n      jump\t// in\n    tag_465:\n        /* \"#utility.yul\":11163:11605   */\n      swap5\n      swap4\n      pop\n      pop\n      pop\n      pop\n      jump\t// out\n        /* \"#utility.yul\":11611:11821   */\n    tag_55:\n        /* \"#utility.yul\":11698:11702   */\n      0x00\n        /* \"#utility.yul\":11736:11738   */\n      0x20\n        /* \"#utility.yul\":11725:11734   */\n      dup3\n        /* \"#utility.yul\":11721:11739   */\n      add\n        /* \"#utility.yul\":11713:11739   */\n      swap1\n      pop\n        /* \"#utility.yul\":11749:11814   */\n      tag_467\n        /* \"#utility.yul\":11811:11812   */\n      0x00\n        /* \"#utility.yul\":11800:11809   */\n      dup4\n        /* \"#utility.yul\":11796:11813   */\n      add\n        /* \"#utility.yul\":11787:11793   */\n      dup5\n        /* \"#utility.yul\":11749:11814   */\n      tag_356\n      jump\t// in\n    tag_467:\n        /* \"#utility.yul\":11611:11821   */\n      swap3\n      swap2\n      pop\n      pop\n      jump\t// out\n        /* \"#utility.yul\":11827:12063   */\n    tag_82:\n        /* \"#utility.yul\":11927:11931   */\n      0x00\n        /* \"#utility.yul\":11965:11967   */\n      0x20\n        /* \"#utility.yul\":11954:11963   */\n      dup3\n        /* \"#utility.yul\":11950:11968   */\n      add\n        /* \"#utility.yul\":11942:11968   */\n      swap1\n      pop\n        /* \"#utility.yul\":11978:12056   */\n      tag_469\n        /* \"#utility.yul\":12053:12054   */\n      0x00\n        /* \"#utility.yul\":12042:12051   */\n      dup4\n        /* \"#utility.yul\":12038:12055   */\n      add\n        /* \"#utility.yul\":12029:12035   */\n      dup5\n        /* \"#utility.yul\":11978:12056   */\n      tag_360\n      jump\t// in\n    tag_469:\n        /* \"#utility.yul\":11827:12063   */\n      swap3\n      swap2\n      pop\n      pop\n      jump\t// out\n        /* \"#utility.yul\":12069:12382   */\n    tag_45:\n        /* \"#utility.yul\":12182:12186   */\n      0x00\n        /* \"#utility.yul\":12220:12222   */\n      0x20\n        /* \"#utility.yul\":12209:12218   */\n      dup3\n        /* \"#utility.yul\":12205:12223   */\n      add\n        /* \"#utility.yul\":12197:12223   */\n      swap1\n      pop\n        /* \"#utility.yul\":12269:12278   */\n      dup2\n        /* \"#utility.yul\":12263:12267   */\n      dup2\n        /* \"#utility.yul\":12259:12279   */\n      sub\n        /* \"#utility.yul\":12255:12256   */\n      0x00\n        /* \"#utility.yul\":12244:12253   */\n      dup4\n        /* \"#utility.yul\":12240:12257   */\n      add\n        /* \"#utility.yul\":12233:12280   */\n      mstore\n        /* \"#utility.yul\":12297:12375   */\n      tag_471\n        /* \"#utility.yul\":12370:12374   */\n      dup2\n        /* \"#utility.yul\":12361:12367   */\n      dup5\n        /* \"#utility.yul\":12297:12375   */\n      tag_364\n      jump\t// in\n    tag_471:\n        /* \"#utility.yul\":12289:12375   */\n      swap1\n      pop\n        /* \"#utility.yul\":12069:12382   */\n      swap3\n      swap2\n      pop\n      pop\n      jump\t// out\n        /* \"#utility.yul\":12388:12807   */\n    tag_208:\n        /* \"#utility.yul\":12554:12558   */\n      0x00\n        /* \"#utility.yul\":12592:12594   */\n      0x20\n        /* \"#utility.yul\":12581:12590   */\n      dup3\n        /* \"#utility.yul\":12577:12595   */\n      add\n        /* \"#utility.yul\":12569:12595   */\n      swap1\n      pop\n        /* \"#utility.yul\":12641:12650   */\n      dup2\n        /* \"#utility.yul\":12635:12639   */\n      dup2\n        /* \"#utility.yul\":12631:12651   */\n      sub\n        /* \"#utility.yul\":12627:12628   */\n      0x00\n        /* \"#utility.yul\":12616:12625   */\n      dup4\n        /* \"#utility.yul\":12612:12629   */\n      add\n        /* \"#utility.yul\":12605:12652   */\n      mstore\n        /* \"#utility.yul\":12669:12800   */\n      tag_473\n        /* \"#utility.yul\":12795:12799   */\n      dup2\n        /* \"#utility.yul\":12669:12800   */\n      tag_380\n      jump\t// in\n    tag_473:\n        /* \"#utility.yul\":12661:12800   */\n      swap1\n      pop\n        /* \"#utility.yul\":12388:12807   */\n      swap2\n      swap1\n      pop\n      jump\t// out\n        /* \"#utility.yul\":12813:13232   */\n    tag_193:\n        /* \"#utility.yul\":12979:12983   */\n      0x00\n        /* \"#utility.yul\":13017:13019   */\n      0x20\n        /* \"#utility.yul\":13006:13015   */\n      dup3\n        /* \"#utility.yul\":13002:13020   */\n      add\n        /* \"#utility.yul\":12994:13020   */\n      swap1\n      pop\n        /* \"#utility.yul\":13066:13075   */\n      dup2\n        /* \"#utility.yul\":13060:13064   */\n      dup2\n        /* \"#utility.yul\":13056:13076   */\n      sub\n        /* \"#utility.yul\":13052:13053   */\n      0x00\n        /* \"#utility.yul\":13041:13050   */\n      dup4\n        /* \"#utility.yul\":13037:13054   */\n      add\n        /* \"#utility.yul\":13030:13077   */\n      mstore\n        /* \"#utility.yul\":13094:13225   */\n      tag_475\n        /* \"#utility.yul\":13220:13224   */\n      dup2\n        /* \"#utility.yul\":13094:13225   */\n      tag_385\n      jump\t// in\n    tag_475:\n        /* \"#utility.yul\":13086:13225   */\n      swap1\n      pop\n        /* \"#utility.yul\":12813:13232   */\n      swap2\n      swap1\n      pop\n      jump\t// out\n        /* \"#utility.yul\":13238:13657   */\n    tag_203:\n        /* \"#utility.yul\":13404:13408   */\n      0x00\n        /* \"#utility.yul\":13442:13444   */\n      0x20\n        /* \"#utility.yul\":13431:13440   */\n      dup3\n        /* \"#utility.yul\":13427:13445   */\n      add\n        /* \"#utility.yul\":13419:13445   */\n      swap1\n      pop\n        /* \"#utility.yul\":13491:13500   */\n      dup2\n        /* \"#utility.yul\":13485:13489   */\n      dup2\n        /* \"#utility.yul\":13481:13501   */\n      sub\n        /* \"#utility.yul\":13477:13478   */\n      0x00\n        /* \"#utility.yul\":13466:13475   */\n      dup4\n        /* \"#utility.yul\":13462:13479   */\n      add\n        /* \"#utility.yul\":13455:13502   */\n      mstore\n        /* \"#utility.yul\":13519:13650   */\n      tag_477\n        /* \"#utility.yul\":13645:13649   */\n      dup2\n        /* \"#utility.yul\":13519:13650   */\n      tag_390\n      jump\t// in\n    tag_477:\n        /* \"#utility.yul\":13511:13650   */\n      swap1\n      pop\n        /* \"#utility.yul\":13238:13657   */\n      swap2\n      swap1\n      pop\n      jump\t// out\n        /* \"#utility.yul\":13663:14082   */\n    tag_275:\n        /* \"#utility.yul\":13829:13833   */\n      0x00\n        /* \"#utility.yul\":13867:13869   */\n      0x20\n        /* \"#utility.yul\":13856:13865   */\n      dup3\n        /* \"#utility.yul\":13852:13870   */\n      add\n        /* \"#utility.yul\":13844:13870   */\n      swap1\n      pop\n        /* \"#utility.yul\":13916:13925   */\n      dup2\n        /* \"#utility.yul\":13910:13914   */\n      dup2\n        /* \"#utility.yul\":13906:13926   */\n      sub\n        /* \"#utility.yul\":13902:13903   */\n      0x00\n        /* \"#utility.yul\":13891:13900   */\n      dup4\n        /* \"#utility.yul\":13887:13904   */\n      add\n        /* \"#utility.yul\":13880:13927   */\n      mstore\n        /* \"#utility.yul\":13944:14075   */\n      tag_479\n        /* \"#utility.yul\":14070:14074   */\n      dup2\n        /* \"#utility.yul\":13944:14075   */\n      tag_395\n      jump\t// in\n    tag_479:\n        /* \"#utility.yul\":13936:14075   */\n      swap1\n      pop\n        /* \"#utility.yul\":13663:14082   */\n      swap2\n      swap1\n      pop\n      jump\t// out\n        /* \"#utility.yul\":14088:14507   */\n    tag_172:\n        /* \"#utility.yul\":14254:14258   */\n      0x00\n        /* \"#utility.yul\":14292:14294   */\n      0x20\n        /* \"#utility.yul\":14281:14290   */\n      dup3\n        /* \"#utility.yul\":14277:14295   */\n      add\n        /* \"#utility.yul\":14269:14295   */\n      swap1\n      pop\n        /* \"#utility.yul\":14341:14350   */\n      dup2\n        /* \"#utility.yul\":14335:14339   */\n      dup2\n        /* \"#utility.yul\":14331:14351   */\n      sub\n        /* \"#utility.yul\":14327:14328   */\n      0x00\n        /* \"#utility.yul\":14316:14325   */\n      dup4\n        /* \"#utility.yul\":14312:14329   */\n      add\n        /* \"#utility.yul\":14305:14352   */\n      mstore\n        /* \"#utility.yul\":14369:14500   */\n      tag_481\n        /* \"#utility.yul\":14495:14499   */\n      dup2\n        /* \"#utility.yul\":14369:14500   */\n      tag_405\n      jump\t// in\n    tag_481:\n        /* \"#utility.yul\":14361:14500   */\n      swap1\n      pop\n        /* \"#utility.yul\":14088:14507   */\n      swap2\n      swap1\n      pop\n      jump\t// out\n        /* \"#utility.yul\":14513:14932   */\n    tag_200:\n        /* \"#utility.yul\":14679:14683   */\n      0x00\n        /* \"#utility.yul\":14717:14719   */\n      0x20\n        /* \"#utility.yul\":14706:14715   */\n      dup3\n        /* \"#utility.yul\":14702:14720   */\n      add\n        /* \"#utility.yul\":14694:14720   */\n      swap1\n      pop\n        /* \"#utility.yul\":14766:14775   */\n      dup2\n        /* \"#utility.yul\":14760:14764   */\n      dup2\n        /* \"#utility.yul\":14756:14776   */\n      sub\n        /* \"#utility.yul\":14752:14753   */\n      0x00\n        /* \"#utility.yul\":14741:14750   */\n      dup4\n        /* \"#utility.yul\":14737:14754   */\n      add\n        /* \"#utility.yul\":14730:14777   */\n      mstore\n        /* \"#utility.yul\":14794:14925   */\n      tag_483\n        /* \"#utility.yul\":14920:14924   */\n      dup2\n        /* \"#utility.yul\":14794:14925   */\n      tag_410\n      jump\t// in\n    tag_483:\n        /* \"#utility.yul\":14786:14925   */\n      swap1\n      pop\n        /* \"#utility.yul\":14513:14932   */\n      swap2\n      swap1\n      pop\n      jump\t// out\n        /* \"#utility.yul\":14938:15357   */\n    tag_196:\n        /* \"#utility.yul\":15104:15108   */\n      0x00\n        /* \"#utility.yul\":15142:15144   */\n      0x20\n        /* \"#utility.yul\":15131:15140   */\n      dup3\n        /* \"#utility.yul\":15127:15145   */\n      add\n        /* \"#utility.yul\":15119:15145   */\n      swap1\n      pop\n        /* \"#utility.yul\":15191:15200   */\n      dup2\n        /* \"#utility.yul\":15185:15189   */\n      dup2\n        /* \"#utility.yul\":15181:15201   */\n      sub\n        /* \"#utility.yul\":15177:15178   */\n      0x00\n        /* \"#utility.yul\":15166:15175   */\n      dup4\n        /* \"#utility.yul\":15162:15179   */\n      add\n        /* \"#utility.yul\":15155:15202   */\n      mstore\n        /* \"#utility.yul\":15219:15350   */\n      tag_485\n        /* \"#utility.yul\":15345:15349   */\n      dup2\n        /* \"#utility.yul\":15219:15350   */\n      tag_415\n      jump\t// in\n    tag_485:\n        /* \"#utility.yul\":15211:15350   */\n      swap1\n      pop\n        /* \"#utility.yul\":14938:15357   */\n      swap2\n      swap1\n      pop\n      jump\t// out\n        /* \"#utility.yul\":15363:15782   */\n    tag_290:\n        /* \"#utility.yul\":15529:15533   */\n      0x00\n        /* \"#utility.yul\":15567:15569   */\n      0x20\n        /* \"#utility.yul\":15556:15565   */\n      dup3\n        /* \"#utility.yul\":15552:15570   */\n      add\n        /* \"#utility.yul\":15544:15570   */\n      swap1\n      pop\n        /* \"#utility.yul\":15616:15625   */\n      dup2\n        /* \"#utility.yul\":15610:15614   */\n      dup2\n        /* \"#utility.yul\":15606:15626   */\n      sub\n        /* \"#utility.yul\":15602:15603   */\n      0x00\n        /* \"#utility.yul\":15591:15600   */\n      dup4\n        /* \"#utility.yul\":15587:15604   */\n      add\n        /* \"#utility.yul\":15580:15627   */\n      mstore\n        /* \"#utility.yul\":15644:15775   */\n      tag_487\n        /* \"#utility.yul\":15770:15774   */\n      dup2\n        /* \"#utility.yul\":15644:15775   */\n      tag_420\n      jump\t// in\n    tag_487:\n        /* \"#utility.yul\":15636:15775   */\n      swap1\n      pop\n        /* \"#utility.yul\":15363:15782   */\n      swap2\n      swap1\n      pop\n      jump\t// out\n        /* \"#utility.yul\":15788:16207   */\n    tag_302:\n        /* \"#utility.yul\":15954:15958   */\n      0x00\n        /* \"#utility.yul\":15992:15994   */\n      0x20\n        /* \"#utility.yul\":15981:15990   */\n      dup3\n        /* \"#utility.yul\":15977:15995   */\n      add\n        /* \"#utility.yul\":15969:15995   */\n      swap1\n      pop\n        /* \"#utility.yul\":16041:16050   */\n      dup2\n        /* \"#utility.yul\":16035:16039   */\n      dup2\n        /* \"#utility.yul\":16031:16051   */\n      sub\n        /* \"#utility.yul\":16027:16028   */\n      0x00\n        /* \"#utility.yul\":16016:16025   */\n      dup4\n        /* \"#utility.yul\":16012:16029   */\n      add\n        /* \"#utility.yul\":16005:16052   */\n      mstore\n        /* \"#utility.yul\":16069:16200   */\n      tag_489\n        /* \"#utility.yul\":16195:16199   */\n      dup2\n        /* \"#utility.yul\":16069:16200   */\n      tag_430\n      jump\t// in\n    tag_489:\n        /* \"#utility.yul\":16061:16200   */\n      swap1\n      pop\n        /* \"#utility.yul\":15788:16207   */\n      swap2\n      swap1\n      pop\n      jump\t// out\n        /* \"#utility.yul\":16213:16632   */\n    tag_211:\n        /* \"#utility.yul\":16379:16383   */\n      0x00\n        /* \"#utility.yul\":16417:16419   */\n      0x20\n        /* \"#utility.yul\":16406:16415   */\n      dup3\n        /* \"#utility.yul\":16402:16420   */\n      add\n        /* \"#utility.yul\":16394:16420   */\n      swap1\n      pop\n        /* \"#utility.yul\":16466:16475   */\n      dup2\n        /* \"#utility.yul\":16460:16464   */\n      dup2\n        /* \"#utility.yul\":16456:16476   */\n      sub\n        /* \"#utility.yul\":16452:16453   */\n      0x00\n        /* \"#utility.yul\":16441:16450   */\n      dup4\n        /* \"#utility.yul\":16437:16454   */\n      add\n        /* \"#utility.yul\":16430:16477   */\n      mstore\n        /* \"#utility.yul\":16494:16625   */\n      tag_491\n        /* \"#utility.yul\":16620:16624   */\n      dup2\n        /* \"#utility.yul\":16494:16625   */\n      tag_435\n      jump\t// in\n    tag_491:\n        /* \"#utility.yul\":16486:16625   */\n      swap1\n      pop\n        /* \"#utility.yul\":16213:16632   */\n      swap2\n      swap1\n      pop\n      jump\t// out\n        /* \"#utility.yul\":16638:16860   */\n    tag_60:\n        /* \"#utility.yul\":16731:16735   */\n      0x00\n        /* \"#utility.yul\":16769:16771   */\n      0x20\n        /* \"#utility.yul\":16758:16767   */\n      dup3\n        /* \"#utility.yul\":16754:16772   */\n      add\n        /* \"#utility.yul\":16746:16772   */\n      swap1\n      pop\n        /* \"#utility.yul\":16782:16853   */\n      tag_493\n        /* \"#utility.yul\":16850:16851   */\n      0x00\n        /* \"#utility.yul\":16839:16848   */\n      dup4\n        /* \"#utility.yul\":16835:16852   */\n      add\n        /* \"#utility.yul\":16826:16832   */\n      dup5\n        /* \"#utility.yul\":16782:16853   */\n      tag_440\n      jump\t// in\n    tag_493:\n        /* \"#utility.yul\":16638:16860   */\n      swap3\n      swap2\n      pop\n      pop\n      jump\t// out\n        /* \"#utility.yul\":16947:17046   */\n    tag_367:\n        /* \"#utility.yul\":16999:17005   */\n      0x00\n        /* \"#utility.yul\":17033:17038   */\n      dup2\n        /* \"#utility.yul\":17027:17039   */\n      mload\n        /* \"#utility.yul\":17017:17039   */\n      swap1\n      pop\n        /* \"#utility.yul\":16947:17046   */\n      swap2\n      swap1\n      pop\n      jump\t// out\n        /* \"#utility.yul\":17052:17221   */\n    tag_369:\n        /* \"#utility.yul\":17136:17147   */\n      0x00\n        /* \"#utility.yul\":17170:17176   */\n      dup3\n        /* \"#utility.yul\":17165:17168   */\n      dup3\n        /* \"#utility.yul\":17158:17177   */\n      mstore\n        /* \"#utility.yul\":17210:17214   */\n      0x20\n        /* \"#utility.yul\":17205:17208   */\n      dup3\n        /* \"#utility.yul\":17201:17215   */\n      add\n        /* \"#utility.yul\":17186:17215   */\n      swap1\n      pop\n        /* \"#utility.yul\":17052:17221   */\n      swap3\n      swap2\n      pop\n      pop\n      jump\t// out\n        /* \"#utility.yul\":17227:17375   */\n    tag_378:\n        /* \"#utility.yul\":17329:17340   */\n      0x00\n        /* \"#utility.yul\":17366:17369   */\n      dup2\n        /* \"#utility.yul\":17351:17369   */\n      swap1\n      pop\n        /* \"#utility.yul\":17227:17375   */\n      swap3\n      swap2\n      pop\n      pop\n      jump\t// out\n        /* \"#utility.yul\":17381:17686   */\n    tag_218:\n        /* \"#utility.yul\":17421:17424   */\n      0x00\n        /* \"#utility.yul\":17440:17460   */\n      tag_500\n        /* \"#utility.yul\":17458:17459   */\n      dup3\n        /* \"#utility.yul\":17440:17460   */\n      tag_443\n      jump\t// in\n    tag_500:\n        /* \"#utility.yul\":17435:17460   */\n      swap2\n      pop\n        /* \"#utility.yul\":17474:17494   */\n      tag_501\n        /* \"#utility.yul\":17492:17493   */\n      dup4\n        /* \"#utility.yul\":17474:17494   */\n      tag_443\n      jump\t// in\n    tag_501:\n        /* \"#utility.yul\":17469:17494   */\n      swap3\n      pop\n        /* \"#utility.yul\":17628:17629   */\n      dup3\n        /* \"#utility.yul\":17560:17626   */\n      0xffffffffffffffffffffffffffffffffffffffffffffffffffffffffffffffff\n        /* \"#utility.yul\":17556:17630   */\n      sub\n        /* \"#utility.yul\":17553:17554   */\n      dup3\n        /* \"#utility.yul\":17550:17631   */\n      gt\n        /* \"#utility.yul\":17547:17654   */\n      iszero\n      tag_502\n      jumpi\n        /* \"#utility.yul\":17634:17652   */\n      tag_503\n      tag_504\n      jump\t// in\n    tag_503:\n        /* \"#utility.yul\":17547:17654   */\n    tag_502:\n        /* \"#utility.yul\":17678:17679   */\n      dup3\n        /* \"#utility.yul\":17675:17676   */\n      dup3\n        /* \"#utility.yul\":17671:17680   */\n      add\n        /* \"#utility.yul\":17664:17680   */\n      swap1\n      pop\n        /* \"#utility.yul\":17381:17686   */\n      swap3\n      swap2\n      pop\n      pop\n      jump\t// out\n        /* \"#utility.yul\":17692:18040   */\n    tag_292:\n        /* \"#utility.yul\":17732:17739   */\n      0x00\n        /* \"#utility.yul\":17755:17775   */\n      tag_506\n        /* \"#utility.yul\":17773:17774   */\n      dup3\n        /* \"#utility.yul\":17755:17775   */\n      tag_443\n      jump\t// in\n    tag_506:\n        /* \"#utility.yul\":17750:17775   */\n      swap2\n      pop\n        /* \"#utility.yul\":17789:17809   */\n      tag_507\n        /* \"#utility.yul\":17807:17808   */\n      dup4\n        /* \"#utility.yul\":17789:17809   */\n      tag_443\n      jump\t// in\n    tag_507:\n        /* \"#utility.yul\":17784:17809   */\n      swap3\n      pop\n        /* \"#utility.yul\":17977:17978   */\n      dup2\n        /* \"#utility.yul\":17909:17975   */\n      0xffffffffffffffffffffffffffffffffffffffffffffffffffffffffffffffff\n        /* \"#utility.yul\":17905:17979   */\n      div\n        /* \"#utility.yul\":17902:17903   */\n      dup4\n        /* \"#utility.yul\":17899:17980   */\n      gt\n        /* \"#utility.yul\":17894:17895   */\n      dup3\n        /* \"#utility.yul\":17887:17896   */\n      iszero\n        /* \"#utility.yul\":17880:17897   */\n      iszero\n        /* \"#utility.yul\":17876:17981   */\n      and\n        /* \"#utility.yul\":17873:18004   */\n      iszero\n      tag_508\n      jumpi\n        /* \"#utility.yul\":17984:18002   */\n      tag_509\n      tag_504\n      jump\t// in\n    tag_509:\n        /* \"#utility.yul\":17873:18004   */\n    tag_508:\n        /* \"#utility.yul\":18032:18033   */\n      dup3\n        /* \"#utility.yul\":18029:18030   */\n      dup3\n        /* \"#utility.yul\":18025:18034   */\n      mul\n        /* \"#utility.yul\":18014:18034   */\n      swap1\n      pop\n        /* \"#utility.yul\":17692:18040   */\n      swap3\n      swap2\n      pop\n      pop\n      jump\t// out\n        /* \"#utility.yul\":18046:18237   */\n    tag_215:\n        /* \"#utility.yul\":18086:18090   */\n      0x00\n        /* \"#utility.yul\":18106:18126   */\n      tag_511\n        /* \"#utility.yul\":18124:18125   */\n      dup3\n        /* \"#utility.yul\":18106:18126   */\n      tag_443\n      jump\t// in\n    tag_511:\n        /* \"#utility.yul\":18101:18126   */\n      swap2\n      pop\n        /* \"#utility.yul\":18140:18160   */\n      tag_512\n        /* \"#utility.yul\":18158:18159   */\n      dup4\n        /* \"#utility.yul\":18140:18160   */\n      tag_443\n      jump\t// in\n    tag_512:\n        /* \"#utility.yul\":18135:18160   */\n      swap3\n      pop\n        /* \"#utility.yul\":18179:18180   */\n      dup3\n        /* \"#utility.yul\":18176:18177   */\n      dup3\n        /* \"#utility.yul\":18173:18181   */\n      lt\n        /* \"#utility.yul\":18170:18204   */\n      iszero\n      tag_513\n      jumpi\n        /* \"#utility.yul\":18184:18202   */\n      tag_514\n      tag_504\n      jump\t// in\n    tag_514:\n        /* \"#utility.yul\":18170:18204   */\n    tag_513:\n        /* \"#utility.yul\":18229:18230   */\n      dup3\n        /* \"#utility.yul\":18226:18227   */\n      dup3\n        /* \"#utility.yul\":18222:18231   */\n      sub\n        /* \"#utility.yul\":18214:18231   */\n      swap1\n      pop\n        /* \"#utility.yul\":18046:18237   */\n      swap3\n      swap2\n      pop\n      pop\n      jump\t// out\n        /* \"#utility.yul\":18243:18339   */\n    tag_355:\n        /* \"#utility.yul\":18280:18287   */\n      0x00\n        /* \"#utility.yul\":18309:18333   */\n      tag_516\n        /* \"#utility.yul\":18327:18332   */\n      dup3\n        /* \"#utility.yul\":18309:18333   */\n      tag_517\n      jump\t// in\n    tag_516:\n        /* \"#utility.yul\":18298:18333   */\n      swap1\n      pop\n        /* \"#utility.yul\":18243:18339   */\n      swap2\n      swap1\n      pop\n      jump\t// out\n        /* \"#utility.yul\":18345:18449   */\n    tag_351:\n        /* \"#utility.yul\":18390:18397   */\n      0x00\n        /* \"#utility.yul\":18419:18443   */\n      tag_519\n        /* \"#utility.yul\":18437:18442   */\n      dup3\n        /* \"#utility.yul\":18419:18443   */\n      tag_517\n      jump\t// in\n    tag_519:\n        /* \"#utility.yul\":18408:18443   */\n      swap1\n      pop\n        /* \"#utility.yul\":18345:18449   */\n      swap2\n      swap1\n      pop\n      jump\t// out\n        /* \"#utility.yul\":18455:18545   */\n    tag_359:\n        /* \"#utility.yul\":18489:18496   */\n      0x00\n        /* \"#utility.yul\":18532:18537   */\n      dup2\n        /* \"#utility.yul\":18525:18538   */\n      iszero\n        /* \"#utility.yul\":18518:18539   */\n      iszero\n        /* \"#utility.yul\":18507:18539   */\n      swap1\n      pop\n        /* \"#utility.yul\":18455:18545   */\n      swap2\n      swap1\n      pop\n      jump\t// out\n        /* \"#utility.yul\":18551:18680   */\n    tag_521:\n        /* \"#utility.yul\":18597:18604   */\n      0x00\n        /* \"#utility.yul\":18626:18631   */\n      dup2\n        /* \"#utility.yul\":18615:18631   */\n      swap1\n      pop\n        /* \"#utility.yul\":18632:18674   */\n      tag_523\n        /* \"#utility.yul\":18668:18673   */\n      dup3\n        /* \"#utility.yul\":18632:18674   */\n      tag_524\n      jump\t// in\n    tag_523:\n        /* \"#utility.yul\":18551:18680   */\n      swap2\n      swap1\n      pop\n      jump\t// out\n        /* \"#utility.yul\":18686:18812   */\n    tag_517:\n        /* \"#utility.yul\":18723:18730   */\n      0x00\n        /* \"#utility.yul\":18763:18805   */\n      0xffffffffffffffffffffffffffffffffffffffff\n        /* \"#utility.yul\":18756:18761   */\n      dup3\n        /* \"#utility.yul\":18752:18806   */\n      and\n        /* \"#utility.yul\":18741:18806   */\n      swap1\n      pop\n        /* \"#utility.yul\":18686:18812   */\n      swap2\n      swap1\n      pop\n      jump\t// out\n        /* \"#utility.yul\":18818:18895   */\n    tag_443:\n        /* \"#utility.yul\":18855:18862   */\n      0x00\n        /* \"#utility.yul\":18884:18889   */\n      dup2\n        /* \"#utility.yul\":18873:18889   */\n      swap1\n      pop\n        /* \"#utility.yul\":18818:18895   */\n      swap2\n      swap1\n      pop\n      jump\t// out\n        /* \"#utility.yul\":18901:19030   */\n    tag_363:\n        /* \"#utility.yul\":18958:18967   */\n      0x00\n        /* \"#utility.yul\":18991:19024   */\n      tag_528\n        /* \"#utility.yul\":19018:19023   */\n      dup3\n        /* \"#utility.yul\":18991:19024   */\n      tag_521\n      jump\t// in\n    tag_528:\n        /* \"#utility.yul\":18978:19024   */\n      swap1\n      pop\n        /* \"#utility.yul\":18901:19030   */\n      swap2\n      swap1\n      pop\n      jump\t// out\n        /* \"#utility.yul\":19036:19343   */\n    tag_371:\n        /* \"#utility.yul\":19104:19105   */\n      0x00\n        /* \"#utility.yul\":19114:19227   */\n    tag_530:\n        /* \"#utility.yul\":19128:19134   */\n      dup4\n        /* \"#utility.yul\":19125:19126   */\n      dup2\n        /* \"#utility.yul\":19122:19135   */\n      lt\n        /* \"#utility.yul\":19114:19227   */\n      iszero\n      tag_532\n      jumpi\n        /* \"#utility.yul\":19213:19214   */\n      dup1\n        /* \"#utility.yul\":19208:19211   */\n      dup3\n        /* \"#utility.yul\":19204:19215   */\n      add\n        /* \"#utility.yul\":19198:19216   */\n      mload\n        /* \"#utility.yul\":19194:19195   */\n      dup2\n        /* \"#utility.yul\":19189:19192   */\n      dup5\n        /* \"#utility.yul\":19185:19196   */\n      add\n        /* \"#utility.yul\":19178:19217   */\n      mstore\n        /* \"#utility.yul\":19150:19152   */\n      0x20\n        /* \"#utility.yul\":19147:19148   */\n      dup2\n        /* \"#utility.yul\":19143:19153   */\n      add\n        /* \"#utility.yul\":19138:19153   */\n      swap1\n      pop\n        /* \"#utility.yul\":19114:19227   */\n      jump(tag_530)\n    tag_532:\n        /* \"#utility.yul\":19245:19251   */\n      dup4\n        /* \"#utility.yul\":19242:19243   */\n      dup2\n        /* \"#utility.yul\":19239:19252   */\n      gt\n        /* \"#utility.yul\":19236:19337   */\n      iszero\n      tag_533\n      jumpi\n        /* \"#utility.yul\":19325:19326   */\n      0x00\n        /* \"#utility.yul\":19316:19322   */\n      dup5\n        /* \"#utility.yul\":19311:19314   */\n      dup5\n        /* \"#utility.yul\":19307:19323   */\n      add\n        /* \"#utility.yul\":19300:19327   */\n      mstore\n        /* \"#utility.yul\":19236:19337   */\n    tag_533:\n        /* \"#utility.yul\":19085:19343   */\n      pop\n        /* \"#utility.yul\":19036:19343   */\n      pop\n      pop\n      pop\n      jump\t// out\n        /* \"#utility.yul\":19349:19669   */\n    tag_178:\n        /* \"#utility.yul\":19393:19399   */\n      0x00\n        /* \"#utility.yul\":19430:19431   */\n      0x02\n        /* \"#utility.yul\":19424:19428   */\n      dup3\n        /* \"#utility.yul\":19420:19432   */\n      div\n        /* \"#utility.yul\":19410:19432   */\n      swap1\n      pop\n        /* \"#utility.yul\":19477:19478   */\n      0x01\n        /* \"#utility.yul\":19471:19475   */\n      dup3\n        /* \"#utility.yul\":19467:19479   */\n      and\n        /* \"#utility.yul\":19498:19516   */\n      dup1\n        /* \"#utility.yul\":19488:19569   */\n      tag_535\n      jumpi\n        /* \"#utility.yul\":19554:19558   */\n      0x7f\n        /* \"#utility.yul\":19546:19552   */\n      dup3\n        /* \"#utility.yul\":19542:19559   */\n      and\n        /* \"#utility.yul\":19532:19559   */\n      swap2\n      pop\n        /* \"#utility.yul\":19488:19569   */\n    tag_535:\n        /* \"#utility.yul\":19616:19618   */\n      0x20\n        /* \"#utility.yul\":19608:19614   */\n      dup3\n        /* \"#utility.yul\":19605:19619   */\n      lt\n        /* \"#utility.yul\":19585:19603   */\n      dup2\n        /* \"#utility.yul\":19582:19620   */\n      eq\n        /* \"#utility.yul\":19579:19663   */\n      iszero\n      tag_536\n      jumpi\n        /* \"#utility.yul\":19635:19653   */\n      tag_537\n      tag_538\n      jump\t// in\n    tag_537:\n        /* \"#utility.yul\":19579:19663   */\n    tag_536:\n        /* \"#utility.yul\":19400:19669   */\n      pop\n        /* \"#utility.yul\":19349:19669   */\n      swap2\n      swap1\n      pop\n      jump\t// out\n        /* \"#utility.yul\":19675:19754   */\n    tag_448:\n        /* \"#utility.yul\":19714:19721   */\n      0x00\n        /* \"#utility.yul\":19743:19748   */\n      dup2\n        /* \"#utility.yul\":19732:19748   */\n      swap1\n      pop\n        /* \"#utility.yul\":19675:19754   */\n      swap2\n      swap1\n      pop\n      jump\t// out\n        /* \"#utility.yul\":19760:19940   */\n    tag_504:\n        /* \"#utility.yul\":19808:19885   */\n      0x4e487b7100000000000000000000000000000000000000000000000000000000\n        /* \"#utility.yul\":19805:19806   */\n      0x00\n        /* \"#utility.yul\":19798:19886   */\n      mstore\n        /* \"#utility.yul\":19905:19909   */\n      0x11\n        /* \"#utility.yul\":19902:19903   */\n      0x04\n        /* \"#utility.yul\":19895:19910   */\n      mstore\n        /* \"#utility.yul\":19929:19933   */\n      0x24\n        /* \"#utility.yul\":19926:19927   */\n      0x00\n        /* \"#utility.yul\":19919:19934   */\n      revert\n        /* \"#utility.yul\":19946:20126   */\n    tag_176:\n        /* \"#utility.yul\":19994:20071   */\n      0x4e487b7100000000000000000000000000000000000000000000000000000000\n        /* \"#utility.yul\":19991:19992   */\n      0x00\n        /* \"#utility.yul\":19984:20072   */\n      mstore\n        /* \"#utility.yul\":20091:20095   */\n      0x21\n        /* \"#utility.yul\":20088:20089   */\n      0x04\n        /* \"#utility.yul\":20081:20096   */\n      mstore\n        /* \"#utility.yul\":20115:20119   */\n      0x24\n        /* \"#utility.yul\":20112:20113   */\n      0x00\n        /* \"#utility.yul\":20105:20120   */\n      revert\n        /* \"#utility.yul\":20132:20312   */\n    tag_538:\n        /* \"#utility.yul\":20180:20257   */\n      0x4e487b7100000000000000000000000000000000000000000000000000000000\n        /* \"#utility.yul\":20177:20178   */\n      0x00\n        /* \"#utility.yul\":20170:20258   */\n      mstore\n        /* \"#utility.yul\":20277:20281   */\n      0x22\n        /* \"#utility.yul\":20274:20275   */\n      0x04\n        /* \"#utility.yul\":20267:20282   */\n      mstore\n        /* \"#utility.yul\":20301:20305   */\n      0x24\n        /* \"#utility.yul\":20298:20299   */\n      0x00\n        /* \"#utility.yul\":20291:20306   */\n      revert\n        /* \"#utility.yul\":20441:20558   */\n    tag_322:\n        /* \"#utility.yul\":20550:20551   */\n      0x00\n        /* \"#utility.yul\":20547:20548   */\n      dup1\n        /* \"#utility.yul\":20540:20552   */\n      revert\n        /* \"#utility.yul\":20564:20666   */\n    tag_373:\n        /* \"#utility.yul\":20605:20611   */\n      0x00\n        /* \"#utility.yul\":20656:20658   */\n      0x1f\n        /* \"#utility.yul\":20652:20659   */\n      not\n        /* \"#utility.yul\":20647:20649   */\n      0x1f\n        /* \"#utility.yul\":20640:20645   */\n      dup4\n        /* \"#utility.yul\":20636:20650   */\n      add\n        /* \"#utility.yul\":20632:20660   */\n      and\n        /* \"#utility.yul\":20622:20660   */\n      swap1\n      pop\n        /* \"#utility.yul\":20564:20666   */\n      swap2\n      swap1\n      pop\n      jump\t// out\n        /* \"#utility.yul\":20672:20907   */\n    tag_384:\n        /* \"#utility.yul\":20812:20846   */\n      0x546f6b656e2076616c75652069732067726561746572207468616e2074686520\n        /* \"#utility.yul\":20808:20809   */\n      0x00\n        /* \"#utility.yul\":20800:20806   */\n      dup3\n        /* \"#utility.yul\":20796:20810   */\n      add\n        /* \"#utility.yul\":20789:20847   */\n      mstore\n        /* \"#utility.yul\":20881:20899   */\n      0x617070726f7665642062616c616e636500000000000000000000000000000000\n        /* \"#utility.yul\":20876:20878   */\n      0x20\n        /* \"#utility.yul\":20868:20874   */\n      dup3\n        /* \"#utility.yul\":20864:20879   */\n      add\n        /* \"#utility.yul\":20857:20900   */\n      mstore\n        /* \"#utility.yul\":20672:20907   */\n      pop\n      jump\t// out\n        /* \"#utility.yul\":20913:21094   */\n    tag_389:\n        /* \"#utility.yul\":21053:21086   */\n      0x546f6b656e2073616c6573206973206e6f74207965742066696e697368656400\n        /* \"#utility.yul\":21049:21050   */\n      0x00\n        /* \"#utility.yul\":21041:21047   */\n      dup3\n        /* \"#utility.yul\":21037:21051   */\n      add\n        /* \"#utility.yul\":21030:21087   */\n      mstore\n        /* \"#utility.yul\":20913:21094   */\n      pop\n      jump\t// out\n        /* \"#utility.yul\":21100:21321   */\n    tag_394:\n        /* \"#utility.yul\":21240:21274   */\n      0x546f6b656e2076616c7565206d7573742062652067726561746572207468616e\n        /* \"#utility.yul\":21236:21237   */\n      0x00\n        /* \"#utility.yul\":21228:21234   */\n      dup3\n        /* \"#utility.yul\":21224:21238   */\n      add\n        /* \"#utility.yul\":21217:21275   */\n      mstore\n        /* \"#utility.yul\":21309:21313   */\n      0x2030000000000000000000000000000000000000000000000000000000000000\n        /* \"#utility.yul\":21304:21306   */\n      0x20\n        /* \"#utility.yul\":21296:21302   */\n      dup3\n        /* \"#utility.yul\":21292:21307   */\n      add\n        /* \"#utility.yul\":21285:21314   */\n      mstore\n        /* \"#utility.yul\":21100:21321   */\n      pop\n      jump\t// out\n        /* \"#utility.yul\":21327:21509   */\n    tag_399:\n        /* \"#utility.yul\":21467:21501   */\n      0x416d6f756e74206d7573742062652067726561746572207468616e207a65726f\n        /* \"#utility.yul\":21463:21464   */\n      0x00\n        /* \"#utility.yul\":21455:21461   */\n      dup3\n        /* \"#utility.yul\":21451:21465   */\n      add\n        /* \"#utility.yul\":21444:21502   */\n      mstore\n        /* \"#utility.yul\":21327:21509   */\n      pop\n      jump\t// out\n        /* \"#utility.yul\":21515:21696   */\n    tag_404:\n        /* \"#utility.yul\":21655:21688   */\n      0x416d6f756e742063616e6e6f74206e6f74206265206c6f776572207468616e00\n        /* \"#utility.yul\":21651:21652   */\n      0x00\n        /* \"#utility.yul\":21643:21649   */\n      dup3\n        /* \"#utility.yul\":21639:21653   */\n      add\n        /* \"#utility.yul\":21632:21689   */\n      mstore\n        /* \"#utility.yul\":21515:21696   */\n      pop\n      jump\t// out\n        /* \"#utility.yul\":21702:21923   */\n    tag_409:\n        /* \"#utility.yul\":21842:21876   */\n      0x4163636573732064656e6965642c20796f75206165206e6f7420616e2061646d\n        /* \"#utility.yul\":21838:21839   */\n      0x00\n        /* \"#utility.yul\":21830:21836   */\n      dup3\n        /* \"#utility.yul\":21826:21840   */\n      add\n        /* \"#utility.yul\":21819:21877   */\n      mstore\n        /* \"#utility.yul\":21911:21915   */\n      0x696e000000000000000000000000000000000000000000000000000000000000\n        /* \"#utility.yul\":21906:21908   */\n      0x20\n        /* \"#utility.yul\":21898:21904   */\n      dup3\n        /* \"#utility.yul\":21894:21909   */\n      add\n        /* \"#utility.yul\":21887:21916   */\n      mstore\n        /* \"#utility.yul\":21702:21923   */\n      pop\n      jump\t// out\n        /* \"#utility.yul\":21929:22164   */\n    tag_414:\n        /* \"#utility.yul\":22069:22103   */\n      0x546f6b656e2076616c75652069732067726561746572207468616e20796f7572\n        /* \"#utility.yul\":22065:22066   */\n      0x00\n        /* \"#utility.yul\":22057:22063   */\n      dup3\n        /* \"#utility.yul\":22053:22067   */\n      add\n        /* \"#utility.yul\":22046:22104   */\n      mstore\n        /* \"#utility.yul\":22138:22156   */\n      0x2063757272656e7420686f6c64696e6700000000000000000000000000000000\n        /* \"#utility.yul\":22133:22135   */\n      0x20\n        /* \"#utility.yul\":22125:22131   */\n      dup3\n        /* \"#utility.yul\":22121:22136   */\n      add\n        /* \"#utility.yul\":22114:22157   */\n      mstore\n        /* \"#utility.yul\":21929:22164   */\n      pop\n      jump\t// out\n        /* \"#utility.yul\":22170:22350   */\n    tag_419:\n        /* \"#utility.yul\":22310:22342   */\n      0x4e6f20746f6b656e20617661696c61626c6520666f72206275726e696e670000\n        /* \"#utility.yul\":22306:22307   */\n      0x00\n        /* \"#utility.yul\":22298:22304   */\n      dup3\n        /* \"#utility.yul\":22294:22308   */\n      add\n        /* \"#utility.yul\":22287:22343   */\n      mstore\n        /* \"#utility.yul\":22170:22350   */\n      pop\n      jump\t// out\n        /* \"#utility.yul\":22356:22591   */\n    tag_424:\n        /* \"#utility.yul\":22496:22530   */\n      0x546865206d6178696d756d20616d6f756e7420746f2062652072616973656420\n        /* \"#utility.yul\":22492:22493   */\n      0x00\n        /* \"#utility.yul\":22484:22490   */\n      dup3\n        /* \"#utility.yul\":22480:22494   */\n      add\n        /* \"#utility.yul\":22473:22531   */\n      mstore\n        /* \"#utility.yul\":22565:22583   */\n      0x686173206265656e207265616368656400000000000000000000000000000000\n        /* \"#utility.yul\":22560:22562   */\n      0x20\n        /* \"#utility.yul\":22552:22558   */\n      dup3\n        /* \"#utility.yul\":22548:22563   */\n      add\n        /* \"#utility.yul\":22541:22584   */\n      mstore\n        /* \"#utility.yul\":22356:22591   */\n      pop\n      jump\t// out\n        /* \"#utility.yul\":22597:22817   */\n    tag_429:\n        /* \"#utility.yul\":22737:22771   */\n      0x416d6f756e742063616e6e6f74206e6f74206265206869676768657220746861\n        /* \"#utility.yul\":22733:22734   */\n      0x00\n        /* \"#utility.yul\":22725:22731   */\n      dup3\n        /* \"#utility.yul\":22721:22735   */\n      add\n        /* \"#utility.yul\":22714:22772   */\n      mstore\n        /* \"#utility.yul\":22806:22809   */\n      0x6e00000000000000000000000000000000000000000000000000000000000000\n        /* \"#utility.yul\":22801:22803   */\n      0x20\n        /* \"#utility.yul\":22793:22799   */\n      dup3\n        /* \"#utility.yul\":22789:22804   */\n      add\n        /* \"#utility.yul\":22782:22810   */\n      mstore\n        /* \"#utility.yul\":22597:22817   */\n      pop\n      jump\t// out\n        /* \"#utility.yul\":22823:23001   */\n    tag_434:\n        /* \"#utility.yul\":22963:22993   */\n      0x496e73756666696369656e74204163636f756e742042616c616e636500000000\n        /* \"#utility.yul\":22959:22960   */\n      0x00\n        /* \"#utility.yul\":22951:22957   */\n      dup3\n        /* \"#utility.yul\":22947:22961   */\n      add\n        /* \"#utility.yul\":22940:22994   */\n      mstore\n        /* \"#utility.yul\":22823:23001   */\n      pop\n      jump\t// out\n        /* \"#utility.yul\":23007:23175   */\n    tag_439:\n        /* \"#utility.yul\":23147:23167   */\n      0x496e737566696369656e742042616c6e63650000000000000000000000000000\n        /* \"#utility.yul\":23143:23144   */\n      0x00\n        /* \"#utility.yul\":23135:23141   */\n      dup3\n        /* \"#utility.yul\":23131:23145   */\n      add\n        /* \"#utility.yul\":23124:23168   */\n      mstore\n        /* \"#utility.yul\":23007:23175   */\n      pop\n      jump\t// out\n        /* \"#utility.yul\":23181:23295   */\n    tag_524:\n        /* \"#utility.yul\":23263:23264   */\n      0x05\n        /* \"#utility.yul\":23256:23261   */\n      dup2\n        /* \"#utility.yul\":23253:23265   */\n      lt\n        /* \"#utility.yul\":23243:23289   */\n      tag_560\n      jumpi\n        /* \"#utility.yul\":23269:23287   */\n      tag_561\n      tag_176\n      jump\t// in\n    tag_561:\n        /* \"#utility.yul\":23243:23289   */\n    tag_560:\n        /* \"#utility.yul\":23181:23295   */\n      pop\n      jump\t// out\n        /* \"#utility.yul\":23301:23423   */\n    tag_310:\n        /* \"#utility.yul\":23374:23398   */\n      tag_563\n        /* \"#utility.yul\":23392:23397   */\n      dup2\n        /* \"#utility.yul\":23374:23398   */\n      tag_355\n      jump\t// in\n    tag_563:\n        /* \"#utility.yul\":23367:23372   */\n      dup2\n        /* \"#utility.yul\":23364:23399   */\n      eq\n        /* \"#utility.yul\":23354:23417   */\n      tag_564\n      jumpi\n        /* \"#utility.yul\":23413:23414   */\n      0x00\n        /* \"#utility.yul\":23410:23411   */\n      dup1\n        /* \"#utility.yul\":23403:23415   */\n      revert\n        /* \"#utility.yul\":23354:23417   */\n    tag_564:\n        /* \"#utility.yul\":23301:23423   */\n      pop\n      jump\t// out\n        /* \"#utility.yul\":23429:23567   */\n    tag_314:\n        /* \"#utility.yul\":23510:23542   */\n      tag_566\n        /* \"#utility.yul\":23536:23541   */\n      dup2\n        /* \"#utility.yul\":23510:23542   */\n      tag_351\n      jump\t// in\n    tag_566:\n        /* \"#utility.yul\":23503:23508   */\n      dup2\n        /* \"#utility.yul\":23500:23543   */\n      eq\n        /* \"#utility.yul\":23490:23561   */\n      tag_567\n      jumpi\n        /* \"#utility.yul\":23557:23558   */\n      0x00\n        /* \"#utility.yul\":23554:23555   */\n      dup1\n        /* \"#utility.yul\":23547:23559   */\n      revert\n        /* \"#utility.yul\":23490:23561   */\n    tag_567:\n        /* \"#utility.yul\":23429:23567   */\n      pop\n      jump\t// out\n        /* \"#utility.yul\":23573:23695   */\n    tag_318:\n        /* \"#utility.yul\":23646:23670   */\n      tag_569\n        /* \"#utility.yul\":23664:23669   */\n      dup2\n        /* \"#utility.yul\":23646:23670   */\n      tag_443\n      jump\t// in\n    tag_569:\n        /* \"#utility.yul\":23639:23644   */\n      dup2\n        /* \"#utility.yul\":23636:23671   */\n      eq\n        /* \"#utility.yul\":23626:23689   */\n      tag_570\n      jumpi\n        /* \"#utility.yul\":23685:23686   */\n      0x00\n        /* \"#utility.yul\":23682:23683   */\n      dup1\n        /* \"#utility.yul\":23675:23687   */\n      revert\n        /* \"#utility.yul\":23626:23689   */\n    tag_570:\n        /* \"#utility.yul\":23573:23695   */\n      pop\n      jump\t// out\n\n    auxdata: 0xa26469706673582212208760d421b390b2e9346f723cd03ac07b567130cb8e136e626f66a6d337ba61ec64736f6c63430008070033\n}\n",
				"bytecode": {
					"linkReferences": {},
					"object": "60806040526040518060400160405280600681526020017f5a494c4c4158000000000000000000000000000000000000000000000000000081525060009080519060200190620000519291906200028c565b506040518060400160405280600381526020017f5a4c5a0000000000000000000000000000000000000000000000000000000000815250600190805190602001906200009f9291906200028c565b50600060025566038d7ea4c68000600855674563918244f40000600a5542600b5567016345785d8a0000600d55670de0b6b3a7640000600e55348015620000e557600080fd5b5060405162002c7038038062002c7083398181016040528101906200010b91906200036a565b620f424060048190555033600360006101000a81548173ffffffffffffffffffffffffffffffffffffffff021916908373ffffffffffffffffffffffffffffffffffffffff16021790555060045460056000600360009054906101000a900473ffffffffffffffffffffffffffffffffffffffff1673ffffffffffffffffffffffffffffffffffffffff1673ffffffffffffffffffffffffffffffffffffffff168152602001908152602001600020819055506000600f60006101000a81548160ff02191690836004811115620001e757620001e6620004b1565b5b021790555033600760006101000a81548173ffffffffffffffffffffffffffffffffffffffff021916908373ffffffffffffffffffffffffffffffffffffffff16021790555081600b546200023d9190620003b1565b600c8190555080600f60016101000a81548173ffffffffffffffffffffffffffffffffffffffff021916908373ffffffffffffffffffffffffffffffffffffffff160217905550505062000548565b8280546200029a906200044c565b90600052602060002090601f016020900481019282620002be57600085556200030a565b82601f10620002d957805160ff19168380011785556200030a565b828001600101855582156200030a579182015b8281111562000309578251825591602001919060010190620002ec565b5b5090506200031991906200031d565b5090565b5b80821115620003385760008160009055506001016200031e565b5090565b6000815190506200034d8162000514565b92915050565b60008151905062000364816200052e565b92915050565b600080604083850312156200038457620003836200050f565b5b6000620003948582860162000353565b9250506020620003a7858286016200033c565b9150509250929050565b6000620003be8262000442565b9150620003cb8362000442565b9250827fffffffffffffffffffffffffffffffffffffffffffffffffffffffffffffffff0382111562000403576200040262000482565b5b828201905092915050565b60006200041b8262000422565b9050919050565b600073ffffffffffffffffffffffffffffffffffffffff82169050919050565b6000819050919050565b600060028204905060018216806200046557607f821691505b602082108114156200047c576200047b620004e0565b5b50919050565b7f4e487b7100000000000000000000000000000000000000000000000000000000600052601160045260246000fd5b7f4e487b7100000000000000000000000000000000000000000000000000000000600052602160045260246000fd5b7f4e487b7100000000000000000000000000000000000000000000000000000000600052602260045260246000fd5b600080fd5b6200051f816200040e565b81146200052b57600080fd5b50565b620005398162000442565b81146200054557600080fd5b50565b61271880620005586000396000f3fe6080604052600436106101c25760003560e01c80635ed7ca5b116100f7578063a9bcea6111610095578063dd62ed3e11610064578063dd62ed3e14610624578063e8b5e51f14610661578063f851a4401461067f578063fb86a404146106aa576101c2565b8063a9bcea611461057a578063bb0c8298146105a5578063c59ee1dc146105d0578063cf942c79146105fb576101c2565b806377eab3e3116100d157806377eab3e3146104be57806378e97925146104e757806395d89b4114610512578063a9059cbb1461053d576101c2565b80635ed7ca5b146104415780636d58c88f1461045857806370a0823114610481576101c2565b806328f833b7116101645780633197cbb61161013e5780633197cbb61461038357806344f38756146103ae5780634d853ee5146103d95780635c65816514610404576101c2565b806328f833b7146103025780632942b61a1461032d578063313ce56714610358576101c2565b8063095ea7b3116101a0578063095ea7b31461022057806318160ddd1461025d57806323b872dd1461028857806327e235e3146102c5576101c2565b8063046f7da2146101c757806306fdde03146101de57806308003f7814610209575b600080fd5b3480156101d357600080fd5b506101dc6106d5565b005b3480156101ea57600080fd5b506101f3610792565b6040516102009190611fa0565b60405180910390f35b34801561021557600080fd5b5061021e610820565b005b34801561022c57600080fd5b5061024760048036038101906102429190611bb0565b6109d4565b6040516102549190611f6a565b60405180910390f35b34801561026957600080fd5b50610272610b8b565b60405161027f9190612102565b60405180910390f35b34801561029457600080fd5b506102af60048036038101906102aa9190611b5d565b610b91565b6040516102bc9190611f6a565b60405180910390f35b3480156102d157600080fd5b506102ec60048036038101906102e79190611ac3565b610ec6565b6040516102f99190612102565b60405180910390f35b34801561030e57600080fd5b50610317610ede565b6040516103249190611f18565b60405180910390f35b34801561033957600080fd5b50610342610f04565b60405161034f9190611f85565b60405180910390f35b34801561036457600080fd5b5061036d610f8d565b60405161037a9190612102565b60405180910390f35b34801561038f57600080fd5b50610398610f93565b6040516103a59190612102565b60405180910390f35b3480156103ba57600080fd5b506103c3610f99565b6040516103d09190611f85565b60405180910390f35b3480156103e557600080fd5b506103ee610fac565b6040516103fb9190611efd565b60405180910390f35b34801561041057600080fd5b5061042b60048036038101906104269190611b1d565b610fd2565b6040516104389190612102565b60405180910390f35b34801561044d57600080fd5b50610456610ff7565b005b34801561046457600080fd5b5061047f600480360381019061047a9190611af0565b6110b4565b005b34801561048d57600080fd5b506104a860048036038101906104a39190611ac3565b611188565b6040516104b59190612102565b60405180910390f35b3480156104ca57600080fd5b506104e560048036038101906104e09190611bf0565b6111d1565b005b3480156104f357600080fd5b506104fc61126b565b6040516105099190612102565b60405180910390f35b34801561051e57600080fd5b50610527611271565b6040516105349190611fa0565b60405180910390f35b34801561054957600080fd5b50610564600480360381019061055f9190611bb0565b6112ff565b6040516105719190611f6a565b60405180910390f35b34801561058657600080fd5b5061058f61135a565b60405161059c9190612102565b60405180910390f35b3480156105b157600080fd5b506105ba611360565b6040516105c79190612102565b60405180910390f35b3480156105dc57600080fd5b506105e5611366565b6040516105f29190612102565b60405180910390f35b34801561060757600080fd5b50610622600480360381019061061d9190611bf0565b61136c565b005b34801561063057600080fd5b5061064b60048036038101906106469190611b1d565b611406565b6040516106589190612102565b60405180910390f35b61066961148d565b6040516106769190611f6a565b60405180910390f35b34801561068b57600080fd5b506106946118b9565b6040516106a19190611efd565b60405180910390f35b3480156106b657600080fd5b506106bf6118df565b6040516106cc9190612102565b60405180910390f35b600760009054906101000a900473ffffffffffffffffffffffffffffffffffffffff1673ffffffffffffffffffffffffffffffffffffffff163373ffffffffffffffffffffffffffffffffffffffff1614610765576040517f08c379a000000000000000000000000000000000000000000000000000000000815260040161075c90612042565b60405180910390fd5b6001600f60006101000a81548160ff0219169083600481111561078b5761078a612345565b5b0217905550565b6000805461079f906122da565b80601f01602080910402602001604051908101604052809291908181526020018280546107cb906122da565b80156108185780601f106107ed57610100808354040283529160200191610818565b820191906000526020600020905b8154815290600101906020018083116107fb57829003601f168201915b505050505081565b610828610f04565b600f60006101000a81548160ff0219169083600481111561084c5761084b612345565b5b02179055506003600481111561086557610864612345565b5b600f60009054906101000a900460ff16600481111561088757610886612345565b5b146108c7576040517f08c379a00000000000000000000000000000000000000000000000000000000081526004016108be90611fe2565b60405180910390fd5b600060056000600360009054906101000a900473ffffffffffffffffffffffffffffffffffffffff1673ffffffffffffffffffffffffffffffffffffffff1673ffffffffffffffffffffffffffffffffffffffff168152602001908152602001600020541161096b576040517f08c379a000000000000000000000000000000000000000000000000000000000815260040161096290612082565b60405180910390fd5b600060056000600360009054906101000a900473ffffffffffffffffffffffffffffffffffffffff1673ffffffffffffffffffffffffffffffffffffffff1673ffffffffffffffffffffffffffffffffffffffff16815260200190815260200160002081905550565b600081600560003373ffffffffffffffffffffffffffffffffffffffff1673ffffffffffffffffffffffffffffffffffffffff168152602001908152602001600020541015610a58576040517f08c379a0000000000000000000000000000000000000000000000000000000008152600401610a4f90612062565b60405180910390fd5b60008211610a9b576040517f08c379a0000000000000000000000000000000000000000000000000000000008152600401610a9290612002565b60405180910390fd5b81600660003373ffffffffffffffffffffffffffffffffffffffff1673ffffffffffffffffffffffffffffffffffffffff16815260200190815260200160002060008573ffffffffffffffffffffffffffffffffffffffff1673ffffffffffffffffffffffffffffffffffffffff168152602001908152602001600020819055508273ffffffffffffffffffffffffffffffffffffffff163373ffffffffffffffffffffffffffffffffffffffff167f8c5be1e5ebec7d5bd14f71427d1e84f3dd0314c0f7b2291e5b200ac8c7c3b92584604051610b799190612102565b60405180910390a36001905092915050565b60045481565b600081600660008673ffffffffffffffffffffffffffffffffffffffff1673ffffffffffffffffffffffffffffffffffffffff16815260200190815260200160002060003373ffffffffffffffffffffffffffffffffffffffff1673ffffffffffffffffffffffffffffffffffffffff168152602001908152602001600020541015610c52576040517f08c379a0000000000000000000000000000000000000000000000000000000008152600401610c4990611fc2565b60405180910390fd5b81600560008673ffffffffffffffffffffffffffffffffffffffff1673ffffffffffffffffffffffffffffffffffffffff168152602001908152602001600020541015610cd4576040517f08c379a0000000000000000000000000000000000000000000000000000000008152600401610ccb906120e2565b60405180910390fd5b60008211610d17576040517f08c379a0000000000000000000000000000000000000000000000000000000008152600401610d0e90612002565b60405180910390fd5b81600660008673ffffffffffffffffffffffffffffffffffffffff1673ffffffffffffffffffffffffffffffffffffffff16815260200190815260200160002060003373ffffffffffffffffffffffffffffffffffffffff1673ffffffffffffffffffffffffffffffffffffffff1681526020019081526020016000206000828254610da391906121f4565b9250508190555081600560008673ffffffffffffffffffffffffffffffffffffffff1673ffffffffffffffffffffffffffffffffffffffff1681526020019081526020016000206000828254610df991906121f4565b9250508190555081600560008573ffffffffffffffffffffffffffffffffffffffff1673ffffffffffffffffffffffffffffffffffffffff1681526020019081526020016000206000828254610e4f9190612144565b925050819055508273ffffffffffffffffffffffffffffffffffffffff168473ffffffffffffffffffffffffffffffffffffffff167fddf252ad1be2c89b69c2b068fc378daa952ba7f163c4a11628f55a4df523b3ef84604051610eb39190612102565b60405180910390a3600190509392505050565b60056020528060005260406000206000915090505481565b600f60019054906101000a900473ffffffffffffffffffffffffffffffffffffffff1681565b600080600480811115610f1a57610f19612345565b5b600f60009054906101000a900460ff166004811115610f3c57610f3b612345565b5b1415610f4b5760049050610f86565b600b54421015610f5e5760009050610f85565b600b544210158015610f715750600c5442105b15610f7f5760019050610f84565b600390505b5b5b8091505090565b60025481565b600c5481565b600f60009054906101000a900460ff1681565b600360009054906101000a900473ffffffffffffffffffffffffffffffffffffffff1681565b6006602052816000526040600020602052806000526040600020600091509150505481565b600760009054906101000a900473ffffffffffffffffffffffffffffffffffffffff1673ffffffffffffffffffffffffffffffffffffffff163373ffffffffffffffffffffffffffffffffffffffff1614611087576040517f08c379a000000000000000000000000000000000000000000000000000000000815260040161107e90612042565b60405180910390fd5b6004600f60006101000a81548160ff021916908360048111156110ad576110ac612345565b5b0217905550565b600760009054906101000a900473ffffffffffffffffffffffffffffffffffffffff1673ffffffffffffffffffffffffffffffffffffffff163373ffffffffffffffffffffffffffffffffffffffff1614611144576040517f08c379a000000000000000000000000000000000000000000000000000000000815260040161113b90612042565b60405180910390fd5b80600f60016101000a81548173ffffffffffffffffffffffffffffffffffffffff021916908373ffffffffffffffffffffffffffffffffffffffff16021790555050565b6000600560008373ffffffffffffffffffffffffffffffffffffffff1673ffffffffffffffffffffffffffffffffffffffff168152602001908152602001600020549050919050565b600760009054906101000a900473ffffffffffffffffffffffffffffffffffffffff1673ffffffffffffffffffffffffffffffffffffffff163373ffffffffffffffffffffffffffffffffffffffff1614611261576040517f08c379a000000000000000000000000000000000000000000000000000000000815260040161125890612042565b60405180910390fd5b80600e8190555050565b600b5481565b6001805461127e906122da565b80601f01602080910402602001604051908101604052809291908181526020018280546112aa906122da565b80156112f75780601f106112cc576101008083540402835291602001916112f7565b820191906000526020600020905b8154815290600101906020018083116112da57829003601f168201915b505050505081565b6000600c544211611345576040517f08c379a000000000000000000000000000000000000000000000000000000000815260040161133c90611fe2565b60405180910390fd5b61134f83836118e5565b506001905092915050565b600e5481565b600d5481565b60095481565b600760009054906101000a900473ffffffffffffffffffffffffffffffffffffffff1673ffffffffffffffffffffffffffffffffffffffff163373ffffffffffffffffffffffffffffffffffffffff16146113fc576040517f08c379a00000000000000000000000000000000000000000000000000000000081526004016113f390612042565b60405180910390fd5b80600d8190555050565b6000600660008473ffffffffffffffffffffffffffffffffffffffff1673ffffffffffffffffffffffffffffffffffffffff16815260200190815260200160002060008373ffffffffffffffffffffffffffffffffffffffff1673ffffffffffffffffffffffffffffffffffffffff16815260200190815260200160002054905092915050565b6000600760009054906101000a900473ffffffffffffffffffffffffffffffffffffffff1673ffffffffffffffffffffffffffffffffffffffff163373ffffffffffffffffffffffffffffffffffffffff161461151f576040517f08c379a000000000000000000000000000000000000000000000000000000000815260040161151690612042565b60405180910390fd5b611527610f04565b600f60006101000a81548160ff0219169083600481111561154b5761154a612345565b5b02179055506001600481111561156457611563612345565b5b600f60009054906101000a900460ff16600481111561158657611585612345565b5b146115c6576040517f08c379a00000000000000000000000000000000000000000000000000000000081526004016115bd90612022565b60405180910390fd5b60003411611609576040517f08c379a000000000000000000000000000000000000000000000000000000000815260040161160090612022565b60405180910390fd5b6000600d5460405160200161161e9190611eb1565b60405160208183030381529060405290506000600e546040516020016116449190611ed7565b60405160208183030381529060405290506000828260405160200161166a929190611e8d565b6040516020818303038152906040529050600d54341015801561168f5750600e543411155b81906116d1576040517f08c379a00000000000000000000000000000000000000000000000000000000081526004016116c89190611fa0565b60405180910390fd5b506000346009546116e29190612144565b9050600a54811115611729576040517f08c379a0000000000000000000000000000000000000000000000000000000008152600401611720906120a2565b60405180910390fd5b600060085434611739919061219a565b905080600560003373ffffffffffffffffffffffffffffffffffffffff1673ffffffffffffffffffffffffffffffffffffffff168152602001908152602001600020600082825461178a9190612144565b925050819055508060056000600360009054906101000a900473ffffffffffffffffffffffffffffffffffffffff1673ffffffffffffffffffffffffffffffffffffffff1673ffffffffffffffffffffffffffffffffffffffff168152602001908152602001600020600082825461180291906121f4565b92505081905550600f60019054906101000a900473ffffffffffffffffffffffffffffffffffffffff1673ffffffffffffffffffffffffffffffffffffffff166108fc349081150290604051600060405180830381858888f19350505050158015611871573d6000803e3d6000fd5b507f4ae4bd7655e0d350876a23cd90c4227b13db560e34435c6a488150a9c844bf5f3334836040516118a593929190611f33565b60405180910390a160019550505050505090565b600760009054906101000a900473ffffffffffffffffffffffffffffffffffffffff1681565b600a5481565b600081600560003373ffffffffffffffffffffffffffffffffffffffff1673ffffffffffffffffffffffffffffffffffffffff168152602001908152602001600020541015611969576040517f08c379a0000000000000000000000000000000000000000000000000000000008152600401611960906120c2565b60405180910390fd5b81600560008573ffffffffffffffffffffffffffffffffffffffff1673ffffffffffffffffffffffffffffffffffffffff16815260200190815260200160002060008282546119b89190612144565b9250508190555081600560003373ffffffffffffffffffffffffffffffffffffffff1673ffffffffffffffffffffffffffffffffffffffff1681526020019081526020016000206000828254611a0e91906121f4565b925050819055508273ffffffffffffffffffffffffffffffffffffffff163373ffffffffffffffffffffffffffffffffffffffff167fddf252ad1be2c89b69c2b068fc378daa952ba7f163c4a11628f55a4df523b3ef84604051611a729190612102565b60405180910390a36001905092915050565b600081359050611a938161269d565b92915050565b600081359050611aa8816126b4565b92915050565b600081359050611abd816126cb565b92915050565b600060208284031215611ad957611ad86123a3565b5b6000611ae784828501611a84565b91505092915050565b600060208284031215611b0657611b056123a3565b5b6000611b1484828501611a99565b91505092915050565b60008060408385031215611b3457611b336123a3565b5b6000611b4285828601611a84565b9250506020611b5385828601611a84565b9150509250929050565b600080600060608486031215611b7657611b756123a3565b5b6000611b8486828701611a84565b9350506020611b9586828701611a84565b9250506040611ba686828701611aae565b9150509250925092565b60008060408385031215611bc757611bc66123a3565b5b6000611bd585828601611a84565b9250506020611be685828601611aae565b9150509250929050565b600060208284031215611c0657611c056123a3565b5b6000611c1484828501611aae565b91505092915050565b611c268161223a565b82525050565b611c3581612228565b82525050565b611c448161224c565b82525050565b611c5381612295565b82525050565b6000611c648261211d565b611c6e8185612128565b9350611c7e8185602086016122a7565b611c87816123a8565b840191505092915050565b6000611c9d8261211d565b611ca78185612139565b9350611cb78185602086016122a7565b80840191505092915050565b6000611cd0603083612128565b9150611cdb826123b9565b604082019050919050565b6000611cf3601f83612128565b9150611cfe82612408565b602082019050919050565b6000611d16602283612128565b9150611d2182612431565b604082019050919050565b6000611d39602083612128565b9150611d4482612480565b602082019050919050565b6000611d5c601f83612139565b9150611d67826124a9565b601f82019050919050565b6000611d7f602283612128565b9150611d8a826124d2565b604082019050919050565b6000611da2603083612128565b9150611dad82612521565b604082019050919050565b6000611dc5601e83612128565b9150611dd082612570565b602082019050919050565b6000611de8603083612128565b9150611df382612599565b604082019050919050565b6000611e0b602183612139565b9150611e16826125e8565b602182019050919050565b6000611e2e601c83612128565b9150611e3982612637565b602082019050919050565b6000611e51601283612128565b9150611e5c82612660565b602082019050919050565b611e708161228b565b82525050565b611e87611e828261228b565b61230c565b82525050565b6000611e998285611c92565b9150611ea58284611c92565b91508190509392505050565b6000611ebc82611d4f565b9150611ec88284611e76565b60208201915081905092915050565b6000611ee282611dfe565b9150611eee8284611e76565b60208201915081905092915050565b6000602082019050611f126000830184611c2c565b92915050565b6000602082019050611f2d6000830184611c1d565b92915050565b6000606082019050611f486000830186611c2c565b611f556020830185611e67565b611f626040830184611e67565b949350505050565b6000602082019050611f7f6000830184611c3b565b92915050565b6000602082019050611f9a6000830184611c4a565b92915050565b60006020820190508181036000830152611fba8184611c59565b905092915050565b60006020820190508181036000830152611fdb81611cc3565b9050919050565b60006020820190508181036000830152611ffb81611ce6565b9050919050565b6000602082019050818103600083015261201b81611d09565b9050919050565b6000602082019050818103600083015261203b81611d2c565b9050919050565b6000602082019050818103600083015261205b81611d72565b9050919050565b6000602082019050818103600083015261207b81611d95565b9050919050565b6000602082019050818103600083015261209b81611db8565b9050919050565b600060208201905081810360008301526120bb81611ddb565b9050919050565b600060208201905081810360008301526120db81611e21565b9050919050565b600060208201905081810360008301526120fb81611e44565b9050919050565b60006020820190506121176000830184611e67565b92915050565b600081519050919050565b600082825260208201905092915050565b600081905092915050565b600061214f8261228b565b915061215a8361228b565b9250827fffffffffffffffffffffffffffffffffffffffffffffffffffffffffffffffff0382111561218f5761218e612316565b5b828201905092915050565b60006121a58261228b565b91506121b08361228b565b9250817fffffffffffffffffffffffffffffffffffffffffffffffffffffffffffffffff04831182151516156121e9576121e8612316565b5b828202905092915050565b60006121ff8261228b565b915061220a8361228b565b92508282101561221d5761221c612316565b5b828203905092915050565b60006122338261226b565b9050919050565b60006122458261226b565b9050919050565b60008115159050919050565b600081905061226682612689565b919050565b600073ffffffffffffffffffffffffffffffffffffffff82169050919050565b6000819050919050565b60006122a082612258565b9050919050565b60005b838110156122c55780820151818401526020810190506122aa565b838111156122d4576000848401525b50505050565b600060028204905060018216806122f257607f821691505b6020821081141561230657612305612374565b5b50919050565b6000819050919050565b7f4e487b7100000000000000000000000000000000000000000000000000000000600052601160045260246000fd5b7f4e487b7100000000000000000000000000000000000000000000000000000000600052602160045260246000fd5b7f4e487b7100000000000000000000000000000000000000000000000000000000600052602260045260246000fd5b600080fd5b6000601f19601f8301169050919050565b7f546f6b656e2076616c75652069732067726561746572207468616e207468652060008201527f617070726f7665642062616c616e636500000000000000000000000000000000602082015250565b7f546f6b656e2073616c6573206973206e6f74207965742066696e697368656400600082015250565b7f546f6b656e2076616c7565206d7573742062652067726561746572207468616e60008201527f2030000000000000000000000000000000000000000000000000000000000000602082015250565b7f416d6f756e74206d7573742062652067726561746572207468616e207a65726f600082015250565b7f416d6f756e742063616e6e6f74206e6f74206265206c6f776572207468616e00600082015250565b7f4163636573732064656e6965642c20796f75206165206e6f7420616e2061646d60008201527f696e000000000000000000000000000000000000000000000000000000000000602082015250565b7f546f6b656e2076616c75652069732067726561746572207468616e20796f757260008201527f2063757272656e7420686f6c64696e6700000000000000000000000000000000602082015250565b7f4e6f20746f6b656e20617661696c61626c6520666f72206275726e696e670000600082015250565b7f546865206d6178696d756d20616d6f756e7420746f206265207261697365642060008201527f686173206265656e207265616368656400000000000000000000000000000000602082015250565b7f416d6f756e742063616e6e6f74206e6f7420626520686967676865722074686160008201527f6e00000000000000000000000000000000000000000000000000000000000000602082015250565b7f496e73756666696369656e74204163636f756e742042616c616e636500000000600082015250565b7f496e737566696369656e742042616c6e63650000000000000000000000000000600082015250565b6005811061269a57612699612345565b5b50565b6126a681612228565b81146126b157600080fd5b50565b6126bd8161223a565b81146126c857600080fd5b50565b6126d48161228b565b81146126df57600080fd5b5056fea26469706673582212208760d421b390b2e9346f723cd03ac07b567130cb8e136e626f66a6d337ba61ec64736f6c63430008070033",
					"opcodes": "PUSH1 0x80 PUSH1 0x40 MSTORE PUSH1 0x40 MLOAD DUP1 PUSH1 0x40 ADD PUSH1 0x40 MSTORE DUP1 PUSH1 0x6 DUP2 MSTORE PUSH1 0x20 ADD PUSH32 0x5A494C4C41580000000000000000000000000000000000000000000000000000 DUP2 MSTORE POP PUSH1 0x0 SWAP1 DUP1 MLOAD SWAP1 PUSH1 0x20 ADD SWAP1 PUSH3 0x51 SWAP3 SWAP2 SWAP1 PUSH3 0x28C JUMP JUMPDEST POP PUSH1 0x40 MLOAD DUP1 PUSH1 0x40 ADD PUSH1 0x40 MSTORE DUP1 PUSH1 0x3 DUP2 MSTORE PUSH1 0x20 ADD PUSH32 0x5A4C5A0000000000000000000000000000000000000000000000000000000000 DUP2 MSTORE POP PUSH1 0x1 SWAP1 DUP1 MLOAD SWAP1 PUSH1 0x20 ADD SWAP1 PUSH3 0x9F SWAP3 SWAP2 SWAP1 PUSH3 0x28C JUMP JUMPDEST POP PUSH1 0x0 PUSH1 0x2 SSTORE PUSH7 0x38D7EA4C68000 PUSH1 0x8 SSTORE PUSH8 0x4563918244F40000 PUSH1 0xA SSTORE TIMESTAMP PUSH1 0xB SSTORE PUSH8 0x16345785D8A0000 PUSH1 0xD SSTORE PUSH8 0xDE0B6B3A7640000 PUSH1 0xE SSTORE CALLVALUE DUP1 ISZERO PUSH3 0xE5 JUMPI PUSH1 0x0 DUP1 REVERT JUMPDEST POP PUSH1 0x40 MLOAD PUSH3 0x2C70 CODESIZE SUB DUP1 PUSH3 0x2C70 DUP4 CODECOPY DUP2 DUP2 ADD PUSH1 0x40 MSTORE DUP2 ADD SWAP1 PUSH3 0x10B SWAP2 SWAP1 PUSH3 0x36A JUMP JUMPDEST PUSH3 0xF4240 PUSH1 0x4 DUP2 SWAP1 SSTORE POP CALLER PUSH1 0x3 PUSH1 0x0 PUSH2 0x100 EXP DUP2 SLOAD DUP2 PUSH20 0xFFFFFFFFFFFFFFFFFFFFFFFFFFFFFFFFFFFFFFFF MUL NOT AND SWAP1 DUP4 PUSH20 0xFFFFFFFFFFFFFFFFFFFFFFFFFFFFFFFFFFFFFFFF AND MUL OR SWAP1 SSTORE POP PUSH1 0x4 SLOAD PUSH1 0x5 PUSH1 0x0 PUSH1 0x3 PUSH1 0x0 SWAP1 SLOAD SWAP1 PUSH2 0x100 EXP SWAP1 DIV PUSH20 0xFFFFFFFFFFFFFFFFFFFFFFFFFFFFFFFFFFFFFFFF AND PUSH20 0xFFFFFFFFFFFFFFFFFFFFFFFFFFFFFFFFFFFFFFFF AND PUSH20 0xFFFFFFFFFFFFFFFFFFFFFFFFFFFFFFFFFFFFFFFF AND DUP2 MSTORE PUSH1 0x20 ADD SWAP1 DUP2 MSTORE PUSH1 0x20 ADD PUSH1 0x0 KECCAK256 DUP2 SWAP1 SSTORE POP PUSH1 0x0 PUSH1 0xF PUSH1 0x0 PUSH2 0x100 EXP DUP2 SLOAD DUP2 PUSH1 0xFF MUL NOT AND SWAP1 DUP4 PUSH1 0x4 DUP2 GT ISZERO PUSH3 0x1E7 JUMPI PUSH3 0x1E6 PUSH3 0x4B1 JUMP JUMPDEST JUMPDEST MUL OR SWAP1 SSTORE POP CALLER PUSH1 0x7 PUSH1 0x0 PUSH2 0x100 EXP DUP2 SLOAD DUP2 PUSH20 0xFFFFFFFFFFFFFFFFFFFFFFFFFFFFFFFFFFFFFFFF MUL NOT AND SWAP1 DUP4 PUSH20 0xFFFFFFFFFFFFFFFFFFFFFFFFFFFFFFFFFFFFFFFF AND MUL OR SWAP1 SSTORE POP DUP2 PUSH1 0xB SLOAD PUSH3 0x23D SWAP2 SWAP1 PUSH3 0x3B1 JUMP JUMPDEST PUSH1 0xC DUP2 SWAP1 SSTORE POP DUP1 PUSH1 0xF PUSH1 0x1 PUSH2 0x100 EXP DUP2 SLOAD DUP2 PUSH20 0xFFFFFFFFFFFFFFFFFFFFFFFFFFFFFFFFFFFFFFFF MUL NOT AND SWAP1 DUP4 PUSH20 0xFFFFFFFFFFFFFFFFFFFFFFFFFFFFFFFFFFFFFFFF AND MUL OR SWAP1 SSTORE POP POP POP PUSH3 0x548 JUMP JUMPDEST DUP3 DUP1 SLOAD PUSH3 0x29A SWAP1 PUSH3 0x44C JUMP JUMPDEST SWAP1 PUSH1 0x0 MSTORE PUSH1 0x20 PUSH1 0x0 KECCAK256 SWAP1 PUSH1 0x1F ADD PUSH1 0x20 SWAP1 DIV DUP2 ADD SWAP3 DUP3 PUSH3 0x2BE JUMPI PUSH1 0x0 DUP6 SSTORE PUSH3 0x30A JUMP JUMPDEST DUP3 PUSH1 0x1F LT PUSH3 0x2D9 JUMPI DUP1 MLOAD PUSH1 0xFF NOT AND DUP4 DUP1 ADD OR DUP6 SSTORE PUSH3 0x30A JUMP JUMPDEST DUP3 DUP1 ADD PUSH1 0x1 ADD DUP6 SSTORE DUP3 ISZERO PUSH3 0x30A JUMPI SWAP2 DUP3 ADD JUMPDEST DUP3 DUP2 GT ISZERO PUSH3 0x309 JUMPI DUP3 MLOAD DUP3 SSTORE SWAP2 PUSH1 0x20 ADD SWAP2 SWAP1 PUSH1 0x1 ADD SWAP1 PUSH3 0x2EC JUMP JUMPDEST JUMPDEST POP SWAP1 POP PUSH3 0x319 SWAP2 SWAP1 PUSH3 0x31D JUMP JUMPDEST POP SWAP1 JUMP JUMPDEST JUMPDEST DUP1 DUP3 GT ISZERO PUSH3 0x338 JUMPI PUSH1 0x0 DUP2 PUSH1 0x0 SWAP1 SSTORE POP PUSH1 0x1 ADD PUSH3 0x31E JUMP JUMPDEST POP SWAP1 JUMP JUMPDEST PUSH1 0x0 DUP2 MLOAD SWAP1 POP PUSH3 0x34D DUP2 PUSH3 0x514 JUMP JUMPDEST SWAP3 SWAP2 POP POP JUMP JUMPDEST PUSH1 0x0 DUP2 MLOAD SWAP1 POP PUSH3 0x364 DUP2 PUSH3 0x52E JUMP JUMPDEST SWAP3 SWAP2 POP POP JUMP JUMPDEST PUSH1 0x0 DUP1 PUSH1 0x40 DUP4 DUP6 SUB SLT ISZERO PUSH3 0x384 JUMPI PUSH3 0x383 PUSH3 0x50F JUMP JUMPDEST JUMPDEST PUSH1 0x0 PUSH3 0x394 DUP6 DUP3 DUP7 ADD PUSH3 0x353 JUMP JUMPDEST SWAP3 POP POP PUSH1 0x20 PUSH3 0x3A7 DUP6 DUP3 DUP7 ADD PUSH3 0x33C JUMP JUMPDEST SWAP2 POP POP SWAP3 POP SWAP3 SWAP1 POP JUMP JUMPDEST PUSH1 0x0 PUSH3 0x3BE DUP3 PUSH3 0x442 JUMP JUMPDEST SWAP2 POP PUSH3 0x3CB DUP4 PUSH3 0x442 JUMP JUMPDEST SWAP3 POP DUP3 PUSH32 0xFFFFFFFFFFFFFFFFFFFFFFFFFFFFFFFFFFFFFFFFFFFFFFFFFFFFFFFFFFFFFFFF SUB DUP3 GT ISZERO PUSH3 0x403 JUMPI PUSH3 0x402 PUSH3 0x482 JUMP JUMPDEST JUMPDEST DUP3 DUP3 ADD SWAP1 POP SWAP3 SWAP2 POP POP JUMP JUMPDEST PUSH1 0x0 PUSH3 0x41B DUP3 PUSH3 0x422 JUMP JUMPDEST SWAP1 POP SWAP2 SWAP1 POP JUMP JUMPDEST PUSH1 0x0 PUSH20 0xFFFFFFFFFFFFFFFFFFFFFFFFFFFFFFFFFFFFFFFF DUP3 AND SWAP1 POP SWAP2 SWAP1 POP JUMP JUMPDEST PUSH1 0x0 DUP2 SWAP1 POP SWAP2 SWAP1 POP JUMP JUMPDEST PUSH1 0x0 PUSH1 0x2 DUP3 DIV SWAP1 POP PUSH1 0x1 DUP3 AND DUP1 PUSH3 0x465 JUMPI PUSH1 0x7F DUP3 AND SWAP2 POP JUMPDEST PUSH1 0x20 DUP3 LT DUP2 EQ ISZERO PUSH3 0x47C JUMPI PUSH3 0x47B PUSH3 0x4E0 JUMP JUMPDEST JUMPDEST POP SWAP2 SWAP1 POP JUMP JUMPDEST PUSH32 0x4E487B7100000000000000000000000000000000000000000000000000000000 PUSH1 0x0 MSTORE PUSH1 0x11 PUSH1 0x4 MSTORE PUSH1 0x24 PUSH1 0x0 REVERT JUMPDEST PUSH32 0x4E487B7100000000000000000000000000000000000000000000000000000000 PUSH1 0x0 MSTORE PUSH1 0x21 PUSH1 0x4 MSTORE PUSH1 0x24 PUSH1 0x0 REVERT JUMPDEST PUSH32 0x4E487B7100000000000000000000000000000000000000000000000000000000 PUSH1 0x0 MSTORE PUSH1 0x22 PUSH1 0x4 MSTORE PUSH1 0x24 PUSH1 0x0 REVERT JUMPDEST PUSH1 0x0 DUP1 REVERT JUMPDEST PUSH3 0x51F DUP2 PUSH3 0x40E JUMP JUMPDEST DUP2 EQ PUSH3 0x52B JUMPI PUSH1 0x0 DUP1 REVERT JUMPDEST POP JUMP JUMPDEST PUSH3 0x539 DUP2 PUSH3 0x442 JUMP JUMPDEST DUP2 EQ PUSH3 0x545 JUMPI PUSH1 0x0 DUP1 REVERT JUMPDEST POP JUMP JUMPDEST PUSH2 0x2718 DUP1 PUSH3 0x558 PUSH1 0x0 CODECOPY PUSH1 0x0 RETURN INVALID PUSH1 0x80 PUSH1 0x40 MSTORE PUSH1 0x4 CALLDATASIZE LT PUSH2 0x1C2 JUMPI PUSH1 0x0 CALLDATALOAD PUSH1 0xE0 SHR DUP1 PUSH4 0x5ED7CA5B GT PUSH2 0xF7 JUMPI DUP1 PUSH4 0xA9BCEA61 GT PUSH2 0x95 JUMPI DUP1 PUSH4 0xDD62ED3E GT PUSH2 0x64 JUMPI DUP1 PUSH4 0xDD62ED3E EQ PUSH2 0x624 JUMPI DUP1 PUSH4 0xE8B5E51F EQ PUSH2 0x661 JUMPI DUP1 PUSH4 0xF851A440 EQ PUSH2 0x67F JUMPI DUP1 PUSH4 0xFB86A404 EQ PUSH2 0x6AA JUMPI PUSH2 0x1C2 JUMP JUMPDEST DUP1 PUSH4 0xA9BCEA61 EQ PUSH2 0x57A JUMPI DUP1 PUSH4 0xBB0C8298 EQ PUSH2 0x5A5 JUMPI DUP1 PUSH4 0xC59EE1DC EQ PUSH2 0x5D0 JUMPI DUP1 PUSH4 0xCF942C79 EQ PUSH2 0x5FB JUMPI PUSH2 0x1C2 JUMP JUMPDEST DUP1 PUSH4 0x77EAB3E3 GT PUSH2 0xD1 JUMPI DUP1 PUSH4 0x77EAB3E3 EQ PUSH2 0x4BE JUMPI DUP1 PUSH4 0x78E97925 EQ PUSH2 0x4E7 JUMPI DUP1 PUSH4 0x95D89B41 EQ PUSH2 0x512 JUMPI DUP1 PUSH4 0xA9059CBB EQ PUSH2 0x53D JUMPI PUSH2 0x1C2 JUMP JUMPDEST DUP1 PUSH4 0x5ED7CA5B EQ PUSH2 0x441 JUMPI DUP1 PUSH4 0x6D58C88F EQ PUSH2 0x458 JUMPI DUP1 PUSH4 0x70A08231 EQ PUSH2 0x481 JUMPI PUSH2 0x1C2 JUMP JUMPDEST DUP1 PUSH4 0x28F833B7 GT PUSH2 0x164 JUMPI DUP1 PUSH4 0x3197CBB6 GT PUSH2 0x13E JUMPI DUP1 PUSH4 0x3197CBB6 EQ PUSH2 0x383 JUMPI DUP1 PUSH4 0x44F38756 EQ PUSH2 0x3AE JUMPI DUP1 PUSH4 0x4D853EE5 EQ PUSH2 0x3D9 JUMPI DUP1 PUSH4 0x5C658165 EQ PUSH2 0x404 JUMPI PUSH2 0x1C2 JUMP JUMPDEST DUP1 PUSH4 0x28F833B7 EQ PUSH2 0x302 JUMPI DUP1 PUSH4 0x2942B61A EQ PUSH2 0x32D JUMPI DUP1 PUSH4 0x313CE567 EQ PUSH2 0x358 JUMPI PUSH2 0x1C2 JUMP JUMPDEST DUP1 PUSH4 0x95EA7B3 GT PUSH2 0x1A0 JUMPI DUP1 PUSH4 0x95EA7B3 EQ PUSH2 0x220 JUMPI DUP1 PUSH4 0x18160DDD EQ PUSH2 0x25D JUMPI DUP1 PUSH4 0x23B872DD EQ PUSH2 0x288 JUMPI DUP1 PUSH4 0x27E235E3 EQ PUSH2 0x2C5 JUMPI PUSH2 0x1C2 JUMP JUMPDEST DUP1 PUSH4 0x46F7DA2 EQ PUSH2 0x1C7 JUMPI DUP1 PUSH4 0x6FDDE03 EQ PUSH2 0x1DE JUMPI DUP1 PUSH4 0x8003F78 EQ PUSH2 0x209 JUMPI JUMPDEST PUSH1 0x0 DUP1 REVERT JUMPDEST CALLVALUE DUP1 ISZERO PUSH2 0x1D3 JUMPI PUSH1 0x0 DUP1 REVERT JUMPDEST POP PUSH2 0x1DC PUSH2 0x6D5 JUMP JUMPDEST STOP JUMPDEST CALLVALUE DUP1 ISZERO PUSH2 0x1EA JUMPI PUSH1 0x0 DUP1 REVERT JUMPDEST POP PUSH2 0x1F3 PUSH2 0x792 JUMP JUMPDEST PUSH1 0x40 MLOAD PUSH2 0x200 SWAP2 SWAP1 PUSH2 0x1FA0 JUMP JUMPDEST PUSH1 0x40 MLOAD DUP1 SWAP2 SUB SWAP1 RETURN JUMPDEST CALLVALUE DUP1 ISZERO PUSH2 0x215 JUMPI PUSH1 0x0 DUP1 REVERT JUMPDEST POP PUSH2 0x21E PUSH2 0x820 JUMP JUMPDEST STOP JUMPDEST CALLVALUE DUP1 ISZERO PUSH2 0x22C JUMPI PUSH1 0x0 DUP1 REVERT JUMPDEST POP PUSH2 0x247 PUSH1 0x4 DUP1 CALLDATASIZE SUB DUP2 ADD SWAP1 PUSH2 0x242 SWAP2 SWAP1 PUSH2 0x1BB0 JUMP JUMPDEST PUSH2 0x9D4 JUMP JUMPDEST PUSH1 0x40 MLOAD PUSH2 0x254 SWAP2 SWAP1 PUSH2 0x1F6A JUMP JUMPDEST PUSH1 0x40 MLOAD DUP1 SWAP2 SUB SWAP1 RETURN JUMPDEST CALLVALUE DUP1 ISZERO PUSH2 0x269 JUMPI PUSH1 0x0 DUP1 REVERT JUMPDEST POP PUSH2 0x272 PUSH2 0xB8B JUMP JUMPDEST PUSH1 0x40 MLOAD PUSH2 0x27F SWAP2 SWAP1 PUSH2 0x2102 JUMP JUMPDEST PUSH1 0x40 MLOAD DUP1 SWAP2 SUB SWAP1 RETURN JUMPDEST CALLVALUE DUP1 ISZERO PUSH2 0x294 JUMPI PUSH1 0x0 DUP1 REVERT JUMPDEST POP PUSH2 0x2AF PUSH1 0x4 DUP1 CALLDATASIZE SUB DUP2 ADD SWAP1 PUSH2 0x2AA SWAP2 SWAP1 PUSH2 0x1B5D JUMP JUMPDEST PUSH2 0xB91 JUMP JUMPDEST PUSH1 0x40 MLOAD PUSH2 0x2BC SWAP2 SWAP1 PUSH2 0x1F6A JUMP JUMPDEST PUSH1 0x40 MLOAD DUP1 SWAP2 SUB SWAP1 RETURN JUMPDEST CALLVALUE DUP1 ISZERO PUSH2 0x2D1 JUMPI PUSH1 0x0 DUP1 REVERT JUMPDEST POP PUSH2 0x2EC PUSH1 0x4 DUP1 CALLDATASIZE SUB DUP2 ADD SWAP1 PUSH2 0x2E7 SWAP2 SWAP1 PUSH2 0x1AC3 JUMP JUMPDEST PUSH2 0xEC6 JUMP JUMPDEST PUSH1 0x40 MLOAD PUSH2 0x2F9 SWAP2 SWAP1 PUSH2 0x2102 JUMP JUMPDEST PUSH1 0x40 MLOAD DUP1 SWAP2 SUB SWAP1 RETURN JUMPDEST CALLVALUE DUP1 ISZERO PUSH2 0x30E JUMPI PUSH1 0x0 DUP1 REVERT JUMPDEST POP PUSH2 0x317 PUSH2 0xEDE JUMP JUMPDEST PUSH1 0x40 MLOAD PUSH2 0x324 SWAP2 SWAP1 PUSH2 0x1F18 JUMP JUMPDEST PUSH1 0x40 MLOAD DUP1 SWAP2 SUB SWAP1 RETURN JUMPDEST CALLVALUE DUP1 ISZERO PUSH2 0x339 JUMPI PUSH1 0x0 DUP1 REVERT JUMPDEST POP PUSH2 0x342 PUSH2 0xF04 JUMP JUMPDEST PUSH1 0x40 MLOAD PUSH2 0x34F SWAP2 SWAP1 PUSH2 0x1F85 JUMP JUMPDEST PUSH1 0x40 MLOAD DUP1 SWAP2 SUB SWAP1 RETURN JUMPDEST CALLVALUE DUP1 ISZERO PUSH2 0x364 JUMPI PUSH1 0x0 DUP1 REVERT JUMPDEST POP PUSH2 0x36D PUSH2 0xF8D JUMP JUMPDEST PUSH1 0x40 MLOAD PUSH2 0x37A SWAP2 SWAP1 PUSH2 0x2102 JUMP JUMPDEST PUSH1 0x40 MLOAD DUP1 SWAP2 SUB SWAP1 RETURN JUMPDEST CALLVALUE DUP1 ISZERO PUSH2 0x38F JUMPI PUSH1 0x0 DUP1 REVERT JUMPDEST POP PUSH2 0x398 PUSH2 0xF93 JUMP JUMPDEST PUSH1 0x40 MLOAD PUSH2 0x3A5 SWAP2 SWAP1 PUSH2 0x2102 JUMP JUMPDEST PUSH1 0x40 MLOAD DUP1 SWAP2 SUB SWAP1 RETURN JUMPDEST CALLVALUE DUP1 ISZERO PUSH2 0x3BA JUMPI PUSH1 0x0 DUP1 REVERT JUMPDEST POP PUSH2 0x3C3 PUSH2 0xF99 JUMP JUMPDEST PUSH1 0x40 MLOAD PUSH2 0x3D0 SWAP2 SWAP1 PUSH2 0x1F85 JUMP JUMPDEST PUSH1 0x40 MLOAD DUP1 SWAP2 SUB SWAP1 RETURN JUMPDEST CALLVALUE DUP1 ISZERO PUSH2 0x3E5 JUMPI PUSH1 0x0 DUP1 REVERT JUMPDEST POP PUSH2 0x3EE PUSH2 0xFAC JUMP JUMPDEST PUSH1 0x40 MLOAD PUSH2 0x3FB SWAP2 SWAP1 PUSH2 0x1EFD JUMP JUMPDEST PUSH1 0x40 MLOAD DUP1 SWAP2 SUB SWAP1 RETURN JUMPDEST CALLVALUE DUP1 ISZERO PUSH2 0x410 JUMPI PUSH1 0x0 DUP1 REVERT JUMPDEST POP PUSH2 0x42B PUSH1 0x4 DUP1 CALLDATASIZE SUB DUP2 ADD SWAP1 PUSH2 0x426 SWAP2 SWAP1 PUSH2 0x1B1D JUMP JUMPDEST PUSH2 0xFD2 JUMP JUMPDEST PUSH1 0x40 MLOAD PUSH2 0x438 SWAP2 SWAP1 PUSH2 0x2102 JUMP JUMPDEST PUSH1 0x40 MLOAD DUP1 SWAP2 SUB SWAP1 RETURN JUMPDEST CALLVALUE DUP1 ISZERO PUSH2 0x44D JUMPI PUSH1 0x0 DUP1 REVERT JUMPDEST POP PUSH2 0x456 PUSH2 0xFF7 JUMP JUMPDEST STOP JUMPDEST CALLVALUE DUP1 ISZERO PUSH2 0x464 JUMPI PUSH1 0x0 DUP1 REVERT JUMPDEST POP PUSH2 0x47F PUSH1 0x4 DUP1 CALLDATASIZE SUB DUP2 ADD SWAP1 PUSH2 0x47A SWAP2 SWAP1 PUSH2 0x1AF0 JUMP JUMPDEST PUSH2 0x10B4 JUMP JUMPDEST STOP JUMPDEST CALLVALUE DUP1 ISZERO PUSH2 0x48D JUMPI PUSH1 0x0 DUP1 REVERT JUMPDEST POP PUSH2 0x4A8 PUSH1 0x4 DUP1 CALLDATASIZE SUB DUP2 ADD SWAP1 PUSH2 0x4A3 SWAP2 SWAP1 PUSH2 0x1AC3 JUMP JUMPDEST PUSH2 0x1188 JUMP JUMPDEST PUSH1 0x40 MLOAD PUSH2 0x4B5 SWAP2 SWAP1 PUSH2 0x2102 JUMP JUMPDEST PUSH1 0x40 MLOAD DUP1 SWAP2 SUB SWAP1 RETURN JUMPDEST CALLVALUE DUP1 ISZERO PUSH2 0x4CA JUMPI PUSH1 0x0 DUP1 REVERT JUMPDEST POP PUSH2 0x4E5 PUSH1 0x4 DUP1 CALLDATASIZE SUB DUP2 ADD SWAP1 PUSH2 0x4E0 SWAP2 SWAP1 PUSH2 0x1BF0 JUMP JUMPDEST PUSH2 0x11D1 JUMP JUMPDEST STOP JUMPDEST CALLVALUE DUP1 ISZERO PUSH2 0x4F3 JUMPI PUSH1 0x0 DUP1 REVERT JUMPDEST POP PUSH2 0x4FC PUSH2 0x126B JUMP JUMPDEST PUSH1 0x40 MLOAD PUSH2 0x509 SWAP2 SWAP1 PUSH2 0x2102 JUMP JUMPDEST PUSH1 0x40 MLOAD DUP1 SWAP2 SUB SWAP1 RETURN JUMPDEST CALLVALUE DUP1 ISZERO PUSH2 0x51E JUMPI PUSH1 0x0 DUP1 REVERT JUMPDEST POP PUSH2 0x527 PUSH2 0x1271 JUMP JUMPDEST PUSH1 0x40 MLOAD PUSH2 0x534 SWAP2 SWAP1 PUSH2 0x1FA0 JUMP JUMPDEST PUSH1 0x40 MLOAD DUP1 SWAP2 SUB SWAP1 RETURN JUMPDEST CALLVALUE DUP1 ISZERO PUSH2 0x549 JUMPI PUSH1 0x0 DUP1 REVERT JUMPDEST POP PUSH2 0x564 PUSH1 0x4 DUP1 CALLDATASIZE SUB DUP2 ADD SWAP1 PUSH2 0x55F SWAP2 SWAP1 PUSH2 0x1BB0 JUMP JUMPDEST PUSH2 0x12FF JUMP JUMPDEST PUSH1 0x40 MLOAD PUSH2 0x571 SWAP2 SWAP1 PUSH2 0x1F6A JUMP JUMPDEST PUSH1 0x40 MLOAD DUP1 SWAP2 SUB SWAP1 RETURN JUMPDEST CALLVALUE DUP1 ISZERO PUSH2 0x586 JUMPI PUSH1 0x0 DUP1 REVERT JUMPDEST POP PUSH2 0x58F PUSH2 0x135A JUMP JUMPDEST PUSH1 0x40 MLOAD PUSH2 0x59C SWAP2 SWAP1 PUSH2 0x2102 JUMP JUMPDEST PUSH1 0x40 MLOAD DUP1 SWAP2 SUB SWAP1 RETURN JUMPDEST CALLVALUE DUP1 ISZERO PUSH2 0x5B1 JUMPI PUSH1 0x0 DUP1 REVERT JUMPDEST POP PUSH2 0x5BA PUSH2 0x1360 JUMP JUMPDEST PUSH1 0x40 MLOAD PUSH2 0x5C7 SWAP2 SWAP1 PUSH2 0x2102 JUMP JUMPDEST PUSH1 0x40 MLOAD DUP1 SWAP2 SUB SWAP1 RETURN JUMPDEST CALLVALUE DUP1 ISZERO PUSH2 0x5DC JUMPI PUSH1 0x0 DUP1 REVERT JUMPDEST POP PUSH2 0x5E5 PUSH2 0x1366 JUMP JUMPDEST PUSH1 0x40 MLOAD PUSH2 0x5F2 SWAP2 SWAP1 PUSH2 0x2102 JUMP JUMPDEST PUSH1 0x40 MLOAD DUP1 SWAP2 SUB SWAP1 RETURN JUMPDEST CALLVALUE DUP1 ISZERO PUSH2 0x607 JUMPI PUSH1 0x0 DUP1 REVERT JUMPDEST POP PUSH2 0x622 PUSH1 0x4 DUP1 CALLDATASIZE SUB DUP2 ADD SWAP1 PUSH2 0x61D SWAP2 SWAP1 PUSH2 0x1BF0 JUMP JUMPDEST PUSH2 0x136C JUMP JUMPDEST STOP JUMPDEST CALLVALUE DUP1 ISZERO PUSH2 0x630 JUMPI PUSH1 0x0 DUP1 REVERT JUMPDEST POP PUSH2 0x64B PUSH1 0x4 DUP1 CALLDATASIZE SUB DUP2 ADD SWAP1 PUSH2 0x646 SWAP2 SWAP1 PUSH2 0x1B1D JUMP JUMPDEST PUSH2 0x1406 JUMP JUMPDEST PUSH1 0x40 MLOAD PUSH2 0x658 SWAP2 SWAP1 PUSH2 0x2102 JUMP JUMPDEST PUSH1 0x40 MLOAD DUP1 SWAP2 SUB SWAP1 RETURN JUMPDEST PUSH2 0x669 PUSH2 0x148D JUMP JUMPDEST PUSH1 0x40 MLOAD PUSH2 0x676 SWAP2 SWAP1 PUSH2 0x1F6A JUMP JUMPDEST PUSH1 0x40 MLOAD DUP1 SWAP2 SUB SWAP1 RETURN JUMPDEST CALLVALUE DUP1 ISZERO PUSH2 0x68B JUMPI PUSH1 0x0 DUP1 REVERT JUMPDEST POP PUSH2 0x694 PUSH2 0x18B9 JUMP JUMPDEST PUSH1 0x40 MLOAD PUSH2 0x6A1 SWAP2 SWAP1 PUSH2 0x1EFD JUMP JUMPDEST PUSH1 0x40 MLOAD DUP1 SWAP2 SUB SWAP1 RETURN JUMPDEST CALLVALUE DUP1 ISZERO PUSH2 0x6B6 JUMPI PUSH1 0x0 DUP1 REVERT JUMPDEST POP PUSH2 0x6BF PUSH2 0x18DF JUMP JUMPDEST PUSH1 0x40 MLOAD PUSH2 0x6CC SWAP2 SWAP1 PUSH2 0x2102 JUMP JUMPDEST PUSH1 0x40 MLOAD DUP1 SWAP2 SUB SWAP1 RETURN JUMPDEST PUSH1 0x7 PUSH1 0x0 SWAP1 SLOAD SWAP1 PUSH2 0x100 EXP SWAP1 DIV PUSH20 0xFFFFFFFFFFFFFFFFFFFFFFFFFFFFFFFFFFFFFFFF AND PUSH20 0xFFFFFFFFFFFFFFFFFFFFFFFFFFFFFFFFFFFFFFFF AND CALLER PUSH20 0xFFFFFFFFFFFFFFFFFFFFFFFFFFFFFFFFFFFFFFFF AND EQ PUSH2 0x765 JUMPI PUSH1 0x40 MLOAD PUSH32 0x8C379A000000000000000000000000000000000000000000000000000000000 DUP2 MSTORE PUSH1 0x4 ADD PUSH2 0x75C SWAP1 PUSH2 0x2042 JUMP JUMPDEST PUSH1 0x40 MLOAD DUP1 SWAP2 SUB SWAP1 REVERT JUMPDEST PUSH1 0x1 PUSH1 0xF PUSH1 0x0 PUSH2 0x100 EXP DUP2 SLOAD DUP2 PUSH1 0xFF MUL NOT AND SWAP1 DUP4 PUSH1 0x4 DUP2 GT ISZERO PUSH2 0x78B JUMPI PUSH2 0x78A PUSH2 0x2345 JUMP JUMPDEST JUMPDEST MUL OR SWAP1 SSTORE POP JUMP JUMPDEST PUSH1 0x0 DUP1 SLOAD PUSH2 0x79F SWAP1 PUSH2 0x22DA JUMP JUMPDEST DUP1 PUSH1 0x1F ADD PUSH1 0x20 DUP1 SWAP2 DIV MUL PUSH1 0x20 ADD PUSH1 0x40 MLOAD SWAP1 DUP2 ADD PUSH1 0x40 MSTORE DUP1 SWAP3 SWAP2 SWAP1 DUP2 DUP2 MSTORE PUSH1 0x20 ADD DUP3 DUP1 SLOAD PUSH2 0x7CB SWAP1 PUSH2 0x22DA JUMP JUMPDEST DUP1 ISZERO PUSH2 0x818 JUMPI DUP1 PUSH1 0x1F LT PUSH2 0x7ED JUMPI PUSH2 0x100 DUP1 DUP4 SLOAD DIV MUL DUP4 MSTORE SWAP2 PUSH1 0x20 ADD SWAP2 PUSH2 0x818 JUMP JUMPDEST DUP3 ADD SWAP2 SWAP1 PUSH1 0x0 MSTORE PUSH1 0x20 PUSH1 0x0 KECCAK256 SWAP1 JUMPDEST DUP2 SLOAD DUP2 MSTORE SWAP1 PUSH1 0x1 ADD SWAP1 PUSH1 0x20 ADD DUP1 DUP4 GT PUSH2 0x7FB JUMPI DUP3 SWAP1 SUB PUSH1 0x1F AND DUP3 ADD SWAP2 JUMPDEST POP POP POP POP POP DUP2 JUMP JUMPDEST PUSH2 0x828 PUSH2 0xF04 JUMP JUMPDEST PUSH1 0xF PUSH1 0x0 PUSH2 0x100 EXP DUP2 SLOAD DUP2 PUSH1 0xFF MUL NOT AND SWAP1 DUP4 PUSH1 0x4 DUP2 GT ISZERO PUSH2 0x84C JUMPI PUSH2 0x84B PUSH2 0x2345 JUMP JUMPDEST JUMPDEST MUL OR SWAP1 SSTORE POP PUSH1 0x3 PUSH1 0x4 DUP2 GT ISZERO PUSH2 0x865 JUMPI PUSH2 0x864 PUSH2 0x2345 JUMP JUMPDEST JUMPDEST PUSH1 0xF PUSH1 0x0 SWAP1 SLOAD SWAP1 PUSH2 0x100 EXP SWAP1 DIV PUSH1 0xFF AND PUSH1 0x4 DUP2 GT ISZERO PUSH2 0x887 JUMPI PUSH2 0x886 PUSH2 0x2345 JUMP JUMPDEST JUMPDEST EQ PUSH2 0x8C7 JUMPI PUSH1 0x40 MLOAD PUSH32 0x8C379A000000000000000000000000000000000000000000000000000000000 DUP2 MSTORE PUSH1 0x4 ADD PUSH2 0x8BE SWAP1 PUSH2 0x1FE2 JUMP JUMPDEST PUSH1 0x40 MLOAD DUP1 SWAP2 SUB SWAP1 REVERT JUMPDEST PUSH1 0x0 PUSH1 0x5 PUSH1 0x0 PUSH1 0x3 PUSH1 0x0 SWAP1 SLOAD SWAP1 PUSH2 0x100 EXP SWAP1 DIV PUSH20 0xFFFFFFFFFFFFFFFFFFFFFFFFFFFFFFFFFFFFFFFF AND PUSH20 0xFFFFFFFFFFFFFFFFFFFFFFFFFFFFFFFFFFFFFFFF AND PUSH20 0xFFFFFFFFFFFFFFFFFFFFFFFFFFFFFFFFFFFFFFFF AND DUP2 MSTORE PUSH1 0x20 ADD SWAP1 DUP2 MSTORE PUSH1 0x20 ADD PUSH1 0x0 KECCAK256 SLOAD GT PUSH2 0x96B JUMPI PUSH1 0x40 MLOAD PUSH32 0x8C379A000000000000000000000000000000000000000000000000000000000 DUP2 MSTORE PUSH1 0x4 ADD PUSH2 0x962 SWAP1 PUSH2 0x2082 JUMP JUMPDEST PUSH1 0x40 MLOAD DUP1 SWAP2 SUB SWAP1 REVERT JUMPDEST PUSH1 0x0 PUSH1 0x5 PUSH1 0x0 PUSH1 0x3 PUSH1 0x0 SWAP1 SLOAD SWAP1 PUSH2 0x100 EXP SWAP1 DIV PUSH20 0xFFFFFFFFFFFFFFFFFFFFFFFFFFFFFFFFFFFFFFFF AND PUSH20 0xFFFFFFFFFFFFFFFFFFFFFFFFFFFFFFFFFFFFFFFF AND PUSH20 0xFFFFFFFFFFFFFFFFFFFFFFFFFFFFFFFFFFFFFFFF AND DUP2 MSTORE PUSH1 0x20 ADD SWAP1 DUP2 MSTORE PUSH1 0x20 ADD PUSH1 0x0 KECCAK256 DUP2 SWAP1 SSTORE POP JUMP JUMPDEST PUSH1 0x0 DUP2 PUSH1 0x5 PUSH1 0x0 CALLER PUSH20 0xFFFFFFFFFFFFFFFFFFFFFFFFFFFFFFFFFFFFFFFF AND PUSH20 0xFFFFFFFFFFFFFFFFFFFFFFFFFFFFFFFFFFFFFFFF AND DUP2 MSTORE PUSH1 0x20 ADD SWAP1 DUP2 MSTORE PUSH1 0x20 ADD PUSH1 0x0 KECCAK256 SLOAD LT ISZERO PUSH2 0xA58 JUMPI PUSH1 0x40 MLOAD PUSH32 0x8C379A000000000000000000000000000000000000000000000000000000000 DUP2 MSTORE PUSH1 0x4 ADD PUSH2 0xA4F SWAP1 PUSH2 0x2062 JUMP JUMPDEST PUSH1 0x40 MLOAD DUP1 SWAP2 SUB SWAP1 REVERT JUMPDEST PUSH1 0x0 DUP3 GT PUSH2 0xA9B JUMPI PUSH1 0x40 MLOAD PUSH32 0x8C379A000000000000000000000000000000000000000000000000000000000 DUP2 MSTORE PUSH1 0x4 ADD PUSH2 0xA92 SWAP1 PUSH2 0x2002 JUMP JUMPDEST PUSH1 0x40 MLOAD DUP1 SWAP2 SUB SWAP1 REVERT JUMPDEST DUP2 PUSH1 0x6 PUSH1 0x0 CALLER PUSH20 0xFFFFFFFFFFFFFFFFFFFFFFFFFFFFFFFFFFFFFFFF AND PUSH20 0xFFFFFFFFFFFFFFFFFFFFFFFFFFFFFFFFFFFFFFFF AND DUP2 MSTORE PUSH1 0x20 ADD SWAP1 DUP2 MSTORE PUSH1 0x20 ADD PUSH1 0x0 KECCAK256 PUSH1 0x0 DUP6 PUSH20 0xFFFFFFFFFFFFFFFFFFFFFFFFFFFFFFFFFFFFFFFF AND PUSH20 0xFFFFFFFFFFFFFFFFFFFFFFFFFFFFFFFFFFFFFFFF AND DUP2 MSTORE PUSH1 0x20 ADD SWAP1 DUP2 MSTORE PUSH1 0x20 ADD PUSH1 0x0 KECCAK256 DUP2 SWAP1 SSTORE POP DUP3 PUSH20 0xFFFFFFFFFFFFFFFFFFFFFFFFFFFFFFFFFFFFFFFF AND CALLER PUSH20 0xFFFFFFFFFFFFFFFFFFFFFFFFFFFFFFFFFFFFFFFF AND PUSH32 0x8C5BE1E5EBEC7D5BD14F71427D1E84F3DD0314C0F7B2291E5B200AC8C7C3B925 DUP5 PUSH1 0x40 MLOAD PUSH2 0xB79 SWAP2 SWAP1 PUSH2 0x2102 JUMP JUMPDEST PUSH1 0x40 MLOAD DUP1 SWAP2 SUB SWAP1 LOG3 PUSH1 0x1 SWAP1 POP SWAP3 SWAP2 POP POP JUMP JUMPDEST PUSH1 0x4 SLOAD DUP2 JUMP JUMPDEST PUSH1 0x0 DUP2 PUSH1 0x6 PUSH1 0x0 DUP7 PUSH20 0xFFFFFFFFFFFFFFFFFFFFFFFFFFFFFFFFFFFFFFFF AND PUSH20 0xFFFFFFFFFFFFFFFFFFFFFFFFFFFFFFFFFFFFFFFF AND DUP2 MSTORE PUSH1 0x20 ADD SWAP1 DUP2 MSTORE PUSH1 0x20 ADD PUSH1 0x0 KECCAK256 PUSH1 0x0 CALLER PUSH20 0xFFFFFFFFFFFFFFFFFFFFFFFFFFFFFFFFFFFFFFFF AND PUSH20 0xFFFFFFFFFFFFFFFFFFFFFFFFFFFFFFFFFFFFFFFF AND DUP2 MSTORE PUSH1 0x20 ADD SWAP1 DUP2 MSTORE PUSH1 0x20 ADD PUSH1 0x0 KECCAK256 SLOAD LT ISZERO PUSH2 0xC52 JUMPI PUSH1 0x40 MLOAD PUSH32 0x8C379A000000000000000000000000000000000000000000000000000000000 DUP2 MSTORE PUSH1 0x4 ADD PUSH2 0xC49 SWAP1 PUSH2 0x1FC2 JUMP JUMPDEST PUSH1 0x40 MLOAD DUP1 SWAP2 SUB SWAP1 REVERT JUMPDEST DUP2 PUSH1 0x5 PUSH1 0x0 DUP7 PUSH20 0xFFFFFFFFFFFFFFFFFFFFFFFFFFFFFFFFFFFFFFFF AND PUSH20 0xFFFFFFFFFFFFFFFFFFFFFFFFFFFFFFFFFFFFFFFF AND DUP2 MSTORE PUSH1 0x20 ADD SWAP1 DUP2 MSTORE PUSH1 0x20 ADD PUSH1 0x0 KECCAK256 SLOAD LT ISZERO PUSH2 0xCD4 JUMPI PUSH1 0x40 MLOAD PUSH32 0x8C379A000000000000000000000000000000000000000000000000000000000 DUP2 MSTORE PUSH1 0x4 ADD PUSH2 0xCCB SWAP1 PUSH2 0x20E2 JUMP JUMPDEST PUSH1 0x40 MLOAD DUP1 SWAP2 SUB SWAP1 REVERT JUMPDEST PUSH1 0x0 DUP3 GT PUSH2 0xD17 JUMPI PUSH1 0x40 MLOAD PUSH32 0x8C379A000000000000000000000000000000000000000000000000000000000 DUP2 MSTORE PUSH1 0x4 ADD PUSH2 0xD0E SWAP1 PUSH2 0x2002 JUMP JUMPDEST PUSH1 0x40 MLOAD DUP1 SWAP2 SUB SWAP1 REVERT JUMPDEST DUP2 PUSH1 0x6 PUSH1 0x0 DUP7 PUSH20 0xFFFFFFFFFFFFFFFFFFFFFFFFFFFFFFFFFFFFFFFF AND PUSH20 0xFFFFFFFFFFFFFFFFFFFFFFFFFFFFFFFFFFFFFFFF AND DUP2 MSTORE PUSH1 0x20 ADD SWAP1 DUP2 MSTORE PUSH1 0x20 ADD PUSH1 0x0 KECCAK256 PUSH1 0x0 CALLER PUSH20 0xFFFFFFFFFFFFFFFFFFFFFFFFFFFFFFFFFFFFFFFF AND PUSH20 0xFFFFFFFFFFFFFFFFFFFFFFFFFFFFFFFFFFFFFFFF AND DUP2 MSTORE PUSH1 0x20 ADD SWAP1 DUP2 MSTORE PUSH1 0x20 ADD PUSH1 0x0 KECCAK256 PUSH1 0x0 DUP3 DUP3 SLOAD PUSH2 0xDA3 SWAP2 SWAP1 PUSH2 0x21F4 JUMP JUMPDEST SWAP3 POP POP DUP2 SWAP1 SSTORE POP DUP2 PUSH1 0x5 PUSH1 0x0 DUP7 PUSH20 0xFFFFFFFFFFFFFFFFFFFFFFFFFFFFFFFFFFFFFFFF AND PUSH20 0xFFFFFFFFFFFFFFFFFFFFFFFFFFFFFFFFFFFFFFFF AND DUP2 MSTORE PUSH1 0x20 ADD SWAP1 DUP2 MSTORE PUSH1 0x20 ADD PUSH1 0x0 KECCAK256 PUSH1 0x0 DUP3 DUP3 SLOAD PUSH2 0xDF9 SWAP2 SWAP1 PUSH2 0x21F4 JUMP JUMPDEST SWAP3 POP POP DUP2 SWAP1 SSTORE POP DUP2 PUSH1 0x5 PUSH1 0x0 DUP6 PUSH20 0xFFFFFFFFFFFFFFFFFFFFFFFFFFFFFFFFFFFFFFFF AND PUSH20 0xFFFFFFFFFFFFFFFFFFFFFFFFFFFFFFFFFFFFFFFF AND DUP2 MSTORE PUSH1 0x20 ADD SWAP1 DUP2 MSTORE PUSH1 0x20 ADD PUSH1 0x0 KECCAK256 PUSH1 0x0 DUP3 DUP3 SLOAD PUSH2 0xE4F SWAP2 SWAP1 PUSH2 0x2144 JUMP JUMPDEST SWAP3 POP POP DUP2 SWAP1 SSTORE POP DUP3 PUSH20 0xFFFFFFFFFFFFFFFFFFFFFFFFFFFFFFFFFFFFFFFF AND DUP5 PUSH20 0xFFFFFFFFFFFFFFFFFFFFFFFFFFFFFFFFFFFFFFFF AND PUSH32 0xDDF252AD1BE2C89B69C2B068FC378DAA952BA7F163C4A11628F55A4DF523B3EF DUP5 PUSH1 0x40 MLOAD PUSH2 0xEB3 SWAP2 SWAP1 PUSH2 0x2102 JUMP JUMPDEST PUSH1 0x40 MLOAD DUP1 SWAP2 SUB SWAP1 LOG3 PUSH1 0x1 SWAP1 POP SWAP4 SWAP3 POP POP POP JUMP JUMPDEST PUSH1 0x5 PUSH1 0x20 MSTORE DUP1 PUSH1 0x0 MSTORE PUSH1 0x40 PUSH1 0x0 KECCAK256 PUSH1 0x0 SWAP2 POP SWAP1 POP SLOAD DUP2 JUMP JUMPDEST PUSH1 0xF PUSH1 0x1 SWAP1 SLOAD SWAP1 PUSH2 0x100 EXP SWAP1 DIV PUSH20 0xFFFFFFFFFFFFFFFFFFFFFFFFFFFFFFFFFFFFFFFF AND DUP2 JUMP JUMPDEST PUSH1 0x0 DUP1 PUSH1 0x4 DUP1 DUP2 GT ISZERO PUSH2 0xF1A JUMPI PUSH2 0xF19 PUSH2 0x2345 JUMP JUMPDEST JUMPDEST PUSH1 0xF PUSH1 0x0 SWAP1 SLOAD SWAP1 PUSH2 0x100 EXP SWAP1 DIV PUSH1 0xFF AND PUSH1 0x4 DUP2 GT ISZERO PUSH2 0xF3C JUMPI PUSH2 0xF3B PUSH2 0x2345 JUMP JUMPDEST JUMPDEST EQ ISZERO PUSH2 0xF4B JUMPI PUSH1 0x4 SWAP1 POP PUSH2 0xF86 JUMP JUMPDEST PUSH1 0xB SLOAD TIMESTAMP LT ISZERO PUSH2 0xF5E JUMPI PUSH1 0x0 SWAP1 POP PUSH2 0xF85 JUMP JUMPDEST PUSH1 0xB SLOAD TIMESTAMP LT ISZERO DUP1 ISZERO PUSH2 0xF71 JUMPI POP PUSH1 0xC SLOAD TIMESTAMP LT JUMPDEST ISZERO PUSH2 0xF7F JUMPI PUSH1 0x1 SWAP1 POP PUSH2 0xF84 JUMP JUMPDEST PUSH1 0x3 SWAP1 POP JUMPDEST JUMPDEST JUMPDEST DUP1 SWAP2 POP POP SWAP1 JUMP JUMPDEST PUSH1 0x2 SLOAD DUP2 JUMP JUMPDEST PUSH1 0xC SLOAD DUP2 JUMP JUMPDEST PUSH1 0xF PUSH1 0x0 SWAP1 SLOAD SWAP1 PUSH2 0x100 EXP SWAP1 DIV PUSH1 0xFF AND DUP2 JUMP JUMPDEST PUSH1 0x3 PUSH1 0x0 SWAP1 SLOAD SWAP1 PUSH2 0x100 EXP SWAP1 DIV PUSH20 0xFFFFFFFFFFFFFFFFFFFFFFFFFFFFFFFFFFFFFFFF AND DUP2 JUMP JUMPDEST PUSH1 0x6 PUSH1 0x20 MSTORE DUP2 PUSH1 0x0 MSTORE PUSH1 0x40 PUSH1 0x0 KECCAK256 PUSH1 0x20 MSTORE DUP1 PUSH1 0x0 MSTORE PUSH1 0x40 PUSH1 0x0 KECCAK256 PUSH1 0x0 SWAP2 POP SWAP2 POP POP SLOAD DUP2 JUMP JUMPDEST PUSH1 0x7 PUSH1 0x0 SWAP1 SLOAD SWAP1 PUSH2 0x100 EXP SWAP1 DIV PUSH20 0xFFFFFFFFFFFFFFFFFFFFFFFFFFFFFFFFFFFFFFFF AND PUSH20 0xFFFFFFFFFFFFFFFFFFFFFFFFFFFFFFFFFFFFFFFF AND CALLER PUSH20 0xFFFFFFFFFFFFFFFFFFFFFFFFFFFFFFFFFFFFFFFF AND EQ PUSH2 0x1087 JUMPI PUSH1 0x40 MLOAD PUSH32 0x8C379A000000000000000000000000000000000000000000000000000000000 DUP2 MSTORE PUSH1 0x4 ADD PUSH2 0x107E SWAP1 PUSH2 0x2042 JUMP JUMPDEST PUSH1 0x40 MLOAD DUP1 SWAP2 SUB SWAP1 REVERT JUMPDEST PUSH1 0x4 PUSH1 0xF PUSH1 0x0 PUSH2 0x100 EXP DUP2 SLOAD DUP2 PUSH1 0xFF MUL NOT AND SWAP1 DUP4 PUSH1 0x4 DUP2 GT ISZERO PUSH2 0x10AD JUMPI PUSH2 0x10AC PUSH2 0x2345 JUMP JUMPDEST JUMPDEST MUL OR SWAP1 SSTORE POP JUMP JUMPDEST PUSH1 0x7 PUSH1 0x0 SWAP1 SLOAD SWAP1 PUSH2 0x100 EXP SWAP1 DIV PUSH20 0xFFFFFFFFFFFFFFFFFFFFFFFFFFFFFFFFFFFFFFFF AND PUSH20 0xFFFFFFFFFFFFFFFFFFFFFFFFFFFFFFFFFFFFFFFF AND CALLER PUSH20 0xFFFFFFFFFFFFFFFFFFFFFFFFFFFFFFFFFFFFFFFF AND EQ PUSH2 0x1144 JUMPI PUSH1 0x40 MLOAD PUSH32 0x8C379A000000000000000000000000000000000000000000000000000000000 DUP2 MSTORE PUSH1 0x4 ADD PUSH2 0x113B SWAP1 PUSH2 0x2042 JUMP JUMPDEST PUSH1 0x40 MLOAD DUP1 SWAP2 SUB SWAP1 REVERT JUMPDEST DUP1 PUSH1 0xF PUSH1 0x1 PUSH2 0x100 EXP DUP2 SLOAD DUP2 PUSH20 0xFFFFFFFFFFFFFFFFFFFFFFFFFFFFFFFFFFFFFFFF MUL NOT AND SWAP1 DUP4 PUSH20 0xFFFFFFFFFFFFFFFFFFFFFFFFFFFFFFFFFFFFFFFF AND MUL OR SWAP1 SSTORE POP POP JUMP JUMPDEST PUSH1 0x0 PUSH1 0x5 PUSH1 0x0 DUP4 PUSH20 0xFFFFFFFFFFFFFFFFFFFFFFFFFFFFFFFFFFFFFFFF AND PUSH20 0xFFFFFFFFFFFFFFFFFFFFFFFFFFFFFFFFFFFFFFFF AND DUP2 MSTORE PUSH1 0x20 ADD SWAP1 DUP2 MSTORE PUSH1 0x20 ADD PUSH1 0x0 KECCAK256 SLOAD SWAP1 POP SWAP2 SWAP1 POP JUMP JUMPDEST PUSH1 0x7 PUSH1 0x0 SWAP1 SLOAD SWAP1 PUSH2 0x100 EXP SWAP1 DIV PUSH20 0xFFFFFFFFFFFFFFFFFFFFFFFFFFFFFFFFFFFFFFFF AND PUSH20 0xFFFFFFFFFFFFFFFFFFFFFFFFFFFFFFFFFFFFFFFF AND CALLER PUSH20 0xFFFFFFFFFFFFFFFFFFFFFFFFFFFFFFFFFFFFFFFF AND EQ PUSH2 0x1261 JUMPI PUSH1 0x40 MLOAD PUSH32 0x8C379A000000000000000000000000000000000000000000000000000000000 DUP2 MSTORE PUSH1 0x4 ADD PUSH2 0x1258 SWAP1 PUSH2 0x2042 JUMP JUMPDEST PUSH1 0x40 MLOAD DUP1 SWAP2 SUB SWAP1 REVERT JUMPDEST DUP1 PUSH1 0xE DUP2 SWAP1 SSTORE POP POP JUMP JUMPDEST PUSH1 0xB SLOAD DUP2 JUMP JUMPDEST PUSH1 0x1 DUP1 SLOAD PUSH2 0x127E SWAP1 PUSH2 0x22DA JUMP JUMPDEST DUP1 PUSH1 0x1F ADD PUSH1 0x20 DUP1 SWAP2 DIV MUL PUSH1 0x20 ADD PUSH1 0x40 MLOAD SWAP1 DUP2 ADD PUSH1 0x40 MSTORE DUP1 SWAP3 SWAP2 SWAP1 DUP2 DUP2 MSTORE PUSH1 0x20 ADD DUP3 DUP1 SLOAD PUSH2 0x12AA SWAP1 PUSH2 0x22DA JUMP JUMPDEST DUP1 ISZERO PUSH2 0x12F7 JUMPI DUP1 PUSH1 0x1F LT PUSH2 0x12CC JUMPI PUSH2 0x100 DUP1 DUP4 SLOAD DIV MUL DUP4 MSTORE SWAP2 PUSH1 0x20 ADD SWAP2 PUSH2 0x12F7 JUMP JUMPDEST DUP3 ADD SWAP2 SWAP1 PUSH1 0x0 MSTORE PUSH1 0x20 PUSH1 0x0 KECCAK256 SWAP1 JUMPDEST DUP2 SLOAD DUP2 MSTORE SWAP1 PUSH1 0x1 ADD SWAP1 PUSH1 0x20 ADD DUP1 DUP4 GT PUSH2 0x12DA JUMPI DUP3 SWAP1 SUB PUSH1 0x1F AND DUP3 ADD SWAP2 JUMPDEST POP POP POP POP POP DUP2 JUMP JUMPDEST PUSH1 0x0 PUSH1 0xC SLOAD TIMESTAMP GT PUSH2 0x1345 JUMPI PUSH1 0x40 MLOAD PUSH32 0x8C379A000000000000000000000000000000000000000000000000000000000 DUP2 MSTORE PUSH1 0x4 ADD PUSH2 0x133C SWAP1 PUSH2 0x1FE2 JUMP JUMPDEST PUSH1 0x40 MLOAD DUP1 SWAP2 SUB SWAP1 REVERT JUMPDEST PUSH2 0x134F DUP4 DUP4 PUSH2 0x18E5 JUMP JUMPDEST POP PUSH1 0x1 SWAP1 POP SWAP3 SWAP2 POP POP JUMP JUMPDEST PUSH1 0xE SLOAD DUP2 JUMP JUMPDEST PUSH1 0xD SLOAD DUP2 JUMP JUMPDEST PUSH1 0x9 SLOAD DUP2 JUMP JUMPDEST PUSH1 0x7 PUSH1 0x0 SWAP1 SLOAD SWAP1 PUSH2 0x100 EXP SWAP1 DIV PUSH20 0xFFFFFFFFFFFFFFFFFFFFFFFFFFFFFFFFFFFFFFFF AND PUSH20 0xFFFFFFFFFFFFFFFFFFFFFFFFFFFFFFFFFFFFFFFF AND CALLER PUSH20 0xFFFFFFFFFFFFFFFFFFFFFFFFFFFFFFFFFFFFFFFF AND EQ PUSH2 0x13FC JUMPI PUSH1 0x40 MLOAD PUSH32 0x8C379A000000000000000000000000000000000000000000000000000000000 DUP2 MSTORE PUSH1 0x4 ADD PUSH2 0x13F3 SWAP1 PUSH2 0x2042 JUMP JUMPDEST PUSH1 0x40 MLOAD DUP1 SWAP2 SUB SWAP1 REVERT JUMPDEST DUP1 PUSH1 0xD DUP2 SWAP1 SSTORE POP POP JUMP JUMPDEST PUSH1 0x0 PUSH1 0x6 PUSH1 0x0 DUP5 PUSH20 0xFFFFFFFFFFFFFFFFFFFFFFFFFFFFFFFFFFFFFFFF AND PUSH20 0xFFFFFFFFFFFFFFFFFFFFFFFFFFFFFFFFFFFFFFFF AND DUP2 MSTORE PUSH1 0x20 ADD SWAP1 DUP2 MSTORE PUSH1 0x20 ADD PUSH1 0x0 KECCAK256 PUSH1 0x0 DUP4 PUSH20 0xFFFFFFFFFFFFFFFFFFFFFFFFFFFFFFFFFFFFFFFF AND PUSH20 0xFFFFFFFFFFFFFFFFFFFFFFFFFFFFFFFFFFFFFFFF AND DUP2 MSTORE PUSH1 0x20 ADD SWAP1 DUP2 MSTORE PUSH1 0x20 ADD PUSH1 0x0 KECCAK256 SLOAD SWAP1 POP SWAP3 SWAP2 POP POP JUMP JUMPDEST PUSH1 0x0 PUSH1 0x7 PUSH1 0x0 SWAP1 SLOAD SWAP1 PUSH2 0x100 EXP SWAP1 DIV PUSH20 0xFFFFFFFFFFFFFFFFFFFFFFFFFFFFFFFFFFFFFFFF AND PUSH20 0xFFFFFFFFFFFFFFFFFFFFFFFFFFFFFFFFFFFFFFFF AND CALLER PUSH20 0xFFFFFFFFFFFFFFFFFFFFFFFFFFFFFFFFFFFFFFFF AND EQ PUSH2 0x151F JUMPI PUSH1 0x40 MLOAD PUSH32 0x8C379A000000000000000000000000000000000000000000000000000000000 DUP2 MSTORE PUSH1 0x4 ADD PUSH2 0x1516 SWAP1 PUSH2 0x2042 JUMP JUMPDEST PUSH1 0x40 MLOAD DUP1 SWAP2 SUB SWAP1 REVERT JUMPDEST PUSH2 0x1527 PUSH2 0xF04 JUMP JUMPDEST PUSH1 0xF PUSH1 0x0 PUSH2 0x100 EXP DUP2 SLOAD DUP2 PUSH1 0xFF MUL NOT AND SWAP1 DUP4 PUSH1 0x4 DUP2 GT ISZERO PUSH2 0x154B JUMPI PUSH2 0x154A PUSH2 0x2345 JUMP JUMPDEST JUMPDEST MUL OR SWAP1 SSTORE POP PUSH1 0x1 PUSH1 0x4 DUP2 GT ISZERO PUSH2 0x1564 JUMPI PUSH2 0x1563 PUSH2 0x2345 JUMP JUMPDEST JUMPDEST PUSH1 0xF PUSH1 0x0 SWAP1 SLOAD SWAP1 PUSH2 0x100 EXP SWAP1 DIV PUSH1 0xFF AND PUSH1 0x4 DUP2 GT ISZERO PUSH2 0x1586 JUMPI PUSH2 0x1585 PUSH2 0x2345 JUMP JUMPDEST JUMPDEST EQ PUSH2 0x15C6 JUMPI PUSH1 0x40 MLOAD PUSH32 0x8C379A000000000000000000000000000000000000000000000000000000000 DUP2 MSTORE PUSH1 0x4 ADD PUSH2 0x15BD SWAP1 PUSH2 0x2022 JUMP JUMPDEST PUSH1 0x40 MLOAD DUP1 SWAP2 SUB SWAP1 REVERT JUMPDEST PUSH1 0x0 CALLVALUE GT PUSH2 0x1609 JUMPI PUSH1 0x40 MLOAD PUSH32 0x8C379A000000000000000000000000000000000000000000000000000000000 DUP2 MSTORE PUSH1 0x4 ADD PUSH2 0x1600 SWAP1 PUSH2 0x2022 JUMP JUMPDEST PUSH1 0x40 MLOAD DUP1 SWAP2 SUB SWAP1 REVERT JUMPDEST PUSH1 0x0 PUSH1 0xD SLOAD PUSH1 0x40 MLOAD PUSH1 0x20 ADD PUSH2 0x161E SWAP2 SWAP1 PUSH2 0x1EB1 JUMP JUMPDEST PUSH1 0x40 MLOAD PUSH1 0x20 DUP2 DUP4 SUB SUB DUP2 MSTORE SWAP1 PUSH1 0x40 MSTORE SWAP1 POP PUSH1 0x0 PUSH1 0xE SLOAD PUSH1 0x40 MLOAD PUSH1 0x20 ADD PUSH2 0x1644 SWAP2 SWAP1 PUSH2 0x1ED7 JUMP JUMPDEST PUSH1 0x40 MLOAD PUSH1 0x20 DUP2 DUP4 SUB SUB DUP2 MSTORE SWAP1 PUSH1 0x40 MSTORE SWAP1 POP PUSH1 0x0 DUP3 DUP3 PUSH1 0x40 MLOAD PUSH1 0x20 ADD PUSH2 0x166A SWAP3 SWAP2 SWAP1 PUSH2 0x1E8D JUMP JUMPDEST PUSH1 0x40 MLOAD PUSH1 0x20 DUP2 DUP4 SUB SUB DUP2 MSTORE SWAP1 PUSH1 0x40 MSTORE SWAP1 POP PUSH1 0xD SLOAD CALLVALUE LT ISZERO DUP1 ISZERO PUSH2 0x168F JUMPI POP PUSH1 0xE SLOAD CALLVALUE GT ISZERO JUMPDEST DUP2 SWAP1 PUSH2 0x16D1 JUMPI PUSH1 0x40 MLOAD PUSH32 0x8C379A000000000000000000000000000000000000000000000000000000000 DUP2 MSTORE PUSH1 0x4 ADD PUSH2 0x16C8 SWAP2 SWAP1 PUSH2 0x1FA0 JUMP JUMPDEST PUSH1 0x40 MLOAD DUP1 SWAP2 SUB SWAP1 REVERT JUMPDEST POP PUSH1 0x0 CALLVALUE PUSH1 0x9 SLOAD PUSH2 0x16E2 SWAP2 SWAP1 PUSH2 0x2144 JUMP JUMPDEST SWAP1 POP PUSH1 0xA SLOAD DUP2 GT ISZERO PUSH2 0x1729 JUMPI PUSH1 0x40 MLOAD PUSH32 0x8C379A000000000000000000000000000000000000000000000000000000000 DUP2 MSTORE PUSH1 0x4 ADD PUSH2 0x1720 SWAP1 PUSH2 0x20A2 JUMP JUMPDEST PUSH1 0x40 MLOAD DUP1 SWAP2 SUB SWAP1 REVERT JUMPDEST PUSH1 0x0 PUSH1 0x8 SLOAD CALLVALUE PUSH2 0x1739 SWAP2 SWAP1 PUSH2 0x219A JUMP JUMPDEST SWAP1 POP DUP1 PUSH1 0x5 PUSH1 0x0 CALLER PUSH20 0xFFFFFFFFFFFFFFFFFFFFFFFFFFFFFFFFFFFFFFFF AND PUSH20 0xFFFFFFFFFFFFFFFFFFFFFFFFFFFFFFFFFFFFFFFF AND DUP2 MSTORE PUSH1 0x20 ADD SWAP1 DUP2 MSTORE PUSH1 0x20 ADD PUSH1 0x0 KECCAK256 PUSH1 0x0 DUP3 DUP3 SLOAD PUSH2 0x178A SWAP2 SWAP1 PUSH2 0x2144 JUMP JUMPDEST SWAP3 POP POP DUP2 SWAP1 SSTORE POP DUP1 PUSH1 0x5 PUSH1 0x0 PUSH1 0x3 PUSH1 0x0 SWAP1 SLOAD SWAP1 PUSH2 0x100 EXP SWAP1 DIV PUSH20 0xFFFFFFFFFFFFFFFFFFFFFFFFFFFFFFFFFFFFFFFF AND PUSH20 0xFFFFFFFFFFFFFFFFFFFFFFFFFFFFFFFFFFFFFFFF AND PUSH20 0xFFFFFFFFFFFFFFFFFFFFFFFFFFFFFFFFFFFFFFFF AND DUP2 MSTORE PUSH1 0x20 ADD SWAP1 DUP2 MSTORE PUSH1 0x20 ADD PUSH1 0x0 KECCAK256 PUSH1 0x0 DUP3 DUP3 SLOAD PUSH2 0x1802 SWAP2 SWAP1 PUSH2 0x21F4 JUMP JUMPDEST SWAP3 POP POP DUP2 SWAP1 SSTORE POP PUSH1 0xF PUSH1 0x1 SWAP1 SLOAD SWAP1 PUSH2 0x100 EXP SWAP1 DIV PUSH20 0xFFFFFFFFFFFFFFFFFFFFFFFFFFFFFFFFFFFFFFFF AND PUSH20 0xFFFFFFFFFFFFFFFFFFFFFFFFFFFFFFFFFFFFFFFF AND PUSH2 0x8FC CALLVALUE SWAP1 DUP2 ISZERO MUL SWAP1 PUSH1 0x40 MLOAD PUSH1 0x0 PUSH1 0x40 MLOAD DUP1 DUP4 SUB DUP2 DUP6 DUP9 DUP9 CALL SWAP4 POP POP POP POP ISZERO DUP1 ISZERO PUSH2 0x1871 JUMPI RETURNDATASIZE PUSH1 0x0 DUP1 RETURNDATACOPY RETURNDATASIZE PUSH1 0x0 REVERT JUMPDEST POP PUSH32 0x4AE4BD7655E0D350876A23CD90C4227B13DB560E34435C6A488150A9C844BF5F CALLER CALLVALUE DUP4 PUSH1 0x40 MLOAD PUSH2 0x18A5 SWAP4 SWAP3 SWAP2 SWAP1 PUSH2 0x1F33 JUMP JUMPDEST PUSH1 0x40 MLOAD DUP1 SWAP2 SUB SWAP1 LOG1 PUSH1 0x1 SWAP6 POP POP POP POP POP POP SWAP1 JUMP JUMPDEST PUSH1 0x7 PUSH1 0x0 SWAP1 SLOAD SWAP1 PUSH2 0x100 EXP SWAP1 DIV PUSH20 0xFFFFFFFFFFFFFFFFFFFFFFFFFFFFFFFFFFFFFFFF AND DUP2 JUMP JUMPDEST PUSH1 0xA SLOAD DUP2 JUMP JUMPDEST PUSH1 0x0 DUP2 PUSH1 0x5 PUSH1 0x0 CALLER PUSH20 0xFFFFFFFFFFFFFFFFFFFFFFFFFFFFFFFFFFFFFFFF AND PUSH20 0xFFFFFFFFFFFFFFFFFFFFFFFFFFFFFFFFFFFFFFFF AND DUP2 MSTORE PUSH1 0x20 ADD SWAP1 DUP2 MSTORE PUSH1 0x20 ADD PUSH1 0x0 KECCAK256 SLOAD LT ISZERO PUSH2 0x1969 JUMPI PUSH1 0x40 MLOAD PUSH32 0x8C379A000000000000000000000000000000000000000000000000000000000 DUP2 MSTORE PUSH1 0x4 ADD PUSH2 0x1960 SWAP1 PUSH2 0x20C2 JUMP JUMPDEST PUSH1 0x40 MLOAD DUP1 SWAP2 SUB SWAP1 REVERT JUMPDEST DUP2 PUSH1 0x5 PUSH1 0x0 DUP6 PUSH20 0xFFFFFFFFFFFFFFFFFFFFFFFFFFFFFFFFFFFFFFFF AND PUSH20 0xFFFFFFFFFFFFFFFFFFFFFFFFFFFFFFFFFFFFFFFF AND DUP2 MSTORE PUSH1 0x20 ADD SWAP1 DUP2 MSTORE PUSH1 0x20 ADD PUSH1 0x0 KECCAK256 PUSH1 0x0 DUP3 DUP3 SLOAD PUSH2 0x19B8 SWAP2 SWAP1 PUSH2 0x2144 JUMP JUMPDEST SWAP3 POP POP DUP2 SWAP1 SSTORE POP DUP2 PUSH1 0x5 PUSH1 0x0 CALLER PUSH20 0xFFFFFFFFFFFFFFFFFFFFFFFFFFFFFFFFFFFFFFFF AND PUSH20 0xFFFFFFFFFFFFFFFFFFFFFFFFFFFFFFFFFFFFFFFF AND DUP2 MSTORE PUSH1 0x20 ADD SWAP1 DUP2 MSTORE PUSH1 0x20 ADD PUSH1 0x0 KECCAK256 PUSH1 0x0 DUP3 DUP3 SLOAD PUSH2 0x1A0E SWAP2 SWAP1 PUSH2 0x21F4 JUMP JUMPDEST SWAP3 POP POP DUP2 SWAP1 SSTORE POP DUP3 PUSH20 0xFFFFFFFFFFFFFFFFFFFFFFFFFFFFFFFFFFFFFFFF AND CALLER PUSH20 0xFFFFFFFFFFFFFFFFFFFFFFFFFFFFFFFFFFFFFFFF AND PUSH32 0xDDF252AD1BE2C89B69C2B068FC378DAA952BA7F163C4A11628F55A4DF523B3EF DUP5 PUSH1 0x40 MLOAD PUSH2 0x1A72 SWAP2 SWAP1 PUSH2 0x2102 JUMP JUMPDEST PUSH1 0x40 MLOAD DUP1 SWAP2 SUB SWAP1 LOG3 PUSH1 0x1 SWAP1 POP SWAP3 SWAP2 POP POP JUMP JUMPDEST PUSH1 0x0 DUP2 CALLDATALOAD SWAP1 POP PUSH2 0x1A93 DUP2 PUSH2 0x269D JUMP JUMPDEST SWAP3 SWAP2 POP POP JUMP JUMPDEST PUSH1 0x0 DUP2 CALLDATALOAD SWAP1 POP PUSH2 0x1AA8 DUP2 PUSH2 0x26B4 JUMP JUMPDEST SWAP3 SWAP2 POP POP JUMP JUMPDEST PUSH1 0x0 DUP2 CALLDATALOAD SWAP1 POP PUSH2 0x1ABD DUP2 PUSH2 0x26CB JUMP JUMPDEST SWAP3 SWAP2 POP POP JUMP JUMPDEST PUSH1 0x0 PUSH1 0x20 DUP3 DUP5 SUB SLT ISZERO PUSH2 0x1AD9 JUMPI PUSH2 0x1AD8 PUSH2 0x23A3 JUMP JUMPDEST JUMPDEST PUSH1 0x0 PUSH2 0x1AE7 DUP5 DUP3 DUP6 ADD PUSH2 0x1A84 JUMP JUMPDEST SWAP2 POP POP SWAP3 SWAP2 POP POP JUMP JUMPDEST PUSH1 0x0 PUSH1 0x20 DUP3 DUP5 SUB SLT ISZERO PUSH2 0x1B06 JUMPI PUSH2 0x1B05 PUSH2 0x23A3 JUMP JUMPDEST JUMPDEST PUSH1 0x0 PUSH2 0x1B14 DUP5 DUP3 DUP6 ADD PUSH2 0x1A99 JUMP JUMPDEST SWAP2 POP POP SWAP3 SWAP2 POP POP JUMP JUMPDEST PUSH1 0x0 DUP1 PUSH1 0x40 DUP4 DUP6 SUB SLT ISZERO PUSH2 0x1B34 JUMPI PUSH2 0x1B33 PUSH2 0x23A3 JUMP JUMPDEST JUMPDEST PUSH1 0x0 PUSH2 0x1B42 DUP6 DUP3 DUP7 ADD PUSH2 0x1A84 JUMP JUMPDEST SWAP3 POP POP PUSH1 0x20 PUSH2 0x1B53 DUP6 DUP3 DUP7 ADD PUSH2 0x1A84 JUMP JUMPDEST SWAP2 POP POP SWAP3 POP SWAP3 SWAP1 POP JUMP JUMPDEST PUSH1 0x0 DUP1 PUSH1 0x0 PUSH1 0x60 DUP5 DUP7 SUB SLT ISZERO PUSH2 0x1B76 JUMPI PUSH2 0x1B75 PUSH2 0x23A3 JUMP JUMPDEST JUMPDEST PUSH1 0x0 PUSH2 0x1B84 DUP7 DUP3 DUP8 ADD PUSH2 0x1A84 JUMP JUMPDEST SWAP4 POP POP PUSH1 0x20 PUSH2 0x1B95 DUP7 DUP3 DUP8 ADD PUSH2 0x1A84 JUMP JUMPDEST SWAP3 POP POP PUSH1 0x40 PUSH2 0x1BA6 DUP7 DUP3 DUP8 ADD PUSH2 0x1AAE JUMP JUMPDEST SWAP2 POP POP SWAP3 POP SWAP3 POP SWAP3 JUMP JUMPDEST PUSH1 0x0 DUP1 PUSH1 0x40 DUP4 DUP6 SUB SLT ISZERO PUSH2 0x1BC7 JUMPI PUSH2 0x1BC6 PUSH2 0x23A3 JUMP JUMPDEST JUMPDEST PUSH1 0x0 PUSH2 0x1BD5 DUP6 DUP3 DUP7 ADD PUSH2 0x1A84 JUMP JUMPDEST SWAP3 POP POP PUSH1 0x20 PUSH2 0x1BE6 DUP6 DUP3 DUP7 ADD PUSH2 0x1AAE JUMP JUMPDEST SWAP2 POP POP SWAP3 POP SWAP3 SWAP1 POP JUMP JUMPDEST PUSH1 0x0 PUSH1 0x20 DUP3 DUP5 SUB SLT ISZERO PUSH2 0x1C06 JUMPI PUSH2 0x1C05 PUSH2 0x23A3 JUMP JUMPDEST JUMPDEST PUSH1 0x0 PUSH2 0x1C14 DUP5 DUP3 DUP6 ADD PUSH2 0x1AAE JUMP JUMPDEST SWAP2 POP POP SWAP3 SWAP2 POP POP JUMP JUMPDEST PUSH2 0x1C26 DUP2 PUSH2 0x223A JUMP JUMPDEST DUP3 MSTORE POP POP JUMP JUMPDEST PUSH2 0x1C35 DUP2 PUSH2 0x2228 JUMP JUMPDEST DUP3 MSTORE POP POP JUMP JUMPDEST PUSH2 0x1C44 DUP2 PUSH2 0x224C JUMP JUMPDEST DUP3 MSTORE POP POP JUMP JUMPDEST PUSH2 0x1C53 DUP2 PUSH2 0x2295 JUMP JUMPDEST DUP3 MSTORE POP POP JUMP JUMPDEST PUSH1 0x0 PUSH2 0x1C64 DUP3 PUSH2 0x211D JUMP JUMPDEST PUSH2 0x1C6E DUP2 DUP6 PUSH2 0x2128 JUMP JUMPDEST SWAP4 POP PUSH2 0x1C7E DUP2 DUP6 PUSH1 0x20 DUP7 ADD PUSH2 0x22A7 JUMP JUMPDEST PUSH2 0x1C87 DUP2 PUSH2 0x23A8 JUMP JUMPDEST DUP5 ADD SWAP2 POP POP SWAP3 SWAP2 POP POP JUMP JUMPDEST PUSH1 0x0 PUSH2 0x1C9D DUP3 PUSH2 0x211D JUMP JUMPDEST PUSH2 0x1CA7 DUP2 DUP6 PUSH2 0x2139 JUMP JUMPDEST SWAP4 POP PUSH2 0x1CB7 DUP2 DUP6 PUSH1 0x20 DUP7 ADD PUSH2 0x22A7 JUMP JUMPDEST DUP1 DUP5 ADD SWAP2 POP POP SWAP3 SWAP2 POP POP JUMP JUMPDEST PUSH1 0x0 PUSH2 0x1CD0 PUSH1 0x30 DUP4 PUSH2 0x2128 JUMP JUMPDEST SWAP2 POP PUSH2 0x1CDB DUP3 PUSH2 0x23B9 JUMP JUMPDEST PUSH1 0x40 DUP3 ADD SWAP1 POP SWAP2 SWAP1 POP JUMP JUMPDEST PUSH1 0x0 PUSH2 0x1CF3 PUSH1 0x1F DUP4 PUSH2 0x2128 JUMP JUMPDEST SWAP2 POP PUSH2 0x1CFE DUP3 PUSH2 0x2408 JUMP JUMPDEST PUSH1 0x20 DUP3 ADD SWAP1 POP SWAP2 SWAP1 POP JUMP JUMPDEST PUSH1 0x0 PUSH2 0x1D16 PUSH1 0x22 DUP4 PUSH2 0x2128 JUMP JUMPDEST SWAP2 POP PUSH2 0x1D21 DUP3 PUSH2 0x2431 JUMP JUMPDEST PUSH1 0x40 DUP3 ADD SWAP1 POP SWAP2 SWAP1 POP JUMP JUMPDEST PUSH1 0x0 PUSH2 0x1D39 PUSH1 0x20 DUP4 PUSH2 0x2128 JUMP JUMPDEST SWAP2 POP PUSH2 0x1D44 DUP3 PUSH2 0x2480 JUMP JUMPDEST PUSH1 0x20 DUP3 ADD SWAP1 POP SWAP2 SWAP1 POP JUMP JUMPDEST PUSH1 0x0 PUSH2 0x1D5C PUSH1 0x1F DUP4 PUSH2 0x2139 JUMP JUMPDEST SWAP2 POP PUSH2 0x1D67 DUP3 PUSH2 0x24A9 JUMP JUMPDEST PUSH1 0x1F DUP3 ADD SWAP1 POP SWAP2 SWAP1 POP JUMP JUMPDEST PUSH1 0x0 PUSH2 0x1D7F PUSH1 0x22 DUP4 PUSH2 0x2128 JUMP JUMPDEST SWAP2 POP PUSH2 0x1D8A DUP3 PUSH2 0x24D2 JUMP JUMPDEST PUSH1 0x40 DUP3 ADD SWAP1 POP SWAP2 SWAP1 POP JUMP JUMPDEST PUSH1 0x0 PUSH2 0x1DA2 PUSH1 0x30 DUP4 PUSH2 0x2128 JUMP JUMPDEST SWAP2 POP PUSH2 0x1DAD DUP3 PUSH2 0x2521 JUMP JUMPDEST PUSH1 0x40 DUP3 ADD SWAP1 POP SWAP2 SWAP1 POP JUMP JUMPDEST PUSH1 0x0 PUSH2 0x1DC5 PUSH1 0x1E DUP4 PUSH2 0x2128 JUMP JUMPDEST SWAP2 POP PUSH2 0x1DD0 DUP3 PUSH2 0x2570 JUMP JUMPDEST PUSH1 0x20 DUP3 ADD SWAP1 POP SWAP2 SWAP1 POP JUMP JUMPDEST PUSH1 0x0 PUSH2 0x1DE8 PUSH1 0x30 DUP4 PUSH2 0x2128 JUMP JUMPDEST SWAP2 POP PUSH2 0x1DF3 DUP3 PUSH2 0x2599 JUMP JUMPDEST PUSH1 0x40 DUP3 ADD SWAP1 POP SWAP2 SWAP1 POP JUMP JUMPDEST PUSH1 0x0 PUSH2 0x1E0B PUSH1 0x21 DUP4 PUSH2 0x2139 JUMP JUMPDEST SWAP2 POP PUSH2 0x1E16 DUP3 PUSH2 0x25E8 JUMP JUMPDEST PUSH1 0x21 DUP3 ADD SWAP1 POP SWAP2 SWAP1 POP JUMP JUMPDEST PUSH1 0x0 PUSH2 0x1E2E PUSH1 0x1C DUP4 PUSH2 0x2128 JUMP JUMPDEST SWAP2 POP PUSH2 0x1E39 DUP3 PUSH2 0x2637 JUMP JUMPDEST PUSH1 0x20 DUP3 ADD SWAP1 POP SWAP2 SWAP1 POP JUMP JUMPDEST PUSH1 0x0 PUSH2 0x1E51 PUSH1 0x12 DUP4 PUSH2 0x2128 JUMP JUMPDEST SWAP2 POP PUSH2 0x1E5C DUP3 PUSH2 0x2660 JUMP JUMPDEST PUSH1 0x20 DUP3 ADD SWAP1 POP SWAP2 SWAP1 POP JUMP JUMPDEST PUSH2 0x1E70 DUP2 PUSH2 0x228B JUMP JUMPDEST DUP3 MSTORE POP POP JUMP JUMPDEST PUSH2 0x1E87 PUSH2 0x1E82 DUP3 PUSH2 0x228B JUMP JUMPDEST PUSH2 0x230C JUMP JUMPDEST DUP3 MSTORE POP POP JUMP JUMPDEST PUSH1 0x0 PUSH2 0x1E99 DUP3 DUP6 PUSH2 0x1C92 JUMP JUMPDEST SWAP2 POP PUSH2 0x1EA5 DUP3 DUP5 PUSH2 0x1C92 JUMP JUMPDEST SWAP2 POP DUP2 SWAP1 POP SWAP4 SWAP3 POP POP POP JUMP JUMPDEST PUSH1 0x0 PUSH2 0x1EBC DUP3 PUSH2 0x1D4F JUMP JUMPDEST SWAP2 POP PUSH2 0x1EC8 DUP3 DUP5 PUSH2 0x1E76 JUMP JUMPDEST PUSH1 0x20 DUP3 ADD SWAP2 POP DUP2 SWAP1 POP SWAP3 SWAP2 POP POP JUMP JUMPDEST PUSH1 0x0 PUSH2 0x1EE2 DUP3 PUSH2 0x1DFE JUMP JUMPDEST SWAP2 POP PUSH2 0x1EEE DUP3 DUP5 PUSH2 0x1E76 JUMP JUMPDEST PUSH1 0x20 DUP3 ADD SWAP2 POP DUP2 SWAP1 POP SWAP3 SWAP2 POP POP JUMP JUMPDEST PUSH1 0x0 PUSH1 0x20 DUP3 ADD SWAP1 POP PUSH2 0x1F12 PUSH1 0x0 DUP4 ADD DUP5 PUSH2 0x1C2C JUMP JUMPDEST SWAP3 SWAP2 POP POP JUMP JUMPDEST PUSH1 0x0 PUSH1 0x20 DUP3 ADD SWAP1 POP PUSH2 0x1F2D PUSH1 0x0 DUP4 ADD DUP5 PUSH2 0x1C1D JUMP JUMPDEST SWAP3 SWAP2 POP POP JUMP JUMPDEST PUSH1 0x0 PUSH1 0x60 DUP3 ADD SWAP1 POP PUSH2 0x1F48 PUSH1 0x0 DUP4 ADD DUP7 PUSH2 0x1C2C JUMP JUMPDEST PUSH2 0x1F55 PUSH1 0x20 DUP4 ADD DUP6 PUSH2 0x1E67 JUMP JUMPDEST PUSH2 0x1F62 PUSH1 0x40 DUP4 ADD DUP5 PUSH2 0x1E67 JUMP JUMPDEST SWAP5 SWAP4 POP POP POP POP JUMP JUMPDEST PUSH1 0x0 PUSH1 0x20 DUP3 ADD SWAP1 POP PUSH2 0x1F7F PUSH1 0x0 DUP4 ADD DUP5 PUSH2 0x1C3B JUMP JUMPDEST SWAP3 SWAP2 POP POP JUMP JUMPDEST PUSH1 0x0 PUSH1 0x20 DUP3 ADD SWAP1 POP PUSH2 0x1F9A PUSH1 0x0 DUP4 ADD DUP5 PUSH2 0x1C4A JUMP JUMPDEST SWAP3 SWAP2 POP POP JUMP JUMPDEST PUSH1 0x0 PUSH1 0x20 DUP3 ADD SWAP1 POP DUP2 DUP2 SUB PUSH1 0x0 DUP4 ADD MSTORE PUSH2 0x1FBA DUP2 DUP5 PUSH2 0x1C59 JUMP JUMPDEST SWAP1 POP SWAP3 SWAP2 POP POP JUMP JUMPDEST PUSH1 0x0 PUSH1 0x20 DUP3 ADD SWAP1 POP DUP2 DUP2 SUB PUSH1 0x0 DUP4 ADD MSTORE PUSH2 0x1FDB DUP2 PUSH2 0x1CC3 JUMP JUMPDEST SWAP1 POP SWAP2 SWAP1 POP JUMP JUMPDEST PUSH1 0x0 PUSH1 0x20 DUP3 ADD SWAP1 POP DUP2 DUP2 SUB PUSH1 0x0 DUP4 ADD MSTORE PUSH2 0x1FFB DUP2 PUSH2 0x1CE6 JUMP JUMPDEST SWAP1 POP SWAP2 SWAP1 POP JUMP JUMPDEST PUSH1 0x0 PUSH1 0x20 DUP3 ADD SWAP1 POP DUP2 DUP2 SUB PUSH1 0x0 DUP4 ADD MSTORE PUSH2 0x201B DUP2 PUSH2 0x1D09 JUMP JUMPDEST SWAP1 POP SWAP2 SWAP1 POP JUMP JUMPDEST PUSH1 0x0 PUSH1 0x20 DUP3 ADD SWAP1 POP DUP2 DUP2 SUB PUSH1 0x0 DUP4 ADD MSTORE PUSH2 0x203B DUP2 PUSH2 0x1D2C JUMP JUMPDEST SWAP1 POP SWAP2 SWAP1 POP JUMP JUMPDEST PUSH1 0x0 PUSH1 0x20 DUP3 ADD SWAP1 POP DUP2 DUP2 SUB PUSH1 0x0 DUP4 ADD MSTORE PUSH2 0x205B DUP2 PUSH2 0x1D72 JUMP JUMPDEST SWAP1 POP SWAP2 SWAP1 POP JUMP JUMPDEST PUSH1 0x0 PUSH1 0x20 DUP3 ADD SWAP1 POP DUP2 DUP2 SUB PUSH1 0x0 DUP4 ADD MSTORE PUSH2 0x207B DUP2 PUSH2 0x1D95 JUMP JUMPDEST SWAP1 POP SWAP2 SWAP1 POP JUMP JUMPDEST PUSH1 0x0 PUSH1 0x20 DUP3 ADD SWAP1 POP DUP2 DUP2 SUB PUSH1 0x0 DUP4 ADD MSTORE PUSH2 0x209B DUP2 PUSH2 0x1DB8 JUMP JUMPDEST SWAP1 POP SWAP2 SWAP1 POP JUMP JUMPDEST PUSH1 0x0 PUSH1 0x20 DUP3 ADD SWAP1 POP DUP2 DUP2 SUB PUSH1 0x0 DUP4 ADD MSTORE PUSH2 0x20BB DUP2 PUSH2 0x1DDB JUMP JUMPDEST SWAP1 POP SWAP2 SWAP1 POP JUMP JUMPDEST PUSH1 0x0 PUSH1 0x20 DUP3 ADD SWAP1 POP DUP2 DUP2 SUB PUSH1 0x0 DUP4 ADD MSTORE PUSH2 0x20DB DUP2 PUSH2 0x1E21 JUMP JUMPDEST SWAP1 POP SWAP2 SWAP1 POP JUMP JUMPDEST PUSH1 0x0 PUSH1 0x20 DUP3 ADD SWAP1 POP DUP2 DUP2 SUB PUSH1 0x0 DUP4 ADD MSTORE PUSH2 0x20FB DUP2 PUSH2 0x1E44 JUMP JUMPDEST SWAP1 POP SWAP2 SWAP1 POP JUMP JUMPDEST PUSH1 0x0 PUSH1 0x20 DUP3 ADD SWAP1 POP PUSH2 0x2117 PUSH1 0x0 DUP4 ADD DUP5 PUSH2 0x1E67 JUMP JUMPDEST SWAP3 SWAP2 POP POP JUMP JUMPDEST PUSH1 0x0 DUP2 MLOAD SWAP1 POP SWAP2 SWAP1 POP JUMP JUMPDEST PUSH1 0x0 DUP3 DUP3 MSTORE PUSH1 0x20 DUP3 ADD SWAP1 POP SWAP3 SWAP2 POP POP JUMP JUMPDEST PUSH1 0x0 DUP2 SWAP1 POP SWAP3 SWAP2 POP POP JUMP JUMPDEST PUSH1 0x0 PUSH2 0x214F DUP3 PUSH2 0x228B JUMP JUMPDEST SWAP2 POP PUSH2 0x215A DUP4 PUSH2 0x228B JUMP JUMPDEST SWAP3 POP DUP3 PUSH32 0xFFFFFFFFFFFFFFFFFFFFFFFFFFFFFFFFFFFFFFFFFFFFFFFFFFFFFFFFFFFFFFFF SUB DUP3 GT ISZERO PUSH2 0x218F JUMPI PUSH2 0x218E PUSH2 0x2316 JUMP JUMPDEST JUMPDEST DUP3 DUP3 ADD SWAP1 POP SWAP3 SWAP2 POP POP JUMP JUMPDEST PUSH1 0x0 PUSH2 0x21A5 DUP3 PUSH2 0x228B JUMP JUMPDEST SWAP2 POP PUSH2 0x21B0 DUP4 PUSH2 0x228B JUMP JUMPDEST SWAP3 POP DUP2 PUSH32 0xFFFFFFFFFFFFFFFFFFFFFFFFFFFFFFFFFFFFFFFFFFFFFFFFFFFFFFFFFFFFFFFF DIV DUP4 GT DUP3 ISZERO ISZERO AND ISZERO PUSH2 0x21E9 JUMPI PUSH2 0x21E8 PUSH2 0x2316 JUMP JUMPDEST JUMPDEST DUP3 DUP3 MUL SWAP1 POP SWAP3 SWAP2 POP POP JUMP JUMPDEST PUSH1 0x0 PUSH2 0x21FF DUP3 PUSH2 0x228B JUMP JUMPDEST SWAP2 POP PUSH2 0x220A DUP4 PUSH2 0x228B JUMP JUMPDEST SWAP3 POP DUP3 DUP3 LT ISZERO PUSH2 0x221D JUMPI PUSH2 0x221C PUSH2 0x2316 JUMP JUMPDEST JUMPDEST DUP3 DUP3 SUB SWAP1 POP SWAP3 SWAP2 POP POP JUMP JUMPDEST PUSH1 0x0 PUSH2 0x2233 DUP3 PUSH2 0x226B JUMP JUMPDEST SWAP1 POP SWAP2 SWAP1 POP JUMP JUMPDEST PUSH1 0x0 PUSH2 0x2245 DUP3 PUSH2 0x226B JUMP JUMPDEST SWAP1 POP SWAP2 SWAP1 POP JUMP JUMPDEST PUSH1 0x0 DUP2 ISZERO ISZERO SWAP1 POP SWAP2 SWAP1 POP JUMP JUMPDEST PUSH1 0x0 DUP2 SWAP1 POP PUSH2 0x2266 DUP3 PUSH2 0x2689 JUMP JUMPDEST SWAP2 SWAP1 POP JUMP JUMPDEST PUSH1 0x0 PUSH20 0xFFFFFFFFFFFFFFFFFFFFFFFFFFFFFFFFFFFFFFFF DUP3 AND SWAP1 POP SWAP2 SWAP1 POP JUMP JUMPDEST PUSH1 0x0 DUP2 SWAP1 POP SWAP2 SWAP1 POP JUMP JUMPDEST PUSH1 0x0 PUSH2 0x22A0 DUP3 PUSH2 0x2258 JUMP JUMPDEST SWAP1 POP SWAP2 SWAP1 POP JUMP JUMPDEST PUSH1 0x0 JUMPDEST DUP4 DUP2 LT ISZERO PUSH2 0x22C5 JUMPI DUP1 DUP3 ADD MLOAD DUP2 DUP5 ADD MSTORE PUSH1 0x20 DUP2 ADD SWAP1 POP PUSH2 0x22AA JUMP JUMPDEST DUP4 DUP2 GT ISZERO PUSH2 0x22D4 JUMPI PUSH1 0x0 DUP5 DUP5 ADD MSTORE JUMPDEST POP POP POP POP JUMP JUMPDEST PUSH1 0x0 PUSH1 0x2 DUP3 DIV SWAP1 POP PUSH1 0x1 DUP3 AND DUP1 PUSH2 0x22F2 JUMPI PUSH1 0x7F DUP3 AND SWAP2 POP JUMPDEST PUSH1 0x20 DUP3 LT DUP2 EQ ISZERO PUSH2 0x2306 JUMPI PUSH2 0x2305 PUSH2 0x2374 JUMP JUMPDEST JUMPDEST POP SWAP2 SWAP1 POP JUMP JUMPDEST PUSH1 0x0 DUP2 SWAP1 POP SWAP2 SWAP1 POP JUMP JUMPDEST PUSH32 0x4E487B7100000000000000000000000000000000000000000000000000000000 PUSH1 0x0 MSTORE PUSH1 0x11 PUSH1 0x4 MSTORE PUSH1 0x24 PUSH1 0x0 REVERT JUMPDEST PUSH32 0x4E487B7100000000000000000000000000000000000000000000000000000000 PUSH1 0x0 MSTORE PUSH1 0x21 PUSH1 0x4 MSTORE PUSH1 0x24 PUSH1 0x0 REVERT JUMPDEST PUSH32 0x4E487B7100000000000000000000000000000000000000000000000000000000 PUSH1 0x0 MSTORE PUSH1 0x22 PUSH1 0x4 MSTORE PUSH1 0x24 PUSH1 0x0 REVERT JUMPDEST PUSH1 0x0 DUP1 REVERT JUMPDEST PUSH1 0x0 PUSH1 0x1F NOT PUSH1 0x1F DUP4 ADD AND SWAP1 POP SWAP2 SWAP1 POP JUMP JUMPDEST PUSH32 0x546F6B656E2076616C75652069732067726561746572207468616E2074686520 PUSH1 0x0 DUP3 ADD MSTORE PUSH32 0x617070726F7665642062616C616E636500000000000000000000000000000000 PUSH1 0x20 DUP3 ADD MSTORE POP JUMP JUMPDEST PUSH32 0x546F6B656E2073616C6573206973206E6F74207965742066696E697368656400 PUSH1 0x0 DUP3 ADD MSTORE POP JUMP JUMPDEST PUSH32 0x546F6B656E2076616C7565206D7573742062652067726561746572207468616E PUSH1 0x0 DUP3 ADD MSTORE PUSH32 0x2030000000000000000000000000000000000000000000000000000000000000 PUSH1 0x20 DUP3 ADD MSTORE POP JUMP JUMPDEST PUSH32 0x416D6F756E74206D7573742062652067726561746572207468616E207A65726F PUSH1 0x0 DUP3 ADD MSTORE POP JUMP JUMPDEST PUSH32 0x416D6F756E742063616E6E6F74206E6F74206265206C6F776572207468616E00 PUSH1 0x0 DUP3 ADD MSTORE POP JUMP JUMPDEST PUSH32 0x4163636573732064656E6965642C20796F75206165206E6F7420616E2061646D PUSH1 0x0 DUP3 ADD MSTORE PUSH32 0x696E000000000000000000000000000000000000000000000000000000000000 PUSH1 0x20 DUP3 ADD MSTORE POP JUMP JUMPDEST PUSH32 0x546F6B656E2076616C75652069732067726561746572207468616E20796F7572 PUSH1 0x0 DUP3 ADD MSTORE PUSH32 0x2063757272656E7420686F6C64696E6700000000000000000000000000000000 PUSH1 0x20 DUP3 ADD MSTORE POP JUMP JUMPDEST PUSH32 0x4E6F20746F6B656E20617661696C61626C6520666F72206275726E696E670000 PUSH1 0x0 DUP3 ADD MSTORE POP JUMP JUMPDEST PUSH32 0x546865206D6178696D756D20616D6F756E7420746F2062652072616973656420 PUSH1 0x0 DUP3 ADD MSTORE PUSH32 0x686173206265656E207265616368656400000000000000000000000000000000 PUSH1 0x20 DUP3 ADD MSTORE POP JUMP JUMPDEST PUSH32 0x416D6F756E742063616E6E6F74206E6F74206265206869676768657220746861 PUSH1 0x0 DUP3 ADD MSTORE PUSH32 0x6E00000000000000000000000000000000000000000000000000000000000000 PUSH1 0x20 DUP3 ADD MSTORE POP JUMP JUMPDEST PUSH32 0x496E73756666696369656E74204163636F756E742042616C616E636500000000 PUSH1 0x0 DUP3 ADD MSTORE POP JUMP JUMPDEST PUSH32 0x496E737566696369656E742042616C6E63650000000000000000000000000000 PUSH1 0x0 DUP3 ADD MSTORE POP JUMP JUMPDEST PUSH1 0x5 DUP2 LT PUSH2 0x269A JUMPI PUSH2 0x2699 PUSH2 0x2345 JUMP JUMPDEST JUMPDEST POP JUMP JUMPDEST PUSH2 0x26A6 DUP2 PUSH2 0x2228 JUMP JUMPDEST DUP2 EQ PUSH2 0x26B1 JUMPI PUSH1 0x0 DUP1 REVERT JUMPDEST POP JUMP JUMPDEST PUSH2 0x26BD DUP2 PUSH2 0x223A JUMP JUMPDEST DUP2 EQ PUSH2 0x26C8 JUMPI PUSH1 0x0 DUP1 REVERT JUMPDEST POP JUMP JUMPDEST PUSH2 0x26D4 DUP2 PUSH2 0x228B JUMP JUMPDEST DUP2 EQ PUSH2 0x26DF JUMPI PUSH1 0x0 DUP1 REVERT JUMPDEST POP JUMP INVALID LOG2 PUSH5 0x6970667358 0x22 SLT KECCAK256 DUP8 PUSH1 0xD4 0x21 0xB3 SWAP1 0xB2 0xE9 CALLVALUE PUSH16 0x723CD03AC07B567130CB8E136E626F66 0xA6 0xD3 CALLDATACOPY 0xBA PUSH2 0xEC64 PUSH20 0x6F6C634300080700330000000000000000000000 "
				},
				"gasEstimates": {
					"creation": {
						"codeDepositCost": "2001600",
						"executionCost": "infinite",
						"totalCost": "infinite"
					},
					"external": {
						"admin()": "2602",
						"allowance(address,address)": "infinite",
						"allowed(address,address)": "infinite",
						"approve(address,uint256)": "infinite",
						"balanceOf(address)": "2931",
						"balances(address)": "2926",
						"burnTokens()": "35680",
						"changeDepositAddress(address)": "27010",
						"changeMaximumAmount(uint256)": "24801",
						"changeMinimumAmount(uint256)": "24735",
						"checkIcoState()": "9123",
						"decimals()": "2519",
						"depositAddress()": "2610",
						"endTime()": "2474",
						"founder()": "2603",
						"halt()": "26647",
						"hardCap()": "2539",
						"icoState()": "2627",
						"invest()": "infinite",
						"maximumAmount()": "2474",
						"minimumAmount()": "2496",
						"name()": "infinite",
						"raisedAmount()": "2518",
						"resume()": "26648",
						"startTime()": "2496",
						"symbol()": "infinite",
						"totalSupply()": "2497",
						"transfer(address,uint256)": "infinite",
						"transferFrom(address,address,uint256)": "infinite"
					}
				},
				"methodIdentifiers": {
					"admin()": "f851a440",
					"allowance(address,address)": "dd62ed3e",
					"allowed(address,address)": "5c658165",
					"approve(address,uint256)": "095ea7b3",
					"balanceOf(address)": "70a08231",
					"balances(address)": "27e235e3",
					"burnTokens()": "08003f78",
					"changeDepositAddress(address)": "6d58c88f",
					"changeMaximumAmount(uint256)": "cf942c79",
					"changeMinimumAmount(uint256)": "77eab3e3",
					"checkIcoState()": "2942b61a",
					"decimals()": "313ce567",
					"depositAddress()": "28f833b7",
					"endTime()": "3197cbb6",
					"founder()": "4d853ee5",
					"halt()": "5ed7ca5b",
					"hardCap()": "fb86a404",
					"icoState()": "44f38756",
					"invest()": "e8b5e51f",
					"maximumAmount()": "a9bcea61",
					"minimumAmount()": "bb0c8298",
					"name()": "06fdde03",
					"raisedAmount()": "c59ee1dc",
					"resume()": "046f7da2",
					"startTime()": "78e97925",
					"symbol()": "95d89b41",
					"totalSupply()": "18160ddd",
					"transfer(address,uint256)": "a9059cbb",
					"transferFrom(address,address,uint256)": "23b872dd"
				}
			},
			"storageLayout": {
				"storage": [
					{
						"astId": 73,
						"contract": "contracts/Erc20token.sol:icoContract",
						"label": "name",
						"offset": 0,
						"slot": "0",
						"type": "t_string_storage"
					},
					{
						"astId": 76,
						"contract": "contracts/Erc20token.sol:icoContract",
						"label": "symbol",
						"offset": 0,
						"slot": "1",
						"type": "t_string_storage"
					},
					{
						"astId": 79,
						"contract": "contracts/Erc20token.sol:icoContract",
						"label": "decimals",
						"offset": 0,
						"slot": "2",
						"type": "t_uint256"
					},
					{
						"astId": 81,
						"contract": "contracts/Erc20token.sol:icoContract",
						"label": "founder",
						"offset": 0,
						"slot": "3",
						"type": "t_address"
					},
					{
						"astId": 84,
						"contract": "contracts/Erc20token.sol:icoContract",
						"label": "totalSupply",
						"offset": 0,
						"slot": "4",
						"type": "t_uint256"
					},
					{
						"astId": 88,
						"contract": "contracts/Erc20token.sol:icoContract",
						"label": "balances",
						"offset": 0,
						"slot": "5",
						"type": "t_mapping(t_address,t_uint256)"
					},
					{
						"astId": 94,
						"contract": "contracts/Erc20token.sol:icoContract",
						"label": "allowed",
						"offset": 0,
						"slot": "6",
						"type": "t_mapping(t_address,t_mapping(t_address,t_uint256))"
					},
					{
						"astId": 307,
						"contract": "contracts/Erc20token.sol:icoContract",
						"label": "admin",
						"offset": 0,
						"slot": "7",
						"type": "t_address"
					},
					{
						"astId": 310,
						"contract": "contracts/Erc20token.sol:icoContract",
						"label": "tokenPrice",
						"offset": 0,
						"slot": "8",
						"type": "t_uint256"
					},
					{
						"astId": 312,
						"contract": "contracts/Erc20token.sol:icoContract",
						"label": "raisedAmount",
						"offset": 0,
						"slot": "9",
						"type": "t_uint256"
					},
					{
						"astId": 315,
						"contract": "contracts/Erc20token.sol:icoContract",
						"label": "hardCap",
						"offset": 0,
						"slot": "10",
						"type": "t_uint256"
					},
					{
						"astId": 325,
						"contract": "contracts/Erc20token.sol:icoContract",
						"label": "startTime",
						"offset": 0,
						"slot": "11",
						"type": "t_uint256"
					},
					{
						"astId": 327,
						"contract": "contracts/Erc20token.sol:icoContract",
						"label": "endTime",
						"offset": 0,
						"slot": "12",
						"type": "t_uint256"
					},
					{
						"astId": 330,
						"contract": "contracts/Erc20token.sol:icoContract",
						"label": "minimumAmount",
						"offset": 0,
						"slot": "13",
						"type": "t_uint256"
					},
					{
						"astId": 333,
						"contract": "contracts/Erc20token.sol:icoContract",
						"label": "maximumAmount",
						"offset": 0,
						"slot": "14",
						"type": "t_uint256"
					},
					{
						"astId": 336,
						"contract": "contracts/Erc20token.sol:icoContract",
						"label": "icoState",
						"offset": 0,
						"slot": "15",
						"type": "t_enum(State)321"
					},
					{
						"astId": 338,
						"contract": "contracts/Erc20token.sol:icoContract",
						"label": "depositAddress",
						"offset": 1,
						"slot": "15",
						"type": "t_address_payable"
					}
				],
				"types": {
					"t_address": {
						"encoding": "inplace",
						"label": "address",
						"numberOfBytes": "20"
					},
					"t_address_payable": {
						"encoding": "inplace",
						"label": "address payable",
						"numberOfBytes": "20"
					},
					"t_enum(State)321": {
						"encoding": "inplace",
						"label": "enum icoContract.State",
						"numberOfBytes": "1"
					},
					"t_mapping(t_address,t_mapping(t_address,t_uint256))": {
						"encoding": "mapping",
						"key": "t_address",
						"label": "mapping(address => mapping(address => uint256))",
						"numberOfBytes": "32",
						"value": "t_mapping(t_address,t_uint256)"
					},
					"t_mapping(t_address,t_uint256)": {
						"encoding": "mapping",
						"key": "t_address",
						"label": "mapping(address => uint256)",
						"numberOfBytes": "32",
						"value": "t_uint256"
					},
					"t_string_storage": {
						"encoding": "bytes",
						"label": "string",
						"numberOfBytes": "32"
					},
					"t_uint256": {
						"encoding": "inplace",
						"label": "uint256",
						"numberOfBytes": "32"
					}
				}
			},
			"userdoc": {
				"kind": "user",
				"methods": {},
				"version": 1
			}
		}
	}
}