{
	"contracts/Crowdfunding.sol": {
		"CrowdFunding": {
			"abi": [
				{
					"inputs": [
						{
							"internalType": "uint256",
							"name": "_goal",
							"type": "uint256"
						},
						{
							"internalType": "uint256",
							"name": "_deadLine",
							"type": "uint256"
						}
					],
					"stateMutability": "nonpayable",
					"type": "constructor"
				},
				{
					"inputs": [],
					"name": "admin",
					"outputs": [
						{
							"internalType": "address",
							"name": "",
							"type": "address"
						}
					],
					"stateMutability": "view",
					"type": "function"
				},
				{
					"inputs": [],
					"name": "contribute",
					"outputs": [],
					"stateMutability": "payable",
					"type": "function"
				},
				{
					"inputs": [
						{
							"internalType": "address",
							"name": "",
							"type": "address"
						}
					],
					"name": "contributors",
					"outputs": [
						{
							"internalType": "uint256",
							"name": "",
							"type": "uint256"
						}
					],
					"stateMutability": "view",
					"type": "function"
				},
				{
					"inputs": [
						{
							"internalType": "string",
							"name": "_description",
							"type": "string"
						},
						{
							"internalType": "uint256",
							"name": "_amount",
							"type": "uint256"
						},
						{
							"internalType": "address payable",
							"name": "receiptient",
							"type": "address"
						}
					],
					"name": "createRequest",
					"outputs": [],
					"stateMutability": "nonpayable",
					"type": "function"
				},
				{
					"inputs": [],
					"name": "deadLine",
					"outputs": [
						{
							"internalType": "uint256",
							"name": "",
							"type": "uint256"
						}
					],
					"stateMutability": "view",
					"type": "function"
				},
				{
					"inputs": [],
					"name": "getBalance",
					"outputs": [
						{
							"internalType": "uint256",
							"name": "",
							"type": "uint256"
						}
					],
					"stateMutability": "view",
					"type": "function"
				},
				{
					"inputs": [],
					"name": "getRefund",
					"outputs": [],
					"stateMutability": "nonpayable",
					"type": "function"
				},
				{
					"inputs": [],
					"name": "goal",
					"outputs": [
						{
							"internalType": "uint256",
							"name": "",
							"type": "uint256"
						}
					],
					"stateMutability": "view",
					"type": "function"
				},
				{
					"inputs": [],
					"name": "minimumAmount",
					"outputs": [
						{
							"internalType": "uint256",
							"name": "",
							"type": "uint256"
						}
					],
					"stateMutability": "view",
					"type": "function"
				},
				{
					"inputs": [],
					"name": "noOfRequests",
					"outputs": [
						{
							"internalType": "uint256",
							"name": "",
							"type": "uint256"
						}
					],
					"stateMutability": "view",
					"type": "function"
				},
				{
					"inputs": [],
					"name": "numberOfContributors",
					"outputs": [
						{
							"internalType": "uint256",
							"name": "",
							"type": "uint256"
						}
					],
					"stateMutability": "view",
					"type": "function"
				},
				{
					"inputs": [],
					"name": "totalAmount",
					"outputs": [
						{
							"internalType": "uint256",
							"name": "",
							"type": "uint256"
						}
					],
					"stateMutability": "view",
					"type": "function"
				},
				{
					"stateMutability": "payable",
					"type": "receive"
				}
			],
			"devdoc": {
				"kind": "dev",
				"methods": {},
				"version": 1
			},
			"evm": {
				"assembly": "    /* \"contracts/Crowdfunding.sol\":74:3361  contract CrowdFunding{\r... */\n  mstore(0x40, 0x80)\n    /* \"contracts/Crowdfunding.sol\":970:1154  constructor(uint _goal, uint _deadLine){\r... */\n  callvalue\n  dup1\n  iszero\n  tag_1\n  jumpi\n  0x00\n  dup1\n  revert\ntag_1:\n  pop\n  mload(0x40)\n  sub(codesize, bytecodeSize)\n  dup1\n  bytecodeSize\n  dup4\n  codecopy\n  dup2\n  dup2\n  add\n  0x40\n  mstore\n  dup2\n  add\n  swap1\n  tag_2\n  swap2\n  swap1\n  tag_3\n  jump\t// in\ntag_2:\n    /* \"contracts/Crowdfunding.sol\":1027:1032  _goal */\n  dup2\n    /* \"contracts/Crowdfunding.sol\":1020:1024  goal */\n  0x02\n    /* \"contracts/Crowdfunding.sol\":1020:1032  goal = _goal */\n  dup2\n  swap1\n  sstore\n  pop\n    /* \"contracts/Crowdfunding.sol\":1072:1081  _deadLine */\n  dup1\n    /* \"contracts/Crowdfunding.sol\":1054:1069  block.timestamp */\n  timestamp\n    /* \"contracts/Crowdfunding.sol\":1054:1081  block.timestamp + _deadLine */\n  tag_6\n  swap2\n  swap1\n  tag_7\n  jump\t// in\ntag_6:\n    /* \"contracts/Crowdfunding.sol\":1043:1051  deadLine */\n  0x03\n    /* \"contracts/Crowdfunding.sol\":1043:1081  deadLine = block.timestamp + _deadLine */\n  dup2\n  swap1\n  sstore\n  pop\n    /* \"contracts/Crowdfunding.sol\":1100:1110  msg.sender */\n  caller\n    /* \"contracts/Crowdfunding.sol\":1092:1097  admin */\n  0x01\n  0x00\n    /* \"contracts/Crowdfunding.sol\":1092:1110  admin = msg.sender */\n  0x0100\n  exp\n  dup2\n  sload\n  dup2\n  0xffffffffffffffffffffffffffffffffffffffff\n  mul\n  not\n  and\n  swap1\n  dup4\n  0xffffffffffffffffffffffffffffffffffffffff\n  and\n  mul\n  or\n  swap1\n  sstore\n  pop\n    /* \"contracts/Crowdfunding.sol\":1137:1146  100 ether */\n  0x056bc75e2d63100000\n    /* \"contracts/Crowdfunding.sol\":1121:1134  minimumAmount */\n  0x04\n    /* \"contracts/Crowdfunding.sol\":1121:1146  minimumAmount = 100 ether */\n  dup2\n  swap1\n  sstore\n  pop\n    /* \"contracts/Crowdfunding.sol\":970:1154  constructor(uint _goal, uint _deadLine){\r... */\n  pop\n  pop\n    /* \"contracts/Crowdfunding.sol\":74:3361  contract CrowdFunding{\r... */\n  jump(tag_8)\n    /* \"#utility.yul\":7:150   */\ntag_10:\n    /* \"#utility.yul\":64:69   */\n  0x00\n    /* \"#utility.yul\":95:101   */\n  dup2\n    /* \"#utility.yul\":89:102   */\n  mload\n    /* \"#utility.yul\":80:102   */\n  swap1\n  pop\n    /* \"#utility.yul\":111:144   */\n  tag_12\n    /* \"#utility.yul\":138:143   */\n  dup2\n    /* \"#utility.yul\":111:144   */\n  tag_13\n  jump\t// in\ntag_12:\n    /* \"#utility.yul\":7:150   */\n  swap3\n  swap2\n  pop\n  pop\n  jump\t// out\n    /* \"#utility.yul\":156:663   */\ntag_3:\n    /* \"#utility.yul\":235:241   */\n  0x00\n    /* \"#utility.yul\":243:249   */\n  dup1\n    /* \"#utility.yul\":292:294   */\n  0x40\n    /* \"#utility.yul\":280:289   */\n  dup4\n    /* \"#utility.yul\":271:278   */\n  dup6\n    /* \"#utility.yul\":267:290   */\n  sub\n    /* \"#utility.yul\":263:295   */\n  slt\n    /* \"#utility.yul\":260:379   */\n  iszero\n  tag_15\n  jumpi\n    /* \"#utility.yul\":298:377   */\n  tag_16\n  tag_17\n  jump\t// in\ntag_16:\n    /* \"#utility.yul\":260:379   */\ntag_15:\n    /* \"#utility.yul\":418:419   */\n  0x00\n    /* \"#utility.yul\":443:507   */\n  tag_18\n    /* \"#utility.yul\":499:506   */\n  dup6\n    /* \"#utility.yul\":490:496   */\n  dup3\n    /* \"#utility.yul\":479:488   */\n  dup7\n    /* \"#utility.yul\":475:497   */\n  add\n    /* \"#utility.yul\":443:507   */\n  tag_10\n  jump\t// in\ntag_18:\n    /* \"#utility.yul\":433:507   */\n  swap3\n  pop\n    /* \"#utility.yul\":389:517   */\n  pop\n    /* \"#utility.yul\":556:558   */\n  0x20\n    /* \"#utility.yul\":582:646   */\n  tag_19\n    /* \"#utility.yul\":638:645   */\n  dup6\n    /* \"#utility.yul\":629:635   */\n  dup3\n    /* \"#utility.yul\":618:627   */\n  dup7\n    /* \"#utility.yul\":614:636   */\n  add\n    /* \"#utility.yul\":582:646   */\n  tag_10\n  jump\t// in\ntag_19:\n    /* \"#utility.yul\":572:646   */\n  swap2\n  pop\n    /* \"#utility.yul\":527:656   */\n  pop\n    /* \"#utility.yul\":156:663   */\n  swap3\n  pop\n  swap3\n  swap1\n  pop\n  jump\t// out\n    /* \"#utility.yul\":750:1055   */\ntag_7:\n    /* \"#utility.yul\":790:793   */\n  0x00\n    /* \"#utility.yul\":809:829   */\n  tag_23\n    /* \"#utility.yul\":827:828   */\n  dup3\n    /* \"#utility.yul\":809:829   */\n  tag_24\n  jump\t// in\ntag_23:\n    /* \"#utility.yul\":804:829   */\n  swap2\n  pop\n    /* \"#utility.yul\":843:863   */\n  tag_25\n    /* \"#utility.yul\":861:862   */\n  dup4\n    /* \"#utility.yul\":843:863   */\n  tag_24\n  jump\t// in\ntag_25:\n    /* \"#utility.yul\":838:863   */\n  swap3\n  pop\n    /* \"#utility.yul\":997:998   */\n  dup3\n    /* \"#utility.yul\":929:995   */\n  0xffffffffffffffffffffffffffffffffffffffffffffffffffffffffffffffff\n    /* \"#utility.yul\":925:999   */\n  sub\n    /* \"#utility.yul\":922:923   */\n  dup3\n    /* \"#utility.yul\":919:1000   */\n  gt\n    /* \"#utility.yul\":916:1023   */\n  iszero\n  tag_26\n  jumpi\n    /* \"#utility.yul\":1003:1021   */\n  tag_27\n  tag_28\n  jump\t// in\ntag_27:\n    /* \"#utility.yul\":916:1023   */\ntag_26:\n    /* \"#utility.yul\":1047:1048   */\n  dup3\n    /* \"#utility.yul\":1044:1045   */\n  dup3\n    /* \"#utility.yul\":1040:1049   */\n  add\n    /* \"#utility.yul\":1033:1049   */\n  swap1\n  pop\n    /* \"#utility.yul\":750:1055   */\n  swap3\n  swap2\n  pop\n  pop\n  jump\t// out\n    /* \"#utility.yul\":1061:1138   */\ntag_24:\n    /* \"#utility.yul\":1098:1105   */\n  0x00\n    /* \"#utility.yul\":1127:1132   */\n  dup2\n    /* \"#utility.yul\":1116:1132   */\n  swap1\n  pop\n    /* \"#utility.yul\":1061:1138   */\n  swap2\n  swap1\n  pop\n  jump\t// out\n    /* \"#utility.yul\":1144:1324   */\ntag_28:\n    /* \"#utility.yul\":1192:1269   */\n  0x4e487b7100000000000000000000000000000000000000000000000000000000\n    /* \"#utility.yul\":1189:1190   */\n  0x00\n    /* \"#utility.yul\":1182:1270   */\n  mstore\n    /* \"#utility.yul\":1289:1293   */\n  0x11\n    /* \"#utility.yul\":1286:1287   */\n  0x04\n    /* \"#utility.yul\":1279:1294   */\n  mstore\n    /* \"#utility.yul\":1313:1317   */\n  0x24\n    /* \"#utility.yul\":1310:1311   */\n  0x00\n    /* \"#utility.yul\":1303:1318   */\n  revert\n    /* \"#utility.yul\":1453:1570   */\ntag_17:\n    /* \"#utility.yul\":1562:1563   */\n  0x00\n    /* \"#utility.yul\":1559:1560   */\n  dup1\n    /* \"#utility.yul\":1552:1564   */\n  revert\n    /* \"#utility.yul\":1576:1698   */\ntag_13:\n    /* \"#utility.yul\":1649:1673   */\n  tag_35\n    /* \"#utility.yul\":1667:1672   */\n  dup2\n    /* \"#utility.yul\":1649:1673   */\n  tag_24\n  jump\t// in\ntag_35:\n    /* \"#utility.yul\":1642:1647   */\n  dup2\n    /* \"#utility.yul\":1639:1674   */\n  eq\n    /* \"#utility.yul\":1629:1692   */\n  tag_36\n  jumpi\n    /* \"#utility.yul\":1688:1689   */\n  0x00\n    /* \"#utility.yul\":1685:1686   */\n  dup1\n    /* \"#utility.yul\":1678:1690   */\n  revert\n    /* \"#utility.yul\":1629:1692   */\ntag_36:\n    /* \"#utility.yul\":1576:1698   */\n  pop\n  jump\t// out\n    /* \"contracts/Crowdfunding.sol\":74:3361  contract CrowdFunding{\r... */\ntag_8:\n  dataSize(sub_0)\n  dup1\n  dataOffset(sub_0)\n  0x00\n  codecopy\n  0x00\n  return\nstop\n\nsub_0: assembly {\n        /* \"contracts/Crowdfunding.sol\":74:3361  contract CrowdFunding{\r... */\n      mstore(0x40, 0x80)\n      jumpi(tag_1, lt(calldatasize, 0x04))\n      shr(0xe0, calldataload(0x00))\n      dup1\n      0xb2d5ae44\n      gt\n      tag_15\n      jumpi\n      dup1\n      0xb2d5ae44\n      eq\n      tag_9\n      jumpi\n      dup1\n      0xbb0c8298\n      eq\n      tag_10\n      jumpi\n      dup1\n      0xbef3a083\n      eq\n      tag_11\n      jumpi\n      dup1\n      0xc1f11b4c\n      eq\n      tag_12\n      jumpi\n      dup1\n      0xd7bb99ba\n      eq\n      tag_13\n      jumpi\n      dup1\n      0xf851a440\n      eq\n      tag_14\n      jumpi\n      jump(tag_2)\n    tag_15:\n      dup1\n      0x12065fe0\n      eq\n      tag_3\n      jumpi\n      dup1\n      0x1a39d8ef\n      eq\n      tag_4\n      jumpi\n      dup1\n      0x1f6d4942\n      eq\n      tag_5\n      jumpi\n      dup1\n      0x40193883\n      eq\n      tag_6\n      jumpi\n      dup1\n      0x4377cf65\n      eq\n      tag_7\n      jumpi\n      dup1\n      0x8a9cfd55\n      eq\n      tag_8\n      jumpi\n      jump(tag_2)\n    tag_1:\n      jumpi(tag_2, calldatasize)\n        /* \"contracts/Crowdfunding.sol\":1985:1997  contribute() */\n      tag_18\n        /* \"contracts/Crowdfunding.sol\":1985:1995  contribute */\n      tag_19\n        /* \"contracts/Crowdfunding.sol\":1985:1997  contribute() */\n      jump\t// in\n    tag_18:\n        /* \"contracts/Crowdfunding.sol\":74:3361  contract CrowdFunding{\r... */\n      stop\n    tag_2:\n      0x00\n      dup1\n      revert\n        /* \"contracts/Crowdfunding.sol\":2013:2107  function getBalance() public view returns(uint){\r... */\n    tag_3:\n      callvalue\n      dup1\n      iszero\n      tag_20\n      jumpi\n      0x00\n      dup1\n      revert\n    tag_20:\n      pop\n      tag_21\n      tag_22\n      jump\t// in\n    tag_21:\n      mload(0x40)\n      tag_23\n      swap2\n      swap1\n      tag_24\n      jump\t// in\n    tag_23:\n      mload(0x40)\n      dup1\n      swap2\n      sub\n      swap1\n      return\n        /* \"contracts/Crowdfunding.sol\":573:596  uint public totalAmount */\n    tag_4:\n      callvalue\n      dup1\n      iszero\n      tag_25\n      jumpi\n      0x00\n      dup1\n      revert\n    tag_25:\n      pop\n      tag_26\n      tag_27\n      jump\t// in\n    tag_26:\n      mload(0x40)\n      tag_28\n      swap2\n      swap1\n      tag_24\n      jump\t// in\n    tag_28:\n      mload(0x40)\n      dup1\n      swap2\n      sub\n      swap1\n      return\n        /* \"contracts/Crowdfunding.sol\":161:205  mapping(address => uint) public contributors */\n    tag_5:\n      callvalue\n      dup1\n      iszero\n      tag_29\n      jumpi\n      0x00\n      dup1\n      revert\n    tag_29:\n      pop\n      tag_30\n      0x04\n      dup1\n      calldatasize\n      sub\n      dup2\n      add\n      swap1\n      tag_31\n      swap2\n      swap1\n      tag_32\n      jump\t// in\n    tag_31:\n      tag_33\n      jump\t// in\n    tag_30:\n      mload(0x40)\n      tag_34\n      swap2\n      swap1\n      tag_24\n      jump\t// in\n    tag_34:\n      mload(0x40)\n      dup1\n      swap2\n      sub\n      swap1\n      return\n        /* \"contracts/Crowdfunding.sol\":354:370  uint public goal */\n    tag_6:\n      callvalue\n      dup1\n      iszero\n      tag_35\n      jumpi\n      0x00\n      dup1\n      revert\n    tag_35:\n      pop\n      tag_36\n      tag_37\n      jump\t// in\n    tag_36:\n      mload(0x40)\n      tag_38\n      swap2\n      swap1\n      tag_24\n      jump\t// in\n    tag_38:\n      mload(0x40)\n      dup1\n      swap2\n      sub\n      swap1\n      return\n        /* \"contracts/Crowdfunding.sol\":633:665  uint public numberOfContributors */\n    tag_7:\n      callvalue\n      dup1\n      iszero\n      tag_39\n      jumpi\n      0x00\n      dup1\n      revert\n    tag_39:\n      pop\n      tag_40\n      tag_41\n      jump\t// in\n    tag_40:\n      mload(0x40)\n      tag_42\n      swap2\n      swap1\n      tag_24\n      jump\t// in\n    tag_42:\n      mload(0x40)\n      dup1\n      swap2\n      sub\n      swap1\n      return\n        /* \"contracts/Crowdfunding.sol\":2895:3356  function createRequest(string memory _description, uint _amount, address payable receiptient) public onlyOwner {\r... */\n    tag_8:\n      callvalue\n      dup1\n      iszero\n      tag_43\n      jumpi\n      0x00\n      dup1\n      revert\n    tag_43:\n      pop\n      tag_44\n      0x04\n      dup1\n      calldatasize\n      sub\n      dup2\n      add\n      swap1\n      tag_45\n      swap2\n      swap1\n      tag_46\n      jump\t// in\n    tag_45:\n      tag_47\n      jump\t// in\n    tag_44:\n      stop\n        /* \"contracts/Crowdfunding.sol\":2115:2553  function getRefund() public  {\r... */\n    tag_9:\n      callvalue\n      dup1\n      iszero\n      tag_48\n      jumpi\n      0x00\n      dup1\n      revert\n    tag_48:\n      pop\n      tag_49\n      tag_50\n      jump\t// in\n    tag_49:\n      stop\n        /* \"contracts/Crowdfunding.sol\":500:525  uint public minimumAmount */\n    tag_10:\n      callvalue\n      dup1\n      iszero\n      tag_51\n      jumpi\n      0x00\n      dup1\n      revert\n    tag_51:\n      pop\n      tag_52\n      tag_53\n      jump\t// in\n    tag_52:\n      mload(0x40)\n      tag_54\n      swap2\n      swap1\n      tag_24\n      jump\t// in\n    tag_54:\n      mload(0x40)\n      dup1\n      swap2\n      sub\n      swap1\n      return\n        /* \"contracts/Crowdfunding.sol\":420:440  uint public deadLine */\n    tag_11:\n      callvalue\n      dup1\n      iszero\n      tag_55\n      jumpi\n      0x00\n      dup1\n      revert\n    tag_55:\n      pop\n      tag_56\n      tag_57\n      jump\t// in\n    tag_56:\n      mload(0x40)\n      tag_58\n      swap2\n      swap1\n      tag_24\n      jump\t// in\n    tag_58:\n      mload(0x40)\n      dup1\n      swap2\n      sub\n      swap1\n      return\n        /* \"contracts/Crowdfunding.sol\":898:922  uint public noOfRequests */\n    tag_12:\n      callvalue\n      dup1\n      iszero\n      tag_59\n      jumpi\n      0x00\n      dup1\n      revert\n    tag_59:\n      pop\n      tag_60\n      tag_61\n      jump\t// in\n    tag_60:\n      mload(0x40)\n      tag_62\n      swap2\n      swap1\n      tag_24\n      jump\t// in\n    tag_62:\n      mload(0x40)\n      dup1\n      swap2\n      sub\n      swap1\n      return\n        /* \"contracts/Crowdfunding.sol\":1162:1939  function contribute() public payable{\r... */\n    tag_13:\n      tag_63\n      tag_19\n      jump\t// in\n    tag_63:\n      stop\n        /* \"contracts/Crowdfunding.sol\":240:260  address public admin */\n    tag_14:\n      callvalue\n      dup1\n      iszero\n      tag_64\n      jumpi\n      0x00\n      dup1\n      revert\n    tag_64:\n      pop\n      tag_65\n      tag_66\n      jump\t// in\n    tag_65:\n      mload(0x40)\n      tag_67\n      swap2\n      swap1\n      tag_68\n      jump\t// in\n    tag_67:\n      mload(0x40)\n      dup1\n      swap2\n      sub\n      swap1\n      return\n        /* \"contracts/Crowdfunding.sol\":1162:1939  function contribute() public payable{\r... */\n    tag_19:\n        /* \"contracts/Crowdfunding.sol\":1315:1328  minimumAmount */\n      sload(0x04)\n        /* \"contracts/Crowdfunding.sol\":1302:1311  msg.value */\n      callvalue\n        /* \"contracts/Crowdfunding.sol\":1302:1328  msg.value >= minimumAmount */\n      lt\n      iszero\n        /* \"contracts/Crowdfunding.sol\":1294:1379  require(msg.value >= minimumAmount, \"Amount must be greater than the minimum amount\") */\n      tag_70\n      jumpi\n      mload(0x40)\n      0x08c379a000000000000000000000000000000000000000000000000000000000\n      dup2\n      mstore\n      0x04\n      add\n      tag_71\n      swap1\n      tag_72\n      jump\t// in\n    tag_71:\n      mload(0x40)\n      dup1\n      swap2\n      sub\n      swap1\n      revert\n    tag_70:\n        /* \"contracts/Crowdfunding.sol\":1463:1467  goal */\n      sload(0x02)\n        /* \"contracts/Crowdfunding.sol\":1449:1460  totalAmount */\n      sload(0x05)\n        /* \"contracts/Crowdfunding.sol\":1449:1467  totalAmount < goal */\n      lt\n        /* \"contracts/Crowdfunding.sol\":1441:1505  require(totalAmount < goal, \"Goal for funding has been reached\") */\n      tag_73\n      jumpi\n      mload(0x40)\n      0x08c379a000000000000000000000000000000000000000000000000000000000\n      dup2\n      mstore\n      0x04\n      add\n      tag_74\n      swap1\n      tag_75\n      jump\t// in\n    tag_74:\n      mload(0x40)\n      dup1\n      swap2\n      sub\n      swap1\n      revert\n    tag_73:\n        /* \"contracts/Crowdfunding.sol\":1577:1585  deadLine */\n      sload(0x03)\n        /* \"contracts/Crowdfunding.sol\":1559:1574  block.timestamp */\n      timestamp\n        /* \"contracts/Crowdfunding.sol\":1559:1585  block.timestamp < deadLine */\n      lt\n        /* \"contracts/Crowdfunding.sol\":1551:1627  require(block.timestamp < deadLine, \"Time frame set for unding has elasped\") */\n      tag_76\n      jumpi\n      mload(0x40)\n      0x08c379a000000000000000000000000000000000000000000000000000000000\n      dup2\n      mstore\n      0x04\n      add\n      tag_77\n      swap1\n      tag_78\n      jump\t// in\n    tag_77:\n      mload(0x40)\n      dup1\n      swap2\n      sub\n      swap1\n      revert\n    tag_76:\n        /* \"contracts/Crowdfunding.sol\":1679:1680  0 */\n      0x00\n        /* \"contracts/Crowdfunding.sol\":1651:1663  contributors */\n      dup1\n        /* \"contracts/Crowdfunding.sol\":1651:1675  contributors[msg.sender] */\n      0x00\n        /* \"contracts/Crowdfunding.sol\":1664:1674  msg.sender */\n      caller\n        /* \"contracts/Crowdfunding.sol\":1651:1675  contributors[msg.sender] */\n      0xffffffffffffffffffffffffffffffffffffffff\n      and\n      0xffffffffffffffffffffffffffffffffffffffff\n      and\n      dup2\n      mstore\n      0x20\n      add\n      swap1\n      dup2\n      mstore\n      0x20\n      add\n      0x00\n      keccak256\n      sload\n        /* \"contracts/Crowdfunding.sol\":1651:1680  contributors[msg.sender] == 0 */\n      eq\n        /* \"contracts/Crowdfunding.sol\":1648:1730  if(contributors[msg.sender] == 0){\r... */\n      iszero\n      tag_79\n      jumpi\n        /* \"contracts/Crowdfunding.sol\":1696:1716  numberOfContributors */\n      0x06\n      0x00\n        /* \"contracts/Crowdfunding.sol\":1696:1718  numberOfContributors++ */\n      dup2\n      sload\n      dup1\n      swap3\n      swap2\n      swap1\n      tag_80\n      swap1\n      tag_81\n      jump\t// in\n    tag_80:\n      swap2\n      swap1\n      pop\n      sstore\n      pop\n        /* \"contracts/Crowdfunding.sol\":1648:1730  if(contributors[msg.sender] == 0){\r... */\n    tag_79:\n        /* \"contracts/Crowdfunding.sol\":1821:1830  msg.value */\n      callvalue\n        /* \"contracts/Crowdfunding.sol\":1793:1805  contributors */\n      0x00\n        /* \"contracts/Crowdfunding.sol\":1793:1817  contributors[msg.sender] */\n      dup1\n        /* \"contracts/Crowdfunding.sol\":1806:1816  msg.sender */\n      caller\n        /* \"contracts/Crowdfunding.sol\":1793:1817  contributors[msg.sender] */\n      0xffffffffffffffffffffffffffffffffffffffff\n      and\n      0xffffffffffffffffffffffffffffffffffffffff\n      and\n      dup2\n      mstore\n      0x20\n      add\n      swap1\n      dup2\n      mstore\n      0x20\n      add\n      0x00\n      keccak256\n      0x00\n        /* \"contracts/Crowdfunding.sol\":1793:1830  contributors[msg.sender] += msg.value */\n      dup3\n      dup3\n      sload\n      tag_82\n      swap2\n      swap1\n      tag_83\n      jump\t// in\n    tag_82:\n      swap3\n      pop\n      pop\n      dup2\n      swap1\n      sstore\n      pop\n        /* \"contracts/Crowdfunding.sol\":1920:1929  msg.value */\n      callvalue\n        /* \"contracts/Crowdfunding.sol\":1905:1916  totalAmount */\n      0x05\n      0x00\n        /* \"contracts/Crowdfunding.sol\":1905:1929  totalAmount += msg.value */\n      dup3\n      dup3\n      sload\n      tag_84\n      swap2\n      swap1\n      tag_83\n      jump\t// in\n    tag_84:\n      swap3\n      pop\n      pop\n      dup2\n      swap1\n      sstore\n      pop\n        /* \"contracts/Crowdfunding.sol\":1162:1939  function contribute() public payable{\r... */\n      jump\t// out\n        /* \"contracts/Crowdfunding.sol\":2013:2107  function getBalance() public view returns(uint){\r... */\n    tag_22:\n        /* \"contracts/Crowdfunding.sol\":2055:2059  uint */\n      0x00\n        /* \"contracts/Crowdfunding.sol\":2078:2099  address(this).balance */\n      selfbalance\n        /* \"contracts/Crowdfunding.sol\":2071:2099  return address(this).balance */\n      swap1\n      pop\n        /* \"contracts/Crowdfunding.sol\":2013:2107  function getBalance() public view returns(uint){\r... */\n      swap1\n      jump\t// out\n        /* \"contracts/Crowdfunding.sol\":573:596  uint public totalAmount */\n    tag_27:\n      sload(0x05)\n      dup2\n      jump\t// out\n        /* \"contracts/Crowdfunding.sol\":161:205  mapping(address => uint) public contributors */\n    tag_33:\n      mstore(0x20, 0x00)\n      dup1\n      0x00\n      mstore\n      keccak256(0x00, 0x40)\n      0x00\n      swap2\n      pop\n      swap1\n      pop\n      sload\n      dup2\n      jump\t// out\n        /* \"contracts/Crowdfunding.sol\":354:370  uint public goal */\n    tag_37:\n      sload(0x02)\n      dup2\n      jump\t// out\n        /* \"contracts/Crowdfunding.sol\":633:665  uint public numberOfContributors */\n    tag_41:\n      sload(0x06)\n      dup2\n      jump\t// out\n        /* \"contracts/Crowdfunding.sol\":2895:3356  function createRequest(string memory _description, uint _amount, address payable receiptient) public onlyOwner {\r... */\n    tag_47:\n        /* \"contracts/Crowdfunding.sol\":2615:2620  admin */\n      0x01\n      0x00\n      swap1\n      sload\n      swap1\n      0x0100\n      exp\n      swap1\n      div\n      0xffffffffffffffffffffffffffffffffffffffff\n      and\n        /* \"contracts/Crowdfunding.sol\":2601:2620  msg.sender == admin */\n      0xffffffffffffffffffffffffffffffffffffffff\n      and\n        /* \"contracts/Crowdfunding.sol\":2601:2611  msg.sender */\n      caller\n        /* \"contracts/Crowdfunding.sol\":2601:2620  msg.sender == admin */\n      0xffffffffffffffffffffffffffffffffffffffff\n      and\n      eq\n        /* \"contracts/Crowdfunding.sol\":2593:2621  require(msg.sender == admin) */\n      tag_87\n      jumpi\n      0x00\n      dup1\n      revert\n    tag_87:\n        /* \"contracts/Crowdfunding.sol\":3017:3048  Request storage _requestDetails */\n      0x00\n        /* \"contracts/Crowdfunding.sol\":3051:3058  request */\n      0x08\n        /* \"contracts/Crowdfunding.sol\":3051:3072  request[noOfRequests] */\n      0x00\n        /* \"contracts/Crowdfunding.sol\":3059:3071  noOfRequests */\n      sload(0x07)\n        /* \"contracts/Crowdfunding.sol\":3051:3072  request[noOfRequests] */\n      dup2\n      mstore\n      0x20\n      add\n      swap1\n      dup2\n      mstore\n      0x20\n      add\n      0x00\n      keccak256\n        /* \"contracts/Crowdfunding.sol\":3017:3072  Request storage _requestDetails = request[noOfRequests] */\n      swap1\n      pop\n        /* \"contracts/Crowdfunding.sol\":3113:3125  _description */\n      dup4\n        /* \"contracts/Crowdfunding.sol\":3083:3098  _requestDetails */\n      dup2\n        /* \"contracts/Crowdfunding.sol\":3083:3110  _requestDetails.description */\n      0x00\n      add\n        /* \"contracts/Crowdfunding.sol\":3083:3125  _requestDetails.description = _description */\n      swap1\n      dup1\n      mload\n      swap1\n      0x20\n      add\n      swap1\n      tag_89\n      swap3\n      swap2\n      swap1\n      tag_90\n      jump\t// in\n    tag_89:\n      pop\n        /* \"contracts/Crowdfunding.sol\":3161:3168  _amount */\n      dup3\n        /* \"contracts/Crowdfunding.sol\":3136:3151  _requestDetails */\n      dup2\n        /* \"contracts/Crowdfunding.sol\":3136:3158  _requestDetails.amount */\n      0x01\n      add\n        /* \"contracts/Crowdfunding.sol\":3136:3168  _requestDetails.amount = _amount */\n      dup2\n      swap1\n      sstore\n      pop\n        /* \"contracts/Crowdfunding.sol\":3215:3220  false */\n      0x00\n        /* \"contracts/Crowdfunding.sol\":3179:3194  _requestDetails */\n      dup2\n        /* \"contracts/Crowdfunding.sol\":3179:3212  _requestDetails.fundReleaseStatus */\n      0x04\n      add\n      0x00\n        /* \"contracts/Crowdfunding.sol\":3179:3220  _requestDetails.fundReleaseStatus = false */\n      0x0100\n      exp\n      dup2\n      sload\n      dup2\n      0xff\n      mul\n      not\n      and\n      swap1\n      dup4\n      iszero\n      iszero\n      mul\n      or\n      swap1\n      sstore\n      pop\n        /* \"contracts/Crowdfunding.sol\":3258:3269  receiptient */\n      dup2\n        /* \"contracts/Crowdfunding.sol\":3231:3246  _requestDetails */\n      dup2\n        /* \"contracts/Crowdfunding.sol\":3231:3255  _requestDetails.receiver */\n      0x02\n      add\n      0x00\n        /* \"contracts/Crowdfunding.sol\":3231:3269  _requestDetails.receiver = receiptient */\n      0x0100\n      exp\n      dup2\n      sload\n      dup2\n      0xffffffffffffffffffffffffffffffffffffffff\n      mul\n      not\n      and\n      swap1\n      dup4\n      0xffffffffffffffffffffffffffffffffffffffff\n      and\n      mul\n      or\n      swap1\n      sstore\n      pop\n        /* \"contracts/Crowdfunding.sol\":3334:3346  noOfRequests */\n      0x07\n      0x00\n        /* \"contracts/Crowdfunding.sol\":3334:3348  noOfRequests++ */\n      dup2\n      sload\n      dup1\n      swap3\n      swap2\n      swap1\n      tag_91\n      swap1\n      tag_81\n      jump\t// in\n    tag_91:\n      swap2\n      swap1\n      pop\n      sstore\n      pop\n        /* \"contracts/Crowdfunding.sol\":3006:3356  {\r... */\n      pop\n        /* \"contracts/Crowdfunding.sol\":2895:3356  function createRequest(string memory _description, uint _amount, address payable receiptient) public onlyOwner {\r... */\n      pop\n      pop\n      pop\n      jump\t// out\n        /* \"contracts/Crowdfunding.sol\":2115:2553  function getRefund() public  {\r... */\n    tag_50:\n        /* \"contracts/Crowdfunding.sol\":2190:2191  0 */\n      0x00\n        /* \"contracts/Crowdfunding.sol\":2163:2175  contributors */\n      dup1\n        /* \"contracts/Crowdfunding.sol\":2163:2187  contributors[msg.sender] */\n      0x00\n        /* \"contracts/Crowdfunding.sol\":2176:2186  msg.sender */\n      caller\n        /* \"contracts/Crowdfunding.sol\":2163:2187  contributors[msg.sender] */\n      0xffffffffffffffffffffffffffffffffffffffff\n      and\n      0xffffffffffffffffffffffffffffffffffffffff\n      and\n      dup2\n      mstore\n      0x20\n      add\n      swap1\n      dup2\n      mstore\n      0x20\n      add\n      0x00\n      keccak256\n      sload\n        /* \"contracts/Crowdfunding.sol\":2163:2191  contributors[msg.sender] > 0 */\n      gt\n        /* \"contracts/Crowdfunding.sol\":2155:2231  require(contributors[msg.sender] > 0, \"You are not an existing contributor\") */\n      tag_93\n      jumpi\n      mload(0x40)\n      0x08c379a000000000000000000000000000000000000000000000000000000000\n      dup2\n      mstore\n      0x04\n      add\n      tag_94\n      swap1\n      tag_95\n      jump\t// in\n    tag_94:\n      mload(0x40)\n      dup1\n      swap2\n      sub\n      swap1\n      revert\n    tag_93:\n        /* \"contracts/Crowdfunding.sol\":2343:2351  deadLine */\n      sload(0x03)\n        /* \"contracts/Crowdfunding.sol\":2324:2339  block.timestamp */\n      timestamp\n        /* \"contracts/Crowdfunding.sol\":2324:2351  block.timestamp >= deadLine */\n      lt\n      iszero\n        /* \"contracts/Crowdfunding.sol\":2324:2373  block.timestamp >= deadLine && totalAmount < goal */\n      dup1\n      iszero\n      tag_96\n      jumpi\n      pop\n        /* \"contracts/Crowdfunding.sol\":2369:2373  goal */\n      sload(0x02)\n        /* \"contracts/Crowdfunding.sol\":2355:2366  totalAmount */\n      sload(0x05)\n        /* \"contracts/Crowdfunding.sol\":2355:2373  totalAmount < goal */\n      lt\n        /* \"contracts/Crowdfunding.sol\":2324:2373  block.timestamp >= deadLine && totalAmount < goal */\n    tag_96:\n        /* \"contracts/Crowdfunding.sol\":2316:2413  require(block.timestamp >= deadLine && totalAmount < goal, \"Funding time frame is yet to expire\") */\n      tag_97\n      jumpi\n      mload(0x40)\n      0x08c379a000000000000000000000000000000000000000000000000000000000\n      dup2\n      mstore\n      0x04\n      add\n      tag_98\n      swap1\n      tag_99\n      jump\t// in\n    tag_98:\n      mload(0x40)\n      dup1\n      swap2\n      sub\n      swap1\n      revert\n    tag_97:\n        /* \"contracts/Crowdfunding.sol\":2458:2468  msg.sender */\n      caller\n        /* \"contracts/Crowdfunding.sol\":2450:2478  payable(msg.sender).transfer */\n      0xffffffffffffffffffffffffffffffffffffffff\n      and\n        /* \"contracts/Crowdfunding.sol\":2450:2504  payable(msg.sender).transfer(contributors[msg.sender]) */\n      0x08fc\n        /* \"contracts/Crowdfunding.sol\":2479:2491  contributors */\n      0x00\n        /* \"contracts/Crowdfunding.sol\":2479:2503  contributors[msg.sender] */\n      dup1\n        /* \"contracts/Crowdfunding.sol\":2492:2502  msg.sender */\n      caller\n        /* \"contracts/Crowdfunding.sol\":2479:2503  contributors[msg.sender] */\n      0xffffffffffffffffffffffffffffffffffffffff\n      and\n      0xffffffffffffffffffffffffffffffffffffffff\n      and\n      dup2\n      mstore\n      0x20\n      add\n      swap1\n      dup2\n      mstore\n      0x20\n      add\n      0x00\n      keccak256\n      sload\n        /* \"contracts/Crowdfunding.sol\":2450:2504  payable(msg.sender).transfer(contributors[msg.sender]) */\n      swap1\n      dup2\n      iszero\n      mul\n      swap1\n      mload(0x40)\n      0x00\n      mload(0x40)\n      dup1\n      dup4\n      sub\n      dup2\n      dup6\n      dup9\n      dup9\n      call\n      swap4\n      pop\n      pop\n      pop\n      pop\n      iszero\n      dup1\n      iszero\n      tag_101\n      jumpi\n      returndatasize\n      0x00\n      dup1\n      returndatacopy\n      revert(0x00, returndatasize)\n    tag_101:\n      pop\n        /* \"contracts/Crowdfunding.sol\":2544:2545  0 */\n      0x00\n        /* \"contracts/Crowdfunding.sol\":2517:2529  contributors */\n      dup1\n        /* \"contracts/Crowdfunding.sol\":2517:2541  contributors[msg.sender] */\n      0x00\n        /* \"contracts/Crowdfunding.sol\":2530:2540  msg.sender */\n      caller\n        /* \"contracts/Crowdfunding.sol\":2517:2541  contributors[msg.sender] */\n      0xffffffffffffffffffffffffffffffffffffffff\n      and\n      0xffffffffffffffffffffffffffffffffffffffff\n      and\n      dup2\n      mstore\n      0x20\n      add\n      swap1\n      dup2\n      mstore\n      0x20\n      add\n      0x00\n      keccak256\n        /* \"contracts/Crowdfunding.sol\":2517:2545  contributors[msg.sender] = 0 */\n      dup2\n      swap1\n      sstore\n      pop\n        /* \"contracts/Crowdfunding.sol\":2115:2553  function getRefund() public  {\r... */\n      jump\t// out\n        /* \"contracts/Crowdfunding.sol\":500:525  uint public minimumAmount */\n    tag_53:\n      sload(0x04)\n      dup2\n      jump\t// out\n        /* \"contracts/Crowdfunding.sol\":420:440  uint public deadLine */\n    tag_57:\n      sload(0x03)\n      dup2\n      jump\t// out\n        /* \"contracts/Crowdfunding.sol\":898:922  uint public noOfRequests */\n    tag_61:\n      sload(0x07)\n      dup2\n      jump\t// out\n        /* \"contracts/Crowdfunding.sol\":240:260  address public admin */\n    tag_66:\n      0x01\n      0x00\n      swap1\n      sload\n      swap1\n      0x0100\n      exp\n      swap1\n      div\n      0xffffffffffffffffffffffffffffffffffffffff\n      and\n      dup2\n      jump\t// out\n    tag_90:\n      dup3\n      dup1\n      sload\n      tag_102\n      swap1\n      tag_103\n      jump\t// in\n    tag_102:\n      swap1\n      0x00\n      mstore\n      keccak256(0x00, 0x20)\n      swap1\n      0x1f\n      add\n      0x20\n      swap1\n      div\n      dup2\n      add\n      swap3\n      dup3\n      tag_105\n      jumpi\n      0x00\n      dup6\n      sstore\n      jump(tag_104)\n    tag_105:\n      dup3\n      0x1f\n      lt\n      tag_106\n      jumpi\n      dup1\n      mload\n      not(0xff)\n      and\n      dup4\n      dup1\n      add\n      or\n      dup6\n      sstore\n      jump(tag_104)\n    tag_106:\n      dup3\n      dup1\n      add\n      0x01\n      add\n      dup6\n      sstore\n      dup3\n      iszero\n      tag_104\n      jumpi\n      swap2\n      dup3\n      add\n    tag_107:\n      dup3\n      dup2\n      gt\n      iszero\n      tag_108\n      jumpi\n      dup3\n      mload\n      dup3\n      sstore\n      swap2\n      0x20\n      add\n      swap2\n      swap1\n      0x01\n      add\n      swap1\n      jump(tag_107)\n    tag_108:\n    tag_104:\n      pop\n      swap1\n      pop\n      tag_109\n      swap2\n      swap1\n      tag_110\n      jump\t// in\n    tag_109:\n      pop\n      swap1\n      jump\t// out\n    tag_110:\n    tag_111:\n      dup1\n      dup3\n      gt\n      iszero\n      tag_112\n      jumpi\n      0x00\n      dup2\n      0x00\n      swap1\n      sstore\n      pop\n      0x01\n      add\n      jump(tag_111)\n    tag_112:\n      pop\n      swap1\n      jump\t// out\n        /* \"#utility.yul\":7:419   */\n    tag_114:\n        /* \"#utility.yul\":85:90   */\n      0x00\n        /* \"#utility.yul\":110:176   */\n      tag_116\n        /* \"#utility.yul\":126:175   */\n      tag_117\n        /* \"#utility.yul\":168:174   */\n      dup5\n        /* \"#utility.yul\":126:175   */\n      tag_118\n      jump\t// in\n    tag_117:\n        /* \"#utility.yul\":110:176   */\n      tag_119\n      jump\t// in\n    tag_116:\n        /* \"#utility.yul\":101:176   */\n      swap1\n      pop\n        /* \"#utility.yul\":199:205   */\n      dup3\n        /* \"#utility.yul\":192:197   */\n      dup2\n        /* \"#utility.yul\":185:206   */\n      mstore\n        /* \"#utility.yul\":237:241   */\n      0x20\n        /* \"#utility.yul\":230:235   */\n      dup2\n        /* \"#utility.yul\":226:242   */\n      add\n        /* \"#utility.yul\":275:278   */\n      dup5\n        /* \"#utility.yul\":266:272   */\n      dup5\n        /* \"#utility.yul\":261:264   */\n      dup5\n        /* \"#utility.yul\":257:273   */\n      add\n        /* \"#utility.yul\":254:279   */\n      gt\n        /* \"#utility.yul\":251:363   */\n      iszero\n      tag_120\n      jumpi\n        /* \"#utility.yul\":282:361   */\n      tag_121\n      tag_122\n      jump\t// in\n    tag_121:\n        /* \"#utility.yul\":251:363   */\n    tag_120:\n        /* \"#utility.yul\":372:413   */\n      tag_123\n        /* \"#utility.yul\":406:412   */\n      dup5\n        /* \"#utility.yul\":401:404   */\n      dup3\n        /* \"#utility.yul\":396:399   */\n      dup6\n        /* \"#utility.yul\":372:413   */\n      tag_124\n      jump\t// in\n    tag_123:\n        /* \"#utility.yul\":91:419   */\n      pop\n        /* \"#utility.yul\":7:419   */\n      swap4\n      swap3\n      pop\n      pop\n      pop\n      jump\t// out\n        /* \"#utility.yul\":425:564   */\n    tag_125:\n        /* \"#utility.yul\":471:476   */\n      0x00\n        /* \"#utility.yul\":509:515   */\n      dup2\n        /* \"#utility.yul\":496:516   */\n      calldataload\n        /* \"#utility.yul\":487:516   */\n      swap1\n      pop\n        /* \"#utility.yul\":525:558   */\n      tag_127\n        /* \"#utility.yul\":552:557   */\n      dup2\n        /* \"#utility.yul\":525:558   */\n      tag_128\n      jump\t// in\n    tag_127:\n        /* \"#utility.yul\":425:564   */\n      swap3\n      swap2\n      pop\n      pop\n      jump\t// out\n        /* \"#utility.yul\":570:725   */\n    tag_129:\n        /* \"#utility.yul\":624:629   */\n      0x00\n        /* \"#utility.yul\":662:668   */\n      dup2\n        /* \"#utility.yul\":649:669   */\n      calldataload\n        /* \"#utility.yul\":640:669   */\n      swap1\n      pop\n        /* \"#utility.yul\":678:719   */\n      tag_131\n        /* \"#utility.yul\":713:718   */\n      dup2\n        /* \"#utility.yul\":678:719   */\n      tag_132\n      jump\t// in\n    tag_131:\n        /* \"#utility.yul\":570:725   */\n      swap3\n      swap2\n      pop\n      pop\n      jump\t// out\n        /* \"#utility.yul\":745:1085   */\n    tag_133:\n        /* \"#utility.yul\":801:806   */\n      0x00\n        /* \"#utility.yul\":850:853   */\n      dup3\n        /* \"#utility.yul\":843:847   */\n      0x1f\n        /* \"#utility.yul\":835:841   */\n      dup4\n        /* \"#utility.yul\":831:848   */\n      add\n        /* \"#utility.yul\":827:854   */\n      slt\n        /* \"#utility.yul\":817:939   */\n      tag_135\n      jumpi\n        /* \"#utility.yul\":858:937   */\n      tag_136\n      tag_137\n      jump\t// in\n    tag_136:\n        /* \"#utility.yul\":817:939   */\n    tag_135:\n        /* \"#utility.yul\":975:981   */\n      dup2\n        /* \"#utility.yul\":962:982   */\n      calldataload\n        /* \"#utility.yul\":1000:1079   */\n      tag_138\n        /* \"#utility.yul\":1075:1078   */\n      dup5\n        /* \"#utility.yul\":1067:1073   */\n      dup3\n        /* \"#utility.yul\":1060:1064   */\n      0x20\n        /* \"#utility.yul\":1052:1058   */\n      dup7\n        /* \"#utility.yul\":1048:1065   */\n      add\n        /* \"#utility.yul\":1000:1079   */\n      tag_114\n      jump\t// in\n    tag_138:\n        /* \"#utility.yul\":991:1079   */\n      swap2\n      pop\n        /* \"#utility.yul\":807:1085   */\n      pop\n        /* \"#utility.yul\":745:1085   */\n      swap3\n      swap2\n      pop\n      pop\n      jump\t// out\n        /* \"#utility.yul\":1091:1230   */\n    tag_139:\n        /* \"#utility.yul\":1137:1142   */\n      0x00\n        /* \"#utility.yul\":1175:1181   */\n      dup2\n        /* \"#utility.yul\":1162:1182   */\n      calldataload\n        /* \"#utility.yul\":1153:1182   */\n      swap1\n      pop\n        /* \"#utility.yul\":1191:1224   */\n      tag_141\n        /* \"#utility.yul\":1218:1223   */\n      dup2\n        /* \"#utility.yul\":1191:1224   */\n      tag_142\n      jump\t// in\n    tag_141:\n        /* \"#utility.yul\":1091:1230   */\n      swap3\n      swap2\n      pop\n      pop\n      jump\t// out\n        /* \"#utility.yul\":1236:1565   */\n    tag_32:\n        /* \"#utility.yul\":1295:1301   */\n      0x00\n        /* \"#utility.yul\":1344:1346   */\n      0x20\n        /* \"#utility.yul\":1332:1341   */\n      dup3\n        /* \"#utility.yul\":1323:1330   */\n      dup5\n        /* \"#utility.yul\":1319:1342   */\n      sub\n        /* \"#utility.yul\":1315:1347   */\n      slt\n        /* \"#utility.yul\":1312:1431   */\n      iszero\n      tag_144\n      jumpi\n        /* \"#utility.yul\":1350:1429   */\n      tag_145\n      tag_146\n      jump\t// in\n    tag_145:\n        /* \"#utility.yul\":1312:1431   */\n    tag_144:\n        /* \"#utility.yul\":1470:1471   */\n      0x00\n        /* \"#utility.yul\":1495:1548   */\n      tag_147\n        /* \"#utility.yul\":1540:1547   */\n      dup5\n        /* \"#utility.yul\":1531:1537   */\n      dup3\n        /* \"#utility.yul\":1520:1529   */\n      dup6\n        /* \"#utility.yul\":1516:1538   */\n      add\n        /* \"#utility.yul\":1495:1548   */\n      tag_125\n      jump\t// in\n    tag_147:\n        /* \"#utility.yul\":1485:1548   */\n      swap2\n      pop\n        /* \"#utility.yul\":1441:1558   */\n      pop\n        /* \"#utility.yul\":1236:1565   */\n      swap3\n      swap2\n      pop\n      pop\n      jump\t// out\n        /* \"#utility.yul\":1571:2386   */\n    tag_46:\n        /* \"#utility.yul\":1666:1672   */\n      0x00\n        /* \"#utility.yul\":1674:1680   */\n      dup1\n        /* \"#utility.yul\":1682:1688   */\n      0x00\n        /* \"#utility.yul\":1731:1733   */\n      0x60\n        /* \"#utility.yul\":1719:1728   */\n      dup5\n        /* \"#utility.yul\":1710:1717   */\n      dup7\n        /* \"#utility.yul\":1706:1729   */\n      sub\n        /* \"#utility.yul\":1702:1734   */\n      slt\n        /* \"#utility.yul\":1699:1818   */\n      iszero\n      tag_149\n      jumpi\n        /* \"#utility.yul\":1737:1816   */\n      tag_150\n      tag_146\n      jump\t// in\n    tag_150:\n        /* \"#utility.yul\":1699:1818   */\n    tag_149:\n        /* \"#utility.yul\":1885:1886   */\n      0x00\n        /* \"#utility.yul\":1874:1883   */\n      dup5\n        /* \"#utility.yul\":1870:1887   */\n      add\n        /* \"#utility.yul\":1857:1888   */\n      calldataload\n        /* \"#utility.yul\":1915:1933   */\n      0xffffffffffffffff\n        /* \"#utility.yul\":1907:1913   */\n      dup2\n        /* \"#utility.yul\":1904:1934   */\n      gt\n        /* \"#utility.yul\":1901:2018   */\n      iszero\n      tag_151\n      jumpi\n        /* \"#utility.yul\":1937:2016   */\n      tag_152\n      tag_153\n      jump\t// in\n    tag_152:\n        /* \"#utility.yul\":1901:2018   */\n    tag_151:\n        /* \"#utility.yul\":2042:2105   */\n      tag_154\n        /* \"#utility.yul\":2097:2104   */\n      dup7\n        /* \"#utility.yul\":2088:2094   */\n      dup3\n        /* \"#utility.yul\":2077:2086   */\n      dup8\n        /* \"#utility.yul\":2073:2095   */\n      add\n        /* \"#utility.yul\":2042:2105   */\n      tag_133\n      jump\t// in\n    tag_154:\n        /* \"#utility.yul\":2032:2105   */\n      swap4\n      pop\n        /* \"#utility.yul\":1828:2115   */\n      pop\n        /* \"#utility.yul\":2154:2156   */\n      0x20\n        /* \"#utility.yul\":2180:2233   */\n      tag_155\n        /* \"#utility.yul\":2225:2232   */\n      dup7\n        /* \"#utility.yul\":2216:2222   */\n      dup3\n        /* \"#utility.yul\":2205:2214   */\n      dup8\n        /* \"#utility.yul\":2201:2223   */\n      add\n        /* \"#utility.yul\":2180:2233   */\n      tag_139\n      jump\t// in\n    tag_155:\n        /* \"#utility.yul\":2170:2233   */\n      swap3\n      pop\n        /* \"#utility.yul\":2125:2243   */\n      pop\n        /* \"#utility.yul\":2282:2284   */\n      0x40\n        /* \"#utility.yul\":2308:2369   */\n      tag_156\n        /* \"#utility.yul\":2361:2368   */\n      dup7\n        /* \"#utility.yul\":2352:2358   */\n      dup3\n        /* \"#utility.yul\":2341:2350   */\n      dup8\n        /* \"#utility.yul\":2337:2359   */\n      add\n        /* \"#utility.yul\":2308:2369   */\n      tag_129\n      jump\t// in\n    tag_156:\n        /* \"#utility.yul\":2298:2369   */\n      swap2\n      pop\n        /* \"#utility.yul\":2253:2379   */\n      pop\n        /* \"#utility.yul\":1571:2386   */\n      swap3\n      pop\n      swap3\n      pop\n      swap3\n      jump\t// out\n        /* \"#utility.yul\":2392:2510   */\n    tag_157:\n        /* \"#utility.yul\":2479:2503   */\n      tag_159\n        /* \"#utility.yul\":2497:2502   */\n      dup2\n        /* \"#utility.yul\":2479:2503   */\n      tag_160\n      jump\t// in\n    tag_159:\n        /* \"#utility.yul\":2474:2477   */\n      dup3\n        /* \"#utility.yul\":2467:2504   */\n      mstore\n        /* \"#utility.yul\":2392:2510   */\n      pop\n      pop\n      jump\t// out\n        /* \"#utility.yul\":2516:2882   */\n    tag_161:\n        /* \"#utility.yul\":2658:2661   */\n      0x00\n        /* \"#utility.yul\":2679:2746   */\n      tag_163\n        /* \"#utility.yul\":2743:2745   */\n      0x21\n        /* \"#utility.yul\":2738:2741   */\n      dup4\n        /* \"#utility.yul\":2679:2746   */\n      tag_164\n      jump\t// in\n    tag_163:\n        /* \"#utility.yul\":2672:2746   */\n      swap2\n      pop\n        /* \"#utility.yul\":2755:2848   */\n      tag_165\n        /* \"#utility.yul\":2844:2847   */\n      dup3\n        /* \"#utility.yul\":2755:2848   */\n      tag_166\n      jump\t// in\n    tag_165:\n        /* \"#utility.yul\":2873:2875   */\n      0x40\n        /* \"#utility.yul\":2868:2871   */\n      dup3\n        /* \"#utility.yul\":2864:2876   */\n      add\n        /* \"#utility.yul\":2857:2876   */\n      swap1\n      pop\n        /* \"#utility.yul\":2516:2882   */\n      swap2\n      swap1\n      pop\n      jump\t// out\n        /* \"#utility.yul\":2888:3254   */\n    tag_167:\n        /* \"#utility.yul\":3030:3033   */\n      0x00\n        /* \"#utility.yul\":3051:3118   */\n      tag_169\n        /* \"#utility.yul\":3115:3117   */\n      0x23\n        /* \"#utility.yul\":3110:3113   */\n      dup4\n        /* \"#utility.yul\":3051:3118   */\n      tag_164\n      jump\t// in\n    tag_169:\n        /* \"#utility.yul\":3044:3118   */\n      swap2\n      pop\n        /* \"#utility.yul\":3127:3220   */\n      tag_170\n        /* \"#utility.yul\":3216:3219   */\n      dup3\n        /* \"#utility.yul\":3127:3220   */\n      tag_171\n      jump\t// in\n    tag_170:\n        /* \"#utility.yul\":3245:3247   */\n      0x40\n        /* \"#utility.yul\":3240:3243   */\n      dup3\n        /* \"#utility.yul\":3236:3248   */\n      add\n        /* \"#utility.yul\":3229:3248   */\n      swap1\n      pop\n        /* \"#utility.yul\":2888:3254   */\n      swap2\n      swap1\n      pop\n      jump\t// out\n        /* \"#utility.yul\":3260:3626   */\n    tag_172:\n        /* \"#utility.yul\":3402:3405   */\n      0x00\n        /* \"#utility.yul\":3423:3490   */\n      tag_174\n        /* \"#utility.yul\":3487:3489   */\n      0x23\n        /* \"#utility.yul\":3482:3485   */\n      dup4\n        /* \"#utility.yul\":3423:3490   */\n      tag_164\n      jump\t// in\n    tag_174:\n        /* \"#utility.yul\":3416:3490   */\n      swap2\n      pop\n        /* \"#utility.yul\":3499:3592   */\n      tag_175\n        /* \"#utility.yul\":3588:3591   */\n      dup3\n        /* \"#utility.yul\":3499:3592   */\n      tag_176\n      jump\t// in\n    tag_175:\n        /* \"#utility.yul\":3617:3619   */\n      0x40\n        /* \"#utility.yul\":3612:3615   */\n      dup3\n        /* \"#utility.yul\":3608:3620   */\n      add\n        /* \"#utility.yul\":3601:3620   */\n      swap1\n      pop\n        /* \"#utility.yul\":3260:3626   */\n      swap2\n      swap1\n      pop\n      jump\t// out\n        /* \"#utility.yul\":3632:3998   */\n    tag_177:\n        /* \"#utility.yul\":3774:3777   */\n      0x00\n        /* \"#utility.yul\":3795:3862   */\n      tag_179\n        /* \"#utility.yul\":3859:3861   */\n      0x25\n        /* \"#utility.yul\":3854:3857   */\n      dup4\n        /* \"#utility.yul\":3795:3862   */\n      tag_164\n      jump\t// in\n    tag_179:\n        /* \"#utility.yul\":3788:3862   */\n      swap2\n      pop\n        /* \"#utility.yul\":3871:3964   */\n      tag_180\n        /* \"#utility.yul\":3960:3963   */\n      dup3\n        /* \"#utility.yul\":3871:3964   */\n      tag_181\n      jump\t// in\n    tag_180:\n        /* \"#utility.yul\":3989:3991   */\n      0x40\n        /* \"#utility.yul\":3984:3987   */\n      dup3\n        /* \"#utility.yul\":3980:3992   */\n      add\n        /* \"#utility.yul\":3973:3992   */\n      swap1\n      pop\n        /* \"#utility.yul\":3632:3998   */\n      swap2\n      swap1\n      pop\n      jump\t// out\n        /* \"#utility.yul\":4004:4370   */\n    tag_182:\n        /* \"#utility.yul\":4146:4149   */\n      0x00\n        /* \"#utility.yul\":4167:4234   */\n      tag_184\n        /* \"#utility.yul\":4231:4233   */\n      0x2e\n        /* \"#utility.yul\":4226:4229   */\n      dup4\n        /* \"#utility.yul\":4167:4234   */\n      tag_164\n      jump\t// in\n    tag_184:\n        /* \"#utility.yul\":4160:4234   */\n      swap2\n      pop\n        /* \"#utility.yul\":4243:4336   */\n      tag_185\n        /* \"#utility.yul\":4332:4335   */\n      dup3\n        /* \"#utility.yul\":4243:4336   */\n      tag_186\n      jump\t// in\n    tag_185:\n        /* \"#utility.yul\":4361:4363   */\n      0x40\n        /* \"#utility.yul\":4356:4359   */\n      dup3\n        /* \"#utility.yul\":4352:4364   */\n      add\n        /* \"#utility.yul\":4345:4364   */\n      swap1\n      pop\n        /* \"#utility.yul\":4004:4370   */\n      swap2\n      swap1\n      pop\n      jump\t// out\n        /* \"#utility.yul\":4376:4494   */\n    tag_187:\n        /* \"#utility.yul\":4463:4487   */\n      tag_189\n        /* \"#utility.yul\":4481:4486   */\n      dup2\n        /* \"#utility.yul\":4463:4487   */\n      tag_190\n      jump\t// in\n    tag_189:\n        /* \"#utility.yul\":4458:4461   */\n      dup3\n        /* \"#utility.yul\":4451:4488   */\n      mstore\n        /* \"#utility.yul\":4376:4494   */\n      pop\n      pop\n      jump\t// out\n        /* \"#utility.yul\":4500:4722   */\n    tag_68:\n        /* \"#utility.yul\":4593:4597   */\n      0x00\n        /* \"#utility.yul\":4631:4633   */\n      0x20\n        /* \"#utility.yul\":4620:4629   */\n      dup3\n        /* \"#utility.yul\":4616:4634   */\n      add\n        /* \"#utility.yul\":4608:4634   */\n      swap1\n      pop\n        /* \"#utility.yul\":4644:4715   */\n      tag_192\n        /* \"#utility.yul\":4712:4713   */\n      0x00\n        /* \"#utility.yul\":4701:4710   */\n      dup4\n        /* \"#utility.yul\":4697:4714   */\n      add\n        /* \"#utility.yul\":4688:4694   */\n      dup5\n        /* \"#utility.yul\":4644:4715   */\n      tag_157\n      jump\t// in\n    tag_192:\n        /* \"#utility.yul\":4500:4722   */\n      swap3\n      swap2\n      pop\n      pop\n      jump\t// out\n        /* \"#utility.yul\":4728:5147   */\n    tag_75:\n        /* \"#utility.yul\":4894:4898   */\n      0x00\n        /* \"#utility.yul\":4932:4934   */\n      0x20\n        /* \"#utility.yul\":4921:4930   */\n      dup3\n        /* \"#utility.yul\":4917:4935   */\n      add\n        /* \"#utility.yul\":4909:4935   */\n      swap1\n      pop\n        /* \"#utility.yul\":4981:4990   */\n      dup2\n        /* \"#utility.yul\":4975:4979   */\n      dup2\n        /* \"#utility.yul\":4971:4991   */\n      sub\n        /* \"#utility.yul\":4967:4968   */\n      0x00\n        /* \"#utility.yul\":4956:4965   */\n      dup4\n        /* \"#utility.yul\":4952:4969   */\n      add\n        /* \"#utility.yul\":4945:4992   */\n      mstore\n        /* \"#utility.yul\":5009:5140   */\n      tag_194\n        /* \"#utility.yul\":5135:5139   */\n      dup2\n        /* \"#utility.yul\":5009:5140   */\n      tag_161\n      jump\t// in\n    tag_194:\n        /* \"#utility.yul\":5001:5140   */\n      swap1\n      pop\n        /* \"#utility.yul\":4728:5147   */\n      swap2\n      swap1\n      pop\n      jump\t// out\n        /* \"#utility.yul\":5153:5572   */\n    tag_99:\n        /* \"#utility.yul\":5319:5323   */\n      0x00\n        /* \"#utility.yul\":5357:5359   */\n      0x20\n        /* \"#utility.yul\":5346:5355   */\n      dup3\n        /* \"#utility.yul\":5342:5360   */\n      add\n        /* \"#utility.yul\":5334:5360   */\n      swap1\n      pop\n        /* \"#utility.yul\":5406:5415   */\n      dup2\n        /* \"#utility.yul\":5400:5404   */\n      dup2\n        /* \"#utility.yul\":5396:5416   */\n      sub\n        /* \"#utility.yul\":5392:5393   */\n      0x00\n        /* \"#utility.yul\":5381:5390   */\n      dup4\n        /* \"#utility.yul\":5377:5394   */\n      add\n        /* \"#utility.yul\":5370:5417   */\n      mstore\n        /* \"#utility.yul\":5434:5565   */\n      tag_196\n        /* \"#utility.yul\":5560:5564   */\n      dup2\n        /* \"#utility.yul\":5434:5565   */\n      tag_167\n      jump\t// in\n    tag_196:\n        /* \"#utility.yul\":5426:5565   */\n      swap1\n      pop\n        /* \"#utility.yul\":5153:5572   */\n      swap2\n      swap1\n      pop\n      jump\t// out\n        /* \"#utility.yul\":5578:5997   */\n    tag_95:\n        /* \"#utility.yul\":5744:5748   */\n      0x00\n        /* \"#utility.yul\":5782:5784   */\n      0x20\n        /* \"#utility.yul\":5771:5780   */\n      dup3\n        /* \"#utility.yul\":5767:5785   */\n      add\n        /* \"#utility.yul\":5759:5785   */\n      swap1\n      pop\n        /* \"#utility.yul\":5831:5840   */\n      dup2\n        /* \"#utility.yul\":5825:5829   */\n      dup2\n        /* \"#utility.yul\":5821:5841   */\n      sub\n        /* \"#utility.yul\":5817:5818   */\n      0x00\n        /* \"#utility.yul\":5806:5815   */\n      dup4\n        /* \"#utility.yul\":5802:5819   */\n      add\n        /* \"#utility.yul\":5795:5842   */\n      mstore\n        /* \"#utility.yul\":5859:5990   */\n      tag_198\n        /* \"#utility.yul\":5985:5989   */\n      dup2\n        /* \"#utility.yul\":5859:5990   */\n      tag_172\n      jump\t// in\n    tag_198:\n        /* \"#utility.yul\":5851:5990   */\n      swap1\n      pop\n        /* \"#utility.yul\":5578:5997   */\n      swap2\n      swap1\n      pop\n      jump\t// out\n        /* \"#utility.yul\":6003:6422   */\n    tag_78:\n        /* \"#utility.yul\":6169:6173   */\n      0x00\n        /* \"#utility.yul\":6207:6209   */\n      0x20\n        /* \"#utility.yul\":6196:6205   */\n      dup3\n        /* \"#utility.yul\":6192:6210   */\n      add\n        /* \"#utility.yul\":6184:6210   */\n      swap1\n      pop\n        /* \"#utility.yul\":6256:6265   */\n      dup2\n        /* \"#utility.yul\":6250:6254   */\n      dup2\n        /* \"#utility.yul\":6246:6266   */\n      sub\n        /* \"#utility.yul\":6242:6243   */\n      0x00\n        /* \"#utility.yul\":6231:6240   */\n      dup4\n        /* \"#utility.yul\":6227:6244   */\n      add\n        /* \"#utility.yul\":6220:6267   */\n      mstore\n        /* \"#utility.yul\":6284:6415   */\n      tag_200\n        /* \"#utility.yul\":6410:6414   */\n      dup2\n        /* \"#utility.yul\":6284:6415   */\n      tag_177\n      jump\t// in\n    tag_200:\n        /* \"#utility.yul\":6276:6415   */\n      swap1\n      pop\n        /* \"#utility.yul\":6003:6422   */\n      swap2\n      swap1\n      pop\n      jump\t// out\n        /* \"#utility.yul\":6428:6847   */\n    tag_72:\n        /* \"#utility.yul\":6594:6598   */\n      0x00\n        /* \"#utility.yul\":6632:6634   */\n      0x20\n        /* \"#utility.yul\":6621:6630   */\n      dup3\n        /* \"#utility.yul\":6617:6635   */\n      add\n        /* \"#utility.yul\":6609:6635   */\n      swap1\n      pop\n        /* \"#utility.yul\":6681:6690   */\n      dup2\n        /* \"#utility.yul\":6675:6679   */\n      dup2\n        /* \"#utility.yul\":6671:6691   */\n      sub\n        /* \"#utility.yul\":6667:6668   */\n      0x00\n        /* \"#utility.yul\":6656:6665   */\n      dup4\n        /* \"#utility.yul\":6652:6669   */\n      add\n        /* \"#utility.yul\":6645:6692   */\n      mstore\n        /* \"#utility.yul\":6709:6840   */\n      tag_202\n        /* \"#utility.yul\":6835:6839   */\n      dup2\n        /* \"#utility.yul\":6709:6840   */\n      tag_182\n      jump\t// in\n    tag_202:\n        /* \"#utility.yul\":6701:6840   */\n      swap1\n      pop\n        /* \"#utility.yul\":6428:6847   */\n      swap2\n      swap1\n      pop\n      jump\t// out\n        /* \"#utility.yul\":6853:7075   */\n    tag_24:\n        /* \"#utility.yul\":6946:6950   */\n      0x00\n        /* \"#utility.yul\":6984:6986   */\n      0x20\n        /* \"#utility.yul\":6973:6982   */\n      dup3\n        /* \"#utility.yul\":6969:6987   */\n      add\n        /* \"#utility.yul\":6961:6987   */\n      swap1\n      pop\n        /* \"#utility.yul\":6997:7068   */\n      tag_204\n        /* \"#utility.yul\":7065:7066   */\n      0x00\n        /* \"#utility.yul\":7054:7063   */\n      dup4\n        /* \"#utility.yul\":7050:7067   */\n      add\n        /* \"#utility.yul\":7041:7047   */\n      dup5\n        /* \"#utility.yul\":6997:7068   */\n      tag_187\n      jump\t// in\n    tag_204:\n        /* \"#utility.yul\":6853:7075   */\n      swap3\n      swap2\n      pop\n      pop\n      jump\t// out\n        /* \"#utility.yul\":7081:7210   */\n    tag_119:\n        /* \"#utility.yul\":7115:7121   */\n      0x00\n        /* \"#utility.yul\":7142:7162   */\n      tag_206\n      tag_207\n      jump\t// in\n    tag_206:\n        /* \"#utility.yul\":7132:7162   */\n      swap1\n      pop\n        /* \"#utility.yul\":7171:7204   */\n      tag_208\n        /* \"#utility.yul\":7199:7203   */\n      dup3\n        /* \"#utility.yul\":7191:7197   */\n      dup3\n        /* \"#utility.yul\":7171:7204   */\n      tag_209\n      jump\t// in\n    tag_208:\n        /* \"#utility.yul\":7081:7210   */\n      swap2\n      swap1\n      pop\n      jump\t// out\n        /* \"#utility.yul\":7216:7291   */\n    tag_207:\n        /* \"#utility.yul\":7249:7255   */\n      0x00\n        /* \"#utility.yul\":7282:7284   */\n      0x40\n        /* \"#utility.yul\":7276:7285   */\n      mload\n        /* \"#utility.yul\":7266:7285   */\n      swap1\n      pop\n        /* \"#utility.yul\":7216:7291   */\n      swap1\n      jump\t// out\n        /* \"#utility.yul\":7297:7605   */\n    tag_118:\n        /* \"#utility.yul\":7359:7363   */\n      0x00\n        /* \"#utility.yul\":7449:7467   */\n      0xffffffffffffffff\n        /* \"#utility.yul\":7441:7447   */\n      dup3\n        /* \"#utility.yul\":7438:7468   */\n      gt\n        /* \"#utility.yul\":7435:7491   */\n      iszero\n      tag_212\n      jumpi\n        /* \"#utility.yul\":7471:7489   */\n      tag_213\n      tag_214\n      jump\t// in\n    tag_213:\n        /* \"#utility.yul\":7435:7491   */\n    tag_212:\n        /* \"#utility.yul\":7509:7538   */\n      tag_215\n        /* \"#utility.yul\":7531:7537   */\n      dup3\n        /* \"#utility.yul\":7509:7538   */\n      tag_216\n      jump\t// in\n    tag_215:\n        /* \"#utility.yul\":7501:7538   */\n      swap1\n      pop\n        /* \"#utility.yul\":7593:7597   */\n      0x20\n        /* \"#utility.yul\":7587:7591   */\n      dup2\n        /* \"#utility.yul\":7583:7598   */\n      add\n        /* \"#utility.yul\":7575:7598   */\n      swap1\n      pop\n        /* \"#utility.yul\":7297:7605   */\n      swap2\n      swap1\n      pop\n      jump\t// out\n        /* \"#utility.yul\":7611:7780   */\n    tag_164:\n        /* \"#utility.yul\":7695:7706   */\n      0x00\n        /* \"#utility.yul\":7729:7735   */\n      dup3\n        /* \"#utility.yul\":7724:7727   */\n      dup3\n        /* \"#utility.yul\":7717:7736   */\n      mstore\n        /* \"#utility.yul\":7769:7773   */\n      0x20\n        /* \"#utility.yul\":7764:7767   */\n      dup3\n        /* \"#utility.yul\":7760:7774   */\n      add\n        /* \"#utility.yul\":7745:7774   */\n      swap1\n      pop\n        /* \"#utility.yul\":7611:7780   */\n      swap3\n      swap2\n      pop\n      pop\n      jump\t// out\n        /* \"#utility.yul\":7786:8091   */\n    tag_83:\n        /* \"#utility.yul\":7826:7829   */\n      0x00\n        /* \"#utility.yul\":7845:7865   */\n      tag_219\n        /* \"#utility.yul\":7863:7864   */\n      dup3\n        /* \"#utility.yul\":7845:7865   */\n      tag_190\n      jump\t// in\n    tag_219:\n        /* \"#utility.yul\":7840:7865   */\n      swap2\n      pop\n        /* \"#utility.yul\":7879:7899   */\n      tag_220\n        /* \"#utility.yul\":7897:7898   */\n      dup4\n        /* \"#utility.yul\":7879:7899   */\n      tag_190\n      jump\t// in\n    tag_220:\n        /* \"#utility.yul\":7874:7899   */\n      swap3\n      pop\n        /* \"#utility.yul\":8033:8034   */\n      dup3\n        /* \"#utility.yul\":7965:8031   */\n      0xffffffffffffffffffffffffffffffffffffffffffffffffffffffffffffffff\n        /* \"#utility.yul\":7961:8035   */\n      sub\n        /* \"#utility.yul\":7958:7959   */\n      dup3\n        /* \"#utility.yul\":7955:8036   */\n      gt\n        /* \"#utility.yul\":7952:8059   */\n      iszero\n      tag_221\n      jumpi\n        /* \"#utility.yul\":8039:8057   */\n      tag_222\n      tag_223\n      jump\t// in\n    tag_222:\n        /* \"#utility.yul\":7952:8059   */\n    tag_221:\n        /* \"#utility.yul\":8083:8084   */\n      dup3\n        /* \"#utility.yul\":8080:8081   */\n      dup3\n        /* \"#utility.yul\":8076:8085   */\n      add\n        /* \"#utility.yul\":8069:8085   */\n      swap1\n      pop\n        /* \"#utility.yul\":7786:8091   */\n      swap3\n      swap2\n      pop\n      pop\n      jump\t// out\n        /* \"#utility.yul\":8097:8193   */\n    tag_160:\n        /* \"#utility.yul\":8134:8141   */\n      0x00\n        /* \"#utility.yul\":8163:8187   */\n      tag_225\n        /* \"#utility.yul\":8181:8186   */\n      dup3\n        /* \"#utility.yul\":8163:8187   */\n      tag_226\n      jump\t// in\n    tag_225:\n        /* \"#utility.yul\":8152:8187   */\n      swap1\n      pop\n        /* \"#utility.yul\":8097:8193   */\n      swap2\n      swap1\n      pop\n      jump\t// out\n        /* \"#utility.yul\":8199:8303   */\n    tag_227:\n        /* \"#utility.yul\":8244:8251   */\n      0x00\n        /* \"#utility.yul\":8273:8297   */\n      tag_229\n        /* \"#utility.yul\":8291:8296   */\n      dup3\n        /* \"#utility.yul\":8273:8297   */\n      tag_226\n      jump\t// in\n    tag_229:\n        /* \"#utility.yul\":8262:8297   */\n      swap1\n      pop\n        /* \"#utility.yul\":8199:8303   */\n      swap2\n      swap1\n      pop\n      jump\t// out\n        /* \"#utility.yul\":8309:8435   */\n    tag_226:\n        /* \"#utility.yul\":8346:8353   */\n      0x00\n        /* \"#utility.yul\":8386:8428   */\n      0xffffffffffffffffffffffffffffffffffffffff\n        /* \"#utility.yul\":8379:8384   */\n      dup3\n        /* \"#utility.yul\":8375:8429   */\n      and\n        /* \"#utility.yul\":8364:8429   */\n      swap1\n      pop\n        /* \"#utility.yul\":8309:8435   */\n      swap2\n      swap1\n      pop\n      jump\t// out\n        /* \"#utility.yul\":8441:8518   */\n    tag_190:\n        /* \"#utility.yul\":8478:8485   */\n      0x00\n        /* \"#utility.yul\":8507:8512   */\n      dup2\n        /* \"#utility.yul\":8496:8512   */\n      swap1\n      pop\n        /* \"#utility.yul\":8441:8518   */\n      swap2\n      swap1\n      pop\n      jump\t// out\n        /* \"#utility.yul\":8524:8678   */\n    tag_124:\n        /* \"#utility.yul\":8608:8614   */\n      dup3\n        /* \"#utility.yul\":8603:8606   */\n      dup2\n        /* \"#utility.yul\":8598:8601   */\n      dup4\n        /* \"#utility.yul\":8585:8615   */\n      calldatacopy\n        /* \"#utility.yul\":8670:8671   */\n      0x00\n        /* \"#utility.yul\":8661:8667   */\n      dup4\n        /* \"#utility.yul\":8656:8659   */\n      dup4\n        /* \"#utility.yul\":8652:8668   */\n      add\n        /* \"#utility.yul\":8645:8672   */\n      mstore\n        /* \"#utility.yul\":8524:8678   */\n      pop\n      pop\n      pop\n      jump\t// out\n        /* \"#utility.yul\":8684:9004   */\n    tag_103:\n        /* \"#utility.yul\":8728:8734   */\n      0x00\n        /* \"#utility.yul\":8765:8766   */\n      0x02\n        /* \"#utility.yul\":8759:8763   */\n      dup3\n        /* \"#utility.yul\":8755:8767   */\n      div\n        /* \"#utility.yul\":8745:8767   */\n      swap1\n      pop\n        /* \"#utility.yul\":8812:8813   */\n      0x01\n        /* \"#utility.yul\":8806:8810   */\n      dup3\n        /* \"#utility.yul\":8802:8814   */\n      and\n        /* \"#utility.yul\":8833:8851   */\n      dup1\n        /* \"#utility.yul\":8823:8904   */\n      tag_234\n      jumpi\n        /* \"#utility.yul\":8889:8893   */\n      0x7f\n        /* \"#utility.yul\":8881:8887   */\n      dup3\n        /* \"#utility.yul\":8877:8894   */\n      and\n        /* \"#utility.yul\":8867:8894   */\n      swap2\n      pop\n        /* \"#utility.yul\":8823:8904   */\n    tag_234:\n        /* \"#utility.yul\":8951:8953   */\n      0x20\n        /* \"#utility.yul\":8943:8949   */\n      dup3\n        /* \"#utility.yul\":8940:8954   */\n      lt\n        /* \"#utility.yul\":8920:8938   */\n      dup2\n        /* \"#utility.yul\":8917:8955   */\n      eq\n        /* \"#utility.yul\":8914:8998   */\n      iszero\n      tag_235\n      jumpi\n        /* \"#utility.yul\":8970:8988   */\n      tag_236\n      tag_237\n      jump\t// in\n    tag_236:\n        /* \"#utility.yul\":8914:8998   */\n    tag_235:\n        /* \"#utility.yul\":8735:9004   */\n      pop\n        /* \"#utility.yul\":8684:9004   */\n      swap2\n      swap1\n      pop\n      jump\t// out\n        /* \"#utility.yul\":9010:9291   */\n    tag_209:\n        /* \"#utility.yul\":9093:9120   */\n      tag_239\n        /* \"#utility.yul\":9115:9119   */\n      dup3\n        /* \"#utility.yul\":9093:9120   */\n      tag_216\n      jump\t// in\n    tag_239:\n        /* \"#utility.yul\":9085:9091   */\n      dup2\n        /* \"#utility.yul\":9081:9121   */\n      add\n        /* \"#utility.yul\":9223:9229   */\n      dup2\n        /* \"#utility.yul\":9211:9221   */\n      dup2\n        /* \"#utility.yul\":9208:9230   */\n      lt\n        /* \"#utility.yul\":9187:9205   */\n      0xffffffffffffffff\n        /* \"#utility.yul\":9175:9185   */\n      dup3\n        /* \"#utility.yul\":9172:9206   */\n      gt\n        /* \"#utility.yul\":9169:9231   */\n      or\n        /* \"#utility.yul\":9166:9254   */\n      iszero\n      tag_240\n      jumpi\n        /* \"#utility.yul\":9234:9252   */\n      tag_241\n      tag_214\n      jump\t// in\n    tag_241:\n        /* \"#utility.yul\":9166:9254   */\n    tag_240:\n        /* \"#utility.yul\":9274:9284   */\n      dup1\n        /* \"#utility.yul\":9270:9272   */\n      0x40\n        /* \"#utility.yul\":9263:9285   */\n      mstore\n        /* \"#utility.yul\":9053:9291   */\n      pop\n        /* \"#utility.yul\":9010:9291   */\n      pop\n      pop\n      jump\t// out\n        /* \"#utility.yul\":9297:9530   */\n    tag_81:\n        /* \"#utility.yul\":9336:9339   */\n      0x00\n        /* \"#utility.yul\":9359:9383   */\n      tag_243\n        /* \"#utility.yul\":9377:9382   */\n      dup3\n        /* \"#utility.yul\":9359:9383   */\n      tag_190\n      jump\t// in\n    tag_243:\n        /* \"#utility.yul\":9350:9383   */\n      swap2\n      pop\n        /* \"#utility.yul\":9405:9471   */\n      0xffffffffffffffffffffffffffffffffffffffffffffffffffffffffffffffff\n        /* \"#utility.yul\":9398:9403   */\n      dup3\n        /* \"#utility.yul\":9395:9472   */\n      eq\n        /* \"#utility.yul\":9392:9495   */\n      iszero\n      tag_244\n      jumpi\n        /* \"#utility.yul\":9475:9493   */\n      tag_245\n      tag_223\n      jump\t// in\n    tag_245:\n        /* \"#utility.yul\":9392:9495   */\n    tag_244:\n        /* \"#utility.yul\":9522:9523   */\n      0x01\n        /* \"#utility.yul\":9515:9520   */\n      dup3\n        /* \"#utility.yul\":9511:9524   */\n      add\n        /* \"#utility.yul\":9504:9524   */\n      swap1\n      pop\n        /* \"#utility.yul\":9297:9530   */\n      swap2\n      swap1\n      pop\n      jump\t// out\n        /* \"#utility.yul\":9536:9716   */\n    tag_223:\n        /* \"#utility.yul\":9584:9661   */\n      0x4e487b7100000000000000000000000000000000000000000000000000000000\n        /* \"#utility.yul\":9581:9582   */\n      0x00\n        /* \"#utility.yul\":9574:9662   */\n      mstore\n        /* \"#utility.yul\":9681:9685   */\n      0x11\n        /* \"#utility.yul\":9678:9679   */\n      0x04\n        /* \"#utility.yul\":9671:9686   */\n      mstore\n        /* \"#utility.yul\":9705:9709   */\n      0x24\n        /* \"#utility.yul\":9702:9703   */\n      0x00\n        /* \"#utility.yul\":9695:9710   */\n      revert\n        /* \"#utility.yul\":9722:9902   */\n    tag_237:\n        /* \"#utility.yul\":9770:9847   */\n      0x4e487b7100000000000000000000000000000000000000000000000000000000\n        /* \"#utility.yul\":9767:9768   */\n      0x00\n        /* \"#utility.yul\":9760:9848   */\n      mstore\n        /* \"#utility.yul\":9867:9871   */\n      0x22\n        /* \"#utility.yul\":9864:9865   */\n      0x04\n        /* \"#utility.yul\":9857:9872   */\n      mstore\n        /* \"#utility.yul\":9891:9895   */\n      0x24\n        /* \"#utility.yul\":9888:9889   */\n      0x00\n        /* \"#utility.yul\":9881:9896   */\n      revert\n        /* \"#utility.yul\":9908:10088   */\n    tag_214:\n        /* \"#utility.yul\":9956:10033   */\n      0x4e487b7100000000000000000000000000000000000000000000000000000000\n        /* \"#utility.yul\":9953:9954   */\n      0x00\n        /* \"#utility.yul\":9946:10034   */\n      mstore\n        /* \"#utility.yul\":10053:10057   */\n      0x41\n        /* \"#utility.yul\":10050:10051   */\n      0x04\n        /* \"#utility.yul\":10043:10058   */\n      mstore\n        /* \"#utility.yul\":10077:10081   */\n      0x24\n        /* \"#utility.yul\":10074:10075   */\n      0x00\n        /* \"#utility.yul\":10067:10082   */\n      revert\n        /* \"#utility.yul\":10094:10211   */\n    tag_137:\n        /* \"#utility.yul\":10203:10204   */\n      0x00\n        /* \"#utility.yul\":10200:10201   */\n      dup1\n        /* \"#utility.yul\":10193:10205   */\n      revert\n        /* \"#utility.yul\":10217:10334   */\n    tag_122:\n        /* \"#utility.yul\":10326:10327   */\n      0x00\n        /* \"#utility.yul\":10323:10324   */\n      dup1\n        /* \"#utility.yul\":10316:10328   */\n      revert\n        /* \"#utility.yul\":10340:10457   */\n    tag_153:\n        /* \"#utility.yul\":10449:10450   */\n      0x00\n        /* \"#utility.yul\":10446:10447   */\n      dup1\n        /* \"#utility.yul\":10439:10451   */\n      revert\n        /* \"#utility.yul\":10463:10580   */\n    tag_146:\n        /* \"#utility.yul\":10572:10573   */\n      0x00\n        /* \"#utility.yul\":10569:10570   */\n      dup1\n        /* \"#utility.yul\":10562:10574   */\n      revert\n        /* \"#utility.yul\":10586:10688   */\n    tag_216:\n        /* \"#utility.yul\":10627:10633   */\n      0x00\n        /* \"#utility.yul\":10678:10680   */\n      0x1f\n        /* \"#utility.yul\":10674:10681   */\n      not\n        /* \"#utility.yul\":10669:10671   */\n      0x1f\n        /* \"#utility.yul\":10662:10667   */\n      dup4\n        /* \"#utility.yul\":10658:10672   */\n      add\n        /* \"#utility.yul\":10654:10682   */\n      and\n        /* \"#utility.yul\":10644:10682   */\n      swap1\n      pop\n        /* \"#utility.yul\":10586:10688   */\n      swap2\n      swap1\n      pop\n      jump\t// out\n        /* \"#utility.yul\":10694:10914   */\n    tag_166:\n        /* \"#utility.yul\":10834:10868   */\n      0x476f616c20666f722066756e64696e6720686173206265656e20726561636865\n        /* \"#utility.yul\":10830:10831   */\n      0x00\n        /* \"#utility.yul\":10822:10828   */\n      dup3\n        /* \"#utility.yul\":10818:10832   */\n      add\n        /* \"#utility.yul\":10811:10869   */\n      mstore\n        /* \"#utility.yul\":10903:10906   */\n      0x6400000000000000000000000000000000000000000000000000000000000000\n        /* \"#utility.yul\":10898:10900   */\n      0x20\n        /* \"#utility.yul\":10890:10896   */\n      dup3\n        /* \"#utility.yul\":10886:10901   */\n      add\n        /* \"#utility.yul\":10879:10907   */\n      mstore\n        /* \"#utility.yul\":10694:10914   */\n      pop\n      jump\t// out\n        /* \"#utility.yul\":10920:11142   */\n    tag_171:\n        /* \"#utility.yul\":11060:11094   */\n      0x46756e64696e672074696d65206672616d652069732079657420746f20657870\n        /* \"#utility.yul\":11056:11057   */\n      0x00\n        /* \"#utility.yul\":11048:11054   */\n      dup3\n        /* \"#utility.yul\":11044:11058   */\n      add\n        /* \"#utility.yul\":11037:11095   */\n      mstore\n        /* \"#utility.yul\":11129:11134   */\n      0x6972650000000000000000000000000000000000000000000000000000000000\n        /* \"#utility.yul\":11124:11126   */\n      0x20\n        /* \"#utility.yul\":11116:11122   */\n      dup3\n        /* \"#utility.yul\":11112:11127   */\n      add\n        /* \"#utility.yul\":11105:11135   */\n      mstore\n        /* \"#utility.yul\":10920:11142   */\n      pop\n      jump\t// out\n        /* \"#utility.yul\":11148:11370   */\n    tag_176:\n        /* \"#utility.yul\":11288:11322   */\n      0x596f7520617265206e6f7420616e206578697374696e6720636f6e7472696275\n        /* \"#utility.yul\":11284:11285   */\n      0x00\n        /* \"#utility.yul\":11276:11282   */\n      dup3\n        /* \"#utility.yul\":11272:11286   */\n      add\n        /* \"#utility.yul\":11265:11323   */\n      mstore\n        /* \"#utility.yul\":11357:11362   */\n      0x746f720000000000000000000000000000000000000000000000000000000000\n        /* \"#utility.yul\":11352:11354   */\n      0x20\n        /* \"#utility.yul\":11344:11350   */\n      dup3\n        /* \"#utility.yul\":11340:11355   */\n      add\n        /* \"#utility.yul\":11333:11363   */\n      mstore\n        /* \"#utility.yul\":11148:11370   */\n      pop\n      jump\t// out\n        /* \"#utility.yul\":11376:11600   */\n    tag_181:\n        /* \"#utility.yul\":11516:11550   */\n      0x54696d65206672616d652073657420666f7220756e64696e672068617320656c\n        /* \"#utility.yul\":11512:11513   */\n      0x00\n        /* \"#utility.yul\":11504:11510   */\n      dup3\n        /* \"#utility.yul\":11500:11514   */\n      add\n        /* \"#utility.yul\":11493:11551   */\n      mstore\n        /* \"#utility.yul\":11585:11592   */\n      0x6173706564000000000000000000000000000000000000000000000000000000\n        /* \"#utility.yul\":11580:11582   */\n      0x20\n        /* \"#utility.yul\":11572:11578   */\n      dup3\n        /* \"#utility.yul\":11568:11583   */\n      add\n        /* \"#utility.yul\":11561:11593   */\n      mstore\n        /* \"#utility.yul\":11376:11600   */\n      pop\n      jump\t// out\n        /* \"#utility.yul\":11606:11839   */\n    tag_186:\n        /* \"#utility.yul\":11746:11780   */\n      0x416d6f756e74206d7573742062652067726561746572207468616e2074686520\n        /* \"#utility.yul\":11742:11743   */\n      0x00\n        /* \"#utility.yul\":11734:11740   */\n      dup3\n        /* \"#utility.yul\":11730:11744   */\n      add\n        /* \"#utility.yul\":11723:11781   */\n      mstore\n        /* \"#utility.yul\":11815:11831   */\n      0x6d696e696d756d20616d6f756e74000000000000000000000000000000000000\n        /* \"#utility.yul\":11810:11812   */\n      0x20\n        /* \"#utility.yul\":11802:11808   */\n      dup3\n        /* \"#utility.yul\":11798:11813   */\n      add\n        /* \"#utility.yul\":11791:11832   */\n      mstore\n        /* \"#utility.yul\":11606:11839   */\n      pop\n      jump\t// out\n        /* \"#utility.yul\":11845:11967   */\n    tag_128:\n        /* \"#utility.yul\":11918:11942   */\n      tag_260\n        /* \"#utility.yul\":11936:11941   */\n      dup2\n        /* \"#utility.yul\":11918:11942   */\n      tag_160\n      jump\t// in\n    tag_260:\n        /* \"#utility.yul\":11911:11916   */\n      dup2\n        /* \"#utility.yul\":11908:11943   */\n      eq\n        /* \"#utility.yul\":11898:11961   */\n      tag_261\n      jumpi\n        /* \"#utility.yul\":11957:11958   */\n      0x00\n        /* \"#utility.yul\":11954:11955   */\n      dup1\n        /* \"#utility.yul\":11947:11959   */\n      revert\n        /* \"#utility.yul\":11898:11961   */\n    tag_261:\n        /* \"#utility.yul\":11845:11967   */\n      pop\n      jump\t// out\n        /* \"#utility.yul\":11973:12111   */\n    tag_132:\n        /* \"#utility.yul\":12054:12086   */\n      tag_263\n        /* \"#utility.yul\":12080:12085   */\n      dup2\n        /* \"#utility.yul\":12054:12086   */\n      tag_227\n      jump\t// in\n    tag_263:\n        /* \"#utility.yul\":12047:12052   */\n      dup2\n        /* \"#utility.yul\":12044:12087   */\n      eq\n        /* \"#utility.yul\":12034:12105   */\n      tag_264\n      jumpi\n        /* \"#utility.yul\":12101:12102   */\n      0x00\n        /* \"#utility.yul\":12098:12099   */\n      dup1\n        /* \"#utility.yul\":12091:12103   */\n      revert\n        /* \"#utility.yul\":12034:12105   */\n    tag_264:\n        /* \"#utility.yul\":11973:12111   */\n      pop\n      jump\t// out\n        /* \"#utility.yul\":12117:12239   */\n    tag_142:\n        /* \"#utility.yul\":12190:12214   */\n      tag_266\n        /* \"#utility.yul\":12208:12213   */\n      dup2\n        /* \"#utility.yul\":12190:12214   */\n      tag_190\n      jump\t// in\n    tag_266:\n        /* \"#utility.yul\":12183:12188   */\n      dup2\n        /* \"#utility.yul\":12180:12215   */\n      eq\n        /* \"#utility.yul\":12170:12233   */\n      tag_267\n      jumpi\n        /* \"#utility.yul\":12229:12230   */\n      0x00\n        /* \"#utility.yul\":12226:12227   */\n      dup1\n        /* \"#utility.yul\":12219:12231   */\n      revert\n        /* \"#utility.yul\":12170:12233   */\n    tag_267:\n        /* \"#utility.yul\":12117:12239   */\n      pop\n      jump\t// out\n\n    auxdata: 0xa264697066735822122039a5b71220351a7d67880cd3e074bb481fa4e712f21d401b110bfcdb56698ce264736f6c63430008070033\n}\n",
				"bytecode": {
					"linkReferences": {},
					"object": "60806040523480156200001157600080fd5b5060405162001137380380620011378339818101604052810190620000379190620000c2565b8160028190555080426200004c919062000109565b60038190555033600160006101000a81548173ffffffffffffffffffffffffffffffffffffffff021916908373ffffffffffffffffffffffffffffffffffffffff16021790555068056bc75e2d631000006004819055505050620001be565b600081519050620000bc81620001a4565b92915050565b60008060408385031215620000dc57620000db6200019f565b5b6000620000ec85828601620000ab565b9250506020620000ff85828601620000ab565b9150509250929050565b6000620001168262000166565b9150620001238362000166565b9250827fffffffffffffffffffffffffffffffffffffffffffffffffffffffffffffffff038211156200015b576200015a62000170565b5b828201905092915050565b6000819050919050565b7f4e487b7100000000000000000000000000000000000000000000000000000000600052601160045260246000fd5b600080fd5b620001af8162000166565b8114620001bb57600080fd5b50565b610f6980620001ce6000396000f3fe6080604052600436106100ab5760003560e01c8063b2d5ae4411610064578063b2d5ae44146101d1578063bb0c8298146101e8578063bef3a08314610213578063c1f11b4c1461023e578063d7bb99ba14610269578063f851a44014610273576100ba565b806312065fe0146100bf5780631a39d8ef146100ea5780631f6d49421461011557806340193883146101525780634377cf651461017d5780638a9cfd55146101a8576100ba565b366100ba576100b861029e565b005b600080fd5b3480156100cb57600080fd5b506100d461043d565b6040516100e19190610ad0565b60405180910390f35b3480156100f657600080fd5b506100ff610445565b60405161010c9190610ad0565b60405180910390f35b34801561012157600080fd5b5061013c600480360381019061013791906108ac565b61044b565b6040516101499190610ad0565b60405180910390f35b34801561015e57600080fd5b50610167610463565b6040516101749190610ad0565b60405180910390f35b34801561018957600080fd5b50610192610469565b60405161019f9190610ad0565b60405180910390f35b3480156101b457600080fd5b506101cf60048036038101906101ca91906108d9565b61046f565b005b3480156101dd57600080fd5b506101e6610582565b005b3480156101f457600080fd5b506101fd610722565b60405161020a9190610ad0565b60405180910390f35b34801561021f57600080fd5b50610228610728565b6040516102359190610ad0565b60405180910390f35b34801561024a57600080fd5b5061025361072e565b6040516102609190610ad0565b60405180910390f35b61027161029e565b005b34801561027f57600080fd5b50610288610734565b6040516102959190610a15565b60405180910390f35b6004543410156102e3576040517f08c379a00000000000000000000000000000000000000000000000000000000081526004016102da90610ab0565b60405180910390fd5b60025460055410610329576040517f08c379a000000000000000000000000000000000000000000000000000000000815260040161032090610a30565b60405180910390fd5b600354421061036d576040517f08c379a000000000000000000000000000000000000000000000000000000000815260040161036490610a90565b60405180910390fd5b60008060003373ffffffffffffffffffffffffffffffffffffffff1673ffffffffffffffffffffffffffffffffffffffff1681526020019081526020016000205414156103cd57600660008154809291906103c790610c68565b91905055505b346000803373ffffffffffffffffffffffffffffffffffffffff1673ffffffffffffffffffffffffffffffffffffffff168152602001908152602001600020600082825461041b9190610b52565b9250508190555034600560008282546104349190610b52565b92505081905550565b600047905090565b60055481565b60006020528060005260406000206000915090505481565b60025481565b60065481565b600160009054906101000a900473ffffffffffffffffffffffffffffffffffffffff1673ffffffffffffffffffffffffffffffffffffffff163373ffffffffffffffffffffffffffffffffffffffff16146104c957600080fd5b60006008600060075481526020019081526020016000209050838160000190805190602001906104fa92919061075a565b5082816001018190555060008160040160006101000a81548160ff021916908315150217905550818160020160006101000a81548173ffffffffffffffffffffffffffffffffffffffff021916908373ffffffffffffffffffffffffffffffffffffffff1602179055506007600081548092919061057790610c68565b919050555050505050565b60008060003373ffffffffffffffffffffffffffffffffffffffff1673ffffffffffffffffffffffffffffffffffffffff1681526020019081526020016000205411610603576040517f08c379a00000000000000000000000000000000000000000000000000000000081526004016105fa90610a70565b60405180910390fd5b60035442101580156106185750600254600554105b610657576040517f08c379a000000000000000000000000000000000000000000000000000000000815260040161064e90610a50565b60405180910390fd5b3373ffffffffffffffffffffffffffffffffffffffff166108fc6000803373ffffffffffffffffffffffffffffffffffffffff1673ffffffffffffffffffffffffffffffffffffffff168152602001908152602001600020549081150290604051600060405180830381858888f193505050501580156106db573d6000803e3d6000fd5b5060008060003373ffffffffffffffffffffffffffffffffffffffff1673ffffffffffffffffffffffffffffffffffffffff16815260200190815260200160002081905550565b60045481565b60035481565b60075481565b600160009054906101000a900473ffffffffffffffffffffffffffffffffffffffff1681565b82805461076690610c05565b90600052602060002090601f01602090048101928261078857600085556107cf565b82601f106107a157805160ff19168380011785556107cf565b828001600101855582156107cf579182015b828111156107ce5782518255916020019190600101906107b3565b5b5090506107dc91906107e0565b5090565b5b808211156107f95760008160009055506001016107e1565b5090565b600061081061080b84610b10565b610aeb565b90508281526020810184848401111561082c5761082b610d43565b5b610837848285610bf6565b509392505050565b60008135905061084e81610eee565b92915050565b60008135905061086381610f05565b92915050565b600082601f83011261087e5761087d610d3e565b5b813561088e8482602086016107fd565b91505092915050565b6000813590506108a681610f1c565b92915050565b6000602082840312156108c2576108c1610d4d565b5b60006108d08482850161083f565b91505092915050565b6000806000606084860312156108f2576108f1610d4d565b5b600084013567ffffffffffffffff8111156109105761090f610d48565b5b61091c86828701610869565b935050602061092d86828701610897565b925050604061093e86828701610854565b9150509250925092565b61095181610ba8565b82525050565b6000610964602183610b41565b915061096f82610d63565b604082019050919050565b6000610987602383610b41565b915061099282610db2565b604082019050919050565b60006109aa602383610b41565b91506109b582610e01565b604082019050919050565b60006109cd602583610b41565b91506109d882610e50565b604082019050919050565b60006109f0602e83610b41565b91506109fb82610e9f565b604082019050919050565b610a0f81610bec565b82525050565b6000602082019050610a2a6000830184610948565b92915050565b60006020820190508181036000830152610a4981610957565b9050919050565b60006020820190508181036000830152610a698161097a565b9050919050565b60006020820190508181036000830152610a898161099d565b9050919050565b60006020820190508181036000830152610aa9816109c0565b9050919050565b60006020820190508181036000830152610ac9816109e3565b9050919050565b6000602082019050610ae56000830184610a06565b92915050565b6000610af5610b06565b9050610b018282610c37565b919050565b6000604051905090565b600067ffffffffffffffff821115610b2b57610b2a610d0f565b5b610b3482610d52565b9050602081019050919050565b600082825260208201905092915050565b6000610b5d82610bec565b9150610b6883610bec565b9250827fffffffffffffffffffffffffffffffffffffffffffffffffffffffffffffffff03821115610b9d57610b9c610cb1565b5b828201905092915050565b6000610bb382610bcc565b9050919050565b6000610bc582610bcc565b9050919050565b600073ffffffffffffffffffffffffffffffffffffffff82169050919050565b6000819050919050565b82818337600083830152505050565b60006002820490506001821680610c1d57607f821691505b60208210811415610c3157610c30610ce0565b5b50919050565b610c4082610d52565b810181811067ffffffffffffffff82111715610c5f57610c5e610d0f565b5b80604052505050565b6000610c7382610bec565b91507fffffffffffffffffffffffffffffffffffffffffffffffffffffffffffffffff821415610ca657610ca5610cb1565b5b600182019050919050565b7f4e487b7100000000000000000000000000000000000000000000000000000000600052601160045260246000fd5b7f4e487b7100000000000000000000000000000000000000000000000000000000600052602260045260246000fd5b7f4e487b7100000000000000000000000000000000000000000000000000000000600052604160045260246000fd5b600080fd5b600080fd5b600080fd5b600080fd5b6000601f19601f8301169050919050565b7f476f616c20666f722066756e64696e6720686173206265656e2072656163686560008201527f6400000000000000000000000000000000000000000000000000000000000000602082015250565b7f46756e64696e672074696d65206672616d652069732079657420746f2065787060008201527f6972650000000000000000000000000000000000000000000000000000000000602082015250565b7f596f7520617265206e6f7420616e206578697374696e6720636f6e747269627560008201527f746f720000000000000000000000000000000000000000000000000000000000602082015250565b7f54696d65206672616d652073657420666f7220756e64696e672068617320656c60008201527f6173706564000000000000000000000000000000000000000000000000000000602082015250565b7f416d6f756e74206d7573742062652067726561746572207468616e207468652060008201527f6d696e696d756d20616d6f756e74000000000000000000000000000000000000602082015250565b610ef781610ba8565b8114610f0257600080fd5b50565b610f0e81610bba565b8114610f1957600080fd5b50565b610f2581610bec565b8114610f3057600080fd5b5056fea264697066735822122039a5b71220351a7d67880cd3e074bb481fa4e712f21d401b110bfcdb56698ce264736f6c63430008070033",
					"opcodes": "PUSH1 0x80 PUSH1 0x40 MSTORE CALLVALUE DUP1 ISZERO PUSH3 0x11 JUMPI PUSH1 0x0 DUP1 REVERT JUMPDEST POP PUSH1 0x40 MLOAD PUSH3 0x1137 CODESIZE SUB DUP1 PUSH3 0x1137 DUP4 CODECOPY DUP2 DUP2 ADD PUSH1 0x40 MSTORE DUP2 ADD SWAP1 PUSH3 0x37 SWAP2 SWAP1 PUSH3 0xC2 JUMP JUMPDEST DUP2 PUSH1 0x2 DUP2 SWAP1 SSTORE POP DUP1 TIMESTAMP PUSH3 0x4C SWAP2 SWAP1 PUSH3 0x109 JUMP JUMPDEST PUSH1 0x3 DUP2 SWAP1 SSTORE POP CALLER PUSH1 0x1 PUSH1 0x0 PUSH2 0x100 EXP DUP2 SLOAD DUP2 PUSH20 0xFFFFFFFFFFFFFFFFFFFFFFFFFFFFFFFFFFFFFFFF MUL NOT AND SWAP1 DUP4 PUSH20 0xFFFFFFFFFFFFFFFFFFFFFFFFFFFFFFFFFFFFFFFF AND MUL OR SWAP1 SSTORE POP PUSH9 0x56BC75E2D63100000 PUSH1 0x4 DUP2 SWAP1 SSTORE POP POP POP PUSH3 0x1BE JUMP JUMPDEST PUSH1 0x0 DUP2 MLOAD SWAP1 POP PUSH3 0xBC DUP2 PUSH3 0x1A4 JUMP JUMPDEST SWAP3 SWAP2 POP POP JUMP JUMPDEST PUSH1 0x0 DUP1 PUSH1 0x40 DUP4 DUP6 SUB SLT ISZERO PUSH3 0xDC JUMPI PUSH3 0xDB PUSH3 0x19F JUMP JUMPDEST JUMPDEST PUSH1 0x0 PUSH3 0xEC DUP6 DUP3 DUP7 ADD PUSH3 0xAB JUMP JUMPDEST SWAP3 POP POP PUSH1 0x20 PUSH3 0xFF DUP6 DUP3 DUP7 ADD PUSH3 0xAB JUMP JUMPDEST SWAP2 POP POP SWAP3 POP SWAP3 SWAP1 POP JUMP JUMPDEST PUSH1 0x0 PUSH3 0x116 DUP3 PUSH3 0x166 JUMP JUMPDEST SWAP2 POP PUSH3 0x123 DUP4 PUSH3 0x166 JUMP JUMPDEST SWAP3 POP DUP3 PUSH32 0xFFFFFFFFFFFFFFFFFFFFFFFFFFFFFFFFFFFFFFFFFFFFFFFFFFFFFFFFFFFFFFFF SUB DUP3 GT ISZERO PUSH3 0x15B JUMPI PUSH3 0x15A PUSH3 0x170 JUMP JUMPDEST JUMPDEST DUP3 DUP3 ADD SWAP1 POP SWAP3 SWAP2 POP POP JUMP JUMPDEST PUSH1 0x0 DUP2 SWAP1 POP SWAP2 SWAP1 POP JUMP JUMPDEST PUSH32 0x4E487B7100000000000000000000000000000000000000000000000000000000 PUSH1 0x0 MSTORE PUSH1 0x11 PUSH1 0x4 MSTORE PUSH1 0x24 PUSH1 0x0 REVERT JUMPDEST PUSH1 0x0 DUP1 REVERT JUMPDEST PUSH3 0x1AF DUP2 PUSH3 0x166 JUMP JUMPDEST DUP2 EQ PUSH3 0x1BB JUMPI PUSH1 0x0 DUP1 REVERT JUMPDEST POP JUMP JUMPDEST PUSH2 0xF69 DUP1 PUSH3 0x1CE PUSH1 0x0 CODECOPY PUSH1 0x0 RETURN INVALID PUSH1 0x80 PUSH1 0x40 MSTORE PUSH1 0x4 CALLDATASIZE LT PUSH2 0xAB JUMPI PUSH1 0x0 CALLDATALOAD PUSH1 0xE0 SHR DUP1 PUSH4 0xB2D5AE44 GT PUSH2 0x64 JUMPI DUP1 PUSH4 0xB2D5AE44 EQ PUSH2 0x1D1 JUMPI DUP1 PUSH4 0xBB0C8298 EQ PUSH2 0x1E8 JUMPI DUP1 PUSH4 0xBEF3A083 EQ PUSH2 0x213 JUMPI DUP1 PUSH4 0xC1F11B4C EQ PUSH2 0x23E JUMPI DUP1 PUSH4 0xD7BB99BA EQ PUSH2 0x269 JUMPI DUP1 PUSH4 0xF851A440 EQ PUSH2 0x273 JUMPI PUSH2 0xBA JUMP JUMPDEST DUP1 PUSH4 0x12065FE0 EQ PUSH2 0xBF JUMPI DUP1 PUSH4 0x1A39D8EF EQ PUSH2 0xEA JUMPI DUP1 PUSH4 0x1F6D4942 EQ PUSH2 0x115 JUMPI DUP1 PUSH4 0x40193883 EQ PUSH2 0x152 JUMPI DUP1 PUSH4 0x4377CF65 EQ PUSH2 0x17D JUMPI DUP1 PUSH4 0x8A9CFD55 EQ PUSH2 0x1A8 JUMPI PUSH2 0xBA JUMP JUMPDEST CALLDATASIZE PUSH2 0xBA JUMPI PUSH2 0xB8 PUSH2 0x29E JUMP JUMPDEST STOP JUMPDEST PUSH1 0x0 DUP1 REVERT JUMPDEST CALLVALUE DUP1 ISZERO PUSH2 0xCB JUMPI PUSH1 0x0 DUP1 REVERT JUMPDEST POP PUSH2 0xD4 PUSH2 0x43D JUMP JUMPDEST PUSH1 0x40 MLOAD PUSH2 0xE1 SWAP2 SWAP1 PUSH2 0xAD0 JUMP JUMPDEST PUSH1 0x40 MLOAD DUP1 SWAP2 SUB SWAP1 RETURN JUMPDEST CALLVALUE DUP1 ISZERO PUSH2 0xF6 JUMPI PUSH1 0x0 DUP1 REVERT JUMPDEST POP PUSH2 0xFF PUSH2 0x445 JUMP JUMPDEST PUSH1 0x40 MLOAD PUSH2 0x10C SWAP2 SWAP1 PUSH2 0xAD0 JUMP JUMPDEST PUSH1 0x40 MLOAD DUP1 SWAP2 SUB SWAP1 RETURN JUMPDEST CALLVALUE DUP1 ISZERO PUSH2 0x121 JUMPI PUSH1 0x0 DUP1 REVERT JUMPDEST POP PUSH2 0x13C PUSH1 0x4 DUP1 CALLDATASIZE SUB DUP2 ADD SWAP1 PUSH2 0x137 SWAP2 SWAP1 PUSH2 0x8AC JUMP JUMPDEST PUSH2 0x44B JUMP JUMPDEST PUSH1 0x40 MLOAD PUSH2 0x149 SWAP2 SWAP1 PUSH2 0xAD0 JUMP JUMPDEST PUSH1 0x40 MLOAD DUP1 SWAP2 SUB SWAP1 RETURN JUMPDEST CALLVALUE DUP1 ISZERO PUSH2 0x15E JUMPI PUSH1 0x0 DUP1 REVERT JUMPDEST POP PUSH2 0x167 PUSH2 0x463 JUMP JUMPDEST PUSH1 0x40 MLOAD PUSH2 0x174 SWAP2 SWAP1 PUSH2 0xAD0 JUMP JUMPDEST PUSH1 0x40 MLOAD DUP1 SWAP2 SUB SWAP1 RETURN JUMPDEST CALLVALUE DUP1 ISZERO PUSH2 0x189 JUMPI PUSH1 0x0 DUP1 REVERT JUMPDEST POP PUSH2 0x192 PUSH2 0x469 JUMP JUMPDEST PUSH1 0x40 MLOAD PUSH2 0x19F SWAP2 SWAP1 PUSH2 0xAD0 JUMP JUMPDEST PUSH1 0x40 MLOAD DUP1 SWAP2 SUB SWAP1 RETURN JUMPDEST CALLVALUE DUP1 ISZERO PUSH2 0x1B4 JUMPI PUSH1 0x0 DUP1 REVERT JUMPDEST POP PUSH2 0x1CF PUSH1 0x4 DUP1 CALLDATASIZE SUB DUP2 ADD SWAP1 PUSH2 0x1CA SWAP2 SWAP1 PUSH2 0x8D9 JUMP JUMPDEST PUSH2 0x46F JUMP JUMPDEST STOP JUMPDEST CALLVALUE DUP1 ISZERO PUSH2 0x1DD JUMPI PUSH1 0x0 DUP1 REVERT JUMPDEST POP PUSH2 0x1E6 PUSH2 0x582 JUMP JUMPDEST STOP JUMPDEST CALLVALUE DUP1 ISZERO PUSH2 0x1F4 JUMPI PUSH1 0x0 DUP1 REVERT JUMPDEST POP PUSH2 0x1FD PUSH2 0x722 JUMP JUMPDEST PUSH1 0x40 MLOAD PUSH2 0x20A SWAP2 SWAP1 PUSH2 0xAD0 JUMP JUMPDEST PUSH1 0x40 MLOAD DUP1 SWAP2 SUB SWAP1 RETURN JUMPDEST CALLVALUE DUP1 ISZERO PUSH2 0x21F JUMPI PUSH1 0x0 DUP1 REVERT JUMPDEST POP PUSH2 0x228 PUSH2 0x728 JUMP JUMPDEST PUSH1 0x40 MLOAD PUSH2 0x235 SWAP2 SWAP1 PUSH2 0xAD0 JUMP JUMPDEST PUSH1 0x40 MLOAD DUP1 SWAP2 SUB SWAP1 RETURN JUMPDEST CALLVALUE DUP1 ISZERO PUSH2 0x24A JUMPI PUSH1 0x0 DUP1 REVERT JUMPDEST POP PUSH2 0x253 PUSH2 0x72E JUMP JUMPDEST PUSH1 0x40 MLOAD PUSH2 0x260 SWAP2 SWAP1 PUSH2 0xAD0 JUMP JUMPDEST PUSH1 0x40 MLOAD DUP1 SWAP2 SUB SWAP1 RETURN JUMPDEST PUSH2 0x271 PUSH2 0x29E JUMP JUMPDEST STOP JUMPDEST CALLVALUE DUP1 ISZERO PUSH2 0x27F JUMPI PUSH1 0x0 DUP1 REVERT JUMPDEST POP PUSH2 0x288 PUSH2 0x734 JUMP JUMPDEST PUSH1 0x40 MLOAD PUSH2 0x295 SWAP2 SWAP1 PUSH2 0xA15 JUMP JUMPDEST PUSH1 0x40 MLOAD DUP1 SWAP2 SUB SWAP1 RETURN JUMPDEST PUSH1 0x4 SLOAD CALLVALUE LT ISZERO PUSH2 0x2E3 JUMPI PUSH1 0x40 MLOAD PUSH32 0x8C379A000000000000000000000000000000000000000000000000000000000 DUP2 MSTORE PUSH1 0x4 ADD PUSH2 0x2DA SWAP1 PUSH2 0xAB0 JUMP JUMPDEST PUSH1 0x40 MLOAD DUP1 SWAP2 SUB SWAP1 REVERT JUMPDEST PUSH1 0x2 SLOAD PUSH1 0x5 SLOAD LT PUSH2 0x329 JUMPI PUSH1 0x40 MLOAD PUSH32 0x8C379A000000000000000000000000000000000000000000000000000000000 DUP2 MSTORE PUSH1 0x4 ADD PUSH2 0x320 SWAP1 PUSH2 0xA30 JUMP JUMPDEST PUSH1 0x40 MLOAD DUP1 SWAP2 SUB SWAP1 REVERT JUMPDEST PUSH1 0x3 SLOAD TIMESTAMP LT PUSH2 0x36D JUMPI PUSH1 0x40 MLOAD PUSH32 0x8C379A000000000000000000000000000000000000000000000000000000000 DUP2 MSTORE PUSH1 0x4 ADD PUSH2 0x364 SWAP1 PUSH2 0xA90 JUMP JUMPDEST PUSH1 0x40 MLOAD DUP1 SWAP2 SUB SWAP1 REVERT JUMPDEST PUSH1 0x0 DUP1 PUSH1 0x0 CALLER PUSH20 0xFFFFFFFFFFFFFFFFFFFFFFFFFFFFFFFFFFFFFFFF AND PUSH20 0xFFFFFFFFFFFFFFFFFFFFFFFFFFFFFFFFFFFFFFFF AND DUP2 MSTORE PUSH1 0x20 ADD SWAP1 DUP2 MSTORE PUSH1 0x20 ADD PUSH1 0x0 KECCAK256 SLOAD EQ ISZERO PUSH2 0x3CD JUMPI PUSH1 0x6 PUSH1 0x0 DUP2 SLOAD DUP1 SWAP3 SWAP2 SWAP1 PUSH2 0x3C7 SWAP1 PUSH2 0xC68 JUMP JUMPDEST SWAP2 SWAP1 POP SSTORE POP JUMPDEST CALLVALUE PUSH1 0x0 DUP1 CALLER PUSH20 0xFFFFFFFFFFFFFFFFFFFFFFFFFFFFFFFFFFFFFFFF AND PUSH20 0xFFFFFFFFFFFFFFFFFFFFFFFFFFFFFFFFFFFFFFFF AND DUP2 MSTORE PUSH1 0x20 ADD SWAP1 DUP2 MSTORE PUSH1 0x20 ADD PUSH1 0x0 KECCAK256 PUSH1 0x0 DUP3 DUP3 SLOAD PUSH2 0x41B SWAP2 SWAP1 PUSH2 0xB52 JUMP JUMPDEST SWAP3 POP POP DUP2 SWAP1 SSTORE POP CALLVALUE PUSH1 0x5 PUSH1 0x0 DUP3 DUP3 SLOAD PUSH2 0x434 SWAP2 SWAP1 PUSH2 0xB52 JUMP JUMPDEST SWAP3 POP POP DUP2 SWAP1 SSTORE POP JUMP JUMPDEST PUSH1 0x0 SELFBALANCE SWAP1 POP SWAP1 JUMP JUMPDEST PUSH1 0x5 SLOAD DUP2 JUMP JUMPDEST PUSH1 0x0 PUSH1 0x20 MSTORE DUP1 PUSH1 0x0 MSTORE PUSH1 0x40 PUSH1 0x0 KECCAK256 PUSH1 0x0 SWAP2 POP SWAP1 POP SLOAD DUP2 JUMP JUMPDEST PUSH1 0x2 SLOAD DUP2 JUMP JUMPDEST PUSH1 0x6 SLOAD DUP2 JUMP JUMPDEST PUSH1 0x1 PUSH1 0x0 SWAP1 SLOAD SWAP1 PUSH2 0x100 EXP SWAP1 DIV PUSH20 0xFFFFFFFFFFFFFFFFFFFFFFFFFFFFFFFFFFFFFFFF AND PUSH20 0xFFFFFFFFFFFFFFFFFFFFFFFFFFFFFFFFFFFFFFFF AND CALLER PUSH20 0xFFFFFFFFFFFFFFFFFFFFFFFFFFFFFFFFFFFFFFFF AND EQ PUSH2 0x4C9 JUMPI PUSH1 0x0 DUP1 REVERT JUMPDEST PUSH1 0x0 PUSH1 0x8 PUSH1 0x0 PUSH1 0x7 SLOAD DUP2 MSTORE PUSH1 0x20 ADD SWAP1 DUP2 MSTORE PUSH1 0x20 ADD PUSH1 0x0 KECCAK256 SWAP1 POP DUP4 DUP2 PUSH1 0x0 ADD SWAP1 DUP1 MLOAD SWAP1 PUSH1 0x20 ADD SWAP1 PUSH2 0x4FA SWAP3 SWAP2 SWAP1 PUSH2 0x75A JUMP JUMPDEST POP DUP3 DUP2 PUSH1 0x1 ADD DUP2 SWAP1 SSTORE POP PUSH1 0x0 DUP2 PUSH1 0x4 ADD PUSH1 0x0 PUSH2 0x100 EXP DUP2 SLOAD DUP2 PUSH1 0xFF MUL NOT AND SWAP1 DUP4 ISZERO ISZERO MUL OR SWAP1 SSTORE POP DUP2 DUP2 PUSH1 0x2 ADD PUSH1 0x0 PUSH2 0x100 EXP DUP2 SLOAD DUP2 PUSH20 0xFFFFFFFFFFFFFFFFFFFFFFFFFFFFFFFFFFFFFFFF MUL NOT AND SWAP1 DUP4 PUSH20 0xFFFFFFFFFFFFFFFFFFFFFFFFFFFFFFFFFFFFFFFF AND MUL OR SWAP1 SSTORE POP PUSH1 0x7 PUSH1 0x0 DUP2 SLOAD DUP1 SWAP3 SWAP2 SWAP1 PUSH2 0x577 SWAP1 PUSH2 0xC68 JUMP JUMPDEST SWAP2 SWAP1 POP SSTORE POP POP POP POP POP JUMP JUMPDEST PUSH1 0x0 DUP1 PUSH1 0x0 CALLER PUSH20 0xFFFFFFFFFFFFFFFFFFFFFFFFFFFFFFFFFFFFFFFF AND PUSH20 0xFFFFFFFFFFFFFFFFFFFFFFFFFFFFFFFFFFFFFFFF AND DUP2 MSTORE PUSH1 0x20 ADD SWAP1 DUP2 MSTORE PUSH1 0x20 ADD PUSH1 0x0 KECCAK256 SLOAD GT PUSH2 0x603 JUMPI PUSH1 0x40 MLOAD PUSH32 0x8C379A000000000000000000000000000000000000000000000000000000000 DUP2 MSTORE PUSH1 0x4 ADD PUSH2 0x5FA SWAP1 PUSH2 0xA70 JUMP JUMPDEST PUSH1 0x40 MLOAD DUP1 SWAP2 SUB SWAP1 REVERT JUMPDEST PUSH1 0x3 SLOAD TIMESTAMP LT ISZERO DUP1 ISZERO PUSH2 0x618 JUMPI POP PUSH1 0x2 SLOAD PUSH1 0x5 SLOAD LT JUMPDEST PUSH2 0x657 JUMPI PUSH1 0x40 MLOAD PUSH32 0x8C379A000000000000000000000000000000000000000000000000000000000 DUP2 MSTORE PUSH1 0x4 ADD PUSH2 0x64E SWAP1 PUSH2 0xA50 JUMP JUMPDEST PUSH1 0x40 MLOAD DUP1 SWAP2 SUB SWAP1 REVERT JUMPDEST CALLER PUSH20 0xFFFFFFFFFFFFFFFFFFFFFFFFFFFFFFFFFFFFFFFF AND PUSH2 0x8FC PUSH1 0x0 DUP1 CALLER PUSH20 0xFFFFFFFFFFFFFFFFFFFFFFFFFFFFFFFFFFFFFFFF AND PUSH20 0xFFFFFFFFFFFFFFFFFFFFFFFFFFFFFFFFFFFFFFFF AND DUP2 MSTORE PUSH1 0x20 ADD SWAP1 DUP2 MSTORE PUSH1 0x20 ADD PUSH1 0x0 KECCAK256 SLOAD SWAP1 DUP2 ISZERO MUL SWAP1 PUSH1 0x40 MLOAD PUSH1 0x0 PUSH1 0x40 MLOAD DUP1 DUP4 SUB DUP2 DUP6 DUP9 DUP9 CALL SWAP4 POP POP POP POP ISZERO DUP1 ISZERO PUSH2 0x6DB JUMPI RETURNDATASIZE PUSH1 0x0 DUP1 RETURNDATACOPY RETURNDATASIZE PUSH1 0x0 REVERT JUMPDEST POP PUSH1 0x0 DUP1 PUSH1 0x0 CALLER PUSH20 0xFFFFFFFFFFFFFFFFFFFFFFFFFFFFFFFFFFFFFFFF AND PUSH20 0xFFFFFFFFFFFFFFFFFFFFFFFFFFFFFFFFFFFFFFFF AND DUP2 MSTORE PUSH1 0x20 ADD SWAP1 DUP2 MSTORE PUSH1 0x20 ADD PUSH1 0x0 KECCAK256 DUP2 SWAP1 SSTORE POP JUMP JUMPDEST PUSH1 0x4 SLOAD DUP2 JUMP JUMPDEST PUSH1 0x3 SLOAD DUP2 JUMP JUMPDEST PUSH1 0x7 SLOAD DUP2 JUMP JUMPDEST PUSH1 0x1 PUSH1 0x0 SWAP1 SLOAD SWAP1 PUSH2 0x100 EXP SWAP1 DIV PUSH20 0xFFFFFFFFFFFFFFFFFFFFFFFFFFFFFFFFFFFFFFFF AND DUP2 JUMP JUMPDEST DUP3 DUP1 SLOAD PUSH2 0x766 SWAP1 PUSH2 0xC05 JUMP JUMPDEST SWAP1 PUSH1 0x0 MSTORE PUSH1 0x20 PUSH1 0x0 KECCAK256 SWAP1 PUSH1 0x1F ADD PUSH1 0x20 SWAP1 DIV DUP2 ADD SWAP3 DUP3 PUSH2 0x788 JUMPI PUSH1 0x0 DUP6 SSTORE PUSH2 0x7CF JUMP JUMPDEST DUP3 PUSH1 0x1F LT PUSH2 0x7A1 JUMPI DUP1 MLOAD PUSH1 0xFF NOT AND DUP4 DUP1 ADD OR DUP6 SSTORE PUSH2 0x7CF JUMP JUMPDEST DUP3 DUP1 ADD PUSH1 0x1 ADD DUP6 SSTORE DUP3 ISZERO PUSH2 0x7CF JUMPI SWAP2 DUP3 ADD JUMPDEST DUP3 DUP2 GT ISZERO PUSH2 0x7CE JUMPI DUP3 MLOAD DUP3 SSTORE SWAP2 PUSH1 0x20 ADD SWAP2 SWAP1 PUSH1 0x1 ADD SWAP1 PUSH2 0x7B3 JUMP JUMPDEST JUMPDEST POP SWAP1 POP PUSH2 0x7DC SWAP2 SWAP1 PUSH2 0x7E0 JUMP JUMPDEST POP SWAP1 JUMP JUMPDEST JUMPDEST DUP1 DUP3 GT ISZERO PUSH2 0x7F9 JUMPI PUSH1 0x0 DUP2 PUSH1 0x0 SWAP1 SSTORE POP PUSH1 0x1 ADD PUSH2 0x7E1 JUMP JUMPDEST POP SWAP1 JUMP JUMPDEST PUSH1 0x0 PUSH2 0x810 PUSH2 0x80B DUP5 PUSH2 0xB10 JUMP JUMPDEST PUSH2 0xAEB JUMP JUMPDEST SWAP1 POP DUP3 DUP2 MSTORE PUSH1 0x20 DUP2 ADD DUP5 DUP5 DUP5 ADD GT ISZERO PUSH2 0x82C JUMPI PUSH2 0x82B PUSH2 0xD43 JUMP JUMPDEST JUMPDEST PUSH2 0x837 DUP5 DUP3 DUP6 PUSH2 0xBF6 JUMP JUMPDEST POP SWAP4 SWAP3 POP POP POP JUMP JUMPDEST PUSH1 0x0 DUP2 CALLDATALOAD SWAP1 POP PUSH2 0x84E DUP2 PUSH2 0xEEE JUMP JUMPDEST SWAP3 SWAP2 POP POP JUMP JUMPDEST PUSH1 0x0 DUP2 CALLDATALOAD SWAP1 POP PUSH2 0x863 DUP2 PUSH2 0xF05 JUMP JUMPDEST SWAP3 SWAP2 POP POP JUMP JUMPDEST PUSH1 0x0 DUP3 PUSH1 0x1F DUP4 ADD SLT PUSH2 0x87E JUMPI PUSH2 0x87D PUSH2 0xD3E JUMP JUMPDEST JUMPDEST DUP2 CALLDATALOAD PUSH2 0x88E DUP5 DUP3 PUSH1 0x20 DUP7 ADD PUSH2 0x7FD JUMP JUMPDEST SWAP2 POP POP SWAP3 SWAP2 POP POP JUMP JUMPDEST PUSH1 0x0 DUP2 CALLDATALOAD SWAP1 POP PUSH2 0x8A6 DUP2 PUSH2 0xF1C JUMP JUMPDEST SWAP3 SWAP2 POP POP JUMP JUMPDEST PUSH1 0x0 PUSH1 0x20 DUP3 DUP5 SUB SLT ISZERO PUSH2 0x8C2 JUMPI PUSH2 0x8C1 PUSH2 0xD4D JUMP JUMPDEST JUMPDEST PUSH1 0x0 PUSH2 0x8D0 DUP5 DUP3 DUP6 ADD PUSH2 0x83F JUMP JUMPDEST SWAP2 POP POP SWAP3 SWAP2 POP POP JUMP JUMPDEST PUSH1 0x0 DUP1 PUSH1 0x0 PUSH1 0x60 DUP5 DUP7 SUB SLT ISZERO PUSH2 0x8F2 JUMPI PUSH2 0x8F1 PUSH2 0xD4D JUMP JUMPDEST JUMPDEST PUSH1 0x0 DUP5 ADD CALLDATALOAD PUSH8 0xFFFFFFFFFFFFFFFF DUP2 GT ISZERO PUSH2 0x910 JUMPI PUSH2 0x90F PUSH2 0xD48 JUMP JUMPDEST JUMPDEST PUSH2 0x91C DUP7 DUP3 DUP8 ADD PUSH2 0x869 JUMP JUMPDEST SWAP4 POP POP PUSH1 0x20 PUSH2 0x92D DUP7 DUP3 DUP8 ADD PUSH2 0x897 JUMP JUMPDEST SWAP3 POP POP PUSH1 0x40 PUSH2 0x93E DUP7 DUP3 DUP8 ADD PUSH2 0x854 JUMP JUMPDEST SWAP2 POP POP SWAP3 POP SWAP3 POP SWAP3 JUMP JUMPDEST PUSH2 0x951 DUP2 PUSH2 0xBA8 JUMP JUMPDEST DUP3 MSTORE POP POP JUMP JUMPDEST PUSH1 0x0 PUSH2 0x964 PUSH1 0x21 DUP4 PUSH2 0xB41 JUMP JUMPDEST SWAP2 POP PUSH2 0x96F DUP3 PUSH2 0xD63 JUMP JUMPDEST PUSH1 0x40 DUP3 ADD SWAP1 POP SWAP2 SWAP1 POP JUMP JUMPDEST PUSH1 0x0 PUSH2 0x987 PUSH1 0x23 DUP4 PUSH2 0xB41 JUMP JUMPDEST SWAP2 POP PUSH2 0x992 DUP3 PUSH2 0xDB2 JUMP JUMPDEST PUSH1 0x40 DUP3 ADD SWAP1 POP SWAP2 SWAP1 POP JUMP JUMPDEST PUSH1 0x0 PUSH2 0x9AA PUSH1 0x23 DUP4 PUSH2 0xB41 JUMP JUMPDEST SWAP2 POP PUSH2 0x9B5 DUP3 PUSH2 0xE01 JUMP JUMPDEST PUSH1 0x40 DUP3 ADD SWAP1 POP SWAP2 SWAP1 POP JUMP JUMPDEST PUSH1 0x0 PUSH2 0x9CD PUSH1 0x25 DUP4 PUSH2 0xB41 JUMP JUMPDEST SWAP2 POP PUSH2 0x9D8 DUP3 PUSH2 0xE50 JUMP JUMPDEST PUSH1 0x40 DUP3 ADD SWAP1 POP SWAP2 SWAP1 POP JUMP JUMPDEST PUSH1 0x0 PUSH2 0x9F0 PUSH1 0x2E DUP4 PUSH2 0xB41 JUMP JUMPDEST SWAP2 POP PUSH2 0x9FB DUP3 PUSH2 0xE9F JUMP JUMPDEST PUSH1 0x40 DUP3 ADD SWAP1 POP SWAP2 SWAP1 POP JUMP JUMPDEST PUSH2 0xA0F DUP2 PUSH2 0xBEC JUMP JUMPDEST DUP3 MSTORE POP POP JUMP JUMPDEST PUSH1 0x0 PUSH1 0x20 DUP3 ADD SWAP1 POP PUSH2 0xA2A PUSH1 0x0 DUP4 ADD DUP5 PUSH2 0x948 JUMP JUMPDEST SWAP3 SWAP2 POP POP JUMP JUMPDEST PUSH1 0x0 PUSH1 0x20 DUP3 ADD SWAP1 POP DUP2 DUP2 SUB PUSH1 0x0 DUP4 ADD MSTORE PUSH2 0xA49 DUP2 PUSH2 0x957 JUMP JUMPDEST SWAP1 POP SWAP2 SWAP1 POP JUMP JUMPDEST PUSH1 0x0 PUSH1 0x20 DUP3 ADD SWAP1 POP DUP2 DUP2 SUB PUSH1 0x0 DUP4 ADD MSTORE PUSH2 0xA69 DUP2 PUSH2 0x97A JUMP JUMPDEST SWAP1 POP SWAP2 SWAP1 POP JUMP JUMPDEST PUSH1 0x0 PUSH1 0x20 DUP3 ADD SWAP1 POP DUP2 DUP2 SUB PUSH1 0x0 DUP4 ADD MSTORE PUSH2 0xA89 DUP2 PUSH2 0x99D JUMP JUMPDEST SWAP1 POP SWAP2 SWAP1 POP JUMP JUMPDEST PUSH1 0x0 PUSH1 0x20 DUP3 ADD SWAP1 POP DUP2 DUP2 SUB PUSH1 0x0 DUP4 ADD MSTORE PUSH2 0xAA9 DUP2 PUSH2 0x9C0 JUMP JUMPDEST SWAP1 POP SWAP2 SWAP1 POP JUMP JUMPDEST PUSH1 0x0 PUSH1 0x20 DUP3 ADD SWAP1 POP DUP2 DUP2 SUB PUSH1 0x0 DUP4 ADD MSTORE PUSH2 0xAC9 DUP2 PUSH2 0x9E3 JUMP JUMPDEST SWAP1 POP SWAP2 SWAP1 POP JUMP JUMPDEST PUSH1 0x0 PUSH1 0x20 DUP3 ADD SWAP1 POP PUSH2 0xAE5 PUSH1 0x0 DUP4 ADD DUP5 PUSH2 0xA06 JUMP JUMPDEST SWAP3 SWAP2 POP POP JUMP JUMPDEST PUSH1 0x0 PUSH2 0xAF5 PUSH2 0xB06 JUMP JUMPDEST SWAP1 POP PUSH2 0xB01 DUP3 DUP3 PUSH2 0xC37 JUMP JUMPDEST SWAP2 SWAP1 POP JUMP JUMPDEST PUSH1 0x0 PUSH1 0x40 MLOAD SWAP1 POP SWAP1 JUMP JUMPDEST PUSH1 0x0 PUSH8 0xFFFFFFFFFFFFFFFF DUP3 GT ISZERO PUSH2 0xB2B JUMPI PUSH2 0xB2A PUSH2 0xD0F JUMP JUMPDEST JUMPDEST PUSH2 0xB34 DUP3 PUSH2 0xD52 JUMP JUMPDEST SWAP1 POP PUSH1 0x20 DUP2 ADD SWAP1 POP SWAP2 SWAP1 POP JUMP JUMPDEST PUSH1 0x0 DUP3 DUP3 MSTORE PUSH1 0x20 DUP3 ADD SWAP1 POP SWAP3 SWAP2 POP POP JUMP JUMPDEST PUSH1 0x0 PUSH2 0xB5D DUP3 PUSH2 0xBEC JUMP JUMPDEST SWAP2 POP PUSH2 0xB68 DUP4 PUSH2 0xBEC JUMP JUMPDEST SWAP3 POP DUP3 PUSH32 0xFFFFFFFFFFFFFFFFFFFFFFFFFFFFFFFFFFFFFFFFFFFFFFFFFFFFFFFFFFFFFFFF SUB DUP3 GT ISZERO PUSH2 0xB9D JUMPI PUSH2 0xB9C PUSH2 0xCB1 JUMP JUMPDEST JUMPDEST DUP3 DUP3 ADD SWAP1 POP SWAP3 SWAP2 POP POP JUMP JUMPDEST PUSH1 0x0 PUSH2 0xBB3 DUP3 PUSH2 0xBCC JUMP JUMPDEST SWAP1 POP SWAP2 SWAP1 POP JUMP JUMPDEST PUSH1 0x0 PUSH2 0xBC5 DUP3 PUSH2 0xBCC JUMP JUMPDEST SWAP1 POP SWAP2 SWAP1 POP JUMP JUMPDEST PUSH1 0x0 PUSH20 0xFFFFFFFFFFFFFFFFFFFFFFFFFFFFFFFFFFFFFFFF DUP3 AND SWAP1 POP SWAP2 SWAP1 POP JUMP JUMPDEST PUSH1 0x0 DUP2 SWAP1 POP SWAP2 SWAP1 POP JUMP JUMPDEST DUP3 DUP2 DUP4 CALLDATACOPY PUSH1 0x0 DUP4 DUP4 ADD MSTORE POP POP POP JUMP JUMPDEST PUSH1 0x0 PUSH1 0x2 DUP3 DIV SWAP1 POP PUSH1 0x1 DUP3 AND DUP1 PUSH2 0xC1D JUMPI PUSH1 0x7F DUP3 AND SWAP2 POP JUMPDEST PUSH1 0x20 DUP3 LT DUP2 EQ ISZERO PUSH2 0xC31 JUMPI PUSH2 0xC30 PUSH2 0xCE0 JUMP JUMPDEST JUMPDEST POP SWAP2 SWAP1 POP JUMP JUMPDEST PUSH2 0xC40 DUP3 PUSH2 0xD52 JUMP JUMPDEST DUP2 ADD DUP2 DUP2 LT PUSH8 0xFFFFFFFFFFFFFFFF DUP3 GT OR ISZERO PUSH2 0xC5F JUMPI PUSH2 0xC5E PUSH2 0xD0F JUMP JUMPDEST JUMPDEST DUP1 PUSH1 0x40 MSTORE POP POP POP JUMP JUMPDEST PUSH1 0x0 PUSH2 0xC73 DUP3 PUSH2 0xBEC JUMP JUMPDEST SWAP2 POP PUSH32 0xFFFFFFFFFFFFFFFFFFFFFFFFFFFFFFFFFFFFFFFFFFFFFFFFFFFFFFFFFFFFFFFF DUP3 EQ ISZERO PUSH2 0xCA6 JUMPI PUSH2 0xCA5 PUSH2 0xCB1 JUMP JUMPDEST JUMPDEST PUSH1 0x1 DUP3 ADD SWAP1 POP SWAP2 SWAP1 POP JUMP JUMPDEST PUSH32 0x4E487B7100000000000000000000000000000000000000000000000000000000 PUSH1 0x0 MSTORE PUSH1 0x11 PUSH1 0x4 MSTORE PUSH1 0x24 PUSH1 0x0 REVERT JUMPDEST PUSH32 0x4E487B7100000000000000000000000000000000000000000000000000000000 PUSH1 0x0 MSTORE PUSH1 0x22 PUSH1 0x4 MSTORE PUSH1 0x24 PUSH1 0x0 REVERT JUMPDEST PUSH32 0x4E487B7100000000000000000000000000000000000000000000000000000000 PUSH1 0x0 MSTORE PUSH1 0x41 PUSH1 0x4 MSTORE PUSH1 0x24 PUSH1 0x0 REVERT JUMPDEST PUSH1 0x0 DUP1 REVERT JUMPDEST PUSH1 0x0 DUP1 REVERT JUMPDEST PUSH1 0x0 DUP1 REVERT JUMPDEST PUSH1 0x0 DUP1 REVERT JUMPDEST PUSH1 0x0 PUSH1 0x1F NOT PUSH1 0x1F DUP4 ADD AND SWAP1 POP SWAP2 SWAP1 POP JUMP JUMPDEST PUSH32 0x476F616C20666F722066756E64696E6720686173206265656E20726561636865 PUSH1 0x0 DUP3 ADD MSTORE PUSH32 0x6400000000000000000000000000000000000000000000000000000000000000 PUSH1 0x20 DUP3 ADD MSTORE POP JUMP JUMPDEST PUSH32 0x46756E64696E672074696D65206672616D652069732079657420746F20657870 PUSH1 0x0 DUP3 ADD MSTORE PUSH32 0x6972650000000000000000000000000000000000000000000000000000000000 PUSH1 0x20 DUP3 ADD MSTORE POP JUMP JUMPDEST PUSH32 0x596F7520617265206E6F7420616E206578697374696E6720636F6E7472696275 PUSH1 0x0 DUP3 ADD MSTORE PUSH32 0x746F720000000000000000000000000000000000000000000000000000000000 PUSH1 0x20 DUP3 ADD MSTORE POP JUMP JUMPDEST PUSH32 0x54696D65206672616D652073657420666F7220756E64696E672068617320656C PUSH1 0x0 DUP3 ADD MSTORE PUSH32 0x6173706564000000000000000000000000000000000000000000000000000000 PUSH1 0x20 DUP3 ADD MSTORE POP JUMP JUMPDEST PUSH32 0x416D6F756E74206D7573742062652067726561746572207468616E2074686520 PUSH1 0x0 DUP3 ADD MSTORE PUSH32 0x6D696E696D756D20616D6F756E74000000000000000000000000000000000000 PUSH1 0x20 DUP3 ADD MSTORE POP JUMP JUMPDEST PUSH2 0xEF7 DUP2 PUSH2 0xBA8 JUMP JUMPDEST DUP2 EQ PUSH2 0xF02 JUMPI PUSH1 0x0 DUP1 REVERT JUMPDEST POP JUMP JUMPDEST PUSH2 0xF0E DUP2 PUSH2 0xBBA JUMP JUMPDEST DUP2 EQ PUSH2 0xF19 JUMPI PUSH1 0x0 DUP1 REVERT JUMPDEST POP JUMP JUMPDEST PUSH2 0xF25 DUP2 PUSH2 0xBEC JUMP JUMPDEST DUP2 EQ PUSH2 0xF30 JUMPI PUSH1 0x0 DUP1 REVERT JUMPDEST POP JUMP INVALID LOG2 PUSH5 0x6970667358 0x22 SLT KECCAK256 CODECOPY 0xA5 0xB7 SLT KECCAK256 CALLDATALOAD BYTE PUSH30 0x67880CD3E074BB481FA4E712F21D401B110BFCDB56698CE264736F6C6343 STOP ADDMOD SMOD STOP CALLER "
				},
				"gasEstimates": {
					"creation": {
						"codeDepositCost": "789000",
						"executionCost": "infinite",
						"totalCost": "infinite"
					},
					"external": {
						"admin()": "2624",
						"contribute()": "infinite",
						"contributors(address)": "2859",
						"createRequest(string,uint256,address)": "infinite",
						"deadLine()": "2473",
						"getBalance()": "340",
						"getRefund()": "infinite",
						"goal()": "2496",
						"minimumAmount()": "2451",
						"noOfRequests()": "2495",
						"numberOfContributors()": "2518",
						"totalAmount()": "2452"
					}
				},
				"methodIdentifiers": {
					"admin()": "f851a440",
					"contribute()": "d7bb99ba",
					"contributors(address)": "1f6d4942",
					"createRequest(string,uint256,address)": "8a9cfd55",
					"deadLine()": "bef3a083",
					"getBalance()": "12065fe0",
					"getRefund()": "b2d5ae44",
					"goal()": "40193883",
					"minimumAmount()": "bb0c8298",
					"noOfRequests()": "c1f11b4c",
					"numberOfContributors()": "4377cf65",
					"totalAmount()": "1a39d8ef"
				}
			},
			"storageLayout": {
				"storage": [
					{
						"astId": 5,
						"contract": "contracts/Crowdfunding.sol:CrowdFunding",
						"label": "contributors",
						"offset": 0,
						"slot": "0",
						"type": "t_mapping(t_address,t_uint256)"
					},
					{
						"astId": 7,
						"contract": "contracts/Crowdfunding.sol:CrowdFunding",
						"label": "admin",
						"offset": 0,
						"slot": "1",
						"type": "t_address"
					},
					{
						"astId": 9,
						"contract": "contracts/Crowdfunding.sol:CrowdFunding",
						"label": "goal",
						"offset": 0,
						"slot": "2",
						"type": "t_uint256"
					},
					{
						"astId": 11,
						"contract": "contracts/Crowdfunding.sol:CrowdFunding",
						"label": "deadLine",
						"offset": 0,
						"slot": "3",
						"type": "t_uint256"
					},
					{
						"astId": 13,
						"contract": "contracts/Crowdfunding.sol:CrowdFunding",
						"label": "minimumAmount",
						"offset": 0,
						"slot": "4",
						"type": "t_uint256"
					},
					{
						"astId": 15,
						"contract": "contracts/Crowdfunding.sol:CrowdFunding",
						"label": "totalAmount",
						"offset": 0,
						"slot": "5",
						"type": "t_uint256"
					},
					{
						"astId": 17,
						"contract": "contracts/Crowdfunding.sol:CrowdFunding",
						"label": "numberOfContributors",
						"offset": 0,
						"slot": "6",
						"type": "t_uint256"
					},
					{
						"astId": 34,
						"contract": "contracts/Crowdfunding.sol:CrowdFunding",
						"label": "noOfRequests",
						"offset": 0,
						"slot": "7",
						"type": "t_uint256"
					},
					{
						"astId": 39,
						"contract": "contracts/Crowdfunding.sol:CrowdFunding",
						"label": "request",
						"offset": 0,
						"slot": "8",
						"type": "t_mapping(t_uint256,t_struct(Request)32_storage)"
					}
				],
				"types": {
					"t_address": {
						"encoding": "inplace",
						"label": "address",
						"numberOfBytes": "20"
					},
					"t_address_payable": {
						"encoding": "inplace",
						"label": "address payable",
						"numberOfBytes": "20"
					},
					"t_bool": {
						"encoding": "inplace",
						"label": "bool",
						"numberOfBytes": "1"
					},
					"t_mapping(t_address,t_bool)": {
						"encoding": "mapping",
						"key": "t_address",
						"label": "mapping(address => bool)",
						"numberOfBytes": "32",
						"value": "t_bool"
					},
					"t_mapping(t_address,t_uint256)": {
						"encoding": "mapping",
						"key": "t_address",
						"label": "mapping(address => uint256)",
						"numberOfBytes": "32",
						"value": "t_uint256"
					},
					"t_mapping(t_uint256,t_struct(Request)32_storage)": {
						"encoding": "mapping",
						"key": "t_uint256",
						"label": "mapping(uint256 => struct CrowdFunding.Request)",
						"numberOfBytes": "32",
						"value": "t_struct(Request)32_storage"
					},
					"t_string_storage": {
						"encoding": "bytes",
						"label": "string",
						"numberOfBytes": "32"
					},
					"t_struct(Request)32_storage": {
						"encoding": "inplace",
						"label": "struct CrowdFunding.Request",
						"members": [
							{
								"astId": 19,
								"contract": "contracts/Crowdfunding.sol:CrowdFunding",
								"label": "description",
								"offset": 0,
								"slot": "0",
								"type": "t_string_storage"
							},
							{
								"astId": 21,
								"contract": "contracts/Crowdfunding.sol:CrowdFunding",
								"label": "amount",
								"offset": 0,
								"slot": "1",
								"type": "t_uint256"
							},
							{
								"astId": 23,
								"contract": "contracts/Crowdfunding.sol:CrowdFunding",
								"label": "receiver",
								"offset": 0,
								"slot": "2",
								"type": "t_address_payable"
							},
							{
								"astId": 25,
								"contract": "contracts/Crowdfunding.sol:CrowdFunding",
								"label": "createdAt",
								"offset": 0,
								"slot": "3",
								"type": "t_uint256"
							},
							{
								"astId": 27,
								"contract": "contracts/Crowdfunding.sol:CrowdFunding",
								"label": "fundReleaseStatus",
								"offset": 0,
								"slot": "4",
								"type": "t_bool"
							},
							{
								"astId": 31,
								"contract": "contracts/Crowdfunding.sol:CrowdFunding",
								"label": "votingDetails",
								"offset": 0,
								"slot": "5",
								"type": "t_mapping(t_address,t_bool)"
							}
						],
						"numberOfBytes": "192"
					},
					"t_uint256": {
						"encoding": "inplace",
						"label": "uint256",
						"numberOfBytes": "32"
					}
				}
			},
			"userdoc": {
				"kind": "user",
				"methods": {},
				"version": 1
			}
		}
	}
}