{
	"contracts/Auctions.sol": {
		"AuctionCreator": {
			"abi": [
				{
					"inputs": [],
					"name": "createAuction",
					"outputs": [],
					"stateMutability": "nonpayable",
					"type": "function"
				},
				{
					"inputs": [
						{
							"internalType": "uint256",
							"name": "",
							"type": "uint256"
						}
					],
					"name": "createdAuctions",
					"outputs": [
						{
							"internalType": "contract Auction",
							"name": "",
							"type": "address"
						}
					],
					"stateMutability": "view",
					"type": "function"
				}
			],
			"devdoc": {
				"kind": "dev",
				"methods": {},
				"version": 1
			},
			"evm": {
				"assembly": "    /* \"contracts/Auctions.sol\":74:243  contract AuctionCreator{\r... */\n  mstore(0x40, 0x80)\n  callvalue\n  dup1\n  iszero\n  tag_1\n  jumpi\n  0x00\n  dup1\n  revert\ntag_1:\n  pop\n  dataSize(sub_0)\n  dup1\n  dataOffset(sub_0)\n  0x00\n  codecopy\n  0x00\n  return\nstop\n\nsub_0: assembly {\n        /* \"contracts/Auctions.sol\":74:243  contract AuctionCreator{\r... */\n      mstore(0x40, 0x80)\n      callvalue\n      dup1\n      iszero\n      tag_1\n      jumpi\n      0x00\n      dup1\n      revert\n    tag_1:\n      pop\n      jumpi(tag_2, lt(calldatasize, 0x04))\n      shr(0xe0, calldataload(0x00))\n      dup1\n      0xaff19ef2\n      eq\n      tag_3\n      jumpi\n      dup1\n      0xf5811447\n      eq\n      tag_4\n      jumpi\n    tag_2:\n      0x00\n      dup1\n      revert\n        /* \"contracts/Auctions.sol\":104:136  Auction[] public createdAuctions */\n    tag_3:\n      tag_5\n      0x04\n      dup1\n      calldatasize\n      sub\n      dup2\n      add\n      swap1\n      tag_6\n      swap2\n      swap1\n      tag_7\n      jump\t// in\n    tag_6:\n      tag_8\n      jump\t// in\n    tag_5:\n      mload(0x40)\n      tag_9\n      swap2\n      swap1\n      tag_10\n      jump\t// in\n    tag_9:\n      mload(0x40)\n      dup1\n      swap2\n      sub\n      swap1\n      return\n        /* \"contracts/Auctions.sol\":145:240  function createAuction() public {\r... */\n    tag_4:\n      tag_11\n      tag_12\n      jump\t// in\n    tag_11:\n      stop\n        /* \"contracts/Auctions.sol\":104:136  Auction[] public createdAuctions */\n    tag_8:\n      0x00\n      dup2\n      dup2\n      sload\n      dup2\n      lt\n      tag_13\n      jumpi\n      0x00\n      dup1\n      revert\n    tag_13:\n      swap1\n      0x00\n      mstore\n      keccak256(0x00, 0x20)\n      add\n      0x00\n      swap2\n      pop\n      sload\n      swap1\n      0x0100\n      exp\n      swap1\n      div\n      0xffffffffffffffffffffffffffffffffffffffff\n      and\n      dup2\n      jump\t// out\n        /* \"contracts/Auctions.sol\":145:240  function createAuction() public {\r... */\n    tag_12:\n        /* \"contracts/Auctions.sol\":188:206  Auction newAuction */\n      0x00\n        /* \"contracts/Auctions.sol\":221:231  msg.sender */\n      caller\n        /* \"contracts/Auctions.sol\":209:232  new Auction(msg.sender) */\n      mload(0x40)\n      tag_16\n      swap1\n      tag_17\n      jump\t// in\n    tag_16:\n      tag_18\n      swap2\n      swap1\n      tag_19\n      jump\t// in\n    tag_18:\n      mload(0x40)\n      dup1\n      swap2\n      sub\n      swap1\n      0x00\n      create\n      dup1\n      iszero\n      dup1\n      iszero\n      tag_20\n      jumpi\n      returndatasize\n      0x00\n      dup1\n      returndatacopy\n      revert(0x00, returndatasize)\n    tag_20:\n      pop\n        /* \"contracts/Auctions.sol\":188:232  Auction newAuction = new Auction(msg.sender) */\n      swap1\n      pop\n        /* \"contracts/Auctions.sol\":177:240  {\r... */\n      pop\n        /* \"contracts/Auctions.sol\":145:240  function createAuction() public {\r... */\n      jump\t// out\n    tag_17:\n      dataSize(sub_0)\n      dup1\n      dataOffset(sub_0)\n      dup4\n      codecopy\n      add\n      swap1\n      jump\t// out\n        /* \"#utility.yul\":7:146   */\n    tag_22:\n        /* \"#utility.yul\":53:58   */\n      0x00\n        /* \"#utility.yul\":91:97   */\n      dup2\n        /* \"#utility.yul\":78:98   */\n      calldataload\n        /* \"#utility.yul\":69:98   */\n      swap1\n      pop\n        /* \"#utility.yul\":107:140   */\n      tag_24\n        /* \"#utility.yul\":134:139   */\n      dup2\n        /* \"#utility.yul\":107:140   */\n      tag_25\n      jump\t// in\n    tag_24:\n        /* \"#utility.yul\":7:146   */\n      swap3\n      swap2\n      pop\n      pop\n      jump\t// out\n        /* \"#utility.yul\":152:481   */\n    tag_7:\n        /* \"#utility.yul\":211:217   */\n      0x00\n        /* \"#utility.yul\":260:262   */\n      0x20\n        /* \"#utility.yul\":248:257   */\n      dup3\n        /* \"#utility.yul\":239:246   */\n      dup5\n        /* \"#utility.yul\":235:258   */\n      sub\n        /* \"#utility.yul\":231:263   */\n      slt\n        /* \"#utility.yul\":228:347   */\n      iszero\n      tag_27\n      jumpi\n        /* \"#utility.yul\":266:345   */\n      tag_28\n      tag_29\n      jump\t// in\n    tag_28:\n        /* \"#utility.yul\":228:347   */\n    tag_27:\n        /* \"#utility.yul\":386:387   */\n      0x00\n        /* \"#utility.yul\":411:464   */\n      tag_30\n        /* \"#utility.yul\":456:463   */\n      dup5\n        /* \"#utility.yul\":447:453   */\n      dup3\n        /* \"#utility.yul\":436:445   */\n      dup6\n        /* \"#utility.yul\":432:454   */\n      add\n        /* \"#utility.yul\":411:464   */\n      tag_22\n      jump\t// in\n    tag_30:\n        /* \"#utility.yul\":401:464   */\n      swap2\n      pop\n        /* \"#utility.yul\":357:474   */\n      pop\n        /* \"#utility.yul\":152:481   */\n      swap3\n      swap2\n      pop\n      pop\n      jump\t// out\n        /* \"#utility.yul\":487:605   */\n    tag_31:\n        /* \"#utility.yul\":574:598   */\n      tag_33\n        /* \"#utility.yul\":592:597   */\n      dup2\n        /* \"#utility.yul\":574:598   */\n      tag_34\n      jump\t// in\n    tag_33:\n        /* \"#utility.yul\":569:572   */\n      dup3\n        /* \"#utility.yul\":562:599   */\n      mstore\n        /* \"#utility.yul\":487:605   */\n      pop\n      pop\n      jump\t// out\n        /* \"#utility.yul\":611:772   */\n    tag_35:\n        /* \"#utility.yul\":713:765   */\n      tag_37\n        /* \"#utility.yul\":759:764   */\n      dup2\n        /* \"#utility.yul\":713:765   */\n      tag_38\n      jump\t// in\n    tag_37:\n        /* \"#utility.yul\":708:711   */\n      dup3\n        /* \"#utility.yul\":701:766   */\n      mstore\n        /* \"#utility.yul\":611:772   */\n      pop\n      pop\n      jump\t// out\n        /* \"#utility.yul\":778:1000   */\n    tag_19:\n        /* \"#utility.yul\":871:875   */\n      0x00\n        /* \"#utility.yul\":909:911   */\n      0x20\n        /* \"#utility.yul\":898:907   */\n      dup3\n        /* \"#utility.yul\":894:912   */\n      add\n        /* \"#utility.yul\":886:912   */\n      swap1\n      pop\n        /* \"#utility.yul\":922:993   */\n      tag_40\n        /* \"#utility.yul\":990:991   */\n      0x00\n        /* \"#utility.yul\":979:988   */\n      dup4\n        /* \"#utility.yul\":975:992   */\n      add\n        /* \"#utility.yul\":966:972   */\n      dup5\n        /* \"#utility.yul\":922:993   */\n      tag_31\n      jump\t// in\n    tag_40:\n        /* \"#utility.yul\":778:1000   */\n      swap3\n      swap2\n      pop\n      pop\n      jump\t// out\n        /* \"#utility.yul\":1006:1258   */\n    tag_10:\n        /* \"#utility.yul\":1114:1118   */\n      0x00\n        /* \"#utility.yul\":1152:1154   */\n      0x20\n        /* \"#utility.yul\":1141:1150   */\n      dup3\n        /* \"#utility.yul\":1137:1155   */\n      add\n        /* \"#utility.yul\":1129:1155   */\n      swap1\n      pop\n        /* \"#utility.yul\":1165:1251   */\n      tag_42\n        /* \"#utility.yul\":1248:1249   */\n      0x00\n        /* \"#utility.yul\":1237:1246   */\n      dup4\n        /* \"#utility.yul\":1233:1250   */\n      add\n        /* \"#utility.yul\":1224:1230   */\n      dup5\n        /* \"#utility.yul\":1165:1251   */\n      tag_35\n      jump\t// in\n    tag_42:\n        /* \"#utility.yul\":1006:1258   */\n      swap3\n      swap2\n      pop\n      pop\n      jump\t// out\n        /* \"#utility.yul\":1345:1441   */\n    tag_34:\n        /* \"#utility.yul\":1382:1389   */\n      0x00\n        /* \"#utility.yul\":1411:1435   */\n      tag_46\n        /* \"#utility.yul\":1429:1434   */\n      dup3\n        /* \"#utility.yul\":1411:1435   */\n      tag_47\n      jump\t// in\n    tag_46:\n        /* \"#utility.yul\":1400:1435   */\n      swap1\n      pop\n        /* \"#utility.yul\":1345:1441   */\n      swap2\n      swap1\n      pop\n      jump\t// out\n        /* \"#utility.yul\":1447:1573   */\n    tag_47:\n        /* \"#utility.yul\":1484:1491   */\n      0x00\n        /* \"#utility.yul\":1524:1566   */\n      0xffffffffffffffffffffffffffffffffffffffff\n        /* \"#utility.yul\":1517:1522   */\n      dup3\n        /* \"#utility.yul\":1513:1567   */\n      and\n        /* \"#utility.yul\":1502:1567   */\n      swap1\n      pop\n        /* \"#utility.yul\":1447:1573   */\n      swap2\n      swap1\n      pop\n      jump\t// out\n        /* \"#utility.yul\":1579:1656   */\n    tag_49:\n        /* \"#utility.yul\":1616:1623   */\n      0x00\n        /* \"#utility.yul\":1645:1650   */\n      dup2\n        /* \"#utility.yul\":1634:1650   */\n      swap1\n      pop\n        /* \"#utility.yul\":1579:1656   */\n      swap2\n      swap1\n      pop\n      jump\t// out\n        /* \"#utility.yul\":1662:1803   */\n    tag_38:\n        /* \"#utility.yul\":1727:1736   */\n      0x00\n        /* \"#utility.yul\":1760:1797   */\n      tag_52\n        /* \"#utility.yul\":1791:1796   */\n      dup3\n        /* \"#utility.yul\":1760:1797   */\n      tag_53\n      jump\t// in\n    tag_52:\n        /* \"#utility.yul\":1747:1797   */\n      swap1\n      pop\n        /* \"#utility.yul\":1662:1803   */\n      swap2\n      swap1\n      pop\n      jump\t// out\n        /* \"#utility.yul\":1809:1935   */\n    tag_53:\n        /* \"#utility.yul\":1859:1868   */\n      0x00\n        /* \"#utility.yul\":1892:1929   */\n      tag_55\n        /* \"#utility.yul\":1923:1928   */\n      dup3\n        /* \"#utility.yul\":1892:1929   */\n      tag_56\n      jump\t// in\n    tag_55:\n        /* \"#utility.yul\":1879:1929   */\n      swap1\n      pop\n        /* \"#utility.yul\":1809:1935   */\n      swap2\n      swap1\n      pop\n      jump\t// out\n        /* \"#utility.yul\":1941:2054   */\n    tag_56:\n        /* \"#utility.yul\":1991:2000   */\n      0x00\n        /* \"#utility.yul\":2024:2048   */\n      tag_58\n        /* \"#utility.yul\":2042:2047   */\n      dup3\n        /* \"#utility.yul\":2024:2048   */\n      tag_47\n      jump\t// in\n    tag_58:\n        /* \"#utility.yul\":2011:2048   */\n      swap1\n      pop\n        /* \"#utility.yul\":1941:2054   */\n      swap2\n      swap1\n      pop\n      jump\t// out\n        /* \"#utility.yul\":2183:2300   */\n    tag_29:\n        /* \"#utility.yul\":2292:2293   */\n      0x00\n        /* \"#utility.yul\":2289:2290   */\n      dup1\n        /* \"#utility.yul\":2282:2294   */\n      revert\n        /* \"#utility.yul\":2306:2428   */\n    tag_25:\n        /* \"#utility.yul\":2379:2403   */\n      tag_63\n        /* \"#utility.yul\":2397:2402   */\n      dup2\n        /* \"#utility.yul\":2379:2403   */\n      tag_49\n      jump\t// in\n    tag_63:\n        /* \"#utility.yul\":2372:2377   */\n      dup2\n        /* \"#utility.yul\":2369:2404   */\n      eq\n        /* \"#utility.yul\":2359:2422   */\n      tag_64\n      jumpi\n        /* \"#utility.yul\":2418:2419   */\n      0x00\n        /* \"#utility.yul\":2415:2416   */\n      dup1\n        /* \"#utility.yul\":2408:2420   */\n      revert\n        /* \"#utility.yul\":2359:2422   */\n    tag_64:\n        /* \"#utility.yul\":2306:2428   */\n      pop\n      jump\t// out\n    stop\n\n    sub_0: assembly {\n            /* \"contracts/Auctions.sol\":247:4462  contract Auction{\r... */\n          mstore(0x40, 0x80)\n            /* \"contracts/Auctions.sol\":730:734  true */\n          0x01\n            /* \"contracts/Auctions.sol\":698:734  bool public ownerRewardChance = true */\n          0x09\n          exp(0x0100, 0x00)\n          dup2\n          sload\n          dup2\n          0xff\n          mul\n          not\n          and\n          swap1\n          dup4\n          iszero\n          iszero\n          mul\n          or\n          swap1\n          sstore\n          pop\n            /* \"contracts/Auctions.sol\":745:976  constructor(address eoa){\r... */\n          callvalue\n          dup1\n          iszero\n          tag_1\n          jumpi\n          0x00\n          dup1\n          revert\n        tag_1:\n          pop\n          mload(0x40)\n          sub(codesize, bytecodeSize)\n          dup1\n          bytecodeSize\n          dup4\n          codecopy\n          dup2\n          dup2\n          add\n          0x40\n          mstore\n          dup2\n          add\n          swap1\n          tag_2\n          swap2\n          swap1\n          tag_3\n          jump\t// in\n        tag_2:\n            /* \"contracts/Auctions.sol\":796:799  eoa */\n          dup1\n            /* \"contracts/Auctions.sol\":780:785  owner */\n          0x01\n          0x00\n            /* \"contracts/Auctions.sol\":780:800  owner = payable(eoa) */\n          0x0100\n          exp\n          dup2\n          sload\n          dup2\n          0xffffffffffffffffffffffffffffffffffffffff\n          mul\n          not\n          and\n          swap1\n          dup4\n          0xffffffffffffffffffffffffffffffffffffffff\n          and\n          mul\n          or\n          swap1\n          sstore\n          pop\n            /* \"contracts/Auctions.sol\":826:829  100 */\n          0x64\n            /* \"contracts/Auctions.sol\":811:823  bidIncrement */\n          0x04\n            /* \"contracts/Auctions.sol\":811:829  bidIncrement = 100 */\n          dup2\n          swap1\n          sstore\n          pop\n            /* \"contracts/Auctions.sol\":855:868  State.Running */\n          0x01\n            /* \"contracts/Auctions.sol\":840:852  auctionState */\n          0x07\n          0x00\n            /* \"contracts/Auctions.sol\":840:868  auctionState = State.Running */\n          0x0100\n          exp\n          dup2\n          sload\n          dup2\n          0xff\n          mul\n          not\n          and\n          swap1\n          dup4\n          0x03\n          dup2\n          gt\n          iszero\n          tag_6\n          jumpi\n          tag_7\n          tag_8\n          jump\t// in\n        tag_7:\n        tag_6:\n          mul\n          or\n          swap1\n          sstore\n          pop\n            /* \"contracts/Auctions.sol\":881:894  ipfsHash = '' */\n          mload(0x40)\n          dup1\n          0x20\n          add\n          0x40\n          mstore\n          dup1\n          0x00\n          dup2\n          mstore\n          pop\n            /* \"contracts/Auctions.sol\":881:889  ipfsHash */\n          0x08\n            /* \"contracts/Auctions.sol\":881:894  ipfsHash = '' */\n          swap1\n          dup1\n          mload\n          swap1\n          0x20\n          add\n          swap1\n          tag_9\n          swap3\n          swap2\n          swap1\n          tag_10\n          jump\t// in\n        tag_9:\n          pop\n            /* \"contracts/Auctions.sol\":920:932  block.number */\n          number\n            /* \"contracts/Auctions.sol\":907:917  startBlock */\n          0x05\n            /* \"contracts/Auctions.sol\":907:932  startBlock = block.number */\n          dup2\n          swap1\n          sstore\n          pop\n            /* \"contracts/Auctions.sol\":967:968  3 */\n          0x03\n            /* \"contracts/Auctions.sol\":954:964  startBlock */\n          sload(0x05)\n            /* \"contracts/Auctions.sol\":954:968  startBlock + 3 */\n          tag_11\n          swap2\n          swap1\n          tag_12\n          jump\t// in\n        tag_11:\n            /* \"contracts/Auctions.sol\":943:951  endBlock */\n          0x06\n            /* \"contracts/Auctions.sol\":943:968  endBlock = startBlock + 3 */\n          dup2\n          swap1\n          sstore\n          pop\n            /* \"contracts/Auctions.sol\":745:976  constructor(address eoa){\r... */\n          pop\n            /* \"contracts/Auctions.sol\":247:4462  contract Auction{\r... */\n          jump(tag_13)\n        tag_10:\n          dup3\n          dup1\n          sload\n          tag_14\n          swap1\n          tag_15\n          jump\t// in\n        tag_14:\n          swap1\n          0x00\n          mstore\n          keccak256(0x00, 0x20)\n          swap1\n          0x1f\n          add\n          0x20\n          swap1\n          div\n          dup2\n          add\n          swap3\n          dup3\n          tag_17\n          jumpi\n          0x00\n          dup6\n          sstore\n          jump(tag_16)\n        tag_17:\n          dup3\n          0x1f\n          lt\n          tag_18\n          jumpi\n          dup1\n          mload\n          not(0xff)\n          and\n          dup4\n          dup1\n          add\n          or\n          dup6\n          sstore\n          jump(tag_16)\n        tag_18:\n          dup3\n          dup1\n          add\n          0x01\n          add\n          dup6\n          sstore\n          dup3\n          iszero\n          tag_16\n          jumpi\n          swap2\n          dup3\n          add\n        tag_19:\n          dup3\n          dup2\n          gt\n          iszero\n          tag_20\n          jumpi\n          dup3\n          mload\n          dup3\n          sstore\n          swap2\n          0x20\n          add\n          swap2\n          swap1\n          0x01\n          add\n          swap1\n          jump(tag_19)\n        tag_20:\n        tag_16:\n          pop\n          swap1\n          pop\n          tag_21\n          swap2\n          swap1\n          tag_22\n          jump\t// in\n        tag_21:\n          pop\n          swap1\n          jump\t// out\n        tag_22:\n        tag_23:\n          dup1\n          dup3\n          gt\n          iszero\n          tag_24\n          jumpi\n          0x00\n          dup2\n          0x00\n          swap1\n          sstore\n          pop\n          0x01\n          add\n          jump(tag_23)\n        tag_24:\n          pop\n          swap1\n          jump\t// out\n            /* \"#utility.yul\":7:150   */\n        tag_26:\n            /* \"#utility.yul\":64:69   */\n          0x00\n            /* \"#utility.yul\":95:101   */\n          dup2\n            /* \"#utility.yul\":89:102   */\n          mload\n            /* \"#utility.yul\":80:102   */\n          swap1\n          pop\n            /* \"#utility.yul\":111:144   */\n          tag_28\n            /* \"#utility.yul\":138:143   */\n          dup2\n            /* \"#utility.yul\":111:144   */\n          tag_29\n          jump\t// in\n        tag_28:\n            /* \"#utility.yul\":7:150   */\n          swap3\n          swap2\n          pop\n          pop\n          jump\t// out\n            /* \"#utility.yul\":156:507   */\n        tag_3:\n            /* \"#utility.yul\":226:232   */\n          0x00\n            /* \"#utility.yul\":275:277   */\n          0x20\n            /* \"#utility.yul\":263:272   */\n          dup3\n            /* \"#utility.yul\":254:261   */\n          dup5\n            /* \"#utility.yul\":250:273   */\n          sub\n            /* \"#utility.yul\":246:278   */\n          slt\n            /* \"#utility.yul\":243:362   */\n          iszero\n          tag_31\n          jumpi\n            /* \"#utility.yul\":281:360   */\n          tag_32\n          tag_33\n          jump\t// in\n        tag_32:\n            /* \"#utility.yul\":243:362   */\n        tag_31:\n            /* \"#utility.yul\":401:402   */\n          0x00\n            /* \"#utility.yul\":426:490   */\n          tag_34\n            /* \"#utility.yul\":482:489   */\n          dup5\n            /* \"#utility.yul\":473:479   */\n          dup3\n            /* \"#utility.yul\":462:471   */\n          dup6\n            /* \"#utility.yul\":458:480   */\n          add\n            /* \"#utility.yul\":426:490   */\n          tag_26\n          jump\t// in\n        tag_34:\n            /* \"#utility.yul\":416:490   */\n          swap2\n          pop\n            /* \"#utility.yul\":372:500   */\n          pop\n            /* \"#utility.yul\":156:507   */\n          swap3\n          swap2\n          pop\n          pop\n          jump\t// out\n            /* \"#utility.yul\":594:899   */\n        tag_12:\n            /* \"#utility.yul\":634:637   */\n          0x00\n            /* \"#utility.yul\":653:673   */\n          tag_38\n            /* \"#utility.yul\":671:672   */\n          dup3\n            /* \"#utility.yul\":653:673   */\n          tag_39\n          jump\t// in\n        tag_38:\n            /* \"#utility.yul\":648:673   */\n          swap2\n          pop\n            /* \"#utility.yul\":687:707   */\n          tag_40\n            /* \"#utility.yul\":705:706   */\n          dup4\n            /* \"#utility.yul\":687:707   */\n          tag_39\n          jump\t// in\n        tag_40:\n            /* \"#utility.yul\":682:707   */\n          swap3\n          pop\n            /* \"#utility.yul\":841:842   */\n          dup3\n            /* \"#utility.yul\":773:839   */\n          0xffffffffffffffffffffffffffffffffffffffffffffffffffffffffffffffff\n            /* \"#utility.yul\":769:843   */\n          sub\n            /* \"#utility.yul\":766:767   */\n          dup3\n            /* \"#utility.yul\":763:844   */\n          gt\n            /* \"#utility.yul\":760:867   */\n          iszero\n          tag_41\n          jumpi\n            /* \"#utility.yul\":847:865   */\n          tag_42\n          tag_43\n          jump\t// in\n        tag_42:\n            /* \"#utility.yul\":760:867   */\n        tag_41:\n            /* \"#utility.yul\":891:892   */\n          dup3\n            /* \"#utility.yul\":888:889   */\n          dup3\n            /* \"#utility.yul\":884:893   */\n          add\n            /* \"#utility.yul\":877:893   */\n          swap1\n          pop\n            /* \"#utility.yul\":594:899   */\n          swap3\n          swap2\n          pop\n          pop\n          jump\t// out\n            /* \"#utility.yul\":905:1001   */\n        tag_44:\n            /* \"#utility.yul\":942:949   */\n          0x00\n            /* \"#utility.yul\":971:995   */\n          tag_46\n            /* \"#utility.yul\":989:994   */\n          dup3\n            /* \"#utility.yul\":971:995   */\n          tag_47\n          jump\t// in\n        tag_46:\n            /* \"#utility.yul\":960:995   */\n          swap1\n          pop\n            /* \"#utility.yul\":905:1001   */\n          swap2\n          swap1\n          pop\n          jump\t// out\n            /* \"#utility.yul\":1007:1133   */\n        tag_47:\n            /* \"#utility.yul\":1044:1051   */\n          0x00\n            /* \"#utility.yul\":1084:1126   */\n          0xffffffffffffffffffffffffffffffffffffffff\n            /* \"#utility.yul\":1077:1082   */\n          dup3\n            /* \"#utility.yul\":1073:1127   */\n          and\n            /* \"#utility.yul\":1062:1127   */\n          swap1\n          pop\n            /* \"#utility.yul\":1007:1133   */\n          swap2\n          swap1\n          pop\n          jump\t// out\n            /* \"#utility.yul\":1139:1216   */\n        tag_39:\n            /* \"#utility.yul\":1176:1183   */\n          0x00\n            /* \"#utility.yul\":1205:1210   */\n          dup2\n            /* \"#utility.yul\":1194:1210   */\n          swap1\n          pop\n            /* \"#utility.yul\":1139:1216   */\n          swap2\n          swap1\n          pop\n          jump\t// out\n            /* \"#utility.yul\":1222:1542   */\n        tag_15:\n            /* \"#utility.yul\":1266:1272   */\n          0x00\n            /* \"#utility.yul\":1303:1304   */\n          0x02\n            /* \"#utility.yul\":1297:1301   */\n          dup3\n            /* \"#utility.yul\":1293:1305   */\n          div\n            /* \"#utility.yul\":1283:1305   */\n          swap1\n          pop\n            /* \"#utility.yul\":1350:1351   */\n          0x01\n            /* \"#utility.yul\":1344:1348   */\n          dup3\n            /* \"#utility.yul\":1340:1352   */\n          and\n            /* \"#utility.yul\":1371:1389   */\n          dup1\n            /* \"#utility.yul\":1361:1442   */\n          tag_51\n          jumpi\n            /* \"#utility.yul\":1427:1431   */\n          0x7f\n            /* \"#utility.yul\":1419:1425   */\n          dup3\n            /* \"#utility.yul\":1415:1432   */\n          and\n            /* \"#utility.yul\":1405:1432   */\n          swap2\n          pop\n            /* \"#utility.yul\":1361:1442   */\n        tag_51:\n            /* \"#utility.yul\":1489:1491   */\n          0x20\n            /* \"#utility.yul\":1481:1487   */\n          dup3\n            /* \"#utility.yul\":1478:1492   */\n          lt\n            /* \"#utility.yul\":1458:1476   */\n          dup2\n            /* \"#utility.yul\":1455:1493   */\n          eq\n            /* \"#utility.yul\":1452:1536   */\n          iszero\n          tag_52\n          jumpi\n            /* \"#utility.yul\":1508:1526   */\n          tag_53\n          tag_54\n          jump\t// in\n        tag_53:\n            /* \"#utility.yul\":1452:1536   */\n        tag_52:\n            /* \"#utility.yul\":1273:1542   */\n          pop\n            /* \"#utility.yul\":1222:1542   */\n          swap2\n          swap1\n          pop\n          jump\t// out\n            /* \"#utility.yul\":1548:1728   */\n        tag_43:\n            /* \"#utility.yul\":1596:1673   */\n          0x4e487b7100000000000000000000000000000000000000000000000000000000\n            /* \"#utility.yul\":1593:1594   */\n          0x00\n            /* \"#utility.yul\":1586:1674   */\n          mstore\n            /* \"#utility.yul\":1693:1697   */\n          0x11\n            /* \"#utility.yul\":1690:1691   */\n          0x04\n            /* \"#utility.yul\":1683:1698   */\n          mstore\n            /* \"#utility.yul\":1717:1721   */\n          0x24\n            /* \"#utility.yul\":1714:1715   */\n          0x00\n            /* \"#utility.yul\":1707:1722   */\n          revert\n            /* \"#utility.yul\":1734:1914   */\n        tag_8:\n            /* \"#utility.yul\":1782:1859   */\n          0x4e487b7100000000000000000000000000000000000000000000000000000000\n            /* \"#utility.yul\":1779:1780   */\n          0x00\n            /* \"#utility.yul\":1772:1860   */\n          mstore\n            /* \"#utility.yul\":1879:1883   */\n          0x21\n            /* \"#utility.yul\":1876:1877   */\n          0x04\n            /* \"#utility.yul\":1869:1884   */\n          mstore\n            /* \"#utility.yul\":1903:1907   */\n          0x24\n            /* \"#utility.yul\":1900:1901   */\n          0x00\n            /* \"#utility.yul\":1893:1908   */\n          revert\n            /* \"#utility.yul\":1920:2100   */\n        tag_54:\n            /* \"#utility.yul\":1968:2045   */\n          0x4e487b7100000000000000000000000000000000000000000000000000000000\n            /* \"#utility.yul\":1965:1966   */\n          0x00\n            /* \"#utility.yul\":1958:2046   */\n          mstore\n            /* \"#utility.yul\":2065:2069   */\n          0x22\n            /* \"#utility.yul\":2062:2063   */\n          0x04\n            /* \"#utility.yul\":2055:2070   */\n          mstore\n            /* \"#utility.yul\":2089:2093   */\n          0x24\n            /* \"#utility.yul\":2086:2087   */\n          0x00\n            /* \"#utility.yul\":2079:2094   */\n          revert\n            /* \"#utility.yul\":2229:2346   */\n        tag_33:\n            /* \"#utility.yul\":2338:2339   */\n          0x00\n            /* \"#utility.yul\":2335:2336   */\n          dup1\n            /* \"#utility.yul\":2328:2340   */\n          revert\n            /* \"#utility.yul\":2352:2474   */\n        tag_29:\n            /* \"#utility.yul\":2425:2449   */\n          tag_62\n            /* \"#utility.yul\":2443:2448   */\n          dup2\n            /* \"#utility.yul\":2425:2449   */\n          tag_44\n          jump\t// in\n        tag_62:\n            /* \"#utility.yul\":2418:2423   */\n          dup2\n            /* \"#utility.yul\":2415:2450   */\n          eq\n            /* \"#utility.yul\":2405:2468   */\n          tag_63\n          jumpi\n            /* \"#utility.yul\":2464:2465   */\n          0x00\n            /* \"#utility.yul\":2461:2462   */\n          dup1\n            /* \"#utility.yul\":2454:2466   */\n          revert\n            /* \"#utility.yul\":2405:2468   */\n        tag_63:\n            /* \"#utility.yul\":2352:2474   */\n          pop\n          jump\t// out\n            /* \"contracts/Auctions.sol\":247:4462  contract Auction{\r... */\n        tag_13:\n          dataSize(sub_0)\n          dup1\n          dataOffset(sub_0)\n          0x00\n          codecopy\n          0x00\n          return\n        stop\n\n        sub_0: assembly {\n                /* \"contracts/Auctions.sol\":247:4462  contract Auction{\r... */\n              mstore(0x40, 0x80)\n              jumpi(tag_1, lt(calldatasize, 0x04))\n              shr(0xe0, calldataload(0x00))\n              dup1\n              0x8fa8b790\n              gt\n              tag_15\n              jumpi\n              dup1\n              0xb3cc167a\n              gt\n              tag_16\n              jumpi\n              dup1\n              0xb3cc167a\n              eq\n              tag_11\n              jumpi\n              dup1\n              0xc623674f\n              eq\n              tag_12\n              jumpi\n              dup1\n              0xeb36a479\n              eq\n              tag_13\n              jumpi\n              dup1\n              0xf77282ab\n              eq\n              tag_14\n              jumpi\n              jump(tag_1)\n            tag_16:\n              dup1\n              0x8fa8b790\n              eq\n              tag_8\n              jumpi\n              dup1\n              0x91c11f7d\n              eq\n              tag_9\n              jumpi\n              dup1\n              0x91f90157\n              eq\n              tag_10\n              jumpi\n              jump(tag_1)\n            tag_15:\n              dup1\n              0x083c6323\n              eq\n              tag_2\n              jumpi\n              dup1\n              0x44c5f61d\n              eq\n              tag_3\n              jumpi\n              dup1\n              0x48cd4cb1\n              eq\n              tag_4\n              jumpi\n              dup1\n              0x7fb45099\n              eq\n              tag_5\n              jumpi\n              dup1\n              0x8da5cb5b\n              eq\n              tag_6\n              jumpi\n              dup1\n              0x8ee77512\n              eq\n              tag_7\n              jumpi\n            tag_1:\n              0x00\n              dup1\n              revert\n                /* \"contracts/Auctions.sol\":511:531  uint public endBlock */\n            tag_2:\n              callvalue\n              dup1\n              iszero\n              tag_17\n              jumpi\n              0x00\n              dup1\n              revert\n            tag_17:\n              pop\n              tag_18\n              tag_19\n              jump\t// in\n            tag_18:\n              mload(0x40)\n              tag_20\n              swap2\n              swap1\n              tag_21\n              jump\t// in\n            tag_20:\n              mload(0x40)\n              dup1\n              swap2\n              sub\n              swap1\n              return\n                /* \"contracts/Auctions.sol\":698:734  bool public ownerRewardChance = true */\n            tag_3:\n              callvalue\n              dup1\n              iszero\n              tag_22\n              jumpi\n              0x00\n              dup1\n              revert\n            tag_22:\n              pop\n              tag_23\n              tag_24\n              jump\t// in\n            tag_23:\n              mload(0x40)\n              tag_25\n              swap2\n              swap1\n              tag_26\n              jump\t// in\n            tag_25:\n              mload(0x40)\n              dup1\n              swap2\n              sub\n              swap1\n              return\n                /* \"contracts/Auctions.sol\":482:504  uint public startBlock */\n            tag_4:\n              callvalue\n              dup1\n              iszero\n              tag_27\n              jumpi\n              0x00\n              dup1\n              revert\n            tag_27:\n              pop\n              tag_28\n              tag_29\n              jump\t// in\n            tag_28:\n              mload(0x40)\n              tag_30\n              swap2\n              swap1\n              tag_21\n              jump\t// in\n            tag_30:\n              mload(0x40)\n              dup1\n              swap2\n              sub\n              swap1\n              return\n                /* \"contracts/Auctions.sol\":633:658  State public auctionState */\n            tag_5:\n              callvalue\n              dup1\n              iszero\n              tag_31\n              jumpi\n              0x00\n              dup1\n              revert\n            tag_31:\n              pop\n              tag_32\n              tag_33\n              jump\t// in\n            tag_32:\n              mload(0x40)\n              tag_34\n              swap2\n              swap1\n              tag_35\n              jump\t// in\n            tag_34:\n              mload(0x40)\n              dup1\n              swap2\n              sub\n              swap1\n              return\n                /* \"contracts/Auctions.sol\":318:346  address payable public owner */\n            tag_6:\n              callvalue\n              dup1\n              iszero\n              tag_36\n              jumpi\n              0x00\n              dup1\n              revert\n            tag_36:\n              pop\n              tag_37\n              tag_38\n              jump\t// in\n            tag_37:\n              mload(0x40)\n              tag_39\n              swap2\n              swap1\n              tag_40\n              jump\t// in\n            tag_39:\n              mload(0x40)\n              dup1\n              swap2\n              sub\n              swap1\n              return\n                /* \"contracts/Auctions.sol\":272:311  mapping(address => uint) public bidsMap */\n            tag_7:\n              callvalue\n              dup1\n              iszero\n              tag_41\n              jumpi\n              0x00\n              dup1\n              revert\n            tag_41:\n              pop\n              tag_42\n              0x04\n              dup1\n              calldatasize\n              sub\n              dup2\n              add\n              swap1\n              tag_43\n              swap2\n              swap1\n              tag_44\n              jump\t// in\n            tag_43:\n              tag_45\n              jump\t// in\n            tag_42:\n              mload(0x40)\n              tag_46\n              swap2\n              swap1\n              tag_21\n              jump\t// in\n            tag_46:\n              mload(0x40)\n              dup1\n              swap2\n              sub\n              swap1\n              return\n                /* \"contracts/Auctions.sol\":2936:3017  function cancelAuction() public {\r... */\n            tag_8:\n              callvalue\n              dup1\n              iszero\n              tag_47\n              jumpi\n              0x00\n              dup1\n              revert\n            tag_47:\n              pop\n              tag_48\n              tag_49\n              jump\t// in\n            tag_48:\n              stop\n                /* \"contracts/Auctions.sol\":400:428  uint public higestBindingBid */\n            tag_9:\n              callvalue\n              dup1\n              iszero\n              tag_50\n              jumpi\n              0x00\n              dup1\n              revert\n            tag_50:\n              pop\n              tag_51\n              tag_52\n              jump\t// in\n            tag_51:\n              mload(0x40)\n              tag_53\n              swap2\n              swap1\n              tag_21\n              jump\t// in\n            tag_53:\n              mload(0x40)\n              dup1\n              swap2\n              sub\n              swap1\n              return\n                /* \"contracts/Auctions.sol\":357:393  address payable public highestBidder */\n            tag_10:\n              callvalue\n              dup1\n              iszero\n              tag_54\n              jumpi\n              0x00\n              dup1\n              revert\n            tag_54:\n              pop\n              tag_55\n              tag_56\n              jump\t// in\n            tag_55:\n              mload(0x40)\n              tag_57\n              swap2\n              swap1\n              tag_40\n              jump\t// in\n            tag_57:\n              mload(0x40)\n              dup1\n              swap2\n              sub\n              swap1\n              return\n                /* \"contracts/Auctions.sol\":435:459  uint public bidIncrement */\n            tag_11:\n              callvalue\n              dup1\n              iszero\n              tag_58\n              jumpi\n              0x00\n              dup1\n              revert\n            tag_58:\n              pop\n              tag_59\n              tag_60\n              jump\t// in\n            tag_59:\n              mload(0x40)\n              tag_61\n              swap2\n              swap1\n              tag_21\n              jump\t// in\n            tag_61:\n              mload(0x40)\n              dup1\n              swap2\n              sub\n              swap1\n              return\n                /* \"contracts/Auctions.sol\":667:689  string public ipfsHash */\n            tag_12:\n              callvalue\n              dup1\n              iszero\n              tag_62\n              jumpi\n              0x00\n              dup1\n              revert\n            tag_62:\n              pop\n              tag_63\n              tag_64\n              jump\t// in\n            tag_63:\n              mload(0x40)\n              tag_65\n              swap2\n              swap1\n              tag_66\n              jump\t// in\n            tag_65:\n              mload(0x40)\n              dup1\n              swap2\n              sub\n              swap1\n              return\n                /* \"contracts/Auctions.sol\":1958:2928  function makeABid() payable public notOwner afterStart beforeEnd {\r... */\n            tag_13:\n              tag_67\n              tag_68\n              jump\t// in\n            tag_67:\n              stop\n                /* \"contracts/Auctions.sol\":3025:4457  function finalizeAuction() public {\r... */\n            tag_14:\n              callvalue\n              dup1\n              iszero\n              tag_69\n              jumpi\n              0x00\n              dup1\n              revert\n            tag_69:\n              pop\n              tag_70\n              tag_71\n              jump\t// in\n            tag_70:\n              stop\n                /* \"contracts/Auctions.sol\":511:531  uint public endBlock */\n            tag_19:\n              sload(0x06)\n              dup2\n              jump\t// out\n                /* \"contracts/Auctions.sol\":698:734  bool public ownerRewardChance = true */\n            tag_24:\n              0x09\n              0x00\n              swap1\n              sload\n              swap1\n              0x0100\n              exp\n              swap1\n              div\n              0xff\n              and\n              dup2\n              jump\t// out\n                /* \"contracts/Auctions.sol\":482:504  uint public startBlock */\n            tag_29:\n              sload(0x05)\n              dup2\n              jump\t// out\n                /* \"contracts/Auctions.sol\":633:658  State public auctionState */\n            tag_33:\n              0x07\n              0x00\n              swap1\n              sload\n              swap1\n              0x0100\n              exp\n              swap1\n              div\n              0xff\n              and\n              dup2\n              jump\t// out\n                /* \"contracts/Auctions.sol\":318:346  address payable public owner */\n            tag_38:\n              0x01\n              0x00\n              swap1\n              sload\n              swap1\n              0x0100\n              exp\n              swap1\n              div\n              0xffffffffffffffffffffffffffffffffffffffff\n              and\n              dup2\n              jump\t// out\n                /* \"contracts/Auctions.sol\":272:311  mapping(address => uint) public bidsMap */\n            tag_45:\n              mstore(0x20, 0x00)\n              dup1\n              0x00\n              mstore\n              keccak256(0x00, 0x40)\n              0x00\n              swap2\n              pop\n              swap1\n              pop\n              sload\n              dup2\n              jump\t// out\n                /* \"contracts/Auctions.sol\":2936:3017  function cancelAuction() public {\r... */\n            tag_49:\n                /* \"contracts/Auctions.sol\":2994:3009  State.Cancelled */\n              0x03\n                /* \"contracts/Auctions.sol\":2979:2991  auctionState */\n              0x07\n              0x00\n                /* \"contracts/Auctions.sol\":2979:3009  auctionState = State.Cancelled */\n              0x0100\n              exp\n              dup2\n              sload\n              dup2\n              0xff\n              mul\n              not\n              and\n              swap1\n              dup4\n              0x03\n              dup2\n              gt\n              iszero\n              tag_73\n              jumpi\n              tag_74\n              tag_75\n              jump\t// in\n            tag_74:\n            tag_73:\n              mul\n              or\n              swap1\n              sstore\n              pop\n                /* \"contracts/Auctions.sol\":2936:3017  function cancelAuction() public {\r... */\n              jump\t// out\n                /* \"contracts/Auctions.sol\":400:428  uint public higestBindingBid */\n            tag_52:\n              sload(0x03)\n              dup2\n              jump\t// out\n                /* \"contracts/Auctions.sol\":357:393  address payable public highestBidder */\n            tag_56:\n              0x02\n              0x00\n              swap1\n              sload\n              swap1\n              0x0100\n              exp\n              swap1\n              div\n              0xffffffffffffffffffffffffffffffffffffffff\n              and\n              dup2\n              jump\t// out\n                /* \"contracts/Auctions.sol\":435:459  uint public bidIncrement */\n            tag_60:\n              sload(0x04)\n              dup2\n              jump\t// out\n                /* \"contracts/Auctions.sol\":667:689  string public ipfsHash */\n            tag_64:\n              0x08\n              dup1\n              sload\n              tag_76\n              swap1\n              tag_77\n              jump\t// in\n            tag_76:\n              dup1\n              0x1f\n              add\n              0x20\n              dup1\n              swap2\n              div\n              mul\n              0x20\n              add\n              mload(0x40)\n              swap1\n              dup2\n              add\n              0x40\n              mstore\n              dup1\n              swap3\n              swap2\n              swap1\n              dup2\n              dup2\n              mstore\n              0x20\n              add\n              dup3\n              dup1\n              sload\n              tag_78\n              swap1\n              tag_77\n              jump\t// in\n            tag_78:\n              dup1\n              iszero\n              tag_79\n              jumpi\n              dup1\n              0x1f\n              lt\n              tag_80\n              jumpi\n              0x0100\n              dup1\n              dup4\n              sload\n              div\n              mul\n              dup4\n              mstore\n              swap2\n              0x20\n              add\n              swap2\n              jump(tag_79)\n            tag_80:\n              dup3\n              add\n              swap2\n              swap1\n              0x00\n              mstore\n              keccak256(0x00, 0x20)\n              swap1\n            tag_81:\n              dup2\n              sload\n              dup2\n              mstore\n              swap1\n              0x01\n              add\n              swap1\n              0x20\n              add\n              dup1\n              dup4\n              gt\n              tag_81\n              jumpi\n              dup3\n              swap1\n              sub\n              0x1f\n              and\n              dup3\n              add\n              swap2\n            tag_79:\n              pop\n              pop\n              pop\n              pop\n              pop\n              dup2\n              jump\t// out\n                /* \"contracts/Auctions.sol\":1958:2928  function makeABid() payable public notOwner afterStart beforeEnd {\r... */\n            tag_68:\n                /* \"contracts/Auctions.sol\":1037:1042  owner */\n              0x01\n              0x00\n              swap1\n              sload\n              swap1\n              0x0100\n              exp\n              swap1\n              div\n              0xffffffffffffffffffffffffffffffffffffffff\n              and\n                /* \"contracts/Auctions.sol\":1023:1042  msg.sender != owner */\n              0xffffffffffffffffffffffffffffffffffffffff\n              and\n                /* \"contracts/Auctions.sol\":1023:1033  msg.sender */\n              caller\n                /* \"contracts/Auctions.sol\":1023:1042  msg.sender != owner */\n              0xffffffffffffffffffffffffffffffffffffffff\n              and\n              eq\n              iszero\n                /* \"contracts/Auctions.sol\":1015:1085  require(msg.sender != owner, \"Bids can only be placed by none owners\") */\n              tag_83\n              jumpi\n              mload(0x40)\n              0x08c379a000000000000000000000000000000000000000000000000000000000\n              dup2\n              mstore\n              0x04\n              add\n              tag_84\n              swap1\n              tag_85\n              jump\t// in\n            tag_84:\n              mload(0x40)\n              dup1\n              swap2\n              sub\n              swap1\n              revert\n            tag_83:\n                /* \"contracts/Auctions.sol\":1170:1180  startBlock */\n              sload(0x05)\n                /* \"contracts/Auctions.sol\":1154:1166  block.number */\n              number\n                /* \"contracts/Auctions.sol\":1154:1180  block.number >= startBlock */\n              lt\n              iszero\n                /* \"contracts/Auctions.sol\":1146:1222  require(block.number >= startBlock, \"Auction cannot be played at this time\") */\n              tag_87\n              jumpi\n              mload(0x40)\n              0x08c379a000000000000000000000000000000000000000000000000000000000\n              dup2\n              mstore\n              0x04\n              add\n              tag_88\n              swap1\n              tag_89\n              jump\t// in\n            tag_88:\n              mload(0x40)\n              dup1\n              swap2\n              sub\n              swap1\n              revert\n            tag_87:\n                /* \"contracts/Auctions.sol\":1306:1314  endBlock */\n              sload(0x06)\n                /* \"contracts/Auctions.sol\":1290:1302  block.number */\n              number\n                /* \"contracts/Auctions.sol\":1290:1314  block.number <= endBlock */\n              gt\n              iszero\n                /* \"contracts/Auctions.sol\":1282:1343  require(block.number <= endBlock, \"Auction time has elasped\") */\n              tag_91\n              jumpi\n              mload(0x40)\n              0x08c379a000000000000000000000000000000000000000000000000000000000\n              dup2\n              mstore\n              0x04\n              add\n              tag_92\n              swap1\n              tag_93\n              jump\t// in\n            tag_92:\n              mload(0x40)\n              dup1\n              swap2\n              sub\n              swap1\n              revert\n            tag_91:\n                /* \"contracts/Auctions.sol\":2054:2061  1 ether */\n              0x0de0b6b3a7640000\n                /* \"contracts/Auctions.sol\":2042:2051  msg.value */\n              callvalue\n                /* \"contracts/Auctions.sol\":2042:2061  msg.value > 1 ether */\n              gt\n                /* \"contracts/Auctions.sol\":2034:2105  require(msg.value > 1 ether, \"Value sent must be greater than 1 ether\") */\n              tag_95\n              jumpi\n              mload(0x40)\n              0x08c379a000000000000000000000000000000000000000000000000000000000\n              dup2\n              mstore\n              0x04\n              add\n              tag_96\n              swap1\n              tag_97\n              jump\t// in\n            tag_96:\n              mload(0x40)\n              dup1\n              swap2\n              sub\n              swap1\n              revert\n            tag_95:\n                /* \"contracts/Auctions.sol\":2177:2190  State.Running */\n              0x01\n                /* \"contracts/Auctions.sol\":2161:2190  auctionState == State.Running */\n              0x03\n              dup2\n              gt\n              iszero\n              tag_98\n              jumpi\n              tag_99\n              tag_75\n              jump\t// in\n            tag_99:\n            tag_98:\n                /* \"contracts/Auctions.sol\":2161:2173  auctionState */\n              0x07\n              0x00\n              swap1\n              sload\n              swap1\n              0x0100\n              exp\n              swap1\n              div\n              0xff\n              and\n                /* \"contracts/Auctions.sol\":2161:2190  auctionState == State.Running */\n              0x03\n              dup2\n              gt\n              iszero\n              tag_100\n              jumpi\n              tag_101\n              tag_75\n              jump\t// in\n            tag_101:\n            tag_100:\n              eq\n                /* \"contracts/Auctions.sol\":2153:2239  require(auctionState == State.Running, \"Auction state must be running to accept bids\") */\n              tag_102\n              jumpi\n              mload(0x40)\n              0x08c379a000000000000000000000000000000000000000000000000000000000\n              dup2\n              mstore\n              0x04\n              add\n              tag_103\n              swap1\n              tag_104\n              jump\t// in\n            tag_103:\n              mload(0x40)\n              dup1\n              swap2\n              sub\n              swap1\n              revert\n            tag_102:\n                /* \"contracts/Auctions.sol\":2317:2332  uint currentBid */\n              0x00\n                /* \"contracts/Auctions.sol\":2347:2354  bidsMap */\n              dup1\n                /* \"contracts/Auctions.sol\":2347:2366  bidsMap[msg.sender] */\n              0x00\n                /* \"contracts/Auctions.sol\":2355:2365  msg.sender */\n              caller\n                /* \"contracts/Auctions.sol\":2347:2366  bidsMap[msg.sender] */\n              0xffffffffffffffffffffffffffffffffffffffff\n              and\n              0xffffffffffffffffffffffffffffffffffffffff\n              and\n              dup2\n              mstore\n              0x20\n              add\n              swap1\n              dup2\n              mstore\n              0x20\n              add\n              0x00\n              keccak256\n              sload\n                /* \"contracts/Auctions.sol\":2335:2344  msg.value */\n              callvalue\n                /* \"contracts/Auctions.sol\":2335:2366  msg.value + bidsMap[msg.sender] */\n              tag_105\n              swap2\n              swap1\n              tag_106\n              jump\t// in\n            tag_105:\n                /* \"contracts/Auctions.sol\":2317:2366  uint currentBid = msg.value + bidsMap[msg.sender] */\n              swap1\n              pop\n                /* \"contracts/Auctions.sol\":2400:2416  higestBindingBid */\n              sload(0x03)\n                /* \"contracts/Auctions.sol\":2387:2397  currentBid */\n              dup2\n                /* \"contracts/Auctions.sol\":2387:2416  currentBid > higestBindingBid */\n              gt\n                /* \"contracts/Auctions.sol\":2379:2417  require(currentBid > higestBindingBid) */\n              tag_107\n              jumpi\n              0x00\n              dup1\n              revert\n            tag_107:\n                /* \"contracts/Auctions.sol\":2560:2570  currentBid */\n              dup1\n                /* \"contracts/Auctions.sol\":2538:2545  bidsMap */\n              0x00\n                /* \"contracts/Auctions.sol\":2538:2557  bidsMap[msg.sender] */\n              dup1\n                /* \"contracts/Auctions.sol\":2546:2556  msg.sender */\n              caller\n                /* \"contracts/Auctions.sol\":2538:2557  bidsMap[msg.sender] */\n              0xffffffffffffffffffffffffffffffffffffffff\n              and\n              0xffffffffffffffffffffffffffffffffffffffff\n              and\n              dup2\n              mstore\n              0x20\n              add\n              swap1\n              dup2\n              mstore\n              0x20\n              add\n              0x00\n              keccak256\n                /* \"contracts/Auctions.sol\":2538:2570  bidsMap[msg.sender] = currentBid */\n              dup2\n              swap1\n              sstore\n              pop\n                /* \"contracts/Auctions.sol\":2642:2649  bidsMap */\n              0x00\n                /* \"contracts/Auctions.sol\":2642:2664  bidsMap[highestBidder] */\n              dup1\n                /* \"contracts/Auctions.sol\":2650:2663  highestBidder */\n              0x02\n              0x00\n              swap1\n              sload\n              swap1\n              0x0100\n              exp\n              swap1\n              div\n              0xffffffffffffffffffffffffffffffffffffffff\n              and\n                /* \"contracts/Auctions.sol\":2642:2664  bidsMap[highestBidder] */\n              0xffffffffffffffffffffffffffffffffffffffff\n              and\n              0xffffffffffffffffffffffffffffffffffffffff\n              and\n              dup2\n              mstore\n              0x20\n              add\n              swap1\n              dup2\n              mstore\n              0x20\n              add\n              0x00\n              keccak256\n              sload\n                /* \"contracts/Auctions.sol\":2629:2639  currentBid */\n              dup2\n                /* \"contracts/Auctions.sol\":2629:2664  currentBid < bidsMap[highestBidder] */\n              lt\n                /* \"contracts/Auctions.sol\":2626:2919  if(currentBid < bidsMap[highestBidder]){\r... */\n              iszero\n              tag_108\n              jumpi\n                /* \"contracts/Auctions.sol\":2699:2753  min(currentBid + bidIncrement, bidsMap[highestBidder]) */\n              tag_109\n                /* \"contracts/Auctions.sol\":2716:2728  bidIncrement */\n              sload(0x04)\n                /* \"contracts/Auctions.sol\":2703:2713  currentBid */\n              dup3\n                /* \"contracts/Auctions.sol\":2703:2728  currentBid + bidIncrement */\n              tag_110\n              swap2\n              swap1\n              tag_106\n              jump\t// in\n            tag_110:\n                /* \"contracts/Auctions.sol\":2730:2737  bidsMap */\n              0x00\n                /* \"contracts/Auctions.sol\":2730:2752  bidsMap[highestBidder] */\n              dup1\n                /* \"contracts/Auctions.sol\":2738:2751  highestBidder */\n              0x02\n              0x00\n              swap1\n              sload\n              swap1\n              0x0100\n              exp\n              swap1\n              div\n              0xffffffffffffffffffffffffffffffffffffffff\n              and\n                /* \"contracts/Auctions.sol\":2730:2752  bidsMap[highestBidder] */\n              0xffffffffffffffffffffffffffffffffffffffff\n              and\n              0xffffffffffffffffffffffffffffffffffffffff\n              and\n              dup2\n              mstore\n              0x20\n              add\n              swap1\n              dup2\n              mstore\n              0x20\n              add\n              0x00\n              keccak256\n              sload\n                /* \"contracts/Auctions.sol\":2699:2702  min */\n              tag_111\n                /* \"contracts/Auctions.sol\":2699:2753  min(currentBid + bidIncrement, bidsMap[highestBidder]) */\n              jump\t// in\n            tag_109:\n                /* \"contracts/Auctions.sol\":2680:2696  higestBindingBid */\n              0x03\n                /* \"contracts/Auctions.sol\":2680:2753  higestBindingBid = min(currentBid + bidIncrement, bidsMap[highestBidder]) */\n              dup2\n              swap1\n              sstore\n              pop\n                /* \"contracts/Auctions.sol\":2626:2919  if(currentBid < bidsMap[highestBidder]){\r... */\n              jump(tag_112)\n            tag_108:\n                /* \"contracts/Auctions.sol\":2803:2857  min(currentBid, bidsMap[highestBidder] + bidIncrement) */\n              tag_113\n                /* \"contracts/Auctions.sol\":2807:2817  currentBid */\n              dup2\n                /* \"contracts/Auctions.sol\":2844:2856  bidIncrement */\n              sload(0x04)\n                /* \"contracts/Auctions.sol\":2819:2826  bidsMap */\n              0x00\n                /* \"contracts/Auctions.sol\":2819:2841  bidsMap[highestBidder] */\n              dup1\n                /* \"contracts/Auctions.sol\":2827:2840  highestBidder */\n              0x02\n              0x00\n              swap1\n              sload\n              swap1\n              0x0100\n              exp\n              swap1\n              div\n              0xffffffffffffffffffffffffffffffffffffffff\n              and\n                /* \"contracts/Auctions.sol\":2819:2841  bidsMap[highestBidder] */\n              0xffffffffffffffffffffffffffffffffffffffff\n              and\n              0xffffffffffffffffffffffffffffffffffffffff\n              and\n              dup2\n              mstore\n              0x20\n              add\n              swap1\n              dup2\n              mstore\n              0x20\n              add\n              0x00\n              keccak256\n              sload\n                /* \"contracts/Auctions.sol\":2819:2856  bidsMap[highestBidder] + bidIncrement */\n              tag_114\n              swap2\n              swap1\n              tag_106\n              jump\t// in\n            tag_114:\n                /* \"contracts/Auctions.sol\":2803:2806  min */\n              tag_111\n                /* \"contracts/Auctions.sol\":2803:2857  min(currentBid, bidsMap[highestBidder] + bidIncrement) */\n              jump\t// in\n            tag_113:\n                /* \"contracts/Auctions.sol\":2784:2800  higestBindingBid */\n              0x03\n                /* \"contracts/Auctions.sol\":2784:2857  higestBindingBid = min(currentBid, bidsMap[highestBidder] + bidIncrement) */\n              dup2\n              swap1\n              sstore\n              pop\n                /* \"contracts/Auctions.sol\":2896:2906  msg.sender */\n              caller\n                /* \"contracts/Auctions.sol\":2872:2885  highestBidder */\n              0x02\n              0x00\n                /* \"contracts/Auctions.sol\":2872:2907  highestBidder = payable(msg.sender) */\n              0x0100\n              exp\n              dup2\n              sload\n              dup2\n              0xffffffffffffffffffffffffffffffffffffffff\n              mul\n              not\n              and\n              swap1\n              dup4\n              0xffffffffffffffffffffffffffffffffffffffff\n              and\n              mul\n              or\n              swap1\n              sstore\n              pop\n                /* \"contracts/Auctions.sol\":2626:2919  if(currentBid < bidsMap[highestBidder]){\r... */\n            tag_112:\n                /* \"contracts/Auctions.sol\":2023:2928  {\r... */\n              pop\n                /* \"contracts/Auctions.sol\":1958:2928  function makeABid() payable public notOwner afterStart beforeEnd {\r... */\n              jump\t// out\n                /* \"contracts/Auctions.sol\":3025:4457  function finalizeAuction() public {\r... */\n            tag_71:\n                /* \"contracts/Auctions.sol\":3194:3206  auctionState */\n              0x07\n              0x00\n              swap1\n              sload\n              swap1\n              0x0100\n              exp\n              swap1\n              div\n              0xff\n              and\n                /* \"contracts/Auctions.sol\":3175:3206  State.Cancelled == auctionState */\n              0x03\n              dup2\n              gt\n              iszero\n              tag_116\n              jumpi\n              tag_117\n              tag_75\n              jump\t// in\n            tag_117:\n            tag_116:\n                /* \"contracts/Auctions.sol\":3175:3190  State.Cancelled */\n              0x03\n                /* \"contracts/Auctions.sol\":3175:3206  State.Cancelled == auctionState */\n              dup1\n              dup2\n              gt\n              iszero\n              tag_118\n              jumpi\n              tag_119\n              tag_75\n              jump\t// in\n            tag_119:\n            tag_118:\n              eq\n                /* \"contracts/Auctions.sol\":3175:3233  State.Cancelled == auctionState || block.number > endBlock */\n              dup1\n              tag_120\n              jumpi\n              pop\n                /* \"contracts/Auctions.sol\":3225:3233  endBlock */\n              sload(0x06)\n                /* \"contracts/Auctions.sol\":3210:3222  block.number */\n              number\n                /* \"contracts/Auctions.sol\":3210:3233  block.number > endBlock */\n              gt\n                /* \"contracts/Auctions.sol\":3175:3233  State.Cancelled == auctionState || block.number > endBlock */\n            tag_120:\n                /* \"contracts/Auctions.sol\":3167:3234  require(State.Cancelled == auctionState || block.number > endBlock) */\n              tag_121\n              jumpi\n              0x00\n              dup1\n              revert\n            tag_121:\n                /* \"contracts/Auctions.sol\":3419:3420  0 */\n              0x00\n                /* \"contracts/Auctions.sol\":3397:3404  bidsMap */\n              dup1\n                /* \"contracts/Auctions.sol\":3397:3416  bidsMap[msg.sender] */\n              0x00\n                /* \"contracts/Auctions.sol\":3405:3415  msg.sender */\n              caller\n                /* \"contracts/Auctions.sol\":3397:3416  bidsMap[msg.sender] */\n              0xffffffffffffffffffffffffffffffffffffffff\n              and\n              0xffffffffffffffffffffffffffffffffffffffff\n              and\n              dup2\n              mstore\n              0x20\n              add\n              swap1\n              dup2\n              mstore\n              0x20\n              add\n              0x00\n              keccak256\n              sload\n                /* \"contracts/Auctions.sol\":3397:3420  bidsMap[msg.sender] > 0 */\n              gt\n                /* \"contracts/Auctions.sol\":3397:3443  bidsMap[msg.sender] > 0 || msg.sender == owner */\n              dup1\n              tag_122\n              jumpi\n              pop\n                /* \"contracts/Auctions.sol\":3438:3443  owner */\n              0x01\n              0x00\n              swap1\n              sload\n              swap1\n              0x0100\n              exp\n              swap1\n              div\n              0xffffffffffffffffffffffffffffffffffffffff\n              and\n                /* \"contracts/Auctions.sol\":3424:3443  msg.sender == owner */\n              0xffffffffffffffffffffffffffffffffffffffff\n              and\n                /* \"contracts/Auctions.sol\":3424:3434  msg.sender */\n              caller\n                /* \"contracts/Auctions.sol\":3424:3443  msg.sender == owner */\n              0xffffffffffffffffffffffffffffffffffffffff\n              and\n              eq\n                /* \"contracts/Auctions.sol\":3397:3443  bidsMap[msg.sender] > 0 || msg.sender == owner */\n            tag_122:\n                /* \"contracts/Auctions.sol\":3389:3444  require(bidsMap[msg.sender] > 0 || msg.sender == owner) */\n              tag_123\n              jumpi\n              0x00\n              dup1\n              revert\n            tag_123:\n                /* \"contracts/Auctions.sol\":3457:3470  uint theValue */\n              0x00\n                /* \"contracts/Auctions.sol\":3481:3506  address payable recipient */\n              dup1\n                /* \"contracts/Auctions.sol\":3538:3553  State.Cancelled */\n              0x03\n                /* \"contracts/Auctions.sol\":3522:3553  auctionState == State.Cancelled */\n              dup1\n              dup2\n              gt\n              iszero\n              tag_124\n              jumpi\n              tag_125\n              tag_75\n              jump\t// in\n            tag_125:\n            tag_124:\n                /* \"contracts/Auctions.sol\":3522:3534  auctionState */\n              0x07\n              0x00\n              swap1\n              sload\n              swap1\n              0x0100\n              exp\n              swap1\n              div\n              0xff\n              and\n                /* \"contracts/Auctions.sol\":3522:3553  auctionState == State.Cancelled */\n              0x03\n              dup2\n              gt\n              iszero\n              tag_126\n              jumpi\n              tag_127\n              tag_75\n              jump\t// in\n            tag_127:\n            tag_126:\n              eq\n                /* \"contracts/Auctions.sol\":3519:4316  if(auctionState == State.Cancelled){\r... */\n              iszero\n              tag_128\n              jumpi\n                /* \"contracts/Auctions.sol\":3589:3599  msg.sender */\n              caller\n                /* \"contracts/Auctions.sol\":3569:3600  recipient = payable(msg.sender) */\n              swap1\n              pop\n                /* \"contracts/Auctions.sol\":3626:3633  bidsMap */\n              0x00\n                /* \"contracts/Auctions.sol\":3626:3648  bidsMap[highestBidder] */\n              dup1\n                /* \"contracts/Auctions.sol\":3634:3647  highestBidder */\n              0x02\n              0x00\n              swap1\n              sload\n              swap1\n              0x0100\n              exp\n              swap1\n              div\n              0xffffffffffffffffffffffffffffffffffffffff\n              and\n                /* \"contracts/Auctions.sol\":3626:3648  bidsMap[highestBidder] */\n              0xffffffffffffffffffffffffffffffffffffffff\n              and\n              0xffffffffffffffffffffffffffffffffffffffff\n              and\n              dup2\n              mstore\n              0x20\n              add\n              swap1\n              dup2\n              mstore\n              0x20\n              add\n              0x00\n              keccak256\n              sload\n                /* \"contracts/Auctions.sol\":3615:3648  theValue = bidsMap[highestBidder] */\n              swap2\n              pop\n                /* \"contracts/Auctions.sol\":3519:4316  if(auctionState == State.Cancelled){\r... */\n              jump(tag_129)\n            tag_128:\n                /* \"contracts/Auctions.sol\":3730:3735  owner */\n              0x01\n              0x00\n              swap1\n              sload\n              swap1\n              0x0100\n              exp\n              swap1\n              div\n              0xffffffffffffffffffffffffffffffffffffffff\n              and\n                /* \"contracts/Auctions.sol\":3716:3735  msg.sender == owner */\n              0xffffffffffffffffffffffffffffffffffffffff\n              and\n                /* \"contracts/Auctions.sol\":3716:3726  msg.sender */\n              caller\n                /* \"contracts/Auctions.sol\":3716:3735  msg.sender == owner */\n              0xffffffffffffffffffffffffffffffffffffffff\n              and\n              eq\n                /* \"contracts/Auctions.sol\":3716:3764  msg.sender == owner && ownerRewardChance == true */\n              dup1\n              iszero\n              tag_130\n              jumpi\n              pop\n                /* \"contracts/Auctions.sol\":3760:3764  true */\n              0x01\n                /* \"contracts/Auctions.sol\":3739:3764  ownerRewardChance == true */\n              iszero\n              iszero\n                /* \"contracts/Auctions.sol\":3739:3756  ownerRewardChance */\n              0x09\n              0x00\n              swap1\n              sload\n              swap1\n              0x0100\n              exp\n              swap1\n              div\n              0xff\n              and\n                /* \"contracts/Auctions.sol\":3739:3764  ownerRewardChance == true */\n              iszero\n              iszero\n              eq\n                /* \"contracts/Auctions.sol\":3716:3764  msg.sender == owner && ownerRewardChance == true */\n            tag_130:\n                /* \"contracts/Auctions.sol\":3713:4305  if(msg.sender == owner && ownerRewardChance == true){\r... */\n              iszero\n              tag_131\n              jumpi\n                /* \"contracts/Auctions.sol\":3796:3801  owner */\n              0x01\n              0x00\n              swap1\n              sload\n              swap1\n              0x0100\n              exp\n              swap1\n              div\n              0xffffffffffffffffffffffffffffffffffffffff\n              and\n                /* \"contracts/Auctions.sol\":3784:3801  recipient = owner */\n              swap1\n              pop\n                /* \"contracts/Auctions.sol\":3831:3847  higestBindingBid */\n              sload(0x03)\n                /* \"contracts/Auctions.sol\":3820:3847  theValue = higestBindingBid */\n              swap2\n              pop\n                /* \"contracts/Auctions.sol\":3888:3893  false */\n              0x00\n                /* \"contracts/Auctions.sol\":3868:3885  ownerRewardChance */\n              0x09\n              0x00\n                /* \"contracts/Auctions.sol\":3868:3893  ownerRewardChance = false */\n              0x0100\n              exp\n              dup2\n              sload\n              dup2\n              0xff\n              mul\n              not\n              and\n              swap1\n              dup4\n              iszero\n              iszero\n              mul\n              or\n              swap1\n              sstore\n              pop\n                /* \"contracts/Auctions.sol\":3713:4305  if(msg.sender == owner && ownerRewardChance == true){\r... */\n              jump(tag_132)\n            tag_131:\n                /* \"contracts/Auctions.sol\":4002:4015  highestBidder */\n              0x02\n              0x00\n              swap1\n              sload\n              swap1\n              0x0100\n              exp\n              swap1\n              div\n              0xffffffffffffffffffffffffffffffffffffffff\n              and\n                /* \"contracts/Auctions.sol\":3988:4015  msg.sender == highestBidder */\n              0xffffffffffffffffffffffffffffffffffffffff\n              and\n                /* \"contracts/Auctions.sol\":3988:3998  msg.sender */\n              caller\n                /* \"contracts/Auctions.sol\":3988:4015  msg.sender == highestBidder */\n              0xffffffffffffffffffffffffffffffffffffffff\n              and\n              eq\n                /* \"contracts/Auctions.sol\":3985:4290  if(msg.sender == highestBidder){\r... */\n              iszero\n              tag_133\n              jumpi\n                /* \"contracts/Auctions.sol\":4051:4064  highestBidder */\n              0x02\n              0x00\n              swap1\n              sload\n              swap1\n              0x0100\n              exp\n              swap1\n              div\n              0xffffffffffffffffffffffffffffffffffffffff\n              and\n                /* \"contracts/Auctions.sol\":4039:4064  recipient = highestBidder */\n              swap1\n              pop\n                /* \"contracts/Auctions.sol\":4123:4139  higestBindingBid */\n              sload(0x03)\n                /* \"contracts/Auctions.sol\":4098:4105  bidsMap */\n              0x00\n                /* \"contracts/Auctions.sol\":4098:4120  bidsMap[highestBidder] */\n              dup1\n                /* \"contracts/Auctions.sol\":4106:4119  highestBidder */\n              0x02\n              0x00\n              swap1\n              sload\n              swap1\n              0x0100\n              exp\n              swap1\n              div\n              0xffffffffffffffffffffffffffffffffffffffff\n              and\n                /* \"contracts/Auctions.sol\":4098:4120  bidsMap[highestBidder] */\n              0xffffffffffffffffffffffffffffffffffffffff\n              and\n              0xffffffffffffffffffffffffffffffffffffffff\n              and\n              dup2\n              mstore\n              0x20\n              add\n              swap1\n              dup2\n              mstore\n              0x20\n              add\n              0x00\n              keccak256\n              sload\n                /* \"contracts/Auctions.sol\":4098:4139  bidsMap[highestBidder] - higestBindingBid */\n              tag_134\n              swap2\n              swap1\n              tag_135\n              jump\t// in\n            tag_134:\n                /* \"contracts/Auctions.sol\":4087:4139  theValue = bidsMap[highestBidder] - higestBindingBid */\n              swap2\n              pop\n                /* \"contracts/Auctions.sol\":3985:4290  if(msg.sender == highestBidder){\r... */\n              jump(tag_136)\n            tag_133:\n                /* \"contracts/Auctions.sol\":4206:4216  msg.sender */\n              caller\n                /* \"contracts/Auctions.sol\":4186:4217  recipient = payable(msg.sender) */\n              swap1\n              pop\n                /* \"contracts/Auctions.sol\":4251:4258  bidsMap */\n              0x00\n                /* \"contracts/Auctions.sol\":4251:4270  bidsMap[msg.sender] */\n              dup1\n                /* \"contracts/Auctions.sol\":4259:4269  msg.sender */\n              caller\n                /* \"contracts/Auctions.sol\":4251:4270  bidsMap[msg.sender] */\n              0xffffffffffffffffffffffffffffffffffffffff\n              and\n              0xffffffffffffffffffffffffffffffffffffffff\n              and\n              dup2\n              mstore\n              0x20\n              add\n              swap1\n              dup2\n              mstore\n              0x20\n              add\n              0x00\n              keccak256\n              sload\n                /* \"contracts/Auctions.sol\":4240:4270  theValue = bidsMap[msg.sender] */\n              swap2\n              pop\n                /* \"contracts/Auctions.sol\":3985:4290  if(msg.sender == highestBidder){\r... */\n            tag_136:\n                /* \"contracts/Auctions.sol\":3713:4305  if(msg.sender == owner && ownerRewardChance == true){\r... */\n            tag_132:\n                /* \"contracts/Auctions.sol\":3519:4316  if(auctionState == State.Cancelled){\r... */\n            tag_129:\n                /* \"contracts/Auctions.sol\":4403:4404  0 */\n              0x00\n                /* \"contracts/Auctions.sol\":4382:4389  bidsMap */\n              dup1\n                /* \"contracts/Auctions.sol\":4382:4400  bidsMap[recipient] */\n              0x00\n                /* \"contracts/Auctions.sol\":4390:4399  recipient */\n              dup4\n                /* \"contracts/Auctions.sol\":4382:4400  bidsMap[recipient] */\n              0xffffffffffffffffffffffffffffffffffffffff\n              and\n              0xffffffffffffffffffffffffffffffffffffffff\n              and\n              dup2\n              mstore\n              0x20\n              add\n              swap1\n              dup2\n              mstore\n              0x20\n              add\n              0x00\n              keccak256\n                /* \"contracts/Auctions.sol\":4382:4404  bidsMap[recipient] = 0 */\n              dup2\n              swap1\n              sstore\n              pop\n                /* \"contracts/Auctions.sol\":4415:4424  recipient */\n              dup1\n                /* \"contracts/Auctions.sol\":4415:4433  recipient.transfer */\n              0xffffffffffffffffffffffffffffffffffffffff\n              and\n                /* \"contracts/Auctions.sol\":4415:4443  recipient.transfer(theValue) */\n              0x08fc\n                /* \"contracts/Auctions.sol\":4434:4442  theValue */\n              dup4\n                /* \"contracts/Auctions.sol\":4415:4443  recipient.transfer(theValue) */\n              swap1\n              dup2\n              iszero\n              mul\n              swap1\n              mload(0x40)\n              0x00\n              mload(0x40)\n              dup1\n              dup4\n              sub\n              dup2\n              dup6\n              dup9\n              dup9\n              call\n              swap4\n              pop\n              pop\n              pop\n              pop\n              iszero\n              dup1\n              iszero\n              tag_138\n              jumpi\n              returndatasize\n              0x00\n              dup1\n              returndatacopy\n              revert(0x00, returndatasize)\n            tag_138:\n              pop\n                /* \"contracts/Auctions.sol\":3059:4457  {\r... */\n              pop\n              pop\n                /* \"contracts/Auctions.sol\":3025:4457  function finalizeAuction() public {\r... */\n              jump\t// out\n                /* \"contracts/Auctions.sol\":1435:1593  function min(uint a, uint b) pure internal returns(uint){\r... */\n            tag_111:\n                /* \"contracts/Auctions.sol\":1486:1490  uint */\n              0x00\n                /* \"contracts/Auctions.sol\":1510:1511  b */\n              dup2\n                /* \"contracts/Auctions.sol\":1505:1506  a */\n              dup4\n                /* \"contracts/Auctions.sol\":1505:1511  a <= b */\n              gt\n                /* \"contracts/Auctions.sol\":1502:1586  if(a <= b){\r... */\n              tag_140\n              jumpi\n                /* \"contracts/Auctions.sol\":1534:1535  a */\n              dup3\n                /* \"contracts/Auctions.sol\":1527:1535  return a */\n              swap1\n              pop\n              jump(tag_139)\n                /* \"contracts/Auctions.sol\":1502:1586  if(a <= b){\r... */\n            tag_140:\n                /* \"contracts/Auctions.sol\":1573:1574  b */\n              dup2\n                /* \"contracts/Auctions.sol\":1566:1574  return b */\n              swap1\n              pop\n                /* \"contracts/Auctions.sol\":1435:1593  function min(uint a, uint b) pure internal returns(uint){\r... */\n            tag_139:\n              swap3\n              swap2\n              pop\n              pop\n              jump\t// out\n                /* \"#utility.yul\":7:146   */\n            tag_143:\n                /* \"#utility.yul\":53:58   */\n              0x00\n                /* \"#utility.yul\":91:97   */\n              dup2\n                /* \"#utility.yul\":78:98   */\n              calldataload\n                /* \"#utility.yul\":69:98   */\n              swap1\n              pop\n                /* \"#utility.yul\":107:140   */\n              tag_145\n                /* \"#utility.yul\":134:139   */\n              dup2\n                /* \"#utility.yul\":107:140   */\n              tag_146\n              jump\t// in\n            tag_145:\n                /* \"#utility.yul\":7:146   */\n              swap3\n              swap2\n              pop\n              pop\n              jump\t// out\n                /* \"#utility.yul\":152:481   */\n            tag_44:\n                /* \"#utility.yul\":211:217   */\n              0x00\n                /* \"#utility.yul\":260:262   */\n              0x20\n                /* \"#utility.yul\":248:257   */\n              dup3\n                /* \"#utility.yul\":239:246   */\n              dup5\n                /* \"#utility.yul\":235:258   */\n              sub\n                /* \"#utility.yul\":231:263   */\n              slt\n                /* \"#utility.yul\":228:347   */\n              iszero\n              tag_148\n              jumpi\n                /* \"#utility.yul\":266:345   */\n              tag_149\n              tag_150\n              jump\t// in\n            tag_149:\n                /* \"#utility.yul\":228:347   */\n            tag_148:\n                /* \"#utility.yul\":386:387   */\n              0x00\n                /* \"#utility.yul\":411:464   */\n              tag_151\n                /* \"#utility.yul\":456:463   */\n              dup5\n                /* \"#utility.yul\":447:453   */\n              dup3\n                /* \"#utility.yul\":436:445   */\n              dup6\n                /* \"#utility.yul\":432:454   */\n              add\n                /* \"#utility.yul\":411:464   */\n              tag_143\n              jump\t// in\n            tag_151:\n                /* \"#utility.yul\":401:464   */\n              swap2\n              pop\n                /* \"#utility.yul\":357:474   */\n              pop\n                /* \"#utility.yul\":152:481   */\n              swap3\n              swap2\n              pop\n              pop\n              jump\t// out\n                /* \"#utility.yul\":487:629   */\n            tag_152:\n                /* \"#utility.yul\":590:622   */\n              tag_154\n                /* \"#utility.yul\":616:621   */\n              dup2\n                /* \"#utility.yul\":590:622   */\n              tag_155\n              jump\t// in\n            tag_154:\n                /* \"#utility.yul\":585:588   */\n              dup3\n                /* \"#utility.yul\":578:623   */\n              mstore\n                /* \"#utility.yul\":487:629   */\n              pop\n              pop\n              jump\t// out\n                /* \"#utility.yul\":635:744   */\n            tag_156:\n                /* \"#utility.yul\":716:737   */\n              tag_158\n                /* \"#utility.yul\":731:736   */\n              dup2\n                /* \"#utility.yul\":716:737   */\n              tag_159\n              jump\t// in\n            tag_158:\n                /* \"#utility.yul\":711:714   */\n              dup3\n                /* \"#utility.yul\":704:738   */\n              mstore\n                /* \"#utility.yul\":635:744   */\n              pop\n              pop\n              jump\t// out\n                /* \"#utility.yul\":750:893   */\n            tag_160:\n                /* \"#utility.yul\":843:886   */\n              tag_162\n                /* \"#utility.yul\":880:885   */\n              dup2\n                /* \"#utility.yul\":843:886   */\n              tag_163\n              jump\t// in\n            tag_162:\n                /* \"#utility.yul\":838:841   */\n              dup3\n                /* \"#utility.yul\":831:887   */\n              mstore\n                /* \"#utility.yul\":750:893   */\n              pop\n              pop\n              jump\t// out\n                /* \"#utility.yul\":899:1263   */\n            tag_164:\n                /* \"#utility.yul\":987:990   */\n              0x00\n                /* \"#utility.yul\":1015:1054   */\n              tag_166\n                /* \"#utility.yul\":1048:1053   */\n              dup3\n                /* \"#utility.yul\":1015:1054   */\n              tag_167\n              jump\t// in\n            tag_166:\n                /* \"#utility.yul\":1070:1141   */\n              tag_168\n                /* \"#utility.yul\":1134:1140   */\n              dup2\n                /* \"#utility.yul\":1129:1132   */\n              dup6\n                /* \"#utility.yul\":1070:1141   */\n              tag_169\n              jump\t// in\n            tag_168:\n                /* \"#utility.yul\":1063:1141   */\n              swap4\n              pop\n                /* \"#utility.yul\":1150:1202   */\n              tag_170\n                /* \"#utility.yul\":1195:1201   */\n              dup2\n                /* \"#utility.yul\":1190:1193   */\n              dup6\n                /* \"#utility.yul\":1183:1187   */\n              0x20\n                /* \"#utility.yul\":1176:1181   */\n              dup7\n                /* \"#utility.yul\":1172:1188   */\n              add\n                /* \"#utility.yul\":1150:1202   */\n              tag_171\n              jump\t// in\n            tag_170:\n                /* \"#utility.yul\":1227:1256   */\n              tag_172\n                /* \"#utility.yul\":1249:1255   */\n              dup2\n                /* \"#utility.yul\":1227:1256   */\n              tag_173\n              jump\t// in\n            tag_172:\n                /* \"#utility.yul\":1222:1225   */\n              dup5\n                /* \"#utility.yul\":1218:1257   */\n              add\n                /* \"#utility.yul\":1211:1257   */\n              swap2\n              pop\n                /* \"#utility.yul\":991:1263   */\n              pop\n                /* \"#utility.yul\":899:1263   */\n              swap3\n              swap2\n              pop\n              pop\n              jump\t// out\n                /* \"#utility.yul\":1269:1635   */\n            tag_174:\n                /* \"#utility.yul\":1411:1414   */\n              0x00\n                /* \"#utility.yul\":1432:1499   */\n              tag_176\n                /* \"#utility.yul\":1496:1498   */\n              0x26\n                /* \"#utility.yul\":1491:1494   */\n              dup4\n                /* \"#utility.yul\":1432:1499   */\n              tag_169\n              jump\t// in\n            tag_176:\n                /* \"#utility.yul\":1425:1499   */\n              swap2\n              pop\n                /* \"#utility.yul\":1508:1601   */\n              tag_177\n                /* \"#utility.yul\":1597:1600   */\n              dup3\n                /* \"#utility.yul\":1508:1601   */\n              tag_178\n              jump\t// in\n            tag_177:\n                /* \"#utility.yul\":1626:1628   */\n              0x40\n                /* \"#utility.yul\":1621:1624   */\n              dup3\n                /* \"#utility.yul\":1617:1629   */\n              add\n                /* \"#utility.yul\":1610:1629   */\n              swap1\n              pop\n                /* \"#utility.yul\":1269:1635   */\n              swap2\n              swap1\n              pop\n              jump\t// out\n                /* \"#utility.yul\":1641:2007   */\n            tag_179:\n                /* \"#utility.yul\":1783:1786   */\n              0x00\n                /* \"#utility.yul\":1804:1871   */\n              tag_181\n                /* \"#utility.yul\":1868:1870   */\n              0x18\n                /* \"#utility.yul\":1863:1866   */\n              dup4\n                /* \"#utility.yul\":1804:1871   */\n              tag_169\n              jump\t// in\n            tag_181:\n                /* \"#utility.yul\":1797:1871   */\n              swap2\n              pop\n                /* \"#utility.yul\":1880:1973   */\n              tag_182\n                /* \"#utility.yul\":1969:1972   */\n              dup3\n                /* \"#utility.yul\":1880:1973   */\n              tag_183\n              jump\t// in\n            tag_182:\n                /* \"#utility.yul\":1998:2000   */\n              0x20\n                /* \"#utility.yul\":1993:1996   */\n              dup3\n                /* \"#utility.yul\":1989:2001   */\n              add\n                /* \"#utility.yul\":1982:2001   */\n              swap1\n              pop\n                /* \"#utility.yul\":1641:2007   */\n              swap2\n              swap1\n              pop\n              jump\t// out\n                /* \"#utility.yul\":2013:2379   */\n            tag_184:\n                /* \"#utility.yul\":2155:2158   */\n              0x00\n                /* \"#utility.yul\":2176:2243   */\n              tag_186\n                /* \"#utility.yul\":2240:2242   */\n              0x25\n                /* \"#utility.yul\":2235:2238   */\n              dup4\n                /* \"#utility.yul\":2176:2243   */\n              tag_169\n              jump\t// in\n            tag_186:\n                /* \"#utility.yul\":2169:2243   */\n              swap2\n              pop\n                /* \"#utility.yul\":2252:2345   */\n              tag_187\n                /* \"#utility.yul\":2341:2344   */\n              dup3\n                /* \"#utility.yul\":2252:2345   */\n              tag_188\n              jump\t// in\n            tag_187:\n                /* \"#utility.yul\":2370:2372   */\n              0x40\n                /* \"#utility.yul\":2365:2368   */\n              dup3\n                /* \"#utility.yul\":2361:2373   */\n              add\n                /* \"#utility.yul\":2354:2373   */\n              swap1\n              pop\n                /* \"#utility.yul\":2013:2379   */\n              swap2\n              swap1\n              pop\n              jump\t// out\n                /* \"#utility.yul\":2385:2751   */\n            tag_189:\n                /* \"#utility.yul\":2527:2530   */\n              0x00\n                /* \"#utility.yul\":2548:2615   */\n              tag_191\n                /* \"#utility.yul\":2612:2614   */\n              0x27\n                /* \"#utility.yul\":2607:2610   */\n              dup4\n                /* \"#utility.yul\":2548:2615   */\n              tag_169\n              jump\t// in\n            tag_191:\n                /* \"#utility.yul\":2541:2615   */\n              swap2\n              pop\n                /* \"#utility.yul\":2624:2717   */\n              tag_192\n                /* \"#utility.yul\":2713:2716   */\n              dup3\n                /* \"#utility.yul\":2624:2717   */\n              tag_193\n              jump\t// in\n            tag_192:\n                /* \"#utility.yul\":2742:2744   */\n              0x40\n                /* \"#utility.yul\":2737:2740   */\n              dup3\n                /* \"#utility.yul\":2733:2745   */\n              add\n                /* \"#utility.yul\":2726:2745   */\n              swap1\n              pop\n                /* \"#utility.yul\":2385:2751   */\n              swap2\n              swap1\n              pop\n              jump\t// out\n                /* \"#utility.yul\":2757:3123   */\n            tag_194:\n                /* \"#utility.yul\":2899:2902   */\n              0x00\n                /* \"#utility.yul\":2920:2987   */\n              tag_196\n                /* \"#utility.yul\":2984:2986   */\n              0x2c\n                /* \"#utility.yul\":2979:2982   */\n              dup4\n                /* \"#utility.yul\":2920:2987   */\n              tag_169\n              jump\t// in\n            tag_196:\n                /* \"#utility.yul\":2913:2987   */\n              swap2\n              pop\n                /* \"#utility.yul\":2996:3089   */\n              tag_197\n                /* \"#utility.yul\":3085:3088   */\n              dup3\n                /* \"#utility.yul\":2996:3089   */\n              tag_198\n              jump\t// in\n            tag_197:\n                /* \"#utility.yul\":3114:3116   */\n              0x40\n                /* \"#utility.yul\":3109:3112   */\n              dup3\n                /* \"#utility.yul\":3105:3117   */\n              add\n                /* \"#utility.yul\":3098:3117   */\n              swap1\n              pop\n                /* \"#utility.yul\":2757:3123   */\n              swap2\n              swap1\n              pop\n              jump\t// out\n                /* \"#utility.yul\":3129:3247   */\n            tag_199:\n                /* \"#utility.yul\":3216:3240   */\n              tag_201\n                /* \"#utility.yul\":3234:3239   */\n              dup2\n                /* \"#utility.yul\":3216:3240   */\n              tag_202\n              jump\t// in\n            tag_201:\n                /* \"#utility.yul\":3211:3214   */\n              dup3\n                /* \"#utility.yul\":3204:3241   */\n              mstore\n                /* \"#utility.yul\":3129:3247   */\n              pop\n              pop\n              jump\t// out\n                /* \"#utility.yul\":3253:3507   */\n            tag_40:\n                /* \"#utility.yul\":3362:3366   */\n              0x00\n                /* \"#utility.yul\":3400:3402   */\n              0x20\n                /* \"#utility.yul\":3389:3398   */\n              dup3\n                /* \"#utility.yul\":3385:3403   */\n              add\n                /* \"#utility.yul\":3377:3403   */\n              swap1\n              pop\n                /* \"#utility.yul\":3413:3500   */\n              tag_204\n                /* \"#utility.yul\":3497:3498   */\n              0x00\n                /* \"#utility.yul\":3486:3495   */\n              dup4\n                /* \"#utility.yul\":3482:3499   */\n              add\n                /* \"#utility.yul\":3473:3479   */\n              dup5\n                /* \"#utility.yul\":3413:3500   */\n              tag_152\n              jump\t// in\n            tag_204:\n                /* \"#utility.yul\":3253:3507   */\n              swap3\n              swap2\n              pop\n              pop\n              jump\t// out\n                /* \"#utility.yul\":3513:3723   */\n            tag_26:\n                /* \"#utility.yul\":3600:3604   */\n              0x00\n                /* \"#utility.yul\":3638:3640   */\n              0x20\n                /* \"#utility.yul\":3627:3636   */\n              dup3\n                /* \"#utility.yul\":3623:3641   */\n              add\n                /* \"#utility.yul\":3615:3641   */\n              swap1\n              pop\n                /* \"#utility.yul\":3651:3716   */\n              tag_206\n                /* \"#utility.yul\":3713:3714   */\n              0x00\n                /* \"#utility.yul\":3702:3711   */\n              dup4\n                /* \"#utility.yul\":3698:3715   */\n              add\n                /* \"#utility.yul\":3689:3695   */\n              dup5\n                /* \"#utility.yul\":3651:3716   */\n              tag_156\n              jump\t// in\n            tag_206:\n                /* \"#utility.yul\":3513:3723   */\n              swap3\n              swap2\n              pop\n              pop\n              jump\t// out\n                /* \"#utility.yul\":3729:3963   */\n            tag_35:\n                /* \"#utility.yul\":3828:3832   */\n              0x00\n                /* \"#utility.yul\":3866:3868   */\n              0x20\n                /* \"#utility.yul\":3855:3864   */\n              dup3\n                /* \"#utility.yul\":3851:3869   */\n              add\n                /* \"#utility.yul\":3843:3869   */\n              swap1\n              pop\n                /* \"#utility.yul\":3879:3956   */\n              tag_208\n                /* \"#utility.yul\":3953:3954   */\n              0x00\n                /* \"#utility.yul\":3942:3951   */\n              dup4\n                /* \"#utility.yul\":3938:3955   */\n              add\n                /* \"#utility.yul\":3929:3935   */\n              dup5\n                /* \"#utility.yul\":3879:3956   */\n              tag_160\n              jump\t// in\n            tag_208:\n                /* \"#utility.yul\":3729:3963   */\n              swap3\n              swap2\n              pop\n              pop\n              jump\t// out\n                /* \"#utility.yul\":3969:4282   */\n            tag_66:\n                /* \"#utility.yul\":4082:4086   */\n              0x00\n                /* \"#utility.yul\":4120:4122   */\n              0x20\n                /* \"#utility.yul\":4109:4118   */\n              dup3\n                /* \"#utility.yul\":4105:4123   */\n              add\n                /* \"#utility.yul\":4097:4123   */\n              swap1\n              pop\n                /* \"#utility.yul\":4169:4178   */\n              dup2\n                /* \"#utility.yul\":4163:4167   */\n              dup2\n                /* \"#utility.yul\":4159:4179   */\n              sub\n                /* \"#utility.yul\":4155:4156   */\n              0x00\n                /* \"#utility.yul\":4144:4153   */\n              dup4\n                /* \"#utility.yul\":4140:4157   */\n              add\n                /* \"#utility.yul\":4133:4180   */\n              mstore\n                /* \"#utility.yul\":4197:4275   */\n              tag_210\n                /* \"#utility.yul\":4270:4274   */\n              dup2\n                /* \"#utility.yul\":4261:4267   */\n              dup5\n                /* \"#utility.yul\":4197:4275   */\n              tag_164\n              jump\t// in\n            tag_210:\n                /* \"#utility.yul\":4189:4275   */\n              swap1\n              pop\n                /* \"#utility.yul\":3969:4282   */\n              swap3\n              swap2\n              pop\n              pop\n              jump\t// out\n                /* \"#utility.yul\":4288:4707   */\n            tag_85:\n                /* \"#utility.yul\":4454:4458   */\n              0x00\n                /* \"#utility.yul\":4492:4494   */\n              0x20\n                /* \"#utility.yul\":4481:4490   */\n              dup3\n                /* \"#utility.yul\":4477:4495   */\n              add\n                /* \"#utility.yul\":4469:4495   */\n              swap1\n              pop\n                /* \"#utility.yul\":4541:4550   */\n              dup2\n                /* \"#utility.yul\":4535:4539   */\n              dup2\n                /* \"#utility.yul\":4531:4551   */\n              sub\n                /* \"#utility.yul\":4527:4528   */\n              0x00\n                /* \"#utility.yul\":4516:4525   */\n              dup4\n                /* \"#utility.yul\":4512:4529   */\n              add\n                /* \"#utility.yul\":4505:4552   */\n              mstore\n                /* \"#utility.yul\":4569:4700   */\n              tag_212\n                /* \"#utility.yul\":4695:4699   */\n              dup2\n                /* \"#utility.yul\":4569:4700   */\n              tag_174\n              jump\t// in\n            tag_212:\n                /* \"#utility.yul\":4561:4700   */\n              swap1\n              pop\n                /* \"#utility.yul\":4288:4707   */\n              swap2\n              swap1\n              pop\n              jump\t// out\n                /* \"#utility.yul\":4713:5132   */\n            tag_93:\n                /* \"#utility.yul\":4879:4883   */\n              0x00\n                /* \"#utility.yul\":4917:4919   */\n              0x20\n                /* \"#utility.yul\":4906:4915   */\n              dup3\n                /* \"#utility.yul\":4902:4920   */\n              add\n                /* \"#utility.yul\":4894:4920   */\n              swap1\n              pop\n                /* \"#utility.yul\":4966:4975   */\n              dup2\n                /* \"#utility.yul\":4960:4964   */\n              dup2\n                /* \"#utility.yul\":4956:4976   */\n              sub\n                /* \"#utility.yul\":4952:4953   */\n              0x00\n                /* \"#utility.yul\":4941:4950   */\n              dup4\n                /* \"#utility.yul\":4937:4954   */\n              add\n                /* \"#utility.yul\":4930:4977   */\n              mstore\n                /* \"#utility.yul\":4994:5125   */\n              tag_214\n                /* \"#utility.yul\":5120:5124   */\n              dup2\n                /* \"#utility.yul\":4994:5125   */\n              tag_179\n              jump\t// in\n            tag_214:\n                /* \"#utility.yul\":4986:5125   */\n              swap1\n              pop\n                /* \"#utility.yul\":4713:5132   */\n              swap2\n              swap1\n              pop\n              jump\t// out\n                /* \"#utility.yul\":5138:5557   */\n            tag_89:\n                /* \"#utility.yul\":5304:5308   */\n              0x00\n                /* \"#utility.yul\":5342:5344   */\n              0x20\n                /* \"#utility.yul\":5331:5340   */\n              dup3\n                /* \"#utility.yul\":5327:5345   */\n              add\n                /* \"#utility.yul\":5319:5345   */\n              swap1\n              pop\n                /* \"#utility.yul\":5391:5400   */\n              dup2\n                /* \"#utility.yul\":5385:5389   */\n              dup2\n                /* \"#utility.yul\":5381:5401   */\n              sub\n                /* \"#utility.yul\":5377:5378   */\n              0x00\n                /* \"#utility.yul\":5366:5375   */\n              dup4\n                /* \"#utility.yul\":5362:5379   */\n              add\n                /* \"#utility.yul\":5355:5402   */\n              mstore\n                /* \"#utility.yul\":5419:5550   */\n              tag_216\n                /* \"#utility.yul\":5545:5549   */\n              dup2\n                /* \"#utility.yul\":5419:5550   */\n              tag_184\n              jump\t// in\n            tag_216:\n                /* \"#utility.yul\":5411:5550   */\n              swap1\n              pop\n                /* \"#utility.yul\":5138:5557   */\n              swap2\n              swap1\n              pop\n              jump\t// out\n                /* \"#utility.yul\":5563:5982   */\n            tag_97:\n                /* \"#utility.yul\":5729:5733   */\n              0x00\n                /* \"#utility.yul\":5767:5769   */\n              0x20\n                /* \"#utility.yul\":5756:5765   */\n              dup3\n                /* \"#utility.yul\":5752:5770   */\n              add\n                /* \"#utility.yul\":5744:5770   */\n              swap1\n              pop\n                /* \"#utility.yul\":5816:5825   */\n              dup2\n                /* \"#utility.yul\":5810:5814   */\n              dup2\n                /* \"#utility.yul\":5806:5826   */\n              sub\n                /* \"#utility.yul\":5802:5803   */\n              0x00\n                /* \"#utility.yul\":5791:5800   */\n              dup4\n                /* \"#utility.yul\":5787:5804   */\n              add\n                /* \"#utility.yul\":5780:5827   */\n              mstore\n                /* \"#utility.yul\":5844:5975   */\n              tag_218\n                /* \"#utility.yul\":5970:5974   */\n              dup2\n                /* \"#utility.yul\":5844:5975   */\n              tag_189\n              jump\t// in\n            tag_218:\n                /* \"#utility.yul\":5836:5975   */\n              swap1\n              pop\n                /* \"#utility.yul\":5563:5982   */\n              swap2\n              swap1\n              pop\n              jump\t// out\n                /* \"#utility.yul\":5988:6407   */\n            tag_104:\n                /* \"#utility.yul\":6154:6158   */\n              0x00\n                /* \"#utility.yul\":6192:6194   */\n              0x20\n                /* \"#utility.yul\":6181:6190   */\n              dup3\n                /* \"#utility.yul\":6177:6195   */\n              add\n                /* \"#utility.yul\":6169:6195   */\n              swap1\n              pop\n                /* \"#utility.yul\":6241:6250   */\n              dup2\n                /* \"#utility.yul\":6235:6239   */\n              dup2\n                /* \"#utility.yul\":6231:6251   */\n              sub\n                /* \"#utility.yul\":6227:6228   */\n              0x00\n                /* \"#utility.yul\":6216:6225   */\n              dup4\n                /* \"#utility.yul\":6212:6229   */\n              add\n                /* \"#utility.yul\":6205:6252   */\n              mstore\n                /* \"#utility.yul\":6269:6400   */\n              tag_220\n                /* \"#utility.yul\":6395:6399   */\n              dup2\n                /* \"#utility.yul\":6269:6400   */\n              tag_194\n              jump\t// in\n            tag_220:\n                /* \"#utility.yul\":6261:6400   */\n              swap1\n              pop\n                /* \"#utility.yul\":5988:6407   */\n              swap2\n              swap1\n              pop\n              jump\t// out\n                /* \"#utility.yul\":6413:6635   */\n            tag_21:\n                /* \"#utility.yul\":6506:6510   */\n              0x00\n                /* \"#utility.yul\":6544:6546   */\n              0x20\n                /* \"#utility.yul\":6533:6542   */\n              dup3\n                /* \"#utility.yul\":6529:6547   */\n              add\n                /* \"#utility.yul\":6521:6547   */\n              swap1\n              pop\n                /* \"#utility.yul\":6557:6628   */\n              tag_222\n                /* \"#utility.yul\":6625:6626   */\n              0x00\n                /* \"#utility.yul\":6614:6623   */\n              dup4\n                /* \"#utility.yul\":6610:6627   */\n              add\n                /* \"#utility.yul\":6601:6607   */\n              dup5\n                /* \"#utility.yul\":6557:6628   */\n              tag_199\n              jump\t// in\n            tag_222:\n                /* \"#utility.yul\":6413:6635   */\n              swap3\n              swap2\n              pop\n              pop\n              jump\t// out\n                /* \"#utility.yul\":6722:6821   */\n            tag_167:\n                /* \"#utility.yul\":6774:6780   */\n              0x00\n                /* \"#utility.yul\":6808:6813   */\n              dup2\n                /* \"#utility.yul\":6802:6814   */\n              mload\n                /* \"#utility.yul\":6792:6814   */\n              swap1\n              pop\n                /* \"#utility.yul\":6722:6821   */\n              swap2\n              swap1\n              pop\n              jump\t// out\n                /* \"#utility.yul\":6827:6996   */\n            tag_169:\n                /* \"#utility.yul\":6911:6922   */\n              0x00\n                /* \"#utility.yul\":6945:6951   */\n              dup3\n                /* \"#utility.yul\":6940:6943   */\n              dup3\n                /* \"#utility.yul\":6933:6952   */\n              mstore\n                /* \"#utility.yul\":6985:6989   */\n              0x20\n                /* \"#utility.yul\":6980:6983   */\n              dup3\n                /* \"#utility.yul\":6976:6990   */\n              add\n                /* \"#utility.yul\":6961:6990   */\n              swap1\n              pop\n                /* \"#utility.yul\":6827:6996   */\n              swap3\n              swap2\n              pop\n              pop\n              jump\t// out\n                /* \"#utility.yul\":7002:7307   */\n            tag_106:\n                /* \"#utility.yul\":7042:7045   */\n              0x00\n                /* \"#utility.yul\":7061:7081   */\n              tag_228\n                /* \"#utility.yul\":7079:7080   */\n              dup3\n                /* \"#utility.yul\":7061:7081   */\n              tag_202\n              jump\t// in\n            tag_228:\n                /* \"#utility.yul\":7056:7081   */\n              swap2\n              pop\n                /* \"#utility.yul\":7095:7115   */\n              tag_229\n                /* \"#utility.yul\":7113:7114   */\n              dup4\n                /* \"#utility.yul\":7095:7115   */\n              tag_202\n              jump\t// in\n            tag_229:\n                /* \"#utility.yul\":7090:7115   */\n              swap3\n              pop\n                /* \"#utility.yul\":7249:7250   */\n              dup3\n                /* \"#utility.yul\":7181:7247   */\n              0xffffffffffffffffffffffffffffffffffffffffffffffffffffffffffffffff\n                /* \"#utility.yul\":7177:7251   */\n              sub\n                /* \"#utility.yul\":7174:7175   */\n              dup3\n                /* \"#utility.yul\":7171:7252   */\n              gt\n                /* \"#utility.yul\":7168:7275   */\n              iszero\n              tag_230\n              jumpi\n                /* \"#utility.yul\":7255:7273   */\n              tag_231\n              tag_232\n              jump\t// in\n            tag_231:\n                /* \"#utility.yul\":7168:7275   */\n            tag_230:\n                /* \"#utility.yul\":7299:7300   */\n              dup3\n                /* \"#utility.yul\":7296:7297   */\n              dup3\n                /* \"#utility.yul\":7292:7301   */\n              add\n                /* \"#utility.yul\":7285:7301   */\n              swap1\n              pop\n                /* \"#utility.yul\":7002:7307   */\n              swap3\n              swap2\n              pop\n              pop\n              jump\t// out\n                /* \"#utility.yul\":7313:7504   */\n            tag_135:\n                /* \"#utility.yul\":7353:7357   */\n              0x00\n                /* \"#utility.yul\":7373:7393   */\n              tag_234\n                /* \"#utility.yul\":7391:7392   */\n              dup3\n                /* \"#utility.yul\":7373:7393   */\n              tag_202\n              jump\t// in\n            tag_234:\n                /* \"#utility.yul\":7368:7393   */\n              swap2\n              pop\n                /* \"#utility.yul\":7407:7427   */\n              tag_235\n                /* \"#utility.yul\":7425:7426   */\n              dup4\n                /* \"#utility.yul\":7407:7427   */\n              tag_202\n              jump\t// in\n            tag_235:\n                /* \"#utility.yul\":7402:7427   */\n              swap3\n              pop\n                /* \"#utility.yul\":7446:7447   */\n              dup3\n                /* \"#utility.yul\":7443:7444   */\n              dup3\n                /* \"#utility.yul\":7440:7448   */\n              lt\n                /* \"#utility.yul\":7437:7471   */\n              iszero\n              tag_236\n              jumpi\n                /* \"#utility.yul\":7451:7469   */\n              tag_237\n              tag_232\n              jump\t// in\n            tag_237:\n                /* \"#utility.yul\":7437:7471   */\n            tag_236:\n                /* \"#utility.yul\":7496:7497   */\n              dup3\n                /* \"#utility.yul\":7493:7494   */\n              dup3\n                /* \"#utility.yul\":7489:7498   */\n              sub\n                /* \"#utility.yul\":7481:7498   */\n              swap1\n              pop\n                /* \"#utility.yul\":7313:7504   */\n              swap3\n              swap2\n              pop\n              pop\n              jump\t// out\n                /* \"#utility.yul\":7510:7606   */\n            tag_238:\n                /* \"#utility.yul\":7547:7554   */\n              0x00\n                /* \"#utility.yul\":7576:7600   */\n              tag_240\n                /* \"#utility.yul\":7594:7599   */\n              dup3\n                /* \"#utility.yul\":7576:7600   */\n              tag_241\n              jump\t// in\n            tag_240:\n                /* \"#utility.yul\":7565:7600   */\n              swap1\n              pop\n                /* \"#utility.yul\":7510:7606   */\n              swap2\n              swap1\n              pop\n              jump\t// out\n                /* \"#utility.yul\":7612:7716   */\n            tag_155:\n                /* \"#utility.yul\":7657:7664   */\n              0x00\n                /* \"#utility.yul\":7686:7710   */\n              tag_243\n                /* \"#utility.yul\":7704:7709   */\n              dup3\n                /* \"#utility.yul\":7686:7710   */\n              tag_241\n              jump\t// in\n            tag_243:\n                /* \"#utility.yul\":7675:7710   */\n              swap1\n              pop\n                /* \"#utility.yul\":7612:7716   */\n              swap2\n              swap1\n              pop\n              jump\t// out\n                /* \"#utility.yul\":7722:7812   */\n            tag_159:\n                /* \"#utility.yul\":7756:7763   */\n              0x00\n                /* \"#utility.yul\":7799:7804   */\n              dup2\n                /* \"#utility.yul\":7792:7805   */\n              iszero\n                /* \"#utility.yul\":7785:7806   */\n              iszero\n                /* \"#utility.yul\":7774:7806   */\n              swap1\n              pop\n                /* \"#utility.yul\":7722:7812   */\n              swap2\n              swap1\n              pop\n              jump\t// out\n                /* \"#utility.yul\":7818:7945   */\n            tag_245:\n                /* \"#utility.yul\":7863:7870   */\n              0x00\n                /* \"#utility.yul\":7892:7897   */\n              dup2\n                /* \"#utility.yul\":7881:7897   */\n              swap1\n              pop\n                /* \"#utility.yul\":7898:7939   */\n              tag_247\n                /* \"#utility.yul\":7933:7938   */\n              dup3\n                /* \"#utility.yul\":7898:7939   */\n              tag_248\n              jump\t// in\n            tag_247:\n                /* \"#utility.yul\":7818:7945   */\n              swap2\n              swap1\n              pop\n              jump\t// out\n                /* \"#utility.yul\":7951:8077   */\n            tag_241:\n                /* \"#utility.yul\":7988:7995   */\n              0x00\n                /* \"#utility.yul\":8028:8070   */\n              0xffffffffffffffffffffffffffffffffffffffff\n                /* \"#utility.yul\":8021:8026   */\n              dup3\n                /* \"#utility.yul\":8017:8071   */\n              and\n                /* \"#utility.yul\":8006:8071   */\n              swap1\n              pop\n                /* \"#utility.yul\":7951:8077   */\n              swap2\n              swap1\n              pop\n              jump\t// out\n                /* \"#utility.yul\":8083:8160   */\n            tag_202:\n                /* \"#utility.yul\":8120:8127   */\n              0x00\n                /* \"#utility.yul\":8149:8154   */\n              dup2\n                /* \"#utility.yul\":8138:8154   */\n              swap1\n              pop\n                /* \"#utility.yul\":8083:8160   */\n              swap2\n              swap1\n              pop\n              jump\t// out\n                /* \"#utility.yul\":8166:8293   */\n            tag_163:\n                /* \"#utility.yul\":8222:8231   */\n              0x00\n                /* \"#utility.yul\":8255:8287   */\n              tag_252\n                /* \"#utility.yul\":8281:8286   */\n              dup3\n                /* \"#utility.yul\":8255:8287   */\n              tag_245\n              jump\t// in\n            tag_252:\n                /* \"#utility.yul\":8242:8287   */\n              swap1\n              pop\n                /* \"#utility.yul\":8166:8293   */\n              swap2\n              swap1\n              pop\n              jump\t// out\n                /* \"#utility.yul\":8299:8606   */\n            tag_171:\n                /* \"#utility.yul\":8367:8368   */\n              0x00\n                /* \"#utility.yul\":8377:8490   */\n            tag_254:\n                /* \"#utility.yul\":8391:8397   */\n              dup4\n                /* \"#utility.yul\":8388:8389   */\n              dup2\n                /* \"#utility.yul\":8385:8398   */\n              lt\n                /* \"#utility.yul\":8377:8490   */\n              iszero\n              tag_256\n              jumpi\n                /* \"#utility.yul\":8476:8477   */\n              dup1\n                /* \"#utility.yul\":8471:8474   */\n              dup3\n                /* \"#utility.yul\":8467:8478   */\n              add\n                /* \"#utility.yul\":8461:8479   */\n              mload\n                /* \"#utility.yul\":8457:8458   */\n              dup2\n                /* \"#utility.yul\":8452:8455   */\n              dup5\n                /* \"#utility.yul\":8448:8459   */\n              add\n                /* \"#utility.yul\":8441:8480   */\n              mstore\n                /* \"#utility.yul\":8413:8415   */\n              0x20\n                /* \"#utility.yul\":8410:8411   */\n              dup2\n                /* \"#utility.yul\":8406:8416   */\n              add\n                /* \"#utility.yul\":8401:8416   */\n              swap1\n              pop\n                /* \"#utility.yul\":8377:8490   */\n              jump(tag_254)\n            tag_256:\n                /* \"#utility.yul\":8508:8514   */\n              dup4\n                /* \"#utility.yul\":8505:8506   */\n              dup2\n                /* \"#utility.yul\":8502:8515   */\n              gt\n                /* \"#utility.yul\":8499:8600   */\n              iszero\n              tag_257\n              jumpi\n                /* \"#utility.yul\":8588:8589   */\n              0x00\n                /* \"#utility.yul\":8579:8585   */\n              dup5\n                /* \"#utility.yul\":8574:8577   */\n              dup5\n                /* \"#utility.yul\":8570:8586   */\n              add\n                /* \"#utility.yul\":8563:8590   */\n              mstore\n                /* \"#utility.yul\":8499:8600   */\n            tag_257:\n                /* \"#utility.yul\":8348:8606   */\n              pop\n                /* \"#utility.yul\":8299:8606   */\n              pop\n              pop\n              pop\n              jump\t// out\n                /* \"#utility.yul\":8612:8932   */\n            tag_77:\n                /* \"#utility.yul\":8656:8662   */\n              0x00\n                /* \"#utility.yul\":8693:8694   */\n              0x02\n                /* \"#utility.yul\":8687:8691   */\n              dup3\n                /* \"#utility.yul\":8683:8695   */\n              div\n                /* \"#utility.yul\":8673:8695   */\n              swap1\n              pop\n                /* \"#utility.yul\":8740:8741   */\n              0x01\n                /* \"#utility.yul\":8734:8738   */\n              dup3\n                /* \"#utility.yul\":8730:8742   */\n              and\n                /* \"#utility.yul\":8761:8779   */\n              dup1\n                /* \"#utility.yul\":8751:8832   */\n              tag_259\n              jumpi\n                /* \"#utility.yul\":8817:8821   */\n              0x7f\n                /* \"#utility.yul\":8809:8815   */\n              dup3\n                /* \"#utility.yul\":8805:8822   */\n              and\n                /* \"#utility.yul\":8795:8822   */\n              swap2\n              pop\n                /* \"#utility.yul\":8751:8832   */\n            tag_259:\n                /* \"#utility.yul\":8879:8881   */\n              0x20\n                /* \"#utility.yul\":8871:8877   */\n              dup3\n                /* \"#utility.yul\":8868:8882   */\n              lt\n                /* \"#utility.yul\":8848:8866   */\n              dup2\n                /* \"#utility.yul\":8845:8883   */\n              eq\n                /* \"#utility.yul\":8842:8926   */\n              iszero\n              tag_260\n              jumpi\n                /* \"#utility.yul\":8898:8916   */\n              tag_261\n              tag_262\n              jump\t// in\n            tag_261:\n                /* \"#utility.yul\":8842:8926   */\n            tag_260:\n                /* \"#utility.yul\":8663:8932   */\n              pop\n                /* \"#utility.yul\":8612:8932   */\n              swap2\n              swap1\n              pop\n              jump\t// out\n                /* \"#utility.yul\":8938:9118   */\n            tag_232:\n                /* \"#utility.yul\":8986:9063   */\n              0x4e487b7100000000000000000000000000000000000000000000000000000000\n                /* \"#utility.yul\":8983:8984   */\n              0x00\n                /* \"#utility.yul\":8976:9064   */\n              mstore\n                /* \"#utility.yul\":9083:9087   */\n              0x11\n                /* \"#utility.yul\":9080:9081   */\n              0x04\n                /* \"#utility.yul\":9073:9088   */\n              mstore\n                /* \"#utility.yul\":9107:9111   */\n              0x24\n                /* \"#utility.yul\":9104:9105   */\n              0x00\n                /* \"#utility.yul\":9097:9112   */\n              revert\n                /* \"#utility.yul\":9124:9304   */\n            tag_75:\n                /* \"#utility.yul\":9172:9249   */\n              0x4e487b7100000000000000000000000000000000000000000000000000000000\n                /* \"#utility.yul\":9169:9170   */\n              0x00\n                /* \"#utility.yul\":9162:9250   */\n              mstore\n                /* \"#utility.yul\":9269:9273   */\n              0x21\n                /* \"#utility.yul\":9266:9267   */\n              0x04\n                /* \"#utility.yul\":9259:9274   */\n              mstore\n                /* \"#utility.yul\":9293:9297   */\n              0x24\n                /* \"#utility.yul\":9290:9291   */\n              0x00\n                /* \"#utility.yul\":9283:9298   */\n              revert\n                /* \"#utility.yul\":9310:9490   */\n            tag_262:\n                /* \"#utility.yul\":9358:9435   */\n              0x4e487b7100000000000000000000000000000000000000000000000000000000\n                /* \"#utility.yul\":9355:9356   */\n              0x00\n                /* \"#utility.yul\":9348:9436   */\n              mstore\n                /* \"#utility.yul\":9455:9459   */\n              0x22\n                /* \"#utility.yul\":9452:9453   */\n              0x04\n                /* \"#utility.yul\":9445:9460   */\n              mstore\n                /* \"#utility.yul\":9479:9483   */\n              0x24\n                /* \"#utility.yul\":9476:9477   */\n              0x00\n                /* \"#utility.yul\":9469:9484   */\n              revert\n                /* \"#utility.yul\":9619:9736   */\n            tag_150:\n                /* \"#utility.yul\":9728:9729   */\n              0x00\n                /* \"#utility.yul\":9725:9726   */\n              dup1\n                /* \"#utility.yul\":9718:9730   */\n              revert\n                /* \"#utility.yul\":9742:9844   */\n            tag_173:\n                /* \"#utility.yul\":9783:9789   */\n              0x00\n                /* \"#utility.yul\":9834:9836   */\n              0x1f\n                /* \"#utility.yul\":9830:9837   */\n              not\n                /* \"#utility.yul\":9825:9827   */\n              0x1f\n                /* \"#utility.yul\":9818:9823   */\n              dup4\n                /* \"#utility.yul\":9814:9828   */\n              add\n                /* \"#utility.yul\":9810:9838   */\n              and\n                /* \"#utility.yul\":9800:9838   */\n              swap1\n              pop\n                /* \"#utility.yul\":9742:9844   */\n              swap2\n              swap1\n              pop\n              jump\t// out\n                /* \"#utility.yul\":9850:10075   */\n            tag_178:\n                /* \"#utility.yul\":9990:10024   */\n              0x426964732063616e206f6e6c7920626520706c61636564206279206e6f6e6520\n                /* \"#utility.yul\":9986:9987   */\n              0x00\n                /* \"#utility.yul\":9978:9984   */\n              dup3\n                /* \"#utility.yul\":9974:9988   */\n              add\n                /* \"#utility.yul\":9967:10025   */\n              mstore\n                /* \"#utility.yul\":10059:10067   */\n              0x6f776e6572730000000000000000000000000000000000000000000000000000\n                /* \"#utility.yul\":10054:10056   */\n              0x20\n                /* \"#utility.yul\":10046:10052   */\n              dup3\n                /* \"#utility.yul\":10042:10057   */\n              add\n                /* \"#utility.yul\":10035:10068   */\n              mstore\n                /* \"#utility.yul\":9850:10075   */\n              pop\n              jump\t// out\n                /* \"#utility.yul\":10081:10255   */\n            tag_183:\n                /* \"#utility.yul\":10221:10247   */\n              0x41756374696f6e2074696d652068617320656c61737065640000000000000000\n                /* \"#utility.yul\":10217:10218   */\n              0x00\n                /* \"#utility.yul\":10209:10215   */\n              dup3\n                /* \"#utility.yul\":10205:10219   */\n              add\n                /* \"#utility.yul\":10198:10248   */\n              mstore\n                /* \"#utility.yul\":10081:10255   */\n              pop\n              jump\t// out\n                /* \"#utility.yul\":10261:10485   */\n            tag_188:\n                /* \"#utility.yul\":10401:10435   */\n              0x41756374696f6e2063616e6e6f7420626520706c617965642061742074686973\n                /* \"#utility.yul\":10397:10398   */\n              0x00\n                /* \"#utility.yul\":10389:10395   */\n              dup3\n                /* \"#utility.yul\":10385:10399   */\n              add\n                /* \"#utility.yul\":10378:10436   */\n              mstore\n                /* \"#utility.yul\":10470:10477   */\n              0x2074696d65000000000000000000000000000000000000000000000000000000\n                /* \"#utility.yul\":10465:10467   */\n              0x20\n                /* \"#utility.yul\":10457:10463   */\n              dup3\n                /* \"#utility.yul\":10453:10468   */\n              add\n                /* \"#utility.yul\":10446:10478   */\n              mstore\n                /* \"#utility.yul\":10261:10485   */\n              pop\n              jump\t// out\n                /* \"#utility.yul\":10491:10717   */\n            tag_193:\n                /* \"#utility.yul\":10631:10665   */\n              0x56616c75652073656e74206d7573742062652067726561746572207468616e20\n                /* \"#utility.yul\":10627:10628   */\n              0x00\n                /* \"#utility.yul\":10619:10625   */\n              dup3\n                /* \"#utility.yul\":10615:10629   */\n              add\n                /* \"#utility.yul\":10608:10666   */\n              mstore\n                /* \"#utility.yul\":10700:10709   */\n              0x3120657468657200000000000000000000000000000000000000000000000000\n                /* \"#utility.yul\":10695:10697   */\n              0x20\n                /* \"#utility.yul\":10687:10693   */\n              dup3\n                /* \"#utility.yul\":10683:10698   */\n              add\n                /* \"#utility.yul\":10676:10710   */\n              mstore\n                /* \"#utility.yul\":10491:10717   */\n              pop\n              jump\t// out\n                /* \"#utility.yul\":10723:10954   */\n            tag_198:\n                /* \"#utility.yul\":10863:10897   */\n              0x41756374696f6e207374617465206d7573742062652072756e6e696e6720746f\n                /* \"#utility.yul\":10859:10860   */\n              0x00\n                /* \"#utility.yul\":10851:10857   */\n              dup3\n                /* \"#utility.yul\":10847:10861   */\n              add\n                /* \"#utility.yul\":10840:10898   */\n              mstore\n                /* \"#utility.yul\":10932:10946   */\n              0x2061636365707420626964730000000000000000000000000000000000000000\n                /* \"#utility.yul\":10927:10929   */\n              0x20\n                /* \"#utility.yul\":10919:10925   */\n              dup3\n                /* \"#utility.yul\":10915:10930   */\n              add\n                /* \"#utility.yul\":10908:10947   */\n              mstore\n                /* \"#utility.yul\":10723:10954   */\n              pop\n              jump\t// out\n                /* \"#utility.yul\":10960:11073   */\n            tag_248:\n                /* \"#utility.yul\":11041:11042   */\n              0x04\n                /* \"#utility.yul\":11034:11039   */\n              dup2\n                /* \"#utility.yul\":11031:11043   */\n              lt\n                /* \"#utility.yul\":11021:11067   */\n              tag_276\n              jumpi\n                /* \"#utility.yul\":11047:11065   */\n              tag_277\n              tag_75\n              jump\t// in\n            tag_277:\n                /* \"#utility.yul\":11021:11067   */\n            tag_276:\n                /* \"#utility.yul\":10960:11073   */\n              pop\n              jump\t// out\n                /* \"#utility.yul\":11079:11201   */\n            tag_146:\n                /* \"#utility.yul\":11152:11176   */\n              tag_279\n                /* \"#utility.yul\":11170:11175   */\n              dup2\n                /* \"#utility.yul\":11152:11176   */\n              tag_238\n              jump\t// in\n            tag_279:\n                /* \"#utility.yul\":11145:11150   */\n              dup2\n                /* \"#utility.yul\":11142:11177   */\n              eq\n                /* \"#utility.yul\":11132:11195   */\n              tag_280\n              jumpi\n                /* \"#utility.yul\":11191:11192   */\n              0x00\n                /* \"#utility.yul\":11188:11189   */\n              dup1\n                /* \"#utility.yul\":11181:11193   */\n              revert\n                /* \"#utility.yul\":11132:11195   */\n            tag_280:\n                /* \"#utility.yul\":11079:11201   */\n              pop\n              jump\t// out\n\n            auxdata: 0xa264697066735822122009747af155898fd1b14ef0b2fe4e333816e7527ae14398ab7aa37f7a5da1b25e64736f6c63430008070033\n        }\n    }\n\n    auxdata: 0xa2646970667358221220bd6dea01c2d81eddfb3702f84b5d3d1a3b772f6ae5bc49a4d6ae6a76fc7aef5964736f6c63430008070033\n}\n",
				"bytecode": {
					"linkReferences": {},
					"object": "608060405234801561001057600080fd5b506118f2806100206000396000f3fe608060405234801561001057600080fd5b50600436106100365760003560e01c8063aff19ef21461003b578063f58114471461006b575b600080fd5b61005560048036038101906100509190610111565b610075565b6040516100629190610177565b60405180910390f35b6100736100b4565b005b6000818154811061008557600080fd5b906000526020600020016000915054906101000a900473ffffffffffffffffffffffffffffffffffffffff1681565b6000336040516100c3906100ef565b6100cd919061015c565b604051809103906000f0801580156100e9573d6000803e3d6000fd5b50905050565b61169c8061022183390190565b60008135905061010b81610209565b92915050565b60006020828403121561012757610126610204565b5b6000610135848285016100fc565b91505092915050565b61014781610192565b82525050565b610156816101ce565b82525050565b6000602082019050610171600083018461013e565b92915050565b600060208201905061018c600083018461014d565b92915050565b600061019d826101a4565b9050919050565b600073ffffffffffffffffffffffffffffffffffffffff82169050919050565b6000819050919050565b60006101d9826101e0565b9050919050565b60006101eb826101f2565b9050919050565b60006101fd826101a4565b9050919050565b600080fd5b610212816101c4565b811461021d57600080fd5b5056fe60806040526001600960006101000a81548160ff0219169083151502179055503480156200002c57600080fd5b506040516200169c3803806200169c8339818101604052810190620000529190620001dd565b80600160006101000a81548173ffffffffffffffffffffffffffffffffffffffff021916908373ffffffffffffffffffffffffffffffffffffffff16021790555060646004819055506001600760006101000a81548160ff02191690836003811115620000c457620000c36200030f565b5b02179055506040518060200160405280600081525060089080519060200190620000f092919062000116565b504360058190555060036005546200010991906200020f565b600681905550506200038c565b8280546200012490620002aa565b90600052602060002090601f01602090048101928262000148576000855562000194565b82601f106200016357805160ff191683800117855562000194565b8280016001018555821562000194579182015b828111156200019357825182559160200191906001019062000176565b5b509050620001a39190620001a7565b5090565b5b80821115620001c2576000816000905550600101620001a8565b5090565b600081519050620001d78162000372565b92915050565b600060208284031215620001f657620001f56200036d565b5b60006200020684828501620001c6565b91505092915050565b60006200021c82620002a0565b91506200022983620002a0565b9250827fffffffffffffffffffffffffffffffffffffffffffffffffffffffffffffffff03821115620002615762000260620002e0565b5b828201905092915050565b6000620002798262000280565b9050919050565b600073ffffffffffffffffffffffffffffffffffffffff82169050919050565b6000819050919050565b60006002820490506001821680620002c357607f821691505b60208210811415620002da57620002d96200033e565b5b50919050565b7f4e487b7100000000000000000000000000000000000000000000000000000000600052601160045260246000fd5b7f4e487b7100000000000000000000000000000000000000000000000000000000600052602160045260246000fd5b7f4e487b7100000000000000000000000000000000000000000000000000000000600052602260045260246000fd5b600080fd5b6200037d816200026c565b81146200038957600080fd5b50565b611300806200039c6000396000f3fe6080604052600436106100c25760003560e01c80638fa8b7901161007f578063b3cc167a11610059578063b3cc167a14610248578063c623674f14610273578063eb36a4791461029e578063f77282ab146102a8576100c2565b80638fa8b790146101db57806391c11f7d146101f257806391f901571461021d576100c2565b8063083c6323146100c757806344c5f61d146100f257806348cd4cb11461011d5780637fb45099146101485780638da5cb5b146101735780638ee775121461019e575b600080fd5b3480156100d357600080fd5b506100dc6102bf565b6040516100e99190610ef2565b60405180910390f35b3480156100fe57600080fd5b506101076102c5565b6040516101149190610dfa565b60405180910390f35b34801561012957600080fd5b506101326102d8565b60405161013f9190610ef2565b60405180910390f35b34801561015457600080fd5b5061015d6102de565b60405161016a9190610e15565b60405180910390f35b34801561017f57600080fd5b506101886102f1565b6040516101959190610ddf565b60405180910390f35b3480156101aa57600080fd5b506101c560048036038101906101c09190610c8e565b610317565b6040516101d29190610ef2565b60405180910390f35b3480156101e757600080fd5b506101f061032f565b005b3480156101fe57600080fd5b5061020761035c565b6040516102149190610ef2565b60405180910390f35b34801561022957600080fd5b50610232610362565b60405161023f9190610ddf565b60405180910390f35b34801561025457600080fd5b5061025d610388565b60405161026a9190610ef2565b60405180910390f35b34801561027f57600080fd5b5061028861038e565b6040516102959190610e30565b60405180910390f35b6102a661041c565b005b3480156102b457600080fd5b506102bd610842565b005b60065481565b600960009054906101000a900460ff1681565b60055481565b600760009054906101000a900460ff1681565b600160009054906101000a900473ffffffffffffffffffffffffffffffffffffffff1681565b60006020528060005260406000206000915090505481565b6003600760006101000a81548160ff02191690836003811115610355576103546110c6565b5b0217905550565b60035481565b600260009054906101000a900473ffffffffffffffffffffffffffffffffffffffff1681565b60045481565b6008805461039b90611065565b80601f01602080910402602001604051908101604052809291908181526020018280546103c790611065565b80156104145780601f106103e957610100808354040283529160200191610414565b820191906000526020600020905b8154815290600101906020018083116103f757829003601f168201915b505050505081565b600160009054906101000a900473ffffffffffffffffffffffffffffffffffffffff1673ffffffffffffffffffffffffffffffffffffffff163373ffffffffffffffffffffffffffffffffffffffff1614156104ad576040517f08c379a00000000000000000000000000000000000000000000000000000000081526004016104a490610e52565b60405180910390fd5b6005544310156104f2576040517f08c379a00000000000000000000000000000000000000000000000000000000081526004016104e990610e92565b60405180910390fd5b600654431115610537576040517f08c379a000000000000000000000000000000000000000000000000000000000815260040161052e90610e72565b60405180910390fd5b670de0b6b3a76400003411610581576040517f08c379a000000000000000000000000000000000000000000000000000000000815260040161057890610eb2565b60405180910390fd5b60016003811115610595576105946110c6565b5b600760009054906101000a900460ff1660038111156105b7576105b66110c6565b5b146105f7576040517f08c379a00000000000000000000000000000000000000000000000000000000081526004016105ee90610ed2565b60405180910390fd5b60008060003373ffffffffffffffffffffffffffffffffffffffff1673ffffffffffffffffffffffffffffffffffffffff16815260200190815260200160002054346106439190610f29565b9050600354811161065357600080fd5b806000803373ffffffffffffffffffffffffffffffffffffffff1673ffffffffffffffffffffffffffffffffffffffff16815260200190815260200160002081905550600080600260009054906101000a900473ffffffffffffffffffffffffffffffffffffffff1673ffffffffffffffffffffffffffffffffffffffff1673ffffffffffffffffffffffffffffffffffffffff16815260200190815260200160002054811015610780576107756004548261070f9190610f29565b600080600260009054906101000a900473ffffffffffffffffffffffffffffffffffffffff1673ffffffffffffffffffffffffffffffffffffffff1673ffffffffffffffffffffffffffffffffffffffff16815260200190815260200160002054610c5e565b60038190555061083f565b6107f781600454600080600260009054906101000a900473ffffffffffffffffffffffffffffffffffffffff1673ffffffffffffffffffffffffffffffffffffffff1673ffffffffffffffffffffffffffffffffffffffff168152602001908152602001600020546107f29190610f29565b610c5e565b60038190555033600260006101000a81548173ffffffffffffffffffffffffffffffffffffffff021916908373ffffffffffffffffffffffffffffffffffffffff1602179055505b50565b600760009054906101000a900460ff166003811115610864576108636110c6565b5b600380811115610877576108766110c6565b5b1480610884575060065443115b61088d57600080fd5b60008060003373ffffffffffffffffffffffffffffffffffffffff1673ffffffffffffffffffffffffffffffffffffffff1681526020019081526020016000205411806109275750600160009054906101000a900473ffffffffffffffffffffffffffffffffffffffff1673ffffffffffffffffffffffffffffffffffffffff163373ffffffffffffffffffffffffffffffffffffffff16145b61093057600080fd5b600080600380811115610946576109456110c6565b5b600760009054906101000a900460ff166003811115610968576109676110c6565b5b14156109d957339050600080600260009054906101000a900473ffffffffffffffffffffffffffffffffffffffff1673ffffffffffffffffffffffffffffffffffffffff1673ffffffffffffffffffffffffffffffffffffffff168152602001908152602001600020549150610bcf565b600160009054906101000a900473ffffffffffffffffffffffffffffffffffffffff1673ffffffffffffffffffffffffffffffffffffffff163373ffffffffffffffffffffffffffffffffffffffff16148015610a49575060011515600960009054906101000a900460ff161515145b15610a9857600160009054906101000a900473ffffffffffffffffffffffffffffffffffffffff16905060035491506000600960006101000a81548160ff021916908315150217905550610bce565b600260009054906101000a900473ffffffffffffffffffffffffffffffffffffffff1673ffffffffffffffffffffffffffffffffffffffff163373ffffffffffffffffffffffffffffffffffffffff161415610b8857600260009054906101000a900473ffffffffffffffffffffffffffffffffffffffff169050600354600080600260009054906101000a900473ffffffffffffffffffffffffffffffffffffffff1673ffffffffffffffffffffffffffffffffffffffff1673ffffffffffffffffffffffffffffffffffffffff16815260200190815260200160002054610b819190610f7f565b9150610bcd565b3390506000803373ffffffffffffffffffffffffffffffffffffffff1673ffffffffffffffffffffffffffffffffffffffff1681526020019081526020016000205491505b5b5b60008060008373ffffffffffffffffffffffffffffffffffffffff1673ffffffffffffffffffffffffffffffffffffffff168152602001908152602001600020819055508073ffffffffffffffffffffffffffffffffffffffff166108fc839081150290604051600060405180830381858888f19350505050158015610c59573d6000803e3d6000fd5b505050565b6000818311610c6f57829050610c73565b8190505b92915050565b600081359050610c88816112b3565b92915050565b600060208284031215610ca457610ca3611124565b5b6000610cb284828501610c79565b91505092915050565b610cc481610fc5565b82525050565b610cd381610fd7565b82525050565b610ce281611020565b82525050565b6000610cf382610f0d565b610cfd8185610f18565b9350610d0d818560208601611032565b610d1681611129565b840191505092915050565b6000610d2e602683610f18565b9150610d398261113a565b604082019050919050565b6000610d51601883610f18565b9150610d5c82611189565b602082019050919050565b6000610d74602583610f18565b9150610d7f826111b2565b604082019050919050565b6000610d97602783610f18565b9150610da282611201565b604082019050919050565b6000610dba602c83610f18565b9150610dc582611250565b604082019050919050565b610dd981611016565b82525050565b6000602082019050610df46000830184610cbb565b92915050565b6000602082019050610e0f6000830184610cca565b92915050565b6000602082019050610e2a6000830184610cd9565b92915050565b60006020820190508181036000830152610e4a8184610ce8565b905092915050565b60006020820190508181036000830152610e6b81610d21565b9050919050565b60006020820190508181036000830152610e8b81610d44565b9050919050565b60006020820190508181036000830152610eab81610d67565b9050919050565b60006020820190508181036000830152610ecb81610d8a565b9050919050565b60006020820190508181036000830152610eeb81610dad565b9050919050565b6000602082019050610f076000830184610dd0565b92915050565b600081519050919050565b600082825260208201905092915050565b6000610f3482611016565b9150610f3f83611016565b9250827fffffffffffffffffffffffffffffffffffffffffffffffffffffffffffffffff03821115610f7457610f73611097565b5b828201905092915050565b6000610f8a82611016565b9150610f9583611016565b925082821015610fa857610fa7611097565b5b828203905092915050565b6000610fbe82610ff6565b9050919050565b6000610fd082610ff6565b9050919050565b60008115159050919050565b6000819050610ff18261129f565b919050565b600073ffffffffffffffffffffffffffffffffffffffff82169050919050565b6000819050919050565b600061102b82610fe3565b9050919050565b60005b83811015611050578082015181840152602081019050611035565b8381111561105f576000848401525b50505050565b6000600282049050600182168061107d57607f821691505b60208210811415611091576110906110f5565b5b50919050565b7f4e487b7100000000000000000000000000000000000000000000000000000000600052601160045260246000fd5b7f4e487b7100000000000000000000000000000000000000000000000000000000600052602160045260246000fd5b7f4e487b7100000000000000000000000000000000000000000000000000000000600052602260045260246000fd5b600080fd5b6000601f19601f8301169050919050565b7f426964732063616e206f6e6c7920626520706c61636564206279206e6f6e652060008201527f6f776e6572730000000000000000000000000000000000000000000000000000602082015250565b7f41756374696f6e2074696d652068617320656c61737065640000000000000000600082015250565b7f41756374696f6e2063616e6e6f7420626520706c61796564206174207468697360008201527f2074696d65000000000000000000000000000000000000000000000000000000602082015250565b7f56616c75652073656e74206d7573742062652067726561746572207468616e2060008201527f3120657468657200000000000000000000000000000000000000000000000000602082015250565b7f41756374696f6e207374617465206d7573742062652072756e6e696e6720746f60008201527f2061636365707420626964730000000000000000000000000000000000000000602082015250565b600481106112b0576112af6110c6565b5b50565b6112bc81610fb3565b81146112c757600080fd5b5056fea264697066735822122009747af155898fd1b14ef0b2fe4e333816e7527ae14398ab7aa37f7a5da1b25e64736f6c63430008070033a2646970667358221220bd6dea01c2d81eddfb3702f84b5d3d1a3b772f6ae5bc49a4d6ae6a76fc7aef5964736f6c63430008070033",
					"opcodes": "PUSH1 0x80 PUSH1 0x40 MSTORE CALLVALUE DUP1 ISZERO PUSH2 0x10 JUMPI PUSH1 0x0 DUP1 REVERT JUMPDEST POP PUSH2 0x18F2 DUP1 PUSH2 0x20 PUSH1 0x0 CODECOPY PUSH1 0x0 RETURN INVALID PUSH1 0x80 PUSH1 0x40 MSTORE CALLVALUE DUP1 ISZERO PUSH2 0x10 JUMPI PUSH1 0x0 DUP1 REVERT JUMPDEST POP PUSH1 0x4 CALLDATASIZE LT PUSH2 0x36 JUMPI PUSH1 0x0 CALLDATALOAD PUSH1 0xE0 SHR DUP1 PUSH4 0xAFF19EF2 EQ PUSH2 0x3B JUMPI DUP1 PUSH4 0xF5811447 EQ PUSH2 0x6B JUMPI JUMPDEST PUSH1 0x0 DUP1 REVERT JUMPDEST PUSH2 0x55 PUSH1 0x4 DUP1 CALLDATASIZE SUB DUP2 ADD SWAP1 PUSH2 0x50 SWAP2 SWAP1 PUSH2 0x111 JUMP JUMPDEST PUSH2 0x75 JUMP JUMPDEST PUSH1 0x40 MLOAD PUSH2 0x62 SWAP2 SWAP1 PUSH2 0x177 JUMP JUMPDEST PUSH1 0x40 MLOAD DUP1 SWAP2 SUB SWAP1 RETURN JUMPDEST PUSH2 0x73 PUSH2 0xB4 JUMP JUMPDEST STOP JUMPDEST PUSH1 0x0 DUP2 DUP2 SLOAD DUP2 LT PUSH2 0x85 JUMPI PUSH1 0x0 DUP1 REVERT JUMPDEST SWAP1 PUSH1 0x0 MSTORE PUSH1 0x20 PUSH1 0x0 KECCAK256 ADD PUSH1 0x0 SWAP2 POP SLOAD SWAP1 PUSH2 0x100 EXP SWAP1 DIV PUSH20 0xFFFFFFFFFFFFFFFFFFFFFFFFFFFFFFFFFFFFFFFF AND DUP2 JUMP JUMPDEST PUSH1 0x0 CALLER PUSH1 0x40 MLOAD PUSH2 0xC3 SWAP1 PUSH2 0xEF JUMP JUMPDEST PUSH2 0xCD SWAP2 SWAP1 PUSH2 0x15C JUMP JUMPDEST PUSH1 0x40 MLOAD DUP1 SWAP2 SUB SWAP1 PUSH1 0x0 CREATE DUP1 ISZERO DUP1 ISZERO PUSH2 0xE9 JUMPI RETURNDATASIZE PUSH1 0x0 DUP1 RETURNDATACOPY RETURNDATASIZE PUSH1 0x0 REVERT JUMPDEST POP SWAP1 POP POP JUMP JUMPDEST PUSH2 0x169C DUP1 PUSH2 0x221 DUP4 CODECOPY ADD SWAP1 JUMP JUMPDEST PUSH1 0x0 DUP2 CALLDATALOAD SWAP1 POP PUSH2 0x10B DUP2 PUSH2 0x209 JUMP JUMPDEST SWAP3 SWAP2 POP POP JUMP JUMPDEST PUSH1 0x0 PUSH1 0x20 DUP3 DUP5 SUB SLT ISZERO PUSH2 0x127 JUMPI PUSH2 0x126 PUSH2 0x204 JUMP JUMPDEST JUMPDEST PUSH1 0x0 PUSH2 0x135 DUP5 DUP3 DUP6 ADD PUSH2 0xFC JUMP JUMPDEST SWAP2 POP POP SWAP3 SWAP2 POP POP JUMP JUMPDEST PUSH2 0x147 DUP2 PUSH2 0x192 JUMP JUMPDEST DUP3 MSTORE POP POP JUMP JUMPDEST PUSH2 0x156 DUP2 PUSH2 0x1CE JUMP JUMPDEST DUP3 MSTORE POP POP JUMP JUMPDEST PUSH1 0x0 PUSH1 0x20 DUP3 ADD SWAP1 POP PUSH2 0x171 PUSH1 0x0 DUP4 ADD DUP5 PUSH2 0x13E JUMP JUMPDEST SWAP3 SWAP2 POP POP JUMP JUMPDEST PUSH1 0x0 PUSH1 0x20 DUP3 ADD SWAP1 POP PUSH2 0x18C PUSH1 0x0 DUP4 ADD DUP5 PUSH2 0x14D JUMP JUMPDEST SWAP3 SWAP2 POP POP JUMP JUMPDEST PUSH1 0x0 PUSH2 0x19D DUP3 PUSH2 0x1A4 JUMP JUMPDEST SWAP1 POP SWAP2 SWAP1 POP JUMP JUMPDEST PUSH1 0x0 PUSH20 0xFFFFFFFFFFFFFFFFFFFFFFFFFFFFFFFFFFFFFFFF DUP3 AND SWAP1 POP SWAP2 SWAP1 POP JUMP JUMPDEST PUSH1 0x0 DUP2 SWAP1 POP SWAP2 SWAP1 POP JUMP JUMPDEST PUSH1 0x0 PUSH2 0x1D9 DUP3 PUSH2 0x1E0 JUMP JUMPDEST SWAP1 POP SWAP2 SWAP1 POP JUMP JUMPDEST PUSH1 0x0 PUSH2 0x1EB DUP3 PUSH2 0x1F2 JUMP JUMPDEST SWAP1 POP SWAP2 SWAP1 POP JUMP JUMPDEST PUSH1 0x0 PUSH2 0x1FD DUP3 PUSH2 0x1A4 JUMP JUMPDEST SWAP1 POP SWAP2 SWAP1 POP JUMP JUMPDEST PUSH1 0x0 DUP1 REVERT JUMPDEST PUSH2 0x212 DUP2 PUSH2 0x1C4 JUMP JUMPDEST DUP2 EQ PUSH2 0x21D JUMPI PUSH1 0x0 DUP1 REVERT JUMPDEST POP JUMP INVALID PUSH1 0x80 PUSH1 0x40 MSTORE PUSH1 0x1 PUSH1 0x9 PUSH1 0x0 PUSH2 0x100 EXP DUP2 SLOAD DUP2 PUSH1 0xFF MUL NOT AND SWAP1 DUP4 ISZERO ISZERO MUL OR SWAP1 SSTORE POP CALLVALUE DUP1 ISZERO PUSH3 0x2C JUMPI PUSH1 0x0 DUP1 REVERT JUMPDEST POP PUSH1 0x40 MLOAD PUSH3 0x169C CODESIZE SUB DUP1 PUSH3 0x169C DUP4 CODECOPY DUP2 DUP2 ADD PUSH1 0x40 MSTORE DUP2 ADD SWAP1 PUSH3 0x52 SWAP2 SWAP1 PUSH3 0x1DD JUMP JUMPDEST DUP1 PUSH1 0x1 PUSH1 0x0 PUSH2 0x100 EXP DUP2 SLOAD DUP2 PUSH20 0xFFFFFFFFFFFFFFFFFFFFFFFFFFFFFFFFFFFFFFFF MUL NOT AND SWAP1 DUP4 PUSH20 0xFFFFFFFFFFFFFFFFFFFFFFFFFFFFFFFFFFFFFFFF AND MUL OR SWAP1 SSTORE POP PUSH1 0x64 PUSH1 0x4 DUP2 SWAP1 SSTORE POP PUSH1 0x1 PUSH1 0x7 PUSH1 0x0 PUSH2 0x100 EXP DUP2 SLOAD DUP2 PUSH1 0xFF MUL NOT AND SWAP1 DUP4 PUSH1 0x3 DUP2 GT ISZERO PUSH3 0xC4 JUMPI PUSH3 0xC3 PUSH3 0x30F JUMP JUMPDEST JUMPDEST MUL OR SWAP1 SSTORE POP PUSH1 0x40 MLOAD DUP1 PUSH1 0x20 ADD PUSH1 0x40 MSTORE DUP1 PUSH1 0x0 DUP2 MSTORE POP PUSH1 0x8 SWAP1 DUP1 MLOAD SWAP1 PUSH1 0x20 ADD SWAP1 PUSH3 0xF0 SWAP3 SWAP2 SWAP1 PUSH3 0x116 JUMP JUMPDEST POP NUMBER PUSH1 0x5 DUP2 SWAP1 SSTORE POP PUSH1 0x3 PUSH1 0x5 SLOAD PUSH3 0x109 SWAP2 SWAP1 PUSH3 0x20F JUMP JUMPDEST PUSH1 0x6 DUP2 SWAP1 SSTORE POP POP PUSH3 0x38C JUMP JUMPDEST DUP3 DUP1 SLOAD PUSH3 0x124 SWAP1 PUSH3 0x2AA JUMP JUMPDEST SWAP1 PUSH1 0x0 MSTORE PUSH1 0x20 PUSH1 0x0 KECCAK256 SWAP1 PUSH1 0x1F ADD PUSH1 0x20 SWAP1 DIV DUP2 ADD SWAP3 DUP3 PUSH3 0x148 JUMPI PUSH1 0x0 DUP6 SSTORE PUSH3 0x194 JUMP JUMPDEST DUP3 PUSH1 0x1F LT PUSH3 0x163 JUMPI DUP1 MLOAD PUSH1 0xFF NOT AND DUP4 DUP1 ADD OR DUP6 SSTORE PUSH3 0x194 JUMP JUMPDEST DUP3 DUP1 ADD PUSH1 0x1 ADD DUP6 SSTORE DUP3 ISZERO PUSH3 0x194 JUMPI SWAP2 DUP3 ADD JUMPDEST DUP3 DUP2 GT ISZERO PUSH3 0x193 JUMPI DUP3 MLOAD DUP3 SSTORE SWAP2 PUSH1 0x20 ADD SWAP2 SWAP1 PUSH1 0x1 ADD SWAP1 PUSH3 0x176 JUMP JUMPDEST JUMPDEST POP SWAP1 POP PUSH3 0x1A3 SWAP2 SWAP1 PUSH3 0x1A7 JUMP JUMPDEST POP SWAP1 JUMP JUMPDEST JUMPDEST DUP1 DUP3 GT ISZERO PUSH3 0x1C2 JUMPI PUSH1 0x0 DUP2 PUSH1 0x0 SWAP1 SSTORE POP PUSH1 0x1 ADD PUSH3 0x1A8 JUMP JUMPDEST POP SWAP1 JUMP JUMPDEST PUSH1 0x0 DUP2 MLOAD SWAP1 POP PUSH3 0x1D7 DUP2 PUSH3 0x372 JUMP JUMPDEST SWAP3 SWAP2 POP POP JUMP JUMPDEST PUSH1 0x0 PUSH1 0x20 DUP3 DUP5 SUB SLT ISZERO PUSH3 0x1F6 JUMPI PUSH3 0x1F5 PUSH3 0x36D JUMP JUMPDEST JUMPDEST PUSH1 0x0 PUSH3 0x206 DUP5 DUP3 DUP6 ADD PUSH3 0x1C6 JUMP JUMPDEST SWAP2 POP POP SWAP3 SWAP2 POP POP JUMP JUMPDEST PUSH1 0x0 PUSH3 0x21C DUP3 PUSH3 0x2A0 JUMP JUMPDEST SWAP2 POP PUSH3 0x229 DUP4 PUSH3 0x2A0 JUMP JUMPDEST SWAP3 POP DUP3 PUSH32 0xFFFFFFFFFFFFFFFFFFFFFFFFFFFFFFFFFFFFFFFFFFFFFFFFFFFFFFFFFFFFFFFF SUB DUP3 GT ISZERO PUSH3 0x261 JUMPI PUSH3 0x260 PUSH3 0x2E0 JUMP JUMPDEST JUMPDEST DUP3 DUP3 ADD SWAP1 POP SWAP3 SWAP2 POP POP JUMP JUMPDEST PUSH1 0x0 PUSH3 0x279 DUP3 PUSH3 0x280 JUMP JUMPDEST SWAP1 POP SWAP2 SWAP1 POP JUMP JUMPDEST PUSH1 0x0 PUSH20 0xFFFFFFFFFFFFFFFFFFFFFFFFFFFFFFFFFFFFFFFF DUP3 AND SWAP1 POP SWAP2 SWAP1 POP JUMP JUMPDEST PUSH1 0x0 DUP2 SWAP1 POP SWAP2 SWAP1 POP JUMP JUMPDEST PUSH1 0x0 PUSH1 0x2 DUP3 DIV SWAP1 POP PUSH1 0x1 DUP3 AND DUP1 PUSH3 0x2C3 JUMPI PUSH1 0x7F DUP3 AND SWAP2 POP JUMPDEST PUSH1 0x20 DUP3 LT DUP2 EQ ISZERO PUSH3 0x2DA JUMPI PUSH3 0x2D9 PUSH3 0x33E JUMP JUMPDEST JUMPDEST POP SWAP2 SWAP1 POP JUMP JUMPDEST PUSH32 0x4E487B7100000000000000000000000000000000000000000000000000000000 PUSH1 0x0 MSTORE PUSH1 0x11 PUSH1 0x4 MSTORE PUSH1 0x24 PUSH1 0x0 REVERT JUMPDEST PUSH32 0x4E487B7100000000000000000000000000000000000000000000000000000000 PUSH1 0x0 MSTORE PUSH1 0x21 PUSH1 0x4 MSTORE PUSH1 0x24 PUSH1 0x0 REVERT JUMPDEST PUSH32 0x4E487B7100000000000000000000000000000000000000000000000000000000 PUSH1 0x0 MSTORE PUSH1 0x22 PUSH1 0x4 MSTORE PUSH1 0x24 PUSH1 0x0 REVERT JUMPDEST PUSH1 0x0 DUP1 REVERT JUMPDEST PUSH3 0x37D DUP2 PUSH3 0x26C JUMP JUMPDEST DUP2 EQ PUSH3 0x389 JUMPI PUSH1 0x0 DUP1 REVERT JUMPDEST POP JUMP JUMPDEST PUSH2 0x1300 DUP1 PUSH3 0x39C PUSH1 0x0 CODECOPY PUSH1 0x0 RETURN INVALID PUSH1 0x80 PUSH1 0x40 MSTORE PUSH1 0x4 CALLDATASIZE LT PUSH2 0xC2 JUMPI PUSH1 0x0 CALLDATALOAD PUSH1 0xE0 SHR DUP1 PUSH4 0x8FA8B790 GT PUSH2 0x7F JUMPI DUP1 PUSH4 0xB3CC167A GT PUSH2 0x59 JUMPI DUP1 PUSH4 0xB3CC167A EQ PUSH2 0x248 JUMPI DUP1 PUSH4 0xC623674F EQ PUSH2 0x273 JUMPI DUP1 PUSH4 0xEB36A479 EQ PUSH2 0x29E JUMPI DUP1 PUSH4 0xF77282AB EQ PUSH2 0x2A8 JUMPI PUSH2 0xC2 JUMP JUMPDEST DUP1 PUSH4 0x8FA8B790 EQ PUSH2 0x1DB JUMPI DUP1 PUSH4 0x91C11F7D EQ PUSH2 0x1F2 JUMPI DUP1 PUSH4 0x91F90157 EQ PUSH2 0x21D JUMPI PUSH2 0xC2 JUMP JUMPDEST DUP1 PUSH4 0x83C6323 EQ PUSH2 0xC7 JUMPI DUP1 PUSH4 0x44C5F61D EQ PUSH2 0xF2 JUMPI DUP1 PUSH4 0x48CD4CB1 EQ PUSH2 0x11D JUMPI DUP1 PUSH4 0x7FB45099 EQ PUSH2 0x148 JUMPI DUP1 PUSH4 0x8DA5CB5B EQ PUSH2 0x173 JUMPI DUP1 PUSH4 0x8EE77512 EQ PUSH2 0x19E JUMPI JUMPDEST PUSH1 0x0 DUP1 REVERT JUMPDEST CALLVALUE DUP1 ISZERO PUSH2 0xD3 JUMPI PUSH1 0x0 DUP1 REVERT JUMPDEST POP PUSH2 0xDC PUSH2 0x2BF JUMP JUMPDEST PUSH1 0x40 MLOAD PUSH2 0xE9 SWAP2 SWAP1 PUSH2 0xEF2 JUMP JUMPDEST PUSH1 0x40 MLOAD DUP1 SWAP2 SUB SWAP1 RETURN JUMPDEST CALLVALUE DUP1 ISZERO PUSH2 0xFE JUMPI PUSH1 0x0 DUP1 REVERT JUMPDEST POP PUSH2 0x107 PUSH2 0x2C5 JUMP JUMPDEST PUSH1 0x40 MLOAD PUSH2 0x114 SWAP2 SWAP1 PUSH2 0xDFA JUMP JUMPDEST PUSH1 0x40 MLOAD DUP1 SWAP2 SUB SWAP1 RETURN JUMPDEST CALLVALUE DUP1 ISZERO PUSH2 0x129 JUMPI PUSH1 0x0 DUP1 REVERT JUMPDEST POP PUSH2 0x132 PUSH2 0x2D8 JUMP JUMPDEST PUSH1 0x40 MLOAD PUSH2 0x13F SWAP2 SWAP1 PUSH2 0xEF2 JUMP JUMPDEST PUSH1 0x40 MLOAD DUP1 SWAP2 SUB SWAP1 RETURN JUMPDEST CALLVALUE DUP1 ISZERO PUSH2 0x154 JUMPI PUSH1 0x0 DUP1 REVERT JUMPDEST POP PUSH2 0x15D PUSH2 0x2DE JUMP JUMPDEST PUSH1 0x40 MLOAD PUSH2 0x16A SWAP2 SWAP1 PUSH2 0xE15 JUMP JUMPDEST PUSH1 0x40 MLOAD DUP1 SWAP2 SUB SWAP1 RETURN JUMPDEST CALLVALUE DUP1 ISZERO PUSH2 0x17F JUMPI PUSH1 0x0 DUP1 REVERT JUMPDEST POP PUSH2 0x188 PUSH2 0x2F1 JUMP JUMPDEST PUSH1 0x40 MLOAD PUSH2 0x195 SWAP2 SWAP1 PUSH2 0xDDF JUMP JUMPDEST PUSH1 0x40 MLOAD DUP1 SWAP2 SUB SWAP1 RETURN JUMPDEST CALLVALUE DUP1 ISZERO PUSH2 0x1AA JUMPI PUSH1 0x0 DUP1 REVERT JUMPDEST POP PUSH2 0x1C5 PUSH1 0x4 DUP1 CALLDATASIZE SUB DUP2 ADD SWAP1 PUSH2 0x1C0 SWAP2 SWAP1 PUSH2 0xC8E JUMP JUMPDEST PUSH2 0x317 JUMP JUMPDEST PUSH1 0x40 MLOAD PUSH2 0x1D2 SWAP2 SWAP1 PUSH2 0xEF2 JUMP JUMPDEST PUSH1 0x40 MLOAD DUP1 SWAP2 SUB SWAP1 RETURN JUMPDEST CALLVALUE DUP1 ISZERO PUSH2 0x1E7 JUMPI PUSH1 0x0 DUP1 REVERT JUMPDEST POP PUSH2 0x1F0 PUSH2 0x32F JUMP JUMPDEST STOP JUMPDEST CALLVALUE DUP1 ISZERO PUSH2 0x1FE JUMPI PUSH1 0x0 DUP1 REVERT JUMPDEST POP PUSH2 0x207 PUSH2 0x35C JUMP JUMPDEST PUSH1 0x40 MLOAD PUSH2 0x214 SWAP2 SWAP1 PUSH2 0xEF2 JUMP JUMPDEST PUSH1 0x40 MLOAD DUP1 SWAP2 SUB SWAP1 RETURN JUMPDEST CALLVALUE DUP1 ISZERO PUSH2 0x229 JUMPI PUSH1 0x0 DUP1 REVERT JUMPDEST POP PUSH2 0x232 PUSH2 0x362 JUMP JUMPDEST PUSH1 0x40 MLOAD PUSH2 0x23F SWAP2 SWAP1 PUSH2 0xDDF JUMP JUMPDEST PUSH1 0x40 MLOAD DUP1 SWAP2 SUB SWAP1 RETURN JUMPDEST CALLVALUE DUP1 ISZERO PUSH2 0x254 JUMPI PUSH1 0x0 DUP1 REVERT JUMPDEST POP PUSH2 0x25D PUSH2 0x388 JUMP JUMPDEST PUSH1 0x40 MLOAD PUSH2 0x26A SWAP2 SWAP1 PUSH2 0xEF2 JUMP JUMPDEST PUSH1 0x40 MLOAD DUP1 SWAP2 SUB SWAP1 RETURN JUMPDEST CALLVALUE DUP1 ISZERO PUSH2 0x27F JUMPI PUSH1 0x0 DUP1 REVERT JUMPDEST POP PUSH2 0x288 PUSH2 0x38E JUMP JUMPDEST PUSH1 0x40 MLOAD PUSH2 0x295 SWAP2 SWAP1 PUSH2 0xE30 JUMP JUMPDEST PUSH1 0x40 MLOAD DUP1 SWAP2 SUB SWAP1 RETURN JUMPDEST PUSH2 0x2A6 PUSH2 0x41C JUMP JUMPDEST STOP JUMPDEST CALLVALUE DUP1 ISZERO PUSH2 0x2B4 JUMPI PUSH1 0x0 DUP1 REVERT JUMPDEST POP PUSH2 0x2BD PUSH2 0x842 JUMP JUMPDEST STOP JUMPDEST PUSH1 0x6 SLOAD DUP2 JUMP JUMPDEST PUSH1 0x9 PUSH1 0x0 SWAP1 SLOAD SWAP1 PUSH2 0x100 EXP SWAP1 DIV PUSH1 0xFF AND DUP2 JUMP JUMPDEST PUSH1 0x5 SLOAD DUP2 JUMP JUMPDEST PUSH1 0x7 PUSH1 0x0 SWAP1 SLOAD SWAP1 PUSH2 0x100 EXP SWAP1 DIV PUSH1 0xFF AND DUP2 JUMP JUMPDEST PUSH1 0x1 PUSH1 0x0 SWAP1 SLOAD SWAP1 PUSH2 0x100 EXP SWAP1 DIV PUSH20 0xFFFFFFFFFFFFFFFFFFFFFFFFFFFFFFFFFFFFFFFF AND DUP2 JUMP JUMPDEST PUSH1 0x0 PUSH1 0x20 MSTORE DUP1 PUSH1 0x0 MSTORE PUSH1 0x40 PUSH1 0x0 KECCAK256 PUSH1 0x0 SWAP2 POP SWAP1 POP SLOAD DUP2 JUMP JUMPDEST PUSH1 0x3 PUSH1 0x7 PUSH1 0x0 PUSH2 0x100 EXP DUP2 SLOAD DUP2 PUSH1 0xFF MUL NOT AND SWAP1 DUP4 PUSH1 0x3 DUP2 GT ISZERO PUSH2 0x355 JUMPI PUSH2 0x354 PUSH2 0x10C6 JUMP JUMPDEST JUMPDEST MUL OR SWAP1 SSTORE POP JUMP JUMPDEST PUSH1 0x3 SLOAD DUP2 JUMP JUMPDEST PUSH1 0x2 PUSH1 0x0 SWAP1 SLOAD SWAP1 PUSH2 0x100 EXP SWAP1 DIV PUSH20 0xFFFFFFFFFFFFFFFFFFFFFFFFFFFFFFFFFFFFFFFF AND DUP2 JUMP JUMPDEST PUSH1 0x4 SLOAD DUP2 JUMP JUMPDEST PUSH1 0x8 DUP1 SLOAD PUSH2 0x39B SWAP1 PUSH2 0x1065 JUMP JUMPDEST DUP1 PUSH1 0x1F ADD PUSH1 0x20 DUP1 SWAP2 DIV MUL PUSH1 0x20 ADD PUSH1 0x40 MLOAD SWAP1 DUP2 ADD PUSH1 0x40 MSTORE DUP1 SWAP3 SWAP2 SWAP1 DUP2 DUP2 MSTORE PUSH1 0x20 ADD DUP3 DUP1 SLOAD PUSH2 0x3C7 SWAP1 PUSH2 0x1065 JUMP JUMPDEST DUP1 ISZERO PUSH2 0x414 JUMPI DUP1 PUSH1 0x1F LT PUSH2 0x3E9 JUMPI PUSH2 0x100 DUP1 DUP4 SLOAD DIV MUL DUP4 MSTORE SWAP2 PUSH1 0x20 ADD SWAP2 PUSH2 0x414 JUMP JUMPDEST DUP3 ADD SWAP2 SWAP1 PUSH1 0x0 MSTORE PUSH1 0x20 PUSH1 0x0 KECCAK256 SWAP1 JUMPDEST DUP2 SLOAD DUP2 MSTORE SWAP1 PUSH1 0x1 ADD SWAP1 PUSH1 0x20 ADD DUP1 DUP4 GT PUSH2 0x3F7 JUMPI DUP3 SWAP1 SUB PUSH1 0x1F AND DUP3 ADD SWAP2 JUMPDEST POP POP POP POP POP DUP2 JUMP JUMPDEST PUSH1 0x1 PUSH1 0x0 SWAP1 SLOAD SWAP1 PUSH2 0x100 EXP SWAP1 DIV PUSH20 0xFFFFFFFFFFFFFFFFFFFFFFFFFFFFFFFFFFFFFFFF AND PUSH20 0xFFFFFFFFFFFFFFFFFFFFFFFFFFFFFFFFFFFFFFFF AND CALLER PUSH20 0xFFFFFFFFFFFFFFFFFFFFFFFFFFFFFFFFFFFFFFFF AND EQ ISZERO PUSH2 0x4AD JUMPI PUSH1 0x40 MLOAD PUSH32 0x8C379A000000000000000000000000000000000000000000000000000000000 DUP2 MSTORE PUSH1 0x4 ADD PUSH2 0x4A4 SWAP1 PUSH2 0xE52 JUMP JUMPDEST PUSH1 0x40 MLOAD DUP1 SWAP2 SUB SWAP1 REVERT JUMPDEST PUSH1 0x5 SLOAD NUMBER LT ISZERO PUSH2 0x4F2 JUMPI PUSH1 0x40 MLOAD PUSH32 0x8C379A000000000000000000000000000000000000000000000000000000000 DUP2 MSTORE PUSH1 0x4 ADD PUSH2 0x4E9 SWAP1 PUSH2 0xE92 JUMP JUMPDEST PUSH1 0x40 MLOAD DUP1 SWAP2 SUB SWAP1 REVERT JUMPDEST PUSH1 0x6 SLOAD NUMBER GT ISZERO PUSH2 0x537 JUMPI PUSH1 0x40 MLOAD PUSH32 0x8C379A000000000000000000000000000000000000000000000000000000000 DUP2 MSTORE PUSH1 0x4 ADD PUSH2 0x52E SWAP1 PUSH2 0xE72 JUMP JUMPDEST PUSH1 0x40 MLOAD DUP1 SWAP2 SUB SWAP1 REVERT JUMPDEST PUSH8 0xDE0B6B3A7640000 CALLVALUE GT PUSH2 0x581 JUMPI PUSH1 0x40 MLOAD PUSH32 0x8C379A000000000000000000000000000000000000000000000000000000000 DUP2 MSTORE PUSH1 0x4 ADD PUSH2 0x578 SWAP1 PUSH2 0xEB2 JUMP JUMPDEST PUSH1 0x40 MLOAD DUP1 SWAP2 SUB SWAP1 REVERT JUMPDEST PUSH1 0x1 PUSH1 0x3 DUP2 GT ISZERO PUSH2 0x595 JUMPI PUSH2 0x594 PUSH2 0x10C6 JUMP JUMPDEST JUMPDEST PUSH1 0x7 PUSH1 0x0 SWAP1 SLOAD SWAP1 PUSH2 0x100 EXP SWAP1 DIV PUSH1 0xFF AND PUSH1 0x3 DUP2 GT ISZERO PUSH2 0x5B7 JUMPI PUSH2 0x5B6 PUSH2 0x10C6 JUMP JUMPDEST JUMPDEST EQ PUSH2 0x5F7 JUMPI PUSH1 0x40 MLOAD PUSH32 0x8C379A000000000000000000000000000000000000000000000000000000000 DUP2 MSTORE PUSH1 0x4 ADD PUSH2 0x5EE SWAP1 PUSH2 0xED2 JUMP JUMPDEST PUSH1 0x40 MLOAD DUP1 SWAP2 SUB SWAP1 REVERT JUMPDEST PUSH1 0x0 DUP1 PUSH1 0x0 CALLER PUSH20 0xFFFFFFFFFFFFFFFFFFFFFFFFFFFFFFFFFFFFFFFF AND PUSH20 0xFFFFFFFFFFFFFFFFFFFFFFFFFFFFFFFFFFFFFFFF AND DUP2 MSTORE PUSH1 0x20 ADD SWAP1 DUP2 MSTORE PUSH1 0x20 ADD PUSH1 0x0 KECCAK256 SLOAD CALLVALUE PUSH2 0x643 SWAP2 SWAP1 PUSH2 0xF29 JUMP JUMPDEST SWAP1 POP PUSH1 0x3 SLOAD DUP2 GT PUSH2 0x653 JUMPI PUSH1 0x0 DUP1 REVERT JUMPDEST DUP1 PUSH1 0x0 DUP1 CALLER PUSH20 0xFFFFFFFFFFFFFFFFFFFFFFFFFFFFFFFFFFFFFFFF AND PUSH20 0xFFFFFFFFFFFFFFFFFFFFFFFFFFFFFFFFFFFFFFFF AND DUP2 MSTORE PUSH1 0x20 ADD SWAP1 DUP2 MSTORE PUSH1 0x20 ADD PUSH1 0x0 KECCAK256 DUP2 SWAP1 SSTORE POP PUSH1 0x0 DUP1 PUSH1 0x2 PUSH1 0x0 SWAP1 SLOAD SWAP1 PUSH2 0x100 EXP SWAP1 DIV PUSH20 0xFFFFFFFFFFFFFFFFFFFFFFFFFFFFFFFFFFFFFFFF AND PUSH20 0xFFFFFFFFFFFFFFFFFFFFFFFFFFFFFFFFFFFFFFFF AND PUSH20 0xFFFFFFFFFFFFFFFFFFFFFFFFFFFFFFFFFFFFFFFF AND DUP2 MSTORE PUSH1 0x20 ADD SWAP1 DUP2 MSTORE PUSH1 0x20 ADD PUSH1 0x0 KECCAK256 SLOAD DUP2 LT ISZERO PUSH2 0x780 JUMPI PUSH2 0x775 PUSH1 0x4 SLOAD DUP3 PUSH2 0x70F SWAP2 SWAP1 PUSH2 0xF29 JUMP JUMPDEST PUSH1 0x0 DUP1 PUSH1 0x2 PUSH1 0x0 SWAP1 SLOAD SWAP1 PUSH2 0x100 EXP SWAP1 DIV PUSH20 0xFFFFFFFFFFFFFFFFFFFFFFFFFFFFFFFFFFFFFFFF AND PUSH20 0xFFFFFFFFFFFFFFFFFFFFFFFFFFFFFFFFFFFFFFFF AND PUSH20 0xFFFFFFFFFFFFFFFFFFFFFFFFFFFFFFFFFFFFFFFF AND DUP2 MSTORE PUSH1 0x20 ADD SWAP1 DUP2 MSTORE PUSH1 0x20 ADD PUSH1 0x0 KECCAK256 SLOAD PUSH2 0xC5E JUMP JUMPDEST PUSH1 0x3 DUP2 SWAP1 SSTORE POP PUSH2 0x83F JUMP JUMPDEST PUSH2 0x7F7 DUP2 PUSH1 0x4 SLOAD PUSH1 0x0 DUP1 PUSH1 0x2 PUSH1 0x0 SWAP1 SLOAD SWAP1 PUSH2 0x100 EXP SWAP1 DIV PUSH20 0xFFFFFFFFFFFFFFFFFFFFFFFFFFFFFFFFFFFFFFFF AND PUSH20 0xFFFFFFFFFFFFFFFFFFFFFFFFFFFFFFFFFFFFFFFF AND PUSH20 0xFFFFFFFFFFFFFFFFFFFFFFFFFFFFFFFFFFFFFFFF AND DUP2 MSTORE PUSH1 0x20 ADD SWAP1 DUP2 MSTORE PUSH1 0x20 ADD PUSH1 0x0 KECCAK256 SLOAD PUSH2 0x7F2 SWAP2 SWAP1 PUSH2 0xF29 JUMP JUMPDEST PUSH2 0xC5E JUMP JUMPDEST PUSH1 0x3 DUP2 SWAP1 SSTORE POP CALLER PUSH1 0x2 PUSH1 0x0 PUSH2 0x100 EXP DUP2 SLOAD DUP2 PUSH20 0xFFFFFFFFFFFFFFFFFFFFFFFFFFFFFFFFFFFFFFFF MUL NOT AND SWAP1 DUP4 PUSH20 0xFFFFFFFFFFFFFFFFFFFFFFFFFFFFFFFFFFFFFFFF AND MUL OR SWAP1 SSTORE POP JUMPDEST POP JUMP JUMPDEST PUSH1 0x7 PUSH1 0x0 SWAP1 SLOAD SWAP1 PUSH2 0x100 EXP SWAP1 DIV PUSH1 0xFF AND PUSH1 0x3 DUP2 GT ISZERO PUSH2 0x864 JUMPI PUSH2 0x863 PUSH2 0x10C6 JUMP JUMPDEST JUMPDEST PUSH1 0x3 DUP1 DUP2 GT ISZERO PUSH2 0x877 JUMPI PUSH2 0x876 PUSH2 0x10C6 JUMP JUMPDEST JUMPDEST EQ DUP1 PUSH2 0x884 JUMPI POP PUSH1 0x6 SLOAD NUMBER GT JUMPDEST PUSH2 0x88D JUMPI PUSH1 0x0 DUP1 REVERT JUMPDEST PUSH1 0x0 DUP1 PUSH1 0x0 CALLER PUSH20 0xFFFFFFFFFFFFFFFFFFFFFFFFFFFFFFFFFFFFFFFF AND PUSH20 0xFFFFFFFFFFFFFFFFFFFFFFFFFFFFFFFFFFFFFFFF AND DUP2 MSTORE PUSH1 0x20 ADD SWAP1 DUP2 MSTORE PUSH1 0x20 ADD PUSH1 0x0 KECCAK256 SLOAD GT DUP1 PUSH2 0x927 JUMPI POP PUSH1 0x1 PUSH1 0x0 SWAP1 SLOAD SWAP1 PUSH2 0x100 EXP SWAP1 DIV PUSH20 0xFFFFFFFFFFFFFFFFFFFFFFFFFFFFFFFFFFFFFFFF AND PUSH20 0xFFFFFFFFFFFFFFFFFFFFFFFFFFFFFFFFFFFFFFFF AND CALLER PUSH20 0xFFFFFFFFFFFFFFFFFFFFFFFFFFFFFFFFFFFFFFFF AND EQ JUMPDEST PUSH2 0x930 JUMPI PUSH1 0x0 DUP1 REVERT JUMPDEST PUSH1 0x0 DUP1 PUSH1 0x3 DUP1 DUP2 GT ISZERO PUSH2 0x946 JUMPI PUSH2 0x945 PUSH2 0x10C6 JUMP JUMPDEST JUMPDEST PUSH1 0x7 PUSH1 0x0 SWAP1 SLOAD SWAP1 PUSH2 0x100 EXP SWAP1 DIV PUSH1 0xFF AND PUSH1 0x3 DUP2 GT ISZERO PUSH2 0x968 JUMPI PUSH2 0x967 PUSH2 0x10C6 JUMP JUMPDEST JUMPDEST EQ ISZERO PUSH2 0x9D9 JUMPI CALLER SWAP1 POP PUSH1 0x0 DUP1 PUSH1 0x2 PUSH1 0x0 SWAP1 SLOAD SWAP1 PUSH2 0x100 EXP SWAP1 DIV PUSH20 0xFFFFFFFFFFFFFFFFFFFFFFFFFFFFFFFFFFFFFFFF AND PUSH20 0xFFFFFFFFFFFFFFFFFFFFFFFFFFFFFFFFFFFFFFFF AND PUSH20 0xFFFFFFFFFFFFFFFFFFFFFFFFFFFFFFFFFFFFFFFF AND DUP2 MSTORE PUSH1 0x20 ADD SWAP1 DUP2 MSTORE PUSH1 0x20 ADD PUSH1 0x0 KECCAK256 SLOAD SWAP2 POP PUSH2 0xBCF JUMP JUMPDEST PUSH1 0x1 PUSH1 0x0 SWAP1 SLOAD SWAP1 PUSH2 0x100 EXP SWAP1 DIV PUSH20 0xFFFFFFFFFFFFFFFFFFFFFFFFFFFFFFFFFFFFFFFF AND PUSH20 0xFFFFFFFFFFFFFFFFFFFFFFFFFFFFFFFFFFFFFFFF AND CALLER PUSH20 0xFFFFFFFFFFFFFFFFFFFFFFFFFFFFFFFFFFFFFFFF AND EQ DUP1 ISZERO PUSH2 0xA49 JUMPI POP PUSH1 0x1 ISZERO ISZERO PUSH1 0x9 PUSH1 0x0 SWAP1 SLOAD SWAP1 PUSH2 0x100 EXP SWAP1 DIV PUSH1 0xFF AND ISZERO ISZERO EQ JUMPDEST ISZERO PUSH2 0xA98 JUMPI PUSH1 0x1 PUSH1 0x0 SWAP1 SLOAD SWAP1 PUSH2 0x100 EXP SWAP1 DIV PUSH20 0xFFFFFFFFFFFFFFFFFFFFFFFFFFFFFFFFFFFFFFFF AND SWAP1 POP PUSH1 0x3 SLOAD SWAP2 POP PUSH1 0x0 PUSH1 0x9 PUSH1 0x0 PUSH2 0x100 EXP DUP2 SLOAD DUP2 PUSH1 0xFF MUL NOT AND SWAP1 DUP4 ISZERO ISZERO MUL OR SWAP1 SSTORE POP PUSH2 0xBCE JUMP JUMPDEST PUSH1 0x2 PUSH1 0x0 SWAP1 SLOAD SWAP1 PUSH2 0x100 EXP SWAP1 DIV PUSH20 0xFFFFFFFFFFFFFFFFFFFFFFFFFFFFFFFFFFFFFFFF AND PUSH20 0xFFFFFFFFFFFFFFFFFFFFFFFFFFFFFFFFFFFFFFFF AND CALLER PUSH20 0xFFFFFFFFFFFFFFFFFFFFFFFFFFFFFFFFFFFFFFFF AND EQ ISZERO PUSH2 0xB88 JUMPI PUSH1 0x2 PUSH1 0x0 SWAP1 SLOAD SWAP1 PUSH2 0x100 EXP SWAP1 DIV PUSH20 0xFFFFFFFFFFFFFFFFFFFFFFFFFFFFFFFFFFFFFFFF AND SWAP1 POP PUSH1 0x3 SLOAD PUSH1 0x0 DUP1 PUSH1 0x2 PUSH1 0x0 SWAP1 SLOAD SWAP1 PUSH2 0x100 EXP SWAP1 DIV PUSH20 0xFFFFFFFFFFFFFFFFFFFFFFFFFFFFFFFFFFFFFFFF AND PUSH20 0xFFFFFFFFFFFFFFFFFFFFFFFFFFFFFFFFFFFFFFFF AND PUSH20 0xFFFFFFFFFFFFFFFFFFFFFFFFFFFFFFFFFFFFFFFF AND DUP2 MSTORE PUSH1 0x20 ADD SWAP1 DUP2 MSTORE PUSH1 0x20 ADD PUSH1 0x0 KECCAK256 SLOAD PUSH2 0xB81 SWAP2 SWAP1 PUSH2 0xF7F JUMP JUMPDEST SWAP2 POP PUSH2 0xBCD JUMP JUMPDEST CALLER SWAP1 POP PUSH1 0x0 DUP1 CALLER PUSH20 0xFFFFFFFFFFFFFFFFFFFFFFFFFFFFFFFFFFFFFFFF AND PUSH20 0xFFFFFFFFFFFFFFFFFFFFFFFFFFFFFFFFFFFFFFFF AND DUP2 MSTORE PUSH1 0x20 ADD SWAP1 DUP2 MSTORE PUSH1 0x20 ADD PUSH1 0x0 KECCAK256 SLOAD SWAP2 POP JUMPDEST JUMPDEST JUMPDEST PUSH1 0x0 DUP1 PUSH1 0x0 DUP4 PUSH20 0xFFFFFFFFFFFFFFFFFFFFFFFFFFFFFFFFFFFFFFFF AND PUSH20 0xFFFFFFFFFFFFFFFFFFFFFFFFFFFFFFFFFFFFFFFF AND DUP2 MSTORE PUSH1 0x20 ADD SWAP1 DUP2 MSTORE PUSH1 0x20 ADD PUSH1 0x0 KECCAK256 DUP2 SWAP1 SSTORE POP DUP1 PUSH20 0xFFFFFFFFFFFFFFFFFFFFFFFFFFFFFFFFFFFFFFFF AND PUSH2 0x8FC DUP4 SWAP1 DUP2 ISZERO MUL SWAP1 PUSH1 0x40 MLOAD PUSH1 0x0 PUSH1 0x40 MLOAD DUP1 DUP4 SUB DUP2 DUP6 DUP9 DUP9 CALL SWAP4 POP POP POP POP ISZERO DUP1 ISZERO PUSH2 0xC59 JUMPI RETURNDATASIZE PUSH1 0x0 DUP1 RETURNDATACOPY RETURNDATASIZE PUSH1 0x0 REVERT JUMPDEST POP POP POP JUMP JUMPDEST PUSH1 0x0 DUP2 DUP4 GT PUSH2 0xC6F JUMPI DUP3 SWAP1 POP PUSH2 0xC73 JUMP JUMPDEST DUP2 SWAP1 POP JUMPDEST SWAP3 SWAP2 POP POP JUMP JUMPDEST PUSH1 0x0 DUP2 CALLDATALOAD SWAP1 POP PUSH2 0xC88 DUP2 PUSH2 0x12B3 JUMP JUMPDEST SWAP3 SWAP2 POP POP JUMP JUMPDEST PUSH1 0x0 PUSH1 0x20 DUP3 DUP5 SUB SLT ISZERO PUSH2 0xCA4 JUMPI PUSH2 0xCA3 PUSH2 0x1124 JUMP JUMPDEST JUMPDEST PUSH1 0x0 PUSH2 0xCB2 DUP5 DUP3 DUP6 ADD PUSH2 0xC79 JUMP JUMPDEST SWAP2 POP POP SWAP3 SWAP2 POP POP JUMP JUMPDEST PUSH2 0xCC4 DUP2 PUSH2 0xFC5 JUMP JUMPDEST DUP3 MSTORE POP POP JUMP JUMPDEST PUSH2 0xCD3 DUP2 PUSH2 0xFD7 JUMP JUMPDEST DUP3 MSTORE POP POP JUMP JUMPDEST PUSH2 0xCE2 DUP2 PUSH2 0x1020 JUMP JUMPDEST DUP3 MSTORE POP POP JUMP JUMPDEST PUSH1 0x0 PUSH2 0xCF3 DUP3 PUSH2 0xF0D JUMP JUMPDEST PUSH2 0xCFD DUP2 DUP6 PUSH2 0xF18 JUMP JUMPDEST SWAP4 POP PUSH2 0xD0D DUP2 DUP6 PUSH1 0x20 DUP7 ADD PUSH2 0x1032 JUMP JUMPDEST PUSH2 0xD16 DUP2 PUSH2 0x1129 JUMP JUMPDEST DUP5 ADD SWAP2 POP POP SWAP3 SWAP2 POP POP JUMP JUMPDEST PUSH1 0x0 PUSH2 0xD2E PUSH1 0x26 DUP4 PUSH2 0xF18 JUMP JUMPDEST SWAP2 POP PUSH2 0xD39 DUP3 PUSH2 0x113A JUMP JUMPDEST PUSH1 0x40 DUP3 ADD SWAP1 POP SWAP2 SWAP1 POP JUMP JUMPDEST PUSH1 0x0 PUSH2 0xD51 PUSH1 0x18 DUP4 PUSH2 0xF18 JUMP JUMPDEST SWAP2 POP PUSH2 0xD5C DUP3 PUSH2 0x1189 JUMP JUMPDEST PUSH1 0x20 DUP3 ADD SWAP1 POP SWAP2 SWAP1 POP JUMP JUMPDEST PUSH1 0x0 PUSH2 0xD74 PUSH1 0x25 DUP4 PUSH2 0xF18 JUMP JUMPDEST SWAP2 POP PUSH2 0xD7F DUP3 PUSH2 0x11B2 JUMP JUMPDEST PUSH1 0x40 DUP3 ADD SWAP1 POP SWAP2 SWAP1 POP JUMP JUMPDEST PUSH1 0x0 PUSH2 0xD97 PUSH1 0x27 DUP4 PUSH2 0xF18 JUMP JUMPDEST SWAP2 POP PUSH2 0xDA2 DUP3 PUSH2 0x1201 JUMP JUMPDEST PUSH1 0x40 DUP3 ADD SWAP1 POP SWAP2 SWAP1 POP JUMP JUMPDEST PUSH1 0x0 PUSH2 0xDBA PUSH1 0x2C DUP4 PUSH2 0xF18 JUMP JUMPDEST SWAP2 POP PUSH2 0xDC5 DUP3 PUSH2 0x1250 JUMP JUMPDEST PUSH1 0x40 DUP3 ADD SWAP1 POP SWAP2 SWAP1 POP JUMP JUMPDEST PUSH2 0xDD9 DUP2 PUSH2 0x1016 JUMP JUMPDEST DUP3 MSTORE POP POP JUMP JUMPDEST PUSH1 0x0 PUSH1 0x20 DUP3 ADD SWAP1 POP PUSH2 0xDF4 PUSH1 0x0 DUP4 ADD DUP5 PUSH2 0xCBB JUMP JUMPDEST SWAP3 SWAP2 POP POP JUMP JUMPDEST PUSH1 0x0 PUSH1 0x20 DUP3 ADD SWAP1 POP PUSH2 0xE0F PUSH1 0x0 DUP4 ADD DUP5 PUSH2 0xCCA JUMP JUMPDEST SWAP3 SWAP2 POP POP JUMP JUMPDEST PUSH1 0x0 PUSH1 0x20 DUP3 ADD SWAP1 POP PUSH2 0xE2A PUSH1 0x0 DUP4 ADD DUP5 PUSH2 0xCD9 JUMP JUMPDEST SWAP3 SWAP2 POP POP JUMP JUMPDEST PUSH1 0x0 PUSH1 0x20 DUP3 ADD SWAP1 POP DUP2 DUP2 SUB PUSH1 0x0 DUP4 ADD MSTORE PUSH2 0xE4A DUP2 DUP5 PUSH2 0xCE8 JUMP JUMPDEST SWAP1 POP SWAP3 SWAP2 POP POP JUMP JUMPDEST PUSH1 0x0 PUSH1 0x20 DUP3 ADD SWAP1 POP DUP2 DUP2 SUB PUSH1 0x0 DUP4 ADD MSTORE PUSH2 0xE6B DUP2 PUSH2 0xD21 JUMP JUMPDEST SWAP1 POP SWAP2 SWAP1 POP JUMP JUMPDEST PUSH1 0x0 PUSH1 0x20 DUP3 ADD SWAP1 POP DUP2 DUP2 SUB PUSH1 0x0 DUP4 ADD MSTORE PUSH2 0xE8B DUP2 PUSH2 0xD44 JUMP JUMPDEST SWAP1 POP SWAP2 SWAP1 POP JUMP JUMPDEST PUSH1 0x0 PUSH1 0x20 DUP3 ADD SWAP1 POP DUP2 DUP2 SUB PUSH1 0x0 DUP4 ADD MSTORE PUSH2 0xEAB DUP2 PUSH2 0xD67 JUMP JUMPDEST SWAP1 POP SWAP2 SWAP1 POP JUMP JUMPDEST PUSH1 0x0 PUSH1 0x20 DUP3 ADD SWAP1 POP DUP2 DUP2 SUB PUSH1 0x0 DUP4 ADD MSTORE PUSH2 0xECB DUP2 PUSH2 0xD8A JUMP JUMPDEST SWAP1 POP SWAP2 SWAP1 POP JUMP JUMPDEST PUSH1 0x0 PUSH1 0x20 DUP3 ADD SWAP1 POP DUP2 DUP2 SUB PUSH1 0x0 DUP4 ADD MSTORE PUSH2 0xEEB DUP2 PUSH2 0xDAD JUMP JUMPDEST SWAP1 POP SWAP2 SWAP1 POP JUMP JUMPDEST PUSH1 0x0 PUSH1 0x20 DUP3 ADD SWAP1 POP PUSH2 0xF07 PUSH1 0x0 DUP4 ADD DUP5 PUSH2 0xDD0 JUMP JUMPDEST SWAP3 SWAP2 POP POP JUMP JUMPDEST PUSH1 0x0 DUP2 MLOAD SWAP1 POP SWAP2 SWAP1 POP JUMP JUMPDEST PUSH1 0x0 DUP3 DUP3 MSTORE PUSH1 0x20 DUP3 ADD SWAP1 POP SWAP3 SWAP2 POP POP JUMP JUMPDEST PUSH1 0x0 PUSH2 0xF34 DUP3 PUSH2 0x1016 JUMP JUMPDEST SWAP2 POP PUSH2 0xF3F DUP4 PUSH2 0x1016 JUMP JUMPDEST SWAP3 POP DUP3 PUSH32 0xFFFFFFFFFFFFFFFFFFFFFFFFFFFFFFFFFFFFFFFFFFFFFFFFFFFFFFFFFFFFFFFF SUB DUP3 GT ISZERO PUSH2 0xF74 JUMPI PUSH2 0xF73 PUSH2 0x1097 JUMP JUMPDEST JUMPDEST DUP3 DUP3 ADD SWAP1 POP SWAP3 SWAP2 POP POP JUMP JUMPDEST PUSH1 0x0 PUSH2 0xF8A DUP3 PUSH2 0x1016 JUMP JUMPDEST SWAP2 POP PUSH2 0xF95 DUP4 PUSH2 0x1016 JUMP JUMPDEST SWAP3 POP DUP3 DUP3 LT ISZERO PUSH2 0xFA8 JUMPI PUSH2 0xFA7 PUSH2 0x1097 JUMP JUMPDEST JUMPDEST DUP3 DUP3 SUB SWAP1 POP SWAP3 SWAP2 POP POP JUMP JUMPDEST PUSH1 0x0 PUSH2 0xFBE DUP3 PUSH2 0xFF6 JUMP JUMPDEST SWAP1 POP SWAP2 SWAP1 POP JUMP JUMPDEST PUSH1 0x0 PUSH2 0xFD0 DUP3 PUSH2 0xFF6 JUMP JUMPDEST SWAP1 POP SWAP2 SWAP1 POP JUMP JUMPDEST PUSH1 0x0 DUP2 ISZERO ISZERO SWAP1 POP SWAP2 SWAP1 POP JUMP JUMPDEST PUSH1 0x0 DUP2 SWAP1 POP PUSH2 0xFF1 DUP3 PUSH2 0x129F JUMP JUMPDEST SWAP2 SWAP1 POP JUMP JUMPDEST PUSH1 0x0 PUSH20 0xFFFFFFFFFFFFFFFFFFFFFFFFFFFFFFFFFFFFFFFF DUP3 AND SWAP1 POP SWAP2 SWAP1 POP JUMP JUMPDEST PUSH1 0x0 DUP2 SWAP1 POP SWAP2 SWAP1 POP JUMP JUMPDEST PUSH1 0x0 PUSH2 0x102B DUP3 PUSH2 0xFE3 JUMP JUMPDEST SWAP1 POP SWAP2 SWAP1 POP JUMP JUMPDEST PUSH1 0x0 JUMPDEST DUP4 DUP2 LT ISZERO PUSH2 0x1050 JUMPI DUP1 DUP3 ADD MLOAD DUP2 DUP5 ADD MSTORE PUSH1 0x20 DUP2 ADD SWAP1 POP PUSH2 0x1035 JUMP JUMPDEST DUP4 DUP2 GT ISZERO PUSH2 0x105F JUMPI PUSH1 0x0 DUP5 DUP5 ADD MSTORE JUMPDEST POP POP POP POP JUMP JUMPDEST PUSH1 0x0 PUSH1 0x2 DUP3 DIV SWAP1 POP PUSH1 0x1 DUP3 AND DUP1 PUSH2 0x107D JUMPI PUSH1 0x7F DUP3 AND SWAP2 POP JUMPDEST PUSH1 0x20 DUP3 LT DUP2 EQ ISZERO PUSH2 0x1091 JUMPI PUSH2 0x1090 PUSH2 0x10F5 JUMP JUMPDEST JUMPDEST POP SWAP2 SWAP1 POP JUMP JUMPDEST PUSH32 0x4E487B7100000000000000000000000000000000000000000000000000000000 PUSH1 0x0 MSTORE PUSH1 0x11 PUSH1 0x4 MSTORE PUSH1 0x24 PUSH1 0x0 REVERT JUMPDEST PUSH32 0x4E487B7100000000000000000000000000000000000000000000000000000000 PUSH1 0x0 MSTORE PUSH1 0x21 PUSH1 0x4 MSTORE PUSH1 0x24 PUSH1 0x0 REVERT JUMPDEST PUSH32 0x4E487B7100000000000000000000000000000000000000000000000000000000 PUSH1 0x0 MSTORE PUSH1 0x22 PUSH1 0x4 MSTORE PUSH1 0x24 PUSH1 0x0 REVERT JUMPDEST PUSH1 0x0 DUP1 REVERT JUMPDEST PUSH1 0x0 PUSH1 0x1F NOT PUSH1 0x1F DUP4 ADD AND SWAP1 POP SWAP2 SWAP1 POP JUMP JUMPDEST PUSH32 0x426964732063616E206F6E6C7920626520706C61636564206279206E6F6E6520 PUSH1 0x0 DUP3 ADD MSTORE PUSH32 0x6F776E6572730000000000000000000000000000000000000000000000000000 PUSH1 0x20 DUP3 ADD MSTORE POP JUMP JUMPDEST PUSH32 0x41756374696F6E2074696D652068617320656C61737065640000000000000000 PUSH1 0x0 DUP3 ADD MSTORE POP JUMP JUMPDEST PUSH32 0x41756374696F6E2063616E6E6F7420626520706C617965642061742074686973 PUSH1 0x0 DUP3 ADD MSTORE PUSH32 0x2074696D65000000000000000000000000000000000000000000000000000000 PUSH1 0x20 DUP3 ADD MSTORE POP JUMP JUMPDEST PUSH32 0x56616C75652073656E74206D7573742062652067726561746572207468616E20 PUSH1 0x0 DUP3 ADD MSTORE PUSH32 0x3120657468657200000000000000000000000000000000000000000000000000 PUSH1 0x20 DUP3 ADD MSTORE POP JUMP JUMPDEST PUSH32 0x41756374696F6E207374617465206D7573742062652072756E6E696E6720746F PUSH1 0x0 DUP3 ADD MSTORE PUSH32 0x2061636365707420626964730000000000000000000000000000000000000000 PUSH1 0x20 DUP3 ADD MSTORE POP JUMP JUMPDEST PUSH1 0x4 DUP2 LT PUSH2 0x12B0 JUMPI PUSH2 0x12AF PUSH2 0x10C6 JUMP JUMPDEST JUMPDEST POP JUMP JUMPDEST PUSH2 0x12BC DUP2 PUSH2 0xFB3 JUMP JUMPDEST DUP2 EQ PUSH2 0x12C7 JUMPI PUSH1 0x0 DUP1 REVERT JUMPDEST POP JUMP INVALID LOG2 PUSH5 0x6970667358 0x22 SLT KECCAK256 MULMOD PUSH21 0x7AF155898FD1B14EF0B2FE4E333816E7527AE14398 0xAB PUSH27 0xA37F7A5DA1B25E64736F6C63430008070033A26469706673582212 KECCAK256 0xBD PUSH14 0xEA01C2D81EDDFB3702F84B5D3D1A EXTCODESIZE PUSH24 0x2F6AE5BC49A4D6AE6A76FC7AEF5964736F6C634300080700 CALLER "
				},
				"gasEstimates": {
					"creation": {
						"codeDepositCost": "1277200",
						"executionCost": "1329",
						"totalCost": "1278529"
					},
					"external": {
						"createAuction()": "infinite",
						"createdAuctions(uint256)": "5020"
					}
				},
				"methodIdentifiers": {
					"createAuction()": "f5811447",
					"createdAuctions(uint256)": "aff19ef2"
				}
			},
			"storageLayout": {
				"storage": [
					{
						"astId": 5,
						"contract": "contracts/Auctions.sol:AuctionCreator",
						"label": "createdAuctions",
						"offset": 0,
						"slot": "0",
						"type": "t_array(t_contract(Auction)365)dyn_storage"
					}
				],
				"types": {
					"t_array(t_contract(Auction)365)dyn_storage": {
						"base": "t_contract(Auction)365",
						"encoding": "dynamic_array",
						"label": "contract Auction[]",
						"numberOfBytes": "32"
					},
					"t_contract(Auction)365": {
						"encoding": "inplace",
						"label": "contract Auction",
						"numberOfBytes": "20"
					}
				}
			},
			"userdoc": {
				"kind": "user",
				"methods": {},
				"version": 1
			}
		}
	}
}