{
	"contracts/deposit_solution.sol": {
		"Deposit": {
			"abi": [
				{
					"inputs": [],
					"name": "getBalance",
					"outputs": [
						{
							"internalType": "uint256",
							"name": "",
							"type": "uint256"
						}
					],
					"stateMutability": "view",
					"type": "function"
				},
				{
					"inputs": [
						{
							"internalType": "address payable",
							"name": "receipient",
							"type": "address"
						},
						{
							"internalType": "uint256",
							"name": "amount",
							"type": "uint256"
						}
					],
					"name": "transferEth",
					"outputs": [
						{
							"internalType": "bool",
							"name": "",
							"type": "bool"
						}
					],
					"stateMutability": "nonpayable",
					"type": "function"
				},
				{
					"stateMutability": "payable",
					"type": "receive"
				}
			],
			"devdoc": {
				"kind": "dev",
				"methods": {},
				"version": 1
			},
			"evm": {
				"assembly": "    /* \"contracts/deposit_solution.sol\":71:466  contract Deposit{... */\n  mstore(0x40, 0x80)\n  callvalue\n  dup1\n  iszero\n  tag_1\n  jumpi\n  0x00\n  dup1\n  revert\ntag_1:\n  pop\n  dataSize(sub_0)\n  dup1\n  dataOffset(sub_0)\n  0x00\n  codecopy\n  0x00\n  return\nstop\n\nsub_0: assembly {\n        /* \"contracts/deposit_solution.sol\":71:466  contract Deposit{... */\n      mstore(0x40, 0x80)\n      jumpi(tag_1, lt(calldatasize, 0x04))\n      shr(0xe0, calldataload(0x00))\n      dup1\n      0x12065fe0\n      eq\n      tag_3\n      jumpi\n      dup1\n      0xe9bb84c2\n      eq\n      tag_4\n      jumpi\n      jump(tag_2)\n    tag_1:\n      jumpi(tag_2, calldatasize)\n      stop\n    tag_2:\n      0x00\n      dup1\n      revert\n        /* \"contracts/deposit_solution.sol\":132:226  function getBalance() public view returns (uint) {... */\n    tag_3:\n      callvalue\n      dup1\n      iszero\n      tag_7\n      jumpi\n      0x00\n      dup1\n      revert\n    tag_7:\n      pop\n      tag_8\n      tag_9\n      jump\t// in\n    tag_8:\n      mload(0x40)\n      tag_10\n      swap2\n      swap1\n      tag_11\n      jump\t// in\n    tag_10:\n      mload(0x40)\n      dup1\n      swap2\n      sub\n      swap1\n      return\n        /* \"contracts/deposit_solution.sol\":232:464  function transferEth(address payable receipient, uint amount) public returns(bool){... */\n    tag_4:\n      callvalue\n      dup1\n      iszero\n      tag_12\n      jumpi\n      0x00\n      dup1\n      revert\n    tag_12:\n      pop\n      tag_13\n      0x04\n      dup1\n      calldatasize\n      sub\n      dup2\n      add\n      swap1\n      tag_14\n      swap2\n      swap1\n      tag_15\n      jump\t// in\n    tag_14:\n      tag_16\n      jump\t// in\n    tag_13:\n      mload(0x40)\n      tag_17\n      swap2\n      swap1\n      tag_18\n      jump\t// in\n    tag_17:\n      mload(0x40)\n      dup1\n      swap2\n      sub\n      swap1\n      return\n        /* \"contracts/deposit_solution.sol\":132:226  function getBalance() public view returns (uint) {... */\n    tag_9:\n        /* \"contracts/deposit_solution.sol\":175:179  uint */\n      0x00\n        /* \"contracts/deposit_solution.sol\":198:219  address(this).balance */\n      selfbalance\n        /* \"contracts/deposit_solution.sol\":191:219  return address(this).balance */\n      swap1\n      pop\n        /* \"contracts/deposit_solution.sol\":132:226  function getBalance() public view returns (uint) {... */\n      swap1\n      jump\t// out\n        /* \"contracts/deposit_solution.sol\":232:464  function transferEth(address payable receipient, uint amount) public returns(bool){... */\n    tag_16:\n        /* \"contracts/deposit_solution.sol\":309:313  bool */\n      0x00\n        /* \"contracts/deposit_solution.sol\":337:358  address(this).balance */\n      selfbalance\n        /* \"contracts/deposit_solution.sol\":327:333  amount */\n      dup3\n        /* \"contracts/deposit_solution.sol\":327:358  amount == address(this).balance */\n      eq\n        /* \"contracts/deposit_solution.sol\":324:436  if(amount == address(this).balance){... */\n      iszero\n      tag_21\n      jumpi\n        /* \"contracts/deposit_solution.sol\":373:383  receipient */\n      dup3\n        /* \"contracts/deposit_solution.sol\":373:392  receipient.transfer */\n      0xffffffffffffffffffffffffffffffffffffffff\n      and\n        /* \"contracts/deposit_solution.sol\":373:400  receipient.transfer(amount) */\n      0x08fc\n        /* \"contracts/deposit_solution.sol\":393:399  amount */\n      dup4\n        /* \"contracts/deposit_solution.sol\":373:400  receipient.transfer(amount) */\n      swap1\n      dup2\n      iszero\n      mul\n      swap1\n      mload(0x40)\n      0x00\n      mload(0x40)\n      dup1\n      dup4\n      sub\n      dup2\n      dup6\n      dup9\n      dup9\n      call\n      swap4\n      pop\n      pop\n      pop\n      pop\n      iszero\n      dup1\n      iszero\n      tag_23\n      jumpi\n      returndatasize\n      0x00\n      dup1\n      returndatacopy\n      revert(0x00, returndatasize)\n    tag_23:\n      pop\n        /* \"contracts/deposit_solution.sol\":421:425  true */\n      0x01\n        /* \"contracts/deposit_solution.sol\":414:425  return true */\n      swap1\n      pop\n      jump(tag_20)\n        /* \"contracts/deposit_solution.sol\":324:436  if(amount == address(this).balance){... */\n    tag_21:\n        /* \"contracts/deposit_solution.sol\":452:457  false */\n      0x00\n        /* \"contracts/deposit_solution.sol\":445:457  return false */\n      swap1\n      pop\n        /* \"contracts/deposit_solution.sol\":232:464  function transferEth(address payable receipient, uint amount) public returns(bool){... */\n    tag_20:\n      swap3\n      swap2\n      pop\n      pop\n      jump\t// out\n        /* \"#utility.yul\":7:162   */\n    tag_25:\n        /* \"#utility.yul\":61:66   */\n      0x00\n        /* \"#utility.yul\":99:105   */\n      dup2\n        /* \"#utility.yul\":86:106   */\n      calldataload\n        /* \"#utility.yul\":77:106   */\n      swap1\n      pop\n        /* \"#utility.yul\":115:156   */\n      tag_27\n        /* \"#utility.yul\":150:155   */\n      dup2\n        /* \"#utility.yul\":115:156   */\n      tag_28\n      jump\t// in\n    tag_27:\n        /* \"#utility.yul\":7:162   */\n      swap3\n      swap2\n      pop\n      pop\n      jump\t// out\n        /* \"#utility.yul\":168:307   */\n    tag_29:\n        /* \"#utility.yul\":214:219   */\n      0x00\n        /* \"#utility.yul\":252:258   */\n      dup2\n        /* \"#utility.yul\":239:259   */\n      calldataload\n        /* \"#utility.yul\":230:259   */\n      swap1\n      pop\n        /* \"#utility.yul\":268:301   */\n      tag_31\n        /* \"#utility.yul\":295:300   */\n      dup2\n        /* \"#utility.yul\":268:301   */\n      tag_32\n      jump\t// in\n    tag_31:\n        /* \"#utility.yul\":168:307   */\n      swap3\n      swap2\n      pop\n      pop\n      jump\t// out\n        /* \"#utility.yul\":313:803   */\n    tag_15:\n        /* \"#utility.yul\":389:395   */\n      0x00\n        /* \"#utility.yul\":397:403   */\n      dup1\n        /* \"#utility.yul\":446:448   */\n      0x40\n        /* \"#utility.yul\":434:443   */\n      dup4\n        /* \"#utility.yul\":425:432   */\n      dup6\n        /* \"#utility.yul\":421:444   */\n      sub\n        /* \"#utility.yul\":417:449   */\n      slt\n        /* \"#utility.yul\":414:533   */\n      iszero\n      tag_34\n      jumpi\n        /* \"#utility.yul\":452:531   */\n      tag_35\n      tag_36\n      jump\t// in\n    tag_35:\n        /* \"#utility.yul\":414:533   */\n    tag_34:\n        /* \"#utility.yul\":572:573   */\n      0x00\n        /* \"#utility.yul\":597:658   */\n      tag_37\n        /* \"#utility.yul\":650:657   */\n      dup6\n        /* \"#utility.yul\":641:647   */\n      dup3\n        /* \"#utility.yul\":630:639   */\n      dup7\n        /* \"#utility.yul\":626:648   */\n      add\n        /* \"#utility.yul\":597:658   */\n      tag_25\n      jump\t// in\n    tag_37:\n        /* \"#utility.yul\":587:658   */\n      swap3\n      pop\n        /* \"#utility.yul\":543:668   */\n      pop\n        /* \"#utility.yul\":707:709   */\n      0x20\n        /* \"#utility.yul\":733:786   */\n      tag_38\n        /* \"#utility.yul\":778:785   */\n      dup6\n        /* \"#utility.yul\":769:775   */\n      dup3\n        /* \"#utility.yul\":758:767   */\n      dup7\n        /* \"#utility.yul\":754:776   */\n      add\n        /* \"#utility.yul\":733:786   */\n      tag_29\n      jump\t// in\n    tag_38:\n        /* \"#utility.yul\":723:786   */\n      swap2\n      pop\n        /* \"#utility.yul\":678:796   */\n      pop\n        /* \"#utility.yul\":313:803   */\n      swap3\n      pop\n      swap3\n      swap1\n      pop\n      jump\t// out\n        /* \"#utility.yul\":809:918   */\n    tag_39:\n        /* \"#utility.yul\":890:911   */\n      tag_41\n        /* \"#utility.yul\":905:910   */\n      dup2\n        /* \"#utility.yul\":890:911   */\n      tag_42\n      jump\t// in\n    tag_41:\n        /* \"#utility.yul\":885:888   */\n      dup3\n        /* \"#utility.yul\":878:912   */\n      mstore\n        /* \"#utility.yul\":809:918   */\n      pop\n      pop\n      jump\t// out\n        /* \"#utility.yul\":924:1042   */\n    tag_43:\n        /* \"#utility.yul\":1011:1035   */\n      tag_45\n        /* \"#utility.yul\":1029:1034   */\n      dup2\n        /* \"#utility.yul\":1011:1035   */\n      tag_46\n      jump\t// in\n    tag_45:\n        /* \"#utility.yul\":1006:1009   */\n      dup3\n        /* \"#utility.yul\":999:1036   */\n      mstore\n        /* \"#utility.yul\":924:1042   */\n      pop\n      pop\n      jump\t// out\n        /* \"#utility.yul\":1048:1258   */\n    tag_18:\n        /* \"#utility.yul\":1135:1139   */\n      0x00\n        /* \"#utility.yul\":1173:1175   */\n      0x20\n        /* \"#utility.yul\":1162:1171   */\n      dup3\n        /* \"#utility.yul\":1158:1176   */\n      add\n        /* \"#utility.yul\":1150:1176   */\n      swap1\n      pop\n        /* \"#utility.yul\":1186:1251   */\n      tag_48\n        /* \"#utility.yul\":1248:1249   */\n      0x00\n        /* \"#utility.yul\":1237:1246   */\n      dup4\n        /* \"#utility.yul\":1233:1250   */\n      add\n        /* \"#utility.yul\":1224:1230   */\n      dup5\n        /* \"#utility.yul\":1186:1251   */\n      tag_39\n      jump\t// in\n    tag_48:\n        /* \"#utility.yul\":1048:1258   */\n      swap3\n      swap2\n      pop\n      pop\n      jump\t// out\n        /* \"#utility.yul\":1264:1486   */\n    tag_11:\n        /* \"#utility.yul\":1357:1361   */\n      0x00\n        /* \"#utility.yul\":1395:1397   */\n      0x20\n        /* \"#utility.yul\":1384:1393   */\n      dup3\n        /* \"#utility.yul\":1380:1398   */\n      add\n        /* \"#utility.yul\":1372:1398   */\n      swap1\n      pop\n        /* \"#utility.yul\":1408:1479   */\n      tag_50\n        /* \"#utility.yul\":1476:1477   */\n      0x00\n        /* \"#utility.yul\":1465:1474   */\n      dup4\n        /* \"#utility.yul\":1461:1478   */\n      add\n        /* \"#utility.yul\":1452:1458   */\n      dup5\n        /* \"#utility.yul\":1408:1479   */\n      tag_43\n      jump\t// in\n    tag_50:\n        /* \"#utility.yul\":1264:1486   */\n      swap3\n      swap2\n      pop\n      pop\n      jump\t// out\n        /* \"#utility.yul\":1573:1677   */\n    tag_53:\n        /* \"#utility.yul\":1618:1625   */\n      0x00\n        /* \"#utility.yul\":1647:1671   */\n      tag_55\n        /* \"#utility.yul\":1665:1670   */\n      dup3\n        /* \"#utility.yul\":1647:1671   */\n      tag_56\n      jump\t// in\n    tag_55:\n        /* \"#utility.yul\":1636:1671   */\n      swap1\n      pop\n        /* \"#utility.yul\":1573:1677   */\n      swap2\n      swap1\n      pop\n      jump\t// out\n        /* \"#utility.yul\":1683:1773   */\n    tag_42:\n        /* \"#utility.yul\":1717:1724   */\n      0x00\n        /* \"#utility.yul\":1760:1765   */\n      dup2\n        /* \"#utility.yul\":1753:1766   */\n      iszero\n        /* \"#utility.yul\":1746:1767   */\n      iszero\n        /* \"#utility.yul\":1735:1767   */\n      swap1\n      pop\n        /* \"#utility.yul\":1683:1773   */\n      swap2\n      swap1\n      pop\n      jump\t// out\n        /* \"#utility.yul\":1779:1905   */\n    tag_56:\n        /* \"#utility.yul\":1816:1823   */\n      0x00\n        /* \"#utility.yul\":1856:1898   */\n      0xffffffffffffffffffffffffffffffffffffffff\n        /* \"#utility.yul\":1849:1854   */\n      dup3\n        /* \"#utility.yul\":1845:1899   */\n      and\n        /* \"#utility.yul\":1834:1899   */\n      swap1\n      pop\n        /* \"#utility.yul\":1779:1905   */\n      swap2\n      swap1\n      pop\n      jump\t// out\n        /* \"#utility.yul\":1911:1988   */\n    tag_46:\n        /* \"#utility.yul\":1948:1955   */\n      0x00\n        /* \"#utility.yul\":1977:1982   */\n      dup2\n        /* \"#utility.yul\":1966:1982   */\n      swap1\n      pop\n        /* \"#utility.yul\":1911:1988   */\n      swap2\n      swap1\n      pop\n      jump\t// out\n        /* \"#utility.yul\":2117:2234   */\n    tag_36:\n        /* \"#utility.yul\":2226:2227   */\n      0x00\n        /* \"#utility.yul\":2223:2224   */\n      dup1\n        /* \"#utility.yul\":2216:2228   */\n      revert\n        /* \"#utility.yul\":2240:2378   */\n    tag_28:\n        /* \"#utility.yul\":2321:2353   */\n      tag_64\n        /* \"#utility.yul\":2347:2352   */\n      dup2\n        /* \"#utility.yul\":2321:2353   */\n      tag_53\n      jump\t// in\n    tag_64:\n        /* \"#utility.yul\":2314:2319   */\n      dup2\n        /* \"#utility.yul\":2311:2354   */\n      eq\n        /* \"#utility.yul\":2301:2372   */\n      tag_65\n      jumpi\n        /* \"#utility.yul\":2368:2369   */\n      0x00\n        /* \"#utility.yul\":2365:2366   */\n      dup1\n        /* \"#utility.yul\":2358:2370   */\n      revert\n        /* \"#utility.yul\":2301:2372   */\n    tag_65:\n        /* \"#utility.yul\":2240:2378   */\n      pop\n      jump\t// out\n        /* \"#utility.yul\":2384:2506   */\n    tag_32:\n        /* \"#utility.yul\":2457:2481   */\n      tag_67\n        /* \"#utility.yul\":2475:2480   */\n      dup2\n        /* \"#utility.yul\":2457:2481   */\n      tag_46\n      jump\t// in\n    tag_67:\n        /* \"#utility.yul\":2450:2455   */\n      dup2\n        /* \"#utility.yul\":2447:2482   */\n      eq\n        /* \"#utility.yul\":2437:2500   */\n      tag_68\n      jumpi\n        /* \"#utility.yul\":2496:2497   */\n      0x00\n        /* \"#utility.yul\":2493:2494   */\n      dup1\n        /* \"#utility.yul\":2486:2498   */\n      revert\n        /* \"#utility.yul\":2437:2500   */\n    tag_68:\n        /* \"#utility.yul\":2384:2506   */\n      pop\n      jump\t// out\n\n    auxdata: 0xa2646970667358221220019cd273227de1d0d5cbcd5c85e6c23309e2b2e1edb74deb0da2145ad74adba964736f6c63430008070033\n}\n",
				"bytecode": {
					"linkReferences": {},
					"object": "608060405234801561001057600080fd5b5061027d806100206000396000f3fe60806040526004361061002d5760003560e01c806312065fe014610039578063e9bb84c21461006457610034565b3661003457005b600080fd5b34801561004557600080fd5b5061004e6100a1565b60405161005b91906101b1565b60405180910390f35b34801561007057600080fd5b5061008b60048036038101906100869190610138565b6100a9565b6040516100989190610196565b60405180910390f35b600047905090565b600047821415610103578273ffffffffffffffffffffffffffffffffffffffff166108fc839081150290604051600060405180830381858888f193505050501580156100f9573d6000803e3d6000fd5b5060019050610108565b600090505b92915050565b60008135905061011d81610219565b92915050565b60008135905061013281610230565b92915050565b6000806040838503121561014f5761014e610214565b5b600061015d8582860161010e565b925050602061016e85828601610123565b9150509250929050565b610181816101de565b82525050565b6101908161020a565b82525050565b60006020820190506101ab6000830184610178565b92915050565b60006020820190506101c66000830184610187565b92915050565b60006101d7826101ea565b9050919050565b60008115159050919050565b600073ffffffffffffffffffffffffffffffffffffffff82169050919050565b6000819050919050565b600080fd5b610222816101cc565b811461022d57600080fd5b50565b6102398161020a565b811461024457600080fd5b5056fea2646970667358221220019cd273227de1d0d5cbcd5c85e6c23309e2b2e1edb74deb0da2145ad74adba964736f6c63430008070033",
					"opcodes": "PUSH1 0x80 PUSH1 0x40 MSTORE CALLVALUE DUP1 ISZERO PUSH2 0x10 JUMPI PUSH1 0x0 DUP1 REVERT JUMPDEST POP PUSH2 0x27D DUP1 PUSH2 0x20 PUSH1 0x0 CODECOPY PUSH1 0x0 RETURN INVALID PUSH1 0x80 PUSH1 0x40 MSTORE PUSH1 0x4 CALLDATASIZE LT PUSH2 0x2D JUMPI PUSH1 0x0 CALLDATALOAD PUSH1 0xE0 SHR DUP1 PUSH4 0x12065FE0 EQ PUSH2 0x39 JUMPI DUP1 PUSH4 0xE9BB84C2 EQ PUSH2 0x64 JUMPI PUSH2 0x34 JUMP JUMPDEST CALLDATASIZE PUSH2 0x34 JUMPI STOP JUMPDEST PUSH1 0x0 DUP1 REVERT JUMPDEST CALLVALUE DUP1 ISZERO PUSH2 0x45 JUMPI PUSH1 0x0 DUP1 REVERT JUMPDEST POP PUSH2 0x4E PUSH2 0xA1 JUMP JUMPDEST PUSH1 0x40 MLOAD PUSH2 0x5B SWAP2 SWAP1 PUSH2 0x1B1 JUMP JUMPDEST PUSH1 0x40 MLOAD DUP1 SWAP2 SUB SWAP1 RETURN JUMPDEST CALLVALUE DUP1 ISZERO PUSH2 0x70 JUMPI PUSH1 0x0 DUP1 REVERT JUMPDEST POP PUSH2 0x8B PUSH1 0x4 DUP1 CALLDATASIZE SUB DUP2 ADD SWAP1 PUSH2 0x86 SWAP2 SWAP1 PUSH2 0x138 JUMP JUMPDEST PUSH2 0xA9 JUMP JUMPDEST PUSH1 0x40 MLOAD PUSH2 0x98 SWAP2 SWAP1 PUSH2 0x196 JUMP JUMPDEST PUSH1 0x40 MLOAD DUP1 SWAP2 SUB SWAP1 RETURN JUMPDEST PUSH1 0x0 SELFBALANCE SWAP1 POP SWAP1 JUMP JUMPDEST PUSH1 0x0 SELFBALANCE DUP3 EQ ISZERO PUSH2 0x103 JUMPI DUP3 PUSH20 0xFFFFFFFFFFFFFFFFFFFFFFFFFFFFFFFFFFFFFFFF AND PUSH2 0x8FC DUP4 SWAP1 DUP2 ISZERO MUL SWAP1 PUSH1 0x40 MLOAD PUSH1 0x0 PUSH1 0x40 MLOAD DUP1 DUP4 SUB DUP2 DUP6 DUP9 DUP9 CALL SWAP4 POP POP POP POP ISZERO DUP1 ISZERO PUSH2 0xF9 JUMPI RETURNDATASIZE PUSH1 0x0 DUP1 RETURNDATACOPY RETURNDATASIZE PUSH1 0x0 REVERT JUMPDEST POP PUSH1 0x1 SWAP1 POP PUSH2 0x108 JUMP JUMPDEST PUSH1 0x0 SWAP1 POP JUMPDEST SWAP3 SWAP2 POP POP JUMP JUMPDEST PUSH1 0x0 DUP2 CALLDATALOAD SWAP1 POP PUSH2 0x11D DUP2 PUSH2 0x219 JUMP JUMPDEST SWAP3 SWAP2 POP POP JUMP JUMPDEST PUSH1 0x0 DUP2 CALLDATALOAD SWAP1 POP PUSH2 0x132 DUP2 PUSH2 0x230 JUMP JUMPDEST SWAP3 SWAP2 POP POP JUMP JUMPDEST PUSH1 0x0 DUP1 PUSH1 0x40 DUP4 DUP6 SUB SLT ISZERO PUSH2 0x14F JUMPI PUSH2 0x14E PUSH2 0x214 JUMP JUMPDEST JUMPDEST PUSH1 0x0 PUSH2 0x15D DUP6 DUP3 DUP7 ADD PUSH2 0x10E JUMP JUMPDEST SWAP3 POP POP PUSH1 0x20 PUSH2 0x16E DUP6 DUP3 DUP7 ADD PUSH2 0x123 JUMP JUMPDEST SWAP2 POP POP SWAP3 POP SWAP3 SWAP1 POP JUMP JUMPDEST PUSH2 0x181 DUP2 PUSH2 0x1DE JUMP JUMPDEST DUP3 MSTORE POP POP JUMP JUMPDEST PUSH2 0x190 DUP2 PUSH2 0x20A JUMP JUMPDEST DUP3 MSTORE POP POP JUMP JUMPDEST PUSH1 0x0 PUSH1 0x20 DUP3 ADD SWAP1 POP PUSH2 0x1AB PUSH1 0x0 DUP4 ADD DUP5 PUSH2 0x178 JUMP JUMPDEST SWAP3 SWAP2 POP POP JUMP JUMPDEST PUSH1 0x0 PUSH1 0x20 DUP3 ADD SWAP1 POP PUSH2 0x1C6 PUSH1 0x0 DUP4 ADD DUP5 PUSH2 0x187 JUMP JUMPDEST SWAP3 SWAP2 POP POP JUMP JUMPDEST PUSH1 0x0 PUSH2 0x1D7 DUP3 PUSH2 0x1EA JUMP JUMPDEST SWAP1 POP SWAP2 SWAP1 POP JUMP JUMPDEST PUSH1 0x0 DUP2 ISZERO ISZERO SWAP1 POP SWAP2 SWAP1 POP JUMP JUMPDEST PUSH1 0x0 PUSH20 0xFFFFFFFFFFFFFFFFFFFFFFFFFFFFFFFFFFFFFFFF DUP3 AND SWAP1 POP SWAP2 SWAP1 POP JUMP JUMPDEST PUSH1 0x0 DUP2 SWAP1 POP SWAP2 SWAP1 POP JUMP JUMPDEST PUSH1 0x0 DUP1 REVERT JUMPDEST PUSH2 0x222 DUP2 PUSH2 0x1CC JUMP JUMPDEST DUP2 EQ PUSH2 0x22D JUMPI PUSH1 0x0 DUP1 REVERT JUMPDEST POP JUMP JUMPDEST PUSH2 0x239 DUP2 PUSH2 0x20A JUMP JUMPDEST DUP2 EQ PUSH2 0x244 JUMPI PUSH1 0x0 DUP1 REVERT JUMPDEST POP JUMP INVALID LOG2 PUSH5 0x6970667358 0x22 SLT KECCAK256 ADD SWAP13 0xD2 PUSH20 0x227DE1D0D5CBCD5C85E6C23309E2B2E1EDB74DEB 0xD LOG2 EQ GAS 0xD7 0x4A 0xDB 0xA9 PUSH5 0x736F6C6343 STOP ADDMOD SMOD STOP CALLER "
				},
				"gasEstimates": {
					"creation": {
						"codeDepositCost": "127400",
						"executionCost": "171",
						"totalCost": "127571"
					},
					"external": {
						"getBalance()": "317",
						"transferEth(address,uint256)": "infinite"
					}
				},
				"methodIdentifiers": {
					"getBalance()": "12065fe0",
					"transferEth(address,uint256)": "e9bb84c2"
				}
			},
			"storageLayout": {
				"storage": [],
				"types": null
			},
			"userdoc": {
				"kind": "user",
				"methods": {},
				"version": 1
			}
		}
	}
}