{
	"contracts/Crowdfunding.sol": {
		"CrowdFunding": {
			"abi": [
				{
					"inputs": [
						{
							"internalType": "uint256",
							"name": "_goal",
							"type": "uint256"
						},
						{
							"internalType": "uint256",
							"name": "_deadLine",
							"type": "uint256"
						}
					],
					"stateMutability": "nonpayable",
					"type": "constructor"
				},
				{
					"inputs": [],
					"name": "admin",
					"outputs": [
						{
							"internalType": "address",
							"name": "",
							"type": "address"
						}
					],
					"stateMutability": "view",
					"type": "function"
				},
				{
					"inputs": [],
					"name": "contribute",
					"outputs": [],
					"stateMutability": "payable",
					"type": "function"
				},
				{
					"inputs": [
						{
							"internalType": "address",
							"name": "",
							"type": "address"
						}
					],
					"name": "contributors",
					"outputs": [
						{
							"internalType": "uint256",
							"name": "",
							"type": "uint256"
						}
					],
					"stateMutability": "view",
					"type": "function"
				},
				{
					"inputs": [
						{
							"internalType": "string",
							"name": "description",
							"type": "string"
						},
						{
							"internalType": "uint256",
							"name": "_amount",
							"type": "uint256"
						},
						{
							"internalType": "address payable",
							"name": "receiptient",
							"type": "address"
						}
					],
					"name": "createRequest",
					"outputs": [],
					"stateMutability": "nonpayable",
					"type": "function"
				},
				{
					"inputs": [],
					"name": "deadLine",
					"outputs": [
						{
							"internalType": "uint256",
							"name": "",
							"type": "uint256"
						}
					],
					"stateMutability": "view",
					"type": "function"
				},
				{
					"inputs": [],
					"name": "getBalance",
					"outputs": [
						{
							"internalType": "uint256",
							"name": "",
							"type": "uint256"
						}
					],
					"stateMutability": "view",
					"type": "function"
				},
				{
					"inputs": [],
					"name": "getRefund",
					"outputs": [],
					"stateMutability": "nonpayable",
					"type": "function"
				},
				{
					"inputs": [],
					"name": "goal",
					"outputs": [
						{
							"internalType": "uint256",
							"name": "",
							"type": "uint256"
						}
					],
					"stateMutability": "view",
					"type": "function"
				},
				{
					"inputs": [],
					"name": "minimumAmount",
					"outputs": [
						{
							"internalType": "uint256",
							"name": "",
							"type": "uint256"
						}
					],
					"stateMutability": "view",
					"type": "function"
				},
				{
					"inputs": [],
					"name": "numberOfContributors",
					"outputs": [
						{
							"internalType": "uint256",
							"name": "",
							"type": "uint256"
						}
					],
					"stateMutability": "view",
					"type": "function"
				},
				{
					"inputs": [],
					"name": "totalAmount",
					"outputs": [
						{
							"internalType": "uint256",
							"name": "",
							"type": "uint256"
						}
					],
					"stateMutability": "view",
					"type": "function"
				},
				{
					"stateMutability": "payable",
					"type": "receive"
				}
			],
			"devdoc": {
				"kind": "dev",
				"methods": {},
				"version": 1
			},
			"evm": {
				"assembly": "    /* \"contracts/Crowdfunding.sol\":74:2742  contract CrowdFunding{\r... */\n  mstore(0x40, 0x80)\n    /* \"contracts/Crowdfunding.sol\":940:1124  constructor(uint _goal, uint _deadLine){\r... */\n  callvalue\n  dup1\n  iszero\n  tag_1\n  jumpi\n  0x00\n  dup1\n  revert\ntag_1:\n  pop\n  mload(0x40)\n  sub(codesize, bytecodeSize)\n  dup1\n  bytecodeSize\n  dup4\n  codecopy\n  dup2\n  dup2\n  add\n  0x40\n  mstore\n  dup2\n  add\n  swap1\n  tag_2\n  swap2\n  swap1\n  tag_3\n  jump\t// in\ntag_2:\n    /* \"contracts/Crowdfunding.sol\":997:1002  _goal */\n  dup2\n    /* \"contracts/Crowdfunding.sol\":990:994  goal */\n  0x02\n    /* \"contracts/Crowdfunding.sol\":990:1002  goal = _goal */\n  dup2\n  swap1\n  sstore\n  pop\n    /* \"contracts/Crowdfunding.sol\":1042:1051  _deadLine */\n  dup1\n    /* \"contracts/Crowdfunding.sol\":1024:1039  block.timestamp */\n  timestamp\n    /* \"contracts/Crowdfunding.sol\":1024:1051  block.timestamp + _deadLine */\n  tag_6\n  swap2\n  swap1\n  tag_7\n  jump\t// in\ntag_6:\n    /* \"contracts/Crowdfunding.sol\":1013:1021  deadLine */\n  0x03\n    /* \"contracts/Crowdfunding.sol\":1013:1051  deadLine = block.timestamp + _deadLine */\n  dup2\n  swap1\n  sstore\n  pop\n    /* \"contracts/Crowdfunding.sol\":1070:1080  msg.sender */\n  caller\n    /* \"contracts/Crowdfunding.sol\":1062:1067  admin */\n  0x01\n  0x00\n    /* \"contracts/Crowdfunding.sol\":1062:1080  admin = msg.sender */\n  0x0100\n  exp\n  dup2\n  sload\n  dup2\n  0xffffffffffffffffffffffffffffffffffffffff\n  mul\n  not\n  and\n  swap1\n  dup4\n  0xffffffffffffffffffffffffffffffffffffffff\n  and\n  mul\n  or\n  swap1\n  sstore\n  pop\n    /* \"contracts/Crowdfunding.sol\":1107:1116  100 ether */\n  0x056bc75e2d63100000\n    /* \"contracts/Crowdfunding.sol\":1091:1104  minimumAmount */\n  0x04\n    /* \"contracts/Crowdfunding.sol\":1091:1116  minimumAmount = 100 ether */\n  dup2\n  swap1\n  sstore\n  pop\n    /* \"contracts/Crowdfunding.sol\":940:1124  constructor(uint _goal, uint _deadLine){\r... */\n  pop\n  pop\n    /* \"contracts/Crowdfunding.sol\":74:2742  contract CrowdFunding{\r... */\n  jump(tag_8)\n    /* \"#utility.yul\":7:150   */\ntag_10:\n    /* \"#utility.yul\":64:69   */\n  0x00\n    /* \"#utility.yul\":95:101   */\n  dup2\n    /* \"#utility.yul\":89:102   */\n  mload\n    /* \"#utility.yul\":80:102   */\n  swap1\n  pop\n    /* \"#utility.yul\":111:144   */\n  tag_12\n    /* \"#utility.yul\":138:143   */\n  dup2\n    /* \"#utility.yul\":111:144   */\n  tag_13\n  jump\t// in\ntag_12:\n    /* \"#utility.yul\":7:150   */\n  swap3\n  swap2\n  pop\n  pop\n  jump\t// out\n    /* \"#utility.yul\":156:663   */\ntag_3:\n    /* \"#utility.yul\":235:241   */\n  0x00\n    /* \"#utility.yul\":243:249   */\n  dup1\n    /* \"#utility.yul\":292:294   */\n  0x40\n    /* \"#utility.yul\":280:289   */\n  dup4\n    /* \"#utility.yul\":271:278   */\n  dup6\n    /* \"#utility.yul\":267:290   */\n  sub\n    /* \"#utility.yul\":263:295   */\n  slt\n    /* \"#utility.yul\":260:379   */\n  iszero\n  tag_15\n  jumpi\n    /* \"#utility.yul\":298:377   */\n  tag_16\n  tag_17\n  jump\t// in\ntag_16:\n    /* \"#utility.yul\":260:379   */\ntag_15:\n    /* \"#utility.yul\":418:419   */\n  0x00\n    /* \"#utility.yul\":443:507   */\n  tag_18\n    /* \"#utility.yul\":499:506   */\n  dup6\n    /* \"#utility.yul\":490:496   */\n  dup3\n    /* \"#utility.yul\":479:488   */\n  dup7\n    /* \"#utility.yul\":475:497   */\n  add\n    /* \"#utility.yul\":443:507   */\n  tag_10\n  jump\t// in\ntag_18:\n    /* \"#utility.yul\":433:507   */\n  swap3\n  pop\n    /* \"#utility.yul\":389:517   */\n  pop\n    /* \"#utility.yul\":556:558   */\n  0x20\n    /* \"#utility.yul\":582:646   */\n  tag_19\n    /* \"#utility.yul\":638:645   */\n  dup6\n    /* \"#utility.yul\":629:635   */\n  dup3\n    /* \"#utility.yul\":618:627   */\n  dup7\n    /* \"#utility.yul\":614:636   */\n  add\n    /* \"#utility.yul\":582:646   */\n  tag_10\n  jump\t// in\ntag_19:\n    /* \"#utility.yul\":572:646   */\n  swap2\n  pop\n    /* \"#utility.yul\":527:656   */\n  pop\n    /* \"#utility.yul\":156:663   */\n  swap3\n  pop\n  swap3\n  swap1\n  pop\n  jump\t// out\n    /* \"#utility.yul\":750:1055   */\ntag_7:\n    /* \"#utility.yul\":790:793   */\n  0x00\n    /* \"#utility.yul\":809:829   */\n  tag_23\n    /* \"#utility.yul\":827:828   */\n  dup3\n    /* \"#utility.yul\":809:829   */\n  tag_24\n  jump\t// in\ntag_23:\n    /* \"#utility.yul\":804:829   */\n  swap2\n  pop\n    /* \"#utility.yul\":843:863   */\n  tag_25\n    /* \"#utility.yul\":861:862   */\n  dup4\n    /* \"#utility.yul\":843:863   */\n  tag_24\n  jump\t// in\ntag_25:\n    /* \"#utility.yul\":838:863   */\n  swap3\n  pop\n    /* \"#utility.yul\":997:998   */\n  dup3\n    /* \"#utility.yul\":929:995   */\n  0xffffffffffffffffffffffffffffffffffffffffffffffffffffffffffffffff\n    /* \"#utility.yul\":925:999   */\n  sub\n    /* \"#utility.yul\":922:923   */\n  dup3\n    /* \"#utility.yul\":919:1000   */\n  gt\n    /* \"#utility.yul\":916:1023   */\n  iszero\n  tag_26\n  jumpi\n    /* \"#utility.yul\":1003:1021   */\n  tag_27\n  tag_28\n  jump\t// in\ntag_27:\n    /* \"#utility.yul\":916:1023   */\ntag_26:\n    /* \"#utility.yul\":1047:1048   */\n  dup3\n    /* \"#utility.yul\":1044:1045   */\n  dup3\n    /* \"#utility.yul\":1040:1049   */\n  add\n    /* \"#utility.yul\":1033:1049   */\n  swap1\n  pop\n    /* \"#utility.yul\":750:1055   */\n  swap3\n  swap2\n  pop\n  pop\n  jump\t// out\n    /* \"#utility.yul\":1061:1138   */\ntag_24:\n    /* \"#utility.yul\":1098:1105   */\n  0x00\n    /* \"#utility.yul\":1127:1132   */\n  dup2\n    /* \"#utility.yul\":1116:1132   */\n  swap1\n  pop\n    /* \"#utility.yul\":1061:1138   */\n  swap2\n  swap1\n  pop\n  jump\t// out\n    /* \"#utility.yul\":1144:1324   */\ntag_28:\n    /* \"#utility.yul\":1192:1269   */\n  0x4e487b7100000000000000000000000000000000000000000000000000000000\n    /* \"#utility.yul\":1189:1190   */\n  0x00\n    /* \"#utility.yul\":1182:1270   */\n  mstore\n    /* \"#utility.yul\":1289:1293   */\n  0x11\n    /* \"#utility.yul\":1286:1287   */\n  0x04\n    /* \"#utility.yul\":1279:1294   */\n  mstore\n    /* \"#utility.yul\":1313:1317   */\n  0x24\n    /* \"#utility.yul\":1310:1311   */\n  0x00\n    /* \"#utility.yul\":1303:1318   */\n  revert\n    /* \"#utility.yul\":1453:1570   */\ntag_17:\n    /* \"#utility.yul\":1562:1563   */\n  0x00\n    /* \"#utility.yul\":1559:1560   */\n  dup1\n    /* \"#utility.yul\":1552:1564   */\n  revert\n    /* \"#utility.yul\":1576:1698   */\ntag_13:\n    /* \"#utility.yul\":1649:1673   */\n  tag_35\n    /* \"#utility.yul\":1667:1672   */\n  dup2\n    /* \"#utility.yul\":1649:1673   */\n  tag_24\n  jump\t// in\ntag_35:\n    /* \"#utility.yul\":1642:1647   */\n  dup2\n    /* \"#utility.yul\":1639:1674   */\n  eq\n    /* \"#utility.yul\":1629:1692   */\n  tag_36\n  jumpi\n    /* \"#utility.yul\":1688:1689   */\n  0x00\n    /* \"#utility.yul\":1685:1686   */\n  dup1\n    /* \"#utility.yul\":1678:1690   */\n  revert\n    /* \"#utility.yul\":1629:1692   */\ntag_36:\n    /* \"#utility.yul\":1576:1698   */\n  pop\n  jump\t// out\n    /* \"contracts/Crowdfunding.sol\":74:2742  contract CrowdFunding{\r... */\ntag_8:\n  dataSize(sub_0)\n  dup1\n  dataOffset(sub_0)\n  0x00\n  codecopy\n  0x00\n  return\nstop\n\nsub_0: assembly {\n        /* \"contracts/Crowdfunding.sol\":74:2742  contract CrowdFunding{\r... */\n      mstore(0x40, 0x80)\n      jumpi(tag_1, lt(calldatasize, 0x04))\n      shr(0xe0, calldataload(0x00))\n      dup1\n      0x8a9cfd55\n      gt\n      tag_14\n      jumpi\n      dup1\n      0x8a9cfd55\n      eq\n      tag_8\n      jumpi\n      dup1\n      0xb2d5ae44\n      eq\n      tag_9\n      jumpi\n      dup1\n      0xbb0c8298\n      eq\n      tag_10\n      jumpi\n      dup1\n      0xbef3a083\n      eq\n      tag_11\n      jumpi\n      dup1\n      0xd7bb99ba\n      eq\n      tag_12\n      jumpi\n      dup1\n      0xf851a440\n      eq\n      tag_13\n      jumpi\n      jump(tag_2)\n    tag_14:\n      dup1\n      0x12065fe0\n      eq\n      tag_3\n      jumpi\n      dup1\n      0x1a39d8ef\n      eq\n      tag_4\n      jumpi\n      dup1\n      0x1f6d4942\n      eq\n      tag_5\n      jumpi\n      dup1\n      0x40193883\n      eq\n      tag_6\n      jumpi\n      dup1\n      0x4377cf65\n      eq\n      tag_7\n      jumpi\n      jump(tag_2)\n    tag_1:\n      jumpi(tag_2, calldatasize)\n        /* \"contracts/Crowdfunding.sol\":1955:1967  contribute() */\n      tag_17\n        /* \"contracts/Crowdfunding.sol\":1955:1965  contribute */\n      tag_18\n        /* \"contracts/Crowdfunding.sol\":1955:1967  contribute() */\n      jump\t// in\n    tag_17:\n        /* \"contracts/Crowdfunding.sol\":74:2742  contract CrowdFunding{\r... */\n      stop\n    tag_2:\n      0x00\n      dup1\n      revert\n        /* \"contracts/Crowdfunding.sol\":1983:2077  function getBalance() public view returns(uint){\r... */\n    tag_3:\n      callvalue\n      dup1\n      iszero\n      tag_19\n      jumpi\n      0x00\n      dup1\n      revert\n    tag_19:\n      pop\n      tag_20\n      tag_21\n      jump\t// in\n    tag_20:\n      mload(0x40)\n      tag_22\n      swap2\n      swap1\n      tag_23\n      jump\t// in\n    tag_22:\n      mload(0x40)\n      dup1\n      swap2\n      sub\n      swap1\n      return\n        /* \"contracts/Crowdfunding.sol\":573:596  uint public totalAmount */\n    tag_4:\n      callvalue\n      dup1\n      iszero\n      tag_24\n      jumpi\n      0x00\n      dup1\n      revert\n    tag_24:\n      pop\n      tag_25\n      tag_26\n      jump\t// in\n    tag_25:\n      mload(0x40)\n      tag_27\n      swap2\n      swap1\n      tag_23\n      jump\t// in\n    tag_27:\n      mload(0x40)\n      dup1\n      swap2\n      sub\n      swap1\n      return\n        /* \"contracts/Crowdfunding.sol\":161:205  mapping(address => uint) public contributors */\n    tag_5:\n      callvalue\n      dup1\n      iszero\n      tag_28\n      jumpi\n      0x00\n      dup1\n      revert\n    tag_28:\n      pop\n      tag_29\n      0x04\n      dup1\n      calldatasize\n      sub\n      dup2\n      add\n      swap1\n      tag_30\n      swap2\n      swap1\n      tag_31\n      jump\t// in\n    tag_30:\n      tag_32\n      jump\t// in\n    tag_29:\n      mload(0x40)\n      tag_33\n      swap2\n      swap1\n      tag_23\n      jump\t// in\n    tag_33:\n      mload(0x40)\n      dup1\n      swap2\n      sub\n      swap1\n      return\n        /* \"contracts/Crowdfunding.sol\":354:370  uint public goal */\n    tag_6:\n      callvalue\n      dup1\n      iszero\n      tag_34\n      jumpi\n      0x00\n      dup1\n      revert\n    tag_34:\n      pop\n      tag_35\n      tag_36\n      jump\t// in\n    tag_35:\n      mload(0x40)\n      tag_37\n      swap2\n      swap1\n      tag_23\n      jump\t// in\n    tag_37:\n      mload(0x40)\n      dup1\n      swap2\n      sub\n      swap1\n      return\n        /* \"contracts/Crowdfunding.sol\":633:665  uint public numberOfContributors */\n    tag_7:\n      callvalue\n      dup1\n      iszero\n      tag_38\n      jumpi\n      0x00\n      dup1\n      revert\n    tag_38:\n      pop\n      tag_39\n      tag_40\n      jump\t// in\n    tag_39:\n      mload(0x40)\n      tag_41\n      swap2\n      swap1\n      tag_23\n      jump\t// in\n    tag_41:\n      mload(0x40)\n      dup1\n      swap2\n      sub\n      swap1\n      return\n        /* \"contracts/Crowdfunding.sol\":2617:2737  function createRequest(string memory description, uint _amount, address payable receiptient) public onlyOwner {\r... */\n    tag_8:\n      callvalue\n      dup1\n      iszero\n      tag_42\n      jumpi\n      0x00\n      dup1\n      revert\n    tag_42:\n      pop\n      tag_43\n      0x04\n      dup1\n      calldatasize\n      sub\n      dup2\n      add\n      swap1\n      tag_44\n      swap2\n      swap1\n      tag_45\n      jump\t// in\n    tag_44:\n      tag_46\n      jump\t// in\n    tag_43:\n      stop\n        /* \"contracts/Crowdfunding.sol\":2085:2523  function getRefund() public  {\r... */\n    tag_9:\n      callvalue\n      dup1\n      iszero\n      tag_47\n      jumpi\n      0x00\n      dup1\n      revert\n    tag_47:\n      pop\n      tag_48\n      tag_49\n      jump\t// in\n    tag_48:\n      stop\n        /* \"contracts/Crowdfunding.sol\":500:525  uint public minimumAmount */\n    tag_10:\n      callvalue\n      dup1\n      iszero\n      tag_50\n      jumpi\n      0x00\n      dup1\n      revert\n    tag_50:\n      pop\n      tag_51\n      tag_52\n      jump\t// in\n    tag_51:\n      mload(0x40)\n      tag_53\n      swap2\n      swap1\n      tag_23\n      jump\t// in\n    tag_53:\n      mload(0x40)\n      dup1\n      swap2\n      sub\n      swap1\n      return\n        /* \"contracts/Crowdfunding.sol\":420:440  uint public deadLine */\n    tag_11:\n      callvalue\n      dup1\n      iszero\n      tag_54\n      jumpi\n      0x00\n      dup1\n      revert\n    tag_54:\n      pop\n      tag_55\n      tag_56\n      jump\t// in\n    tag_55:\n      mload(0x40)\n      tag_57\n      swap2\n      swap1\n      tag_23\n      jump\t// in\n    tag_57:\n      mload(0x40)\n      dup1\n      swap2\n      sub\n      swap1\n      return\n        /* \"contracts/Crowdfunding.sol\":1132:1909  function contribute() public payable{\r... */\n    tag_12:\n      tag_58\n      tag_18\n      jump\t// in\n    tag_58:\n      stop\n        /* \"contracts/Crowdfunding.sol\":240:260  address public admin */\n    tag_13:\n      callvalue\n      dup1\n      iszero\n      tag_59\n      jumpi\n      0x00\n      dup1\n      revert\n    tag_59:\n      pop\n      tag_60\n      tag_61\n      jump\t// in\n    tag_60:\n      mload(0x40)\n      tag_62\n      swap2\n      swap1\n      tag_63\n      jump\t// in\n    tag_62:\n      mload(0x40)\n      dup1\n      swap2\n      sub\n      swap1\n      return\n        /* \"contracts/Crowdfunding.sol\":1132:1909  function contribute() public payable{\r... */\n    tag_18:\n        /* \"contracts/Crowdfunding.sol\":1285:1298  minimumAmount */\n      sload(0x04)\n        /* \"contracts/Crowdfunding.sol\":1272:1281  msg.value */\n      callvalue\n        /* \"contracts/Crowdfunding.sol\":1272:1298  msg.value >= minimumAmount */\n      lt\n      iszero\n        /* \"contracts/Crowdfunding.sol\":1264:1349  require(msg.value >= minimumAmount, \"Amount must be greater than the minimum amount\") */\n      tag_65\n      jumpi\n      mload(0x40)\n      0x08c379a000000000000000000000000000000000000000000000000000000000\n      dup2\n      mstore\n      0x04\n      add\n      tag_66\n      swap1\n      tag_67\n      jump\t// in\n    tag_66:\n      mload(0x40)\n      dup1\n      swap2\n      sub\n      swap1\n      revert\n    tag_65:\n        /* \"contracts/Crowdfunding.sol\":1433:1437  goal */\n      sload(0x02)\n        /* \"contracts/Crowdfunding.sol\":1419:1430  totalAmount */\n      sload(0x05)\n        /* \"contracts/Crowdfunding.sol\":1419:1437  totalAmount < goal */\n      lt\n        /* \"contracts/Crowdfunding.sol\":1411:1475  require(totalAmount < goal, \"Goal for funding has been reached\") */\n      tag_68\n      jumpi\n      mload(0x40)\n      0x08c379a000000000000000000000000000000000000000000000000000000000\n      dup2\n      mstore\n      0x04\n      add\n      tag_69\n      swap1\n      tag_70\n      jump\t// in\n    tag_69:\n      mload(0x40)\n      dup1\n      swap2\n      sub\n      swap1\n      revert\n    tag_68:\n        /* \"contracts/Crowdfunding.sol\":1547:1555  deadLine */\n      sload(0x03)\n        /* \"contracts/Crowdfunding.sol\":1529:1544  block.timestamp */\n      timestamp\n        /* \"contracts/Crowdfunding.sol\":1529:1555  block.timestamp < deadLine */\n      lt\n        /* \"contracts/Crowdfunding.sol\":1521:1597  require(block.timestamp < deadLine, \"Time frame set for unding has elasped\") */\n      tag_71\n      jumpi\n      mload(0x40)\n      0x08c379a000000000000000000000000000000000000000000000000000000000\n      dup2\n      mstore\n      0x04\n      add\n      tag_72\n      swap1\n      tag_73\n      jump\t// in\n    tag_72:\n      mload(0x40)\n      dup1\n      swap2\n      sub\n      swap1\n      revert\n    tag_71:\n        /* \"contracts/Crowdfunding.sol\":1649:1650  0 */\n      0x00\n        /* \"contracts/Crowdfunding.sol\":1621:1633  contributors */\n      dup1\n        /* \"contracts/Crowdfunding.sol\":1621:1645  contributors[msg.sender] */\n      0x00\n        /* \"contracts/Crowdfunding.sol\":1634:1644  msg.sender */\n      caller\n        /* \"contracts/Crowdfunding.sol\":1621:1645  contributors[msg.sender] */\n      0xffffffffffffffffffffffffffffffffffffffff\n      and\n      0xffffffffffffffffffffffffffffffffffffffff\n      and\n      dup2\n      mstore\n      0x20\n      add\n      swap1\n      dup2\n      mstore\n      0x20\n      add\n      0x00\n      keccak256\n      sload\n        /* \"contracts/Crowdfunding.sol\":1621:1650  contributors[msg.sender] == 0 */\n      eq\n        /* \"contracts/Crowdfunding.sol\":1618:1700  if(contributors[msg.sender] == 0){\r... */\n      iszero\n      tag_74\n      jumpi\n        /* \"contracts/Crowdfunding.sol\":1666:1686  numberOfContributors */\n      0x06\n      0x00\n        /* \"contracts/Crowdfunding.sol\":1666:1688  numberOfContributors++ */\n      dup2\n      sload\n      dup1\n      swap3\n      swap2\n      swap1\n      tag_75\n      swap1\n      tag_76\n      jump\t// in\n    tag_75:\n      swap2\n      swap1\n      pop\n      sstore\n      pop\n        /* \"contracts/Crowdfunding.sol\":1618:1700  if(contributors[msg.sender] == 0){\r... */\n    tag_74:\n        /* \"contracts/Crowdfunding.sol\":1791:1800  msg.value */\n      callvalue\n        /* \"contracts/Crowdfunding.sol\":1763:1775  contributors */\n      0x00\n        /* \"contracts/Crowdfunding.sol\":1763:1787  contributors[msg.sender] */\n      dup1\n        /* \"contracts/Crowdfunding.sol\":1776:1786  msg.sender */\n      caller\n        /* \"contracts/Crowdfunding.sol\":1763:1787  contributors[msg.sender] */\n      0xffffffffffffffffffffffffffffffffffffffff\n      and\n      0xffffffffffffffffffffffffffffffffffffffff\n      and\n      dup2\n      mstore\n      0x20\n      add\n      swap1\n      dup2\n      mstore\n      0x20\n      add\n      0x00\n      keccak256\n      0x00\n        /* \"contracts/Crowdfunding.sol\":1763:1800  contributors[msg.sender] += msg.value */\n      dup3\n      dup3\n      sload\n      tag_77\n      swap2\n      swap1\n      tag_78\n      jump\t// in\n    tag_77:\n      swap3\n      pop\n      pop\n      dup2\n      swap1\n      sstore\n      pop\n        /* \"contracts/Crowdfunding.sol\":1890:1899  msg.value */\n      callvalue\n        /* \"contracts/Crowdfunding.sol\":1875:1886  totalAmount */\n      0x05\n      0x00\n        /* \"contracts/Crowdfunding.sol\":1875:1899  totalAmount += msg.value */\n      dup3\n      dup3\n      sload\n      tag_79\n      swap2\n      swap1\n      tag_78\n      jump\t// in\n    tag_79:\n      swap3\n      pop\n      pop\n      dup2\n      swap1\n      sstore\n      pop\n        /* \"contracts/Crowdfunding.sol\":1132:1909  function contribute() public payable{\r... */\n      jump\t// out\n        /* \"contracts/Crowdfunding.sol\":1983:2077  function getBalance() public view returns(uint){\r... */\n    tag_21:\n        /* \"contracts/Crowdfunding.sol\":2025:2029  uint */\n      0x00\n        /* \"contracts/Crowdfunding.sol\":2048:2069  address(this).balance */\n      selfbalance\n        /* \"contracts/Crowdfunding.sol\":2041:2069  return address(this).balance */\n      swap1\n      pop\n        /* \"contracts/Crowdfunding.sol\":1983:2077  function getBalance() public view returns(uint){\r... */\n      swap1\n      jump\t// out\n        /* \"contracts/Crowdfunding.sol\":573:596  uint public totalAmount */\n    tag_26:\n      sload(0x05)\n      dup2\n      jump\t// out\n        /* \"contracts/Crowdfunding.sol\":161:205  mapping(address => uint) public contributors */\n    tag_32:\n      mstore(0x20, 0x00)\n      dup1\n      0x00\n      mstore\n      keccak256(0x00, 0x40)\n      0x00\n      swap2\n      pop\n      swap1\n      pop\n      sload\n      dup2\n      jump\t// out\n        /* \"contracts/Crowdfunding.sol\":354:370  uint public goal */\n    tag_36:\n      sload(0x02)\n      dup2\n      jump\t// out\n        /* \"contracts/Crowdfunding.sol\":633:665  uint public numberOfContributors */\n    tag_40:\n      sload(0x06)\n      dup2\n      jump\t// out\n        /* \"contracts/Crowdfunding.sol\":2617:2737  function createRequest(string memory description, uint _amount, address payable receiptient) public onlyOwner {\r... */\n    tag_46:\n        /* \"contracts/Crowdfunding.sol\":2585:2590  admin */\n      0x01\n      0x00\n      swap1\n      sload\n      swap1\n      0x0100\n      exp\n      swap1\n      div\n      0xffffffffffffffffffffffffffffffffffffffff\n      and\n        /* \"contracts/Crowdfunding.sol\":2571:2590  msg.sender == admin */\n      0xffffffffffffffffffffffffffffffffffffffff\n      and\n        /* \"contracts/Crowdfunding.sol\":2571:2581  msg.sender */\n      caller\n        /* \"contracts/Crowdfunding.sol\":2571:2590  msg.sender == admin */\n      0xffffffffffffffffffffffffffffffffffffffff\n      and\n      eq\n        /* \"contracts/Crowdfunding.sol\":2563:2591  require(msg.sender == admin) */\n      tag_82\n      jumpi\n      0x00\n      dup1\n      revert\n    tag_82:\n        /* \"contracts/Crowdfunding.sol\":2617:2737  function createRequest(string memory description, uint _amount, address payable receiptient) public onlyOwner {\r... */\n      pop\n      pop\n      pop\n      jump\t// out\n        /* \"contracts/Crowdfunding.sol\":2085:2523  function getRefund() public  {\r... */\n    tag_49:\n        /* \"contracts/Crowdfunding.sol\":2160:2161  0 */\n      0x00\n        /* \"contracts/Crowdfunding.sol\":2133:2145  contributors */\n      dup1\n        /* \"contracts/Crowdfunding.sol\":2133:2157  contributors[msg.sender] */\n      0x00\n        /* \"contracts/Crowdfunding.sol\":2146:2156  msg.sender */\n      caller\n        /* \"contracts/Crowdfunding.sol\":2133:2157  contributors[msg.sender] */\n      0xffffffffffffffffffffffffffffffffffffffff\n      and\n      0xffffffffffffffffffffffffffffffffffffffff\n      and\n      dup2\n      mstore\n      0x20\n      add\n      swap1\n      dup2\n      mstore\n      0x20\n      add\n      0x00\n      keccak256\n      sload\n        /* \"contracts/Crowdfunding.sol\":2133:2161  contributors[msg.sender] > 0 */\n      gt\n        /* \"contracts/Crowdfunding.sol\":2125:2201  require(contributors[msg.sender] > 0, \"You are not an existing contributor\") */\n      tag_85\n      jumpi\n      mload(0x40)\n      0x08c379a000000000000000000000000000000000000000000000000000000000\n      dup2\n      mstore\n      0x04\n      add\n      tag_86\n      swap1\n      tag_87\n      jump\t// in\n    tag_86:\n      mload(0x40)\n      dup1\n      swap2\n      sub\n      swap1\n      revert\n    tag_85:\n        /* \"contracts/Crowdfunding.sol\":2313:2321  deadLine */\n      sload(0x03)\n        /* \"contracts/Crowdfunding.sol\":2294:2309  block.timestamp */\n      timestamp\n        /* \"contracts/Crowdfunding.sol\":2294:2321  block.timestamp >= deadLine */\n      lt\n      iszero\n        /* \"contracts/Crowdfunding.sol\":2294:2343  block.timestamp >= deadLine && totalAmount < goal */\n      dup1\n      iszero\n      tag_88\n      jumpi\n      pop\n        /* \"contracts/Crowdfunding.sol\":2339:2343  goal */\n      sload(0x02)\n        /* \"contracts/Crowdfunding.sol\":2325:2336  totalAmount */\n      sload(0x05)\n        /* \"contracts/Crowdfunding.sol\":2325:2343  totalAmount < goal */\n      lt\n        /* \"contracts/Crowdfunding.sol\":2294:2343  block.timestamp >= deadLine && totalAmount < goal */\n    tag_88:\n        /* \"contracts/Crowdfunding.sol\":2286:2383  require(block.timestamp >= deadLine && totalAmount < goal, \"Funding time frame is yet to expire\") */\n      tag_89\n      jumpi\n      mload(0x40)\n      0x08c379a000000000000000000000000000000000000000000000000000000000\n      dup2\n      mstore\n      0x04\n      add\n      tag_90\n      swap1\n      tag_91\n      jump\t// in\n    tag_90:\n      mload(0x40)\n      dup1\n      swap2\n      sub\n      swap1\n      revert\n    tag_89:\n        /* \"contracts/Crowdfunding.sol\":2428:2438  msg.sender */\n      caller\n        /* \"contracts/Crowdfunding.sol\":2420:2448  payable(msg.sender).transfer */\n      0xffffffffffffffffffffffffffffffffffffffff\n      and\n        /* \"contracts/Crowdfunding.sol\":2420:2474  payable(msg.sender).transfer(contributors[msg.sender]) */\n      0x08fc\n        /* \"contracts/Crowdfunding.sol\":2449:2461  contributors */\n      0x00\n        /* \"contracts/Crowdfunding.sol\":2449:2473  contributors[msg.sender] */\n      dup1\n        /* \"contracts/Crowdfunding.sol\":2462:2472  msg.sender */\n      caller\n        /* \"contracts/Crowdfunding.sol\":2449:2473  contributors[msg.sender] */\n      0xffffffffffffffffffffffffffffffffffffffff\n      and\n      0xffffffffffffffffffffffffffffffffffffffff\n      and\n      dup2\n      mstore\n      0x20\n      add\n      swap1\n      dup2\n      mstore\n      0x20\n      add\n      0x00\n      keccak256\n      sload\n        /* \"contracts/Crowdfunding.sol\":2420:2474  payable(msg.sender).transfer(contributors[msg.sender]) */\n      swap1\n      dup2\n      iszero\n      mul\n      swap1\n      mload(0x40)\n      0x00\n      mload(0x40)\n      dup1\n      dup4\n      sub\n      dup2\n      dup6\n      dup9\n      dup9\n      call\n      swap4\n      pop\n      pop\n      pop\n      pop\n      iszero\n      dup1\n      iszero\n      tag_93\n      jumpi\n      returndatasize\n      0x00\n      dup1\n      returndatacopy\n      revert(0x00, returndatasize)\n    tag_93:\n      pop\n        /* \"contracts/Crowdfunding.sol\":2514:2515  0 */\n      0x00\n        /* \"contracts/Crowdfunding.sol\":2487:2499  contributors */\n      dup1\n        /* \"contracts/Crowdfunding.sol\":2487:2511  contributors[msg.sender] */\n      0x00\n        /* \"contracts/Crowdfunding.sol\":2500:2510  msg.sender */\n      caller\n        /* \"contracts/Crowdfunding.sol\":2487:2511  contributors[msg.sender] */\n      0xffffffffffffffffffffffffffffffffffffffff\n      and\n      0xffffffffffffffffffffffffffffffffffffffff\n      and\n      dup2\n      mstore\n      0x20\n      add\n      swap1\n      dup2\n      mstore\n      0x20\n      add\n      0x00\n      keccak256\n        /* \"contracts/Crowdfunding.sol\":2487:2515  contributors[msg.sender] = 0 */\n      dup2\n      swap1\n      sstore\n      pop\n        /* \"contracts/Crowdfunding.sol\":2085:2523  function getRefund() public  {\r... */\n      jump\t// out\n        /* \"contracts/Crowdfunding.sol\":500:525  uint public minimumAmount */\n    tag_52:\n      sload(0x04)\n      dup2\n      jump\t// out\n        /* \"contracts/Crowdfunding.sol\":420:440  uint public deadLine */\n    tag_56:\n      sload(0x03)\n      dup2\n      jump\t// out\n        /* \"contracts/Crowdfunding.sol\":240:260  address public admin */\n    tag_61:\n      0x01\n      0x00\n      swap1\n      sload\n      swap1\n      0x0100\n      exp\n      swap1\n      div\n      0xffffffffffffffffffffffffffffffffffffffff\n      and\n      dup2\n      jump\t// out\n        /* \"#utility.yul\":7:419   */\n    tag_95:\n        /* \"#utility.yul\":85:90   */\n      0x00\n        /* \"#utility.yul\":110:176   */\n      tag_97\n        /* \"#utility.yul\":126:175   */\n      tag_98\n        /* \"#utility.yul\":168:174   */\n      dup5\n        /* \"#utility.yul\":126:175   */\n      tag_99\n      jump\t// in\n    tag_98:\n        /* \"#utility.yul\":110:176   */\n      tag_100\n      jump\t// in\n    tag_97:\n        /* \"#utility.yul\":101:176   */\n      swap1\n      pop\n        /* \"#utility.yul\":199:205   */\n      dup3\n        /* \"#utility.yul\":192:197   */\n      dup2\n        /* \"#utility.yul\":185:206   */\n      mstore\n        /* \"#utility.yul\":237:241   */\n      0x20\n        /* \"#utility.yul\":230:235   */\n      dup2\n        /* \"#utility.yul\":226:242   */\n      add\n        /* \"#utility.yul\":275:278   */\n      dup5\n        /* \"#utility.yul\":266:272   */\n      dup5\n        /* \"#utility.yul\":261:264   */\n      dup5\n        /* \"#utility.yul\":257:273   */\n      add\n        /* \"#utility.yul\":254:279   */\n      gt\n        /* \"#utility.yul\":251:363   */\n      iszero\n      tag_101\n      jumpi\n        /* \"#utility.yul\":282:361   */\n      tag_102\n      tag_103\n      jump\t// in\n    tag_102:\n        /* \"#utility.yul\":251:363   */\n    tag_101:\n        /* \"#utility.yul\":372:413   */\n      tag_104\n        /* \"#utility.yul\":406:412   */\n      dup5\n        /* \"#utility.yul\":401:404   */\n      dup3\n        /* \"#utility.yul\":396:399   */\n      dup6\n        /* \"#utility.yul\":372:413   */\n      tag_105\n      jump\t// in\n    tag_104:\n        /* \"#utility.yul\":91:419   */\n      pop\n        /* \"#utility.yul\":7:419   */\n      swap4\n      swap3\n      pop\n      pop\n      pop\n      jump\t// out\n        /* \"#utility.yul\":425:564   */\n    tag_106:\n        /* \"#utility.yul\":471:476   */\n      0x00\n        /* \"#utility.yul\":509:515   */\n      dup2\n        /* \"#utility.yul\":496:516   */\n      calldataload\n        /* \"#utility.yul\":487:516   */\n      swap1\n      pop\n        /* \"#utility.yul\":525:558   */\n      tag_108\n        /* \"#utility.yul\":552:557   */\n      dup2\n        /* \"#utility.yul\":525:558   */\n      tag_109\n      jump\t// in\n    tag_108:\n        /* \"#utility.yul\":425:564   */\n      swap3\n      swap2\n      pop\n      pop\n      jump\t// out\n        /* \"#utility.yul\":570:725   */\n    tag_110:\n        /* \"#utility.yul\":624:629   */\n      0x00\n        /* \"#utility.yul\":662:668   */\n      dup2\n        /* \"#utility.yul\":649:669   */\n      calldataload\n        /* \"#utility.yul\":640:669   */\n      swap1\n      pop\n        /* \"#utility.yul\":678:719   */\n      tag_112\n        /* \"#utility.yul\":713:718   */\n      dup2\n        /* \"#utility.yul\":678:719   */\n      tag_113\n      jump\t// in\n    tag_112:\n        /* \"#utility.yul\":570:725   */\n      swap3\n      swap2\n      pop\n      pop\n      jump\t// out\n        /* \"#utility.yul\":745:1085   */\n    tag_114:\n        /* \"#utility.yul\":801:806   */\n      0x00\n        /* \"#utility.yul\":850:853   */\n      dup3\n        /* \"#utility.yul\":843:847   */\n      0x1f\n        /* \"#utility.yul\":835:841   */\n      dup4\n        /* \"#utility.yul\":831:848   */\n      add\n        /* \"#utility.yul\":827:854   */\n      slt\n        /* \"#utility.yul\":817:939   */\n      tag_116\n      jumpi\n        /* \"#utility.yul\":858:937   */\n      tag_117\n      tag_118\n      jump\t// in\n    tag_117:\n        /* \"#utility.yul\":817:939   */\n    tag_116:\n        /* \"#utility.yul\":975:981   */\n      dup2\n        /* \"#utility.yul\":962:982   */\n      calldataload\n        /* \"#utility.yul\":1000:1079   */\n      tag_119\n        /* \"#utility.yul\":1075:1078   */\n      dup5\n        /* \"#utility.yul\":1067:1073   */\n      dup3\n        /* \"#utility.yul\":1060:1064   */\n      0x20\n        /* \"#utility.yul\":1052:1058   */\n      dup7\n        /* \"#utility.yul\":1048:1065   */\n      add\n        /* \"#utility.yul\":1000:1079   */\n      tag_95\n      jump\t// in\n    tag_119:\n        /* \"#utility.yul\":991:1079   */\n      swap2\n      pop\n        /* \"#utility.yul\":807:1085   */\n      pop\n        /* \"#utility.yul\":745:1085   */\n      swap3\n      swap2\n      pop\n      pop\n      jump\t// out\n        /* \"#utility.yul\":1091:1230   */\n    tag_120:\n        /* \"#utility.yul\":1137:1142   */\n      0x00\n        /* \"#utility.yul\":1175:1181   */\n      dup2\n        /* \"#utility.yul\":1162:1182   */\n      calldataload\n        /* \"#utility.yul\":1153:1182   */\n      swap1\n      pop\n        /* \"#utility.yul\":1191:1224   */\n      tag_122\n        /* \"#utility.yul\":1218:1223   */\n      dup2\n        /* \"#utility.yul\":1191:1224   */\n      tag_123\n      jump\t// in\n    tag_122:\n        /* \"#utility.yul\":1091:1230   */\n      swap3\n      swap2\n      pop\n      pop\n      jump\t// out\n        /* \"#utility.yul\":1236:1565   */\n    tag_31:\n        /* \"#utility.yul\":1295:1301   */\n      0x00\n        /* \"#utility.yul\":1344:1346   */\n      0x20\n        /* \"#utility.yul\":1332:1341   */\n      dup3\n        /* \"#utility.yul\":1323:1330   */\n      dup5\n        /* \"#utility.yul\":1319:1342   */\n      sub\n        /* \"#utility.yul\":1315:1347   */\n      slt\n        /* \"#utility.yul\":1312:1431   */\n      iszero\n      tag_125\n      jumpi\n        /* \"#utility.yul\":1350:1429   */\n      tag_126\n      tag_127\n      jump\t// in\n    tag_126:\n        /* \"#utility.yul\":1312:1431   */\n    tag_125:\n        /* \"#utility.yul\":1470:1471   */\n      0x00\n        /* \"#utility.yul\":1495:1548   */\n      tag_128\n        /* \"#utility.yul\":1540:1547   */\n      dup5\n        /* \"#utility.yul\":1531:1537   */\n      dup3\n        /* \"#utility.yul\":1520:1529   */\n      dup6\n        /* \"#utility.yul\":1516:1538   */\n      add\n        /* \"#utility.yul\":1495:1548   */\n      tag_106\n      jump\t// in\n    tag_128:\n        /* \"#utility.yul\":1485:1548   */\n      swap2\n      pop\n        /* \"#utility.yul\":1441:1558   */\n      pop\n        /* \"#utility.yul\":1236:1565   */\n      swap3\n      swap2\n      pop\n      pop\n      jump\t// out\n        /* \"#utility.yul\":1571:2386   */\n    tag_45:\n        /* \"#utility.yul\":1666:1672   */\n      0x00\n        /* \"#utility.yul\":1674:1680   */\n      dup1\n        /* \"#utility.yul\":1682:1688   */\n      0x00\n        /* \"#utility.yul\":1731:1733   */\n      0x60\n        /* \"#utility.yul\":1719:1728   */\n      dup5\n        /* \"#utility.yul\":1710:1717   */\n      dup7\n        /* \"#utility.yul\":1706:1729   */\n      sub\n        /* \"#utility.yul\":1702:1734   */\n      slt\n        /* \"#utility.yul\":1699:1818   */\n      iszero\n      tag_130\n      jumpi\n        /* \"#utility.yul\":1737:1816   */\n      tag_131\n      tag_127\n      jump\t// in\n    tag_131:\n        /* \"#utility.yul\":1699:1818   */\n    tag_130:\n        /* \"#utility.yul\":1885:1886   */\n      0x00\n        /* \"#utility.yul\":1874:1883   */\n      dup5\n        /* \"#utility.yul\":1870:1887   */\n      add\n        /* \"#utility.yul\":1857:1888   */\n      calldataload\n        /* \"#utility.yul\":1915:1933   */\n      0xffffffffffffffff\n        /* \"#utility.yul\":1907:1913   */\n      dup2\n        /* \"#utility.yul\":1904:1934   */\n      gt\n        /* \"#utility.yul\":1901:2018   */\n      iszero\n      tag_132\n      jumpi\n        /* \"#utility.yul\":1937:2016   */\n      tag_133\n      tag_134\n      jump\t// in\n    tag_133:\n        /* \"#utility.yul\":1901:2018   */\n    tag_132:\n        /* \"#utility.yul\":2042:2105   */\n      tag_135\n        /* \"#utility.yul\":2097:2104   */\n      dup7\n        /* \"#utility.yul\":2088:2094   */\n      dup3\n        /* \"#utility.yul\":2077:2086   */\n      dup8\n        /* \"#utility.yul\":2073:2095   */\n      add\n        /* \"#utility.yul\":2042:2105   */\n      tag_114\n      jump\t// in\n    tag_135:\n        /* \"#utility.yul\":2032:2105   */\n      swap4\n      pop\n        /* \"#utility.yul\":1828:2115   */\n      pop\n        /* \"#utility.yul\":2154:2156   */\n      0x20\n        /* \"#utility.yul\":2180:2233   */\n      tag_136\n        /* \"#utility.yul\":2225:2232   */\n      dup7\n        /* \"#utility.yul\":2216:2222   */\n      dup3\n        /* \"#utility.yul\":2205:2214   */\n      dup8\n        /* \"#utility.yul\":2201:2223   */\n      add\n        /* \"#utility.yul\":2180:2233   */\n      tag_120\n      jump\t// in\n    tag_136:\n        /* \"#utility.yul\":2170:2233   */\n      swap3\n      pop\n        /* \"#utility.yul\":2125:2243   */\n      pop\n        /* \"#utility.yul\":2282:2284   */\n      0x40\n        /* \"#utility.yul\":2308:2369   */\n      tag_137\n        /* \"#utility.yul\":2361:2368   */\n      dup7\n        /* \"#utility.yul\":2352:2358   */\n      dup3\n        /* \"#utility.yul\":2341:2350   */\n      dup8\n        /* \"#utility.yul\":2337:2359   */\n      add\n        /* \"#utility.yul\":2308:2369   */\n      tag_110\n      jump\t// in\n    tag_137:\n        /* \"#utility.yul\":2298:2369   */\n      swap2\n      pop\n        /* \"#utility.yul\":2253:2379   */\n      pop\n        /* \"#utility.yul\":1571:2386   */\n      swap3\n      pop\n      swap3\n      pop\n      swap3\n      jump\t// out\n        /* \"#utility.yul\":2392:2510   */\n    tag_138:\n        /* \"#utility.yul\":2479:2503   */\n      tag_140\n        /* \"#utility.yul\":2497:2502   */\n      dup2\n        /* \"#utility.yul\":2479:2503   */\n      tag_141\n      jump\t// in\n    tag_140:\n        /* \"#utility.yul\":2474:2477   */\n      dup3\n        /* \"#utility.yul\":2467:2504   */\n      mstore\n        /* \"#utility.yul\":2392:2510   */\n      pop\n      pop\n      jump\t// out\n        /* \"#utility.yul\":2516:2882   */\n    tag_142:\n        /* \"#utility.yul\":2658:2661   */\n      0x00\n        /* \"#utility.yul\":2679:2746   */\n      tag_144\n        /* \"#utility.yul\":2743:2745   */\n      0x21\n        /* \"#utility.yul\":2738:2741   */\n      dup4\n        /* \"#utility.yul\":2679:2746   */\n      tag_145\n      jump\t// in\n    tag_144:\n        /* \"#utility.yul\":2672:2746   */\n      swap2\n      pop\n        /* \"#utility.yul\":2755:2848   */\n      tag_146\n        /* \"#utility.yul\":2844:2847   */\n      dup3\n        /* \"#utility.yul\":2755:2848   */\n      tag_147\n      jump\t// in\n    tag_146:\n        /* \"#utility.yul\":2873:2875   */\n      0x40\n        /* \"#utility.yul\":2868:2871   */\n      dup3\n        /* \"#utility.yul\":2864:2876   */\n      add\n        /* \"#utility.yul\":2857:2876   */\n      swap1\n      pop\n        /* \"#utility.yul\":2516:2882   */\n      swap2\n      swap1\n      pop\n      jump\t// out\n        /* \"#utility.yul\":2888:3254   */\n    tag_148:\n        /* \"#utility.yul\":3030:3033   */\n      0x00\n        /* \"#utility.yul\":3051:3118   */\n      tag_150\n        /* \"#utility.yul\":3115:3117   */\n      0x23\n        /* \"#utility.yul\":3110:3113   */\n      dup4\n        /* \"#utility.yul\":3051:3118   */\n      tag_145\n      jump\t// in\n    tag_150:\n        /* \"#utility.yul\":3044:3118   */\n      swap2\n      pop\n        /* \"#utility.yul\":3127:3220   */\n      tag_151\n        /* \"#utility.yul\":3216:3219   */\n      dup3\n        /* \"#utility.yul\":3127:3220   */\n      tag_152\n      jump\t// in\n    tag_151:\n        /* \"#utility.yul\":3245:3247   */\n      0x40\n        /* \"#utility.yul\":3240:3243   */\n      dup3\n        /* \"#utility.yul\":3236:3248   */\n      add\n        /* \"#utility.yul\":3229:3248   */\n      swap1\n      pop\n        /* \"#utility.yul\":2888:3254   */\n      swap2\n      swap1\n      pop\n      jump\t// out\n        /* \"#utility.yul\":3260:3626   */\n    tag_153:\n        /* \"#utility.yul\":3402:3405   */\n      0x00\n        /* \"#utility.yul\":3423:3490   */\n      tag_155\n        /* \"#utility.yul\":3487:3489   */\n      0x23\n        /* \"#utility.yul\":3482:3485   */\n      dup4\n        /* \"#utility.yul\":3423:3490   */\n      tag_145\n      jump\t// in\n    tag_155:\n        /* \"#utility.yul\":3416:3490   */\n      swap2\n      pop\n        /* \"#utility.yul\":3499:3592   */\n      tag_156\n        /* \"#utility.yul\":3588:3591   */\n      dup3\n        /* \"#utility.yul\":3499:3592   */\n      tag_157\n      jump\t// in\n    tag_156:\n        /* \"#utility.yul\":3617:3619   */\n      0x40\n        /* \"#utility.yul\":3612:3615   */\n      dup3\n        /* \"#utility.yul\":3608:3620   */\n      add\n        /* \"#utility.yul\":3601:3620   */\n      swap1\n      pop\n        /* \"#utility.yul\":3260:3626   */\n      swap2\n      swap1\n      pop\n      jump\t// out\n        /* \"#utility.yul\":3632:3998   */\n    tag_158:\n        /* \"#utility.yul\":3774:3777   */\n      0x00\n        /* \"#utility.yul\":3795:3862   */\n      tag_160\n        /* \"#utility.yul\":3859:3861   */\n      0x25\n        /* \"#utility.yul\":3854:3857   */\n      dup4\n        /* \"#utility.yul\":3795:3862   */\n      tag_145\n      jump\t// in\n    tag_160:\n        /* \"#utility.yul\":3788:3862   */\n      swap2\n      pop\n        /* \"#utility.yul\":3871:3964   */\n      tag_161\n        /* \"#utility.yul\":3960:3963   */\n      dup3\n        /* \"#utility.yul\":3871:3964   */\n      tag_162\n      jump\t// in\n    tag_161:\n        /* \"#utility.yul\":3989:3991   */\n      0x40\n        /* \"#utility.yul\":3984:3987   */\n      dup3\n        /* \"#utility.yul\":3980:3992   */\n      add\n        /* \"#utility.yul\":3973:3992   */\n      swap1\n      pop\n        /* \"#utility.yul\":3632:3998   */\n      swap2\n      swap1\n      pop\n      jump\t// out\n        /* \"#utility.yul\":4004:4370   */\n    tag_163:\n        /* \"#utility.yul\":4146:4149   */\n      0x00\n        /* \"#utility.yul\":4167:4234   */\n      tag_165\n        /* \"#utility.yul\":4231:4233   */\n      0x2e\n        /* \"#utility.yul\":4226:4229   */\n      dup4\n        /* \"#utility.yul\":4167:4234   */\n      tag_145\n      jump\t// in\n    tag_165:\n        /* \"#utility.yul\":4160:4234   */\n      swap2\n      pop\n        /* \"#utility.yul\":4243:4336   */\n      tag_166\n        /* \"#utility.yul\":4332:4335   */\n      dup3\n        /* \"#utility.yul\":4243:4336   */\n      tag_167\n      jump\t// in\n    tag_166:\n        /* \"#utility.yul\":4361:4363   */\n      0x40\n        /* \"#utility.yul\":4356:4359   */\n      dup3\n        /* \"#utility.yul\":4352:4364   */\n      add\n        /* \"#utility.yul\":4345:4364   */\n      swap1\n      pop\n        /* \"#utility.yul\":4004:4370   */\n      swap2\n      swap1\n      pop\n      jump\t// out\n        /* \"#utility.yul\":4376:4494   */\n    tag_168:\n        /* \"#utility.yul\":4463:4487   */\n      tag_170\n        /* \"#utility.yul\":4481:4486   */\n      dup2\n        /* \"#utility.yul\":4463:4487   */\n      tag_171\n      jump\t// in\n    tag_170:\n        /* \"#utility.yul\":4458:4461   */\n      dup3\n        /* \"#utility.yul\":4451:4488   */\n      mstore\n        /* \"#utility.yul\":4376:4494   */\n      pop\n      pop\n      jump\t// out\n        /* \"#utility.yul\":4500:4722   */\n    tag_63:\n        /* \"#utility.yul\":4593:4597   */\n      0x00\n        /* \"#utility.yul\":4631:4633   */\n      0x20\n        /* \"#utility.yul\":4620:4629   */\n      dup3\n        /* \"#utility.yul\":4616:4634   */\n      add\n        /* \"#utility.yul\":4608:4634   */\n      swap1\n      pop\n        /* \"#utility.yul\":4644:4715   */\n      tag_173\n        /* \"#utility.yul\":4712:4713   */\n      0x00\n        /* \"#utility.yul\":4701:4710   */\n      dup4\n        /* \"#utility.yul\":4697:4714   */\n      add\n        /* \"#utility.yul\":4688:4694   */\n      dup5\n        /* \"#utility.yul\":4644:4715   */\n      tag_138\n      jump\t// in\n    tag_173:\n        /* \"#utility.yul\":4500:4722   */\n      swap3\n      swap2\n      pop\n      pop\n      jump\t// out\n        /* \"#utility.yul\":4728:5147   */\n    tag_70:\n        /* \"#utility.yul\":4894:4898   */\n      0x00\n        /* \"#utility.yul\":4932:4934   */\n      0x20\n        /* \"#utility.yul\":4921:4930   */\n      dup3\n        /* \"#utility.yul\":4917:4935   */\n      add\n        /* \"#utility.yul\":4909:4935   */\n      swap1\n      pop\n        /* \"#utility.yul\":4981:4990   */\n      dup2\n        /* \"#utility.yul\":4975:4979   */\n      dup2\n        /* \"#utility.yul\":4971:4991   */\n      sub\n        /* \"#utility.yul\":4967:4968   */\n      0x00\n        /* \"#utility.yul\":4956:4965   */\n      dup4\n        /* \"#utility.yul\":4952:4969   */\n      add\n        /* \"#utility.yul\":4945:4992   */\n      mstore\n        /* \"#utility.yul\":5009:5140   */\n      tag_175\n        /* \"#utility.yul\":5135:5139   */\n      dup2\n        /* \"#utility.yul\":5009:5140   */\n      tag_142\n      jump\t// in\n    tag_175:\n        /* \"#utility.yul\":5001:5140   */\n      swap1\n      pop\n        /* \"#utility.yul\":4728:5147   */\n      swap2\n      swap1\n      pop\n      jump\t// out\n        /* \"#utility.yul\":5153:5572   */\n    tag_91:\n        /* \"#utility.yul\":5319:5323   */\n      0x00\n        /* \"#utility.yul\":5357:5359   */\n      0x20\n        /* \"#utility.yul\":5346:5355   */\n      dup3\n        /* \"#utility.yul\":5342:5360   */\n      add\n        /* \"#utility.yul\":5334:5360   */\n      swap1\n      pop\n        /* \"#utility.yul\":5406:5415   */\n      dup2\n        /* \"#utility.yul\":5400:5404   */\n      dup2\n        /* \"#utility.yul\":5396:5416   */\n      sub\n        /* \"#utility.yul\":5392:5393   */\n      0x00\n        /* \"#utility.yul\":5381:5390   */\n      dup4\n        /* \"#utility.yul\":5377:5394   */\n      add\n        /* \"#utility.yul\":5370:5417   */\n      mstore\n        /* \"#utility.yul\":5434:5565   */\n      tag_177\n        /* \"#utility.yul\":5560:5564   */\n      dup2\n        /* \"#utility.yul\":5434:5565   */\n      tag_148\n      jump\t// in\n    tag_177:\n        /* \"#utility.yul\":5426:5565   */\n      swap1\n      pop\n        /* \"#utility.yul\":5153:5572   */\n      swap2\n      swap1\n      pop\n      jump\t// out\n        /* \"#utility.yul\":5578:5997   */\n    tag_87:\n        /* \"#utility.yul\":5744:5748   */\n      0x00\n        /* \"#utility.yul\":5782:5784   */\n      0x20\n        /* \"#utility.yul\":5771:5780   */\n      dup3\n        /* \"#utility.yul\":5767:5785   */\n      add\n        /* \"#utility.yul\":5759:5785   */\n      swap1\n      pop\n        /* \"#utility.yul\":5831:5840   */\n      dup2\n        /* \"#utility.yul\":5825:5829   */\n      dup2\n        /* \"#utility.yul\":5821:5841   */\n      sub\n        /* \"#utility.yul\":5817:5818   */\n      0x00\n        /* \"#utility.yul\":5806:5815   */\n      dup4\n        /* \"#utility.yul\":5802:5819   */\n      add\n        /* \"#utility.yul\":5795:5842   */\n      mstore\n        /* \"#utility.yul\":5859:5990   */\n      tag_179\n        /* \"#utility.yul\":5985:5989   */\n      dup2\n        /* \"#utility.yul\":5859:5990   */\n      tag_153\n      jump\t// in\n    tag_179:\n        /* \"#utility.yul\":5851:5990   */\n      swap1\n      pop\n        /* \"#utility.yul\":5578:5997   */\n      swap2\n      swap1\n      pop\n      jump\t// out\n        /* \"#utility.yul\":6003:6422   */\n    tag_73:\n        /* \"#utility.yul\":6169:6173   */\n      0x00\n        /* \"#utility.yul\":6207:6209   */\n      0x20\n        /* \"#utility.yul\":6196:6205   */\n      dup3\n        /* \"#utility.yul\":6192:6210   */\n      add\n        /* \"#utility.yul\":6184:6210   */\n      swap1\n      pop\n        /* \"#utility.yul\":6256:6265   */\n      dup2\n        /* \"#utility.yul\":6250:6254   */\n      dup2\n        /* \"#utility.yul\":6246:6266   */\n      sub\n        /* \"#utility.yul\":6242:6243   */\n      0x00\n        /* \"#utility.yul\":6231:6240   */\n      dup4\n        /* \"#utility.yul\":6227:6244   */\n      add\n        /* \"#utility.yul\":6220:6267   */\n      mstore\n        /* \"#utility.yul\":6284:6415   */\n      tag_181\n        /* \"#utility.yul\":6410:6414   */\n      dup2\n        /* \"#utility.yul\":6284:6415   */\n      tag_158\n      jump\t// in\n    tag_181:\n        /* \"#utility.yul\":6276:6415   */\n      swap1\n      pop\n        /* \"#utility.yul\":6003:6422   */\n      swap2\n      swap1\n      pop\n      jump\t// out\n        /* \"#utility.yul\":6428:6847   */\n    tag_67:\n        /* \"#utility.yul\":6594:6598   */\n      0x00\n        /* \"#utility.yul\":6632:6634   */\n      0x20\n        /* \"#utility.yul\":6621:6630   */\n      dup3\n        /* \"#utility.yul\":6617:6635   */\n      add\n        /* \"#utility.yul\":6609:6635   */\n      swap1\n      pop\n        /* \"#utility.yul\":6681:6690   */\n      dup2\n        /* \"#utility.yul\":6675:6679   */\n      dup2\n        /* \"#utility.yul\":6671:6691   */\n      sub\n        /* \"#utility.yul\":6667:6668   */\n      0x00\n        /* \"#utility.yul\":6656:6665   */\n      dup4\n        /* \"#utility.yul\":6652:6669   */\n      add\n        /* \"#utility.yul\":6645:6692   */\n      mstore\n        /* \"#utility.yul\":6709:6840   */\n      tag_183\n        /* \"#utility.yul\":6835:6839   */\n      dup2\n        /* \"#utility.yul\":6709:6840   */\n      tag_163\n      jump\t// in\n    tag_183:\n        /* \"#utility.yul\":6701:6840   */\n      swap1\n      pop\n        /* \"#utility.yul\":6428:6847   */\n      swap2\n      swap1\n      pop\n      jump\t// out\n        /* \"#utility.yul\":6853:7075   */\n    tag_23:\n        /* \"#utility.yul\":6946:6950   */\n      0x00\n        /* \"#utility.yul\":6984:6986   */\n      0x20\n        /* \"#utility.yul\":6973:6982   */\n      dup3\n        /* \"#utility.yul\":6969:6987   */\n      add\n        /* \"#utility.yul\":6961:6987   */\n      swap1\n      pop\n        /* \"#utility.yul\":6997:7068   */\n      tag_185\n        /* \"#utility.yul\":7065:7066   */\n      0x00\n        /* \"#utility.yul\":7054:7063   */\n      dup4\n        /* \"#utility.yul\":7050:7067   */\n      add\n        /* \"#utility.yul\":7041:7047   */\n      dup5\n        /* \"#utility.yul\":6997:7068   */\n      tag_168\n      jump\t// in\n    tag_185:\n        /* \"#utility.yul\":6853:7075   */\n      swap3\n      swap2\n      pop\n      pop\n      jump\t// out\n        /* \"#utility.yul\":7081:7210   */\n    tag_100:\n        /* \"#utility.yul\":7115:7121   */\n      0x00\n        /* \"#utility.yul\":7142:7162   */\n      tag_187\n      tag_188\n      jump\t// in\n    tag_187:\n        /* \"#utility.yul\":7132:7162   */\n      swap1\n      pop\n        /* \"#utility.yul\":7171:7204   */\n      tag_189\n        /* \"#utility.yul\":7199:7203   */\n      dup3\n        /* \"#utility.yul\":7191:7197   */\n      dup3\n        /* \"#utility.yul\":7171:7204   */\n      tag_190\n      jump\t// in\n    tag_189:\n        /* \"#utility.yul\":7081:7210   */\n      swap2\n      swap1\n      pop\n      jump\t// out\n        /* \"#utility.yul\":7216:7291   */\n    tag_188:\n        /* \"#utility.yul\":7249:7255   */\n      0x00\n        /* \"#utility.yul\":7282:7284   */\n      0x40\n        /* \"#utility.yul\":7276:7285   */\n      mload\n        /* \"#utility.yul\":7266:7285   */\n      swap1\n      pop\n        /* \"#utility.yul\":7216:7291   */\n      swap1\n      jump\t// out\n        /* \"#utility.yul\":7297:7605   */\n    tag_99:\n        /* \"#utility.yul\":7359:7363   */\n      0x00\n        /* \"#utility.yul\":7449:7467   */\n      0xffffffffffffffff\n        /* \"#utility.yul\":7441:7447   */\n      dup3\n        /* \"#utility.yul\":7438:7468   */\n      gt\n        /* \"#utility.yul\":7435:7491   */\n      iszero\n      tag_193\n      jumpi\n        /* \"#utility.yul\":7471:7489   */\n      tag_194\n      tag_195\n      jump\t// in\n    tag_194:\n        /* \"#utility.yul\":7435:7491   */\n    tag_193:\n        /* \"#utility.yul\":7509:7538   */\n      tag_196\n        /* \"#utility.yul\":7531:7537   */\n      dup3\n        /* \"#utility.yul\":7509:7538   */\n      tag_197\n      jump\t// in\n    tag_196:\n        /* \"#utility.yul\":7501:7538   */\n      swap1\n      pop\n        /* \"#utility.yul\":7593:7597   */\n      0x20\n        /* \"#utility.yul\":7587:7591   */\n      dup2\n        /* \"#utility.yul\":7583:7598   */\n      add\n        /* \"#utility.yul\":7575:7598   */\n      swap1\n      pop\n        /* \"#utility.yul\":7297:7605   */\n      swap2\n      swap1\n      pop\n      jump\t// out\n        /* \"#utility.yul\":7611:7780   */\n    tag_145:\n        /* \"#utility.yul\":7695:7706   */\n      0x00\n        /* \"#utility.yul\":7729:7735   */\n      dup3\n        /* \"#utility.yul\":7724:7727   */\n      dup3\n        /* \"#utility.yul\":7717:7736   */\n      mstore\n        /* \"#utility.yul\":7769:7773   */\n      0x20\n        /* \"#utility.yul\":7764:7767   */\n      dup3\n        /* \"#utility.yul\":7760:7774   */\n      add\n        /* \"#utility.yul\":7745:7774   */\n      swap1\n      pop\n        /* \"#utility.yul\":7611:7780   */\n      swap3\n      swap2\n      pop\n      pop\n      jump\t// out\n        /* \"#utility.yul\":7786:8091   */\n    tag_78:\n        /* \"#utility.yul\":7826:7829   */\n      0x00\n        /* \"#utility.yul\":7845:7865   */\n      tag_200\n        /* \"#utility.yul\":7863:7864   */\n      dup3\n        /* \"#utility.yul\":7845:7865   */\n      tag_171\n      jump\t// in\n    tag_200:\n        /* \"#utility.yul\":7840:7865   */\n      swap2\n      pop\n        /* \"#utility.yul\":7879:7899   */\n      tag_201\n        /* \"#utility.yul\":7897:7898   */\n      dup4\n        /* \"#utility.yul\":7879:7899   */\n      tag_171\n      jump\t// in\n    tag_201:\n        /* \"#utility.yul\":7874:7899   */\n      swap3\n      pop\n        /* \"#utility.yul\":8033:8034   */\n      dup3\n        /* \"#utility.yul\":7965:8031   */\n      0xffffffffffffffffffffffffffffffffffffffffffffffffffffffffffffffff\n        /* \"#utility.yul\":7961:8035   */\n      sub\n        /* \"#utility.yul\":7958:7959   */\n      dup3\n        /* \"#utility.yul\":7955:8036   */\n      gt\n        /* \"#utility.yul\":7952:8059   */\n      iszero\n      tag_202\n      jumpi\n        /* \"#utility.yul\":8039:8057   */\n      tag_203\n      tag_204\n      jump\t// in\n    tag_203:\n        /* \"#utility.yul\":7952:8059   */\n    tag_202:\n        /* \"#utility.yul\":8083:8084   */\n      dup3\n        /* \"#utility.yul\":8080:8081   */\n      dup3\n        /* \"#utility.yul\":8076:8085   */\n      add\n        /* \"#utility.yul\":8069:8085   */\n      swap1\n      pop\n        /* \"#utility.yul\":7786:8091   */\n      swap3\n      swap2\n      pop\n      pop\n      jump\t// out\n        /* \"#utility.yul\":8097:8193   */\n    tag_141:\n        /* \"#utility.yul\":8134:8141   */\n      0x00\n        /* \"#utility.yul\":8163:8187   */\n      tag_206\n        /* \"#utility.yul\":8181:8186   */\n      dup3\n        /* \"#utility.yul\":8163:8187   */\n      tag_207\n      jump\t// in\n    tag_206:\n        /* \"#utility.yul\":8152:8187   */\n      swap1\n      pop\n        /* \"#utility.yul\":8097:8193   */\n      swap2\n      swap1\n      pop\n      jump\t// out\n        /* \"#utility.yul\":8199:8303   */\n    tag_208:\n        /* \"#utility.yul\":8244:8251   */\n      0x00\n        /* \"#utility.yul\":8273:8297   */\n      tag_210\n        /* \"#utility.yul\":8291:8296   */\n      dup3\n        /* \"#utility.yul\":8273:8297   */\n      tag_207\n      jump\t// in\n    tag_210:\n        /* \"#utility.yul\":8262:8297   */\n      swap1\n      pop\n        /* \"#utility.yul\":8199:8303   */\n      swap2\n      swap1\n      pop\n      jump\t// out\n        /* \"#utility.yul\":8309:8435   */\n    tag_207:\n        /* \"#utility.yul\":8346:8353   */\n      0x00\n        /* \"#utility.yul\":8386:8428   */\n      0xffffffffffffffffffffffffffffffffffffffff\n        /* \"#utility.yul\":8379:8384   */\n      dup3\n        /* \"#utility.yul\":8375:8429   */\n      and\n        /* \"#utility.yul\":8364:8429   */\n      swap1\n      pop\n        /* \"#utility.yul\":8309:8435   */\n      swap2\n      swap1\n      pop\n      jump\t// out\n        /* \"#utility.yul\":8441:8518   */\n    tag_171:\n        /* \"#utility.yul\":8478:8485   */\n      0x00\n        /* \"#utility.yul\":8507:8512   */\n      dup2\n        /* \"#utility.yul\":8496:8512   */\n      swap1\n      pop\n        /* \"#utility.yul\":8441:8518   */\n      swap2\n      swap1\n      pop\n      jump\t// out\n        /* \"#utility.yul\":8524:8678   */\n    tag_105:\n        /* \"#utility.yul\":8608:8614   */\n      dup3\n        /* \"#utility.yul\":8603:8606   */\n      dup2\n        /* \"#utility.yul\":8598:8601   */\n      dup4\n        /* \"#utility.yul\":8585:8615   */\n      calldatacopy\n        /* \"#utility.yul\":8670:8671   */\n      0x00\n        /* \"#utility.yul\":8661:8667   */\n      dup4\n        /* \"#utility.yul\":8656:8659   */\n      dup4\n        /* \"#utility.yul\":8652:8668   */\n      add\n        /* \"#utility.yul\":8645:8672   */\n      mstore\n        /* \"#utility.yul\":8524:8678   */\n      pop\n      pop\n      pop\n      jump\t// out\n        /* \"#utility.yul\":8684:8965   */\n    tag_190:\n        /* \"#utility.yul\":8767:8794   */\n      tag_215\n        /* \"#utility.yul\":8789:8793   */\n      dup3\n        /* \"#utility.yul\":8767:8794   */\n      tag_197\n      jump\t// in\n    tag_215:\n        /* \"#utility.yul\":8759:8765   */\n      dup2\n        /* \"#utility.yul\":8755:8795   */\n      add\n        /* \"#utility.yul\":8897:8903   */\n      dup2\n        /* \"#utility.yul\":8885:8895   */\n      dup2\n        /* \"#utility.yul\":8882:8904   */\n      lt\n        /* \"#utility.yul\":8861:8879   */\n      0xffffffffffffffff\n        /* \"#utility.yul\":8849:8859   */\n      dup3\n        /* \"#utility.yul\":8846:8880   */\n      gt\n        /* \"#utility.yul\":8843:8905   */\n      or\n        /* \"#utility.yul\":8840:8928   */\n      iszero\n      tag_216\n      jumpi\n        /* \"#utility.yul\":8908:8926   */\n      tag_217\n      tag_195\n      jump\t// in\n    tag_217:\n        /* \"#utility.yul\":8840:8928   */\n    tag_216:\n        /* \"#utility.yul\":8948:8958   */\n      dup1\n        /* \"#utility.yul\":8944:8946   */\n      0x40\n        /* \"#utility.yul\":8937:8959   */\n      mstore\n        /* \"#utility.yul\":8727:8965   */\n      pop\n        /* \"#utility.yul\":8684:8965   */\n      pop\n      pop\n      jump\t// out\n        /* \"#utility.yul\":8971:9204   */\n    tag_76:\n        /* \"#utility.yul\":9010:9013   */\n      0x00\n        /* \"#utility.yul\":9033:9057   */\n      tag_219\n        /* \"#utility.yul\":9051:9056   */\n      dup3\n        /* \"#utility.yul\":9033:9057   */\n      tag_171\n      jump\t// in\n    tag_219:\n        /* \"#utility.yul\":9024:9057   */\n      swap2\n      pop\n        /* \"#utility.yul\":9079:9145   */\n      0xffffffffffffffffffffffffffffffffffffffffffffffffffffffffffffffff\n        /* \"#utility.yul\":9072:9077   */\n      dup3\n        /* \"#utility.yul\":9069:9146   */\n      eq\n        /* \"#utility.yul\":9066:9169   */\n      iszero\n      tag_220\n      jumpi\n        /* \"#utility.yul\":9149:9167   */\n      tag_221\n      tag_204\n      jump\t// in\n    tag_221:\n        /* \"#utility.yul\":9066:9169   */\n    tag_220:\n        /* \"#utility.yul\":9196:9197   */\n      0x01\n        /* \"#utility.yul\":9189:9194   */\n      dup3\n        /* \"#utility.yul\":9185:9198   */\n      add\n        /* \"#utility.yul\":9178:9198   */\n      swap1\n      pop\n        /* \"#utility.yul\":8971:9204   */\n      swap2\n      swap1\n      pop\n      jump\t// out\n        /* \"#utility.yul\":9210:9390   */\n    tag_204:\n        /* \"#utility.yul\":9258:9335   */\n      0x4e487b7100000000000000000000000000000000000000000000000000000000\n        /* \"#utility.yul\":9255:9256   */\n      0x00\n        /* \"#utility.yul\":9248:9336   */\n      mstore\n        /* \"#utility.yul\":9355:9359   */\n      0x11\n        /* \"#utility.yul\":9352:9353   */\n      0x04\n        /* \"#utility.yul\":9345:9360   */\n      mstore\n        /* \"#utility.yul\":9379:9383   */\n      0x24\n        /* \"#utility.yul\":9376:9377   */\n      0x00\n        /* \"#utility.yul\":9369:9384   */\n      revert\n        /* \"#utility.yul\":9396:9576   */\n    tag_195:\n        /* \"#utility.yul\":9444:9521   */\n      0x4e487b7100000000000000000000000000000000000000000000000000000000\n        /* \"#utility.yul\":9441:9442   */\n      0x00\n        /* \"#utility.yul\":9434:9522   */\n      mstore\n        /* \"#utility.yul\":9541:9545   */\n      0x41\n        /* \"#utility.yul\":9538:9539   */\n      0x04\n        /* \"#utility.yul\":9531:9546   */\n      mstore\n        /* \"#utility.yul\":9565:9569   */\n      0x24\n        /* \"#utility.yul\":9562:9563   */\n      0x00\n        /* \"#utility.yul\":9555:9570   */\n      revert\n        /* \"#utility.yul\":9582:9699   */\n    tag_118:\n        /* \"#utility.yul\":9691:9692   */\n      0x00\n        /* \"#utility.yul\":9688:9689   */\n      dup1\n        /* \"#utility.yul\":9681:9693   */\n      revert\n        /* \"#utility.yul\":9705:9822   */\n    tag_103:\n        /* \"#utility.yul\":9814:9815   */\n      0x00\n        /* \"#utility.yul\":9811:9812   */\n      dup1\n        /* \"#utility.yul\":9804:9816   */\n      revert\n        /* \"#utility.yul\":9828:9945   */\n    tag_134:\n        /* \"#utility.yul\":9937:9938   */\n      0x00\n        /* \"#utility.yul\":9934:9935   */\n      dup1\n        /* \"#utility.yul\":9927:9939   */\n      revert\n        /* \"#utility.yul\":9951:10068   */\n    tag_127:\n        /* \"#utility.yul\":10060:10061   */\n      0x00\n        /* \"#utility.yul\":10057:10058   */\n      dup1\n        /* \"#utility.yul\":10050:10062   */\n      revert\n        /* \"#utility.yul\":10074:10176   */\n    tag_197:\n        /* \"#utility.yul\":10115:10121   */\n      0x00\n        /* \"#utility.yul\":10166:10168   */\n      0x1f\n        /* \"#utility.yul\":10162:10169   */\n      not\n        /* \"#utility.yul\":10157:10159   */\n      0x1f\n        /* \"#utility.yul\":10150:10155   */\n      dup4\n        /* \"#utility.yul\":10146:10160   */\n      add\n        /* \"#utility.yul\":10142:10170   */\n      and\n        /* \"#utility.yul\":10132:10170   */\n      swap1\n      pop\n        /* \"#utility.yul\":10074:10176   */\n      swap2\n      swap1\n      pop\n      jump\t// out\n        /* \"#utility.yul\":10182:10402   */\n    tag_147:\n        /* \"#utility.yul\":10322:10356   */\n      0x476f616c20666f722066756e64696e6720686173206265656e20726561636865\n        /* \"#utility.yul\":10318:10319   */\n      0x00\n        /* \"#utility.yul\":10310:10316   */\n      dup3\n        /* \"#utility.yul\":10306:10320   */\n      add\n        /* \"#utility.yul\":10299:10357   */\n      mstore\n        /* \"#utility.yul\":10391:10394   */\n      0x6400000000000000000000000000000000000000000000000000000000000000\n        /* \"#utility.yul\":10386:10388   */\n      0x20\n        /* \"#utility.yul\":10378:10384   */\n      dup3\n        /* \"#utility.yul\":10374:10389   */\n      add\n        /* \"#utility.yul\":10367:10395   */\n      mstore\n        /* \"#utility.yul\":10182:10402   */\n      pop\n      jump\t// out\n        /* \"#utility.yul\":10408:10630   */\n    tag_152:\n        /* \"#utility.yul\":10548:10582   */\n      0x46756e64696e672074696d65206672616d652069732079657420746f20657870\n        /* \"#utility.yul\":10544:10545   */\n      0x00\n        /* \"#utility.yul\":10536:10542   */\n      dup3\n        /* \"#utility.yul\":10532:10546   */\n      add\n        /* \"#utility.yul\":10525:10583   */\n      mstore\n        /* \"#utility.yul\":10617:10622   */\n      0x6972650000000000000000000000000000000000000000000000000000000000\n        /* \"#utility.yul\":10612:10614   */\n      0x20\n        /* \"#utility.yul\":10604:10610   */\n      dup3\n        /* \"#utility.yul\":10600:10615   */\n      add\n        /* \"#utility.yul\":10593:10623   */\n      mstore\n        /* \"#utility.yul\":10408:10630   */\n      pop\n      jump\t// out\n        /* \"#utility.yul\":10636:10858   */\n    tag_157:\n        /* \"#utility.yul\":10776:10810   */\n      0x596f7520617265206e6f7420616e206578697374696e6720636f6e7472696275\n        /* \"#utility.yul\":10772:10773   */\n      0x00\n        /* \"#utility.yul\":10764:10770   */\n      dup3\n        /* \"#utility.yul\":10760:10774   */\n      add\n        /* \"#utility.yul\":10753:10811   */\n      mstore\n        /* \"#utility.yul\":10845:10850   */\n      0x746f720000000000000000000000000000000000000000000000000000000000\n        /* \"#utility.yul\":10840:10842   */\n      0x20\n        /* \"#utility.yul\":10832:10838   */\n      dup3\n        /* \"#utility.yul\":10828:10843   */\n      add\n        /* \"#utility.yul\":10821:10851   */\n      mstore\n        /* \"#utility.yul\":10636:10858   */\n      pop\n      jump\t// out\n        /* \"#utility.yul\":10864:11088   */\n    tag_162:\n        /* \"#utility.yul\":11004:11038   */\n      0x54696d65206672616d652073657420666f7220756e64696e672068617320656c\n        /* \"#utility.yul\":11000:11001   */\n      0x00\n        /* \"#utility.yul\":10992:10998   */\n      dup3\n        /* \"#utility.yul\":10988:11002   */\n      add\n        /* \"#utility.yul\":10981:11039   */\n      mstore\n        /* \"#utility.yul\":11073:11080   */\n      0x6173706564000000000000000000000000000000000000000000000000000000\n        /* \"#utility.yul\":11068:11070   */\n      0x20\n        /* \"#utility.yul\":11060:11066   */\n      dup3\n        /* \"#utility.yul\":11056:11071   */\n      add\n        /* \"#utility.yul\":11049:11081   */\n      mstore\n        /* \"#utility.yul\":10864:11088   */\n      pop\n      jump\t// out\n        /* \"#utility.yul\":11094:11327   */\n    tag_167:\n        /* \"#utility.yul\":11234:11268   */\n      0x416d6f756e74206d7573742062652067726561746572207468616e2074686520\n        /* \"#utility.yul\":11230:11231   */\n      0x00\n        /* \"#utility.yul\":11222:11228   */\n      dup3\n        /* \"#utility.yul\":11218:11232   */\n      add\n        /* \"#utility.yul\":11211:11269   */\n      mstore\n        /* \"#utility.yul\":11303:11319   */\n      0x6d696e696d756d20616d6f756e74000000000000000000000000000000000000\n        /* \"#utility.yul\":11298:11300   */\n      0x20\n        /* \"#utility.yul\":11290:11296   */\n      dup3\n        /* \"#utility.yul\":11286:11301   */\n      add\n        /* \"#utility.yul\":11279:11320   */\n      mstore\n        /* \"#utility.yul\":11094:11327   */\n      pop\n      jump\t// out\n        /* \"#utility.yul\":11333:11455   */\n    tag_109:\n        /* \"#utility.yul\":11406:11430   */\n      tag_235\n        /* \"#utility.yul\":11424:11429   */\n      dup2\n        /* \"#utility.yul\":11406:11430   */\n      tag_141\n      jump\t// in\n    tag_235:\n        /* \"#utility.yul\":11399:11404   */\n      dup2\n        /* \"#utility.yul\":11396:11431   */\n      eq\n        /* \"#utility.yul\":11386:11449   */\n      tag_236\n      jumpi\n        /* \"#utility.yul\":11445:11446   */\n      0x00\n        /* \"#utility.yul\":11442:11443   */\n      dup1\n        /* \"#utility.yul\":11435:11447   */\n      revert\n        /* \"#utility.yul\":11386:11449   */\n    tag_236:\n        /* \"#utility.yul\":11333:11455   */\n      pop\n      jump\t// out\n        /* \"#utility.yul\":11461:11599   */\n    tag_113:\n        /* \"#utility.yul\":11542:11574   */\n      tag_238\n        /* \"#utility.yul\":11568:11573   */\n      dup2\n        /* \"#utility.yul\":11542:11574   */\n      tag_208\n      jump\t// in\n    tag_238:\n        /* \"#utility.yul\":11535:11540   */\n      dup2\n        /* \"#utility.yul\":11532:11575   */\n      eq\n        /* \"#utility.yul\":11522:11593   */\n      tag_239\n      jumpi\n        /* \"#utility.yul\":11589:11590   */\n      0x00\n        /* \"#utility.yul\":11586:11587   */\n      dup1\n        /* \"#utility.yul\":11579:11591   */\n      revert\n        /* \"#utility.yul\":11522:11593   */\n    tag_239:\n        /* \"#utility.yul\":11461:11599   */\n      pop\n      jump\t// out\n        /* \"#utility.yul\":11605:11727   */\n    tag_123:\n        /* \"#utility.yul\":11678:11702   */\n      tag_241\n        /* \"#utility.yul\":11696:11701   */\n      dup2\n        /* \"#utility.yul\":11678:11702   */\n      tag_171\n      jump\t// in\n    tag_241:\n        /* \"#utility.yul\":11671:11676   */\n      dup2\n        /* \"#utility.yul\":11668:11703   */\n      eq\n        /* \"#utility.yul\":11658:11721   */\n      tag_242\n      jumpi\n        /* \"#utility.yul\":11717:11718   */\n      0x00\n        /* \"#utility.yul\":11714:11715   */\n      dup1\n        /* \"#utility.yul\":11707:11719   */\n      revert\n        /* \"#utility.yul\":11658:11721   */\n    tag_242:\n        /* \"#utility.yul\":11605:11727   */\n      pop\n      jump\t// out\n\n    auxdata: 0xa26469706673582212201995fcdf79318a136fe4ddc17588ca574be040a426ca7f2f231ed9b20673361264736f6c63430008070033\n}\n",
				"bytecode": {
					"linkReferences": {},
					"object": "60806040523480156200001157600080fd5b5060405162000f4338038062000f438339818101604052810190620000379190620000c2565b8160028190555080426200004c919062000109565b60038190555033600160006101000a81548173ffffffffffffffffffffffffffffffffffffffff021916908373ffffffffffffffffffffffffffffffffffffffff16021790555068056bc75e2d631000006004819055505050620001be565b600081519050620000bc81620001a4565b92915050565b60008060408385031215620000dc57620000db6200019f565b5b6000620000ec85828601620000ab565b9250506020620000ff85828601620000ab565b9150509250929050565b6000620001168262000166565b9150620001238362000166565b9250827fffffffffffffffffffffffffffffffffffffffffffffffffffffffffffffffff038211156200015b576200015a62000170565b5b828201905092915050565b6000819050919050565b7f4e487b7100000000000000000000000000000000000000000000000000000000600052601160045260246000fd5b600080fd5b620001af8162000166565b8114620001bb57600080fd5b50565b610d7580620001ce6000396000f3fe6080604052600436106100a05760003560e01c80638a9cfd55116100645780638a9cfd551461019d578063b2d5ae44146101c6578063bb0c8298146101dd578063bef3a08314610208578063d7bb99ba14610233578063f851a4401461023d576100af565b806312065fe0146100b45780631a39d8ef146100df5780631f6d49421461010a57806340193883146101475780634377cf6514610172576100af565b366100af576100ad610268565b005b600080fd5b3480156100c057600080fd5b506100c9610407565b6040516100d6919061093d565b60405180910390f35b3480156100eb57600080fd5b506100f461040f565b604051610101919061093d565b60405180910390f35b34801561011657600080fd5b50610131600480360381019061012c9190610719565b610415565b60405161013e919061093d565b60405180910390f35b34801561015357600080fd5b5061015c61042d565b604051610169919061093d565b60405180910390f35b34801561017e57600080fd5b50610187610433565b604051610194919061093d565b60405180910390f35b3480156101a957600080fd5b506101c460048036038101906101bf9190610746565b610439565b005b3480156101d257600080fd5b506101db610498565b005b3480156101e957600080fd5b506101f2610638565b6040516101ff919061093d565b60405180910390f35b34801561021457600080fd5b5061021d61063e565b60405161022a919061093d565b60405180910390f35b61023b610268565b005b34801561024957600080fd5b50610252610644565b60405161025f9190610882565b60405180910390f35b6004543410156102ad576040517f08c379a00000000000000000000000000000000000000000000000000000000081526004016102a49061091d565b60405180910390fd5b600254600554106102f3576040517f08c379a00000000000000000000000000000000000000000000000000000000081526004016102ea9061089d565b60405180910390fd5b6003544210610337576040517f08c379a000000000000000000000000000000000000000000000000000000000815260040161032e906108fd565b60405180910390fd5b60008060003373ffffffffffffffffffffffffffffffffffffffff1673ffffffffffffffffffffffffffffffffffffffff168152602001908152602001600020541415610397576006600081548092919061039190610aa3565b91905055505b346000803373ffffffffffffffffffffffffffffffffffffffff1673ffffffffffffffffffffffffffffffffffffffff16815260200190815260200160002060008282546103e591906109bf565b9250508190555034600560008282546103fe91906109bf565b92505081905550565b600047905090565b60055481565b60006020528060005260406000206000915090505481565b60025481565b60065481565b600160009054906101000a900473ffffffffffffffffffffffffffffffffffffffff1673ffffffffffffffffffffffffffffffffffffffff163373ffffffffffffffffffffffffffffffffffffffff161461049357600080fd5b505050565b60008060003373ffffffffffffffffffffffffffffffffffffffff1673ffffffffffffffffffffffffffffffffffffffff1681526020019081526020016000205411610519576040517f08c379a0000000000000000000000000000000000000000000000000000000008152600401610510906108dd565b60405180910390fd5b600354421015801561052e5750600254600554105b61056d576040517f08c379a0000000000000000000000000000000000000000000000000000000008152600401610564906108bd565b60405180910390fd5b3373ffffffffffffffffffffffffffffffffffffffff166108fc6000803373ffffffffffffffffffffffffffffffffffffffff1673ffffffffffffffffffffffffffffffffffffffff168152602001908152602001600020549081150290604051600060405180830381858888f193505050501580156105f1573d6000803e3d6000fd5b5060008060003373ffffffffffffffffffffffffffffffffffffffff1673ffffffffffffffffffffffffffffffffffffffff16815260200190815260200160002081905550565b60045481565b60035481565b600160009054906101000a900473ffffffffffffffffffffffffffffffffffffffff1681565b600061067d6106788461097d565b610958565b90508281526020810184848401111561069957610698610b4f565b5b6106a4848285610a63565b509392505050565b6000813590506106bb81610cfa565b92915050565b6000813590506106d081610d11565b92915050565b600082601f8301126106eb576106ea610b4a565b5b81356106fb84826020860161066a565b91505092915050565b60008135905061071381610d28565b92915050565b60006020828403121561072f5761072e610b59565b5b600061073d848285016106ac565b91505092915050565b60008060006060848603121561075f5761075e610b59565b5b600084013567ffffffffffffffff81111561077d5761077c610b54565b5b610789868287016106d6565b935050602061079a86828701610704565b92505060406107ab868287016106c1565b9150509250925092565b6107be81610a15565b82525050565b60006107d16021836109ae565b91506107dc82610b6f565b604082019050919050565b60006107f46023836109ae565b91506107ff82610bbe565b604082019050919050565b60006108176023836109ae565b915061082282610c0d565b604082019050919050565b600061083a6025836109ae565b915061084582610c5c565b604082019050919050565b600061085d602e836109ae565b915061086882610cab565b604082019050919050565b61087c81610a59565b82525050565b600060208201905061089760008301846107b5565b92915050565b600060208201905081810360008301526108b6816107c4565b9050919050565b600060208201905081810360008301526108d6816107e7565b9050919050565b600060208201905081810360008301526108f68161080a565b9050919050565b600060208201905081810360008301526109168161082d565b9050919050565b6000602082019050818103600083015261093681610850565b9050919050565b60006020820190506109526000830184610873565b92915050565b6000610962610973565b905061096e8282610a72565b919050565b6000604051905090565b600067ffffffffffffffff82111561099857610997610b1b565b5b6109a182610b5e565b9050602081019050919050565b600082825260208201905092915050565b60006109ca82610a59565b91506109d583610a59565b9250827fffffffffffffffffffffffffffffffffffffffffffffffffffffffffffffffff03821115610a0a57610a09610aec565b5b828201905092915050565b6000610a2082610a39565b9050919050565b6000610a3282610a39565b9050919050565b600073ffffffffffffffffffffffffffffffffffffffff82169050919050565b6000819050919050565b82818337600083830152505050565b610a7b82610b5e565b810181811067ffffffffffffffff82111715610a9a57610a99610b1b565b5b80604052505050565b6000610aae82610a59565b91507fffffffffffffffffffffffffffffffffffffffffffffffffffffffffffffffff821415610ae157610ae0610aec565b5b600182019050919050565b7f4e487b7100000000000000000000000000000000000000000000000000000000600052601160045260246000fd5b7f4e487b7100000000000000000000000000000000000000000000000000000000600052604160045260246000fd5b600080fd5b600080fd5b600080fd5b600080fd5b6000601f19601f8301169050919050565b7f476f616c20666f722066756e64696e6720686173206265656e2072656163686560008201527f6400000000000000000000000000000000000000000000000000000000000000602082015250565b7f46756e64696e672074696d65206672616d652069732079657420746f2065787060008201527f6972650000000000000000000000000000000000000000000000000000000000602082015250565b7f596f7520617265206e6f7420616e206578697374696e6720636f6e747269627560008201527f746f720000000000000000000000000000000000000000000000000000000000602082015250565b7f54696d65206672616d652073657420666f7220756e64696e672068617320656c60008201527f6173706564000000000000000000000000000000000000000000000000000000602082015250565b7f416d6f756e74206d7573742062652067726561746572207468616e207468652060008201527f6d696e696d756d20616d6f756e74000000000000000000000000000000000000602082015250565b610d0381610a15565b8114610d0e57600080fd5b50565b610d1a81610a27565b8114610d2557600080fd5b50565b610d3181610a59565b8114610d3c57600080fd5b5056fea26469706673582212201995fcdf79318a136fe4ddc17588ca574be040a426ca7f2f231ed9b20673361264736f6c63430008070033",
					"opcodes": "PUSH1 0x80 PUSH1 0x40 MSTORE CALLVALUE DUP1 ISZERO PUSH3 0x11 JUMPI PUSH1 0x0 DUP1 REVERT JUMPDEST POP PUSH1 0x40 MLOAD PUSH3 0xF43 CODESIZE SUB DUP1 PUSH3 0xF43 DUP4 CODECOPY DUP2 DUP2 ADD PUSH1 0x40 MSTORE DUP2 ADD SWAP1 PUSH3 0x37 SWAP2 SWAP1 PUSH3 0xC2 JUMP JUMPDEST DUP2 PUSH1 0x2 DUP2 SWAP1 SSTORE POP DUP1 TIMESTAMP PUSH3 0x4C SWAP2 SWAP1 PUSH3 0x109 JUMP JUMPDEST PUSH1 0x3 DUP2 SWAP1 SSTORE POP CALLER PUSH1 0x1 PUSH1 0x0 PUSH2 0x100 EXP DUP2 SLOAD DUP2 PUSH20 0xFFFFFFFFFFFFFFFFFFFFFFFFFFFFFFFFFFFFFFFF MUL NOT AND SWAP1 DUP4 PUSH20 0xFFFFFFFFFFFFFFFFFFFFFFFFFFFFFFFFFFFFFFFF AND MUL OR SWAP1 SSTORE POP PUSH9 0x56BC75E2D63100000 PUSH1 0x4 DUP2 SWAP1 SSTORE POP POP POP PUSH3 0x1BE JUMP JUMPDEST PUSH1 0x0 DUP2 MLOAD SWAP1 POP PUSH3 0xBC DUP2 PUSH3 0x1A4 JUMP JUMPDEST SWAP3 SWAP2 POP POP JUMP JUMPDEST PUSH1 0x0 DUP1 PUSH1 0x40 DUP4 DUP6 SUB SLT ISZERO PUSH3 0xDC JUMPI PUSH3 0xDB PUSH3 0x19F JUMP JUMPDEST JUMPDEST PUSH1 0x0 PUSH3 0xEC DUP6 DUP3 DUP7 ADD PUSH3 0xAB JUMP JUMPDEST SWAP3 POP POP PUSH1 0x20 PUSH3 0xFF DUP6 DUP3 DUP7 ADD PUSH3 0xAB JUMP JUMPDEST SWAP2 POP POP SWAP3 POP SWAP3 SWAP1 POP JUMP JUMPDEST PUSH1 0x0 PUSH3 0x116 DUP3 PUSH3 0x166 JUMP JUMPDEST SWAP2 POP PUSH3 0x123 DUP4 PUSH3 0x166 JUMP JUMPDEST SWAP3 POP DUP3 PUSH32 0xFFFFFFFFFFFFFFFFFFFFFFFFFFFFFFFFFFFFFFFFFFFFFFFFFFFFFFFFFFFFFFFF SUB DUP3 GT ISZERO PUSH3 0x15B JUMPI PUSH3 0x15A PUSH3 0x170 JUMP JUMPDEST JUMPDEST DUP3 DUP3 ADD SWAP1 POP SWAP3 SWAP2 POP POP JUMP JUMPDEST PUSH1 0x0 DUP2 SWAP1 POP SWAP2 SWAP1 POP JUMP JUMPDEST PUSH32 0x4E487B7100000000000000000000000000000000000000000000000000000000 PUSH1 0x0 MSTORE PUSH1 0x11 PUSH1 0x4 MSTORE PUSH1 0x24 PUSH1 0x0 REVERT JUMPDEST PUSH1 0x0 DUP1 REVERT JUMPDEST PUSH3 0x1AF DUP2 PUSH3 0x166 JUMP JUMPDEST DUP2 EQ PUSH3 0x1BB JUMPI PUSH1 0x0 DUP1 REVERT JUMPDEST POP JUMP JUMPDEST PUSH2 0xD75 DUP1 PUSH3 0x1CE PUSH1 0x0 CODECOPY PUSH1 0x0 RETURN INVALID PUSH1 0x80 PUSH1 0x40 MSTORE PUSH1 0x4 CALLDATASIZE LT PUSH2 0xA0 JUMPI PUSH1 0x0 CALLDATALOAD PUSH1 0xE0 SHR DUP1 PUSH4 0x8A9CFD55 GT PUSH2 0x64 JUMPI DUP1 PUSH4 0x8A9CFD55 EQ PUSH2 0x19D JUMPI DUP1 PUSH4 0xB2D5AE44 EQ PUSH2 0x1C6 JUMPI DUP1 PUSH4 0xBB0C8298 EQ PUSH2 0x1DD JUMPI DUP1 PUSH4 0xBEF3A083 EQ PUSH2 0x208 JUMPI DUP1 PUSH4 0xD7BB99BA EQ PUSH2 0x233 JUMPI DUP1 PUSH4 0xF851A440 EQ PUSH2 0x23D JUMPI PUSH2 0xAF JUMP JUMPDEST DUP1 PUSH4 0x12065FE0 EQ PUSH2 0xB4 JUMPI DUP1 PUSH4 0x1A39D8EF EQ PUSH2 0xDF JUMPI DUP1 PUSH4 0x1F6D4942 EQ PUSH2 0x10A JUMPI DUP1 PUSH4 0x40193883 EQ PUSH2 0x147 JUMPI DUP1 PUSH4 0x4377CF65 EQ PUSH2 0x172 JUMPI PUSH2 0xAF JUMP JUMPDEST CALLDATASIZE PUSH2 0xAF JUMPI PUSH2 0xAD PUSH2 0x268 JUMP JUMPDEST STOP JUMPDEST PUSH1 0x0 DUP1 REVERT JUMPDEST CALLVALUE DUP1 ISZERO PUSH2 0xC0 JUMPI PUSH1 0x0 DUP1 REVERT JUMPDEST POP PUSH2 0xC9 PUSH2 0x407 JUMP JUMPDEST PUSH1 0x40 MLOAD PUSH2 0xD6 SWAP2 SWAP1 PUSH2 0x93D JUMP JUMPDEST PUSH1 0x40 MLOAD DUP1 SWAP2 SUB SWAP1 RETURN JUMPDEST CALLVALUE DUP1 ISZERO PUSH2 0xEB JUMPI PUSH1 0x0 DUP1 REVERT JUMPDEST POP PUSH2 0xF4 PUSH2 0x40F JUMP JUMPDEST PUSH1 0x40 MLOAD PUSH2 0x101 SWAP2 SWAP1 PUSH2 0x93D JUMP JUMPDEST PUSH1 0x40 MLOAD DUP1 SWAP2 SUB SWAP1 RETURN JUMPDEST CALLVALUE DUP1 ISZERO PUSH2 0x116 JUMPI PUSH1 0x0 DUP1 REVERT JUMPDEST POP PUSH2 0x131 PUSH1 0x4 DUP1 CALLDATASIZE SUB DUP2 ADD SWAP1 PUSH2 0x12C SWAP2 SWAP1 PUSH2 0x719 JUMP JUMPDEST PUSH2 0x415 JUMP JUMPDEST PUSH1 0x40 MLOAD PUSH2 0x13E SWAP2 SWAP1 PUSH2 0x93D JUMP JUMPDEST PUSH1 0x40 MLOAD DUP1 SWAP2 SUB SWAP1 RETURN JUMPDEST CALLVALUE DUP1 ISZERO PUSH2 0x153 JUMPI PUSH1 0x0 DUP1 REVERT JUMPDEST POP PUSH2 0x15C PUSH2 0x42D JUMP JUMPDEST PUSH1 0x40 MLOAD PUSH2 0x169 SWAP2 SWAP1 PUSH2 0x93D JUMP JUMPDEST PUSH1 0x40 MLOAD DUP1 SWAP2 SUB SWAP1 RETURN JUMPDEST CALLVALUE DUP1 ISZERO PUSH2 0x17E JUMPI PUSH1 0x0 DUP1 REVERT JUMPDEST POP PUSH2 0x187 PUSH2 0x433 JUMP JUMPDEST PUSH1 0x40 MLOAD PUSH2 0x194 SWAP2 SWAP1 PUSH2 0x93D JUMP JUMPDEST PUSH1 0x40 MLOAD DUP1 SWAP2 SUB SWAP1 RETURN JUMPDEST CALLVALUE DUP1 ISZERO PUSH2 0x1A9 JUMPI PUSH1 0x0 DUP1 REVERT JUMPDEST POP PUSH2 0x1C4 PUSH1 0x4 DUP1 CALLDATASIZE SUB DUP2 ADD SWAP1 PUSH2 0x1BF SWAP2 SWAP1 PUSH2 0x746 JUMP JUMPDEST PUSH2 0x439 JUMP JUMPDEST STOP JUMPDEST CALLVALUE DUP1 ISZERO PUSH2 0x1D2 JUMPI PUSH1 0x0 DUP1 REVERT JUMPDEST POP PUSH2 0x1DB PUSH2 0x498 JUMP JUMPDEST STOP JUMPDEST CALLVALUE DUP1 ISZERO PUSH2 0x1E9 JUMPI PUSH1 0x0 DUP1 REVERT JUMPDEST POP PUSH2 0x1F2 PUSH2 0x638 JUMP JUMPDEST PUSH1 0x40 MLOAD PUSH2 0x1FF SWAP2 SWAP1 PUSH2 0x93D JUMP JUMPDEST PUSH1 0x40 MLOAD DUP1 SWAP2 SUB SWAP1 RETURN JUMPDEST CALLVALUE DUP1 ISZERO PUSH2 0x214 JUMPI PUSH1 0x0 DUP1 REVERT JUMPDEST POP PUSH2 0x21D PUSH2 0x63E JUMP JUMPDEST PUSH1 0x40 MLOAD PUSH2 0x22A SWAP2 SWAP1 PUSH2 0x93D JUMP JUMPDEST PUSH1 0x40 MLOAD DUP1 SWAP2 SUB SWAP1 RETURN JUMPDEST PUSH2 0x23B PUSH2 0x268 JUMP JUMPDEST STOP JUMPDEST CALLVALUE DUP1 ISZERO PUSH2 0x249 JUMPI PUSH1 0x0 DUP1 REVERT JUMPDEST POP PUSH2 0x252 PUSH2 0x644 JUMP JUMPDEST PUSH1 0x40 MLOAD PUSH2 0x25F SWAP2 SWAP1 PUSH2 0x882 JUMP JUMPDEST PUSH1 0x40 MLOAD DUP1 SWAP2 SUB SWAP1 RETURN JUMPDEST PUSH1 0x4 SLOAD CALLVALUE LT ISZERO PUSH2 0x2AD JUMPI PUSH1 0x40 MLOAD PUSH32 0x8C379A000000000000000000000000000000000000000000000000000000000 DUP2 MSTORE PUSH1 0x4 ADD PUSH2 0x2A4 SWAP1 PUSH2 0x91D JUMP JUMPDEST PUSH1 0x40 MLOAD DUP1 SWAP2 SUB SWAP1 REVERT JUMPDEST PUSH1 0x2 SLOAD PUSH1 0x5 SLOAD LT PUSH2 0x2F3 JUMPI PUSH1 0x40 MLOAD PUSH32 0x8C379A000000000000000000000000000000000000000000000000000000000 DUP2 MSTORE PUSH1 0x4 ADD PUSH2 0x2EA SWAP1 PUSH2 0x89D JUMP JUMPDEST PUSH1 0x40 MLOAD DUP1 SWAP2 SUB SWAP1 REVERT JUMPDEST PUSH1 0x3 SLOAD TIMESTAMP LT PUSH2 0x337 JUMPI PUSH1 0x40 MLOAD PUSH32 0x8C379A000000000000000000000000000000000000000000000000000000000 DUP2 MSTORE PUSH1 0x4 ADD PUSH2 0x32E SWAP1 PUSH2 0x8FD JUMP JUMPDEST PUSH1 0x40 MLOAD DUP1 SWAP2 SUB SWAP1 REVERT JUMPDEST PUSH1 0x0 DUP1 PUSH1 0x0 CALLER PUSH20 0xFFFFFFFFFFFFFFFFFFFFFFFFFFFFFFFFFFFFFFFF AND PUSH20 0xFFFFFFFFFFFFFFFFFFFFFFFFFFFFFFFFFFFFFFFF AND DUP2 MSTORE PUSH1 0x20 ADD SWAP1 DUP2 MSTORE PUSH1 0x20 ADD PUSH1 0x0 KECCAK256 SLOAD EQ ISZERO PUSH2 0x397 JUMPI PUSH1 0x6 PUSH1 0x0 DUP2 SLOAD DUP1 SWAP3 SWAP2 SWAP1 PUSH2 0x391 SWAP1 PUSH2 0xAA3 JUMP JUMPDEST SWAP2 SWAP1 POP SSTORE POP JUMPDEST CALLVALUE PUSH1 0x0 DUP1 CALLER PUSH20 0xFFFFFFFFFFFFFFFFFFFFFFFFFFFFFFFFFFFFFFFF AND PUSH20 0xFFFFFFFFFFFFFFFFFFFFFFFFFFFFFFFFFFFFFFFF AND DUP2 MSTORE PUSH1 0x20 ADD SWAP1 DUP2 MSTORE PUSH1 0x20 ADD PUSH1 0x0 KECCAK256 PUSH1 0x0 DUP3 DUP3 SLOAD PUSH2 0x3E5 SWAP2 SWAP1 PUSH2 0x9BF JUMP JUMPDEST SWAP3 POP POP DUP2 SWAP1 SSTORE POP CALLVALUE PUSH1 0x5 PUSH1 0x0 DUP3 DUP3 SLOAD PUSH2 0x3FE SWAP2 SWAP1 PUSH2 0x9BF JUMP JUMPDEST SWAP3 POP POP DUP2 SWAP1 SSTORE POP JUMP JUMPDEST PUSH1 0x0 SELFBALANCE SWAP1 POP SWAP1 JUMP JUMPDEST PUSH1 0x5 SLOAD DUP2 JUMP JUMPDEST PUSH1 0x0 PUSH1 0x20 MSTORE DUP1 PUSH1 0x0 MSTORE PUSH1 0x40 PUSH1 0x0 KECCAK256 PUSH1 0x0 SWAP2 POP SWAP1 POP SLOAD DUP2 JUMP JUMPDEST PUSH1 0x2 SLOAD DUP2 JUMP JUMPDEST PUSH1 0x6 SLOAD DUP2 JUMP JUMPDEST PUSH1 0x1 PUSH1 0x0 SWAP1 SLOAD SWAP1 PUSH2 0x100 EXP SWAP1 DIV PUSH20 0xFFFFFFFFFFFFFFFFFFFFFFFFFFFFFFFFFFFFFFFF AND PUSH20 0xFFFFFFFFFFFFFFFFFFFFFFFFFFFFFFFFFFFFFFFF AND CALLER PUSH20 0xFFFFFFFFFFFFFFFFFFFFFFFFFFFFFFFFFFFFFFFF AND EQ PUSH2 0x493 JUMPI PUSH1 0x0 DUP1 REVERT JUMPDEST POP POP POP JUMP JUMPDEST PUSH1 0x0 DUP1 PUSH1 0x0 CALLER PUSH20 0xFFFFFFFFFFFFFFFFFFFFFFFFFFFFFFFFFFFFFFFF AND PUSH20 0xFFFFFFFFFFFFFFFFFFFFFFFFFFFFFFFFFFFFFFFF AND DUP2 MSTORE PUSH1 0x20 ADD SWAP1 DUP2 MSTORE PUSH1 0x20 ADD PUSH1 0x0 KECCAK256 SLOAD GT PUSH2 0x519 JUMPI PUSH1 0x40 MLOAD PUSH32 0x8C379A000000000000000000000000000000000000000000000000000000000 DUP2 MSTORE PUSH1 0x4 ADD PUSH2 0x510 SWAP1 PUSH2 0x8DD JUMP JUMPDEST PUSH1 0x40 MLOAD DUP1 SWAP2 SUB SWAP1 REVERT JUMPDEST PUSH1 0x3 SLOAD TIMESTAMP LT ISZERO DUP1 ISZERO PUSH2 0x52E JUMPI POP PUSH1 0x2 SLOAD PUSH1 0x5 SLOAD LT JUMPDEST PUSH2 0x56D JUMPI PUSH1 0x40 MLOAD PUSH32 0x8C379A000000000000000000000000000000000000000000000000000000000 DUP2 MSTORE PUSH1 0x4 ADD PUSH2 0x564 SWAP1 PUSH2 0x8BD JUMP JUMPDEST PUSH1 0x40 MLOAD DUP1 SWAP2 SUB SWAP1 REVERT JUMPDEST CALLER PUSH20 0xFFFFFFFFFFFFFFFFFFFFFFFFFFFFFFFFFFFFFFFF AND PUSH2 0x8FC PUSH1 0x0 DUP1 CALLER PUSH20 0xFFFFFFFFFFFFFFFFFFFFFFFFFFFFFFFFFFFFFFFF AND PUSH20 0xFFFFFFFFFFFFFFFFFFFFFFFFFFFFFFFFFFFFFFFF AND DUP2 MSTORE PUSH1 0x20 ADD SWAP1 DUP2 MSTORE PUSH1 0x20 ADD PUSH1 0x0 KECCAK256 SLOAD SWAP1 DUP2 ISZERO MUL SWAP1 PUSH1 0x40 MLOAD PUSH1 0x0 PUSH1 0x40 MLOAD DUP1 DUP4 SUB DUP2 DUP6 DUP9 DUP9 CALL SWAP4 POP POP POP POP ISZERO DUP1 ISZERO PUSH2 0x5F1 JUMPI RETURNDATASIZE PUSH1 0x0 DUP1 RETURNDATACOPY RETURNDATASIZE PUSH1 0x0 REVERT JUMPDEST POP PUSH1 0x0 DUP1 PUSH1 0x0 CALLER PUSH20 0xFFFFFFFFFFFFFFFFFFFFFFFFFFFFFFFFFFFFFFFF AND PUSH20 0xFFFFFFFFFFFFFFFFFFFFFFFFFFFFFFFFFFFFFFFF AND DUP2 MSTORE PUSH1 0x20 ADD SWAP1 DUP2 MSTORE PUSH1 0x20 ADD PUSH1 0x0 KECCAK256 DUP2 SWAP1 SSTORE POP JUMP JUMPDEST PUSH1 0x4 SLOAD DUP2 JUMP JUMPDEST PUSH1 0x3 SLOAD DUP2 JUMP JUMPDEST PUSH1 0x1 PUSH1 0x0 SWAP1 SLOAD SWAP1 PUSH2 0x100 EXP SWAP1 DIV PUSH20 0xFFFFFFFFFFFFFFFFFFFFFFFFFFFFFFFFFFFFFFFF AND DUP2 JUMP JUMPDEST PUSH1 0x0 PUSH2 0x67D PUSH2 0x678 DUP5 PUSH2 0x97D JUMP JUMPDEST PUSH2 0x958 JUMP JUMPDEST SWAP1 POP DUP3 DUP2 MSTORE PUSH1 0x20 DUP2 ADD DUP5 DUP5 DUP5 ADD GT ISZERO PUSH2 0x699 JUMPI PUSH2 0x698 PUSH2 0xB4F JUMP JUMPDEST JUMPDEST PUSH2 0x6A4 DUP5 DUP3 DUP6 PUSH2 0xA63 JUMP JUMPDEST POP SWAP4 SWAP3 POP POP POP JUMP JUMPDEST PUSH1 0x0 DUP2 CALLDATALOAD SWAP1 POP PUSH2 0x6BB DUP2 PUSH2 0xCFA JUMP JUMPDEST SWAP3 SWAP2 POP POP JUMP JUMPDEST PUSH1 0x0 DUP2 CALLDATALOAD SWAP1 POP PUSH2 0x6D0 DUP2 PUSH2 0xD11 JUMP JUMPDEST SWAP3 SWAP2 POP POP JUMP JUMPDEST PUSH1 0x0 DUP3 PUSH1 0x1F DUP4 ADD SLT PUSH2 0x6EB JUMPI PUSH2 0x6EA PUSH2 0xB4A JUMP JUMPDEST JUMPDEST DUP2 CALLDATALOAD PUSH2 0x6FB DUP5 DUP3 PUSH1 0x20 DUP7 ADD PUSH2 0x66A JUMP JUMPDEST SWAP2 POP POP SWAP3 SWAP2 POP POP JUMP JUMPDEST PUSH1 0x0 DUP2 CALLDATALOAD SWAP1 POP PUSH2 0x713 DUP2 PUSH2 0xD28 JUMP JUMPDEST SWAP3 SWAP2 POP POP JUMP JUMPDEST PUSH1 0x0 PUSH1 0x20 DUP3 DUP5 SUB SLT ISZERO PUSH2 0x72F JUMPI PUSH2 0x72E PUSH2 0xB59 JUMP JUMPDEST JUMPDEST PUSH1 0x0 PUSH2 0x73D DUP5 DUP3 DUP6 ADD PUSH2 0x6AC JUMP JUMPDEST SWAP2 POP POP SWAP3 SWAP2 POP POP JUMP JUMPDEST PUSH1 0x0 DUP1 PUSH1 0x0 PUSH1 0x60 DUP5 DUP7 SUB SLT ISZERO PUSH2 0x75F JUMPI PUSH2 0x75E PUSH2 0xB59 JUMP JUMPDEST JUMPDEST PUSH1 0x0 DUP5 ADD CALLDATALOAD PUSH8 0xFFFFFFFFFFFFFFFF DUP2 GT ISZERO PUSH2 0x77D JUMPI PUSH2 0x77C PUSH2 0xB54 JUMP JUMPDEST JUMPDEST PUSH2 0x789 DUP7 DUP3 DUP8 ADD PUSH2 0x6D6 JUMP JUMPDEST SWAP4 POP POP PUSH1 0x20 PUSH2 0x79A DUP7 DUP3 DUP8 ADD PUSH2 0x704 JUMP JUMPDEST SWAP3 POP POP PUSH1 0x40 PUSH2 0x7AB DUP7 DUP3 DUP8 ADD PUSH2 0x6C1 JUMP JUMPDEST SWAP2 POP POP SWAP3 POP SWAP3 POP SWAP3 JUMP JUMPDEST PUSH2 0x7BE DUP2 PUSH2 0xA15 JUMP JUMPDEST DUP3 MSTORE POP POP JUMP JUMPDEST PUSH1 0x0 PUSH2 0x7D1 PUSH1 0x21 DUP4 PUSH2 0x9AE JUMP JUMPDEST SWAP2 POP PUSH2 0x7DC DUP3 PUSH2 0xB6F JUMP JUMPDEST PUSH1 0x40 DUP3 ADD SWAP1 POP SWAP2 SWAP1 POP JUMP JUMPDEST PUSH1 0x0 PUSH2 0x7F4 PUSH1 0x23 DUP4 PUSH2 0x9AE JUMP JUMPDEST SWAP2 POP PUSH2 0x7FF DUP3 PUSH2 0xBBE JUMP JUMPDEST PUSH1 0x40 DUP3 ADD SWAP1 POP SWAP2 SWAP1 POP JUMP JUMPDEST PUSH1 0x0 PUSH2 0x817 PUSH1 0x23 DUP4 PUSH2 0x9AE JUMP JUMPDEST SWAP2 POP PUSH2 0x822 DUP3 PUSH2 0xC0D JUMP JUMPDEST PUSH1 0x40 DUP3 ADD SWAP1 POP SWAP2 SWAP1 POP JUMP JUMPDEST PUSH1 0x0 PUSH2 0x83A PUSH1 0x25 DUP4 PUSH2 0x9AE JUMP JUMPDEST SWAP2 POP PUSH2 0x845 DUP3 PUSH2 0xC5C JUMP JUMPDEST PUSH1 0x40 DUP3 ADD SWAP1 POP SWAP2 SWAP1 POP JUMP JUMPDEST PUSH1 0x0 PUSH2 0x85D PUSH1 0x2E DUP4 PUSH2 0x9AE JUMP JUMPDEST SWAP2 POP PUSH2 0x868 DUP3 PUSH2 0xCAB JUMP JUMPDEST PUSH1 0x40 DUP3 ADD SWAP1 POP SWAP2 SWAP1 POP JUMP JUMPDEST PUSH2 0x87C DUP2 PUSH2 0xA59 JUMP JUMPDEST DUP3 MSTORE POP POP JUMP JUMPDEST PUSH1 0x0 PUSH1 0x20 DUP3 ADD SWAP1 POP PUSH2 0x897 PUSH1 0x0 DUP4 ADD DUP5 PUSH2 0x7B5 JUMP JUMPDEST SWAP3 SWAP2 POP POP JUMP JUMPDEST PUSH1 0x0 PUSH1 0x20 DUP3 ADD SWAP1 POP DUP2 DUP2 SUB PUSH1 0x0 DUP4 ADD MSTORE PUSH2 0x8B6 DUP2 PUSH2 0x7C4 JUMP JUMPDEST SWAP1 POP SWAP2 SWAP1 POP JUMP JUMPDEST PUSH1 0x0 PUSH1 0x20 DUP3 ADD SWAP1 POP DUP2 DUP2 SUB PUSH1 0x0 DUP4 ADD MSTORE PUSH2 0x8D6 DUP2 PUSH2 0x7E7 JUMP JUMPDEST SWAP1 POP SWAP2 SWAP1 POP JUMP JUMPDEST PUSH1 0x0 PUSH1 0x20 DUP3 ADD SWAP1 POP DUP2 DUP2 SUB PUSH1 0x0 DUP4 ADD MSTORE PUSH2 0x8F6 DUP2 PUSH2 0x80A JUMP JUMPDEST SWAP1 POP SWAP2 SWAP1 POP JUMP JUMPDEST PUSH1 0x0 PUSH1 0x20 DUP3 ADD SWAP1 POP DUP2 DUP2 SUB PUSH1 0x0 DUP4 ADD MSTORE PUSH2 0x916 DUP2 PUSH2 0x82D JUMP JUMPDEST SWAP1 POP SWAP2 SWAP1 POP JUMP JUMPDEST PUSH1 0x0 PUSH1 0x20 DUP3 ADD SWAP1 POP DUP2 DUP2 SUB PUSH1 0x0 DUP4 ADD MSTORE PUSH2 0x936 DUP2 PUSH2 0x850 JUMP JUMPDEST SWAP1 POP SWAP2 SWAP1 POP JUMP JUMPDEST PUSH1 0x0 PUSH1 0x20 DUP3 ADD SWAP1 POP PUSH2 0x952 PUSH1 0x0 DUP4 ADD DUP5 PUSH2 0x873 JUMP JUMPDEST SWAP3 SWAP2 POP POP JUMP JUMPDEST PUSH1 0x0 PUSH2 0x962 PUSH2 0x973 JUMP JUMPDEST SWAP1 POP PUSH2 0x96E DUP3 DUP3 PUSH2 0xA72 JUMP JUMPDEST SWAP2 SWAP1 POP JUMP JUMPDEST PUSH1 0x0 PUSH1 0x40 MLOAD SWAP1 POP SWAP1 JUMP JUMPDEST PUSH1 0x0 PUSH8 0xFFFFFFFFFFFFFFFF DUP3 GT ISZERO PUSH2 0x998 JUMPI PUSH2 0x997 PUSH2 0xB1B JUMP JUMPDEST JUMPDEST PUSH2 0x9A1 DUP3 PUSH2 0xB5E JUMP JUMPDEST SWAP1 POP PUSH1 0x20 DUP2 ADD SWAP1 POP SWAP2 SWAP1 POP JUMP JUMPDEST PUSH1 0x0 DUP3 DUP3 MSTORE PUSH1 0x20 DUP3 ADD SWAP1 POP SWAP3 SWAP2 POP POP JUMP JUMPDEST PUSH1 0x0 PUSH2 0x9CA DUP3 PUSH2 0xA59 JUMP JUMPDEST SWAP2 POP PUSH2 0x9D5 DUP4 PUSH2 0xA59 JUMP JUMPDEST SWAP3 POP DUP3 PUSH32 0xFFFFFFFFFFFFFFFFFFFFFFFFFFFFFFFFFFFFFFFFFFFFFFFFFFFFFFFFFFFFFFFF SUB DUP3 GT ISZERO PUSH2 0xA0A JUMPI PUSH2 0xA09 PUSH2 0xAEC JUMP JUMPDEST JUMPDEST DUP3 DUP3 ADD SWAP1 POP SWAP3 SWAP2 POP POP JUMP JUMPDEST PUSH1 0x0 PUSH2 0xA20 DUP3 PUSH2 0xA39 JUMP JUMPDEST SWAP1 POP SWAP2 SWAP1 POP JUMP JUMPDEST PUSH1 0x0 PUSH2 0xA32 DUP3 PUSH2 0xA39 JUMP JUMPDEST SWAP1 POP SWAP2 SWAP1 POP JUMP JUMPDEST PUSH1 0x0 PUSH20 0xFFFFFFFFFFFFFFFFFFFFFFFFFFFFFFFFFFFFFFFF DUP3 AND SWAP1 POP SWAP2 SWAP1 POP JUMP JUMPDEST PUSH1 0x0 DUP2 SWAP1 POP SWAP2 SWAP1 POP JUMP JUMPDEST DUP3 DUP2 DUP4 CALLDATACOPY PUSH1 0x0 DUP4 DUP4 ADD MSTORE POP POP POP JUMP JUMPDEST PUSH2 0xA7B DUP3 PUSH2 0xB5E JUMP JUMPDEST DUP2 ADD DUP2 DUP2 LT PUSH8 0xFFFFFFFFFFFFFFFF DUP3 GT OR ISZERO PUSH2 0xA9A JUMPI PUSH2 0xA99 PUSH2 0xB1B JUMP JUMPDEST JUMPDEST DUP1 PUSH1 0x40 MSTORE POP POP POP JUMP JUMPDEST PUSH1 0x0 PUSH2 0xAAE DUP3 PUSH2 0xA59 JUMP JUMPDEST SWAP2 POP PUSH32 0xFFFFFFFFFFFFFFFFFFFFFFFFFFFFFFFFFFFFFFFFFFFFFFFFFFFFFFFFFFFFFFFF DUP3 EQ ISZERO PUSH2 0xAE1 JUMPI PUSH2 0xAE0 PUSH2 0xAEC JUMP JUMPDEST JUMPDEST PUSH1 0x1 DUP3 ADD SWAP1 POP SWAP2 SWAP1 POP JUMP JUMPDEST PUSH32 0x4E487B7100000000000000000000000000000000000000000000000000000000 PUSH1 0x0 MSTORE PUSH1 0x11 PUSH1 0x4 MSTORE PUSH1 0x24 PUSH1 0x0 REVERT JUMPDEST PUSH32 0x4E487B7100000000000000000000000000000000000000000000000000000000 PUSH1 0x0 MSTORE PUSH1 0x41 PUSH1 0x4 MSTORE PUSH1 0x24 PUSH1 0x0 REVERT JUMPDEST PUSH1 0x0 DUP1 REVERT JUMPDEST PUSH1 0x0 DUP1 REVERT JUMPDEST PUSH1 0x0 DUP1 REVERT JUMPDEST PUSH1 0x0 DUP1 REVERT JUMPDEST PUSH1 0x0 PUSH1 0x1F NOT PUSH1 0x1F DUP4 ADD AND SWAP1 POP SWAP2 SWAP1 POP JUMP JUMPDEST PUSH32 0x476F616C20666F722066756E64696E6720686173206265656E20726561636865 PUSH1 0x0 DUP3 ADD MSTORE PUSH32 0x6400000000000000000000000000000000000000000000000000000000000000 PUSH1 0x20 DUP3 ADD MSTORE POP JUMP JUMPDEST PUSH32 0x46756E64696E672074696D65206672616D652069732079657420746F20657870 PUSH1 0x0 DUP3 ADD MSTORE PUSH32 0x6972650000000000000000000000000000000000000000000000000000000000 PUSH1 0x20 DUP3 ADD MSTORE POP JUMP JUMPDEST PUSH32 0x596F7520617265206E6F7420616E206578697374696E6720636F6E7472696275 PUSH1 0x0 DUP3 ADD MSTORE PUSH32 0x746F720000000000000000000000000000000000000000000000000000000000 PUSH1 0x20 DUP3 ADD MSTORE POP JUMP JUMPDEST PUSH32 0x54696D65206672616D652073657420666F7220756E64696E672068617320656C PUSH1 0x0 DUP3 ADD MSTORE PUSH32 0x6173706564000000000000000000000000000000000000000000000000000000 PUSH1 0x20 DUP3 ADD MSTORE POP JUMP JUMPDEST PUSH32 0x416D6F756E74206D7573742062652067726561746572207468616E2074686520 PUSH1 0x0 DUP3 ADD MSTORE PUSH32 0x6D696E696D756D20616D6F756E74000000000000000000000000000000000000 PUSH1 0x20 DUP3 ADD MSTORE POP JUMP JUMPDEST PUSH2 0xD03 DUP2 PUSH2 0xA15 JUMP JUMPDEST DUP2 EQ PUSH2 0xD0E JUMPI PUSH1 0x0 DUP1 REVERT JUMPDEST POP JUMP JUMPDEST PUSH2 0xD1A DUP2 PUSH2 0xA27 JUMP JUMPDEST DUP2 EQ PUSH2 0xD25 JUMPI PUSH1 0x0 DUP1 REVERT JUMPDEST POP JUMP JUMPDEST PUSH2 0xD31 DUP2 PUSH2 0xA59 JUMP JUMPDEST DUP2 EQ PUSH2 0xD3C JUMPI PUSH1 0x0 DUP1 REVERT JUMPDEST POP JUMP INVALID LOG2 PUSH5 0x6970667358 0x22 SLT KECCAK256 NOT SWAP6 0xFC 0xDF PUSH26 0x318A136FE4DDC17588CA574BE040A426CA7F2F231ED9B2067336 SLT PUSH5 0x736F6C6343 STOP ADDMOD SMOD STOP CALLER "
				},
				"gasEstimates": {
					"creation": {
						"codeDepositCost": "689000",
						"executionCost": "infinite",
						"totalCost": "infinite"
					},
					"external": {
						"admin()": "2624",
						"contribute()": "infinite",
						"contributors(address)": "2859",
						"createRequest(string,uint256,address)": "infinite",
						"deadLine()": "2495",
						"getBalance()": "340",
						"getRefund()": "infinite",
						"goal()": "2496",
						"minimumAmount()": "2473",
						"numberOfContributors()": "2518",
						"totalAmount()": "2452"
					}
				},
				"methodIdentifiers": {
					"admin()": "f851a440",
					"contribute()": "d7bb99ba",
					"contributors(address)": "1f6d4942",
					"createRequest(string,uint256,address)": "8a9cfd55",
					"deadLine()": "bef3a083",
					"getBalance()": "12065fe0",
					"getRefund()": "b2d5ae44",
					"goal()": "40193883",
					"minimumAmount()": "bb0c8298",
					"numberOfContributors()": "4377cf65",
					"totalAmount()": "1a39d8ef"
				}
			},
			"storageLayout": {
				"storage": [
					{
						"astId": 5,
						"contract": "contracts/Crowdfunding.sol:CrowdFunding",
						"label": "contributors",
						"offset": 0,
						"slot": "0",
						"type": "t_mapping(t_address,t_uint256)"
					},
					{
						"astId": 7,
						"contract": "contracts/Crowdfunding.sol:CrowdFunding",
						"label": "admin",
						"offset": 0,
						"slot": "1",
						"type": "t_address"
					},
					{
						"astId": 9,
						"contract": "contracts/Crowdfunding.sol:CrowdFunding",
						"label": "goal",
						"offset": 0,
						"slot": "2",
						"type": "t_uint256"
					},
					{
						"astId": 11,
						"contract": "contracts/Crowdfunding.sol:CrowdFunding",
						"label": "deadLine",
						"offset": 0,
						"slot": "3",
						"type": "t_uint256"
					},
					{
						"astId": 13,
						"contract": "contracts/Crowdfunding.sol:CrowdFunding",
						"label": "minimumAmount",
						"offset": 0,
						"slot": "4",
						"type": "t_uint256"
					},
					{
						"astId": 15,
						"contract": "contracts/Crowdfunding.sol:CrowdFunding",
						"label": "totalAmount",
						"offset": 0,
						"slot": "5",
						"type": "t_uint256"
					},
					{
						"astId": 17,
						"contract": "contracts/Crowdfunding.sol:CrowdFunding",
						"label": "numberOfContributors",
						"offset": 0,
						"slot": "6",
						"type": "t_uint256"
					},
					{
						"astId": 37,
						"contract": "contracts/Crowdfunding.sol:CrowdFunding",
						"label": "request",
						"offset": 0,
						"slot": "7",
						"type": "t_mapping(t_uint256,t_struct(Request)32_storage)"
					}
				],
				"types": {
					"t_address": {
						"encoding": "inplace",
						"label": "address",
						"numberOfBytes": "20"
					},
					"t_address_payable": {
						"encoding": "inplace",
						"label": "address payable",
						"numberOfBytes": "20"
					},
					"t_bool": {
						"encoding": "inplace",
						"label": "bool",
						"numberOfBytes": "1"
					},
					"t_mapping(t_address,t_bool)": {
						"encoding": "mapping",
						"key": "t_address",
						"label": "mapping(address => bool)",
						"numberOfBytes": "32",
						"value": "t_bool"
					},
					"t_mapping(t_address,t_uint256)": {
						"encoding": "mapping",
						"key": "t_address",
						"label": "mapping(address => uint256)",
						"numberOfBytes": "32",
						"value": "t_uint256"
					},
					"t_mapping(t_uint256,t_struct(Request)32_storage)": {
						"encoding": "mapping",
						"key": "t_uint256",
						"label": "mapping(uint256 => struct CrowdFunding.Request)",
						"numberOfBytes": "32",
						"value": "t_struct(Request)32_storage"
					},
					"t_string_storage": {
						"encoding": "bytes",
						"label": "string",
						"numberOfBytes": "32"
					},
					"t_struct(Request)32_storage": {
						"encoding": "inplace",
						"label": "struct CrowdFunding.Request",
						"members": [
							{
								"astId": 19,
								"contract": "contracts/Crowdfunding.sol:CrowdFunding",
								"label": "description",
								"offset": 0,
								"slot": "0",
								"type": "t_string_storage"
							},
							{
								"astId": 21,
								"contract": "contracts/Crowdfunding.sol:CrowdFunding",
								"label": "amount",
								"offset": 0,
								"slot": "1",
								"type": "t_uint256"
							},
							{
								"astId": 23,
								"contract": "contracts/Crowdfunding.sol:CrowdFunding",
								"label": "receiver",
								"offset": 0,
								"slot": "2",
								"type": "t_address_payable"
							},
							{
								"astId": 25,
								"contract": "contracts/Crowdfunding.sol:CrowdFunding",
								"label": "createdAt",
								"offset": 0,
								"slot": "3",
								"type": "t_uint256"
							},
							{
								"astId": 27,
								"contract": "contracts/Crowdfunding.sol:CrowdFunding",
								"label": "fundReleaseStatus",
								"offset": 0,
								"slot": "4",
								"type": "t_bool"
							},
							{
								"astId": 31,
								"contract": "contracts/Crowdfunding.sol:CrowdFunding",
								"label": "votingDetails",
								"offset": 0,
								"slot": "5",
								"type": "t_mapping(t_address,t_bool)"
							}
						],
						"numberOfBytes": "192"
					},
					"t_uint256": {
						"encoding": "inplace",
						"label": "uint256",
						"numberOfBytes": "32"
					}
				}
			},
			"userdoc": {
				"kind": "user",
				"methods": {},
				"version": 1
			}
		}
	}
}