{
	"contracts/Erc20token.sol": {
		"icoContract": {
			"abi": [
				{
					"inputs": [
						{
							"internalType": "uint256",
							"name": "_duration",
							"type": "uint256"
						},
						{
							"internalType": "address payable",
							"name": "_depositAddress",
							"type": "address"
						}
					],
					"stateMutability": "nonpayable",
					"type": "constructor"
				},
				{
					"anonymous": false,
					"inputs": [
						{
							"indexed": true,
							"internalType": "address",
							"name": "tokenOwner",
							"type": "address"
						},
						{
							"indexed": true,
							"internalType": "address",
							"name": "spender",
							"type": "address"
						},
						{
							"indexed": false,
							"internalType": "uint256",
							"name": "tokens",
							"type": "uint256"
						}
					],
					"name": "Approval",
					"type": "event"
				},
				{
					"anonymous": false,
					"inputs": [
						{
							"indexed": false,
							"internalType": "address",
							"name": "_sender",
							"type": "address"
						},
						{
							"indexed": false,
							"internalType": "uint256",
							"name": "_amount",
							"type": "uint256"
						},
						{
							"indexed": false,
							"internalType": "uint256",
							"name": "_tokens",
							"type": "uint256"
						}
					],
					"name": "Invest",
					"type": "event"
				},
				{
					"anonymous": false,
					"inputs": [
						{
							"indexed": true,
							"internalType": "address",
							"name": "from",
							"type": "address"
						},
						{
							"indexed": true,
							"internalType": "address",
							"name": "to",
							"type": "address"
						},
						{
							"indexed": false,
							"internalType": "uint256",
							"name": "tokens",
							"type": "uint256"
						}
					],
					"name": "Transfer",
					"type": "event"
				},
				{
					"inputs": [],
					"name": "admin",
					"outputs": [
						{
							"internalType": "address",
							"name": "",
							"type": "address"
						}
					],
					"stateMutability": "view",
					"type": "function"
				},
				{
					"inputs": [
						{
							"internalType": "address",
							"name": "tokenOwner",
							"type": "address"
						},
						{
							"internalType": "address",
							"name": "spender",
							"type": "address"
						}
					],
					"name": "allowance",
					"outputs": [
						{
							"internalType": "uint256",
							"name": "remaining",
							"type": "uint256"
						}
					],
					"stateMutability": "view",
					"type": "function"
				},
				{
					"inputs": [
						{
							"internalType": "address",
							"name": "",
							"type": "address"
						},
						{
							"internalType": "address",
							"name": "",
							"type": "address"
						}
					],
					"name": "allowed",
					"outputs": [
						{
							"internalType": "uint256",
							"name": "",
							"type": "uint256"
						}
					],
					"stateMutability": "view",
					"type": "function"
				},
				{
					"inputs": [
						{
							"internalType": "address",
							"name": "spender",
							"type": "address"
						},
						{
							"internalType": "uint256",
							"name": "tokens",
							"type": "uint256"
						}
					],
					"name": "approve",
					"outputs": [
						{
							"internalType": "bool",
							"name": "success",
							"type": "bool"
						}
					],
					"stateMutability": "nonpayable",
					"type": "function"
				},
				{
					"inputs": [
						{
							"internalType": "address",
							"name": "tokenOwner",
							"type": "address"
						}
					],
					"name": "balanceOf",
					"outputs": [
						{
							"internalType": "uint256",
							"name": "balance",
							"type": "uint256"
						}
					],
					"stateMutability": "view",
					"type": "function"
				},
				{
					"inputs": [
						{
							"internalType": "address",
							"name": "",
							"type": "address"
						}
					],
					"name": "balances",
					"outputs": [
						{
							"internalType": "uint256",
							"name": "",
							"type": "uint256"
						}
					],
					"stateMutability": "view",
					"type": "function"
				},
				{
					"inputs": [
						{
							"internalType": "address payable",
							"name": "newDepositAddress",
							"type": "address"
						}
					],
					"name": "changeDepositAddress",
					"outputs": [],
					"stateMutability": "nonpayable",
					"type": "function"
				},
				{
					"inputs": [],
					"name": "checkIcoState",
					"outputs": [
						{
							"internalType": "enum icoContract.State",
							"name": "",
							"type": "uint8"
						}
					],
					"stateMutability": "view",
					"type": "function"
				},
				{
					"inputs": [],
					"name": "decimals",
					"outputs": [
						{
							"internalType": "uint256",
							"name": "",
							"type": "uint256"
						}
					],
					"stateMutability": "view",
					"type": "function"
				},
				{
					"inputs": [],
					"name": "depositAddress",
					"outputs": [
						{
							"internalType": "address payable",
							"name": "",
							"type": "address"
						}
					],
					"stateMutability": "view",
					"type": "function"
				},
				{
					"inputs": [],
					"name": "endTime",
					"outputs": [
						{
							"internalType": "uint256",
							"name": "",
							"type": "uint256"
						}
					],
					"stateMutability": "view",
					"type": "function"
				},
				{
					"inputs": [],
					"name": "founder",
					"outputs": [
						{
							"internalType": "address",
							"name": "",
							"type": "address"
						}
					],
					"stateMutability": "view",
					"type": "function"
				},
				{
					"inputs": [],
					"name": "halt",
					"outputs": [],
					"stateMutability": "nonpayable",
					"type": "function"
				},
				{
					"inputs": [],
					"name": "hardCap",
					"outputs": [
						{
							"internalType": "uint256",
							"name": "",
							"type": "uint256"
						}
					],
					"stateMutability": "view",
					"type": "function"
				},
				{
					"inputs": [],
					"name": "icoState",
					"outputs": [
						{
							"internalType": "enum icoContract.State",
							"name": "",
							"type": "uint8"
						}
					],
					"stateMutability": "view",
					"type": "function"
				},
				{
					"inputs": [],
					"name": "invest",
					"outputs": [
						{
							"internalType": "bool",
							"name": "",
							"type": "bool"
						}
					],
					"stateMutability": "payable",
					"type": "function"
				},
				{
					"inputs": [],
					"name": "maximumAmount",
					"outputs": [
						{
							"internalType": "uint256",
							"name": "",
							"type": "uint256"
						}
					],
					"stateMutability": "view",
					"type": "function"
				},
				{
					"inputs": [],
					"name": "minimumAmount",
					"outputs": [
						{
							"internalType": "uint256",
							"name": "",
							"type": "uint256"
						}
					],
					"stateMutability": "view",
					"type": "function"
				},
				{
					"inputs": [],
					"name": "name",
					"outputs": [
						{
							"internalType": "string",
							"name": "",
							"type": "string"
						}
					],
					"stateMutability": "view",
					"type": "function"
				},
				{
					"inputs": [],
					"name": "raisedAmount",
					"outputs": [
						{
							"internalType": "uint256",
							"name": "",
							"type": "uint256"
						}
					],
					"stateMutability": "view",
					"type": "function"
				},
				{
					"inputs": [],
					"name": "resume",
					"outputs": [],
					"stateMutability": "nonpayable",
					"type": "function"
				},
				{
					"inputs": [],
					"name": "startTime",
					"outputs": [
						{
							"internalType": "uint256",
							"name": "",
							"type": "uint256"
						}
					],
					"stateMutability": "view",
					"type": "function"
				},
				{
					"inputs": [],
					"name": "symbol",
					"outputs": [
						{
							"internalType": "string",
							"name": "",
							"type": "string"
						}
					],
					"stateMutability": "view",
					"type": "function"
				},
				{
					"inputs": [],
					"name": "totalSupply",
					"outputs": [
						{
							"internalType": "uint256",
							"name": "",
							"type": "uint256"
						}
					],
					"stateMutability": "view",
					"type": "function"
				},
				{
					"inputs": [
						{
							"internalType": "address",
							"name": "to",
							"type": "address"
						},
						{
							"internalType": "uint256",
							"name": "tokens",
							"type": "uint256"
						}
					],
					"name": "transfer",
					"outputs": [
						{
							"internalType": "bool",
							"name": "success",
							"type": "bool"
						}
					],
					"stateMutability": "nonpayable",
					"type": "function"
				},
				{
					"inputs": [
						{
							"internalType": "address",
							"name": "from",
							"type": "address"
						},
						{
							"internalType": "address",
							"name": "to",
							"type": "address"
						},
						{
							"internalType": "uint256",
							"name": "tokens",
							"type": "uint256"
						}
					],
					"name": "transferFrom",
					"outputs": [
						{
							"internalType": "bool",
							"name": "success",
							"type": "bool"
						}
					],
					"stateMutability": "nonpayable",
					"type": "function"
				}
			],
			"devdoc": {
				"kind": "dev",
				"methods": {},
				"version": 1
			},
			"evm": {
				"assembly": "    /* \"contracts/Erc20token.sol\":3280:6931  contract icoContract is MyToken{\r... */\n  mstore(0x40, 0x80)\n    /* \"contracts/Erc20token.sol\":1033:1062  string public name = \"ZILLAX\" */\n  mload(0x40)\n  dup1\n  0x40\n  add\n  0x40\n  mstore\n  dup1\n  0x06\n  dup2\n  mstore\n  0x20\n  add\n  0x5a494c4c41580000000000000000000000000000000000000000000000000000\n  dup2\n  mstore\n  pop\n  0x00\n  swap1\n  dup1\n  mload\n  swap1\n  0x20\n  add\n  swap1\n  tag_1\n  swap3\n  swap2\n  swap1\n  tag_2\n  jump\t// in\ntag_1:\n  pop\n    /* \"contracts/Erc20token.sol\":1069:1097  string public symbol = \"ZLZ\" */\n  mload(0x40)\n  dup1\n  0x40\n  add\n  0x40\n  mstore\n  dup1\n  0x03\n  dup2\n  mstore\n  0x20\n  add\n  0x5a4c5a0000000000000000000000000000000000000000000000000000000000\n  dup2\n  mstore\n  pop\n  0x01\n  swap1\n  dup1\n  mload\n  swap1\n  0x20\n  add\n  swap1\n  tag_3\n  swap3\n  swap2\n  swap1\n  tag_2\n  jump\t// in\ntag_3:\n  pop\n    /* \"contracts/Erc20token.sol\":1127:1128  0 */\n  0x00\n    /* \"contracts/Erc20token.sol\":1104:1128  uint public decimals = 0 */\n  0x02\n  sstore\n    /* \"contracts/Erc20token.sol\":3447:3458  0.001 ether */\n  0x038d7ea4c68000\n    /* \"contracts/Erc20token.sol\":3429:3458  uint tokenPrice = 0.001 ether */\n  0x08\n  sstore\n    /* \"contracts/Erc20token.sol\":3622:3629  5 ether */\n  0x4563918244f40000\n    /* \"contracts/Erc20token.sol\":3600:3629  uint public hardCap = 5 ether */\n  0x0a\n  sstore\n    /* \"contracts/Erc20token.sol\":3795:3810  block.timestamp */\n  timestamp\n    /* \"contracts/Erc20token.sol\":3771:3810  uint public startTime = block.timestamp */\n  0x0b\n  sstore\n    /* \"contracts/Erc20token.sol\":3920:3929  0.1 ether */\n  0x016345785d8a0000\n    /* \"contracts/Erc20token.sol\":3892:3929  uint public minimumAmount = 0.1 ether */\n  0x0d\n  sstore\n    /* \"contracts/Erc20token.sol\":3964:3971  1 ether */\n  0x0de0b6b3a7640000\n    /* \"contracts/Erc20token.sol\":3936:3971  uint public maximumAmount = 1 ether */\n  0x0e\n  sstore\n    /* \"contracts/Erc20token.sol\":4220:4541  constructor(uint _duration, address payable _depositAddress){\r... */\n  callvalue\n  dup1\n  iszero\n  tag_4\n  jumpi\n  0x00\n  dup1\n  revert\ntag_4:\n  pop\n  mload(0x40)\n  sub(codesize, bytecodeSize)\n  dup1\n  bytecodeSize\n  dup4\n  codecopy\n  dup2\n  dup2\n  add\n  0x40\n  mstore\n  dup2\n  add\n  swap1\n  tag_5\n  swap2\n  swap1\n  tag_6\n  jump\t// in\ntag_5:\n    /* \"contracts/Erc20token.sol\":1365:1372  1000000 */\n  0x0f4240\n    /* \"contracts/Erc20token.sol\":1351:1362  totalSupply */\n  0x04\n    /* \"contracts/Erc20token.sol\":1351:1372  totalSupply = 1000000 */\n  dup2\n  swap1\n  sstore\n  pop\n    /* \"contracts/Erc20token.sol\":1393:1403  msg.sender */\n  caller\n    /* \"contracts/Erc20token.sol\":1383:1390  founder */\n  0x03\n  0x00\n    /* \"contracts/Erc20token.sol\":1383:1403  founder = msg.sender */\n  0x0100\n  exp\n  dup2\n  sload\n  dup2\n  0xffffffffffffffffffffffffffffffffffffffff\n  mul\n  not\n  and\n  swap1\n  dup4\n  0xffffffffffffffffffffffffffffffffffffffff\n  and\n  mul\n  or\n  swap1\n  sstore\n  pop\n    /* \"contracts/Erc20token.sol\":1434:1445  totalSupply */\n  sload(0x04)\n    /* \"contracts/Erc20token.sol\":1414:1422  balances */\n  0x05\n    /* \"contracts/Erc20token.sol\":1414:1431  balances[founder] */\n  0x00\n    /* \"contracts/Erc20token.sol\":1423:1430  founder */\n  0x03\n  0x00\n  swap1\n  sload\n  swap1\n  0x0100\n  exp\n  swap1\n  div\n  0xffffffffffffffffffffffffffffffffffffffff\n  and\n    /* \"contracts/Erc20token.sol\":1414:1431  balances[founder] */\n  0xffffffffffffffffffffffffffffffffffffffff\n  and\n  0xffffffffffffffffffffffffffffffffffffffff\n  and\n  dup2\n  mstore\n  0x20\n  add\n  swap1\n  dup2\n  mstore\n  0x20\n  add\n  0x00\n  keccak256\n    /* \"contracts/Erc20token.sol\":1414:1445  balances[founder] = totalSupply */\n  dup2\n  swap1\n  sstore\n  pop\n    /* \"contracts/Erc20token.sol\":4302:4319  State.beforeStart */\n  0x00\n    /* \"contracts/Erc20token.sol\":4291:4299  icoState */\n  0x0f\n  0x00\n    /* \"contracts/Erc20token.sol\":4291:4319  icoState = State.beforeStart */\n  0x0100\n  exp\n  dup2\n  sload\n  dup2\n  0xff\n  mul\n  not\n  and\n  swap1\n  dup4\n  0x04\n  dup2\n  gt\n  iszero\n  tag_11\n  jumpi\n  tag_12\n  tag_13\n  jump\t// in\ntag_12:\ntag_11:\n  mul\n  or\n  swap1\n  sstore\n  pop\n    /* \"contracts/Erc20token.sol\":4367:4377  msg.sender */\n  caller\n    /* \"contracts/Erc20token.sol\":4359:4364  admin */\n  0x07\n  0x00\n    /* \"contracts/Erc20token.sol\":4359:4377  admin = msg.sender */\n  0x0100\n  exp\n  dup2\n  sload\n  dup2\n  0xffffffffffffffffffffffffffffffffffffffff\n  mul\n  not\n  and\n  swap1\n  dup4\n  0xffffffffffffffffffffffffffffffffffffffff\n  and\n  mul\n  or\n  swap1\n  sstore\n  pop\n    /* \"contracts/Erc20token.sol\":4442:4451  _duration */\n  dup2\n    /* \"contracts/Erc20token.sol\":4430:4439  startTime */\n  sload(0x0b)\n    /* \"contracts/Erc20token.sol\":4430:4451  startTime + _duration */\n  tag_14\n  swap2\n  swap1\n  tag_15\n  jump\t// in\ntag_14:\n    /* \"contracts/Erc20token.sol\":4420:4427  endTime */\n  0x0c\n    /* \"contracts/Erc20token.sol\":4420:4451  endTime = startTime + _duration */\n  dup2\n  swap1\n  sstore\n  pop\n    /* \"contracts/Erc20token.sol\":4516:4531  _depositAddress */\n  dup1\n    /* \"contracts/Erc20token.sol\":4499:4513  depositAddress */\n  0x0f\n  0x01\n    /* \"contracts/Erc20token.sol\":4499:4531  depositAddress = _depositAddress */\n  0x0100\n  exp\n  dup2\n  sload\n  dup2\n  0xffffffffffffffffffffffffffffffffffffffff\n  mul\n  not\n  and\n  swap1\n  dup4\n  0xffffffffffffffffffffffffffffffffffffffff\n  and\n  mul\n  or\n  swap1\n  sstore\n  pop\n    /* \"contracts/Erc20token.sol\":4220:4541  constructor(uint _duration, address payable _depositAddress){\r... */\n  pop\n  pop\n    /* \"contracts/Erc20token.sol\":3280:6931  contract icoContract is MyToken{\r... */\n  jump(tag_16)\ntag_2:\n  dup3\n  dup1\n  sload\n  tag_17\n  swap1\n  tag_18\n  jump\t// in\ntag_17:\n  swap1\n  0x00\n  mstore\n  keccak256(0x00, 0x20)\n  swap1\n  0x1f\n  add\n  0x20\n  swap1\n  div\n  dup2\n  add\n  swap3\n  dup3\n  tag_20\n  jumpi\n  0x00\n  dup6\n  sstore\n  jump(tag_19)\ntag_20:\n  dup3\n  0x1f\n  lt\n  tag_21\n  jumpi\n  dup1\n  mload\n  not(0xff)\n  and\n  dup4\n  dup1\n  add\n  or\n  dup6\n  sstore\n  jump(tag_19)\ntag_21:\n  dup3\n  dup1\n  add\n  0x01\n  add\n  dup6\n  sstore\n  dup3\n  iszero\n  tag_19\n  jumpi\n  swap2\n  dup3\n  add\ntag_22:\n  dup3\n  dup2\n  gt\n  iszero\n  tag_23\n  jumpi\n  dup3\n  mload\n  dup3\n  sstore\n  swap2\n  0x20\n  add\n  swap2\n  swap1\n  0x01\n  add\n  swap1\n  jump(tag_22)\ntag_23:\ntag_19:\n  pop\n  swap1\n  pop\n  tag_24\n  swap2\n  swap1\n  tag_25\n  jump\t// in\ntag_24:\n  pop\n  swap1\n  jump\t// out\ntag_25:\ntag_26:\n  dup1\n  dup3\n  gt\n  iszero\n  tag_27\n  jumpi\n  0x00\n  dup2\n  0x00\n  swap1\n  sstore\n  pop\n  0x01\n  add\n  jump(tag_26)\ntag_27:\n  pop\n  swap1\n  jump\t// out\n    /* \"#utility.yul\":7:166   */\ntag_29:\n    /* \"#utility.yul\":72:77   */\n  0x00\n    /* \"#utility.yul\":103:109   */\n  dup2\n    /* \"#utility.yul\":97:110   */\n  mload\n    /* \"#utility.yul\":88:110   */\n  swap1\n  pop\n    /* \"#utility.yul\":119:160   */\n  tag_31\n    /* \"#utility.yul\":154:159   */\n  dup2\n    /* \"#utility.yul\":119:160   */\n  tag_32\n  jump\t// in\ntag_31:\n    /* \"#utility.yul\":7:166   */\n  swap3\n  swap2\n  pop\n  pop\n  jump\t// out\n    /* \"#utility.yul\":172:315   */\ntag_33:\n    /* \"#utility.yul\":229:234   */\n  0x00\n    /* \"#utility.yul\":260:266   */\n  dup2\n    /* \"#utility.yul\":254:267   */\n  mload\n    /* \"#utility.yul\":245:267   */\n  swap1\n  pop\n    /* \"#utility.yul\":276:309   */\n  tag_35\n    /* \"#utility.yul\":303:308   */\n  dup2\n    /* \"#utility.yul\":276:309   */\n  tag_36\n  jump\t// in\ntag_35:\n    /* \"#utility.yul\":172:315   */\n  swap3\n  swap2\n  pop\n  pop\n  jump\t// out\n    /* \"#utility.yul\":321:844   */\ntag_6:\n    /* \"#utility.yul\":408:414   */\n  0x00\n    /* \"#utility.yul\":416:422   */\n  dup1\n    /* \"#utility.yul\":465:467   */\n  0x40\n    /* \"#utility.yul\":453:462   */\n  dup4\n    /* \"#utility.yul\":444:451   */\n  dup6\n    /* \"#utility.yul\":440:463   */\n  sub\n    /* \"#utility.yul\":436:468   */\n  slt\n    /* \"#utility.yul\":433:552   */\n  iszero\n  tag_38\n  jumpi\n    /* \"#utility.yul\":471:550   */\n  tag_39\n  tag_40\n  jump\t// in\ntag_39:\n    /* \"#utility.yul\":433:552   */\ntag_38:\n    /* \"#utility.yul\":591:592   */\n  0x00\n    /* \"#utility.yul\":616:680   */\n  tag_41\n    /* \"#utility.yul\":672:679   */\n  dup6\n    /* \"#utility.yul\":663:669   */\n  dup3\n    /* \"#utility.yul\":652:661   */\n  dup7\n    /* \"#utility.yul\":648:670   */\n  add\n    /* \"#utility.yul\":616:680   */\n  tag_33\n  jump\t// in\ntag_41:\n    /* \"#utility.yul\":606:680   */\n  swap3\n  pop\n    /* \"#utility.yul\":562:690   */\n  pop\n    /* \"#utility.yul\":729:731   */\n  0x20\n    /* \"#utility.yul\":755:827   */\n  tag_42\n    /* \"#utility.yul\":819:826   */\n  dup6\n    /* \"#utility.yul\":810:816   */\n  dup3\n    /* \"#utility.yul\":799:808   */\n  dup7\n    /* \"#utility.yul\":795:817   */\n  add\n    /* \"#utility.yul\":755:827   */\n  tag_29\n  jump\t// in\ntag_42:\n    /* \"#utility.yul\":745:827   */\n  swap2\n  pop\n    /* \"#utility.yul\":700:837   */\n  pop\n    /* \"#utility.yul\":321:844   */\n  swap3\n  pop\n  swap3\n  swap1\n  pop\n  jump\t// out\n    /* \"#utility.yul\":931:1236   */\ntag_15:\n    /* \"#utility.yul\":971:974   */\n  0x00\n    /* \"#utility.yul\":990:1010   */\n  tag_46\n    /* \"#utility.yul\":1008:1009   */\n  dup3\n    /* \"#utility.yul\":990:1010   */\n  tag_47\n  jump\t// in\ntag_46:\n    /* \"#utility.yul\":985:1010   */\n  swap2\n  pop\n    /* \"#utility.yul\":1024:1044   */\n  tag_48\n    /* \"#utility.yul\":1042:1043   */\n  dup4\n    /* \"#utility.yul\":1024:1044   */\n  tag_47\n  jump\t// in\ntag_48:\n    /* \"#utility.yul\":1019:1044   */\n  swap3\n  pop\n    /* \"#utility.yul\":1178:1179   */\n  dup3\n    /* \"#utility.yul\":1110:1176   */\n  0xffffffffffffffffffffffffffffffffffffffffffffffffffffffffffffffff\n    /* \"#utility.yul\":1106:1180   */\n  sub\n    /* \"#utility.yul\":1103:1104   */\n  dup3\n    /* \"#utility.yul\":1100:1181   */\n  gt\n    /* \"#utility.yul\":1097:1204   */\n  iszero\n  tag_49\n  jumpi\n    /* \"#utility.yul\":1184:1202   */\n  tag_50\n  tag_51\n  jump\t// in\ntag_50:\n    /* \"#utility.yul\":1097:1204   */\ntag_49:\n    /* \"#utility.yul\":1228:1229   */\n  dup3\n    /* \"#utility.yul\":1225:1226   */\n  dup3\n    /* \"#utility.yul\":1221:1230   */\n  add\n    /* \"#utility.yul\":1214:1230   */\n  swap1\n  pop\n    /* \"#utility.yul\":931:1236   */\n  swap3\n  swap2\n  pop\n  pop\n  jump\t// out\n    /* \"#utility.yul\":1242:1346   */\ntag_52:\n    /* \"#utility.yul\":1287:1294   */\n  0x00\n    /* \"#utility.yul\":1316:1340   */\n  tag_54\n    /* \"#utility.yul\":1334:1339   */\n  dup3\n    /* \"#utility.yul\":1316:1340   */\n  tag_55\n  jump\t// in\ntag_54:\n    /* \"#utility.yul\":1305:1340   */\n  swap1\n  pop\n    /* \"#utility.yul\":1242:1346   */\n  swap2\n  swap1\n  pop\n  jump\t// out\n    /* \"#utility.yul\":1352:1478   */\ntag_55:\n    /* \"#utility.yul\":1389:1396   */\n  0x00\n    /* \"#utility.yul\":1429:1471   */\n  0xffffffffffffffffffffffffffffffffffffffff\n    /* \"#utility.yul\":1422:1427   */\n  dup3\n    /* \"#utility.yul\":1418:1472   */\n  and\n    /* \"#utility.yul\":1407:1472   */\n  swap1\n  pop\n    /* \"#utility.yul\":1352:1478   */\n  swap2\n  swap1\n  pop\n  jump\t// out\n    /* \"#utility.yul\":1484:1561   */\ntag_47:\n    /* \"#utility.yul\":1521:1528   */\n  0x00\n    /* \"#utility.yul\":1550:1555   */\n  dup2\n    /* \"#utility.yul\":1539:1555   */\n  swap1\n  pop\n    /* \"#utility.yul\":1484:1561   */\n  swap2\n  swap1\n  pop\n  jump\t// out\n    /* \"#utility.yul\":1567:1887   */\ntag_18:\n    /* \"#utility.yul\":1611:1617   */\n  0x00\n    /* \"#utility.yul\":1648:1649   */\n  0x02\n    /* \"#utility.yul\":1642:1646   */\n  dup3\n    /* \"#utility.yul\":1638:1650   */\n  div\n    /* \"#utility.yul\":1628:1650   */\n  swap1\n  pop\n    /* \"#utility.yul\":1695:1696   */\n  0x01\n    /* \"#utility.yul\":1689:1693   */\n  dup3\n    /* \"#utility.yul\":1685:1697   */\n  and\n    /* \"#utility.yul\":1716:1734   */\n  dup1\n    /* \"#utility.yul\":1706:1787   */\n  tag_59\n  jumpi\n    /* \"#utility.yul\":1772:1776   */\n  0x7f\n    /* \"#utility.yul\":1764:1770   */\n  dup3\n    /* \"#utility.yul\":1760:1777   */\n  and\n    /* \"#utility.yul\":1750:1777   */\n  swap2\n  pop\n    /* \"#utility.yul\":1706:1787   */\ntag_59:\n    /* \"#utility.yul\":1834:1836   */\n  0x20\n    /* \"#utility.yul\":1826:1832   */\n  dup3\n    /* \"#utility.yul\":1823:1837   */\n  lt\n    /* \"#utility.yul\":1803:1821   */\n  dup2\n    /* \"#utility.yul\":1800:1838   */\n  eq\n    /* \"#utility.yul\":1797:1881   */\n  iszero\n  tag_60\n  jumpi\n    /* \"#utility.yul\":1853:1871   */\n  tag_61\n  tag_62\n  jump\t// in\ntag_61:\n    /* \"#utility.yul\":1797:1881   */\ntag_60:\n    /* \"#utility.yul\":1618:1887   */\n  pop\n    /* \"#utility.yul\":1567:1887   */\n  swap2\n  swap1\n  pop\n  jump\t// out\n    /* \"#utility.yul\":1893:2073   */\ntag_51:\n    /* \"#utility.yul\":1941:2018   */\n  0x4e487b7100000000000000000000000000000000000000000000000000000000\n    /* \"#utility.yul\":1938:1939   */\n  0x00\n    /* \"#utility.yul\":1931:2019   */\n  mstore\n    /* \"#utility.yul\":2038:2042   */\n  0x11\n    /* \"#utility.yul\":2035:2036   */\n  0x04\n    /* \"#utility.yul\":2028:2043   */\n  mstore\n    /* \"#utility.yul\":2062:2066   */\n  0x24\n    /* \"#utility.yul\":2059:2060   */\n  0x00\n    /* \"#utility.yul\":2052:2067   */\n  revert\n    /* \"#utility.yul\":2079:2259   */\ntag_13:\n    /* \"#utility.yul\":2127:2204   */\n  0x4e487b7100000000000000000000000000000000000000000000000000000000\n    /* \"#utility.yul\":2124:2125   */\n  0x00\n    /* \"#utility.yul\":2117:2205   */\n  mstore\n    /* \"#utility.yul\":2224:2228   */\n  0x21\n    /* \"#utility.yul\":2221:2222   */\n  0x04\n    /* \"#utility.yul\":2214:2229   */\n  mstore\n    /* \"#utility.yul\":2248:2252   */\n  0x24\n    /* \"#utility.yul\":2245:2246   */\n  0x00\n    /* \"#utility.yul\":2238:2253   */\n  revert\n    /* \"#utility.yul\":2265:2445   */\ntag_62:\n    /* \"#utility.yul\":2313:2390   */\n  0x4e487b7100000000000000000000000000000000000000000000000000000000\n    /* \"#utility.yul\":2310:2311   */\n  0x00\n    /* \"#utility.yul\":2303:2391   */\n  mstore\n    /* \"#utility.yul\":2410:2414   */\n  0x22\n    /* \"#utility.yul\":2407:2408   */\n  0x04\n    /* \"#utility.yul\":2400:2415   */\n  mstore\n    /* \"#utility.yul\":2434:2438   */\n  0x24\n    /* \"#utility.yul\":2431:2432   */\n  0x00\n    /* \"#utility.yul\":2424:2439   */\n  revert\n    /* \"#utility.yul\":2574:2691   */\ntag_40:\n    /* \"#utility.yul\":2683:2684   */\n  0x00\n    /* \"#utility.yul\":2680:2681   */\n  dup1\n    /* \"#utility.yul\":2673:2685   */\n  revert\n    /* \"#utility.yul\":2697:2835   */\ntag_32:\n    /* \"#utility.yul\":2778:2810   */\n  tag_70\n    /* \"#utility.yul\":2804:2809   */\n  dup2\n    /* \"#utility.yul\":2778:2810   */\n  tag_52\n  jump\t// in\ntag_70:\n    /* \"#utility.yul\":2771:2776   */\n  dup2\n    /* \"#utility.yul\":2768:2811   */\n  eq\n    /* \"#utility.yul\":2758:2829   */\n  tag_71\n  jumpi\n    /* \"#utility.yul\":2825:2826   */\n  0x00\n    /* \"#utility.yul\":2822:2823   */\n  dup1\n    /* \"#utility.yul\":2815:2827   */\n  revert\n    /* \"#utility.yul\":2758:2829   */\ntag_71:\n    /* \"#utility.yul\":2697:2835   */\n  pop\n  jump\t// out\n    /* \"#utility.yul\":2841:2963   */\ntag_36:\n    /* \"#utility.yul\":2914:2938   */\n  tag_73\n    /* \"#utility.yul\":2932:2937   */\n  dup2\n    /* \"#utility.yul\":2914:2938   */\n  tag_47\n  jump\t// in\ntag_73:\n    /* \"#utility.yul\":2907:2912   */\n  dup2\n    /* \"#utility.yul\":2904:2939   */\n  eq\n    /* \"#utility.yul\":2894:2957   */\n  tag_74\n  jumpi\n    /* \"#utility.yul\":2953:2954   */\n  0x00\n    /* \"#utility.yul\":2950:2951   */\n  dup1\n    /* \"#utility.yul\":2943:2955   */\n  revert\n    /* \"#utility.yul\":2894:2957   */\ntag_74:\n    /* \"#utility.yul\":2841:2963   */\n  pop\n  jump\t// out\n    /* \"contracts/Erc20token.sol\":3280:6931  contract icoContract is MyToken{\r... */\ntag_16:\n  dataSize(sub_0)\n  dup1\n  dataOffset(sub_0)\n  0x00\n  codecopy\n  0x00\n  return\nstop\n\nsub_0: assembly {\n        /* \"contracts/Erc20token.sol\":3280:6931  contract icoContract is MyToken{\r... */\n      mstore(0x40, 0x80)\n      jumpi(tag_1, lt(calldatasize, 0x04))\n      shr(0xe0, calldataload(0x00))\n      dup1\n      0x5ed7ca5b\n      gt\n      tag_28\n      jumpi\n      dup1\n      0xa9bcea61\n      gt\n      tag_29\n      jumpi\n      dup1\n      0xdd62ed3e\n      gt\n      tag_30\n      jumpi\n      dup1\n      0xdd62ed3e\n      eq\n      tag_24\n      jumpi\n      dup1\n      0xe8b5e51f\n      eq\n      tag_25\n      jumpi\n      dup1\n      0xf851a440\n      eq\n      tag_26\n      jumpi\n      dup1\n      0xfb86a404\n      eq\n      tag_27\n      jumpi\n      jump(tag_1)\n    tag_30:\n      dup1\n      0xa9bcea61\n      eq\n      tag_21\n      jumpi\n      dup1\n      0xbb0c8298\n      eq\n      tag_22\n      jumpi\n      dup1\n      0xc59ee1dc\n      eq\n      tag_23\n      jumpi\n      jump(tag_1)\n    tag_29:\n      dup1\n      0x5ed7ca5b\n      eq\n      tag_15\n      jumpi\n      dup1\n      0x6d58c88f\n      eq\n      tag_16\n      jumpi\n      dup1\n      0x70a08231\n      eq\n      tag_17\n      jumpi\n      dup1\n      0x78e97925\n      eq\n      tag_18\n      jumpi\n      dup1\n      0x95d89b41\n      eq\n      tag_19\n      jumpi\n      dup1\n      0xa9059cbb\n      eq\n      tag_20\n      jumpi\n      jump(tag_1)\n    tag_28:\n      dup1\n      0x28f833b7\n      gt\n      tag_31\n      jumpi\n      dup1\n      0x3197cbb6\n      gt\n      tag_32\n      jumpi\n      dup1\n      0x3197cbb6\n      eq\n      tag_11\n      jumpi\n      dup1\n      0x44f38756\n      eq\n      tag_12\n      jumpi\n      dup1\n      0x4d853ee5\n      eq\n      tag_13\n      jumpi\n      dup1\n      0x5c658165\n      eq\n      tag_14\n      jumpi\n      jump(tag_1)\n    tag_32:\n      dup1\n      0x28f833b7\n      eq\n      tag_8\n      jumpi\n      dup1\n      0x2942b61a\n      eq\n      tag_9\n      jumpi\n      dup1\n      0x313ce567\n      eq\n      tag_10\n      jumpi\n      jump(tag_1)\n    tag_31:\n      dup1\n      0x046f7da2\n      eq\n      tag_2\n      jumpi\n      dup1\n      0x06fdde03\n      eq\n      tag_3\n      jumpi\n      dup1\n      0x095ea7b3\n      eq\n      tag_4\n      jumpi\n      dup1\n      0x18160ddd\n      eq\n      tag_5\n      jumpi\n      dup1\n      0x23b872dd\n      eq\n      tag_6\n      jumpi\n      dup1\n      0x27e235e3\n      eq\n      tag_7\n      jumpi\n    tag_1:\n      0x00\n      dup1\n      revert\n        /* \"contracts/Erc20token.sol\":4834:4911  function resume() public onlyAdmin{\r... */\n    tag_2:\n      callvalue\n      dup1\n      iszero\n      tag_33\n      jumpi\n      0x00\n      dup1\n      revert\n    tag_33:\n      pop\n      tag_34\n      tag_35\n      jump\t// in\n    tag_34:\n      stop\n        /* \"contracts/Erc20token.sol\":1033:1062  string public name = \"ZILLAX\" */\n    tag_3:\n      callvalue\n      dup1\n      iszero\n      tag_36\n      jumpi\n      0x00\n      dup1\n      revert\n    tag_36:\n      pop\n      tag_37\n      tag_38\n      jump\t// in\n    tag_37:\n      mload(0x40)\n      tag_39\n      swap2\n      swap1\n      tag_40\n      jump\t// in\n    tag_39:\n      mload(0x40)\n      dup1\n      swap2\n      sub\n      swap1\n      return\n        /* \"contracts/Erc20token.sol\":2225:2627  function approve(address spender, uint tokens) public override returns (bool success){\r... */\n    tag_4:\n      callvalue\n      dup1\n      iszero\n      tag_41\n      jumpi\n      0x00\n      dup1\n      revert\n    tag_41:\n      pop\n      tag_42\n      0x04\n      dup1\n      calldatasize\n      sub\n      dup2\n      add\n      swap1\n      tag_43\n      swap2\n      swap1\n      tag_44\n      jump\t// in\n    tag_43:\n      tag_45\n      jump\t// in\n    tag_42:\n      mload(0x40)\n      tag_46\n      swap2\n      swap1\n      tag_47\n      jump\t// in\n    tag_46:\n      mload(0x40)\n      dup1\n      swap2\n      sub\n      swap1\n      return\n        /* \"contracts/Erc20token.sol\":1168:1200  uint public override totalSupply */\n    tag_5:\n      callvalue\n      dup1\n      iszero\n      tag_48\n      jumpi\n      0x00\n      dup1\n      revert\n    tag_48:\n      pop\n      tag_49\n      tag_50\n      jump\t// in\n    tag_49:\n      mload(0x40)\n      tag_51\n      swap2\n      swap1\n      tag_52\n      jump\t// in\n    tag_51:\n      mload(0x40)\n      dup1\n      swap2\n      sub\n      swap1\n      return\n        /* \"contracts/Erc20token.sol\":2635:3271  function transferFrom(address from, address to, uint tokens) public override returns (bool success){\r... */\n    tag_6:\n      callvalue\n      dup1\n      iszero\n      tag_53\n      jumpi\n      0x00\n      dup1\n      revert\n    tag_53:\n      pop\n      tag_54\n      0x04\n      dup1\n      calldatasize\n      sub\n      dup2\n      add\n      swap1\n      tag_55\n      swap2\n      swap1\n      tag_56\n      jump\t// in\n    tag_55:\n      tag_57\n      jump\t// in\n    tag_54:\n      mload(0x40)\n      tag_58\n      swap2\n      swap1\n      tag_47\n      jump\t// in\n    tag_58:\n      mload(0x40)\n      dup1\n      swap2\n      sub\n      swap1\n      return\n        /* \"contracts/Erc20token.sol\":1209:1250  mapping(address => uint) public  balances */\n    tag_7:\n      callvalue\n      dup1\n      iszero\n      tag_59\n      jumpi\n      0x00\n      dup1\n      revert\n    tag_59:\n      pop\n      tag_60\n      0x04\n      dup1\n      calldatasize\n      sub\n      dup2\n      add\n      swap1\n      tag_61\n      swap2\n      swap1\n      tag_62\n      jump\t// in\n    tag_61:\n      tag_63\n      jump\t// in\n    tag_60:\n      mload(0x40)\n      tag_64\n      swap2\n      swap1\n      tag_52\n      jump\t// in\n    tag_64:\n      mload(0x40)\n      dup1\n      swap2\n      sub\n      swap1\n      return\n        /* \"contracts/Erc20token.sol\":4077:4114  address payable public depositAddress */\n    tag_8:\n      callvalue\n      dup1\n      iszero\n      tag_65\n      jumpi\n      0x00\n      dup1\n      revert\n    tag_65:\n      pop\n      tag_66\n      tag_67\n      jump\t// in\n    tag_66:\n      mload(0x40)\n      tag_68\n      swap2\n      swap1\n      tag_69\n      jump\t// in\n    tag_68:\n      mload(0x40)\n      dup1\n      swap2\n      sub\n      swap1\n      return\n        /* \"contracts/Erc20token.sol\":5071:5557  function checkIcoState() public view returns(State){\r... */\n    tag_9:\n      callvalue\n      dup1\n      iszero\n      tag_70\n      jumpi\n      0x00\n      dup1\n      revert\n    tag_70:\n      pop\n      tag_71\n      tag_72\n      jump\t// in\n    tag_71:\n      mload(0x40)\n      tag_73\n      swap2\n      swap1\n      tag_74\n      jump\t// in\n    tag_73:\n      mload(0x40)\n      dup1\n      swap2\n      sub\n      swap1\n      return\n        /* \"contracts/Erc20token.sol\":1104:1128  uint public decimals = 0 */\n    tag_10:\n      callvalue\n      dup1\n      iszero\n      tag_75\n      jumpi\n      0x00\n      dup1\n      revert\n    tag_75:\n      pop\n      tag_76\n      tag_77\n      jump\t// in\n    tag_76:\n      mload(0x40)\n      tag_78\n      swap2\n      swap1\n      tag_52\n      jump\t// in\n    tag_78:\n      mload(0x40)\n      dup1\n      swap2\n      sub\n      swap1\n      return\n        /* \"contracts/Erc20token.sol\":3817:3836  uint public endTime */\n    tag_11:\n      callvalue\n      dup1\n      iszero\n      tag_79\n      jumpi\n      0x00\n      dup1\n      revert\n    tag_79:\n      pop\n      tag_80\n      tag_81\n      jump\t// in\n    tag_80:\n      mload(0x40)\n      tag_82\n      swap2\n      swap1\n      tag_52\n      jump\t// in\n    tag_82:\n      mload(0x40)\n      dup1\n      swap2\n      sub\n      swap1\n      return\n        /* \"contracts/Erc20token.sol\":4020:4041  State public icoState */\n    tag_12:\n      callvalue\n      dup1\n      iszero\n      tag_83\n      jumpi\n      0x00\n      dup1\n      revert\n    tag_83:\n      pop\n      tag_84\n      tag_85\n      jump\t// in\n    tag_84:\n      mload(0x40)\n      tag_86\n      swap2\n      swap1\n      tag_74\n      jump\t// in\n    tag_86:\n      mload(0x40)\n      dup1\n      swap2\n      sub\n      swap1\n      return\n        /* \"contracts/Erc20token.sol\":1137:1159  address public founder */\n    tag_13:\n      callvalue\n      dup1\n      iszero\n      tag_87\n      jumpi\n      0x00\n      dup1\n      revert\n    tag_87:\n      pop\n      tag_88\n      tag_89\n      jump\t// in\n    tag_88:\n      mload(0x40)\n      tag_90\n      swap2\n      swap1\n      tag_91\n      jump\t// in\n    tag_90:\n      mload(0x40)\n      dup1\n      swap2\n      sub\n      swap1\n      return\n        /* \"contracts/Erc20token.sol\":1259:1318  mapping(address => mapping(address => uint)) public allowed */\n    tag_14:\n      callvalue\n      dup1\n      iszero\n      tag_92\n      jumpi\n      0x00\n      dup1\n      revert\n    tag_92:\n      pop\n      tag_93\n      0x04\n      dup1\n      calldatasize\n      sub\n      dup2\n      add\n      swap1\n      tag_94\n      swap2\n      swap1\n      tag_95\n      jump\t// in\n    tag_94:\n      tag_96\n      jump\t// in\n    tag_93:\n      mload(0x40)\n      tag_97\n      swap2\n      swap1\n      tag_52\n      jump\t// in\n    tag_97:\n      mload(0x40)\n      dup1\n      swap2\n      sub\n      swap1\n      return\n        /* \"contracts/Erc20token.sol\":4742:4816  function halt() public onlyAdmin{\r... */\n    tag_15:\n      callvalue\n      dup1\n      iszero\n      tag_98\n      jumpi\n      0x00\n      dup1\n      revert\n    tag_98:\n      pop\n      tag_99\n      tag_100\n      jump\t// in\n    tag_99:\n      stop\n        /* \"contracts/Erc20token.sol\":4929:5063  function changeDepositAddress(address payable newDepositAddress) public onlyAdmin{\r... */\n    tag_16:\n      callvalue\n      dup1\n      iszero\n      tag_101\n      jumpi\n      0x00\n      dup1\n      revert\n    tag_101:\n      pop\n      tag_102\n      0x04\n      dup1\n      calldatasize\n      sub\n      dup2\n      add\n      swap1\n      tag_103\n      swap2\n      swap1\n      tag_104\n      jump\t// in\n    tag_103:\n      tag_105\n      jump\t// in\n    tag_102:\n      stop\n        /* \"contracts/Erc20token.sol\":1461:1589  function balanceOf(address tokenOwner) public override view returns (uint balance){\r... */\n    tag_17:\n      callvalue\n      dup1\n      iszero\n      tag_106\n      jumpi\n      0x00\n      dup1\n      revert\n    tag_106:\n      pop\n      tag_107\n      0x04\n      dup1\n      calldatasize\n      sub\n      dup2\n      add\n      swap1\n      tag_108\n      swap2\n      swap1\n      tag_62\n      jump\t// in\n    tag_108:\n      tag_109\n      jump\t// in\n    tag_107:\n      mload(0x40)\n      tag_110\n      swap2\n      swap1\n      tag_52\n      jump\t// in\n    tag_110:\n      mload(0x40)\n      dup1\n      swap2\n      sub\n      swap1\n      return\n        /* \"contracts/Erc20token.sol\":3771:3810  uint public startTime = block.timestamp */\n    tag_18:\n      callvalue\n      dup1\n      iszero\n      tag_111\n      jumpi\n      0x00\n      dup1\n      revert\n    tag_111:\n      pop\n      tag_112\n      tag_113\n      jump\t// in\n    tag_112:\n      mload(0x40)\n      tag_114\n      swap2\n      swap1\n      tag_52\n      jump\t// in\n    tag_114:\n      mload(0x40)\n      dup1\n      swap2\n      sub\n      swap1\n      return\n        /* \"contracts/Erc20token.sol\":1069:1097  string public symbol = \"ZLZ\" */\n    tag_19:\n      callvalue\n      dup1\n      iszero\n      tag_115\n      jumpi\n      0x00\n      dup1\n      revert\n    tag_115:\n      pop\n      tag_116\n      tag_117\n      jump\t// in\n    tag_116:\n      mload(0x40)\n      tag_118\n      swap2\n      swap1\n      tag_40\n      jump\t// in\n    tag_118:\n      mload(0x40)\n      dup1\n      swap2\n      sub\n      swap1\n      return\n        /* \"contracts/Erc20token.sol\":1643:1964  function transfer(address to, uint tokens) public override returns (bool success){\r... */\n    tag_20:\n      callvalue\n      dup1\n      iszero\n      tag_119\n      jumpi\n      0x00\n      dup1\n      revert\n    tag_119:\n      pop\n      tag_120\n      0x04\n      dup1\n      calldatasize\n      sub\n      dup2\n      add\n      swap1\n      tag_121\n      swap2\n      swap1\n      tag_44\n      jump\t// in\n    tag_121:\n      tag_122\n      jump\t// in\n    tag_120:\n      mload(0x40)\n      tag_123\n      swap2\n      swap1\n      tag_47\n      jump\t// in\n    tag_123:\n      mload(0x40)\n      dup1\n      swap2\n      sub\n      swap1\n      return\n        /* \"contracts/Erc20token.sol\":3936:3971  uint public maximumAmount = 1 ether */\n    tag_21:\n      callvalue\n      dup1\n      iszero\n      tag_124\n      jumpi\n      0x00\n      dup1\n      revert\n    tag_124:\n      pop\n      tag_125\n      tag_126\n      jump\t// in\n    tag_125:\n      mload(0x40)\n      tag_127\n      swap2\n      swap1\n      tag_52\n      jump\t// in\n    tag_127:\n      mload(0x40)\n      dup1\n      swap2\n      sub\n      swap1\n      return\n        /* \"contracts/Erc20token.sol\":3892:3929  uint public minimumAmount = 0.1 ether */\n    tag_22:\n      callvalue\n      dup1\n      iszero\n      tag_128\n      jumpi\n      0x00\n      dup1\n      revert\n    tag_128:\n      pop\n      tag_129\n      tag_130\n      jump\t// in\n    tag_129:\n      mload(0x40)\n      tag_131\n      swap2\n      swap1\n      tag_52\n      jump\t// in\n    tag_131:\n      mload(0x40)\n      dup1\n      swap2\n      sub\n      swap1\n      return\n        /* \"contracts/Erc20token.sol\":3517:3541  uint public raisedAmount */\n    tag_23:\n      callvalue\n      dup1\n      iszero\n      tag_132\n      jumpi\n      0x00\n      dup1\n      revert\n    tag_132:\n      pop\n      tag_133\n      tag_134\n      jump\t// in\n    tag_133:\n      mload(0x40)\n      tag_135\n      swap2\n      swap1\n      tag_52\n      jump\t// in\n    tag_135:\n      mload(0x40)\n      dup1\n      swap2\n      sub\n      swap1\n      return\n        /* \"contracts/Erc20token.sol\":2062:2217  function allowance(address tokenOwner, address spender) public override view returns (uint remaining){\r... */\n    tag_24:\n      callvalue\n      dup1\n      iszero\n      tag_136\n      jumpi\n      0x00\n      dup1\n      revert\n    tag_136:\n      pop\n      tag_137\n      0x04\n      dup1\n      calldatasize\n      sub\n      dup2\n      add\n      swap1\n      tag_138\n      swap2\n      swap1\n      tag_95\n      jump\t// in\n    tag_138:\n      tag_139\n      jump\t// in\n    tag_137:\n      mload(0x40)\n      tag_140\n      swap2\n      swap1\n      tag_52\n      jump\t// in\n    tag_140:\n      mload(0x40)\n      dup1\n      swap2\n      sub\n      swap1\n      return\n        /* \"contracts/Erc20token.sol\":5606:6926  function invest() public payable onlyAdmin returns(bool){\r... */\n    tag_25:\n      tag_141\n      tag_142\n      jump\t// in\n    tag_141:\n      mload(0x40)\n      tag_143\n      swap2\n      swap1\n      tag_47\n      jump\t// in\n    tag_143:\n      mload(0x40)\n      dup1\n      swap2\n      sub\n      swap1\n      return\n        /* \"contracts/Erc20token.sol\":3320:3340  address public admin */\n    tag_26:\n      callvalue\n      dup1\n      iszero\n      tag_144\n      jumpi\n      0x00\n      dup1\n      revert\n    tag_144:\n      pop\n      tag_145\n      tag_146\n      jump\t// in\n    tag_145:\n      mload(0x40)\n      tag_147\n      swap2\n      swap1\n      tag_91\n      jump\t// in\n    tag_147:\n      mload(0x40)\n      dup1\n      swap2\n      sub\n      swap1\n      return\n        /* \"contracts/Erc20token.sol\":3600:3629  uint public hardCap = 5 ether */\n    tag_27:\n      callvalue\n      dup1\n      iszero\n      tag_148\n      jumpi\n      0x00\n      dup1\n      revert\n    tag_148:\n      pop\n      tag_149\n      tag_150\n      jump\t// in\n    tag_149:\n      mload(0x40)\n      tag_151\n      swap2\n      swap1\n      tag_52\n      jump\t// in\n    tag_151:\n      mload(0x40)\n      dup1\n      swap2\n      sub\n      swap1\n      return\n        /* \"contracts/Erc20token.sol\":4834:4911  function resume() public onlyAdmin{\r... */\n    tag_35:\n        /* \"contracts/Erc20token.sol\":4643:4648  admin */\n      0x07\n      0x00\n      swap1\n      sload\n      swap1\n      0x0100\n      exp\n      swap1\n      div\n      0xffffffffffffffffffffffffffffffffffffffff\n      and\n        /* \"contracts/Erc20token.sol\":4629:4648  msg.sender == admin */\n      0xffffffffffffffffffffffffffffffffffffffff\n      and\n        /* \"contracts/Erc20token.sol\":4629:4639  msg.sender */\n      caller\n        /* \"contracts/Erc20token.sol\":4629:4648  msg.sender == admin */\n      0xffffffffffffffffffffffffffffffffffffffff\n      and\n      eq\n        /* \"contracts/Erc20token.sol\":4621:4687  require(msg.sender == admin, \"Access denied, you ae not an admin\") */\n      tag_153\n      jumpi\n      mload(0x40)\n      0x08c379a000000000000000000000000000000000000000000000000000000000\n      dup2\n      mstore\n      0x04\n      add\n      tag_154\n      swap1\n      tag_155\n      jump\t// in\n    tag_154:\n      mload(0x40)\n      dup1\n      swap2\n      sub\n      swap1\n      revert\n    tag_153:\n        /* \"contracts/Erc20token.sol\":4890:4903  State.Running */\n      0x01\n        /* \"contracts/Erc20token.sol\":4879:4887  icoState */\n      0x0f\n      0x00\n        /* \"contracts/Erc20token.sol\":4879:4903  icoState = State.Running */\n      0x0100\n      exp\n      dup2\n      sload\n      dup2\n      0xff\n      mul\n      not\n      and\n      swap1\n      dup4\n      0x04\n      dup2\n      gt\n      iszero\n      tag_157\n      jumpi\n      tag_158\n      tag_159\n      jump\t// in\n    tag_158:\n    tag_157:\n      mul\n      or\n      swap1\n      sstore\n      pop\n        /* \"contracts/Erc20token.sol\":4834:4911  function resume() public onlyAdmin{\r... */\n      jump\t// out\n        /* \"contracts/Erc20token.sol\":1033:1062  string public name = \"ZILLAX\" */\n    tag_38:\n      0x00\n      dup1\n      sload\n      tag_160\n      swap1\n      tag_161\n      jump\t// in\n    tag_160:\n      dup1\n      0x1f\n      add\n      0x20\n      dup1\n      swap2\n      div\n      mul\n      0x20\n      add\n      mload(0x40)\n      swap1\n      dup2\n      add\n      0x40\n      mstore\n      dup1\n      swap3\n      swap2\n      swap1\n      dup2\n      dup2\n      mstore\n      0x20\n      add\n      dup3\n      dup1\n      sload\n      tag_162\n      swap1\n      tag_161\n      jump\t// in\n    tag_162:\n      dup1\n      iszero\n      tag_163\n      jumpi\n      dup1\n      0x1f\n      lt\n      tag_164\n      jumpi\n      0x0100\n      dup1\n      dup4\n      sload\n      div\n      mul\n      dup4\n      mstore\n      swap2\n      0x20\n      add\n      swap2\n      jump(tag_163)\n    tag_164:\n      dup3\n      add\n      swap2\n      swap1\n      0x00\n      mstore\n      keccak256(0x00, 0x20)\n      swap1\n    tag_165:\n      dup2\n      sload\n      dup2\n      mstore\n      swap1\n      0x01\n      add\n      swap1\n      0x20\n      add\n      dup1\n      dup4\n      gt\n      tag_165\n      jumpi\n      dup3\n      swap1\n      sub\n      0x1f\n      and\n      dup3\n      add\n      swap2\n    tag_163:\n      pop\n      pop\n      pop\n      pop\n      pop\n      dup2\n      jump\t// out\n        /* \"contracts/Erc20token.sol\":2225:2627  function approve(address spender, uint tokens) public override returns (bool success){\r... */\n    tag_45:\n        /* \"contracts/Erc20token.sol\":2297:2309  bool success */\n      0x00\n        /* \"contracts/Erc20token.sol\":2355:2361  tokens */\n      dup2\n        /* \"contracts/Erc20token.sol\":2331:2339  balances */\n      0x05\n        /* \"contracts/Erc20token.sol\":2331:2351  balances[msg.sender] */\n      0x00\n        /* \"contracts/Erc20token.sol\":2340:2350  msg.sender */\n      caller\n        /* \"contracts/Erc20token.sol\":2331:2351  balances[msg.sender] */\n      0xffffffffffffffffffffffffffffffffffffffff\n      and\n      0xffffffffffffffffffffffffffffffffffffffff\n      and\n      dup2\n      mstore\n      0x20\n      add\n      swap1\n      dup2\n      mstore\n      0x20\n      add\n      0x00\n      keccak256\n      sload\n        /* \"contracts/Erc20token.sol\":2331:2361  balances[msg.sender] >= tokens */\n      lt\n      iszero\n        /* \"contracts/Erc20token.sol\":2323:2414  require(balances[msg.sender] >= tokens, \"Token value is greater than your current holding\") */\n      tag_167\n      jumpi\n      mload(0x40)\n      0x08c379a000000000000000000000000000000000000000000000000000000000\n      dup2\n      mstore\n      0x04\n      add\n      tag_168\n      swap1\n      tag_169\n      jump\t// in\n    tag_168:\n      mload(0x40)\n      dup1\n      swap2\n      sub\n      swap1\n      revert\n    tag_167:\n        /* \"contracts/Erc20token.sol\":2442:2443  0 */\n      0x00\n        /* \"contracts/Erc20token.sol\":2433:2439  tokens */\n      dup3\n        /* \"contracts/Erc20token.sol\":2433:2443  tokens > 0 */\n      gt\n        /* \"contracts/Erc20token.sol\":2425:2482  require(tokens > 0, \"Token value must be greater than 0\") */\n      tag_170\n      jumpi\n      mload(0x40)\n      0x08c379a000000000000000000000000000000000000000000000000000000000\n      dup2\n      mstore\n      0x04\n      add\n      tag_171\n      swap1\n      tag_172\n      jump\t// in\n    tag_171:\n      mload(0x40)\n      dup1\n      swap2\n      sub\n      swap1\n      revert\n    tag_170:\n        /* \"contracts/Erc20token.sol\":2534:2540  tokens */\n      dup2\n        /* \"contracts/Erc20token.sol\":2503:2510  allowed */\n      0x06\n        /* \"contracts/Erc20token.sol\":2503:2522  allowed[msg.sender] */\n      0x00\n        /* \"contracts/Erc20token.sol\":2511:2521  msg.sender */\n      caller\n        /* \"contracts/Erc20token.sol\":2503:2522  allowed[msg.sender] */\n      0xffffffffffffffffffffffffffffffffffffffff\n      and\n      0xffffffffffffffffffffffffffffffffffffffff\n      and\n      dup2\n      mstore\n      0x20\n      add\n      swap1\n      dup2\n      mstore\n      0x20\n      add\n      0x00\n      keccak256\n        /* \"contracts/Erc20token.sol\":2503:2531  allowed[msg.sender][spender] */\n      0x00\n        /* \"contracts/Erc20token.sol\":2523:2530  spender */\n      dup6\n        /* \"contracts/Erc20token.sol\":2503:2531  allowed[msg.sender][spender] */\n      0xffffffffffffffffffffffffffffffffffffffff\n      and\n      0xffffffffffffffffffffffffffffffffffffffff\n      and\n      dup2\n      mstore\n      0x20\n      add\n      swap1\n      dup2\n      mstore\n      0x20\n      add\n      0x00\n      keccak256\n        /* \"contracts/Erc20token.sol\":2503:2540  allowed[msg.sender][spender] = tokens */\n      dup2\n      swap1\n      sstore\n      pop\n        /* \"contracts/Erc20token.sol\":2579:2586  spender */\n      dup3\n        /* \"contracts/Erc20token.sol\":2558:2595  Approval(msg.sender, spender, tokens) */\n      0xffffffffffffffffffffffffffffffffffffffff\n      and\n        /* \"contracts/Erc20token.sol\":2567:2577  msg.sender */\n      caller\n        /* \"contracts/Erc20token.sol\":2558:2595  Approval(msg.sender, spender, tokens) */\n      0xffffffffffffffffffffffffffffffffffffffff\n      and\n      0x8c5be1e5ebec7d5bd14f71427d1e84f3dd0314c0f7b2291e5b200ac8c7c3b925\n        /* \"contracts/Erc20token.sol\":2588:2594  tokens */\n      dup5\n        /* \"contracts/Erc20token.sol\":2558:2595  Approval(msg.sender, spender, tokens) */\n      mload(0x40)\n      tag_173\n      swap2\n      swap1\n      tag_52\n      jump\t// in\n    tag_173:\n      mload(0x40)\n      dup1\n      swap2\n      sub\n      swap1\n      log3\n        /* \"contracts/Erc20token.sol\":2615:2619  true */\n      0x01\n        /* \"contracts/Erc20token.sol\":2608:2619  return true */\n      swap1\n      pop\n        /* \"contracts/Erc20token.sol\":2225:2627  function approve(address spender, uint tokens) public override returns (bool success){\r... */\n      swap3\n      swap2\n      pop\n      pop\n      jump\t// out\n        /* \"contracts/Erc20token.sol\":1168:1200  uint public override totalSupply */\n    tag_50:\n      sload(0x04)\n      dup2\n      jump\t// out\n        /* \"contracts/Erc20token.sol\":2635:3271  function transferFrom(address from, address to, uint tokens) public override returns (bool success){\r... */\n    tag_57:\n        /* \"contracts/Erc20token.sol\":2721:2733  bool success */\n      0x00\n        /* \"contracts/Erc20token.sol\":2782:2788  tokens */\n      dup2\n        /* \"contracts/Erc20token.sol\":2753:2760  allowed */\n      0x06\n        /* \"contracts/Erc20token.sol\":2753:2766  allowed[from] */\n      0x00\n        /* \"contracts/Erc20token.sol\":2761:2765  from */\n      dup7\n        /* \"contracts/Erc20token.sol\":2753:2766  allowed[from] */\n      0xffffffffffffffffffffffffffffffffffffffff\n      and\n      0xffffffffffffffffffffffffffffffffffffffff\n      and\n      dup2\n      mstore\n      0x20\n      add\n      swap1\n      dup2\n      mstore\n      0x20\n      add\n      0x00\n      keccak256\n        /* \"contracts/Erc20token.sol\":2753:2778  allowed[from][msg.sender] */\n      0x00\n        /* \"contracts/Erc20token.sol\":2767:2777  msg.sender */\n      caller\n        /* \"contracts/Erc20token.sol\":2753:2778  allowed[from][msg.sender] */\n      0xffffffffffffffffffffffffffffffffffffffff\n      and\n      0xffffffffffffffffffffffffffffffffffffffff\n      and\n      dup2\n      mstore\n      0x20\n      add\n      swap1\n      dup2\n      mstore\n      0x20\n      add\n      0x00\n      keccak256\n      sload\n        /* \"contracts/Erc20token.sol\":2753:2788  allowed[from][msg.sender] >= tokens */\n      lt\n      iszero\n        /* \"contracts/Erc20token.sol\":2745:2841  require(allowed[from][msg.sender] >= tokens, \"Token value is greater than the approved balance\") */\n      tag_175\n      jumpi\n      mload(0x40)\n      0x08c379a000000000000000000000000000000000000000000000000000000000\n      dup2\n      mstore\n      0x04\n      add\n      tag_176\n      swap1\n      tag_177\n      jump\t// in\n    tag_176:\n      mload(0x40)\n      dup1\n      swap2\n      sub\n      swap1\n      revert\n    tag_175:\n        /* \"contracts/Erc20token.sol\":2878:2884  tokens */\n      dup2\n        /* \"contracts/Erc20token.sol\":2860:2868  balances */\n      0x05\n        /* \"contracts/Erc20token.sol\":2860:2874  balances[from] */\n      0x00\n        /* \"contracts/Erc20token.sol\":2869:2873  from */\n      dup7\n        /* \"contracts/Erc20token.sol\":2860:2874  balances[from] */\n      0xffffffffffffffffffffffffffffffffffffffff\n      and\n      0xffffffffffffffffffffffffffffffffffffffff\n      and\n      dup2\n      mstore\n      0x20\n      add\n      swap1\n      dup2\n      mstore\n      0x20\n      add\n      0x00\n      keccak256\n      sload\n        /* \"contracts/Erc20token.sol\":2860:2884  balances[from] >= tokens */\n      lt\n      iszero\n        /* \"contracts/Erc20token.sol\":2852:2907  require(balances[from] >= tokens, \"Insuficient Balnce\") */\n      tag_178\n      jumpi\n      mload(0x40)\n      0x08c379a000000000000000000000000000000000000000000000000000000000\n      dup2\n      mstore\n      0x04\n      add\n      tag_179\n      swap1\n      tag_180\n      jump\t// in\n    tag_179:\n      mload(0x40)\n      dup1\n      swap2\n      sub\n      swap1\n      revert\n    tag_178:\n        /* \"contracts/Erc20token.sol\":2935:2936  0 */\n      0x00\n        /* \"contracts/Erc20token.sol\":2926:2932  tokens */\n      dup3\n        /* \"contracts/Erc20token.sol\":2926:2936  tokens > 0 */\n      gt\n        /* \"contracts/Erc20token.sol\":2918:2975  require(tokens > 0, \"Token value must be greater than 0\") */\n      tag_181\n      jumpi\n      mload(0x40)\n      0x08c379a000000000000000000000000000000000000000000000000000000000\n      dup2\n      mstore\n      0x04\n      add\n      tag_182\n      swap1\n      tag_172\n      jump\t// in\n    tag_182:\n      mload(0x40)\n      dup1\n      swap2\n      sub\n      swap1\n      revert\n    tag_181:\n        /* \"contracts/Erc20token.sol\":3017:3023  tokens */\n      dup2\n        /* \"contracts/Erc20token.sol\":2988:2995  allowed */\n      0x06\n        /* \"contracts/Erc20token.sol\":2988:3001  allowed[from] */\n      0x00\n        /* \"contracts/Erc20token.sol\":2996:3000  from */\n      dup7\n        /* \"contracts/Erc20token.sol\":2988:3001  allowed[from] */\n      0xffffffffffffffffffffffffffffffffffffffff\n      and\n      0xffffffffffffffffffffffffffffffffffffffff\n      and\n      dup2\n      mstore\n      0x20\n      add\n      swap1\n      dup2\n      mstore\n      0x20\n      add\n      0x00\n      keccak256\n        /* \"contracts/Erc20token.sol\":2988:3013  allowed[from][msg.sender] */\n      0x00\n        /* \"contracts/Erc20token.sol\":3002:3012  msg.sender */\n      caller\n        /* \"contracts/Erc20token.sol\":2988:3013  allowed[from][msg.sender] */\n      0xffffffffffffffffffffffffffffffffffffffff\n      and\n      0xffffffffffffffffffffffffffffffffffffffff\n      and\n      dup2\n      mstore\n      0x20\n      add\n      swap1\n      dup2\n      mstore\n      0x20\n      add\n      0x00\n      keccak256\n      0x00\n        /* \"contracts/Erc20token.sol\":2988:3023  allowed[from][msg.sender] -= tokens */\n      dup3\n      dup3\n      sload\n      tag_183\n      swap2\n      swap1\n      tag_184\n      jump\t// in\n    tag_183:\n      swap3\n      pop\n      pop\n      dup2\n      swap1\n      sstore\n      pop\n        /* \"contracts/Erc20token.sol\":3105:3111  tokens */\n      dup2\n        /* \"contracts/Erc20token.sol\":3087:3095  balances */\n      0x05\n        /* \"contracts/Erc20token.sol\":3087:3101  balances[from] */\n      0x00\n        /* \"contracts/Erc20token.sol\":3096:3100  from */\n      dup7\n        /* \"contracts/Erc20token.sol\":3087:3101  balances[from] */\n      0xffffffffffffffffffffffffffffffffffffffff\n      and\n      0xffffffffffffffffffffffffffffffffffffffff\n      and\n      dup2\n      mstore\n      0x20\n      add\n      swap1\n      dup2\n      mstore\n      0x20\n      add\n      0x00\n      keccak256\n      0x00\n        /* \"contracts/Erc20token.sol\":3087:3111  balances[from] -= tokens */\n      dup3\n      dup3\n      sload\n      tag_185\n      swap2\n      swap1\n      tag_184\n      jump\t// in\n    tag_185:\n      swap3\n      pop\n      pop\n      dup2\n      swap1\n      sstore\n      pop\n        /* \"contracts/Erc20token.sol\":3189:3195  tokens */\n      dup2\n        /* \"contracts/Erc20token.sol\":3173:3181  balances */\n      0x05\n        /* \"contracts/Erc20token.sol\":3173:3185  balances[to] */\n      0x00\n        /* \"contracts/Erc20token.sol\":3182:3184  to */\n      dup6\n        /* \"contracts/Erc20token.sol\":3173:3185  balances[to] */\n      0xffffffffffffffffffffffffffffffffffffffff\n      and\n      0xffffffffffffffffffffffffffffffffffffffff\n      and\n      dup2\n      mstore\n      0x20\n      add\n      swap1\n      dup2\n      mstore\n      0x20\n      add\n      0x00\n      keccak256\n      0x00\n        /* \"contracts/Erc20token.sol\":3173:3195  balances[to] += tokens */\n      dup3\n      dup3\n      sload\n      tag_186\n      swap2\n      swap1\n      tag_187\n      jump\t// in\n    tag_186:\n      swap3\n      pop\n      pop\n      dup2\n      swap1\n      sstore\n      pop\n        /* \"contracts/Erc20token.sol\":3228:3230  to */\n      dup3\n        /* \"contracts/Erc20token.sol\":3213:3239  Transfer(from, to, tokens) */\n      0xffffffffffffffffffffffffffffffffffffffff\n      and\n        /* \"contracts/Erc20token.sol\":3222:3226  from */\n      dup5\n        /* \"contracts/Erc20token.sol\":3213:3239  Transfer(from, to, tokens) */\n      0xffffffffffffffffffffffffffffffffffffffff\n      and\n      0xddf252ad1be2c89b69c2b068fc378daa952ba7f163c4a11628f55a4df523b3ef\n        /* \"contracts/Erc20token.sol\":3232:3238  tokens */\n      dup5\n        /* \"contracts/Erc20token.sol\":3213:3239  Transfer(from, to, tokens) */\n      mload(0x40)\n      tag_188\n      swap2\n      swap1\n      tag_52\n      jump\t// in\n    tag_188:\n      mload(0x40)\n      dup1\n      swap2\n      sub\n      swap1\n      log3\n        /* \"contracts/Erc20token.sol\":3259:3263  true */\n      0x01\n        /* \"contracts/Erc20token.sol\":3252:3263  return true */\n      swap1\n      pop\n        /* \"contracts/Erc20token.sol\":2635:3271  function transferFrom(address from, address to, uint tokens) public override returns (bool success){\r... */\n      swap4\n      swap3\n      pop\n      pop\n      pop\n      jump\t// out\n        /* \"contracts/Erc20token.sol\":1209:1250  mapping(address => uint) public  balances */\n    tag_63:\n      mstore(0x20, 0x05)\n      dup1\n      0x00\n      mstore\n      keccak256(0x00, 0x40)\n      0x00\n      swap2\n      pop\n      swap1\n      pop\n      sload\n      dup2\n      jump\t// out\n        /* \"contracts/Erc20token.sol\":4077:4114  address payable public depositAddress */\n    tag_67:\n      0x0f\n      0x01\n      swap1\n      sload\n      swap1\n      0x0100\n      exp\n      swap1\n      div\n      0xffffffffffffffffffffffffffffffffffffffff\n      and\n      dup2\n      jump\t// out\n        /* \"contracts/Erc20token.sol\":5071:5557  function checkIcoState() public view returns(State){\r... */\n    tag_72:\n        /* \"contracts/Erc20token.sol\":5116:5121  State */\n      0x00\n        /* \"contracts/Erc20token.sol\":5133:5151  State currentState */\n      dup1\n        /* \"contracts/Erc20token.sol\":5177:5189  State.Halted */\n      0x04\n        /* \"contracts/Erc20token.sol\":5165:5189  icoState == State.Halted */\n      dup1\n      dup2\n      gt\n      iszero\n      tag_190\n      jumpi\n      tag_191\n      tag_159\n      jump\t// in\n    tag_191:\n    tag_190:\n        /* \"contracts/Erc20token.sol\":5165:5173  icoState */\n      0x0f\n      0x00\n      swap1\n      sload\n      swap1\n      0x0100\n      exp\n      swap1\n      div\n      0xff\n      and\n        /* \"contracts/Erc20token.sol\":5165:5189  icoState == State.Halted */\n      0x04\n      dup2\n      gt\n      iszero\n      tag_192\n      jumpi\n      tag_193\n      tag_159\n      jump\t// in\n    tag_193:\n    tag_192:\n      eq\n        /* \"contracts/Erc20token.sol\":5162:5520  if(icoState == State.Halted){\r... */\n      iszero\n      tag_194\n      jumpi\n        /* \"contracts/Erc20token.sol\":5220:5232  State.Halted */\n      0x04\n        /* \"contracts/Erc20token.sol\":5205:5232  currentState = State.Halted */\n      swap1\n      pop\n        /* \"contracts/Erc20token.sol\":5162:5520  if(icoState == State.Halted){\r... */\n      jump(tag_195)\n    tag_194:\n        /* \"contracts/Erc20token.sol\":5270:5279  startTime */\n      sload(0x0b)\n        /* \"contracts/Erc20token.sol\":5252:5267  block.timestamp */\n      timestamp\n        /* \"contracts/Erc20token.sol\":5252:5279  block.timestamp < startTime */\n      lt\n        /* \"contracts/Erc20token.sol\":5249:5520  if(block.timestamp < startTime){\r... */\n      iszero\n      tag_196\n      jumpi\n        /* \"contracts/Erc20token.sol\":5310:5327  State.beforeStart */\n      0x00\n        /* \"contracts/Erc20token.sol\":5295:5327  currentState = State.beforeStart */\n      swap1\n      pop\n        /* \"contracts/Erc20token.sol\":5249:5520  if(block.timestamp < startTime){\r... */\n      jump(tag_197)\n    tag_196:\n        /* \"contracts/Erc20token.sol\":5366:5375  startTime */\n      sload(0x0b)\n        /* \"contracts/Erc20token.sol\":5347:5362  block.timestamp */\n      timestamp\n        /* \"contracts/Erc20token.sol\":5347:5375  block.timestamp >= startTime */\n      lt\n      iszero\n        /* \"contracts/Erc20token.sol\":5347:5404  block.timestamp >= startTime && block.timestamp < endTime */\n      dup1\n      iszero\n      tag_198\n      jumpi\n      pop\n        /* \"contracts/Erc20token.sol\":5397:5404  endTime */\n      sload(0x0c)\n        /* \"contracts/Erc20token.sol\":5379:5394  block.timestamp */\n      timestamp\n        /* \"contracts/Erc20token.sol\":5379:5404  block.timestamp < endTime */\n      lt\n        /* \"contracts/Erc20token.sol\":5347:5404  block.timestamp >= startTime && block.timestamp < endTime */\n    tag_198:\n        /* \"contracts/Erc20token.sol\":5344:5520  if(block.timestamp >= startTime && block.timestamp < endTime){\r... */\n      iszero\n      tag_199\n      jumpi\n        /* \"contracts/Erc20token.sol\":5435:5448  State.Running */\n      0x01\n        /* \"contracts/Erc20token.sol\":5420:5448  currentState = State.Running */\n      swap1\n      pop\n        /* \"contracts/Erc20token.sol\":5344:5520  if(block.timestamp >= startTime && block.timestamp < endTime){\r... */\n      jump(tag_200)\n    tag_199:\n        /* \"contracts/Erc20token.sol\":5494:5508  State.AfterEnd */\n      0x03\n        /* \"contracts/Erc20token.sol\":5479:5508  currentState = State.AfterEnd */\n      swap1\n      pop\n        /* \"contracts/Erc20token.sol\":5344:5520  if(block.timestamp >= startTime && block.timestamp < endTime){\r... */\n    tag_200:\n        /* \"contracts/Erc20token.sol\":5249:5520  if(block.timestamp < startTime){\r... */\n    tag_197:\n        /* \"contracts/Erc20token.sol\":5162:5520  if(icoState == State.Halted){\r... */\n    tag_195:\n        /* \"contracts/Erc20token.sol\":5537:5549  currentState */\n      dup1\n        /* \"contracts/Erc20token.sol\":5530:5549  return currentState */\n      swap2\n      pop\n      pop\n        /* \"contracts/Erc20token.sol\":5071:5557  function checkIcoState() public view returns(State){\r... */\n      swap1\n      jump\t// out\n        /* \"contracts/Erc20token.sol\":1104:1128  uint public decimals = 0 */\n    tag_77:\n      sload(0x02)\n      dup2\n      jump\t// out\n        /* \"contracts/Erc20token.sol\":3817:3836  uint public endTime */\n    tag_81:\n      sload(0x0c)\n      dup2\n      jump\t// out\n        /* \"contracts/Erc20token.sol\":4020:4041  State public icoState */\n    tag_85:\n      0x0f\n      0x00\n      swap1\n      sload\n      swap1\n      0x0100\n      exp\n      swap1\n      div\n      0xff\n      and\n      dup2\n      jump\t// out\n        /* \"contracts/Erc20token.sol\":1137:1159  address public founder */\n    tag_89:\n      0x03\n      0x00\n      swap1\n      sload\n      swap1\n      0x0100\n      exp\n      swap1\n      div\n      0xffffffffffffffffffffffffffffffffffffffff\n      and\n      dup2\n      jump\t// out\n        /* \"contracts/Erc20token.sol\":1259:1318  mapping(address => mapping(address => uint)) public allowed */\n    tag_96:\n      mstore(0x20, 0x06)\n      dup2\n      0x00\n      mstore\n      mstore(0x20, keccak256(0x00, 0x40))\n      dup1\n      0x00\n      mstore\n      keccak256(0x00, 0x40)\n      0x00\n      swap2\n      pop\n      swap2\n      pop\n      pop\n      sload\n      dup2\n      jump\t// out\n        /* \"contracts/Erc20token.sol\":4742:4816  function halt() public onlyAdmin{\r... */\n    tag_100:\n        /* \"contracts/Erc20token.sol\":4643:4648  admin */\n      0x07\n      0x00\n      swap1\n      sload\n      swap1\n      0x0100\n      exp\n      swap1\n      div\n      0xffffffffffffffffffffffffffffffffffffffff\n      and\n        /* \"contracts/Erc20token.sol\":4629:4648  msg.sender == admin */\n      0xffffffffffffffffffffffffffffffffffffffff\n      and\n        /* \"contracts/Erc20token.sol\":4629:4639  msg.sender */\n      caller\n        /* \"contracts/Erc20token.sol\":4629:4648  msg.sender == admin */\n      0xffffffffffffffffffffffffffffffffffffffff\n      and\n      eq\n        /* \"contracts/Erc20token.sol\":4621:4687  require(msg.sender == admin, \"Access denied, you ae not an admin\") */\n      tag_202\n      jumpi\n      mload(0x40)\n      0x08c379a000000000000000000000000000000000000000000000000000000000\n      dup2\n      mstore\n      0x04\n      add\n      tag_203\n      swap1\n      tag_155\n      jump\t// in\n    tag_203:\n      mload(0x40)\n      dup1\n      swap2\n      sub\n      swap1\n      revert\n    tag_202:\n        /* \"contracts/Erc20token.sol\":4796:4808  State.Halted */\n      0x04\n        /* \"contracts/Erc20token.sol\":4785:4793  icoState */\n      0x0f\n      0x00\n        /* \"contracts/Erc20token.sol\":4785:4808  icoState = State.Halted */\n      0x0100\n      exp\n      dup2\n      sload\n      dup2\n      0xff\n      mul\n      not\n      and\n      swap1\n      dup4\n      0x04\n      dup2\n      gt\n      iszero\n      tag_205\n      jumpi\n      tag_206\n      tag_159\n      jump\t// in\n    tag_206:\n    tag_205:\n      mul\n      or\n      swap1\n      sstore\n      pop\n        /* \"contracts/Erc20token.sol\":4742:4816  function halt() public onlyAdmin{\r... */\n      jump\t// out\n        /* \"contracts/Erc20token.sol\":4929:5063  function changeDepositAddress(address payable newDepositAddress) public onlyAdmin{\r... */\n    tag_105:\n        /* \"contracts/Erc20token.sol\":4643:4648  admin */\n      0x07\n      0x00\n      swap1\n      sload\n      swap1\n      0x0100\n      exp\n      swap1\n      div\n      0xffffffffffffffffffffffffffffffffffffffff\n      and\n        /* \"contracts/Erc20token.sol\":4629:4648  msg.sender == admin */\n      0xffffffffffffffffffffffffffffffffffffffff\n      and\n        /* \"contracts/Erc20token.sol\":4629:4639  msg.sender */\n      caller\n        /* \"contracts/Erc20token.sol\":4629:4648  msg.sender == admin */\n      0xffffffffffffffffffffffffffffffffffffffff\n      and\n      eq\n        /* \"contracts/Erc20token.sol\":4621:4687  require(msg.sender == admin, \"Access denied, you ae not an admin\") */\n      tag_208\n      jumpi\n      mload(0x40)\n      0x08c379a000000000000000000000000000000000000000000000000000000000\n      dup2\n      mstore\n      0x04\n      add\n      tag_209\n      swap1\n      tag_155\n      jump\t// in\n    tag_209:\n      mload(0x40)\n      dup1\n      swap2\n      sub\n      swap1\n      revert\n    tag_208:\n        /* \"contracts/Erc20token.sol\":5038:5055  newDepositAddress */\n      dup1\n        /* \"contracts/Erc20token.sol\":5021:5035  depositAddress */\n      0x0f\n      0x01\n        /* \"contracts/Erc20token.sol\":5021:5055  depositAddress = newDepositAddress */\n      0x0100\n      exp\n      dup2\n      sload\n      dup2\n      0xffffffffffffffffffffffffffffffffffffffff\n      mul\n      not\n      and\n      swap1\n      dup4\n      0xffffffffffffffffffffffffffffffffffffffff\n      and\n      mul\n      or\n      swap1\n      sstore\n      pop\n        /* \"contracts/Erc20token.sol\":4929:5063  function changeDepositAddress(address payable newDepositAddress) public onlyAdmin{\r... */\n      pop\n      jump\t// out\n        /* \"contracts/Erc20token.sol\":1461:1589  function balanceOf(address tokenOwner) public override view returns (uint balance){\r... */\n    tag_109:\n        /* \"contracts/Erc20token.sol\":1530:1542  uint balance */\n      0x00\n        /* \"contracts/Erc20token.sol\":1561:1569  balances */\n      0x05\n        /* \"contracts/Erc20token.sol\":1561:1581  balances[tokenOwner] */\n      0x00\n        /* \"contracts/Erc20token.sol\":1570:1580  tokenOwner */\n      dup4\n        /* \"contracts/Erc20token.sol\":1561:1581  balances[tokenOwner] */\n      0xffffffffffffffffffffffffffffffffffffffff\n      and\n      0xffffffffffffffffffffffffffffffffffffffff\n      and\n      dup2\n      mstore\n      0x20\n      add\n      swap1\n      dup2\n      mstore\n      0x20\n      add\n      0x00\n      keccak256\n      sload\n        /* \"contracts/Erc20token.sol\":1554:1581  return balances[tokenOwner] */\n      swap1\n      pop\n        /* \"contracts/Erc20token.sol\":1461:1589  function balanceOf(address tokenOwner) public override view returns (uint balance){\r... */\n      swap2\n      swap1\n      pop\n      jump\t// out\n        /* \"contracts/Erc20token.sol\":3771:3810  uint public startTime = block.timestamp */\n    tag_113:\n      sload(0x0b)\n      dup2\n      jump\t// out\n        /* \"contracts/Erc20token.sol\":1069:1097  string public symbol = \"ZLZ\" */\n    tag_117:\n      0x01\n      dup1\n      sload\n      tag_212\n      swap1\n      tag_161\n      jump\t// in\n    tag_212:\n      dup1\n      0x1f\n      add\n      0x20\n      dup1\n      swap2\n      div\n      mul\n      0x20\n      add\n      mload(0x40)\n      swap1\n      dup2\n      add\n      0x40\n      mstore\n      dup1\n      swap3\n      swap2\n      swap1\n      dup2\n      dup2\n      mstore\n      0x20\n      add\n      dup3\n      dup1\n      sload\n      tag_213\n      swap1\n      tag_161\n      jump\t// in\n    tag_213:\n      dup1\n      iszero\n      tag_214\n      jumpi\n      dup1\n      0x1f\n      lt\n      tag_215\n      jumpi\n      0x0100\n      dup1\n      dup4\n      sload\n      div\n      mul\n      dup4\n      mstore\n      swap2\n      0x20\n      add\n      swap2\n      jump(tag_214)\n    tag_215:\n      dup3\n      add\n      swap2\n      swap1\n      0x00\n      mstore\n      keccak256(0x00, 0x20)\n      swap1\n    tag_216:\n      dup2\n      sload\n      dup2\n      mstore\n      swap1\n      0x01\n      add\n      swap1\n      0x20\n      add\n      dup1\n      dup4\n      gt\n      tag_216\n      jumpi\n      dup3\n      swap1\n      sub\n      0x1f\n      and\n      dup3\n      add\n      swap2\n    tag_214:\n      pop\n      pop\n      pop\n      pop\n      pop\n      dup2\n      jump\t// out\n        /* \"contracts/Erc20token.sol\":1643:1964  function transfer(address to, uint tokens) public override returns (bool success){\r... */\n    tag_122:\n        /* \"contracts/Erc20token.sol\":1711:1723  bool success */\n      0x00\n        /* \"contracts/Erc20token.sol\":1767:1773  tokens */\n      dup2\n        /* \"contracts/Erc20token.sol\":1743:1751  balances */\n      0x05\n        /* \"contracts/Erc20token.sol\":1743:1763  balances[msg.sender] */\n      0x00\n        /* \"contracts/Erc20token.sol\":1752:1762  msg.sender */\n      caller\n        /* \"contracts/Erc20token.sol\":1743:1763  balances[msg.sender] */\n      0xffffffffffffffffffffffffffffffffffffffff\n      and\n      0xffffffffffffffffffffffffffffffffffffffff\n      and\n      dup2\n      mstore\n      0x20\n      add\n      swap1\n      dup2\n      mstore\n      0x20\n      add\n      0x00\n      keccak256\n      sload\n        /* \"contracts/Erc20token.sol\":1743:1773  balances[msg.sender] >= tokens */\n      lt\n      iszero\n        /* \"contracts/Erc20token.sol\":1735:1806  require(balances[msg.sender] >= tokens, \"Insufficient Account Balance\") */\n      tag_218\n      jumpi\n      mload(0x40)\n      0x08c379a000000000000000000000000000000000000000000000000000000000\n      dup2\n      mstore\n      0x04\n      add\n      tag_219\n      swap1\n      tag_220\n      jump\t// in\n    tag_219:\n      mload(0x40)\n      dup1\n      swap2\n      sub\n      swap1\n      revert\n    tag_218:\n        /* \"contracts/Erc20token.sol\":1835:1841  tokens */\n      dup2\n        /* \"contracts/Erc20token.sol\":1819:1827  balances */\n      0x05\n        /* \"contracts/Erc20token.sol\":1819:1831  balances[to] */\n      0x00\n        /* \"contracts/Erc20token.sol\":1828:1830  to */\n      dup6\n        /* \"contracts/Erc20token.sol\":1819:1831  balances[to] */\n      0xffffffffffffffffffffffffffffffffffffffff\n      and\n      0xffffffffffffffffffffffffffffffffffffffff\n      and\n      dup2\n      mstore\n      0x20\n      add\n      swap1\n      dup2\n      mstore\n      0x20\n      add\n      0x00\n      keccak256\n      0x00\n        /* \"contracts/Erc20token.sol\":1819:1841  balances[to] += tokens */\n      dup3\n      dup3\n      sload\n      tag_221\n      swap2\n      swap1\n      tag_187\n      jump\t// in\n    tag_221:\n      swap3\n      pop\n      pop\n      dup2\n      swap1\n      sstore\n      pop\n        /* \"contracts/Erc20token.sol\":1876:1882  tokens */\n      dup2\n        /* \"contracts/Erc20token.sol\":1852:1860  balances */\n      0x05\n        /* \"contracts/Erc20token.sol\":1852:1872  balances[msg.sender] */\n      0x00\n        /* \"contracts/Erc20token.sol\":1861:1871  msg.sender */\n      caller\n        /* \"contracts/Erc20token.sol\":1852:1872  balances[msg.sender] */\n      0xffffffffffffffffffffffffffffffffffffffff\n      and\n      0xffffffffffffffffffffffffffffffffffffffff\n      and\n      dup2\n      mstore\n      0x20\n      add\n      swap1\n      dup2\n      mstore\n      0x20\n      add\n      0x00\n      keccak256\n      0x00\n        /* \"contracts/Erc20token.sol\":1852:1882  balances[msg.sender] -= tokens */\n      dup3\n      dup3\n      sload\n      tag_222\n      swap2\n      swap1\n      tag_184\n      jump\t// in\n    tag_222:\n      swap3\n      pop\n      pop\n      dup2\n      swap1\n      sstore\n      pop\n        /* \"contracts/Erc20token.sol\":1921:1923  to */\n      dup3\n        /* \"contracts/Erc20token.sol\":1900:1932  Transfer(msg.sender, to, tokens) */\n      0xffffffffffffffffffffffffffffffffffffffff\n      and\n        /* \"contracts/Erc20token.sol\":1909:1919  msg.sender */\n      caller\n        /* \"contracts/Erc20token.sol\":1900:1932  Transfer(msg.sender, to, tokens) */\n      0xffffffffffffffffffffffffffffffffffffffff\n      and\n      0xddf252ad1be2c89b69c2b068fc378daa952ba7f163c4a11628f55a4df523b3ef\n        /* \"contracts/Erc20token.sol\":1925:1931  tokens */\n      dup5\n        /* \"contracts/Erc20token.sol\":1900:1932  Transfer(msg.sender, to, tokens) */\n      mload(0x40)\n      tag_223\n      swap2\n      swap1\n      tag_52\n      jump\t// in\n    tag_223:\n      mload(0x40)\n      dup1\n      swap2\n      sub\n      swap1\n      log3\n        /* \"contracts/Erc20token.sol\":1952:1956  true */\n      0x01\n        /* \"contracts/Erc20token.sol\":1945:1956  return true */\n      swap1\n      pop\n        /* \"contracts/Erc20token.sol\":1643:1964  function transfer(address to, uint tokens) public override returns (bool success){\r... */\n      swap3\n      swap2\n      pop\n      pop\n      jump\t// out\n        /* \"contracts/Erc20token.sol\":3936:3971  uint public maximumAmount = 1 ether */\n    tag_126:\n      sload(0x0e)\n      dup2\n      jump\t// out\n        /* \"contracts/Erc20token.sol\":3892:3929  uint public minimumAmount = 0.1 ether */\n    tag_130:\n      sload(0x0d)\n      dup2\n      jump\t// out\n        /* \"contracts/Erc20token.sol\":3517:3541  uint public raisedAmount */\n    tag_134:\n      sload(0x09)\n      dup2\n      jump\t// out\n        /* \"contracts/Erc20token.sol\":2062:2217  function allowance(address tokenOwner, address spender) public override view returns (uint remaining){\r... */\n    tag_139:\n        /* \"contracts/Erc20token.sol\":2148:2162  uint remaining */\n      0x00\n        /* \"contracts/Erc20token.sol\":2181:2188  allowed */\n      0x06\n        /* \"contracts/Erc20token.sol\":2181:2200  allowed[tokenOwner] */\n      0x00\n        /* \"contracts/Erc20token.sol\":2189:2199  tokenOwner */\n      dup5\n        /* \"contracts/Erc20token.sol\":2181:2200  allowed[tokenOwner] */\n      0xffffffffffffffffffffffffffffffffffffffff\n      and\n      0xffffffffffffffffffffffffffffffffffffffff\n      and\n      dup2\n      mstore\n      0x20\n      add\n      swap1\n      dup2\n      mstore\n      0x20\n      add\n      0x00\n      keccak256\n        /* \"contracts/Erc20token.sol\":2181:2209  allowed[tokenOwner][spender] */\n      0x00\n        /* \"contracts/Erc20token.sol\":2201:2208  spender */\n      dup4\n        /* \"contracts/Erc20token.sol\":2181:2209  allowed[tokenOwner][spender] */\n      0xffffffffffffffffffffffffffffffffffffffff\n      and\n      0xffffffffffffffffffffffffffffffffffffffff\n      and\n      dup2\n      mstore\n      0x20\n      add\n      swap1\n      dup2\n      mstore\n      0x20\n      add\n      0x00\n      keccak256\n      sload\n        /* \"contracts/Erc20token.sol\":2174:2209  return allowed[tokenOwner][spender] */\n      swap1\n      pop\n        /* \"contracts/Erc20token.sol\":2062:2217  function allowance(address tokenOwner, address spender) public override view returns (uint remaining){\r... */\n      swap3\n      swap2\n      pop\n      pop\n      jump\t// out\n        /* \"contracts/Erc20token.sol\":5606:6926  function invest() public payable onlyAdmin returns(bool){\r... */\n    tag_142:\n        /* \"contracts/Erc20token.sol\":5657:5661  bool */\n      0x00\n        /* \"contracts/Erc20token.sol\":4643:4648  admin */\n      0x07\n      0x00\n      swap1\n      sload\n      swap1\n      0x0100\n      exp\n      swap1\n      div\n      0xffffffffffffffffffffffffffffffffffffffff\n      and\n        /* \"contracts/Erc20token.sol\":4629:4648  msg.sender == admin */\n      0xffffffffffffffffffffffffffffffffffffffff\n      and\n        /* \"contracts/Erc20token.sol\":4629:4639  msg.sender */\n      caller\n        /* \"contracts/Erc20token.sol\":4629:4648  msg.sender == admin */\n      0xffffffffffffffffffffffffffffffffffffffff\n      and\n      eq\n        /* \"contracts/Erc20token.sol\":4621:4687  require(msg.sender == admin, \"Access denied, you ae not an admin\") */\n      tag_226\n      jumpi\n      mload(0x40)\n      0x08c379a000000000000000000000000000000000000000000000000000000000\n      dup2\n      mstore\n      0x04\n      add\n      tag_227\n      swap1\n      tag_155\n      jump\t// in\n    tag_227:\n      mload(0x40)\n      dup1\n      swap2\n      sub\n      swap1\n      revert\n    tag_226:\n        /* \"contracts/Erc20token.sol\":5724:5739  checkIcoState() */\n      tag_229\n        /* \"contracts/Erc20token.sol\":5724:5737  checkIcoState */\n      tag_72\n        /* \"contracts/Erc20token.sol\":5724:5739  checkIcoState() */\n      jump\t// in\n    tag_229:\n        /* \"contracts/Erc20token.sol\":5713:5721  icoState */\n      0x0f\n      0x00\n        /* \"contracts/Erc20token.sol\":5713:5739  icoState = checkIcoState() */\n      0x0100\n      exp\n      dup2\n      sload\n      dup2\n      0xff\n      mul\n      not\n      and\n      swap1\n      dup4\n      0x04\n      dup2\n      gt\n      iszero\n      tag_230\n      jumpi\n      tag_231\n      tag_159\n      jump\t// in\n    tag_231:\n    tag_230:\n      mul\n      or\n      swap1\n      sstore\n      pop\n        /* \"contracts/Erc20token.sol\":5770:5783  State.Running */\n      0x01\n        /* \"contracts/Erc20token.sol\":5758:5783  icoState == State.Running */\n      0x04\n      dup2\n      gt\n      iszero\n      tag_232\n      jumpi\n      tag_233\n      tag_159\n      jump\t// in\n    tag_233:\n    tag_232:\n        /* \"contracts/Erc20token.sol\":5758:5766  icoState */\n      0x0f\n      0x00\n      swap1\n      sload\n      swap1\n      0x0100\n      exp\n      swap1\n      div\n      0xff\n      and\n        /* \"contracts/Erc20token.sol\":5758:5783  icoState == State.Running */\n      0x04\n      dup2\n      gt\n      iszero\n      tag_234\n      jumpi\n      tag_235\n      tag_159\n      jump\t// in\n    tag_235:\n    tag_234:\n      eq\n        /* \"contracts/Erc20token.sol\":5750:5820  require(icoState == State.Running, \"Amount must be greater than zero\") */\n      tag_236\n      jumpi\n      mload(0x40)\n      0x08c379a000000000000000000000000000000000000000000000000000000000\n      dup2\n      mstore\n      0x04\n      add\n      tag_237\n      swap1\n      tag_238\n      jump\t// in\n    tag_237:\n      mload(0x40)\n      dup1\n      swap2\n      sub\n      swap1\n      revert\n    tag_236:\n        /* \"contracts/Erc20token.sol\":5908:5909  0 */\n      0x00\n        /* \"contracts/Erc20token.sol\":5896:5905  msg.value */\n      callvalue\n        /* \"contracts/Erc20token.sol\":5896:5909  msg.value > 0 */\n      gt\n        /* \"contracts/Erc20token.sol\":5888:5946  require(msg.value > 0, \"Amount must be greater than zero\") */\n      tag_239\n      jumpi\n      mload(0x40)\n      0x08c379a000000000000000000000000000000000000000000000000000000000\n      dup2\n      mstore\n      0x04\n      add\n      tag_240\n      swap1\n      tag_238\n      jump\t// in\n    tag_240:\n      mload(0x40)\n      dup1\n      swap2\n      sub\n      swap1\n      revert\n    tag_239:\n        /* \"contracts/Erc20token.sol\":5990:6006  string memory s1 */\n      0x00\n        /* \"contracts/Erc20token.sol\":6068:6081  minimumAmount */\n      sload(0x0d)\n        /* \"contracts/Erc20token.sol\":6016:6082  abi.encodePacked(\"Amount cannot not be lower than\", minimumAmount) */\n      add(0x20, mload(0x40))\n      tag_241\n      swap2\n      swap1\n      tag_242\n      jump\t// in\n    tag_241:\n      mload(0x40)\n      0x20\n      dup2\n      dup4\n      sub\n      sub\n      dup2\n      mstore\n      swap1\n      0x40\n      mstore\n        /* \"contracts/Erc20token.sol\":5990:6083  string memory s1 = string(abi.encodePacked(\"Amount cannot not be lower than\", minimumAmount)) */\n      swap1\n      pop\n        /* \"contracts/Erc20token.sol\":6094:6110  string memory s2 */\n      0x00\n        /* \"contracts/Erc20token.sol\":6174:6187  maximumAmount */\n      sload(0x0e)\n        /* \"contracts/Erc20token.sol\":6120:6188  abi.encodePacked(\"Amount cannot not be higgher than\", maximumAmount) */\n      add(0x20, mload(0x40))\n      tag_243\n      swap2\n      swap1\n      tag_244\n      jump\t// in\n    tag_243:\n      mload(0x40)\n      0x20\n      dup2\n      dup4\n      sub\n      sub\n      dup2\n      mstore\n      swap1\n      0x40\n      mstore\n        /* \"contracts/Erc20token.sol\":6094:6189  string memory s2 = string(abi.encodePacked(\"Amount cannot not be higgher than\", maximumAmount)) */\n      swap1\n      pop\n        /* \"contracts/Erc20token.sol\":6200:6216  string memory s3 */\n      0x00\n        /* \"contracts/Erc20token.sol\":6243:6245  s1 */\n      dup3\n        /* \"contracts/Erc20token.sol\":6247:6249  s2 */\n      dup3\n        /* \"contracts/Erc20token.sol\":6226:6250  abi.encodePacked(s1, s2) */\n      add(0x20, mload(0x40))\n      tag_245\n      swap3\n      swap2\n      swap1\n      tag_246\n      jump\t// in\n    tag_245:\n      mload(0x40)\n      0x20\n      dup2\n      dup4\n      sub\n      sub\n      dup2\n      mstore\n      swap1\n      0x40\n      mstore\n        /* \"contracts/Erc20token.sol\":6200:6251  string memory s3 = string(abi.encodePacked(s1, s2)) */\n      swap1\n      pop\n        /* \"contracts/Erc20token.sol\":6283:6296  minimumAmount */\n      sload(0x0d)\n        /* \"contracts/Erc20token.sol\":6270:6279  msg.value */\n      callvalue\n        /* \"contracts/Erc20token.sol\":6270:6296  msg.value >= minimumAmount */\n      lt\n      iszero\n        /* \"contracts/Erc20token.sol\":6270:6326  msg.value >= minimumAmount && msg.value <= maximumAmount */\n      dup1\n      iszero\n      tag_247\n      jumpi\n      pop\n        /* \"contracts/Erc20token.sol\":6313:6326  maximumAmount */\n      sload(0x0e)\n        /* \"contracts/Erc20token.sol\":6300:6309  msg.value */\n      callvalue\n        /* \"contracts/Erc20token.sol\":6300:6326  msg.value <= maximumAmount */\n      gt\n      iszero\n        /* \"contracts/Erc20token.sol\":6270:6326  msg.value >= minimumAmount && msg.value <= maximumAmount */\n    tag_247:\n        /* \"contracts/Erc20token.sol\":6328:6330  s3 */\n      dup2\n        /* \"contracts/Erc20token.sol\":6262:6331  require(msg.value >= minimumAmount && msg.value <= maximumAmount, s3) */\n      swap1\n      tag_248\n      jumpi\n      mload(0x40)\n      0x08c379a000000000000000000000000000000000000000000000000000000000\n      dup2\n      mstore\n      0x04\n      add\n      tag_249\n      swap2\n      swap1\n      tag_40\n      jump\t// in\n    tag_249:\n      mload(0x40)\n      dup1\n      swap2\n      sub\n      swap1\n      revert\n    tag_248:\n      pop\n        /* \"contracts/Erc20token.sol\":6344:6355  uint amount */\n      0x00\n        /* \"contracts/Erc20token.sol\":6373:6382  msg.value */\n      callvalue\n        /* \"contracts/Erc20token.sol\":6358:6370  raisedAmount */\n      sload(0x09)\n        /* \"contracts/Erc20token.sol\":6358:6382  raisedAmount + msg.value */\n      tag_250\n      swap2\n      swap1\n      tag_187\n      jump\t// in\n    tag_250:\n        /* \"contracts/Erc20token.sol\":6344:6382  uint amount = raisedAmount + msg.value */\n      swap1\n      pop\n        /* \"contracts/Erc20token.sol\":6411:6418  hardCap */\n      sload(0x0a)\n        /* \"contracts/Erc20token.sol\":6401:6407  amount */\n      dup2\n        /* \"contracts/Erc20token.sol\":6401:6418  amount <= hardCap */\n      gt\n      iszero\n        /* \"contracts/Erc20token.sol\":6393:6471  require(amount <= hardCap, \"The maximum amount to be raised has been reached\") */\n      tag_251\n      jumpi\n      mload(0x40)\n      0x08c379a000000000000000000000000000000000000000000000000000000000\n      dup2\n      mstore\n      0x04\n      add\n      tag_252\n      swap1\n      tag_253\n      jump\t// in\n    tag_252:\n      mload(0x40)\n      dup1\n      swap2\n      sub\n      swap1\n      revert\n    tag_251:\n        /* \"contracts/Erc20token.sol\":6591:6602  uint tokens */\n      0x00\n        /* \"contracts/Erc20token.sol\":6617:6627  tokenPrice */\n      sload(0x08)\n        /* \"contracts/Erc20token.sol\":6605:6614  msg.value */\n      callvalue\n        /* \"contracts/Erc20token.sol\":6605:6627  msg.value * tokenPrice */\n      tag_254\n      swap2\n      swap1\n      tag_255\n      jump\t// in\n    tag_254:\n        /* \"contracts/Erc20token.sol\":6591:6627  uint tokens = msg.value * tokenPrice */\n      swap1\n      pop\n        /* \"contracts/Erc20token.sol\":6697:6703  tokens */\n      dup1\n        /* \"contracts/Erc20token.sol\":6673:6681  balances */\n      0x05\n        /* \"contracts/Erc20token.sol\":6673:6693  balances[msg.sender] */\n      0x00\n        /* \"contracts/Erc20token.sol\":6682:6692  msg.sender */\n      caller\n        /* \"contracts/Erc20token.sol\":6673:6693  balances[msg.sender] */\n      0xffffffffffffffffffffffffffffffffffffffff\n      and\n      0xffffffffffffffffffffffffffffffffffffffff\n      and\n      dup2\n      mstore\n      0x20\n      add\n      swap1\n      dup2\n      mstore\n      0x20\n      add\n      0x00\n      keccak256\n      0x00\n        /* \"contracts/Erc20token.sol\":6673:6703  balances[msg.sender] += tokens */\n      dup3\n      dup3\n      sload\n      tag_256\n      swap2\n      swap1\n      tag_187\n      jump\t// in\n    tag_256:\n      swap3\n      pop\n      pop\n      dup2\n      swap1\n      sstore\n      pop\n        /* \"contracts/Erc20token.sol\":6735:6741  tokens */\n      dup1\n        /* \"contracts/Erc20token.sol\":6714:6722  balances */\n      0x05\n        /* \"contracts/Erc20token.sol\":6714:6731  balances[founder] */\n      0x00\n        /* \"contracts/Erc20token.sol\":6723:6730  founder */\n      0x03\n      0x00\n      swap1\n      sload\n      swap1\n      0x0100\n      exp\n      swap1\n      div\n      0xffffffffffffffffffffffffffffffffffffffff\n      and\n        /* \"contracts/Erc20token.sol\":6714:6731  balances[founder] */\n      0xffffffffffffffffffffffffffffffffffffffff\n      and\n      0xffffffffffffffffffffffffffffffffffffffff\n      and\n      dup2\n      mstore\n      0x20\n      add\n      swap1\n      dup2\n      mstore\n      0x20\n      add\n      0x00\n      keccak256\n      0x00\n        /* \"contracts/Erc20token.sol\":6714:6741  balances[founder] -= tokens */\n      dup3\n      dup3\n      sload\n      tag_257\n      swap2\n      swap1\n      tag_184\n      jump\t// in\n    tag_257:\n      swap3\n      pop\n      pop\n      dup2\n      swap1\n      sstore\n      pop\n        /* \"contracts/Erc20token.sol\":6803:6817  depositAddress */\n      0x0f\n      0x01\n      swap1\n      sload\n      swap1\n      0x0100\n      exp\n      swap1\n      div\n      0xffffffffffffffffffffffffffffffffffffffff\n      and\n        /* \"contracts/Erc20token.sol\":6803:6826  depositAddress.transfer */\n      0xffffffffffffffffffffffffffffffffffffffff\n      and\n        /* \"contracts/Erc20token.sol\":6803:6837  depositAddress.transfer(msg.value) */\n      0x08fc\n        /* \"contracts/Erc20token.sol\":6827:6836  msg.value */\n      callvalue\n        /* \"contracts/Erc20token.sol\":6803:6837  depositAddress.transfer(msg.value) */\n      swap1\n      dup2\n      iszero\n      mul\n      swap1\n      mload(0x40)\n      0x00\n      mload(0x40)\n      dup1\n      dup4\n      sub\n      dup2\n      dup6\n      dup9\n      dup9\n      call\n      swap4\n      pop\n      pop\n      pop\n      pop\n      iszero\n      dup1\n      iszero\n      tag_259\n      jumpi\n      returndatasize\n      0x00\n      dup1\n      returndatacopy\n      revert(0x00, returndatasize)\n    tag_259:\n      pop\n        /* \"contracts/Erc20token.sol\":6855:6892  Invest(msg.sender, msg.value, tokens) */\n      0x4ae4bd7655e0d350876a23cd90c4227b13db560e34435c6a488150a9c844bf5f\n        /* \"contracts/Erc20token.sol\":6862:6872  msg.sender */\n      caller\n        /* \"contracts/Erc20token.sol\":6874:6883  msg.value */\n      callvalue\n        /* \"contracts/Erc20token.sol\":6885:6891  tokens */\n      dup4\n        /* \"contracts/Erc20token.sol\":6855:6892  Invest(msg.sender, msg.value, tokens) */\n      mload(0x40)\n      tag_260\n      swap4\n      swap3\n      swap2\n      swap1\n      tag_261\n      jump\t// in\n    tag_260:\n      mload(0x40)\n      dup1\n      swap2\n      sub\n      swap1\n      log1\n        /* \"contracts/Erc20token.sol\":6912:6916  true */\n      0x01\n        /* \"contracts/Erc20token.sol\":6905:6916  return true */\n      swap6\n      pop\n      pop\n      pop\n      pop\n      pop\n      pop\n        /* \"contracts/Erc20token.sol\":5606:6926  function invest() public payable onlyAdmin returns(bool){\r... */\n      swap1\n      jump\t// out\n        /* \"contracts/Erc20token.sol\":3320:3340  address public admin */\n    tag_146:\n      0x07\n      0x00\n      swap1\n      sload\n      swap1\n      0x0100\n      exp\n      swap1\n      div\n      0xffffffffffffffffffffffffffffffffffffffff\n      and\n      dup2\n      jump\t// out\n        /* \"contracts/Erc20token.sol\":3600:3629  uint public hardCap = 5 ether */\n    tag_150:\n      sload(0x0a)\n      dup2\n      jump\t// out\n        /* \"#utility.yul\":7:146   */\n    tag_263:\n        /* \"#utility.yul\":53:58   */\n      0x00\n        /* \"#utility.yul\":91:97   */\n      dup2\n        /* \"#utility.yul\":78:98   */\n      calldataload\n        /* \"#utility.yul\":69:98   */\n      swap1\n      pop\n        /* \"#utility.yul\":107:140   */\n      tag_265\n        /* \"#utility.yul\":134:139   */\n      dup2\n        /* \"#utility.yul\":107:140   */\n      tag_266\n      jump\t// in\n    tag_265:\n        /* \"#utility.yul\":7:146   */\n      swap3\n      swap2\n      pop\n      pop\n      jump\t// out\n        /* \"#utility.yul\":152:307   */\n    tag_267:\n        /* \"#utility.yul\":206:211   */\n      0x00\n        /* \"#utility.yul\":244:250   */\n      dup2\n        /* \"#utility.yul\":231:251   */\n      calldataload\n        /* \"#utility.yul\":222:251   */\n      swap1\n      pop\n        /* \"#utility.yul\":260:301   */\n      tag_269\n        /* \"#utility.yul\":295:300   */\n      dup2\n        /* \"#utility.yul\":260:301   */\n      tag_270\n      jump\t// in\n    tag_269:\n        /* \"#utility.yul\":152:307   */\n      swap3\n      swap2\n      pop\n      pop\n      jump\t// out\n        /* \"#utility.yul\":313:452   */\n    tag_271:\n        /* \"#utility.yul\":359:364   */\n      0x00\n        /* \"#utility.yul\":397:403   */\n      dup2\n        /* \"#utility.yul\":384:404   */\n      calldataload\n        /* \"#utility.yul\":375:404   */\n      swap1\n      pop\n        /* \"#utility.yul\":413:446   */\n      tag_273\n        /* \"#utility.yul\":440:445   */\n      dup2\n        /* \"#utility.yul\":413:446   */\n      tag_274\n      jump\t// in\n    tag_273:\n        /* \"#utility.yul\":313:452   */\n      swap3\n      swap2\n      pop\n      pop\n      jump\t// out\n        /* \"#utility.yul\":458:787   */\n    tag_62:\n        /* \"#utility.yul\":517:523   */\n      0x00\n        /* \"#utility.yul\":566:568   */\n      0x20\n        /* \"#utility.yul\":554:563   */\n      dup3\n        /* \"#utility.yul\":545:552   */\n      dup5\n        /* \"#utility.yul\":541:564   */\n      sub\n        /* \"#utility.yul\":537:569   */\n      slt\n        /* \"#utility.yul\":534:653   */\n      iszero\n      tag_276\n      jumpi\n        /* \"#utility.yul\":572:651   */\n      tag_277\n      tag_278\n      jump\t// in\n    tag_277:\n        /* \"#utility.yul\":534:653   */\n    tag_276:\n        /* \"#utility.yul\":692:693   */\n      0x00\n        /* \"#utility.yul\":717:770   */\n      tag_279\n        /* \"#utility.yul\":762:769   */\n      dup5\n        /* \"#utility.yul\":753:759   */\n      dup3\n        /* \"#utility.yul\":742:751   */\n      dup6\n        /* \"#utility.yul\":738:760   */\n      add\n        /* \"#utility.yul\":717:770   */\n      tag_263\n      jump\t// in\n    tag_279:\n        /* \"#utility.yul\":707:770   */\n      swap2\n      pop\n        /* \"#utility.yul\":663:780   */\n      pop\n        /* \"#utility.yul\":458:787   */\n      swap3\n      swap2\n      pop\n      pop\n      jump\t// out\n        /* \"#utility.yul\":793:1138   */\n    tag_104:\n        /* \"#utility.yul\":860:866   */\n      0x00\n        /* \"#utility.yul\":909:911   */\n      0x20\n        /* \"#utility.yul\":897:906   */\n      dup3\n        /* \"#utility.yul\":888:895   */\n      dup5\n        /* \"#utility.yul\":884:907   */\n      sub\n        /* \"#utility.yul\":880:912   */\n      slt\n        /* \"#utility.yul\":877:996   */\n      iszero\n      tag_281\n      jumpi\n        /* \"#utility.yul\":915:994   */\n      tag_282\n      tag_278\n      jump\t// in\n    tag_282:\n        /* \"#utility.yul\":877:996   */\n    tag_281:\n        /* \"#utility.yul\":1035:1036   */\n      0x00\n        /* \"#utility.yul\":1060:1121   */\n      tag_283\n        /* \"#utility.yul\":1113:1120   */\n      dup5\n        /* \"#utility.yul\":1104:1110   */\n      dup3\n        /* \"#utility.yul\":1093:1102   */\n      dup6\n        /* \"#utility.yul\":1089:1111   */\n      add\n        /* \"#utility.yul\":1060:1121   */\n      tag_267\n      jump\t// in\n    tag_283:\n        /* \"#utility.yul\":1050:1121   */\n      swap2\n      pop\n        /* \"#utility.yul\":1006:1131   */\n      pop\n        /* \"#utility.yul\":793:1138   */\n      swap3\n      swap2\n      pop\n      pop\n      jump\t// out\n        /* \"#utility.yul\":1144:1618   */\n    tag_95:\n        /* \"#utility.yul\":1212:1218   */\n      0x00\n        /* \"#utility.yul\":1220:1226   */\n      dup1\n        /* \"#utility.yul\":1269:1271   */\n      0x40\n        /* \"#utility.yul\":1257:1266   */\n      dup4\n        /* \"#utility.yul\":1248:1255   */\n      dup6\n        /* \"#utility.yul\":1244:1267   */\n      sub\n        /* \"#utility.yul\":1240:1272   */\n      slt\n        /* \"#utility.yul\":1237:1356   */\n      iszero\n      tag_285\n      jumpi\n        /* \"#utility.yul\":1275:1354   */\n      tag_286\n      tag_278\n      jump\t// in\n    tag_286:\n        /* \"#utility.yul\":1237:1356   */\n    tag_285:\n        /* \"#utility.yul\":1395:1396   */\n      0x00\n        /* \"#utility.yul\":1420:1473   */\n      tag_287\n        /* \"#utility.yul\":1465:1472   */\n      dup6\n        /* \"#utility.yul\":1456:1462   */\n      dup3\n        /* \"#utility.yul\":1445:1454   */\n      dup7\n        /* \"#utility.yul\":1441:1463   */\n      add\n        /* \"#utility.yul\":1420:1473   */\n      tag_263\n      jump\t// in\n    tag_287:\n        /* \"#utility.yul\":1410:1473   */\n      swap3\n      pop\n        /* \"#utility.yul\":1366:1483   */\n      pop\n        /* \"#utility.yul\":1522:1524   */\n      0x20\n        /* \"#utility.yul\":1548:1601   */\n      tag_288\n        /* \"#utility.yul\":1593:1600   */\n      dup6\n        /* \"#utility.yul\":1584:1590   */\n      dup3\n        /* \"#utility.yul\":1573:1582   */\n      dup7\n        /* \"#utility.yul\":1569:1591   */\n      add\n        /* \"#utility.yul\":1548:1601   */\n      tag_263\n      jump\t// in\n    tag_288:\n        /* \"#utility.yul\":1538:1601   */\n      swap2\n      pop\n        /* \"#utility.yul\":1493:1611   */\n      pop\n        /* \"#utility.yul\":1144:1618   */\n      swap3\n      pop\n      swap3\n      swap1\n      pop\n      jump\t// out\n        /* \"#utility.yul\":1624:2243   */\n    tag_56:\n        /* \"#utility.yul\":1701:1707   */\n      0x00\n        /* \"#utility.yul\":1709:1715   */\n      dup1\n        /* \"#utility.yul\":1717:1723   */\n      0x00\n        /* \"#utility.yul\":1766:1768   */\n      0x60\n        /* \"#utility.yul\":1754:1763   */\n      dup5\n        /* \"#utility.yul\":1745:1752   */\n      dup7\n        /* \"#utility.yul\":1741:1764   */\n      sub\n        /* \"#utility.yul\":1737:1769   */\n      slt\n        /* \"#utility.yul\":1734:1853   */\n      iszero\n      tag_290\n      jumpi\n        /* \"#utility.yul\":1772:1851   */\n      tag_291\n      tag_278\n      jump\t// in\n    tag_291:\n        /* \"#utility.yul\":1734:1853   */\n    tag_290:\n        /* \"#utility.yul\":1892:1893   */\n      0x00\n        /* \"#utility.yul\":1917:1970   */\n      tag_292\n        /* \"#utility.yul\":1962:1969   */\n      dup7\n        /* \"#utility.yul\":1953:1959   */\n      dup3\n        /* \"#utility.yul\":1942:1951   */\n      dup8\n        /* \"#utility.yul\":1938:1960   */\n      add\n        /* \"#utility.yul\":1917:1970   */\n      tag_263\n      jump\t// in\n    tag_292:\n        /* \"#utility.yul\":1907:1970   */\n      swap4\n      pop\n        /* \"#utility.yul\":1863:1980   */\n      pop\n        /* \"#utility.yul\":2019:2021   */\n      0x20\n        /* \"#utility.yul\":2045:2098   */\n      tag_293\n        /* \"#utility.yul\":2090:2097   */\n      dup7\n        /* \"#utility.yul\":2081:2087   */\n      dup3\n        /* \"#utility.yul\":2070:2079   */\n      dup8\n        /* \"#utility.yul\":2066:2088   */\n      add\n        /* \"#utility.yul\":2045:2098   */\n      tag_263\n      jump\t// in\n    tag_293:\n        /* \"#utility.yul\":2035:2098   */\n      swap3\n      pop\n        /* \"#utility.yul\":1990:2108   */\n      pop\n        /* \"#utility.yul\":2147:2149   */\n      0x40\n        /* \"#utility.yul\":2173:2226   */\n      tag_294\n        /* \"#utility.yul\":2218:2225   */\n      dup7\n        /* \"#utility.yul\":2209:2215   */\n      dup3\n        /* \"#utility.yul\":2198:2207   */\n      dup8\n        /* \"#utility.yul\":2194:2216   */\n      add\n        /* \"#utility.yul\":2173:2226   */\n      tag_271\n      jump\t// in\n    tag_294:\n        /* \"#utility.yul\":2163:2226   */\n      swap2\n      pop\n        /* \"#utility.yul\":2118:2236   */\n      pop\n        /* \"#utility.yul\":1624:2243   */\n      swap3\n      pop\n      swap3\n      pop\n      swap3\n      jump\t// out\n        /* \"#utility.yul\":2249:2723   */\n    tag_44:\n        /* \"#utility.yul\":2317:2323   */\n      0x00\n        /* \"#utility.yul\":2325:2331   */\n      dup1\n        /* \"#utility.yul\":2374:2376   */\n      0x40\n        /* \"#utility.yul\":2362:2371   */\n      dup4\n        /* \"#utility.yul\":2353:2360   */\n      dup6\n        /* \"#utility.yul\":2349:2372   */\n      sub\n        /* \"#utility.yul\":2345:2377   */\n      slt\n        /* \"#utility.yul\":2342:2461   */\n      iszero\n      tag_296\n      jumpi\n        /* \"#utility.yul\":2380:2459   */\n      tag_297\n      tag_278\n      jump\t// in\n    tag_297:\n        /* \"#utility.yul\":2342:2461   */\n    tag_296:\n        /* \"#utility.yul\":2500:2501   */\n      0x00\n        /* \"#utility.yul\":2525:2578   */\n      tag_298\n        /* \"#utility.yul\":2570:2577   */\n      dup6\n        /* \"#utility.yul\":2561:2567   */\n      dup3\n        /* \"#utility.yul\":2550:2559   */\n      dup7\n        /* \"#utility.yul\":2546:2568   */\n      add\n        /* \"#utility.yul\":2525:2578   */\n      tag_263\n      jump\t// in\n    tag_298:\n        /* \"#utility.yul\":2515:2578   */\n      swap3\n      pop\n        /* \"#utility.yul\":2471:2588   */\n      pop\n        /* \"#utility.yul\":2627:2629   */\n      0x20\n        /* \"#utility.yul\":2653:2706   */\n      tag_299\n        /* \"#utility.yul\":2698:2705   */\n      dup6\n        /* \"#utility.yul\":2689:2695   */\n      dup3\n        /* \"#utility.yul\":2678:2687   */\n      dup7\n        /* \"#utility.yul\":2674:2696   */\n      add\n        /* \"#utility.yul\":2653:2706   */\n      tag_271\n      jump\t// in\n    tag_299:\n        /* \"#utility.yul\":2643:2706   */\n      swap2\n      pop\n        /* \"#utility.yul\":2598:2716   */\n      pop\n        /* \"#utility.yul\":2249:2723   */\n      swap3\n      pop\n      swap3\n      swap1\n      pop\n      jump\t// out\n        /* \"#utility.yul\":2729:2871   */\n    tag_300:\n        /* \"#utility.yul\":2832:2864   */\n      tag_302\n        /* \"#utility.yul\":2858:2863   */\n      dup2\n        /* \"#utility.yul\":2832:2864   */\n      tag_303\n      jump\t// in\n    tag_302:\n        /* \"#utility.yul\":2827:2830   */\n      dup3\n        /* \"#utility.yul\":2820:2865   */\n      mstore\n        /* \"#utility.yul\":2729:2871   */\n      pop\n      pop\n      jump\t// out\n        /* \"#utility.yul\":2877:2995   */\n    tag_304:\n        /* \"#utility.yul\":2964:2988   */\n      tag_306\n        /* \"#utility.yul\":2982:2987   */\n      dup2\n        /* \"#utility.yul\":2964:2988   */\n      tag_307\n      jump\t// in\n    tag_306:\n        /* \"#utility.yul\":2959:2962   */\n      dup3\n        /* \"#utility.yul\":2952:2989   */\n      mstore\n        /* \"#utility.yul\":2877:2995   */\n      pop\n      pop\n      jump\t// out\n        /* \"#utility.yul\":3001:3110   */\n    tag_308:\n        /* \"#utility.yul\":3082:3103   */\n      tag_310\n        /* \"#utility.yul\":3097:3102   */\n      dup2\n        /* \"#utility.yul\":3082:3103   */\n      tag_311\n      jump\t// in\n    tag_310:\n        /* \"#utility.yul\":3077:3080   */\n      dup3\n        /* \"#utility.yul\":3070:3104   */\n      mstore\n        /* \"#utility.yul\":3001:3110   */\n      pop\n      pop\n      jump\t// out\n        /* \"#utility.yul\":3116:3261   */\n    tag_312:\n        /* \"#utility.yul\":3210:3254   */\n      tag_314\n        /* \"#utility.yul\":3248:3253   */\n      dup2\n        /* \"#utility.yul\":3210:3254   */\n      tag_315\n      jump\t// in\n    tag_314:\n        /* \"#utility.yul\":3205:3208   */\n      dup3\n        /* \"#utility.yul\":3198:3255   */\n      mstore\n        /* \"#utility.yul\":3116:3261   */\n      pop\n      pop\n      jump\t// out\n        /* \"#utility.yul\":3267:3631   */\n    tag_316:\n        /* \"#utility.yul\":3355:3358   */\n      0x00\n        /* \"#utility.yul\":3383:3422   */\n      tag_318\n        /* \"#utility.yul\":3416:3421   */\n      dup3\n        /* \"#utility.yul\":3383:3422   */\n      tag_319\n      jump\t// in\n    tag_318:\n        /* \"#utility.yul\":3438:3509   */\n      tag_320\n        /* \"#utility.yul\":3502:3508   */\n      dup2\n        /* \"#utility.yul\":3497:3500   */\n      dup6\n        /* \"#utility.yul\":3438:3509   */\n      tag_321\n      jump\t// in\n    tag_320:\n        /* \"#utility.yul\":3431:3509   */\n      swap4\n      pop\n        /* \"#utility.yul\":3518:3570   */\n      tag_322\n        /* \"#utility.yul\":3563:3569   */\n      dup2\n        /* \"#utility.yul\":3558:3561   */\n      dup6\n        /* \"#utility.yul\":3551:3555   */\n      0x20\n        /* \"#utility.yul\":3544:3549   */\n      dup7\n        /* \"#utility.yul\":3540:3556   */\n      add\n        /* \"#utility.yul\":3518:3570   */\n      tag_323\n      jump\t// in\n    tag_322:\n        /* \"#utility.yul\":3595:3624   */\n      tag_324\n        /* \"#utility.yul\":3617:3623   */\n      dup2\n        /* \"#utility.yul\":3595:3624   */\n      tag_325\n      jump\t// in\n    tag_324:\n        /* \"#utility.yul\":3590:3593   */\n      dup5\n        /* \"#utility.yul\":3586:3625   */\n      add\n        /* \"#utility.yul\":3579:3625   */\n      swap2\n      pop\n        /* \"#utility.yul\":3359:3631   */\n      pop\n        /* \"#utility.yul\":3267:3631   */\n      swap3\n      swap2\n      pop\n      pop\n      jump\t// out\n        /* \"#utility.yul\":3637:4014   */\n    tag_326:\n        /* \"#utility.yul\":3743:3746   */\n      0x00\n        /* \"#utility.yul\":3771:3810   */\n      tag_328\n        /* \"#utility.yul\":3804:3809   */\n      dup3\n        /* \"#utility.yul\":3771:3810   */\n      tag_319\n      jump\t// in\n    tag_328:\n        /* \"#utility.yul\":3826:3915   */\n      tag_329\n        /* \"#utility.yul\":3908:3914   */\n      dup2\n        /* \"#utility.yul\":3903:3906   */\n      dup6\n        /* \"#utility.yul\":3826:3915   */\n      tag_330\n      jump\t// in\n    tag_329:\n        /* \"#utility.yul\":3819:3915   */\n      swap4\n      pop\n        /* \"#utility.yul\":3924:3976   */\n      tag_331\n        /* \"#utility.yul\":3969:3975   */\n      dup2\n        /* \"#utility.yul\":3964:3967   */\n      dup6\n        /* \"#utility.yul\":3957:3961   */\n      0x20\n        /* \"#utility.yul\":3950:3955   */\n      dup7\n        /* \"#utility.yul\":3946:3962   */\n      add\n        /* \"#utility.yul\":3924:3976   */\n      tag_323\n      jump\t// in\n    tag_331:\n        /* \"#utility.yul\":4001:4007   */\n      dup1\n        /* \"#utility.yul\":3996:3999   */\n      dup5\n        /* \"#utility.yul\":3992:4008   */\n      add\n        /* \"#utility.yul\":3985:4008   */\n      swap2\n      pop\n        /* \"#utility.yul\":3747:4014   */\n      pop\n        /* \"#utility.yul\":3637:4014   */\n      swap3\n      swap2\n      pop\n      pop\n      jump\t// out\n        /* \"#utility.yul\":4020:4386   */\n    tag_332:\n        /* \"#utility.yul\":4162:4165   */\n      0x00\n        /* \"#utility.yul\":4183:4250   */\n      tag_334\n        /* \"#utility.yul\":4247:4249   */\n      0x30\n        /* \"#utility.yul\":4242:4245   */\n      dup4\n        /* \"#utility.yul\":4183:4250   */\n      tag_321\n      jump\t// in\n    tag_334:\n        /* \"#utility.yul\":4176:4250   */\n      swap2\n      pop\n        /* \"#utility.yul\":4259:4352   */\n      tag_335\n        /* \"#utility.yul\":4348:4351   */\n      dup3\n        /* \"#utility.yul\":4259:4352   */\n      tag_336\n      jump\t// in\n    tag_335:\n        /* \"#utility.yul\":4377:4379   */\n      0x40\n        /* \"#utility.yul\":4372:4375   */\n      dup3\n        /* \"#utility.yul\":4368:4380   */\n      add\n        /* \"#utility.yul\":4361:4380   */\n      swap1\n      pop\n        /* \"#utility.yul\":4020:4386   */\n      swap2\n      swap1\n      pop\n      jump\t// out\n        /* \"#utility.yul\":4392:4758   */\n    tag_337:\n        /* \"#utility.yul\":4534:4537   */\n      0x00\n        /* \"#utility.yul\":4555:4622   */\n      tag_339\n        /* \"#utility.yul\":4619:4621   */\n      0x22\n        /* \"#utility.yul\":4614:4617   */\n      dup4\n        /* \"#utility.yul\":4555:4622   */\n      tag_321\n      jump\t// in\n    tag_339:\n        /* \"#utility.yul\":4548:4622   */\n      swap2\n      pop\n        /* \"#utility.yul\":4631:4724   */\n      tag_340\n        /* \"#utility.yul\":4720:4723   */\n      dup3\n        /* \"#utility.yul\":4631:4724   */\n      tag_341\n      jump\t// in\n    tag_340:\n        /* \"#utility.yul\":4749:4751   */\n      0x40\n        /* \"#utility.yul\":4744:4747   */\n      dup3\n        /* \"#utility.yul\":4740:4752   */\n      add\n        /* \"#utility.yul\":4733:4752   */\n      swap1\n      pop\n        /* \"#utility.yul\":4392:4758   */\n      swap2\n      swap1\n      pop\n      jump\t// out\n        /* \"#utility.yul\":4764:5130   */\n    tag_342:\n        /* \"#utility.yul\":4906:4909   */\n      0x00\n        /* \"#utility.yul\":4927:4994   */\n      tag_344\n        /* \"#utility.yul\":4991:4993   */\n      0x20\n        /* \"#utility.yul\":4986:4989   */\n      dup4\n        /* \"#utility.yul\":4927:4994   */\n      tag_321\n      jump\t// in\n    tag_344:\n        /* \"#utility.yul\":4920:4994   */\n      swap2\n      pop\n        /* \"#utility.yul\":5003:5096   */\n      tag_345\n        /* \"#utility.yul\":5092:5095   */\n      dup3\n        /* \"#utility.yul\":5003:5096   */\n      tag_346\n      jump\t// in\n    tag_345:\n        /* \"#utility.yul\":5121:5123   */\n      0x20\n        /* \"#utility.yul\":5116:5119   */\n      dup3\n        /* \"#utility.yul\":5112:5124   */\n      add\n        /* \"#utility.yul\":5105:5124   */\n      swap1\n      pop\n        /* \"#utility.yul\":4764:5130   */\n      swap2\n      swap1\n      pop\n      jump\t// out\n        /* \"#utility.yul\":5136:5538   */\n    tag_347:\n        /* \"#utility.yul\":5296:5299   */\n      0x00\n        /* \"#utility.yul\":5317:5402   */\n      tag_349\n        /* \"#utility.yul\":5399:5401   */\n      0x1f\n        /* \"#utility.yul\":5394:5397   */\n      dup4\n        /* \"#utility.yul\":5317:5402   */\n      tag_330\n      jump\t// in\n    tag_349:\n        /* \"#utility.yul\":5310:5402   */\n      swap2\n      pop\n        /* \"#utility.yul\":5411:5504   */\n      tag_350\n        /* \"#utility.yul\":5500:5503   */\n      dup3\n        /* \"#utility.yul\":5411:5504   */\n      tag_351\n      jump\t// in\n    tag_350:\n        /* \"#utility.yul\":5529:5531   */\n      0x1f\n        /* \"#utility.yul\":5524:5527   */\n      dup3\n        /* \"#utility.yul\":5520:5532   */\n      add\n        /* \"#utility.yul\":5513:5532   */\n      swap1\n      pop\n        /* \"#utility.yul\":5136:5538   */\n      swap2\n      swap1\n      pop\n      jump\t// out\n        /* \"#utility.yul\":5544:5910   */\n    tag_352:\n        /* \"#utility.yul\":5686:5689   */\n      0x00\n        /* \"#utility.yul\":5707:5774   */\n      tag_354\n        /* \"#utility.yul\":5771:5773   */\n      0x22\n        /* \"#utility.yul\":5766:5769   */\n      dup4\n        /* \"#utility.yul\":5707:5774   */\n      tag_321\n      jump\t// in\n    tag_354:\n        /* \"#utility.yul\":5700:5774   */\n      swap2\n      pop\n        /* \"#utility.yul\":5783:5876   */\n      tag_355\n        /* \"#utility.yul\":5872:5875   */\n      dup3\n        /* \"#utility.yul\":5783:5876   */\n      tag_356\n      jump\t// in\n    tag_355:\n        /* \"#utility.yul\":5901:5903   */\n      0x40\n        /* \"#utility.yul\":5896:5899   */\n      dup3\n        /* \"#utility.yul\":5892:5904   */\n      add\n        /* \"#utility.yul\":5885:5904   */\n      swap1\n      pop\n        /* \"#utility.yul\":5544:5910   */\n      swap2\n      swap1\n      pop\n      jump\t// out\n        /* \"#utility.yul\":5916:6282   */\n    tag_357:\n        /* \"#utility.yul\":6058:6061   */\n      0x00\n        /* \"#utility.yul\":6079:6146   */\n      tag_359\n        /* \"#utility.yul\":6143:6145   */\n      0x30\n        /* \"#utility.yul\":6138:6141   */\n      dup4\n        /* \"#utility.yul\":6079:6146   */\n      tag_321\n      jump\t// in\n    tag_359:\n        /* \"#utility.yul\":6072:6146   */\n      swap2\n      pop\n        /* \"#utility.yul\":6155:6248   */\n      tag_360\n        /* \"#utility.yul\":6244:6247   */\n      dup3\n        /* \"#utility.yul\":6155:6248   */\n      tag_361\n      jump\t// in\n    tag_360:\n        /* \"#utility.yul\":6273:6275   */\n      0x40\n        /* \"#utility.yul\":6268:6271   */\n      dup3\n        /* \"#utility.yul\":6264:6276   */\n      add\n        /* \"#utility.yul\":6257:6276   */\n      swap1\n      pop\n        /* \"#utility.yul\":5916:6282   */\n      swap2\n      swap1\n      pop\n      jump\t// out\n        /* \"#utility.yul\":6288:6654   */\n    tag_362:\n        /* \"#utility.yul\":6430:6433   */\n      0x00\n        /* \"#utility.yul\":6451:6518   */\n      tag_364\n        /* \"#utility.yul\":6515:6517   */\n      0x30\n        /* \"#utility.yul\":6510:6513   */\n      dup4\n        /* \"#utility.yul\":6451:6518   */\n      tag_321\n      jump\t// in\n    tag_364:\n        /* \"#utility.yul\":6444:6518   */\n      swap2\n      pop\n        /* \"#utility.yul\":6527:6620   */\n      tag_365\n        /* \"#utility.yul\":6616:6619   */\n      dup3\n        /* \"#utility.yul\":6527:6620   */\n      tag_366\n      jump\t// in\n    tag_365:\n        /* \"#utility.yul\":6645:6647   */\n      0x40\n        /* \"#utility.yul\":6640:6643   */\n      dup3\n        /* \"#utility.yul\":6636:6648   */\n      add\n        /* \"#utility.yul\":6629:6648   */\n      swap1\n      pop\n        /* \"#utility.yul\":6288:6654   */\n      swap2\n      swap1\n      pop\n      jump\t// out\n        /* \"#utility.yul\":6660:7062   */\n    tag_367:\n        /* \"#utility.yul\":6820:6823   */\n      0x00\n        /* \"#utility.yul\":6841:6926   */\n      tag_369\n        /* \"#utility.yul\":6923:6925   */\n      0x21\n        /* \"#utility.yul\":6918:6921   */\n      dup4\n        /* \"#utility.yul\":6841:6926   */\n      tag_330\n      jump\t// in\n    tag_369:\n        /* \"#utility.yul\":6834:6926   */\n      swap2\n      pop\n        /* \"#utility.yul\":6935:7028   */\n      tag_370\n        /* \"#utility.yul\":7024:7027   */\n      dup3\n        /* \"#utility.yul\":6935:7028   */\n      tag_371\n      jump\t// in\n    tag_370:\n        /* \"#utility.yul\":7053:7055   */\n      0x21\n        /* \"#utility.yul\":7048:7051   */\n      dup3\n        /* \"#utility.yul\":7044:7056   */\n      add\n        /* \"#utility.yul\":7037:7056   */\n      swap1\n      pop\n        /* \"#utility.yul\":6660:7062   */\n      swap2\n      swap1\n      pop\n      jump\t// out\n        /* \"#utility.yul\":7068:7434   */\n    tag_372:\n        /* \"#utility.yul\":7210:7213   */\n      0x00\n        /* \"#utility.yul\":7231:7298   */\n      tag_374\n        /* \"#utility.yul\":7295:7297   */\n      0x1c\n        /* \"#utility.yul\":7290:7293   */\n      dup4\n        /* \"#utility.yul\":7231:7298   */\n      tag_321\n      jump\t// in\n    tag_374:\n        /* \"#utility.yul\":7224:7298   */\n      swap2\n      pop\n        /* \"#utility.yul\":7307:7400   */\n      tag_375\n        /* \"#utility.yul\":7396:7399   */\n      dup3\n        /* \"#utility.yul\":7307:7400   */\n      tag_376\n      jump\t// in\n    tag_375:\n        /* \"#utility.yul\":7425:7427   */\n      0x20\n        /* \"#utility.yul\":7420:7423   */\n      dup3\n        /* \"#utility.yul\":7416:7428   */\n      add\n        /* \"#utility.yul\":7409:7428   */\n      swap1\n      pop\n        /* \"#utility.yul\":7068:7434   */\n      swap2\n      swap1\n      pop\n      jump\t// out\n        /* \"#utility.yul\":7440:7806   */\n    tag_377:\n        /* \"#utility.yul\":7582:7585   */\n      0x00\n        /* \"#utility.yul\":7603:7670   */\n      tag_379\n        /* \"#utility.yul\":7667:7669   */\n      0x12\n        /* \"#utility.yul\":7662:7665   */\n      dup4\n        /* \"#utility.yul\":7603:7670   */\n      tag_321\n      jump\t// in\n    tag_379:\n        /* \"#utility.yul\":7596:7670   */\n      swap2\n      pop\n        /* \"#utility.yul\":7679:7772   */\n      tag_380\n        /* \"#utility.yul\":7768:7771   */\n      dup3\n        /* \"#utility.yul\":7679:7772   */\n      tag_381\n      jump\t// in\n    tag_380:\n        /* \"#utility.yul\":7797:7799   */\n      0x20\n        /* \"#utility.yul\":7792:7795   */\n      dup3\n        /* \"#utility.yul\":7788:7800   */\n      add\n        /* \"#utility.yul\":7781:7800   */\n      swap1\n      pop\n        /* \"#utility.yul\":7440:7806   */\n      swap2\n      swap1\n      pop\n      jump\t// out\n        /* \"#utility.yul\":7812:7930   */\n    tag_382:\n        /* \"#utility.yul\":7899:7923   */\n      tag_384\n        /* \"#utility.yul\":7917:7922   */\n      dup2\n        /* \"#utility.yul\":7899:7923   */\n      tag_385\n      jump\t// in\n    tag_384:\n        /* \"#utility.yul\":7894:7897   */\n      dup3\n        /* \"#utility.yul\":7887:7924   */\n      mstore\n        /* \"#utility.yul\":7812:7930   */\n      pop\n      pop\n      jump\t// out\n        /* \"#utility.yul\":7936:8093   */\n    tag_386:\n        /* \"#utility.yul\":8041:8086   */\n      tag_388\n        /* \"#utility.yul\":8061:8085   */\n      tag_389\n        /* \"#utility.yul\":8079:8084   */\n      dup3\n        /* \"#utility.yul\":8061:8085   */\n      tag_385\n      jump\t// in\n    tag_389:\n        /* \"#utility.yul\":8041:8086   */\n      tag_390\n      jump\t// in\n    tag_388:\n        /* \"#utility.yul\":8036:8039   */\n      dup3\n        /* \"#utility.yul\":8029:8087   */\n      mstore\n        /* \"#utility.yul\":7936:8093   */\n      pop\n      pop\n      jump\t// out\n        /* \"#utility.yul\":8099:8534   */\n    tag_246:\n        /* \"#utility.yul\":8279:8282   */\n      0x00\n        /* \"#utility.yul\":8301:8396   */\n      tag_392\n        /* \"#utility.yul\":8392:8395   */\n      dup3\n        /* \"#utility.yul\":8383:8389   */\n      dup6\n        /* \"#utility.yul\":8301:8396   */\n      tag_326\n      jump\t// in\n    tag_392:\n        /* \"#utility.yul\":8294:8396   */\n      swap2\n      pop\n        /* \"#utility.yul\":8413:8508   */\n      tag_393\n        /* \"#utility.yul\":8504:8507   */\n      dup3\n        /* \"#utility.yul\":8495:8501   */\n      dup5\n        /* \"#utility.yul\":8413:8508   */\n      tag_326\n      jump\t// in\n    tag_393:\n        /* \"#utility.yul\":8406:8508   */\n      swap2\n      pop\n        /* \"#utility.yul\":8525:8528   */\n      dup2\n        /* \"#utility.yul\":8518:8528   */\n      swap1\n      pop\n        /* \"#utility.yul\":8099:8534   */\n      swap4\n      swap3\n      pop\n      pop\n      pop\n      jump\t// out\n        /* \"#utility.yul\":8540:9062   */\n    tag_242:\n        /* \"#utility.yul\":8753:8756   */\n      0x00\n        /* \"#utility.yul\":8775:8923   */\n      tag_395\n        /* \"#utility.yul\":8919:8922   */\n      dup3\n        /* \"#utility.yul\":8775:8923   */\n      tag_347\n      jump\t// in\n    tag_395:\n        /* \"#utility.yul\":8768:8923   */\n      swap2\n      pop\n        /* \"#utility.yul\":8933:9008   */\n      tag_396\n        /* \"#utility.yul\":9004:9007   */\n      dup3\n        /* \"#utility.yul\":8995:9001   */\n      dup5\n        /* \"#utility.yul\":8933:9008   */\n      tag_386\n      jump\t// in\n    tag_396:\n        /* \"#utility.yul\":9033:9035   */\n      0x20\n        /* \"#utility.yul\":9028:9031   */\n      dup3\n        /* \"#utility.yul\":9024:9036   */\n      add\n        /* \"#utility.yul\":9017:9036   */\n      swap2\n      pop\n        /* \"#utility.yul\":9053:9056   */\n      dup2\n        /* \"#utility.yul\":9046:9056   */\n      swap1\n      pop\n        /* \"#utility.yul\":8540:9062   */\n      swap3\n      swap2\n      pop\n      pop\n      jump\t// out\n        /* \"#utility.yul\":9068:9590   */\n    tag_244:\n        /* \"#utility.yul\":9281:9284   */\n      0x00\n        /* \"#utility.yul\":9303:9451   */\n      tag_398\n        /* \"#utility.yul\":9447:9450   */\n      dup3\n        /* \"#utility.yul\":9303:9451   */\n      tag_367\n      jump\t// in\n    tag_398:\n        /* \"#utility.yul\":9296:9451   */\n      swap2\n      pop\n        /* \"#utility.yul\":9461:9536   */\n      tag_399\n        /* \"#utility.yul\":9532:9535   */\n      dup3\n        /* \"#utility.yul\":9523:9529   */\n      dup5\n        /* \"#utility.yul\":9461:9536   */\n      tag_386\n      jump\t// in\n    tag_399:\n        /* \"#utility.yul\":9561:9563   */\n      0x20\n        /* \"#utility.yul\":9556:9559   */\n      dup3\n        /* \"#utility.yul\":9552:9564   */\n      add\n        /* \"#utility.yul\":9545:9564   */\n      swap2\n      pop\n        /* \"#utility.yul\":9581:9584   */\n      dup2\n        /* \"#utility.yul\":9574:9584   */\n      swap1\n      pop\n        /* \"#utility.yul\":9068:9590   */\n      swap3\n      swap2\n      pop\n      pop\n      jump\t// out\n        /* \"#utility.yul\":9596:9818   */\n    tag_91:\n        /* \"#utility.yul\":9689:9693   */\n      0x00\n        /* \"#utility.yul\":9727:9729   */\n      0x20\n        /* \"#utility.yul\":9716:9725   */\n      dup3\n        /* \"#utility.yul\":9712:9730   */\n      add\n        /* \"#utility.yul\":9704:9730   */\n      swap1\n      pop\n        /* \"#utility.yul\":9740:9811   */\n      tag_401\n        /* \"#utility.yul\":9808:9809   */\n      0x00\n        /* \"#utility.yul\":9797:9806   */\n      dup4\n        /* \"#utility.yul\":9793:9810   */\n      add\n        /* \"#utility.yul\":9784:9790   */\n      dup5\n        /* \"#utility.yul\":9740:9811   */\n      tag_304\n      jump\t// in\n    tag_401:\n        /* \"#utility.yul\":9596:9818   */\n      swap3\n      swap2\n      pop\n      pop\n      jump\t// out\n        /* \"#utility.yul\":9824:10078   */\n    tag_69:\n        /* \"#utility.yul\":9933:9937   */\n      0x00\n        /* \"#utility.yul\":9971:9973   */\n      0x20\n        /* \"#utility.yul\":9960:9969   */\n      dup3\n        /* \"#utility.yul\":9956:9974   */\n      add\n        /* \"#utility.yul\":9948:9974   */\n      swap1\n      pop\n        /* \"#utility.yul\":9984:10071   */\n      tag_403\n        /* \"#utility.yul\":10068:10069   */\n      0x00\n        /* \"#utility.yul\":10057:10066   */\n      dup4\n        /* \"#utility.yul\":10053:10070   */\n      add\n        /* \"#utility.yul\":10044:10050   */\n      dup5\n        /* \"#utility.yul\":9984:10071   */\n      tag_300\n      jump\t// in\n    tag_403:\n        /* \"#utility.yul\":9824:10078   */\n      swap3\n      swap2\n      pop\n      pop\n      jump\t// out\n        /* \"#utility.yul\":10084:10526   */\n    tag_261:\n        /* \"#utility.yul\":10233:10237   */\n      0x00\n        /* \"#utility.yul\":10271:10273   */\n      0x60\n        /* \"#utility.yul\":10260:10269   */\n      dup3\n        /* \"#utility.yul\":10256:10274   */\n      add\n        /* \"#utility.yul\":10248:10274   */\n      swap1\n      pop\n        /* \"#utility.yul\":10284:10355   */\n      tag_405\n        /* \"#utility.yul\":10352:10353   */\n      0x00\n        /* \"#utility.yul\":10341:10350   */\n      dup4\n        /* \"#utility.yul\":10337:10354   */\n      add\n        /* \"#utility.yul\":10328:10334   */\n      dup7\n        /* \"#utility.yul\":10284:10355   */\n      tag_304\n      jump\t// in\n    tag_405:\n        /* \"#utility.yul\":10365:10437   */\n      tag_406\n        /* \"#utility.yul\":10433:10435   */\n      0x20\n        /* \"#utility.yul\":10422:10431   */\n      dup4\n        /* \"#utility.yul\":10418:10436   */\n      add\n        /* \"#utility.yul\":10409:10415   */\n      dup6\n        /* \"#utility.yul\":10365:10437   */\n      tag_382\n      jump\t// in\n    tag_406:\n        /* \"#utility.yul\":10447:10519   */\n      tag_407\n        /* \"#utility.yul\":10515:10517   */\n      0x40\n        /* \"#utility.yul\":10504:10513   */\n      dup4\n        /* \"#utility.yul\":10500:10518   */\n      add\n        /* \"#utility.yul\":10491:10497   */\n      dup5\n        /* \"#utility.yul\":10447:10519   */\n      tag_382\n      jump\t// in\n    tag_407:\n        /* \"#utility.yul\":10084:10526   */\n      swap5\n      swap4\n      pop\n      pop\n      pop\n      pop\n      jump\t// out\n        /* \"#utility.yul\":10532:10742   */\n    tag_47:\n        /* \"#utility.yul\":10619:10623   */\n      0x00\n        /* \"#utility.yul\":10657:10659   */\n      0x20\n        /* \"#utility.yul\":10646:10655   */\n      dup3\n        /* \"#utility.yul\":10642:10660   */\n      add\n        /* \"#utility.yul\":10634:10660   */\n      swap1\n      pop\n        /* \"#utility.yul\":10670:10735   */\n      tag_409\n        /* \"#utility.yul\":10732:10733   */\n      0x00\n        /* \"#utility.yul\":10721:10730   */\n      dup4\n        /* \"#utility.yul\":10717:10734   */\n      add\n        /* \"#utility.yul\":10708:10714   */\n      dup5\n        /* \"#utility.yul\":10670:10735   */\n      tag_308\n      jump\t// in\n    tag_409:\n        /* \"#utility.yul\":10532:10742   */\n      swap3\n      swap2\n      pop\n      pop\n      jump\t// out\n        /* \"#utility.yul\":10748:10984   */\n    tag_74:\n        /* \"#utility.yul\":10848:10852   */\n      0x00\n        /* \"#utility.yul\":10886:10888   */\n      0x20\n        /* \"#utility.yul\":10875:10884   */\n      dup3\n        /* \"#utility.yul\":10871:10889   */\n      add\n        /* \"#utility.yul\":10863:10889   */\n      swap1\n      pop\n        /* \"#utility.yul\":10899:10977   */\n      tag_411\n        /* \"#utility.yul\":10974:10975   */\n      0x00\n        /* \"#utility.yul\":10963:10972   */\n      dup4\n        /* \"#utility.yul\":10959:10976   */\n      add\n        /* \"#utility.yul\":10950:10956   */\n      dup5\n        /* \"#utility.yul\":10899:10977   */\n      tag_312\n      jump\t// in\n    tag_411:\n        /* \"#utility.yul\":10748:10984   */\n      swap3\n      swap2\n      pop\n      pop\n      jump\t// out\n        /* \"#utility.yul\":10990:11303   */\n    tag_40:\n        /* \"#utility.yul\":11103:11107   */\n      0x00\n        /* \"#utility.yul\":11141:11143   */\n      0x20\n        /* \"#utility.yul\":11130:11139   */\n      dup3\n        /* \"#utility.yul\":11126:11144   */\n      add\n        /* \"#utility.yul\":11118:11144   */\n      swap1\n      pop\n        /* \"#utility.yul\":11190:11199   */\n      dup2\n        /* \"#utility.yul\":11184:11188   */\n      dup2\n        /* \"#utility.yul\":11180:11200   */\n      sub\n        /* \"#utility.yul\":11176:11177   */\n      0x00\n        /* \"#utility.yul\":11165:11174   */\n      dup4\n        /* \"#utility.yul\":11161:11178   */\n      add\n        /* \"#utility.yul\":11154:11201   */\n      mstore\n        /* \"#utility.yul\":11218:11296   */\n      tag_413\n        /* \"#utility.yul\":11291:11295   */\n      dup2\n        /* \"#utility.yul\":11282:11288   */\n      dup5\n        /* \"#utility.yul\":11218:11296   */\n      tag_316\n      jump\t// in\n    tag_413:\n        /* \"#utility.yul\":11210:11296   */\n      swap1\n      pop\n        /* \"#utility.yul\":10990:11303   */\n      swap3\n      swap2\n      pop\n      pop\n      jump\t// out\n        /* \"#utility.yul\":11309:11728   */\n    tag_177:\n        /* \"#utility.yul\":11475:11479   */\n      0x00\n        /* \"#utility.yul\":11513:11515   */\n      0x20\n        /* \"#utility.yul\":11502:11511   */\n      dup3\n        /* \"#utility.yul\":11498:11516   */\n      add\n        /* \"#utility.yul\":11490:11516   */\n      swap1\n      pop\n        /* \"#utility.yul\":11562:11571   */\n      dup2\n        /* \"#utility.yul\":11556:11560   */\n      dup2\n        /* \"#utility.yul\":11552:11572   */\n      sub\n        /* \"#utility.yul\":11548:11549   */\n      0x00\n        /* \"#utility.yul\":11537:11546   */\n      dup4\n        /* \"#utility.yul\":11533:11550   */\n      add\n        /* \"#utility.yul\":11526:11573   */\n      mstore\n        /* \"#utility.yul\":11590:11721   */\n      tag_415\n        /* \"#utility.yul\":11716:11720   */\n      dup2\n        /* \"#utility.yul\":11590:11721   */\n      tag_332\n      jump\t// in\n    tag_415:\n        /* \"#utility.yul\":11582:11721   */\n      swap1\n      pop\n        /* \"#utility.yul\":11309:11728   */\n      swap2\n      swap1\n      pop\n      jump\t// out\n        /* \"#utility.yul\":11734:12153   */\n    tag_172:\n        /* \"#utility.yul\":11900:11904   */\n      0x00\n        /* \"#utility.yul\":11938:11940   */\n      0x20\n        /* \"#utility.yul\":11927:11936   */\n      dup3\n        /* \"#utility.yul\":11923:11941   */\n      add\n        /* \"#utility.yul\":11915:11941   */\n      swap1\n      pop\n        /* \"#utility.yul\":11987:11996   */\n      dup2\n        /* \"#utility.yul\":11981:11985   */\n      dup2\n        /* \"#utility.yul\":11977:11997   */\n      sub\n        /* \"#utility.yul\":11973:11974   */\n      0x00\n        /* \"#utility.yul\":11962:11971   */\n      dup4\n        /* \"#utility.yul\":11958:11975   */\n      add\n        /* \"#utility.yul\":11951:11998   */\n      mstore\n        /* \"#utility.yul\":12015:12146   */\n      tag_417\n        /* \"#utility.yul\":12141:12145   */\n      dup2\n        /* \"#utility.yul\":12015:12146   */\n      tag_337\n      jump\t// in\n    tag_417:\n        /* \"#utility.yul\":12007:12146   */\n      swap1\n      pop\n        /* \"#utility.yul\":11734:12153   */\n      swap2\n      swap1\n      pop\n      jump\t// out\n        /* \"#utility.yul\":12159:12578   */\n    tag_238:\n        /* \"#utility.yul\":12325:12329   */\n      0x00\n        /* \"#utility.yul\":12363:12365   */\n      0x20\n        /* \"#utility.yul\":12352:12361   */\n      dup3\n        /* \"#utility.yul\":12348:12366   */\n      add\n        /* \"#utility.yul\":12340:12366   */\n      swap1\n      pop\n        /* \"#utility.yul\":12412:12421   */\n      dup2\n        /* \"#utility.yul\":12406:12410   */\n      dup2\n        /* \"#utility.yul\":12402:12422   */\n      sub\n        /* \"#utility.yul\":12398:12399   */\n      0x00\n        /* \"#utility.yul\":12387:12396   */\n      dup4\n        /* \"#utility.yul\":12383:12400   */\n      add\n        /* \"#utility.yul\":12376:12423   */\n      mstore\n        /* \"#utility.yul\":12440:12571   */\n      tag_419\n        /* \"#utility.yul\":12566:12570   */\n      dup2\n        /* \"#utility.yul\":12440:12571   */\n      tag_342\n      jump\t// in\n    tag_419:\n        /* \"#utility.yul\":12432:12571   */\n      swap1\n      pop\n        /* \"#utility.yul\":12159:12578   */\n      swap2\n      swap1\n      pop\n      jump\t// out\n        /* \"#utility.yul\":12584:13003   */\n    tag_155:\n        /* \"#utility.yul\":12750:12754   */\n      0x00\n        /* \"#utility.yul\":12788:12790   */\n      0x20\n        /* \"#utility.yul\":12777:12786   */\n      dup3\n        /* \"#utility.yul\":12773:12791   */\n      add\n        /* \"#utility.yul\":12765:12791   */\n      swap1\n      pop\n        /* \"#utility.yul\":12837:12846   */\n      dup2\n        /* \"#utility.yul\":12831:12835   */\n      dup2\n        /* \"#utility.yul\":12827:12847   */\n      sub\n        /* \"#utility.yul\":12823:12824   */\n      0x00\n        /* \"#utility.yul\":12812:12821   */\n      dup4\n        /* \"#utility.yul\":12808:12825   */\n      add\n        /* \"#utility.yul\":12801:12848   */\n      mstore\n        /* \"#utility.yul\":12865:12996   */\n      tag_421\n        /* \"#utility.yul\":12991:12995   */\n      dup2\n        /* \"#utility.yul\":12865:12996   */\n      tag_352\n      jump\t// in\n    tag_421:\n        /* \"#utility.yul\":12857:12996   */\n      swap1\n      pop\n        /* \"#utility.yul\":12584:13003   */\n      swap2\n      swap1\n      pop\n      jump\t// out\n        /* \"#utility.yul\":13009:13428   */\n    tag_169:\n        /* \"#utility.yul\":13175:13179   */\n      0x00\n        /* \"#utility.yul\":13213:13215   */\n      0x20\n        /* \"#utility.yul\":13202:13211   */\n      dup3\n        /* \"#utility.yul\":13198:13216   */\n      add\n        /* \"#utility.yul\":13190:13216   */\n      swap1\n      pop\n        /* \"#utility.yul\":13262:13271   */\n      dup2\n        /* \"#utility.yul\":13256:13260   */\n      dup2\n        /* \"#utility.yul\":13252:13272   */\n      sub\n        /* \"#utility.yul\":13248:13249   */\n      0x00\n        /* \"#utility.yul\":13237:13246   */\n      dup4\n        /* \"#utility.yul\":13233:13250   */\n      add\n        /* \"#utility.yul\":13226:13273   */\n      mstore\n        /* \"#utility.yul\":13290:13421   */\n      tag_423\n        /* \"#utility.yul\":13416:13420   */\n      dup2\n        /* \"#utility.yul\":13290:13421   */\n      tag_357\n      jump\t// in\n    tag_423:\n        /* \"#utility.yul\":13282:13421   */\n      swap1\n      pop\n        /* \"#utility.yul\":13009:13428   */\n      swap2\n      swap1\n      pop\n      jump\t// out\n        /* \"#utility.yul\":13434:13853   */\n    tag_253:\n        /* \"#utility.yul\":13600:13604   */\n      0x00\n        /* \"#utility.yul\":13638:13640   */\n      0x20\n        /* \"#utility.yul\":13627:13636   */\n      dup3\n        /* \"#utility.yul\":13623:13641   */\n      add\n        /* \"#utility.yul\":13615:13641   */\n      swap1\n      pop\n        /* \"#utility.yul\":13687:13696   */\n      dup2\n        /* \"#utility.yul\":13681:13685   */\n      dup2\n        /* \"#utility.yul\":13677:13697   */\n      sub\n        /* \"#utility.yul\":13673:13674   */\n      0x00\n        /* \"#utility.yul\":13662:13671   */\n      dup4\n        /* \"#utility.yul\":13658:13675   */\n      add\n        /* \"#utility.yul\":13651:13698   */\n      mstore\n        /* \"#utility.yul\":13715:13846   */\n      tag_425\n        /* \"#utility.yul\":13841:13845   */\n      dup2\n        /* \"#utility.yul\":13715:13846   */\n      tag_362\n      jump\t// in\n    tag_425:\n        /* \"#utility.yul\":13707:13846   */\n      swap1\n      pop\n        /* \"#utility.yul\":13434:13853   */\n      swap2\n      swap1\n      pop\n      jump\t// out\n        /* \"#utility.yul\":13859:14278   */\n    tag_220:\n        /* \"#utility.yul\":14025:14029   */\n      0x00\n        /* \"#utility.yul\":14063:14065   */\n      0x20\n        /* \"#utility.yul\":14052:14061   */\n      dup3\n        /* \"#utility.yul\":14048:14066   */\n      add\n        /* \"#utility.yul\":14040:14066   */\n      swap1\n      pop\n        /* \"#utility.yul\":14112:14121   */\n      dup2\n        /* \"#utility.yul\":14106:14110   */\n      dup2\n        /* \"#utility.yul\":14102:14122   */\n      sub\n        /* \"#utility.yul\":14098:14099   */\n      0x00\n        /* \"#utility.yul\":14087:14096   */\n      dup4\n        /* \"#utility.yul\":14083:14100   */\n      add\n        /* \"#utility.yul\":14076:14123   */\n      mstore\n        /* \"#utility.yul\":14140:14271   */\n      tag_427\n        /* \"#utility.yul\":14266:14270   */\n      dup2\n        /* \"#utility.yul\":14140:14271   */\n      tag_372\n      jump\t// in\n    tag_427:\n        /* \"#utility.yul\":14132:14271   */\n      swap1\n      pop\n        /* \"#utility.yul\":13859:14278   */\n      swap2\n      swap1\n      pop\n      jump\t// out\n        /* \"#utility.yul\":14284:14703   */\n    tag_180:\n        /* \"#utility.yul\":14450:14454   */\n      0x00\n        /* \"#utility.yul\":14488:14490   */\n      0x20\n        /* \"#utility.yul\":14477:14486   */\n      dup3\n        /* \"#utility.yul\":14473:14491   */\n      add\n        /* \"#utility.yul\":14465:14491   */\n      swap1\n      pop\n        /* \"#utility.yul\":14537:14546   */\n      dup2\n        /* \"#utility.yul\":14531:14535   */\n      dup2\n        /* \"#utility.yul\":14527:14547   */\n      sub\n        /* \"#utility.yul\":14523:14524   */\n      0x00\n        /* \"#utility.yul\":14512:14521   */\n      dup4\n        /* \"#utility.yul\":14508:14525   */\n      add\n        /* \"#utility.yul\":14501:14548   */\n      mstore\n        /* \"#utility.yul\":14565:14696   */\n      tag_429\n        /* \"#utility.yul\":14691:14695   */\n      dup2\n        /* \"#utility.yul\":14565:14696   */\n      tag_377\n      jump\t// in\n    tag_429:\n        /* \"#utility.yul\":14557:14696   */\n      swap1\n      pop\n        /* \"#utility.yul\":14284:14703   */\n      swap2\n      swap1\n      pop\n      jump\t// out\n        /* \"#utility.yul\":14709:14931   */\n    tag_52:\n        /* \"#utility.yul\":14802:14806   */\n      0x00\n        /* \"#utility.yul\":14840:14842   */\n      0x20\n        /* \"#utility.yul\":14829:14838   */\n      dup3\n        /* \"#utility.yul\":14825:14843   */\n      add\n        /* \"#utility.yul\":14817:14843   */\n      swap1\n      pop\n        /* \"#utility.yul\":14853:14924   */\n      tag_431\n        /* \"#utility.yul\":14921:14922   */\n      0x00\n        /* \"#utility.yul\":14910:14919   */\n      dup4\n        /* \"#utility.yul\":14906:14923   */\n      add\n        /* \"#utility.yul\":14897:14903   */\n      dup5\n        /* \"#utility.yul\":14853:14924   */\n      tag_382\n      jump\t// in\n    tag_431:\n        /* \"#utility.yul\":14709:14931   */\n      swap3\n      swap2\n      pop\n      pop\n      jump\t// out\n        /* \"#utility.yul\":15018:15117   */\n    tag_319:\n        /* \"#utility.yul\":15070:15076   */\n      0x00\n        /* \"#utility.yul\":15104:15109   */\n      dup2\n        /* \"#utility.yul\":15098:15110   */\n      mload\n        /* \"#utility.yul\":15088:15110   */\n      swap1\n      pop\n        /* \"#utility.yul\":15018:15117   */\n      swap2\n      swap1\n      pop\n      jump\t// out\n        /* \"#utility.yul\":15123:15292   */\n    tag_321:\n        /* \"#utility.yul\":15207:15218   */\n      0x00\n        /* \"#utility.yul\":15241:15247   */\n      dup3\n        /* \"#utility.yul\":15236:15239   */\n      dup3\n        /* \"#utility.yul\":15229:15248   */\n      mstore\n        /* \"#utility.yul\":15281:15285   */\n      0x20\n        /* \"#utility.yul\":15276:15279   */\n      dup3\n        /* \"#utility.yul\":15272:15286   */\n      add\n        /* \"#utility.yul\":15257:15286   */\n      swap1\n      pop\n        /* \"#utility.yul\":15123:15292   */\n      swap3\n      swap2\n      pop\n      pop\n      jump\t// out\n        /* \"#utility.yul\":15298:15446   */\n    tag_330:\n        /* \"#utility.yul\":15400:15411   */\n      0x00\n        /* \"#utility.yul\":15437:15440   */\n      dup2\n        /* \"#utility.yul\":15422:15440   */\n      swap1\n      pop\n        /* \"#utility.yul\":15298:15446   */\n      swap3\n      swap2\n      pop\n      pop\n      jump\t// out\n        /* \"#utility.yul\":15452:15757   */\n    tag_187:\n        /* \"#utility.yul\":15492:15495   */\n      0x00\n        /* \"#utility.yul\":15511:15531   */\n      tag_438\n        /* \"#utility.yul\":15529:15530   */\n      dup3\n        /* \"#utility.yul\":15511:15531   */\n      tag_385\n      jump\t// in\n    tag_438:\n        /* \"#utility.yul\":15506:15531   */\n      swap2\n      pop\n        /* \"#utility.yul\":15545:15565   */\n      tag_439\n        /* \"#utility.yul\":15563:15564   */\n      dup4\n        /* \"#utility.yul\":15545:15565   */\n      tag_385\n      jump\t// in\n    tag_439:\n        /* \"#utility.yul\":15540:15565   */\n      swap3\n      pop\n        /* \"#utility.yul\":15699:15700   */\n      dup3\n        /* \"#utility.yul\":15631:15697   */\n      0xffffffffffffffffffffffffffffffffffffffffffffffffffffffffffffffff\n        /* \"#utility.yul\":15627:15701   */\n      sub\n        /* \"#utility.yul\":15624:15625   */\n      dup3\n        /* \"#utility.yul\":15621:15702   */\n      gt\n        /* \"#utility.yul\":15618:15725   */\n      iszero\n      tag_440\n      jumpi\n        /* \"#utility.yul\":15705:15723   */\n      tag_441\n      tag_442\n      jump\t// in\n    tag_441:\n        /* \"#utility.yul\":15618:15725   */\n    tag_440:\n        /* \"#utility.yul\":15749:15750   */\n      dup3\n        /* \"#utility.yul\":15746:15747   */\n      dup3\n        /* \"#utility.yul\":15742:15751   */\n      add\n        /* \"#utility.yul\":15735:15751   */\n      swap1\n      pop\n        /* \"#utility.yul\":15452:15757   */\n      swap3\n      swap2\n      pop\n      pop\n      jump\t// out\n        /* \"#utility.yul\":15763:16111   */\n    tag_255:\n        /* \"#utility.yul\":15803:15810   */\n      0x00\n        /* \"#utility.yul\":15826:15846   */\n      tag_444\n        /* \"#utility.yul\":15844:15845   */\n      dup3\n        /* \"#utility.yul\":15826:15846   */\n      tag_385\n      jump\t// in\n    tag_444:\n        /* \"#utility.yul\":15821:15846   */\n      swap2\n      pop\n        /* \"#utility.yul\":15860:15880   */\n      tag_445\n        /* \"#utility.yul\":15878:15879   */\n      dup4\n        /* \"#utility.yul\":15860:15880   */\n      tag_385\n      jump\t// in\n    tag_445:\n        /* \"#utility.yul\":15855:15880   */\n      swap3\n      pop\n        /* \"#utility.yul\":16048:16049   */\n      dup2\n        /* \"#utility.yul\":15980:16046   */\n      0xffffffffffffffffffffffffffffffffffffffffffffffffffffffffffffffff\n        /* \"#utility.yul\":15976:16050   */\n      div\n        /* \"#utility.yul\":15973:15974   */\n      dup4\n        /* \"#utility.yul\":15970:16051   */\n      gt\n        /* \"#utility.yul\":15965:15966   */\n      dup3\n        /* \"#utility.yul\":15958:15967   */\n      iszero\n        /* \"#utility.yul\":15951:15968   */\n      iszero\n        /* \"#utility.yul\":15947:16052   */\n      and\n        /* \"#utility.yul\":15944:16075   */\n      iszero\n      tag_446\n      jumpi\n        /* \"#utility.yul\":16055:16073   */\n      tag_447\n      tag_442\n      jump\t// in\n    tag_447:\n        /* \"#utility.yul\":15944:16075   */\n    tag_446:\n        /* \"#utility.yul\":16103:16104   */\n      dup3\n        /* \"#utility.yul\":16100:16101   */\n      dup3\n        /* \"#utility.yul\":16096:16105   */\n      mul\n        /* \"#utility.yul\":16085:16105   */\n      swap1\n      pop\n        /* \"#utility.yul\":15763:16111   */\n      swap3\n      swap2\n      pop\n      pop\n      jump\t// out\n        /* \"#utility.yul\":16117:16308   */\n    tag_184:\n        /* \"#utility.yul\":16157:16161   */\n      0x00\n        /* \"#utility.yul\":16177:16197   */\n      tag_449\n        /* \"#utility.yul\":16195:16196   */\n      dup3\n        /* \"#utility.yul\":16177:16197   */\n      tag_385\n      jump\t// in\n    tag_449:\n        /* \"#utility.yul\":16172:16197   */\n      swap2\n      pop\n        /* \"#utility.yul\":16211:16231   */\n      tag_450\n        /* \"#utility.yul\":16229:16230   */\n      dup4\n        /* \"#utility.yul\":16211:16231   */\n      tag_385\n      jump\t// in\n    tag_450:\n        /* \"#utility.yul\":16206:16231   */\n      swap3\n      pop\n        /* \"#utility.yul\":16250:16251   */\n      dup3\n        /* \"#utility.yul\":16247:16248   */\n      dup3\n        /* \"#utility.yul\":16244:16252   */\n      lt\n        /* \"#utility.yul\":16241:16275   */\n      iszero\n      tag_451\n      jumpi\n        /* \"#utility.yul\":16255:16273   */\n      tag_452\n      tag_442\n      jump\t// in\n    tag_452:\n        /* \"#utility.yul\":16241:16275   */\n    tag_451:\n        /* \"#utility.yul\":16300:16301   */\n      dup3\n        /* \"#utility.yul\":16297:16298   */\n      dup3\n        /* \"#utility.yul\":16293:16302   */\n      sub\n        /* \"#utility.yul\":16285:16302   */\n      swap1\n      pop\n        /* \"#utility.yul\":16117:16308   */\n      swap3\n      swap2\n      pop\n      pop\n      jump\t// out\n        /* \"#utility.yul\":16314:16410   */\n    tag_307:\n        /* \"#utility.yul\":16351:16358   */\n      0x00\n        /* \"#utility.yul\":16380:16404   */\n      tag_454\n        /* \"#utility.yul\":16398:16403   */\n      dup3\n        /* \"#utility.yul\":16380:16404   */\n      tag_455\n      jump\t// in\n    tag_454:\n        /* \"#utility.yul\":16369:16404   */\n      swap1\n      pop\n        /* \"#utility.yul\":16314:16410   */\n      swap2\n      swap1\n      pop\n      jump\t// out\n        /* \"#utility.yul\":16416:16520   */\n    tag_303:\n        /* \"#utility.yul\":16461:16468   */\n      0x00\n        /* \"#utility.yul\":16490:16514   */\n      tag_457\n        /* \"#utility.yul\":16508:16513   */\n      dup3\n        /* \"#utility.yul\":16490:16514   */\n      tag_455\n      jump\t// in\n    tag_457:\n        /* \"#utility.yul\":16479:16514   */\n      swap1\n      pop\n        /* \"#utility.yul\":16416:16520   */\n      swap2\n      swap1\n      pop\n      jump\t// out\n        /* \"#utility.yul\":16526:16616   */\n    tag_311:\n        /* \"#utility.yul\":16560:16567   */\n      0x00\n        /* \"#utility.yul\":16603:16608   */\n      dup2\n        /* \"#utility.yul\":16596:16609   */\n      iszero\n        /* \"#utility.yul\":16589:16610   */\n      iszero\n        /* \"#utility.yul\":16578:16610   */\n      swap1\n      pop\n        /* \"#utility.yul\":16526:16616   */\n      swap2\n      swap1\n      pop\n      jump\t// out\n        /* \"#utility.yul\":16622:16751   */\n    tag_459:\n        /* \"#utility.yul\":16668:16675   */\n      0x00\n        /* \"#utility.yul\":16697:16702   */\n      dup2\n        /* \"#utility.yul\":16686:16702   */\n      swap1\n      pop\n        /* \"#utility.yul\":16703:16745   */\n      tag_461\n        /* \"#utility.yul\":16739:16744   */\n      dup3\n        /* \"#utility.yul\":16703:16745   */\n      tag_462\n      jump\t// in\n    tag_461:\n        /* \"#utility.yul\":16622:16751   */\n      swap2\n      swap1\n      pop\n      jump\t// out\n        /* \"#utility.yul\":16757:16883   */\n    tag_455:\n        /* \"#utility.yul\":16794:16801   */\n      0x00\n        /* \"#utility.yul\":16834:16876   */\n      0xffffffffffffffffffffffffffffffffffffffff\n        /* \"#utility.yul\":16827:16832   */\n      dup3\n        /* \"#utility.yul\":16823:16877   */\n      and\n        /* \"#utility.yul\":16812:16877   */\n      swap1\n      pop\n        /* \"#utility.yul\":16757:16883   */\n      swap2\n      swap1\n      pop\n      jump\t// out\n        /* \"#utility.yul\":16889:16966   */\n    tag_385:\n        /* \"#utility.yul\":16926:16933   */\n      0x00\n        /* \"#utility.yul\":16955:16960   */\n      dup2\n        /* \"#utility.yul\":16944:16960   */\n      swap1\n      pop\n        /* \"#utility.yul\":16889:16966   */\n      swap2\n      swap1\n      pop\n      jump\t// out\n        /* \"#utility.yul\":16972:17101   */\n    tag_315:\n        /* \"#utility.yul\":17029:17038   */\n      0x00\n        /* \"#utility.yul\":17062:17095   */\n      tag_466\n        /* \"#utility.yul\":17089:17094   */\n      dup3\n        /* \"#utility.yul\":17062:17095   */\n      tag_459\n      jump\t// in\n    tag_466:\n        /* \"#utility.yul\":17049:17095   */\n      swap1\n      pop\n        /* \"#utility.yul\":16972:17101   */\n      swap2\n      swap1\n      pop\n      jump\t// out\n        /* \"#utility.yul\":17107:17414   */\n    tag_323:\n        /* \"#utility.yul\":17175:17176   */\n      0x00\n        /* \"#utility.yul\":17185:17298   */\n    tag_468:\n        /* \"#utility.yul\":17199:17205   */\n      dup4\n        /* \"#utility.yul\":17196:17197   */\n      dup2\n        /* \"#utility.yul\":17193:17206   */\n      lt\n        /* \"#utility.yul\":17185:17298   */\n      iszero\n      tag_470\n      jumpi\n        /* \"#utility.yul\":17284:17285   */\n      dup1\n        /* \"#utility.yul\":17279:17282   */\n      dup3\n        /* \"#utility.yul\":17275:17286   */\n      add\n        /* \"#utility.yul\":17269:17287   */\n      mload\n        /* \"#utility.yul\":17265:17266   */\n      dup2\n        /* \"#utility.yul\":17260:17263   */\n      dup5\n        /* \"#utility.yul\":17256:17267   */\n      add\n        /* \"#utility.yul\":17249:17288   */\n      mstore\n        /* \"#utility.yul\":17221:17223   */\n      0x20\n        /* \"#utility.yul\":17218:17219   */\n      dup2\n        /* \"#utility.yul\":17214:17224   */\n      add\n        /* \"#utility.yul\":17209:17224   */\n      swap1\n      pop\n        /* \"#utility.yul\":17185:17298   */\n      jump(tag_468)\n    tag_470:\n        /* \"#utility.yul\":17316:17322   */\n      dup4\n        /* \"#utility.yul\":17313:17314   */\n      dup2\n        /* \"#utility.yul\":17310:17323   */\n      gt\n        /* \"#utility.yul\":17307:17408   */\n      iszero\n      tag_471\n      jumpi\n        /* \"#utility.yul\":17396:17397   */\n      0x00\n        /* \"#utility.yul\":17387:17393   */\n      dup5\n        /* \"#utility.yul\":17382:17385   */\n      dup5\n        /* \"#utility.yul\":17378:17394   */\n      add\n        /* \"#utility.yul\":17371:17398   */\n      mstore\n        /* \"#utility.yul\":17307:17408   */\n    tag_471:\n        /* \"#utility.yul\":17156:17414   */\n      pop\n        /* \"#utility.yul\":17107:17414   */\n      pop\n      pop\n      pop\n      jump\t// out\n        /* \"#utility.yul\":17420:17740   */\n    tag_161:\n        /* \"#utility.yul\":17464:17470   */\n      0x00\n        /* \"#utility.yul\":17501:17502   */\n      0x02\n        /* \"#utility.yul\":17495:17499   */\n      dup3\n        /* \"#utility.yul\":17491:17503   */\n      div\n        /* \"#utility.yul\":17481:17503   */\n      swap1\n      pop\n        /* \"#utility.yul\":17548:17549   */\n      0x01\n        /* \"#utility.yul\":17542:17546   */\n      dup3\n        /* \"#utility.yul\":17538:17550   */\n      and\n        /* \"#utility.yul\":17569:17587   */\n      dup1\n        /* \"#utility.yul\":17559:17640   */\n      tag_473\n      jumpi\n        /* \"#utility.yul\":17625:17629   */\n      0x7f\n        /* \"#utility.yul\":17617:17623   */\n      dup3\n        /* \"#utility.yul\":17613:17630   */\n      and\n        /* \"#utility.yul\":17603:17630   */\n      swap2\n      pop\n        /* \"#utility.yul\":17559:17640   */\n    tag_473:\n        /* \"#utility.yul\":17687:17689   */\n      0x20\n        /* \"#utility.yul\":17679:17685   */\n      dup3\n        /* \"#utility.yul\":17676:17690   */\n      lt\n        /* \"#utility.yul\":17656:17674   */\n      dup2\n        /* \"#utility.yul\":17653:17691   */\n      eq\n        /* \"#utility.yul\":17650:17734   */\n      iszero\n      tag_474\n      jumpi\n        /* \"#utility.yul\":17706:17724   */\n      tag_475\n      tag_476\n      jump\t// in\n    tag_475:\n        /* \"#utility.yul\":17650:17734   */\n    tag_474:\n        /* \"#utility.yul\":17471:17740   */\n      pop\n        /* \"#utility.yul\":17420:17740   */\n      swap2\n      swap1\n      pop\n      jump\t// out\n        /* \"#utility.yul\":17746:17825   */\n    tag_390:\n        /* \"#utility.yul\":17785:17792   */\n      0x00\n        /* \"#utility.yul\":17814:17819   */\n      dup2\n        /* \"#utility.yul\":17803:17819   */\n      swap1\n      pop\n        /* \"#utility.yul\":17746:17825   */\n      swap2\n      swap1\n      pop\n      jump\t// out\n        /* \"#utility.yul\":17831:18011   */\n    tag_442:\n        /* \"#utility.yul\":17879:17956   */\n      0x4e487b7100000000000000000000000000000000000000000000000000000000\n        /* \"#utility.yul\":17876:17877   */\n      0x00\n        /* \"#utility.yul\":17869:17957   */\n      mstore\n        /* \"#utility.yul\":17976:17980   */\n      0x11\n        /* \"#utility.yul\":17973:17974   */\n      0x04\n        /* \"#utility.yul\":17966:17981   */\n      mstore\n        /* \"#utility.yul\":18000:18004   */\n      0x24\n        /* \"#utility.yul\":17997:17998   */\n      0x00\n        /* \"#utility.yul\":17990:18005   */\n      revert\n        /* \"#utility.yul\":18017:18197   */\n    tag_159:\n        /* \"#utility.yul\":18065:18142   */\n      0x4e487b7100000000000000000000000000000000000000000000000000000000\n        /* \"#utility.yul\":18062:18063   */\n      0x00\n        /* \"#utility.yul\":18055:18143   */\n      mstore\n        /* \"#utility.yul\":18162:18166   */\n      0x21\n        /* \"#utility.yul\":18159:18160   */\n      0x04\n        /* \"#utility.yul\":18152:18167   */\n      mstore\n        /* \"#utility.yul\":18186:18190   */\n      0x24\n        /* \"#utility.yul\":18183:18184   */\n      0x00\n        /* \"#utility.yul\":18176:18191   */\n      revert\n        /* \"#utility.yul\":18203:18383   */\n    tag_476:\n        /* \"#utility.yul\":18251:18328   */\n      0x4e487b7100000000000000000000000000000000000000000000000000000000\n        /* \"#utility.yul\":18248:18249   */\n      0x00\n        /* \"#utility.yul\":18241:18329   */\n      mstore\n        /* \"#utility.yul\":18348:18352   */\n      0x22\n        /* \"#utility.yul\":18345:18346   */\n      0x04\n        /* \"#utility.yul\":18338:18353   */\n      mstore\n        /* \"#utility.yul\":18372:18376   */\n      0x24\n        /* \"#utility.yul\":18369:18370   */\n      0x00\n        /* \"#utility.yul\":18362:18377   */\n      revert\n        /* \"#utility.yul\":18512:18629   */\n    tag_278:\n        /* \"#utility.yul\":18621:18622   */\n      0x00\n        /* \"#utility.yul\":18618:18619   */\n      dup1\n        /* \"#utility.yul\":18611:18623   */\n      revert\n        /* \"#utility.yul\":18635:18737   */\n    tag_325:\n        /* \"#utility.yul\":18676:18682   */\n      0x00\n        /* \"#utility.yul\":18727:18729   */\n      0x1f\n        /* \"#utility.yul\":18723:18730   */\n      not\n        /* \"#utility.yul\":18718:18720   */\n      0x1f\n        /* \"#utility.yul\":18711:18716   */\n      dup4\n        /* \"#utility.yul\":18707:18721   */\n      add\n        /* \"#utility.yul\":18703:18731   */\n      and\n        /* \"#utility.yul\":18693:18731   */\n      swap1\n      pop\n        /* \"#utility.yul\":18635:18737   */\n      swap2\n      swap1\n      pop\n      jump\t// out\n        /* \"#utility.yul\":18743:18978   */\n    tag_336:\n        /* \"#utility.yul\":18883:18917   */\n      0x546f6b656e2076616c75652069732067726561746572207468616e2074686520\n        /* \"#utility.yul\":18879:18880   */\n      0x00\n        /* \"#utility.yul\":18871:18877   */\n      dup3\n        /* \"#utility.yul\":18867:18881   */\n      add\n        /* \"#utility.yul\":18860:18918   */\n      mstore\n        /* \"#utility.yul\":18952:18970   */\n      0x617070726f7665642062616c616e636500000000000000000000000000000000\n        /* \"#utility.yul\":18947:18949   */\n      0x20\n        /* \"#utility.yul\":18939:18945   */\n      dup3\n        /* \"#utility.yul\":18935:18950   */\n      add\n        /* \"#utility.yul\":18928:18971   */\n      mstore\n        /* \"#utility.yul\":18743:18978   */\n      pop\n      jump\t// out\n        /* \"#utility.yul\":18984:19205   */\n    tag_341:\n        /* \"#utility.yul\":19124:19158   */\n      0x546f6b656e2076616c7565206d7573742062652067726561746572207468616e\n        /* \"#utility.yul\":19120:19121   */\n      0x00\n        /* \"#utility.yul\":19112:19118   */\n      dup3\n        /* \"#utility.yul\":19108:19122   */\n      add\n        /* \"#utility.yul\":19101:19159   */\n      mstore\n        /* \"#utility.yul\":19193:19197   */\n      0x2030000000000000000000000000000000000000000000000000000000000000\n        /* \"#utility.yul\":19188:19190   */\n      0x20\n        /* \"#utility.yul\":19180:19186   */\n      dup3\n        /* \"#utility.yul\":19176:19191   */\n      add\n        /* \"#utility.yul\":19169:19198   */\n      mstore\n        /* \"#utility.yul\":18984:19205   */\n      pop\n      jump\t// out\n        /* \"#utility.yul\":19211:19393   */\n    tag_346:\n        /* \"#utility.yul\":19351:19385   */\n      0x416d6f756e74206d7573742062652067726561746572207468616e207a65726f\n        /* \"#utility.yul\":19347:19348   */\n      0x00\n        /* \"#utility.yul\":19339:19345   */\n      dup3\n        /* \"#utility.yul\":19335:19349   */\n      add\n        /* \"#utility.yul\":19328:19386   */\n      mstore\n        /* \"#utility.yul\":19211:19393   */\n      pop\n      jump\t// out\n        /* \"#utility.yul\":19399:19580   */\n    tag_351:\n        /* \"#utility.yul\":19539:19572   */\n      0x416d6f756e742063616e6e6f74206e6f74206265206c6f776572207468616e00\n        /* \"#utility.yul\":19535:19536   */\n      0x00\n        /* \"#utility.yul\":19527:19533   */\n      dup3\n        /* \"#utility.yul\":19523:19537   */\n      add\n        /* \"#utility.yul\":19516:19573   */\n      mstore\n        /* \"#utility.yul\":19399:19580   */\n      pop\n      jump\t// out\n        /* \"#utility.yul\":19586:19807   */\n    tag_356:\n        /* \"#utility.yul\":19726:19760   */\n      0x4163636573732064656e6965642c20796f75206165206e6f7420616e2061646d\n        /* \"#utility.yul\":19722:19723   */\n      0x00\n        /* \"#utility.yul\":19714:19720   */\n      dup3\n        /* \"#utility.yul\":19710:19724   */\n      add\n        /* \"#utility.yul\":19703:19761   */\n      mstore\n        /* \"#utility.yul\":19795:19799   */\n      0x696e000000000000000000000000000000000000000000000000000000000000\n        /* \"#utility.yul\":19790:19792   */\n      0x20\n        /* \"#utility.yul\":19782:19788   */\n      dup3\n        /* \"#utility.yul\":19778:19793   */\n      add\n        /* \"#utility.yul\":19771:19800   */\n      mstore\n        /* \"#utility.yul\":19586:19807   */\n      pop\n      jump\t// out\n        /* \"#utility.yul\":19813:20048   */\n    tag_361:\n        /* \"#utility.yul\":19953:19987   */\n      0x546f6b656e2076616c75652069732067726561746572207468616e20796f7572\n        /* \"#utility.yul\":19949:19950   */\n      0x00\n        /* \"#utility.yul\":19941:19947   */\n      dup3\n        /* \"#utility.yul\":19937:19951   */\n      add\n        /* \"#utility.yul\":19930:19988   */\n      mstore\n        /* \"#utility.yul\":20022:20040   */\n      0x2063757272656e7420686f6c64696e6700000000000000000000000000000000\n        /* \"#utility.yul\":20017:20019   */\n      0x20\n        /* \"#utility.yul\":20009:20015   */\n      dup3\n        /* \"#utility.yul\":20005:20020   */\n      add\n        /* \"#utility.yul\":19998:20041   */\n      mstore\n        /* \"#utility.yul\":19813:20048   */\n      pop\n      jump\t// out\n        /* \"#utility.yul\":20054:20289   */\n    tag_366:\n        /* \"#utility.yul\":20194:20228   */\n      0x546865206d6178696d756d20616d6f756e7420746f2062652072616973656420\n        /* \"#utility.yul\":20190:20191   */\n      0x00\n        /* \"#utility.yul\":20182:20188   */\n      dup3\n        /* \"#utility.yul\":20178:20192   */\n      add\n        /* \"#utility.yul\":20171:20229   */\n      mstore\n        /* \"#utility.yul\":20263:20281   */\n      0x686173206265656e207265616368656400000000000000000000000000000000\n        /* \"#utility.yul\":20258:20260   */\n      0x20\n        /* \"#utility.yul\":20250:20256   */\n      dup3\n        /* \"#utility.yul\":20246:20261   */\n      add\n        /* \"#utility.yul\":20239:20282   */\n      mstore\n        /* \"#utility.yul\":20054:20289   */\n      pop\n      jump\t// out\n        /* \"#utility.yul\":20295:20515   */\n    tag_371:\n        /* \"#utility.yul\":20435:20469   */\n      0x416d6f756e742063616e6e6f74206e6f74206265206869676768657220746861\n        /* \"#utility.yul\":20431:20432   */\n      0x00\n        /* \"#utility.yul\":20423:20429   */\n      dup3\n        /* \"#utility.yul\":20419:20433   */\n      add\n        /* \"#utility.yul\":20412:20470   */\n      mstore\n        /* \"#utility.yul\":20504:20507   */\n      0x6e00000000000000000000000000000000000000000000000000000000000000\n        /* \"#utility.yul\":20499:20501   */\n      0x20\n        /* \"#utility.yul\":20491:20497   */\n      dup3\n        /* \"#utility.yul\":20487:20502   */\n      add\n        /* \"#utility.yul\":20480:20508   */\n      mstore\n        /* \"#utility.yul\":20295:20515   */\n      pop\n      jump\t// out\n        /* \"#utility.yul\":20521:20699   */\n    tag_376:\n        /* \"#utility.yul\":20661:20691   */\n      0x496e73756666696369656e74204163636f756e742042616c616e636500000000\n        /* \"#utility.yul\":20657:20658   */\n      0x00\n        /* \"#utility.yul\":20649:20655   */\n      dup3\n        /* \"#utility.yul\":20645:20659   */\n      add\n        /* \"#utility.yul\":20638:20692   */\n      mstore\n        /* \"#utility.yul\":20521:20699   */\n      pop\n      jump\t// out\n        /* \"#utility.yul\":20705:20873   */\n    tag_381:\n        /* \"#utility.yul\":20845:20865   */\n      0x496e737566696369656e742042616c6e63650000000000000000000000000000\n        /* \"#utility.yul\":20841:20842   */\n      0x00\n        /* \"#utility.yul\":20833:20839   */\n      dup3\n        /* \"#utility.yul\":20829:20843   */\n      add\n        /* \"#utility.yul\":20822:20866   */\n      mstore\n        /* \"#utility.yul\":20705:20873   */\n      pop\n      jump\t// out\n        /* \"#utility.yul\":20879:20993   */\n    tag_462:\n        /* \"#utility.yul\":20961:20962   */\n      0x05\n        /* \"#utility.yul\":20954:20959   */\n      dup2\n        /* \"#utility.yul\":20951:20963   */\n      lt\n        /* \"#utility.yul\":20941:20987   */\n      tag_496\n      jumpi\n        /* \"#utility.yul\":20967:20985   */\n      tag_497\n      tag_159\n      jump\t// in\n    tag_497:\n        /* \"#utility.yul\":20941:20987   */\n    tag_496:\n        /* \"#utility.yul\":20879:20993   */\n      pop\n      jump\t// out\n        /* \"#utility.yul\":20999:21121   */\n    tag_266:\n        /* \"#utility.yul\":21072:21096   */\n      tag_499\n        /* \"#utility.yul\":21090:21095   */\n      dup2\n        /* \"#utility.yul\":21072:21096   */\n      tag_307\n      jump\t// in\n    tag_499:\n        /* \"#utility.yul\":21065:21070   */\n      dup2\n        /* \"#utility.yul\":21062:21097   */\n      eq\n        /* \"#utility.yul\":21052:21115   */\n      tag_500\n      jumpi\n        /* \"#utility.yul\":21111:21112   */\n      0x00\n        /* \"#utility.yul\":21108:21109   */\n      dup1\n        /* \"#utility.yul\":21101:21113   */\n      revert\n        /* \"#utility.yul\":21052:21115   */\n    tag_500:\n        /* \"#utility.yul\":20999:21121   */\n      pop\n      jump\t// out\n        /* \"#utility.yul\":21127:21265   */\n    tag_270:\n        /* \"#utility.yul\":21208:21240   */\n      tag_502\n        /* \"#utility.yul\":21234:21239   */\n      dup2\n        /* \"#utility.yul\":21208:21240   */\n      tag_303\n      jump\t// in\n    tag_502:\n        /* \"#utility.yul\":21201:21206   */\n      dup2\n        /* \"#utility.yul\":21198:21241   */\n      eq\n        /* \"#utility.yul\":21188:21259   */\n      tag_503\n      jumpi\n        /* \"#utility.yul\":21255:21256   */\n      0x00\n        /* \"#utility.yul\":21252:21253   */\n      dup1\n        /* \"#utility.yul\":21245:21257   */\n      revert\n        /* \"#utility.yul\":21188:21259   */\n    tag_503:\n        /* \"#utility.yul\":21127:21265   */\n      pop\n      jump\t// out\n        /* \"#utility.yul\":21271:21393   */\n    tag_274:\n        /* \"#utility.yul\":21344:21368   */\n      tag_505\n        /* \"#utility.yul\":21362:21367   */\n      dup2\n        /* \"#utility.yul\":21344:21368   */\n      tag_385\n      jump\t// in\n    tag_505:\n        /* \"#utility.yul\":21337:21342   */\n      dup2\n        /* \"#utility.yul\":21334:21369   */\n      eq\n        /* \"#utility.yul\":21324:21387   */\n      tag_506\n      jumpi\n        /* \"#utility.yul\":21383:21384   */\n      0x00\n        /* \"#utility.yul\":21380:21381   */\n      dup1\n        /* \"#utility.yul\":21373:21385   */\n      revert\n        /* \"#utility.yul\":21324:21387   */\n    tag_506:\n        /* \"#utility.yul\":21271:21393   */\n      pop\n      jump\t// out\n\n    auxdata: 0xa26469706673582212209927e72908f2b29e8db4001a96e9ee7cb0fe43687cd5d54f7227d493a4e9182e64736f6c63430008070033\n}\n",
				"bytecode": {
					"linkReferences": {},
					"object": "60806040526040518060400160405280600681526020017f5a494c4c4158000000000000000000000000000000000000000000000000000081525060009080519060200190620000519291906200028c565b506040518060400160405280600381526020017f5a4c5a0000000000000000000000000000000000000000000000000000000000815250600190805190602001906200009f9291906200028c565b50600060025566038d7ea4c68000600855674563918244f40000600a5542600b5567016345785d8a0000600d55670de0b6b3a7640000600e55348015620000e557600080fd5b506040516200277e3803806200277e83398181016040528101906200010b91906200036a565b620f424060048190555033600360006101000a81548173ffffffffffffffffffffffffffffffffffffffff021916908373ffffffffffffffffffffffffffffffffffffffff16021790555060045460056000600360009054906101000a900473ffffffffffffffffffffffffffffffffffffffff1673ffffffffffffffffffffffffffffffffffffffff1673ffffffffffffffffffffffffffffffffffffffff168152602001908152602001600020819055506000600f60006101000a81548160ff02191690836004811115620001e757620001e6620004b1565b5b021790555033600760006101000a81548173ffffffffffffffffffffffffffffffffffffffff021916908373ffffffffffffffffffffffffffffffffffffffff16021790555081600b546200023d9190620003b1565b600c8190555080600f60016101000a81548173ffffffffffffffffffffffffffffffffffffffff021916908373ffffffffffffffffffffffffffffffffffffffff160217905550505062000548565b8280546200029a906200044c565b90600052602060002090601f016020900481019282620002be57600085556200030a565b82601f10620002d957805160ff19168380011785556200030a565b828001600101855582156200030a579182015b8281111562000309578251825591602001919060010190620002ec565b5b5090506200031991906200031d565b5090565b5b80821115620003385760008160009055506001016200031e565b5090565b6000815190506200034d8162000514565b92915050565b60008151905062000364816200052e565b92915050565b600080604083850312156200038457620003836200050f565b5b6000620003948582860162000353565b9250506020620003a7858286016200033c565b9150509250929050565b6000620003be8262000442565b9150620003cb8362000442565b9250827fffffffffffffffffffffffffffffffffffffffffffffffffffffffffffffffff0382111562000403576200040262000482565b5b828201905092915050565b60006200041b8262000422565b9050919050565b600073ffffffffffffffffffffffffffffffffffffffff82169050919050565b6000819050919050565b600060028204905060018216806200046557607f821691505b602082108114156200047c576200047b620004e0565b5b50919050565b7f4e487b7100000000000000000000000000000000000000000000000000000000600052601160045260246000fd5b7f4e487b7100000000000000000000000000000000000000000000000000000000600052602160045260246000fd5b7f4e487b7100000000000000000000000000000000000000000000000000000000600052602260045260246000fd5b600080fd5b6200051f816200040e565b81146200052b57600080fd5b50565b620005398162000442565b81146200054557600080fd5b50565b61222680620005586000396000f3fe6080604052600436106101815760003560e01c80635ed7ca5b116100d1578063a9bcea611161008a578063dd62ed3e11610064578063dd62ed3e1461057a578063e8b5e51f146105b7578063f851a440146105d5578063fb86a4041461060057610181565b8063a9bcea61146104f9578063bb0c829814610524578063c59ee1dc1461054f57610181565b80635ed7ca5b146103e95780636d58c88f1461040057806370a082311461042957806378e979251461046657806395d89b4114610491578063a9059cbb146104bc57610181565b806328f833b71161013e5780633197cbb6116101185780633197cbb61461032b57806344f38756146103565780634d853ee5146103815780635c658165146103ac57610181565b806328f833b7146102aa5780632942b61a146102d5578063313ce5671461030057610181565b8063046f7da21461018657806306fdde031461019d578063095ea7b3146101c857806318160ddd1461020557806323b872dd1461023057806327e235e31461026d575b600080fd5b34801561019257600080fd5b5061019b61062b565b005b3480156101a957600080fd5b506101b26106e8565b6040516101bf9190611b40565b60405180910390f35b3480156101d457600080fd5b506101ef60048036038101906101ea91906117c3565b610776565b6040516101fc9190611b0a565b60405180910390f35b34801561021157600080fd5b5061021a61092d565b6040516102279190611c62565b60405180910390f35b34801561023c57600080fd5b5061025760048036038101906102529190611770565b610933565b6040516102649190611b0a565b60405180910390f35b34801561027957600080fd5b50610294600480360381019061028f91906116d6565b610c68565b6040516102a19190611c62565b60405180910390f35b3480156102b657600080fd5b506102bf610c80565b6040516102cc9190611ab8565b60405180910390f35b3480156102e157600080fd5b506102ea610ca6565b6040516102f79190611b25565b60405180910390f35b34801561030c57600080fd5b50610315610d2f565b6040516103229190611c62565b60405180910390f35b34801561033757600080fd5b50610340610d35565b60405161034d9190611c62565b60405180910390f35b34801561036257600080fd5b5061036b610d3b565b6040516103789190611b25565b60405180910390f35b34801561038d57600080fd5b50610396610d4e565b6040516103a39190611a9d565b60405180910390f35b3480156103b857600080fd5b506103d360048036038101906103ce9190611730565b610d74565b6040516103e09190611c62565b60405180910390f35b3480156103f557600080fd5b506103fe610d99565b005b34801561040c57600080fd5b5061042760048036038101906104229190611703565b610e56565b005b34801561043557600080fd5b50610450600480360381019061044b91906116d6565b610f2a565b60405161045d9190611c62565b60405180910390f35b34801561047257600080fd5b5061047b610f73565b6040516104889190611c62565b60405180910390f35b34801561049d57600080fd5b506104a6610f79565b6040516104b39190611b40565b60405180910390f35b3480156104c857600080fd5b506104e360048036038101906104de91906117c3565b611007565b6040516104f09190611b0a565b60405180910390f35b34801561050557600080fd5b5061050e6111a6565b60405161051b9190611c62565b60405180910390f35b34801561053057600080fd5b506105396111ac565b6040516105469190611c62565b60405180910390f35b34801561055b57600080fd5b506105646111b2565b6040516105719190611c62565b60405180910390f35b34801561058657600080fd5b506105a1600480360381019061059c9190611730565b6111b8565b6040516105ae9190611c62565b60405180910390f35b6105bf61123f565b6040516105cc9190611b0a565b60405180910390f35b3480156105e157600080fd5b506105ea61166b565b6040516105f79190611a9d565b60405180910390f35b34801561060c57600080fd5b50610615611691565b6040516106229190611c62565b60405180910390f35b600760009054906101000a900473ffffffffffffffffffffffffffffffffffffffff1673ffffffffffffffffffffffffffffffffffffffff163373ffffffffffffffffffffffffffffffffffffffff16146106bb576040517f08c379a00000000000000000000000000000000000000000000000000000000081526004016106b290611bc2565b60405180910390fd5b6001600f60006101000a81548160ff021916908360048111156106e1576106e0611ea5565b5b0217905550565b600080546106f590611e3a565b80601f016020809104026020016040519081016040528092919081815260200182805461072190611e3a565b801561076e5780601f106107435761010080835404028352916020019161076e565b820191906000526020600020905b81548152906001019060200180831161075157829003601f168201915b505050505081565b600081600560003373ffffffffffffffffffffffffffffffffffffffff1673ffffffffffffffffffffffffffffffffffffffff1681526020019081526020016000205410156107fa576040517f08c379a00000000000000000000000000000000000000000000000000000000081526004016107f190611be2565b60405180910390fd5b6000821161083d576040517f08c379a000000000000000000000000000000000000000000000000000000000815260040161083490611b82565b60405180910390fd5b81600660003373ffffffffffffffffffffffffffffffffffffffff1673ffffffffffffffffffffffffffffffffffffffff16815260200190815260200160002060008573ffffffffffffffffffffffffffffffffffffffff1673ffffffffffffffffffffffffffffffffffffffff168152602001908152602001600020819055508273ffffffffffffffffffffffffffffffffffffffff163373ffffffffffffffffffffffffffffffffffffffff167f8c5be1e5ebec7d5bd14f71427d1e84f3dd0314c0f7b2291e5b200ac8c7c3b9258460405161091b9190611c62565b60405180910390a36001905092915050565b60045481565b600081600660008673ffffffffffffffffffffffffffffffffffffffff1673ffffffffffffffffffffffffffffffffffffffff16815260200190815260200160002060003373ffffffffffffffffffffffffffffffffffffffff1673ffffffffffffffffffffffffffffffffffffffff1681526020019081526020016000205410156109f4576040517f08c379a00000000000000000000000000000000000000000000000000000000081526004016109eb90611b62565b60405180910390fd5b81600560008673ffffffffffffffffffffffffffffffffffffffff1673ffffffffffffffffffffffffffffffffffffffff168152602001908152602001600020541015610a76576040517f08c379a0000000000000000000000000000000000000000000000000000000008152600401610a6d90611c42565b60405180910390fd5b60008211610ab9576040517f08c379a0000000000000000000000000000000000000000000000000000000008152600401610ab090611b82565b60405180910390fd5b81600660008673ffffffffffffffffffffffffffffffffffffffff1673ffffffffffffffffffffffffffffffffffffffff16815260200190815260200160002060003373ffffffffffffffffffffffffffffffffffffffff1673ffffffffffffffffffffffffffffffffffffffff1681526020019081526020016000206000828254610b459190611d54565b9250508190555081600560008673ffffffffffffffffffffffffffffffffffffffff1673ffffffffffffffffffffffffffffffffffffffff1681526020019081526020016000206000828254610b9b9190611d54565b9250508190555081600560008573ffffffffffffffffffffffffffffffffffffffff1673ffffffffffffffffffffffffffffffffffffffff1681526020019081526020016000206000828254610bf19190611ca4565b925050819055508273ffffffffffffffffffffffffffffffffffffffff168473ffffffffffffffffffffffffffffffffffffffff167fddf252ad1be2c89b69c2b068fc378daa952ba7f163c4a11628f55a4df523b3ef84604051610c559190611c62565b60405180910390a3600190509392505050565b60056020528060005260406000206000915090505481565b600f60019054906101000a900473ffffffffffffffffffffffffffffffffffffffff1681565b600080600480811115610cbc57610cbb611ea5565b5b600f60009054906101000a900460ff166004811115610cde57610cdd611ea5565b5b1415610ced5760049050610d28565b600b54421015610d005760009050610d27565b600b544210158015610d135750600c5442105b15610d215760019050610d26565b600390505b5b5b8091505090565b60025481565b600c5481565b600f60009054906101000a900460ff1681565b600360009054906101000a900473ffffffffffffffffffffffffffffffffffffffff1681565b6006602052816000526040600020602052806000526040600020600091509150505481565b600760009054906101000a900473ffffffffffffffffffffffffffffffffffffffff1673ffffffffffffffffffffffffffffffffffffffff163373ffffffffffffffffffffffffffffffffffffffff1614610e29576040517f08c379a0000000000000000000000000000000000000000000000000000000008152600401610e2090611bc2565b60405180910390fd5b6004600f60006101000a81548160ff02191690836004811115610e4f57610e4e611ea5565b5b0217905550565b600760009054906101000a900473ffffffffffffffffffffffffffffffffffffffff1673ffffffffffffffffffffffffffffffffffffffff163373ffffffffffffffffffffffffffffffffffffffff1614610ee6576040517f08c379a0000000000000000000000000000000000000000000000000000000008152600401610edd90611bc2565b60405180910390fd5b80600f60016101000a81548173ffffffffffffffffffffffffffffffffffffffff021916908373ffffffffffffffffffffffffffffffffffffffff16021790555050565b6000600560008373ffffffffffffffffffffffffffffffffffffffff1673ffffffffffffffffffffffffffffffffffffffff168152602001908152602001600020549050919050565b600b5481565b60018054610f8690611e3a565b80601f0160208091040260200160405190810160405280929190818152602001828054610fb290611e3a565b8015610fff5780601f10610fd457610100808354040283529160200191610fff565b820191906000526020600020905b815481529060010190602001808311610fe257829003601f168201915b505050505081565b600081600560003373ffffffffffffffffffffffffffffffffffffffff1673ffffffffffffffffffffffffffffffffffffffff16815260200190815260200160002054101561108b576040517f08c379a000000000000000000000000000000000000000000000000000000000815260040161108290611c22565b60405180910390fd5b81600560008573ffffffffffffffffffffffffffffffffffffffff1673ffffffffffffffffffffffffffffffffffffffff16815260200190815260200160002060008282546110da9190611ca4565b9250508190555081600560003373ffffffffffffffffffffffffffffffffffffffff1673ffffffffffffffffffffffffffffffffffffffff16815260200190815260200160002060008282546111309190611d54565b925050819055508273ffffffffffffffffffffffffffffffffffffffff163373ffffffffffffffffffffffffffffffffffffffff167fddf252ad1be2c89b69c2b068fc378daa952ba7f163c4a11628f55a4df523b3ef846040516111949190611c62565b60405180910390a36001905092915050565b600e5481565b600d5481565b60095481565b6000600660008473ffffffffffffffffffffffffffffffffffffffff1673ffffffffffffffffffffffffffffffffffffffff16815260200190815260200160002060008373ffffffffffffffffffffffffffffffffffffffff1673ffffffffffffffffffffffffffffffffffffffff16815260200190815260200160002054905092915050565b6000600760009054906101000a900473ffffffffffffffffffffffffffffffffffffffff1673ffffffffffffffffffffffffffffffffffffffff163373ffffffffffffffffffffffffffffffffffffffff16146112d1576040517f08c379a00000000000000000000000000000000000000000000000000000000081526004016112c890611bc2565b60405180910390fd5b6112d9610ca6565b600f60006101000a81548160ff021916908360048111156112fd576112fc611ea5565b5b02179055506001600481111561131657611315611ea5565b5b600f60009054906101000a900460ff16600481111561133857611337611ea5565b5b14611378576040517f08c379a000000000000000000000000000000000000000000000000000000000815260040161136f90611ba2565b60405180910390fd5b600034116113bb576040517f08c379a00000000000000000000000000000000000000000000000000000000081526004016113b290611ba2565b60405180910390fd5b6000600d546040516020016113d09190611a51565b60405160208183030381529060405290506000600e546040516020016113f69190611a77565b60405160208183030381529060405290506000828260405160200161141c929190611a2d565b6040516020818303038152906040529050600d5434101580156114415750600e543411155b8190611483576040517f08c379a000000000000000000000000000000000000000000000000000000000815260040161147a9190611b40565b60405180910390fd5b506000346009546114949190611ca4565b9050600a548111156114db576040517f08c379a00000000000000000000000000000000000000000000000000000000081526004016114d290611c02565b60405180910390fd5b6000600854346114eb9190611cfa565b905080600560003373ffffffffffffffffffffffffffffffffffffffff1673ffffffffffffffffffffffffffffffffffffffff168152602001908152602001600020600082825461153c9190611ca4565b925050819055508060056000600360009054906101000a900473ffffffffffffffffffffffffffffffffffffffff1673ffffffffffffffffffffffffffffffffffffffff1673ffffffffffffffffffffffffffffffffffffffff16815260200190815260200160002060008282546115b49190611d54565b92505081905550600f60019054906101000a900473ffffffffffffffffffffffffffffffffffffffff1673ffffffffffffffffffffffffffffffffffffffff166108fc349081150290604051600060405180830381858888f19350505050158015611623573d6000803e3d6000fd5b507f4ae4bd7655e0d350876a23cd90c4227b13db560e34435c6a488150a9c844bf5f33348360405161165793929190611ad3565b60405180910390a160019550505050505090565b600760009054906101000a900473ffffffffffffffffffffffffffffffffffffffff1681565b600a5481565b6000813590506116a6816121ab565b92915050565b6000813590506116bb816121c2565b92915050565b6000813590506116d0816121d9565b92915050565b6000602082840312156116ec576116eb611f03565b5b60006116fa84828501611697565b91505092915050565b60006020828403121561171957611718611f03565b5b6000611727848285016116ac565b91505092915050565b6000806040838503121561174757611746611f03565b5b600061175585828601611697565b925050602061176685828601611697565b9150509250929050565b60008060006060848603121561178957611788611f03565b5b600061179786828701611697565b93505060206117a886828701611697565b92505060406117b9868287016116c1565b9150509250925092565b600080604083850312156117da576117d9611f03565b5b60006117e885828601611697565b92505060206117f9858286016116c1565b9150509250929050565b61180c81611d9a565b82525050565b61181b81611d88565b82525050565b61182a81611dac565b82525050565b61183981611df5565b82525050565b600061184a82611c7d565b6118548185611c88565b9350611864818560208601611e07565b61186d81611f08565b840191505092915050565b600061188382611c7d565b61188d8185611c99565b935061189d818560208601611e07565b80840191505092915050565b60006118b6603083611c88565b91506118c182611f19565b604082019050919050565b60006118d9602283611c88565b91506118e482611f68565b604082019050919050565b60006118fc602083611c88565b915061190782611fb7565b602082019050919050565b600061191f601f83611c99565b915061192a82611fe0565b601f82019050919050565b6000611942602283611c88565b915061194d82612009565b604082019050919050565b6000611965603083611c88565b915061197082612058565b604082019050919050565b6000611988603083611c88565b9150611993826120a7565b604082019050919050565b60006119ab602183611c99565b91506119b6826120f6565b602182019050919050565b60006119ce601c83611c88565b91506119d982612145565b602082019050919050565b60006119f1601283611c88565b91506119fc8261216e565b602082019050919050565b611a1081611deb565b82525050565b611a27611a2282611deb565b611e6c565b82525050565b6000611a398285611878565b9150611a458284611878565b91508190509392505050565b6000611a5c82611912565b9150611a688284611a16565b60208201915081905092915050565b6000611a828261199e565b9150611a8e8284611a16565b60208201915081905092915050565b6000602082019050611ab26000830184611812565b92915050565b6000602082019050611acd6000830184611803565b92915050565b6000606082019050611ae86000830186611812565b611af56020830185611a07565b611b026040830184611a07565b949350505050565b6000602082019050611b1f6000830184611821565b92915050565b6000602082019050611b3a6000830184611830565b92915050565b60006020820190508181036000830152611b5a818461183f565b905092915050565b60006020820190508181036000830152611b7b816118a9565b9050919050565b60006020820190508181036000830152611b9b816118cc565b9050919050565b60006020820190508181036000830152611bbb816118ef565b9050919050565b60006020820190508181036000830152611bdb81611935565b9050919050565b60006020820190508181036000830152611bfb81611958565b9050919050565b60006020820190508181036000830152611c1b8161197b565b9050919050565b60006020820190508181036000830152611c3b816119c1565b9050919050565b60006020820190508181036000830152611c5b816119e4565b9050919050565b6000602082019050611c776000830184611a07565b92915050565b600081519050919050565b600082825260208201905092915050565b600081905092915050565b6000611caf82611deb565b9150611cba83611deb565b9250827fffffffffffffffffffffffffffffffffffffffffffffffffffffffffffffffff03821115611cef57611cee611e76565b5b828201905092915050565b6000611d0582611deb565b9150611d1083611deb565b9250817fffffffffffffffffffffffffffffffffffffffffffffffffffffffffffffffff0483118215151615611d4957611d48611e76565b5b828202905092915050565b6000611d5f82611deb565b9150611d6a83611deb565b925082821015611d7d57611d7c611e76565b5b828203905092915050565b6000611d9382611dcb565b9050919050565b6000611da582611dcb565b9050919050565b60008115159050919050565b6000819050611dc682612197565b919050565b600073ffffffffffffffffffffffffffffffffffffffff82169050919050565b6000819050919050565b6000611e0082611db8565b9050919050565b60005b83811015611e25578082015181840152602081019050611e0a565b83811115611e34576000848401525b50505050565b60006002820490506001821680611e5257607f821691505b60208210811415611e6657611e65611ed4565b5b50919050565b6000819050919050565b7f4e487b7100000000000000000000000000000000000000000000000000000000600052601160045260246000fd5b7f4e487b7100000000000000000000000000000000000000000000000000000000600052602160045260246000fd5b7f4e487b7100000000000000000000000000000000000000000000000000000000600052602260045260246000fd5b600080fd5b6000601f19601f8301169050919050565b7f546f6b656e2076616c75652069732067726561746572207468616e207468652060008201527f617070726f7665642062616c616e636500000000000000000000000000000000602082015250565b7f546f6b656e2076616c7565206d7573742062652067726561746572207468616e60008201527f2030000000000000000000000000000000000000000000000000000000000000602082015250565b7f416d6f756e74206d7573742062652067726561746572207468616e207a65726f600082015250565b7f416d6f756e742063616e6e6f74206e6f74206265206c6f776572207468616e00600082015250565b7f4163636573732064656e6965642c20796f75206165206e6f7420616e2061646d60008201527f696e000000000000000000000000000000000000000000000000000000000000602082015250565b7f546f6b656e2076616c75652069732067726561746572207468616e20796f757260008201527f2063757272656e7420686f6c64696e6700000000000000000000000000000000602082015250565b7f546865206d6178696d756d20616d6f756e7420746f206265207261697365642060008201527f686173206265656e207265616368656400000000000000000000000000000000602082015250565b7f416d6f756e742063616e6e6f74206e6f7420626520686967676865722074686160008201527f6e00000000000000000000000000000000000000000000000000000000000000602082015250565b7f496e73756666696369656e74204163636f756e742042616c616e636500000000600082015250565b7f496e737566696369656e742042616c6e63650000000000000000000000000000600082015250565b600581106121a8576121a7611ea5565b5b50565b6121b481611d88565b81146121bf57600080fd5b50565b6121cb81611d9a565b81146121d657600080fd5b50565b6121e281611deb565b81146121ed57600080fd5b5056fea26469706673582212209927e72908f2b29e8db4001a96e9ee7cb0fe43687cd5d54f7227d493a4e9182e64736f6c63430008070033",
					"opcodes": "PUSH1 0x80 PUSH1 0x40 MSTORE PUSH1 0x40 MLOAD DUP1 PUSH1 0x40 ADD PUSH1 0x40 MSTORE DUP1 PUSH1 0x6 DUP2 MSTORE PUSH1 0x20 ADD PUSH32 0x5A494C4C41580000000000000000000000000000000000000000000000000000 DUP2 MSTORE POP PUSH1 0x0 SWAP1 DUP1 MLOAD SWAP1 PUSH1 0x20 ADD SWAP1 PUSH3 0x51 SWAP3 SWAP2 SWAP1 PUSH3 0x28C JUMP JUMPDEST POP PUSH1 0x40 MLOAD DUP1 PUSH1 0x40 ADD PUSH1 0x40 MSTORE DUP1 PUSH1 0x3 DUP2 MSTORE PUSH1 0x20 ADD PUSH32 0x5A4C5A0000000000000000000000000000000000000000000000000000000000 DUP2 MSTORE POP PUSH1 0x1 SWAP1 DUP1 MLOAD SWAP1 PUSH1 0x20 ADD SWAP1 PUSH3 0x9F SWAP3 SWAP2 SWAP1 PUSH3 0x28C JUMP JUMPDEST POP PUSH1 0x0 PUSH1 0x2 SSTORE PUSH7 0x38D7EA4C68000 PUSH1 0x8 SSTORE PUSH8 0x4563918244F40000 PUSH1 0xA SSTORE TIMESTAMP PUSH1 0xB SSTORE PUSH8 0x16345785D8A0000 PUSH1 0xD SSTORE PUSH8 0xDE0B6B3A7640000 PUSH1 0xE SSTORE CALLVALUE DUP1 ISZERO PUSH3 0xE5 JUMPI PUSH1 0x0 DUP1 REVERT JUMPDEST POP PUSH1 0x40 MLOAD PUSH3 0x277E CODESIZE SUB DUP1 PUSH3 0x277E DUP4 CODECOPY DUP2 DUP2 ADD PUSH1 0x40 MSTORE DUP2 ADD SWAP1 PUSH3 0x10B SWAP2 SWAP1 PUSH3 0x36A JUMP JUMPDEST PUSH3 0xF4240 PUSH1 0x4 DUP2 SWAP1 SSTORE POP CALLER PUSH1 0x3 PUSH1 0x0 PUSH2 0x100 EXP DUP2 SLOAD DUP2 PUSH20 0xFFFFFFFFFFFFFFFFFFFFFFFFFFFFFFFFFFFFFFFF MUL NOT AND SWAP1 DUP4 PUSH20 0xFFFFFFFFFFFFFFFFFFFFFFFFFFFFFFFFFFFFFFFF AND MUL OR SWAP1 SSTORE POP PUSH1 0x4 SLOAD PUSH1 0x5 PUSH1 0x0 PUSH1 0x3 PUSH1 0x0 SWAP1 SLOAD SWAP1 PUSH2 0x100 EXP SWAP1 DIV PUSH20 0xFFFFFFFFFFFFFFFFFFFFFFFFFFFFFFFFFFFFFFFF AND PUSH20 0xFFFFFFFFFFFFFFFFFFFFFFFFFFFFFFFFFFFFFFFF AND PUSH20 0xFFFFFFFFFFFFFFFFFFFFFFFFFFFFFFFFFFFFFFFF AND DUP2 MSTORE PUSH1 0x20 ADD SWAP1 DUP2 MSTORE PUSH1 0x20 ADD PUSH1 0x0 KECCAK256 DUP2 SWAP1 SSTORE POP PUSH1 0x0 PUSH1 0xF PUSH1 0x0 PUSH2 0x100 EXP DUP2 SLOAD DUP2 PUSH1 0xFF MUL NOT AND SWAP1 DUP4 PUSH1 0x4 DUP2 GT ISZERO PUSH3 0x1E7 JUMPI PUSH3 0x1E6 PUSH3 0x4B1 JUMP JUMPDEST JUMPDEST MUL OR SWAP1 SSTORE POP CALLER PUSH1 0x7 PUSH1 0x0 PUSH2 0x100 EXP DUP2 SLOAD DUP2 PUSH20 0xFFFFFFFFFFFFFFFFFFFFFFFFFFFFFFFFFFFFFFFF MUL NOT AND SWAP1 DUP4 PUSH20 0xFFFFFFFFFFFFFFFFFFFFFFFFFFFFFFFFFFFFFFFF AND MUL OR SWAP1 SSTORE POP DUP2 PUSH1 0xB SLOAD PUSH3 0x23D SWAP2 SWAP1 PUSH3 0x3B1 JUMP JUMPDEST PUSH1 0xC DUP2 SWAP1 SSTORE POP DUP1 PUSH1 0xF PUSH1 0x1 PUSH2 0x100 EXP DUP2 SLOAD DUP2 PUSH20 0xFFFFFFFFFFFFFFFFFFFFFFFFFFFFFFFFFFFFFFFF MUL NOT AND SWAP1 DUP4 PUSH20 0xFFFFFFFFFFFFFFFFFFFFFFFFFFFFFFFFFFFFFFFF AND MUL OR SWAP1 SSTORE POP POP POP PUSH3 0x548 JUMP JUMPDEST DUP3 DUP1 SLOAD PUSH3 0x29A SWAP1 PUSH3 0x44C JUMP JUMPDEST SWAP1 PUSH1 0x0 MSTORE PUSH1 0x20 PUSH1 0x0 KECCAK256 SWAP1 PUSH1 0x1F ADD PUSH1 0x20 SWAP1 DIV DUP2 ADD SWAP3 DUP3 PUSH3 0x2BE JUMPI PUSH1 0x0 DUP6 SSTORE PUSH3 0x30A JUMP JUMPDEST DUP3 PUSH1 0x1F LT PUSH3 0x2D9 JUMPI DUP1 MLOAD PUSH1 0xFF NOT AND DUP4 DUP1 ADD OR DUP6 SSTORE PUSH3 0x30A JUMP JUMPDEST DUP3 DUP1 ADD PUSH1 0x1 ADD DUP6 SSTORE DUP3 ISZERO PUSH3 0x30A JUMPI SWAP2 DUP3 ADD JUMPDEST DUP3 DUP2 GT ISZERO PUSH3 0x309 JUMPI DUP3 MLOAD DUP3 SSTORE SWAP2 PUSH1 0x20 ADD SWAP2 SWAP1 PUSH1 0x1 ADD SWAP1 PUSH3 0x2EC JUMP JUMPDEST JUMPDEST POP SWAP1 POP PUSH3 0x319 SWAP2 SWAP1 PUSH3 0x31D JUMP JUMPDEST POP SWAP1 JUMP JUMPDEST JUMPDEST DUP1 DUP3 GT ISZERO PUSH3 0x338 JUMPI PUSH1 0x0 DUP2 PUSH1 0x0 SWAP1 SSTORE POP PUSH1 0x1 ADD PUSH3 0x31E JUMP JUMPDEST POP SWAP1 JUMP JUMPDEST PUSH1 0x0 DUP2 MLOAD SWAP1 POP PUSH3 0x34D DUP2 PUSH3 0x514 JUMP JUMPDEST SWAP3 SWAP2 POP POP JUMP JUMPDEST PUSH1 0x0 DUP2 MLOAD SWAP1 POP PUSH3 0x364 DUP2 PUSH3 0x52E JUMP JUMPDEST SWAP3 SWAP2 POP POP JUMP JUMPDEST PUSH1 0x0 DUP1 PUSH1 0x40 DUP4 DUP6 SUB SLT ISZERO PUSH3 0x384 JUMPI PUSH3 0x383 PUSH3 0x50F JUMP JUMPDEST JUMPDEST PUSH1 0x0 PUSH3 0x394 DUP6 DUP3 DUP7 ADD PUSH3 0x353 JUMP JUMPDEST SWAP3 POP POP PUSH1 0x20 PUSH3 0x3A7 DUP6 DUP3 DUP7 ADD PUSH3 0x33C JUMP JUMPDEST SWAP2 POP POP SWAP3 POP SWAP3 SWAP1 POP JUMP JUMPDEST PUSH1 0x0 PUSH3 0x3BE DUP3 PUSH3 0x442 JUMP JUMPDEST SWAP2 POP PUSH3 0x3CB DUP4 PUSH3 0x442 JUMP JUMPDEST SWAP3 POP DUP3 PUSH32 0xFFFFFFFFFFFFFFFFFFFFFFFFFFFFFFFFFFFFFFFFFFFFFFFFFFFFFFFFFFFFFFFF SUB DUP3 GT ISZERO PUSH3 0x403 JUMPI PUSH3 0x402 PUSH3 0x482 JUMP JUMPDEST JUMPDEST DUP3 DUP3 ADD SWAP1 POP SWAP3 SWAP2 POP POP JUMP JUMPDEST PUSH1 0x0 PUSH3 0x41B DUP3 PUSH3 0x422 JUMP JUMPDEST SWAP1 POP SWAP2 SWAP1 POP JUMP JUMPDEST PUSH1 0x0 PUSH20 0xFFFFFFFFFFFFFFFFFFFFFFFFFFFFFFFFFFFFFFFF DUP3 AND SWAP1 POP SWAP2 SWAP1 POP JUMP JUMPDEST PUSH1 0x0 DUP2 SWAP1 POP SWAP2 SWAP1 POP JUMP JUMPDEST PUSH1 0x0 PUSH1 0x2 DUP3 DIV SWAP1 POP PUSH1 0x1 DUP3 AND DUP1 PUSH3 0x465 JUMPI PUSH1 0x7F DUP3 AND SWAP2 POP JUMPDEST PUSH1 0x20 DUP3 LT DUP2 EQ ISZERO PUSH3 0x47C JUMPI PUSH3 0x47B PUSH3 0x4E0 JUMP JUMPDEST JUMPDEST POP SWAP2 SWAP1 POP JUMP JUMPDEST PUSH32 0x4E487B7100000000000000000000000000000000000000000000000000000000 PUSH1 0x0 MSTORE PUSH1 0x11 PUSH1 0x4 MSTORE PUSH1 0x24 PUSH1 0x0 REVERT JUMPDEST PUSH32 0x4E487B7100000000000000000000000000000000000000000000000000000000 PUSH1 0x0 MSTORE PUSH1 0x21 PUSH1 0x4 MSTORE PUSH1 0x24 PUSH1 0x0 REVERT JUMPDEST PUSH32 0x4E487B7100000000000000000000000000000000000000000000000000000000 PUSH1 0x0 MSTORE PUSH1 0x22 PUSH1 0x4 MSTORE PUSH1 0x24 PUSH1 0x0 REVERT JUMPDEST PUSH1 0x0 DUP1 REVERT JUMPDEST PUSH3 0x51F DUP2 PUSH3 0x40E JUMP JUMPDEST DUP2 EQ PUSH3 0x52B JUMPI PUSH1 0x0 DUP1 REVERT JUMPDEST POP JUMP JUMPDEST PUSH3 0x539 DUP2 PUSH3 0x442 JUMP JUMPDEST DUP2 EQ PUSH3 0x545 JUMPI PUSH1 0x0 DUP1 REVERT JUMPDEST POP JUMP JUMPDEST PUSH2 0x2226 DUP1 PUSH3 0x558 PUSH1 0x0 CODECOPY PUSH1 0x0 RETURN INVALID PUSH1 0x80 PUSH1 0x40 MSTORE PUSH1 0x4 CALLDATASIZE LT PUSH2 0x181 JUMPI PUSH1 0x0 CALLDATALOAD PUSH1 0xE0 SHR DUP1 PUSH4 0x5ED7CA5B GT PUSH2 0xD1 JUMPI DUP1 PUSH4 0xA9BCEA61 GT PUSH2 0x8A JUMPI DUP1 PUSH4 0xDD62ED3E GT PUSH2 0x64 JUMPI DUP1 PUSH4 0xDD62ED3E EQ PUSH2 0x57A JUMPI DUP1 PUSH4 0xE8B5E51F EQ PUSH2 0x5B7 JUMPI DUP1 PUSH4 0xF851A440 EQ PUSH2 0x5D5 JUMPI DUP1 PUSH4 0xFB86A404 EQ PUSH2 0x600 JUMPI PUSH2 0x181 JUMP JUMPDEST DUP1 PUSH4 0xA9BCEA61 EQ PUSH2 0x4F9 JUMPI DUP1 PUSH4 0xBB0C8298 EQ PUSH2 0x524 JUMPI DUP1 PUSH4 0xC59EE1DC EQ PUSH2 0x54F JUMPI PUSH2 0x181 JUMP JUMPDEST DUP1 PUSH4 0x5ED7CA5B EQ PUSH2 0x3E9 JUMPI DUP1 PUSH4 0x6D58C88F EQ PUSH2 0x400 JUMPI DUP1 PUSH4 0x70A08231 EQ PUSH2 0x429 JUMPI DUP1 PUSH4 0x78E97925 EQ PUSH2 0x466 JUMPI DUP1 PUSH4 0x95D89B41 EQ PUSH2 0x491 JUMPI DUP1 PUSH4 0xA9059CBB EQ PUSH2 0x4BC JUMPI PUSH2 0x181 JUMP JUMPDEST DUP1 PUSH4 0x28F833B7 GT PUSH2 0x13E JUMPI DUP1 PUSH4 0x3197CBB6 GT PUSH2 0x118 JUMPI DUP1 PUSH4 0x3197CBB6 EQ PUSH2 0x32B JUMPI DUP1 PUSH4 0x44F38756 EQ PUSH2 0x356 JUMPI DUP1 PUSH4 0x4D853EE5 EQ PUSH2 0x381 JUMPI DUP1 PUSH4 0x5C658165 EQ PUSH2 0x3AC JUMPI PUSH2 0x181 JUMP JUMPDEST DUP1 PUSH4 0x28F833B7 EQ PUSH2 0x2AA JUMPI DUP1 PUSH4 0x2942B61A EQ PUSH2 0x2D5 JUMPI DUP1 PUSH4 0x313CE567 EQ PUSH2 0x300 JUMPI PUSH2 0x181 JUMP JUMPDEST DUP1 PUSH4 0x46F7DA2 EQ PUSH2 0x186 JUMPI DUP1 PUSH4 0x6FDDE03 EQ PUSH2 0x19D JUMPI DUP1 PUSH4 0x95EA7B3 EQ PUSH2 0x1C8 JUMPI DUP1 PUSH4 0x18160DDD EQ PUSH2 0x205 JUMPI DUP1 PUSH4 0x23B872DD EQ PUSH2 0x230 JUMPI DUP1 PUSH4 0x27E235E3 EQ PUSH2 0x26D JUMPI JUMPDEST PUSH1 0x0 DUP1 REVERT JUMPDEST CALLVALUE DUP1 ISZERO PUSH2 0x192 JUMPI PUSH1 0x0 DUP1 REVERT JUMPDEST POP PUSH2 0x19B PUSH2 0x62B JUMP JUMPDEST STOP JUMPDEST CALLVALUE DUP1 ISZERO PUSH2 0x1A9 JUMPI PUSH1 0x0 DUP1 REVERT JUMPDEST POP PUSH2 0x1B2 PUSH2 0x6E8 JUMP JUMPDEST PUSH1 0x40 MLOAD PUSH2 0x1BF SWAP2 SWAP1 PUSH2 0x1B40 JUMP JUMPDEST PUSH1 0x40 MLOAD DUP1 SWAP2 SUB SWAP1 RETURN JUMPDEST CALLVALUE DUP1 ISZERO PUSH2 0x1D4 JUMPI PUSH1 0x0 DUP1 REVERT JUMPDEST POP PUSH2 0x1EF PUSH1 0x4 DUP1 CALLDATASIZE SUB DUP2 ADD SWAP1 PUSH2 0x1EA SWAP2 SWAP1 PUSH2 0x17C3 JUMP JUMPDEST PUSH2 0x776 JUMP JUMPDEST PUSH1 0x40 MLOAD PUSH2 0x1FC SWAP2 SWAP1 PUSH2 0x1B0A JUMP JUMPDEST PUSH1 0x40 MLOAD DUP1 SWAP2 SUB SWAP1 RETURN JUMPDEST CALLVALUE DUP1 ISZERO PUSH2 0x211 JUMPI PUSH1 0x0 DUP1 REVERT JUMPDEST POP PUSH2 0x21A PUSH2 0x92D JUMP JUMPDEST PUSH1 0x40 MLOAD PUSH2 0x227 SWAP2 SWAP1 PUSH2 0x1C62 JUMP JUMPDEST PUSH1 0x40 MLOAD DUP1 SWAP2 SUB SWAP1 RETURN JUMPDEST CALLVALUE DUP1 ISZERO PUSH2 0x23C JUMPI PUSH1 0x0 DUP1 REVERT JUMPDEST POP PUSH2 0x257 PUSH1 0x4 DUP1 CALLDATASIZE SUB DUP2 ADD SWAP1 PUSH2 0x252 SWAP2 SWAP1 PUSH2 0x1770 JUMP JUMPDEST PUSH2 0x933 JUMP JUMPDEST PUSH1 0x40 MLOAD PUSH2 0x264 SWAP2 SWAP1 PUSH2 0x1B0A JUMP JUMPDEST PUSH1 0x40 MLOAD DUP1 SWAP2 SUB SWAP1 RETURN JUMPDEST CALLVALUE DUP1 ISZERO PUSH2 0x279 JUMPI PUSH1 0x0 DUP1 REVERT JUMPDEST POP PUSH2 0x294 PUSH1 0x4 DUP1 CALLDATASIZE SUB DUP2 ADD SWAP1 PUSH2 0x28F SWAP2 SWAP1 PUSH2 0x16D6 JUMP JUMPDEST PUSH2 0xC68 JUMP JUMPDEST PUSH1 0x40 MLOAD PUSH2 0x2A1 SWAP2 SWAP1 PUSH2 0x1C62 JUMP JUMPDEST PUSH1 0x40 MLOAD DUP1 SWAP2 SUB SWAP1 RETURN JUMPDEST CALLVALUE DUP1 ISZERO PUSH2 0x2B6 JUMPI PUSH1 0x0 DUP1 REVERT JUMPDEST POP PUSH2 0x2BF PUSH2 0xC80 JUMP JUMPDEST PUSH1 0x40 MLOAD PUSH2 0x2CC SWAP2 SWAP1 PUSH2 0x1AB8 JUMP JUMPDEST PUSH1 0x40 MLOAD DUP1 SWAP2 SUB SWAP1 RETURN JUMPDEST CALLVALUE DUP1 ISZERO PUSH2 0x2E1 JUMPI PUSH1 0x0 DUP1 REVERT JUMPDEST POP PUSH2 0x2EA PUSH2 0xCA6 JUMP JUMPDEST PUSH1 0x40 MLOAD PUSH2 0x2F7 SWAP2 SWAP1 PUSH2 0x1B25 JUMP JUMPDEST PUSH1 0x40 MLOAD DUP1 SWAP2 SUB SWAP1 RETURN JUMPDEST CALLVALUE DUP1 ISZERO PUSH2 0x30C JUMPI PUSH1 0x0 DUP1 REVERT JUMPDEST POP PUSH2 0x315 PUSH2 0xD2F JUMP JUMPDEST PUSH1 0x40 MLOAD PUSH2 0x322 SWAP2 SWAP1 PUSH2 0x1C62 JUMP JUMPDEST PUSH1 0x40 MLOAD DUP1 SWAP2 SUB SWAP1 RETURN JUMPDEST CALLVALUE DUP1 ISZERO PUSH2 0x337 JUMPI PUSH1 0x0 DUP1 REVERT JUMPDEST POP PUSH2 0x340 PUSH2 0xD35 JUMP JUMPDEST PUSH1 0x40 MLOAD PUSH2 0x34D SWAP2 SWAP1 PUSH2 0x1C62 JUMP JUMPDEST PUSH1 0x40 MLOAD DUP1 SWAP2 SUB SWAP1 RETURN JUMPDEST CALLVALUE DUP1 ISZERO PUSH2 0x362 JUMPI PUSH1 0x0 DUP1 REVERT JUMPDEST POP PUSH2 0x36B PUSH2 0xD3B JUMP JUMPDEST PUSH1 0x40 MLOAD PUSH2 0x378 SWAP2 SWAP1 PUSH2 0x1B25 JUMP JUMPDEST PUSH1 0x40 MLOAD DUP1 SWAP2 SUB SWAP1 RETURN JUMPDEST CALLVALUE DUP1 ISZERO PUSH2 0x38D JUMPI PUSH1 0x0 DUP1 REVERT JUMPDEST POP PUSH2 0x396 PUSH2 0xD4E JUMP JUMPDEST PUSH1 0x40 MLOAD PUSH2 0x3A3 SWAP2 SWAP1 PUSH2 0x1A9D JUMP JUMPDEST PUSH1 0x40 MLOAD DUP1 SWAP2 SUB SWAP1 RETURN JUMPDEST CALLVALUE DUP1 ISZERO PUSH2 0x3B8 JUMPI PUSH1 0x0 DUP1 REVERT JUMPDEST POP PUSH2 0x3D3 PUSH1 0x4 DUP1 CALLDATASIZE SUB DUP2 ADD SWAP1 PUSH2 0x3CE SWAP2 SWAP1 PUSH2 0x1730 JUMP JUMPDEST PUSH2 0xD74 JUMP JUMPDEST PUSH1 0x40 MLOAD PUSH2 0x3E0 SWAP2 SWAP1 PUSH2 0x1C62 JUMP JUMPDEST PUSH1 0x40 MLOAD DUP1 SWAP2 SUB SWAP1 RETURN JUMPDEST CALLVALUE DUP1 ISZERO PUSH2 0x3F5 JUMPI PUSH1 0x0 DUP1 REVERT JUMPDEST POP PUSH2 0x3FE PUSH2 0xD99 JUMP JUMPDEST STOP JUMPDEST CALLVALUE DUP1 ISZERO PUSH2 0x40C JUMPI PUSH1 0x0 DUP1 REVERT JUMPDEST POP PUSH2 0x427 PUSH1 0x4 DUP1 CALLDATASIZE SUB DUP2 ADD SWAP1 PUSH2 0x422 SWAP2 SWAP1 PUSH2 0x1703 JUMP JUMPDEST PUSH2 0xE56 JUMP JUMPDEST STOP JUMPDEST CALLVALUE DUP1 ISZERO PUSH2 0x435 JUMPI PUSH1 0x0 DUP1 REVERT JUMPDEST POP PUSH2 0x450 PUSH1 0x4 DUP1 CALLDATASIZE SUB DUP2 ADD SWAP1 PUSH2 0x44B SWAP2 SWAP1 PUSH2 0x16D6 JUMP JUMPDEST PUSH2 0xF2A JUMP JUMPDEST PUSH1 0x40 MLOAD PUSH2 0x45D SWAP2 SWAP1 PUSH2 0x1C62 JUMP JUMPDEST PUSH1 0x40 MLOAD DUP1 SWAP2 SUB SWAP1 RETURN JUMPDEST CALLVALUE DUP1 ISZERO PUSH2 0x472 JUMPI PUSH1 0x0 DUP1 REVERT JUMPDEST POP PUSH2 0x47B PUSH2 0xF73 JUMP JUMPDEST PUSH1 0x40 MLOAD PUSH2 0x488 SWAP2 SWAP1 PUSH2 0x1C62 JUMP JUMPDEST PUSH1 0x40 MLOAD DUP1 SWAP2 SUB SWAP1 RETURN JUMPDEST CALLVALUE DUP1 ISZERO PUSH2 0x49D JUMPI PUSH1 0x0 DUP1 REVERT JUMPDEST POP PUSH2 0x4A6 PUSH2 0xF79 JUMP JUMPDEST PUSH1 0x40 MLOAD PUSH2 0x4B3 SWAP2 SWAP1 PUSH2 0x1B40 JUMP JUMPDEST PUSH1 0x40 MLOAD DUP1 SWAP2 SUB SWAP1 RETURN JUMPDEST CALLVALUE DUP1 ISZERO PUSH2 0x4C8 JUMPI PUSH1 0x0 DUP1 REVERT JUMPDEST POP PUSH2 0x4E3 PUSH1 0x4 DUP1 CALLDATASIZE SUB DUP2 ADD SWAP1 PUSH2 0x4DE SWAP2 SWAP1 PUSH2 0x17C3 JUMP JUMPDEST PUSH2 0x1007 JUMP JUMPDEST PUSH1 0x40 MLOAD PUSH2 0x4F0 SWAP2 SWAP1 PUSH2 0x1B0A JUMP JUMPDEST PUSH1 0x40 MLOAD DUP1 SWAP2 SUB SWAP1 RETURN JUMPDEST CALLVALUE DUP1 ISZERO PUSH2 0x505 JUMPI PUSH1 0x0 DUP1 REVERT JUMPDEST POP PUSH2 0x50E PUSH2 0x11A6 JUMP JUMPDEST PUSH1 0x40 MLOAD PUSH2 0x51B SWAP2 SWAP1 PUSH2 0x1C62 JUMP JUMPDEST PUSH1 0x40 MLOAD DUP1 SWAP2 SUB SWAP1 RETURN JUMPDEST CALLVALUE DUP1 ISZERO PUSH2 0x530 JUMPI PUSH1 0x0 DUP1 REVERT JUMPDEST POP PUSH2 0x539 PUSH2 0x11AC JUMP JUMPDEST PUSH1 0x40 MLOAD PUSH2 0x546 SWAP2 SWAP1 PUSH2 0x1C62 JUMP JUMPDEST PUSH1 0x40 MLOAD DUP1 SWAP2 SUB SWAP1 RETURN JUMPDEST CALLVALUE DUP1 ISZERO PUSH2 0x55B JUMPI PUSH1 0x0 DUP1 REVERT JUMPDEST POP PUSH2 0x564 PUSH2 0x11B2 JUMP JUMPDEST PUSH1 0x40 MLOAD PUSH2 0x571 SWAP2 SWAP1 PUSH2 0x1C62 JUMP JUMPDEST PUSH1 0x40 MLOAD DUP1 SWAP2 SUB SWAP1 RETURN JUMPDEST CALLVALUE DUP1 ISZERO PUSH2 0x586 JUMPI PUSH1 0x0 DUP1 REVERT JUMPDEST POP PUSH2 0x5A1 PUSH1 0x4 DUP1 CALLDATASIZE SUB DUP2 ADD SWAP1 PUSH2 0x59C SWAP2 SWAP1 PUSH2 0x1730 JUMP JUMPDEST PUSH2 0x11B8 JUMP JUMPDEST PUSH1 0x40 MLOAD PUSH2 0x5AE SWAP2 SWAP1 PUSH2 0x1C62 JUMP JUMPDEST PUSH1 0x40 MLOAD DUP1 SWAP2 SUB SWAP1 RETURN JUMPDEST PUSH2 0x5BF PUSH2 0x123F JUMP JUMPDEST PUSH1 0x40 MLOAD PUSH2 0x5CC SWAP2 SWAP1 PUSH2 0x1B0A JUMP JUMPDEST PUSH1 0x40 MLOAD DUP1 SWAP2 SUB SWAP1 RETURN JUMPDEST CALLVALUE DUP1 ISZERO PUSH2 0x5E1 JUMPI PUSH1 0x0 DUP1 REVERT JUMPDEST POP PUSH2 0x5EA PUSH2 0x166B JUMP JUMPDEST PUSH1 0x40 MLOAD PUSH2 0x5F7 SWAP2 SWAP1 PUSH2 0x1A9D JUMP JUMPDEST PUSH1 0x40 MLOAD DUP1 SWAP2 SUB SWAP1 RETURN JUMPDEST CALLVALUE DUP1 ISZERO PUSH2 0x60C JUMPI PUSH1 0x0 DUP1 REVERT JUMPDEST POP PUSH2 0x615 PUSH2 0x1691 JUMP JUMPDEST PUSH1 0x40 MLOAD PUSH2 0x622 SWAP2 SWAP1 PUSH2 0x1C62 JUMP JUMPDEST PUSH1 0x40 MLOAD DUP1 SWAP2 SUB SWAP1 RETURN JUMPDEST PUSH1 0x7 PUSH1 0x0 SWAP1 SLOAD SWAP1 PUSH2 0x100 EXP SWAP1 DIV PUSH20 0xFFFFFFFFFFFFFFFFFFFFFFFFFFFFFFFFFFFFFFFF AND PUSH20 0xFFFFFFFFFFFFFFFFFFFFFFFFFFFFFFFFFFFFFFFF AND CALLER PUSH20 0xFFFFFFFFFFFFFFFFFFFFFFFFFFFFFFFFFFFFFFFF AND EQ PUSH2 0x6BB JUMPI PUSH1 0x40 MLOAD PUSH32 0x8C379A000000000000000000000000000000000000000000000000000000000 DUP2 MSTORE PUSH1 0x4 ADD PUSH2 0x6B2 SWAP1 PUSH2 0x1BC2 JUMP JUMPDEST PUSH1 0x40 MLOAD DUP1 SWAP2 SUB SWAP1 REVERT JUMPDEST PUSH1 0x1 PUSH1 0xF PUSH1 0x0 PUSH2 0x100 EXP DUP2 SLOAD DUP2 PUSH1 0xFF MUL NOT AND SWAP1 DUP4 PUSH1 0x4 DUP2 GT ISZERO PUSH2 0x6E1 JUMPI PUSH2 0x6E0 PUSH2 0x1EA5 JUMP JUMPDEST JUMPDEST MUL OR SWAP1 SSTORE POP JUMP JUMPDEST PUSH1 0x0 DUP1 SLOAD PUSH2 0x6F5 SWAP1 PUSH2 0x1E3A JUMP JUMPDEST DUP1 PUSH1 0x1F ADD PUSH1 0x20 DUP1 SWAP2 DIV MUL PUSH1 0x20 ADD PUSH1 0x40 MLOAD SWAP1 DUP2 ADD PUSH1 0x40 MSTORE DUP1 SWAP3 SWAP2 SWAP1 DUP2 DUP2 MSTORE PUSH1 0x20 ADD DUP3 DUP1 SLOAD PUSH2 0x721 SWAP1 PUSH2 0x1E3A JUMP JUMPDEST DUP1 ISZERO PUSH2 0x76E JUMPI DUP1 PUSH1 0x1F LT PUSH2 0x743 JUMPI PUSH2 0x100 DUP1 DUP4 SLOAD DIV MUL DUP4 MSTORE SWAP2 PUSH1 0x20 ADD SWAP2 PUSH2 0x76E JUMP JUMPDEST DUP3 ADD SWAP2 SWAP1 PUSH1 0x0 MSTORE PUSH1 0x20 PUSH1 0x0 KECCAK256 SWAP1 JUMPDEST DUP2 SLOAD DUP2 MSTORE SWAP1 PUSH1 0x1 ADD SWAP1 PUSH1 0x20 ADD DUP1 DUP4 GT PUSH2 0x751 JUMPI DUP3 SWAP1 SUB PUSH1 0x1F AND DUP3 ADD SWAP2 JUMPDEST POP POP POP POP POP DUP2 JUMP JUMPDEST PUSH1 0x0 DUP2 PUSH1 0x5 PUSH1 0x0 CALLER PUSH20 0xFFFFFFFFFFFFFFFFFFFFFFFFFFFFFFFFFFFFFFFF AND PUSH20 0xFFFFFFFFFFFFFFFFFFFFFFFFFFFFFFFFFFFFFFFF AND DUP2 MSTORE PUSH1 0x20 ADD SWAP1 DUP2 MSTORE PUSH1 0x20 ADD PUSH1 0x0 KECCAK256 SLOAD LT ISZERO PUSH2 0x7FA JUMPI PUSH1 0x40 MLOAD PUSH32 0x8C379A000000000000000000000000000000000000000000000000000000000 DUP2 MSTORE PUSH1 0x4 ADD PUSH2 0x7F1 SWAP1 PUSH2 0x1BE2 JUMP JUMPDEST PUSH1 0x40 MLOAD DUP1 SWAP2 SUB SWAP1 REVERT JUMPDEST PUSH1 0x0 DUP3 GT PUSH2 0x83D JUMPI PUSH1 0x40 MLOAD PUSH32 0x8C379A000000000000000000000000000000000000000000000000000000000 DUP2 MSTORE PUSH1 0x4 ADD PUSH2 0x834 SWAP1 PUSH2 0x1B82 JUMP JUMPDEST PUSH1 0x40 MLOAD DUP1 SWAP2 SUB SWAP1 REVERT JUMPDEST DUP2 PUSH1 0x6 PUSH1 0x0 CALLER PUSH20 0xFFFFFFFFFFFFFFFFFFFFFFFFFFFFFFFFFFFFFFFF AND PUSH20 0xFFFFFFFFFFFFFFFFFFFFFFFFFFFFFFFFFFFFFFFF AND DUP2 MSTORE PUSH1 0x20 ADD SWAP1 DUP2 MSTORE PUSH1 0x20 ADD PUSH1 0x0 KECCAK256 PUSH1 0x0 DUP6 PUSH20 0xFFFFFFFFFFFFFFFFFFFFFFFFFFFFFFFFFFFFFFFF AND PUSH20 0xFFFFFFFFFFFFFFFFFFFFFFFFFFFFFFFFFFFFFFFF AND DUP2 MSTORE PUSH1 0x20 ADD SWAP1 DUP2 MSTORE PUSH1 0x20 ADD PUSH1 0x0 KECCAK256 DUP2 SWAP1 SSTORE POP DUP3 PUSH20 0xFFFFFFFFFFFFFFFFFFFFFFFFFFFFFFFFFFFFFFFF AND CALLER PUSH20 0xFFFFFFFFFFFFFFFFFFFFFFFFFFFFFFFFFFFFFFFF AND PUSH32 0x8C5BE1E5EBEC7D5BD14F71427D1E84F3DD0314C0F7B2291E5B200AC8C7C3B925 DUP5 PUSH1 0x40 MLOAD PUSH2 0x91B SWAP2 SWAP1 PUSH2 0x1C62 JUMP JUMPDEST PUSH1 0x40 MLOAD DUP1 SWAP2 SUB SWAP1 LOG3 PUSH1 0x1 SWAP1 POP SWAP3 SWAP2 POP POP JUMP JUMPDEST PUSH1 0x4 SLOAD DUP2 JUMP JUMPDEST PUSH1 0x0 DUP2 PUSH1 0x6 PUSH1 0x0 DUP7 PUSH20 0xFFFFFFFFFFFFFFFFFFFFFFFFFFFFFFFFFFFFFFFF AND PUSH20 0xFFFFFFFFFFFFFFFFFFFFFFFFFFFFFFFFFFFFFFFF AND DUP2 MSTORE PUSH1 0x20 ADD SWAP1 DUP2 MSTORE PUSH1 0x20 ADD PUSH1 0x0 KECCAK256 PUSH1 0x0 CALLER PUSH20 0xFFFFFFFFFFFFFFFFFFFFFFFFFFFFFFFFFFFFFFFF AND PUSH20 0xFFFFFFFFFFFFFFFFFFFFFFFFFFFFFFFFFFFFFFFF AND DUP2 MSTORE PUSH1 0x20 ADD SWAP1 DUP2 MSTORE PUSH1 0x20 ADD PUSH1 0x0 KECCAK256 SLOAD LT ISZERO PUSH2 0x9F4 JUMPI PUSH1 0x40 MLOAD PUSH32 0x8C379A000000000000000000000000000000000000000000000000000000000 DUP2 MSTORE PUSH1 0x4 ADD PUSH2 0x9EB SWAP1 PUSH2 0x1B62 JUMP JUMPDEST PUSH1 0x40 MLOAD DUP1 SWAP2 SUB SWAP1 REVERT JUMPDEST DUP2 PUSH1 0x5 PUSH1 0x0 DUP7 PUSH20 0xFFFFFFFFFFFFFFFFFFFFFFFFFFFFFFFFFFFFFFFF AND PUSH20 0xFFFFFFFFFFFFFFFFFFFFFFFFFFFFFFFFFFFFFFFF AND DUP2 MSTORE PUSH1 0x20 ADD SWAP1 DUP2 MSTORE PUSH1 0x20 ADD PUSH1 0x0 KECCAK256 SLOAD LT ISZERO PUSH2 0xA76 JUMPI PUSH1 0x40 MLOAD PUSH32 0x8C379A000000000000000000000000000000000000000000000000000000000 DUP2 MSTORE PUSH1 0x4 ADD PUSH2 0xA6D SWAP1 PUSH2 0x1C42 JUMP JUMPDEST PUSH1 0x40 MLOAD DUP1 SWAP2 SUB SWAP1 REVERT JUMPDEST PUSH1 0x0 DUP3 GT PUSH2 0xAB9 JUMPI PUSH1 0x40 MLOAD PUSH32 0x8C379A000000000000000000000000000000000000000000000000000000000 DUP2 MSTORE PUSH1 0x4 ADD PUSH2 0xAB0 SWAP1 PUSH2 0x1B82 JUMP JUMPDEST PUSH1 0x40 MLOAD DUP1 SWAP2 SUB SWAP1 REVERT JUMPDEST DUP2 PUSH1 0x6 PUSH1 0x0 DUP7 PUSH20 0xFFFFFFFFFFFFFFFFFFFFFFFFFFFFFFFFFFFFFFFF AND PUSH20 0xFFFFFFFFFFFFFFFFFFFFFFFFFFFFFFFFFFFFFFFF AND DUP2 MSTORE PUSH1 0x20 ADD SWAP1 DUP2 MSTORE PUSH1 0x20 ADD PUSH1 0x0 KECCAK256 PUSH1 0x0 CALLER PUSH20 0xFFFFFFFFFFFFFFFFFFFFFFFFFFFFFFFFFFFFFFFF AND PUSH20 0xFFFFFFFFFFFFFFFFFFFFFFFFFFFFFFFFFFFFFFFF AND DUP2 MSTORE PUSH1 0x20 ADD SWAP1 DUP2 MSTORE PUSH1 0x20 ADD PUSH1 0x0 KECCAK256 PUSH1 0x0 DUP3 DUP3 SLOAD PUSH2 0xB45 SWAP2 SWAP1 PUSH2 0x1D54 JUMP JUMPDEST SWAP3 POP POP DUP2 SWAP1 SSTORE POP DUP2 PUSH1 0x5 PUSH1 0x0 DUP7 PUSH20 0xFFFFFFFFFFFFFFFFFFFFFFFFFFFFFFFFFFFFFFFF AND PUSH20 0xFFFFFFFFFFFFFFFFFFFFFFFFFFFFFFFFFFFFFFFF AND DUP2 MSTORE PUSH1 0x20 ADD SWAP1 DUP2 MSTORE PUSH1 0x20 ADD PUSH1 0x0 KECCAK256 PUSH1 0x0 DUP3 DUP3 SLOAD PUSH2 0xB9B SWAP2 SWAP1 PUSH2 0x1D54 JUMP JUMPDEST SWAP3 POP POP DUP2 SWAP1 SSTORE POP DUP2 PUSH1 0x5 PUSH1 0x0 DUP6 PUSH20 0xFFFFFFFFFFFFFFFFFFFFFFFFFFFFFFFFFFFFFFFF AND PUSH20 0xFFFFFFFFFFFFFFFFFFFFFFFFFFFFFFFFFFFFFFFF AND DUP2 MSTORE PUSH1 0x20 ADD SWAP1 DUP2 MSTORE PUSH1 0x20 ADD PUSH1 0x0 KECCAK256 PUSH1 0x0 DUP3 DUP3 SLOAD PUSH2 0xBF1 SWAP2 SWAP1 PUSH2 0x1CA4 JUMP JUMPDEST SWAP3 POP POP DUP2 SWAP1 SSTORE POP DUP3 PUSH20 0xFFFFFFFFFFFFFFFFFFFFFFFFFFFFFFFFFFFFFFFF AND DUP5 PUSH20 0xFFFFFFFFFFFFFFFFFFFFFFFFFFFFFFFFFFFFFFFF AND PUSH32 0xDDF252AD1BE2C89B69C2B068FC378DAA952BA7F163C4A11628F55A4DF523B3EF DUP5 PUSH1 0x40 MLOAD PUSH2 0xC55 SWAP2 SWAP1 PUSH2 0x1C62 JUMP JUMPDEST PUSH1 0x40 MLOAD DUP1 SWAP2 SUB SWAP1 LOG3 PUSH1 0x1 SWAP1 POP SWAP4 SWAP3 POP POP POP JUMP JUMPDEST PUSH1 0x5 PUSH1 0x20 MSTORE DUP1 PUSH1 0x0 MSTORE PUSH1 0x40 PUSH1 0x0 KECCAK256 PUSH1 0x0 SWAP2 POP SWAP1 POP SLOAD DUP2 JUMP JUMPDEST PUSH1 0xF PUSH1 0x1 SWAP1 SLOAD SWAP1 PUSH2 0x100 EXP SWAP1 DIV PUSH20 0xFFFFFFFFFFFFFFFFFFFFFFFFFFFFFFFFFFFFFFFF AND DUP2 JUMP JUMPDEST PUSH1 0x0 DUP1 PUSH1 0x4 DUP1 DUP2 GT ISZERO PUSH2 0xCBC JUMPI PUSH2 0xCBB PUSH2 0x1EA5 JUMP JUMPDEST JUMPDEST PUSH1 0xF PUSH1 0x0 SWAP1 SLOAD SWAP1 PUSH2 0x100 EXP SWAP1 DIV PUSH1 0xFF AND PUSH1 0x4 DUP2 GT ISZERO PUSH2 0xCDE JUMPI PUSH2 0xCDD PUSH2 0x1EA5 JUMP JUMPDEST JUMPDEST EQ ISZERO PUSH2 0xCED JUMPI PUSH1 0x4 SWAP1 POP PUSH2 0xD28 JUMP JUMPDEST PUSH1 0xB SLOAD TIMESTAMP LT ISZERO PUSH2 0xD00 JUMPI PUSH1 0x0 SWAP1 POP PUSH2 0xD27 JUMP JUMPDEST PUSH1 0xB SLOAD TIMESTAMP LT ISZERO DUP1 ISZERO PUSH2 0xD13 JUMPI POP PUSH1 0xC SLOAD TIMESTAMP LT JUMPDEST ISZERO PUSH2 0xD21 JUMPI PUSH1 0x1 SWAP1 POP PUSH2 0xD26 JUMP JUMPDEST PUSH1 0x3 SWAP1 POP JUMPDEST JUMPDEST JUMPDEST DUP1 SWAP2 POP POP SWAP1 JUMP JUMPDEST PUSH1 0x2 SLOAD DUP2 JUMP JUMPDEST PUSH1 0xC SLOAD DUP2 JUMP JUMPDEST PUSH1 0xF PUSH1 0x0 SWAP1 SLOAD SWAP1 PUSH2 0x100 EXP SWAP1 DIV PUSH1 0xFF AND DUP2 JUMP JUMPDEST PUSH1 0x3 PUSH1 0x0 SWAP1 SLOAD SWAP1 PUSH2 0x100 EXP SWAP1 DIV PUSH20 0xFFFFFFFFFFFFFFFFFFFFFFFFFFFFFFFFFFFFFFFF AND DUP2 JUMP JUMPDEST PUSH1 0x6 PUSH1 0x20 MSTORE DUP2 PUSH1 0x0 MSTORE PUSH1 0x40 PUSH1 0x0 KECCAK256 PUSH1 0x20 MSTORE DUP1 PUSH1 0x0 MSTORE PUSH1 0x40 PUSH1 0x0 KECCAK256 PUSH1 0x0 SWAP2 POP SWAP2 POP POP SLOAD DUP2 JUMP JUMPDEST PUSH1 0x7 PUSH1 0x0 SWAP1 SLOAD SWAP1 PUSH2 0x100 EXP SWAP1 DIV PUSH20 0xFFFFFFFFFFFFFFFFFFFFFFFFFFFFFFFFFFFFFFFF AND PUSH20 0xFFFFFFFFFFFFFFFFFFFFFFFFFFFFFFFFFFFFFFFF AND CALLER PUSH20 0xFFFFFFFFFFFFFFFFFFFFFFFFFFFFFFFFFFFFFFFF AND EQ PUSH2 0xE29 JUMPI PUSH1 0x40 MLOAD PUSH32 0x8C379A000000000000000000000000000000000000000000000000000000000 DUP2 MSTORE PUSH1 0x4 ADD PUSH2 0xE20 SWAP1 PUSH2 0x1BC2 JUMP JUMPDEST PUSH1 0x40 MLOAD DUP1 SWAP2 SUB SWAP1 REVERT JUMPDEST PUSH1 0x4 PUSH1 0xF PUSH1 0x0 PUSH2 0x100 EXP DUP2 SLOAD DUP2 PUSH1 0xFF MUL NOT AND SWAP1 DUP4 PUSH1 0x4 DUP2 GT ISZERO PUSH2 0xE4F JUMPI PUSH2 0xE4E PUSH2 0x1EA5 JUMP JUMPDEST JUMPDEST MUL OR SWAP1 SSTORE POP JUMP JUMPDEST PUSH1 0x7 PUSH1 0x0 SWAP1 SLOAD SWAP1 PUSH2 0x100 EXP SWAP1 DIV PUSH20 0xFFFFFFFFFFFFFFFFFFFFFFFFFFFFFFFFFFFFFFFF AND PUSH20 0xFFFFFFFFFFFFFFFFFFFFFFFFFFFFFFFFFFFFFFFF AND CALLER PUSH20 0xFFFFFFFFFFFFFFFFFFFFFFFFFFFFFFFFFFFFFFFF AND EQ PUSH2 0xEE6 JUMPI PUSH1 0x40 MLOAD PUSH32 0x8C379A000000000000000000000000000000000000000000000000000000000 DUP2 MSTORE PUSH1 0x4 ADD PUSH2 0xEDD SWAP1 PUSH2 0x1BC2 JUMP JUMPDEST PUSH1 0x40 MLOAD DUP1 SWAP2 SUB SWAP1 REVERT JUMPDEST DUP1 PUSH1 0xF PUSH1 0x1 PUSH2 0x100 EXP DUP2 SLOAD DUP2 PUSH20 0xFFFFFFFFFFFFFFFFFFFFFFFFFFFFFFFFFFFFFFFF MUL NOT AND SWAP1 DUP4 PUSH20 0xFFFFFFFFFFFFFFFFFFFFFFFFFFFFFFFFFFFFFFFF AND MUL OR SWAP1 SSTORE POP POP JUMP JUMPDEST PUSH1 0x0 PUSH1 0x5 PUSH1 0x0 DUP4 PUSH20 0xFFFFFFFFFFFFFFFFFFFFFFFFFFFFFFFFFFFFFFFF AND PUSH20 0xFFFFFFFFFFFFFFFFFFFFFFFFFFFFFFFFFFFFFFFF AND DUP2 MSTORE PUSH1 0x20 ADD SWAP1 DUP2 MSTORE PUSH1 0x20 ADD PUSH1 0x0 KECCAK256 SLOAD SWAP1 POP SWAP2 SWAP1 POP JUMP JUMPDEST PUSH1 0xB SLOAD DUP2 JUMP JUMPDEST PUSH1 0x1 DUP1 SLOAD PUSH2 0xF86 SWAP1 PUSH2 0x1E3A JUMP JUMPDEST DUP1 PUSH1 0x1F ADD PUSH1 0x20 DUP1 SWAP2 DIV MUL PUSH1 0x20 ADD PUSH1 0x40 MLOAD SWAP1 DUP2 ADD PUSH1 0x40 MSTORE DUP1 SWAP3 SWAP2 SWAP1 DUP2 DUP2 MSTORE PUSH1 0x20 ADD DUP3 DUP1 SLOAD PUSH2 0xFB2 SWAP1 PUSH2 0x1E3A JUMP JUMPDEST DUP1 ISZERO PUSH2 0xFFF JUMPI DUP1 PUSH1 0x1F LT PUSH2 0xFD4 JUMPI PUSH2 0x100 DUP1 DUP4 SLOAD DIV MUL DUP4 MSTORE SWAP2 PUSH1 0x20 ADD SWAP2 PUSH2 0xFFF JUMP JUMPDEST DUP3 ADD SWAP2 SWAP1 PUSH1 0x0 MSTORE PUSH1 0x20 PUSH1 0x0 KECCAK256 SWAP1 JUMPDEST DUP2 SLOAD DUP2 MSTORE SWAP1 PUSH1 0x1 ADD SWAP1 PUSH1 0x20 ADD DUP1 DUP4 GT PUSH2 0xFE2 JUMPI DUP3 SWAP1 SUB PUSH1 0x1F AND DUP3 ADD SWAP2 JUMPDEST POP POP POP POP POP DUP2 JUMP JUMPDEST PUSH1 0x0 DUP2 PUSH1 0x5 PUSH1 0x0 CALLER PUSH20 0xFFFFFFFFFFFFFFFFFFFFFFFFFFFFFFFFFFFFFFFF AND PUSH20 0xFFFFFFFFFFFFFFFFFFFFFFFFFFFFFFFFFFFFFFFF AND DUP2 MSTORE PUSH1 0x20 ADD SWAP1 DUP2 MSTORE PUSH1 0x20 ADD PUSH1 0x0 KECCAK256 SLOAD LT ISZERO PUSH2 0x108B JUMPI PUSH1 0x40 MLOAD PUSH32 0x8C379A000000000000000000000000000000000000000000000000000000000 DUP2 MSTORE PUSH1 0x4 ADD PUSH2 0x1082 SWAP1 PUSH2 0x1C22 JUMP JUMPDEST PUSH1 0x40 MLOAD DUP1 SWAP2 SUB SWAP1 REVERT JUMPDEST DUP2 PUSH1 0x5 PUSH1 0x0 DUP6 PUSH20 0xFFFFFFFFFFFFFFFFFFFFFFFFFFFFFFFFFFFFFFFF AND PUSH20 0xFFFFFFFFFFFFFFFFFFFFFFFFFFFFFFFFFFFFFFFF AND DUP2 MSTORE PUSH1 0x20 ADD SWAP1 DUP2 MSTORE PUSH1 0x20 ADD PUSH1 0x0 KECCAK256 PUSH1 0x0 DUP3 DUP3 SLOAD PUSH2 0x10DA SWAP2 SWAP1 PUSH2 0x1CA4 JUMP JUMPDEST SWAP3 POP POP DUP2 SWAP1 SSTORE POP DUP2 PUSH1 0x5 PUSH1 0x0 CALLER PUSH20 0xFFFFFFFFFFFFFFFFFFFFFFFFFFFFFFFFFFFFFFFF AND PUSH20 0xFFFFFFFFFFFFFFFFFFFFFFFFFFFFFFFFFFFFFFFF AND DUP2 MSTORE PUSH1 0x20 ADD SWAP1 DUP2 MSTORE PUSH1 0x20 ADD PUSH1 0x0 KECCAK256 PUSH1 0x0 DUP3 DUP3 SLOAD PUSH2 0x1130 SWAP2 SWAP1 PUSH2 0x1D54 JUMP JUMPDEST SWAP3 POP POP DUP2 SWAP1 SSTORE POP DUP3 PUSH20 0xFFFFFFFFFFFFFFFFFFFFFFFFFFFFFFFFFFFFFFFF AND CALLER PUSH20 0xFFFFFFFFFFFFFFFFFFFFFFFFFFFFFFFFFFFFFFFF AND PUSH32 0xDDF252AD1BE2C89B69C2B068FC378DAA952BA7F163C4A11628F55A4DF523B3EF DUP5 PUSH1 0x40 MLOAD PUSH2 0x1194 SWAP2 SWAP1 PUSH2 0x1C62 JUMP JUMPDEST PUSH1 0x40 MLOAD DUP1 SWAP2 SUB SWAP1 LOG3 PUSH1 0x1 SWAP1 POP SWAP3 SWAP2 POP POP JUMP JUMPDEST PUSH1 0xE SLOAD DUP2 JUMP JUMPDEST PUSH1 0xD SLOAD DUP2 JUMP JUMPDEST PUSH1 0x9 SLOAD DUP2 JUMP JUMPDEST PUSH1 0x0 PUSH1 0x6 PUSH1 0x0 DUP5 PUSH20 0xFFFFFFFFFFFFFFFFFFFFFFFFFFFFFFFFFFFFFFFF AND PUSH20 0xFFFFFFFFFFFFFFFFFFFFFFFFFFFFFFFFFFFFFFFF AND DUP2 MSTORE PUSH1 0x20 ADD SWAP1 DUP2 MSTORE PUSH1 0x20 ADD PUSH1 0x0 KECCAK256 PUSH1 0x0 DUP4 PUSH20 0xFFFFFFFFFFFFFFFFFFFFFFFFFFFFFFFFFFFFFFFF AND PUSH20 0xFFFFFFFFFFFFFFFFFFFFFFFFFFFFFFFFFFFFFFFF AND DUP2 MSTORE PUSH1 0x20 ADD SWAP1 DUP2 MSTORE PUSH1 0x20 ADD PUSH1 0x0 KECCAK256 SLOAD SWAP1 POP SWAP3 SWAP2 POP POP JUMP JUMPDEST PUSH1 0x0 PUSH1 0x7 PUSH1 0x0 SWAP1 SLOAD SWAP1 PUSH2 0x100 EXP SWAP1 DIV PUSH20 0xFFFFFFFFFFFFFFFFFFFFFFFFFFFFFFFFFFFFFFFF AND PUSH20 0xFFFFFFFFFFFFFFFFFFFFFFFFFFFFFFFFFFFFFFFF AND CALLER PUSH20 0xFFFFFFFFFFFFFFFFFFFFFFFFFFFFFFFFFFFFFFFF AND EQ PUSH2 0x12D1 JUMPI PUSH1 0x40 MLOAD PUSH32 0x8C379A000000000000000000000000000000000000000000000000000000000 DUP2 MSTORE PUSH1 0x4 ADD PUSH2 0x12C8 SWAP1 PUSH2 0x1BC2 JUMP JUMPDEST PUSH1 0x40 MLOAD DUP1 SWAP2 SUB SWAP1 REVERT JUMPDEST PUSH2 0x12D9 PUSH2 0xCA6 JUMP JUMPDEST PUSH1 0xF PUSH1 0x0 PUSH2 0x100 EXP DUP2 SLOAD DUP2 PUSH1 0xFF MUL NOT AND SWAP1 DUP4 PUSH1 0x4 DUP2 GT ISZERO PUSH2 0x12FD JUMPI PUSH2 0x12FC PUSH2 0x1EA5 JUMP JUMPDEST JUMPDEST MUL OR SWAP1 SSTORE POP PUSH1 0x1 PUSH1 0x4 DUP2 GT ISZERO PUSH2 0x1316 JUMPI PUSH2 0x1315 PUSH2 0x1EA5 JUMP JUMPDEST JUMPDEST PUSH1 0xF PUSH1 0x0 SWAP1 SLOAD SWAP1 PUSH2 0x100 EXP SWAP1 DIV PUSH1 0xFF AND PUSH1 0x4 DUP2 GT ISZERO PUSH2 0x1338 JUMPI PUSH2 0x1337 PUSH2 0x1EA5 JUMP JUMPDEST JUMPDEST EQ PUSH2 0x1378 JUMPI PUSH1 0x40 MLOAD PUSH32 0x8C379A000000000000000000000000000000000000000000000000000000000 DUP2 MSTORE PUSH1 0x4 ADD PUSH2 0x136F SWAP1 PUSH2 0x1BA2 JUMP JUMPDEST PUSH1 0x40 MLOAD DUP1 SWAP2 SUB SWAP1 REVERT JUMPDEST PUSH1 0x0 CALLVALUE GT PUSH2 0x13BB JUMPI PUSH1 0x40 MLOAD PUSH32 0x8C379A000000000000000000000000000000000000000000000000000000000 DUP2 MSTORE PUSH1 0x4 ADD PUSH2 0x13B2 SWAP1 PUSH2 0x1BA2 JUMP JUMPDEST PUSH1 0x40 MLOAD DUP1 SWAP2 SUB SWAP1 REVERT JUMPDEST PUSH1 0x0 PUSH1 0xD SLOAD PUSH1 0x40 MLOAD PUSH1 0x20 ADD PUSH2 0x13D0 SWAP2 SWAP1 PUSH2 0x1A51 JUMP JUMPDEST PUSH1 0x40 MLOAD PUSH1 0x20 DUP2 DUP4 SUB SUB DUP2 MSTORE SWAP1 PUSH1 0x40 MSTORE SWAP1 POP PUSH1 0x0 PUSH1 0xE SLOAD PUSH1 0x40 MLOAD PUSH1 0x20 ADD PUSH2 0x13F6 SWAP2 SWAP1 PUSH2 0x1A77 JUMP JUMPDEST PUSH1 0x40 MLOAD PUSH1 0x20 DUP2 DUP4 SUB SUB DUP2 MSTORE SWAP1 PUSH1 0x40 MSTORE SWAP1 POP PUSH1 0x0 DUP3 DUP3 PUSH1 0x40 MLOAD PUSH1 0x20 ADD PUSH2 0x141C SWAP3 SWAP2 SWAP1 PUSH2 0x1A2D JUMP JUMPDEST PUSH1 0x40 MLOAD PUSH1 0x20 DUP2 DUP4 SUB SUB DUP2 MSTORE SWAP1 PUSH1 0x40 MSTORE SWAP1 POP PUSH1 0xD SLOAD CALLVALUE LT ISZERO DUP1 ISZERO PUSH2 0x1441 JUMPI POP PUSH1 0xE SLOAD CALLVALUE GT ISZERO JUMPDEST DUP2 SWAP1 PUSH2 0x1483 JUMPI PUSH1 0x40 MLOAD PUSH32 0x8C379A000000000000000000000000000000000000000000000000000000000 DUP2 MSTORE PUSH1 0x4 ADD PUSH2 0x147A SWAP2 SWAP1 PUSH2 0x1B40 JUMP JUMPDEST PUSH1 0x40 MLOAD DUP1 SWAP2 SUB SWAP1 REVERT JUMPDEST POP PUSH1 0x0 CALLVALUE PUSH1 0x9 SLOAD PUSH2 0x1494 SWAP2 SWAP1 PUSH2 0x1CA4 JUMP JUMPDEST SWAP1 POP PUSH1 0xA SLOAD DUP2 GT ISZERO PUSH2 0x14DB JUMPI PUSH1 0x40 MLOAD PUSH32 0x8C379A000000000000000000000000000000000000000000000000000000000 DUP2 MSTORE PUSH1 0x4 ADD PUSH2 0x14D2 SWAP1 PUSH2 0x1C02 JUMP JUMPDEST PUSH1 0x40 MLOAD DUP1 SWAP2 SUB SWAP1 REVERT JUMPDEST PUSH1 0x0 PUSH1 0x8 SLOAD CALLVALUE PUSH2 0x14EB SWAP2 SWAP1 PUSH2 0x1CFA JUMP JUMPDEST SWAP1 POP DUP1 PUSH1 0x5 PUSH1 0x0 CALLER PUSH20 0xFFFFFFFFFFFFFFFFFFFFFFFFFFFFFFFFFFFFFFFF AND PUSH20 0xFFFFFFFFFFFFFFFFFFFFFFFFFFFFFFFFFFFFFFFF AND DUP2 MSTORE PUSH1 0x20 ADD SWAP1 DUP2 MSTORE PUSH1 0x20 ADD PUSH1 0x0 KECCAK256 PUSH1 0x0 DUP3 DUP3 SLOAD PUSH2 0x153C SWAP2 SWAP1 PUSH2 0x1CA4 JUMP JUMPDEST SWAP3 POP POP DUP2 SWAP1 SSTORE POP DUP1 PUSH1 0x5 PUSH1 0x0 PUSH1 0x3 PUSH1 0x0 SWAP1 SLOAD SWAP1 PUSH2 0x100 EXP SWAP1 DIV PUSH20 0xFFFFFFFFFFFFFFFFFFFFFFFFFFFFFFFFFFFFFFFF AND PUSH20 0xFFFFFFFFFFFFFFFFFFFFFFFFFFFFFFFFFFFFFFFF AND PUSH20 0xFFFFFFFFFFFFFFFFFFFFFFFFFFFFFFFFFFFFFFFF AND DUP2 MSTORE PUSH1 0x20 ADD SWAP1 DUP2 MSTORE PUSH1 0x20 ADD PUSH1 0x0 KECCAK256 PUSH1 0x0 DUP3 DUP3 SLOAD PUSH2 0x15B4 SWAP2 SWAP1 PUSH2 0x1D54 JUMP JUMPDEST SWAP3 POP POP DUP2 SWAP1 SSTORE POP PUSH1 0xF PUSH1 0x1 SWAP1 SLOAD SWAP1 PUSH2 0x100 EXP SWAP1 DIV PUSH20 0xFFFFFFFFFFFFFFFFFFFFFFFFFFFFFFFFFFFFFFFF AND PUSH20 0xFFFFFFFFFFFFFFFFFFFFFFFFFFFFFFFFFFFFFFFF AND PUSH2 0x8FC CALLVALUE SWAP1 DUP2 ISZERO MUL SWAP1 PUSH1 0x40 MLOAD PUSH1 0x0 PUSH1 0x40 MLOAD DUP1 DUP4 SUB DUP2 DUP6 DUP9 DUP9 CALL SWAP4 POP POP POP POP ISZERO DUP1 ISZERO PUSH2 0x1623 JUMPI RETURNDATASIZE PUSH1 0x0 DUP1 RETURNDATACOPY RETURNDATASIZE PUSH1 0x0 REVERT JUMPDEST POP PUSH32 0x4AE4BD7655E0D350876A23CD90C4227B13DB560E34435C6A488150A9C844BF5F CALLER CALLVALUE DUP4 PUSH1 0x40 MLOAD PUSH2 0x1657 SWAP4 SWAP3 SWAP2 SWAP1 PUSH2 0x1AD3 JUMP JUMPDEST PUSH1 0x40 MLOAD DUP1 SWAP2 SUB SWAP1 LOG1 PUSH1 0x1 SWAP6 POP POP POP POP POP POP SWAP1 JUMP JUMPDEST PUSH1 0x7 PUSH1 0x0 SWAP1 SLOAD SWAP1 PUSH2 0x100 EXP SWAP1 DIV PUSH20 0xFFFFFFFFFFFFFFFFFFFFFFFFFFFFFFFFFFFFFFFF AND DUP2 JUMP JUMPDEST PUSH1 0xA SLOAD DUP2 JUMP JUMPDEST PUSH1 0x0 DUP2 CALLDATALOAD SWAP1 POP PUSH2 0x16A6 DUP2 PUSH2 0x21AB JUMP JUMPDEST SWAP3 SWAP2 POP POP JUMP JUMPDEST PUSH1 0x0 DUP2 CALLDATALOAD SWAP1 POP PUSH2 0x16BB DUP2 PUSH2 0x21C2 JUMP JUMPDEST SWAP3 SWAP2 POP POP JUMP JUMPDEST PUSH1 0x0 DUP2 CALLDATALOAD SWAP1 POP PUSH2 0x16D0 DUP2 PUSH2 0x21D9 JUMP JUMPDEST SWAP3 SWAP2 POP POP JUMP JUMPDEST PUSH1 0x0 PUSH1 0x20 DUP3 DUP5 SUB SLT ISZERO PUSH2 0x16EC JUMPI PUSH2 0x16EB PUSH2 0x1F03 JUMP JUMPDEST JUMPDEST PUSH1 0x0 PUSH2 0x16FA DUP5 DUP3 DUP6 ADD PUSH2 0x1697 JUMP JUMPDEST SWAP2 POP POP SWAP3 SWAP2 POP POP JUMP JUMPDEST PUSH1 0x0 PUSH1 0x20 DUP3 DUP5 SUB SLT ISZERO PUSH2 0x1719 JUMPI PUSH2 0x1718 PUSH2 0x1F03 JUMP JUMPDEST JUMPDEST PUSH1 0x0 PUSH2 0x1727 DUP5 DUP3 DUP6 ADD PUSH2 0x16AC JUMP JUMPDEST SWAP2 POP POP SWAP3 SWAP2 POP POP JUMP JUMPDEST PUSH1 0x0 DUP1 PUSH1 0x40 DUP4 DUP6 SUB SLT ISZERO PUSH2 0x1747 JUMPI PUSH2 0x1746 PUSH2 0x1F03 JUMP JUMPDEST JUMPDEST PUSH1 0x0 PUSH2 0x1755 DUP6 DUP3 DUP7 ADD PUSH2 0x1697 JUMP JUMPDEST SWAP3 POP POP PUSH1 0x20 PUSH2 0x1766 DUP6 DUP3 DUP7 ADD PUSH2 0x1697 JUMP JUMPDEST SWAP2 POP POP SWAP3 POP SWAP3 SWAP1 POP JUMP JUMPDEST PUSH1 0x0 DUP1 PUSH1 0x0 PUSH1 0x60 DUP5 DUP7 SUB SLT ISZERO PUSH2 0x1789 JUMPI PUSH2 0x1788 PUSH2 0x1F03 JUMP JUMPDEST JUMPDEST PUSH1 0x0 PUSH2 0x1797 DUP7 DUP3 DUP8 ADD PUSH2 0x1697 JUMP JUMPDEST SWAP4 POP POP PUSH1 0x20 PUSH2 0x17A8 DUP7 DUP3 DUP8 ADD PUSH2 0x1697 JUMP JUMPDEST SWAP3 POP POP PUSH1 0x40 PUSH2 0x17B9 DUP7 DUP3 DUP8 ADD PUSH2 0x16C1 JUMP JUMPDEST SWAP2 POP POP SWAP3 POP SWAP3 POP SWAP3 JUMP JUMPDEST PUSH1 0x0 DUP1 PUSH1 0x40 DUP4 DUP6 SUB SLT ISZERO PUSH2 0x17DA JUMPI PUSH2 0x17D9 PUSH2 0x1F03 JUMP JUMPDEST JUMPDEST PUSH1 0x0 PUSH2 0x17E8 DUP6 DUP3 DUP7 ADD PUSH2 0x1697 JUMP JUMPDEST SWAP3 POP POP PUSH1 0x20 PUSH2 0x17F9 DUP6 DUP3 DUP7 ADD PUSH2 0x16C1 JUMP JUMPDEST SWAP2 POP POP SWAP3 POP SWAP3 SWAP1 POP JUMP JUMPDEST PUSH2 0x180C DUP2 PUSH2 0x1D9A JUMP JUMPDEST DUP3 MSTORE POP POP JUMP JUMPDEST PUSH2 0x181B DUP2 PUSH2 0x1D88 JUMP JUMPDEST DUP3 MSTORE POP POP JUMP JUMPDEST PUSH2 0x182A DUP2 PUSH2 0x1DAC JUMP JUMPDEST DUP3 MSTORE POP POP JUMP JUMPDEST PUSH2 0x1839 DUP2 PUSH2 0x1DF5 JUMP JUMPDEST DUP3 MSTORE POP POP JUMP JUMPDEST PUSH1 0x0 PUSH2 0x184A DUP3 PUSH2 0x1C7D JUMP JUMPDEST PUSH2 0x1854 DUP2 DUP6 PUSH2 0x1C88 JUMP JUMPDEST SWAP4 POP PUSH2 0x1864 DUP2 DUP6 PUSH1 0x20 DUP7 ADD PUSH2 0x1E07 JUMP JUMPDEST PUSH2 0x186D DUP2 PUSH2 0x1F08 JUMP JUMPDEST DUP5 ADD SWAP2 POP POP SWAP3 SWAP2 POP POP JUMP JUMPDEST PUSH1 0x0 PUSH2 0x1883 DUP3 PUSH2 0x1C7D JUMP JUMPDEST PUSH2 0x188D DUP2 DUP6 PUSH2 0x1C99 JUMP JUMPDEST SWAP4 POP PUSH2 0x189D DUP2 DUP6 PUSH1 0x20 DUP7 ADD PUSH2 0x1E07 JUMP JUMPDEST DUP1 DUP5 ADD SWAP2 POP POP SWAP3 SWAP2 POP POP JUMP JUMPDEST PUSH1 0x0 PUSH2 0x18B6 PUSH1 0x30 DUP4 PUSH2 0x1C88 JUMP JUMPDEST SWAP2 POP PUSH2 0x18C1 DUP3 PUSH2 0x1F19 JUMP JUMPDEST PUSH1 0x40 DUP3 ADD SWAP1 POP SWAP2 SWAP1 POP JUMP JUMPDEST PUSH1 0x0 PUSH2 0x18D9 PUSH1 0x22 DUP4 PUSH2 0x1C88 JUMP JUMPDEST SWAP2 POP PUSH2 0x18E4 DUP3 PUSH2 0x1F68 JUMP JUMPDEST PUSH1 0x40 DUP3 ADD SWAP1 POP SWAP2 SWAP1 POP JUMP JUMPDEST PUSH1 0x0 PUSH2 0x18FC PUSH1 0x20 DUP4 PUSH2 0x1C88 JUMP JUMPDEST SWAP2 POP PUSH2 0x1907 DUP3 PUSH2 0x1FB7 JUMP JUMPDEST PUSH1 0x20 DUP3 ADD SWAP1 POP SWAP2 SWAP1 POP JUMP JUMPDEST PUSH1 0x0 PUSH2 0x191F PUSH1 0x1F DUP4 PUSH2 0x1C99 JUMP JUMPDEST SWAP2 POP PUSH2 0x192A DUP3 PUSH2 0x1FE0 JUMP JUMPDEST PUSH1 0x1F DUP3 ADD SWAP1 POP SWAP2 SWAP1 POP JUMP JUMPDEST PUSH1 0x0 PUSH2 0x1942 PUSH1 0x22 DUP4 PUSH2 0x1C88 JUMP JUMPDEST SWAP2 POP PUSH2 0x194D DUP3 PUSH2 0x2009 JUMP JUMPDEST PUSH1 0x40 DUP3 ADD SWAP1 POP SWAP2 SWAP1 POP JUMP JUMPDEST PUSH1 0x0 PUSH2 0x1965 PUSH1 0x30 DUP4 PUSH2 0x1C88 JUMP JUMPDEST SWAP2 POP PUSH2 0x1970 DUP3 PUSH2 0x2058 JUMP JUMPDEST PUSH1 0x40 DUP3 ADD SWAP1 POP SWAP2 SWAP1 POP JUMP JUMPDEST PUSH1 0x0 PUSH2 0x1988 PUSH1 0x30 DUP4 PUSH2 0x1C88 JUMP JUMPDEST SWAP2 POP PUSH2 0x1993 DUP3 PUSH2 0x20A7 JUMP JUMPDEST PUSH1 0x40 DUP3 ADD SWAP1 POP SWAP2 SWAP1 POP JUMP JUMPDEST PUSH1 0x0 PUSH2 0x19AB PUSH1 0x21 DUP4 PUSH2 0x1C99 JUMP JUMPDEST SWAP2 POP PUSH2 0x19B6 DUP3 PUSH2 0x20F6 JUMP JUMPDEST PUSH1 0x21 DUP3 ADD SWAP1 POP SWAP2 SWAP1 POP JUMP JUMPDEST PUSH1 0x0 PUSH2 0x19CE PUSH1 0x1C DUP4 PUSH2 0x1C88 JUMP JUMPDEST SWAP2 POP PUSH2 0x19D9 DUP3 PUSH2 0x2145 JUMP JUMPDEST PUSH1 0x20 DUP3 ADD SWAP1 POP SWAP2 SWAP1 POP JUMP JUMPDEST PUSH1 0x0 PUSH2 0x19F1 PUSH1 0x12 DUP4 PUSH2 0x1C88 JUMP JUMPDEST SWAP2 POP PUSH2 0x19FC DUP3 PUSH2 0x216E JUMP JUMPDEST PUSH1 0x20 DUP3 ADD SWAP1 POP SWAP2 SWAP1 POP JUMP JUMPDEST PUSH2 0x1A10 DUP2 PUSH2 0x1DEB JUMP JUMPDEST DUP3 MSTORE POP POP JUMP JUMPDEST PUSH2 0x1A27 PUSH2 0x1A22 DUP3 PUSH2 0x1DEB JUMP JUMPDEST PUSH2 0x1E6C JUMP JUMPDEST DUP3 MSTORE POP POP JUMP JUMPDEST PUSH1 0x0 PUSH2 0x1A39 DUP3 DUP6 PUSH2 0x1878 JUMP JUMPDEST SWAP2 POP PUSH2 0x1A45 DUP3 DUP5 PUSH2 0x1878 JUMP JUMPDEST SWAP2 POP DUP2 SWAP1 POP SWAP4 SWAP3 POP POP POP JUMP JUMPDEST PUSH1 0x0 PUSH2 0x1A5C DUP3 PUSH2 0x1912 JUMP JUMPDEST SWAP2 POP PUSH2 0x1A68 DUP3 DUP5 PUSH2 0x1A16 JUMP JUMPDEST PUSH1 0x20 DUP3 ADD SWAP2 POP DUP2 SWAP1 POP SWAP3 SWAP2 POP POP JUMP JUMPDEST PUSH1 0x0 PUSH2 0x1A82 DUP3 PUSH2 0x199E JUMP JUMPDEST SWAP2 POP PUSH2 0x1A8E DUP3 DUP5 PUSH2 0x1A16 JUMP JUMPDEST PUSH1 0x20 DUP3 ADD SWAP2 POP DUP2 SWAP1 POP SWAP3 SWAP2 POP POP JUMP JUMPDEST PUSH1 0x0 PUSH1 0x20 DUP3 ADD SWAP1 POP PUSH2 0x1AB2 PUSH1 0x0 DUP4 ADD DUP5 PUSH2 0x1812 JUMP JUMPDEST SWAP3 SWAP2 POP POP JUMP JUMPDEST PUSH1 0x0 PUSH1 0x20 DUP3 ADD SWAP1 POP PUSH2 0x1ACD PUSH1 0x0 DUP4 ADD DUP5 PUSH2 0x1803 JUMP JUMPDEST SWAP3 SWAP2 POP POP JUMP JUMPDEST PUSH1 0x0 PUSH1 0x60 DUP3 ADD SWAP1 POP PUSH2 0x1AE8 PUSH1 0x0 DUP4 ADD DUP7 PUSH2 0x1812 JUMP JUMPDEST PUSH2 0x1AF5 PUSH1 0x20 DUP4 ADD DUP6 PUSH2 0x1A07 JUMP JUMPDEST PUSH2 0x1B02 PUSH1 0x40 DUP4 ADD DUP5 PUSH2 0x1A07 JUMP JUMPDEST SWAP5 SWAP4 POP POP POP POP JUMP JUMPDEST PUSH1 0x0 PUSH1 0x20 DUP3 ADD SWAP1 POP PUSH2 0x1B1F PUSH1 0x0 DUP4 ADD DUP5 PUSH2 0x1821 JUMP JUMPDEST SWAP3 SWAP2 POP POP JUMP JUMPDEST PUSH1 0x0 PUSH1 0x20 DUP3 ADD SWAP1 POP PUSH2 0x1B3A PUSH1 0x0 DUP4 ADD DUP5 PUSH2 0x1830 JUMP JUMPDEST SWAP3 SWAP2 POP POP JUMP JUMPDEST PUSH1 0x0 PUSH1 0x20 DUP3 ADD SWAP1 POP DUP2 DUP2 SUB PUSH1 0x0 DUP4 ADD MSTORE PUSH2 0x1B5A DUP2 DUP5 PUSH2 0x183F JUMP JUMPDEST SWAP1 POP SWAP3 SWAP2 POP POP JUMP JUMPDEST PUSH1 0x0 PUSH1 0x20 DUP3 ADD SWAP1 POP DUP2 DUP2 SUB PUSH1 0x0 DUP4 ADD MSTORE PUSH2 0x1B7B DUP2 PUSH2 0x18A9 JUMP JUMPDEST SWAP1 POP SWAP2 SWAP1 POP JUMP JUMPDEST PUSH1 0x0 PUSH1 0x20 DUP3 ADD SWAP1 POP DUP2 DUP2 SUB PUSH1 0x0 DUP4 ADD MSTORE PUSH2 0x1B9B DUP2 PUSH2 0x18CC JUMP JUMPDEST SWAP1 POP SWAP2 SWAP1 POP JUMP JUMPDEST PUSH1 0x0 PUSH1 0x20 DUP3 ADD SWAP1 POP DUP2 DUP2 SUB PUSH1 0x0 DUP4 ADD MSTORE PUSH2 0x1BBB DUP2 PUSH2 0x18EF JUMP JUMPDEST SWAP1 POP SWAP2 SWAP1 POP JUMP JUMPDEST PUSH1 0x0 PUSH1 0x20 DUP3 ADD SWAP1 POP DUP2 DUP2 SUB PUSH1 0x0 DUP4 ADD MSTORE PUSH2 0x1BDB DUP2 PUSH2 0x1935 JUMP JUMPDEST SWAP1 POP SWAP2 SWAP1 POP JUMP JUMPDEST PUSH1 0x0 PUSH1 0x20 DUP3 ADD SWAP1 POP DUP2 DUP2 SUB PUSH1 0x0 DUP4 ADD MSTORE PUSH2 0x1BFB DUP2 PUSH2 0x1958 JUMP JUMPDEST SWAP1 POP SWAP2 SWAP1 POP JUMP JUMPDEST PUSH1 0x0 PUSH1 0x20 DUP3 ADD SWAP1 POP DUP2 DUP2 SUB PUSH1 0x0 DUP4 ADD MSTORE PUSH2 0x1C1B DUP2 PUSH2 0x197B JUMP JUMPDEST SWAP1 POP SWAP2 SWAP1 POP JUMP JUMPDEST PUSH1 0x0 PUSH1 0x20 DUP3 ADD SWAP1 POP DUP2 DUP2 SUB PUSH1 0x0 DUP4 ADD MSTORE PUSH2 0x1C3B DUP2 PUSH2 0x19C1 JUMP JUMPDEST SWAP1 POP SWAP2 SWAP1 POP JUMP JUMPDEST PUSH1 0x0 PUSH1 0x20 DUP3 ADD SWAP1 POP DUP2 DUP2 SUB PUSH1 0x0 DUP4 ADD MSTORE PUSH2 0x1C5B DUP2 PUSH2 0x19E4 JUMP JUMPDEST SWAP1 POP SWAP2 SWAP1 POP JUMP JUMPDEST PUSH1 0x0 PUSH1 0x20 DUP3 ADD SWAP1 POP PUSH2 0x1C77 PUSH1 0x0 DUP4 ADD DUP5 PUSH2 0x1A07 JUMP JUMPDEST SWAP3 SWAP2 POP POP JUMP JUMPDEST PUSH1 0x0 DUP2 MLOAD SWAP1 POP SWAP2 SWAP1 POP JUMP JUMPDEST PUSH1 0x0 DUP3 DUP3 MSTORE PUSH1 0x20 DUP3 ADD SWAP1 POP SWAP3 SWAP2 POP POP JUMP JUMPDEST PUSH1 0x0 DUP2 SWAP1 POP SWAP3 SWAP2 POP POP JUMP JUMPDEST PUSH1 0x0 PUSH2 0x1CAF DUP3 PUSH2 0x1DEB JUMP JUMPDEST SWAP2 POP PUSH2 0x1CBA DUP4 PUSH2 0x1DEB JUMP JUMPDEST SWAP3 POP DUP3 PUSH32 0xFFFFFFFFFFFFFFFFFFFFFFFFFFFFFFFFFFFFFFFFFFFFFFFFFFFFFFFFFFFFFFFF SUB DUP3 GT ISZERO PUSH2 0x1CEF JUMPI PUSH2 0x1CEE PUSH2 0x1E76 JUMP JUMPDEST JUMPDEST DUP3 DUP3 ADD SWAP1 POP SWAP3 SWAP2 POP POP JUMP JUMPDEST PUSH1 0x0 PUSH2 0x1D05 DUP3 PUSH2 0x1DEB JUMP JUMPDEST SWAP2 POP PUSH2 0x1D10 DUP4 PUSH2 0x1DEB JUMP JUMPDEST SWAP3 POP DUP2 PUSH32 0xFFFFFFFFFFFFFFFFFFFFFFFFFFFFFFFFFFFFFFFFFFFFFFFFFFFFFFFFFFFFFFFF DIV DUP4 GT DUP3 ISZERO ISZERO AND ISZERO PUSH2 0x1D49 JUMPI PUSH2 0x1D48 PUSH2 0x1E76 JUMP JUMPDEST JUMPDEST DUP3 DUP3 MUL SWAP1 POP SWAP3 SWAP2 POP POP JUMP JUMPDEST PUSH1 0x0 PUSH2 0x1D5F DUP3 PUSH2 0x1DEB JUMP JUMPDEST SWAP2 POP PUSH2 0x1D6A DUP4 PUSH2 0x1DEB JUMP JUMPDEST SWAP3 POP DUP3 DUP3 LT ISZERO PUSH2 0x1D7D JUMPI PUSH2 0x1D7C PUSH2 0x1E76 JUMP JUMPDEST JUMPDEST DUP3 DUP3 SUB SWAP1 POP SWAP3 SWAP2 POP POP JUMP JUMPDEST PUSH1 0x0 PUSH2 0x1D93 DUP3 PUSH2 0x1DCB JUMP JUMPDEST SWAP1 POP SWAP2 SWAP1 POP JUMP JUMPDEST PUSH1 0x0 PUSH2 0x1DA5 DUP3 PUSH2 0x1DCB JUMP JUMPDEST SWAP1 POP SWAP2 SWAP1 POP JUMP JUMPDEST PUSH1 0x0 DUP2 ISZERO ISZERO SWAP1 POP SWAP2 SWAP1 POP JUMP JUMPDEST PUSH1 0x0 DUP2 SWAP1 POP PUSH2 0x1DC6 DUP3 PUSH2 0x2197 JUMP JUMPDEST SWAP2 SWAP1 POP JUMP JUMPDEST PUSH1 0x0 PUSH20 0xFFFFFFFFFFFFFFFFFFFFFFFFFFFFFFFFFFFFFFFF DUP3 AND SWAP1 POP SWAP2 SWAP1 POP JUMP JUMPDEST PUSH1 0x0 DUP2 SWAP1 POP SWAP2 SWAP1 POP JUMP JUMPDEST PUSH1 0x0 PUSH2 0x1E00 DUP3 PUSH2 0x1DB8 JUMP JUMPDEST SWAP1 POP SWAP2 SWAP1 POP JUMP JUMPDEST PUSH1 0x0 JUMPDEST DUP4 DUP2 LT ISZERO PUSH2 0x1E25 JUMPI DUP1 DUP3 ADD MLOAD DUP2 DUP5 ADD MSTORE PUSH1 0x20 DUP2 ADD SWAP1 POP PUSH2 0x1E0A JUMP JUMPDEST DUP4 DUP2 GT ISZERO PUSH2 0x1E34 JUMPI PUSH1 0x0 DUP5 DUP5 ADD MSTORE JUMPDEST POP POP POP POP JUMP JUMPDEST PUSH1 0x0 PUSH1 0x2 DUP3 DIV SWAP1 POP PUSH1 0x1 DUP3 AND DUP1 PUSH2 0x1E52 JUMPI PUSH1 0x7F DUP3 AND SWAP2 POP JUMPDEST PUSH1 0x20 DUP3 LT DUP2 EQ ISZERO PUSH2 0x1E66 JUMPI PUSH2 0x1E65 PUSH2 0x1ED4 JUMP JUMPDEST JUMPDEST POP SWAP2 SWAP1 POP JUMP JUMPDEST PUSH1 0x0 DUP2 SWAP1 POP SWAP2 SWAP1 POP JUMP JUMPDEST PUSH32 0x4E487B7100000000000000000000000000000000000000000000000000000000 PUSH1 0x0 MSTORE PUSH1 0x11 PUSH1 0x4 MSTORE PUSH1 0x24 PUSH1 0x0 REVERT JUMPDEST PUSH32 0x4E487B7100000000000000000000000000000000000000000000000000000000 PUSH1 0x0 MSTORE PUSH1 0x21 PUSH1 0x4 MSTORE PUSH1 0x24 PUSH1 0x0 REVERT JUMPDEST PUSH32 0x4E487B7100000000000000000000000000000000000000000000000000000000 PUSH1 0x0 MSTORE PUSH1 0x22 PUSH1 0x4 MSTORE PUSH1 0x24 PUSH1 0x0 REVERT JUMPDEST PUSH1 0x0 DUP1 REVERT JUMPDEST PUSH1 0x0 PUSH1 0x1F NOT PUSH1 0x1F DUP4 ADD AND SWAP1 POP SWAP2 SWAP1 POP JUMP JUMPDEST PUSH32 0x546F6B656E2076616C75652069732067726561746572207468616E2074686520 PUSH1 0x0 DUP3 ADD MSTORE PUSH32 0x617070726F7665642062616C616E636500000000000000000000000000000000 PUSH1 0x20 DUP3 ADD MSTORE POP JUMP JUMPDEST PUSH32 0x546F6B656E2076616C7565206D7573742062652067726561746572207468616E PUSH1 0x0 DUP3 ADD MSTORE PUSH32 0x2030000000000000000000000000000000000000000000000000000000000000 PUSH1 0x20 DUP3 ADD MSTORE POP JUMP JUMPDEST PUSH32 0x416D6F756E74206D7573742062652067726561746572207468616E207A65726F PUSH1 0x0 DUP3 ADD MSTORE POP JUMP JUMPDEST PUSH32 0x416D6F756E742063616E6E6F74206E6F74206265206C6F776572207468616E00 PUSH1 0x0 DUP3 ADD MSTORE POP JUMP JUMPDEST PUSH32 0x4163636573732064656E6965642C20796F75206165206E6F7420616E2061646D PUSH1 0x0 DUP3 ADD MSTORE PUSH32 0x696E000000000000000000000000000000000000000000000000000000000000 PUSH1 0x20 DUP3 ADD MSTORE POP JUMP JUMPDEST PUSH32 0x546F6B656E2076616C75652069732067726561746572207468616E20796F7572 PUSH1 0x0 DUP3 ADD MSTORE PUSH32 0x2063757272656E7420686F6C64696E6700000000000000000000000000000000 PUSH1 0x20 DUP3 ADD MSTORE POP JUMP JUMPDEST PUSH32 0x546865206D6178696D756D20616D6F756E7420746F2062652072616973656420 PUSH1 0x0 DUP3 ADD MSTORE PUSH32 0x686173206265656E207265616368656400000000000000000000000000000000 PUSH1 0x20 DUP3 ADD MSTORE POP JUMP JUMPDEST PUSH32 0x416D6F756E742063616E6E6F74206E6F74206265206869676768657220746861 PUSH1 0x0 DUP3 ADD MSTORE PUSH32 0x6E00000000000000000000000000000000000000000000000000000000000000 PUSH1 0x20 DUP3 ADD MSTORE POP JUMP JUMPDEST PUSH32 0x496E73756666696369656E74204163636F756E742042616C616E636500000000 PUSH1 0x0 DUP3 ADD MSTORE POP JUMP JUMPDEST PUSH32 0x496E737566696369656E742042616C6E63650000000000000000000000000000 PUSH1 0x0 DUP3 ADD MSTORE POP JUMP JUMPDEST PUSH1 0x5 DUP2 LT PUSH2 0x21A8 JUMPI PUSH2 0x21A7 PUSH2 0x1EA5 JUMP JUMPDEST JUMPDEST POP JUMP JUMPDEST PUSH2 0x21B4 DUP2 PUSH2 0x1D88 JUMP JUMPDEST DUP2 EQ PUSH2 0x21BF JUMPI PUSH1 0x0 DUP1 REVERT JUMPDEST POP JUMP JUMPDEST PUSH2 0x21CB DUP2 PUSH2 0x1D9A JUMP JUMPDEST DUP2 EQ PUSH2 0x21D6 JUMPI PUSH1 0x0 DUP1 REVERT JUMPDEST POP JUMP JUMPDEST PUSH2 0x21E2 DUP2 PUSH2 0x1DEB JUMP JUMPDEST DUP2 EQ PUSH2 0x21ED JUMPI PUSH1 0x0 DUP1 REVERT JUMPDEST POP JUMP INVALID LOG2 PUSH5 0x6970667358 0x22 SLT KECCAK256 SWAP10 0x27 0xE7 0x29 ADDMOD CALLCODE 0xB2 SWAP15 DUP14 0xB4 STOP BYTE SWAP7 0xE9 0xEE PUSH29 0xB0FE43687CD5D54F7227D493A4E9182E64736F6C634300080700330000 "
				},
				"gasEstimates": {
					"creation": {
						"codeDepositCost": "1748400",
						"executionCost": "infinite",
						"totalCost": "infinite"
					},
					"external": {
						"admin()": "2602",
						"allowance(address,address)": "infinite",
						"allowed(address,address)": "infinite",
						"approve(address,uint256)": "infinite",
						"balanceOf(address)": "2908",
						"balances(address)": "2948",
						"changeDepositAddress(address)": "26987",
						"checkIcoState()": "9123",
						"decimals()": "2519",
						"depositAddress()": "2610",
						"endTime()": "2474",
						"founder()": "2603",
						"halt()": "26624",
						"hardCap()": "2539",
						"icoState()": "2627",
						"invest()": "infinite",
						"maximumAmount()": "2474",
						"minimumAmount()": "2496",
						"name()": "infinite",
						"raisedAmount()": "2518",
						"resume()": "26625",
						"startTime()": "2518",
						"symbol()": "infinite",
						"totalSupply()": "2519",
						"transfer(address,uint256)": "infinite",
						"transferFrom(address,address,uint256)": "infinite"
					}
				},
				"methodIdentifiers": {
					"admin()": "f851a440",
					"allowance(address,address)": "dd62ed3e",
					"allowed(address,address)": "5c658165",
					"approve(address,uint256)": "095ea7b3",
					"balanceOf(address)": "70a08231",
					"balances(address)": "27e235e3",
					"changeDepositAddress(address)": "6d58c88f",
					"checkIcoState()": "2942b61a",
					"decimals()": "313ce567",
					"depositAddress()": "28f833b7",
					"endTime()": "3197cbb6",
					"founder()": "4d853ee5",
					"halt()": "5ed7ca5b",
					"hardCap()": "fb86a404",
					"icoState()": "44f38756",
					"invest()": "e8b5e51f",
					"maximumAmount()": "a9bcea61",
					"minimumAmount()": "bb0c8298",
					"name()": "06fdde03",
					"raisedAmount()": "c59ee1dc",
					"resume()": "046f7da2",
					"startTime()": "78e97925",
					"symbol()": "95d89b41",
					"totalSupply()": "18160ddd",
					"transfer(address,uint256)": "a9059cbb",
					"transferFrom(address,address,uint256)": "23b872dd"
				}
			},
			"storageLayout": {
				"storage": [
					{
						"astId": 73,
						"contract": "contracts/Erc20token.sol:icoContract",
						"label": "name",
						"offset": 0,
						"slot": "0",
						"type": "t_string_storage"
					},
					{
						"astId": 76,
						"contract": "contracts/Erc20token.sol:icoContract",
						"label": "symbol",
						"offset": 0,
						"slot": "1",
						"type": "t_string_storage"
					},
					{
						"astId": 79,
						"contract": "contracts/Erc20token.sol:icoContract",
						"label": "decimals",
						"offset": 0,
						"slot": "2",
						"type": "t_uint256"
					},
					{
						"astId": 81,
						"contract": "contracts/Erc20token.sol:icoContract",
						"label": "founder",
						"offset": 0,
						"slot": "3",
						"type": "t_address"
					},
					{
						"astId": 84,
						"contract": "contracts/Erc20token.sol:icoContract",
						"label": "totalSupply",
						"offset": 0,
						"slot": "4",
						"type": "t_uint256"
					},
					{
						"astId": 88,
						"contract": "contracts/Erc20token.sol:icoContract",
						"label": "balances",
						"offset": 0,
						"slot": "5",
						"type": "t_mapping(t_address,t_uint256)"
					},
					{
						"astId": 94,
						"contract": "contracts/Erc20token.sol:icoContract",
						"label": "allowed",
						"offset": 0,
						"slot": "6",
						"type": "t_mapping(t_address,t_mapping(t_address,t_uint256))"
					},
					{
						"astId": 307,
						"contract": "contracts/Erc20token.sol:icoContract",
						"label": "admin",
						"offset": 0,
						"slot": "7",
						"type": "t_address"
					},
					{
						"astId": 310,
						"contract": "contracts/Erc20token.sol:icoContract",
						"label": "tokenPrice",
						"offset": 0,
						"slot": "8",
						"type": "t_uint256"
					},
					{
						"astId": 312,
						"contract": "contracts/Erc20token.sol:icoContract",
						"label": "raisedAmount",
						"offset": 0,
						"slot": "9",
						"type": "t_uint256"
					},
					{
						"astId": 315,
						"contract": "contracts/Erc20token.sol:icoContract",
						"label": "hardCap",
						"offset": 0,
						"slot": "10",
						"type": "t_uint256"
					},
					{
						"astId": 325,
						"contract": "contracts/Erc20token.sol:icoContract",
						"label": "startTime",
						"offset": 0,
						"slot": "11",
						"type": "t_uint256"
					},
					{
						"astId": 327,
						"contract": "contracts/Erc20token.sol:icoContract",
						"label": "endTime",
						"offset": 0,
						"slot": "12",
						"type": "t_uint256"
					},
					{
						"astId": 330,
						"contract": "contracts/Erc20token.sol:icoContract",
						"label": "minimumAmount",
						"offset": 0,
						"slot": "13",
						"type": "t_uint256"
					},
					{
						"astId": 333,
						"contract": "contracts/Erc20token.sol:icoContract",
						"label": "maximumAmount",
						"offset": 0,
						"slot": "14",
						"type": "t_uint256"
					},
					{
						"astId": 336,
						"contract": "contracts/Erc20token.sol:icoContract",
						"label": "icoState",
						"offset": 0,
						"slot": "15",
						"type": "t_enum(State)321"
					},
					{
						"astId": 338,
						"contract": "contracts/Erc20token.sol:icoContract",
						"label": "depositAddress",
						"offset": 1,
						"slot": "15",
						"type": "t_address_payable"
					}
				],
				"types": {
					"t_address": {
						"encoding": "inplace",
						"label": "address",
						"numberOfBytes": "20"
					},
					"t_address_payable": {
						"encoding": "inplace",
						"label": "address payable",
						"numberOfBytes": "20"
					},
					"t_enum(State)321": {
						"encoding": "inplace",
						"label": "enum icoContract.State",
						"numberOfBytes": "1"
					},
					"t_mapping(t_address,t_mapping(t_address,t_uint256))": {
						"encoding": "mapping",
						"key": "t_address",
						"label": "mapping(address => mapping(address => uint256))",
						"numberOfBytes": "32",
						"value": "t_mapping(t_address,t_uint256)"
					},
					"t_mapping(t_address,t_uint256)": {
						"encoding": "mapping",
						"key": "t_address",
						"label": "mapping(address => uint256)",
						"numberOfBytes": "32",
						"value": "t_uint256"
					},
					"t_string_storage": {
						"encoding": "bytes",
						"label": "string",
						"numberOfBytes": "32"
					},
					"t_uint256": {
						"encoding": "inplace",
						"label": "uint256",
						"numberOfBytes": "32"
					}
				}
			},
			"userdoc": {
				"kind": "user",
				"methods": {},
				"version": 1
			}
		}
	}
}