{
	"contracts/Crowdfunding.sol": {
		"CrowdFunding": {
			"abi": [
				{
					"inputs": [
						{
							"internalType": "uint256",
							"name": "_goal",
							"type": "uint256"
						},
						{
							"internalType": "uint256",
							"name": "_deadLine",
							"type": "uint256"
						}
					],
					"stateMutability": "nonpayable",
					"type": "constructor"
				},
				{
					"inputs": [],
					"name": "admin",
					"outputs": [
						{
							"internalType": "address",
							"name": "",
							"type": "address"
						}
					],
					"stateMutability": "view",
					"type": "function"
				},
				{
					"inputs": [],
					"name": "contribute",
					"outputs": [],
					"stateMutability": "payable",
					"type": "function"
				},
				{
					"inputs": [
						{
							"internalType": "address",
							"name": "",
							"type": "address"
						}
					],
					"name": "contributors",
					"outputs": [
						{
							"internalType": "uint256",
							"name": "",
							"type": "uint256"
						}
					],
					"stateMutability": "view",
					"type": "function"
				},
				{
					"inputs": [],
					"name": "deadLine",
					"outputs": [
						{
							"internalType": "uint256",
							"name": "",
							"type": "uint256"
						}
					],
					"stateMutability": "view",
					"type": "function"
				},
				{
					"inputs": [],
					"name": "getBalance",
					"outputs": [
						{
							"internalType": "uint256",
							"name": "",
							"type": "uint256"
						}
					],
					"stateMutability": "view",
					"type": "function"
				},
				{
					"inputs": [],
					"name": "goal",
					"outputs": [
						{
							"internalType": "uint256",
							"name": "",
							"type": "uint256"
						}
					],
					"stateMutability": "view",
					"type": "function"
				},
				{
					"inputs": [],
					"name": "minimumAmount",
					"outputs": [
						{
							"internalType": "uint256",
							"name": "",
							"type": "uint256"
						}
					],
					"stateMutability": "view",
					"type": "function"
				},
				{
					"inputs": [],
					"name": "numberOfContributors",
					"outputs": [
						{
							"internalType": "uint256",
							"name": "",
							"type": "uint256"
						}
					],
					"stateMutability": "view",
					"type": "function"
				},
				{
					"inputs": [],
					"name": "totalAmount",
					"outputs": [
						{
							"internalType": "uint256",
							"name": "",
							"type": "uint256"
						}
					],
					"stateMutability": "view",
					"type": "function"
				},
				{
					"stateMutability": "payable",
					"type": "receive"
				}
			],
			"devdoc": {
				"kind": "dev",
				"methods": {},
				"version": 1
			},
			"evm": {
				"assembly": "    /* \"contracts/Crowdfunding.sol\":74:1816  contract CrowdFunding{\r... */\n  mstore(0x40, 0x80)\n    /* \"contracts/Crowdfunding.sol\":674:858  constructor(uint _goal, uint _deadLine){\r... */\n  callvalue\n  dup1\n  iszero\n  tag_1\n  jumpi\n  0x00\n  dup1\n  revert\ntag_1:\n  pop\n  mload(0x40)\n  sub(codesize, bytecodeSize)\n  dup1\n  bytecodeSize\n  dup4\n  codecopy\n  dup2\n  dup2\n  add\n  0x40\n  mstore\n  dup2\n  add\n  swap1\n  tag_2\n  swap2\n  swap1\n  tag_3\n  jump\t// in\ntag_2:\n    /* \"contracts/Crowdfunding.sol\":731:736  _goal */\n  dup2\n    /* \"contracts/Crowdfunding.sol\":724:728  goal */\n  0x02\n    /* \"contracts/Crowdfunding.sol\":724:736  goal = _goal */\n  dup2\n  swap1\n  sstore\n  pop\n    /* \"contracts/Crowdfunding.sol\":776:785  _deadLine */\n  dup1\n    /* \"contracts/Crowdfunding.sol\":758:773  block.timestamp */\n  timestamp\n    /* \"contracts/Crowdfunding.sol\":758:785  block.timestamp + _deadLine */\n  tag_6\n  swap2\n  swap1\n  tag_7\n  jump\t// in\ntag_6:\n    /* \"contracts/Crowdfunding.sol\":747:755  deadLine */\n  0x03\n    /* \"contracts/Crowdfunding.sol\":747:785  deadLine = block.timestamp + _deadLine */\n  dup2\n  swap1\n  sstore\n  pop\n    /* \"contracts/Crowdfunding.sol\":804:814  msg.sender */\n  caller\n    /* \"contracts/Crowdfunding.sol\":796:801  admin */\n  0x01\n  0x00\n    /* \"contracts/Crowdfunding.sol\":796:814  admin = msg.sender */\n  0x0100\n  exp\n  dup2\n  sload\n  dup2\n  0xffffffffffffffffffffffffffffffffffffffff\n  mul\n  not\n  and\n  swap1\n  dup4\n  0xffffffffffffffffffffffffffffffffffffffff\n  and\n  mul\n  or\n  swap1\n  sstore\n  pop\n    /* \"contracts/Crowdfunding.sol\":841:850  100 ether */\n  0x056bc75e2d63100000\n    /* \"contracts/Crowdfunding.sol\":825:838  minimumAmount */\n  0x04\n    /* \"contracts/Crowdfunding.sol\":825:850  minimumAmount = 100 ether */\n  dup2\n  swap1\n  sstore\n  pop\n    /* \"contracts/Crowdfunding.sol\":674:858  constructor(uint _goal, uint _deadLine){\r... */\n  pop\n  pop\n    /* \"contracts/Crowdfunding.sol\":74:1816  contract CrowdFunding{\r... */\n  jump(tag_8)\n    /* \"#utility.yul\":7:150   */\ntag_10:\n    /* \"#utility.yul\":64:69   */\n  0x00\n    /* \"#utility.yul\":95:101   */\n  dup2\n    /* \"#utility.yul\":89:102   */\n  mload\n    /* \"#utility.yul\":80:102   */\n  swap1\n  pop\n    /* \"#utility.yul\":111:144   */\n  tag_12\n    /* \"#utility.yul\":138:143   */\n  dup2\n    /* \"#utility.yul\":111:144   */\n  tag_13\n  jump\t// in\ntag_12:\n    /* \"#utility.yul\":7:150   */\n  swap3\n  swap2\n  pop\n  pop\n  jump\t// out\n    /* \"#utility.yul\":156:663   */\ntag_3:\n    /* \"#utility.yul\":235:241   */\n  0x00\n    /* \"#utility.yul\":243:249   */\n  dup1\n    /* \"#utility.yul\":292:294   */\n  0x40\n    /* \"#utility.yul\":280:289   */\n  dup4\n    /* \"#utility.yul\":271:278   */\n  dup6\n    /* \"#utility.yul\":267:290   */\n  sub\n    /* \"#utility.yul\":263:295   */\n  slt\n    /* \"#utility.yul\":260:379   */\n  iszero\n  tag_15\n  jumpi\n    /* \"#utility.yul\":298:377   */\n  tag_16\n  tag_17\n  jump\t// in\ntag_16:\n    /* \"#utility.yul\":260:379   */\ntag_15:\n    /* \"#utility.yul\":418:419   */\n  0x00\n    /* \"#utility.yul\":443:507   */\n  tag_18\n    /* \"#utility.yul\":499:506   */\n  dup6\n    /* \"#utility.yul\":490:496   */\n  dup3\n    /* \"#utility.yul\":479:488   */\n  dup7\n    /* \"#utility.yul\":475:497   */\n  add\n    /* \"#utility.yul\":443:507   */\n  tag_10\n  jump\t// in\ntag_18:\n    /* \"#utility.yul\":433:507   */\n  swap3\n  pop\n    /* \"#utility.yul\":389:517   */\n  pop\n    /* \"#utility.yul\":556:558   */\n  0x20\n    /* \"#utility.yul\":582:646   */\n  tag_19\n    /* \"#utility.yul\":638:645   */\n  dup6\n    /* \"#utility.yul\":629:635   */\n  dup3\n    /* \"#utility.yul\":618:627   */\n  dup7\n    /* \"#utility.yul\":614:636   */\n  add\n    /* \"#utility.yul\":582:646   */\n  tag_10\n  jump\t// in\ntag_19:\n    /* \"#utility.yul\":572:646   */\n  swap2\n  pop\n    /* \"#utility.yul\":527:656   */\n  pop\n    /* \"#utility.yul\":156:663   */\n  swap3\n  pop\n  swap3\n  swap1\n  pop\n  jump\t// out\n    /* \"#utility.yul\":750:1055   */\ntag_7:\n    /* \"#utility.yul\":790:793   */\n  0x00\n    /* \"#utility.yul\":809:829   */\n  tag_23\n    /* \"#utility.yul\":827:828   */\n  dup3\n    /* \"#utility.yul\":809:829   */\n  tag_24\n  jump\t// in\ntag_23:\n    /* \"#utility.yul\":804:829   */\n  swap2\n  pop\n    /* \"#utility.yul\":843:863   */\n  tag_25\n    /* \"#utility.yul\":861:862   */\n  dup4\n    /* \"#utility.yul\":843:863   */\n  tag_24\n  jump\t// in\ntag_25:\n    /* \"#utility.yul\":838:863   */\n  swap3\n  pop\n    /* \"#utility.yul\":997:998   */\n  dup3\n    /* \"#utility.yul\":929:995   */\n  0xffffffffffffffffffffffffffffffffffffffffffffffffffffffffffffffff\n    /* \"#utility.yul\":925:999   */\n  sub\n    /* \"#utility.yul\":922:923   */\n  dup3\n    /* \"#utility.yul\":919:1000   */\n  gt\n    /* \"#utility.yul\":916:1023   */\n  iszero\n  tag_26\n  jumpi\n    /* \"#utility.yul\":1003:1021   */\n  tag_27\n  tag_28\n  jump\t// in\ntag_27:\n    /* \"#utility.yul\":916:1023   */\ntag_26:\n    /* \"#utility.yul\":1047:1048   */\n  dup3\n    /* \"#utility.yul\":1044:1045   */\n  dup3\n    /* \"#utility.yul\":1040:1049   */\n  add\n    /* \"#utility.yul\":1033:1049   */\n  swap1\n  pop\n    /* \"#utility.yul\":750:1055   */\n  swap3\n  swap2\n  pop\n  pop\n  jump\t// out\n    /* \"#utility.yul\":1061:1138   */\ntag_24:\n    /* \"#utility.yul\":1098:1105   */\n  0x00\n    /* \"#utility.yul\":1127:1132   */\n  dup2\n    /* \"#utility.yul\":1116:1132   */\n  swap1\n  pop\n    /* \"#utility.yul\":1061:1138   */\n  swap2\n  swap1\n  pop\n  jump\t// out\n    /* \"#utility.yul\":1144:1324   */\ntag_28:\n    /* \"#utility.yul\":1192:1269   */\n  0x4e487b7100000000000000000000000000000000000000000000000000000000\n    /* \"#utility.yul\":1189:1190   */\n  0x00\n    /* \"#utility.yul\":1182:1270   */\n  mstore\n    /* \"#utility.yul\":1289:1293   */\n  0x11\n    /* \"#utility.yul\":1286:1287   */\n  0x04\n    /* \"#utility.yul\":1279:1294   */\n  mstore\n    /* \"#utility.yul\":1313:1317   */\n  0x24\n    /* \"#utility.yul\":1310:1311   */\n  0x00\n    /* \"#utility.yul\":1303:1318   */\n  revert\n    /* \"#utility.yul\":1453:1570   */\ntag_17:\n    /* \"#utility.yul\":1562:1563   */\n  0x00\n    /* \"#utility.yul\":1559:1560   */\n  dup1\n    /* \"#utility.yul\":1552:1564   */\n  revert\n    /* \"#utility.yul\":1576:1698   */\ntag_13:\n    /* \"#utility.yul\":1649:1673   */\n  tag_35\n    /* \"#utility.yul\":1667:1672   */\n  dup2\n    /* \"#utility.yul\":1649:1673   */\n  tag_24\n  jump\t// in\ntag_35:\n    /* \"#utility.yul\":1642:1647   */\n  dup2\n    /* \"#utility.yul\":1639:1674   */\n  eq\n    /* \"#utility.yul\":1629:1692   */\n  tag_36\n  jumpi\n    /* \"#utility.yul\":1688:1689   */\n  0x00\n    /* \"#utility.yul\":1685:1686   */\n  dup1\n    /* \"#utility.yul\":1678:1690   */\n  revert\n    /* \"#utility.yul\":1629:1692   */\ntag_36:\n    /* \"#utility.yul\":1576:1698   */\n  pop\n  jump\t// out\n    /* \"contracts/Crowdfunding.sol\":74:1816  contract CrowdFunding{\r... */\ntag_8:\n  dataSize(sub_0)\n  dup1\n  dataOffset(sub_0)\n  0x00\n  codecopy\n  0x00\n  return\nstop\n\nsub_0: assembly {\n        /* \"contracts/Crowdfunding.sol\":74:1816  contract CrowdFunding{\r... */\n      mstore(0x40, 0x80)\n      jumpi(tag_1, lt(calldatasize, 0x04))\n      shr(0xe0, calldataload(0x00))\n      dup1\n      0x4377cf65\n      gt\n      tag_12\n      jumpi\n      dup1\n      0x4377cf65\n      eq\n      tag_7\n      jumpi\n      dup1\n      0xbb0c8298\n      eq\n      tag_8\n      jumpi\n      dup1\n      0xbef3a083\n      eq\n      tag_9\n      jumpi\n      dup1\n      0xd7bb99ba\n      eq\n      tag_10\n      jumpi\n      dup1\n      0xf851a440\n      eq\n      tag_11\n      jumpi\n      jump(tag_2)\n    tag_12:\n      dup1\n      0x12065fe0\n      eq\n      tag_3\n      jumpi\n      dup1\n      0x1a39d8ef\n      eq\n      tag_4\n      jumpi\n      dup1\n      0x1f6d4942\n      eq\n      tag_5\n      jumpi\n      dup1\n      0x40193883\n      eq\n      tag_6\n      jumpi\n      jump(tag_2)\n    tag_1:\n      jumpi(tag_2, calldatasize)\n        /* \"contracts/Crowdfunding.sol\":1689:1701  contribute() */\n      tag_15\n        /* \"contracts/Crowdfunding.sol\":1689:1699  contribute */\n      tag_16\n        /* \"contracts/Crowdfunding.sol\":1689:1701  contribute() */\n      jump\t// in\n    tag_15:\n        /* \"contracts/Crowdfunding.sol\":74:1816  contract CrowdFunding{\r... */\n      stop\n    tag_2:\n      0x00\n      dup1\n      revert\n        /* \"contracts/Crowdfunding.sol\":1717:1811  function getBalance() public view returns(uint){\r... */\n    tag_3:\n      callvalue\n      dup1\n      iszero\n      tag_17\n      jumpi\n      0x00\n      dup1\n      revert\n    tag_17:\n      pop\n      tag_18\n      tag_19\n      jump\t// in\n    tag_18:\n      mload(0x40)\n      tag_20\n      swap2\n      swap1\n      tag_21\n      jump\t// in\n    tag_20:\n      mload(0x40)\n      dup1\n      swap2\n      sub\n      swap1\n      return\n        /* \"contracts/Crowdfunding.sol\":573:596  uint public totalAmount */\n    tag_4:\n      callvalue\n      dup1\n      iszero\n      tag_22\n      jumpi\n      0x00\n      dup1\n      revert\n    tag_22:\n      pop\n      tag_23\n      tag_24\n      jump\t// in\n    tag_23:\n      mload(0x40)\n      tag_25\n      swap2\n      swap1\n      tag_21\n      jump\t// in\n    tag_25:\n      mload(0x40)\n      dup1\n      swap2\n      sub\n      swap1\n      return\n        /* \"contracts/Crowdfunding.sol\":161:205  mapping(address => uint) public contributors */\n    tag_5:\n      callvalue\n      dup1\n      iszero\n      tag_26\n      jumpi\n      0x00\n      dup1\n      revert\n    tag_26:\n      pop\n      tag_27\n      0x04\n      dup1\n      calldatasize\n      sub\n      dup2\n      add\n      swap1\n      tag_28\n      swap2\n      swap1\n      tag_29\n      jump\t// in\n    tag_28:\n      tag_30\n      jump\t// in\n    tag_27:\n      mload(0x40)\n      tag_31\n      swap2\n      swap1\n      tag_21\n      jump\t// in\n    tag_31:\n      mload(0x40)\n      dup1\n      swap2\n      sub\n      swap1\n      return\n        /* \"contracts/Crowdfunding.sol\":354:370  uint public goal */\n    tag_6:\n      callvalue\n      dup1\n      iszero\n      tag_32\n      jumpi\n      0x00\n      dup1\n      revert\n    tag_32:\n      pop\n      tag_33\n      tag_34\n      jump\t// in\n    tag_33:\n      mload(0x40)\n      tag_35\n      swap2\n      swap1\n      tag_21\n      jump\t// in\n    tag_35:\n      mload(0x40)\n      dup1\n      swap2\n      sub\n      swap1\n      return\n        /* \"contracts/Crowdfunding.sol\":633:665  uint public numberOfContributors */\n    tag_7:\n      callvalue\n      dup1\n      iszero\n      tag_36\n      jumpi\n      0x00\n      dup1\n      revert\n    tag_36:\n      pop\n      tag_37\n      tag_38\n      jump\t// in\n    tag_37:\n      mload(0x40)\n      tag_39\n      swap2\n      swap1\n      tag_21\n      jump\t// in\n    tag_39:\n      mload(0x40)\n      dup1\n      swap2\n      sub\n      swap1\n      return\n        /* \"contracts/Crowdfunding.sol\":500:525  uint public minimumAmount */\n    tag_8:\n      callvalue\n      dup1\n      iszero\n      tag_40\n      jumpi\n      0x00\n      dup1\n      revert\n    tag_40:\n      pop\n      tag_41\n      tag_42\n      jump\t// in\n    tag_41:\n      mload(0x40)\n      tag_43\n      swap2\n      swap1\n      tag_21\n      jump\t// in\n    tag_43:\n      mload(0x40)\n      dup1\n      swap2\n      sub\n      swap1\n      return\n        /* \"contracts/Crowdfunding.sol\":420:440  uint public deadLine */\n    tag_9:\n      callvalue\n      dup1\n      iszero\n      tag_44\n      jumpi\n      0x00\n      dup1\n      revert\n    tag_44:\n      pop\n      tag_45\n      tag_46\n      jump\t// in\n    tag_45:\n      mload(0x40)\n      tag_47\n      swap2\n      swap1\n      tag_21\n      jump\t// in\n    tag_47:\n      mload(0x40)\n      dup1\n      swap2\n      sub\n      swap1\n      return\n        /* \"contracts/Crowdfunding.sol\":866:1643  function contribute() public payable{\r... */\n    tag_10:\n      tag_48\n      tag_16\n      jump\t// in\n    tag_48:\n      stop\n        /* \"contracts/Crowdfunding.sol\":240:260  address public admin */\n    tag_11:\n      callvalue\n      dup1\n      iszero\n      tag_49\n      jumpi\n      0x00\n      dup1\n      revert\n    tag_49:\n      pop\n      tag_50\n      tag_51\n      jump\t// in\n    tag_50:\n      mload(0x40)\n      tag_52\n      swap2\n      swap1\n      tag_53\n      jump\t// in\n    tag_52:\n      mload(0x40)\n      dup1\n      swap2\n      sub\n      swap1\n      return\n        /* \"contracts/Crowdfunding.sol\":866:1643  function contribute() public payable{\r... */\n    tag_16:\n        /* \"contracts/Crowdfunding.sol\":1019:1032  minimumAmount */\n      sload(0x04)\n        /* \"contracts/Crowdfunding.sol\":1006:1015  msg.value */\n      callvalue\n        /* \"contracts/Crowdfunding.sol\":1006:1032  msg.value >= minimumAmount */\n      lt\n      iszero\n        /* \"contracts/Crowdfunding.sol\":998:1083  require(msg.value >= minimumAmount, \"Amount must be greater than the minimum amount\") */\n      tag_55\n      jumpi\n      mload(0x40)\n      0x08c379a000000000000000000000000000000000000000000000000000000000\n      dup2\n      mstore\n      0x04\n      add\n      tag_56\n      swap1\n      tag_57\n      jump\t// in\n    tag_56:\n      mload(0x40)\n      dup1\n      swap2\n      sub\n      swap1\n      revert\n    tag_55:\n        /* \"contracts/Crowdfunding.sol\":1167:1171  goal */\n      sload(0x02)\n        /* \"contracts/Crowdfunding.sol\":1153:1164  totalAmount */\n      sload(0x05)\n        /* \"contracts/Crowdfunding.sol\":1153:1171  totalAmount < goal */\n      lt\n        /* \"contracts/Crowdfunding.sol\":1145:1209  require(totalAmount < goal, \"Goal for funding has been reached\") */\n      tag_58\n      jumpi\n      mload(0x40)\n      0x08c379a000000000000000000000000000000000000000000000000000000000\n      dup2\n      mstore\n      0x04\n      add\n      tag_59\n      swap1\n      tag_60\n      jump\t// in\n    tag_59:\n      mload(0x40)\n      dup1\n      swap2\n      sub\n      swap1\n      revert\n    tag_58:\n        /* \"contracts/Crowdfunding.sol\":1281:1289  deadLine */\n      sload(0x03)\n        /* \"contracts/Crowdfunding.sol\":1263:1278  block.timestamp */\n      timestamp\n        /* \"contracts/Crowdfunding.sol\":1263:1289  block.timestamp < deadLine */\n      lt\n        /* \"contracts/Crowdfunding.sol\":1255:1331  require(block.timestamp < deadLine, \"Time frame set for unding has elasped\") */\n      tag_61\n      jumpi\n      mload(0x40)\n      0x08c379a000000000000000000000000000000000000000000000000000000000\n      dup2\n      mstore\n      0x04\n      add\n      tag_62\n      swap1\n      tag_63\n      jump\t// in\n    tag_62:\n      mload(0x40)\n      dup1\n      swap2\n      sub\n      swap1\n      revert\n    tag_61:\n        /* \"contracts/Crowdfunding.sol\":1383:1384  0 */\n      0x00\n        /* \"contracts/Crowdfunding.sol\":1355:1367  contributors */\n      dup1\n        /* \"contracts/Crowdfunding.sol\":1355:1379  contributors[msg.sender] */\n      0x00\n        /* \"contracts/Crowdfunding.sol\":1368:1378  msg.sender */\n      caller\n        /* \"contracts/Crowdfunding.sol\":1355:1379  contributors[msg.sender] */\n      0xffffffffffffffffffffffffffffffffffffffff\n      and\n      0xffffffffffffffffffffffffffffffffffffffff\n      and\n      dup2\n      mstore\n      0x20\n      add\n      swap1\n      dup2\n      mstore\n      0x20\n      add\n      0x00\n      keccak256\n      sload\n        /* \"contracts/Crowdfunding.sol\":1355:1384  contributors[msg.sender] == 0 */\n      eq\n        /* \"contracts/Crowdfunding.sol\":1352:1434  if(contributors[msg.sender] == 0){\r... */\n      iszero\n      tag_64\n      jumpi\n        /* \"contracts/Crowdfunding.sol\":1400:1420  numberOfContributors */\n      0x06\n      0x00\n        /* \"contracts/Crowdfunding.sol\":1400:1422  numberOfContributors++ */\n      dup2\n      sload\n      dup1\n      swap3\n      swap2\n      swap1\n      tag_65\n      swap1\n      tag_66\n      jump\t// in\n    tag_65:\n      swap2\n      swap1\n      pop\n      sstore\n      pop\n        /* \"contracts/Crowdfunding.sol\":1352:1434  if(contributors[msg.sender] == 0){\r... */\n    tag_64:\n        /* \"contracts/Crowdfunding.sol\":1525:1534  msg.value */\n      callvalue\n        /* \"contracts/Crowdfunding.sol\":1497:1509  contributors */\n      0x00\n        /* \"contracts/Crowdfunding.sol\":1497:1521  contributors[msg.sender] */\n      dup1\n        /* \"contracts/Crowdfunding.sol\":1510:1520  msg.sender */\n      caller\n        /* \"contracts/Crowdfunding.sol\":1497:1521  contributors[msg.sender] */\n      0xffffffffffffffffffffffffffffffffffffffff\n      and\n      0xffffffffffffffffffffffffffffffffffffffff\n      and\n      dup2\n      mstore\n      0x20\n      add\n      swap1\n      dup2\n      mstore\n      0x20\n      add\n      0x00\n      keccak256\n      0x00\n        /* \"contracts/Crowdfunding.sol\":1497:1534  contributors[msg.sender] += msg.value */\n      dup3\n      dup3\n      sload\n      tag_67\n      swap2\n      swap1\n      tag_68\n      jump\t// in\n    tag_67:\n      swap3\n      pop\n      pop\n      dup2\n      swap1\n      sstore\n      pop\n        /* \"contracts/Crowdfunding.sol\":1624:1633  msg.value */\n      callvalue\n        /* \"contracts/Crowdfunding.sol\":1609:1620  totalAmount */\n      0x05\n      0x00\n        /* \"contracts/Crowdfunding.sol\":1609:1633  totalAmount += msg.value */\n      dup3\n      dup3\n      sload\n      tag_69\n      swap2\n      swap1\n      tag_68\n      jump\t// in\n    tag_69:\n      swap3\n      pop\n      pop\n      dup2\n      swap1\n      sstore\n      pop\n        /* \"contracts/Crowdfunding.sol\":866:1643  function contribute() public payable{\r... */\n      jump\t// out\n        /* \"contracts/Crowdfunding.sol\":1717:1811  function getBalance() public view returns(uint){\r... */\n    tag_19:\n        /* \"contracts/Crowdfunding.sol\":1759:1763  uint */\n      0x00\n        /* \"contracts/Crowdfunding.sol\":1782:1803  address(this).balance */\n      selfbalance\n        /* \"contracts/Crowdfunding.sol\":1775:1803  return address(this).balance */\n      swap1\n      pop\n        /* \"contracts/Crowdfunding.sol\":1717:1811  function getBalance() public view returns(uint){\r... */\n      swap1\n      jump\t// out\n        /* \"contracts/Crowdfunding.sol\":573:596  uint public totalAmount */\n    tag_24:\n      sload(0x05)\n      dup2\n      jump\t// out\n        /* \"contracts/Crowdfunding.sol\":161:205  mapping(address => uint) public contributors */\n    tag_30:\n      mstore(0x20, 0x00)\n      dup1\n      0x00\n      mstore\n      keccak256(0x00, 0x40)\n      0x00\n      swap2\n      pop\n      swap1\n      pop\n      sload\n      dup2\n      jump\t// out\n        /* \"contracts/Crowdfunding.sol\":354:370  uint public goal */\n    tag_34:\n      sload(0x02)\n      dup2\n      jump\t// out\n        /* \"contracts/Crowdfunding.sol\":633:665  uint public numberOfContributors */\n    tag_38:\n      sload(0x06)\n      dup2\n      jump\t// out\n        /* \"contracts/Crowdfunding.sol\":500:525  uint public minimumAmount */\n    tag_42:\n      sload(0x04)\n      dup2\n      jump\t// out\n        /* \"contracts/Crowdfunding.sol\":420:440  uint public deadLine */\n    tag_46:\n      sload(0x03)\n      dup2\n      jump\t// out\n        /* \"contracts/Crowdfunding.sol\":240:260  address public admin */\n    tag_51:\n      0x01\n      0x00\n      swap1\n      sload\n      swap1\n      0x0100\n      exp\n      swap1\n      div\n      0xffffffffffffffffffffffffffffffffffffffff\n      and\n      dup2\n      jump\t// out\n        /* \"#utility.yul\":7:146   */\n    tag_72:\n        /* \"#utility.yul\":53:58   */\n      0x00\n        /* \"#utility.yul\":91:97   */\n      dup2\n        /* \"#utility.yul\":78:98   */\n      calldataload\n        /* \"#utility.yul\":69:98   */\n      swap1\n      pop\n        /* \"#utility.yul\":107:140   */\n      tag_74\n        /* \"#utility.yul\":134:139   */\n      dup2\n        /* \"#utility.yul\":107:140   */\n      tag_75\n      jump\t// in\n    tag_74:\n        /* \"#utility.yul\":7:146   */\n      swap3\n      swap2\n      pop\n      pop\n      jump\t// out\n        /* \"#utility.yul\":152:481   */\n    tag_29:\n        /* \"#utility.yul\":211:217   */\n      0x00\n        /* \"#utility.yul\":260:262   */\n      0x20\n        /* \"#utility.yul\":248:257   */\n      dup3\n        /* \"#utility.yul\":239:246   */\n      dup5\n        /* \"#utility.yul\":235:258   */\n      sub\n        /* \"#utility.yul\":231:263   */\n      slt\n        /* \"#utility.yul\":228:347   */\n      iszero\n      tag_77\n      jumpi\n        /* \"#utility.yul\":266:345   */\n      tag_78\n      tag_79\n      jump\t// in\n    tag_78:\n        /* \"#utility.yul\":228:347   */\n    tag_77:\n        /* \"#utility.yul\":386:387   */\n      0x00\n        /* \"#utility.yul\":411:464   */\n      tag_80\n        /* \"#utility.yul\":456:463   */\n      dup5\n        /* \"#utility.yul\":447:453   */\n      dup3\n        /* \"#utility.yul\":436:445   */\n      dup6\n        /* \"#utility.yul\":432:454   */\n      add\n        /* \"#utility.yul\":411:464   */\n      tag_72\n      jump\t// in\n    tag_80:\n        /* \"#utility.yul\":401:464   */\n      swap2\n      pop\n        /* \"#utility.yul\":357:474   */\n      pop\n        /* \"#utility.yul\":152:481   */\n      swap3\n      swap2\n      pop\n      pop\n      jump\t// out\n        /* \"#utility.yul\":487:605   */\n    tag_81:\n        /* \"#utility.yul\":574:598   */\n      tag_83\n        /* \"#utility.yul\":592:597   */\n      dup2\n        /* \"#utility.yul\":574:598   */\n      tag_84\n      jump\t// in\n    tag_83:\n        /* \"#utility.yul\":569:572   */\n      dup3\n        /* \"#utility.yul\":562:599   */\n      mstore\n        /* \"#utility.yul\":487:605   */\n      pop\n      pop\n      jump\t// out\n        /* \"#utility.yul\":611:977   */\n    tag_85:\n        /* \"#utility.yul\":753:756   */\n      0x00\n        /* \"#utility.yul\":774:841   */\n      tag_87\n        /* \"#utility.yul\":838:840   */\n      0x21\n        /* \"#utility.yul\":833:836   */\n      dup4\n        /* \"#utility.yul\":774:841   */\n      tag_88\n      jump\t// in\n    tag_87:\n        /* \"#utility.yul\":767:841   */\n      swap2\n      pop\n        /* \"#utility.yul\":850:943   */\n      tag_89\n        /* \"#utility.yul\":939:942   */\n      dup3\n        /* \"#utility.yul\":850:943   */\n      tag_90\n      jump\t// in\n    tag_89:\n        /* \"#utility.yul\":968:970   */\n      0x40\n        /* \"#utility.yul\":963:966   */\n      dup3\n        /* \"#utility.yul\":959:971   */\n      add\n        /* \"#utility.yul\":952:971   */\n      swap1\n      pop\n        /* \"#utility.yul\":611:977   */\n      swap2\n      swap1\n      pop\n      jump\t// out\n        /* \"#utility.yul\":983:1349   */\n    tag_91:\n        /* \"#utility.yul\":1125:1128   */\n      0x00\n        /* \"#utility.yul\":1146:1213   */\n      tag_93\n        /* \"#utility.yul\":1210:1212   */\n      0x25\n        /* \"#utility.yul\":1205:1208   */\n      dup4\n        /* \"#utility.yul\":1146:1213   */\n      tag_88\n      jump\t// in\n    tag_93:\n        /* \"#utility.yul\":1139:1213   */\n      swap2\n      pop\n        /* \"#utility.yul\":1222:1315   */\n      tag_94\n        /* \"#utility.yul\":1311:1314   */\n      dup3\n        /* \"#utility.yul\":1222:1315   */\n      tag_95\n      jump\t// in\n    tag_94:\n        /* \"#utility.yul\":1340:1342   */\n      0x40\n        /* \"#utility.yul\":1335:1338   */\n      dup3\n        /* \"#utility.yul\":1331:1343   */\n      add\n        /* \"#utility.yul\":1324:1343   */\n      swap1\n      pop\n        /* \"#utility.yul\":983:1349   */\n      swap2\n      swap1\n      pop\n      jump\t// out\n        /* \"#utility.yul\":1355:1721   */\n    tag_96:\n        /* \"#utility.yul\":1497:1500   */\n      0x00\n        /* \"#utility.yul\":1518:1585   */\n      tag_98\n        /* \"#utility.yul\":1582:1584   */\n      0x2e\n        /* \"#utility.yul\":1577:1580   */\n      dup4\n        /* \"#utility.yul\":1518:1585   */\n      tag_88\n      jump\t// in\n    tag_98:\n        /* \"#utility.yul\":1511:1585   */\n      swap2\n      pop\n        /* \"#utility.yul\":1594:1687   */\n      tag_99\n        /* \"#utility.yul\":1683:1686   */\n      dup3\n        /* \"#utility.yul\":1594:1687   */\n      tag_100\n      jump\t// in\n    tag_99:\n        /* \"#utility.yul\":1712:1714   */\n      0x40\n        /* \"#utility.yul\":1707:1710   */\n      dup3\n        /* \"#utility.yul\":1703:1715   */\n      add\n        /* \"#utility.yul\":1696:1715   */\n      swap1\n      pop\n        /* \"#utility.yul\":1355:1721   */\n      swap2\n      swap1\n      pop\n      jump\t// out\n        /* \"#utility.yul\":1727:1845   */\n    tag_101:\n        /* \"#utility.yul\":1814:1838   */\n      tag_103\n        /* \"#utility.yul\":1832:1837   */\n      dup2\n        /* \"#utility.yul\":1814:1838   */\n      tag_104\n      jump\t// in\n    tag_103:\n        /* \"#utility.yul\":1809:1812   */\n      dup3\n        /* \"#utility.yul\":1802:1839   */\n      mstore\n        /* \"#utility.yul\":1727:1845   */\n      pop\n      pop\n      jump\t// out\n        /* \"#utility.yul\":1851:2073   */\n    tag_53:\n        /* \"#utility.yul\":1944:1948   */\n      0x00\n        /* \"#utility.yul\":1982:1984   */\n      0x20\n        /* \"#utility.yul\":1971:1980   */\n      dup3\n        /* \"#utility.yul\":1967:1985   */\n      add\n        /* \"#utility.yul\":1959:1985   */\n      swap1\n      pop\n        /* \"#utility.yul\":1995:2066   */\n      tag_106\n        /* \"#utility.yul\":2063:2064   */\n      0x00\n        /* \"#utility.yul\":2052:2061   */\n      dup4\n        /* \"#utility.yul\":2048:2065   */\n      add\n        /* \"#utility.yul\":2039:2045   */\n      dup5\n        /* \"#utility.yul\":1995:2066   */\n      tag_81\n      jump\t// in\n    tag_106:\n        /* \"#utility.yul\":1851:2073   */\n      swap3\n      swap2\n      pop\n      pop\n      jump\t// out\n        /* \"#utility.yul\":2079:2498   */\n    tag_60:\n        /* \"#utility.yul\":2245:2249   */\n      0x00\n        /* \"#utility.yul\":2283:2285   */\n      0x20\n        /* \"#utility.yul\":2272:2281   */\n      dup3\n        /* \"#utility.yul\":2268:2286   */\n      add\n        /* \"#utility.yul\":2260:2286   */\n      swap1\n      pop\n        /* \"#utility.yul\":2332:2341   */\n      dup2\n        /* \"#utility.yul\":2326:2330   */\n      dup2\n        /* \"#utility.yul\":2322:2342   */\n      sub\n        /* \"#utility.yul\":2318:2319   */\n      0x00\n        /* \"#utility.yul\":2307:2316   */\n      dup4\n        /* \"#utility.yul\":2303:2320   */\n      add\n        /* \"#utility.yul\":2296:2343   */\n      mstore\n        /* \"#utility.yul\":2360:2491   */\n      tag_108\n        /* \"#utility.yul\":2486:2490   */\n      dup2\n        /* \"#utility.yul\":2360:2491   */\n      tag_85\n      jump\t// in\n    tag_108:\n        /* \"#utility.yul\":2352:2491   */\n      swap1\n      pop\n        /* \"#utility.yul\":2079:2498   */\n      swap2\n      swap1\n      pop\n      jump\t// out\n        /* \"#utility.yul\":2504:2923   */\n    tag_63:\n        /* \"#utility.yul\":2670:2674   */\n      0x00\n        /* \"#utility.yul\":2708:2710   */\n      0x20\n        /* \"#utility.yul\":2697:2706   */\n      dup3\n        /* \"#utility.yul\":2693:2711   */\n      add\n        /* \"#utility.yul\":2685:2711   */\n      swap1\n      pop\n        /* \"#utility.yul\":2757:2766   */\n      dup2\n        /* \"#utility.yul\":2751:2755   */\n      dup2\n        /* \"#utility.yul\":2747:2767   */\n      sub\n        /* \"#utility.yul\":2743:2744   */\n      0x00\n        /* \"#utility.yul\":2732:2741   */\n      dup4\n        /* \"#utility.yul\":2728:2745   */\n      add\n        /* \"#utility.yul\":2721:2768   */\n      mstore\n        /* \"#utility.yul\":2785:2916   */\n      tag_110\n        /* \"#utility.yul\":2911:2915   */\n      dup2\n        /* \"#utility.yul\":2785:2916   */\n      tag_91\n      jump\t// in\n    tag_110:\n        /* \"#utility.yul\":2777:2916   */\n      swap1\n      pop\n        /* \"#utility.yul\":2504:2923   */\n      swap2\n      swap1\n      pop\n      jump\t// out\n        /* \"#utility.yul\":2929:3348   */\n    tag_57:\n        /* \"#utility.yul\":3095:3099   */\n      0x00\n        /* \"#utility.yul\":3133:3135   */\n      0x20\n        /* \"#utility.yul\":3122:3131   */\n      dup3\n        /* \"#utility.yul\":3118:3136   */\n      add\n        /* \"#utility.yul\":3110:3136   */\n      swap1\n      pop\n        /* \"#utility.yul\":3182:3191   */\n      dup2\n        /* \"#utility.yul\":3176:3180   */\n      dup2\n        /* \"#utility.yul\":3172:3192   */\n      sub\n        /* \"#utility.yul\":3168:3169   */\n      0x00\n        /* \"#utility.yul\":3157:3166   */\n      dup4\n        /* \"#utility.yul\":3153:3170   */\n      add\n        /* \"#utility.yul\":3146:3193   */\n      mstore\n        /* \"#utility.yul\":3210:3341   */\n      tag_112\n        /* \"#utility.yul\":3336:3340   */\n      dup2\n        /* \"#utility.yul\":3210:3341   */\n      tag_96\n      jump\t// in\n    tag_112:\n        /* \"#utility.yul\":3202:3341   */\n      swap1\n      pop\n        /* \"#utility.yul\":2929:3348   */\n      swap2\n      swap1\n      pop\n      jump\t// out\n        /* \"#utility.yul\":3354:3576   */\n    tag_21:\n        /* \"#utility.yul\":3447:3451   */\n      0x00\n        /* \"#utility.yul\":3485:3487   */\n      0x20\n        /* \"#utility.yul\":3474:3483   */\n      dup3\n        /* \"#utility.yul\":3470:3488   */\n      add\n        /* \"#utility.yul\":3462:3488   */\n      swap1\n      pop\n        /* \"#utility.yul\":3498:3569   */\n      tag_114\n        /* \"#utility.yul\":3566:3567   */\n      0x00\n        /* \"#utility.yul\":3555:3564   */\n      dup4\n        /* \"#utility.yul\":3551:3568   */\n      add\n        /* \"#utility.yul\":3542:3548   */\n      dup5\n        /* \"#utility.yul\":3498:3569   */\n      tag_101\n      jump\t// in\n    tag_114:\n        /* \"#utility.yul\":3354:3576   */\n      swap3\n      swap2\n      pop\n      pop\n      jump\t// out\n        /* \"#utility.yul\":3663:3832   */\n    tag_88:\n        /* \"#utility.yul\":3747:3758   */\n      0x00\n        /* \"#utility.yul\":3781:3787   */\n      dup3\n        /* \"#utility.yul\":3776:3779   */\n      dup3\n        /* \"#utility.yul\":3769:3788   */\n      mstore\n        /* \"#utility.yul\":3821:3825   */\n      0x20\n        /* \"#utility.yul\":3816:3819   */\n      dup3\n        /* \"#utility.yul\":3812:3826   */\n      add\n        /* \"#utility.yul\":3797:3826   */\n      swap1\n      pop\n        /* \"#utility.yul\":3663:3832   */\n      swap3\n      swap2\n      pop\n      pop\n      jump\t// out\n        /* \"#utility.yul\":3838:4143   */\n    tag_68:\n        /* \"#utility.yul\":3878:3881   */\n      0x00\n        /* \"#utility.yul\":3897:3917   */\n      tag_119\n        /* \"#utility.yul\":3915:3916   */\n      dup3\n        /* \"#utility.yul\":3897:3917   */\n      tag_104\n      jump\t// in\n    tag_119:\n        /* \"#utility.yul\":3892:3917   */\n      swap2\n      pop\n        /* \"#utility.yul\":3931:3951   */\n      tag_120\n        /* \"#utility.yul\":3949:3950   */\n      dup4\n        /* \"#utility.yul\":3931:3951   */\n      tag_104\n      jump\t// in\n    tag_120:\n        /* \"#utility.yul\":3926:3951   */\n      swap3\n      pop\n        /* \"#utility.yul\":4085:4086   */\n      dup3\n        /* \"#utility.yul\":4017:4083   */\n      0xffffffffffffffffffffffffffffffffffffffffffffffffffffffffffffffff\n        /* \"#utility.yul\":4013:4087   */\n      sub\n        /* \"#utility.yul\":4010:4011   */\n      dup3\n        /* \"#utility.yul\":4007:4088   */\n      gt\n        /* \"#utility.yul\":4004:4111   */\n      iszero\n      tag_121\n      jumpi\n        /* \"#utility.yul\":4091:4109   */\n      tag_122\n      tag_123\n      jump\t// in\n    tag_122:\n        /* \"#utility.yul\":4004:4111   */\n    tag_121:\n        /* \"#utility.yul\":4135:4136   */\n      dup3\n        /* \"#utility.yul\":4132:4133   */\n      dup3\n        /* \"#utility.yul\":4128:4137   */\n      add\n        /* \"#utility.yul\":4121:4137   */\n      swap1\n      pop\n        /* \"#utility.yul\":3838:4143   */\n      swap3\n      swap2\n      pop\n      pop\n      jump\t// out\n        /* \"#utility.yul\":4149:4245   */\n    tag_84:\n        /* \"#utility.yul\":4186:4193   */\n      0x00\n        /* \"#utility.yul\":4215:4239   */\n      tag_125\n        /* \"#utility.yul\":4233:4238   */\n      dup3\n        /* \"#utility.yul\":4215:4239   */\n      tag_126\n      jump\t// in\n    tag_125:\n        /* \"#utility.yul\":4204:4239   */\n      swap1\n      pop\n        /* \"#utility.yul\":4149:4245   */\n      swap2\n      swap1\n      pop\n      jump\t// out\n        /* \"#utility.yul\":4251:4377   */\n    tag_126:\n        /* \"#utility.yul\":4288:4295   */\n      0x00\n        /* \"#utility.yul\":4328:4370   */\n      0xffffffffffffffffffffffffffffffffffffffff\n        /* \"#utility.yul\":4321:4326   */\n      dup3\n        /* \"#utility.yul\":4317:4371   */\n      and\n        /* \"#utility.yul\":4306:4371   */\n      swap1\n      pop\n        /* \"#utility.yul\":4251:4377   */\n      swap2\n      swap1\n      pop\n      jump\t// out\n        /* \"#utility.yul\":4383:4460   */\n    tag_104:\n        /* \"#utility.yul\":4420:4427   */\n      0x00\n        /* \"#utility.yul\":4449:4454   */\n      dup2\n        /* \"#utility.yul\":4438:4454   */\n      swap1\n      pop\n        /* \"#utility.yul\":4383:4460   */\n      swap2\n      swap1\n      pop\n      jump\t// out\n        /* \"#utility.yul\":4466:4699   */\n    tag_66:\n        /* \"#utility.yul\":4505:4508   */\n      0x00\n        /* \"#utility.yul\":4528:4552   */\n      tag_130\n        /* \"#utility.yul\":4546:4551   */\n      dup3\n        /* \"#utility.yul\":4528:4552   */\n      tag_104\n      jump\t// in\n    tag_130:\n        /* \"#utility.yul\":4519:4552   */\n      swap2\n      pop\n        /* \"#utility.yul\":4574:4640   */\n      0xffffffffffffffffffffffffffffffffffffffffffffffffffffffffffffffff\n        /* \"#utility.yul\":4567:4572   */\n      dup3\n        /* \"#utility.yul\":4564:4641   */\n      eq\n        /* \"#utility.yul\":4561:4664   */\n      iszero\n      tag_131\n      jumpi\n        /* \"#utility.yul\":4644:4662   */\n      tag_132\n      tag_123\n      jump\t// in\n    tag_132:\n        /* \"#utility.yul\":4561:4664   */\n    tag_131:\n        /* \"#utility.yul\":4691:4692   */\n      0x01\n        /* \"#utility.yul\":4684:4689   */\n      dup3\n        /* \"#utility.yul\":4680:4693   */\n      add\n        /* \"#utility.yul\":4673:4693   */\n      swap1\n      pop\n        /* \"#utility.yul\":4466:4699   */\n      swap2\n      swap1\n      pop\n      jump\t// out\n        /* \"#utility.yul\":4705:4885   */\n    tag_123:\n        /* \"#utility.yul\":4753:4830   */\n      0x4e487b7100000000000000000000000000000000000000000000000000000000\n        /* \"#utility.yul\":4750:4751   */\n      0x00\n        /* \"#utility.yul\":4743:4831   */\n      mstore\n        /* \"#utility.yul\":4850:4854   */\n      0x11\n        /* \"#utility.yul\":4847:4848   */\n      0x04\n        /* \"#utility.yul\":4840:4855   */\n      mstore\n        /* \"#utility.yul\":4874:4878   */\n      0x24\n        /* \"#utility.yul\":4871:4872   */\n      0x00\n        /* \"#utility.yul\":4864:4879   */\n      revert\n        /* \"#utility.yul\":5014:5131   */\n    tag_79:\n        /* \"#utility.yul\":5123:5124   */\n      0x00\n        /* \"#utility.yul\":5120:5121   */\n      dup1\n        /* \"#utility.yul\":5113:5125   */\n      revert\n        /* \"#utility.yul\":5137:5357   */\n    tag_90:\n        /* \"#utility.yul\":5277:5311   */\n      0x476f616c20666f722066756e64696e6720686173206265656e20726561636865\n        /* \"#utility.yul\":5273:5274   */\n      0x00\n        /* \"#utility.yul\":5265:5271   */\n      dup3\n        /* \"#utility.yul\":5261:5275   */\n      add\n        /* \"#utility.yul\":5254:5312   */\n      mstore\n        /* \"#utility.yul\":5346:5349   */\n      0x6400000000000000000000000000000000000000000000000000000000000000\n        /* \"#utility.yul\":5341:5343   */\n      0x20\n        /* \"#utility.yul\":5333:5339   */\n      dup3\n        /* \"#utility.yul\":5329:5344   */\n      add\n        /* \"#utility.yul\":5322:5350   */\n      mstore\n        /* \"#utility.yul\":5137:5357   */\n      pop\n      jump\t// out\n        /* \"#utility.yul\":5363:5587   */\n    tag_95:\n        /* \"#utility.yul\":5503:5537   */\n      0x54696d65206672616d652073657420666f7220756e64696e672068617320656c\n        /* \"#utility.yul\":5499:5500   */\n      0x00\n        /* \"#utility.yul\":5491:5497   */\n      dup3\n        /* \"#utility.yul\":5487:5501   */\n      add\n        /* \"#utility.yul\":5480:5538   */\n      mstore\n        /* \"#utility.yul\":5572:5579   */\n      0x6173706564000000000000000000000000000000000000000000000000000000\n        /* \"#utility.yul\":5567:5569   */\n      0x20\n        /* \"#utility.yul\":5559:5565   */\n      dup3\n        /* \"#utility.yul\":5555:5570   */\n      add\n        /* \"#utility.yul\":5548:5580   */\n      mstore\n        /* \"#utility.yul\":5363:5587   */\n      pop\n      jump\t// out\n        /* \"#utility.yul\":5593:5826   */\n    tag_100:\n        /* \"#utility.yul\":5733:5767   */\n      0x416d6f756e74206d7573742062652067726561746572207468616e2074686520\n        /* \"#utility.yul\":5729:5730   */\n      0x00\n        /* \"#utility.yul\":5721:5727   */\n      dup3\n        /* \"#utility.yul\":5717:5731   */\n      add\n        /* \"#utility.yul\":5710:5768   */\n      mstore\n        /* \"#utility.yul\":5802:5818   */\n      0x6d696e696d756d20616d6f756e74000000000000000000000000000000000000\n        /* \"#utility.yul\":5797:5799   */\n      0x20\n        /* \"#utility.yul\":5789:5795   */\n      dup3\n        /* \"#utility.yul\":5785:5800   */\n      add\n        /* \"#utility.yul\":5778:5819   */\n      mstore\n        /* \"#utility.yul\":5593:5826   */\n      pop\n      jump\t// out\n        /* \"#utility.yul\":5832:5954   */\n    tag_75:\n        /* \"#utility.yul\":5905:5929   */\n      tag_141\n        /* \"#utility.yul\":5923:5928   */\n      dup2\n        /* \"#utility.yul\":5905:5929   */\n      tag_84\n      jump\t// in\n    tag_141:\n        /* \"#utility.yul\":5898:5903   */\n      dup2\n        /* \"#utility.yul\":5895:5930   */\n      eq\n        /* \"#utility.yul\":5885:5948   */\n      tag_142\n      jumpi\n        /* \"#utility.yul\":5944:5945   */\n      0x00\n        /* \"#utility.yul\":5941:5942   */\n      dup1\n        /* \"#utility.yul\":5934:5946   */\n      revert\n        /* \"#utility.yul\":5885:5948   */\n    tag_142:\n        /* \"#utility.yul\":5832:5954   */\n      pop\n      jump\t// out\n\n    auxdata: 0xa26469706673582212202a40dc3b21b21f7d78b5011abefa32eff84910fef24a2a845954dc8f231da46464736f6c63430008070033\n}\n",
				"bytecode": {
					"linkReferences": {},
					"object": "608060405234801561001057600080fd5b50604051610980380380610980833981810160405281019061003291906100b8565b81600281905550804261004591906100f8565b60038190555033600160006101000a81548173ffffffffffffffffffffffffffffffffffffffff021916908373ffffffffffffffffffffffffffffffffffffffff16021790555068056bc75e2d6310000060048190555050506101a3565b6000815190506100b28161018c565b92915050565b600080604083850312156100cf576100ce610187565b5b60006100dd858286016100a3565b92505060206100ee858286016100a3565b9150509250929050565b60006101038261014e565b915061010e8361014e565b9250827fffffffffffffffffffffffffffffffffffffffffffffffffffffffffffffffff0382111561014357610142610158565b5b828201905092915050565b6000819050919050565b7f4e487b7100000000000000000000000000000000000000000000000000000000600052601160045260246000fd5b600080fd5b6101958161014e565b81146101a057600080fd5b50565b6107ce806101b26000396000f3fe60806040526004361061008a5760003560e01c80634377cf65116100595780634377cf651461015c578063bb0c829814610187578063bef3a083146101b2578063d7bb99ba146101dd578063f851a440146101e757610099565b806312065fe01461009e5780631a39d8ef146100c95780631f6d4942146100f4578063401938831461013157610099565b3661009957610097610212565b005b600080fd5b3480156100aa57600080fd5b506100b36103b1565b6040516100c09190610559565b60405180910390f35b3480156100d557600080fd5b506100de6103b9565b6040516100eb9190610559565b60405180910390f35b34801561010057600080fd5b5061011b6004803603810190610116919061042a565b6103bf565b6040516101289190610559565b60405180910390f35b34801561013d57600080fd5b506101466103d7565b6040516101539190610559565b60405180910390f35b34801561016857600080fd5b506101716103dd565b60405161017e9190610559565b60405180910390f35b34801561019357600080fd5b5061019c6103e3565b6040516101a99190610559565b60405180910390f35b3480156101be57600080fd5b506101c76103e9565b6040516101d49190610559565b60405180910390f35b6101e5610212565b005b3480156101f357600080fd5b506101fc6103ef565b60405161020991906104de565b60405180910390f35b600454341015610257576040517f08c379a000000000000000000000000000000000000000000000000000000000815260040161024e90610539565b60405180910390fd5b6002546005541061029d576040517f08c379a0000000000000000000000000000000000000000000000000000000008152600401610294906104f9565b60405180910390fd5b60035442106102e1576040517f08c379a00000000000000000000000000000000000000000000000000000000081526004016102d890610519565b60405180910390fd5b60008060003373ffffffffffffffffffffffffffffffffffffffff1673ffffffffffffffffffffffffffffffffffffffff168152602001908152602001600020541415610341576006600081548092919061033b90610617565b91905055505b346000803373ffffffffffffffffffffffffffffffffffffffff1673ffffffffffffffffffffffffffffffffffffffff168152602001908152602001600020600082825461038f9190610585565b9250508190555034600560008282546103a89190610585565b92505081905550565b600047905090565b60055481565b60006020528060005260406000206000915090505481565b60025481565b60065481565b60045481565b60035481565b600160009054906101000a900473ffffffffffffffffffffffffffffffffffffffff1681565b60008135905061042481610781565b92915050565b6000602082840312156104405761043f61068f565b5b600061044e84828501610415565b91505092915050565b610460816105db565b82525050565b6000610473602183610574565b915061047e82610694565b604082019050919050565b6000610496602583610574565b91506104a1826106e3565b604082019050919050565b60006104b9602e83610574565b91506104c482610732565b604082019050919050565b6104d88161060d565b82525050565b60006020820190506104f36000830184610457565b92915050565b6000602082019050818103600083015261051281610466565b9050919050565b6000602082019050818103600083015261053281610489565b9050919050565b60006020820190508181036000830152610552816104ac565b9050919050565b600060208201905061056e60008301846104cf565b92915050565b600082825260208201905092915050565b60006105908261060d565b915061059b8361060d565b9250827fffffffffffffffffffffffffffffffffffffffffffffffffffffffffffffffff038211156105d0576105cf610660565b5b828201905092915050565b60006105e6826105ed565b9050919050565b600073ffffffffffffffffffffffffffffffffffffffff82169050919050565b6000819050919050565b60006106228261060d565b91507fffffffffffffffffffffffffffffffffffffffffffffffffffffffffffffffff82141561065557610654610660565b5b600182019050919050565b7f4e487b7100000000000000000000000000000000000000000000000000000000600052601160045260246000fd5b600080fd5b7f476f616c20666f722066756e64696e6720686173206265656e2072656163686560008201527f6400000000000000000000000000000000000000000000000000000000000000602082015250565b7f54696d65206672616d652073657420666f7220756e64696e672068617320656c60008201527f6173706564000000000000000000000000000000000000000000000000000000602082015250565b7f416d6f756e74206d7573742062652067726561746572207468616e207468652060008201527f6d696e696d756d20616d6f756e74000000000000000000000000000000000000602082015250565b61078a816105db565b811461079557600080fd5b5056fea26469706673582212202a40dc3b21b21f7d78b5011abefa32eff84910fef24a2a845954dc8f231da46464736f6c63430008070033",
					"opcodes": "PUSH1 0x80 PUSH1 0x40 MSTORE CALLVALUE DUP1 ISZERO PUSH2 0x10 JUMPI PUSH1 0x0 DUP1 REVERT JUMPDEST POP PUSH1 0x40 MLOAD PUSH2 0x980 CODESIZE SUB DUP1 PUSH2 0x980 DUP4 CODECOPY DUP2 DUP2 ADD PUSH1 0x40 MSTORE DUP2 ADD SWAP1 PUSH2 0x32 SWAP2 SWAP1 PUSH2 0xB8 JUMP JUMPDEST DUP2 PUSH1 0x2 DUP2 SWAP1 SSTORE POP DUP1 TIMESTAMP PUSH2 0x45 SWAP2 SWAP1 PUSH2 0xF8 JUMP JUMPDEST PUSH1 0x3 DUP2 SWAP1 SSTORE POP CALLER PUSH1 0x1 PUSH1 0x0 PUSH2 0x100 EXP DUP2 SLOAD DUP2 PUSH20 0xFFFFFFFFFFFFFFFFFFFFFFFFFFFFFFFFFFFFFFFF MUL NOT AND SWAP1 DUP4 PUSH20 0xFFFFFFFFFFFFFFFFFFFFFFFFFFFFFFFFFFFFFFFF AND MUL OR SWAP1 SSTORE POP PUSH9 0x56BC75E2D63100000 PUSH1 0x4 DUP2 SWAP1 SSTORE POP POP POP PUSH2 0x1A3 JUMP JUMPDEST PUSH1 0x0 DUP2 MLOAD SWAP1 POP PUSH2 0xB2 DUP2 PUSH2 0x18C JUMP JUMPDEST SWAP3 SWAP2 POP POP JUMP JUMPDEST PUSH1 0x0 DUP1 PUSH1 0x40 DUP4 DUP6 SUB SLT ISZERO PUSH2 0xCF JUMPI PUSH2 0xCE PUSH2 0x187 JUMP JUMPDEST JUMPDEST PUSH1 0x0 PUSH2 0xDD DUP6 DUP3 DUP7 ADD PUSH2 0xA3 JUMP JUMPDEST SWAP3 POP POP PUSH1 0x20 PUSH2 0xEE DUP6 DUP3 DUP7 ADD PUSH2 0xA3 JUMP JUMPDEST SWAP2 POP POP SWAP3 POP SWAP3 SWAP1 POP JUMP JUMPDEST PUSH1 0x0 PUSH2 0x103 DUP3 PUSH2 0x14E JUMP JUMPDEST SWAP2 POP PUSH2 0x10E DUP4 PUSH2 0x14E JUMP JUMPDEST SWAP3 POP DUP3 PUSH32 0xFFFFFFFFFFFFFFFFFFFFFFFFFFFFFFFFFFFFFFFFFFFFFFFFFFFFFFFFFFFFFFFF SUB DUP3 GT ISZERO PUSH2 0x143 JUMPI PUSH2 0x142 PUSH2 0x158 JUMP JUMPDEST JUMPDEST DUP3 DUP3 ADD SWAP1 POP SWAP3 SWAP2 POP POP JUMP JUMPDEST PUSH1 0x0 DUP2 SWAP1 POP SWAP2 SWAP1 POP JUMP JUMPDEST PUSH32 0x4E487B7100000000000000000000000000000000000000000000000000000000 PUSH1 0x0 MSTORE PUSH1 0x11 PUSH1 0x4 MSTORE PUSH1 0x24 PUSH1 0x0 REVERT JUMPDEST PUSH1 0x0 DUP1 REVERT JUMPDEST PUSH2 0x195 DUP2 PUSH2 0x14E JUMP JUMPDEST DUP2 EQ PUSH2 0x1A0 JUMPI PUSH1 0x0 DUP1 REVERT JUMPDEST POP JUMP JUMPDEST PUSH2 0x7CE DUP1 PUSH2 0x1B2 PUSH1 0x0 CODECOPY PUSH1 0x0 RETURN INVALID PUSH1 0x80 PUSH1 0x40 MSTORE PUSH1 0x4 CALLDATASIZE LT PUSH2 0x8A JUMPI PUSH1 0x0 CALLDATALOAD PUSH1 0xE0 SHR DUP1 PUSH4 0x4377CF65 GT PUSH2 0x59 JUMPI DUP1 PUSH4 0x4377CF65 EQ PUSH2 0x15C JUMPI DUP1 PUSH4 0xBB0C8298 EQ PUSH2 0x187 JUMPI DUP1 PUSH4 0xBEF3A083 EQ PUSH2 0x1B2 JUMPI DUP1 PUSH4 0xD7BB99BA EQ PUSH2 0x1DD JUMPI DUP1 PUSH4 0xF851A440 EQ PUSH2 0x1E7 JUMPI PUSH2 0x99 JUMP JUMPDEST DUP1 PUSH4 0x12065FE0 EQ PUSH2 0x9E JUMPI DUP1 PUSH4 0x1A39D8EF EQ PUSH2 0xC9 JUMPI DUP1 PUSH4 0x1F6D4942 EQ PUSH2 0xF4 JUMPI DUP1 PUSH4 0x40193883 EQ PUSH2 0x131 JUMPI PUSH2 0x99 JUMP JUMPDEST CALLDATASIZE PUSH2 0x99 JUMPI PUSH2 0x97 PUSH2 0x212 JUMP JUMPDEST STOP JUMPDEST PUSH1 0x0 DUP1 REVERT JUMPDEST CALLVALUE DUP1 ISZERO PUSH2 0xAA JUMPI PUSH1 0x0 DUP1 REVERT JUMPDEST POP PUSH2 0xB3 PUSH2 0x3B1 JUMP JUMPDEST PUSH1 0x40 MLOAD PUSH2 0xC0 SWAP2 SWAP1 PUSH2 0x559 JUMP JUMPDEST PUSH1 0x40 MLOAD DUP1 SWAP2 SUB SWAP1 RETURN JUMPDEST CALLVALUE DUP1 ISZERO PUSH2 0xD5 JUMPI PUSH1 0x0 DUP1 REVERT JUMPDEST POP PUSH2 0xDE PUSH2 0x3B9 JUMP JUMPDEST PUSH1 0x40 MLOAD PUSH2 0xEB SWAP2 SWAP1 PUSH2 0x559 JUMP JUMPDEST PUSH1 0x40 MLOAD DUP1 SWAP2 SUB SWAP1 RETURN JUMPDEST CALLVALUE DUP1 ISZERO PUSH2 0x100 JUMPI PUSH1 0x0 DUP1 REVERT JUMPDEST POP PUSH2 0x11B PUSH1 0x4 DUP1 CALLDATASIZE SUB DUP2 ADD SWAP1 PUSH2 0x116 SWAP2 SWAP1 PUSH2 0x42A JUMP JUMPDEST PUSH2 0x3BF JUMP JUMPDEST PUSH1 0x40 MLOAD PUSH2 0x128 SWAP2 SWAP1 PUSH2 0x559 JUMP JUMPDEST PUSH1 0x40 MLOAD DUP1 SWAP2 SUB SWAP1 RETURN JUMPDEST CALLVALUE DUP1 ISZERO PUSH2 0x13D JUMPI PUSH1 0x0 DUP1 REVERT JUMPDEST POP PUSH2 0x146 PUSH2 0x3D7 JUMP JUMPDEST PUSH1 0x40 MLOAD PUSH2 0x153 SWAP2 SWAP1 PUSH2 0x559 JUMP JUMPDEST PUSH1 0x40 MLOAD DUP1 SWAP2 SUB SWAP1 RETURN JUMPDEST CALLVALUE DUP1 ISZERO PUSH2 0x168 JUMPI PUSH1 0x0 DUP1 REVERT JUMPDEST POP PUSH2 0x171 PUSH2 0x3DD JUMP JUMPDEST PUSH1 0x40 MLOAD PUSH2 0x17E SWAP2 SWAP1 PUSH2 0x559 JUMP JUMPDEST PUSH1 0x40 MLOAD DUP1 SWAP2 SUB SWAP1 RETURN JUMPDEST CALLVALUE DUP1 ISZERO PUSH2 0x193 JUMPI PUSH1 0x0 DUP1 REVERT JUMPDEST POP PUSH2 0x19C PUSH2 0x3E3 JUMP JUMPDEST PUSH1 0x40 MLOAD PUSH2 0x1A9 SWAP2 SWAP1 PUSH2 0x559 JUMP JUMPDEST PUSH1 0x40 MLOAD DUP1 SWAP2 SUB SWAP1 RETURN JUMPDEST CALLVALUE DUP1 ISZERO PUSH2 0x1BE JUMPI PUSH1 0x0 DUP1 REVERT JUMPDEST POP PUSH2 0x1C7 PUSH2 0x3E9 JUMP JUMPDEST PUSH1 0x40 MLOAD PUSH2 0x1D4 SWAP2 SWAP1 PUSH2 0x559 JUMP JUMPDEST PUSH1 0x40 MLOAD DUP1 SWAP2 SUB SWAP1 RETURN JUMPDEST PUSH2 0x1E5 PUSH2 0x212 JUMP JUMPDEST STOP JUMPDEST CALLVALUE DUP1 ISZERO PUSH2 0x1F3 JUMPI PUSH1 0x0 DUP1 REVERT JUMPDEST POP PUSH2 0x1FC PUSH2 0x3EF JUMP JUMPDEST PUSH1 0x40 MLOAD PUSH2 0x209 SWAP2 SWAP1 PUSH2 0x4DE JUMP JUMPDEST PUSH1 0x40 MLOAD DUP1 SWAP2 SUB SWAP1 RETURN JUMPDEST PUSH1 0x4 SLOAD CALLVALUE LT ISZERO PUSH2 0x257 JUMPI PUSH1 0x40 MLOAD PUSH32 0x8C379A000000000000000000000000000000000000000000000000000000000 DUP2 MSTORE PUSH1 0x4 ADD PUSH2 0x24E SWAP1 PUSH2 0x539 JUMP JUMPDEST PUSH1 0x40 MLOAD DUP1 SWAP2 SUB SWAP1 REVERT JUMPDEST PUSH1 0x2 SLOAD PUSH1 0x5 SLOAD LT PUSH2 0x29D JUMPI PUSH1 0x40 MLOAD PUSH32 0x8C379A000000000000000000000000000000000000000000000000000000000 DUP2 MSTORE PUSH1 0x4 ADD PUSH2 0x294 SWAP1 PUSH2 0x4F9 JUMP JUMPDEST PUSH1 0x40 MLOAD DUP1 SWAP2 SUB SWAP1 REVERT JUMPDEST PUSH1 0x3 SLOAD TIMESTAMP LT PUSH2 0x2E1 JUMPI PUSH1 0x40 MLOAD PUSH32 0x8C379A000000000000000000000000000000000000000000000000000000000 DUP2 MSTORE PUSH1 0x4 ADD PUSH2 0x2D8 SWAP1 PUSH2 0x519 JUMP JUMPDEST PUSH1 0x40 MLOAD DUP1 SWAP2 SUB SWAP1 REVERT JUMPDEST PUSH1 0x0 DUP1 PUSH1 0x0 CALLER PUSH20 0xFFFFFFFFFFFFFFFFFFFFFFFFFFFFFFFFFFFFFFFF AND PUSH20 0xFFFFFFFFFFFFFFFFFFFFFFFFFFFFFFFFFFFFFFFF AND DUP2 MSTORE PUSH1 0x20 ADD SWAP1 DUP2 MSTORE PUSH1 0x20 ADD PUSH1 0x0 KECCAK256 SLOAD EQ ISZERO PUSH2 0x341 JUMPI PUSH1 0x6 PUSH1 0x0 DUP2 SLOAD DUP1 SWAP3 SWAP2 SWAP1 PUSH2 0x33B SWAP1 PUSH2 0x617 JUMP JUMPDEST SWAP2 SWAP1 POP SSTORE POP JUMPDEST CALLVALUE PUSH1 0x0 DUP1 CALLER PUSH20 0xFFFFFFFFFFFFFFFFFFFFFFFFFFFFFFFFFFFFFFFF AND PUSH20 0xFFFFFFFFFFFFFFFFFFFFFFFFFFFFFFFFFFFFFFFF AND DUP2 MSTORE PUSH1 0x20 ADD SWAP1 DUP2 MSTORE PUSH1 0x20 ADD PUSH1 0x0 KECCAK256 PUSH1 0x0 DUP3 DUP3 SLOAD PUSH2 0x38F SWAP2 SWAP1 PUSH2 0x585 JUMP JUMPDEST SWAP3 POP POP DUP2 SWAP1 SSTORE POP CALLVALUE PUSH1 0x5 PUSH1 0x0 DUP3 DUP3 SLOAD PUSH2 0x3A8 SWAP2 SWAP1 PUSH2 0x585 JUMP JUMPDEST SWAP3 POP POP DUP2 SWAP1 SSTORE POP JUMP JUMPDEST PUSH1 0x0 SELFBALANCE SWAP1 POP SWAP1 JUMP JUMPDEST PUSH1 0x5 SLOAD DUP2 JUMP JUMPDEST PUSH1 0x0 PUSH1 0x20 MSTORE DUP1 PUSH1 0x0 MSTORE PUSH1 0x40 PUSH1 0x0 KECCAK256 PUSH1 0x0 SWAP2 POP SWAP1 POP SLOAD DUP2 JUMP JUMPDEST PUSH1 0x2 SLOAD DUP2 JUMP JUMPDEST PUSH1 0x6 SLOAD DUP2 JUMP JUMPDEST PUSH1 0x4 SLOAD DUP2 JUMP JUMPDEST PUSH1 0x3 SLOAD DUP2 JUMP JUMPDEST PUSH1 0x1 PUSH1 0x0 SWAP1 SLOAD SWAP1 PUSH2 0x100 EXP SWAP1 DIV PUSH20 0xFFFFFFFFFFFFFFFFFFFFFFFFFFFFFFFFFFFFFFFF AND DUP2 JUMP JUMPDEST PUSH1 0x0 DUP2 CALLDATALOAD SWAP1 POP PUSH2 0x424 DUP2 PUSH2 0x781 JUMP JUMPDEST SWAP3 SWAP2 POP POP JUMP JUMPDEST PUSH1 0x0 PUSH1 0x20 DUP3 DUP5 SUB SLT ISZERO PUSH2 0x440 JUMPI PUSH2 0x43F PUSH2 0x68F JUMP JUMPDEST JUMPDEST PUSH1 0x0 PUSH2 0x44E DUP5 DUP3 DUP6 ADD PUSH2 0x415 JUMP JUMPDEST SWAP2 POP POP SWAP3 SWAP2 POP POP JUMP JUMPDEST PUSH2 0x460 DUP2 PUSH2 0x5DB JUMP JUMPDEST DUP3 MSTORE POP POP JUMP JUMPDEST PUSH1 0x0 PUSH2 0x473 PUSH1 0x21 DUP4 PUSH2 0x574 JUMP JUMPDEST SWAP2 POP PUSH2 0x47E DUP3 PUSH2 0x694 JUMP JUMPDEST PUSH1 0x40 DUP3 ADD SWAP1 POP SWAP2 SWAP1 POP JUMP JUMPDEST PUSH1 0x0 PUSH2 0x496 PUSH1 0x25 DUP4 PUSH2 0x574 JUMP JUMPDEST SWAP2 POP PUSH2 0x4A1 DUP3 PUSH2 0x6E3 JUMP JUMPDEST PUSH1 0x40 DUP3 ADD SWAP1 POP SWAP2 SWAP1 POP JUMP JUMPDEST PUSH1 0x0 PUSH2 0x4B9 PUSH1 0x2E DUP4 PUSH2 0x574 JUMP JUMPDEST SWAP2 POP PUSH2 0x4C4 DUP3 PUSH2 0x732 JUMP JUMPDEST PUSH1 0x40 DUP3 ADD SWAP1 POP SWAP2 SWAP1 POP JUMP JUMPDEST PUSH2 0x4D8 DUP2 PUSH2 0x60D JUMP JUMPDEST DUP3 MSTORE POP POP JUMP JUMPDEST PUSH1 0x0 PUSH1 0x20 DUP3 ADD SWAP1 POP PUSH2 0x4F3 PUSH1 0x0 DUP4 ADD DUP5 PUSH2 0x457 JUMP JUMPDEST SWAP3 SWAP2 POP POP JUMP JUMPDEST PUSH1 0x0 PUSH1 0x20 DUP3 ADD SWAP1 POP DUP2 DUP2 SUB PUSH1 0x0 DUP4 ADD MSTORE PUSH2 0x512 DUP2 PUSH2 0x466 JUMP JUMPDEST SWAP1 POP SWAP2 SWAP1 POP JUMP JUMPDEST PUSH1 0x0 PUSH1 0x20 DUP3 ADD SWAP1 POP DUP2 DUP2 SUB PUSH1 0x0 DUP4 ADD MSTORE PUSH2 0x532 DUP2 PUSH2 0x489 JUMP JUMPDEST SWAP1 POP SWAP2 SWAP1 POP JUMP JUMPDEST PUSH1 0x0 PUSH1 0x20 DUP3 ADD SWAP1 POP DUP2 DUP2 SUB PUSH1 0x0 DUP4 ADD MSTORE PUSH2 0x552 DUP2 PUSH2 0x4AC JUMP JUMPDEST SWAP1 POP SWAP2 SWAP1 POP JUMP JUMPDEST PUSH1 0x0 PUSH1 0x20 DUP3 ADD SWAP1 POP PUSH2 0x56E PUSH1 0x0 DUP4 ADD DUP5 PUSH2 0x4CF JUMP JUMPDEST SWAP3 SWAP2 POP POP JUMP JUMPDEST PUSH1 0x0 DUP3 DUP3 MSTORE PUSH1 0x20 DUP3 ADD SWAP1 POP SWAP3 SWAP2 POP POP JUMP JUMPDEST PUSH1 0x0 PUSH2 0x590 DUP3 PUSH2 0x60D JUMP JUMPDEST SWAP2 POP PUSH2 0x59B DUP4 PUSH2 0x60D JUMP JUMPDEST SWAP3 POP DUP3 PUSH32 0xFFFFFFFFFFFFFFFFFFFFFFFFFFFFFFFFFFFFFFFFFFFFFFFFFFFFFFFFFFFFFFFF SUB DUP3 GT ISZERO PUSH2 0x5D0 JUMPI PUSH2 0x5CF PUSH2 0x660 JUMP JUMPDEST JUMPDEST DUP3 DUP3 ADD SWAP1 POP SWAP3 SWAP2 POP POP JUMP JUMPDEST PUSH1 0x0 PUSH2 0x5E6 DUP3 PUSH2 0x5ED JUMP JUMPDEST SWAP1 POP SWAP2 SWAP1 POP JUMP JUMPDEST PUSH1 0x0 PUSH20 0xFFFFFFFFFFFFFFFFFFFFFFFFFFFFFFFFFFFFFFFF DUP3 AND SWAP1 POP SWAP2 SWAP1 POP JUMP JUMPDEST PUSH1 0x0 DUP2 SWAP1 POP SWAP2 SWAP1 POP JUMP JUMPDEST PUSH1 0x0 PUSH2 0x622 DUP3 PUSH2 0x60D JUMP JUMPDEST SWAP2 POP PUSH32 0xFFFFFFFFFFFFFFFFFFFFFFFFFFFFFFFFFFFFFFFFFFFFFFFFFFFFFFFFFFFFFFFF DUP3 EQ ISZERO PUSH2 0x655 JUMPI PUSH2 0x654 PUSH2 0x660 JUMP JUMPDEST JUMPDEST PUSH1 0x1 DUP3 ADD SWAP1 POP SWAP2 SWAP1 POP JUMP JUMPDEST PUSH32 0x4E487B7100000000000000000000000000000000000000000000000000000000 PUSH1 0x0 MSTORE PUSH1 0x11 PUSH1 0x4 MSTORE PUSH1 0x24 PUSH1 0x0 REVERT JUMPDEST PUSH1 0x0 DUP1 REVERT JUMPDEST PUSH32 0x476F616C20666F722066756E64696E6720686173206265656E20726561636865 PUSH1 0x0 DUP3 ADD MSTORE PUSH32 0x6400000000000000000000000000000000000000000000000000000000000000 PUSH1 0x20 DUP3 ADD MSTORE POP JUMP JUMPDEST PUSH32 0x54696D65206672616D652073657420666F7220756E64696E672068617320656C PUSH1 0x0 DUP3 ADD MSTORE PUSH32 0x6173706564000000000000000000000000000000000000000000000000000000 PUSH1 0x20 DUP3 ADD MSTORE POP JUMP JUMPDEST PUSH32 0x416D6F756E74206D7573742062652067726561746572207468616E2074686520 PUSH1 0x0 DUP3 ADD MSTORE PUSH32 0x6D696E696D756D20616D6F756E74000000000000000000000000000000000000 PUSH1 0x20 DUP3 ADD MSTORE POP JUMP JUMPDEST PUSH2 0x78A DUP2 PUSH2 0x5DB JUMP JUMPDEST DUP2 EQ PUSH2 0x795 JUMPI PUSH1 0x0 DUP1 REVERT JUMPDEST POP JUMP INVALID LOG2 PUSH5 0x6970667358 0x22 SLT KECCAK256 0x2A BLOCKHASH 0xDC EXTCODESIZE 0x21 0xB2 0x1F PUSH30 0x78B5011ABEFA32EFF84910FEF24A2A845954DC8F231DA46464736F6C6343 STOP ADDMOD SMOD STOP CALLER "
				},
				"gasEstimates": {
					"creation": {
						"codeDepositCost": "399600",
						"executionCost": "infinite",
						"totalCost": "infinite"
					},
					"external": {
						"admin()": "2602",
						"contribute()": "infinite",
						"contributors(address)": "2859",
						"deadLine()": "2473",
						"getBalance()": "340",
						"goal()": "2496",
						"minimumAmount()": "2451",
						"numberOfContributors()": "2429",
						"totalAmount()": "2452"
					}
				},
				"methodIdentifiers": {
					"admin()": "f851a440",
					"contribute()": "d7bb99ba",
					"contributors(address)": "1f6d4942",
					"deadLine()": "bef3a083",
					"getBalance()": "12065fe0",
					"goal()": "40193883",
					"minimumAmount()": "bb0c8298",
					"numberOfContributors()": "4377cf65",
					"totalAmount()": "1a39d8ef"
				}
			},
			"storageLayout": {
				"storage": [
					{
						"astId": 5,
						"contract": "contracts/Crowdfunding.sol:CrowdFunding",
						"label": "contributors",
						"offset": 0,
						"slot": "0",
						"type": "t_mapping(t_address,t_uint256)"
					},
					{
						"astId": 7,
						"contract": "contracts/Crowdfunding.sol:CrowdFunding",
						"label": "admin",
						"offset": 0,
						"slot": "1",
						"type": "t_address"
					},
					{
						"astId": 9,
						"contract": "contracts/Crowdfunding.sol:CrowdFunding",
						"label": "goal",
						"offset": 0,
						"slot": "2",
						"type": "t_uint256"
					},
					{
						"astId": 11,
						"contract": "contracts/Crowdfunding.sol:CrowdFunding",
						"label": "deadLine",
						"offset": 0,
						"slot": "3",
						"type": "t_uint256"
					},
					{
						"astId": 13,
						"contract": "contracts/Crowdfunding.sol:CrowdFunding",
						"label": "minimumAmount",
						"offset": 0,
						"slot": "4",
						"type": "t_uint256"
					},
					{
						"astId": 15,
						"contract": "contracts/Crowdfunding.sol:CrowdFunding",
						"label": "totalAmount",
						"offset": 0,
						"slot": "5",
						"type": "t_uint256"
					},
					{
						"astId": 17,
						"contract": "contracts/Crowdfunding.sol:CrowdFunding",
						"label": "numberOfContributors",
						"offset": 0,
						"slot": "6",
						"type": "t_uint256"
					}
				],
				"types": {
					"t_address": {
						"encoding": "inplace",
						"label": "address",
						"numberOfBytes": "20"
					},
					"t_mapping(t_address,t_uint256)": {
						"encoding": "mapping",
						"key": "t_address",
						"label": "mapping(address => uint256)",
						"numberOfBytes": "32",
						"value": "t_uint256"
					},
					"t_uint256": {
						"encoding": "inplace",
						"label": "uint256",
						"numberOfBytes": "32"
					}
				}
			},
			"userdoc": {
				"kind": "user",
				"methods": {},
				"version": 1
			}
		}
	}
}