{
	"contracts/TodoList.sol": {
		"TodoList": {
			"abi": [
				{
					"inputs": [],
					"name": "TodoListNumber",
					"outputs": [
						{
							"internalType": "uint256",
							"name": "",
							"type": "uint256"
						}
					],
					"stateMutability": "view",
					"type": "function"
				},
				{
					"inputs": [
						{
							"internalType": "string",
							"name": "_details",
							"type": "string"
						}
					],
					"name": "createToDo",
					"outputs": [],
					"stateMutability": "nonpayable",
					"type": "function"
				}
			],
			"devdoc": {
				"kind": "dev",
				"methods": {},
				"version": 1
			},
			"evm": {
				"assembly": "    /* \"contracts/TodoList.sol\":73:386  contract TodoList{\r... */\n  mstore(0x40, 0x80)\n  callvalue\n  dup1\n  iszero\n  tag_1\n  jumpi\n  0x00\n  dup1\n  revert\ntag_1:\n  pop\n  dataSize(sub_0)\n  dup1\n  dataOffset(sub_0)\n  0x00\n  codecopy\n  0x00\n  return\nstop\n\nsub_0: assembly {\n        /* \"contracts/TodoList.sol\":73:386  contract TodoList{\r... */\n      mstore(0x40, 0x80)\n      callvalue\n      dup1\n      iszero\n      tag_1\n      jumpi\n      0x00\n      dup1\n      revert\n    tag_1:\n      pop\n      jumpi(tag_2, lt(calldatasize, 0x04))\n      shr(0xe0, calldataload(0x00))\n      dup1\n      0x60cf802f\n      eq\n      tag_3\n      jumpi\n      dup1\n      0xa25b79ca\n      eq\n      tag_4\n      jumpi\n    tag_2:\n      0x00\n      dup1\n      revert\n        /* \"contracts/TodoList.sol\":234:381  function createToDo(string memory _details) public {\r... */\n    tag_3:\n      tag_5\n      0x04\n      dup1\n      calldatasize\n      sub\n      dup2\n      add\n      swap1\n      tag_6\n      swap2\n      swap1\n      tag_7\n      jump\t// in\n    tag_6:\n      tag_8\n      jump\t// in\n    tag_5:\n      stop\n        /* \"contracts/TodoList.sol\":99:125  uint public TodoListNumber */\n    tag_4:\n      tag_9\n      tag_10\n      jump\t// in\n    tag_9:\n      mload(0x40)\n      tag_11\n      swap2\n      swap1\n      tag_12\n      jump\t// in\n    tag_11:\n      mload(0x40)\n      dup1\n      swap2\n      sub\n      swap1\n      return\n        /* \"contracts/TodoList.sol\":234:381  function createToDo(string memory _details) public {\r... */\n    tag_8:\n        /* \"contracts/TodoList.sol\":357:371  TodoListNumber */\n      0x00\n      dup1\n        /* \"contracts/TodoList.sol\":357:373  TodoListNumber++ */\n      dup2\n      sload\n      dup1\n      swap3\n      swap2\n      swap1\n      tag_14\n      swap1\n      tag_15\n      jump\t// in\n    tag_14:\n      swap2\n      swap1\n      pop\n      sstore\n      pop\n        /* \"contracts/TodoList.sol\":234:381  function createToDo(string memory _details) public {\r... */\n      pop\n      jump\t// out\n        /* \"contracts/TodoList.sol\":99:125  uint public TodoListNumber */\n    tag_10:\n      sload(0x00)\n      dup2\n      jump\t// out\n        /* \"#utility.yul\":7:419   */\n    tag_17:\n        /* \"#utility.yul\":85:90   */\n      0x00\n        /* \"#utility.yul\":110:176   */\n      tag_19\n        /* \"#utility.yul\":126:175   */\n      tag_20\n        /* \"#utility.yul\":168:174   */\n      dup5\n        /* \"#utility.yul\":126:175   */\n      tag_21\n      jump\t// in\n    tag_20:\n        /* \"#utility.yul\":110:176   */\n      tag_22\n      jump\t// in\n    tag_19:\n        /* \"#utility.yul\":101:176   */\n      swap1\n      pop\n        /* \"#utility.yul\":199:205   */\n      dup3\n        /* \"#utility.yul\":192:197   */\n      dup2\n        /* \"#utility.yul\":185:206   */\n      mstore\n        /* \"#utility.yul\":237:241   */\n      0x20\n        /* \"#utility.yul\":230:235   */\n      dup2\n        /* \"#utility.yul\":226:242   */\n      add\n        /* \"#utility.yul\":275:278   */\n      dup5\n        /* \"#utility.yul\":266:272   */\n      dup5\n        /* \"#utility.yul\":261:264   */\n      dup5\n        /* \"#utility.yul\":257:273   */\n      add\n        /* \"#utility.yul\":254:279   */\n      gt\n        /* \"#utility.yul\":251:363   */\n      iszero\n      tag_23\n      jumpi\n        /* \"#utility.yul\":282:361   */\n      tag_24\n      tag_25\n      jump\t// in\n    tag_24:\n        /* \"#utility.yul\":251:363   */\n    tag_23:\n        /* \"#utility.yul\":372:413   */\n      tag_26\n        /* \"#utility.yul\":406:412   */\n      dup5\n        /* \"#utility.yul\":401:404   */\n      dup3\n        /* \"#utility.yul\":396:399   */\n      dup6\n        /* \"#utility.yul\":372:413   */\n      tag_27\n      jump\t// in\n    tag_26:\n        /* \"#utility.yul\":91:419   */\n      pop\n        /* \"#utility.yul\":7:419   */\n      swap4\n      swap3\n      pop\n      pop\n      pop\n      jump\t// out\n        /* \"#utility.yul\":439:779   */\n    tag_28:\n        /* \"#utility.yul\":495:500   */\n      0x00\n        /* \"#utility.yul\":544:547   */\n      dup3\n        /* \"#utility.yul\":537:541   */\n      0x1f\n        /* \"#utility.yul\":529:535   */\n      dup4\n        /* \"#utility.yul\":525:542   */\n      add\n        /* \"#utility.yul\":521:548   */\n      slt\n        /* \"#utility.yul\":511:633   */\n      tag_30\n      jumpi\n        /* \"#utility.yul\":552:631   */\n      tag_31\n      tag_32\n      jump\t// in\n    tag_31:\n        /* \"#utility.yul\":511:633   */\n    tag_30:\n        /* \"#utility.yul\":669:675   */\n      dup2\n        /* \"#utility.yul\":656:676   */\n      calldataload\n        /* \"#utility.yul\":694:773   */\n      tag_33\n        /* \"#utility.yul\":769:772   */\n      dup5\n        /* \"#utility.yul\":761:767   */\n      dup3\n        /* \"#utility.yul\":754:758   */\n      0x20\n        /* \"#utility.yul\":746:752   */\n      dup7\n        /* \"#utility.yul\":742:759   */\n      add\n        /* \"#utility.yul\":694:773   */\n      tag_17\n      jump\t// in\n    tag_33:\n        /* \"#utility.yul\":685:773   */\n      swap2\n      pop\n        /* \"#utility.yul\":501:779   */\n      pop\n        /* \"#utility.yul\":439:779   */\n      swap3\n      swap2\n      pop\n      pop\n      jump\t// out\n        /* \"#utility.yul\":785:1294   */\n    tag_7:\n        /* \"#utility.yul\":854:860   */\n      0x00\n        /* \"#utility.yul\":903:905   */\n      0x20\n        /* \"#utility.yul\":891:900   */\n      dup3\n        /* \"#utility.yul\":882:889   */\n      dup5\n        /* \"#utility.yul\":878:901   */\n      sub\n        /* \"#utility.yul\":874:906   */\n      slt\n        /* \"#utility.yul\":871:990   */\n      iszero\n      tag_35\n      jumpi\n        /* \"#utility.yul\":909:988   */\n      tag_36\n      tag_37\n      jump\t// in\n    tag_36:\n        /* \"#utility.yul\":871:990   */\n    tag_35:\n        /* \"#utility.yul\":1057:1058   */\n      0x00\n        /* \"#utility.yul\":1046:1055   */\n      dup3\n        /* \"#utility.yul\":1042:1059   */\n      add\n        /* \"#utility.yul\":1029:1060   */\n      calldataload\n        /* \"#utility.yul\":1087:1105   */\n      0xffffffffffffffff\n        /* \"#utility.yul\":1079:1085   */\n      dup2\n        /* \"#utility.yul\":1076:1106   */\n      gt\n        /* \"#utility.yul\":1073:1190   */\n      iszero\n      tag_38\n      jumpi\n        /* \"#utility.yul\":1109:1188   */\n      tag_39\n      tag_40\n      jump\t// in\n    tag_39:\n        /* \"#utility.yul\":1073:1190   */\n    tag_38:\n        /* \"#utility.yul\":1214:1277   */\n      tag_41\n        /* \"#utility.yul\":1269:1276   */\n      dup5\n        /* \"#utility.yul\":1260:1266   */\n      dup3\n        /* \"#utility.yul\":1249:1258   */\n      dup6\n        /* \"#utility.yul\":1245:1267   */\n      add\n        /* \"#utility.yul\":1214:1277   */\n      tag_28\n      jump\t// in\n    tag_41:\n        /* \"#utility.yul\":1204:1277   */\n      swap2\n      pop\n        /* \"#utility.yul\":1000:1287   */\n      pop\n        /* \"#utility.yul\":785:1294   */\n      swap3\n      swap2\n      pop\n      pop\n      jump\t// out\n        /* \"#utility.yul\":1300:1418   */\n    tag_42:\n        /* \"#utility.yul\":1387:1411   */\n      tag_44\n        /* \"#utility.yul\":1405:1410   */\n      dup2\n        /* \"#utility.yul\":1387:1411   */\n      tag_45\n      jump\t// in\n    tag_44:\n        /* \"#utility.yul\":1382:1385   */\n      dup3\n        /* \"#utility.yul\":1375:1412   */\n      mstore\n        /* \"#utility.yul\":1300:1418   */\n      pop\n      pop\n      jump\t// out\n        /* \"#utility.yul\":1424:1646   */\n    tag_12:\n        /* \"#utility.yul\":1517:1521   */\n      0x00\n        /* \"#utility.yul\":1555:1557   */\n      0x20\n        /* \"#utility.yul\":1544:1553   */\n      dup3\n        /* \"#utility.yul\":1540:1558   */\n      add\n        /* \"#utility.yul\":1532:1558   */\n      swap1\n      pop\n        /* \"#utility.yul\":1568:1639   */\n      tag_47\n        /* \"#utility.yul\":1636:1637   */\n      0x00\n        /* \"#utility.yul\":1625:1634   */\n      dup4\n        /* \"#utility.yul\":1621:1638   */\n      add\n        /* \"#utility.yul\":1612:1618   */\n      dup5\n        /* \"#utility.yul\":1568:1639   */\n      tag_42\n      jump\t// in\n    tag_47:\n        /* \"#utility.yul\":1424:1646   */\n      swap3\n      swap2\n      pop\n      pop\n      jump\t// out\n        /* \"#utility.yul\":1652:1781   */\n    tag_22:\n        /* \"#utility.yul\":1686:1692   */\n      0x00\n        /* \"#utility.yul\":1713:1733   */\n      tag_49\n      tag_50\n      jump\t// in\n    tag_49:\n        /* \"#utility.yul\":1703:1733   */\n      swap1\n      pop\n        /* \"#utility.yul\":1742:1775   */\n      tag_51\n        /* \"#utility.yul\":1770:1774   */\n      dup3\n        /* \"#utility.yul\":1762:1768   */\n      dup3\n        /* \"#utility.yul\":1742:1775   */\n      tag_52\n      jump\t// in\n    tag_51:\n        /* \"#utility.yul\":1652:1781   */\n      swap2\n      swap1\n      pop\n      jump\t// out\n        /* \"#utility.yul\":1787:1862   */\n    tag_50:\n        /* \"#utility.yul\":1820:1826   */\n      0x00\n        /* \"#utility.yul\":1853:1855   */\n      0x40\n        /* \"#utility.yul\":1847:1856   */\n      mload\n        /* \"#utility.yul\":1837:1856   */\n      swap1\n      pop\n        /* \"#utility.yul\":1787:1862   */\n      swap1\n      jump\t// out\n        /* \"#utility.yul\":1868:2176   */\n    tag_21:\n        /* \"#utility.yul\":1930:1934   */\n      0x00\n        /* \"#utility.yul\":2020:2038   */\n      0xffffffffffffffff\n        /* \"#utility.yul\":2012:2018   */\n      dup3\n        /* \"#utility.yul\":2009:2039   */\n      gt\n        /* \"#utility.yul\":2006:2062   */\n      iszero\n      tag_55\n      jumpi\n        /* \"#utility.yul\":2042:2060   */\n      tag_56\n      tag_57\n      jump\t// in\n    tag_56:\n        /* \"#utility.yul\":2006:2062   */\n    tag_55:\n        /* \"#utility.yul\":2080:2109   */\n      tag_58\n        /* \"#utility.yul\":2102:2108   */\n      dup3\n        /* \"#utility.yul\":2080:2109   */\n      tag_59\n      jump\t// in\n    tag_58:\n        /* \"#utility.yul\":2072:2109   */\n      swap1\n      pop\n        /* \"#utility.yul\":2164:2168   */\n      0x20\n        /* \"#utility.yul\":2158:2162   */\n      dup2\n        /* \"#utility.yul\":2154:2169   */\n      add\n        /* \"#utility.yul\":2146:2169   */\n      swap1\n      pop\n        /* \"#utility.yul\":1868:2176   */\n      swap2\n      swap1\n      pop\n      jump\t// out\n        /* \"#utility.yul\":2182:2259   */\n    tag_45:\n        /* \"#utility.yul\":2219:2226   */\n      0x00\n        /* \"#utility.yul\":2248:2253   */\n      dup2\n        /* \"#utility.yul\":2237:2253   */\n      swap1\n      pop\n        /* \"#utility.yul\":2182:2259   */\n      swap2\n      swap1\n      pop\n      jump\t// out\n        /* \"#utility.yul\":2265:2419   */\n    tag_27:\n        /* \"#utility.yul\":2349:2355   */\n      dup3\n        /* \"#utility.yul\":2344:2347   */\n      dup2\n        /* \"#utility.yul\":2339:2342   */\n      dup4\n        /* \"#utility.yul\":2326:2356   */\n      calldatacopy\n        /* \"#utility.yul\":2411:2412   */\n      0x00\n        /* \"#utility.yul\":2402:2408   */\n      dup4\n        /* \"#utility.yul\":2397:2400   */\n      dup4\n        /* \"#utility.yul\":2393:2409   */\n      add\n        /* \"#utility.yul\":2386:2413   */\n      mstore\n        /* \"#utility.yul\":2265:2419   */\n      pop\n      pop\n      pop\n      jump\t// out\n        /* \"#utility.yul\":2425:2706   */\n    tag_52:\n        /* \"#utility.yul\":2508:2535   */\n      tag_63\n        /* \"#utility.yul\":2530:2534   */\n      dup3\n        /* \"#utility.yul\":2508:2535   */\n      tag_59\n      jump\t// in\n    tag_63:\n        /* \"#utility.yul\":2500:2506   */\n      dup2\n        /* \"#utility.yul\":2496:2536   */\n      add\n        /* \"#utility.yul\":2638:2644   */\n      dup2\n        /* \"#utility.yul\":2626:2636   */\n      dup2\n        /* \"#utility.yul\":2623:2645   */\n      lt\n        /* \"#utility.yul\":2602:2620   */\n      0xffffffffffffffff\n        /* \"#utility.yul\":2590:2600   */\n      dup3\n        /* \"#utility.yul\":2587:2621   */\n      gt\n        /* \"#utility.yul\":2584:2646   */\n      or\n        /* \"#utility.yul\":2581:2669   */\n      iszero\n      tag_64\n      jumpi\n        /* \"#utility.yul\":2649:2667   */\n      tag_65\n      tag_57\n      jump\t// in\n    tag_65:\n        /* \"#utility.yul\":2581:2669   */\n    tag_64:\n        /* \"#utility.yul\":2689:2699   */\n      dup1\n        /* \"#utility.yul\":2685:2687   */\n      0x40\n        /* \"#utility.yul\":2678:2700   */\n      mstore\n        /* \"#utility.yul\":2468:2706   */\n      pop\n        /* \"#utility.yul\":2425:2706   */\n      pop\n      pop\n      jump\t// out\n        /* \"#utility.yul\":2712:2945   */\n    tag_15:\n        /* \"#utility.yul\":2751:2754   */\n      0x00\n        /* \"#utility.yul\":2774:2798   */\n      tag_67\n        /* \"#utility.yul\":2792:2797   */\n      dup3\n        /* \"#utility.yul\":2774:2798   */\n      tag_45\n      jump\t// in\n    tag_67:\n        /* \"#utility.yul\":2765:2798   */\n      swap2\n      pop\n        /* \"#utility.yul\":2820:2886   */\n      0xffffffffffffffffffffffffffffffffffffffffffffffffffffffffffffffff\n        /* \"#utility.yul\":2813:2818   */\n      dup3\n        /* \"#utility.yul\":2810:2887   */\n      eq\n        /* \"#utility.yul\":2807:2910   */\n      iszero\n      tag_68\n      jumpi\n        /* \"#utility.yul\":2890:2908   */\n      tag_69\n      tag_70\n      jump\t// in\n    tag_69:\n        /* \"#utility.yul\":2807:2910   */\n    tag_68:\n        /* \"#utility.yul\":2937:2938   */\n      0x01\n        /* \"#utility.yul\":2930:2935   */\n      dup3\n        /* \"#utility.yul\":2926:2939   */\n      add\n        /* \"#utility.yul\":2919:2939   */\n      swap1\n      pop\n        /* \"#utility.yul\":2712:2945   */\n      swap2\n      swap1\n      pop\n      jump\t// out\n        /* \"#utility.yul\":2951:3131   */\n    tag_70:\n        /* \"#utility.yul\":2999:3076   */\n      0x4e487b7100000000000000000000000000000000000000000000000000000000\n        /* \"#utility.yul\":2996:2997   */\n      0x00\n        /* \"#utility.yul\":2989:3077   */\n      mstore\n        /* \"#utility.yul\":3096:3100   */\n      0x11\n        /* \"#utility.yul\":3093:3094   */\n      0x04\n        /* \"#utility.yul\":3086:3101   */\n      mstore\n        /* \"#utility.yul\":3120:3124   */\n      0x24\n        /* \"#utility.yul\":3117:3118   */\n      0x00\n        /* \"#utility.yul\":3110:3125   */\n      revert\n        /* \"#utility.yul\":3137:3317   */\n    tag_57:\n        /* \"#utility.yul\":3185:3262   */\n      0x4e487b7100000000000000000000000000000000000000000000000000000000\n        /* \"#utility.yul\":3182:3183   */\n      0x00\n        /* \"#utility.yul\":3175:3263   */\n      mstore\n        /* \"#utility.yul\":3282:3286   */\n      0x41\n        /* \"#utility.yul\":3279:3280   */\n      0x04\n        /* \"#utility.yul\":3272:3287   */\n      mstore\n        /* \"#utility.yul\":3306:3310   */\n      0x24\n        /* \"#utility.yul\":3303:3304   */\n      0x00\n        /* \"#utility.yul\":3296:3311   */\n      revert\n        /* \"#utility.yul\":3323:3440   */\n    tag_32:\n        /* \"#utility.yul\":3432:3433   */\n      0x00\n        /* \"#utility.yul\":3429:3430   */\n      dup1\n        /* \"#utility.yul\":3422:3434   */\n      revert\n        /* \"#utility.yul\":3446:3563   */\n    tag_25:\n        /* \"#utility.yul\":3555:3556   */\n      0x00\n        /* \"#utility.yul\":3552:3553   */\n      dup1\n        /* \"#utility.yul\":3545:3557   */\n      revert\n        /* \"#utility.yul\":3569:3686   */\n    tag_40:\n        /* \"#utility.yul\":3678:3679   */\n      0x00\n        /* \"#utility.yul\":3675:3676   */\n      dup1\n        /* \"#utility.yul\":3668:3680   */\n      revert\n        /* \"#utility.yul\":3692:3809   */\n    tag_37:\n        /* \"#utility.yul\":3801:3802   */\n      0x00\n        /* \"#utility.yul\":3798:3799   */\n      dup1\n        /* \"#utility.yul\":3791:3803   */\n      revert\n        /* \"#utility.yul\":3815:3917   */\n    tag_59:\n        /* \"#utility.yul\":3856:3862   */\n      0x00\n        /* \"#utility.yul\":3907:3909   */\n      0x1f\n        /* \"#utility.yul\":3903:3910   */\n      not\n        /* \"#utility.yul\":3898:3900   */\n      0x1f\n        /* \"#utility.yul\":3891:3896   */\n      dup4\n        /* \"#utility.yul\":3887:3901   */\n      add\n        /* \"#utility.yul\":3883:3911   */\n      and\n        /* \"#utility.yul\":3873:3911   */\n      swap1\n      pop\n        /* \"#utility.yul\":3815:3917   */\n      swap2\n      swap1\n      pop\n      jump\t// out\n\n    auxdata: 0xa26469706673582212208284dbc005fdd20472321d574007845ae321d405ae80a32ee6d613630f8756f864736f6c63430008070033\n}\n",
				"bytecode": {
					"linkReferences": {},
					"object": "608060405234801561001057600080fd5b5061031a806100206000396000f3fe608060405234801561001057600080fd5b50600436106100365760003560e01c806360cf802f1461003b578063a25b79ca14610057575b600080fd5b61005560048036038101906100509190610105565b610075565b005b61005f61008f565b60405161006c919061015d565b60405180910390f35b60008081548092919061008790610218565b919050555050565b60005481565b60006100a86100a38461019d565b610178565b9050828152602081018484840111156100c4576100c36102c4565b5b6100cf8482856101d8565b509392505050565b600082601f8301126100ec576100eb6102bf565b5b81356100fc848260208601610095565b91505092915050565b60006020828403121561011b5761011a6102ce565b5b600082013567ffffffffffffffff811115610139576101386102c9565b5b610145848285016100d7565b91505092915050565b610157816101ce565b82525050565b6000602082019050610172600083018461014e565b92915050565b6000610182610193565b905061018e82826101e7565b919050565b6000604051905090565b600067ffffffffffffffff8211156101b8576101b7610290565b5b6101c1826102d3565b9050602081019050919050565b6000819050919050565b82818337600083830152505050565b6101f0826102d3565b810181811067ffffffffffffffff8211171561020f5761020e610290565b5b80604052505050565b6000610223826101ce565b91507fffffffffffffffffffffffffffffffffffffffffffffffffffffffffffffffff82141561025657610255610261565b5b600182019050919050565b7f4e487b7100000000000000000000000000000000000000000000000000000000600052601160045260246000fd5b7f4e487b7100000000000000000000000000000000000000000000000000000000600052604160045260246000fd5b600080fd5b600080fd5b600080fd5b600080fd5b6000601f19601f830116905091905056fea26469706673582212208284dbc005fdd20472321d574007845ae321d405ae80a32ee6d613630f8756f864736f6c63430008070033",
					"opcodes": "PUSH1 0x80 PUSH1 0x40 MSTORE CALLVALUE DUP1 ISZERO PUSH2 0x10 JUMPI PUSH1 0x0 DUP1 REVERT JUMPDEST POP PUSH2 0x31A DUP1 PUSH2 0x20 PUSH1 0x0 CODECOPY PUSH1 0x0 RETURN INVALID PUSH1 0x80 PUSH1 0x40 MSTORE CALLVALUE DUP1 ISZERO PUSH2 0x10 JUMPI PUSH1 0x0 DUP1 REVERT JUMPDEST POP PUSH1 0x4 CALLDATASIZE LT PUSH2 0x36 JUMPI PUSH1 0x0 CALLDATALOAD PUSH1 0xE0 SHR DUP1 PUSH4 0x60CF802F EQ PUSH2 0x3B JUMPI DUP1 PUSH4 0xA25B79CA EQ PUSH2 0x57 JUMPI JUMPDEST PUSH1 0x0 DUP1 REVERT JUMPDEST PUSH2 0x55 PUSH1 0x4 DUP1 CALLDATASIZE SUB DUP2 ADD SWAP1 PUSH2 0x50 SWAP2 SWAP1 PUSH2 0x105 JUMP JUMPDEST PUSH2 0x75 JUMP JUMPDEST STOP JUMPDEST PUSH2 0x5F PUSH2 0x8F JUMP JUMPDEST PUSH1 0x40 MLOAD PUSH2 0x6C SWAP2 SWAP1 PUSH2 0x15D JUMP JUMPDEST PUSH1 0x40 MLOAD DUP1 SWAP2 SUB SWAP1 RETURN JUMPDEST PUSH1 0x0 DUP1 DUP2 SLOAD DUP1 SWAP3 SWAP2 SWAP1 PUSH2 0x87 SWAP1 PUSH2 0x218 JUMP JUMPDEST SWAP2 SWAP1 POP SSTORE POP POP JUMP JUMPDEST PUSH1 0x0 SLOAD DUP2 JUMP JUMPDEST PUSH1 0x0 PUSH2 0xA8 PUSH2 0xA3 DUP5 PUSH2 0x19D JUMP JUMPDEST PUSH2 0x178 JUMP JUMPDEST SWAP1 POP DUP3 DUP2 MSTORE PUSH1 0x20 DUP2 ADD DUP5 DUP5 DUP5 ADD GT ISZERO PUSH2 0xC4 JUMPI PUSH2 0xC3 PUSH2 0x2C4 JUMP JUMPDEST JUMPDEST PUSH2 0xCF DUP5 DUP3 DUP6 PUSH2 0x1D8 JUMP JUMPDEST POP SWAP4 SWAP3 POP POP POP JUMP JUMPDEST PUSH1 0x0 DUP3 PUSH1 0x1F DUP4 ADD SLT PUSH2 0xEC JUMPI PUSH2 0xEB PUSH2 0x2BF JUMP JUMPDEST JUMPDEST DUP2 CALLDATALOAD PUSH2 0xFC DUP5 DUP3 PUSH1 0x20 DUP7 ADD PUSH2 0x95 JUMP JUMPDEST SWAP2 POP POP SWAP3 SWAP2 POP POP JUMP JUMPDEST PUSH1 0x0 PUSH1 0x20 DUP3 DUP5 SUB SLT ISZERO PUSH2 0x11B JUMPI PUSH2 0x11A PUSH2 0x2CE JUMP JUMPDEST JUMPDEST PUSH1 0x0 DUP3 ADD CALLDATALOAD PUSH8 0xFFFFFFFFFFFFFFFF DUP2 GT ISZERO PUSH2 0x139 JUMPI PUSH2 0x138 PUSH2 0x2C9 JUMP JUMPDEST JUMPDEST PUSH2 0x145 DUP5 DUP3 DUP6 ADD PUSH2 0xD7 JUMP JUMPDEST SWAP2 POP POP SWAP3 SWAP2 POP POP JUMP JUMPDEST PUSH2 0x157 DUP2 PUSH2 0x1CE JUMP JUMPDEST DUP3 MSTORE POP POP JUMP JUMPDEST PUSH1 0x0 PUSH1 0x20 DUP3 ADD SWAP1 POP PUSH2 0x172 PUSH1 0x0 DUP4 ADD DUP5 PUSH2 0x14E JUMP JUMPDEST SWAP3 SWAP2 POP POP JUMP JUMPDEST PUSH1 0x0 PUSH2 0x182 PUSH2 0x193 JUMP JUMPDEST SWAP1 POP PUSH2 0x18E DUP3 DUP3 PUSH2 0x1E7 JUMP JUMPDEST SWAP2 SWAP1 POP JUMP JUMPDEST PUSH1 0x0 PUSH1 0x40 MLOAD SWAP1 POP SWAP1 JUMP JUMPDEST PUSH1 0x0 PUSH8 0xFFFFFFFFFFFFFFFF DUP3 GT ISZERO PUSH2 0x1B8 JUMPI PUSH2 0x1B7 PUSH2 0x290 JUMP JUMPDEST JUMPDEST PUSH2 0x1C1 DUP3 PUSH2 0x2D3 JUMP JUMPDEST SWAP1 POP PUSH1 0x20 DUP2 ADD SWAP1 POP SWAP2 SWAP1 POP JUMP JUMPDEST PUSH1 0x0 DUP2 SWAP1 POP SWAP2 SWAP1 POP JUMP JUMPDEST DUP3 DUP2 DUP4 CALLDATACOPY PUSH1 0x0 DUP4 DUP4 ADD MSTORE POP POP POP JUMP JUMPDEST PUSH2 0x1F0 DUP3 PUSH2 0x2D3 JUMP JUMPDEST DUP2 ADD DUP2 DUP2 LT PUSH8 0xFFFFFFFFFFFFFFFF DUP3 GT OR ISZERO PUSH2 0x20F JUMPI PUSH2 0x20E PUSH2 0x290 JUMP JUMPDEST JUMPDEST DUP1 PUSH1 0x40 MSTORE POP POP POP JUMP JUMPDEST PUSH1 0x0 PUSH2 0x223 DUP3 PUSH2 0x1CE JUMP JUMPDEST SWAP2 POP PUSH32 0xFFFFFFFFFFFFFFFFFFFFFFFFFFFFFFFFFFFFFFFFFFFFFFFFFFFFFFFFFFFFFFFF DUP3 EQ ISZERO PUSH2 0x256 JUMPI PUSH2 0x255 PUSH2 0x261 JUMP JUMPDEST JUMPDEST PUSH1 0x1 DUP3 ADD SWAP1 POP SWAP2 SWAP1 POP JUMP JUMPDEST PUSH32 0x4E487B7100000000000000000000000000000000000000000000000000000000 PUSH1 0x0 MSTORE PUSH1 0x11 PUSH1 0x4 MSTORE PUSH1 0x24 PUSH1 0x0 REVERT JUMPDEST PUSH32 0x4E487B7100000000000000000000000000000000000000000000000000000000 PUSH1 0x0 MSTORE PUSH1 0x41 PUSH1 0x4 MSTORE PUSH1 0x24 PUSH1 0x0 REVERT JUMPDEST PUSH1 0x0 DUP1 REVERT JUMPDEST PUSH1 0x0 DUP1 REVERT JUMPDEST PUSH1 0x0 DUP1 REVERT JUMPDEST PUSH1 0x0 DUP1 REVERT JUMPDEST PUSH1 0x0 PUSH1 0x1F NOT PUSH1 0x1F DUP4 ADD AND SWAP1 POP SWAP2 SWAP1 POP JUMP INVALID LOG2 PUSH5 0x6970667358 0x22 SLT KECCAK256 DUP3 DUP5 0xDB 0xC0 SDIV REVERT 0xD2 DIV PUSH19 0x321D574007845AE321D405AE80A32EE6D61363 0xF DUP8 JUMP 0xF8 PUSH5 0x736F6C6343 STOP ADDMOD SMOD STOP CALLER "
				},
				"gasEstimates": {
					"creation": {
						"codeDepositCost": "158800",
						"executionCost": "202",
						"totalCost": "159002"
					},
					"external": {
						"TodoListNumber()": "2429",
						"createToDo(string)": "infinite"
					}
				},
				"methodIdentifiers": {
					"TodoListNumber()": "a25b79ca",
					"createToDo(string)": "60cf802f"
				}
			},
			"storageLayout": {
				"storage": [
					{
						"astId": 3,
						"contract": "contracts/TodoList.sol:TodoList",
						"label": "TodoListNumber",
						"offset": 0,
						"slot": "0",
						"type": "t_uint256"
					}
				],
				"types": {
					"t_uint256": {
						"encoding": "inplace",
						"label": "uint256",
						"numberOfBytes": "32"
					}
				}
			},
			"userdoc": {
				"kind": "user",
				"methods": {},
				"version": 1
			}
		}
	}
}