{
	"contracts/Erc20token.sol": {
		"icoContract": {
			"abi": [
				{
					"inputs": [
						{
							"internalType": "uint256",
							"name": "_duration",
							"type": "uint256"
						},
						{
							"internalType": "address payable",
							"name": "_depositAddress",
							"type": "address"
						}
					],
					"stateMutability": "nonpayable",
					"type": "constructor"
				},
				{
					"anonymous": false,
					"inputs": [
						{
							"indexed": true,
							"internalType": "address",
							"name": "tokenOwner",
							"type": "address"
						},
						{
							"indexed": true,
							"internalType": "address",
							"name": "spender",
							"type": "address"
						},
						{
							"indexed": false,
							"internalType": "uint256",
							"name": "tokens",
							"type": "uint256"
						}
					],
					"name": "Approval",
					"type": "event"
				},
				{
					"anonymous": false,
					"inputs": [
						{
							"indexed": true,
							"internalType": "address",
							"name": "from",
							"type": "address"
						},
						{
							"indexed": true,
							"internalType": "address",
							"name": "to",
							"type": "address"
						},
						{
							"indexed": false,
							"internalType": "uint256",
							"name": "tokens",
							"type": "uint256"
						}
					],
					"name": "Transfer",
					"type": "event"
				},
				{
					"inputs": [],
					"name": "admin",
					"outputs": [
						{
							"internalType": "address",
							"name": "",
							"type": "address"
						}
					],
					"stateMutability": "view",
					"type": "function"
				},
				{
					"inputs": [
						{
							"internalType": "address",
							"name": "tokenOwner",
							"type": "address"
						},
						{
							"internalType": "address",
							"name": "spender",
							"type": "address"
						}
					],
					"name": "allowance",
					"outputs": [
						{
							"internalType": "uint256",
							"name": "remaining",
							"type": "uint256"
						}
					],
					"stateMutability": "view",
					"type": "function"
				},
				{
					"inputs": [
						{
							"internalType": "address",
							"name": "",
							"type": "address"
						},
						{
							"internalType": "address",
							"name": "",
							"type": "address"
						}
					],
					"name": "allowed",
					"outputs": [
						{
							"internalType": "uint256",
							"name": "",
							"type": "uint256"
						}
					],
					"stateMutability": "view",
					"type": "function"
				},
				{
					"inputs": [
						{
							"internalType": "address",
							"name": "spender",
							"type": "address"
						},
						{
							"internalType": "uint256",
							"name": "tokens",
							"type": "uint256"
						}
					],
					"name": "approve",
					"outputs": [
						{
							"internalType": "bool",
							"name": "success",
							"type": "bool"
						}
					],
					"stateMutability": "nonpayable",
					"type": "function"
				},
				{
					"inputs": [
						{
							"internalType": "address",
							"name": "tokenOwner",
							"type": "address"
						}
					],
					"name": "balanceOf",
					"outputs": [
						{
							"internalType": "uint256",
							"name": "balance",
							"type": "uint256"
						}
					],
					"stateMutability": "view",
					"type": "function"
				},
				{
					"inputs": [
						{
							"internalType": "address",
							"name": "",
							"type": "address"
						}
					],
					"name": "balances",
					"outputs": [
						{
							"internalType": "uint256",
							"name": "",
							"type": "uint256"
						}
					],
					"stateMutability": "view",
					"type": "function"
				},
				{
					"inputs": [],
					"name": "checkIcoState",
					"outputs": [
						{
							"internalType": "enum icoContract.State",
							"name": "",
							"type": "uint8"
						}
					],
					"stateMutability": "view",
					"type": "function"
				},
				{
					"inputs": [],
					"name": "decimals",
					"outputs": [
						{
							"internalType": "uint256",
							"name": "",
							"type": "uint256"
						}
					],
					"stateMutability": "view",
					"type": "function"
				},
				{
					"inputs": [],
					"name": "depositAddress",
					"outputs": [
						{
							"internalType": "address payable",
							"name": "",
							"type": "address"
						}
					],
					"stateMutability": "view",
					"type": "function"
				},
				{
					"inputs": [],
					"name": "endTime",
					"outputs": [
						{
							"internalType": "uint256",
							"name": "",
							"type": "uint256"
						}
					],
					"stateMutability": "view",
					"type": "function"
				},
				{
					"inputs": [],
					"name": "founder",
					"outputs": [
						{
							"internalType": "address",
							"name": "",
							"type": "address"
						}
					],
					"stateMutability": "view",
					"type": "function"
				},
				{
					"inputs": [],
					"name": "hardCap",
					"outputs": [
						{
							"internalType": "uint256",
							"name": "",
							"type": "uint256"
						}
					],
					"stateMutability": "view",
					"type": "function"
				},
				{
					"inputs": [],
					"name": "icoState",
					"outputs": [
						{
							"internalType": "enum icoContract.State",
							"name": "",
							"type": "uint8"
						}
					],
					"stateMutability": "view",
					"type": "function"
				},
				{
					"inputs": [],
					"name": "invest",
					"outputs": [
						{
							"internalType": "bool",
							"name": "",
							"type": "bool"
						}
					],
					"stateMutability": "payable",
					"type": "function"
				},
				{
					"inputs": [],
					"name": "maximumAmount",
					"outputs": [
						{
							"internalType": "uint256",
							"name": "",
							"type": "uint256"
						}
					],
					"stateMutability": "view",
					"type": "function"
				},
				{
					"inputs": [],
					"name": "minimumAmount",
					"outputs": [
						{
							"internalType": "uint256",
							"name": "",
							"type": "uint256"
						}
					],
					"stateMutability": "view",
					"type": "function"
				},
				{
					"inputs": [],
					"name": "name",
					"outputs": [
						{
							"internalType": "string",
							"name": "",
							"type": "string"
						}
					],
					"stateMutability": "view",
					"type": "function"
				},
				{
					"inputs": [],
					"name": "raisedAmount",
					"outputs": [
						{
							"internalType": "uint256",
							"name": "",
							"type": "uint256"
						}
					],
					"stateMutability": "view",
					"type": "function"
				},
				{
					"inputs": [],
					"name": "startTime",
					"outputs": [
						{
							"internalType": "uint256",
							"name": "",
							"type": "uint256"
						}
					],
					"stateMutability": "view",
					"type": "function"
				},
				{
					"inputs": [],
					"name": "symbol",
					"outputs": [
						{
							"internalType": "string",
							"name": "",
							"type": "string"
						}
					],
					"stateMutability": "view",
					"type": "function"
				},
				{
					"inputs": [],
					"name": "totalSupply",
					"outputs": [
						{
							"internalType": "uint256",
							"name": "",
							"type": "uint256"
						}
					],
					"stateMutability": "view",
					"type": "function"
				},
				{
					"inputs": [
						{
							"internalType": "address",
							"name": "to",
							"type": "address"
						},
						{
							"internalType": "uint256",
							"name": "tokens",
							"type": "uint256"
						}
					],
					"name": "transfer",
					"outputs": [
						{
							"internalType": "bool",
							"name": "success",
							"type": "bool"
						}
					],
					"stateMutability": "nonpayable",
					"type": "function"
				},
				{
					"inputs": [
						{
							"internalType": "address",
							"name": "from",
							"type": "address"
						},
						{
							"internalType": "address",
							"name": "to",
							"type": "address"
						},
						{
							"internalType": "uint256",
							"name": "tokens",
							"type": "uint256"
						}
					],
					"name": "transferFrom",
					"outputs": [
						{
							"internalType": "bool",
							"name": "success",
							"type": "bool"
						}
					],
					"stateMutability": "nonpayable",
					"type": "function"
				}
			],
			"devdoc": {
				"kind": "dev",
				"methods": {},
				"version": 1
			},
			"evm": {
				"assembly": "    /* \"contracts/Erc20token.sol\":3280:6216  contract icoContract is MyToken{\r... */\n  mstore(0x40, 0x80)\n    /* \"contracts/Erc20token.sol\":1033:1062  string public name = \"ZILLAX\" */\n  mload(0x40)\n  dup1\n  0x40\n  add\n  0x40\n  mstore\n  dup1\n  0x06\n  dup2\n  mstore\n  0x20\n  add\n  0x5a494c4c41580000000000000000000000000000000000000000000000000000\n  dup2\n  mstore\n  pop\n  0x00\n  swap1\n  dup1\n  mload\n  swap1\n  0x20\n  add\n  swap1\n  tag_1\n  swap3\n  swap2\n  swap1\n  tag_2\n  jump\t// in\ntag_1:\n  pop\n    /* \"contracts/Erc20token.sol\":1069:1097  string public symbol = \"ZLZ\" */\n  mload(0x40)\n  dup1\n  0x40\n  add\n  0x40\n  mstore\n  dup1\n  0x03\n  dup2\n  mstore\n  0x20\n  add\n  0x5a4c5a0000000000000000000000000000000000000000000000000000000000\n  dup2\n  mstore\n  pop\n  0x01\n  swap1\n  dup1\n  mload\n  swap1\n  0x20\n  add\n  swap1\n  tag_3\n  swap3\n  swap2\n  swap1\n  tag_2\n  jump\t// in\ntag_3:\n  pop\n    /* \"contracts/Erc20token.sol\":1127:1128  0 */\n  0x00\n    /* \"contracts/Erc20token.sol\":1104:1128  uint public decimals = 0 */\n  0x02\n  sstore\n    /* \"contracts/Erc20token.sol\":3504:3511  5 ether */\n  0x4563918244f40000\n    /* \"contracts/Erc20token.sol\":3482:3511  uint public hardCap = 5 ether */\n  0x09\n  sstore\n    /* \"contracts/Erc20token.sol\":3677:3692  block.timestamp */\n  timestamp\n    /* \"contracts/Erc20token.sol\":3653:3692  uint public startTime = block.timestamp */\n  0x0a\n  sstore\n    /* \"contracts/Erc20token.sol\":3802:3811  0.1 ether */\n  0x016345785d8a0000\n    /* \"contracts/Erc20token.sol\":3774:3811  uint public minimumAmount = 0.1 ether */\n  0x0c\n  sstore\n    /* \"contracts/Erc20token.sol\":3846:3853  1 ether */\n  0x0de0b6b3a7640000\n    /* \"contracts/Erc20token.sol\":3818:3853  uint public maximumAmount = 1 ether */\n  0x0d\n  sstore\n    /* \"contracts/Erc20token.sol\":4005:4326  constructor(uint _duration, address payable _depositAddress){\r... */\n  callvalue\n  dup1\n  iszero\n  tag_4\n  jumpi\n  0x00\n  dup1\n  revert\ntag_4:\n  pop\n  mload(0x40)\n  sub(codesize, bytecodeSize)\n  dup1\n  bytecodeSize\n  dup4\n  codecopy\n  dup2\n  dup2\n  add\n  0x40\n  mstore\n  dup2\n  add\n  swap1\n  tag_5\n  swap2\n  swap1\n  tag_6\n  jump\t// in\ntag_5:\n    /* \"contracts/Erc20token.sol\":1365:1372  1000000 */\n  0x0f4240\n    /* \"contracts/Erc20token.sol\":1351:1362  totalSupply */\n  0x04\n    /* \"contracts/Erc20token.sol\":1351:1372  totalSupply = 1000000 */\n  dup2\n  swap1\n  sstore\n  pop\n    /* \"contracts/Erc20token.sol\":1393:1403  msg.sender */\n  caller\n    /* \"contracts/Erc20token.sol\":1383:1390  founder */\n  0x03\n  0x00\n    /* \"contracts/Erc20token.sol\":1383:1403  founder = msg.sender */\n  0x0100\n  exp\n  dup2\n  sload\n  dup2\n  0xffffffffffffffffffffffffffffffffffffffff\n  mul\n  not\n  and\n  swap1\n  dup4\n  0xffffffffffffffffffffffffffffffffffffffff\n  and\n  mul\n  or\n  swap1\n  sstore\n  pop\n    /* \"contracts/Erc20token.sol\":1434:1445  totalSupply */\n  sload(0x04)\n    /* \"contracts/Erc20token.sol\":1414:1422  balances */\n  0x05\n    /* \"contracts/Erc20token.sol\":1414:1431  balances[founder] */\n  0x00\n    /* \"contracts/Erc20token.sol\":1423:1430  founder */\n  0x03\n  0x00\n  swap1\n  sload\n  swap1\n  0x0100\n  exp\n  swap1\n  div\n  0xffffffffffffffffffffffffffffffffffffffff\n  and\n    /* \"contracts/Erc20token.sol\":1414:1431  balances[founder] */\n  0xffffffffffffffffffffffffffffffffffffffff\n  and\n  0xffffffffffffffffffffffffffffffffffffffff\n  and\n  dup2\n  mstore\n  0x20\n  add\n  swap1\n  dup2\n  mstore\n  0x20\n  add\n  0x00\n  keccak256\n    /* \"contracts/Erc20token.sol\":1414:1445  balances[founder] = totalSupply */\n  dup2\n  swap1\n  sstore\n  pop\n    /* \"contracts/Erc20token.sol\":4087:4104  State.beforeStart */\n  0x00\n    /* \"contracts/Erc20token.sol\":4076:4084  icoState */\n  0x0e\n  0x00\n    /* \"contracts/Erc20token.sol\":4076:4104  icoState = State.beforeStart */\n  0x0100\n  exp\n  dup2\n  sload\n  dup2\n  0xff\n  mul\n  not\n  and\n  swap1\n  dup4\n  0x04\n  dup2\n  gt\n  iszero\n  tag_11\n  jumpi\n  tag_12\n  tag_13\n  jump\t// in\ntag_12:\ntag_11:\n  mul\n  or\n  swap1\n  sstore\n  pop\n    /* \"contracts/Erc20token.sol\":4152:4162  msg.sender */\n  caller\n    /* \"contracts/Erc20token.sol\":4144:4149  admin */\n  0x07\n  0x00\n    /* \"contracts/Erc20token.sol\":4144:4162  admin = msg.sender */\n  0x0100\n  exp\n  dup2\n  sload\n  dup2\n  0xffffffffffffffffffffffffffffffffffffffff\n  mul\n  not\n  and\n  swap1\n  dup4\n  0xffffffffffffffffffffffffffffffffffffffff\n  and\n  mul\n  or\n  swap1\n  sstore\n  pop\n    /* \"contracts/Erc20token.sol\":4227:4236  _duration */\n  dup2\n    /* \"contracts/Erc20token.sol\":4215:4224  startTime */\n  sload(0x0a)\n    /* \"contracts/Erc20token.sol\":4215:4236  startTime + _duration */\n  tag_14\n  swap2\n  swap1\n  tag_15\n  jump\t// in\ntag_14:\n    /* \"contracts/Erc20token.sol\":4205:4212  endTime */\n  0x0b\n    /* \"contracts/Erc20token.sol\":4205:4236  endTime = startTime + _duration */\n  dup2\n  swap1\n  sstore\n  pop\n    /* \"contracts/Erc20token.sol\":4301:4316  _depositAddress */\n  dup1\n    /* \"contracts/Erc20token.sol\":4284:4298  depositAddress */\n  0x0e\n  0x01\n    /* \"contracts/Erc20token.sol\":4284:4316  depositAddress = _depositAddress */\n  0x0100\n  exp\n  dup2\n  sload\n  dup2\n  0xffffffffffffffffffffffffffffffffffffffff\n  mul\n  not\n  and\n  swap1\n  dup4\n  0xffffffffffffffffffffffffffffffffffffffff\n  and\n  mul\n  or\n  swap1\n  sstore\n  pop\n    /* \"contracts/Erc20token.sol\":4005:4326  constructor(uint _duration, address payable _depositAddress){\r... */\n  pop\n  pop\n    /* \"contracts/Erc20token.sol\":3280:6216  contract icoContract is MyToken{\r... */\n  jump(tag_16)\ntag_2:\n  dup3\n  dup1\n  sload\n  tag_17\n  swap1\n  tag_18\n  jump\t// in\ntag_17:\n  swap1\n  0x00\n  mstore\n  keccak256(0x00, 0x20)\n  swap1\n  0x1f\n  add\n  0x20\n  swap1\n  div\n  dup2\n  add\n  swap3\n  dup3\n  tag_20\n  jumpi\n  0x00\n  dup6\n  sstore\n  jump(tag_19)\ntag_20:\n  dup3\n  0x1f\n  lt\n  tag_21\n  jumpi\n  dup1\n  mload\n  not(0xff)\n  and\n  dup4\n  dup1\n  add\n  or\n  dup6\n  sstore\n  jump(tag_19)\ntag_21:\n  dup3\n  dup1\n  add\n  0x01\n  add\n  dup6\n  sstore\n  dup3\n  iszero\n  tag_19\n  jumpi\n  swap2\n  dup3\n  add\ntag_22:\n  dup3\n  dup2\n  gt\n  iszero\n  tag_23\n  jumpi\n  dup3\n  mload\n  dup3\n  sstore\n  swap2\n  0x20\n  add\n  swap2\n  swap1\n  0x01\n  add\n  swap1\n  jump(tag_22)\ntag_23:\ntag_19:\n  pop\n  swap1\n  pop\n  tag_24\n  swap2\n  swap1\n  tag_25\n  jump\t// in\ntag_24:\n  pop\n  swap1\n  jump\t// out\ntag_25:\ntag_26:\n  dup1\n  dup3\n  gt\n  iszero\n  tag_27\n  jumpi\n  0x00\n  dup2\n  0x00\n  swap1\n  sstore\n  pop\n  0x01\n  add\n  jump(tag_26)\ntag_27:\n  pop\n  swap1\n  jump\t// out\n    /* \"#utility.yul\":7:166   */\ntag_29:\n    /* \"#utility.yul\":72:77   */\n  0x00\n    /* \"#utility.yul\":103:109   */\n  dup2\n    /* \"#utility.yul\":97:110   */\n  mload\n    /* \"#utility.yul\":88:110   */\n  swap1\n  pop\n    /* \"#utility.yul\":119:160   */\n  tag_31\n    /* \"#utility.yul\":154:159   */\n  dup2\n    /* \"#utility.yul\":119:160   */\n  tag_32\n  jump\t// in\ntag_31:\n    /* \"#utility.yul\":7:166   */\n  swap3\n  swap2\n  pop\n  pop\n  jump\t// out\n    /* \"#utility.yul\":172:315   */\ntag_33:\n    /* \"#utility.yul\":229:234   */\n  0x00\n    /* \"#utility.yul\":260:266   */\n  dup2\n    /* \"#utility.yul\":254:267   */\n  mload\n    /* \"#utility.yul\":245:267   */\n  swap1\n  pop\n    /* \"#utility.yul\":276:309   */\n  tag_35\n    /* \"#utility.yul\":303:308   */\n  dup2\n    /* \"#utility.yul\":276:309   */\n  tag_36\n  jump\t// in\ntag_35:\n    /* \"#utility.yul\":172:315   */\n  swap3\n  swap2\n  pop\n  pop\n  jump\t// out\n    /* \"#utility.yul\":321:844   */\ntag_6:\n    /* \"#utility.yul\":408:414   */\n  0x00\n    /* \"#utility.yul\":416:422   */\n  dup1\n    /* \"#utility.yul\":465:467   */\n  0x40\n    /* \"#utility.yul\":453:462   */\n  dup4\n    /* \"#utility.yul\":444:451   */\n  dup6\n    /* \"#utility.yul\":440:463   */\n  sub\n    /* \"#utility.yul\":436:468   */\n  slt\n    /* \"#utility.yul\":433:552   */\n  iszero\n  tag_38\n  jumpi\n    /* \"#utility.yul\":471:550   */\n  tag_39\n  tag_40\n  jump\t// in\ntag_39:\n    /* \"#utility.yul\":433:552   */\ntag_38:\n    /* \"#utility.yul\":591:592   */\n  0x00\n    /* \"#utility.yul\":616:680   */\n  tag_41\n    /* \"#utility.yul\":672:679   */\n  dup6\n    /* \"#utility.yul\":663:669   */\n  dup3\n    /* \"#utility.yul\":652:661   */\n  dup7\n    /* \"#utility.yul\":648:670   */\n  add\n    /* \"#utility.yul\":616:680   */\n  tag_33\n  jump\t// in\ntag_41:\n    /* \"#utility.yul\":606:680   */\n  swap3\n  pop\n    /* \"#utility.yul\":562:690   */\n  pop\n    /* \"#utility.yul\":729:731   */\n  0x20\n    /* \"#utility.yul\":755:827   */\n  tag_42\n    /* \"#utility.yul\":819:826   */\n  dup6\n    /* \"#utility.yul\":810:816   */\n  dup3\n    /* \"#utility.yul\":799:808   */\n  dup7\n    /* \"#utility.yul\":795:817   */\n  add\n    /* \"#utility.yul\":755:827   */\n  tag_29\n  jump\t// in\ntag_42:\n    /* \"#utility.yul\":745:827   */\n  swap2\n  pop\n    /* \"#utility.yul\":700:837   */\n  pop\n    /* \"#utility.yul\":321:844   */\n  swap3\n  pop\n  swap3\n  swap1\n  pop\n  jump\t// out\n    /* \"#utility.yul\":931:1236   */\ntag_15:\n    /* \"#utility.yul\":971:974   */\n  0x00\n    /* \"#utility.yul\":990:1010   */\n  tag_46\n    /* \"#utility.yul\":1008:1009   */\n  dup3\n    /* \"#utility.yul\":990:1010   */\n  tag_47\n  jump\t// in\ntag_46:\n    /* \"#utility.yul\":985:1010   */\n  swap2\n  pop\n    /* \"#utility.yul\":1024:1044   */\n  tag_48\n    /* \"#utility.yul\":1042:1043   */\n  dup4\n    /* \"#utility.yul\":1024:1044   */\n  tag_47\n  jump\t// in\ntag_48:\n    /* \"#utility.yul\":1019:1044   */\n  swap3\n  pop\n    /* \"#utility.yul\":1178:1179   */\n  dup3\n    /* \"#utility.yul\":1110:1176   */\n  0xffffffffffffffffffffffffffffffffffffffffffffffffffffffffffffffff\n    /* \"#utility.yul\":1106:1180   */\n  sub\n    /* \"#utility.yul\":1103:1104   */\n  dup3\n    /* \"#utility.yul\":1100:1181   */\n  gt\n    /* \"#utility.yul\":1097:1204   */\n  iszero\n  tag_49\n  jumpi\n    /* \"#utility.yul\":1184:1202   */\n  tag_50\n  tag_51\n  jump\t// in\ntag_50:\n    /* \"#utility.yul\":1097:1204   */\ntag_49:\n    /* \"#utility.yul\":1228:1229   */\n  dup3\n    /* \"#utility.yul\":1225:1226   */\n  dup3\n    /* \"#utility.yul\":1221:1230   */\n  add\n    /* \"#utility.yul\":1214:1230   */\n  swap1\n  pop\n    /* \"#utility.yul\":931:1236   */\n  swap3\n  swap2\n  pop\n  pop\n  jump\t// out\n    /* \"#utility.yul\":1242:1346   */\ntag_52:\n    /* \"#utility.yul\":1287:1294   */\n  0x00\n    /* \"#utility.yul\":1316:1340   */\n  tag_54\n    /* \"#utility.yul\":1334:1339   */\n  dup3\n    /* \"#utility.yul\":1316:1340   */\n  tag_55\n  jump\t// in\ntag_54:\n    /* \"#utility.yul\":1305:1340   */\n  swap1\n  pop\n    /* \"#utility.yul\":1242:1346   */\n  swap2\n  swap1\n  pop\n  jump\t// out\n    /* \"#utility.yul\":1352:1478   */\ntag_55:\n    /* \"#utility.yul\":1389:1396   */\n  0x00\n    /* \"#utility.yul\":1429:1471   */\n  0xffffffffffffffffffffffffffffffffffffffff\n    /* \"#utility.yul\":1422:1427   */\n  dup3\n    /* \"#utility.yul\":1418:1472   */\n  and\n    /* \"#utility.yul\":1407:1472   */\n  swap1\n  pop\n    /* \"#utility.yul\":1352:1478   */\n  swap2\n  swap1\n  pop\n  jump\t// out\n    /* \"#utility.yul\":1484:1561   */\ntag_47:\n    /* \"#utility.yul\":1521:1528   */\n  0x00\n    /* \"#utility.yul\":1550:1555   */\n  dup2\n    /* \"#utility.yul\":1539:1555   */\n  swap1\n  pop\n    /* \"#utility.yul\":1484:1561   */\n  swap2\n  swap1\n  pop\n  jump\t// out\n    /* \"#utility.yul\":1567:1887   */\ntag_18:\n    /* \"#utility.yul\":1611:1617   */\n  0x00\n    /* \"#utility.yul\":1648:1649   */\n  0x02\n    /* \"#utility.yul\":1642:1646   */\n  dup3\n    /* \"#utility.yul\":1638:1650   */\n  div\n    /* \"#utility.yul\":1628:1650   */\n  swap1\n  pop\n    /* \"#utility.yul\":1695:1696   */\n  0x01\n    /* \"#utility.yul\":1689:1693   */\n  dup3\n    /* \"#utility.yul\":1685:1697   */\n  and\n    /* \"#utility.yul\":1716:1734   */\n  dup1\n    /* \"#utility.yul\":1706:1787   */\n  tag_59\n  jumpi\n    /* \"#utility.yul\":1772:1776   */\n  0x7f\n    /* \"#utility.yul\":1764:1770   */\n  dup3\n    /* \"#utility.yul\":1760:1777   */\n  and\n    /* \"#utility.yul\":1750:1777   */\n  swap2\n  pop\n    /* \"#utility.yul\":1706:1787   */\ntag_59:\n    /* \"#utility.yul\":1834:1836   */\n  0x20\n    /* \"#utility.yul\":1826:1832   */\n  dup3\n    /* \"#utility.yul\":1823:1837   */\n  lt\n    /* \"#utility.yul\":1803:1821   */\n  dup2\n    /* \"#utility.yul\":1800:1838   */\n  eq\n    /* \"#utility.yul\":1797:1881   */\n  iszero\n  tag_60\n  jumpi\n    /* \"#utility.yul\":1853:1871   */\n  tag_61\n  tag_62\n  jump\t// in\ntag_61:\n    /* \"#utility.yul\":1797:1881   */\ntag_60:\n    /* \"#utility.yul\":1618:1887   */\n  pop\n    /* \"#utility.yul\":1567:1887   */\n  swap2\n  swap1\n  pop\n  jump\t// out\n    /* \"#utility.yul\":1893:2073   */\ntag_51:\n    /* \"#utility.yul\":1941:2018   */\n  0x4e487b7100000000000000000000000000000000000000000000000000000000\n    /* \"#utility.yul\":1938:1939   */\n  0x00\n    /* \"#utility.yul\":1931:2019   */\n  mstore\n    /* \"#utility.yul\":2038:2042   */\n  0x11\n    /* \"#utility.yul\":2035:2036   */\n  0x04\n    /* \"#utility.yul\":2028:2043   */\n  mstore\n    /* \"#utility.yul\":2062:2066   */\n  0x24\n    /* \"#utility.yul\":2059:2060   */\n  0x00\n    /* \"#utility.yul\":2052:2067   */\n  revert\n    /* \"#utility.yul\":2079:2259   */\ntag_13:\n    /* \"#utility.yul\":2127:2204   */\n  0x4e487b7100000000000000000000000000000000000000000000000000000000\n    /* \"#utility.yul\":2124:2125   */\n  0x00\n    /* \"#utility.yul\":2117:2205   */\n  mstore\n    /* \"#utility.yul\":2224:2228   */\n  0x21\n    /* \"#utility.yul\":2221:2222   */\n  0x04\n    /* \"#utility.yul\":2214:2229   */\n  mstore\n    /* \"#utility.yul\":2248:2252   */\n  0x24\n    /* \"#utility.yul\":2245:2246   */\n  0x00\n    /* \"#utility.yul\":2238:2253   */\n  revert\n    /* \"#utility.yul\":2265:2445   */\ntag_62:\n    /* \"#utility.yul\":2313:2390   */\n  0x4e487b7100000000000000000000000000000000000000000000000000000000\n    /* \"#utility.yul\":2310:2311   */\n  0x00\n    /* \"#utility.yul\":2303:2391   */\n  mstore\n    /* \"#utility.yul\":2410:2414   */\n  0x22\n    /* \"#utility.yul\":2407:2408   */\n  0x04\n    /* \"#utility.yul\":2400:2415   */\n  mstore\n    /* \"#utility.yul\":2434:2438   */\n  0x24\n    /* \"#utility.yul\":2431:2432   */\n  0x00\n    /* \"#utility.yul\":2424:2439   */\n  revert\n    /* \"#utility.yul\":2574:2691   */\ntag_40:\n    /* \"#utility.yul\":2683:2684   */\n  0x00\n    /* \"#utility.yul\":2680:2681   */\n  dup1\n    /* \"#utility.yul\":2673:2685   */\n  revert\n    /* \"#utility.yul\":2697:2835   */\ntag_32:\n    /* \"#utility.yul\":2778:2810   */\n  tag_70\n    /* \"#utility.yul\":2804:2809   */\n  dup2\n    /* \"#utility.yul\":2778:2810   */\n  tag_52\n  jump\t// in\ntag_70:\n    /* \"#utility.yul\":2771:2776   */\n  dup2\n    /* \"#utility.yul\":2768:2811   */\n  eq\n    /* \"#utility.yul\":2758:2829   */\n  tag_71\n  jumpi\n    /* \"#utility.yul\":2825:2826   */\n  0x00\n    /* \"#utility.yul\":2822:2823   */\n  dup1\n    /* \"#utility.yul\":2815:2827   */\n  revert\n    /* \"#utility.yul\":2758:2829   */\ntag_71:\n    /* \"#utility.yul\":2697:2835   */\n  pop\n  jump\t// out\n    /* \"#utility.yul\":2841:2963   */\ntag_36:\n    /* \"#utility.yul\":2914:2938   */\n  tag_73\n    /* \"#utility.yul\":2932:2937   */\n  dup2\n    /* \"#utility.yul\":2914:2938   */\n  tag_47\n  jump\t// in\ntag_73:\n    /* \"#utility.yul\":2907:2912   */\n  dup2\n    /* \"#utility.yul\":2904:2939   */\n  eq\n    /* \"#utility.yul\":2894:2957   */\n  tag_74\n  jumpi\n    /* \"#utility.yul\":2953:2954   */\n  0x00\n    /* \"#utility.yul\":2950:2951   */\n  dup1\n    /* \"#utility.yul\":2943:2955   */\n  revert\n    /* \"#utility.yul\":2894:2957   */\ntag_74:\n    /* \"#utility.yul\":2841:2963   */\n  pop\n  jump\t// out\n    /* \"contracts/Erc20token.sol\":3280:6216  contract icoContract is MyToken{\r... */\ntag_16:\n  dataSize(sub_0)\n  dup1\n  dataOffset(sub_0)\n  0x00\n  codecopy\n  0x00\n  return\nstop\n\nsub_0: assembly {\n        /* \"contracts/Erc20token.sol\":3280:6216  contract icoContract is MyToken{\r... */\n      mstore(0x40, 0x80)\n      jumpi(tag_1, lt(calldatasize, 0x04))\n      shr(0xe0, calldataload(0x00))\n      dup1\n      0x5c658165\n      gt\n      tag_25\n      jumpi\n      dup1\n      0xbb0c8298\n      gt\n      tag_26\n      jumpi\n      dup1\n      0xbb0c8298\n      eq\n      tag_19\n      jumpi\n      dup1\n      0xc59ee1dc\n      eq\n      tag_20\n      jumpi\n      dup1\n      0xdd62ed3e\n      eq\n      tag_21\n      jumpi\n      dup1\n      0xe8b5e51f\n      eq\n      tag_22\n      jumpi\n      dup1\n      0xf851a440\n      eq\n      tag_23\n      jumpi\n      dup1\n      0xfb86a404\n      eq\n      tag_24\n      jumpi\n      jump(tag_1)\n    tag_26:\n      dup1\n      0x5c658165\n      eq\n      tag_13\n      jumpi\n      dup1\n      0x70a08231\n      eq\n      tag_14\n      jumpi\n      dup1\n      0x78e97925\n      eq\n      tag_15\n      jumpi\n      dup1\n      0x95d89b41\n      eq\n      tag_16\n      jumpi\n      dup1\n      0xa9059cbb\n      eq\n      tag_17\n      jumpi\n      dup1\n      0xa9bcea61\n      eq\n      tag_18\n      jumpi\n      jump(tag_1)\n    tag_25:\n      dup1\n      0x28f833b7\n      gt\n      tag_27\n      jumpi\n      dup1\n      0x28f833b7\n      eq\n      tag_7\n      jumpi\n      dup1\n      0x2942b61a\n      eq\n      tag_8\n      jumpi\n      dup1\n      0x313ce567\n      eq\n      tag_9\n      jumpi\n      dup1\n      0x3197cbb6\n      eq\n      tag_10\n      jumpi\n      dup1\n      0x44f38756\n      eq\n      tag_11\n      jumpi\n      dup1\n      0x4d853ee5\n      eq\n      tag_12\n      jumpi\n      jump(tag_1)\n    tag_27:\n      dup1\n      0x06fdde03\n      eq\n      tag_2\n      jumpi\n      dup1\n      0x095ea7b3\n      eq\n      tag_3\n      jumpi\n      dup1\n      0x18160ddd\n      eq\n      tag_4\n      jumpi\n      dup1\n      0x23b872dd\n      eq\n      tag_5\n      jumpi\n      dup1\n      0x27e235e3\n      eq\n      tag_6\n      jumpi\n    tag_1:\n      0x00\n      dup1\n      revert\n        /* \"contracts/Erc20token.sol\":1033:1062  string public name = \"ZILLAX\" */\n    tag_2:\n      callvalue\n      dup1\n      iszero\n      tag_28\n      jumpi\n      0x00\n      dup1\n      revert\n    tag_28:\n      pop\n      tag_29\n      tag_30\n      jump\t// in\n    tag_29:\n      mload(0x40)\n      tag_31\n      swap2\n      swap1\n      tag_32\n      jump\t// in\n    tag_31:\n      mload(0x40)\n      dup1\n      swap2\n      sub\n      swap1\n      return\n        /* \"contracts/Erc20token.sol\":2225:2627  function approve(address spender, uint tokens) public override returns (bool success){\r... */\n    tag_3:\n      callvalue\n      dup1\n      iszero\n      tag_33\n      jumpi\n      0x00\n      dup1\n      revert\n    tag_33:\n      pop\n      tag_34\n      0x04\n      dup1\n      calldatasize\n      sub\n      dup2\n      add\n      swap1\n      tag_35\n      swap2\n      swap1\n      tag_36\n      jump\t// in\n    tag_35:\n      tag_37\n      jump\t// in\n    tag_34:\n      mload(0x40)\n      tag_38\n      swap2\n      swap1\n      tag_39\n      jump\t// in\n    tag_38:\n      mload(0x40)\n      dup1\n      swap2\n      sub\n      swap1\n      return\n        /* \"contracts/Erc20token.sol\":1168:1200  uint public override totalSupply */\n    tag_4:\n      callvalue\n      dup1\n      iszero\n      tag_40\n      jumpi\n      0x00\n      dup1\n      revert\n    tag_40:\n      pop\n      tag_41\n      tag_42\n      jump\t// in\n    tag_41:\n      mload(0x40)\n      tag_43\n      swap2\n      swap1\n      tag_44\n      jump\t// in\n    tag_43:\n      mload(0x40)\n      dup1\n      swap2\n      sub\n      swap1\n      return\n        /* \"contracts/Erc20token.sol\":2635:3271  function transferFrom(address from, address to, uint tokens) public override returns (bool success){\r... */\n    tag_5:\n      callvalue\n      dup1\n      iszero\n      tag_45\n      jumpi\n      0x00\n      dup1\n      revert\n    tag_45:\n      pop\n      tag_46\n      0x04\n      dup1\n      calldatasize\n      sub\n      dup2\n      add\n      swap1\n      tag_47\n      swap2\n      swap1\n      tag_48\n      jump\t// in\n    tag_47:\n      tag_49\n      jump\t// in\n    tag_46:\n      mload(0x40)\n      tag_50\n      swap2\n      swap1\n      tag_39\n      jump\t// in\n    tag_50:\n      mload(0x40)\n      dup1\n      swap2\n      sub\n      swap1\n      return\n        /* \"contracts/Erc20token.sol\":1209:1250  mapping(address => uint) public  balances */\n    tag_6:\n      callvalue\n      dup1\n      iszero\n      tag_51\n      jumpi\n      0x00\n      dup1\n      revert\n    tag_51:\n      pop\n      tag_52\n      0x04\n      dup1\n      calldatasize\n      sub\n      dup2\n      add\n      swap1\n      tag_53\n      swap2\n      swap1\n      tag_54\n      jump\t// in\n    tag_53:\n      tag_55\n      jump\t// in\n    tag_52:\n      mload(0x40)\n      tag_56\n      swap2\n      swap1\n      tag_44\n      jump\t// in\n    tag_56:\n      mload(0x40)\n      dup1\n      swap2\n      sub\n      swap1\n      return\n        /* \"contracts/Erc20token.sol\":3959:3996  address payable public depositAddress */\n    tag_7:\n      callvalue\n      dup1\n      iszero\n      tag_57\n      jumpi\n      0x00\n      dup1\n      revert\n    tag_57:\n      pop\n      tag_58\n      tag_59\n      jump\t// in\n    tag_58:\n      mload(0x40)\n      tag_60\n      swap2\n      swap1\n      tag_61\n      jump\t// in\n    tag_60:\n      mload(0x40)\n      dup1\n      swap2\n      sub\n      swap1\n      return\n        /* \"contracts/Erc20token.sol\":4500:4986  function checkIcoState() public view returns(State){\r... */\n    tag_8:\n      callvalue\n      dup1\n      iszero\n      tag_62\n      jumpi\n      0x00\n      dup1\n      revert\n    tag_62:\n      pop\n      tag_63\n      tag_64\n      jump\t// in\n    tag_63:\n      mload(0x40)\n      tag_65\n      swap2\n      swap1\n      tag_66\n      jump\t// in\n    tag_65:\n      mload(0x40)\n      dup1\n      swap2\n      sub\n      swap1\n      return\n        /* \"contracts/Erc20token.sol\":1104:1128  uint public decimals = 0 */\n    tag_9:\n      callvalue\n      dup1\n      iszero\n      tag_67\n      jumpi\n      0x00\n      dup1\n      revert\n    tag_67:\n      pop\n      tag_68\n      tag_69\n      jump\t// in\n    tag_68:\n      mload(0x40)\n      tag_70\n      swap2\n      swap1\n      tag_44\n      jump\t// in\n    tag_70:\n      mload(0x40)\n      dup1\n      swap2\n      sub\n      swap1\n      return\n        /* \"contracts/Erc20token.sol\":3699:3718  uint public endTime */\n    tag_10:\n      callvalue\n      dup1\n      iszero\n      tag_71\n      jumpi\n      0x00\n      dup1\n      revert\n    tag_71:\n      pop\n      tag_72\n      tag_73\n      jump\t// in\n    tag_72:\n      mload(0x40)\n      tag_74\n      swap2\n      swap1\n      tag_44\n      jump\t// in\n    tag_74:\n      mload(0x40)\n      dup1\n      swap2\n      sub\n      swap1\n      return\n        /* \"contracts/Erc20token.sol\":3902:3923  State public icoState */\n    tag_11:\n      callvalue\n      dup1\n      iszero\n      tag_75\n      jumpi\n      0x00\n      dup1\n      revert\n    tag_75:\n      pop\n      tag_76\n      tag_77\n      jump\t// in\n    tag_76:\n      mload(0x40)\n      tag_78\n      swap2\n      swap1\n      tag_66\n      jump\t// in\n    tag_78:\n      mload(0x40)\n      dup1\n      swap2\n      sub\n      swap1\n      return\n        /* \"contracts/Erc20token.sol\":1137:1159  address public founder */\n    tag_12:\n      callvalue\n      dup1\n      iszero\n      tag_79\n      jumpi\n      0x00\n      dup1\n      revert\n    tag_79:\n      pop\n      tag_80\n      tag_81\n      jump\t// in\n    tag_80:\n      mload(0x40)\n      tag_82\n      swap2\n      swap1\n      tag_83\n      jump\t// in\n    tag_82:\n      mload(0x40)\n      dup1\n      swap2\n      sub\n      swap1\n      return\n        /* \"contracts/Erc20token.sol\":1259:1318  mapping(address => mapping(address => uint)) public allowed */\n    tag_13:\n      callvalue\n      dup1\n      iszero\n      tag_84\n      jumpi\n      0x00\n      dup1\n      revert\n    tag_84:\n      pop\n      tag_85\n      0x04\n      dup1\n      calldatasize\n      sub\n      dup2\n      add\n      swap1\n      tag_86\n      swap2\n      swap1\n      tag_87\n      jump\t// in\n    tag_86:\n      tag_88\n      jump\t// in\n    tag_85:\n      mload(0x40)\n      tag_89\n      swap2\n      swap1\n      tag_44\n      jump\t// in\n    tag_89:\n      mload(0x40)\n      dup1\n      swap2\n      sub\n      swap1\n      return\n        /* \"contracts/Erc20token.sol\":1461:1589  function balanceOf(address tokenOwner) public override view returns (uint balance){\r... */\n    tag_14:\n      callvalue\n      dup1\n      iszero\n      tag_90\n      jumpi\n      0x00\n      dup1\n      revert\n    tag_90:\n      pop\n      tag_91\n      0x04\n      dup1\n      calldatasize\n      sub\n      dup2\n      add\n      swap1\n      tag_92\n      swap2\n      swap1\n      tag_54\n      jump\t// in\n    tag_92:\n      tag_93\n      jump\t// in\n    tag_91:\n      mload(0x40)\n      tag_94\n      swap2\n      swap1\n      tag_44\n      jump\t// in\n    tag_94:\n      mload(0x40)\n      dup1\n      swap2\n      sub\n      swap1\n      return\n        /* \"contracts/Erc20token.sol\":3653:3692  uint public startTime = block.timestamp */\n    tag_15:\n      callvalue\n      dup1\n      iszero\n      tag_95\n      jumpi\n      0x00\n      dup1\n      revert\n    tag_95:\n      pop\n      tag_96\n      tag_97\n      jump\t// in\n    tag_96:\n      mload(0x40)\n      tag_98\n      swap2\n      swap1\n      tag_44\n      jump\t// in\n    tag_98:\n      mload(0x40)\n      dup1\n      swap2\n      sub\n      swap1\n      return\n        /* \"contracts/Erc20token.sol\":1069:1097  string public symbol = \"ZLZ\" */\n    tag_16:\n      callvalue\n      dup1\n      iszero\n      tag_99\n      jumpi\n      0x00\n      dup1\n      revert\n    tag_99:\n      pop\n      tag_100\n      tag_101\n      jump\t// in\n    tag_100:\n      mload(0x40)\n      tag_102\n      swap2\n      swap1\n      tag_32\n      jump\t// in\n    tag_102:\n      mload(0x40)\n      dup1\n      swap2\n      sub\n      swap1\n      return\n        /* \"contracts/Erc20token.sol\":1643:1964  function transfer(address to, uint tokens) public override returns (bool success){\r... */\n    tag_17:\n      callvalue\n      dup1\n      iszero\n      tag_103\n      jumpi\n      0x00\n      dup1\n      revert\n    tag_103:\n      pop\n      tag_104\n      0x04\n      dup1\n      calldatasize\n      sub\n      dup2\n      add\n      swap1\n      tag_105\n      swap2\n      swap1\n      tag_36\n      jump\t// in\n    tag_105:\n      tag_106\n      jump\t// in\n    tag_104:\n      mload(0x40)\n      tag_107\n      swap2\n      swap1\n      tag_39\n      jump\t// in\n    tag_107:\n      mload(0x40)\n      dup1\n      swap2\n      sub\n      swap1\n      return\n        /* \"contracts/Erc20token.sol\":3818:3853  uint public maximumAmount = 1 ether */\n    tag_18:\n      callvalue\n      dup1\n      iszero\n      tag_108\n      jumpi\n      0x00\n      dup1\n      revert\n    tag_108:\n      pop\n      tag_109\n      tag_110\n      jump\t// in\n    tag_109:\n      mload(0x40)\n      tag_111\n      swap2\n      swap1\n      tag_44\n      jump\t// in\n    tag_111:\n      mload(0x40)\n      dup1\n      swap2\n      sub\n      swap1\n      return\n        /* \"contracts/Erc20token.sol\":3774:3811  uint public minimumAmount = 0.1 ether */\n    tag_19:\n      callvalue\n      dup1\n      iszero\n      tag_112\n      jumpi\n      0x00\n      dup1\n      revert\n    tag_112:\n      pop\n      tag_113\n      tag_114\n      jump\t// in\n    tag_113:\n      mload(0x40)\n      tag_115\n      swap2\n      swap1\n      tag_44\n      jump\t// in\n    tag_115:\n      mload(0x40)\n      dup1\n      swap2\n      sub\n      swap1\n      return\n        /* \"contracts/Erc20token.sol\":3399:3423  uint public raisedAmount */\n    tag_20:\n      callvalue\n      dup1\n      iszero\n      tag_116\n      jumpi\n      0x00\n      dup1\n      revert\n    tag_116:\n      pop\n      tag_117\n      tag_118\n      jump\t// in\n    tag_117:\n      mload(0x40)\n      tag_119\n      swap2\n      swap1\n      tag_44\n      jump\t// in\n    tag_119:\n      mload(0x40)\n      dup1\n      swap2\n      sub\n      swap1\n      return\n        /* \"contracts/Erc20token.sol\":2062:2217  function allowance(address tokenOwner, address spender) public override view returns (uint remaining){\r... */\n    tag_21:\n      callvalue\n      dup1\n      iszero\n      tag_120\n      jumpi\n      0x00\n      dup1\n      revert\n    tag_120:\n      pop\n      tag_121\n      0x04\n      dup1\n      calldatasize\n      sub\n      dup2\n      add\n      swap1\n      tag_122\n      swap2\n      swap1\n      tag_87\n      jump\t// in\n    tag_122:\n      tag_123\n      jump\t// in\n    tag_121:\n      mload(0x40)\n      tag_124\n      swap2\n      swap1\n      tag_44\n      jump\t// in\n    tag_124:\n      mload(0x40)\n      dup1\n      swap2\n      sub\n      swap1\n      return\n        /* \"contracts/Erc20token.sol\":5035:6211  function invest() public payable onlyAdmin returns(bool){\r... */\n    tag_22:\n      tag_125\n      tag_126\n      jump\t// in\n    tag_125:\n      mload(0x40)\n      tag_127\n      swap2\n      swap1\n      tag_39\n      jump\t// in\n    tag_127:\n      mload(0x40)\n      dup1\n      swap2\n      sub\n      swap1\n      return\n        /* \"contracts/Erc20token.sol\":3320:3340  address public admin */\n    tag_23:\n      callvalue\n      dup1\n      iszero\n      tag_128\n      jumpi\n      0x00\n      dup1\n      revert\n    tag_128:\n      pop\n      tag_129\n      tag_130\n      jump\t// in\n    tag_129:\n      mload(0x40)\n      tag_131\n      swap2\n      swap1\n      tag_83\n      jump\t// in\n    tag_131:\n      mload(0x40)\n      dup1\n      swap2\n      sub\n      swap1\n      return\n        /* \"contracts/Erc20token.sol\":3482:3511  uint public hardCap = 5 ether */\n    tag_24:\n      callvalue\n      dup1\n      iszero\n      tag_132\n      jumpi\n      0x00\n      dup1\n      revert\n    tag_132:\n      pop\n      tag_133\n      tag_134\n      jump\t// in\n    tag_133:\n      mload(0x40)\n      tag_135\n      swap2\n      swap1\n      tag_44\n      jump\t// in\n    tag_135:\n      mload(0x40)\n      dup1\n      swap2\n      sub\n      swap1\n      return\n        /* \"contracts/Erc20token.sol\":1033:1062  string public name = \"ZILLAX\" */\n    tag_30:\n      0x00\n      dup1\n      sload\n      tag_136\n      swap1\n      tag_137\n      jump\t// in\n    tag_136:\n      dup1\n      0x1f\n      add\n      0x20\n      dup1\n      swap2\n      div\n      mul\n      0x20\n      add\n      mload(0x40)\n      swap1\n      dup2\n      add\n      0x40\n      mstore\n      dup1\n      swap3\n      swap2\n      swap1\n      dup2\n      dup2\n      mstore\n      0x20\n      add\n      dup3\n      dup1\n      sload\n      tag_138\n      swap1\n      tag_137\n      jump\t// in\n    tag_138:\n      dup1\n      iszero\n      tag_139\n      jumpi\n      dup1\n      0x1f\n      lt\n      tag_140\n      jumpi\n      0x0100\n      dup1\n      dup4\n      sload\n      div\n      mul\n      dup4\n      mstore\n      swap2\n      0x20\n      add\n      swap2\n      jump(tag_139)\n    tag_140:\n      dup3\n      add\n      swap2\n      swap1\n      0x00\n      mstore\n      keccak256(0x00, 0x20)\n      swap1\n    tag_141:\n      dup2\n      sload\n      dup2\n      mstore\n      swap1\n      0x01\n      add\n      swap1\n      0x20\n      add\n      dup1\n      dup4\n      gt\n      tag_141\n      jumpi\n      dup3\n      swap1\n      sub\n      0x1f\n      and\n      dup3\n      add\n      swap2\n    tag_139:\n      pop\n      pop\n      pop\n      pop\n      pop\n      dup2\n      jump\t// out\n        /* \"contracts/Erc20token.sol\":2225:2627  function approve(address spender, uint tokens) public override returns (bool success){\r... */\n    tag_37:\n        /* \"contracts/Erc20token.sol\":2297:2309  bool success */\n      0x00\n        /* \"contracts/Erc20token.sol\":2355:2361  tokens */\n      dup2\n        /* \"contracts/Erc20token.sol\":2331:2339  balances */\n      0x05\n        /* \"contracts/Erc20token.sol\":2331:2351  balances[msg.sender] */\n      0x00\n        /* \"contracts/Erc20token.sol\":2340:2350  msg.sender */\n      caller\n        /* \"contracts/Erc20token.sol\":2331:2351  balances[msg.sender] */\n      0xffffffffffffffffffffffffffffffffffffffff\n      and\n      0xffffffffffffffffffffffffffffffffffffffff\n      and\n      dup2\n      mstore\n      0x20\n      add\n      swap1\n      dup2\n      mstore\n      0x20\n      add\n      0x00\n      keccak256\n      sload\n        /* \"contracts/Erc20token.sol\":2331:2361  balances[msg.sender] >= tokens */\n      lt\n      iszero\n        /* \"contracts/Erc20token.sol\":2323:2414  require(balances[msg.sender] >= tokens, \"Token value is greater than your current holding\") */\n      tag_143\n      jumpi\n      mload(0x40)\n      0x08c379a000000000000000000000000000000000000000000000000000000000\n      dup2\n      mstore\n      0x04\n      add\n      tag_144\n      swap1\n      tag_145\n      jump\t// in\n    tag_144:\n      mload(0x40)\n      dup1\n      swap2\n      sub\n      swap1\n      revert\n    tag_143:\n        /* \"contracts/Erc20token.sol\":2442:2443  0 */\n      0x00\n        /* \"contracts/Erc20token.sol\":2433:2439  tokens */\n      dup3\n        /* \"contracts/Erc20token.sol\":2433:2443  tokens > 0 */\n      gt\n        /* \"contracts/Erc20token.sol\":2425:2482  require(tokens > 0, \"Token value must be greater than 0\") */\n      tag_146\n      jumpi\n      mload(0x40)\n      0x08c379a000000000000000000000000000000000000000000000000000000000\n      dup2\n      mstore\n      0x04\n      add\n      tag_147\n      swap1\n      tag_148\n      jump\t// in\n    tag_147:\n      mload(0x40)\n      dup1\n      swap2\n      sub\n      swap1\n      revert\n    tag_146:\n        /* \"contracts/Erc20token.sol\":2534:2540  tokens */\n      dup2\n        /* \"contracts/Erc20token.sol\":2503:2510  allowed */\n      0x06\n        /* \"contracts/Erc20token.sol\":2503:2522  allowed[msg.sender] */\n      0x00\n        /* \"contracts/Erc20token.sol\":2511:2521  msg.sender */\n      caller\n        /* \"contracts/Erc20token.sol\":2503:2522  allowed[msg.sender] */\n      0xffffffffffffffffffffffffffffffffffffffff\n      and\n      0xffffffffffffffffffffffffffffffffffffffff\n      and\n      dup2\n      mstore\n      0x20\n      add\n      swap1\n      dup2\n      mstore\n      0x20\n      add\n      0x00\n      keccak256\n        /* \"contracts/Erc20token.sol\":2503:2531  allowed[msg.sender][spender] */\n      0x00\n        /* \"contracts/Erc20token.sol\":2523:2530  spender */\n      dup6\n        /* \"contracts/Erc20token.sol\":2503:2531  allowed[msg.sender][spender] */\n      0xffffffffffffffffffffffffffffffffffffffff\n      and\n      0xffffffffffffffffffffffffffffffffffffffff\n      and\n      dup2\n      mstore\n      0x20\n      add\n      swap1\n      dup2\n      mstore\n      0x20\n      add\n      0x00\n      keccak256\n        /* \"contracts/Erc20token.sol\":2503:2540  allowed[msg.sender][spender] = tokens */\n      dup2\n      swap1\n      sstore\n      pop\n        /* \"contracts/Erc20token.sol\":2579:2586  spender */\n      dup3\n        /* \"contracts/Erc20token.sol\":2558:2595  Approval(msg.sender, spender, tokens) */\n      0xffffffffffffffffffffffffffffffffffffffff\n      and\n        /* \"contracts/Erc20token.sol\":2567:2577  msg.sender */\n      caller\n        /* \"contracts/Erc20token.sol\":2558:2595  Approval(msg.sender, spender, tokens) */\n      0xffffffffffffffffffffffffffffffffffffffff\n      and\n      0x8c5be1e5ebec7d5bd14f71427d1e84f3dd0314c0f7b2291e5b200ac8c7c3b925\n        /* \"contracts/Erc20token.sol\":2588:2594  tokens */\n      dup5\n        /* \"contracts/Erc20token.sol\":2558:2595  Approval(msg.sender, spender, tokens) */\n      mload(0x40)\n      tag_149\n      swap2\n      swap1\n      tag_44\n      jump\t// in\n    tag_149:\n      mload(0x40)\n      dup1\n      swap2\n      sub\n      swap1\n      log3\n        /* \"contracts/Erc20token.sol\":2615:2619  true */\n      0x01\n        /* \"contracts/Erc20token.sol\":2608:2619  return true */\n      swap1\n      pop\n        /* \"contracts/Erc20token.sol\":2225:2627  function approve(address spender, uint tokens) public override returns (bool success){\r... */\n      swap3\n      swap2\n      pop\n      pop\n      jump\t// out\n        /* \"contracts/Erc20token.sol\":1168:1200  uint public override totalSupply */\n    tag_42:\n      sload(0x04)\n      dup2\n      jump\t// out\n        /* \"contracts/Erc20token.sol\":2635:3271  function transferFrom(address from, address to, uint tokens) public override returns (bool success){\r... */\n    tag_49:\n        /* \"contracts/Erc20token.sol\":2721:2733  bool success */\n      0x00\n        /* \"contracts/Erc20token.sol\":2782:2788  tokens */\n      dup2\n        /* \"contracts/Erc20token.sol\":2753:2760  allowed */\n      0x06\n        /* \"contracts/Erc20token.sol\":2753:2766  allowed[from] */\n      0x00\n        /* \"contracts/Erc20token.sol\":2761:2765  from */\n      dup7\n        /* \"contracts/Erc20token.sol\":2753:2766  allowed[from] */\n      0xffffffffffffffffffffffffffffffffffffffff\n      and\n      0xffffffffffffffffffffffffffffffffffffffff\n      and\n      dup2\n      mstore\n      0x20\n      add\n      swap1\n      dup2\n      mstore\n      0x20\n      add\n      0x00\n      keccak256\n        /* \"contracts/Erc20token.sol\":2753:2778  allowed[from][msg.sender] */\n      0x00\n        /* \"contracts/Erc20token.sol\":2767:2777  msg.sender */\n      caller\n        /* \"contracts/Erc20token.sol\":2753:2778  allowed[from][msg.sender] */\n      0xffffffffffffffffffffffffffffffffffffffff\n      and\n      0xffffffffffffffffffffffffffffffffffffffff\n      and\n      dup2\n      mstore\n      0x20\n      add\n      swap1\n      dup2\n      mstore\n      0x20\n      add\n      0x00\n      keccak256\n      sload\n        /* \"contracts/Erc20token.sol\":2753:2788  allowed[from][msg.sender] >= tokens */\n      lt\n      iszero\n        /* \"contracts/Erc20token.sol\":2745:2841  require(allowed[from][msg.sender] >= tokens, \"Token value is greater than the approved balance\") */\n      tag_151\n      jumpi\n      mload(0x40)\n      0x08c379a000000000000000000000000000000000000000000000000000000000\n      dup2\n      mstore\n      0x04\n      add\n      tag_152\n      swap1\n      tag_153\n      jump\t// in\n    tag_152:\n      mload(0x40)\n      dup1\n      swap2\n      sub\n      swap1\n      revert\n    tag_151:\n        /* \"contracts/Erc20token.sol\":2878:2884  tokens */\n      dup2\n        /* \"contracts/Erc20token.sol\":2860:2868  balances */\n      0x05\n        /* \"contracts/Erc20token.sol\":2860:2874  balances[from] */\n      0x00\n        /* \"contracts/Erc20token.sol\":2869:2873  from */\n      dup7\n        /* \"contracts/Erc20token.sol\":2860:2874  balances[from] */\n      0xffffffffffffffffffffffffffffffffffffffff\n      and\n      0xffffffffffffffffffffffffffffffffffffffff\n      and\n      dup2\n      mstore\n      0x20\n      add\n      swap1\n      dup2\n      mstore\n      0x20\n      add\n      0x00\n      keccak256\n      sload\n        /* \"contracts/Erc20token.sol\":2860:2884  balances[from] >= tokens */\n      lt\n      iszero\n        /* \"contracts/Erc20token.sol\":2852:2907  require(balances[from] >= tokens, \"Insuficient Balnce\") */\n      tag_154\n      jumpi\n      mload(0x40)\n      0x08c379a000000000000000000000000000000000000000000000000000000000\n      dup2\n      mstore\n      0x04\n      add\n      tag_155\n      swap1\n      tag_156\n      jump\t// in\n    tag_155:\n      mload(0x40)\n      dup1\n      swap2\n      sub\n      swap1\n      revert\n    tag_154:\n        /* \"contracts/Erc20token.sol\":2935:2936  0 */\n      0x00\n        /* \"contracts/Erc20token.sol\":2926:2932  tokens */\n      dup3\n        /* \"contracts/Erc20token.sol\":2926:2936  tokens > 0 */\n      gt\n        /* \"contracts/Erc20token.sol\":2918:2975  require(tokens > 0, \"Token value must be greater than 0\") */\n      tag_157\n      jumpi\n      mload(0x40)\n      0x08c379a000000000000000000000000000000000000000000000000000000000\n      dup2\n      mstore\n      0x04\n      add\n      tag_158\n      swap1\n      tag_148\n      jump\t// in\n    tag_158:\n      mload(0x40)\n      dup1\n      swap2\n      sub\n      swap1\n      revert\n    tag_157:\n        /* \"contracts/Erc20token.sol\":3017:3023  tokens */\n      dup2\n        /* \"contracts/Erc20token.sol\":2988:2995  allowed */\n      0x06\n        /* \"contracts/Erc20token.sol\":2988:3001  allowed[from] */\n      0x00\n        /* \"contracts/Erc20token.sol\":2996:3000  from */\n      dup7\n        /* \"contracts/Erc20token.sol\":2988:3001  allowed[from] */\n      0xffffffffffffffffffffffffffffffffffffffff\n      and\n      0xffffffffffffffffffffffffffffffffffffffff\n      and\n      dup2\n      mstore\n      0x20\n      add\n      swap1\n      dup2\n      mstore\n      0x20\n      add\n      0x00\n      keccak256\n        /* \"contracts/Erc20token.sol\":2988:3013  allowed[from][msg.sender] */\n      0x00\n        /* \"contracts/Erc20token.sol\":3002:3012  msg.sender */\n      caller\n        /* \"contracts/Erc20token.sol\":2988:3013  allowed[from][msg.sender] */\n      0xffffffffffffffffffffffffffffffffffffffff\n      and\n      0xffffffffffffffffffffffffffffffffffffffff\n      and\n      dup2\n      mstore\n      0x20\n      add\n      swap1\n      dup2\n      mstore\n      0x20\n      add\n      0x00\n      keccak256\n      0x00\n        /* \"contracts/Erc20token.sol\":2988:3023  allowed[from][msg.sender] -= tokens */\n      dup3\n      dup3\n      sload\n      tag_159\n      swap2\n      swap1\n      tag_160\n      jump\t// in\n    tag_159:\n      swap3\n      pop\n      pop\n      dup2\n      swap1\n      sstore\n      pop\n        /* \"contracts/Erc20token.sol\":3105:3111  tokens */\n      dup2\n        /* \"contracts/Erc20token.sol\":3087:3095  balances */\n      0x05\n        /* \"contracts/Erc20token.sol\":3087:3101  balances[from] */\n      0x00\n        /* \"contracts/Erc20token.sol\":3096:3100  from */\n      dup7\n        /* \"contracts/Erc20token.sol\":3087:3101  balances[from] */\n      0xffffffffffffffffffffffffffffffffffffffff\n      and\n      0xffffffffffffffffffffffffffffffffffffffff\n      and\n      dup2\n      mstore\n      0x20\n      add\n      swap1\n      dup2\n      mstore\n      0x20\n      add\n      0x00\n      keccak256\n      0x00\n        /* \"contracts/Erc20token.sol\":3087:3111  balances[from] -= tokens */\n      dup3\n      dup3\n      sload\n      tag_161\n      swap2\n      swap1\n      tag_160\n      jump\t// in\n    tag_161:\n      swap3\n      pop\n      pop\n      dup2\n      swap1\n      sstore\n      pop\n        /* \"contracts/Erc20token.sol\":3189:3195  tokens */\n      dup2\n        /* \"contracts/Erc20token.sol\":3173:3181  balances */\n      0x05\n        /* \"contracts/Erc20token.sol\":3173:3185  balances[to] */\n      0x00\n        /* \"contracts/Erc20token.sol\":3182:3184  to */\n      dup6\n        /* \"contracts/Erc20token.sol\":3173:3185  balances[to] */\n      0xffffffffffffffffffffffffffffffffffffffff\n      and\n      0xffffffffffffffffffffffffffffffffffffffff\n      and\n      dup2\n      mstore\n      0x20\n      add\n      swap1\n      dup2\n      mstore\n      0x20\n      add\n      0x00\n      keccak256\n      0x00\n        /* \"contracts/Erc20token.sol\":3173:3195  balances[to] += tokens */\n      dup3\n      dup3\n      sload\n      tag_162\n      swap2\n      swap1\n      tag_163\n      jump\t// in\n    tag_162:\n      swap3\n      pop\n      pop\n      dup2\n      swap1\n      sstore\n      pop\n        /* \"contracts/Erc20token.sol\":3228:3230  to */\n      dup3\n        /* \"contracts/Erc20token.sol\":3213:3239  Transfer(from, to, tokens) */\n      0xffffffffffffffffffffffffffffffffffffffff\n      and\n        /* \"contracts/Erc20token.sol\":3222:3226  from */\n      dup5\n        /* \"contracts/Erc20token.sol\":3213:3239  Transfer(from, to, tokens) */\n      0xffffffffffffffffffffffffffffffffffffffff\n      and\n      0xddf252ad1be2c89b69c2b068fc378daa952ba7f163c4a11628f55a4df523b3ef\n        /* \"contracts/Erc20token.sol\":3232:3238  tokens */\n      dup5\n        /* \"contracts/Erc20token.sol\":3213:3239  Transfer(from, to, tokens) */\n      mload(0x40)\n      tag_164\n      swap2\n      swap1\n      tag_44\n      jump\t// in\n    tag_164:\n      mload(0x40)\n      dup1\n      swap2\n      sub\n      swap1\n      log3\n        /* \"contracts/Erc20token.sol\":3259:3263  true */\n      0x01\n        /* \"contracts/Erc20token.sol\":3252:3263  return true */\n      swap1\n      pop\n        /* \"contracts/Erc20token.sol\":2635:3271  function transferFrom(address from, address to, uint tokens) public override returns (bool success){\r... */\n      swap4\n      swap3\n      pop\n      pop\n      pop\n      jump\t// out\n        /* \"contracts/Erc20token.sol\":1209:1250  mapping(address => uint) public  balances */\n    tag_55:\n      mstore(0x20, 0x05)\n      dup1\n      0x00\n      mstore\n      keccak256(0x00, 0x40)\n      0x00\n      swap2\n      pop\n      swap1\n      pop\n      sload\n      dup2\n      jump\t// out\n        /* \"contracts/Erc20token.sol\":3959:3996  address payable public depositAddress */\n    tag_59:\n      0x0e\n      0x01\n      swap1\n      sload\n      swap1\n      0x0100\n      exp\n      swap1\n      div\n      0xffffffffffffffffffffffffffffffffffffffff\n      and\n      dup2\n      jump\t// out\n        /* \"contracts/Erc20token.sol\":4500:4986  function checkIcoState() public view returns(State){\r... */\n    tag_64:\n        /* \"contracts/Erc20token.sol\":4545:4550  State */\n      0x00\n        /* \"contracts/Erc20token.sol\":4562:4580  State currentState */\n      dup1\n        /* \"contracts/Erc20token.sol\":4606:4618  State.Halted */\n      0x04\n        /* \"contracts/Erc20token.sol\":4594:4618  icoState == State.Halted */\n      dup1\n      dup2\n      gt\n      iszero\n      tag_166\n      jumpi\n      tag_167\n      tag_168\n      jump\t// in\n    tag_167:\n    tag_166:\n        /* \"contracts/Erc20token.sol\":4594:4602  icoState */\n      0x0e\n      0x00\n      swap1\n      sload\n      swap1\n      0x0100\n      exp\n      swap1\n      div\n      0xff\n      and\n        /* \"contracts/Erc20token.sol\":4594:4618  icoState == State.Halted */\n      0x04\n      dup2\n      gt\n      iszero\n      tag_169\n      jumpi\n      tag_170\n      tag_168\n      jump\t// in\n    tag_170:\n    tag_169:\n      eq\n        /* \"contracts/Erc20token.sol\":4591:4949  if(icoState == State.Halted){\r... */\n      iszero\n      tag_171\n      jumpi\n        /* \"contracts/Erc20token.sol\":4649:4661  State.Halted */\n      0x04\n        /* \"contracts/Erc20token.sol\":4634:4661  currentState = State.Halted */\n      swap1\n      pop\n        /* \"contracts/Erc20token.sol\":4591:4949  if(icoState == State.Halted){\r... */\n      jump(tag_172)\n    tag_171:\n        /* \"contracts/Erc20token.sol\":4699:4708  startTime */\n      sload(0x0a)\n        /* \"contracts/Erc20token.sol\":4681:4696  block.timestamp */\n      timestamp\n        /* \"contracts/Erc20token.sol\":4681:4708  block.timestamp < startTime */\n      lt\n        /* \"contracts/Erc20token.sol\":4678:4949  if(block.timestamp < startTime){\r... */\n      iszero\n      tag_173\n      jumpi\n        /* \"contracts/Erc20token.sol\":4739:4756  State.beforeStart */\n      0x00\n        /* \"contracts/Erc20token.sol\":4724:4756  currentState = State.beforeStart */\n      swap1\n      pop\n        /* \"contracts/Erc20token.sol\":4678:4949  if(block.timestamp < startTime){\r... */\n      jump(tag_174)\n    tag_173:\n        /* \"contracts/Erc20token.sol\":4795:4804  startTime */\n      sload(0x0a)\n        /* \"contracts/Erc20token.sol\":4776:4791  block.timestamp */\n      timestamp\n        /* \"contracts/Erc20token.sol\":4776:4804  block.timestamp >= startTime */\n      lt\n      iszero\n        /* \"contracts/Erc20token.sol\":4776:4833  block.timestamp >= startTime && block.timestamp < endTime */\n      dup1\n      iszero\n      tag_175\n      jumpi\n      pop\n        /* \"contracts/Erc20token.sol\":4826:4833  endTime */\n      sload(0x0b)\n        /* \"contracts/Erc20token.sol\":4808:4823  block.timestamp */\n      timestamp\n        /* \"contracts/Erc20token.sol\":4808:4833  block.timestamp < endTime */\n      lt\n        /* \"contracts/Erc20token.sol\":4776:4833  block.timestamp >= startTime && block.timestamp < endTime */\n    tag_175:\n        /* \"contracts/Erc20token.sol\":4773:4949  if(block.timestamp >= startTime && block.timestamp < endTime){\r... */\n      iszero\n      tag_176\n      jumpi\n        /* \"contracts/Erc20token.sol\":4864:4877  State.Running */\n      0x01\n        /* \"contracts/Erc20token.sol\":4849:4877  currentState = State.Running */\n      swap1\n      pop\n        /* \"contracts/Erc20token.sol\":4773:4949  if(block.timestamp >= startTime && block.timestamp < endTime){\r... */\n      jump(tag_177)\n    tag_176:\n        /* \"contracts/Erc20token.sol\":4923:4937  State.AfterEnd */\n      0x03\n        /* \"contracts/Erc20token.sol\":4908:4937  currentState = State.AfterEnd */\n      swap1\n      pop\n        /* \"contracts/Erc20token.sol\":4773:4949  if(block.timestamp >= startTime && block.timestamp < endTime){\r... */\n    tag_177:\n        /* \"contracts/Erc20token.sol\":4678:4949  if(block.timestamp < startTime){\r... */\n    tag_174:\n        /* \"contracts/Erc20token.sol\":4591:4949  if(icoState == State.Halted){\r... */\n    tag_172:\n        /* \"contracts/Erc20token.sol\":4966:4978  currentState */\n      dup1\n        /* \"contracts/Erc20token.sol\":4959:4978  return currentState */\n      swap2\n      pop\n      pop\n        /* \"contracts/Erc20token.sol\":4500:4986  function checkIcoState() public view returns(State){\r... */\n      swap1\n      jump\t// out\n        /* \"contracts/Erc20token.sol\":1104:1128  uint public decimals = 0 */\n    tag_69:\n      sload(0x02)\n      dup2\n      jump\t// out\n        /* \"contracts/Erc20token.sol\":3699:3718  uint public endTime */\n    tag_73:\n      sload(0x0b)\n      dup2\n      jump\t// out\n        /* \"contracts/Erc20token.sol\":3902:3923  State public icoState */\n    tag_77:\n      0x0e\n      0x00\n      swap1\n      sload\n      swap1\n      0x0100\n      exp\n      swap1\n      div\n      0xff\n      and\n      dup2\n      jump\t// out\n        /* \"contracts/Erc20token.sol\":1137:1159  address public founder */\n    tag_81:\n      0x03\n      0x00\n      swap1\n      sload\n      swap1\n      0x0100\n      exp\n      swap1\n      div\n      0xffffffffffffffffffffffffffffffffffffffff\n      and\n      dup2\n      jump\t// out\n        /* \"contracts/Erc20token.sol\":1259:1318  mapping(address => mapping(address => uint)) public allowed */\n    tag_88:\n      mstore(0x20, 0x06)\n      dup2\n      0x00\n      mstore\n      mstore(0x20, keccak256(0x00, 0x40))\n      dup1\n      0x00\n      mstore\n      keccak256(0x00, 0x40)\n      0x00\n      swap2\n      pop\n      swap2\n      pop\n      pop\n      sload\n      dup2\n      jump\t// out\n        /* \"contracts/Erc20token.sol\":1461:1589  function balanceOf(address tokenOwner) public override view returns (uint balance){\r... */\n    tag_93:\n        /* \"contracts/Erc20token.sol\":1530:1542  uint balance */\n      0x00\n        /* \"contracts/Erc20token.sol\":1561:1569  balances */\n      0x05\n        /* \"contracts/Erc20token.sol\":1561:1581  balances[tokenOwner] */\n      0x00\n        /* \"contracts/Erc20token.sol\":1570:1580  tokenOwner */\n      dup4\n        /* \"contracts/Erc20token.sol\":1561:1581  balances[tokenOwner] */\n      0xffffffffffffffffffffffffffffffffffffffff\n      and\n      0xffffffffffffffffffffffffffffffffffffffff\n      and\n      dup2\n      mstore\n      0x20\n      add\n      swap1\n      dup2\n      mstore\n      0x20\n      add\n      0x00\n      keccak256\n      sload\n        /* \"contracts/Erc20token.sol\":1554:1581  return balances[tokenOwner] */\n      swap1\n      pop\n        /* \"contracts/Erc20token.sol\":1461:1589  function balanceOf(address tokenOwner) public override view returns (uint balance){\r... */\n      swap2\n      swap1\n      pop\n      jump\t// out\n        /* \"contracts/Erc20token.sol\":3653:3692  uint public startTime = block.timestamp */\n    tag_97:\n      sload(0x0a)\n      dup2\n      jump\t// out\n        /* \"contracts/Erc20token.sol\":1069:1097  string public symbol = \"ZLZ\" */\n    tag_101:\n      0x01\n      dup1\n      sload\n      tag_179\n      swap1\n      tag_137\n      jump\t// in\n    tag_179:\n      dup1\n      0x1f\n      add\n      0x20\n      dup1\n      swap2\n      div\n      mul\n      0x20\n      add\n      mload(0x40)\n      swap1\n      dup2\n      add\n      0x40\n      mstore\n      dup1\n      swap3\n      swap2\n      swap1\n      dup2\n      dup2\n      mstore\n      0x20\n      add\n      dup3\n      dup1\n      sload\n      tag_180\n      swap1\n      tag_137\n      jump\t// in\n    tag_180:\n      dup1\n      iszero\n      tag_181\n      jumpi\n      dup1\n      0x1f\n      lt\n      tag_182\n      jumpi\n      0x0100\n      dup1\n      dup4\n      sload\n      div\n      mul\n      dup4\n      mstore\n      swap2\n      0x20\n      add\n      swap2\n      jump(tag_181)\n    tag_182:\n      dup3\n      add\n      swap2\n      swap1\n      0x00\n      mstore\n      keccak256(0x00, 0x20)\n      swap1\n    tag_183:\n      dup2\n      sload\n      dup2\n      mstore\n      swap1\n      0x01\n      add\n      swap1\n      0x20\n      add\n      dup1\n      dup4\n      gt\n      tag_183\n      jumpi\n      dup3\n      swap1\n      sub\n      0x1f\n      and\n      dup3\n      add\n      swap2\n    tag_181:\n      pop\n      pop\n      pop\n      pop\n      pop\n      dup2\n      jump\t// out\n        /* \"contracts/Erc20token.sol\":1643:1964  function transfer(address to, uint tokens) public override returns (bool success){\r... */\n    tag_106:\n        /* \"contracts/Erc20token.sol\":1711:1723  bool success */\n      0x00\n        /* \"contracts/Erc20token.sol\":1767:1773  tokens */\n      dup2\n        /* \"contracts/Erc20token.sol\":1743:1751  balances */\n      0x05\n        /* \"contracts/Erc20token.sol\":1743:1763  balances[msg.sender] */\n      0x00\n        /* \"contracts/Erc20token.sol\":1752:1762  msg.sender */\n      caller\n        /* \"contracts/Erc20token.sol\":1743:1763  balances[msg.sender] */\n      0xffffffffffffffffffffffffffffffffffffffff\n      and\n      0xffffffffffffffffffffffffffffffffffffffff\n      and\n      dup2\n      mstore\n      0x20\n      add\n      swap1\n      dup2\n      mstore\n      0x20\n      add\n      0x00\n      keccak256\n      sload\n        /* \"contracts/Erc20token.sol\":1743:1773  balances[msg.sender] >= tokens */\n      lt\n      iszero\n        /* \"contracts/Erc20token.sol\":1735:1806  require(balances[msg.sender] >= tokens, \"Insufficient Account Balance\") */\n      tag_185\n      jumpi\n      mload(0x40)\n      0x08c379a000000000000000000000000000000000000000000000000000000000\n      dup2\n      mstore\n      0x04\n      add\n      tag_186\n      swap1\n      tag_187\n      jump\t// in\n    tag_186:\n      mload(0x40)\n      dup1\n      swap2\n      sub\n      swap1\n      revert\n    tag_185:\n        /* \"contracts/Erc20token.sol\":1835:1841  tokens */\n      dup2\n        /* \"contracts/Erc20token.sol\":1819:1827  balances */\n      0x05\n        /* \"contracts/Erc20token.sol\":1819:1831  balances[to] */\n      0x00\n        /* \"contracts/Erc20token.sol\":1828:1830  to */\n      dup6\n        /* \"contracts/Erc20token.sol\":1819:1831  balances[to] */\n      0xffffffffffffffffffffffffffffffffffffffff\n      and\n      0xffffffffffffffffffffffffffffffffffffffff\n      and\n      dup2\n      mstore\n      0x20\n      add\n      swap1\n      dup2\n      mstore\n      0x20\n      add\n      0x00\n      keccak256\n      0x00\n        /* \"contracts/Erc20token.sol\":1819:1841  balances[to] += tokens */\n      dup3\n      dup3\n      sload\n      tag_188\n      swap2\n      swap1\n      tag_163\n      jump\t// in\n    tag_188:\n      swap3\n      pop\n      pop\n      dup2\n      swap1\n      sstore\n      pop\n        /* \"contracts/Erc20token.sol\":1876:1882  tokens */\n      dup2\n        /* \"contracts/Erc20token.sol\":1852:1860  balances */\n      0x05\n        /* \"contracts/Erc20token.sol\":1852:1872  balances[msg.sender] */\n      0x00\n        /* \"contracts/Erc20token.sol\":1861:1871  msg.sender */\n      caller\n        /* \"contracts/Erc20token.sol\":1852:1872  balances[msg.sender] */\n      0xffffffffffffffffffffffffffffffffffffffff\n      and\n      0xffffffffffffffffffffffffffffffffffffffff\n      and\n      dup2\n      mstore\n      0x20\n      add\n      swap1\n      dup2\n      mstore\n      0x20\n      add\n      0x00\n      keccak256\n      0x00\n        /* \"contracts/Erc20token.sol\":1852:1882  balances[msg.sender] -= tokens */\n      dup3\n      dup3\n      sload\n      tag_189\n      swap2\n      swap1\n      tag_160\n      jump\t// in\n    tag_189:\n      swap3\n      pop\n      pop\n      dup2\n      swap1\n      sstore\n      pop\n        /* \"contracts/Erc20token.sol\":1921:1923  to */\n      dup3\n        /* \"contracts/Erc20token.sol\":1900:1932  Transfer(msg.sender, to, tokens) */\n      0xffffffffffffffffffffffffffffffffffffffff\n      and\n        /* \"contracts/Erc20token.sol\":1909:1919  msg.sender */\n      caller\n        /* \"contracts/Erc20token.sol\":1900:1932  Transfer(msg.sender, to, tokens) */\n      0xffffffffffffffffffffffffffffffffffffffff\n      and\n      0xddf252ad1be2c89b69c2b068fc378daa952ba7f163c4a11628f55a4df523b3ef\n        /* \"contracts/Erc20token.sol\":1925:1931  tokens */\n      dup5\n        /* \"contracts/Erc20token.sol\":1900:1932  Transfer(msg.sender, to, tokens) */\n      mload(0x40)\n      tag_190\n      swap2\n      swap1\n      tag_44\n      jump\t// in\n    tag_190:\n      mload(0x40)\n      dup1\n      swap2\n      sub\n      swap1\n      log3\n        /* \"contracts/Erc20token.sol\":1952:1956  true */\n      0x01\n        /* \"contracts/Erc20token.sol\":1945:1956  return true */\n      swap1\n      pop\n        /* \"contracts/Erc20token.sol\":1643:1964  function transfer(address to, uint tokens) public override returns (bool success){\r... */\n      swap3\n      swap2\n      pop\n      pop\n      jump\t// out\n        /* \"contracts/Erc20token.sol\":3818:3853  uint public maximumAmount = 1 ether */\n    tag_110:\n      sload(0x0d)\n      dup2\n      jump\t// out\n        /* \"contracts/Erc20token.sol\":3774:3811  uint public minimumAmount = 0.1 ether */\n    tag_114:\n      sload(0x0c)\n      dup2\n      jump\t// out\n        /* \"contracts/Erc20token.sol\":3399:3423  uint public raisedAmount */\n    tag_118:\n      sload(0x08)\n      dup2\n      jump\t// out\n        /* \"contracts/Erc20token.sol\":2062:2217  function allowance(address tokenOwner, address spender) public override view returns (uint remaining){\r... */\n    tag_123:\n        /* \"contracts/Erc20token.sol\":2148:2162  uint remaining */\n      0x00\n        /* \"contracts/Erc20token.sol\":2181:2188  allowed */\n      0x06\n        /* \"contracts/Erc20token.sol\":2181:2200  allowed[tokenOwner] */\n      0x00\n        /* \"contracts/Erc20token.sol\":2189:2199  tokenOwner */\n      dup5\n        /* \"contracts/Erc20token.sol\":2181:2200  allowed[tokenOwner] */\n      0xffffffffffffffffffffffffffffffffffffffff\n      and\n      0xffffffffffffffffffffffffffffffffffffffff\n      and\n      dup2\n      mstore\n      0x20\n      add\n      swap1\n      dup2\n      mstore\n      0x20\n      add\n      0x00\n      keccak256\n        /* \"contracts/Erc20token.sol\":2181:2209  allowed[tokenOwner][spender] */\n      0x00\n        /* \"contracts/Erc20token.sol\":2201:2208  spender */\n      dup4\n        /* \"contracts/Erc20token.sol\":2181:2209  allowed[tokenOwner][spender] */\n      0xffffffffffffffffffffffffffffffffffffffff\n      and\n      0xffffffffffffffffffffffffffffffffffffffff\n      and\n      dup2\n      mstore\n      0x20\n      add\n      swap1\n      dup2\n      mstore\n      0x20\n      add\n      0x00\n      keccak256\n      sload\n        /* \"contracts/Erc20token.sol\":2174:2209  return allowed[tokenOwner][spender] */\n      swap1\n      pop\n        /* \"contracts/Erc20token.sol\":2062:2217  function allowance(address tokenOwner, address spender) public override view returns (uint remaining){\r... */\n      swap3\n      swap2\n      pop\n      pop\n      jump\t// out\n        /* \"contracts/Erc20token.sol\":5035:6211  function invest() public payable onlyAdmin returns(bool){\r... */\n    tag_126:\n        /* \"contracts/Erc20token.sol\":5086:5090  bool */\n      0x00\n        /* \"contracts/Erc20token.sol\":4428:4433  admin */\n      0x07\n      0x00\n      swap1\n      sload\n      swap1\n      0x0100\n      exp\n      swap1\n      div\n      0xffffffffffffffffffffffffffffffffffffffff\n      and\n        /* \"contracts/Erc20token.sol\":4414:4433  msg.sender == admin */\n      0xffffffffffffffffffffffffffffffffffffffff\n      and\n        /* \"contracts/Erc20token.sol\":4414:4424  msg.sender */\n      caller\n        /* \"contracts/Erc20token.sol\":4414:4433  msg.sender == admin */\n      0xffffffffffffffffffffffffffffffffffffffff\n      and\n      eq\n        /* \"contracts/Erc20token.sol\":4406:4472  require(msg.sender == admin, \"Access denied, you ae not an admin\") */\n      tag_193\n      jumpi\n      mload(0x40)\n      0x08c379a000000000000000000000000000000000000000000000000000000000\n      dup2\n      mstore\n      0x04\n      add\n      tag_194\n      swap1\n      tag_195\n      jump\t// in\n    tag_194:\n      mload(0x40)\n      dup1\n      swap2\n      sub\n      swap1\n      revert\n    tag_193:\n        /* \"contracts/Erc20token.sol\":5153:5168  checkIcoState() */\n      tag_197\n        /* \"contracts/Erc20token.sol\":5153:5166  checkIcoState */\n      tag_64\n        /* \"contracts/Erc20token.sol\":5153:5168  checkIcoState() */\n      jump\t// in\n    tag_197:\n        /* \"contracts/Erc20token.sol\":5142:5150  icoState */\n      0x0e\n      0x00\n        /* \"contracts/Erc20token.sol\":5142:5168  icoState = checkIcoState() */\n      0x0100\n      exp\n      dup2\n      sload\n      dup2\n      0xff\n      mul\n      not\n      and\n      swap1\n      dup4\n      0x04\n      dup2\n      gt\n      iszero\n      tag_198\n      jumpi\n      tag_199\n      tag_168\n      jump\t// in\n    tag_199:\n    tag_198:\n      mul\n      or\n      swap1\n      sstore\n      pop\n        /* \"contracts/Erc20token.sol\":5199:5212  State.Running */\n      0x01\n        /* \"contracts/Erc20token.sol\":5187:5212  icoState == State.Running */\n      0x04\n      dup2\n      gt\n      iszero\n      tag_200\n      jumpi\n      tag_201\n      tag_168\n      jump\t// in\n    tag_201:\n    tag_200:\n        /* \"contracts/Erc20token.sol\":5187:5195  icoState */\n      0x0e\n      0x00\n      swap1\n      sload\n      swap1\n      0x0100\n      exp\n      swap1\n      div\n      0xff\n      and\n        /* \"contracts/Erc20token.sol\":5187:5212  icoState == State.Running */\n      0x04\n      dup2\n      gt\n      iszero\n      tag_202\n      jumpi\n      tag_203\n      tag_168\n      jump\t// in\n    tag_203:\n    tag_202:\n      eq\n        /* \"contracts/Erc20token.sol\":5179:5249  require(icoState == State.Running, \"Amount must be greater than zero\") */\n      tag_204\n      jumpi\n      mload(0x40)\n      0x08c379a000000000000000000000000000000000000000000000000000000000\n      dup2\n      mstore\n      0x04\n      add\n      tag_205\n      swap1\n      tag_206\n      jump\t// in\n    tag_205:\n      mload(0x40)\n      dup1\n      swap2\n      sub\n      swap1\n      revert\n    tag_204:\n        /* \"contracts/Erc20token.sol\":5337:5338  0 */\n      0x00\n        /* \"contracts/Erc20token.sol\":5325:5334  msg.value */\n      callvalue\n        /* \"contracts/Erc20token.sol\":5325:5338  msg.value > 0 */\n      gt\n        /* \"contracts/Erc20token.sol\":5317:5375  require(msg.value > 0, \"Amount must be greater than zero\") */\n      tag_207\n      jumpi\n      mload(0x40)\n      0x08c379a000000000000000000000000000000000000000000000000000000000\n      dup2\n      mstore\n      0x04\n      add\n      tag_208\n      swap1\n      tag_206\n      jump\t// in\n    tag_208:\n      mload(0x40)\n      dup1\n      swap2\n      sub\n      swap1\n      revert\n    tag_207:\n        /* \"contracts/Erc20token.sol\":5419:5435  string memory s1 */\n      0x00\n        /* \"contracts/Erc20token.sol\":5497:5510  minimumAmount */\n      sload(0x0c)\n        /* \"contracts/Erc20token.sol\":5445:5511  abi.encodePacked(\"Amount cannot not be lower than\", minimumAmount) */\n      add(0x20, mload(0x40))\n      tag_209\n      swap2\n      swap1\n      tag_210\n      jump\t// in\n    tag_209:\n      mload(0x40)\n      0x20\n      dup2\n      dup4\n      sub\n      sub\n      dup2\n      mstore\n      swap1\n      0x40\n      mstore\n        /* \"contracts/Erc20token.sol\":5419:5512  string memory s1 = string(abi.encodePacked(\"Amount cannot not be lower than\", minimumAmount)) */\n      swap1\n      pop\n        /* \"contracts/Erc20token.sol\":5523:5539  string memory s2 */\n      0x00\n        /* \"contracts/Erc20token.sol\":5603:5616  maximumAmount */\n      sload(0x0d)\n        /* \"contracts/Erc20token.sol\":5549:5617  abi.encodePacked(\"Amount cannot not be higgher than\", maximumAmount) */\n      add(0x20, mload(0x40))\n      tag_211\n      swap2\n      swap1\n      tag_212\n      jump\t// in\n    tag_211:\n      mload(0x40)\n      0x20\n      dup2\n      dup4\n      sub\n      sub\n      dup2\n      mstore\n      swap1\n      0x40\n      mstore\n        /* \"contracts/Erc20token.sol\":5523:5618  string memory s2 = string(abi.encodePacked(\"Amount cannot not be higgher than\", maximumAmount)) */\n      swap1\n      pop\n        /* \"contracts/Erc20token.sol\":5629:5645  string memory s3 */\n      0x00\n        /* \"contracts/Erc20token.sol\":5672:5674  s1 */\n      dup3\n        /* \"contracts/Erc20token.sol\":5676:5678  s2 */\n      dup3\n        /* \"contracts/Erc20token.sol\":5655:5679  abi.encodePacked(s1, s2) */\n      add(0x20, mload(0x40))\n      tag_213\n      swap3\n      swap2\n      swap1\n      tag_214\n      jump\t// in\n    tag_213:\n      mload(0x40)\n      0x20\n      dup2\n      dup4\n      sub\n      sub\n      dup2\n      mstore\n      swap1\n      0x40\n      mstore\n        /* \"contracts/Erc20token.sol\":5629:5680  string memory s3 = string(abi.encodePacked(s1, s2)) */\n      swap1\n      pop\n        /* \"contracts/Erc20token.sol\":5712:5725  minimumAmount */\n      sload(0x0c)\n        /* \"contracts/Erc20token.sol\":5699:5708  msg.value */\n      callvalue\n        /* \"contracts/Erc20token.sol\":5699:5725  msg.value >= minimumAmount */\n      lt\n      iszero\n        /* \"contracts/Erc20token.sol\":5699:5755  msg.value >= minimumAmount && msg.value <= maximumAmount */\n      dup1\n      iszero\n      tag_215\n      jumpi\n      pop\n        /* \"contracts/Erc20token.sol\":5742:5755  maximumAmount */\n      sload(0x0d)\n        /* \"contracts/Erc20token.sol\":5729:5738  msg.value */\n      callvalue\n        /* \"contracts/Erc20token.sol\":5729:5755  msg.value <= maximumAmount */\n      gt\n      iszero\n        /* \"contracts/Erc20token.sol\":5699:5755  msg.value >= minimumAmount && msg.value <= maximumAmount */\n    tag_215:\n        /* \"contracts/Erc20token.sol\":5757:5759  s3 */\n      dup2\n        /* \"contracts/Erc20token.sol\":5691:5760  require(msg.value >= minimumAmount && msg.value <= maximumAmount, s3) */\n      swap1\n      tag_216\n      jumpi\n      mload(0x40)\n      0x08c379a000000000000000000000000000000000000000000000000000000000\n      dup2\n      mstore\n      0x04\n      add\n      tag_217\n      swap2\n      swap1\n      tag_32\n      jump\t// in\n    tag_217:\n      mload(0x40)\n      dup1\n      swap2\n      sub\n      swap1\n      revert\n    tag_216:\n      pop\n        /* \"contracts/Erc20token.sol\":5773:5784  uint amount */\n      0x00\n        /* \"contracts/Erc20token.sol\":5802:5811  msg.value */\n      callvalue\n        /* \"contracts/Erc20token.sol\":5787:5799  raisedAmount */\n      sload(0x08)\n        /* \"contracts/Erc20token.sol\":5787:5811  raisedAmount + msg.value */\n      tag_218\n      swap2\n      swap1\n      tag_163\n      jump\t// in\n    tag_218:\n        /* \"contracts/Erc20token.sol\":5773:5811  uint amount = raisedAmount + msg.value */\n      swap1\n      pop\n        /* \"contracts/Erc20token.sol\":5840:5847  hardCap */\n      sload(0x09)\n        /* \"contracts/Erc20token.sol\":5830:5836  amount */\n      dup2\n        /* \"contracts/Erc20token.sol\":5830:5847  amount <= hardCap */\n      gt\n      iszero\n        /* \"contracts/Erc20token.sol\":5822:5900  require(amount <= hardCap, \"The maximum amount to be raised has been reached\") */\n      tag_219\n      jumpi\n      mload(0x40)\n      0x08c379a000000000000000000000000000000000000000000000000000000000\n      dup2\n      mstore\n      0x04\n      add\n      tag_220\n      swap1\n      tag_221\n      jump\t// in\n    tag_220:\n      mload(0x40)\n      dup1\n      swap2\n      sub\n      swap1\n      revert\n    tag_219:\n        /* \"contracts/Erc20token.sol\":6031:6040  msg.value */\n      callvalue\n        /* \"contracts/Erc20token.sol\":6007:6015  balances */\n      0x05\n        /* \"contracts/Erc20token.sol\":6007:6027  balances[msg.sender] */\n      0x00\n        /* \"contracts/Erc20token.sol\":6016:6026  msg.sender */\n      caller\n        /* \"contracts/Erc20token.sol\":6007:6027  balances[msg.sender] */\n      0xffffffffffffffffffffffffffffffffffffffff\n      and\n      0xffffffffffffffffffffffffffffffffffffffff\n      and\n      dup2\n      mstore\n      0x20\n      add\n      swap1\n      dup2\n      mstore\n      0x20\n      add\n      0x00\n      keccak256\n      0x00\n        /* \"contracts/Erc20token.sol\":6007:6040  balances[msg.sender] += msg.value */\n      dup3\n      dup3\n      sload\n      tag_222\n      swap2\n      swap1\n      tag_163\n      jump\t// in\n    tag_222:\n      swap3\n      pop\n      pop\n      dup2\n      swap1\n      sstore\n      pop\n        /* \"contracts/Erc20token.sol\":6072:6081  msg.value */\n      callvalue\n        /* \"contracts/Erc20token.sol\":6051:6059  balances */\n      0x05\n        /* \"contracts/Erc20token.sol\":6051:6068  balances[founder] */\n      0x00\n        /* \"contracts/Erc20token.sol\":6060:6067  founder */\n      0x03\n      0x00\n      swap1\n      sload\n      swap1\n      0x0100\n      exp\n      swap1\n      div\n      0xffffffffffffffffffffffffffffffffffffffff\n      and\n        /* \"contracts/Erc20token.sol\":6051:6068  balances[founder] */\n      0xffffffffffffffffffffffffffffffffffffffff\n      and\n      0xffffffffffffffffffffffffffffffffffffffff\n      and\n      dup2\n      mstore\n      0x20\n      add\n      swap1\n      dup2\n      mstore\n      0x20\n      add\n      0x00\n      keccak256\n      0x00\n        /* \"contracts/Erc20token.sol\":6051:6081  balances[founder] -= msg.value */\n      dup3\n      dup3\n      sload\n      tag_223\n      swap2\n      swap1\n      tag_160\n      jump\t// in\n    tag_223:\n      swap3\n      pop\n      pop\n      dup2\n      swap1\n      sstore\n      pop\n        /* \"contracts/Erc20token.sol\":6143:6157  depositAddress */\n      0x0e\n      0x01\n      swap1\n      sload\n      swap1\n      0x0100\n      exp\n      swap1\n      div\n      0xffffffffffffffffffffffffffffffffffffffff\n      and\n        /* \"contracts/Erc20token.sol\":6143:6166  depositAddress.transfer */\n      0xffffffffffffffffffffffffffffffffffffffff\n      and\n        /* \"contracts/Erc20token.sol\":6143:6177  depositAddress.transfer(msg.value) */\n      0x08fc\n        /* \"contracts/Erc20token.sol\":6167:6176  msg.value */\n      callvalue\n        /* \"contracts/Erc20token.sol\":6143:6177  depositAddress.transfer(msg.value) */\n      swap1\n      dup2\n      iszero\n      mul\n      swap1\n      mload(0x40)\n      0x00\n      mload(0x40)\n      dup1\n      dup4\n      sub\n      dup2\n      dup6\n      dup9\n      dup9\n      call\n      swap4\n      pop\n      pop\n      pop\n      pop\n      iszero\n      dup1\n      iszero\n      tag_225\n      jumpi\n      returndatasize\n      0x00\n      dup1\n      returndatacopy\n      revert(0x00, returndatasize)\n    tag_225:\n      pop\n        /* \"contracts/Erc20token.sol\":6197:6201  true */\n      0x01\n        /* \"contracts/Erc20token.sol\":6190:6201  return true */\n      swap5\n      pop\n      pop\n      pop\n      pop\n      pop\n        /* \"contracts/Erc20token.sol\":5035:6211  function invest() public payable onlyAdmin returns(bool){\r... */\n      swap1\n      jump\t// out\n        /* \"contracts/Erc20token.sol\":3320:3340  address public admin */\n    tag_130:\n      0x07\n      0x00\n      swap1\n      sload\n      swap1\n      0x0100\n      exp\n      swap1\n      div\n      0xffffffffffffffffffffffffffffffffffffffff\n      and\n      dup2\n      jump\t// out\n        /* \"contracts/Erc20token.sol\":3482:3511  uint public hardCap = 5 ether */\n    tag_134:\n      sload(0x09)\n      dup2\n      jump\t// out\n        /* \"#utility.yul\":7:146   */\n    tag_227:\n        /* \"#utility.yul\":53:58   */\n      0x00\n        /* \"#utility.yul\":91:97   */\n      dup2\n        /* \"#utility.yul\":78:98   */\n      calldataload\n        /* \"#utility.yul\":69:98   */\n      swap1\n      pop\n        /* \"#utility.yul\":107:140   */\n      tag_229\n        /* \"#utility.yul\":134:139   */\n      dup2\n        /* \"#utility.yul\":107:140   */\n      tag_230\n      jump\t// in\n    tag_229:\n        /* \"#utility.yul\":7:146   */\n      swap3\n      swap2\n      pop\n      pop\n      jump\t// out\n        /* \"#utility.yul\":152:291   */\n    tag_231:\n        /* \"#utility.yul\":198:203   */\n      0x00\n        /* \"#utility.yul\":236:242   */\n      dup2\n        /* \"#utility.yul\":223:243   */\n      calldataload\n        /* \"#utility.yul\":214:243   */\n      swap1\n      pop\n        /* \"#utility.yul\":252:285   */\n      tag_233\n        /* \"#utility.yul\":279:284   */\n      dup2\n        /* \"#utility.yul\":252:285   */\n      tag_234\n      jump\t// in\n    tag_233:\n        /* \"#utility.yul\":152:291   */\n      swap3\n      swap2\n      pop\n      pop\n      jump\t// out\n        /* \"#utility.yul\":297:626   */\n    tag_54:\n        /* \"#utility.yul\":356:362   */\n      0x00\n        /* \"#utility.yul\":405:407   */\n      0x20\n        /* \"#utility.yul\":393:402   */\n      dup3\n        /* \"#utility.yul\":384:391   */\n      dup5\n        /* \"#utility.yul\":380:403   */\n      sub\n        /* \"#utility.yul\":376:408   */\n      slt\n        /* \"#utility.yul\":373:492   */\n      iszero\n      tag_236\n      jumpi\n        /* \"#utility.yul\":411:490   */\n      tag_237\n      tag_238\n      jump\t// in\n    tag_237:\n        /* \"#utility.yul\":373:492   */\n    tag_236:\n        /* \"#utility.yul\":531:532   */\n      0x00\n        /* \"#utility.yul\":556:609   */\n      tag_239\n        /* \"#utility.yul\":601:608   */\n      dup5\n        /* \"#utility.yul\":592:598   */\n      dup3\n        /* \"#utility.yul\":581:590   */\n      dup6\n        /* \"#utility.yul\":577:599   */\n      add\n        /* \"#utility.yul\":556:609   */\n      tag_227\n      jump\t// in\n    tag_239:\n        /* \"#utility.yul\":546:609   */\n      swap2\n      pop\n        /* \"#utility.yul\":502:619   */\n      pop\n        /* \"#utility.yul\":297:626   */\n      swap3\n      swap2\n      pop\n      pop\n      jump\t// out\n        /* \"#utility.yul\":632:1106   */\n    tag_87:\n        /* \"#utility.yul\":700:706   */\n      0x00\n        /* \"#utility.yul\":708:714   */\n      dup1\n        /* \"#utility.yul\":757:759   */\n      0x40\n        /* \"#utility.yul\":745:754   */\n      dup4\n        /* \"#utility.yul\":736:743   */\n      dup6\n        /* \"#utility.yul\":732:755   */\n      sub\n        /* \"#utility.yul\":728:760   */\n      slt\n        /* \"#utility.yul\":725:844   */\n      iszero\n      tag_241\n      jumpi\n        /* \"#utility.yul\":763:842   */\n      tag_242\n      tag_238\n      jump\t// in\n    tag_242:\n        /* \"#utility.yul\":725:844   */\n    tag_241:\n        /* \"#utility.yul\":883:884   */\n      0x00\n        /* \"#utility.yul\":908:961   */\n      tag_243\n        /* \"#utility.yul\":953:960   */\n      dup6\n        /* \"#utility.yul\":944:950   */\n      dup3\n        /* \"#utility.yul\":933:942   */\n      dup7\n        /* \"#utility.yul\":929:951   */\n      add\n        /* \"#utility.yul\":908:961   */\n      tag_227\n      jump\t// in\n    tag_243:\n        /* \"#utility.yul\":898:961   */\n      swap3\n      pop\n        /* \"#utility.yul\":854:971   */\n      pop\n        /* \"#utility.yul\":1010:1012   */\n      0x20\n        /* \"#utility.yul\":1036:1089   */\n      tag_244\n        /* \"#utility.yul\":1081:1088   */\n      dup6\n        /* \"#utility.yul\":1072:1078   */\n      dup3\n        /* \"#utility.yul\":1061:1070   */\n      dup7\n        /* \"#utility.yul\":1057:1079   */\n      add\n        /* \"#utility.yul\":1036:1089   */\n      tag_227\n      jump\t// in\n    tag_244:\n        /* \"#utility.yul\":1026:1089   */\n      swap2\n      pop\n        /* \"#utility.yul\":981:1099   */\n      pop\n        /* \"#utility.yul\":632:1106   */\n      swap3\n      pop\n      swap3\n      swap1\n      pop\n      jump\t// out\n        /* \"#utility.yul\":1112:1731   */\n    tag_48:\n        /* \"#utility.yul\":1189:1195   */\n      0x00\n        /* \"#utility.yul\":1197:1203   */\n      dup1\n        /* \"#utility.yul\":1205:1211   */\n      0x00\n        /* \"#utility.yul\":1254:1256   */\n      0x60\n        /* \"#utility.yul\":1242:1251   */\n      dup5\n        /* \"#utility.yul\":1233:1240   */\n      dup7\n        /* \"#utility.yul\":1229:1252   */\n      sub\n        /* \"#utility.yul\":1225:1257   */\n      slt\n        /* \"#utility.yul\":1222:1341   */\n      iszero\n      tag_246\n      jumpi\n        /* \"#utility.yul\":1260:1339   */\n      tag_247\n      tag_238\n      jump\t// in\n    tag_247:\n        /* \"#utility.yul\":1222:1341   */\n    tag_246:\n        /* \"#utility.yul\":1380:1381   */\n      0x00\n        /* \"#utility.yul\":1405:1458   */\n      tag_248\n        /* \"#utility.yul\":1450:1457   */\n      dup7\n        /* \"#utility.yul\":1441:1447   */\n      dup3\n        /* \"#utility.yul\":1430:1439   */\n      dup8\n        /* \"#utility.yul\":1426:1448   */\n      add\n        /* \"#utility.yul\":1405:1458   */\n      tag_227\n      jump\t// in\n    tag_248:\n        /* \"#utility.yul\":1395:1458   */\n      swap4\n      pop\n        /* \"#utility.yul\":1351:1468   */\n      pop\n        /* \"#utility.yul\":1507:1509   */\n      0x20\n        /* \"#utility.yul\":1533:1586   */\n      tag_249\n        /* \"#utility.yul\":1578:1585   */\n      dup7\n        /* \"#utility.yul\":1569:1575   */\n      dup3\n        /* \"#utility.yul\":1558:1567   */\n      dup8\n        /* \"#utility.yul\":1554:1576   */\n      add\n        /* \"#utility.yul\":1533:1586   */\n      tag_227\n      jump\t// in\n    tag_249:\n        /* \"#utility.yul\":1523:1586   */\n      swap3\n      pop\n        /* \"#utility.yul\":1478:1596   */\n      pop\n        /* \"#utility.yul\":1635:1637   */\n      0x40\n        /* \"#utility.yul\":1661:1714   */\n      tag_250\n        /* \"#utility.yul\":1706:1713   */\n      dup7\n        /* \"#utility.yul\":1697:1703   */\n      dup3\n        /* \"#utility.yul\":1686:1695   */\n      dup8\n        /* \"#utility.yul\":1682:1704   */\n      add\n        /* \"#utility.yul\":1661:1714   */\n      tag_231\n      jump\t// in\n    tag_250:\n        /* \"#utility.yul\":1651:1714   */\n      swap2\n      pop\n        /* \"#utility.yul\":1606:1724   */\n      pop\n        /* \"#utility.yul\":1112:1731   */\n      swap3\n      pop\n      swap3\n      pop\n      swap3\n      jump\t// out\n        /* \"#utility.yul\":1737:2211   */\n    tag_36:\n        /* \"#utility.yul\":1805:1811   */\n      0x00\n        /* \"#utility.yul\":1813:1819   */\n      dup1\n        /* \"#utility.yul\":1862:1864   */\n      0x40\n        /* \"#utility.yul\":1850:1859   */\n      dup4\n        /* \"#utility.yul\":1841:1848   */\n      dup6\n        /* \"#utility.yul\":1837:1860   */\n      sub\n        /* \"#utility.yul\":1833:1865   */\n      slt\n        /* \"#utility.yul\":1830:1949   */\n      iszero\n      tag_252\n      jumpi\n        /* \"#utility.yul\":1868:1947   */\n      tag_253\n      tag_238\n      jump\t// in\n    tag_253:\n        /* \"#utility.yul\":1830:1949   */\n    tag_252:\n        /* \"#utility.yul\":1988:1989   */\n      0x00\n        /* \"#utility.yul\":2013:2066   */\n      tag_254\n        /* \"#utility.yul\":2058:2065   */\n      dup6\n        /* \"#utility.yul\":2049:2055   */\n      dup3\n        /* \"#utility.yul\":2038:2047   */\n      dup7\n        /* \"#utility.yul\":2034:2056   */\n      add\n        /* \"#utility.yul\":2013:2066   */\n      tag_227\n      jump\t// in\n    tag_254:\n        /* \"#utility.yul\":2003:2066   */\n      swap3\n      pop\n        /* \"#utility.yul\":1959:2076   */\n      pop\n        /* \"#utility.yul\":2115:2117   */\n      0x20\n        /* \"#utility.yul\":2141:2194   */\n      tag_255\n        /* \"#utility.yul\":2186:2193   */\n      dup6\n        /* \"#utility.yul\":2177:2183   */\n      dup3\n        /* \"#utility.yul\":2166:2175   */\n      dup7\n        /* \"#utility.yul\":2162:2184   */\n      add\n        /* \"#utility.yul\":2141:2194   */\n      tag_231\n      jump\t// in\n    tag_255:\n        /* \"#utility.yul\":2131:2194   */\n      swap2\n      pop\n        /* \"#utility.yul\":2086:2204   */\n      pop\n        /* \"#utility.yul\":1737:2211   */\n      swap3\n      pop\n      swap3\n      swap1\n      pop\n      jump\t// out\n        /* \"#utility.yul\":2217:2359   */\n    tag_256:\n        /* \"#utility.yul\":2320:2352   */\n      tag_258\n        /* \"#utility.yul\":2346:2351   */\n      dup2\n        /* \"#utility.yul\":2320:2352   */\n      tag_259\n      jump\t// in\n    tag_258:\n        /* \"#utility.yul\":2315:2318   */\n      dup3\n        /* \"#utility.yul\":2308:2353   */\n      mstore\n        /* \"#utility.yul\":2217:2359   */\n      pop\n      pop\n      jump\t// out\n        /* \"#utility.yul\":2365:2483   */\n    tag_260:\n        /* \"#utility.yul\":2452:2476   */\n      tag_262\n        /* \"#utility.yul\":2470:2475   */\n      dup2\n        /* \"#utility.yul\":2452:2476   */\n      tag_263\n      jump\t// in\n    tag_262:\n        /* \"#utility.yul\":2447:2450   */\n      dup3\n        /* \"#utility.yul\":2440:2477   */\n      mstore\n        /* \"#utility.yul\":2365:2483   */\n      pop\n      pop\n      jump\t// out\n        /* \"#utility.yul\":2489:2598   */\n    tag_264:\n        /* \"#utility.yul\":2570:2591   */\n      tag_266\n        /* \"#utility.yul\":2585:2590   */\n      dup2\n        /* \"#utility.yul\":2570:2591   */\n      tag_267\n      jump\t// in\n    tag_266:\n        /* \"#utility.yul\":2565:2568   */\n      dup3\n        /* \"#utility.yul\":2558:2592   */\n      mstore\n        /* \"#utility.yul\":2489:2598   */\n      pop\n      pop\n      jump\t// out\n        /* \"#utility.yul\":2604:2749   */\n    tag_268:\n        /* \"#utility.yul\":2698:2742   */\n      tag_270\n        /* \"#utility.yul\":2736:2741   */\n      dup2\n        /* \"#utility.yul\":2698:2742   */\n      tag_271\n      jump\t// in\n    tag_270:\n        /* \"#utility.yul\":2693:2696   */\n      dup3\n        /* \"#utility.yul\":2686:2743   */\n      mstore\n        /* \"#utility.yul\":2604:2749   */\n      pop\n      pop\n      jump\t// out\n        /* \"#utility.yul\":2755:3119   */\n    tag_272:\n        /* \"#utility.yul\":2843:2846   */\n      0x00\n        /* \"#utility.yul\":2871:2910   */\n      tag_274\n        /* \"#utility.yul\":2904:2909   */\n      dup3\n        /* \"#utility.yul\":2871:2910   */\n      tag_275\n      jump\t// in\n    tag_274:\n        /* \"#utility.yul\":2926:2997   */\n      tag_276\n        /* \"#utility.yul\":2990:2996   */\n      dup2\n        /* \"#utility.yul\":2985:2988   */\n      dup6\n        /* \"#utility.yul\":2926:2997   */\n      tag_277\n      jump\t// in\n    tag_276:\n        /* \"#utility.yul\":2919:2997   */\n      swap4\n      pop\n        /* \"#utility.yul\":3006:3058   */\n      tag_278\n        /* \"#utility.yul\":3051:3057   */\n      dup2\n        /* \"#utility.yul\":3046:3049   */\n      dup6\n        /* \"#utility.yul\":3039:3043   */\n      0x20\n        /* \"#utility.yul\":3032:3037   */\n      dup7\n        /* \"#utility.yul\":3028:3044   */\n      add\n        /* \"#utility.yul\":3006:3058   */\n      tag_279\n      jump\t// in\n    tag_278:\n        /* \"#utility.yul\":3083:3112   */\n      tag_280\n        /* \"#utility.yul\":3105:3111   */\n      dup2\n        /* \"#utility.yul\":3083:3112   */\n      tag_281\n      jump\t// in\n    tag_280:\n        /* \"#utility.yul\":3078:3081   */\n      dup5\n        /* \"#utility.yul\":3074:3113   */\n      add\n        /* \"#utility.yul\":3067:3113   */\n      swap2\n      pop\n        /* \"#utility.yul\":2847:3119   */\n      pop\n        /* \"#utility.yul\":2755:3119   */\n      swap3\n      swap2\n      pop\n      pop\n      jump\t// out\n        /* \"#utility.yul\":3125:3502   */\n    tag_282:\n        /* \"#utility.yul\":3231:3234   */\n      0x00\n        /* \"#utility.yul\":3259:3298   */\n      tag_284\n        /* \"#utility.yul\":3292:3297   */\n      dup3\n        /* \"#utility.yul\":3259:3298   */\n      tag_275\n      jump\t// in\n    tag_284:\n        /* \"#utility.yul\":3314:3403   */\n      tag_285\n        /* \"#utility.yul\":3396:3402   */\n      dup2\n        /* \"#utility.yul\":3391:3394   */\n      dup6\n        /* \"#utility.yul\":3314:3403   */\n      tag_286\n      jump\t// in\n    tag_285:\n        /* \"#utility.yul\":3307:3403   */\n      swap4\n      pop\n        /* \"#utility.yul\":3412:3464   */\n      tag_287\n        /* \"#utility.yul\":3457:3463   */\n      dup2\n        /* \"#utility.yul\":3452:3455   */\n      dup6\n        /* \"#utility.yul\":3445:3449   */\n      0x20\n        /* \"#utility.yul\":3438:3443   */\n      dup7\n        /* \"#utility.yul\":3434:3450   */\n      add\n        /* \"#utility.yul\":3412:3464   */\n      tag_279\n      jump\t// in\n    tag_287:\n        /* \"#utility.yul\":3489:3495   */\n      dup1\n        /* \"#utility.yul\":3484:3487   */\n      dup5\n        /* \"#utility.yul\":3480:3496   */\n      add\n        /* \"#utility.yul\":3473:3496   */\n      swap2\n      pop\n        /* \"#utility.yul\":3235:3502   */\n      pop\n        /* \"#utility.yul\":3125:3502   */\n      swap3\n      swap2\n      pop\n      pop\n      jump\t// out\n        /* \"#utility.yul\":3508:3874   */\n    tag_288:\n        /* \"#utility.yul\":3650:3653   */\n      0x00\n        /* \"#utility.yul\":3671:3738   */\n      tag_290\n        /* \"#utility.yul\":3735:3737   */\n      0x30\n        /* \"#utility.yul\":3730:3733   */\n      dup4\n        /* \"#utility.yul\":3671:3738   */\n      tag_277\n      jump\t// in\n    tag_290:\n        /* \"#utility.yul\":3664:3738   */\n      swap2\n      pop\n        /* \"#utility.yul\":3747:3840   */\n      tag_291\n        /* \"#utility.yul\":3836:3839   */\n      dup3\n        /* \"#utility.yul\":3747:3840   */\n      tag_292\n      jump\t// in\n    tag_291:\n        /* \"#utility.yul\":3865:3867   */\n      0x40\n        /* \"#utility.yul\":3860:3863   */\n      dup3\n        /* \"#utility.yul\":3856:3868   */\n      add\n        /* \"#utility.yul\":3849:3868   */\n      swap1\n      pop\n        /* \"#utility.yul\":3508:3874   */\n      swap2\n      swap1\n      pop\n      jump\t// out\n        /* \"#utility.yul\":3880:4246   */\n    tag_293:\n        /* \"#utility.yul\":4022:4025   */\n      0x00\n        /* \"#utility.yul\":4043:4110   */\n      tag_295\n        /* \"#utility.yul\":4107:4109   */\n      0x22\n        /* \"#utility.yul\":4102:4105   */\n      dup4\n        /* \"#utility.yul\":4043:4110   */\n      tag_277\n      jump\t// in\n    tag_295:\n        /* \"#utility.yul\":4036:4110   */\n      swap2\n      pop\n        /* \"#utility.yul\":4119:4212   */\n      tag_296\n        /* \"#utility.yul\":4208:4211   */\n      dup3\n        /* \"#utility.yul\":4119:4212   */\n      tag_297\n      jump\t// in\n    tag_296:\n        /* \"#utility.yul\":4237:4239   */\n      0x40\n        /* \"#utility.yul\":4232:4235   */\n      dup3\n        /* \"#utility.yul\":4228:4240   */\n      add\n        /* \"#utility.yul\":4221:4240   */\n      swap1\n      pop\n        /* \"#utility.yul\":3880:4246   */\n      swap2\n      swap1\n      pop\n      jump\t// out\n        /* \"#utility.yul\":4252:4618   */\n    tag_298:\n        /* \"#utility.yul\":4394:4397   */\n      0x00\n        /* \"#utility.yul\":4415:4482   */\n      tag_300\n        /* \"#utility.yul\":4479:4481   */\n      0x20\n        /* \"#utility.yul\":4474:4477   */\n      dup4\n        /* \"#utility.yul\":4415:4482   */\n      tag_277\n      jump\t// in\n    tag_300:\n        /* \"#utility.yul\":4408:4482   */\n      swap2\n      pop\n        /* \"#utility.yul\":4491:4584   */\n      tag_301\n        /* \"#utility.yul\":4580:4583   */\n      dup3\n        /* \"#utility.yul\":4491:4584   */\n      tag_302\n      jump\t// in\n    tag_301:\n        /* \"#utility.yul\":4609:4611   */\n      0x20\n        /* \"#utility.yul\":4604:4607   */\n      dup3\n        /* \"#utility.yul\":4600:4612   */\n      add\n        /* \"#utility.yul\":4593:4612   */\n      swap1\n      pop\n        /* \"#utility.yul\":4252:4618   */\n      swap2\n      swap1\n      pop\n      jump\t// out\n        /* \"#utility.yul\":4624:5026   */\n    tag_303:\n        /* \"#utility.yul\":4784:4787   */\n      0x00\n        /* \"#utility.yul\":4805:4890   */\n      tag_305\n        /* \"#utility.yul\":4887:4889   */\n      0x1f\n        /* \"#utility.yul\":4882:4885   */\n      dup4\n        /* \"#utility.yul\":4805:4890   */\n      tag_286\n      jump\t// in\n    tag_305:\n        /* \"#utility.yul\":4798:4890   */\n      swap2\n      pop\n        /* \"#utility.yul\":4899:4992   */\n      tag_306\n        /* \"#utility.yul\":4988:4991   */\n      dup3\n        /* \"#utility.yul\":4899:4992   */\n      tag_307\n      jump\t// in\n    tag_306:\n        /* \"#utility.yul\":5017:5019   */\n      0x1f\n        /* \"#utility.yul\":5012:5015   */\n      dup3\n        /* \"#utility.yul\":5008:5020   */\n      add\n        /* \"#utility.yul\":5001:5020   */\n      swap1\n      pop\n        /* \"#utility.yul\":4624:5026   */\n      swap2\n      swap1\n      pop\n      jump\t// out\n        /* \"#utility.yul\":5032:5398   */\n    tag_308:\n        /* \"#utility.yul\":5174:5177   */\n      0x00\n        /* \"#utility.yul\":5195:5262   */\n      tag_310\n        /* \"#utility.yul\":5259:5261   */\n      0x22\n        /* \"#utility.yul\":5254:5257   */\n      dup4\n        /* \"#utility.yul\":5195:5262   */\n      tag_277\n      jump\t// in\n    tag_310:\n        /* \"#utility.yul\":5188:5262   */\n      swap2\n      pop\n        /* \"#utility.yul\":5271:5364   */\n      tag_311\n        /* \"#utility.yul\":5360:5363   */\n      dup3\n        /* \"#utility.yul\":5271:5364   */\n      tag_312\n      jump\t// in\n    tag_311:\n        /* \"#utility.yul\":5389:5391   */\n      0x40\n        /* \"#utility.yul\":5384:5387   */\n      dup3\n        /* \"#utility.yul\":5380:5392   */\n      add\n        /* \"#utility.yul\":5373:5392   */\n      swap1\n      pop\n        /* \"#utility.yul\":5032:5398   */\n      swap2\n      swap1\n      pop\n      jump\t// out\n        /* \"#utility.yul\":5404:5770   */\n    tag_313:\n        /* \"#utility.yul\":5546:5549   */\n      0x00\n        /* \"#utility.yul\":5567:5634   */\n      tag_315\n        /* \"#utility.yul\":5631:5633   */\n      0x30\n        /* \"#utility.yul\":5626:5629   */\n      dup4\n        /* \"#utility.yul\":5567:5634   */\n      tag_277\n      jump\t// in\n    tag_315:\n        /* \"#utility.yul\":5560:5634   */\n      swap2\n      pop\n        /* \"#utility.yul\":5643:5736   */\n      tag_316\n        /* \"#utility.yul\":5732:5735   */\n      dup3\n        /* \"#utility.yul\":5643:5736   */\n      tag_317\n      jump\t// in\n    tag_316:\n        /* \"#utility.yul\":5761:5763   */\n      0x40\n        /* \"#utility.yul\":5756:5759   */\n      dup3\n        /* \"#utility.yul\":5752:5764   */\n      add\n        /* \"#utility.yul\":5745:5764   */\n      swap1\n      pop\n        /* \"#utility.yul\":5404:5770   */\n      swap2\n      swap1\n      pop\n      jump\t// out\n        /* \"#utility.yul\":5776:6142   */\n    tag_318:\n        /* \"#utility.yul\":5918:5921   */\n      0x00\n        /* \"#utility.yul\":5939:6006   */\n      tag_320\n        /* \"#utility.yul\":6003:6005   */\n      0x30\n        /* \"#utility.yul\":5998:6001   */\n      dup4\n        /* \"#utility.yul\":5939:6006   */\n      tag_277\n      jump\t// in\n    tag_320:\n        /* \"#utility.yul\":5932:6006   */\n      swap2\n      pop\n        /* \"#utility.yul\":6015:6108   */\n      tag_321\n        /* \"#utility.yul\":6104:6107   */\n      dup3\n        /* \"#utility.yul\":6015:6108   */\n      tag_322\n      jump\t// in\n    tag_321:\n        /* \"#utility.yul\":6133:6135   */\n      0x40\n        /* \"#utility.yul\":6128:6131   */\n      dup3\n        /* \"#utility.yul\":6124:6136   */\n      add\n        /* \"#utility.yul\":6117:6136   */\n      swap1\n      pop\n        /* \"#utility.yul\":5776:6142   */\n      swap2\n      swap1\n      pop\n      jump\t// out\n        /* \"#utility.yul\":6148:6550   */\n    tag_323:\n        /* \"#utility.yul\":6308:6311   */\n      0x00\n        /* \"#utility.yul\":6329:6414   */\n      tag_325\n        /* \"#utility.yul\":6411:6413   */\n      0x21\n        /* \"#utility.yul\":6406:6409   */\n      dup4\n        /* \"#utility.yul\":6329:6414   */\n      tag_286\n      jump\t// in\n    tag_325:\n        /* \"#utility.yul\":6322:6414   */\n      swap2\n      pop\n        /* \"#utility.yul\":6423:6516   */\n      tag_326\n        /* \"#utility.yul\":6512:6515   */\n      dup3\n        /* \"#utility.yul\":6423:6516   */\n      tag_327\n      jump\t// in\n    tag_326:\n        /* \"#utility.yul\":6541:6543   */\n      0x21\n        /* \"#utility.yul\":6536:6539   */\n      dup3\n        /* \"#utility.yul\":6532:6544   */\n      add\n        /* \"#utility.yul\":6525:6544   */\n      swap1\n      pop\n        /* \"#utility.yul\":6148:6550   */\n      swap2\n      swap1\n      pop\n      jump\t// out\n        /* \"#utility.yul\":6556:6922   */\n    tag_328:\n        /* \"#utility.yul\":6698:6701   */\n      0x00\n        /* \"#utility.yul\":6719:6786   */\n      tag_330\n        /* \"#utility.yul\":6783:6785   */\n      0x1c\n        /* \"#utility.yul\":6778:6781   */\n      dup4\n        /* \"#utility.yul\":6719:6786   */\n      tag_277\n      jump\t// in\n    tag_330:\n        /* \"#utility.yul\":6712:6786   */\n      swap2\n      pop\n        /* \"#utility.yul\":6795:6888   */\n      tag_331\n        /* \"#utility.yul\":6884:6887   */\n      dup3\n        /* \"#utility.yul\":6795:6888   */\n      tag_332\n      jump\t// in\n    tag_331:\n        /* \"#utility.yul\":6913:6915   */\n      0x20\n        /* \"#utility.yul\":6908:6911   */\n      dup3\n        /* \"#utility.yul\":6904:6916   */\n      add\n        /* \"#utility.yul\":6897:6916   */\n      swap1\n      pop\n        /* \"#utility.yul\":6556:6922   */\n      swap2\n      swap1\n      pop\n      jump\t// out\n        /* \"#utility.yul\":6928:7294   */\n    tag_333:\n        /* \"#utility.yul\":7070:7073   */\n      0x00\n        /* \"#utility.yul\":7091:7158   */\n      tag_335\n        /* \"#utility.yul\":7155:7157   */\n      0x12\n        /* \"#utility.yul\":7150:7153   */\n      dup4\n        /* \"#utility.yul\":7091:7158   */\n      tag_277\n      jump\t// in\n    tag_335:\n        /* \"#utility.yul\":7084:7158   */\n      swap2\n      pop\n        /* \"#utility.yul\":7167:7260   */\n      tag_336\n        /* \"#utility.yul\":7256:7259   */\n      dup3\n        /* \"#utility.yul\":7167:7260   */\n      tag_337\n      jump\t// in\n    tag_336:\n        /* \"#utility.yul\":7285:7287   */\n      0x20\n        /* \"#utility.yul\":7280:7283   */\n      dup3\n        /* \"#utility.yul\":7276:7288   */\n      add\n        /* \"#utility.yul\":7269:7288   */\n      swap1\n      pop\n        /* \"#utility.yul\":6928:7294   */\n      swap2\n      swap1\n      pop\n      jump\t// out\n        /* \"#utility.yul\":7300:7418   */\n    tag_338:\n        /* \"#utility.yul\":7387:7411   */\n      tag_340\n        /* \"#utility.yul\":7405:7410   */\n      dup2\n        /* \"#utility.yul\":7387:7411   */\n      tag_341\n      jump\t// in\n    tag_340:\n        /* \"#utility.yul\":7382:7385   */\n      dup3\n        /* \"#utility.yul\":7375:7412   */\n      mstore\n        /* \"#utility.yul\":7300:7418   */\n      pop\n      pop\n      jump\t// out\n        /* \"#utility.yul\":7424:7581   */\n    tag_342:\n        /* \"#utility.yul\":7529:7574   */\n      tag_344\n        /* \"#utility.yul\":7549:7573   */\n      tag_345\n        /* \"#utility.yul\":7567:7572   */\n      dup3\n        /* \"#utility.yul\":7549:7573   */\n      tag_341\n      jump\t// in\n    tag_345:\n        /* \"#utility.yul\":7529:7574   */\n      tag_346\n      jump\t// in\n    tag_344:\n        /* \"#utility.yul\":7524:7527   */\n      dup3\n        /* \"#utility.yul\":7517:7575   */\n      mstore\n        /* \"#utility.yul\":7424:7581   */\n      pop\n      pop\n      jump\t// out\n        /* \"#utility.yul\":7587:8022   */\n    tag_214:\n        /* \"#utility.yul\":7767:7770   */\n      0x00\n        /* \"#utility.yul\":7789:7884   */\n      tag_348\n        /* \"#utility.yul\":7880:7883   */\n      dup3\n        /* \"#utility.yul\":7871:7877   */\n      dup6\n        /* \"#utility.yul\":7789:7884   */\n      tag_282\n      jump\t// in\n    tag_348:\n        /* \"#utility.yul\":7782:7884   */\n      swap2\n      pop\n        /* \"#utility.yul\":7901:7996   */\n      tag_349\n        /* \"#utility.yul\":7992:7995   */\n      dup3\n        /* \"#utility.yul\":7983:7989   */\n      dup5\n        /* \"#utility.yul\":7901:7996   */\n      tag_282\n      jump\t// in\n    tag_349:\n        /* \"#utility.yul\":7894:7996   */\n      swap2\n      pop\n        /* \"#utility.yul\":8013:8016   */\n      dup2\n        /* \"#utility.yul\":8006:8016   */\n      swap1\n      pop\n        /* \"#utility.yul\":7587:8022   */\n      swap4\n      swap3\n      pop\n      pop\n      pop\n      jump\t// out\n        /* \"#utility.yul\":8028:8550   */\n    tag_210:\n        /* \"#utility.yul\":8241:8244   */\n      0x00\n        /* \"#utility.yul\":8263:8411   */\n      tag_351\n        /* \"#utility.yul\":8407:8410   */\n      dup3\n        /* \"#utility.yul\":8263:8411   */\n      tag_303\n      jump\t// in\n    tag_351:\n        /* \"#utility.yul\":8256:8411   */\n      swap2\n      pop\n        /* \"#utility.yul\":8421:8496   */\n      tag_352\n        /* \"#utility.yul\":8492:8495   */\n      dup3\n        /* \"#utility.yul\":8483:8489   */\n      dup5\n        /* \"#utility.yul\":8421:8496   */\n      tag_342\n      jump\t// in\n    tag_352:\n        /* \"#utility.yul\":8521:8523   */\n      0x20\n        /* \"#utility.yul\":8516:8519   */\n      dup3\n        /* \"#utility.yul\":8512:8524   */\n      add\n        /* \"#utility.yul\":8505:8524   */\n      swap2\n      pop\n        /* \"#utility.yul\":8541:8544   */\n      dup2\n        /* \"#utility.yul\":8534:8544   */\n      swap1\n      pop\n        /* \"#utility.yul\":8028:8550   */\n      swap3\n      swap2\n      pop\n      pop\n      jump\t// out\n        /* \"#utility.yul\":8556:9078   */\n    tag_212:\n        /* \"#utility.yul\":8769:8772   */\n      0x00\n        /* \"#utility.yul\":8791:8939   */\n      tag_354\n        /* \"#utility.yul\":8935:8938   */\n      dup3\n        /* \"#utility.yul\":8791:8939   */\n      tag_323\n      jump\t// in\n    tag_354:\n        /* \"#utility.yul\":8784:8939   */\n      swap2\n      pop\n        /* \"#utility.yul\":8949:9024   */\n      tag_355\n        /* \"#utility.yul\":9020:9023   */\n      dup3\n        /* \"#utility.yul\":9011:9017   */\n      dup5\n        /* \"#utility.yul\":8949:9024   */\n      tag_342\n      jump\t// in\n    tag_355:\n        /* \"#utility.yul\":9049:9051   */\n      0x20\n        /* \"#utility.yul\":9044:9047   */\n      dup3\n        /* \"#utility.yul\":9040:9052   */\n      add\n        /* \"#utility.yul\":9033:9052   */\n      swap2\n      pop\n        /* \"#utility.yul\":9069:9072   */\n      dup2\n        /* \"#utility.yul\":9062:9072   */\n      swap1\n      pop\n        /* \"#utility.yul\":8556:9078   */\n      swap3\n      swap2\n      pop\n      pop\n      jump\t// out\n        /* \"#utility.yul\":9084:9306   */\n    tag_83:\n        /* \"#utility.yul\":9177:9181   */\n      0x00\n        /* \"#utility.yul\":9215:9217   */\n      0x20\n        /* \"#utility.yul\":9204:9213   */\n      dup3\n        /* \"#utility.yul\":9200:9218   */\n      add\n        /* \"#utility.yul\":9192:9218   */\n      swap1\n      pop\n        /* \"#utility.yul\":9228:9299   */\n      tag_357\n        /* \"#utility.yul\":9296:9297   */\n      0x00\n        /* \"#utility.yul\":9285:9294   */\n      dup4\n        /* \"#utility.yul\":9281:9298   */\n      add\n        /* \"#utility.yul\":9272:9278   */\n      dup5\n        /* \"#utility.yul\":9228:9299   */\n      tag_260\n      jump\t// in\n    tag_357:\n        /* \"#utility.yul\":9084:9306   */\n      swap3\n      swap2\n      pop\n      pop\n      jump\t// out\n        /* \"#utility.yul\":9312:9566   */\n    tag_61:\n        /* \"#utility.yul\":9421:9425   */\n      0x00\n        /* \"#utility.yul\":9459:9461   */\n      0x20\n        /* \"#utility.yul\":9448:9457   */\n      dup3\n        /* \"#utility.yul\":9444:9462   */\n      add\n        /* \"#utility.yul\":9436:9462   */\n      swap1\n      pop\n        /* \"#utility.yul\":9472:9559   */\n      tag_359\n        /* \"#utility.yul\":9556:9557   */\n      0x00\n        /* \"#utility.yul\":9545:9554   */\n      dup4\n        /* \"#utility.yul\":9541:9558   */\n      add\n        /* \"#utility.yul\":9532:9538   */\n      dup5\n        /* \"#utility.yul\":9472:9559   */\n      tag_256\n      jump\t// in\n    tag_359:\n        /* \"#utility.yul\":9312:9566   */\n      swap3\n      swap2\n      pop\n      pop\n      jump\t// out\n        /* \"#utility.yul\":9572:9782   */\n    tag_39:\n        /* \"#utility.yul\":9659:9663   */\n      0x00\n        /* \"#utility.yul\":9697:9699   */\n      0x20\n        /* \"#utility.yul\":9686:9695   */\n      dup3\n        /* \"#utility.yul\":9682:9700   */\n      add\n        /* \"#utility.yul\":9674:9700   */\n      swap1\n      pop\n        /* \"#utility.yul\":9710:9775   */\n      tag_361\n        /* \"#utility.yul\":9772:9773   */\n      0x00\n        /* \"#utility.yul\":9761:9770   */\n      dup4\n        /* \"#utility.yul\":9757:9774   */\n      add\n        /* \"#utility.yul\":9748:9754   */\n      dup5\n        /* \"#utility.yul\":9710:9775   */\n      tag_264\n      jump\t// in\n    tag_361:\n        /* \"#utility.yul\":9572:9782   */\n      swap3\n      swap2\n      pop\n      pop\n      jump\t// out\n        /* \"#utility.yul\":9788:10024   */\n    tag_66:\n        /* \"#utility.yul\":9888:9892   */\n      0x00\n        /* \"#utility.yul\":9926:9928   */\n      0x20\n        /* \"#utility.yul\":9915:9924   */\n      dup3\n        /* \"#utility.yul\":9911:9929   */\n      add\n        /* \"#utility.yul\":9903:9929   */\n      swap1\n      pop\n        /* \"#utility.yul\":9939:10017   */\n      tag_363\n        /* \"#utility.yul\":10014:10015   */\n      0x00\n        /* \"#utility.yul\":10003:10012   */\n      dup4\n        /* \"#utility.yul\":9999:10016   */\n      add\n        /* \"#utility.yul\":9990:9996   */\n      dup5\n        /* \"#utility.yul\":9939:10017   */\n      tag_268\n      jump\t// in\n    tag_363:\n        /* \"#utility.yul\":9788:10024   */\n      swap3\n      swap2\n      pop\n      pop\n      jump\t// out\n        /* \"#utility.yul\":10030:10343   */\n    tag_32:\n        /* \"#utility.yul\":10143:10147   */\n      0x00\n        /* \"#utility.yul\":10181:10183   */\n      0x20\n        /* \"#utility.yul\":10170:10179   */\n      dup3\n        /* \"#utility.yul\":10166:10184   */\n      add\n        /* \"#utility.yul\":10158:10184   */\n      swap1\n      pop\n        /* \"#utility.yul\":10230:10239   */\n      dup2\n        /* \"#utility.yul\":10224:10228   */\n      dup2\n        /* \"#utility.yul\":10220:10240   */\n      sub\n        /* \"#utility.yul\":10216:10217   */\n      0x00\n        /* \"#utility.yul\":10205:10214   */\n      dup4\n        /* \"#utility.yul\":10201:10218   */\n      add\n        /* \"#utility.yul\":10194:10241   */\n      mstore\n        /* \"#utility.yul\":10258:10336   */\n      tag_365\n        /* \"#utility.yul\":10331:10335   */\n      dup2\n        /* \"#utility.yul\":10322:10328   */\n      dup5\n        /* \"#utility.yul\":10258:10336   */\n      tag_272\n      jump\t// in\n    tag_365:\n        /* \"#utility.yul\":10250:10336   */\n      swap1\n      pop\n        /* \"#utility.yul\":10030:10343   */\n      swap3\n      swap2\n      pop\n      pop\n      jump\t// out\n        /* \"#utility.yul\":10349:10768   */\n    tag_153:\n        /* \"#utility.yul\":10515:10519   */\n      0x00\n        /* \"#utility.yul\":10553:10555   */\n      0x20\n        /* \"#utility.yul\":10542:10551   */\n      dup3\n        /* \"#utility.yul\":10538:10556   */\n      add\n        /* \"#utility.yul\":10530:10556   */\n      swap1\n      pop\n        /* \"#utility.yul\":10602:10611   */\n      dup2\n        /* \"#utility.yul\":10596:10600   */\n      dup2\n        /* \"#utility.yul\":10592:10612   */\n      sub\n        /* \"#utility.yul\":10588:10589   */\n      0x00\n        /* \"#utility.yul\":10577:10586   */\n      dup4\n        /* \"#utility.yul\":10573:10590   */\n      add\n        /* \"#utility.yul\":10566:10613   */\n      mstore\n        /* \"#utility.yul\":10630:10761   */\n      tag_367\n        /* \"#utility.yul\":10756:10760   */\n      dup2\n        /* \"#utility.yul\":10630:10761   */\n      tag_288\n      jump\t// in\n    tag_367:\n        /* \"#utility.yul\":10622:10761   */\n      swap1\n      pop\n        /* \"#utility.yul\":10349:10768   */\n      swap2\n      swap1\n      pop\n      jump\t// out\n        /* \"#utility.yul\":10774:11193   */\n    tag_148:\n        /* \"#utility.yul\":10940:10944   */\n      0x00\n        /* \"#utility.yul\":10978:10980   */\n      0x20\n        /* \"#utility.yul\":10967:10976   */\n      dup3\n        /* \"#utility.yul\":10963:10981   */\n      add\n        /* \"#utility.yul\":10955:10981   */\n      swap1\n      pop\n        /* \"#utility.yul\":11027:11036   */\n      dup2\n        /* \"#utility.yul\":11021:11025   */\n      dup2\n        /* \"#utility.yul\":11017:11037   */\n      sub\n        /* \"#utility.yul\":11013:11014   */\n      0x00\n        /* \"#utility.yul\":11002:11011   */\n      dup4\n        /* \"#utility.yul\":10998:11015   */\n      add\n        /* \"#utility.yul\":10991:11038   */\n      mstore\n        /* \"#utility.yul\":11055:11186   */\n      tag_369\n        /* \"#utility.yul\":11181:11185   */\n      dup2\n        /* \"#utility.yul\":11055:11186   */\n      tag_293\n      jump\t// in\n    tag_369:\n        /* \"#utility.yul\":11047:11186   */\n      swap1\n      pop\n        /* \"#utility.yul\":10774:11193   */\n      swap2\n      swap1\n      pop\n      jump\t// out\n        /* \"#utility.yul\":11199:11618   */\n    tag_206:\n        /* \"#utility.yul\":11365:11369   */\n      0x00\n        /* \"#utility.yul\":11403:11405   */\n      0x20\n        /* \"#utility.yul\":11392:11401   */\n      dup3\n        /* \"#utility.yul\":11388:11406   */\n      add\n        /* \"#utility.yul\":11380:11406   */\n      swap1\n      pop\n        /* \"#utility.yul\":11452:11461   */\n      dup2\n        /* \"#utility.yul\":11446:11450   */\n      dup2\n        /* \"#utility.yul\":11442:11462   */\n      sub\n        /* \"#utility.yul\":11438:11439   */\n      0x00\n        /* \"#utility.yul\":11427:11436   */\n      dup4\n        /* \"#utility.yul\":11423:11440   */\n      add\n        /* \"#utility.yul\":11416:11463   */\n      mstore\n        /* \"#utility.yul\":11480:11611   */\n      tag_371\n        /* \"#utility.yul\":11606:11610   */\n      dup2\n        /* \"#utility.yul\":11480:11611   */\n      tag_298\n      jump\t// in\n    tag_371:\n        /* \"#utility.yul\":11472:11611   */\n      swap1\n      pop\n        /* \"#utility.yul\":11199:11618   */\n      swap2\n      swap1\n      pop\n      jump\t// out\n        /* \"#utility.yul\":11624:12043   */\n    tag_195:\n        /* \"#utility.yul\":11790:11794   */\n      0x00\n        /* \"#utility.yul\":11828:11830   */\n      0x20\n        /* \"#utility.yul\":11817:11826   */\n      dup3\n        /* \"#utility.yul\":11813:11831   */\n      add\n        /* \"#utility.yul\":11805:11831   */\n      swap1\n      pop\n        /* \"#utility.yul\":11877:11886   */\n      dup2\n        /* \"#utility.yul\":11871:11875   */\n      dup2\n        /* \"#utility.yul\":11867:11887   */\n      sub\n        /* \"#utility.yul\":11863:11864   */\n      0x00\n        /* \"#utility.yul\":11852:11861   */\n      dup4\n        /* \"#utility.yul\":11848:11865   */\n      add\n        /* \"#utility.yul\":11841:11888   */\n      mstore\n        /* \"#utility.yul\":11905:12036   */\n      tag_373\n        /* \"#utility.yul\":12031:12035   */\n      dup2\n        /* \"#utility.yul\":11905:12036   */\n      tag_308\n      jump\t// in\n    tag_373:\n        /* \"#utility.yul\":11897:12036   */\n      swap1\n      pop\n        /* \"#utility.yul\":11624:12043   */\n      swap2\n      swap1\n      pop\n      jump\t// out\n        /* \"#utility.yul\":12049:12468   */\n    tag_145:\n        /* \"#utility.yul\":12215:12219   */\n      0x00\n        /* \"#utility.yul\":12253:12255   */\n      0x20\n        /* \"#utility.yul\":12242:12251   */\n      dup3\n        /* \"#utility.yul\":12238:12256   */\n      add\n        /* \"#utility.yul\":12230:12256   */\n      swap1\n      pop\n        /* \"#utility.yul\":12302:12311   */\n      dup2\n        /* \"#utility.yul\":12296:12300   */\n      dup2\n        /* \"#utility.yul\":12292:12312   */\n      sub\n        /* \"#utility.yul\":12288:12289   */\n      0x00\n        /* \"#utility.yul\":12277:12286   */\n      dup4\n        /* \"#utility.yul\":12273:12290   */\n      add\n        /* \"#utility.yul\":12266:12313   */\n      mstore\n        /* \"#utility.yul\":12330:12461   */\n      tag_375\n        /* \"#utility.yul\":12456:12460   */\n      dup2\n        /* \"#utility.yul\":12330:12461   */\n      tag_313\n      jump\t// in\n    tag_375:\n        /* \"#utility.yul\":12322:12461   */\n      swap1\n      pop\n        /* \"#utility.yul\":12049:12468   */\n      swap2\n      swap1\n      pop\n      jump\t// out\n        /* \"#utility.yul\":12474:12893   */\n    tag_221:\n        /* \"#utility.yul\":12640:12644   */\n      0x00\n        /* \"#utility.yul\":12678:12680   */\n      0x20\n        /* \"#utility.yul\":12667:12676   */\n      dup3\n        /* \"#utility.yul\":12663:12681   */\n      add\n        /* \"#utility.yul\":12655:12681   */\n      swap1\n      pop\n        /* \"#utility.yul\":12727:12736   */\n      dup2\n        /* \"#utility.yul\":12721:12725   */\n      dup2\n        /* \"#utility.yul\":12717:12737   */\n      sub\n        /* \"#utility.yul\":12713:12714   */\n      0x00\n        /* \"#utility.yul\":12702:12711   */\n      dup4\n        /* \"#utility.yul\":12698:12715   */\n      add\n        /* \"#utility.yul\":12691:12738   */\n      mstore\n        /* \"#utility.yul\":12755:12886   */\n      tag_377\n        /* \"#utility.yul\":12881:12885   */\n      dup2\n        /* \"#utility.yul\":12755:12886   */\n      tag_318\n      jump\t// in\n    tag_377:\n        /* \"#utility.yul\":12747:12886   */\n      swap1\n      pop\n        /* \"#utility.yul\":12474:12893   */\n      swap2\n      swap1\n      pop\n      jump\t// out\n        /* \"#utility.yul\":12899:13318   */\n    tag_187:\n        /* \"#utility.yul\":13065:13069   */\n      0x00\n        /* \"#utility.yul\":13103:13105   */\n      0x20\n        /* \"#utility.yul\":13092:13101   */\n      dup3\n        /* \"#utility.yul\":13088:13106   */\n      add\n        /* \"#utility.yul\":13080:13106   */\n      swap1\n      pop\n        /* \"#utility.yul\":13152:13161   */\n      dup2\n        /* \"#utility.yul\":13146:13150   */\n      dup2\n        /* \"#utility.yul\":13142:13162   */\n      sub\n        /* \"#utility.yul\":13138:13139   */\n      0x00\n        /* \"#utility.yul\":13127:13136   */\n      dup4\n        /* \"#utility.yul\":13123:13140   */\n      add\n        /* \"#utility.yul\":13116:13163   */\n      mstore\n        /* \"#utility.yul\":13180:13311   */\n      tag_379\n        /* \"#utility.yul\":13306:13310   */\n      dup2\n        /* \"#utility.yul\":13180:13311   */\n      tag_328\n      jump\t// in\n    tag_379:\n        /* \"#utility.yul\":13172:13311   */\n      swap1\n      pop\n        /* \"#utility.yul\":12899:13318   */\n      swap2\n      swap1\n      pop\n      jump\t// out\n        /* \"#utility.yul\":13324:13743   */\n    tag_156:\n        /* \"#utility.yul\":13490:13494   */\n      0x00\n        /* \"#utility.yul\":13528:13530   */\n      0x20\n        /* \"#utility.yul\":13517:13526   */\n      dup3\n        /* \"#utility.yul\":13513:13531   */\n      add\n        /* \"#utility.yul\":13505:13531   */\n      swap1\n      pop\n        /* \"#utility.yul\":13577:13586   */\n      dup2\n        /* \"#utility.yul\":13571:13575   */\n      dup2\n        /* \"#utility.yul\":13567:13587   */\n      sub\n        /* \"#utility.yul\":13563:13564   */\n      0x00\n        /* \"#utility.yul\":13552:13561   */\n      dup4\n        /* \"#utility.yul\":13548:13565   */\n      add\n        /* \"#utility.yul\":13541:13588   */\n      mstore\n        /* \"#utility.yul\":13605:13736   */\n      tag_381\n        /* \"#utility.yul\":13731:13735   */\n      dup2\n        /* \"#utility.yul\":13605:13736   */\n      tag_333\n      jump\t// in\n    tag_381:\n        /* \"#utility.yul\":13597:13736   */\n      swap1\n      pop\n        /* \"#utility.yul\":13324:13743   */\n      swap2\n      swap1\n      pop\n      jump\t// out\n        /* \"#utility.yul\":13749:13971   */\n    tag_44:\n        /* \"#utility.yul\":13842:13846   */\n      0x00\n        /* \"#utility.yul\":13880:13882   */\n      0x20\n        /* \"#utility.yul\":13869:13878   */\n      dup3\n        /* \"#utility.yul\":13865:13883   */\n      add\n        /* \"#utility.yul\":13857:13883   */\n      swap1\n      pop\n        /* \"#utility.yul\":13893:13964   */\n      tag_383\n        /* \"#utility.yul\":13961:13962   */\n      0x00\n        /* \"#utility.yul\":13950:13959   */\n      dup4\n        /* \"#utility.yul\":13946:13963   */\n      add\n        /* \"#utility.yul\":13937:13943   */\n      dup5\n        /* \"#utility.yul\":13893:13964   */\n      tag_338\n      jump\t// in\n    tag_383:\n        /* \"#utility.yul\":13749:13971   */\n      swap3\n      swap2\n      pop\n      pop\n      jump\t// out\n        /* \"#utility.yul\":14058:14157   */\n    tag_275:\n        /* \"#utility.yul\":14110:14116   */\n      0x00\n        /* \"#utility.yul\":14144:14149   */\n      dup2\n        /* \"#utility.yul\":14138:14150   */\n      mload\n        /* \"#utility.yul\":14128:14150   */\n      swap1\n      pop\n        /* \"#utility.yul\":14058:14157   */\n      swap2\n      swap1\n      pop\n      jump\t// out\n        /* \"#utility.yul\":14163:14332   */\n    tag_277:\n        /* \"#utility.yul\":14247:14258   */\n      0x00\n        /* \"#utility.yul\":14281:14287   */\n      dup3\n        /* \"#utility.yul\":14276:14279   */\n      dup3\n        /* \"#utility.yul\":14269:14288   */\n      mstore\n        /* \"#utility.yul\":14321:14325   */\n      0x20\n        /* \"#utility.yul\":14316:14319   */\n      dup3\n        /* \"#utility.yul\":14312:14326   */\n      add\n        /* \"#utility.yul\":14297:14326   */\n      swap1\n      pop\n        /* \"#utility.yul\":14163:14332   */\n      swap3\n      swap2\n      pop\n      pop\n      jump\t// out\n        /* \"#utility.yul\":14338:14486   */\n    tag_286:\n        /* \"#utility.yul\":14440:14451   */\n      0x00\n        /* \"#utility.yul\":14477:14480   */\n      dup2\n        /* \"#utility.yul\":14462:14480   */\n      swap1\n      pop\n        /* \"#utility.yul\":14338:14486   */\n      swap3\n      swap2\n      pop\n      pop\n      jump\t// out\n        /* \"#utility.yul\":14492:14797   */\n    tag_163:\n        /* \"#utility.yul\":14532:14535   */\n      0x00\n        /* \"#utility.yul\":14551:14571   */\n      tag_390\n        /* \"#utility.yul\":14569:14570   */\n      dup3\n        /* \"#utility.yul\":14551:14571   */\n      tag_341\n      jump\t// in\n    tag_390:\n        /* \"#utility.yul\":14546:14571   */\n      swap2\n      pop\n        /* \"#utility.yul\":14585:14605   */\n      tag_391\n        /* \"#utility.yul\":14603:14604   */\n      dup4\n        /* \"#utility.yul\":14585:14605   */\n      tag_341\n      jump\t// in\n    tag_391:\n        /* \"#utility.yul\":14580:14605   */\n      swap3\n      pop\n        /* \"#utility.yul\":14739:14740   */\n      dup3\n        /* \"#utility.yul\":14671:14737   */\n      0xffffffffffffffffffffffffffffffffffffffffffffffffffffffffffffffff\n        /* \"#utility.yul\":14667:14741   */\n      sub\n        /* \"#utility.yul\":14664:14665   */\n      dup3\n        /* \"#utility.yul\":14661:14742   */\n      gt\n        /* \"#utility.yul\":14658:14765   */\n      iszero\n      tag_392\n      jumpi\n        /* \"#utility.yul\":14745:14763   */\n      tag_393\n      tag_394\n      jump\t// in\n    tag_393:\n        /* \"#utility.yul\":14658:14765   */\n    tag_392:\n        /* \"#utility.yul\":14789:14790   */\n      dup3\n        /* \"#utility.yul\":14786:14787   */\n      dup3\n        /* \"#utility.yul\":14782:14791   */\n      add\n        /* \"#utility.yul\":14775:14791   */\n      swap1\n      pop\n        /* \"#utility.yul\":14492:14797   */\n      swap3\n      swap2\n      pop\n      pop\n      jump\t// out\n        /* \"#utility.yul\":14803:14994   */\n    tag_160:\n        /* \"#utility.yul\":14843:14847   */\n      0x00\n        /* \"#utility.yul\":14863:14883   */\n      tag_396\n        /* \"#utility.yul\":14881:14882   */\n      dup3\n        /* \"#utility.yul\":14863:14883   */\n      tag_341\n      jump\t// in\n    tag_396:\n        /* \"#utility.yul\":14858:14883   */\n      swap2\n      pop\n        /* \"#utility.yul\":14897:14917   */\n      tag_397\n        /* \"#utility.yul\":14915:14916   */\n      dup4\n        /* \"#utility.yul\":14897:14917   */\n      tag_341\n      jump\t// in\n    tag_397:\n        /* \"#utility.yul\":14892:14917   */\n      swap3\n      pop\n        /* \"#utility.yul\":14936:14937   */\n      dup3\n        /* \"#utility.yul\":14933:14934   */\n      dup3\n        /* \"#utility.yul\":14930:14938   */\n      lt\n        /* \"#utility.yul\":14927:14961   */\n      iszero\n      tag_398\n      jumpi\n        /* \"#utility.yul\":14941:14959   */\n      tag_399\n      tag_394\n      jump\t// in\n    tag_399:\n        /* \"#utility.yul\":14927:14961   */\n    tag_398:\n        /* \"#utility.yul\":14986:14987   */\n      dup3\n        /* \"#utility.yul\":14983:14984   */\n      dup3\n        /* \"#utility.yul\":14979:14988   */\n      sub\n        /* \"#utility.yul\":14971:14988   */\n      swap1\n      pop\n        /* \"#utility.yul\":14803:14994   */\n      swap3\n      swap2\n      pop\n      pop\n      jump\t// out\n        /* \"#utility.yul\":15000:15096   */\n    tag_263:\n        /* \"#utility.yul\":15037:15044   */\n      0x00\n        /* \"#utility.yul\":15066:15090   */\n      tag_401\n        /* \"#utility.yul\":15084:15089   */\n      dup3\n        /* \"#utility.yul\":15066:15090   */\n      tag_402\n      jump\t// in\n    tag_401:\n        /* \"#utility.yul\":15055:15090   */\n      swap1\n      pop\n        /* \"#utility.yul\":15000:15096   */\n      swap2\n      swap1\n      pop\n      jump\t// out\n        /* \"#utility.yul\":15102:15206   */\n    tag_259:\n        /* \"#utility.yul\":15147:15154   */\n      0x00\n        /* \"#utility.yul\":15176:15200   */\n      tag_404\n        /* \"#utility.yul\":15194:15199   */\n      dup3\n        /* \"#utility.yul\":15176:15200   */\n      tag_402\n      jump\t// in\n    tag_404:\n        /* \"#utility.yul\":15165:15200   */\n      swap1\n      pop\n        /* \"#utility.yul\":15102:15206   */\n      swap2\n      swap1\n      pop\n      jump\t// out\n        /* \"#utility.yul\":15212:15302   */\n    tag_267:\n        /* \"#utility.yul\":15246:15253   */\n      0x00\n        /* \"#utility.yul\":15289:15294   */\n      dup2\n        /* \"#utility.yul\":15282:15295   */\n      iszero\n        /* \"#utility.yul\":15275:15296   */\n      iszero\n        /* \"#utility.yul\":15264:15296   */\n      swap1\n      pop\n        /* \"#utility.yul\":15212:15302   */\n      swap2\n      swap1\n      pop\n      jump\t// out\n        /* \"#utility.yul\":15308:15437   */\n    tag_406:\n        /* \"#utility.yul\":15354:15361   */\n      0x00\n        /* \"#utility.yul\":15383:15388   */\n      dup2\n        /* \"#utility.yul\":15372:15388   */\n      swap1\n      pop\n        /* \"#utility.yul\":15389:15431   */\n      tag_408\n        /* \"#utility.yul\":15425:15430   */\n      dup3\n        /* \"#utility.yul\":15389:15431   */\n      tag_409\n      jump\t// in\n    tag_408:\n        /* \"#utility.yul\":15308:15437   */\n      swap2\n      swap1\n      pop\n      jump\t// out\n        /* \"#utility.yul\":15443:15569   */\n    tag_402:\n        /* \"#utility.yul\":15480:15487   */\n      0x00\n        /* \"#utility.yul\":15520:15562   */\n      0xffffffffffffffffffffffffffffffffffffffff\n        /* \"#utility.yul\":15513:15518   */\n      dup3\n        /* \"#utility.yul\":15509:15563   */\n      and\n        /* \"#utility.yul\":15498:15563   */\n      swap1\n      pop\n        /* \"#utility.yul\":15443:15569   */\n      swap2\n      swap1\n      pop\n      jump\t// out\n        /* \"#utility.yul\":15575:15652   */\n    tag_341:\n        /* \"#utility.yul\":15612:15619   */\n      0x00\n        /* \"#utility.yul\":15641:15646   */\n      dup2\n        /* \"#utility.yul\":15630:15646   */\n      swap1\n      pop\n        /* \"#utility.yul\":15575:15652   */\n      swap2\n      swap1\n      pop\n      jump\t// out\n        /* \"#utility.yul\":15658:15787   */\n    tag_271:\n        /* \"#utility.yul\":15715:15724   */\n      0x00\n        /* \"#utility.yul\":15748:15781   */\n      tag_413\n        /* \"#utility.yul\":15775:15780   */\n      dup3\n        /* \"#utility.yul\":15748:15781   */\n      tag_406\n      jump\t// in\n    tag_413:\n        /* \"#utility.yul\":15735:15781   */\n      swap1\n      pop\n        /* \"#utility.yul\":15658:15787   */\n      swap2\n      swap1\n      pop\n      jump\t// out\n        /* \"#utility.yul\":15793:16100   */\n    tag_279:\n        /* \"#utility.yul\":15861:15862   */\n      0x00\n        /* \"#utility.yul\":15871:15984   */\n    tag_415:\n        /* \"#utility.yul\":15885:15891   */\n      dup4\n        /* \"#utility.yul\":15882:15883   */\n      dup2\n        /* \"#utility.yul\":15879:15892   */\n      lt\n        /* \"#utility.yul\":15871:15984   */\n      iszero\n      tag_417\n      jumpi\n        /* \"#utility.yul\":15970:15971   */\n      dup1\n        /* \"#utility.yul\":15965:15968   */\n      dup3\n        /* \"#utility.yul\":15961:15972   */\n      add\n        /* \"#utility.yul\":15955:15973   */\n      mload\n        /* \"#utility.yul\":15951:15952   */\n      dup2\n        /* \"#utility.yul\":15946:15949   */\n      dup5\n        /* \"#utility.yul\":15942:15953   */\n      add\n        /* \"#utility.yul\":15935:15974   */\n      mstore\n        /* \"#utility.yul\":15907:15909   */\n      0x20\n        /* \"#utility.yul\":15904:15905   */\n      dup2\n        /* \"#utility.yul\":15900:15910   */\n      add\n        /* \"#utility.yul\":15895:15910   */\n      swap1\n      pop\n        /* \"#utility.yul\":15871:15984   */\n      jump(tag_415)\n    tag_417:\n        /* \"#utility.yul\":16002:16008   */\n      dup4\n        /* \"#utility.yul\":15999:16000   */\n      dup2\n        /* \"#utility.yul\":15996:16009   */\n      gt\n        /* \"#utility.yul\":15993:16094   */\n      iszero\n      tag_418\n      jumpi\n        /* \"#utility.yul\":16082:16083   */\n      0x00\n        /* \"#utility.yul\":16073:16079   */\n      dup5\n        /* \"#utility.yul\":16068:16071   */\n      dup5\n        /* \"#utility.yul\":16064:16080   */\n      add\n        /* \"#utility.yul\":16057:16084   */\n      mstore\n        /* \"#utility.yul\":15993:16094   */\n    tag_418:\n        /* \"#utility.yul\":15842:16100   */\n      pop\n        /* \"#utility.yul\":15793:16100   */\n      pop\n      pop\n      pop\n      jump\t// out\n        /* \"#utility.yul\":16106:16426   */\n    tag_137:\n        /* \"#utility.yul\":16150:16156   */\n      0x00\n        /* \"#utility.yul\":16187:16188   */\n      0x02\n        /* \"#utility.yul\":16181:16185   */\n      dup3\n        /* \"#utility.yul\":16177:16189   */\n      div\n        /* \"#utility.yul\":16167:16189   */\n      swap1\n      pop\n        /* \"#utility.yul\":16234:16235   */\n      0x01\n        /* \"#utility.yul\":16228:16232   */\n      dup3\n        /* \"#utility.yul\":16224:16236   */\n      and\n        /* \"#utility.yul\":16255:16273   */\n      dup1\n        /* \"#utility.yul\":16245:16326   */\n      tag_420\n      jumpi\n        /* \"#utility.yul\":16311:16315   */\n      0x7f\n        /* \"#utility.yul\":16303:16309   */\n      dup3\n        /* \"#utility.yul\":16299:16316   */\n      and\n        /* \"#utility.yul\":16289:16316   */\n      swap2\n      pop\n        /* \"#utility.yul\":16245:16326   */\n    tag_420:\n        /* \"#utility.yul\":16373:16375   */\n      0x20\n        /* \"#utility.yul\":16365:16371   */\n      dup3\n        /* \"#utility.yul\":16362:16376   */\n      lt\n        /* \"#utility.yul\":16342:16360   */\n      dup2\n        /* \"#utility.yul\":16339:16377   */\n      eq\n        /* \"#utility.yul\":16336:16420   */\n      iszero\n      tag_421\n      jumpi\n        /* \"#utility.yul\":16392:16410   */\n      tag_422\n      tag_423\n      jump\t// in\n    tag_422:\n        /* \"#utility.yul\":16336:16420   */\n    tag_421:\n        /* \"#utility.yul\":16157:16426   */\n      pop\n        /* \"#utility.yul\":16106:16426   */\n      swap2\n      swap1\n      pop\n      jump\t// out\n        /* \"#utility.yul\":16432:16511   */\n    tag_346:\n        /* \"#utility.yul\":16471:16478   */\n      0x00\n        /* \"#utility.yul\":16500:16505   */\n      dup2\n        /* \"#utility.yul\":16489:16505   */\n      swap1\n      pop\n        /* \"#utility.yul\":16432:16511   */\n      swap2\n      swap1\n      pop\n      jump\t// out\n        /* \"#utility.yul\":16517:16697   */\n    tag_394:\n        /* \"#utility.yul\":16565:16642   */\n      0x4e487b7100000000000000000000000000000000000000000000000000000000\n        /* \"#utility.yul\":16562:16563   */\n      0x00\n        /* \"#utility.yul\":16555:16643   */\n      mstore\n        /* \"#utility.yul\":16662:16666   */\n      0x11\n        /* \"#utility.yul\":16659:16660   */\n      0x04\n        /* \"#utility.yul\":16652:16667   */\n      mstore\n        /* \"#utility.yul\":16686:16690   */\n      0x24\n        /* \"#utility.yul\":16683:16684   */\n      0x00\n        /* \"#utility.yul\":16676:16691   */\n      revert\n        /* \"#utility.yul\":16703:16883   */\n    tag_168:\n        /* \"#utility.yul\":16751:16828   */\n      0x4e487b7100000000000000000000000000000000000000000000000000000000\n        /* \"#utility.yul\":16748:16749   */\n      0x00\n        /* \"#utility.yul\":16741:16829   */\n      mstore\n        /* \"#utility.yul\":16848:16852   */\n      0x21\n        /* \"#utility.yul\":16845:16846   */\n      0x04\n        /* \"#utility.yul\":16838:16853   */\n      mstore\n        /* \"#utility.yul\":16872:16876   */\n      0x24\n        /* \"#utility.yul\":16869:16870   */\n      0x00\n        /* \"#utility.yul\":16862:16877   */\n      revert\n        /* \"#utility.yul\":16889:17069   */\n    tag_423:\n        /* \"#utility.yul\":16937:17014   */\n      0x4e487b7100000000000000000000000000000000000000000000000000000000\n        /* \"#utility.yul\":16934:16935   */\n      0x00\n        /* \"#utility.yul\":16927:17015   */\n      mstore\n        /* \"#utility.yul\":17034:17038   */\n      0x22\n        /* \"#utility.yul\":17031:17032   */\n      0x04\n        /* \"#utility.yul\":17024:17039   */\n      mstore\n        /* \"#utility.yul\":17058:17062   */\n      0x24\n        /* \"#utility.yul\":17055:17056   */\n      0x00\n        /* \"#utility.yul\":17048:17063   */\n      revert\n        /* \"#utility.yul\":17198:17315   */\n    tag_238:\n        /* \"#utility.yul\":17307:17308   */\n      0x00\n        /* \"#utility.yul\":17304:17305   */\n      dup1\n        /* \"#utility.yul\":17297:17309   */\n      revert\n        /* \"#utility.yul\":17321:17423   */\n    tag_281:\n        /* \"#utility.yul\":17362:17368   */\n      0x00\n        /* \"#utility.yul\":17413:17415   */\n      0x1f\n        /* \"#utility.yul\":17409:17416   */\n      not\n        /* \"#utility.yul\":17404:17406   */\n      0x1f\n        /* \"#utility.yul\":17397:17402   */\n      dup4\n        /* \"#utility.yul\":17393:17407   */\n      add\n        /* \"#utility.yul\":17389:17417   */\n      and\n        /* \"#utility.yul\":17379:17417   */\n      swap1\n      pop\n        /* \"#utility.yul\":17321:17423   */\n      swap2\n      swap1\n      pop\n      jump\t// out\n        /* \"#utility.yul\":17429:17664   */\n    tag_292:\n        /* \"#utility.yul\":17569:17603   */\n      0x546f6b656e2076616c75652069732067726561746572207468616e2074686520\n        /* \"#utility.yul\":17565:17566   */\n      0x00\n        /* \"#utility.yul\":17557:17563   */\n      dup3\n        /* \"#utility.yul\":17553:17567   */\n      add\n        /* \"#utility.yul\":17546:17604   */\n      mstore\n        /* \"#utility.yul\":17638:17656   */\n      0x617070726f7665642062616c616e636500000000000000000000000000000000\n        /* \"#utility.yul\":17633:17635   */\n      0x20\n        /* \"#utility.yul\":17625:17631   */\n      dup3\n        /* \"#utility.yul\":17621:17636   */\n      add\n        /* \"#utility.yul\":17614:17657   */\n      mstore\n        /* \"#utility.yul\":17429:17664   */\n      pop\n      jump\t// out\n        /* \"#utility.yul\":17670:17891   */\n    tag_297:\n        /* \"#utility.yul\":17810:17844   */\n      0x546f6b656e2076616c7565206d7573742062652067726561746572207468616e\n        /* \"#utility.yul\":17806:17807   */\n      0x00\n        /* \"#utility.yul\":17798:17804   */\n      dup3\n        /* \"#utility.yul\":17794:17808   */\n      add\n        /* \"#utility.yul\":17787:17845   */\n      mstore\n        /* \"#utility.yul\":17879:17883   */\n      0x2030000000000000000000000000000000000000000000000000000000000000\n        /* \"#utility.yul\":17874:17876   */\n      0x20\n        /* \"#utility.yul\":17866:17872   */\n      dup3\n        /* \"#utility.yul\":17862:17877   */\n      add\n        /* \"#utility.yul\":17855:17884   */\n      mstore\n        /* \"#utility.yul\":17670:17891   */\n      pop\n      jump\t// out\n        /* \"#utility.yul\":17897:18079   */\n    tag_302:\n        /* \"#utility.yul\":18037:18071   */\n      0x416d6f756e74206d7573742062652067726561746572207468616e207a65726f\n        /* \"#utility.yul\":18033:18034   */\n      0x00\n        /* \"#utility.yul\":18025:18031   */\n      dup3\n        /* \"#utility.yul\":18021:18035   */\n      add\n        /* \"#utility.yul\":18014:18072   */\n      mstore\n        /* \"#utility.yul\":17897:18079   */\n      pop\n      jump\t// out\n        /* \"#utility.yul\":18085:18266   */\n    tag_307:\n        /* \"#utility.yul\":18225:18258   */\n      0x416d6f756e742063616e6e6f74206e6f74206265206c6f776572207468616e00\n        /* \"#utility.yul\":18221:18222   */\n      0x00\n        /* \"#utility.yul\":18213:18219   */\n      dup3\n        /* \"#utility.yul\":18209:18223   */\n      add\n        /* \"#utility.yul\":18202:18259   */\n      mstore\n        /* \"#utility.yul\":18085:18266   */\n      pop\n      jump\t// out\n        /* \"#utility.yul\":18272:18493   */\n    tag_312:\n        /* \"#utility.yul\":18412:18446   */\n      0x4163636573732064656e6965642c20796f75206165206e6f7420616e2061646d\n        /* \"#utility.yul\":18408:18409   */\n      0x00\n        /* \"#utility.yul\":18400:18406   */\n      dup3\n        /* \"#utility.yul\":18396:18410   */\n      add\n        /* \"#utility.yul\":18389:18447   */\n      mstore\n        /* \"#utility.yul\":18481:18485   */\n      0x696e000000000000000000000000000000000000000000000000000000000000\n        /* \"#utility.yul\":18476:18478   */\n      0x20\n        /* \"#utility.yul\":18468:18474   */\n      dup3\n        /* \"#utility.yul\":18464:18479   */\n      add\n        /* \"#utility.yul\":18457:18486   */\n      mstore\n        /* \"#utility.yul\":18272:18493   */\n      pop\n      jump\t// out\n        /* \"#utility.yul\":18499:18734   */\n    tag_317:\n        /* \"#utility.yul\":18639:18673   */\n      0x546f6b656e2076616c75652069732067726561746572207468616e20796f7572\n        /* \"#utility.yul\":18635:18636   */\n      0x00\n        /* \"#utility.yul\":18627:18633   */\n      dup3\n        /* \"#utility.yul\":18623:18637   */\n      add\n        /* \"#utility.yul\":18616:18674   */\n      mstore\n        /* \"#utility.yul\":18708:18726   */\n      0x2063757272656e7420686f6c64696e6700000000000000000000000000000000\n        /* \"#utility.yul\":18703:18705   */\n      0x20\n        /* \"#utility.yul\":18695:18701   */\n      dup3\n        /* \"#utility.yul\":18691:18706   */\n      add\n        /* \"#utility.yul\":18684:18727   */\n      mstore\n        /* \"#utility.yul\":18499:18734   */\n      pop\n      jump\t// out\n        /* \"#utility.yul\":18740:18975   */\n    tag_322:\n        /* \"#utility.yul\":18880:18914   */\n      0x546865206d6178696d756d20616d6f756e7420746f2062652072616973656420\n        /* \"#utility.yul\":18876:18877   */\n      0x00\n        /* \"#utility.yul\":18868:18874   */\n      dup3\n        /* \"#utility.yul\":18864:18878   */\n      add\n        /* \"#utility.yul\":18857:18915   */\n      mstore\n        /* \"#utility.yul\":18949:18967   */\n      0x686173206265656e207265616368656400000000000000000000000000000000\n        /* \"#utility.yul\":18944:18946   */\n      0x20\n        /* \"#utility.yul\":18936:18942   */\n      dup3\n        /* \"#utility.yul\":18932:18947   */\n      add\n        /* \"#utility.yul\":18925:18968   */\n      mstore\n        /* \"#utility.yul\":18740:18975   */\n      pop\n      jump\t// out\n        /* \"#utility.yul\":18981:19201   */\n    tag_327:\n        /* \"#utility.yul\":19121:19155   */\n      0x416d6f756e742063616e6e6f74206e6f74206265206869676768657220746861\n        /* \"#utility.yul\":19117:19118   */\n      0x00\n        /* \"#utility.yul\":19109:19115   */\n      dup3\n        /* \"#utility.yul\":19105:19119   */\n      add\n        /* \"#utility.yul\":19098:19156   */\n      mstore\n        /* \"#utility.yul\":19190:19193   */\n      0x6e00000000000000000000000000000000000000000000000000000000000000\n        /* \"#utility.yul\":19185:19187   */\n      0x20\n        /* \"#utility.yul\":19177:19183   */\n      dup3\n        /* \"#utility.yul\":19173:19188   */\n      add\n        /* \"#utility.yul\":19166:19194   */\n      mstore\n        /* \"#utility.yul\":18981:19201   */\n      pop\n      jump\t// out\n        /* \"#utility.yul\":19207:19385   */\n    tag_332:\n        /* \"#utility.yul\":19347:19377   */\n      0x496e73756666696369656e74204163636f756e742042616c616e636500000000\n        /* \"#utility.yul\":19343:19344   */\n      0x00\n        /* \"#utility.yul\":19335:19341   */\n      dup3\n        /* \"#utility.yul\":19331:19345   */\n      add\n        /* \"#utility.yul\":19324:19378   */\n      mstore\n        /* \"#utility.yul\":19207:19385   */\n      pop\n      jump\t// out\n        /* \"#utility.yul\":19391:19559   */\n    tag_337:\n        /* \"#utility.yul\":19531:19551   */\n      0x496e737566696369656e742042616c6e63650000000000000000000000000000\n        /* \"#utility.yul\":19527:19528   */\n      0x00\n        /* \"#utility.yul\":19519:19525   */\n      dup3\n        /* \"#utility.yul\":19515:19529   */\n      add\n        /* \"#utility.yul\":19508:19552   */\n      mstore\n        /* \"#utility.yul\":19391:19559   */\n      pop\n      jump\t// out\n        /* \"#utility.yul\":19565:19679   */\n    tag_409:\n        /* \"#utility.yul\":19647:19648   */\n      0x05\n        /* \"#utility.yul\":19640:19645   */\n      dup2\n        /* \"#utility.yul\":19637:19649   */\n      lt\n        /* \"#utility.yul\":19627:19673   */\n      tag_443\n      jumpi\n        /* \"#utility.yul\":19653:19671   */\n      tag_444\n      tag_168\n      jump\t// in\n    tag_444:\n        /* \"#utility.yul\":19627:19673   */\n    tag_443:\n        /* \"#utility.yul\":19565:19679   */\n      pop\n      jump\t// out\n        /* \"#utility.yul\":19685:19807   */\n    tag_230:\n        /* \"#utility.yul\":19758:19782   */\n      tag_446\n        /* \"#utility.yul\":19776:19781   */\n      dup2\n        /* \"#utility.yul\":19758:19782   */\n      tag_263\n      jump\t// in\n    tag_446:\n        /* \"#utility.yul\":19751:19756   */\n      dup2\n        /* \"#utility.yul\":19748:19783   */\n      eq\n        /* \"#utility.yul\":19738:19801   */\n      tag_447\n      jumpi\n        /* \"#utility.yul\":19797:19798   */\n      0x00\n        /* \"#utility.yul\":19794:19795   */\n      dup1\n        /* \"#utility.yul\":19787:19799   */\n      revert\n        /* \"#utility.yul\":19738:19801   */\n    tag_447:\n        /* \"#utility.yul\":19685:19807   */\n      pop\n      jump\t// out\n        /* \"#utility.yul\":19813:19935   */\n    tag_234:\n        /* \"#utility.yul\":19886:19910   */\n      tag_449\n        /* \"#utility.yul\":19904:19909   */\n      dup2\n        /* \"#utility.yul\":19886:19910   */\n      tag_341\n      jump\t// in\n    tag_449:\n        /* \"#utility.yul\":19879:19884   */\n      dup2\n        /* \"#utility.yul\":19876:19911   */\n      eq\n        /* \"#utility.yul\":19866:19929   */\n      tag_450\n      jumpi\n        /* \"#utility.yul\":19925:19926   */\n      0x00\n        /* \"#utility.yul\":19922:19923   */\n      dup1\n        /* \"#utility.yul\":19915:19927   */\n      revert\n        /* \"#utility.yul\":19866:19929   */\n    tag_450:\n        /* \"#utility.yul\":19813:19935   */\n      pop\n      jump\t// out\n\n    auxdata: 0xa26469706673582212205b5fed81b5cbb0780ee497aa5a0489d76f7fbec4248b93cb9af8c9725e25d70964736f6c63430008070033\n}\n",
				"bytecode": {
					"linkReferences": {},
					"object": "60806040526040518060400160405280600681526020017f5a494c4c41580000000000000000000000000000000000000000000000000000815250600090805190602001906200005192919062000281565b506040518060400160405280600381526020017f5a4c5a0000000000000000000000000000000000000000000000000000000000815250600190805190602001906200009f92919062000281565b506000600255674563918244f4000060095542600a5567016345785d8a0000600c55670de0b6b3a7640000600d55348015620000da57600080fd5b50604051620023553803806200235583398181016040528101906200010091906200035f565b620f424060048190555033600360006101000a81548173ffffffffffffffffffffffffffffffffffffffff021916908373ffffffffffffffffffffffffffffffffffffffff16021790555060045460056000600360009054906101000a900473ffffffffffffffffffffffffffffffffffffffff1673ffffffffffffffffffffffffffffffffffffffff1673ffffffffffffffffffffffffffffffffffffffff168152602001908152602001600020819055506000600e60006101000a81548160ff02191690836004811115620001dc57620001db620004a6565b5b021790555033600760006101000a81548173ffffffffffffffffffffffffffffffffffffffff021916908373ffffffffffffffffffffffffffffffffffffffff16021790555081600a54620002329190620003a6565b600b8190555080600e60016101000a81548173ffffffffffffffffffffffffffffffffffffffff021916908373ffffffffffffffffffffffffffffffffffffffff16021790555050506200053d565b8280546200028f9062000441565b90600052602060002090601f016020900481019282620002b35760008555620002ff565b82601f10620002ce57805160ff1916838001178555620002ff565b82800160010185558215620002ff579182015b82811115620002fe578251825591602001919060010190620002e1565b5b5090506200030e919062000312565b5090565b5b808211156200032d57600081600090555060010162000313565b5090565b600081519050620003428162000509565b92915050565b600081519050620003598162000523565b92915050565b6000806040838503121562000379576200037862000504565b5b6000620003898582860162000348565b92505060206200039c8582860162000331565b9150509250929050565b6000620003b38262000437565b9150620003c08362000437565b9250827fffffffffffffffffffffffffffffffffffffffffffffffffffffffffffffffff03821115620003f857620003f762000477565b5b828201905092915050565b6000620004108262000417565b9050919050565b600073ffffffffffffffffffffffffffffffffffffffff82169050919050565b6000819050919050565b600060028204905060018216806200045a57607f821691505b60208210811415620004715762000470620004d5565b5b50919050565b7f4e487b7100000000000000000000000000000000000000000000000000000000600052601160045260246000fd5b7f4e487b7100000000000000000000000000000000000000000000000000000000600052602160045260246000fd5b7f4e487b7100000000000000000000000000000000000000000000000000000000600052602260045260246000fd5b600080fd5b620005148162000403565b81146200052057600080fd5b50565b6200052e8162000437565b81146200053a57600080fd5b50565b611e08806200054d6000396000f3fe6080604052600436106101405760003560e01c80635c658165116100b6578063bb0c82981161006f578063bb0c82981461048c578063c59ee1dc146104b7578063dd62ed3e146104e2578063e8b5e51f1461051f578063f851a4401461053d578063fb86a4041461056857610140565b80635c6581651461035457806370a082311461039157806378e97925146103ce57806395d89b41146103f9578063a9059cbb14610424578063a9bcea611461046157610140565b806328f833b71161010857806328f833b7146102525780632942b61a1461027d578063313ce567146102a85780633197cbb6146102d357806344f38756146102fe5780634d853ee51461032957610140565b806306fdde0314610145578063095ea7b31461017057806318160ddd146101ad57806323b872dd146101d857806327e235e314610215575b600080fd5b34801561015157600080fd5b5061015a610593565b6040516101679190611793565b60405180910390f35b34801561017c57600080fd5b506101976004803603810190610192919061144d565b610621565b6040516101a4919061175d565b60405180910390f35b3480156101b957600080fd5b506101c26107d8565b6040516101cf91906118b5565b60405180910390f35b3480156101e457600080fd5b506101ff60048036038101906101fa91906113fa565b6107de565b60405161020c919061175d565b60405180910390f35b34801561022157600080fd5b5061023c6004803603810190610237919061138d565b610b13565b60405161024991906118b5565b60405180910390f35b34801561025e57600080fd5b50610267610b2b565b6040516102749190611742565b60405180910390f35b34801561028957600080fd5b50610292610b51565b60405161029f9190611778565b60405180910390f35b3480156102b457600080fd5b506102bd610bda565b6040516102ca91906118b5565b60405180910390f35b3480156102df57600080fd5b506102e8610be0565b6040516102f591906118b5565b60405180910390f35b34801561030a57600080fd5b50610313610be6565b6040516103209190611778565b60405180910390f35b34801561033557600080fd5b5061033e610bf9565b60405161034b9190611727565b60405180910390f35b34801561036057600080fd5b5061037b600480360381019061037691906113ba565b610c1f565b60405161038891906118b5565b60405180910390f35b34801561039d57600080fd5b506103b860048036038101906103b3919061138d565b610c44565b6040516103c591906118b5565b60405180910390f35b3480156103da57600080fd5b506103e3610c8d565b6040516103f091906118b5565b60405180910390f35b34801561040557600080fd5b5061040e610c93565b60405161041b9190611793565b60405180910390f35b34801561043057600080fd5b5061044b6004803603810190610446919061144d565b610d21565b604051610458919061175d565b60405180910390f35b34801561046d57600080fd5b50610476610ec0565b60405161048391906118b5565b60405180910390f35b34801561049857600080fd5b506104a1610ec6565b6040516104ae91906118b5565b60405180910390f35b3480156104c357600080fd5b506104cc610ecc565b6040516104d991906118b5565b60405180910390f35b3480156104ee57600080fd5b50610509600480360381019061050491906113ba565b610ed2565b60405161051691906118b5565b60405180910390f35b610527610f59565b604051610534919061175d565b60405180910390f35b34801561054957600080fd5b50610552611337565b60405161055f9190611727565b60405180910390f35b34801561057457600080fd5b5061057d61135d565b60405161058a91906118b5565b60405180910390f35b600080546105a090611a33565b80601f01602080910402602001604051908101604052809291908181526020018280546105cc90611a33565b80156106195780601f106105ee57610100808354040283529160200191610619565b820191906000526020600020905b8154815290600101906020018083116105fc57829003601f168201915b505050505081565b600081600560003373ffffffffffffffffffffffffffffffffffffffff1673ffffffffffffffffffffffffffffffffffffffff1681526020019081526020016000205410156106a5576040517f08c379a000000000000000000000000000000000000000000000000000000000815260040161069c90611835565b60405180910390fd5b600082116106e8576040517f08c379a00000000000000000000000000000000000000000000000000000000081526004016106df906117d5565b60405180910390fd5b81600660003373ffffffffffffffffffffffffffffffffffffffff1673ffffffffffffffffffffffffffffffffffffffff16815260200190815260200160002060008573ffffffffffffffffffffffffffffffffffffffff1673ffffffffffffffffffffffffffffffffffffffff168152602001908152602001600020819055508273ffffffffffffffffffffffffffffffffffffffff163373ffffffffffffffffffffffffffffffffffffffff167f8c5be1e5ebec7d5bd14f71427d1e84f3dd0314c0f7b2291e5b200ac8c7c3b925846040516107c691906118b5565b60405180910390a36001905092915050565b60045481565b600081600660008673ffffffffffffffffffffffffffffffffffffffff1673ffffffffffffffffffffffffffffffffffffffff16815260200190815260200160002060003373ffffffffffffffffffffffffffffffffffffffff1673ffffffffffffffffffffffffffffffffffffffff16815260200190815260200160002054101561089f576040517f08c379a0000000000000000000000000000000000000000000000000000000008152600401610896906117b5565b60405180910390fd5b81600560008673ffffffffffffffffffffffffffffffffffffffff1673ffffffffffffffffffffffffffffffffffffffff168152602001908152602001600020541015610921576040517f08c379a000000000000000000000000000000000000000000000000000000000815260040161091890611895565b60405180910390fd5b60008211610964576040517f08c379a000000000000000000000000000000000000000000000000000000000815260040161095b906117d5565b60405180910390fd5b81600660008673ffffffffffffffffffffffffffffffffffffffff1673ffffffffffffffffffffffffffffffffffffffff16815260200190815260200160002060003373ffffffffffffffffffffffffffffffffffffffff1673ffffffffffffffffffffffffffffffffffffffff16815260200190815260200160002060008282546109f0919061194d565b9250508190555081600560008673ffffffffffffffffffffffffffffffffffffffff1673ffffffffffffffffffffffffffffffffffffffff1681526020019081526020016000206000828254610a46919061194d565b9250508190555081600560008573ffffffffffffffffffffffffffffffffffffffff1673ffffffffffffffffffffffffffffffffffffffff1681526020019081526020016000206000828254610a9c91906118f7565b925050819055508273ffffffffffffffffffffffffffffffffffffffff168473ffffffffffffffffffffffffffffffffffffffff167fddf252ad1be2c89b69c2b068fc378daa952ba7f163c4a11628f55a4df523b3ef84604051610b0091906118b5565b60405180910390a3600190509392505050565b60056020528060005260406000206000915090505481565b600e60019054906101000a900473ffffffffffffffffffffffffffffffffffffffff1681565b600080600480811115610b6757610b66611a9e565b5b600e60009054906101000a900460ff166004811115610b8957610b88611a9e565b5b1415610b985760049050610bd3565b600a54421015610bab5760009050610bd2565b600a544210158015610bbe5750600b5442105b15610bcc5760019050610bd1565b600390505b5b5b8091505090565b60025481565b600b5481565b600e60009054906101000a900460ff1681565b600360009054906101000a900473ffffffffffffffffffffffffffffffffffffffff1681565b6006602052816000526040600020602052806000526040600020600091509150505481565b6000600560008373ffffffffffffffffffffffffffffffffffffffff1673ffffffffffffffffffffffffffffffffffffffff168152602001908152602001600020549050919050565b600a5481565b60018054610ca090611a33565b80601f0160208091040260200160405190810160405280929190818152602001828054610ccc90611a33565b8015610d195780601f10610cee57610100808354040283529160200191610d19565b820191906000526020600020905b815481529060010190602001808311610cfc57829003601f168201915b505050505081565b600081600560003373ffffffffffffffffffffffffffffffffffffffff1673ffffffffffffffffffffffffffffffffffffffff168152602001908152602001600020541015610da5576040517f08c379a0000000000000000000000000000000000000000000000000000000008152600401610d9c90611875565b60405180910390fd5b81600560008573ffffffffffffffffffffffffffffffffffffffff1673ffffffffffffffffffffffffffffffffffffffff1681526020019081526020016000206000828254610df491906118f7565b9250508190555081600560003373ffffffffffffffffffffffffffffffffffffffff1673ffffffffffffffffffffffffffffffffffffffff1681526020019081526020016000206000828254610e4a919061194d565b925050819055508273ffffffffffffffffffffffffffffffffffffffff163373ffffffffffffffffffffffffffffffffffffffff167fddf252ad1be2c89b69c2b068fc378daa952ba7f163c4a11628f55a4df523b3ef84604051610eae91906118b5565b60405180910390a36001905092915050565b600d5481565b600c5481565b60085481565b6000600660008473ffffffffffffffffffffffffffffffffffffffff1673ffffffffffffffffffffffffffffffffffffffff16815260200190815260200160002060008373ffffffffffffffffffffffffffffffffffffffff1673ffffffffffffffffffffffffffffffffffffffff16815260200190815260200160002054905092915050565b6000600760009054906101000a900473ffffffffffffffffffffffffffffffffffffffff1673ffffffffffffffffffffffffffffffffffffffff163373ffffffffffffffffffffffffffffffffffffffff1614610feb576040517f08c379a0000000000000000000000000000000000000000000000000000000008152600401610fe290611815565b60405180910390fd5b610ff3610b51565b600e60006101000a81548160ff0219169083600481111561101757611016611a9e565b5b0217905550600160048111156110305761102f611a9e565b5b600e60009054906101000a900460ff16600481111561105257611051611a9e565b5b14611092576040517f08c379a0000000000000000000000000000000000000000000000000000000008152600401611089906117f5565b60405180910390fd5b600034116110d5576040517f08c379a00000000000000000000000000000000000000000000000000000000081526004016110cc906117f5565b60405180910390fd5b6000600c546040516020016110ea91906116db565b60405160208183030381529060405290506000600d546040516020016111109190611701565b6040516020818303038152906040529050600082826040516020016111369291906116b7565b6040516020818303038152906040529050600c54341015801561115b5750600d543411155b819061119d576040517f08c379a00000000000000000000000000000000000000000000000000000000081526004016111949190611793565b60405180910390fd5b506000346008546111ae91906118f7565b90506009548111156111f5576040517f08c379a00000000000000000000000000000000000000000000000000000000081526004016111ec90611855565b60405180910390fd5b34600560003373ffffffffffffffffffffffffffffffffffffffff1673ffffffffffffffffffffffffffffffffffffffff168152602001908152602001600020600082825461124491906118f7565b925050819055503460056000600360009054906101000a900473ffffffffffffffffffffffffffffffffffffffff1673ffffffffffffffffffffffffffffffffffffffff1673ffffffffffffffffffffffffffffffffffffffff16815260200190815260200160002060008282546112bc919061194d565b92505081905550600e60019054906101000a900473ffffffffffffffffffffffffffffffffffffffff1673ffffffffffffffffffffffffffffffffffffffff166108fc349081150290604051600060405180830381858888f1935050505015801561132b573d6000803e3d6000fd5b50600194505050505090565b600760009054906101000a900473ffffffffffffffffffffffffffffffffffffffff1681565b60095481565b60008135905061137281611da4565b92915050565b60008135905061138781611dbb565b92915050565b6000602082840312156113a3576113a2611afc565b5b60006113b184828501611363565b91505092915050565b600080604083850312156113d1576113d0611afc565b5b60006113df85828601611363565b92505060206113f085828601611363565b9150509250929050565b60008060006060848603121561141357611412611afc565b5b600061142186828701611363565b935050602061143286828701611363565b925050604061144386828701611378565b9150509250925092565b6000806040838503121561146457611463611afc565b5b600061147285828601611363565b925050602061148385828601611378565b9150509250929050565b61149681611993565b82525050565b6114a581611981565b82525050565b6114b4816119a5565b82525050565b6114c3816119ee565b82525050565b60006114d4826118d0565b6114de81856118db565b93506114ee818560208601611a00565b6114f781611b01565b840191505092915050565b600061150d826118d0565b61151781856118ec565b9350611527818560208601611a00565b80840191505092915050565b60006115406030836118db565b915061154b82611b12565b604082019050919050565b60006115636022836118db565b915061156e82611b61565b604082019050919050565b60006115866020836118db565b915061159182611bb0565b602082019050919050565b60006115a9601f836118ec565b91506115b482611bd9565b601f82019050919050565b60006115cc6022836118db565b91506115d782611c02565b604082019050919050565b60006115ef6030836118db565b91506115fa82611c51565b604082019050919050565b60006116126030836118db565b915061161d82611ca0565b604082019050919050565b60006116356021836118ec565b915061164082611cef565b602182019050919050565b6000611658601c836118db565b915061166382611d3e565b602082019050919050565b600061167b6012836118db565b915061168682611d67565b602082019050919050565b61169a816119e4565b82525050565b6116b16116ac826119e4565b611a65565b82525050565b60006116c38285611502565b91506116cf8284611502565b91508190509392505050565b60006116e68261159c565b91506116f282846116a0565b60208201915081905092915050565b600061170c82611628565b915061171882846116a0565b60208201915081905092915050565b600060208201905061173c600083018461149c565b92915050565b6000602082019050611757600083018461148d565b92915050565b600060208201905061177260008301846114ab565b92915050565b600060208201905061178d60008301846114ba565b92915050565b600060208201905081810360008301526117ad81846114c9565b905092915050565b600060208201905081810360008301526117ce81611533565b9050919050565b600060208201905081810360008301526117ee81611556565b9050919050565b6000602082019050818103600083015261180e81611579565b9050919050565b6000602082019050818103600083015261182e816115bf565b9050919050565b6000602082019050818103600083015261184e816115e2565b9050919050565b6000602082019050818103600083015261186e81611605565b9050919050565b6000602082019050818103600083015261188e8161164b565b9050919050565b600060208201905081810360008301526118ae8161166e565b9050919050565b60006020820190506118ca6000830184611691565b92915050565b600081519050919050565b600082825260208201905092915050565b600081905092915050565b6000611902826119e4565b915061190d836119e4565b9250827fffffffffffffffffffffffffffffffffffffffffffffffffffffffffffffffff0382111561194257611941611a6f565b5b828201905092915050565b6000611958826119e4565b9150611963836119e4565b92508282101561197657611975611a6f565b5b828203905092915050565b600061198c826119c4565b9050919050565b600061199e826119c4565b9050919050565b60008115159050919050565b60008190506119bf82611d90565b919050565b600073ffffffffffffffffffffffffffffffffffffffff82169050919050565b6000819050919050565b60006119f9826119b1565b9050919050565b60005b83811015611a1e578082015181840152602081019050611a03565b83811115611a2d576000848401525b50505050565b60006002820490506001821680611a4b57607f821691505b60208210811415611a5f57611a5e611acd565b5b50919050565b6000819050919050565b7f4e487b7100000000000000000000000000000000000000000000000000000000600052601160045260246000fd5b7f4e487b7100000000000000000000000000000000000000000000000000000000600052602160045260246000fd5b7f4e487b7100000000000000000000000000000000000000000000000000000000600052602260045260246000fd5b600080fd5b6000601f19601f8301169050919050565b7f546f6b656e2076616c75652069732067726561746572207468616e207468652060008201527f617070726f7665642062616c616e636500000000000000000000000000000000602082015250565b7f546f6b656e2076616c7565206d7573742062652067726561746572207468616e60008201527f2030000000000000000000000000000000000000000000000000000000000000602082015250565b7f416d6f756e74206d7573742062652067726561746572207468616e207a65726f600082015250565b7f416d6f756e742063616e6e6f74206e6f74206265206c6f776572207468616e00600082015250565b7f4163636573732064656e6965642c20796f75206165206e6f7420616e2061646d60008201527f696e000000000000000000000000000000000000000000000000000000000000602082015250565b7f546f6b656e2076616c75652069732067726561746572207468616e20796f757260008201527f2063757272656e7420686f6c64696e6700000000000000000000000000000000602082015250565b7f546865206d6178696d756d20616d6f756e7420746f206265207261697365642060008201527f686173206265656e207265616368656400000000000000000000000000000000602082015250565b7f416d6f756e742063616e6e6f74206e6f7420626520686967676865722074686160008201527f6e00000000000000000000000000000000000000000000000000000000000000602082015250565b7f496e73756666696369656e74204163636f756e742042616c616e636500000000600082015250565b7f496e737566696369656e742042616c6e63650000000000000000000000000000600082015250565b60058110611da157611da0611a9e565b5b50565b611dad81611981565b8114611db857600080fd5b50565b611dc4816119e4565b8114611dcf57600080fd5b5056fea26469706673582212205b5fed81b5cbb0780ee497aa5a0489d76f7fbec4248b93cb9af8c9725e25d70964736f6c63430008070033",
					"opcodes": "PUSH1 0x80 PUSH1 0x40 MSTORE PUSH1 0x40 MLOAD DUP1 PUSH1 0x40 ADD PUSH1 0x40 MSTORE DUP1 PUSH1 0x6 DUP2 MSTORE PUSH1 0x20 ADD PUSH32 0x5A494C4C41580000000000000000000000000000000000000000000000000000 DUP2 MSTORE POP PUSH1 0x0 SWAP1 DUP1 MLOAD SWAP1 PUSH1 0x20 ADD SWAP1 PUSH3 0x51 SWAP3 SWAP2 SWAP1 PUSH3 0x281 JUMP JUMPDEST POP PUSH1 0x40 MLOAD DUP1 PUSH1 0x40 ADD PUSH1 0x40 MSTORE DUP1 PUSH1 0x3 DUP2 MSTORE PUSH1 0x20 ADD PUSH32 0x5A4C5A0000000000000000000000000000000000000000000000000000000000 DUP2 MSTORE POP PUSH1 0x1 SWAP1 DUP1 MLOAD SWAP1 PUSH1 0x20 ADD SWAP1 PUSH3 0x9F SWAP3 SWAP2 SWAP1 PUSH3 0x281 JUMP JUMPDEST POP PUSH1 0x0 PUSH1 0x2 SSTORE PUSH8 0x4563918244F40000 PUSH1 0x9 SSTORE TIMESTAMP PUSH1 0xA SSTORE PUSH8 0x16345785D8A0000 PUSH1 0xC SSTORE PUSH8 0xDE0B6B3A7640000 PUSH1 0xD SSTORE CALLVALUE DUP1 ISZERO PUSH3 0xDA JUMPI PUSH1 0x0 DUP1 REVERT JUMPDEST POP PUSH1 0x40 MLOAD PUSH3 0x2355 CODESIZE SUB DUP1 PUSH3 0x2355 DUP4 CODECOPY DUP2 DUP2 ADD PUSH1 0x40 MSTORE DUP2 ADD SWAP1 PUSH3 0x100 SWAP2 SWAP1 PUSH3 0x35F JUMP JUMPDEST PUSH3 0xF4240 PUSH1 0x4 DUP2 SWAP1 SSTORE POP CALLER PUSH1 0x3 PUSH1 0x0 PUSH2 0x100 EXP DUP2 SLOAD DUP2 PUSH20 0xFFFFFFFFFFFFFFFFFFFFFFFFFFFFFFFFFFFFFFFF MUL NOT AND SWAP1 DUP4 PUSH20 0xFFFFFFFFFFFFFFFFFFFFFFFFFFFFFFFFFFFFFFFF AND MUL OR SWAP1 SSTORE POP PUSH1 0x4 SLOAD PUSH1 0x5 PUSH1 0x0 PUSH1 0x3 PUSH1 0x0 SWAP1 SLOAD SWAP1 PUSH2 0x100 EXP SWAP1 DIV PUSH20 0xFFFFFFFFFFFFFFFFFFFFFFFFFFFFFFFFFFFFFFFF AND PUSH20 0xFFFFFFFFFFFFFFFFFFFFFFFFFFFFFFFFFFFFFFFF AND PUSH20 0xFFFFFFFFFFFFFFFFFFFFFFFFFFFFFFFFFFFFFFFF AND DUP2 MSTORE PUSH1 0x20 ADD SWAP1 DUP2 MSTORE PUSH1 0x20 ADD PUSH1 0x0 KECCAK256 DUP2 SWAP1 SSTORE POP PUSH1 0x0 PUSH1 0xE PUSH1 0x0 PUSH2 0x100 EXP DUP2 SLOAD DUP2 PUSH1 0xFF MUL NOT AND SWAP1 DUP4 PUSH1 0x4 DUP2 GT ISZERO PUSH3 0x1DC JUMPI PUSH3 0x1DB PUSH3 0x4A6 JUMP JUMPDEST JUMPDEST MUL OR SWAP1 SSTORE POP CALLER PUSH1 0x7 PUSH1 0x0 PUSH2 0x100 EXP DUP2 SLOAD DUP2 PUSH20 0xFFFFFFFFFFFFFFFFFFFFFFFFFFFFFFFFFFFFFFFF MUL NOT AND SWAP1 DUP4 PUSH20 0xFFFFFFFFFFFFFFFFFFFFFFFFFFFFFFFFFFFFFFFF AND MUL OR SWAP1 SSTORE POP DUP2 PUSH1 0xA SLOAD PUSH3 0x232 SWAP2 SWAP1 PUSH3 0x3A6 JUMP JUMPDEST PUSH1 0xB DUP2 SWAP1 SSTORE POP DUP1 PUSH1 0xE PUSH1 0x1 PUSH2 0x100 EXP DUP2 SLOAD DUP2 PUSH20 0xFFFFFFFFFFFFFFFFFFFFFFFFFFFFFFFFFFFFFFFF MUL NOT AND SWAP1 DUP4 PUSH20 0xFFFFFFFFFFFFFFFFFFFFFFFFFFFFFFFFFFFFFFFF AND MUL OR SWAP1 SSTORE POP POP POP PUSH3 0x53D JUMP JUMPDEST DUP3 DUP1 SLOAD PUSH3 0x28F SWAP1 PUSH3 0x441 JUMP JUMPDEST SWAP1 PUSH1 0x0 MSTORE PUSH1 0x20 PUSH1 0x0 KECCAK256 SWAP1 PUSH1 0x1F ADD PUSH1 0x20 SWAP1 DIV DUP2 ADD SWAP3 DUP3 PUSH3 0x2B3 JUMPI PUSH1 0x0 DUP6 SSTORE PUSH3 0x2FF JUMP JUMPDEST DUP3 PUSH1 0x1F LT PUSH3 0x2CE JUMPI DUP1 MLOAD PUSH1 0xFF NOT AND DUP4 DUP1 ADD OR DUP6 SSTORE PUSH3 0x2FF JUMP JUMPDEST DUP3 DUP1 ADD PUSH1 0x1 ADD DUP6 SSTORE DUP3 ISZERO PUSH3 0x2FF JUMPI SWAP2 DUP3 ADD JUMPDEST DUP3 DUP2 GT ISZERO PUSH3 0x2FE JUMPI DUP3 MLOAD DUP3 SSTORE SWAP2 PUSH1 0x20 ADD SWAP2 SWAP1 PUSH1 0x1 ADD SWAP1 PUSH3 0x2E1 JUMP JUMPDEST JUMPDEST POP SWAP1 POP PUSH3 0x30E SWAP2 SWAP1 PUSH3 0x312 JUMP JUMPDEST POP SWAP1 JUMP JUMPDEST JUMPDEST DUP1 DUP3 GT ISZERO PUSH3 0x32D JUMPI PUSH1 0x0 DUP2 PUSH1 0x0 SWAP1 SSTORE POP PUSH1 0x1 ADD PUSH3 0x313 JUMP JUMPDEST POP SWAP1 JUMP JUMPDEST PUSH1 0x0 DUP2 MLOAD SWAP1 POP PUSH3 0x342 DUP2 PUSH3 0x509 JUMP JUMPDEST SWAP3 SWAP2 POP POP JUMP JUMPDEST PUSH1 0x0 DUP2 MLOAD SWAP1 POP PUSH3 0x359 DUP2 PUSH3 0x523 JUMP JUMPDEST SWAP3 SWAP2 POP POP JUMP JUMPDEST PUSH1 0x0 DUP1 PUSH1 0x40 DUP4 DUP6 SUB SLT ISZERO PUSH3 0x379 JUMPI PUSH3 0x378 PUSH3 0x504 JUMP JUMPDEST JUMPDEST PUSH1 0x0 PUSH3 0x389 DUP6 DUP3 DUP7 ADD PUSH3 0x348 JUMP JUMPDEST SWAP3 POP POP PUSH1 0x20 PUSH3 0x39C DUP6 DUP3 DUP7 ADD PUSH3 0x331 JUMP JUMPDEST SWAP2 POP POP SWAP3 POP SWAP3 SWAP1 POP JUMP JUMPDEST PUSH1 0x0 PUSH3 0x3B3 DUP3 PUSH3 0x437 JUMP JUMPDEST SWAP2 POP PUSH3 0x3C0 DUP4 PUSH3 0x437 JUMP JUMPDEST SWAP3 POP DUP3 PUSH32 0xFFFFFFFFFFFFFFFFFFFFFFFFFFFFFFFFFFFFFFFFFFFFFFFFFFFFFFFFFFFFFFFF SUB DUP3 GT ISZERO PUSH3 0x3F8 JUMPI PUSH3 0x3F7 PUSH3 0x477 JUMP JUMPDEST JUMPDEST DUP3 DUP3 ADD SWAP1 POP SWAP3 SWAP2 POP POP JUMP JUMPDEST PUSH1 0x0 PUSH3 0x410 DUP3 PUSH3 0x417 JUMP JUMPDEST SWAP1 POP SWAP2 SWAP1 POP JUMP JUMPDEST PUSH1 0x0 PUSH20 0xFFFFFFFFFFFFFFFFFFFFFFFFFFFFFFFFFFFFFFFF DUP3 AND SWAP1 POP SWAP2 SWAP1 POP JUMP JUMPDEST PUSH1 0x0 DUP2 SWAP1 POP SWAP2 SWAP1 POP JUMP JUMPDEST PUSH1 0x0 PUSH1 0x2 DUP3 DIV SWAP1 POP PUSH1 0x1 DUP3 AND DUP1 PUSH3 0x45A JUMPI PUSH1 0x7F DUP3 AND SWAP2 POP JUMPDEST PUSH1 0x20 DUP3 LT DUP2 EQ ISZERO PUSH3 0x471 JUMPI PUSH3 0x470 PUSH3 0x4D5 JUMP JUMPDEST JUMPDEST POP SWAP2 SWAP1 POP JUMP JUMPDEST PUSH32 0x4E487B7100000000000000000000000000000000000000000000000000000000 PUSH1 0x0 MSTORE PUSH1 0x11 PUSH1 0x4 MSTORE PUSH1 0x24 PUSH1 0x0 REVERT JUMPDEST PUSH32 0x4E487B7100000000000000000000000000000000000000000000000000000000 PUSH1 0x0 MSTORE PUSH1 0x21 PUSH1 0x4 MSTORE PUSH1 0x24 PUSH1 0x0 REVERT JUMPDEST PUSH32 0x4E487B7100000000000000000000000000000000000000000000000000000000 PUSH1 0x0 MSTORE PUSH1 0x22 PUSH1 0x4 MSTORE PUSH1 0x24 PUSH1 0x0 REVERT JUMPDEST PUSH1 0x0 DUP1 REVERT JUMPDEST PUSH3 0x514 DUP2 PUSH3 0x403 JUMP JUMPDEST DUP2 EQ PUSH3 0x520 JUMPI PUSH1 0x0 DUP1 REVERT JUMPDEST POP JUMP JUMPDEST PUSH3 0x52E DUP2 PUSH3 0x437 JUMP JUMPDEST DUP2 EQ PUSH3 0x53A JUMPI PUSH1 0x0 DUP1 REVERT JUMPDEST POP JUMP JUMPDEST PUSH2 0x1E08 DUP1 PUSH3 0x54D PUSH1 0x0 CODECOPY PUSH1 0x0 RETURN INVALID PUSH1 0x80 PUSH1 0x40 MSTORE PUSH1 0x4 CALLDATASIZE LT PUSH2 0x140 JUMPI PUSH1 0x0 CALLDATALOAD PUSH1 0xE0 SHR DUP1 PUSH4 0x5C658165 GT PUSH2 0xB6 JUMPI DUP1 PUSH4 0xBB0C8298 GT PUSH2 0x6F JUMPI DUP1 PUSH4 0xBB0C8298 EQ PUSH2 0x48C JUMPI DUP1 PUSH4 0xC59EE1DC EQ PUSH2 0x4B7 JUMPI DUP1 PUSH4 0xDD62ED3E EQ PUSH2 0x4E2 JUMPI DUP1 PUSH4 0xE8B5E51F EQ PUSH2 0x51F JUMPI DUP1 PUSH4 0xF851A440 EQ PUSH2 0x53D JUMPI DUP1 PUSH4 0xFB86A404 EQ PUSH2 0x568 JUMPI PUSH2 0x140 JUMP JUMPDEST DUP1 PUSH4 0x5C658165 EQ PUSH2 0x354 JUMPI DUP1 PUSH4 0x70A08231 EQ PUSH2 0x391 JUMPI DUP1 PUSH4 0x78E97925 EQ PUSH2 0x3CE JUMPI DUP1 PUSH4 0x95D89B41 EQ PUSH2 0x3F9 JUMPI DUP1 PUSH4 0xA9059CBB EQ PUSH2 0x424 JUMPI DUP1 PUSH4 0xA9BCEA61 EQ PUSH2 0x461 JUMPI PUSH2 0x140 JUMP JUMPDEST DUP1 PUSH4 0x28F833B7 GT PUSH2 0x108 JUMPI DUP1 PUSH4 0x28F833B7 EQ PUSH2 0x252 JUMPI DUP1 PUSH4 0x2942B61A EQ PUSH2 0x27D JUMPI DUP1 PUSH4 0x313CE567 EQ PUSH2 0x2A8 JUMPI DUP1 PUSH4 0x3197CBB6 EQ PUSH2 0x2D3 JUMPI DUP1 PUSH4 0x44F38756 EQ PUSH2 0x2FE JUMPI DUP1 PUSH4 0x4D853EE5 EQ PUSH2 0x329 JUMPI PUSH2 0x140 JUMP JUMPDEST DUP1 PUSH4 0x6FDDE03 EQ PUSH2 0x145 JUMPI DUP1 PUSH4 0x95EA7B3 EQ PUSH2 0x170 JUMPI DUP1 PUSH4 0x18160DDD EQ PUSH2 0x1AD JUMPI DUP1 PUSH4 0x23B872DD EQ PUSH2 0x1D8 JUMPI DUP1 PUSH4 0x27E235E3 EQ PUSH2 0x215 JUMPI JUMPDEST PUSH1 0x0 DUP1 REVERT JUMPDEST CALLVALUE DUP1 ISZERO PUSH2 0x151 JUMPI PUSH1 0x0 DUP1 REVERT JUMPDEST POP PUSH2 0x15A PUSH2 0x593 JUMP JUMPDEST PUSH1 0x40 MLOAD PUSH2 0x167 SWAP2 SWAP1 PUSH2 0x1793 JUMP JUMPDEST PUSH1 0x40 MLOAD DUP1 SWAP2 SUB SWAP1 RETURN JUMPDEST CALLVALUE DUP1 ISZERO PUSH2 0x17C JUMPI PUSH1 0x0 DUP1 REVERT JUMPDEST POP PUSH2 0x197 PUSH1 0x4 DUP1 CALLDATASIZE SUB DUP2 ADD SWAP1 PUSH2 0x192 SWAP2 SWAP1 PUSH2 0x144D JUMP JUMPDEST PUSH2 0x621 JUMP JUMPDEST PUSH1 0x40 MLOAD PUSH2 0x1A4 SWAP2 SWAP1 PUSH2 0x175D JUMP JUMPDEST PUSH1 0x40 MLOAD DUP1 SWAP2 SUB SWAP1 RETURN JUMPDEST CALLVALUE DUP1 ISZERO PUSH2 0x1B9 JUMPI PUSH1 0x0 DUP1 REVERT JUMPDEST POP PUSH2 0x1C2 PUSH2 0x7D8 JUMP JUMPDEST PUSH1 0x40 MLOAD PUSH2 0x1CF SWAP2 SWAP1 PUSH2 0x18B5 JUMP JUMPDEST PUSH1 0x40 MLOAD DUP1 SWAP2 SUB SWAP1 RETURN JUMPDEST CALLVALUE DUP1 ISZERO PUSH2 0x1E4 JUMPI PUSH1 0x0 DUP1 REVERT JUMPDEST POP PUSH2 0x1FF PUSH1 0x4 DUP1 CALLDATASIZE SUB DUP2 ADD SWAP1 PUSH2 0x1FA SWAP2 SWAP1 PUSH2 0x13FA JUMP JUMPDEST PUSH2 0x7DE JUMP JUMPDEST PUSH1 0x40 MLOAD PUSH2 0x20C SWAP2 SWAP1 PUSH2 0x175D JUMP JUMPDEST PUSH1 0x40 MLOAD DUP1 SWAP2 SUB SWAP1 RETURN JUMPDEST CALLVALUE DUP1 ISZERO PUSH2 0x221 JUMPI PUSH1 0x0 DUP1 REVERT JUMPDEST POP PUSH2 0x23C PUSH1 0x4 DUP1 CALLDATASIZE SUB DUP2 ADD SWAP1 PUSH2 0x237 SWAP2 SWAP1 PUSH2 0x138D JUMP JUMPDEST PUSH2 0xB13 JUMP JUMPDEST PUSH1 0x40 MLOAD PUSH2 0x249 SWAP2 SWAP1 PUSH2 0x18B5 JUMP JUMPDEST PUSH1 0x40 MLOAD DUP1 SWAP2 SUB SWAP1 RETURN JUMPDEST CALLVALUE DUP1 ISZERO PUSH2 0x25E JUMPI PUSH1 0x0 DUP1 REVERT JUMPDEST POP PUSH2 0x267 PUSH2 0xB2B JUMP JUMPDEST PUSH1 0x40 MLOAD PUSH2 0x274 SWAP2 SWAP1 PUSH2 0x1742 JUMP JUMPDEST PUSH1 0x40 MLOAD DUP1 SWAP2 SUB SWAP1 RETURN JUMPDEST CALLVALUE DUP1 ISZERO PUSH2 0x289 JUMPI PUSH1 0x0 DUP1 REVERT JUMPDEST POP PUSH2 0x292 PUSH2 0xB51 JUMP JUMPDEST PUSH1 0x40 MLOAD PUSH2 0x29F SWAP2 SWAP1 PUSH2 0x1778 JUMP JUMPDEST PUSH1 0x40 MLOAD DUP1 SWAP2 SUB SWAP1 RETURN JUMPDEST CALLVALUE DUP1 ISZERO PUSH2 0x2B4 JUMPI PUSH1 0x0 DUP1 REVERT JUMPDEST POP PUSH2 0x2BD PUSH2 0xBDA JUMP JUMPDEST PUSH1 0x40 MLOAD PUSH2 0x2CA SWAP2 SWAP1 PUSH2 0x18B5 JUMP JUMPDEST PUSH1 0x40 MLOAD DUP1 SWAP2 SUB SWAP1 RETURN JUMPDEST CALLVALUE DUP1 ISZERO PUSH2 0x2DF JUMPI PUSH1 0x0 DUP1 REVERT JUMPDEST POP PUSH2 0x2E8 PUSH2 0xBE0 JUMP JUMPDEST PUSH1 0x40 MLOAD PUSH2 0x2F5 SWAP2 SWAP1 PUSH2 0x18B5 JUMP JUMPDEST PUSH1 0x40 MLOAD DUP1 SWAP2 SUB SWAP1 RETURN JUMPDEST CALLVALUE DUP1 ISZERO PUSH2 0x30A JUMPI PUSH1 0x0 DUP1 REVERT JUMPDEST POP PUSH2 0x313 PUSH2 0xBE6 JUMP JUMPDEST PUSH1 0x40 MLOAD PUSH2 0x320 SWAP2 SWAP1 PUSH2 0x1778 JUMP JUMPDEST PUSH1 0x40 MLOAD DUP1 SWAP2 SUB SWAP1 RETURN JUMPDEST CALLVALUE DUP1 ISZERO PUSH2 0x335 JUMPI PUSH1 0x0 DUP1 REVERT JUMPDEST POP PUSH2 0x33E PUSH2 0xBF9 JUMP JUMPDEST PUSH1 0x40 MLOAD PUSH2 0x34B SWAP2 SWAP1 PUSH2 0x1727 JUMP JUMPDEST PUSH1 0x40 MLOAD DUP1 SWAP2 SUB SWAP1 RETURN JUMPDEST CALLVALUE DUP1 ISZERO PUSH2 0x360 JUMPI PUSH1 0x0 DUP1 REVERT JUMPDEST POP PUSH2 0x37B PUSH1 0x4 DUP1 CALLDATASIZE SUB DUP2 ADD SWAP1 PUSH2 0x376 SWAP2 SWAP1 PUSH2 0x13BA JUMP JUMPDEST PUSH2 0xC1F JUMP JUMPDEST PUSH1 0x40 MLOAD PUSH2 0x388 SWAP2 SWAP1 PUSH2 0x18B5 JUMP JUMPDEST PUSH1 0x40 MLOAD DUP1 SWAP2 SUB SWAP1 RETURN JUMPDEST CALLVALUE DUP1 ISZERO PUSH2 0x39D JUMPI PUSH1 0x0 DUP1 REVERT JUMPDEST POP PUSH2 0x3B8 PUSH1 0x4 DUP1 CALLDATASIZE SUB DUP2 ADD SWAP1 PUSH2 0x3B3 SWAP2 SWAP1 PUSH2 0x138D JUMP JUMPDEST PUSH2 0xC44 JUMP JUMPDEST PUSH1 0x40 MLOAD PUSH2 0x3C5 SWAP2 SWAP1 PUSH2 0x18B5 JUMP JUMPDEST PUSH1 0x40 MLOAD DUP1 SWAP2 SUB SWAP1 RETURN JUMPDEST CALLVALUE DUP1 ISZERO PUSH2 0x3DA JUMPI PUSH1 0x0 DUP1 REVERT JUMPDEST POP PUSH2 0x3E3 PUSH2 0xC8D JUMP JUMPDEST PUSH1 0x40 MLOAD PUSH2 0x3F0 SWAP2 SWAP1 PUSH2 0x18B5 JUMP JUMPDEST PUSH1 0x40 MLOAD DUP1 SWAP2 SUB SWAP1 RETURN JUMPDEST CALLVALUE DUP1 ISZERO PUSH2 0x405 JUMPI PUSH1 0x0 DUP1 REVERT JUMPDEST POP PUSH2 0x40E PUSH2 0xC93 JUMP JUMPDEST PUSH1 0x40 MLOAD PUSH2 0x41B SWAP2 SWAP1 PUSH2 0x1793 JUMP JUMPDEST PUSH1 0x40 MLOAD DUP1 SWAP2 SUB SWAP1 RETURN JUMPDEST CALLVALUE DUP1 ISZERO PUSH2 0x430 JUMPI PUSH1 0x0 DUP1 REVERT JUMPDEST POP PUSH2 0x44B PUSH1 0x4 DUP1 CALLDATASIZE SUB DUP2 ADD SWAP1 PUSH2 0x446 SWAP2 SWAP1 PUSH2 0x144D JUMP JUMPDEST PUSH2 0xD21 JUMP JUMPDEST PUSH1 0x40 MLOAD PUSH2 0x458 SWAP2 SWAP1 PUSH2 0x175D JUMP JUMPDEST PUSH1 0x40 MLOAD DUP1 SWAP2 SUB SWAP1 RETURN JUMPDEST CALLVALUE DUP1 ISZERO PUSH2 0x46D JUMPI PUSH1 0x0 DUP1 REVERT JUMPDEST POP PUSH2 0x476 PUSH2 0xEC0 JUMP JUMPDEST PUSH1 0x40 MLOAD PUSH2 0x483 SWAP2 SWAP1 PUSH2 0x18B5 JUMP JUMPDEST PUSH1 0x40 MLOAD DUP1 SWAP2 SUB SWAP1 RETURN JUMPDEST CALLVALUE DUP1 ISZERO PUSH2 0x498 JUMPI PUSH1 0x0 DUP1 REVERT JUMPDEST POP PUSH2 0x4A1 PUSH2 0xEC6 JUMP JUMPDEST PUSH1 0x40 MLOAD PUSH2 0x4AE SWAP2 SWAP1 PUSH2 0x18B5 JUMP JUMPDEST PUSH1 0x40 MLOAD DUP1 SWAP2 SUB SWAP1 RETURN JUMPDEST CALLVALUE DUP1 ISZERO PUSH2 0x4C3 JUMPI PUSH1 0x0 DUP1 REVERT JUMPDEST POP PUSH2 0x4CC PUSH2 0xECC JUMP JUMPDEST PUSH1 0x40 MLOAD PUSH2 0x4D9 SWAP2 SWAP1 PUSH2 0x18B5 JUMP JUMPDEST PUSH1 0x40 MLOAD DUP1 SWAP2 SUB SWAP1 RETURN JUMPDEST CALLVALUE DUP1 ISZERO PUSH2 0x4EE JUMPI PUSH1 0x0 DUP1 REVERT JUMPDEST POP PUSH2 0x509 PUSH1 0x4 DUP1 CALLDATASIZE SUB DUP2 ADD SWAP1 PUSH2 0x504 SWAP2 SWAP1 PUSH2 0x13BA JUMP JUMPDEST PUSH2 0xED2 JUMP JUMPDEST PUSH1 0x40 MLOAD PUSH2 0x516 SWAP2 SWAP1 PUSH2 0x18B5 JUMP JUMPDEST PUSH1 0x40 MLOAD DUP1 SWAP2 SUB SWAP1 RETURN JUMPDEST PUSH2 0x527 PUSH2 0xF59 JUMP JUMPDEST PUSH1 0x40 MLOAD PUSH2 0x534 SWAP2 SWAP1 PUSH2 0x175D JUMP JUMPDEST PUSH1 0x40 MLOAD DUP1 SWAP2 SUB SWAP1 RETURN JUMPDEST CALLVALUE DUP1 ISZERO PUSH2 0x549 JUMPI PUSH1 0x0 DUP1 REVERT JUMPDEST POP PUSH2 0x552 PUSH2 0x1337 JUMP JUMPDEST PUSH1 0x40 MLOAD PUSH2 0x55F SWAP2 SWAP1 PUSH2 0x1727 JUMP JUMPDEST PUSH1 0x40 MLOAD DUP1 SWAP2 SUB SWAP1 RETURN JUMPDEST CALLVALUE DUP1 ISZERO PUSH2 0x574 JUMPI PUSH1 0x0 DUP1 REVERT JUMPDEST POP PUSH2 0x57D PUSH2 0x135D JUMP JUMPDEST PUSH1 0x40 MLOAD PUSH2 0x58A SWAP2 SWAP1 PUSH2 0x18B5 JUMP JUMPDEST PUSH1 0x40 MLOAD DUP1 SWAP2 SUB SWAP1 RETURN JUMPDEST PUSH1 0x0 DUP1 SLOAD PUSH2 0x5A0 SWAP1 PUSH2 0x1A33 JUMP JUMPDEST DUP1 PUSH1 0x1F ADD PUSH1 0x20 DUP1 SWAP2 DIV MUL PUSH1 0x20 ADD PUSH1 0x40 MLOAD SWAP1 DUP2 ADD PUSH1 0x40 MSTORE DUP1 SWAP3 SWAP2 SWAP1 DUP2 DUP2 MSTORE PUSH1 0x20 ADD DUP3 DUP1 SLOAD PUSH2 0x5CC SWAP1 PUSH2 0x1A33 JUMP JUMPDEST DUP1 ISZERO PUSH2 0x619 JUMPI DUP1 PUSH1 0x1F LT PUSH2 0x5EE JUMPI PUSH2 0x100 DUP1 DUP4 SLOAD DIV MUL DUP4 MSTORE SWAP2 PUSH1 0x20 ADD SWAP2 PUSH2 0x619 JUMP JUMPDEST DUP3 ADD SWAP2 SWAP1 PUSH1 0x0 MSTORE PUSH1 0x20 PUSH1 0x0 KECCAK256 SWAP1 JUMPDEST DUP2 SLOAD DUP2 MSTORE SWAP1 PUSH1 0x1 ADD SWAP1 PUSH1 0x20 ADD DUP1 DUP4 GT PUSH2 0x5FC JUMPI DUP3 SWAP1 SUB PUSH1 0x1F AND DUP3 ADD SWAP2 JUMPDEST POP POP POP POP POP DUP2 JUMP JUMPDEST PUSH1 0x0 DUP2 PUSH1 0x5 PUSH1 0x0 CALLER PUSH20 0xFFFFFFFFFFFFFFFFFFFFFFFFFFFFFFFFFFFFFFFF AND PUSH20 0xFFFFFFFFFFFFFFFFFFFFFFFFFFFFFFFFFFFFFFFF AND DUP2 MSTORE PUSH1 0x20 ADD SWAP1 DUP2 MSTORE PUSH1 0x20 ADD PUSH1 0x0 KECCAK256 SLOAD LT ISZERO PUSH2 0x6A5 JUMPI PUSH1 0x40 MLOAD PUSH32 0x8C379A000000000000000000000000000000000000000000000000000000000 DUP2 MSTORE PUSH1 0x4 ADD PUSH2 0x69C SWAP1 PUSH2 0x1835 JUMP JUMPDEST PUSH1 0x40 MLOAD DUP1 SWAP2 SUB SWAP1 REVERT JUMPDEST PUSH1 0x0 DUP3 GT PUSH2 0x6E8 JUMPI PUSH1 0x40 MLOAD PUSH32 0x8C379A000000000000000000000000000000000000000000000000000000000 DUP2 MSTORE PUSH1 0x4 ADD PUSH2 0x6DF SWAP1 PUSH2 0x17D5 JUMP JUMPDEST PUSH1 0x40 MLOAD DUP1 SWAP2 SUB SWAP1 REVERT JUMPDEST DUP2 PUSH1 0x6 PUSH1 0x0 CALLER PUSH20 0xFFFFFFFFFFFFFFFFFFFFFFFFFFFFFFFFFFFFFFFF AND PUSH20 0xFFFFFFFFFFFFFFFFFFFFFFFFFFFFFFFFFFFFFFFF AND DUP2 MSTORE PUSH1 0x20 ADD SWAP1 DUP2 MSTORE PUSH1 0x20 ADD PUSH1 0x0 KECCAK256 PUSH1 0x0 DUP6 PUSH20 0xFFFFFFFFFFFFFFFFFFFFFFFFFFFFFFFFFFFFFFFF AND PUSH20 0xFFFFFFFFFFFFFFFFFFFFFFFFFFFFFFFFFFFFFFFF AND DUP2 MSTORE PUSH1 0x20 ADD SWAP1 DUP2 MSTORE PUSH1 0x20 ADD PUSH1 0x0 KECCAK256 DUP2 SWAP1 SSTORE POP DUP3 PUSH20 0xFFFFFFFFFFFFFFFFFFFFFFFFFFFFFFFFFFFFFFFF AND CALLER PUSH20 0xFFFFFFFFFFFFFFFFFFFFFFFFFFFFFFFFFFFFFFFF AND PUSH32 0x8C5BE1E5EBEC7D5BD14F71427D1E84F3DD0314C0F7B2291E5B200AC8C7C3B925 DUP5 PUSH1 0x40 MLOAD PUSH2 0x7C6 SWAP2 SWAP1 PUSH2 0x18B5 JUMP JUMPDEST PUSH1 0x40 MLOAD DUP1 SWAP2 SUB SWAP1 LOG3 PUSH1 0x1 SWAP1 POP SWAP3 SWAP2 POP POP JUMP JUMPDEST PUSH1 0x4 SLOAD DUP2 JUMP JUMPDEST PUSH1 0x0 DUP2 PUSH1 0x6 PUSH1 0x0 DUP7 PUSH20 0xFFFFFFFFFFFFFFFFFFFFFFFFFFFFFFFFFFFFFFFF AND PUSH20 0xFFFFFFFFFFFFFFFFFFFFFFFFFFFFFFFFFFFFFFFF AND DUP2 MSTORE PUSH1 0x20 ADD SWAP1 DUP2 MSTORE PUSH1 0x20 ADD PUSH1 0x0 KECCAK256 PUSH1 0x0 CALLER PUSH20 0xFFFFFFFFFFFFFFFFFFFFFFFFFFFFFFFFFFFFFFFF AND PUSH20 0xFFFFFFFFFFFFFFFFFFFFFFFFFFFFFFFFFFFFFFFF AND DUP2 MSTORE PUSH1 0x20 ADD SWAP1 DUP2 MSTORE PUSH1 0x20 ADD PUSH1 0x0 KECCAK256 SLOAD LT ISZERO PUSH2 0x89F JUMPI PUSH1 0x40 MLOAD PUSH32 0x8C379A000000000000000000000000000000000000000000000000000000000 DUP2 MSTORE PUSH1 0x4 ADD PUSH2 0x896 SWAP1 PUSH2 0x17B5 JUMP JUMPDEST PUSH1 0x40 MLOAD DUP1 SWAP2 SUB SWAP1 REVERT JUMPDEST DUP2 PUSH1 0x5 PUSH1 0x0 DUP7 PUSH20 0xFFFFFFFFFFFFFFFFFFFFFFFFFFFFFFFFFFFFFFFF AND PUSH20 0xFFFFFFFFFFFFFFFFFFFFFFFFFFFFFFFFFFFFFFFF AND DUP2 MSTORE PUSH1 0x20 ADD SWAP1 DUP2 MSTORE PUSH1 0x20 ADD PUSH1 0x0 KECCAK256 SLOAD LT ISZERO PUSH2 0x921 JUMPI PUSH1 0x40 MLOAD PUSH32 0x8C379A000000000000000000000000000000000000000000000000000000000 DUP2 MSTORE PUSH1 0x4 ADD PUSH2 0x918 SWAP1 PUSH2 0x1895 JUMP JUMPDEST PUSH1 0x40 MLOAD DUP1 SWAP2 SUB SWAP1 REVERT JUMPDEST PUSH1 0x0 DUP3 GT PUSH2 0x964 JUMPI PUSH1 0x40 MLOAD PUSH32 0x8C379A000000000000000000000000000000000000000000000000000000000 DUP2 MSTORE PUSH1 0x4 ADD PUSH2 0x95B SWAP1 PUSH2 0x17D5 JUMP JUMPDEST PUSH1 0x40 MLOAD DUP1 SWAP2 SUB SWAP1 REVERT JUMPDEST DUP2 PUSH1 0x6 PUSH1 0x0 DUP7 PUSH20 0xFFFFFFFFFFFFFFFFFFFFFFFFFFFFFFFFFFFFFFFF AND PUSH20 0xFFFFFFFFFFFFFFFFFFFFFFFFFFFFFFFFFFFFFFFF AND DUP2 MSTORE PUSH1 0x20 ADD SWAP1 DUP2 MSTORE PUSH1 0x20 ADD PUSH1 0x0 KECCAK256 PUSH1 0x0 CALLER PUSH20 0xFFFFFFFFFFFFFFFFFFFFFFFFFFFFFFFFFFFFFFFF AND PUSH20 0xFFFFFFFFFFFFFFFFFFFFFFFFFFFFFFFFFFFFFFFF AND DUP2 MSTORE PUSH1 0x20 ADD SWAP1 DUP2 MSTORE PUSH1 0x20 ADD PUSH1 0x0 KECCAK256 PUSH1 0x0 DUP3 DUP3 SLOAD PUSH2 0x9F0 SWAP2 SWAP1 PUSH2 0x194D JUMP JUMPDEST SWAP3 POP POP DUP2 SWAP1 SSTORE POP DUP2 PUSH1 0x5 PUSH1 0x0 DUP7 PUSH20 0xFFFFFFFFFFFFFFFFFFFFFFFFFFFFFFFFFFFFFFFF AND PUSH20 0xFFFFFFFFFFFFFFFFFFFFFFFFFFFFFFFFFFFFFFFF AND DUP2 MSTORE PUSH1 0x20 ADD SWAP1 DUP2 MSTORE PUSH1 0x20 ADD PUSH1 0x0 KECCAK256 PUSH1 0x0 DUP3 DUP3 SLOAD PUSH2 0xA46 SWAP2 SWAP1 PUSH2 0x194D JUMP JUMPDEST SWAP3 POP POP DUP2 SWAP1 SSTORE POP DUP2 PUSH1 0x5 PUSH1 0x0 DUP6 PUSH20 0xFFFFFFFFFFFFFFFFFFFFFFFFFFFFFFFFFFFFFFFF AND PUSH20 0xFFFFFFFFFFFFFFFFFFFFFFFFFFFFFFFFFFFFFFFF AND DUP2 MSTORE PUSH1 0x20 ADD SWAP1 DUP2 MSTORE PUSH1 0x20 ADD PUSH1 0x0 KECCAK256 PUSH1 0x0 DUP3 DUP3 SLOAD PUSH2 0xA9C SWAP2 SWAP1 PUSH2 0x18F7 JUMP JUMPDEST SWAP3 POP POP DUP2 SWAP1 SSTORE POP DUP3 PUSH20 0xFFFFFFFFFFFFFFFFFFFFFFFFFFFFFFFFFFFFFFFF AND DUP5 PUSH20 0xFFFFFFFFFFFFFFFFFFFFFFFFFFFFFFFFFFFFFFFF AND PUSH32 0xDDF252AD1BE2C89B69C2B068FC378DAA952BA7F163C4A11628F55A4DF523B3EF DUP5 PUSH1 0x40 MLOAD PUSH2 0xB00 SWAP2 SWAP1 PUSH2 0x18B5 JUMP JUMPDEST PUSH1 0x40 MLOAD DUP1 SWAP2 SUB SWAP1 LOG3 PUSH1 0x1 SWAP1 POP SWAP4 SWAP3 POP POP POP JUMP JUMPDEST PUSH1 0x5 PUSH1 0x20 MSTORE DUP1 PUSH1 0x0 MSTORE PUSH1 0x40 PUSH1 0x0 KECCAK256 PUSH1 0x0 SWAP2 POP SWAP1 POP SLOAD DUP2 JUMP JUMPDEST PUSH1 0xE PUSH1 0x1 SWAP1 SLOAD SWAP1 PUSH2 0x100 EXP SWAP1 DIV PUSH20 0xFFFFFFFFFFFFFFFFFFFFFFFFFFFFFFFFFFFFFFFF AND DUP2 JUMP JUMPDEST PUSH1 0x0 DUP1 PUSH1 0x4 DUP1 DUP2 GT ISZERO PUSH2 0xB67 JUMPI PUSH2 0xB66 PUSH2 0x1A9E JUMP JUMPDEST JUMPDEST PUSH1 0xE PUSH1 0x0 SWAP1 SLOAD SWAP1 PUSH2 0x100 EXP SWAP1 DIV PUSH1 0xFF AND PUSH1 0x4 DUP2 GT ISZERO PUSH2 0xB89 JUMPI PUSH2 0xB88 PUSH2 0x1A9E JUMP JUMPDEST JUMPDEST EQ ISZERO PUSH2 0xB98 JUMPI PUSH1 0x4 SWAP1 POP PUSH2 0xBD3 JUMP JUMPDEST PUSH1 0xA SLOAD TIMESTAMP LT ISZERO PUSH2 0xBAB JUMPI PUSH1 0x0 SWAP1 POP PUSH2 0xBD2 JUMP JUMPDEST PUSH1 0xA SLOAD TIMESTAMP LT ISZERO DUP1 ISZERO PUSH2 0xBBE JUMPI POP PUSH1 0xB SLOAD TIMESTAMP LT JUMPDEST ISZERO PUSH2 0xBCC JUMPI PUSH1 0x1 SWAP1 POP PUSH2 0xBD1 JUMP JUMPDEST PUSH1 0x3 SWAP1 POP JUMPDEST JUMPDEST JUMPDEST DUP1 SWAP2 POP POP SWAP1 JUMP JUMPDEST PUSH1 0x2 SLOAD DUP2 JUMP JUMPDEST PUSH1 0xB SLOAD DUP2 JUMP JUMPDEST PUSH1 0xE PUSH1 0x0 SWAP1 SLOAD SWAP1 PUSH2 0x100 EXP SWAP1 DIV PUSH1 0xFF AND DUP2 JUMP JUMPDEST PUSH1 0x3 PUSH1 0x0 SWAP1 SLOAD SWAP1 PUSH2 0x100 EXP SWAP1 DIV PUSH20 0xFFFFFFFFFFFFFFFFFFFFFFFFFFFFFFFFFFFFFFFF AND DUP2 JUMP JUMPDEST PUSH1 0x6 PUSH1 0x20 MSTORE DUP2 PUSH1 0x0 MSTORE PUSH1 0x40 PUSH1 0x0 KECCAK256 PUSH1 0x20 MSTORE DUP1 PUSH1 0x0 MSTORE PUSH1 0x40 PUSH1 0x0 KECCAK256 PUSH1 0x0 SWAP2 POP SWAP2 POP POP SLOAD DUP2 JUMP JUMPDEST PUSH1 0x0 PUSH1 0x5 PUSH1 0x0 DUP4 PUSH20 0xFFFFFFFFFFFFFFFFFFFFFFFFFFFFFFFFFFFFFFFF AND PUSH20 0xFFFFFFFFFFFFFFFFFFFFFFFFFFFFFFFFFFFFFFFF AND DUP2 MSTORE PUSH1 0x20 ADD SWAP1 DUP2 MSTORE PUSH1 0x20 ADD PUSH1 0x0 KECCAK256 SLOAD SWAP1 POP SWAP2 SWAP1 POP JUMP JUMPDEST PUSH1 0xA SLOAD DUP2 JUMP JUMPDEST PUSH1 0x1 DUP1 SLOAD PUSH2 0xCA0 SWAP1 PUSH2 0x1A33 JUMP JUMPDEST DUP1 PUSH1 0x1F ADD PUSH1 0x20 DUP1 SWAP2 DIV MUL PUSH1 0x20 ADD PUSH1 0x40 MLOAD SWAP1 DUP2 ADD PUSH1 0x40 MSTORE DUP1 SWAP3 SWAP2 SWAP1 DUP2 DUP2 MSTORE PUSH1 0x20 ADD DUP3 DUP1 SLOAD PUSH2 0xCCC SWAP1 PUSH2 0x1A33 JUMP JUMPDEST DUP1 ISZERO PUSH2 0xD19 JUMPI DUP1 PUSH1 0x1F LT PUSH2 0xCEE JUMPI PUSH2 0x100 DUP1 DUP4 SLOAD DIV MUL DUP4 MSTORE SWAP2 PUSH1 0x20 ADD SWAP2 PUSH2 0xD19 JUMP JUMPDEST DUP3 ADD SWAP2 SWAP1 PUSH1 0x0 MSTORE PUSH1 0x20 PUSH1 0x0 KECCAK256 SWAP1 JUMPDEST DUP2 SLOAD DUP2 MSTORE SWAP1 PUSH1 0x1 ADD SWAP1 PUSH1 0x20 ADD DUP1 DUP4 GT PUSH2 0xCFC JUMPI DUP3 SWAP1 SUB PUSH1 0x1F AND DUP3 ADD SWAP2 JUMPDEST POP POP POP POP POP DUP2 JUMP JUMPDEST PUSH1 0x0 DUP2 PUSH1 0x5 PUSH1 0x0 CALLER PUSH20 0xFFFFFFFFFFFFFFFFFFFFFFFFFFFFFFFFFFFFFFFF AND PUSH20 0xFFFFFFFFFFFFFFFFFFFFFFFFFFFFFFFFFFFFFFFF AND DUP2 MSTORE PUSH1 0x20 ADD SWAP1 DUP2 MSTORE PUSH1 0x20 ADD PUSH1 0x0 KECCAK256 SLOAD LT ISZERO PUSH2 0xDA5 JUMPI PUSH1 0x40 MLOAD PUSH32 0x8C379A000000000000000000000000000000000000000000000000000000000 DUP2 MSTORE PUSH1 0x4 ADD PUSH2 0xD9C SWAP1 PUSH2 0x1875 JUMP JUMPDEST PUSH1 0x40 MLOAD DUP1 SWAP2 SUB SWAP1 REVERT JUMPDEST DUP2 PUSH1 0x5 PUSH1 0x0 DUP6 PUSH20 0xFFFFFFFFFFFFFFFFFFFFFFFFFFFFFFFFFFFFFFFF AND PUSH20 0xFFFFFFFFFFFFFFFFFFFFFFFFFFFFFFFFFFFFFFFF AND DUP2 MSTORE PUSH1 0x20 ADD SWAP1 DUP2 MSTORE PUSH1 0x20 ADD PUSH1 0x0 KECCAK256 PUSH1 0x0 DUP3 DUP3 SLOAD PUSH2 0xDF4 SWAP2 SWAP1 PUSH2 0x18F7 JUMP JUMPDEST SWAP3 POP POP DUP2 SWAP1 SSTORE POP DUP2 PUSH1 0x5 PUSH1 0x0 CALLER PUSH20 0xFFFFFFFFFFFFFFFFFFFFFFFFFFFFFFFFFFFFFFFF AND PUSH20 0xFFFFFFFFFFFFFFFFFFFFFFFFFFFFFFFFFFFFFFFF AND DUP2 MSTORE PUSH1 0x20 ADD SWAP1 DUP2 MSTORE PUSH1 0x20 ADD PUSH1 0x0 KECCAK256 PUSH1 0x0 DUP3 DUP3 SLOAD PUSH2 0xE4A SWAP2 SWAP1 PUSH2 0x194D JUMP JUMPDEST SWAP3 POP POP DUP2 SWAP1 SSTORE POP DUP3 PUSH20 0xFFFFFFFFFFFFFFFFFFFFFFFFFFFFFFFFFFFFFFFF AND CALLER PUSH20 0xFFFFFFFFFFFFFFFFFFFFFFFFFFFFFFFFFFFFFFFF AND PUSH32 0xDDF252AD1BE2C89B69C2B068FC378DAA952BA7F163C4A11628F55A4DF523B3EF DUP5 PUSH1 0x40 MLOAD PUSH2 0xEAE SWAP2 SWAP1 PUSH2 0x18B5 JUMP JUMPDEST PUSH1 0x40 MLOAD DUP1 SWAP2 SUB SWAP1 LOG3 PUSH1 0x1 SWAP1 POP SWAP3 SWAP2 POP POP JUMP JUMPDEST PUSH1 0xD SLOAD DUP2 JUMP JUMPDEST PUSH1 0xC SLOAD DUP2 JUMP JUMPDEST PUSH1 0x8 SLOAD DUP2 JUMP JUMPDEST PUSH1 0x0 PUSH1 0x6 PUSH1 0x0 DUP5 PUSH20 0xFFFFFFFFFFFFFFFFFFFFFFFFFFFFFFFFFFFFFFFF AND PUSH20 0xFFFFFFFFFFFFFFFFFFFFFFFFFFFFFFFFFFFFFFFF AND DUP2 MSTORE PUSH1 0x20 ADD SWAP1 DUP2 MSTORE PUSH1 0x20 ADD PUSH1 0x0 KECCAK256 PUSH1 0x0 DUP4 PUSH20 0xFFFFFFFFFFFFFFFFFFFFFFFFFFFFFFFFFFFFFFFF AND PUSH20 0xFFFFFFFFFFFFFFFFFFFFFFFFFFFFFFFFFFFFFFFF AND DUP2 MSTORE PUSH1 0x20 ADD SWAP1 DUP2 MSTORE PUSH1 0x20 ADD PUSH1 0x0 KECCAK256 SLOAD SWAP1 POP SWAP3 SWAP2 POP POP JUMP JUMPDEST PUSH1 0x0 PUSH1 0x7 PUSH1 0x0 SWAP1 SLOAD SWAP1 PUSH2 0x100 EXP SWAP1 DIV PUSH20 0xFFFFFFFFFFFFFFFFFFFFFFFFFFFFFFFFFFFFFFFF AND PUSH20 0xFFFFFFFFFFFFFFFFFFFFFFFFFFFFFFFFFFFFFFFF AND CALLER PUSH20 0xFFFFFFFFFFFFFFFFFFFFFFFFFFFFFFFFFFFFFFFF AND EQ PUSH2 0xFEB JUMPI PUSH1 0x40 MLOAD PUSH32 0x8C379A000000000000000000000000000000000000000000000000000000000 DUP2 MSTORE PUSH1 0x4 ADD PUSH2 0xFE2 SWAP1 PUSH2 0x1815 JUMP JUMPDEST PUSH1 0x40 MLOAD DUP1 SWAP2 SUB SWAP1 REVERT JUMPDEST PUSH2 0xFF3 PUSH2 0xB51 JUMP JUMPDEST PUSH1 0xE PUSH1 0x0 PUSH2 0x100 EXP DUP2 SLOAD DUP2 PUSH1 0xFF MUL NOT AND SWAP1 DUP4 PUSH1 0x4 DUP2 GT ISZERO PUSH2 0x1017 JUMPI PUSH2 0x1016 PUSH2 0x1A9E JUMP JUMPDEST JUMPDEST MUL OR SWAP1 SSTORE POP PUSH1 0x1 PUSH1 0x4 DUP2 GT ISZERO PUSH2 0x1030 JUMPI PUSH2 0x102F PUSH2 0x1A9E JUMP JUMPDEST JUMPDEST PUSH1 0xE PUSH1 0x0 SWAP1 SLOAD SWAP1 PUSH2 0x100 EXP SWAP1 DIV PUSH1 0xFF AND PUSH1 0x4 DUP2 GT ISZERO PUSH2 0x1052 JUMPI PUSH2 0x1051 PUSH2 0x1A9E JUMP JUMPDEST JUMPDEST EQ PUSH2 0x1092 JUMPI PUSH1 0x40 MLOAD PUSH32 0x8C379A000000000000000000000000000000000000000000000000000000000 DUP2 MSTORE PUSH1 0x4 ADD PUSH2 0x1089 SWAP1 PUSH2 0x17F5 JUMP JUMPDEST PUSH1 0x40 MLOAD DUP1 SWAP2 SUB SWAP1 REVERT JUMPDEST PUSH1 0x0 CALLVALUE GT PUSH2 0x10D5 JUMPI PUSH1 0x40 MLOAD PUSH32 0x8C379A000000000000000000000000000000000000000000000000000000000 DUP2 MSTORE PUSH1 0x4 ADD PUSH2 0x10CC SWAP1 PUSH2 0x17F5 JUMP JUMPDEST PUSH1 0x40 MLOAD DUP1 SWAP2 SUB SWAP1 REVERT JUMPDEST PUSH1 0x0 PUSH1 0xC SLOAD PUSH1 0x40 MLOAD PUSH1 0x20 ADD PUSH2 0x10EA SWAP2 SWAP1 PUSH2 0x16DB JUMP JUMPDEST PUSH1 0x40 MLOAD PUSH1 0x20 DUP2 DUP4 SUB SUB DUP2 MSTORE SWAP1 PUSH1 0x40 MSTORE SWAP1 POP PUSH1 0x0 PUSH1 0xD SLOAD PUSH1 0x40 MLOAD PUSH1 0x20 ADD PUSH2 0x1110 SWAP2 SWAP1 PUSH2 0x1701 JUMP JUMPDEST PUSH1 0x40 MLOAD PUSH1 0x20 DUP2 DUP4 SUB SUB DUP2 MSTORE SWAP1 PUSH1 0x40 MSTORE SWAP1 POP PUSH1 0x0 DUP3 DUP3 PUSH1 0x40 MLOAD PUSH1 0x20 ADD PUSH2 0x1136 SWAP3 SWAP2 SWAP1 PUSH2 0x16B7 JUMP JUMPDEST PUSH1 0x40 MLOAD PUSH1 0x20 DUP2 DUP4 SUB SUB DUP2 MSTORE SWAP1 PUSH1 0x40 MSTORE SWAP1 POP PUSH1 0xC SLOAD CALLVALUE LT ISZERO DUP1 ISZERO PUSH2 0x115B JUMPI POP PUSH1 0xD SLOAD CALLVALUE GT ISZERO JUMPDEST DUP2 SWAP1 PUSH2 0x119D JUMPI PUSH1 0x40 MLOAD PUSH32 0x8C379A000000000000000000000000000000000000000000000000000000000 DUP2 MSTORE PUSH1 0x4 ADD PUSH2 0x1194 SWAP2 SWAP1 PUSH2 0x1793 JUMP JUMPDEST PUSH1 0x40 MLOAD DUP1 SWAP2 SUB SWAP1 REVERT JUMPDEST POP PUSH1 0x0 CALLVALUE PUSH1 0x8 SLOAD PUSH2 0x11AE SWAP2 SWAP1 PUSH2 0x18F7 JUMP JUMPDEST SWAP1 POP PUSH1 0x9 SLOAD DUP2 GT ISZERO PUSH2 0x11F5 JUMPI PUSH1 0x40 MLOAD PUSH32 0x8C379A000000000000000000000000000000000000000000000000000000000 DUP2 MSTORE PUSH1 0x4 ADD PUSH2 0x11EC SWAP1 PUSH2 0x1855 JUMP JUMPDEST PUSH1 0x40 MLOAD DUP1 SWAP2 SUB SWAP1 REVERT JUMPDEST CALLVALUE PUSH1 0x5 PUSH1 0x0 CALLER PUSH20 0xFFFFFFFFFFFFFFFFFFFFFFFFFFFFFFFFFFFFFFFF AND PUSH20 0xFFFFFFFFFFFFFFFFFFFFFFFFFFFFFFFFFFFFFFFF AND DUP2 MSTORE PUSH1 0x20 ADD SWAP1 DUP2 MSTORE PUSH1 0x20 ADD PUSH1 0x0 KECCAK256 PUSH1 0x0 DUP3 DUP3 SLOAD PUSH2 0x1244 SWAP2 SWAP1 PUSH2 0x18F7 JUMP JUMPDEST SWAP3 POP POP DUP2 SWAP1 SSTORE POP CALLVALUE PUSH1 0x5 PUSH1 0x0 PUSH1 0x3 PUSH1 0x0 SWAP1 SLOAD SWAP1 PUSH2 0x100 EXP SWAP1 DIV PUSH20 0xFFFFFFFFFFFFFFFFFFFFFFFFFFFFFFFFFFFFFFFF AND PUSH20 0xFFFFFFFFFFFFFFFFFFFFFFFFFFFFFFFFFFFFFFFF AND PUSH20 0xFFFFFFFFFFFFFFFFFFFFFFFFFFFFFFFFFFFFFFFF AND DUP2 MSTORE PUSH1 0x20 ADD SWAP1 DUP2 MSTORE PUSH1 0x20 ADD PUSH1 0x0 KECCAK256 PUSH1 0x0 DUP3 DUP3 SLOAD PUSH2 0x12BC SWAP2 SWAP1 PUSH2 0x194D JUMP JUMPDEST SWAP3 POP POP DUP2 SWAP1 SSTORE POP PUSH1 0xE PUSH1 0x1 SWAP1 SLOAD SWAP1 PUSH2 0x100 EXP SWAP1 DIV PUSH20 0xFFFFFFFFFFFFFFFFFFFFFFFFFFFFFFFFFFFFFFFF AND PUSH20 0xFFFFFFFFFFFFFFFFFFFFFFFFFFFFFFFFFFFFFFFF AND PUSH2 0x8FC CALLVALUE SWAP1 DUP2 ISZERO MUL SWAP1 PUSH1 0x40 MLOAD PUSH1 0x0 PUSH1 0x40 MLOAD DUP1 DUP4 SUB DUP2 DUP6 DUP9 DUP9 CALL SWAP4 POP POP POP POP ISZERO DUP1 ISZERO PUSH2 0x132B JUMPI RETURNDATASIZE PUSH1 0x0 DUP1 RETURNDATACOPY RETURNDATASIZE PUSH1 0x0 REVERT JUMPDEST POP PUSH1 0x1 SWAP5 POP POP POP POP POP SWAP1 JUMP JUMPDEST PUSH1 0x7 PUSH1 0x0 SWAP1 SLOAD SWAP1 PUSH2 0x100 EXP SWAP1 DIV PUSH20 0xFFFFFFFFFFFFFFFFFFFFFFFFFFFFFFFFFFFFFFFF AND DUP2 JUMP JUMPDEST PUSH1 0x9 SLOAD DUP2 JUMP JUMPDEST PUSH1 0x0 DUP2 CALLDATALOAD SWAP1 POP PUSH2 0x1372 DUP2 PUSH2 0x1DA4 JUMP JUMPDEST SWAP3 SWAP2 POP POP JUMP JUMPDEST PUSH1 0x0 DUP2 CALLDATALOAD SWAP1 POP PUSH2 0x1387 DUP2 PUSH2 0x1DBB JUMP JUMPDEST SWAP3 SWAP2 POP POP JUMP JUMPDEST PUSH1 0x0 PUSH1 0x20 DUP3 DUP5 SUB SLT ISZERO PUSH2 0x13A3 JUMPI PUSH2 0x13A2 PUSH2 0x1AFC JUMP JUMPDEST JUMPDEST PUSH1 0x0 PUSH2 0x13B1 DUP5 DUP3 DUP6 ADD PUSH2 0x1363 JUMP JUMPDEST SWAP2 POP POP SWAP3 SWAP2 POP POP JUMP JUMPDEST PUSH1 0x0 DUP1 PUSH1 0x40 DUP4 DUP6 SUB SLT ISZERO PUSH2 0x13D1 JUMPI PUSH2 0x13D0 PUSH2 0x1AFC JUMP JUMPDEST JUMPDEST PUSH1 0x0 PUSH2 0x13DF DUP6 DUP3 DUP7 ADD PUSH2 0x1363 JUMP JUMPDEST SWAP3 POP POP PUSH1 0x20 PUSH2 0x13F0 DUP6 DUP3 DUP7 ADD PUSH2 0x1363 JUMP JUMPDEST SWAP2 POP POP SWAP3 POP SWAP3 SWAP1 POP JUMP JUMPDEST PUSH1 0x0 DUP1 PUSH1 0x0 PUSH1 0x60 DUP5 DUP7 SUB SLT ISZERO PUSH2 0x1413 JUMPI PUSH2 0x1412 PUSH2 0x1AFC JUMP JUMPDEST JUMPDEST PUSH1 0x0 PUSH2 0x1421 DUP7 DUP3 DUP8 ADD PUSH2 0x1363 JUMP JUMPDEST SWAP4 POP POP PUSH1 0x20 PUSH2 0x1432 DUP7 DUP3 DUP8 ADD PUSH2 0x1363 JUMP JUMPDEST SWAP3 POP POP PUSH1 0x40 PUSH2 0x1443 DUP7 DUP3 DUP8 ADD PUSH2 0x1378 JUMP JUMPDEST SWAP2 POP POP SWAP3 POP SWAP3 POP SWAP3 JUMP JUMPDEST PUSH1 0x0 DUP1 PUSH1 0x40 DUP4 DUP6 SUB SLT ISZERO PUSH2 0x1464 JUMPI PUSH2 0x1463 PUSH2 0x1AFC JUMP JUMPDEST JUMPDEST PUSH1 0x0 PUSH2 0x1472 DUP6 DUP3 DUP7 ADD PUSH2 0x1363 JUMP JUMPDEST SWAP3 POP POP PUSH1 0x20 PUSH2 0x1483 DUP6 DUP3 DUP7 ADD PUSH2 0x1378 JUMP JUMPDEST SWAP2 POP POP SWAP3 POP SWAP3 SWAP1 POP JUMP JUMPDEST PUSH2 0x1496 DUP2 PUSH2 0x1993 JUMP JUMPDEST DUP3 MSTORE POP POP JUMP JUMPDEST PUSH2 0x14A5 DUP2 PUSH2 0x1981 JUMP JUMPDEST DUP3 MSTORE POP POP JUMP JUMPDEST PUSH2 0x14B4 DUP2 PUSH2 0x19A5 JUMP JUMPDEST DUP3 MSTORE POP POP JUMP JUMPDEST PUSH2 0x14C3 DUP2 PUSH2 0x19EE JUMP JUMPDEST DUP3 MSTORE POP POP JUMP JUMPDEST PUSH1 0x0 PUSH2 0x14D4 DUP3 PUSH2 0x18D0 JUMP JUMPDEST PUSH2 0x14DE DUP2 DUP6 PUSH2 0x18DB JUMP JUMPDEST SWAP4 POP PUSH2 0x14EE DUP2 DUP6 PUSH1 0x20 DUP7 ADD PUSH2 0x1A00 JUMP JUMPDEST PUSH2 0x14F7 DUP2 PUSH2 0x1B01 JUMP JUMPDEST DUP5 ADD SWAP2 POP POP SWAP3 SWAP2 POP POP JUMP JUMPDEST PUSH1 0x0 PUSH2 0x150D DUP3 PUSH2 0x18D0 JUMP JUMPDEST PUSH2 0x1517 DUP2 DUP6 PUSH2 0x18EC JUMP JUMPDEST SWAP4 POP PUSH2 0x1527 DUP2 DUP6 PUSH1 0x20 DUP7 ADD PUSH2 0x1A00 JUMP JUMPDEST DUP1 DUP5 ADD SWAP2 POP POP SWAP3 SWAP2 POP POP JUMP JUMPDEST PUSH1 0x0 PUSH2 0x1540 PUSH1 0x30 DUP4 PUSH2 0x18DB JUMP JUMPDEST SWAP2 POP PUSH2 0x154B DUP3 PUSH2 0x1B12 JUMP JUMPDEST PUSH1 0x40 DUP3 ADD SWAP1 POP SWAP2 SWAP1 POP JUMP JUMPDEST PUSH1 0x0 PUSH2 0x1563 PUSH1 0x22 DUP4 PUSH2 0x18DB JUMP JUMPDEST SWAP2 POP PUSH2 0x156E DUP3 PUSH2 0x1B61 JUMP JUMPDEST PUSH1 0x40 DUP3 ADD SWAP1 POP SWAP2 SWAP1 POP JUMP JUMPDEST PUSH1 0x0 PUSH2 0x1586 PUSH1 0x20 DUP4 PUSH2 0x18DB JUMP JUMPDEST SWAP2 POP PUSH2 0x1591 DUP3 PUSH2 0x1BB0 JUMP JUMPDEST PUSH1 0x20 DUP3 ADD SWAP1 POP SWAP2 SWAP1 POP JUMP JUMPDEST PUSH1 0x0 PUSH2 0x15A9 PUSH1 0x1F DUP4 PUSH2 0x18EC JUMP JUMPDEST SWAP2 POP PUSH2 0x15B4 DUP3 PUSH2 0x1BD9 JUMP JUMPDEST PUSH1 0x1F DUP3 ADD SWAP1 POP SWAP2 SWAP1 POP JUMP JUMPDEST PUSH1 0x0 PUSH2 0x15CC PUSH1 0x22 DUP4 PUSH2 0x18DB JUMP JUMPDEST SWAP2 POP PUSH2 0x15D7 DUP3 PUSH2 0x1C02 JUMP JUMPDEST PUSH1 0x40 DUP3 ADD SWAP1 POP SWAP2 SWAP1 POP JUMP JUMPDEST PUSH1 0x0 PUSH2 0x15EF PUSH1 0x30 DUP4 PUSH2 0x18DB JUMP JUMPDEST SWAP2 POP PUSH2 0x15FA DUP3 PUSH2 0x1C51 JUMP JUMPDEST PUSH1 0x40 DUP3 ADD SWAP1 POP SWAP2 SWAP1 POP JUMP JUMPDEST PUSH1 0x0 PUSH2 0x1612 PUSH1 0x30 DUP4 PUSH2 0x18DB JUMP JUMPDEST SWAP2 POP PUSH2 0x161D DUP3 PUSH2 0x1CA0 JUMP JUMPDEST PUSH1 0x40 DUP3 ADD SWAP1 POP SWAP2 SWAP1 POP JUMP JUMPDEST PUSH1 0x0 PUSH2 0x1635 PUSH1 0x21 DUP4 PUSH2 0x18EC JUMP JUMPDEST SWAP2 POP PUSH2 0x1640 DUP3 PUSH2 0x1CEF JUMP JUMPDEST PUSH1 0x21 DUP3 ADD SWAP1 POP SWAP2 SWAP1 POP JUMP JUMPDEST PUSH1 0x0 PUSH2 0x1658 PUSH1 0x1C DUP4 PUSH2 0x18DB JUMP JUMPDEST SWAP2 POP PUSH2 0x1663 DUP3 PUSH2 0x1D3E JUMP JUMPDEST PUSH1 0x20 DUP3 ADD SWAP1 POP SWAP2 SWAP1 POP JUMP JUMPDEST PUSH1 0x0 PUSH2 0x167B PUSH1 0x12 DUP4 PUSH2 0x18DB JUMP JUMPDEST SWAP2 POP PUSH2 0x1686 DUP3 PUSH2 0x1D67 JUMP JUMPDEST PUSH1 0x20 DUP3 ADD SWAP1 POP SWAP2 SWAP1 POP JUMP JUMPDEST PUSH2 0x169A DUP2 PUSH2 0x19E4 JUMP JUMPDEST DUP3 MSTORE POP POP JUMP JUMPDEST PUSH2 0x16B1 PUSH2 0x16AC DUP3 PUSH2 0x19E4 JUMP JUMPDEST PUSH2 0x1A65 JUMP JUMPDEST DUP3 MSTORE POP POP JUMP JUMPDEST PUSH1 0x0 PUSH2 0x16C3 DUP3 DUP6 PUSH2 0x1502 JUMP JUMPDEST SWAP2 POP PUSH2 0x16CF DUP3 DUP5 PUSH2 0x1502 JUMP JUMPDEST SWAP2 POP DUP2 SWAP1 POP SWAP4 SWAP3 POP POP POP JUMP JUMPDEST PUSH1 0x0 PUSH2 0x16E6 DUP3 PUSH2 0x159C JUMP JUMPDEST SWAP2 POP PUSH2 0x16F2 DUP3 DUP5 PUSH2 0x16A0 JUMP JUMPDEST PUSH1 0x20 DUP3 ADD SWAP2 POP DUP2 SWAP1 POP SWAP3 SWAP2 POP POP JUMP JUMPDEST PUSH1 0x0 PUSH2 0x170C DUP3 PUSH2 0x1628 JUMP JUMPDEST SWAP2 POP PUSH2 0x1718 DUP3 DUP5 PUSH2 0x16A0 JUMP JUMPDEST PUSH1 0x20 DUP3 ADD SWAP2 POP DUP2 SWAP1 POP SWAP3 SWAP2 POP POP JUMP JUMPDEST PUSH1 0x0 PUSH1 0x20 DUP3 ADD SWAP1 POP PUSH2 0x173C PUSH1 0x0 DUP4 ADD DUP5 PUSH2 0x149C JUMP JUMPDEST SWAP3 SWAP2 POP POP JUMP JUMPDEST PUSH1 0x0 PUSH1 0x20 DUP3 ADD SWAP1 POP PUSH2 0x1757 PUSH1 0x0 DUP4 ADD DUP5 PUSH2 0x148D JUMP JUMPDEST SWAP3 SWAP2 POP POP JUMP JUMPDEST PUSH1 0x0 PUSH1 0x20 DUP3 ADD SWAP1 POP PUSH2 0x1772 PUSH1 0x0 DUP4 ADD DUP5 PUSH2 0x14AB JUMP JUMPDEST SWAP3 SWAP2 POP POP JUMP JUMPDEST PUSH1 0x0 PUSH1 0x20 DUP3 ADD SWAP1 POP PUSH2 0x178D PUSH1 0x0 DUP4 ADD DUP5 PUSH2 0x14BA JUMP JUMPDEST SWAP3 SWAP2 POP POP JUMP JUMPDEST PUSH1 0x0 PUSH1 0x20 DUP3 ADD SWAP1 POP DUP2 DUP2 SUB PUSH1 0x0 DUP4 ADD MSTORE PUSH2 0x17AD DUP2 DUP5 PUSH2 0x14C9 JUMP JUMPDEST SWAP1 POP SWAP3 SWAP2 POP POP JUMP JUMPDEST PUSH1 0x0 PUSH1 0x20 DUP3 ADD SWAP1 POP DUP2 DUP2 SUB PUSH1 0x0 DUP4 ADD MSTORE PUSH2 0x17CE DUP2 PUSH2 0x1533 JUMP JUMPDEST SWAP1 POP SWAP2 SWAP1 POP JUMP JUMPDEST PUSH1 0x0 PUSH1 0x20 DUP3 ADD SWAP1 POP DUP2 DUP2 SUB PUSH1 0x0 DUP4 ADD MSTORE PUSH2 0x17EE DUP2 PUSH2 0x1556 JUMP JUMPDEST SWAP1 POP SWAP2 SWAP1 POP JUMP JUMPDEST PUSH1 0x0 PUSH1 0x20 DUP3 ADD SWAP1 POP DUP2 DUP2 SUB PUSH1 0x0 DUP4 ADD MSTORE PUSH2 0x180E DUP2 PUSH2 0x1579 JUMP JUMPDEST SWAP1 POP SWAP2 SWAP1 POP JUMP JUMPDEST PUSH1 0x0 PUSH1 0x20 DUP3 ADD SWAP1 POP DUP2 DUP2 SUB PUSH1 0x0 DUP4 ADD MSTORE PUSH2 0x182E DUP2 PUSH2 0x15BF JUMP JUMPDEST SWAP1 POP SWAP2 SWAP1 POP JUMP JUMPDEST PUSH1 0x0 PUSH1 0x20 DUP3 ADD SWAP1 POP DUP2 DUP2 SUB PUSH1 0x0 DUP4 ADD MSTORE PUSH2 0x184E DUP2 PUSH2 0x15E2 JUMP JUMPDEST SWAP1 POP SWAP2 SWAP1 POP JUMP JUMPDEST PUSH1 0x0 PUSH1 0x20 DUP3 ADD SWAP1 POP DUP2 DUP2 SUB PUSH1 0x0 DUP4 ADD MSTORE PUSH2 0x186E DUP2 PUSH2 0x1605 JUMP JUMPDEST SWAP1 POP SWAP2 SWAP1 POP JUMP JUMPDEST PUSH1 0x0 PUSH1 0x20 DUP3 ADD SWAP1 POP DUP2 DUP2 SUB PUSH1 0x0 DUP4 ADD MSTORE PUSH2 0x188E DUP2 PUSH2 0x164B JUMP JUMPDEST SWAP1 POP SWAP2 SWAP1 POP JUMP JUMPDEST PUSH1 0x0 PUSH1 0x20 DUP3 ADD SWAP1 POP DUP2 DUP2 SUB PUSH1 0x0 DUP4 ADD MSTORE PUSH2 0x18AE DUP2 PUSH2 0x166E JUMP JUMPDEST SWAP1 POP SWAP2 SWAP1 POP JUMP JUMPDEST PUSH1 0x0 PUSH1 0x20 DUP3 ADD SWAP1 POP PUSH2 0x18CA PUSH1 0x0 DUP4 ADD DUP5 PUSH2 0x1691 JUMP JUMPDEST SWAP3 SWAP2 POP POP JUMP JUMPDEST PUSH1 0x0 DUP2 MLOAD SWAP1 POP SWAP2 SWAP1 POP JUMP JUMPDEST PUSH1 0x0 DUP3 DUP3 MSTORE PUSH1 0x20 DUP3 ADD SWAP1 POP SWAP3 SWAP2 POP POP JUMP JUMPDEST PUSH1 0x0 DUP2 SWAP1 POP SWAP3 SWAP2 POP POP JUMP JUMPDEST PUSH1 0x0 PUSH2 0x1902 DUP3 PUSH2 0x19E4 JUMP JUMPDEST SWAP2 POP PUSH2 0x190D DUP4 PUSH2 0x19E4 JUMP JUMPDEST SWAP3 POP DUP3 PUSH32 0xFFFFFFFFFFFFFFFFFFFFFFFFFFFFFFFFFFFFFFFFFFFFFFFFFFFFFFFFFFFFFFFF SUB DUP3 GT ISZERO PUSH2 0x1942 JUMPI PUSH2 0x1941 PUSH2 0x1A6F JUMP JUMPDEST JUMPDEST DUP3 DUP3 ADD SWAP1 POP SWAP3 SWAP2 POP POP JUMP JUMPDEST PUSH1 0x0 PUSH2 0x1958 DUP3 PUSH2 0x19E4 JUMP JUMPDEST SWAP2 POP PUSH2 0x1963 DUP4 PUSH2 0x19E4 JUMP JUMPDEST SWAP3 POP DUP3 DUP3 LT ISZERO PUSH2 0x1976 JUMPI PUSH2 0x1975 PUSH2 0x1A6F JUMP JUMPDEST JUMPDEST DUP3 DUP3 SUB SWAP1 POP SWAP3 SWAP2 POP POP JUMP JUMPDEST PUSH1 0x0 PUSH2 0x198C DUP3 PUSH2 0x19C4 JUMP JUMPDEST SWAP1 POP SWAP2 SWAP1 POP JUMP JUMPDEST PUSH1 0x0 PUSH2 0x199E DUP3 PUSH2 0x19C4 JUMP JUMPDEST SWAP1 POP SWAP2 SWAP1 POP JUMP JUMPDEST PUSH1 0x0 DUP2 ISZERO ISZERO SWAP1 POP SWAP2 SWAP1 POP JUMP JUMPDEST PUSH1 0x0 DUP2 SWAP1 POP PUSH2 0x19BF DUP3 PUSH2 0x1D90 JUMP JUMPDEST SWAP2 SWAP1 POP JUMP JUMPDEST PUSH1 0x0 PUSH20 0xFFFFFFFFFFFFFFFFFFFFFFFFFFFFFFFFFFFFFFFF DUP3 AND SWAP1 POP SWAP2 SWAP1 POP JUMP JUMPDEST PUSH1 0x0 DUP2 SWAP1 POP SWAP2 SWAP1 POP JUMP JUMPDEST PUSH1 0x0 PUSH2 0x19F9 DUP3 PUSH2 0x19B1 JUMP JUMPDEST SWAP1 POP SWAP2 SWAP1 POP JUMP JUMPDEST PUSH1 0x0 JUMPDEST DUP4 DUP2 LT ISZERO PUSH2 0x1A1E JUMPI DUP1 DUP3 ADD MLOAD DUP2 DUP5 ADD MSTORE PUSH1 0x20 DUP2 ADD SWAP1 POP PUSH2 0x1A03 JUMP JUMPDEST DUP4 DUP2 GT ISZERO PUSH2 0x1A2D JUMPI PUSH1 0x0 DUP5 DUP5 ADD MSTORE JUMPDEST POP POP POP POP JUMP JUMPDEST PUSH1 0x0 PUSH1 0x2 DUP3 DIV SWAP1 POP PUSH1 0x1 DUP3 AND DUP1 PUSH2 0x1A4B JUMPI PUSH1 0x7F DUP3 AND SWAP2 POP JUMPDEST PUSH1 0x20 DUP3 LT DUP2 EQ ISZERO PUSH2 0x1A5F JUMPI PUSH2 0x1A5E PUSH2 0x1ACD JUMP JUMPDEST JUMPDEST POP SWAP2 SWAP1 POP JUMP JUMPDEST PUSH1 0x0 DUP2 SWAP1 POP SWAP2 SWAP1 POP JUMP JUMPDEST PUSH32 0x4E487B7100000000000000000000000000000000000000000000000000000000 PUSH1 0x0 MSTORE PUSH1 0x11 PUSH1 0x4 MSTORE PUSH1 0x24 PUSH1 0x0 REVERT JUMPDEST PUSH32 0x4E487B7100000000000000000000000000000000000000000000000000000000 PUSH1 0x0 MSTORE PUSH1 0x21 PUSH1 0x4 MSTORE PUSH1 0x24 PUSH1 0x0 REVERT JUMPDEST PUSH32 0x4E487B7100000000000000000000000000000000000000000000000000000000 PUSH1 0x0 MSTORE PUSH1 0x22 PUSH1 0x4 MSTORE PUSH1 0x24 PUSH1 0x0 REVERT JUMPDEST PUSH1 0x0 DUP1 REVERT JUMPDEST PUSH1 0x0 PUSH1 0x1F NOT PUSH1 0x1F DUP4 ADD AND SWAP1 POP SWAP2 SWAP1 POP JUMP JUMPDEST PUSH32 0x546F6B656E2076616C75652069732067726561746572207468616E2074686520 PUSH1 0x0 DUP3 ADD MSTORE PUSH32 0x617070726F7665642062616C616E636500000000000000000000000000000000 PUSH1 0x20 DUP3 ADD MSTORE POP JUMP JUMPDEST PUSH32 0x546F6B656E2076616C7565206D7573742062652067726561746572207468616E PUSH1 0x0 DUP3 ADD MSTORE PUSH32 0x2030000000000000000000000000000000000000000000000000000000000000 PUSH1 0x20 DUP3 ADD MSTORE POP JUMP JUMPDEST PUSH32 0x416D6F756E74206D7573742062652067726561746572207468616E207A65726F PUSH1 0x0 DUP3 ADD MSTORE POP JUMP JUMPDEST PUSH32 0x416D6F756E742063616E6E6F74206E6F74206265206C6F776572207468616E00 PUSH1 0x0 DUP3 ADD MSTORE POP JUMP JUMPDEST PUSH32 0x4163636573732064656E6965642C20796F75206165206E6F7420616E2061646D PUSH1 0x0 DUP3 ADD MSTORE PUSH32 0x696E000000000000000000000000000000000000000000000000000000000000 PUSH1 0x20 DUP3 ADD MSTORE POP JUMP JUMPDEST PUSH32 0x546F6B656E2076616C75652069732067726561746572207468616E20796F7572 PUSH1 0x0 DUP3 ADD MSTORE PUSH32 0x2063757272656E7420686F6C64696E6700000000000000000000000000000000 PUSH1 0x20 DUP3 ADD MSTORE POP JUMP JUMPDEST PUSH32 0x546865206D6178696D756D20616D6F756E7420746F2062652072616973656420 PUSH1 0x0 DUP3 ADD MSTORE PUSH32 0x686173206265656E207265616368656400000000000000000000000000000000 PUSH1 0x20 DUP3 ADD MSTORE POP JUMP JUMPDEST PUSH32 0x416D6F756E742063616E6E6F74206E6F74206265206869676768657220746861 PUSH1 0x0 DUP3 ADD MSTORE PUSH32 0x6E00000000000000000000000000000000000000000000000000000000000000 PUSH1 0x20 DUP3 ADD MSTORE POP JUMP JUMPDEST PUSH32 0x496E73756666696369656E74204163636F756E742042616C616E636500000000 PUSH1 0x0 DUP3 ADD MSTORE POP JUMP JUMPDEST PUSH32 0x496E737566696369656E742042616C6E63650000000000000000000000000000 PUSH1 0x0 DUP3 ADD MSTORE POP JUMP JUMPDEST PUSH1 0x5 DUP2 LT PUSH2 0x1DA1 JUMPI PUSH2 0x1DA0 PUSH2 0x1A9E JUMP JUMPDEST JUMPDEST POP JUMP JUMPDEST PUSH2 0x1DAD DUP2 PUSH2 0x1981 JUMP JUMPDEST DUP2 EQ PUSH2 0x1DB8 JUMPI PUSH1 0x0 DUP1 REVERT JUMPDEST POP JUMP JUMPDEST PUSH2 0x1DC4 DUP2 PUSH2 0x19E4 JUMP JUMPDEST DUP2 EQ PUSH2 0x1DCF JUMPI PUSH1 0x0 DUP1 REVERT JUMPDEST POP JUMP INVALID LOG2 PUSH5 0x6970667358 0x22 SLT KECCAK256 JUMPDEST 0x5F 0xED DUP2 0xB5 0xCB 0xB0 PUSH25 0xEE497AA5A0489D76F7FBEC4248B93CB9AF8C9725E25D70964 PUSH20 0x6F6C634300080700330000000000000000000000 "
				},
				"gasEstimates": {
					"creation": {
						"codeDepositCost": "1537600",
						"executionCost": "infinite",
						"totalCost": "infinite"
					},
					"external": {
						"admin()": "2624",
						"allowance(address,address)": "infinite",
						"allowed(address,address)": "infinite",
						"approve(address,uint256)": "infinite",
						"balanceOf(address)": "2886",
						"balances(address)": "2926",
						"checkIcoState()": "9100",
						"decimals()": "2496",
						"depositAddress()": "2587",
						"endTime()": "2518",
						"founder()": "2647",
						"hardCap()": "2561",
						"icoState()": "2671",
						"invest()": "infinite",
						"maximumAmount()": "2562",
						"minimumAmount()": "2451",
						"name()": "infinite",
						"raisedAmount()": "2473",
						"startTime()": "2496",
						"symbol()": "infinite",
						"totalSupply()": "2497",
						"transfer(address,uint256)": "infinite",
						"transferFrom(address,address,uint256)": "infinite"
					}
				},
				"methodIdentifiers": {
					"admin()": "f851a440",
					"allowance(address,address)": "dd62ed3e",
					"allowed(address,address)": "5c658165",
					"approve(address,uint256)": "095ea7b3",
					"balanceOf(address)": "70a08231",
					"balances(address)": "27e235e3",
					"checkIcoState()": "2942b61a",
					"decimals()": "313ce567",
					"depositAddress()": "28f833b7",
					"endTime()": "3197cbb6",
					"founder()": "4d853ee5",
					"hardCap()": "fb86a404",
					"icoState()": "44f38756",
					"invest()": "e8b5e51f",
					"maximumAmount()": "a9bcea61",
					"minimumAmount()": "bb0c8298",
					"name()": "06fdde03",
					"raisedAmount()": "c59ee1dc",
					"startTime()": "78e97925",
					"symbol()": "95d89b41",
					"totalSupply()": "18160ddd",
					"transfer(address,uint256)": "a9059cbb",
					"transferFrom(address,address,uint256)": "23b872dd"
				}
			},
			"storageLayout": {
				"storage": [
					{
						"astId": 73,
						"contract": "contracts/Erc20token.sol:icoContract",
						"label": "name",
						"offset": 0,
						"slot": "0",
						"type": "t_string_storage"
					},
					{
						"astId": 76,
						"contract": "contracts/Erc20token.sol:icoContract",
						"label": "symbol",
						"offset": 0,
						"slot": "1",
						"type": "t_string_storage"
					},
					{
						"astId": 79,
						"contract": "contracts/Erc20token.sol:icoContract",
						"label": "decimals",
						"offset": 0,
						"slot": "2",
						"type": "t_uint256"
					},
					{
						"astId": 81,
						"contract": "contracts/Erc20token.sol:icoContract",
						"label": "founder",
						"offset": 0,
						"slot": "3",
						"type": "t_address"
					},
					{
						"astId": 84,
						"contract": "contracts/Erc20token.sol:icoContract",
						"label": "totalSupply",
						"offset": 0,
						"slot": "4",
						"type": "t_uint256"
					},
					{
						"astId": 88,
						"contract": "contracts/Erc20token.sol:icoContract",
						"label": "balances",
						"offset": 0,
						"slot": "5",
						"type": "t_mapping(t_address,t_uint256)"
					},
					{
						"astId": 94,
						"contract": "contracts/Erc20token.sol:icoContract",
						"label": "allowed",
						"offset": 0,
						"slot": "6",
						"type": "t_mapping(t_address,t_mapping(t_address,t_uint256))"
					},
					{
						"astId": 307,
						"contract": "contracts/Erc20token.sol:icoContract",
						"label": "admin",
						"offset": 0,
						"slot": "7",
						"type": "t_address"
					},
					{
						"astId": 309,
						"contract": "contracts/Erc20token.sol:icoContract",
						"label": "raisedAmount",
						"offset": 0,
						"slot": "8",
						"type": "t_uint256"
					},
					{
						"astId": 312,
						"contract": "contracts/Erc20token.sol:icoContract",
						"label": "hardCap",
						"offset": 0,
						"slot": "9",
						"type": "t_uint256"
					},
					{
						"astId": 322,
						"contract": "contracts/Erc20token.sol:icoContract",
						"label": "startTime",
						"offset": 0,
						"slot": "10",
						"type": "t_uint256"
					},
					{
						"astId": 324,
						"contract": "contracts/Erc20token.sol:icoContract",
						"label": "endTime",
						"offset": 0,
						"slot": "11",
						"type": "t_uint256"
					},
					{
						"astId": 327,
						"contract": "contracts/Erc20token.sol:icoContract",
						"label": "minimumAmount",
						"offset": 0,
						"slot": "12",
						"type": "t_uint256"
					},
					{
						"astId": 330,
						"contract": "contracts/Erc20token.sol:icoContract",
						"label": "maximumAmount",
						"offset": 0,
						"slot": "13",
						"type": "t_uint256"
					},
					{
						"astId": 333,
						"contract": "contracts/Erc20token.sol:icoContract",
						"label": "icoState",
						"offset": 0,
						"slot": "14",
						"type": "t_enum(State)318"
					},
					{
						"astId": 335,
						"contract": "contracts/Erc20token.sol:icoContract",
						"label": "depositAddress",
						"offset": 1,
						"slot": "14",
						"type": "t_address_payable"
					}
				],
				"types": {
					"t_address": {
						"encoding": "inplace",
						"label": "address",
						"numberOfBytes": "20"
					},
					"t_address_payable": {
						"encoding": "inplace",
						"label": "address payable",
						"numberOfBytes": "20"
					},
					"t_enum(State)318": {
						"encoding": "inplace",
						"label": "enum icoContract.State",
						"numberOfBytes": "1"
					},
					"t_mapping(t_address,t_mapping(t_address,t_uint256))": {
						"encoding": "mapping",
						"key": "t_address",
						"label": "mapping(address => mapping(address => uint256))",
						"numberOfBytes": "32",
						"value": "t_mapping(t_address,t_uint256)"
					},
					"t_mapping(t_address,t_uint256)": {
						"encoding": "mapping",
						"key": "t_address",
						"label": "mapping(address => uint256)",
						"numberOfBytes": "32",
						"value": "t_uint256"
					},
					"t_string_storage": {
						"encoding": "bytes",
						"label": "string",
						"numberOfBytes": "32"
					},
					"t_uint256": {
						"encoding": "inplace",
						"label": "uint256",
						"numberOfBytes": "32"
					}
				}
			},
			"userdoc": {
				"kind": "user",
				"methods": {},
				"version": 1
			}
		}
	}
}