{
	"contracts/Auctionsol.sol": {
		"Lottery": {
			"abi": [
				{
					"inputs": [],
					"stateMutability": "nonpayable",
					"type": "constructor"
				},
				{
					"inputs": [],
					"name": "auctionState",
					"outputs": [
						{
							"internalType": "enum Lottery.State",
							"name": "",
							"type": "uint8"
						}
					],
					"stateMutability": "view",
					"type": "function"
				},
				{
					"inputs": [],
					"name": "bidIncrement",
					"outputs": [
						{
							"internalType": "uint256",
							"name": "",
							"type": "uint256"
						}
					],
					"stateMutability": "view",
					"type": "function"
				},
				{
					"inputs": [
						{
							"internalType": "address",
							"name": "",
							"type": "address"
						}
					],
					"name": "bidsMap",
					"outputs": [
						{
							"internalType": "uint256",
							"name": "",
							"type": "uint256"
						}
					],
					"stateMutability": "view",
					"type": "function"
				},
				{
					"inputs": [],
					"name": "endBlock",
					"outputs": [
						{
							"internalType": "uint256",
							"name": "",
							"type": "uint256"
						}
					],
					"stateMutability": "view",
					"type": "function"
				},
				{
					"inputs": [],
					"name": "higestBindingBid",
					"outputs": [
						{
							"internalType": "uint256",
							"name": "",
							"type": "uint256"
						}
					],
					"stateMutability": "view",
					"type": "function"
				},
				{
					"inputs": [],
					"name": "highestBidder",
					"outputs": [
						{
							"internalType": "address payable",
							"name": "",
							"type": "address"
						}
					],
					"stateMutability": "view",
					"type": "function"
				},
				{
					"inputs": [],
					"name": "owner",
					"outputs": [
						{
							"internalType": "address",
							"name": "",
							"type": "address"
						}
					],
					"stateMutability": "view",
					"type": "function"
				},
				{
					"inputs": [],
					"name": "startBlock",
					"outputs": [
						{
							"internalType": "uint256",
							"name": "",
							"type": "uint256"
						}
					],
					"stateMutability": "view",
					"type": "function"
				}
			],
			"devdoc": {
				"kind": "dev",
				"methods": {},
				"version": 1
			},
			"evm": {
				"assembly": "    /* \"contracts/Auctionsol.sol\":74:639  contract Lottery{\r... */\n  mstore(0x40, 0x80)\n    /* \"contracts/Auctionsol.sol\":322:334  block.number */\n  number\n    /* \"contracts/Auctionsol.sol\":297:334  uint public startBlock = block.number */\n  0x05\n  sstore\n    /* \"contracts/Auctionsol.sol\":377:378  3 */\n  0x03\n    /* \"contracts/Auctionsol.sol\":364:374  startBlock */\n  sload(0x05)\n    /* \"contracts/Auctionsol.sol\":364:378  startBlock + 3 */\n  tag_1\n  swap2\n  swap1\n  tag_2\n  jump\t// in\ntag_1:\n    /* \"contracts/Auctionsol.sol\":341:378  uint public endBlock = startBlock + 3 */\n  0x06\n  sstore\n    /* \"contracts/Auctionsol.sol\":516:634  constructor(){\r... */\n  callvalue\n  dup1\n  iszero\n  tag_3\n  jumpi\n  0x00\n  dup1\n  revert\ntag_3:\n  pop\n    /* \"contracts/Auctionsol.sol\":548:558  msg.sender */\n  caller\n    /* \"contracts/Auctionsol.sol\":540:545  owner */\n  0x01\n  0x00\n    /* \"contracts/Auctionsol.sol\":540:558  owner = msg.sender */\n  0x0100\n  exp\n  dup2\n  sload\n  dup2\n  0xffffffffffffffffffffffffffffffffffffffff\n  mul\n  not\n  and\n  swap1\n  dup4\n  0xffffffffffffffffffffffffffffffffffffffff\n  and\n  mul\n  or\n  swap1\n  sstore\n  pop\n    /* \"contracts/Auctionsol.sol\":584:587  100 */\n  0x64\n    /* \"contracts/Auctionsol.sol\":569:581  bidIncrement */\n  0x04\n    /* \"contracts/Auctionsol.sol\":569:587  bidIncrement = 100 */\n  dup2\n  swap1\n  sstore\n  pop\n    /* \"contracts/Auctionsol.sol\":613:626  State.Running */\n  0x01\n    /* \"contracts/Auctionsol.sol\":598:610  auctionState */\n  0x07\n  0x00\n    /* \"contracts/Auctionsol.sol\":598:626  auctionState = State.Running */\n  0x0100\n  exp\n  dup2\n  sload\n  dup2\n  0xff\n  mul\n  not\n  and\n  swap1\n  dup4\n  0x03\n  dup2\n  gt\n  iszero\n  tag_6\n  jumpi\n  tag_7\n  tag_8\n  jump\t// in\ntag_7:\ntag_6:\n  mul\n  or\n  swap1\n  sstore\n  pop\n    /* \"contracts/Auctionsol.sol\":74:639  contract Lottery{\r... */\n  jump(tag_9)\n    /* \"#utility.yul\":7:312   */\ntag_2:\n    /* \"#utility.yul\":47:50   */\n  0x00\n    /* \"#utility.yul\":66:86   */\n  tag_12\n    /* \"#utility.yul\":84:85   */\n  dup3\n    /* \"#utility.yul\":66:86   */\n  tag_13\n  jump\t// in\ntag_12:\n    /* \"#utility.yul\":61:86   */\n  swap2\n  pop\n    /* \"#utility.yul\":100:120   */\n  tag_14\n    /* \"#utility.yul\":118:119   */\n  dup4\n    /* \"#utility.yul\":100:120   */\n  tag_13\n  jump\t// in\ntag_14:\n    /* \"#utility.yul\":95:120   */\n  swap3\n  pop\n    /* \"#utility.yul\":254:255   */\n  dup3\n    /* \"#utility.yul\":186:252   */\n  0xffffffffffffffffffffffffffffffffffffffffffffffffffffffffffffffff\n    /* \"#utility.yul\":182:256   */\n  sub\n    /* \"#utility.yul\":179:180   */\n  dup3\n    /* \"#utility.yul\":176:257   */\n  gt\n    /* \"#utility.yul\":173:280   */\n  iszero\n  tag_15\n  jumpi\n    /* \"#utility.yul\":260:278   */\n  tag_16\n  tag_17\n  jump\t// in\ntag_16:\n    /* \"#utility.yul\":173:280   */\ntag_15:\n    /* \"#utility.yul\":304:305   */\n  dup3\n    /* \"#utility.yul\":301:302   */\n  dup3\n    /* \"#utility.yul\":297:306   */\n  add\n    /* \"#utility.yul\":290:306   */\n  swap1\n  pop\n    /* \"#utility.yul\":7:312   */\n  swap3\n  swap2\n  pop\n  pop\n  jump\t// out\n    /* \"#utility.yul\":318:395   */\ntag_13:\n    /* \"#utility.yul\":355:362   */\n  0x00\n    /* \"#utility.yul\":384:389   */\n  dup2\n    /* \"#utility.yul\":373:389   */\n  swap1\n  pop\n    /* \"#utility.yul\":318:395   */\n  swap2\n  swap1\n  pop\n  jump\t// out\n    /* \"#utility.yul\":401:581   */\ntag_17:\n    /* \"#utility.yul\":449:526   */\n  0x4e487b7100000000000000000000000000000000000000000000000000000000\n    /* \"#utility.yul\":446:447   */\n  0x00\n    /* \"#utility.yul\":439:527   */\n  mstore\n    /* \"#utility.yul\":546:550   */\n  0x11\n    /* \"#utility.yul\":543:544   */\n  0x04\n    /* \"#utility.yul\":536:551   */\n  mstore\n    /* \"#utility.yul\":570:574   */\n  0x24\n    /* \"#utility.yul\":567:568   */\n  0x00\n    /* \"#utility.yul\":560:575   */\n  revert\n    /* \"#utility.yul\":587:767   */\ntag_8:\n    /* \"#utility.yul\":635:712   */\n  0x4e487b7100000000000000000000000000000000000000000000000000000000\n    /* \"#utility.yul\":632:633   */\n  0x00\n    /* \"#utility.yul\":625:713   */\n  mstore\n    /* \"#utility.yul\":732:736   */\n  0x21\n    /* \"#utility.yul\":729:730   */\n  0x04\n    /* \"#utility.yul\":722:737   */\n  mstore\n    /* \"#utility.yul\":756:760   */\n  0x24\n    /* \"#utility.yul\":753:754   */\n  0x00\n    /* \"#utility.yul\":746:761   */\n  revert\n    /* \"contracts/Auctionsol.sol\":74:639  contract Lottery{\r... */\ntag_9:\n  dataSize(sub_0)\n  dup1\n  dataOffset(sub_0)\n  0x00\n  codecopy\n  0x00\n  return\nstop\n\nsub_0: assembly {\n        /* \"contracts/Auctionsol.sol\":74:639  contract Lottery{\r... */\n      mstore(0x40, 0x80)\n      callvalue\n      dup1\n      iszero\n      tag_1\n      jumpi\n      0x00\n      dup1\n      revert\n    tag_1:\n      pop\n      jumpi(tag_2, lt(calldatasize, 0x04))\n      shr(0xe0, calldataload(0x00))\n      dup1\n      0x8ee77512\n      gt\n      tag_11\n      jumpi\n      dup1\n      0x8ee77512\n      eq\n      tag_7\n      jumpi\n      dup1\n      0x91c11f7d\n      eq\n      tag_8\n      jumpi\n      dup1\n      0x91f90157\n      eq\n      tag_9\n      jumpi\n      dup1\n      0xb3cc167a\n      eq\n      tag_10\n      jumpi\n      jump(tag_2)\n    tag_11:\n      dup1\n      0x083c6323\n      eq\n      tag_3\n      jumpi\n      dup1\n      0x48cd4cb1\n      eq\n      tag_4\n      jumpi\n      dup1\n      0x7fb45099\n      eq\n      tag_5\n      jumpi\n      dup1\n      0x8da5cb5b\n      eq\n      tag_6\n      jumpi\n    tag_2:\n      0x00\n      dup1\n      revert\n        /* \"contracts/Auctionsol.sol\":341:378  uint public endBlock = startBlock + 3 */\n    tag_3:\n      tag_12\n      tag_13\n      jump\t// in\n    tag_12:\n      mload(0x40)\n      tag_14\n      swap2\n      swap1\n      tag_15\n      jump\t// in\n    tag_14:\n      mload(0x40)\n      dup1\n      swap2\n      sub\n      swap1\n      return\n        /* \"contracts/Auctionsol.sol\":297:334  uint public startBlock = block.number */\n    tag_4:\n      tag_16\n      tag_17\n      jump\t// in\n    tag_16:\n      mload(0x40)\n      tag_18\n      swap2\n      swap1\n      tag_15\n      jump\t// in\n    tag_18:\n      mload(0x40)\n      dup1\n      swap2\n      sub\n      swap1\n      return\n        /* \"contracts/Auctionsol.sol\":480:505  State public auctionState */\n    tag_5:\n      tag_19\n      tag_20\n      jump\t// in\n    tag_19:\n      mload(0x40)\n      tag_21\n      swap2\n      swap1\n      tag_22\n      jump\t// in\n    tag_21:\n      mload(0x40)\n      dup1\n      swap2\n      sub\n      swap1\n      return\n        /* \"contracts/Auctionsol.sol\":145:165  address public owner */\n    tag_6:\n      tag_23\n      tag_24\n      jump\t// in\n    tag_23:\n      mload(0x40)\n      tag_25\n      swap2\n      swap1\n      tag_26\n      jump\t// in\n    tag_25:\n      mload(0x40)\n      dup1\n      swap2\n      sub\n      swap1\n      return\n        /* \"contracts/Auctionsol.sol\":99:138  mapping(address => uint) public bidsMap */\n    tag_7:\n      tag_27\n      0x04\n      dup1\n      calldatasize\n      sub\n      dup2\n      add\n      swap1\n      tag_28\n      swap2\n      swap1\n      tag_29\n      jump\t// in\n    tag_28:\n      tag_30\n      jump\t// in\n    tag_27:\n      mload(0x40)\n      tag_31\n      swap2\n      swap1\n      tag_15\n      jump\t// in\n    tag_31:\n      mload(0x40)\n      dup1\n      swap2\n      sub\n      swap1\n      return\n        /* \"contracts/Auctionsol.sol\":215:243  uint public higestBindingBid */\n    tag_8:\n      tag_32\n      tag_33\n      jump\t// in\n    tag_32:\n      mload(0x40)\n      tag_34\n      swap2\n      swap1\n      tag_15\n      jump\t// in\n    tag_34:\n      mload(0x40)\n      dup1\n      swap2\n      sub\n      swap1\n      return\n        /* \"contracts/Auctionsol.sol\":172:208  address payable public highestBidder */\n    tag_9:\n      tag_35\n      tag_36\n      jump\t// in\n    tag_35:\n      mload(0x40)\n      tag_37\n      swap2\n      swap1\n      tag_38\n      jump\t// in\n    tag_37:\n      mload(0x40)\n      dup1\n      swap2\n      sub\n      swap1\n      return\n        /* \"contracts/Auctionsol.sol\":250:274  uint public bidIncrement */\n    tag_10:\n      tag_39\n      tag_40\n      jump\t// in\n    tag_39:\n      mload(0x40)\n      tag_41\n      swap2\n      swap1\n      tag_15\n      jump\t// in\n    tag_41:\n      mload(0x40)\n      dup1\n      swap2\n      sub\n      swap1\n      return\n        /* \"contracts/Auctionsol.sol\":341:378  uint public endBlock = startBlock + 3 */\n    tag_13:\n      sload(0x06)\n      dup2\n      jump\t// out\n        /* \"contracts/Auctionsol.sol\":297:334  uint public startBlock = block.number */\n    tag_17:\n      sload(0x05)\n      dup2\n      jump\t// out\n        /* \"contracts/Auctionsol.sol\":480:505  State public auctionState */\n    tag_20:\n      0x07\n      0x00\n      swap1\n      sload\n      swap1\n      0x0100\n      exp\n      swap1\n      div\n      0xff\n      and\n      dup2\n      jump\t// out\n        /* \"contracts/Auctionsol.sol\":145:165  address public owner */\n    tag_24:\n      0x01\n      0x00\n      swap1\n      sload\n      swap1\n      0x0100\n      exp\n      swap1\n      div\n      0xffffffffffffffffffffffffffffffffffffffff\n      and\n      dup2\n      jump\t// out\n        /* \"contracts/Auctionsol.sol\":99:138  mapping(address => uint) public bidsMap */\n    tag_30:\n      mstore(0x20, 0x00)\n      dup1\n      0x00\n      mstore\n      keccak256(0x00, 0x40)\n      0x00\n      swap2\n      pop\n      swap1\n      pop\n      sload\n      dup2\n      jump\t// out\n        /* \"contracts/Auctionsol.sol\":215:243  uint public higestBindingBid */\n    tag_33:\n      sload(0x03)\n      dup2\n      jump\t// out\n        /* \"contracts/Auctionsol.sol\":172:208  address payable public highestBidder */\n    tag_36:\n      0x02\n      0x00\n      swap1\n      sload\n      swap1\n      0x0100\n      exp\n      swap1\n      div\n      0xffffffffffffffffffffffffffffffffffffffff\n      and\n      dup2\n      jump\t// out\n        /* \"contracts/Auctionsol.sol\":250:274  uint public bidIncrement */\n    tag_40:\n      sload(0x04)\n      dup2\n      jump\t// out\n        /* \"#utility.yul\":7:146   */\n    tag_43:\n        /* \"#utility.yul\":53:58   */\n      0x00\n        /* \"#utility.yul\":91:97   */\n      dup2\n        /* \"#utility.yul\":78:98   */\n      calldataload\n        /* \"#utility.yul\":69:98   */\n      swap1\n      pop\n        /* \"#utility.yul\":107:140   */\n      tag_45\n        /* \"#utility.yul\":134:139   */\n      dup2\n        /* \"#utility.yul\":107:140   */\n      tag_46\n      jump\t// in\n    tag_45:\n        /* \"#utility.yul\":7:146   */\n      swap3\n      swap2\n      pop\n      pop\n      jump\t// out\n        /* \"#utility.yul\":152:481   */\n    tag_29:\n        /* \"#utility.yul\":211:217   */\n      0x00\n        /* \"#utility.yul\":260:262   */\n      0x20\n        /* \"#utility.yul\":248:257   */\n      dup3\n        /* \"#utility.yul\":239:246   */\n      dup5\n        /* \"#utility.yul\":235:258   */\n      sub\n        /* \"#utility.yul\":231:263   */\n      slt\n        /* \"#utility.yul\":228:347   */\n      iszero\n      tag_48\n      jumpi\n        /* \"#utility.yul\":266:345   */\n      tag_49\n      tag_50\n      jump\t// in\n    tag_49:\n        /* \"#utility.yul\":228:347   */\n    tag_48:\n        /* \"#utility.yul\":386:387   */\n      0x00\n        /* \"#utility.yul\":411:464   */\n      tag_51\n        /* \"#utility.yul\":456:463   */\n      dup5\n        /* \"#utility.yul\":447:453   */\n      dup3\n        /* \"#utility.yul\":436:445   */\n      dup6\n        /* \"#utility.yul\":432:454   */\n      add\n        /* \"#utility.yul\":411:464   */\n      tag_43\n      jump\t// in\n    tag_51:\n        /* \"#utility.yul\":401:464   */\n      swap2\n      pop\n        /* \"#utility.yul\":357:474   */\n      pop\n        /* \"#utility.yul\":152:481   */\n      swap3\n      swap2\n      pop\n      pop\n      jump\t// out\n        /* \"#utility.yul\":487:629   */\n    tag_52:\n        /* \"#utility.yul\":590:622   */\n      tag_54\n        /* \"#utility.yul\":616:621   */\n      dup2\n        /* \"#utility.yul\":590:622   */\n      tag_55\n      jump\t// in\n    tag_54:\n        /* \"#utility.yul\":585:588   */\n      dup3\n        /* \"#utility.yul\":578:623   */\n      mstore\n        /* \"#utility.yul\":487:629   */\n      pop\n      pop\n      jump\t// out\n        /* \"#utility.yul\":635:753   */\n    tag_56:\n        /* \"#utility.yul\":722:746   */\n      tag_58\n        /* \"#utility.yul\":740:745   */\n      dup2\n        /* \"#utility.yul\":722:746   */\n      tag_59\n      jump\t// in\n    tag_58:\n        /* \"#utility.yul\":717:720   */\n      dup3\n        /* \"#utility.yul\":710:747   */\n      mstore\n        /* \"#utility.yul\":635:753   */\n      pop\n      pop\n      jump\t// out\n        /* \"#utility.yul\":759:902   */\n    tag_60:\n        /* \"#utility.yul\":852:895   */\n      tag_62\n        /* \"#utility.yul\":889:894   */\n      dup2\n        /* \"#utility.yul\":852:895   */\n      tag_63\n      jump\t// in\n    tag_62:\n        /* \"#utility.yul\":847:850   */\n      dup3\n        /* \"#utility.yul\":840:896   */\n      mstore\n        /* \"#utility.yul\":759:902   */\n      pop\n      pop\n      jump\t// out\n        /* \"#utility.yul\":908:1026   */\n    tag_64:\n        /* \"#utility.yul\":995:1019   */\n      tag_66\n        /* \"#utility.yul\":1013:1018   */\n      dup2\n        /* \"#utility.yul\":995:1019   */\n      tag_67\n      jump\t// in\n    tag_66:\n        /* \"#utility.yul\":990:993   */\n      dup3\n        /* \"#utility.yul\":983:1020   */\n      mstore\n        /* \"#utility.yul\":908:1026   */\n      pop\n      pop\n      jump\t// out\n        /* \"#utility.yul\":1032:1254   */\n    tag_26:\n        /* \"#utility.yul\":1125:1129   */\n      0x00\n        /* \"#utility.yul\":1163:1165   */\n      0x20\n        /* \"#utility.yul\":1152:1161   */\n      dup3\n        /* \"#utility.yul\":1148:1166   */\n      add\n        /* \"#utility.yul\":1140:1166   */\n      swap1\n      pop\n        /* \"#utility.yul\":1176:1247   */\n      tag_69\n        /* \"#utility.yul\":1244:1245   */\n      0x00\n        /* \"#utility.yul\":1233:1242   */\n      dup4\n        /* \"#utility.yul\":1229:1246   */\n      add\n        /* \"#utility.yul\":1220:1226   */\n      dup5\n        /* \"#utility.yul\":1176:1247   */\n      tag_56\n      jump\t// in\n    tag_69:\n        /* \"#utility.yul\":1032:1254   */\n      swap3\n      swap2\n      pop\n      pop\n      jump\t// out\n        /* \"#utility.yul\":1260:1514   */\n    tag_38:\n        /* \"#utility.yul\":1369:1373   */\n      0x00\n        /* \"#utility.yul\":1407:1409   */\n      0x20\n        /* \"#utility.yul\":1396:1405   */\n      dup3\n        /* \"#utility.yul\":1392:1410   */\n      add\n        /* \"#utility.yul\":1384:1410   */\n      swap1\n      pop\n        /* \"#utility.yul\":1420:1507   */\n      tag_71\n        /* \"#utility.yul\":1504:1505   */\n      0x00\n        /* \"#utility.yul\":1493:1502   */\n      dup4\n        /* \"#utility.yul\":1489:1506   */\n      add\n        /* \"#utility.yul\":1480:1486   */\n      dup5\n        /* \"#utility.yul\":1420:1507   */\n      tag_52\n      jump\t// in\n    tag_71:\n        /* \"#utility.yul\":1260:1514   */\n      swap3\n      swap2\n      pop\n      pop\n      jump\t// out\n        /* \"#utility.yul\":1520:1754   */\n    tag_22:\n        /* \"#utility.yul\":1619:1623   */\n      0x00\n        /* \"#utility.yul\":1657:1659   */\n      0x20\n        /* \"#utility.yul\":1646:1655   */\n      dup3\n        /* \"#utility.yul\":1642:1660   */\n      add\n        /* \"#utility.yul\":1634:1660   */\n      swap1\n      pop\n        /* \"#utility.yul\":1670:1747   */\n      tag_73\n        /* \"#utility.yul\":1744:1745   */\n      0x00\n        /* \"#utility.yul\":1733:1742   */\n      dup4\n        /* \"#utility.yul\":1729:1746   */\n      add\n        /* \"#utility.yul\":1720:1726   */\n      dup5\n        /* \"#utility.yul\":1670:1747   */\n      tag_60\n      jump\t// in\n    tag_73:\n        /* \"#utility.yul\":1520:1754   */\n      swap3\n      swap2\n      pop\n      pop\n      jump\t// out\n        /* \"#utility.yul\":1760:1982   */\n    tag_15:\n        /* \"#utility.yul\":1853:1857   */\n      0x00\n        /* \"#utility.yul\":1891:1893   */\n      0x20\n        /* \"#utility.yul\":1880:1889   */\n      dup3\n        /* \"#utility.yul\":1876:1894   */\n      add\n        /* \"#utility.yul\":1868:1894   */\n      swap1\n      pop\n        /* \"#utility.yul\":1904:1975   */\n      tag_75\n        /* \"#utility.yul\":1972:1973   */\n      0x00\n        /* \"#utility.yul\":1961:1970   */\n      dup4\n        /* \"#utility.yul\":1957:1974   */\n      add\n        /* \"#utility.yul\":1948:1954   */\n      dup5\n        /* \"#utility.yul\":1904:1975   */\n      tag_64\n      jump\t// in\n    tag_75:\n        /* \"#utility.yul\":1760:1982   */\n      swap3\n      swap2\n      pop\n      pop\n      jump\t// out\n        /* \"#utility.yul\":2069:2165   */\n    tag_59:\n        /* \"#utility.yul\":2106:2113   */\n      0x00\n        /* \"#utility.yul\":2135:2159   */\n      tag_79\n        /* \"#utility.yul\":2153:2158   */\n      dup3\n        /* \"#utility.yul\":2135:2159   */\n      tag_80\n      jump\t// in\n    tag_79:\n        /* \"#utility.yul\":2124:2159   */\n      swap1\n      pop\n        /* \"#utility.yul\":2069:2165   */\n      swap2\n      swap1\n      pop\n      jump\t// out\n        /* \"#utility.yul\":2171:2275   */\n    tag_55:\n        /* \"#utility.yul\":2216:2223   */\n      0x00\n        /* \"#utility.yul\":2245:2269   */\n      tag_82\n        /* \"#utility.yul\":2263:2268   */\n      dup3\n        /* \"#utility.yul\":2245:2269   */\n      tag_80\n      jump\t// in\n    tag_82:\n        /* \"#utility.yul\":2234:2269   */\n      swap1\n      pop\n        /* \"#utility.yul\":2171:2275   */\n      swap2\n      swap1\n      pop\n      jump\t// out\n        /* \"#utility.yul\":2281:2408   */\n    tag_83:\n        /* \"#utility.yul\":2326:2333   */\n      0x00\n        /* \"#utility.yul\":2355:2360   */\n      dup2\n        /* \"#utility.yul\":2344:2360   */\n      swap1\n      pop\n        /* \"#utility.yul\":2361:2402   */\n      tag_85\n        /* \"#utility.yul\":2396:2401   */\n      dup3\n        /* \"#utility.yul\":2361:2402   */\n      tag_86\n      jump\t// in\n    tag_85:\n        /* \"#utility.yul\":2281:2408   */\n      swap2\n      swap1\n      pop\n      jump\t// out\n        /* \"#utility.yul\":2414:2540   */\n    tag_80:\n        /* \"#utility.yul\":2451:2458   */\n      0x00\n        /* \"#utility.yul\":2491:2533   */\n      0xffffffffffffffffffffffffffffffffffffffff\n        /* \"#utility.yul\":2484:2489   */\n      dup3\n        /* \"#utility.yul\":2480:2534   */\n      and\n        /* \"#utility.yul\":2469:2534   */\n      swap1\n      pop\n        /* \"#utility.yul\":2414:2540   */\n      swap2\n      swap1\n      pop\n      jump\t// out\n        /* \"#utility.yul\":2546:2623   */\n    tag_67:\n        /* \"#utility.yul\":2583:2590   */\n      0x00\n        /* \"#utility.yul\":2612:2617   */\n      dup2\n        /* \"#utility.yul\":2601:2617   */\n      swap1\n      pop\n        /* \"#utility.yul\":2546:2623   */\n      swap2\n      swap1\n      pop\n      jump\t// out\n        /* \"#utility.yul\":2629:2756   */\n    tag_63:\n        /* \"#utility.yul\":2685:2694   */\n      0x00\n        /* \"#utility.yul\":2718:2750   */\n      tag_90\n        /* \"#utility.yul\":2744:2749   */\n      dup3\n        /* \"#utility.yul\":2718:2750   */\n      tag_83\n      jump\t// in\n    tag_90:\n        /* \"#utility.yul\":2705:2750   */\n      swap1\n      pop\n        /* \"#utility.yul\":2629:2756   */\n      swap2\n      swap1\n      pop\n      jump\t// out\n        /* \"#utility.yul\":2762:2942   */\n    tag_91:\n        /* \"#utility.yul\":2810:2887   */\n      0x4e487b7100000000000000000000000000000000000000000000000000000000\n        /* \"#utility.yul\":2807:2808   */\n      0x00\n        /* \"#utility.yul\":2800:2888   */\n      mstore\n        /* \"#utility.yul\":2907:2911   */\n      0x21\n        /* \"#utility.yul\":2904:2905   */\n      0x04\n        /* \"#utility.yul\":2897:2912   */\n      mstore\n        /* \"#utility.yul\":2931:2935   */\n      0x24\n        /* \"#utility.yul\":2928:2929   */\n      0x00\n        /* \"#utility.yul\":2921:2936   */\n      revert\n        /* \"#utility.yul\":3071:3188   */\n    tag_50:\n        /* \"#utility.yul\":3180:3181   */\n      0x00\n        /* \"#utility.yul\":3177:3178   */\n      dup1\n        /* \"#utility.yul\":3170:3182   */\n      revert\n        /* \"#utility.yul\":3194:3307   */\n    tag_86:\n        /* \"#utility.yul\":3275:3276   */\n      0x04\n        /* \"#utility.yul\":3268:3273   */\n      dup2\n        /* \"#utility.yul\":3265:3277   */\n      lt\n        /* \"#utility.yul\":3255:3301   */\n      tag_97\n      jumpi\n        /* \"#utility.yul\":3281:3299   */\n      tag_98\n      tag_91\n      jump\t// in\n    tag_98:\n        /* \"#utility.yul\":3255:3301   */\n    tag_97:\n        /* \"#utility.yul\":3194:3307   */\n      pop\n      jump\t// out\n        /* \"#utility.yul\":3313:3435   */\n    tag_46:\n        /* \"#utility.yul\":3386:3410   */\n      tag_100\n        /* \"#utility.yul\":3404:3409   */\n      dup2\n        /* \"#utility.yul\":3386:3410   */\n      tag_59\n      jump\t// in\n    tag_100:\n        /* \"#utility.yul\":3379:3384   */\n      dup2\n        /* \"#utility.yul\":3376:3411   */\n      eq\n        /* \"#utility.yul\":3366:3429   */\n      tag_101\n      jumpi\n        /* \"#utility.yul\":3425:3426   */\n      0x00\n        /* \"#utility.yul\":3422:3423   */\n      dup1\n        /* \"#utility.yul\":3415:3427   */\n      revert\n        /* \"#utility.yul\":3366:3429   */\n    tag_101:\n        /* \"#utility.yul\":3313:3435   */\n      pop\n      jump\t// out\n\n    auxdata: 0xa2646970667358221220fc5792d2f2a3c50f171f7864b10efe163c6776da1531e353e6f1f2b02ea436ff64736f6c63430008070033\n}\n",
				"bytecode": {
					"linkReferences": {},
					"object": "608060405243600555600360055461001791906100a0565b60065534801561002657600080fd5b5033600160006101000a81548173ffffffffffffffffffffffffffffffffffffffff021916908373ffffffffffffffffffffffffffffffffffffffff16021790555060646004819055506001600760006101000a81548160ff021916908360038111156100965761009561012f565b5b021790555061015e565b60006100ab826100f6565b91506100b6836100f6565b9250827fffffffffffffffffffffffffffffffffffffffffffffffffffffffffffffffff038211156100eb576100ea610100565b5b828201905092915050565b6000819050919050565b7f4e487b7100000000000000000000000000000000000000000000000000000000600052601160045260246000fd5b7f4e487b7100000000000000000000000000000000000000000000000000000000600052602160045260246000fd5b6104108061016d6000396000f3fe608060405234801561001057600080fd5b50600436106100885760003560e01c80638ee775121161005b5780638ee775121461010557806391c11f7d1461013557806391f9015714610153578063b3cc167a1461017157610088565b8063083c63231461008d57806348cd4cb1146100ab5780637fb45099146100c95780638da5cb5b146100e7575b600080fd5b61009561018f565b6040516100a291906102ed565b60405180910390f35b6100b3610195565b6040516100c091906102ed565b60405180910390f35b6100d161019b565b6040516100de91906102d2565b60405180910390f35b6100ef6101ae565b6040516100fc919061029c565b60405180910390f35b61011f600480360381019061011a9190610233565b6101d4565b60405161012c91906102ed565b60405180910390f35b61013d6101ec565b60405161014a91906102ed565b60405180910390f35b61015b6101f2565b60405161016891906102b7565b60405180910390f35b610179610218565b60405161018691906102ed565b60405180910390f35b60065481565b60055481565b600760009054906101000a900460ff1681565b600160009054906101000a900473ffffffffffffffffffffffffffffffffffffffff1681565b60006020528060005260406000206000915090505481565b60035481565b600260009054906101000a900473ffffffffffffffffffffffffffffffffffffffff1681565b60045481565b60008135905061022d816103c3565b92915050565b600060208284031215610249576102486103aa565b5b60006102578482850161021e565b91505092915050565b6102698161031a565b82525050565b61027881610308565b82525050565b61028781610369565b82525050565b6102968161035f565b82525050565b60006020820190506102b1600083018461026f565b92915050565b60006020820190506102cc6000830184610260565b92915050565b60006020820190506102e7600083018461027e565b92915050565b6000602082019050610302600083018461028d565b92915050565b60006103138261033f565b9050919050565b60006103258261033f565b9050919050565b600081905061033a826103af565b919050565b600073ffffffffffffffffffffffffffffffffffffffff82169050919050565b6000819050919050565b60006103748261032c565b9050919050565b7f4e487b7100000000000000000000000000000000000000000000000000000000600052602160045260246000fd5b600080fd5b600481106103c0576103bf61037b565b5b50565b6103cc81610308565b81146103d757600080fd5b5056fea2646970667358221220fc5792d2f2a3c50f171f7864b10efe163c6776da1531e353e6f1f2b02ea436ff64736f6c63430008070033",
					"opcodes": "PUSH1 0x80 PUSH1 0x40 MSTORE NUMBER PUSH1 0x5 SSTORE PUSH1 0x3 PUSH1 0x5 SLOAD PUSH2 0x17 SWAP2 SWAP1 PUSH2 0xA0 JUMP JUMPDEST PUSH1 0x6 SSTORE CALLVALUE DUP1 ISZERO PUSH2 0x26 JUMPI PUSH1 0x0 DUP1 REVERT JUMPDEST POP CALLER PUSH1 0x1 PUSH1 0x0 PUSH2 0x100 EXP DUP2 SLOAD DUP2 PUSH20 0xFFFFFFFFFFFFFFFFFFFFFFFFFFFFFFFFFFFFFFFF MUL NOT AND SWAP1 DUP4 PUSH20 0xFFFFFFFFFFFFFFFFFFFFFFFFFFFFFFFFFFFFFFFF AND MUL OR SWAP1 SSTORE POP PUSH1 0x64 PUSH1 0x4 DUP2 SWAP1 SSTORE POP PUSH1 0x1 PUSH1 0x7 PUSH1 0x0 PUSH2 0x100 EXP DUP2 SLOAD DUP2 PUSH1 0xFF MUL NOT AND SWAP1 DUP4 PUSH1 0x3 DUP2 GT ISZERO PUSH2 0x96 JUMPI PUSH2 0x95 PUSH2 0x12F JUMP JUMPDEST JUMPDEST MUL OR SWAP1 SSTORE POP PUSH2 0x15E JUMP JUMPDEST PUSH1 0x0 PUSH2 0xAB DUP3 PUSH2 0xF6 JUMP JUMPDEST SWAP2 POP PUSH2 0xB6 DUP4 PUSH2 0xF6 JUMP JUMPDEST SWAP3 POP DUP3 PUSH32 0xFFFFFFFFFFFFFFFFFFFFFFFFFFFFFFFFFFFFFFFFFFFFFFFFFFFFFFFFFFFFFFFF SUB DUP3 GT ISZERO PUSH2 0xEB JUMPI PUSH2 0xEA PUSH2 0x100 JUMP JUMPDEST JUMPDEST DUP3 DUP3 ADD SWAP1 POP SWAP3 SWAP2 POP POP JUMP JUMPDEST PUSH1 0x0 DUP2 SWAP1 POP SWAP2 SWAP1 POP JUMP JUMPDEST PUSH32 0x4E487B7100000000000000000000000000000000000000000000000000000000 PUSH1 0x0 MSTORE PUSH1 0x11 PUSH1 0x4 MSTORE PUSH1 0x24 PUSH1 0x0 REVERT JUMPDEST PUSH32 0x4E487B7100000000000000000000000000000000000000000000000000000000 PUSH1 0x0 MSTORE PUSH1 0x21 PUSH1 0x4 MSTORE PUSH1 0x24 PUSH1 0x0 REVERT JUMPDEST PUSH2 0x410 DUP1 PUSH2 0x16D PUSH1 0x0 CODECOPY PUSH1 0x0 RETURN INVALID PUSH1 0x80 PUSH1 0x40 MSTORE CALLVALUE DUP1 ISZERO PUSH2 0x10 JUMPI PUSH1 0x0 DUP1 REVERT JUMPDEST POP PUSH1 0x4 CALLDATASIZE LT PUSH2 0x88 JUMPI PUSH1 0x0 CALLDATALOAD PUSH1 0xE0 SHR DUP1 PUSH4 0x8EE77512 GT PUSH2 0x5B JUMPI DUP1 PUSH4 0x8EE77512 EQ PUSH2 0x105 JUMPI DUP1 PUSH4 0x91C11F7D EQ PUSH2 0x135 JUMPI DUP1 PUSH4 0x91F90157 EQ PUSH2 0x153 JUMPI DUP1 PUSH4 0xB3CC167A EQ PUSH2 0x171 JUMPI PUSH2 0x88 JUMP JUMPDEST DUP1 PUSH4 0x83C6323 EQ PUSH2 0x8D JUMPI DUP1 PUSH4 0x48CD4CB1 EQ PUSH2 0xAB JUMPI DUP1 PUSH4 0x7FB45099 EQ PUSH2 0xC9 JUMPI DUP1 PUSH4 0x8DA5CB5B EQ PUSH2 0xE7 JUMPI JUMPDEST PUSH1 0x0 DUP1 REVERT JUMPDEST PUSH2 0x95 PUSH2 0x18F JUMP JUMPDEST PUSH1 0x40 MLOAD PUSH2 0xA2 SWAP2 SWAP1 PUSH2 0x2ED JUMP JUMPDEST PUSH1 0x40 MLOAD DUP1 SWAP2 SUB SWAP1 RETURN JUMPDEST PUSH2 0xB3 PUSH2 0x195 JUMP JUMPDEST PUSH1 0x40 MLOAD PUSH2 0xC0 SWAP2 SWAP1 PUSH2 0x2ED JUMP JUMPDEST PUSH1 0x40 MLOAD DUP1 SWAP2 SUB SWAP1 RETURN JUMPDEST PUSH2 0xD1 PUSH2 0x19B JUMP JUMPDEST PUSH1 0x40 MLOAD PUSH2 0xDE SWAP2 SWAP1 PUSH2 0x2D2 JUMP JUMPDEST PUSH1 0x40 MLOAD DUP1 SWAP2 SUB SWAP1 RETURN JUMPDEST PUSH2 0xEF PUSH2 0x1AE JUMP JUMPDEST PUSH1 0x40 MLOAD PUSH2 0xFC SWAP2 SWAP1 PUSH2 0x29C JUMP JUMPDEST PUSH1 0x40 MLOAD DUP1 SWAP2 SUB SWAP1 RETURN JUMPDEST PUSH2 0x11F PUSH1 0x4 DUP1 CALLDATASIZE SUB DUP2 ADD SWAP1 PUSH2 0x11A SWAP2 SWAP1 PUSH2 0x233 JUMP JUMPDEST PUSH2 0x1D4 JUMP JUMPDEST PUSH1 0x40 MLOAD PUSH2 0x12C SWAP2 SWAP1 PUSH2 0x2ED JUMP JUMPDEST PUSH1 0x40 MLOAD DUP1 SWAP2 SUB SWAP1 RETURN JUMPDEST PUSH2 0x13D PUSH2 0x1EC JUMP JUMPDEST PUSH1 0x40 MLOAD PUSH2 0x14A SWAP2 SWAP1 PUSH2 0x2ED JUMP JUMPDEST PUSH1 0x40 MLOAD DUP1 SWAP2 SUB SWAP1 RETURN JUMPDEST PUSH2 0x15B PUSH2 0x1F2 JUMP JUMPDEST PUSH1 0x40 MLOAD PUSH2 0x168 SWAP2 SWAP1 PUSH2 0x2B7 JUMP JUMPDEST PUSH1 0x40 MLOAD DUP1 SWAP2 SUB SWAP1 RETURN JUMPDEST PUSH2 0x179 PUSH2 0x218 JUMP JUMPDEST PUSH1 0x40 MLOAD PUSH2 0x186 SWAP2 SWAP1 PUSH2 0x2ED JUMP JUMPDEST PUSH1 0x40 MLOAD DUP1 SWAP2 SUB SWAP1 RETURN JUMPDEST PUSH1 0x6 SLOAD DUP2 JUMP JUMPDEST PUSH1 0x5 SLOAD DUP2 JUMP JUMPDEST PUSH1 0x7 PUSH1 0x0 SWAP1 SLOAD SWAP1 PUSH2 0x100 EXP SWAP1 DIV PUSH1 0xFF AND DUP2 JUMP JUMPDEST PUSH1 0x1 PUSH1 0x0 SWAP1 SLOAD SWAP1 PUSH2 0x100 EXP SWAP1 DIV PUSH20 0xFFFFFFFFFFFFFFFFFFFFFFFFFFFFFFFFFFFFFFFF AND DUP2 JUMP JUMPDEST PUSH1 0x0 PUSH1 0x20 MSTORE DUP1 PUSH1 0x0 MSTORE PUSH1 0x40 PUSH1 0x0 KECCAK256 PUSH1 0x0 SWAP2 POP SWAP1 POP SLOAD DUP2 JUMP JUMPDEST PUSH1 0x3 SLOAD DUP2 JUMP JUMPDEST PUSH1 0x2 PUSH1 0x0 SWAP1 SLOAD SWAP1 PUSH2 0x100 EXP SWAP1 DIV PUSH20 0xFFFFFFFFFFFFFFFFFFFFFFFFFFFFFFFFFFFFFFFF AND DUP2 JUMP JUMPDEST PUSH1 0x4 SLOAD DUP2 JUMP JUMPDEST PUSH1 0x0 DUP2 CALLDATALOAD SWAP1 POP PUSH2 0x22D DUP2 PUSH2 0x3C3 JUMP JUMPDEST SWAP3 SWAP2 POP POP JUMP JUMPDEST PUSH1 0x0 PUSH1 0x20 DUP3 DUP5 SUB SLT ISZERO PUSH2 0x249 JUMPI PUSH2 0x248 PUSH2 0x3AA JUMP JUMPDEST JUMPDEST PUSH1 0x0 PUSH2 0x257 DUP5 DUP3 DUP6 ADD PUSH2 0x21E JUMP JUMPDEST SWAP2 POP POP SWAP3 SWAP2 POP POP JUMP JUMPDEST PUSH2 0x269 DUP2 PUSH2 0x31A JUMP JUMPDEST DUP3 MSTORE POP POP JUMP JUMPDEST PUSH2 0x278 DUP2 PUSH2 0x308 JUMP JUMPDEST DUP3 MSTORE POP POP JUMP JUMPDEST PUSH2 0x287 DUP2 PUSH2 0x369 JUMP JUMPDEST DUP3 MSTORE POP POP JUMP JUMPDEST PUSH2 0x296 DUP2 PUSH2 0x35F JUMP JUMPDEST DUP3 MSTORE POP POP JUMP JUMPDEST PUSH1 0x0 PUSH1 0x20 DUP3 ADD SWAP1 POP PUSH2 0x2B1 PUSH1 0x0 DUP4 ADD DUP5 PUSH2 0x26F JUMP JUMPDEST SWAP3 SWAP2 POP POP JUMP JUMPDEST PUSH1 0x0 PUSH1 0x20 DUP3 ADD SWAP1 POP PUSH2 0x2CC PUSH1 0x0 DUP4 ADD DUP5 PUSH2 0x260 JUMP JUMPDEST SWAP3 SWAP2 POP POP JUMP JUMPDEST PUSH1 0x0 PUSH1 0x20 DUP3 ADD SWAP1 POP PUSH2 0x2E7 PUSH1 0x0 DUP4 ADD DUP5 PUSH2 0x27E JUMP JUMPDEST SWAP3 SWAP2 POP POP JUMP JUMPDEST PUSH1 0x0 PUSH1 0x20 DUP3 ADD SWAP1 POP PUSH2 0x302 PUSH1 0x0 DUP4 ADD DUP5 PUSH2 0x28D JUMP JUMPDEST SWAP3 SWAP2 POP POP JUMP JUMPDEST PUSH1 0x0 PUSH2 0x313 DUP3 PUSH2 0x33F JUMP JUMPDEST SWAP1 POP SWAP2 SWAP1 POP JUMP JUMPDEST PUSH1 0x0 PUSH2 0x325 DUP3 PUSH2 0x33F JUMP JUMPDEST SWAP1 POP SWAP2 SWAP1 POP JUMP JUMPDEST PUSH1 0x0 DUP2 SWAP1 POP PUSH2 0x33A DUP3 PUSH2 0x3AF JUMP JUMPDEST SWAP2 SWAP1 POP JUMP JUMPDEST PUSH1 0x0 PUSH20 0xFFFFFFFFFFFFFFFFFFFFFFFFFFFFFFFFFFFFFFFF DUP3 AND SWAP1 POP SWAP2 SWAP1 POP JUMP JUMPDEST PUSH1 0x0 DUP2 SWAP1 POP SWAP2 SWAP1 POP JUMP JUMPDEST PUSH1 0x0 PUSH2 0x374 DUP3 PUSH2 0x32C JUMP JUMPDEST SWAP1 POP SWAP2 SWAP1 POP JUMP JUMPDEST PUSH32 0x4E487B7100000000000000000000000000000000000000000000000000000000 PUSH1 0x0 MSTORE PUSH1 0x21 PUSH1 0x4 MSTORE PUSH1 0x24 PUSH1 0x0 REVERT JUMPDEST PUSH1 0x0 DUP1 REVERT JUMPDEST PUSH1 0x4 DUP2 LT PUSH2 0x3C0 JUMPI PUSH2 0x3BF PUSH2 0x37B JUMP JUMPDEST JUMPDEST POP JUMP JUMPDEST PUSH2 0x3CC DUP2 PUSH2 0x308 JUMP JUMPDEST DUP2 EQ PUSH2 0x3D7 JUMPI PUSH1 0x0 DUP1 REVERT JUMPDEST POP JUMP INVALID LOG2 PUSH5 0x6970667358 0x22 SLT KECCAK256 0xFC JUMPI SWAP3 0xD2 CALLCODE LOG3 0xC5 0xF OR 0x1F PUSH25 0x64B10EFE163C6776DA1531E353E6F1F2B02EA436FF64736F6C PUSH4 0x43000807 STOP CALLER "
				},
				"gasEstimates": {
					"creation": {
						"codeDepositCost": "208000",
						"executionCost": "infinite",
						"totalCost": "infinite"
					},
					"external": {
						"auctionState()": "2605",
						"bidIncrement()": "2495",
						"bidsMap(address)": "2814",
						"endBlock()": "2430",
						"higestBindingBid()": "2451",
						"highestBidder()": "2558",
						"owner()": "2581",
						"startBlock()": "2452"
					}
				},
				"methodIdentifiers": {
					"auctionState()": "7fb45099",
					"bidIncrement()": "b3cc167a",
					"bidsMap(address)": "8ee77512",
					"endBlock()": "083c6323",
					"higestBindingBid()": "91c11f7d",
					"highestBidder()": "91f90157",
					"owner()": "8da5cb5b",
					"startBlock()": "48cd4cb1"
				}
			},
			"storageLayout": {
				"storage": [
					{
						"astId": 5,
						"contract": "contracts/Auctionsol.sol:Lottery",
						"label": "bidsMap",
						"offset": 0,
						"slot": "0",
						"type": "t_mapping(t_address,t_uint256)"
					},
					{
						"astId": 7,
						"contract": "contracts/Auctionsol.sol:Lottery",
						"label": "owner",
						"offset": 0,
						"slot": "1",
						"type": "t_address"
					},
					{
						"astId": 9,
						"contract": "contracts/Auctionsol.sol:Lottery",
						"label": "highestBidder",
						"offset": 0,
						"slot": "2",
						"type": "t_address_payable"
					},
					{
						"astId": 11,
						"contract": "contracts/Auctionsol.sol:Lottery",
						"label": "higestBindingBid",
						"offset": 0,
						"slot": "3",
						"type": "t_uint256"
					},
					{
						"astId": 13,
						"contract": "contracts/Auctionsol.sol:Lottery",
						"label": "bidIncrement",
						"offset": 0,
						"slot": "4",
						"type": "t_uint256"
					},
					{
						"astId": 17,
						"contract": "contracts/Auctionsol.sol:Lottery",
						"label": "startBlock",
						"offset": 0,
						"slot": "5",
						"type": "t_uint256"
					},
					{
						"astId": 22,
						"contract": "contracts/Auctionsol.sol:Lottery",
						"label": "endBlock",
						"offset": 0,
						"slot": "6",
						"type": "t_uint256"
					},
					{
						"astId": 30,
						"contract": "contracts/Auctionsol.sol:Lottery",
						"label": "auctionState",
						"offset": 0,
						"slot": "7",
						"type": "t_enum(State)27"
					}
				],
				"types": {
					"t_address": {
						"encoding": "inplace",
						"label": "address",
						"numberOfBytes": "20"
					},
					"t_address_payable": {
						"encoding": "inplace",
						"label": "address payable",
						"numberOfBytes": "20"
					},
					"t_enum(State)27": {
						"encoding": "inplace",
						"label": "enum Lottery.State",
						"numberOfBytes": "1"
					},
					"t_mapping(t_address,t_uint256)": {
						"encoding": "mapping",
						"key": "t_address",
						"label": "mapping(address => uint256)",
						"numberOfBytes": "32",
						"value": "t_uint256"
					},
					"t_uint256": {
						"encoding": "inplace",
						"label": "uint256",
						"numberOfBytes": "32"
					}
				}
			},
			"userdoc": {
				"kind": "user",
				"methods": {},
				"version": 1
			}
		}
	}
}