{
	"contracts/lottery_smart_contract_ch3.sol": {
		"Lottery": {
			"abi": [
				{
					"inputs": [],
					"stateMutability": "nonpayable",
					"type": "constructor"
				},
				{
					"inputs": [],
					"name": "getBalance",
					"outputs": [
						{
							"internalType": "uint256",
							"name": "",
							"type": "uint256"
						}
					],
					"stateMutability": "view",
					"type": "function"
				},
				{
					"inputs": [],
					"name": "manager",
					"outputs": [
						{
							"internalType": "address",
							"name": "",
							"type": "address"
						}
					],
					"stateMutability": "view",
					"type": "function"
				},
				{
					"inputs": [],
					"name": "pickWinner",
					"outputs": [],
					"stateMutability": "nonpayable",
					"type": "function"
				},
				{
					"inputs": [
						{
							"internalType": "uint256",
							"name": "",
							"type": "uint256"
						}
					],
					"name": "players",
					"outputs": [
						{
							"internalType": "address payable",
							"name": "",
							"type": "address"
						}
					],
					"stateMutability": "view",
					"type": "function"
				},
				{
					"stateMutability": "payable",
					"type": "receive"
				}
			],
			"devdoc": {
				"kind": "dev",
				"methods": {},
				"version": 1
			},
			"evm": {
				"assembly": "    /* \"contracts/lottery_smart_contract_ch3.sol\":70:2004  contract Lottery{... */\n  mstore(0x40, 0x80)\n    /* \"contracts/lottery_smart_contract_ch3.sol\":284:419  constructor(){... */\n  callvalue\n  dup1\n  iszero\n  tag_1\n  jumpi\n  0x00\n  dup1\n  revert\ntag_1:\n  pop\n    /* \"contracts/lottery_smart_contract_ch3.sol\":392:402  msg.sender */\n  caller\n    /* \"contracts/lottery_smart_contract_ch3.sol\":382:389  manager */\n  0x01\n  0x00\n    /* \"contracts/lottery_smart_contract_ch3.sol\":382:402  manager = msg.sender */\n  0x0100\n  exp\n  dup2\n  sload\n  dup2\n  0xffffffffffffffffffffffffffffffffffffffff\n  mul\n  not\n  and\n  swap1\n  dup4\n  0xffffffffffffffffffffffffffffffffffffffff\n  and\n  mul\n  or\n  swap1\n  sstore\n  pop\n    /* \"contracts/lottery_smart_contract_ch3.sol\":70:2004  contract Lottery{... */\n  dataSize(sub_0)\n  dup1\n  dataOffset(sub_0)\n  0x00\n  codecopy\n  0x00\n  return\nstop\n\nsub_0: assembly {\n        /* \"contracts/lottery_smart_contract_ch3.sol\":70:2004  contract Lottery{... */\n      mstore(0x40, 0x80)\n      jumpi(tag_1, lt(calldatasize, 0x04))\n      shr(0xe0, calldataload(0x00))\n      dup1\n      0x12065fe0\n      eq\n      tag_3\n      jumpi\n      dup1\n      0x481c6a75\n      eq\n      tag_4\n      jumpi\n      dup1\n      0x5d495aea\n      eq\n      tag_5\n      jumpi\n      dup1\n      0xf71d96cb\n      eq\n      tag_6\n      jumpi\n      jump(tag_2)\n    tag_1:\n      jumpi(tag_2, calldatasize)\n        /* \"contracts/lottery_smart_contract_ch3.sol\":607:616  0.1 ether */\n      0x016345785d8a0000\n        /* \"contracts/lottery_smart_contract_ch3.sol\":594:603  msg.value */\n      callvalue\n        /* \"contracts/lottery_smart_contract_ch3.sol\":594:616  msg.value == 0.1 ether */\n      eq\n        /* \"contracts/lottery_smart_contract_ch3.sol\":586:617  require(msg.value == 0.1 ether) */\n      tag_9\n      jumpi\n      0x00\n      dup1\n      revert\n    tag_9:\n        /* \"contracts/lottery_smart_contract_ch3.sol\":680:687  players */\n      0x00\n        /* \"contracts/lottery_smart_contract_ch3.sol\":701:711  msg.sender */\n      caller\n        /* \"contracts/lottery_smart_contract_ch3.sol\":680:713  players.push(payable(msg.sender)) */\n      swap1\n      dup1\n      0x01\n      dup2\n      sload\n      add\n      dup1\n      dup3\n      sstore\n      dup1\n      swap2\n      pop\n      pop\n      0x01\n      swap1\n      sub\n      swap1\n      0x00\n      mstore\n      keccak256(0x00, 0x20)\n      add\n      0x00\n      swap1\n      swap2\n      swap1\n      swap2\n      swap1\n      swap2\n      0x0100\n      exp\n      dup2\n      sload\n      dup2\n      0xffffffffffffffffffffffffffffffffffffffff\n      mul\n      not\n      and\n      swap1\n      dup4\n      0xffffffffffffffffffffffffffffffffffffffff\n      and\n      mul\n      or\n      swap1\n      sstore\n      pop\n        /* \"contracts/lottery_smart_contract_ch3.sol\":70:2004  contract Lottery{... */\n      stop\n    tag_2:\n      0x00\n      dup1\n      revert\n        /* \"contracts/lottery_smart_contract_ch3.sol\":777:962  function getBalance() public view returns(uint){... */\n    tag_3:\n      callvalue\n      dup1\n      iszero\n      tag_11\n      jumpi\n      0x00\n      dup1\n      revert\n    tag_11:\n      pop\n      tag_12\n      tag_13\n      jump\t// in\n    tag_12:\n      mload(0x40)\n      tag_14\n      swap2\n      swap1\n      tag_15\n      jump\t// in\n    tag_14:\n      mload(0x40)\n      dup1\n      swap2\n      sub\n      swap1\n      return\n        /* \"contracts/lottery_smart_contract_ch3.sol\":212:234  address public manager */\n    tag_4:\n      callvalue\n      dup1\n      iszero\n      tag_16\n      jumpi\n      0x00\n      dup1\n      revert\n    tag_16:\n      pop\n      tag_17\n      tag_18\n      jump\t// in\n    tag_17:\n      mload(0x40)\n      tag_19\n      swap2\n      swap1\n      tag_20\n      jump\t// in\n    tag_19:\n      mload(0x40)\n      dup1\n      swap2\n      sub\n      swap1\n      return\n        /* \"contracts/lottery_smart_contract_ch3.sol\":1224:2001  function pickWinner() public{... */\n    tag_5:\n      callvalue\n      dup1\n      iszero\n      tag_21\n      jumpi\n      0x00\n      dup1\n      revert\n    tag_21:\n      pop\n      tag_22\n      tag_23\n      jump\t// in\n    tag_22:\n      stop\n        /* \"contracts/lottery_smart_contract_ch3.sol\":134:166  address payable[] public players */\n    tag_6:\n      callvalue\n      dup1\n      iszero\n      tag_24\n      jumpi\n      0x00\n      dup1\n      revert\n    tag_24:\n      pop\n      tag_25\n      0x04\n      dup1\n      calldatasize\n      sub\n      dup2\n      add\n      swap1\n      tag_26\n      swap2\n      swap1\n      tag_27\n      jump\t// in\n    tag_26:\n      tag_28\n      jump\t// in\n    tag_25:\n      mload(0x40)\n      tag_29\n      swap2\n      swap1\n      tag_30\n      jump\t// in\n    tag_29:\n      mload(0x40)\n      dup1\n      swap2\n      sub\n      swap1\n      return\n        /* \"contracts/lottery_smart_contract_ch3.sol\":777:962  function getBalance() public view returns(uint){... */\n    tag_13:\n        /* \"contracts/lottery_smart_contract_ch3.sol\":819:823  uint */\n      0x00\n        /* \"contracts/lottery_smart_contract_ch3.sol\":934:955  address(this).balance */\n      selfbalance\n        /* \"contracts/lottery_smart_contract_ch3.sol\":927:955  return address(this).balance */\n      swap1\n      pop\n        /* \"contracts/lottery_smart_contract_ch3.sol\":777:962  function getBalance() public view returns(uint){... */\n      swap1\n      jump\t// out\n        /* \"contracts/lottery_smart_contract_ch3.sol\":212:234  address public manager */\n    tag_18:\n      0x01\n      0x00\n      swap1\n      sload\n      swap1\n      0x0100\n      exp\n      swap1\n      div\n      0xffffffffffffffffffffffffffffffffffffffff\n      and\n      dup2\n      jump\t// out\n        /* \"contracts/lottery_smart_contract_ch3.sol\":1224:2001  function pickWinner() public{... */\n    tag_23:\n        /* \"contracts/lottery_smart_contract_ch3.sol\":1449:1451  10 */\n      0x0a\n        /* \"contracts/lottery_smart_contract_ch3.sol\":1431:1438  players */\n      0x00\n        /* \"contracts/lottery_smart_contract_ch3.sol\":1431:1445  players.length */\n      dup1\n      sload\n      swap1\n      pop\n        /* \"contracts/lottery_smart_contract_ch3.sol\":1431:1451  players.length >= 10 */\n      lt\n      iszero\n        /* \"contracts/lottery_smart_contract_ch3.sol\":1422:1452  require (players.length >= 10) */\n      tag_33\n      jumpi\n      0x00\n      dup1\n      revert\n    tag_33:\n        /* \"contracts/lottery_smart_contract_ch3.sol\":1471:1477  uint r */\n      0x00\n        /* \"contracts/lottery_smart_contract_ch3.sol\":1480:1488  random() */\n      tag_34\n        /* \"contracts/lottery_smart_contract_ch3.sol\":1480:1486  random */\n      tag_35\n        /* \"contracts/lottery_smart_contract_ch3.sol\":1480:1488  random() */\n      jump\t// in\n    tag_34:\n        /* \"contracts/lottery_smart_contract_ch3.sol\":1471:1488  uint r = random() */\n      swap1\n      pop\n        /* \"contracts/lottery_smart_contract_ch3.sol\":1498:1520  address payable winner */\n      0x00\n        /* \"contracts/lottery_smart_contract_ch3.sol\":1588:1598  uint index */\n      dup1\n        /* \"contracts/lottery_smart_contract_ch3.sol\":1605:1612  players */\n      0x00\n        /* \"contracts/lottery_smart_contract_ch3.sol\":1605:1619  players.length */\n      dup1\n      sload\n      swap1\n      pop\n        /* \"contracts/lottery_smart_contract_ch3.sol\":1601:1602  r */\n      dup4\n        /* \"contracts/lottery_smart_contract_ch3.sol\":1601:1619  r % players.length */\n      tag_36\n      swap2\n      swap1\n      tag_37\n      jump\t// in\n    tag_36:\n        /* \"contracts/lottery_smart_contract_ch3.sol\":1588:1619  uint index = r % players.length */\n      swap1\n      pop\n        /* \"contracts/lottery_smart_contract_ch3.sol\":1643:1650  players */\n      0x00\n        /* \"contracts/lottery_smart_contract_ch3.sol\":1651:1656  index */\n      dup2\n        /* \"contracts/lottery_smart_contract_ch3.sol\":1643:1657  players[index] */\n      dup2\n      sload\n      dup2\n      lt\n      tag_38\n      jumpi\n      tag_39\n      tag_40\n      jump\t// in\n    tag_39:\n    tag_38:\n      swap1\n      0x00\n      mstore\n      keccak256(0x00, 0x20)\n      add\n      0x00\n      swap1\n      sload\n      swap1\n      0x0100\n      exp\n      swap1\n      div\n      0xffffffffffffffffffffffffffffffffffffffff\n      and\n        /* \"contracts/lottery_smart_contract_ch3.sol\":1634:1657  winner = players[index] */\n      swap2\n      pop\n        /* \"contracts/lottery_smart_contract_ch3.sol\":1766:1782  uint totalAmount */\n      0x00\n        /* \"contracts/lottery_smart_contract_ch3.sol\":1785:1797  getBalance() */\n      tag_42\n        /* \"contracts/lottery_smart_contract_ch3.sol\":1785:1795  getBalance */\n      tag_13\n        /* \"contracts/lottery_smart_contract_ch3.sol\":1785:1797  getBalance() */\n      jump\t// in\n    tag_42:\n        /* \"contracts/lottery_smart_contract_ch3.sol\":1766:1797  uint totalAmount = getBalance() */\n      swap1\n      pop\n        /* \"contracts/lottery_smart_contract_ch3.sol\":1807:1813  winner */\n      dup3\n        /* \"contracts/lottery_smart_contract_ch3.sol\":1807:1822  winner.transfer */\n      0xffffffffffffffffffffffffffffffffffffffff\n      and\n        /* \"contracts/lottery_smart_contract_ch3.sol\":1807:1840  winner.transfer(totalAmount*9/10) */\n      0x08fc\n        /* \"contracts/lottery_smart_contract_ch3.sol\":1837:1839  10 */\n      0x0a\n        /* \"contracts/lottery_smart_contract_ch3.sol\":1835:1836  9 */\n      0x09\n        /* \"contracts/lottery_smart_contract_ch3.sol\":1823:1834  totalAmount */\n      dup5\n        /* \"contracts/lottery_smart_contract_ch3.sol\":1823:1836  totalAmount*9 */\n      tag_43\n      swap2\n      swap1\n      tag_44\n      jump\t// in\n    tag_43:\n        /* \"contracts/lottery_smart_contract_ch3.sol\":1823:1839  totalAmount*9/10 */\n      tag_45\n      swap2\n      swap1\n      tag_46\n      jump\t// in\n    tag_45:\n        /* \"contracts/lottery_smart_contract_ch3.sol\":1807:1840  winner.transfer(totalAmount*9/10) */\n      swap1\n      dup2\n      iszero\n      mul\n      swap1\n      mload(0x40)\n      0x00\n      mload(0x40)\n      dup1\n      dup4\n      sub\n      dup2\n      dup6\n      dup9\n      dup9\n      call\n      swap4\n      pop\n      pop\n      pop\n      pop\n      iszero\n      dup1\n      iszero\n      tag_48\n      jumpi\n      returndatasize\n      0x00\n      dup1\n      returndatacopy\n      revert(0x00, returndatasize)\n    tag_48:\n      pop\n        /* \"contracts/lottery_smart_contract_ch3.sol\":1992:1993  0 */\n      0x00\n        /* \"contracts/lottery_smart_contract_ch3.sol\":1970:1994  new address payable[](0) */\n      0xffffffffffffffff\n      dup2\n      gt\n      iszero\n      tag_49\n      jumpi\n      tag_50\n      tag_51\n      jump\t// in\n    tag_50:\n    tag_49:\n      mload(0x40)\n      swap1\n      dup1\n      dup3\n      mstore\n      dup1\n      0x20\n      mul\n      0x20\n      add\n      dup3\n      add\n      0x40\n      mstore\n      dup1\n      iszero\n      tag_52\n      jumpi\n      dup2\n      0x20\n      add\n      0x20\n      dup3\n      mul\n      dup1\n      calldatasize\n      dup4\n      calldatacopy\n      dup1\n      dup3\n      add\n      swap2\n      pop\n      pop\n      swap1\n      pop\n    tag_52:\n      pop\n        /* \"contracts/lottery_smart_contract_ch3.sol\":1960:1967  players */\n      0x00\n        /* \"contracts/lottery_smart_contract_ch3.sol\":1960:1994  players = new address payable[](0) */\n      swap1\n      dup1\n      mload\n      swap1\n      0x20\n      add\n      swap1\n      tag_53\n      swap3\n      swap2\n      swap1\n      tag_54\n      jump\t// in\n    tag_53:\n      pop\n        /* \"contracts/lottery_smart_contract_ch3.sol\":1252:2001  {... */\n      pop\n      pop\n      pop\n      pop\n        /* \"contracts/lottery_smart_contract_ch3.sol\":1224:2001  function pickWinner() public{... */\n      jump\t// out\n        /* \"contracts/lottery_smart_contract_ch3.sol\":134:166  address payable[] public players */\n    tag_28:\n      0x00\n      dup2\n      dup2\n      sload\n      dup2\n      lt\n      tag_55\n      jumpi\n      0x00\n      dup1\n      revert\n    tag_55:\n      swap1\n      0x00\n      mstore\n      keccak256(0x00, 0x20)\n      add\n      0x00\n      swap2\n      pop\n      sload\n      swap1\n      0x0100\n      exp\n      swap1\n      div\n      0xffffffffffffffffffffffffffffffffffffffff\n      and\n      dup2\n      jump\t// out\n        /* \"contracts/lottery_smart_contract_ch3.sol\":1029:1181  function random() internal view returns(uint){... */\n    tag_35:\n        /* \"contracts/lottery_smart_contract_ch3.sol\":1069:1073  uint */\n      0x00\n        /* \"contracts/lottery_smart_contract_ch3.sol\":1122:1138  block.difficulty */\n      difficulty\n        /* \"contracts/lottery_smart_contract_ch3.sol\":1140:1155  block.timestamp */\n      timestamp\n        /* \"contracts/lottery_smart_contract_ch3.sol\":1157:1164  players */\n      0x00\n        /* \"contracts/lottery_smart_contract_ch3.sol\":1157:1171  players.length */\n      dup1\n      sload\n      swap1\n      pop\n        /* \"contracts/lottery_smart_contract_ch3.sol\":1105:1172  abi.encodePacked(block.difficulty, block.timestamp, players.length) */\n      add(0x20, mload(0x40))\n      tag_58\n      swap4\n      swap3\n      swap2\n      swap1\n      tag_59\n      jump\t// in\n    tag_58:\n      mload(0x40)\n      0x20\n      dup2\n      dup4\n      sub\n      sub\n      dup2\n      mstore\n      swap1\n      0x40\n      mstore\n        /* \"contracts/lottery_smart_contract_ch3.sol\":1095:1173  keccak256(abi.encodePacked(block.difficulty, block.timestamp, players.length)) */\n      dup1\n      mload\n      swap1\n      0x20\n      add\n      keccak256\n        /* \"contracts/lottery_smart_contract_ch3.sol\":1090:1174  uint(keccak256(abi.encodePacked(block.difficulty, block.timestamp, players.length))) */\n      0x00\n      shr\n        /* \"contracts/lottery_smart_contract_ch3.sol\":1083:1174  return uint(keccak256(abi.encodePacked(block.difficulty, block.timestamp, players.length))) */\n      swap1\n      pop\n        /* \"contracts/lottery_smart_contract_ch3.sol\":1029:1181  function random() internal view returns(uint){... */\n      swap1\n      jump\t// out\n    tag_54:\n      dup3\n      dup1\n      sload\n      dup3\n      dup3\n      sstore\n      swap1\n      0x00\n      mstore\n      keccak256(0x00, 0x20)\n      swap1\n      dup2\n      add\n      swap3\n      dup3\n      iszero\n      tag_60\n      jumpi\n      swap2\n      0x20\n      mul\n      dup3\n      add\n    tag_61:\n      dup3\n      dup2\n      gt\n      iszero\n      tag_62\n      jumpi\n      dup3\n      mload\n      dup3\n      exp(0x0100, 0x00)\n      dup2\n      sload\n      dup2\n      0xffffffffffffffffffffffffffffffffffffffff\n      mul\n      not\n      and\n      swap1\n      dup4\n      0xffffffffffffffffffffffffffffffffffffffff\n      and\n      mul\n      or\n      swap1\n      sstore\n      pop\n      swap2\n      0x20\n      add\n      swap2\n      swap1\n      0x01\n      add\n      swap1\n      jump(tag_61)\n    tag_62:\n    tag_60:\n      pop\n      swap1\n      pop\n      tag_63\n      swap2\n      swap1\n      tag_64\n      jump\t// in\n    tag_63:\n      pop\n      swap1\n      jump\t// out\n    tag_64:\n    tag_65:\n      dup1\n      dup3\n      gt\n      iszero\n      tag_66\n      jumpi\n      0x00\n      dup2\n      0x00\n      swap1\n      sstore\n      pop\n      0x01\n      add\n      jump(tag_65)\n    tag_66:\n      pop\n      swap1\n      jump\t// out\n        /* \"#utility.yul\":7:146   */\n    tag_68:\n        /* \"#utility.yul\":53:58   */\n      0x00\n        /* \"#utility.yul\":91:97   */\n      dup2\n        /* \"#utility.yul\":78:98   */\n      calldataload\n        /* \"#utility.yul\":69:98   */\n      swap1\n      pop\n        /* \"#utility.yul\":107:140   */\n      tag_70\n        /* \"#utility.yul\":134:139   */\n      dup2\n        /* \"#utility.yul\":107:140   */\n      tag_71\n      jump\t// in\n    tag_70:\n        /* \"#utility.yul\":7:146   */\n      swap3\n      swap2\n      pop\n      pop\n      jump\t// out\n        /* \"#utility.yul\":152:481   */\n    tag_27:\n        /* \"#utility.yul\":211:217   */\n      0x00\n        /* \"#utility.yul\":260:262   */\n      0x20\n        /* \"#utility.yul\":248:257   */\n      dup3\n        /* \"#utility.yul\":239:246   */\n      dup5\n        /* \"#utility.yul\":235:258   */\n      sub\n        /* \"#utility.yul\":231:263   */\n      slt\n        /* \"#utility.yul\":228:347   */\n      iszero\n      tag_73\n      jumpi\n        /* \"#utility.yul\":266:345   */\n      tag_74\n      tag_75\n      jump\t// in\n    tag_74:\n        /* \"#utility.yul\":228:347   */\n    tag_73:\n        /* \"#utility.yul\":386:387   */\n      0x00\n        /* \"#utility.yul\":411:464   */\n      tag_76\n        /* \"#utility.yul\":456:463   */\n      dup5\n        /* \"#utility.yul\":447:453   */\n      dup3\n        /* \"#utility.yul\":436:445   */\n      dup6\n        /* \"#utility.yul\":432:454   */\n      add\n        /* \"#utility.yul\":411:464   */\n      tag_68\n      jump\t// in\n    tag_76:\n        /* \"#utility.yul\":401:464   */\n      swap2\n      pop\n        /* \"#utility.yul\":357:474   */\n      pop\n        /* \"#utility.yul\":152:481   */\n      swap3\n      swap2\n      pop\n      pop\n      jump\t// out\n        /* \"#utility.yul\":487:629   */\n    tag_77:\n        /* \"#utility.yul\":590:622   */\n      tag_79\n        /* \"#utility.yul\":616:621   */\n      dup2\n        /* \"#utility.yul\":590:622   */\n      tag_80\n      jump\t// in\n    tag_79:\n        /* \"#utility.yul\":585:588   */\n      dup3\n        /* \"#utility.yul\":578:623   */\n      mstore\n        /* \"#utility.yul\":487:629   */\n      pop\n      pop\n      jump\t// out\n        /* \"#utility.yul\":635:753   */\n    tag_81:\n        /* \"#utility.yul\":722:746   */\n      tag_83\n        /* \"#utility.yul\":740:745   */\n      dup2\n        /* \"#utility.yul\":722:746   */\n      tag_84\n      jump\t// in\n    tag_83:\n        /* \"#utility.yul\":717:720   */\n      dup3\n        /* \"#utility.yul\":710:747   */\n      mstore\n        /* \"#utility.yul\":635:753   */\n      pop\n      pop\n      jump\t// out\n        /* \"#utility.yul\":759:877   */\n    tag_85:\n        /* \"#utility.yul\":846:870   */\n      tag_87\n        /* \"#utility.yul\":864:869   */\n      dup2\n        /* \"#utility.yul\":846:870   */\n      tag_88\n      jump\t// in\n    tag_87:\n        /* \"#utility.yul\":841:844   */\n      dup3\n        /* \"#utility.yul\":834:871   */\n      mstore\n        /* \"#utility.yul\":759:877   */\n      pop\n      pop\n      jump\t// out\n        /* \"#utility.yul\":883:1040   */\n    tag_89:\n        /* \"#utility.yul\":988:1033   */\n      tag_91\n        /* \"#utility.yul\":1008:1032   */\n      tag_92\n        /* \"#utility.yul\":1026:1031   */\n      dup3\n        /* \"#utility.yul\":1008:1032   */\n      tag_88\n      jump\t// in\n    tag_92:\n        /* \"#utility.yul\":988:1033   */\n      tag_93\n      jump\t// in\n    tag_91:\n        /* \"#utility.yul\":983:986   */\n      dup3\n        /* \"#utility.yul\":976:1034   */\n      mstore\n        /* \"#utility.yul\":883:1040   */\n      pop\n      pop\n      jump\t// out\n        /* \"#utility.yul\":1046:1584   */\n    tag_59:\n        /* \"#utility.yul\":1214:1217   */\n      0x00\n        /* \"#utility.yul\":1229:1304   */\n      tag_95\n        /* \"#utility.yul\":1300:1303   */\n      dup3\n        /* \"#utility.yul\":1291:1297   */\n      dup7\n        /* \"#utility.yul\":1229:1304   */\n      tag_89\n      jump\t// in\n    tag_95:\n        /* \"#utility.yul\":1329:1331   */\n      0x20\n        /* \"#utility.yul\":1324:1327   */\n      dup3\n        /* \"#utility.yul\":1320:1332   */\n      add\n        /* \"#utility.yul\":1313:1332   */\n      swap2\n      pop\n        /* \"#utility.yul\":1342:1417   */\n      tag_96\n        /* \"#utility.yul\":1413:1416   */\n      dup3\n        /* \"#utility.yul\":1404:1410   */\n      dup6\n        /* \"#utility.yul\":1342:1417   */\n      tag_89\n      jump\t// in\n    tag_96:\n        /* \"#utility.yul\":1442:1444   */\n      0x20\n        /* \"#utility.yul\":1437:1440   */\n      dup3\n        /* \"#utility.yul\":1433:1445   */\n      add\n        /* \"#utility.yul\":1426:1445   */\n      swap2\n      pop\n        /* \"#utility.yul\":1455:1530   */\n      tag_97\n        /* \"#utility.yul\":1526:1529   */\n      dup3\n        /* \"#utility.yul\":1517:1523   */\n      dup5\n        /* \"#utility.yul\":1455:1530   */\n      tag_89\n      jump\t// in\n    tag_97:\n        /* \"#utility.yul\":1555:1557   */\n      0x20\n        /* \"#utility.yul\":1550:1553   */\n      dup3\n        /* \"#utility.yul\":1546:1558   */\n      add\n        /* \"#utility.yul\":1539:1558   */\n      swap2\n      pop\n        /* \"#utility.yul\":1575:1578   */\n      dup2\n        /* \"#utility.yul\":1568:1578   */\n      swap1\n      pop\n        /* \"#utility.yul\":1046:1584   */\n      swap5\n      swap4\n      pop\n      pop\n      pop\n      pop\n      jump\t// out\n        /* \"#utility.yul\":1590:1812   */\n    tag_20:\n        /* \"#utility.yul\":1683:1687   */\n      0x00\n        /* \"#utility.yul\":1721:1723   */\n      0x20\n        /* \"#utility.yul\":1710:1719   */\n      dup3\n        /* \"#utility.yul\":1706:1724   */\n      add\n        /* \"#utility.yul\":1698:1724   */\n      swap1\n      pop\n        /* \"#utility.yul\":1734:1805   */\n      tag_99\n        /* \"#utility.yul\":1802:1803   */\n      0x00\n        /* \"#utility.yul\":1791:1800   */\n      dup4\n        /* \"#utility.yul\":1787:1804   */\n      add\n        /* \"#utility.yul\":1778:1784   */\n      dup5\n        /* \"#utility.yul\":1734:1805   */\n      tag_81\n      jump\t// in\n    tag_99:\n        /* \"#utility.yul\":1590:1812   */\n      swap3\n      swap2\n      pop\n      pop\n      jump\t// out\n        /* \"#utility.yul\":1818:2072   */\n    tag_30:\n        /* \"#utility.yul\":1927:1931   */\n      0x00\n        /* \"#utility.yul\":1965:1967   */\n      0x20\n        /* \"#utility.yul\":1954:1963   */\n      dup3\n        /* \"#utility.yul\":1950:1968   */\n      add\n        /* \"#utility.yul\":1942:1968   */\n      swap1\n      pop\n        /* \"#utility.yul\":1978:2065   */\n      tag_101\n        /* \"#utility.yul\":2062:2063   */\n      0x00\n        /* \"#utility.yul\":2051:2060   */\n      dup4\n        /* \"#utility.yul\":2047:2064   */\n      add\n        /* \"#utility.yul\":2038:2044   */\n      dup5\n        /* \"#utility.yul\":1978:2065   */\n      tag_77\n      jump\t// in\n    tag_101:\n        /* \"#utility.yul\":1818:2072   */\n      swap3\n      swap2\n      pop\n      pop\n      jump\t// out\n        /* \"#utility.yul\":2078:2300   */\n    tag_15:\n        /* \"#utility.yul\":2171:2175   */\n      0x00\n        /* \"#utility.yul\":2209:2211   */\n      0x20\n        /* \"#utility.yul\":2198:2207   */\n      dup3\n        /* \"#utility.yul\":2194:2212   */\n      add\n        /* \"#utility.yul\":2186:2212   */\n      swap1\n      pop\n        /* \"#utility.yul\":2222:2293   */\n      tag_103\n        /* \"#utility.yul\":2290:2291   */\n      0x00\n        /* \"#utility.yul\":2279:2288   */\n      dup4\n        /* \"#utility.yul\":2275:2292   */\n      add\n        /* \"#utility.yul\":2266:2272   */\n      dup5\n        /* \"#utility.yul\":2222:2293   */\n      tag_85\n      jump\t// in\n    tag_103:\n        /* \"#utility.yul\":2078:2300   */\n      swap3\n      swap2\n      pop\n      pop\n      jump\t// out\n        /* \"#utility.yul\":2387:2572   */\n    tag_46:\n        /* \"#utility.yul\":2427:2428   */\n      0x00\n        /* \"#utility.yul\":2444:2464   */\n      tag_107\n        /* \"#utility.yul\":2462:2463   */\n      dup3\n        /* \"#utility.yul\":2444:2464   */\n      tag_88\n      jump\t// in\n    tag_107:\n        /* \"#utility.yul\":2439:2464   */\n      swap2\n      pop\n        /* \"#utility.yul\":2478:2498   */\n      tag_108\n        /* \"#utility.yul\":2496:2497   */\n      dup4\n        /* \"#utility.yul\":2478:2498   */\n      tag_88\n      jump\t// in\n    tag_108:\n        /* \"#utility.yul\":2473:2498   */\n      swap3\n      pop\n        /* \"#utility.yul\":2517:2518   */\n      dup3\n        /* \"#utility.yul\":2507:2542   */\n      tag_109\n      jumpi\n        /* \"#utility.yul\":2522:2540   */\n      tag_110\n      tag_111\n      jump\t// in\n    tag_110:\n        /* \"#utility.yul\":2507:2542   */\n    tag_109:\n        /* \"#utility.yul\":2564:2565   */\n      dup3\n        /* \"#utility.yul\":2561:2562   */\n      dup3\n        /* \"#utility.yul\":2557:2566   */\n      div\n        /* \"#utility.yul\":2552:2566   */\n      swap1\n      pop\n        /* \"#utility.yul\":2387:2572   */\n      swap3\n      swap2\n      pop\n      pop\n      jump\t// out\n        /* \"#utility.yul\":2578:2926   */\n    tag_44:\n        /* \"#utility.yul\":2618:2625   */\n      0x00\n        /* \"#utility.yul\":2641:2661   */\n      tag_113\n        /* \"#utility.yul\":2659:2660   */\n      dup3\n        /* \"#utility.yul\":2641:2661   */\n      tag_88\n      jump\t// in\n    tag_113:\n        /* \"#utility.yul\":2636:2661   */\n      swap2\n      pop\n        /* \"#utility.yul\":2675:2695   */\n      tag_114\n        /* \"#utility.yul\":2693:2694   */\n      dup4\n        /* \"#utility.yul\":2675:2695   */\n      tag_88\n      jump\t// in\n    tag_114:\n        /* \"#utility.yul\":2670:2695   */\n      swap3\n      pop\n        /* \"#utility.yul\":2863:2864   */\n      dup2\n        /* \"#utility.yul\":2795:2861   */\n      0xffffffffffffffffffffffffffffffffffffffffffffffffffffffffffffffff\n        /* \"#utility.yul\":2791:2865   */\n      div\n        /* \"#utility.yul\":2788:2789   */\n      dup4\n        /* \"#utility.yul\":2785:2866   */\n      gt\n        /* \"#utility.yul\":2780:2781   */\n      dup3\n        /* \"#utility.yul\":2773:2782   */\n      iszero\n        /* \"#utility.yul\":2766:2783   */\n      iszero\n        /* \"#utility.yul\":2762:2867   */\n      and\n        /* \"#utility.yul\":2759:2890   */\n      iszero\n      tag_115\n      jumpi\n        /* \"#utility.yul\":2870:2888   */\n      tag_116\n      tag_117\n      jump\t// in\n    tag_116:\n        /* \"#utility.yul\":2759:2890   */\n    tag_115:\n        /* \"#utility.yul\":2918:2919   */\n      dup3\n        /* \"#utility.yul\":2915:2916   */\n      dup3\n        /* \"#utility.yul\":2911:2920   */\n      mul\n        /* \"#utility.yul\":2900:2920   */\n      swap1\n      pop\n        /* \"#utility.yul\":2578:2926   */\n      swap3\n      swap2\n      pop\n      pop\n      jump\t// out\n        /* \"#utility.yul\":2932:3028   */\n    tag_84:\n        /* \"#utility.yul\":2969:2976   */\n      0x00\n        /* \"#utility.yul\":2998:3022   */\n      tag_119\n        /* \"#utility.yul\":3016:3021   */\n      dup3\n        /* \"#utility.yul\":2998:3022   */\n      tag_120\n      jump\t// in\n    tag_119:\n        /* \"#utility.yul\":2987:3022   */\n      swap1\n      pop\n        /* \"#utility.yul\":2932:3028   */\n      swap2\n      swap1\n      pop\n      jump\t// out\n        /* \"#utility.yul\":3034:3138   */\n    tag_80:\n        /* \"#utility.yul\":3079:3086   */\n      0x00\n        /* \"#utility.yul\":3108:3132   */\n      tag_122\n        /* \"#utility.yul\":3126:3131   */\n      dup3\n        /* \"#utility.yul\":3108:3132   */\n      tag_120\n      jump\t// in\n    tag_122:\n        /* \"#utility.yul\":3097:3132   */\n      swap1\n      pop\n        /* \"#utility.yul\":3034:3138   */\n      swap2\n      swap1\n      pop\n      jump\t// out\n        /* \"#utility.yul\":3144:3270   */\n    tag_120:\n        /* \"#utility.yul\":3181:3188   */\n      0x00\n        /* \"#utility.yul\":3221:3263   */\n      0xffffffffffffffffffffffffffffffffffffffff\n        /* \"#utility.yul\":3214:3219   */\n      dup3\n        /* \"#utility.yul\":3210:3264   */\n      and\n        /* \"#utility.yul\":3199:3264   */\n      swap1\n      pop\n        /* \"#utility.yul\":3144:3270   */\n      swap2\n      swap1\n      pop\n      jump\t// out\n        /* \"#utility.yul\":3276:3353   */\n    tag_88:\n        /* \"#utility.yul\":3313:3320   */\n      0x00\n        /* \"#utility.yul\":3342:3347   */\n      dup2\n        /* \"#utility.yul\":3331:3347   */\n      swap1\n      pop\n        /* \"#utility.yul\":3276:3353   */\n      swap2\n      swap1\n      pop\n      jump\t// out\n        /* \"#utility.yul\":3359:3438   */\n    tag_93:\n        /* \"#utility.yul\":3398:3405   */\n      0x00\n        /* \"#utility.yul\":3427:3432   */\n      dup2\n        /* \"#utility.yul\":3416:3432   */\n      swap1\n      pop\n        /* \"#utility.yul\":3359:3438   */\n      swap2\n      swap1\n      pop\n      jump\t// out\n        /* \"#utility.yul\":3444:3620   */\n    tag_37:\n        /* \"#utility.yul\":3476:3477   */\n      0x00\n        /* \"#utility.yul\":3493:3513   */\n      tag_127\n        /* \"#utility.yul\":3511:3512   */\n      dup3\n        /* \"#utility.yul\":3493:3513   */\n      tag_88\n      jump\t// in\n    tag_127:\n        /* \"#utility.yul\":3488:3513   */\n      swap2\n      pop\n        /* \"#utility.yul\":3527:3547   */\n      tag_128\n        /* \"#utility.yul\":3545:3546   */\n      dup4\n        /* \"#utility.yul\":3527:3547   */\n      tag_88\n      jump\t// in\n    tag_128:\n        /* \"#utility.yul\":3522:3547   */\n      swap3\n      pop\n        /* \"#utility.yul\":3566:3567   */\n      dup3\n        /* \"#utility.yul\":3556:3591   */\n      tag_129\n      jumpi\n        /* \"#utility.yul\":3571:3589   */\n      tag_130\n      tag_111\n      jump\t// in\n    tag_130:\n        /* \"#utility.yul\":3556:3591   */\n    tag_129:\n        /* \"#utility.yul\":3612:3613   */\n      dup3\n        /* \"#utility.yul\":3609:3610   */\n      dup3\n        /* \"#utility.yul\":3605:3614   */\n      mod\n        /* \"#utility.yul\":3600:3614   */\n      swap1\n      pop\n        /* \"#utility.yul\":3444:3620   */\n      swap3\n      swap2\n      pop\n      pop\n      jump\t// out\n        /* \"#utility.yul\":3626:3806   */\n    tag_117:\n        /* \"#utility.yul\":3674:3751   */\n      0x4e487b7100000000000000000000000000000000000000000000000000000000\n        /* \"#utility.yul\":3671:3672   */\n      0x00\n        /* \"#utility.yul\":3664:3752   */\n      mstore\n        /* \"#utility.yul\":3771:3775   */\n      0x11\n        /* \"#utility.yul\":3768:3769   */\n      0x04\n        /* \"#utility.yul\":3761:3776   */\n      mstore\n        /* \"#utility.yul\":3795:3799   */\n      0x24\n        /* \"#utility.yul\":3792:3793   */\n      0x00\n        /* \"#utility.yul\":3785:3800   */\n      revert\n        /* \"#utility.yul\":3812:3992   */\n    tag_111:\n        /* \"#utility.yul\":3860:3937   */\n      0x4e487b7100000000000000000000000000000000000000000000000000000000\n        /* \"#utility.yul\":3857:3858   */\n      0x00\n        /* \"#utility.yul\":3850:3938   */\n      mstore\n        /* \"#utility.yul\":3957:3961   */\n      0x12\n        /* \"#utility.yul\":3954:3955   */\n      0x04\n        /* \"#utility.yul\":3947:3962   */\n      mstore\n        /* \"#utility.yul\":3981:3985   */\n      0x24\n        /* \"#utility.yul\":3978:3979   */\n      0x00\n        /* \"#utility.yul\":3971:3986   */\n      revert\n        /* \"#utility.yul\":3998:4178   */\n    tag_40:\n        /* \"#utility.yul\":4046:4123   */\n      0x4e487b7100000000000000000000000000000000000000000000000000000000\n        /* \"#utility.yul\":4043:4044   */\n      0x00\n        /* \"#utility.yul\":4036:4124   */\n      mstore\n        /* \"#utility.yul\":4143:4147   */\n      0x32\n        /* \"#utility.yul\":4140:4141   */\n      0x04\n        /* \"#utility.yul\":4133:4148   */\n      mstore\n        /* \"#utility.yul\":4167:4171   */\n      0x24\n        /* \"#utility.yul\":4164:4165   */\n      0x00\n        /* \"#utility.yul\":4157:4172   */\n      revert\n        /* \"#utility.yul\":4184:4364   */\n    tag_51:\n        /* \"#utility.yul\":4232:4309   */\n      0x4e487b7100000000000000000000000000000000000000000000000000000000\n        /* \"#utility.yul\":4229:4230   */\n      0x00\n        /* \"#utility.yul\":4222:4310   */\n      mstore\n        /* \"#utility.yul\":4329:4333   */\n      0x41\n        /* \"#utility.yul\":4326:4327   */\n      0x04\n        /* \"#utility.yul\":4319:4334   */\n      mstore\n        /* \"#utility.yul\":4353:4357   */\n      0x24\n        /* \"#utility.yul\":4350:4351   */\n      0x00\n        /* \"#utility.yul\":4343:4358   */\n      revert\n        /* \"#utility.yul\":4493:4610   */\n    tag_75:\n        /* \"#utility.yul\":4602:4603   */\n      0x00\n        /* \"#utility.yul\":4599:4600   */\n      dup1\n        /* \"#utility.yul\":4592:4604   */\n      revert\n        /* \"#utility.yul\":4616:4738   */\n    tag_71:\n        /* \"#utility.yul\":4689:4713   */\n      tag_139\n        /* \"#utility.yul\":4707:4712   */\n      dup2\n        /* \"#utility.yul\":4689:4713   */\n      tag_88\n      jump\t// in\n    tag_139:\n        /* \"#utility.yul\":4682:4687   */\n      dup2\n        /* \"#utility.yul\":4679:4714   */\n      eq\n        /* \"#utility.yul\":4669:4732   */\n      tag_140\n      jumpi\n        /* \"#utility.yul\":4728:4729   */\n      0x00\n        /* \"#utility.yul\":4725:4726   */\n      dup1\n        /* \"#utility.yul\":4718:4730   */\n      revert\n        /* \"#utility.yul\":4669:4732   */\n    tag_140:\n        /* \"#utility.yul\":4616:4738   */\n      pop\n      jump\t// out\n\n    auxdata: 0xa2646970667358221220c9500fe6bb9677753ee02a51fb4c180ee9a06b92a6618802ffa3c1ab5c4df85f64736f6c63430008070033\n}\n",
				"bytecode": {
					"linkReferences": {},
					"object": "608060405234801561001057600080fd5b5033600160006101000a81548173ffffffffffffffffffffffffffffffffffffffff021916908373ffffffffffffffffffffffffffffffffffffffff16021790555061073b806100616000396000f3fe6080604052600436106100435760003560e01c806312065fe0146100c6578063481c6a75146100f15780635d495aea1461011c578063f71d96cb14610133576100c1565b366100c15767016345785d8a0000341461005c57600080fd5b6000339080600181540180825580915050600190039060005260206000200160009091909190916101000a81548173ffffffffffffffffffffffffffffffffffffffff021916908373ffffffffffffffffffffffffffffffffffffffff160217905550005b600080fd5b3480156100d257600080fd5b506100db610170565b6040516100e891906104fe565b60405180910390f35b3480156100fd57600080fd5b50610106610178565b60405161011391906104c8565b60405180910390f35b34801561012857600080fd5b5061013161019e565b005b34801561013f57600080fd5b5061015a6004803603810190610155919061041a565b6102e5565b60405161016791906104e3565b60405180910390f35b600047905090565b600160009054906101000a900473ffffffffffffffffffffffffffffffffffffffff1681565b600a60008054905010156101b157600080fd5b60006101bb610324565b9050600080600080549050836101d191906105fc565b9050600081815481106101e7576101e661068b565b5b9060005260206000200160009054906101000a900473ffffffffffffffffffffffffffffffffffffffff169150600061021e610170565b90508273ffffffffffffffffffffffffffffffffffffffff166108fc600a600984610249919061054a565b6102539190610519565b9081150290604051600060405180830381858888f1935050505015801561027e573d6000803e3d6000fd5b50600067ffffffffffffffff81111561029a576102996106ba565b5b6040519080825280602002602001820160405280156102c85781602001602082028036833780820191505090505b50600090805190602001906102de92919061035e565b5050505050565b600081815481106102f557600080fd5b906000526020600020016000915054906101000a900473ffffffffffffffffffffffffffffffffffffffff1681565b600044426000805490506040516020016103409392919061048b565b6040516020818303038152906040528051906020012060001c905090565b8280548282559060005260206000209081019282156103d7579160200282015b828111156103d65782518260006101000a81548173ffffffffffffffffffffffffffffffffffffffff021916908373ffffffffffffffffffffffffffffffffffffffff1602179055509160200191906001019061037e565b5b5090506103e491906103e8565b5090565b5b808211156104015760008160009055506001016103e9565b5090565b600081359050610414816106ee565b92915050565b6000602082840312156104305761042f6106e9565b5b600061043e84828501610405565b91505092915050565b610450816105b6565b82525050565b61045f816105a4565b82525050565b61046e816105e8565b82525050565b610485610480826105e8565b6105f2565b82525050565b60006104978286610474565b6020820191506104a78285610474565b6020820191506104b78284610474565b602082019150819050949350505050565b60006020820190506104dd6000830184610456565b92915050565b60006020820190506104f86000830184610447565b92915050565b60006020820190506105136000830184610465565b92915050565b6000610524826105e8565b915061052f836105e8565b92508261053f5761053e61065c565b5b828204905092915050565b6000610555826105e8565b9150610560836105e8565b9250817fffffffffffffffffffffffffffffffffffffffffffffffffffffffffffffffff04831182151516156105995761059861062d565b5b828202905092915050565b60006105af826105c8565b9050919050565b60006105c1826105c8565b9050919050565b600073ffffffffffffffffffffffffffffffffffffffff82169050919050565b6000819050919050565b6000819050919050565b6000610607826105e8565b9150610612836105e8565b9250826106225761062161065c565b5b828206905092915050565b7f4e487b7100000000000000000000000000000000000000000000000000000000600052601160045260246000fd5b7f4e487b7100000000000000000000000000000000000000000000000000000000600052601260045260246000fd5b7f4e487b7100000000000000000000000000000000000000000000000000000000600052603260045260246000fd5b7f4e487b7100000000000000000000000000000000000000000000000000000000600052604160045260246000fd5b600080fd5b6106f7816105e8565b811461070257600080fd5b5056fea2646970667358221220c9500fe6bb9677753ee02a51fb4c180ee9a06b92a6618802ffa3c1ab5c4df85f64736f6c63430008070033",
					"opcodes": "PUSH1 0x80 PUSH1 0x40 MSTORE CALLVALUE DUP1 ISZERO PUSH2 0x10 JUMPI PUSH1 0x0 DUP1 REVERT JUMPDEST POP CALLER PUSH1 0x1 PUSH1 0x0 PUSH2 0x100 EXP DUP2 SLOAD DUP2 PUSH20 0xFFFFFFFFFFFFFFFFFFFFFFFFFFFFFFFFFFFFFFFF MUL NOT AND SWAP1 DUP4 PUSH20 0xFFFFFFFFFFFFFFFFFFFFFFFFFFFFFFFFFFFFFFFF AND MUL OR SWAP1 SSTORE POP PUSH2 0x73B DUP1 PUSH2 0x61 PUSH1 0x0 CODECOPY PUSH1 0x0 RETURN INVALID PUSH1 0x80 PUSH1 0x40 MSTORE PUSH1 0x4 CALLDATASIZE LT PUSH2 0x43 JUMPI PUSH1 0x0 CALLDATALOAD PUSH1 0xE0 SHR DUP1 PUSH4 0x12065FE0 EQ PUSH2 0xC6 JUMPI DUP1 PUSH4 0x481C6A75 EQ PUSH2 0xF1 JUMPI DUP1 PUSH4 0x5D495AEA EQ PUSH2 0x11C JUMPI DUP1 PUSH4 0xF71D96CB EQ PUSH2 0x133 JUMPI PUSH2 0xC1 JUMP JUMPDEST CALLDATASIZE PUSH2 0xC1 JUMPI PUSH8 0x16345785D8A0000 CALLVALUE EQ PUSH2 0x5C JUMPI PUSH1 0x0 DUP1 REVERT JUMPDEST PUSH1 0x0 CALLER SWAP1 DUP1 PUSH1 0x1 DUP2 SLOAD ADD DUP1 DUP3 SSTORE DUP1 SWAP2 POP POP PUSH1 0x1 SWAP1 SUB SWAP1 PUSH1 0x0 MSTORE PUSH1 0x20 PUSH1 0x0 KECCAK256 ADD PUSH1 0x0 SWAP1 SWAP2 SWAP1 SWAP2 SWAP1 SWAP2 PUSH2 0x100 EXP DUP2 SLOAD DUP2 PUSH20 0xFFFFFFFFFFFFFFFFFFFFFFFFFFFFFFFFFFFFFFFF MUL NOT AND SWAP1 DUP4 PUSH20 0xFFFFFFFFFFFFFFFFFFFFFFFFFFFFFFFFFFFFFFFF AND MUL OR SWAP1 SSTORE POP STOP JUMPDEST PUSH1 0x0 DUP1 REVERT JUMPDEST CALLVALUE DUP1 ISZERO PUSH2 0xD2 JUMPI PUSH1 0x0 DUP1 REVERT JUMPDEST POP PUSH2 0xDB PUSH2 0x170 JUMP JUMPDEST PUSH1 0x40 MLOAD PUSH2 0xE8 SWAP2 SWAP1 PUSH2 0x4FE JUMP JUMPDEST PUSH1 0x40 MLOAD DUP1 SWAP2 SUB SWAP1 RETURN JUMPDEST CALLVALUE DUP1 ISZERO PUSH2 0xFD JUMPI PUSH1 0x0 DUP1 REVERT JUMPDEST POP PUSH2 0x106 PUSH2 0x178 JUMP JUMPDEST PUSH1 0x40 MLOAD PUSH2 0x113 SWAP2 SWAP1 PUSH2 0x4C8 JUMP JUMPDEST PUSH1 0x40 MLOAD DUP1 SWAP2 SUB SWAP1 RETURN JUMPDEST CALLVALUE DUP1 ISZERO PUSH2 0x128 JUMPI PUSH1 0x0 DUP1 REVERT JUMPDEST POP PUSH2 0x131 PUSH2 0x19E JUMP JUMPDEST STOP JUMPDEST CALLVALUE DUP1 ISZERO PUSH2 0x13F JUMPI PUSH1 0x0 DUP1 REVERT JUMPDEST POP PUSH2 0x15A PUSH1 0x4 DUP1 CALLDATASIZE SUB DUP2 ADD SWAP1 PUSH2 0x155 SWAP2 SWAP1 PUSH2 0x41A JUMP JUMPDEST PUSH2 0x2E5 JUMP JUMPDEST PUSH1 0x40 MLOAD PUSH2 0x167 SWAP2 SWAP1 PUSH2 0x4E3 JUMP JUMPDEST PUSH1 0x40 MLOAD DUP1 SWAP2 SUB SWAP1 RETURN JUMPDEST PUSH1 0x0 SELFBALANCE SWAP1 POP SWAP1 JUMP JUMPDEST PUSH1 0x1 PUSH1 0x0 SWAP1 SLOAD SWAP1 PUSH2 0x100 EXP SWAP1 DIV PUSH20 0xFFFFFFFFFFFFFFFFFFFFFFFFFFFFFFFFFFFFFFFF AND DUP2 JUMP JUMPDEST PUSH1 0xA PUSH1 0x0 DUP1 SLOAD SWAP1 POP LT ISZERO PUSH2 0x1B1 JUMPI PUSH1 0x0 DUP1 REVERT JUMPDEST PUSH1 0x0 PUSH2 0x1BB PUSH2 0x324 JUMP JUMPDEST SWAP1 POP PUSH1 0x0 DUP1 PUSH1 0x0 DUP1 SLOAD SWAP1 POP DUP4 PUSH2 0x1D1 SWAP2 SWAP1 PUSH2 0x5FC JUMP JUMPDEST SWAP1 POP PUSH1 0x0 DUP2 DUP2 SLOAD DUP2 LT PUSH2 0x1E7 JUMPI PUSH2 0x1E6 PUSH2 0x68B JUMP JUMPDEST JUMPDEST SWAP1 PUSH1 0x0 MSTORE PUSH1 0x20 PUSH1 0x0 KECCAK256 ADD PUSH1 0x0 SWAP1 SLOAD SWAP1 PUSH2 0x100 EXP SWAP1 DIV PUSH20 0xFFFFFFFFFFFFFFFFFFFFFFFFFFFFFFFFFFFFFFFF AND SWAP2 POP PUSH1 0x0 PUSH2 0x21E PUSH2 0x170 JUMP JUMPDEST SWAP1 POP DUP3 PUSH20 0xFFFFFFFFFFFFFFFFFFFFFFFFFFFFFFFFFFFFFFFF AND PUSH2 0x8FC PUSH1 0xA PUSH1 0x9 DUP5 PUSH2 0x249 SWAP2 SWAP1 PUSH2 0x54A JUMP JUMPDEST PUSH2 0x253 SWAP2 SWAP1 PUSH2 0x519 JUMP JUMPDEST SWAP1 DUP2 ISZERO MUL SWAP1 PUSH1 0x40 MLOAD PUSH1 0x0 PUSH1 0x40 MLOAD DUP1 DUP4 SUB DUP2 DUP6 DUP9 DUP9 CALL SWAP4 POP POP POP POP ISZERO DUP1 ISZERO PUSH2 0x27E JUMPI RETURNDATASIZE PUSH1 0x0 DUP1 RETURNDATACOPY RETURNDATASIZE PUSH1 0x0 REVERT JUMPDEST POP PUSH1 0x0 PUSH8 0xFFFFFFFFFFFFFFFF DUP2 GT ISZERO PUSH2 0x29A JUMPI PUSH2 0x299 PUSH2 0x6BA JUMP JUMPDEST JUMPDEST PUSH1 0x40 MLOAD SWAP1 DUP1 DUP3 MSTORE DUP1 PUSH1 0x20 MUL PUSH1 0x20 ADD DUP3 ADD PUSH1 0x40 MSTORE DUP1 ISZERO PUSH2 0x2C8 JUMPI DUP2 PUSH1 0x20 ADD PUSH1 0x20 DUP3 MUL DUP1 CALLDATASIZE DUP4 CALLDATACOPY DUP1 DUP3 ADD SWAP2 POP POP SWAP1 POP JUMPDEST POP PUSH1 0x0 SWAP1 DUP1 MLOAD SWAP1 PUSH1 0x20 ADD SWAP1 PUSH2 0x2DE SWAP3 SWAP2 SWAP1 PUSH2 0x35E JUMP JUMPDEST POP POP POP POP POP JUMP JUMPDEST PUSH1 0x0 DUP2 DUP2 SLOAD DUP2 LT PUSH2 0x2F5 JUMPI PUSH1 0x0 DUP1 REVERT JUMPDEST SWAP1 PUSH1 0x0 MSTORE PUSH1 0x20 PUSH1 0x0 KECCAK256 ADD PUSH1 0x0 SWAP2 POP SLOAD SWAP1 PUSH2 0x100 EXP SWAP1 DIV PUSH20 0xFFFFFFFFFFFFFFFFFFFFFFFFFFFFFFFFFFFFFFFF AND DUP2 JUMP JUMPDEST PUSH1 0x0 DIFFICULTY TIMESTAMP PUSH1 0x0 DUP1 SLOAD SWAP1 POP PUSH1 0x40 MLOAD PUSH1 0x20 ADD PUSH2 0x340 SWAP4 SWAP3 SWAP2 SWAP1 PUSH2 0x48B JUMP JUMPDEST PUSH1 0x40 MLOAD PUSH1 0x20 DUP2 DUP4 SUB SUB DUP2 MSTORE SWAP1 PUSH1 0x40 MSTORE DUP1 MLOAD SWAP1 PUSH1 0x20 ADD KECCAK256 PUSH1 0x0 SHR SWAP1 POP SWAP1 JUMP JUMPDEST DUP3 DUP1 SLOAD DUP3 DUP3 SSTORE SWAP1 PUSH1 0x0 MSTORE PUSH1 0x20 PUSH1 0x0 KECCAK256 SWAP1 DUP2 ADD SWAP3 DUP3 ISZERO PUSH2 0x3D7 JUMPI SWAP2 PUSH1 0x20 MUL DUP3 ADD JUMPDEST DUP3 DUP2 GT ISZERO PUSH2 0x3D6 JUMPI DUP3 MLOAD DUP3 PUSH1 0x0 PUSH2 0x100 EXP DUP2 SLOAD DUP2 PUSH20 0xFFFFFFFFFFFFFFFFFFFFFFFFFFFFFFFFFFFFFFFF MUL NOT AND SWAP1 DUP4 PUSH20 0xFFFFFFFFFFFFFFFFFFFFFFFFFFFFFFFFFFFFFFFF AND MUL OR SWAP1 SSTORE POP SWAP2 PUSH1 0x20 ADD SWAP2 SWAP1 PUSH1 0x1 ADD SWAP1 PUSH2 0x37E JUMP JUMPDEST JUMPDEST POP SWAP1 POP PUSH2 0x3E4 SWAP2 SWAP1 PUSH2 0x3E8 JUMP JUMPDEST POP SWAP1 JUMP JUMPDEST JUMPDEST DUP1 DUP3 GT ISZERO PUSH2 0x401 JUMPI PUSH1 0x0 DUP2 PUSH1 0x0 SWAP1 SSTORE POP PUSH1 0x1 ADD PUSH2 0x3E9 JUMP JUMPDEST POP SWAP1 JUMP JUMPDEST PUSH1 0x0 DUP2 CALLDATALOAD SWAP1 POP PUSH2 0x414 DUP2 PUSH2 0x6EE JUMP JUMPDEST SWAP3 SWAP2 POP POP JUMP JUMPDEST PUSH1 0x0 PUSH1 0x20 DUP3 DUP5 SUB SLT ISZERO PUSH2 0x430 JUMPI PUSH2 0x42F PUSH2 0x6E9 JUMP JUMPDEST JUMPDEST PUSH1 0x0 PUSH2 0x43E DUP5 DUP3 DUP6 ADD PUSH2 0x405 JUMP JUMPDEST SWAP2 POP POP SWAP3 SWAP2 POP POP JUMP JUMPDEST PUSH2 0x450 DUP2 PUSH2 0x5B6 JUMP JUMPDEST DUP3 MSTORE POP POP JUMP JUMPDEST PUSH2 0x45F DUP2 PUSH2 0x5A4 JUMP JUMPDEST DUP3 MSTORE POP POP JUMP JUMPDEST PUSH2 0x46E DUP2 PUSH2 0x5E8 JUMP JUMPDEST DUP3 MSTORE POP POP JUMP JUMPDEST PUSH2 0x485 PUSH2 0x480 DUP3 PUSH2 0x5E8 JUMP JUMPDEST PUSH2 0x5F2 JUMP JUMPDEST DUP3 MSTORE POP POP JUMP JUMPDEST PUSH1 0x0 PUSH2 0x497 DUP3 DUP7 PUSH2 0x474 JUMP JUMPDEST PUSH1 0x20 DUP3 ADD SWAP2 POP PUSH2 0x4A7 DUP3 DUP6 PUSH2 0x474 JUMP JUMPDEST PUSH1 0x20 DUP3 ADD SWAP2 POP PUSH2 0x4B7 DUP3 DUP5 PUSH2 0x474 JUMP JUMPDEST PUSH1 0x20 DUP3 ADD SWAP2 POP DUP2 SWAP1 POP SWAP5 SWAP4 POP POP POP POP JUMP JUMPDEST PUSH1 0x0 PUSH1 0x20 DUP3 ADD SWAP1 POP PUSH2 0x4DD PUSH1 0x0 DUP4 ADD DUP5 PUSH2 0x456 JUMP JUMPDEST SWAP3 SWAP2 POP POP JUMP JUMPDEST PUSH1 0x0 PUSH1 0x20 DUP3 ADD SWAP1 POP PUSH2 0x4F8 PUSH1 0x0 DUP4 ADD DUP5 PUSH2 0x447 JUMP JUMPDEST SWAP3 SWAP2 POP POP JUMP JUMPDEST PUSH1 0x0 PUSH1 0x20 DUP3 ADD SWAP1 POP PUSH2 0x513 PUSH1 0x0 DUP4 ADD DUP5 PUSH2 0x465 JUMP JUMPDEST SWAP3 SWAP2 POP POP JUMP JUMPDEST PUSH1 0x0 PUSH2 0x524 DUP3 PUSH2 0x5E8 JUMP JUMPDEST SWAP2 POP PUSH2 0x52F DUP4 PUSH2 0x5E8 JUMP JUMPDEST SWAP3 POP DUP3 PUSH2 0x53F JUMPI PUSH2 0x53E PUSH2 0x65C JUMP JUMPDEST JUMPDEST DUP3 DUP3 DIV SWAP1 POP SWAP3 SWAP2 POP POP JUMP JUMPDEST PUSH1 0x0 PUSH2 0x555 DUP3 PUSH2 0x5E8 JUMP JUMPDEST SWAP2 POP PUSH2 0x560 DUP4 PUSH2 0x5E8 JUMP JUMPDEST SWAP3 POP DUP2 PUSH32 0xFFFFFFFFFFFFFFFFFFFFFFFFFFFFFFFFFFFFFFFFFFFFFFFFFFFFFFFFFFFFFFFF DIV DUP4 GT DUP3 ISZERO ISZERO AND ISZERO PUSH2 0x599 JUMPI PUSH2 0x598 PUSH2 0x62D JUMP JUMPDEST JUMPDEST DUP3 DUP3 MUL SWAP1 POP SWAP3 SWAP2 POP POP JUMP JUMPDEST PUSH1 0x0 PUSH2 0x5AF DUP3 PUSH2 0x5C8 JUMP JUMPDEST SWAP1 POP SWAP2 SWAP1 POP JUMP JUMPDEST PUSH1 0x0 PUSH2 0x5C1 DUP3 PUSH2 0x5C8 JUMP JUMPDEST SWAP1 POP SWAP2 SWAP1 POP JUMP JUMPDEST PUSH1 0x0 PUSH20 0xFFFFFFFFFFFFFFFFFFFFFFFFFFFFFFFFFFFFFFFF DUP3 AND SWAP1 POP SWAP2 SWAP1 POP JUMP JUMPDEST PUSH1 0x0 DUP2 SWAP1 POP SWAP2 SWAP1 POP JUMP JUMPDEST PUSH1 0x0 DUP2 SWAP1 POP SWAP2 SWAP1 POP JUMP JUMPDEST PUSH1 0x0 PUSH2 0x607 DUP3 PUSH2 0x5E8 JUMP JUMPDEST SWAP2 POP PUSH2 0x612 DUP4 PUSH2 0x5E8 JUMP JUMPDEST SWAP3 POP DUP3 PUSH2 0x622 JUMPI PUSH2 0x621 PUSH2 0x65C JUMP JUMPDEST JUMPDEST DUP3 DUP3 MOD SWAP1 POP SWAP3 SWAP2 POP POP JUMP JUMPDEST PUSH32 0x4E487B7100000000000000000000000000000000000000000000000000000000 PUSH1 0x0 MSTORE PUSH1 0x11 PUSH1 0x4 MSTORE PUSH1 0x24 PUSH1 0x0 REVERT JUMPDEST PUSH32 0x4E487B7100000000000000000000000000000000000000000000000000000000 PUSH1 0x0 MSTORE PUSH1 0x12 PUSH1 0x4 MSTORE PUSH1 0x24 PUSH1 0x0 REVERT JUMPDEST PUSH32 0x4E487B7100000000000000000000000000000000000000000000000000000000 PUSH1 0x0 MSTORE PUSH1 0x32 PUSH1 0x4 MSTORE PUSH1 0x24 PUSH1 0x0 REVERT JUMPDEST PUSH32 0x4E487B7100000000000000000000000000000000000000000000000000000000 PUSH1 0x0 MSTORE PUSH1 0x41 PUSH1 0x4 MSTORE PUSH1 0x24 PUSH1 0x0 REVERT JUMPDEST PUSH1 0x0 DUP1 REVERT JUMPDEST PUSH2 0x6F7 DUP2 PUSH2 0x5E8 JUMP JUMPDEST DUP2 EQ PUSH2 0x702 JUMPI PUSH1 0x0 DUP1 REVERT JUMPDEST POP JUMP INVALID LOG2 PUSH5 0x6970667358 0x22 SLT KECCAK256 0xC9 POP 0xF 0xE6 0xBB SWAP7 PUSH24 0x753EE02A51FB4C180EE9A06B92A6618802FFA3C1AB5C4DF8 0x5F PUSH5 0x736F6C6343 STOP ADDMOD SMOD STOP CALLER "
				},
				"gasEstimates": {
					"creation": {
						"codeDepositCost": "370200",
						"executionCost": "24671",
						"totalCost": "394871"
					},
					"external": {
						"getBalance()": "317",
						"manager()": "2514",
						"pickWinner()": "infinite",
						"players(uint256)": "5000"
					},
					"internal": {
						"random()": "infinite"
					}
				},
				"methodIdentifiers": {
					"getBalance()": "12065fe0",
					"manager()": "481c6a75",
					"pickWinner()": "5d495aea",
					"players(uint256)": "f71d96cb"
				}
			},
			"storageLayout": {
				"storage": [
					{
						"astId": 4,
						"contract": "contracts/lottery_smart_contract_ch3.sol:Lottery",
						"label": "players",
						"offset": 0,
						"slot": "0",
						"type": "t_array(t_address_payable)dyn_storage"
					},
					{
						"astId": 6,
						"contract": "contracts/lottery_smart_contract_ch3.sol:Lottery",
						"label": "manager",
						"offset": 0,
						"slot": "1",
						"type": "t_address"
					}
				],
				"types": {
					"t_address": {
						"encoding": "inplace",
						"label": "address",
						"numberOfBytes": "20"
					},
					"t_address_payable": {
						"encoding": "inplace",
						"label": "address payable",
						"numberOfBytes": "20"
					},
					"t_array(t_address_payable)dyn_storage": {
						"base": "t_address_payable",
						"encoding": "dynamic_array",
						"label": "address payable[]",
						"numberOfBytes": "32"
					}
				}
			},
			"userdoc": {
				"kind": "user",
				"methods": {},
				"version": 1
			}
		}
	}
}