{
	"contracts/ContractThatDeploysAContract.sol": {
		"B": {
			"abi": [
				{
					"inputs": [],
					"name": "deployA",
					"outputs": [
						{
							"internalType": "contract A",
							"name": "",
							"type": "address"
						}
					],
					"stateMutability": "view",
					"type": "function"
				}
			],
			"devdoc": {
				"kind": "dev",
				"methods": {},
				"version": 1
			},
			"evm": {
				"assembly": "    /* \"contracts/ContractThatDeploysAContract.sol\":189:232  contract B{\r... */\n  mstore(0x40, 0x80)\n  callvalue\n  dup1\n  iszero\n  tag_1\n  jumpi\n  0x00\n  dup1\n  revert\ntag_1:\n  pop\n  dataSize(sub_0)\n  dup1\n  dataOffset(sub_0)\n  0x00\n  codecopy\n  0x00\n  return\nstop\n\nsub_0: assembly {\n        /* \"contracts/ContractThatDeploysAContract.sol\":189:232  contract B{\r... */\n      mstore(0x40, 0x80)\n      callvalue\n      dup1\n      iszero\n      tag_1\n      jumpi\n      0x00\n      dup1\n      revert\n    tag_1:\n      pop\n      jumpi(tag_2, lt(calldatasize, 0x04))\n      shr(0xe0, calldataload(0x00))\n      dup1\n      0xf4baaa61\n      eq\n      tag_3\n      jumpi\n    tag_2:\n      0x00\n      dup1\n      revert\n        /* \"contracts/ContractThatDeploysAContract.sol\":208:224  A public deployA */\n    tag_3:\n      tag_4\n      tag_5\n      jump\t// in\n    tag_4:\n      mload(0x40)\n      tag_6\n      swap2\n      swap1\n      tag_7\n      jump\t// in\n    tag_6:\n      mload(0x40)\n      dup1\n      swap2\n      sub\n      swap1\n      return\n    tag_5:\n      0x00\n      dup1\n      sload\n      swap1\n      0x0100\n      exp\n      swap1\n      div\n      0xffffffffffffffffffffffffffffffffffffffff\n      and\n      dup2\n      jump\t// out\n        /* \"#utility.yul\":7:154   */\n    tag_9:\n        /* \"#utility.yul\":102:147   */\n      tag_11\n        /* \"#utility.yul\":141:146   */\n      dup2\n        /* \"#utility.yul\":102:147   */\n      tag_12\n      jump\t// in\n    tag_11:\n        /* \"#utility.yul\":97:100   */\n      dup3\n        /* \"#utility.yul\":90:148   */\n      mstore\n        /* \"#utility.yul\":7:154   */\n      pop\n      pop\n      jump\t// out\n        /* \"#utility.yul\":160:398   */\n    tag_7:\n        /* \"#utility.yul\":261:265   */\n      0x00\n        /* \"#utility.yul\":299:301   */\n      0x20\n        /* \"#utility.yul\":288:297   */\n      dup3\n        /* \"#utility.yul\":284:302   */\n      add\n        /* \"#utility.yul\":276:302   */\n      swap1\n      pop\n        /* \"#utility.yul\":312:391   */\n      tag_14\n        /* \"#utility.yul\":388:389   */\n      0x00\n        /* \"#utility.yul\":377:386   */\n      dup4\n        /* \"#utility.yul\":373:390   */\n      add\n        /* \"#utility.yul\":364:370   */\n      dup5\n        /* \"#utility.yul\":312:391   */\n      tag_9\n      jump\t// in\n    tag_14:\n        /* \"#utility.yul\":160:398   */\n      swap3\n      swap2\n      pop\n      pop\n      jump\t// out\n        /* \"#utility.yul\":404:530   */\n    tag_15:\n        /* \"#utility.yul\":441:448   */\n      0x00\n        /* \"#utility.yul\":481:523   */\n      0xffffffffffffffffffffffffffffffffffffffff\n        /* \"#utility.yul\":474:479   */\n      dup3\n        /* \"#utility.yul\":470:524   */\n      and\n        /* \"#utility.yul\":459:524   */\n      swap1\n      pop\n        /* \"#utility.yul\":404:530   */\n      swap2\n      swap1\n      pop\n      jump\t// out\n        /* \"#utility.yul\":536:670   */\n    tag_12:\n        /* \"#utility.yul\":594:603   */\n      0x00\n        /* \"#utility.yul\":627:664   */\n      tag_18\n        /* \"#utility.yul\":658:663   */\n      dup3\n        /* \"#utility.yul\":627:664   */\n      tag_19\n      jump\t// in\n    tag_18:\n        /* \"#utility.yul\":614:664   */\n      swap1\n      pop\n        /* \"#utility.yul\":536:670   */\n      swap2\n      swap1\n      pop\n      jump\t// out\n        /* \"#utility.yul\":676:802   */\n    tag_19:\n        /* \"#utility.yul\":726:735   */\n      0x00\n        /* \"#utility.yul\":759:796   */\n      tag_21\n        /* \"#utility.yul\":790:795   */\n      dup3\n        /* \"#utility.yul\":759:796   */\n      tag_22\n      jump\t// in\n    tag_21:\n        /* \"#utility.yul\":746:796   */\n      swap1\n      pop\n        /* \"#utility.yul\":676:802   */\n      swap2\n      swap1\n      pop\n      jump\t// out\n        /* \"#utility.yul\":808:921   */\n    tag_22:\n        /* \"#utility.yul\":858:867   */\n      0x00\n        /* \"#utility.yul\":891:915   */\n      tag_24\n        /* \"#utility.yul\":909:914   */\n      dup3\n        /* \"#utility.yul\":891:915   */\n      tag_15\n      jump\t// in\n    tag_24:\n        /* \"#utility.yul\":878:915   */\n      swap1\n      pop\n        /* \"#utility.yul\":808:921   */\n      swap2\n      swap1\n      pop\n      jump\t// out\n\n    auxdata: 0xa2646970667358221220288d43b14529fa5a93e325f341ff00bed22174a8f1c8976b922353cb9b19d83364736f6c63430008070033\n}\n",
				"bytecode": {
					"linkReferences": {},
					"object": "608060405234801561001057600080fd5b50610117806100206000396000f3fe6080604052348015600f57600080fd5b506004361060285760003560e01c8063f4baaa6114602d575b600080fd5b60336047565b604051603e91906078565b60405180910390f35b60008054906101000a900473ffffffffffffffffffffffffffffffffffffffff1681565b60728160b1565b82525050565b6000602082019050608b6000830184606b565b92915050565b600073ffffffffffffffffffffffffffffffffffffffff82169050919050565b600060ba8260c1565b9050919050565b600060ca8260d1565b9050919050565b600060da826091565b905091905056fea2646970667358221220288d43b14529fa5a93e325f341ff00bed22174a8f1c8976b922353cb9b19d83364736f6c63430008070033",
					"opcodes": "PUSH1 0x80 PUSH1 0x40 MSTORE CALLVALUE DUP1 ISZERO PUSH2 0x10 JUMPI PUSH1 0x0 DUP1 REVERT JUMPDEST POP PUSH2 0x117 DUP1 PUSH2 0x20 PUSH1 0x0 CODECOPY PUSH1 0x0 RETURN INVALID PUSH1 0x80 PUSH1 0x40 MSTORE CALLVALUE DUP1 ISZERO PUSH1 0xF JUMPI PUSH1 0x0 DUP1 REVERT JUMPDEST POP PUSH1 0x4 CALLDATASIZE LT PUSH1 0x28 JUMPI PUSH1 0x0 CALLDATALOAD PUSH1 0xE0 SHR DUP1 PUSH4 0xF4BAAA61 EQ PUSH1 0x2D JUMPI JUMPDEST PUSH1 0x0 DUP1 REVERT JUMPDEST PUSH1 0x33 PUSH1 0x47 JUMP JUMPDEST PUSH1 0x40 MLOAD PUSH1 0x3E SWAP2 SWAP1 PUSH1 0x78 JUMP JUMPDEST PUSH1 0x40 MLOAD DUP1 SWAP2 SUB SWAP1 RETURN JUMPDEST PUSH1 0x0 DUP1 SLOAD SWAP1 PUSH2 0x100 EXP SWAP1 DIV PUSH20 0xFFFFFFFFFFFFFFFFFFFFFFFFFFFFFFFFFFFFFFFF AND DUP2 JUMP JUMPDEST PUSH1 0x72 DUP2 PUSH1 0xB1 JUMP JUMPDEST DUP3 MSTORE POP POP JUMP JUMPDEST PUSH1 0x0 PUSH1 0x20 DUP3 ADD SWAP1 POP PUSH1 0x8B PUSH1 0x0 DUP4 ADD DUP5 PUSH1 0x6B JUMP JUMPDEST SWAP3 SWAP2 POP POP JUMP JUMPDEST PUSH1 0x0 PUSH20 0xFFFFFFFFFFFFFFFFFFFFFFFFFFFFFFFFFFFFFFFF DUP3 AND SWAP1 POP SWAP2 SWAP1 POP JUMP JUMPDEST PUSH1 0x0 PUSH1 0xBA DUP3 PUSH1 0xC1 JUMP JUMPDEST SWAP1 POP SWAP2 SWAP1 POP JUMP JUMPDEST PUSH1 0x0 PUSH1 0xCA DUP3 PUSH1 0xD1 JUMP JUMPDEST SWAP1 POP SWAP2 SWAP1 POP JUMP JUMPDEST PUSH1 0x0 PUSH1 0xDA DUP3 PUSH1 0x91 JUMP JUMPDEST SWAP1 POP SWAP2 SWAP1 POP JUMP INVALID LOG2 PUSH5 0x6970667358 0x22 SLT KECCAK256 0x28 DUP14 NUMBER 0xB1 GASLIMIT 0x29 STATICCALL GAS SWAP4 0xE3 0x25 RETURN COINBASE SELFDESTRUCT STOP 0xBE 0xD2 0x21 PUSH21 0xA8F1C8976B922353CB9B19D83364736F6C63430008 SMOD STOP CALLER "
				},
				"gasEstimates": {
					"creation": {
						"codeDepositCost": "55800",
						"executionCost": "105",
						"totalCost": "55905"
					},
					"external": {
						"deployA()": "2575"
					}
				},
				"methodIdentifiers": {
					"deployA()": "f4baaa61"
				}
			},
			"storageLayout": {
				"storage": [
					{
						"astId": 16,
						"contract": "contracts/ContractThatDeploysAContract.sol:B",
						"label": "deployA",
						"offset": 0,
						"slot": "0",
						"type": "t_contract(A)13"
					}
				],
				"types": {
					"t_contract(A)13": {
						"encoding": "inplace",
						"label": "contract A",
						"numberOfBytes": "20"
					}
				}
			},
			"userdoc": {
				"kind": "user",
				"methods": {},
				"version": 1
			}
		}
	}
}