{
	"contracts/Erc20token.sol": {
		"icoContract": {
			"abi": [
				{
					"inputs": [
						{
							"internalType": "uint256",
							"name": "_duration",
							"type": "uint256"
						},
						{
							"internalType": "address payable",
							"name": "_depositAddress",
							"type": "address"
						}
					],
					"stateMutability": "nonpayable",
					"type": "constructor"
				},
				{
					"anonymous": false,
					"inputs": [
						{
							"indexed": true,
							"internalType": "address",
							"name": "tokenOwner",
							"type": "address"
						},
						{
							"indexed": true,
							"internalType": "address",
							"name": "spender",
							"type": "address"
						},
						{
							"indexed": false,
							"internalType": "uint256",
							"name": "tokens",
							"type": "uint256"
						}
					],
					"name": "Approval",
					"type": "event"
				},
				{
					"anonymous": false,
					"inputs": [
						{
							"indexed": false,
							"internalType": "address",
							"name": "_sender",
							"type": "address"
						},
						{
							"indexed": false,
							"internalType": "uint256",
							"name": "_amount",
							"type": "uint256"
						},
						{
							"indexed": false,
							"internalType": "uint256",
							"name": "_tokens",
							"type": "uint256"
						}
					],
					"name": "Invest",
					"type": "event"
				},
				{
					"anonymous": false,
					"inputs": [
						{
							"indexed": true,
							"internalType": "address",
							"name": "from",
							"type": "address"
						},
						{
							"indexed": true,
							"internalType": "address",
							"name": "to",
							"type": "address"
						},
						{
							"indexed": false,
							"internalType": "uint256",
							"name": "tokens",
							"type": "uint256"
						}
					],
					"name": "Transfer",
					"type": "event"
				},
				{
					"inputs": [],
					"name": "admin",
					"outputs": [
						{
							"internalType": "address",
							"name": "",
							"type": "address"
						}
					],
					"stateMutability": "view",
					"type": "function"
				},
				{
					"inputs": [
						{
							"internalType": "address",
							"name": "tokenOwner",
							"type": "address"
						},
						{
							"internalType": "address",
							"name": "spender",
							"type": "address"
						}
					],
					"name": "allowance",
					"outputs": [
						{
							"internalType": "uint256",
							"name": "remaining",
							"type": "uint256"
						}
					],
					"stateMutability": "view",
					"type": "function"
				},
				{
					"inputs": [
						{
							"internalType": "address",
							"name": "",
							"type": "address"
						},
						{
							"internalType": "address",
							"name": "",
							"type": "address"
						}
					],
					"name": "allowed",
					"outputs": [
						{
							"internalType": "uint256",
							"name": "",
							"type": "uint256"
						}
					],
					"stateMutability": "view",
					"type": "function"
				},
				{
					"inputs": [
						{
							"internalType": "address",
							"name": "spender",
							"type": "address"
						},
						{
							"internalType": "uint256",
							"name": "tokens",
							"type": "uint256"
						}
					],
					"name": "approve",
					"outputs": [
						{
							"internalType": "bool",
							"name": "success",
							"type": "bool"
						}
					],
					"stateMutability": "nonpayable",
					"type": "function"
				},
				{
					"inputs": [
						{
							"internalType": "address",
							"name": "tokenOwner",
							"type": "address"
						}
					],
					"name": "balanceOf",
					"outputs": [
						{
							"internalType": "uint256",
							"name": "balance",
							"type": "uint256"
						}
					],
					"stateMutability": "view",
					"type": "function"
				},
				{
					"inputs": [
						{
							"internalType": "address",
							"name": "",
							"type": "address"
						}
					],
					"name": "balances",
					"outputs": [
						{
							"internalType": "uint256",
							"name": "",
							"type": "uint256"
						}
					],
					"stateMutability": "view",
					"type": "function"
				},
				{
					"inputs": [],
					"name": "burnTokens",
					"outputs": [],
					"stateMutability": "nonpayable",
					"type": "function"
				},
				{
					"inputs": [
						{
							"internalType": "address payable",
							"name": "newDepositAddress",
							"type": "address"
						}
					],
					"name": "changeDepositAddress",
					"outputs": [],
					"stateMutability": "nonpayable",
					"type": "function"
				},
				{
					"inputs": [
						{
							"internalType": "uint256",
							"name": "_duration",
							"type": "uint256"
						}
					],
					"name": "changeEndTime",
					"outputs": [],
					"stateMutability": "nonpayable",
					"type": "function"
				},
				{
					"inputs": [
						{
							"internalType": "uint256",
							"name": "_minimumAmount",
							"type": "uint256"
						}
					],
					"name": "changeMaximumAmount",
					"outputs": [],
					"stateMutability": "nonpayable",
					"type": "function"
				},
				{
					"inputs": [
						{
							"internalType": "uint256",
							"name": "_maximumAmount",
							"type": "uint256"
						}
					],
					"name": "changeMinimumAmount",
					"outputs": [],
					"stateMutability": "nonpayable",
					"type": "function"
				},
				{
					"inputs": [],
					"name": "checkIcoState",
					"outputs": [
						{
							"internalType": "enum icoContract.State",
							"name": "",
							"type": "uint8"
						}
					],
					"stateMutability": "view",
					"type": "function"
				},
				{
					"inputs": [],
					"name": "decimals",
					"outputs": [
						{
							"internalType": "uint256",
							"name": "",
							"type": "uint256"
						}
					],
					"stateMutability": "view",
					"type": "function"
				},
				{
					"inputs": [],
					"name": "depositAddress",
					"outputs": [
						{
							"internalType": "address payable",
							"name": "",
							"type": "address"
						}
					],
					"stateMutability": "view",
					"type": "function"
				},
				{
					"inputs": [],
					"name": "endTime",
					"outputs": [
						{
							"internalType": "uint256",
							"name": "",
							"type": "uint256"
						}
					],
					"stateMutability": "view",
					"type": "function"
				},
				{
					"inputs": [],
					"name": "founder",
					"outputs": [
						{
							"internalType": "address",
							"name": "",
							"type": "address"
						}
					],
					"stateMutability": "view",
					"type": "function"
				},
				{
					"inputs": [],
					"name": "halt",
					"outputs": [],
					"stateMutability": "nonpayable",
					"type": "function"
				},
				{
					"inputs": [],
					"name": "hardCap",
					"outputs": [
						{
							"internalType": "uint256",
							"name": "",
							"type": "uint256"
						}
					],
					"stateMutability": "view",
					"type": "function"
				},
				{
					"inputs": [],
					"name": "icoState",
					"outputs": [
						{
							"internalType": "enum icoContract.State",
							"name": "",
							"type": "uint8"
						}
					],
					"stateMutability": "view",
					"type": "function"
				},
				{
					"inputs": [],
					"name": "invest",
					"outputs": [
						{
							"internalType": "bool",
							"name": "",
							"type": "bool"
						}
					],
					"stateMutability": "payable",
					"type": "function"
				},
				{
					"inputs": [],
					"name": "maximumAmount",
					"outputs": [
						{
							"internalType": "uint256",
							"name": "",
							"type": "uint256"
						}
					],
					"stateMutability": "view",
					"type": "function"
				},
				{
					"inputs": [],
					"name": "minimumAmount",
					"outputs": [
						{
							"internalType": "uint256",
							"name": "",
							"type": "uint256"
						}
					],
					"stateMutability": "view",
					"type": "function"
				},
				{
					"inputs": [],
					"name": "name",
					"outputs": [
						{
							"internalType": "string",
							"name": "",
							"type": "string"
						}
					],
					"stateMutability": "view",
					"type": "function"
				},
				{
					"inputs": [],
					"name": "raisedAmount",
					"outputs": [
						{
							"internalType": "uint256",
							"name": "",
							"type": "uint256"
						}
					],
					"stateMutability": "view",
					"type": "function"
				},
				{
					"inputs": [],
					"name": "resume",
					"outputs": [],
					"stateMutability": "nonpayable",
					"type": "function"
				},
				{
					"inputs": [],
					"name": "returnRaisedAmount",
					"outputs": [
						{
							"internalType": "uint256",
							"name": "",
							"type": "uint256"
						}
					],
					"stateMutability": "view",
					"type": "function"
				},
				{
					"inputs": [],
					"name": "startTime",
					"outputs": [
						{
							"internalType": "uint256",
							"name": "",
							"type": "uint256"
						}
					],
					"stateMutability": "view",
					"type": "function"
				},
				{
					"inputs": [],
					"name": "symbol",
					"outputs": [
						{
							"internalType": "string",
							"name": "",
							"type": "string"
						}
					],
					"stateMutability": "view",
					"type": "function"
				},
				{
					"inputs": [],
					"name": "totalSupply",
					"outputs": [
						{
							"internalType": "uint256",
							"name": "",
							"type": "uint256"
						}
					],
					"stateMutability": "view",
					"type": "function"
				},
				{
					"inputs": [
						{
							"internalType": "address",
							"name": "to",
							"type": "address"
						},
						{
							"internalType": "uint256",
							"name": "tokens",
							"type": "uint256"
						}
					],
					"name": "transfer",
					"outputs": [
						{
							"internalType": "bool",
							"name": "success",
							"type": "bool"
						}
					],
					"stateMutability": "nonpayable",
					"type": "function"
				},
				{
					"inputs": [
						{
							"internalType": "address",
							"name": "from",
							"type": "address"
						},
						{
							"internalType": "address",
							"name": "to",
							"type": "address"
						},
						{
							"internalType": "uint256",
							"name": "tokens",
							"type": "uint256"
						}
					],
					"name": "transferFrom",
					"outputs": [
						{
							"internalType": "bool",
							"name": "success",
							"type": "bool"
						}
					],
					"stateMutability": "nonpayable",
					"type": "function"
				},
				{
					"stateMutability": "payable",
					"type": "receive"
				}
			],
			"devdoc": {
				"kind": "dev",
				"methods": {},
				"version": 1
			},
			"evm": {
				"assembly": "    /* \"contracts/Erc20token.sol\":3296:8327  contract icoContract is MyToken{\r... */\n  mstore(0x40, 0x80)\n    /* \"contracts/Erc20token.sol\":1033:1062  string public name = \"ZILLAX\" */\n  mload(0x40)\n  dup1\n  0x40\n  add\n  0x40\n  mstore\n  dup1\n  0x06\n  dup2\n  mstore\n  0x20\n  add\n  0x5a494c4c41580000000000000000000000000000000000000000000000000000\n  dup2\n  mstore\n  pop\n  0x00\n  swap1\n  dup1\n  mload\n  swap1\n  0x20\n  add\n  swap1\n  tag_1\n  swap3\n  swap2\n  swap1\n  tag_2\n  jump\t// in\ntag_1:\n  pop\n    /* \"contracts/Erc20token.sol\":1069:1097  string public symbol = \"ZLZ\" */\n  mload(0x40)\n  dup1\n  0x40\n  add\n  0x40\n  mstore\n  dup1\n  0x03\n  dup2\n  mstore\n  0x20\n  add\n  0x5a4c5a0000000000000000000000000000000000000000000000000000000000\n  dup2\n  mstore\n  pop\n  0x01\n  swap1\n  dup1\n  mload\n  swap1\n  0x20\n  add\n  swap1\n  tag_3\n  swap3\n  swap2\n  swap1\n  tag_2\n  jump\t// in\ntag_3:\n  pop\n    /* \"contracts/Erc20token.sol\":1127:1128  0 */\n  0x00\n    /* \"contracts/Erc20token.sol\":1104:1128  uint public decimals = 0 */\n  0x02\n  sstore\n    /* \"contracts/Erc20token.sol\":3463:3474  0.001 ether */\n  0x038d7ea4c68000\n    /* \"contracts/Erc20token.sol\":3445:3474  uint tokenPrice = 0.001 ether */\n  0x08\n  sstore\n    /* \"contracts/Erc20token.sol\":3638:3645  5 ether */\n  0x4563918244f40000\n    /* \"contracts/Erc20token.sol\":3616:3645  uint public hardCap = 5 ether */\n  0x0a\n  sstore\n    /* \"contracts/Erc20token.sol\":3811:3826  block.timestamp */\n  timestamp\n    /* \"contracts/Erc20token.sol\":3787:3826  uint public startTime = block.timestamp */\n  0x0b\n  sstore\n    /* \"contracts/Erc20token.sol\":3936:3945  0.1 ether */\n  0x016345785d8a0000\n    /* \"contracts/Erc20token.sol\":3908:3945  uint public minimumAmount = 0.1 ether */\n  0x0d\n  sstore\n    /* \"contracts/Erc20token.sol\":3980:3987  1 ether */\n  0x0de0b6b3a7640000\n    /* \"contracts/Erc20token.sol\":3952:3987  uint public maximumAmount = 1 ether */\n  0x0e\n  sstore\n    /* \"contracts/Erc20token.sol\":4280:4601  constructor(uint _duration, address payable _depositAddress){\r... */\n  callvalue\n  dup1\n  iszero\n  tag_4\n  jumpi\n  0x00\n  dup1\n  revert\ntag_4:\n  pop\n  mload(0x40)\n  sub(codesize, bytecodeSize)\n  dup1\n  bytecodeSize\n  dup4\n  codecopy\n  dup2\n  dup2\n  add\n  0x40\n  mstore\n  dup2\n  add\n  swap1\n  tag_5\n  swap2\n  swap1\n  tag_6\n  jump\t// in\ntag_5:\n    /* \"contracts/Erc20token.sol\":1365:1372  1000000 */\n  0x0f4240\n    /* \"contracts/Erc20token.sol\":1351:1362  totalSupply */\n  0x04\n    /* \"contracts/Erc20token.sol\":1351:1372  totalSupply = 1000000 */\n  dup2\n  swap1\n  sstore\n  pop\n    /* \"contracts/Erc20token.sol\":1393:1403  msg.sender */\n  caller\n    /* \"contracts/Erc20token.sol\":1383:1390  founder */\n  0x03\n  0x00\n    /* \"contracts/Erc20token.sol\":1383:1403  founder = msg.sender */\n  0x0100\n  exp\n  dup2\n  sload\n  dup2\n  0xffffffffffffffffffffffffffffffffffffffff\n  mul\n  not\n  and\n  swap1\n  dup4\n  0xffffffffffffffffffffffffffffffffffffffff\n  and\n  mul\n  or\n  swap1\n  sstore\n  pop\n    /* \"contracts/Erc20token.sol\":1434:1445  totalSupply */\n  sload(0x04)\n    /* \"contracts/Erc20token.sol\":1414:1422  balances */\n  0x05\n    /* \"contracts/Erc20token.sol\":1414:1431  balances[founder] */\n  0x00\n    /* \"contracts/Erc20token.sol\":1423:1430  founder */\n  0x03\n  0x00\n  swap1\n  sload\n  swap1\n  0x0100\n  exp\n  swap1\n  div\n  0xffffffffffffffffffffffffffffffffffffffff\n  and\n    /* \"contracts/Erc20token.sol\":1414:1431  balances[founder] */\n  0xffffffffffffffffffffffffffffffffffffffff\n  and\n  0xffffffffffffffffffffffffffffffffffffffff\n  and\n  dup2\n  mstore\n  0x20\n  add\n  swap1\n  dup2\n  mstore\n  0x20\n  add\n  0x00\n  keccak256\n    /* \"contracts/Erc20token.sol\":1414:1445  balances[founder] = totalSupply */\n  dup2\n  swap1\n  sstore\n  pop\n    /* \"contracts/Erc20token.sol\":4362:4379  State.beforeStart */\n  0x00\n    /* \"contracts/Erc20token.sol\":4351:4359  icoState */\n  0x0f\n  0x00\n    /* \"contracts/Erc20token.sol\":4351:4379  icoState = State.beforeStart */\n  0x0100\n  exp\n  dup2\n  sload\n  dup2\n  0xff\n  mul\n  not\n  and\n  swap1\n  dup4\n  0x04\n  dup2\n  gt\n  iszero\n  tag_11\n  jumpi\n  tag_12\n  tag_13\n  jump\t// in\ntag_12:\ntag_11:\n  mul\n  or\n  swap1\n  sstore\n  pop\n    /* \"contracts/Erc20token.sol\":4427:4437  msg.sender */\n  caller\n    /* \"contracts/Erc20token.sol\":4419:4424  admin */\n  0x07\n  0x00\n    /* \"contracts/Erc20token.sol\":4419:4437  admin = msg.sender */\n  0x0100\n  exp\n  dup2\n  sload\n  dup2\n  0xffffffffffffffffffffffffffffffffffffffff\n  mul\n  not\n  and\n  swap1\n  dup4\n  0xffffffffffffffffffffffffffffffffffffffff\n  and\n  mul\n  or\n  swap1\n  sstore\n  pop\n    /* \"contracts/Erc20token.sol\":4502:4511  _duration */\n  dup2\n    /* \"contracts/Erc20token.sol\":4490:4499  startTime */\n  sload(0x0b)\n    /* \"contracts/Erc20token.sol\":4490:4511  startTime + _duration */\n  tag_14\n  swap2\n  swap1\n  tag_15\n  jump\t// in\ntag_14:\n    /* \"contracts/Erc20token.sol\":4480:4487  endTime */\n  0x0c\n    /* \"contracts/Erc20token.sol\":4480:4511  endTime = startTime + _duration */\n  dup2\n  swap1\n  sstore\n  pop\n    /* \"contracts/Erc20token.sol\":4576:4591  _depositAddress */\n  dup1\n    /* \"contracts/Erc20token.sol\":4559:4573  depositAddress */\n  0x0f\n  0x01\n    /* \"contracts/Erc20token.sol\":4559:4591  depositAddress = _depositAddress */\n  0x0100\n  exp\n  dup2\n  sload\n  dup2\n  0xffffffffffffffffffffffffffffffffffffffff\n  mul\n  not\n  and\n  swap1\n  dup4\n  0xffffffffffffffffffffffffffffffffffffffff\n  and\n  mul\n  or\n  swap1\n  sstore\n  pop\n    /* \"contracts/Erc20token.sol\":4280:4601  constructor(uint _duration, address payable _depositAddress){\r... */\n  pop\n  pop\n    /* \"contracts/Erc20token.sol\":3296:8327  contract icoContract is MyToken{\r... */\n  jump(tag_16)\ntag_2:\n  dup3\n  dup1\n  sload\n  tag_17\n  swap1\n  tag_18\n  jump\t// in\ntag_17:\n  swap1\n  0x00\n  mstore\n  keccak256(0x00, 0x20)\n  swap1\n  0x1f\n  add\n  0x20\n  swap1\n  div\n  dup2\n  add\n  swap3\n  dup3\n  tag_20\n  jumpi\n  0x00\n  dup6\n  sstore\n  jump(tag_19)\ntag_20:\n  dup3\n  0x1f\n  lt\n  tag_21\n  jumpi\n  dup1\n  mload\n  not(0xff)\n  and\n  dup4\n  dup1\n  add\n  or\n  dup6\n  sstore\n  jump(tag_19)\ntag_21:\n  dup3\n  dup1\n  add\n  0x01\n  add\n  dup6\n  sstore\n  dup3\n  iszero\n  tag_19\n  jumpi\n  swap2\n  dup3\n  add\ntag_22:\n  dup3\n  dup2\n  gt\n  iszero\n  tag_23\n  jumpi\n  dup3\n  mload\n  dup3\n  sstore\n  swap2\n  0x20\n  add\n  swap2\n  swap1\n  0x01\n  add\n  swap1\n  jump(tag_22)\ntag_23:\ntag_19:\n  pop\n  swap1\n  pop\n  tag_24\n  swap2\n  swap1\n  tag_25\n  jump\t// in\ntag_24:\n  pop\n  swap1\n  jump\t// out\ntag_25:\ntag_26:\n  dup1\n  dup3\n  gt\n  iszero\n  tag_27\n  jumpi\n  0x00\n  dup2\n  0x00\n  swap1\n  sstore\n  pop\n  0x01\n  add\n  jump(tag_26)\ntag_27:\n  pop\n  swap1\n  jump\t// out\n    /* \"#utility.yul\":7:166   */\ntag_29:\n    /* \"#utility.yul\":72:77   */\n  0x00\n    /* \"#utility.yul\":103:109   */\n  dup2\n    /* \"#utility.yul\":97:110   */\n  mload\n    /* \"#utility.yul\":88:110   */\n  swap1\n  pop\n    /* \"#utility.yul\":119:160   */\n  tag_31\n    /* \"#utility.yul\":154:159   */\n  dup2\n    /* \"#utility.yul\":119:160   */\n  tag_32\n  jump\t// in\ntag_31:\n    /* \"#utility.yul\":7:166   */\n  swap3\n  swap2\n  pop\n  pop\n  jump\t// out\n    /* \"#utility.yul\":172:315   */\ntag_33:\n    /* \"#utility.yul\":229:234   */\n  0x00\n    /* \"#utility.yul\":260:266   */\n  dup2\n    /* \"#utility.yul\":254:267   */\n  mload\n    /* \"#utility.yul\":245:267   */\n  swap1\n  pop\n    /* \"#utility.yul\":276:309   */\n  tag_35\n    /* \"#utility.yul\":303:308   */\n  dup2\n    /* \"#utility.yul\":276:309   */\n  tag_36\n  jump\t// in\ntag_35:\n    /* \"#utility.yul\":172:315   */\n  swap3\n  swap2\n  pop\n  pop\n  jump\t// out\n    /* \"#utility.yul\":321:844   */\ntag_6:\n    /* \"#utility.yul\":408:414   */\n  0x00\n    /* \"#utility.yul\":416:422   */\n  dup1\n    /* \"#utility.yul\":465:467   */\n  0x40\n    /* \"#utility.yul\":453:462   */\n  dup4\n    /* \"#utility.yul\":444:451   */\n  dup6\n    /* \"#utility.yul\":440:463   */\n  sub\n    /* \"#utility.yul\":436:468   */\n  slt\n    /* \"#utility.yul\":433:552   */\n  iszero\n  tag_38\n  jumpi\n    /* \"#utility.yul\":471:550   */\n  tag_39\n  tag_40\n  jump\t// in\ntag_39:\n    /* \"#utility.yul\":433:552   */\ntag_38:\n    /* \"#utility.yul\":591:592   */\n  0x00\n    /* \"#utility.yul\":616:680   */\n  tag_41\n    /* \"#utility.yul\":672:679   */\n  dup6\n    /* \"#utility.yul\":663:669   */\n  dup3\n    /* \"#utility.yul\":652:661   */\n  dup7\n    /* \"#utility.yul\":648:670   */\n  add\n    /* \"#utility.yul\":616:680   */\n  tag_33\n  jump\t// in\ntag_41:\n    /* \"#utility.yul\":606:680   */\n  swap3\n  pop\n    /* \"#utility.yul\":562:690   */\n  pop\n    /* \"#utility.yul\":729:731   */\n  0x20\n    /* \"#utility.yul\":755:827   */\n  tag_42\n    /* \"#utility.yul\":819:826   */\n  dup6\n    /* \"#utility.yul\":810:816   */\n  dup3\n    /* \"#utility.yul\":799:808   */\n  dup7\n    /* \"#utility.yul\":795:817   */\n  add\n    /* \"#utility.yul\":755:827   */\n  tag_29\n  jump\t// in\ntag_42:\n    /* \"#utility.yul\":745:827   */\n  swap2\n  pop\n    /* \"#utility.yul\":700:837   */\n  pop\n    /* \"#utility.yul\":321:844   */\n  swap3\n  pop\n  swap3\n  swap1\n  pop\n  jump\t// out\n    /* \"#utility.yul\":931:1236   */\ntag_15:\n    /* \"#utility.yul\":971:974   */\n  0x00\n    /* \"#utility.yul\":990:1010   */\n  tag_46\n    /* \"#utility.yul\":1008:1009   */\n  dup3\n    /* \"#utility.yul\":990:1010   */\n  tag_47\n  jump\t// in\ntag_46:\n    /* \"#utility.yul\":985:1010   */\n  swap2\n  pop\n    /* \"#utility.yul\":1024:1044   */\n  tag_48\n    /* \"#utility.yul\":1042:1043   */\n  dup4\n    /* \"#utility.yul\":1024:1044   */\n  tag_47\n  jump\t// in\ntag_48:\n    /* \"#utility.yul\":1019:1044   */\n  swap3\n  pop\n    /* \"#utility.yul\":1178:1179   */\n  dup3\n    /* \"#utility.yul\":1110:1176   */\n  0xffffffffffffffffffffffffffffffffffffffffffffffffffffffffffffffff\n    /* \"#utility.yul\":1106:1180   */\n  sub\n    /* \"#utility.yul\":1103:1104   */\n  dup3\n    /* \"#utility.yul\":1100:1181   */\n  gt\n    /* \"#utility.yul\":1097:1204   */\n  iszero\n  tag_49\n  jumpi\n    /* \"#utility.yul\":1184:1202   */\n  tag_50\n  tag_51\n  jump\t// in\ntag_50:\n    /* \"#utility.yul\":1097:1204   */\ntag_49:\n    /* \"#utility.yul\":1228:1229   */\n  dup3\n    /* \"#utility.yul\":1225:1226   */\n  dup3\n    /* \"#utility.yul\":1221:1230   */\n  add\n    /* \"#utility.yul\":1214:1230   */\n  swap1\n  pop\n    /* \"#utility.yul\":931:1236   */\n  swap3\n  swap2\n  pop\n  pop\n  jump\t// out\n    /* \"#utility.yul\":1242:1346   */\ntag_52:\n    /* \"#utility.yul\":1287:1294   */\n  0x00\n    /* \"#utility.yul\":1316:1340   */\n  tag_54\n    /* \"#utility.yul\":1334:1339   */\n  dup3\n    /* \"#utility.yul\":1316:1340   */\n  tag_55\n  jump\t// in\ntag_54:\n    /* \"#utility.yul\":1305:1340   */\n  swap1\n  pop\n    /* \"#utility.yul\":1242:1346   */\n  swap2\n  swap1\n  pop\n  jump\t// out\n    /* \"#utility.yul\":1352:1478   */\ntag_55:\n    /* \"#utility.yul\":1389:1396   */\n  0x00\n    /* \"#utility.yul\":1429:1471   */\n  0xffffffffffffffffffffffffffffffffffffffff\n    /* \"#utility.yul\":1422:1427   */\n  dup3\n    /* \"#utility.yul\":1418:1472   */\n  and\n    /* \"#utility.yul\":1407:1472   */\n  swap1\n  pop\n    /* \"#utility.yul\":1352:1478   */\n  swap2\n  swap1\n  pop\n  jump\t// out\n    /* \"#utility.yul\":1484:1561   */\ntag_47:\n    /* \"#utility.yul\":1521:1528   */\n  0x00\n    /* \"#utility.yul\":1550:1555   */\n  dup2\n    /* \"#utility.yul\":1539:1555   */\n  swap1\n  pop\n    /* \"#utility.yul\":1484:1561   */\n  swap2\n  swap1\n  pop\n  jump\t// out\n    /* \"#utility.yul\":1567:1887   */\ntag_18:\n    /* \"#utility.yul\":1611:1617   */\n  0x00\n    /* \"#utility.yul\":1648:1649   */\n  0x02\n    /* \"#utility.yul\":1642:1646   */\n  dup3\n    /* \"#utility.yul\":1638:1650   */\n  div\n    /* \"#utility.yul\":1628:1650   */\n  swap1\n  pop\n    /* \"#utility.yul\":1695:1696   */\n  0x01\n    /* \"#utility.yul\":1689:1693   */\n  dup3\n    /* \"#utility.yul\":1685:1697   */\n  and\n    /* \"#utility.yul\":1716:1734   */\n  dup1\n    /* \"#utility.yul\":1706:1787   */\n  tag_59\n  jumpi\n    /* \"#utility.yul\":1772:1776   */\n  0x7f\n    /* \"#utility.yul\":1764:1770   */\n  dup3\n    /* \"#utility.yul\":1760:1777   */\n  and\n    /* \"#utility.yul\":1750:1777   */\n  swap2\n  pop\n    /* \"#utility.yul\":1706:1787   */\ntag_59:\n    /* \"#utility.yul\":1834:1836   */\n  0x20\n    /* \"#utility.yul\":1826:1832   */\n  dup3\n    /* \"#utility.yul\":1823:1837   */\n  lt\n    /* \"#utility.yul\":1803:1821   */\n  dup2\n    /* \"#utility.yul\":1800:1838   */\n  eq\n    /* \"#utility.yul\":1797:1881   */\n  iszero\n  tag_60\n  jumpi\n    /* \"#utility.yul\":1853:1871   */\n  tag_61\n  tag_62\n  jump\t// in\ntag_61:\n    /* \"#utility.yul\":1797:1881   */\ntag_60:\n    /* \"#utility.yul\":1618:1887   */\n  pop\n    /* \"#utility.yul\":1567:1887   */\n  swap2\n  swap1\n  pop\n  jump\t// out\n    /* \"#utility.yul\":1893:2073   */\ntag_51:\n    /* \"#utility.yul\":1941:2018   */\n  0x4e487b7100000000000000000000000000000000000000000000000000000000\n    /* \"#utility.yul\":1938:1939   */\n  0x00\n    /* \"#utility.yul\":1931:2019   */\n  mstore\n    /* \"#utility.yul\":2038:2042   */\n  0x11\n    /* \"#utility.yul\":2035:2036   */\n  0x04\n    /* \"#utility.yul\":2028:2043   */\n  mstore\n    /* \"#utility.yul\":2062:2066   */\n  0x24\n    /* \"#utility.yul\":2059:2060   */\n  0x00\n    /* \"#utility.yul\":2052:2067   */\n  revert\n    /* \"#utility.yul\":2079:2259   */\ntag_13:\n    /* \"#utility.yul\":2127:2204   */\n  0x4e487b7100000000000000000000000000000000000000000000000000000000\n    /* \"#utility.yul\":2124:2125   */\n  0x00\n    /* \"#utility.yul\":2117:2205   */\n  mstore\n    /* \"#utility.yul\":2224:2228   */\n  0x21\n    /* \"#utility.yul\":2221:2222   */\n  0x04\n    /* \"#utility.yul\":2214:2229   */\n  mstore\n    /* \"#utility.yul\":2248:2252   */\n  0x24\n    /* \"#utility.yul\":2245:2246   */\n  0x00\n    /* \"#utility.yul\":2238:2253   */\n  revert\n    /* \"#utility.yul\":2265:2445   */\ntag_62:\n    /* \"#utility.yul\":2313:2390   */\n  0x4e487b7100000000000000000000000000000000000000000000000000000000\n    /* \"#utility.yul\":2310:2311   */\n  0x00\n    /* \"#utility.yul\":2303:2391   */\n  mstore\n    /* \"#utility.yul\":2410:2414   */\n  0x22\n    /* \"#utility.yul\":2407:2408   */\n  0x04\n    /* \"#utility.yul\":2400:2415   */\n  mstore\n    /* \"#utility.yul\":2434:2438   */\n  0x24\n    /* \"#utility.yul\":2431:2432   */\n  0x00\n    /* \"#utility.yul\":2424:2439   */\n  revert\n    /* \"#utility.yul\":2574:2691   */\ntag_40:\n    /* \"#utility.yul\":2683:2684   */\n  0x00\n    /* \"#utility.yul\":2680:2681   */\n  dup1\n    /* \"#utility.yul\":2673:2685   */\n  revert\n    /* \"#utility.yul\":2697:2835   */\ntag_32:\n    /* \"#utility.yul\":2778:2810   */\n  tag_70\n    /* \"#utility.yul\":2804:2809   */\n  dup2\n    /* \"#utility.yul\":2778:2810   */\n  tag_52\n  jump\t// in\ntag_70:\n    /* \"#utility.yul\":2771:2776   */\n  dup2\n    /* \"#utility.yul\":2768:2811   */\n  eq\n    /* \"#utility.yul\":2758:2829   */\n  tag_71\n  jumpi\n    /* \"#utility.yul\":2825:2826   */\n  0x00\n    /* \"#utility.yul\":2822:2823   */\n  dup1\n    /* \"#utility.yul\":2815:2827   */\n  revert\n    /* \"#utility.yul\":2758:2829   */\ntag_71:\n    /* \"#utility.yul\":2697:2835   */\n  pop\n  jump\t// out\n    /* \"#utility.yul\":2841:2963   */\ntag_36:\n    /* \"#utility.yul\":2914:2938   */\n  tag_73\n    /* \"#utility.yul\":2932:2937   */\n  dup2\n    /* \"#utility.yul\":2914:2938   */\n  tag_47\n  jump\t// in\ntag_73:\n    /* \"#utility.yul\":2907:2912   */\n  dup2\n    /* \"#utility.yul\":2904:2939   */\n  eq\n    /* \"#utility.yul\":2894:2957   */\n  tag_74\n  jumpi\n    /* \"#utility.yul\":2953:2954   */\n  0x00\n    /* \"#utility.yul\":2950:2951   */\n  dup1\n    /* \"#utility.yul\":2943:2955   */\n  revert\n    /* \"#utility.yul\":2894:2957   */\ntag_74:\n    /* \"#utility.yul\":2841:2963   */\n  pop\n  jump\t// out\n    /* \"contracts/Erc20token.sol\":3296:8327  contract icoContract is MyToken{\r... */\ntag_16:\n  dataSize(sub_0)\n  dup1\n  dataOffset(sub_0)\n  0x00\n  codecopy\n  0x00\n  return\nstop\n\nsub_0: assembly {\n        /* \"contracts/Erc20token.sol\":3296:8327  contract icoContract is MyToken{\r... */\n      mstore(0x40, 0x80)\n      jumpi(tag_1, lt(calldatasize, 0x04))\n      shr(0xe0, calldataload(0x00))\n      dup1\n      0x5ed7ca5b\n      gt\n      tag_34\n      jumpi\n      dup1\n      0xbb0c8298\n      gt\n      tag_35\n      jumpi\n      dup1\n      0xe8b5e51f\n      gt\n      tag_36\n      jumpi\n      dup1\n      0xe8b5e51f\n      eq\n      tag_30\n      jumpi\n      dup1\n      0xf4807944\n      eq\n      tag_31\n      jumpi\n      dup1\n      0xf851a440\n      eq\n      tag_32\n      jumpi\n      dup1\n      0xfb86a404\n      eq\n      tag_33\n      jumpi\n      jump(tag_2)\n    tag_36:\n      dup1\n      0xbb0c8298\n      eq\n      tag_26\n      jumpi\n      dup1\n      0xc59ee1dc\n      eq\n      tag_27\n      jumpi\n      dup1\n      0xcf942c79\n      eq\n      tag_28\n      jumpi\n      dup1\n      0xdd62ed3e\n      eq\n      tag_29\n      jumpi\n      jump(tag_2)\n    tag_35:\n      dup1\n      0x78e97925\n      gt\n      tag_37\n      jumpi\n      dup1\n      0x78e97925\n      eq\n      tag_22\n      jumpi\n      dup1\n      0x95d89b41\n      eq\n      tag_23\n      jumpi\n      dup1\n      0xa9059cbb\n      eq\n      tag_24\n      jumpi\n      dup1\n      0xa9bcea61\n      eq\n      tag_25\n      jumpi\n      jump(tag_2)\n    tag_37:\n      dup1\n      0x5ed7ca5b\n      eq\n      tag_18\n      jumpi\n      dup1\n      0x6d58c88f\n      eq\n      tag_19\n      jumpi\n      dup1\n      0x70a08231\n      eq\n      tag_20\n      jumpi\n      dup1\n      0x77eab3e3\n      eq\n      tag_21\n      jumpi\n      jump(tag_2)\n    tag_34:\n      dup1\n      0x28f833b7\n      gt\n      tag_38\n      jumpi\n      dup1\n      0x3197cbb6\n      gt\n      tag_39\n      jumpi\n      dup1\n      0x3197cbb6\n      eq\n      tag_14\n      jumpi\n      dup1\n      0x44f38756\n      eq\n      tag_15\n      jumpi\n      dup1\n      0x4d853ee5\n      eq\n      tag_16\n      jumpi\n      dup1\n      0x5c658165\n      eq\n      tag_17\n      jumpi\n      jump(tag_2)\n    tag_39:\n      dup1\n      0x28f833b7\n      eq\n      tag_10\n      jumpi\n      dup1\n      0x2942b61a\n      eq\n      tag_11\n      jumpi\n      dup1\n      0x3052b75e\n      eq\n      tag_12\n      jumpi\n      dup1\n      0x313ce567\n      eq\n      tag_13\n      jumpi\n      jump(tag_2)\n    tag_38:\n      dup1\n      0x095ea7b3\n      gt\n      tag_40\n      jumpi\n      dup1\n      0x095ea7b3\n      eq\n      tag_6\n      jumpi\n      dup1\n      0x18160ddd\n      eq\n      tag_7\n      jumpi\n      dup1\n      0x23b872dd\n      eq\n      tag_8\n      jumpi\n      dup1\n      0x27e235e3\n      eq\n      tag_9\n      jumpi\n      jump(tag_2)\n    tag_40:\n      dup1\n      0x046f7da2\n      eq\n      tag_3\n      jumpi\n      dup1\n      0x06fdde03\n      eq\n      tag_4\n      jumpi\n      dup1\n      0x08003f78\n      eq\n      tag_5\n      jumpi\n      jump(tag_2)\n    tag_1:\n      jumpi(tag_2, calldatasize)\n        /* \"contracts/Erc20token.sol\":7536:7544  invest() */\n      tag_43\n        /* \"contracts/Erc20token.sol\":7536:7542  invest */\n      tag_44\n        /* \"contracts/Erc20token.sol\":7536:7544  invest() */\n      jump\t// in\n    tag_43:\n      pop\n        /* \"contracts/Erc20token.sol\":3296:8327  contract icoContract is MyToken{\r... */\n      stop\n    tag_2:\n      0x00\n      dup1\n      revert\n        /* \"contracts/Erc20token.sol\":4894:4971  function resume() public onlyAdmin{\r... */\n    tag_3:\n      callvalue\n      dup1\n      iszero\n      tag_45\n      jumpi\n      0x00\n      dup1\n      revert\n    tag_45:\n      pop\n      tag_46\n      tag_47\n      jump\t// in\n    tag_46:\n      stop\n        /* \"contracts/Erc20token.sol\":1033:1062  string public name = \"ZILLAX\" */\n    tag_4:\n      callvalue\n      dup1\n      iszero\n      tag_48\n      jumpi\n      0x00\n      dup1\n      revert\n    tag_48:\n      pop\n      tag_49\n      tag_50\n      jump\t// in\n    tag_49:\n      mload(0x40)\n      tag_51\n      swap2\n      swap1\n      tag_52\n      jump\t// in\n    tag_51:\n      mload(0x40)\n      dup1\n      swap2\n      sub\n      swap1\n      return\n        /* \"contracts/Erc20token.sol\":8060:8322  function burnTokens() public {\r... */\n    tag_5:\n      callvalue\n      dup1\n      iszero\n      tag_53\n      jumpi\n      0x00\n      dup1\n      revert\n    tag_53:\n      pop\n      tag_54\n      tag_55\n      jump\t// in\n    tag_54:\n      stop\n        /* \"contracts/Erc20token.sol\":2233:2635  function approve(address spender, uint tokens) public override returns (bool success){\r... */\n    tag_6:\n      callvalue\n      dup1\n      iszero\n      tag_56\n      jumpi\n      0x00\n      dup1\n      revert\n    tag_56:\n      pop\n      tag_57\n      0x04\n      dup1\n      calldatasize\n      sub\n      dup2\n      add\n      swap1\n      tag_58\n      swap2\n      swap1\n      tag_59\n      jump\t// in\n    tag_58:\n      tag_60\n      jump\t// in\n    tag_57:\n      mload(0x40)\n      tag_61\n      swap2\n      swap1\n      tag_62\n      jump\t// in\n    tag_61:\n      mload(0x40)\n      dup1\n      swap2\n      sub\n      swap1\n      return\n        /* \"contracts/Erc20token.sol\":1168:1200  uint public override totalSupply */\n    tag_7:\n      callvalue\n      dup1\n      iszero\n      tag_63\n      jumpi\n      0x00\n      dup1\n      revert\n    tag_63:\n      pop\n      tag_64\n      tag_65\n      jump\t// in\n    tag_64:\n      mload(0x40)\n      tag_66\n      swap2\n      swap1\n      tag_67\n      jump\t// in\n    tag_66:\n      mload(0x40)\n      dup1\n      swap2\n      sub\n      swap1\n      return\n        /* \"contracts/Erc20token.sol\":7796:8052  function transferFrom(address from, address to, uint tokens) public override returns (bool success){\r... */\n    tag_8:\n      callvalue\n      dup1\n      iszero\n      tag_68\n      jumpi\n      0x00\n      dup1\n      revert\n    tag_68:\n      pop\n      tag_69\n      0x04\n      dup1\n      calldatasize\n      sub\n      dup2\n      add\n      swap1\n      tag_70\n      swap2\n      swap1\n      tag_71\n      jump\t// in\n    tag_70:\n      tag_72\n      jump\t// in\n    tag_69:\n      mload(0x40)\n      tag_73\n      swap2\n      swap1\n      tag_62\n      jump\t// in\n    tag_73:\n      mload(0x40)\n      dup1\n      swap2\n      sub\n      swap1\n      return\n        /* \"contracts/Erc20token.sol\":1209:1250  mapping(address => uint) public  balances */\n    tag_9:\n      callvalue\n      dup1\n      iszero\n      tag_74\n      jumpi\n      0x00\n      dup1\n      revert\n    tag_74:\n      pop\n      tag_75\n      0x04\n      dup1\n      calldatasize\n      sub\n      dup2\n      add\n      swap1\n      tag_76\n      swap2\n      swap1\n      tag_77\n      jump\t// in\n    tag_76:\n      tag_78\n      jump\t// in\n    tag_75:\n      mload(0x40)\n      tag_79\n      swap2\n      swap1\n      tag_67\n      jump\t// in\n    tag_79:\n      mload(0x40)\n      dup1\n      swap2\n      sub\n      swap1\n      return\n        /* \"contracts/Erc20token.sol\":4093:4130  address payable public depositAddress */\n    tag_10:\n      callvalue\n      dup1\n      iszero\n      tag_80\n      jumpi\n      0x00\n      dup1\n      revert\n    tag_80:\n      pop\n      tag_81\n      tag_82\n      jump\t// in\n    tag_81:\n      mload(0x40)\n      tag_83\n      swap2\n      swap1\n      tag_84\n      jump\t// in\n    tag_83:\n      mload(0x40)\n      dup1\n      swap2\n      sub\n      swap1\n      return\n        /* \"contracts/Erc20token.sol\":5504:5990  function checkIcoState() public view returns(State){\r... */\n    tag_11:\n      callvalue\n      dup1\n      iszero\n      tag_85\n      jumpi\n      0x00\n      dup1\n      revert\n    tag_85:\n      pop\n      tag_86\n      tag_87\n      jump\t// in\n    tag_86:\n      mload(0x40)\n      tag_88\n      swap2\n      swap1\n      tag_89\n      jump\t// in\n    tag_88:\n      mload(0x40)\n      dup1\n      swap2\n      sub\n      swap1\n      return\n        /* \"contracts/Erc20token.sol\":5239:5344  function changeEndTime(uint _duration) public onlyAdmin{\r... */\n    tag_12:\n      callvalue\n      dup1\n      iszero\n      tag_90\n      jumpi\n      0x00\n      dup1\n      revert\n    tag_90:\n      pop\n      tag_91\n      0x04\n      dup1\n      calldatasize\n      sub\n      dup2\n      add\n      swap1\n      tag_92\n      swap2\n      swap1\n      tag_93\n      jump\t// in\n    tag_92:\n      tag_94\n      jump\t// in\n    tag_91:\n      stop\n        /* \"contracts/Erc20token.sol\":1104:1128  uint public decimals = 0 */\n    tag_13:\n      callvalue\n      dup1\n      iszero\n      tag_95\n      jumpi\n      0x00\n      dup1\n      revert\n    tag_95:\n      pop\n      tag_96\n      tag_97\n      jump\t// in\n    tag_96:\n      mload(0x40)\n      tag_98\n      swap2\n      swap1\n      tag_67\n      jump\t// in\n    tag_98:\n      mload(0x40)\n      dup1\n      swap2\n      sub\n      swap1\n      return\n        /* \"contracts/Erc20token.sol\":3833:3852  uint public endTime */\n    tag_14:\n      callvalue\n      dup1\n      iszero\n      tag_99\n      jumpi\n      0x00\n      dup1\n      revert\n    tag_99:\n      pop\n      tag_100\n      tag_101\n      jump\t// in\n    tag_100:\n      mload(0x40)\n      tag_102\n      swap2\n      swap1\n      tag_67\n      jump\t// in\n    tag_102:\n      mload(0x40)\n      dup1\n      swap2\n      sub\n      swap1\n      return\n        /* \"contracts/Erc20token.sol\":4036:4057  State public icoState */\n    tag_15:\n      callvalue\n      dup1\n      iszero\n      tag_103\n      jumpi\n      0x00\n      dup1\n      revert\n    tag_103:\n      pop\n      tag_104\n      tag_105\n      jump\t// in\n    tag_104:\n      mload(0x40)\n      tag_106\n      swap2\n      swap1\n      tag_89\n      jump\t// in\n    tag_106:\n      mload(0x40)\n      dup1\n      swap2\n      sub\n      swap1\n      return\n        /* \"contracts/Erc20token.sol\":1137:1159  address public founder */\n    tag_16:\n      callvalue\n      dup1\n      iszero\n      tag_107\n      jumpi\n      0x00\n      dup1\n      revert\n    tag_107:\n      pop\n      tag_108\n      tag_109\n      jump\t// in\n    tag_108:\n      mload(0x40)\n      tag_110\n      swap2\n      swap1\n      tag_111\n      jump\t// in\n    tag_110:\n      mload(0x40)\n      dup1\n      swap2\n      sub\n      swap1\n      return\n        /* \"contracts/Erc20token.sol\":1259:1318  mapping(address => mapping(address => uint)) public allowed */\n    tag_17:\n      callvalue\n      dup1\n      iszero\n      tag_112\n      jumpi\n      0x00\n      dup1\n      revert\n    tag_112:\n      pop\n      tag_113\n      0x04\n      dup1\n      calldatasize\n      sub\n      dup2\n      add\n      swap1\n      tag_114\n      swap2\n      swap1\n      tag_115\n      jump\t// in\n    tag_114:\n      tag_116\n      jump\t// in\n    tag_113:\n      mload(0x40)\n      tag_117\n      swap2\n      swap1\n      tag_67\n      jump\t// in\n    tag_117:\n      mload(0x40)\n      dup1\n      swap2\n      sub\n      swap1\n      return\n        /* \"contracts/Erc20token.sol\":4802:4876  function halt() public onlyAdmin{\r... */\n    tag_18:\n      callvalue\n      dup1\n      iszero\n      tag_118\n      jumpi\n      0x00\n      dup1\n      revert\n    tag_118:\n      pop\n      tag_119\n      tag_120\n      jump\t// in\n    tag_119:\n      stop\n        /* \"contracts/Erc20token.sol\":5362:5496  function changeDepositAddress(address payable newDepositAddress) public onlyAdmin{\r... */\n    tag_19:\n      callvalue\n      dup1\n      iszero\n      tag_121\n      jumpi\n      0x00\n      dup1\n      revert\n    tag_121:\n      pop\n      tag_122\n      0x04\n      dup1\n      calldatasize\n      sub\n      dup2\n      add\n      swap1\n      tag_123\n      swap2\n      swap1\n      tag_124\n      jump\t// in\n    tag_123:\n      tag_125\n      jump\t// in\n    tag_122:\n      stop\n        /* \"contracts/Erc20token.sol\":1461:1589  function balanceOf(address tokenOwner) public override view returns (uint balance){\r... */\n    tag_20:\n      callvalue\n      dup1\n      iszero\n      tag_126\n      jumpi\n      0x00\n      dup1\n      revert\n    tag_126:\n      pop\n      tag_127\n      0x04\n      dup1\n      calldatasize\n      sub\n      dup2\n      add\n      swap1\n      tag_128\n      swap2\n      swap1\n      tag_77\n      jump\t// in\n    tag_128:\n      tag_129\n      jump\t// in\n    tag_127:\n      mload(0x40)\n      tag_130\n      swap2\n      swap1\n      tag_67\n      jump\t// in\n    tag_130:\n      mload(0x40)\n      dup1\n      swap2\n      sub\n      swap1\n      return\n        /* \"contracts/Erc20token.sol\":5116:5231  function changeMinimumAmount(uint _maximumAmount) public onlyAdmin{\r... */\n    tag_21:\n      callvalue\n      dup1\n      iszero\n      tag_131\n      jumpi\n      0x00\n      dup1\n      revert\n    tag_131:\n      pop\n      tag_132\n      0x04\n      dup1\n      calldatasize\n      sub\n      dup2\n      add\n      swap1\n      tag_133\n      swap2\n      swap1\n      tag_93\n      jump\t// in\n    tag_133:\n      tag_134\n      jump\t// in\n    tag_132:\n      stop\n        /* \"contracts/Erc20token.sol\":3787:3826  uint public startTime = block.timestamp */\n    tag_22:\n      callvalue\n      dup1\n      iszero\n      tag_135\n      jumpi\n      0x00\n      dup1\n      revert\n    tag_135:\n      pop\n      tag_136\n      tag_137\n      jump\t// in\n    tag_136:\n      mload(0x40)\n      tag_138\n      swap2\n      swap1\n      tag_67\n      jump\t// in\n    tag_138:\n      mload(0x40)\n      dup1\n      swap2\n      sub\n      swap1\n      return\n        /* \"contracts/Erc20token.sol\":1069:1097  string public symbol = \"ZLZ\" */\n    tag_23:\n      callvalue\n      dup1\n      iszero\n      tag_139\n      jumpi\n      0x00\n      dup1\n      revert\n    tag_139:\n      pop\n      tag_140\n      tag_141\n      jump\t// in\n    tag_140:\n      mload(0x40)\n      tag_142\n      swap2\n      swap1\n      tag_52\n      jump\t// in\n    tag_142:\n      mload(0x40)\n      dup1\n      swap2\n      sub\n      swap1\n      return\n        /* \"contracts/Erc20token.sol\":7560:7788  function transfer(address to, uint tokens) public override returns (bool success){\r... */\n    tag_24:\n      callvalue\n      dup1\n      iszero\n      tag_143\n      jumpi\n      0x00\n      dup1\n      revert\n    tag_143:\n      pop\n      tag_144\n      0x04\n      dup1\n      calldatasize\n      sub\n      dup2\n      add\n      swap1\n      tag_145\n      swap2\n      swap1\n      tag_59\n      jump\t// in\n    tag_145:\n      tag_146\n      jump\t// in\n    tag_144:\n      mload(0x40)\n      tag_147\n      swap2\n      swap1\n      tag_62\n      jump\t// in\n    tag_147:\n      mload(0x40)\n      dup1\n      swap2\n      sub\n      swap1\n      return\n        /* \"contracts/Erc20token.sol\":3952:3987  uint public maximumAmount = 1 ether */\n    tag_25:\n      callvalue\n      dup1\n      iszero\n      tag_148\n      jumpi\n      0x00\n      dup1\n      revert\n    tag_148:\n      pop\n      tag_149\n      tag_150\n      jump\t// in\n    tag_149:\n      mload(0x40)\n      tag_151\n      swap2\n      swap1\n      tag_67\n      jump\t// in\n    tag_151:\n      mload(0x40)\n      dup1\n      swap2\n      sub\n      swap1\n      return\n        /* \"contracts/Erc20token.sol\":3908:3945  uint public minimumAmount = 0.1 ether */\n    tag_26:\n      callvalue\n      dup1\n      iszero\n      tag_152\n      jumpi\n      0x00\n      dup1\n      revert\n    tag_152:\n      pop\n      tag_153\n      tag_154\n      jump\t// in\n    tag_153:\n      mload(0x40)\n      tag_155\n      swap2\n      swap1\n      tag_67\n      jump\t// in\n    tag_155:\n      mload(0x40)\n      dup1\n      swap2\n      sub\n      swap1\n      return\n        /* \"contracts/Erc20token.sol\":3533:3557  uint public raisedAmount */\n    tag_27:\n      callvalue\n      dup1\n      iszero\n      tag_156\n      jumpi\n      0x00\n      dup1\n      revert\n    tag_156:\n      pop\n      tag_157\n      tag_158\n      jump\t// in\n    tag_157:\n      mload(0x40)\n      tag_159\n      swap2\n      swap1\n      tag_67\n      jump\t// in\n    tag_159:\n      mload(0x40)\n      dup1\n      swap2\n      sub\n      swap1\n      return\n        /* \"contracts/Erc20token.sol\":4989:5104  function changeMaximumAmount(uint _minimumAmount) public onlyAdmin{\r... */\n    tag_28:\n      callvalue\n      dup1\n      iszero\n      tag_160\n      jumpi\n      0x00\n      dup1\n      revert\n    tag_160:\n      pop\n      tag_161\n      0x04\n      dup1\n      calldatasize\n      sub\n      dup2\n      add\n      swap1\n      tag_162\n      swap2\n      swap1\n      tag_93\n      jump\t// in\n    tag_162:\n      tag_163\n      jump\t// in\n    tag_161:\n      stop\n        /* \"contracts/Erc20token.sol\":2070:2225  function allowance(address tokenOwner, address spender) public override view returns (uint remaining){\r... */\n    tag_29:\n      callvalue\n      dup1\n      iszero\n      tag_164\n      jumpi\n      0x00\n      dup1\n      revert\n    tag_164:\n      pop\n      tag_165\n      0x04\n      dup1\n      calldatasize\n      sub\n      dup2\n      add\n      swap1\n      tag_166\n      swap2\n      swap1\n      tag_115\n      jump\t// in\n    tag_166:\n      tag_167\n      jump\t// in\n    tag_165:\n      mload(0x40)\n      tag_168\n      swap2\n      swap1\n      tag_67\n      jump\t// in\n    tag_168:\n      mload(0x40)\n      dup1\n      swap2\n      sub\n      swap1\n      return\n        /* \"contracts/Erc20token.sol\":6140:7490  function invest() payable public returns(bool){\r... */\n    tag_30:\n      tag_169\n      tag_44\n      jump\t// in\n    tag_169:\n      mload(0x40)\n      tag_170\n      swap2\n      swap1\n      tag_62\n      jump\t// in\n    tag_170:\n      mload(0x40)\n      dup1\n      swap2\n      sub\n      swap1\n      return\n        /* \"contracts/Erc20token.sol\":5998:6091  function returnRaisedAmount() public view returns(uint){\r... */\n    tag_31:\n      callvalue\n      dup1\n      iszero\n      tag_171\n      jumpi\n      0x00\n      dup1\n      revert\n    tag_171:\n      pop\n      tag_172\n      tag_173\n      jump\t// in\n    tag_172:\n      mload(0x40)\n      tag_174\n      swap2\n      swap1\n      tag_67\n      jump\t// in\n    tag_174:\n      mload(0x40)\n      dup1\n      swap2\n      sub\n      swap1\n      return\n        /* \"contracts/Erc20token.sol\":3336:3356  address public admin */\n    tag_32:\n      callvalue\n      dup1\n      iszero\n      tag_175\n      jumpi\n      0x00\n      dup1\n      revert\n    tag_175:\n      pop\n      tag_176\n      tag_177\n      jump\t// in\n    tag_176:\n      mload(0x40)\n      tag_178\n      swap2\n      swap1\n      tag_111\n      jump\t// in\n    tag_178:\n      mload(0x40)\n      dup1\n      swap2\n      sub\n      swap1\n      return\n        /* \"contracts/Erc20token.sol\":3616:3645  uint public hardCap = 5 ether */\n    tag_33:\n      callvalue\n      dup1\n      iszero\n      tag_179\n      jumpi\n      0x00\n      dup1\n      revert\n    tag_179:\n      pop\n      tag_180\n      tag_181\n      jump\t// in\n    tag_180:\n      mload(0x40)\n      tag_182\n      swap2\n      swap1\n      tag_67\n      jump\t// in\n    tag_182:\n      mload(0x40)\n      dup1\n      swap2\n      sub\n      swap1\n      return\n        /* \"contracts/Erc20token.sol\":6140:7490  function invest() payable public returns(bool){\r... */\n    tag_44:\n        /* \"contracts/Erc20token.sol\":6181:6185  bool */\n      0x00\n        /* \"contracts/Erc20token.sol\":6248:6263  checkIcoState() */\n      tag_184\n        /* \"contracts/Erc20token.sol\":6248:6261  checkIcoState */\n      tag_87\n        /* \"contracts/Erc20token.sol\":6248:6263  checkIcoState() */\n      jump\t// in\n    tag_184:\n        /* \"contracts/Erc20token.sol\":6237:6245  icoState */\n      0x0f\n      0x00\n        /* \"contracts/Erc20token.sol\":6237:6263  icoState = checkIcoState() */\n      0x0100\n      exp\n      dup2\n      sload\n      dup2\n      0xff\n      mul\n      not\n      and\n      swap1\n      dup4\n      0x04\n      dup2\n      gt\n      iszero\n      tag_185\n      jumpi\n      tag_186\n      tag_187\n      jump\t// in\n    tag_186:\n    tag_185:\n      mul\n      or\n      swap1\n      sstore\n      pop\n        /* \"contracts/Erc20token.sol\":6294:6307  State.Running */\n      0x01\n        /* \"contracts/Erc20token.sol\":6282:6307  icoState == State.Running */\n      0x04\n      dup2\n      gt\n      iszero\n      tag_188\n      jumpi\n      tag_189\n      tag_187\n      jump\t// in\n    tag_189:\n    tag_188:\n        /* \"contracts/Erc20token.sol\":6282:6290  icoState */\n      0x0f\n      0x00\n      swap1\n      sload\n      swap1\n      0x0100\n      exp\n      swap1\n      div\n      0xff\n      and\n        /* \"contracts/Erc20token.sol\":6282:6307  icoState == State.Running */\n      0x04\n      dup2\n      gt\n      iszero\n      tag_190\n      jumpi\n      tag_191\n      tag_187\n      jump\t// in\n    tag_191:\n    tag_190:\n      eq\n        /* \"contracts/Erc20token.sol\":6274:6344  require(icoState == State.Running, \"Amount must be greater than zero\") */\n      tag_192\n      jumpi\n      mload(0x40)\n      0x08c379a000000000000000000000000000000000000000000000000000000000\n      dup2\n      mstore\n      0x04\n      add\n      tag_193\n      swap1\n      tag_194\n      jump\t// in\n    tag_193:\n      mload(0x40)\n      dup1\n      swap2\n      sub\n      swap1\n      revert\n    tag_192:\n        /* \"contracts/Erc20token.sol\":6516:6532  string memory s1 */\n      0x00\n        /* \"contracts/Erc20token.sol\":6594:6607  minimumAmount */\n      sload(0x0d)\n        /* \"contracts/Erc20token.sol\":6542:6608  abi.encodePacked(\"Amount cannot not be lower than\", minimumAmount) */\n      add(0x20, mload(0x40))\n      tag_195\n      swap2\n      swap1\n      tag_196\n      jump\t// in\n    tag_195:\n      mload(0x40)\n      0x20\n      dup2\n      dup4\n      sub\n      sub\n      dup2\n      mstore\n      swap1\n      0x40\n      mstore\n        /* \"contracts/Erc20token.sol\":6516:6609  string memory s1 = string(abi.encodePacked(\"Amount cannot not be lower than\", minimumAmount)) */\n      swap1\n      pop\n        /* \"contracts/Erc20token.sol\":6620:6636  string memory s2 */\n      0x00\n        /* \"contracts/Erc20token.sol\":6700:6713  maximumAmount */\n      sload(0x0e)\n        /* \"contracts/Erc20token.sol\":6646:6714  abi.encodePacked(\"Amount cannot not be higgher than\", maximumAmount) */\n      add(0x20, mload(0x40))\n      tag_197\n      swap2\n      swap1\n      tag_198\n      jump\t// in\n    tag_197:\n      mload(0x40)\n      0x20\n      dup2\n      dup4\n      sub\n      sub\n      dup2\n      mstore\n      swap1\n      0x40\n      mstore\n        /* \"contracts/Erc20token.sol\":6620:6715  string memory s2 = string(abi.encodePacked(\"Amount cannot not be higgher than\", maximumAmount)) */\n      swap1\n      pop\n        /* \"contracts/Erc20token.sol\":6726:6742  string memory s3 */\n      0x00\n        /* \"contracts/Erc20token.sol\":6769:6771  s1 */\n      dup3\n        /* \"contracts/Erc20token.sol\":6773:6775  s2 */\n      dup3\n        /* \"contracts/Erc20token.sol\":6752:6776  abi.encodePacked(s1, s2) */\n      add(0x20, mload(0x40))\n      tag_199\n      swap3\n      swap2\n      swap1\n      tag_200\n      jump\t// in\n    tag_199:\n      mload(0x40)\n      0x20\n      dup2\n      dup4\n      sub\n      sub\n      dup2\n      mstore\n      swap1\n      0x40\n      mstore\n        /* \"contracts/Erc20token.sol\":6726:6777  string memory s3 = string(abi.encodePacked(s1, s2)) */\n      swap1\n      pop\n        /* \"contracts/Erc20token.sol\":6809:6822  minimumAmount */\n      sload(0x0d)\n        /* \"contracts/Erc20token.sol\":6796:6805  msg.value */\n      callvalue\n        /* \"contracts/Erc20token.sol\":6796:6822  msg.value >= minimumAmount */\n      lt\n      iszero\n        /* \"contracts/Erc20token.sol\":6796:6852  msg.value >= minimumAmount && msg.value <= maximumAmount */\n      dup1\n      iszero\n      tag_201\n      jumpi\n      pop\n        /* \"contracts/Erc20token.sol\":6839:6852  maximumAmount */\n      sload(0x0e)\n        /* \"contracts/Erc20token.sol\":6826:6835  msg.value */\n      callvalue\n        /* \"contracts/Erc20token.sol\":6826:6852  msg.value <= maximumAmount */\n      gt\n      iszero\n        /* \"contracts/Erc20token.sol\":6796:6852  msg.value >= minimumAmount && msg.value <= maximumAmount */\n    tag_201:\n        /* \"contracts/Erc20token.sol\":6854:6856  s3 */\n      dup2\n        /* \"contracts/Erc20token.sol\":6788:6857  require(msg.value >= minimumAmount && msg.value <= maximumAmount, s3) */\n      swap1\n      tag_202\n      jumpi\n      mload(0x40)\n      0x08c379a000000000000000000000000000000000000000000000000000000000\n      dup2\n      mstore\n      0x04\n      add\n      tag_203\n      swap2\n      swap1\n      tag_52\n      jump\t// in\n    tag_203:\n      mload(0x40)\n      dup1\n      swap2\n      sub\n      swap1\n      revert\n    tag_202:\n      pop\n        /* \"contracts/Erc20token.sol\":6870:6881  uint amount */\n      0x00\n        /* \"contracts/Erc20token.sol\":6899:6908  msg.value */\n      callvalue\n        /* \"contracts/Erc20token.sol\":6884:6896  raisedAmount */\n      sload(0x09)\n        /* \"contracts/Erc20token.sol\":6884:6908  raisedAmount + msg.value */\n      tag_204\n      swap2\n      swap1\n      tag_205\n      jump\t// in\n    tag_204:\n        /* \"contracts/Erc20token.sol\":6870:6908  uint amount = raisedAmount + msg.value */\n      swap1\n      pop\n        /* \"contracts/Erc20token.sol\":6937:6944  hardCap */\n      sload(0x0a)\n        /* \"contracts/Erc20token.sol\":6927:6933  amount */\n      dup2\n        /* \"contracts/Erc20token.sol\":6927:6944  amount <= hardCap */\n      gt\n      iszero\n        /* \"contracts/Erc20token.sol\":6919:6997  require(amount <= hardCap, \"The maximum amount to be raised has been reached\") */\n      tag_206\n      jumpi\n      mload(0x40)\n      0x08c379a000000000000000000000000000000000000000000000000000000000\n      dup2\n      mstore\n      0x04\n      add\n      tag_207\n      swap1\n      tag_208\n      jump\t// in\n    tag_207:\n      mload(0x40)\n      dup1\n      swap2\n      sub\n      swap1\n      revert\n    tag_206:\n        /* \"contracts/Erc20token.sol\":7026:7035  msg.value */\n      callvalue\n        /* \"contracts/Erc20token.sol\":7010:7022  raisedAmount */\n      0x09\n      0x00\n        /* \"contracts/Erc20token.sol\":7010:7035  raisedAmount += msg.value */\n      dup3\n      dup3\n      sload\n      tag_209\n      swap2\n      swap1\n      tag_205\n      jump\t// in\n    tag_209:\n      swap3\n      pop\n      pop\n      dup2\n      swap1\n      sstore\n      pop\n        /* \"contracts/Erc20token.sol\":7155:7166  uint tokens */\n      0x00\n        /* \"contracts/Erc20token.sol\":7181:7191  tokenPrice */\n      sload(0x08)\n        /* \"contracts/Erc20token.sol\":7169:7178  msg.value */\n      callvalue\n        /* \"contracts/Erc20token.sol\":7169:7191  msg.value / tokenPrice */\n      tag_210\n      swap2\n      swap1\n      tag_211\n      jump\t// in\n    tag_210:\n        /* \"contracts/Erc20token.sol\":7155:7191  uint tokens = msg.value / tokenPrice */\n      swap1\n      pop\n        /* \"contracts/Erc20token.sol\":7261:7267  tokens */\n      dup1\n        /* \"contracts/Erc20token.sol\":7237:7245  balances */\n      0x05\n        /* \"contracts/Erc20token.sol\":7237:7257  balances[msg.sender] */\n      0x00\n        /* \"contracts/Erc20token.sol\":7246:7256  msg.sender */\n      caller\n        /* \"contracts/Erc20token.sol\":7237:7257  balances[msg.sender] */\n      0xffffffffffffffffffffffffffffffffffffffff\n      and\n      0xffffffffffffffffffffffffffffffffffffffff\n      and\n      dup2\n      mstore\n      0x20\n      add\n      swap1\n      dup2\n      mstore\n      0x20\n      add\n      0x00\n      keccak256\n      0x00\n        /* \"contracts/Erc20token.sol\":7237:7267  balances[msg.sender] += tokens */\n      dup3\n      dup3\n      sload\n      tag_212\n      swap2\n      swap1\n      tag_205\n      jump\t// in\n    tag_212:\n      swap3\n      pop\n      pop\n      dup2\n      swap1\n      sstore\n      pop\n        /* \"contracts/Erc20token.sol\":7299:7305  tokens */\n      dup1\n        /* \"contracts/Erc20token.sol\":7278:7286  balances */\n      0x05\n        /* \"contracts/Erc20token.sol\":7278:7295  balances[founder] */\n      0x00\n        /* \"contracts/Erc20token.sol\":7287:7294  founder */\n      0x03\n      0x00\n      swap1\n      sload\n      swap1\n      0x0100\n      exp\n      swap1\n      div\n      0xffffffffffffffffffffffffffffffffffffffff\n      and\n        /* \"contracts/Erc20token.sol\":7278:7295  balances[founder] */\n      0xffffffffffffffffffffffffffffffffffffffff\n      and\n      0xffffffffffffffffffffffffffffffffffffffff\n      and\n      dup2\n      mstore\n      0x20\n      add\n      swap1\n      dup2\n      mstore\n      0x20\n      add\n      0x00\n      keccak256\n      0x00\n        /* \"contracts/Erc20token.sol\":7278:7305  balances[founder] -= tokens */\n      dup3\n      dup3\n      sload\n      tag_213\n      swap2\n      swap1\n      tag_214\n      jump\t// in\n    tag_213:\n      swap3\n      pop\n      pop\n      dup2\n      swap1\n      sstore\n      pop\n        /* \"contracts/Erc20token.sol\":7367:7381  depositAddress */\n      0x0f\n      0x01\n      swap1\n      sload\n      swap1\n      0x0100\n      exp\n      swap1\n      div\n      0xffffffffffffffffffffffffffffffffffffffff\n      and\n        /* \"contracts/Erc20token.sol\":7367:7390  depositAddress.transfer */\n      0xffffffffffffffffffffffffffffffffffffffff\n      and\n        /* \"contracts/Erc20token.sol\":7367:7401  depositAddress.transfer(msg.value) */\n      0x08fc\n        /* \"contracts/Erc20token.sol\":7391:7400  msg.value */\n      callvalue\n        /* \"contracts/Erc20token.sol\":7367:7401  depositAddress.transfer(msg.value) */\n      swap1\n      dup2\n      iszero\n      mul\n      swap1\n      mload(0x40)\n      0x00\n      mload(0x40)\n      dup1\n      dup4\n      sub\n      dup2\n      dup6\n      dup9\n      dup9\n      call\n      swap4\n      pop\n      pop\n      pop\n      pop\n      iszero\n      dup1\n      iszero\n      tag_216\n      jumpi\n      returndatasize\n      0x00\n      dup1\n      returndatacopy\n      revert(0x00, returndatasize)\n    tag_216:\n      pop\n        /* \"contracts/Erc20token.sol\":7419:7456  Invest(msg.sender, msg.value, tokens) */\n      0x4ae4bd7655e0d350876a23cd90c4227b13db560e34435c6a488150a9c844bf5f\n        /* \"contracts/Erc20token.sol\":7426:7436  msg.sender */\n      caller\n        /* \"contracts/Erc20token.sol\":7438:7447  msg.value */\n      callvalue\n        /* \"contracts/Erc20token.sol\":7449:7455  tokens */\n      dup4\n        /* \"contracts/Erc20token.sol\":7419:7456  Invest(msg.sender, msg.value, tokens) */\n      mload(0x40)\n      tag_217\n      swap4\n      swap3\n      swap2\n      swap1\n      tag_218\n      jump\t// in\n    tag_217:\n      mload(0x40)\n      dup1\n      swap2\n      sub\n      swap1\n      log1\n        /* \"contracts/Erc20token.sol\":7476:7480  true */\n      0x01\n        /* \"contracts/Erc20token.sol\":7469:7480  return true */\n      swap6\n      pop\n      pop\n      pop\n      pop\n      pop\n      pop\n        /* \"contracts/Erc20token.sol\":6140:7490  function invest() payable public returns(bool){\r... */\n      swap1\n      jump\t// out\n        /* \"contracts/Erc20token.sol\":4894:4971  function resume() public onlyAdmin{\r... */\n    tag_47:\n        /* \"contracts/Erc20token.sol\":4703:4708  admin */\n      0x07\n      0x00\n      swap1\n      sload\n      swap1\n      0x0100\n      exp\n      swap1\n      div\n      0xffffffffffffffffffffffffffffffffffffffff\n      and\n        /* \"contracts/Erc20token.sol\":4689:4708  msg.sender == admin */\n      0xffffffffffffffffffffffffffffffffffffffff\n      and\n        /* \"contracts/Erc20token.sol\":4689:4699  msg.sender */\n      caller\n        /* \"contracts/Erc20token.sol\":4689:4708  msg.sender == admin */\n      0xffffffffffffffffffffffffffffffffffffffff\n      and\n      eq\n        /* \"contracts/Erc20token.sol\":4681:4747  require(msg.sender == admin, \"Access denied, you ae not an admin\") */\n      tag_220\n      jumpi\n      mload(0x40)\n      0x08c379a000000000000000000000000000000000000000000000000000000000\n      dup2\n      mstore\n      0x04\n      add\n      tag_221\n      swap1\n      tag_222\n      jump\t// in\n    tag_221:\n      mload(0x40)\n      dup1\n      swap2\n      sub\n      swap1\n      revert\n    tag_220:\n        /* \"contracts/Erc20token.sol\":4950:4963  State.Running */\n      0x01\n        /* \"contracts/Erc20token.sol\":4939:4947  icoState */\n      0x0f\n      0x00\n        /* \"contracts/Erc20token.sol\":4939:4963  icoState = State.Running */\n      0x0100\n      exp\n      dup2\n      sload\n      dup2\n      0xff\n      mul\n      not\n      and\n      swap1\n      dup4\n      0x04\n      dup2\n      gt\n      iszero\n      tag_224\n      jumpi\n      tag_225\n      tag_187\n      jump\t// in\n    tag_225:\n    tag_224:\n      mul\n      or\n      swap1\n      sstore\n      pop\n        /* \"contracts/Erc20token.sol\":4894:4971  function resume() public onlyAdmin{\r... */\n      jump\t// out\n        /* \"contracts/Erc20token.sol\":1033:1062  string public name = \"ZILLAX\" */\n    tag_50:\n      0x00\n      dup1\n      sload\n      tag_226\n      swap1\n      tag_227\n      jump\t// in\n    tag_226:\n      dup1\n      0x1f\n      add\n      0x20\n      dup1\n      swap2\n      div\n      mul\n      0x20\n      add\n      mload(0x40)\n      swap1\n      dup2\n      add\n      0x40\n      mstore\n      dup1\n      swap3\n      swap2\n      swap1\n      dup2\n      dup2\n      mstore\n      0x20\n      add\n      dup3\n      dup1\n      sload\n      tag_228\n      swap1\n      tag_227\n      jump\t// in\n    tag_228:\n      dup1\n      iszero\n      tag_229\n      jumpi\n      dup1\n      0x1f\n      lt\n      tag_230\n      jumpi\n      0x0100\n      dup1\n      dup4\n      sload\n      div\n      mul\n      dup4\n      mstore\n      swap2\n      0x20\n      add\n      swap2\n      jump(tag_229)\n    tag_230:\n      dup3\n      add\n      swap2\n      swap1\n      0x00\n      mstore\n      keccak256(0x00, 0x20)\n      swap1\n    tag_231:\n      dup2\n      sload\n      dup2\n      mstore\n      swap1\n      0x01\n      add\n      swap1\n      0x20\n      add\n      dup1\n      dup4\n      gt\n      tag_231\n      jumpi\n      dup3\n      swap1\n      sub\n      0x1f\n      and\n      dup3\n      add\n      swap2\n    tag_229:\n      pop\n      pop\n      pop\n      pop\n      pop\n      dup2\n      jump\t// out\n        /* \"contracts/Erc20token.sol\":8060:8322  function burnTokens() public {\r... */\n    tag_55:\n        /* \"contracts/Erc20token.sol\":8111:8126  checkIcoState() */\n      tag_233\n        /* \"contracts/Erc20token.sol\":8111:8124  checkIcoState */\n      tag_87\n        /* \"contracts/Erc20token.sol\":8111:8126  checkIcoState() */\n      jump\t// in\n    tag_233:\n        /* \"contracts/Erc20token.sol\":8100:8108  icoState */\n      0x0f\n      0x00\n        /* \"contracts/Erc20token.sol\":8100:8126  icoState = checkIcoState() */\n      0x0100\n      exp\n      dup2\n      sload\n      dup2\n      0xff\n      mul\n      not\n      and\n      swap1\n      dup4\n      0x04\n      dup2\n      gt\n      iszero\n      tag_234\n      jumpi\n      tag_235\n      tag_187\n      jump\t// in\n    tag_235:\n    tag_234:\n      mul\n      or\n      swap1\n      sstore\n      pop\n        /* \"contracts/Erc20token.sol\":8157:8171  State.AfterEnd */\n      0x03\n        /* \"contracts/Erc20token.sol\":8145:8171  icoState == State.AfterEnd */\n      0x04\n      dup2\n      gt\n      iszero\n      tag_236\n      jumpi\n      tag_237\n      tag_187\n      jump\t// in\n    tag_237:\n    tag_236:\n        /* \"contracts/Erc20token.sol\":8145:8153  icoState */\n      0x0f\n      0x00\n      swap1\n      sload\n      swap1\n      0x0100\n      exp\n      swap1\n      div\n      0xff\n      and\n        /* \"contracts/Erc20token.sol\":8145:8171  icoState == State.AfterEnd */\n      0x04\n      dup2\n      gt\n      iszero\n      tag_238\n      jumpi\n      tag_239\n      tag_187\n      jump\t// in\n    tag_239:\n    tag_238:\n      eq\n        /* \"contracts/Erc20token.sol\":8137:8207  require(icoState == State.AfterEnd, \"Token sales is not yet finished\") */\n      tag_240\n      jumpi\n      mload(0x40)\n      0x08c379a000000000000000000000000000000000000000000000000000000000\n      dup2\n      mstore\n      0x04\n      add\n      tag_241\n      swap1\n      tag_242\n      jump\t// in\n    tag_241:\n      mload(0x40)\n      dup1\n      swap2\n      sub\n      swap1\n      revert\n    tag_240:\n        /* \"contracts/Erc20token.sol\":8246:8247  0 */\n      0x00\n        /* \"contracts/Erc20token.sol\":8226:8234  balances */\n      0x05\n        /* \"contracts/Erc20token.sol\":8226:8243  balances[founder] */\n      0x00\n        /* \"contracts/Erc20token.sol\":8235:8242  founder */\n      0x03\n      0x00\n      swap1\n      sload\n      swap1\n      0x0100\n      exp\n      swap1\n      div\n      0xffffffffffffffffffffffffffffffffffffffff\n      and\n        /* \"contracts/Erc20token.sol\":8226:8243  balances[founder] */\n      0xffffffffffffffffffffffffffffffffffffffff\n      and\n      0xffffffffffffffffffffffffffffffffffffffff\n      and\n      dup2\n      mstore\n      0x20\n      add\n      swap1\n      dup2\n      mstore\n      0x20\n      add\n      0x00\n      keccak256\n      sload\n        /* \"contracts/Erc20token.sol\":8226:8247  balances[founder] > 0 */\n      gt\n        /* \"contracts/Erc20token.sol\":8218:8282  require(balances[founder] > 0, \"No token available for burning\") */\n      tag_243\n      jumpi\n      mload(0x40)\n      0x08c379a000000000000000000000000000000000000000000000000000000000\n      dup2\n      mstore\n      0x04\n      add\n      tag_244\n      swap1\n      tag_245\n      jump\t// in\n    tag_244:\n      mload(0x40)\n      dup1\n      swap2\n      sub\n      swap1\n      revert\n    tag_243:\n        /* \"contracts/Erc20token.sol\":8313:8314  0 */\n      0x00\n        /* \"contracts/Erc20token.sol\":8293:8301  balances */\n      0x05\n        /* \"contracts/Erc20token.sol\":8293:8310  balances[founder] */\n      0x00\n        /* \"contracts/Erc20token.sol\":8302:8309  founder */\n      0x03\n      0x00\n      swap1\n      sload\n      swap1\n      0x0100\n      exp\n      swap1\n      div\n      0xffffffffffffffffffffffffffffffffffffffff\n      and\n        /* \"contracts/Erc20token.sol\":8293:8310  balances[founder] */\n      0xffffffffffffffffffffffffffffffffffffffff\n      and\n      0xffffffffffffffffffffffffffffffffffffffff\n      and\n      dup2\n      mstore\n      0x20\n      add\n      swap1\n      dup2\n      mstore\n      0x20\n      add\n      0x00\n      keccak256\n        /* \"contracts/Erc20token.sol\":8293:8314  balances[founder] = 0 */\n      dup2\n      swap1\n      sstore\n      pop\n        /* \"contracts/Erc20token.sol\":8060:8322  function burnTokens() public {\r... */\n      jump\t// out\n        /* \"contracts/Erc20token.sol\":2233:2635  function approve(address spender, uint tokens) public override returns (bool success){\r... */\n    tag_60:\n        /* \"contracts/Erc20token.sol\":2305:2317  bool success */\n      0x00\n        /* \"contracts/Erc20token.sol\":2363:2369  tokens */\n      dup2\n        /* \"contracts/Erc20token.sol\":2339:2347  balances */\n      0x05\n        /* \"contracts/Erc20token.sol\":2339:2359  balances[msg.sender] */\n      0x00\n        /* \"contracts/Erc20token.sol\":2348:2358  msg.sender */\n      caller\n        /* \"contracts/Erc20token.sol\":2339:2359  balances[msg.sender] */\n      0xffffffffffffffffffffffffffffffffffffffff\n      and\n      0xffffffffffffffffffffffffffffffffffffffff\n      and\n      dup2\n      mstore\n      0x20\n      add\n      swap1\n      dup2\n      mstore\n      0x20\n      add\n      0x00\n      keccak256\n      sload\n        /* \"contracts/Erc20token.sol\":2339:2369  balances[msg.sender] >= tokens */\n      lt\n      iszero\n        /* \"contracts/Erc20token.sol\":2331:2422  require(balances[msg.sender] >= tokens, \"Token value is greater than your current holding\") */\n      tag_247\n      jumpi\n      mload(0x40)\n      0x08c379a000000000000000000000000000000000000000000000000000000000\n      dup2\n      mstore\n      0x04\n      add\n      tag_248\n      swap1\n      tag_249\n      jump\t// in\n    tag_248:\n      mload(0x40)\n      dup1\n      swap2\n      sub\n      swap1\n      revert\n    tag_247:\n        /* \"contracts/Erc20token.sol\":2450:2451  0 */\n      0x00\n        /* \"contracts/Erc20token.sol\":2441:2447  tokens */\n      dup3\n        /* \"contracts/Erc20token.sol\":2441:2451  tokens > 0 */\n      gt\n        /* \"contracts/Erc20token.sol\":2433:2490  require(tokens > 0, \"Token value must be greater than 0\") */\n      tag_250\n      jumpi\n      mload(0x40)\n      0x08c379a000000000000000000000000000000000000000000000000000000000\n      dup2\n      mstore\n      0x04\n      add\n      tag_251\n      swap1\n      tag_252\n      jump\t// in\n    tag_251:\n      mload(0x40)\n      dup1\n      swap2\n      sub\n      swap1\n      revert\n    tag_250:\n        /* \"contracts/Erc20token.sol\":2542:2548  tokens */\n      dup2\n        /* \"contracts/Erc20token.sol\":2511:2518  allowed */\n      0x06\n        /* \"contracts/Erc20token.sol\":2511:2530  allowed[msg.sender] */\n      0x00\n        /* \"contracts/Erc20token.sol\":2519:2529  msg.sender */\n      caller\n        /* \"contracts/Erc20token.sol\":2511:2530  allowed[msg.sender] */\n      0xffffffffffffffffffffffffffffffffffffffff\n      and\n      0xffffffffffffffffffffffffffffffffffffffff\n      and\n      dup2\n      mstore\n      0x20\n      add\n      swap1\n      dup2\n      mstore\n      0x20\n      add\n      0x00\n      keccak256\n        /* \"contracts/Erc20token.sol\":2511:2539  allowed[msg.sender][spender] */\n      0x00\n        /* \"contracts/Erc20token.sol\":2531:2538  spender */\n      dup6\n        /* \"contracts/Erc20token.sol\":2511:2539  allowed[msg.sender][spender] */\n      0xffffffffffffffffffffffffffffffffffffffff\n      and\n      0xffffffffffffffffffffffffffffffffffffffff\n      and\n      dup2\n      mstore\n      0x20\n      add\n      swap1\n      dup2\n      mstore\n      0x20\n      add\n      0x00\n      keccak256\n        /* \"contracts/Erc20token.sol\":2511:2548  allowed[msg.sender][spender] = tokens */\n      dup2\n      swap1\n      sstore\n      pop\n        /* \"contracts/Erc20token.sol\":2587:2594  spender */\n      dup3\n        /* \"contracts/Erc20token.sol\":2566:2603  Approval(msg.sender, spender, tokens) */\n      0xffffffffffffffffffffffffffffffffffffffff\n      and\n        /* \"contracts/Erc20token.sol\":2575:2585  msg.sender */\n      caller\n        /* \"contracts/Erc20token.sol\":2566:2603  Approval(msg.sender, spender, tokens) */\n      0xffffffffffffffffffffffffffffffffffffffff\n      and\n      0x8c5be1e5ebec7d5bd14f71427d1e84f3dd0314c0f7b2291e5b200ac8c7c3b925\n        /* \"contracts/Erc20token.sol\":2596:2602  tokens */\n      dup5\n        /* \"contracts/Erc20token.sol\":2566:2603  Approval(msg.sender, spender, tokens) */\n      mload(0x40)\n      tag_253\n      swap2\n      swap1\n      tag_67\n      jump\t// in\n    tag_253:\n      mload(0x40)\n      dup1\n      swap2\n      sub\n      swap1\n      log3\n        /* \"contracts/Erc20token.sol\":2623:2627  true */\n      0x01\n        /* \"contracts/Erc20token.sol\":2616:2627  return true */\n      swap1\n      pop\n        /* \"contracts/Erc20token.sol\":2233:2635  function approve(address spender, uint tokens) public override returns (bool success){\r... */\n      swap3\n      swap2\n      pop\n      pop\n      jump\t// out\n        /* \"contracts/Erc20token.sol\":1168:1200  uint public override totalSupply */\n    tag_65:\n      sload(0x04)\n      dup2\n      jump\t// out\n        /* \"contracts/Erc20token.sol\":7796:8052  function transferFrom(address from, address to, uint tokens) public override returns (bool success){\r... */\n    tag_72:\n        /* \"contracts/Erc20token.sol\":7882:7894  bool success */\n      0x00\n        /* \"contracts/Erc20token.sol\":7932:7939  endTime */\n      sload(0x0c)\n        /* \"contracts/Erc20token.sol\":7914:7929  block.timestamp */\n      timestamp\n        /* \"contracts/Erc20token.sol\":7914:7939  block.timestamp > endTime */\n      gt\n        /* \"contracts/Erc20token.sol\":7906:7975  require(block.timestamp > endTime, \"Token sales is not yet finished\") */\n      tag_255\n      jumpi\n      mload(0x40)\n      0x08c379a000000000000000000000000000000000000000000000000000000000\n      dup2\n      mstore\n      0x04\n      add\n      tag_256\n      swap1\n      tag_242\n      jump\t// in\n    tag_256:\n      mload(0x40)\n      dup1\n      swap2\n      sub\n      swap1\n      revert\n    tag_255:\n        /* \"contracts/Erc20token.sol\":7986:8022  super.transferFrom(from, to, tokens) */\n      tag_257\n        /* \"contracts/Erc20token.sol\":8005:8009  from */\n      dup5\n        /* \"contracts/Erc20token.sol\":8011:8013  to */\n      dup5\n        /* \"contracts/Erc20token.sol\":8015:8021  tokens */\n      dup5\n        /* \"contracts/Erc20token.sol\":7986:8004  super.transferFrom */\n      tag_258\n        /* \"contracts/Erc20token.sol\":7986:8022  super.transferFrom(from, to, tokens) */\n      jump\t// in\n    tag_257:\n      pop\n        /* \"contracts/Erc20token.sol\":8040:8044  true */\n      0x01\n        /* \"contracts/Erc20token.sol\":8033:8044  return true */\n      swap1\n      pop\n        /* \"contracts/Erc20token.sol\":7796:8052  function transferFrom(address from, address to, uint tokens) public override returns (bool success){\r... */\n      swap4\n      swap3\n      pop\n      pop\n      pop\n      jump\t// out\n        /* \"contracts/Erc20token.sol\":1209:1250  mapping(address => uint) public  balances */\n    tag_78:\n      mstore(0x20, 0x05)\n      dup1\n      0x00\n      mstore\n      keccak256(0x00, 0x40)\n      0x00\n      swap2\n      pop\n      swap1\n      pop\n      sload\n      dup2\n      jump\t// out\n        /* \"contracts/Erc20token.sol\":4093:4130  address payable public depositAddress */\n    tag_82:\n      0x0f\n      0x01\n      swap1\n      sload\n      swap1\n      0x0100\n      exp\n      swap1\n      div\n      0xffffffffffffffffffffffffffffffffffffffff\n      and\n      dup2\n      jump\t// out\n        /* \"contracts/Erc20token.sol\":5504:5990  function checkIcoState() public view returns(State){\r... */\n    tag_87:\n        /* \"contracts/Erc20token.sol\":5549:5554  State */\n      0x00\n        /* \"contracts/Erc20token.sol\":5566:5584  State currentState */\n      dup1\n        /* \"contracts/Erc20token.sol\":5610:5622  State.Halted */\n      0x04\n        /* \"contracts/Erc20token.sol\":5598:5622  icoState == State.Halted */\n      dup1\n      dup2\n      gt\n      iszero\n      tag_260\n      jumpi\n      tag_261\n      tag_187\n      jump\t// in\n    tag_261:\n    tag_260:\n        /* \"contracts/Erc20token.sol\":5598:5606  icoState */\n      0x0f\n      0x00\n      swap1\n      sload\n      swap1\n      0x0100\n      exp\n      swap1\n      div\n      0xff\n      and\n        /* \"contracts/Erc20token.sol\":5598:5622  icoState == State.Halted */\n      0x04\n      dup2\n      gt\n      iszero\n      tag_262\n      jumpi\n      tag_263\n      tag_187\n      jump\t// in\n    tag_263:\n    tag_262:\n      eq\n        /* \"contracts/Erc20token.sol\":5595:5953  if(icoState == State.Halted){\r... */\n      iszero\n      tag_264\n      jumpi\n        /* \"contracts/Erc20token.sol\":5653:5665  State.Halted */\n      0x04\n        /* \"contracts/Erc20token.sol\":5638:5665  currentState = State.Halted */\n      swap1\n      pop\n        /* \"contracts/Erc20token.sol\":5595:5953  if(icoState == State.Halted){\r... */\n      jump(tag_265)\n    tag_264:\n        /* \"contracts/Erc20token.sol\":5703:5712  startTime */\n      sload(0x0b)\n        /* \"contracts/Erc20token.sol\":5685:5700  block.timestamp */\n      timestamp\n        /* \"contracts/Erc20token.sol\":5685:5712  block.timestamp < startTime */\n      lt\n        /* \"contracts/Erc20token.sol\":5682:5953  if(block.timestamp < startTime){\r... */\n      iszero\n      tag_266\n      jumpi\n        /* \"contracts/Erc20token.sol\":5743:5760  State.beforeStart */\n      0x00\n        /* \"contracts/Erc20token.sol\":5728:5760  currentState = State.beforeStart */\n      swap1\n      pop\n        /* \"contracts/Erc20token.sol\":5682:5953  if(block.timestamp < startTime){\r... */\n      jump(tag_267)\n    tag_266:\n        /* \"contracts/Erc20token.sol\":5799:5808  startTime */\n      sload(0x0b)\n        /* \"contracts/Erc20token.sol\":5780:5795  block.timestamp */\n      timestamp\n        /* \"contracts/Erc20token.sol\":5780:5808  block.timestamp >= startTime */\n      lt\n      iszero\n        /* \"contracts/Erc20token.sol\":5780:5837  block.timestamp >= startTime && block.timestamp < endTime */\n      dup1\n      iszero\n      tag_268\n      jumpi\n      pop\n        /* \"contracts/Erc20token.sol\":5830:5837  endTime */\n      sload(0x0c)\n        /* \"contracts/Erc20token.sol\":5812:5827  block.timestamp */\n      timestamp\n        /* \"contracts/Erc20token.sol\":5812:5837  block.timestamp < endTime */\n      lt\n        /* \"contracts/Erc20token.sol\":5780:5837  block.timestamp >= startTime && block.timestamp < endTime */\n    tag_268:\n        /* \"contracts/Erc20token.sol\":5777:5953  if(block.timestamp >= startTime && block.timestamp < endTime){\r... */\n      iszero\n      tag_269\n      jumpi\n        /* \"contracts/Erc20token.sol\":5868:5881  State.Running */\n      0x01\n        /* \"contracts/Erc20token.sol\":5853:5881  currentState = State.Running */\n      swap1\n      pop\n        /* \"contracts/Erc20token.sol\":5777:5953  if(block.timestamp >= startTime && block.timestamp < endTime){\r... */\n      jump(tag_270)\n    tag_269:\n        /* \"contracts/Erc20token.sol\":5927:5941  State.AfterEnd */\n      0x03\n        /* \"contracts/Erc20token.sol\":5912:5941  currentState = State.AfterEnd */\n      swap1\n      pop\n        /* \"contracts/Erc20token.sol\":5777:5953  if(block.timestamp >= startTime && block.timestamp < endTime){\r... */\n    tag_270:\n        /* \"contracts/Erc20token.sol\":5682:5953  if(block.timestamp < startTime){\r... */\n    tag_267:\n        /* \"contracts/Erc20token.sol\":5595:5953  if(icoState == State.Halted){\r... */\n    tag_265:\n        /* \"contracts/Erc20token.sol\":5970:5982  currentState */\n      dup1\n        /* \"contracts/Erc20token.sol\":5963:5982  return currentState */\n      swap2\n      pop\n      pop\n        /* \"contracts/Erc20token.sol\":5504:5990  function checkIcoState() public view returns(State){\r... */\n      swap1\n      jump\t// out\n        /* \"contracts/Erc20token.sol\":5239:5344  function changeEndTime(uint _duration) public onlyAdmin{\r... */\n    tag_94:\n        /* \"contracts/Erc20token.sol\":4703:4708  admin */\n      0x07\n      0x00\n      swap1\n      sload\n      swap1\n      0x0100\n      exp\n      swap1\n      div\n      0xffffffffffffffffffffffffffffffffffffffff\n      and\n        /* \"contracts/Erc20token.sol\":4689:4708  msg.sender == admin */\n      0xffffffffffffffffffffffffffffffffffffffff\n      and\n        /* \"contracts/Erc20token.sol\":4689:4699  msg.sender */\n      caller\n        /* \"contracts/Erc20token.sol\":4689:4708  msg.sender == admin */\n      0xffffffffffffffffffffffffffffffffffffffff\n      and\n      eq\n        /* \"contracts/Erc20token.sol\":4681:4747  require(msg.sender == admin, \"Access denied, you ae not an admin\") */\n      tag_272\n      jumpi\n      mload(0x40)\n      0x08c379a000000000000000000000000000000000000000000000000000000000\n      dup2\n      mstore\n      0x04\n      add\n      tag_273\n      swap1\n      tag_222\n      jump\t// in\n    tag_273:\n      mload(0x40)\n      dup1\n      swap2\n      sub\n      swap1\n      revert\n    tag_272:\n        /* \"contracts/Erc20token.sol\":5327:5336  _duration */\n      dup1\n        /* \"contracts/Erc20token.sol\":5315:5324  startTime */\n      sload(0x0b)\n        /* \"contracts/Erc20token.sol\":5315:5336  startTime + _duration */\n      tag_275\n      swap2\n      swap1\n      tag_205\n      jump\t// in\n    tag_275:\n        /* \"contracts/Erc20token.sol\":5305:5312  endTime */\n      0x0c\n        /* \"contracts/Erc20token.sol\":5305:5336  endTime = startTime + _duration */\n      dup2\n      swap1\n      sstore\n      pop\n        /* \"contracts/Erc20token.sol\":5239:5344  function changeEndTime(uint _duration) public onlyAdmin{\r... */\n      pop\n      jump\t// out\n        /* \"contracts/Erc20token.sol\":1104:1128  uint public decimals = 0 */\n    tag_97:\n      sload(0x02)\n      dup2\n      jump\t// out\n        /* \"contracts/Erc20token.sol\":3833:3852  uint public endTime */\n    tag_101:\n      sload(0x0c)\n      dup2\n      jump\t// out\n        /* \"contracts/Erc20token.sol\":4036:4057  State public icoState */\n    tag_105:\n      0x0f\n      0x00\n      swap1\n      sload\n      swap1\n      0x0100\n      exp\n      swap1\n      div\n      0xff\n      and\n      dup2\n      jump\t// out\n        /* \"contracts/Erc20token.sol\":1137:1159  address public founder */\n    tag_109:\n      0x03\n      0x00\n      swap1\n      sload\n      swap1\n      0x0100\n      exp\n      swap1\n      div\n      0xffffffffffffffffffffffffffffffffffffffff\n      and\n      dup2\n      jump\t// out\n        /* \"contracts/Erc20token.sol\":1259:1318  mapping(address => mapping(address => uint)) public allowed */\n    tag_116:\n      mstore(0x20, 0x06)\n      dup2\n      0x00\n      mstore\n      mstore(0x20, keccak256(0x00, 0x40))\n      dup1\n      0x00\n      mstore\n      keccak256(0x00, 0x40)\n      0x00\n      swap2\n      pop\n      swap2\n      pop\n      pop\n      sload\n      dup2\n      jump\t// out\n        /* \"contracts/Erc20token.sol\":4802:4876  function halt() public onlyAdmin{\r... */\n    tag_120:\n        /* \"contracts/Erc20token.sol\":4703:4708  admin */\n      0x07\n      0x00\n      swap1\n      sload\n      swap1\n      0x0100\n      exp\n      swap1\n      div\n      0xffffffffffffffffffffffffffffffffffffffff\n      and\n        /* \"contracts/Erc20token.sol\":4689:4708  msg.sender == admin */\n      0xffffffffffffffffffffffffffffffffffffffff\n      and\n        /* \"contracts/Erc20token.sol\":4689:4699  msg.sender */\n      caller\n        /* \"contracts/Erc20token.sol\":4689:4708  msg.sender == admin */\n      0xffffffffffffffffffffffffffffffffffffffff\n      and\n      eq\n        /* \"contracts/Erc20token.sol\":4681:4747  require(msg.sender == admin, \"Access denied, you ae not an admin\") */\n      tag_277\n      jumpi\n      mload(0x40)\n      0x08c379a000000000000000000000000000000000000000000000000000000000\n      dup2\n      mstore\n      0x04\n      add\n      tag_278\n      swap1\n      tag_222\n      jump\t// in\n    tag_278:\n      mload(0x40)\n      dup1\n      swap2\n      sub\n      swap1\n      revert\n    tag_277:\n        /* \"contracts/Erc20token.sol\":4856:4868  State.Halted */\n      0x04\n        /* \"contracts/Erc20token.sol\":4845:4853  icoState */\n      0x0f\n      0x00\n        /* \"contracts/Erc20token.sol\":4845:4868  icoState = State.Halted */\n      0x0100\n      exp\n      dup2\n      sload\n      dup2\n      0xff\n      mul\n      not\n      and\n      swap1\n      dup4\n      0x04\n      dup2\n      gt\n      iszero\n      tag_280\n      jumpi\n      tag_281\n      tag_187\n      jump\t// in\n    tag_281:\n    tag_280:\n      mul\n      or\n      swap1\n      sstore\n      pop\n        /* \"contracts/Erc20token.sol\":4802:4876  function halt() public onlyAdmin{\r... */\n      jump\t// out\n        /* \"contracts/Erc20token.sol\":5362:5496  function changeDepositAddress(address payable newDepositAddress) public onlyAdmin{\r... */\n    tag_125:\n        /* \"contracts/Erc20token.sol\":4703:4708  admin */\n      0x07\n      0x00\n      swap1\n      sload\n      swap1\n      0x0100\n      exp\n      swap1\n      div\n      0xffffffffffffffffffffffffffffffffffffffff\n      and\n        /* \"contracts/Erc20token.sol\":4689:4708  msg.sender == admin */\n      0xffffffffffffffffffffffffffffffffffffffff\n      and\n        /* \"contracts/Erc20token.sol\":4689:4699  msg.sender */\n      caller\n        /* \"contracts/Erc20token.sol\":4689:4708  msg.sender == admin */\n      0xffffffffffffffffffffffffffffffffffffffff\n      and\n      eq\n        /* \"contracts/Erc20token.sol\":4681:4747  require(msg.sender == admin, \"Access denied, you ae not an admin\") */\n      tag_283\n      jumpi\n      mload(0x40)\n      0x08c379a000000000000000000000000000000000000000000000000000000000\n      dup2\n      mstore\n      0x04\n      add\n      tag_284\n      swap1\n      tag_222\n      jump\t// in\n    tag_284:\n      mload(0x40)\n      dup1\n      swap2\n      sub\n      swap1\n      revert\n    tag_283:\n        /* \"contracts/Erc20token.sol\":5471:5488  newDepositAddress */\n      dup1\n        /* \"contracts/Erc20token.sol\":5454:5468  depositAddress */\n      0x0f\n      0x01\n        /* \"contracts/Erc20token.sol\":5454:5488  depositAddress = newDepositAddress */\n      0x0100\n      exp\n      dup2\n      sload\n      dup2\n      0xffffffffffffffffffffffffffffffffffffffff\n      mul\n      not\n      and\n      swap1\n      dup4\n      0xffffffffffffffffffffffffffffffffffffffff\n      and\n      mul\n      or\n      swap1\n      sstore\n      pop\n        /* \"contracts/Erc20token.sol\":5362:5496  function changeDepositAddress(address payable newDepositAddress) public onlyAdmin{\r... */\n      pop\n      jump\t// out\n        /* \"contracts/Erc20token.sol\":1461:1589  function balanceOf(address tokenOwner) public override view returns (uint balance){\r... */\n    tag_129:\n        /* \"contracts/Erc20token.sol\":1530:1542  uint balance */\n      0x00\n        /* \"contracts/Erc20token.sol\":1561:1569  balances */\n      0x05\n        /* \"contracts/Erc20token.sol\":1561:1581  balances[tokenOwner] */\n      0x00\n        /* \"contracts/Erc20token.sol\":1570:1580  tokenOwner */\n      dup4\n        /* \"contracts/Erc20token.sol\":1561:1581  balances[tokenOwner] */\n      0xffffffffffffffffffffffffffffffffffffffff\n      and\n      0xffffffffffffffffffffffffffffffffffffffff\n      and\n      dup2\n      mstore\n      0x20\n      add\n      swap1\n      dup2\n      mstore\n      0x20\n      add\n      0x00\n      keccak256\n      sload\n        /* \"contracts/Erc20token.sol\":1554:1581  return balances[tokenOwner] */\n      swap1\n      pop\n        /* \"contracts/Erc20token.sol\":1461:1589  function balanceOf(address tokenOwner) public override view returns (uint balance){\r... */\n      swap2\n      swap1\n      pop\n      jump\t// out\n        /* \"contracts/Erc20token.sol\":5116:5231  function changeMinimumAmount(uint _maximumAmount) public onlyAdmin{\r... */\n    tag_134:\n        /* \"contracts/Erc20token.sol\":4703:4708  admin */\n      0x07\n      0x00\n      swap1\n      sload\n      swap1\n      0x0100\n      exp\n      swap1\n      div\n      0xffffffffffffffffffffffffffffffffffffffff\n      and\n        /* \"contracts/Erc20token.sol\":4689:4708  msg.sender == admin */\n      0xffffffffffffffffffffffffffffffffffffffff\n      and\n        /* \"contracts/Erc20token.sol\":4689:4699  msg.sender */\n      caller\n        /* \"contracts/Erc20token.sol\":4689:4708  msg.sender == admin */\n      0xffffffffffffffffffffffffffffffffffffffff\n      and\n      eq\n        /* \"contracts/Erc20token.sol\":4681:4747  require(msg.sender == admin, \"Access denied, you ae not an admin\") */\n      tag_288\n      jumpi\n      mload(0x40)\n      0x08c379a000000000000000000000000000000000000000000000000000000000\n      dup2\n      mstore\n      0x04\n      add\n      tag_289\n      swap1\n      tag_222\n      jump\t// in\n    tag_289:\n      mload(0x40)\n      dup1\n      swap2\n      sub\n      swap1\n      revert\n    tag_288:\n        /* \"contracts/Erc20token.sol\":5209:5223  _maximumAmount */\n      dup1\n        /* \"contracts/Erc20token.sol\":5193:5206  maximumAmount */\n      0x0e\n        /* \"contracts/Erc20token.sol\":5193:5223  maximumAmount = _maximumAmount */\n      dup2\n      swap1\n      sstore\n      pop\n        /* \"contracts/Erc20token.sol\":5116:5231  function changeMinimumAmount(uint _maximumAmount) public onlyAdmin{\r... */\n      pop\n      jump\t// out\n        /* \"contracts/Erc20token.sol\":3787:3826  uint public startTime = block.timestamp */\n    tag_137:\n      sload(0x0b)\n      dup2\n      jump\t// out\n        /* \"contracts/Erc20token.sol\":1069:1097  string public symbol = \"ZLZ\" */\n    tag_141:\n      0x01\n      dup1\n      sload\n      tag_291\n      swap1\n      tag_227\n      jump\t// in\n    tag_291:\n      dup1\n      0x1f\n      add\n      0x20\n      dup1\n      swap2\n      div\n      mul\n      0x20\n      add\n      mload(0x40)\n      swap1\n      dup2\n      add\n      0x40\n      mstore\n      dup1\n      swap3\n      swap2\n      swap1\n      dup2\n      dup2\n      mstore\n      0x20\n      add\n      dup3\n      dup1\n      sload\n      tag_292\n      swap1\n      tag_227\n      jump\t// in\n    tag_292:\n      dup1\n      iszero\n      tag_293\n      jumpi\n      dup1\n      0x1f\n      lt\n      tag_294\n      jumpi\n      0x0100\n      dup1\n      dup4\n      sload\n      div\n      mul\n      dup4\n      mstore\n      swap2\n      0x20\n      add\n      swap2\n      jump(tag_293)\n    tag_294:\n      dup3\n      add\n      swap2\n      swap1\n      0x00\n      mstore\n      keccak256(0x00, 0x20)\n      swap1\n    tag_295:\n      dup2\n      sload\n      dup2\n      mstore\n      swap1\n      0x01\n      add\n      swap1\n      0x20\n      add\n      dup1\n      dup4\n      gt\n      tag_295\n      jumpi\n      dup3\n      swap1\n      sub\n      0x1f\n      and\n      dup3\n      add\n      swap2\n    tag_293:\n      pop\n      pop\n      pop\n      pop\n      pop\n      dup2\n      jump\t// out\n        /* \"contracts/Erc20token.sol\":7560:7788  function transfer(address to, uint tokens) public override returns (bool success){\r... */\n    tag_146:\n        /* \"contracts/Erc20token.sol\":7628:7640  bool success */\n      0x00\n        /* \"contracts/Erc20token.sol\":7678:7685  endTime */\n      sload(0x0c)\n        /* \"contracts/Erc20token.sol\":7660:7675  block.timestamp */\n      timestamp\n        /* \"contracts/Erc20token.sol\":7660:7685  block.timestamp > endTime */\n      gt\n        /* \"contracts/Erc20token.sol\":7652:7721  require(block.timestamp > endTime, \"Token sales is not yet finished\") */\n      tag_297\n      jumpi\n      mload(0x40)\n      0x08c379a000000000000000000000000000000000000000000000000000000000\n      dup2\n      mstore\n      0x04\n      add\n      tag_298\n      swap1\n      tag_242\n      jump\t// in\n    tag_298:\n      mload(0x40)\n      dup1\n      swap2\n      sub\n      swap1\n      revert\n    tag_297:\n        /* \"contracts/Erc20token.sol\":7732:7758  super.transfer(to, tokens) */\n      tag_299\n        /* \"contracts/Erc20token.sol\":7747:7749  to */\n      dup4\n        /* \"contracts/Erc20token.sol\":7751:7757  tokens */\n      dup4\n        /* \"contracts/Erc20token.sol\":7732:7746  super.transfer */\n      tag_300\n        /* \"contracts/Erc20token.sol\":7732:7758  super.transfer(to, tokens) */\n      jump\t// in\n    tag_299:\n      pop\n        /* \"contracts/Erc20token.sol\":7776:7780  true */\n      0x01\n        /* \"contracts/Erc20token.sol\":7769:7780  return true */\n      swap1\n      pop\n        /* \"contracts/Erc20token.sol\":7560:7788  function transfer(address to, uint tokens) public override returns (bool success){\r... */\n      swap3\n      swap2\n      pop\n      pop\n      jump\t// out\n        /* \"contracts/Erc20token.sol\":3952:3987  uint public maximumAmount = 1 ether */\n    tag_150:\n      sload(0x0e)\n      dup2\n      jump\t// out\n        /* \"contracts/Erc20token.sol\":3908:3945  uint public minimumAmount = 0.1 ether */\n    tag_154:\n      sload(0x0d)\n      dup2\n      jump\t// out\n        /* \"contracts/Erc20token.sol\":3533:3557  uint public raisedAmount */\n    tag_158:\n      sload(0x09)\n      dup2\n      jump\t// out\n        /* \"contracts/Erc20token.sol\":4989:5104  function changeMaximumAmount(uint _minimumAmount) public onlyAdmin{\r... */\n    tag_163:\n        /* \"contracts/Erc20token.sol\":4703:4708  admin */\n      0x07\n      0x00\n      swap1\n      sload\n      swap1\n      0x0100\n      exp\n      swap1\n      div\n      0xffffffffffffffffffffffffffffffffffffffff\n      and\n        /* \"contracts/Erc20token.sol\":4689:4708  msg.sender == admin */\n      0xffffffffffffffffffffffffffffffffffffffff\n      and\n        /* \"contracts/Erc20token.sol\":4689:4699  msg.sender */\n      caller\n        /* \"contracts/Erc20token.sol\":4689:4708  msg.sender == admin */\n      0xffffffffffffffffffffffffffffffffffffffff\n      and\n      eq\n        /* \"contracts/Erc20token.sol\":4681:4747  require(msg.sender == admin, \"Access denied, you ae not an admin\") */\n      tag_302\n      jumpi\n      mload(0x40)\n      0x08c379a000000000000000000000000000000000000000000000000000000000\n      dup2\n      mstore\n      0x04\n      add\n      tag_303\n      swap1\n      tag_222\n      jump\t// in\n    tag_303:\n      mload(0x40)\n      dup1\n      swap2\n      sub\n      swap1\n      revert\n    tag_302:\n        /* \"contracts/Erc20token.sol\":5082:5096  _minimumAmount */\n      dup1\n        /* \"contracts/Erc20token.sol\":5066:5079  minimumAmount */\n      0x0d\n        /* \"contracts/Erc20token.sol\":5066:5096  minimumAmount = _minimumAmount */\n      dup2\n      swap1\n      sstore\n      pop\n        /* \"contracts/Erc20token.sol\":4989:5104  function changeMaximumAmount(uint _minimumAmount) public onlyAdmin{\r... */\n      pop\n      jump\t// out\n        /* \"contracts/Erc20token.sol\":2070:2225  function allowance(address tokenOwner, address spender) public override view returns (uint remaining){\r... */\n    tag_167:\n        /* \"contracts/Erc20token.sol\":2156:2170  uint remaining */\n      0x00\n        /* \"contracts/Erc20token.sol\":2189:2196  allowed */\n      0x06\n        /* \"contracts/Erc20token.sol\":2189:2208  allowed[tokenOwner] */\n      0x00\n        /* \"contracts/Erc20token.sol\":2197:2207  tokenOwner */\n      dup5\n        /* \"contracts/Erc20token.sol\":2189:2208  allowed[tokenOwner] */\n      0xffffffffffffffffffffffffffffffffffffffff\n      and\n      0xffffffffffffffffffffffffffffffffffffffff\n      and\n      dup2\n      mstore\n      0x20\n      add\n      swap1\n      dup2\n      mstore\n      0x20\n      add\n      0x00\n      keccak256\n        /* \"contracts/Erc20token.sol\":2189:2217  allowed[tokenOwner][spender] */\n      0x00\n        /* \"contracts/Erc20token.sol\":2209:2216  spender */\n      dup4\n        /* \"contracts/Erc20token.sol\":2189:2217  allowed[tokenOwner][spender] */\n      0xffffffffffffffffffffffffffffffffffffffff\n      and\n      0xffffffffffffffffffffffffffffffffffffffff\n      and\n      dup2\n      mstore\n      0x20\n      add\n      swap1\n      dup2\n      mstore\n      0x20\n      add\n      0x00\n      keccak256\n      sload\n        /* \"contracts/Erc20token.sol\":2182:2217  return allowed[tokenOwner][spender] */\n      swap1\n      pop\n        /* \"contracts/Erc20token.sol\":2070:2225  function allowance(address tokenOwner, address spender) public override view returns (uint remaining){\r... */\n      swap3\n      swap2\n      pop\n      pop\n      jump\t// out\n        /* \"contracts/Erc20token.sol\":5998:6091  function returnRaisedAmount() public view returns(uint){\r... */\n    tag_173:\n        /* \"contracts/Erc20token.sol\":6048:6052  uint */\n      0x00\n        /* \"contracts/Erc20token.sol\":6071:6083  raisedAmount */\n      sload(0x09)\n        /* \"contracts/Erc20token.sol\":6064:6083  return raisedAmount */\n      swap1\n      pop\n        /* \"contracts/Erc20token.sol\":5998:6091  function returnRaisedAmount() public view returns(uint){\r... */\n      swap1\n      jump\t// out\n        /* \"contracts/Erc20token.sol\":3336:3356  address public admin */\n    tag_177:\n      0x07\n      0x00\n      swap1\n      sload\n      swap1\n      0x0100\n      exp\n      swap1\n      div\n      0xffffffffffffffffffffffffffffffffffffffff\n      and\n      dup2\n      jump\t// out\n        /* \"contracts/Erc20token.sol\":3616:3645  uint public hardCap = 5 ether */\n    tag_181:\n      sload(0x0a)\n      dup2\n      jump\t// out\n        /* \"contracts/Erc20token.sol\":2643:3287  function transferFrom(address from, address to, uint tokens) public virtual override returns (bool success){\r... */\n    tag_258:\n        /* \"contracts/Erc20token.sol\":2737:2749  bool success */\n      0x00\n        /* \"contracts/Erc20token.sol\":2798:2804  tokens */\n      dup2\n        /* \"contracts/Erc20token.sol\":2769:2776  allowed */\n      0x06\n        /* \"contracts/Erc20token.sol\":2769:2782  allowed[from] */\n      0x00\n        /* \"contracts/Erc20token.sol\":2777:2781  from */\n      dup7\n        /* \"contracts/Erc20token.sol\":2769:2782  allowed[from] */\n      0xffffffffffffffffffffffffffffffffffffffff\n      and\n      0xffffffffffffffffffffffffffffffffffffffff\n      and\n      dup2\n      mstore\n      0x20\n      add\n      swap1\n      dup2\n      mstore\n      0x20\n      add\n      0x00\n      keccak256\n        /* \"contracts/Erc20token.sol\":2769:2794  allowed[from][msg.sender] */\n      0x00\n        /* \"contracts/Erc20token.sol\":2783:2793  msg.sender */\n      caller\n        /* \"contracts/Erc20token.sol\":2769:2794  allowed[from][msg.sender] */\n      0xffffffffffffffffffffffffffffffffffffffff\n      and\n      0xffffffffffffffffffffffffffffffffffffffff\n      and\n      dup2\n      mstore\n      0x20\n      add\n      swap1\n      dup2\n      mstore\n      0x20\n      add\n      0x00\n      keccak256\n      sload\n        /* \"contracts/Erc20token.sol\":2769:2804  allowed[from][msg.sender] >= tokens */\n      lt\n      iszero\n        /* \"contracts/Erc20token.sol\":2761:2857  require(allowed[from][msg.sender] >= tokens, \"Token value is greater than the approved balance\") */\n      tag_308\n      jumpi\n      mload(0x40)\n      0x08c379a000000000000000000000000000000000000000000000000000000000\n      dup2\n      mstore\n      0x04\n      add\n      tag_309\n      swap1\n      tag_310\n      jump\t// in\n    tag_309:\n      mload(0x40)\n      dup1\n      swap2\n      sub\n      swap1\n      revert\n    tag_308:\n        /* \"contracts/Erc20token.sol\":2894:2900  tokens */\n      dup2\n        /* \"contracts/Erc20token.sol\":2876:2884  balances */\n      0x05\n        /* \"contracts/Erc20token.sol\":2876:2890  balances[from] */\n      0x00\n        /* \"contracts/Erc20token.sol\":2885:2889  from */\n      dup7\n        /* \"contracts/Erc20token.sol\":2876:2890  balances[from] */\n      0xffffffffffffffffffffffffffffffffffffffff\n      and\n      0xffffffffffffffffffffffffffffffffffffffff\n      and\n      dup2\n      mstore\n      0x20\n      add\n      swap1\n      dup2\n      mstore\n      0x20\n      add\n      0x00\n      keccak256\n      sload\n        /* \"contracts/Erc20token.sol\":2876:2900  balances[from] >= tokens */\n      lt\n      iszero\n        /* \"contracts/Erc20token.sol\":2868:2923  require(balances[from] >= tokens, \"Insuficient Balnce\") */\n      tag_311\n      jumpi\n      mload(0x40)\n      0x08c379a000000000000000000000000000000000000000000000000000000000\n      dup2\n      mstore\n      0x04\n      add\n      tag_312\n      swap1\n      tag_313\n      jump\t// in\n    tag_312:\n      mload(0x40)\n      dup1\n      swap2\n      sub\n      swap1\n      revert\n    tag_311:\n        /* \"contracts/Erc20token.sol\":2951:2952  0 */\n      0x00\n        /* \"contracts/Erc20token.sol\":2942:2948  tokens */\n      dup3\n        /* \"contracts/Erc20token.sol\":2942:2952  tokens > 0 */\n      gt\n        /* \"contracts/Erc20token.sol\":2934:2991  require(tokens > 0, \"Token value must be greater than 0\") */\n      tag_314\n      jumpi\n      mload(0x40)\n      0x08c379a000000000000000000000000000000000000000000000000000000000\n      dup2\n      mstore\n      0x04\n      add\n      tag_315\n      swap1\n      tag_252\n      jump\t// in\n    tag_315:\n      mload(0x40)\n      dup1\n      swap2\n      sub\n      swap1\n      revert\n    tag_314:\n        /* \"contracts/Erc20token.sol\":3033:3039  tokens */\n      dup2\n        /* \"contracts/Erc20token.sol\":3004:3011  allowed */\n      0x06\n        /* \"contracts/Erc20token.sol\":3004:3017  allowed[from] */\n      0x00\n        /* \"contracts/Erc20token.sol\":3012:3016  from */\n      dup7\n        /* \"contracts/Erc20token.sol\":3004:3017  allowed[from] */\n      0xffffffffffffffffffffffffffffffffffffffff\n      and\n      0xffffffffffffffffffffffffffffffffffffffff\n      and\n      dup2\n      mstore\n      0x20\n      add\n      swap1\n      dup2\n      mstore\n      0x20\n      add\n      0x00\n      keccak256\n        /* \"contracts/Erc20token.sol\":3004:3029  allowed[from][msg.sender] */\n      0x00\n        /* \"contracts/Erc20token.sol\":3018:3028  msg.sender */\n      caller\n        /* \"contracts/Erc20token.sol\":3004:3029  allowed[from][msg.sender] */\n      0xffffffffffffffffffffffffffffffffffffffff\n      and\n      0xffffffffffffffffffffffffffffffffffffffff\n      and\n      dup2\n      mstore\n      0x20\n      add\n      swap1\n      dup2\n      mstore\n      0x20\n      add\n      0x00\n      keccak256\n      0x00\n        /* \"contracts/Erc20token.sol\":3004:3039  allowed[from][msg.sender] -= tokens */\n      dup3\n      dup3\n      sload\n      tag_316\n      swap2\n      swap1\n      tag_214\n      jump\t// in\n    tag_316:\n      swap3\n      pop\n      pop\n      dup2\n      swap1\n      sstore\n      pop\n        /* \"contracts/Erc20token.sol\":3121:3127  tokens */\n      dup2\n        /* \"contracts/Erc20token.sol\":3103:3111  balances */\n      0x05\n        /* \"contracts/Erc20token.sol\":3103:3117  balances[from] */\n      0x00\n        /* \"contracts/Erc20token.sol\":3112:3116  from */\n      dup7\n        /* \"contracts/Erc20token.sol\":3103:3117  balances[from] */\n      0xffffffffffffffffffffffffffffffffffffffff\n      and\n      0xffffffffffffffffffffffffffffffffffffffff\n      and\n      dup2\n      mstore\n      0x20\n      add\n      swap1\n      dup2\n      mstore\n      0x20\n      add\n      0x00\n      keccak256\n      0x00\n        /* \"contracts/Erc20token.sol\":3103:3127  balances[from] -= tokens */\n      dup3\n      dup3\n      sload\n      tag_317\n      swap2\n      swap1\n      tag_214\n      jump\t// in\n    tag_317:\n      swap3\n      pop\n      pop\n      dup2\n      swap1\n      sstore\n      pop\n        /* \"contracts/Erc20token.sol\":3205:3211  tokens */\n      dup2\n        /* \"contracts/Erc20token.sol\":3189:3197  balances */\n      0x05\n        /* \"contracts/Erc20token.sol\":3189:3201  balances[to] */\n      0x00\n        /* \"contracts/Erc20token.sol\":3198:3200  to */\n      dup6\n        /* \"contracts/Erc20token.sol\":3189:3201  balances[to] */\n      0xffffffffffffffffffffffffffffffffffffffff\n      and\n      0xffffffffffffffffffffffffffffffffffffffff\n      and\n      dup2\n      mstore\n      0x20\n      add\n      swap1\n      dup2\n      mstore\n      0x20\n      add\n      0x00\n      keccak256\n      0x00\n        /* \"contracts/Erc20token.sol\":3189:3211  balances[to] += tokens */\n      dup3\n      dup3\n      sload\n      tag_318\n      swap2\n      swap1\n      tag_205\n      jump\t// in\n    tag_318:\n      swap3\n      pop\n      pop\n      dup2\n      swap1\n      sstore\n      pop\n        /* \"contracts/Erc20token.sol\":3244:3246  to */\n      dup3\n        /* \"contracts/Erc20token.sol\":3229:3255  Transfer(from, to, tokens) */\n      0xffffffffffffffffffffffffffffffffffffffff\n      and\n        /* \"contracts/Erc20token.sol\":3238:3242  from */\n      dup5\n        /* \"contracts/Erc20token.sol\":3229:3255  Transfer(from, to, tokens) */\n      0xffffffffffffffffffffffffffffffffffffffff\n      and\n      0xddf252ad1be2c89b69c2b068fc378daa952ba7f163c4a11628f55a4df523b3ef\n        /* \"contracts/Erc20token.sol\":3248:3254  tokens */\n      dup5\n        /* \"contracts/Erc20token.sol\":3229:3255  Transfer(from, to, tokens) */\n      mload(0x40)\n      tag_319\n      swap2\n      swap1\n      tag_67\n      jump\t// in\n    tag_319:\n      mload(0x40)\n      dup1\n      swap2\n      sub\n      swap1\n      log3\n        /* \"contracts/Erc20token.sol\":3275:3279  true */\n      0x01\n        /* \"contracts/Erc20token.sol\":3268:3279  return true */\n      swap1\n      pop\n        /* \"contracts/Erc20token.sol\":2643:3287  function transferFrom(address from, address to, uint tokens) public virtual override returns (bool success){\r... */\n      swap4\n      swap3\n      pop\n      pop\n      pop\n      jump\t// out\n        /* \"contracts/Erc20token.sol\":1643:1972  function transfer(address to, uint tokens) public virtual override returns (bool success){\r... */\n    tag_300:\n        /* \"contracts/Erc20token.sol\":1719:1731  bool success */\n      0x00\n        /* \"contracts/Erc20token.sol\":1775:1781  tokens */\n      dup2\n        /* \"contracts/Erc20token.sol\":1751:1759  balances */\n      0x05\n        /* \"contracts/Erc20token.sol\":1751:1771  balances[msg.sender] */\n      0x00\n        /* \"contracts/Erc20token.sol\":1760:1770  msg.sender */\n      caller\n        /* \"contracts/Erc20token.sol\":1751:1771  balances[msg.sender] */\n      0xffffffffffffffffffffffffffffffffffffffff\n      and\n      0xffffffffffffffffffffffffffffffffffffffff\n      and\n      dup2\n      mstore\n      0x20\n      add\n      swap1\n      dup2\n      mstore\n      0x20\n      add\n      0x00\n      keccak256\n      sload\n        /* \"contracts/Erc20token.sol\":1751:1781  balances[msg.sender] >= tokens */\n      lt\n      iszero\n        /* \"contracts/Erc20token.sol\":1743:1814  require(balances[msg.sender] >= tokens, \"Insufficient Account Balance\") */\n      tag_321\n      jumpi\n      mload(0x40)\n      0x08c379a000000000000000000000000000000000000000000000000000000000\n      dup2\n      mstore\n      0x04\n      add\n      tag_322\n      swap1\n      tag_323\n      jump\t// in\n    tag_322:\n      mload(0x40)\n      dup1\n      swap2\n      sub\n      swap1\n      revert\n    tag_321:\n        /* \"contracts/Erc20token.sol\":1843:1849  tokens */\n      dup2\n        /* \"contracts/Erc20token.sol\":1827:1835  balances */\n      0x05\n        /* \"contracts/Erc20token.sol\":1827:1839  balances[to] */\n      0x00\n        /* \"contracts/Erc20token.sol\":1836:1838  to */\n      dup6\n        /* \"contracts/Erc20token.sol\":1827:1839  balances[to] */\n      0xffffffffffffffffffffffffffffffffffffffff\n      and\n      0xffffffffffffffffffffffffffffffffffffffff\n      and\n      dup2\n      mstore\n      0x20\n      add\n      swap1\n      dup2\n      mstore\n      0x20\n      add\n      0x00\n      keccak256\n      0x00\n        /* \"contracts/Erc20token.sol\":1827:1849  balances[to] += tokens */\n      dup3\n      dup3\n      sload\n      tag_324\n      swap2\n      swap1\n      tag_205\n      jump\t// in\n    tag_324:\n      swap3\n      pop\n      pop\n      dup2\n      swap1\n      sstore\n      pop\n        /* \"contracts/Erc20token.sol\":1884:1890  tokens */\n      dup2\n        /* \"contracts/Erc20token.sol\":1860:1868  balances */\n      0x05\n        /* \"contracts/Erc20token.sol\":1860:1880  balances[msg.sender] */\n      0x00\n        /* \"contracts/Erc20token.sol\":1869:1879  msg.sender */\n      caller\n        /* \"contracts/Erc20token.sol\":1860:1880  balances[msg.sender] */\n      0xffffffffffffffffffffffffffffffffffffffff\n      and\n      0xffffffffffffffffffffffffffffffffffffffff\n      and\n      dup2\n      mstore\n      0x20\n      add\n      swap1\n      dup2\n      mstore\n      0x20\n      add\n      0x00\n      keccak256\n      0x00\n        /* \"contracts/Erc20token.sol\":1860:1890  balances[msg.sender] -= tokens */\n      dup3\n      dup3\n      sload\n      tag_325\n      swap2\n      swap1\n      tag_214\n      jump\t// in\n    tag_325:\n      swap3\n      pop\n      pop\n      dup2\n      swap1\n      sstore\n      pop\n        /* \"contracts/Erc20token.sol\":1929:1931  to */\n      dup3\n        /* \"contracts/Erc20token.sol\":1908:1940  Transfer(msg.sender, to, tokens) */\n      0xffffffffffffffffffffffffffffffffffffffff\n      and\n        /* \"contracts/Erc20token.sol\":1917:1927  msg.sender */\n      caller\n        /* \"contracts/Erc20token.sol\":1908:1940  Transfer(msg.sender, to, tokens) */\n      0xffffffffffffffffffffffffffffffffffffffff\n      and\n      0xddf252ad1be2c89b69c2b068fc378daa952ba7f163c4a11628f55a4df523b3ef\n        /* \"contracts/Erc20token.sol\":1933:1939  tokens */\n      dup5\n        /* \"contracts/Erc20token.sol\":1908:1940  Transfer(msg.sender, to, tokens) */\n      mload(0x40)\n      tag_326\n      swap2\n      swap1\n      tag_67\n      jump\t// in\n    tag_326:\n      mload(0x40)\n      dup1\n      swap2\n      sub\n      swap1\n      log3\n        /* \"contracts/Erc20token.sol\":1960:1964  true */\n      0x01\n        /* \"contracts/Erc20token.sol\":1953:1964  return true */\n      swap1\n      pop\n        /* \"contracts/Erc20token.sol\":1643:1972  function transfer(address to, uint tokens) public virtual override returns (bool success){\r... */\n      swap3\n      swap2\n      pop\n      pop\n      jump\t// out\n        /* \"#utility.yul\":7:146   */\n    tag_328:\n        /* \"#utility.yul\":53:58   */\n      0x00\n        /* \"#utility.yul\":91:97   */\n      dup2\n        /* \"#utility.yul\":78:98   */\n      calldataload\n        /* \"#utility.yul\":69:98   */\n      swap1\n      pop\n        /* \"#utility.yul\":107:140   */\n      tag_330\n        /* \"#utility.yul\":134:139   */\n      dup2\n        /* \"#utility.yul\":107:140   */\n      tag_331\n      jump\t// in\n    tag_330:\n        /* \"#utility.yul\":7:146   */\n      swap3\n      swap2\n      pop\n      pop\n      jump\t// out\n        /* \"#utility.yul\":152:307   */\n    tag_332:\n        /* \"#utility.yul\":206:211   */\n      0x00\n        /* \"#utility.yul\":244:250   */\n      dup2\n        /* \"#utility.yul\":231:251   */\n      calldataload\n        /* \"#utility.yul\":222:251   */\n      swap1\n      pop\n        /* \"#utility.yul\":260:301   */\n      tag_334\n        /* \"#utility.yul\":295:300   */\n      dup2\n        /* \"#utility.yul\":260:301   */\n      tag_335\n      jump\t// in\n    tag_334:\n        /* \"#utility.yul\":152:307   */\n      swap3\n      swap2\n      pop\n      pop\n      jump\t// out\n        /* \"#utility.yul\":313:452   */\n    tag_336:\n        /* \"#utility.yul\":359:364   */\n      0x00\n        /* \"#utility.yul\":397:403   */\n      dup2\n        /* \"#utility.yul\":384:404   */\n      calldataload\n        /* \"#utility.yul\":375:404   */\n      swap1\n      pop\n        /* \"#utility.yul\":413:446   */\n      tag_338\n        /* \"#utility.yul\":440:445   */\n      dup2\n        /* \"#utility.yul\":413:446   */\n      tag_339\n      jump\t// in\n    tag_338:\n        /* \"#utility.yul\":313:452   */\n      swap3\n      swap2\n      pop\n      pop\n      jump\t// out\n        /* \"#utility.yul\":458:787   */\n    tag_77:\n        /* \"#utility.yul\":517:523   */\n      0x00\n        /* \"#utility.yul\":566:568   */\n      0x20\n        /* \"#utility.yul\":554:563   */\n      dup3\n        /* \"#utility.yul\":545:552   */\n      dup5\n        /* \"#utility.yul\":541:564   */\n      sub\n        /* \"#utility.yul\":537:569   */\n      slt\n        /* \"#utility.yul\":534:653   */\n      iszero\n      tag_341\n      jumpi\n        /* \"#utility.yul\":572:651   */\n      tag_342\n      tag_343\n      jump\t// in\n    tag_342:\n        /* \"#utility.yul\":534:653   */\n    tag_341:\n        /* \"#utility.yul\":692:693   */\n      0x00\n        /* \"#utility.yul\":717:770   */\n      tag_344\n        /* \"#utility.yul\":762:769   */\n      dup5\n        /* \"#utility.yul\":753:759   */\n      dup3\n        /* \"#utility.yul\":742:751   */\n      dup6\n        /* \"#utility.yul\":738:760   */\n      add\n        /* \"#utility.yul\":717:770   */\n      tag_328\n      jump\t// in\n    tag_344:\n        /* \"#utility.yul\":707:770   */\n      swap2\n      pop\n        /* \"#utility.yul\":663:780   */\n      pop\n        /* \"#utility.yul\":458:787   */\n      swap3\n      swap2\n      pop\n      pop\n      jump\t// out\n        /* \"#utility.yul\":793:1138   */\n    tag_124:\n        /* \"#utility.yul\":860:866   */\n      0x00\n        /* \"#utility.yul\":909:911   */\n      0x20\n        /* \"#utility.yul\":897:906   */\n      dup3\n        /* \"#utility.yul\":888:895   */\n      dup5\n        /* \"#utility.yul\":884:907   */\n      sub\n        /* \"#utility.yul\":880:912   */\n      slt\n        /* \"#utility.yul\":877:996   */\n      iszero\n      tag_346\n      jumpi\n        /* \"#utility.yul\":915:994   */\n      tag_347\n      tag_343\n      jump\t// in\n    tag_347:\n        /* \"#utility.yul\":877:996   */\n    tag_346:\n        /* \"#utility.yul\":1035:1036   */\n      0x00\n        /* \"#utility.yul\":1060:1121   */\n      tag_348\n        /* \"#utility.yul\":1113:1120   */\n      dup5\n        /* \"#utility.yul\":1104:1110   */\n      dup3\n        /* \"#utility.yul\":1093:1102   */\n      dup6\n        /* \"#utility.yul\":1089:1111   */\n      add\n        /* \"#utility.yul\":1060:1121   */\n      tag_332\n      jump\t// in\n    tag_348:\n        /* \"#utility.yul\":1050:1121   */\n      swap2\n      pop\n        /* \"#utility.yul\":1006:1131   */\n      pop\n        /* \"#utility.yul\":793:1138   */\n      swap3\n      swap2\n      pop\n      pop\n      jump\t// out\n        /* \"#utility.yul\":1144:1618   */\n    tag_115:\n        /* \"#utility.yul\":1212:1218   */\n      0x00\n        /* \"#utility.yul\":1220:1226   */\n      dup1\n        /* \"#utility.yul\":1269:1271   */\n      0x40\n        /* \"#utility.yul\":1257:1266   */\n      dup4\n        /* \"#utility.yul\":1248:1255   */\n      dup6\n        /* \"#utility.yul\":1244:1267   */\n      sub\n        /* \"#utility.yul\":1240:1272   */\n      slt\n        /* \"#utility.yul\":1237:1356   */\n      iszero\n      tag_350\n      jumpi\n        /* \"#utility.yul\":1275:1354   */\n      tag_351\n      tag_343\n      jump\t// in\n    tag_351:\n        /* \"#utility.yul\":1237:1356   */\n    tag_350:\n        /* \"#utility.yul\":1395:1396   */\n      0x00\n        /* \"#utility.yul\":1420:1473   */\n      tag_352\n        /* \"#utility.yul\":1465:1472   */\n      dup6\n        /* \"#utility.yul\":1456:1462   */\n      dup3\n        /* \"#utility.yul\":1445:1454   */\n      dup7\n        /* \"#utility.yul\":1441:1463   */\n      add\n        /* \"#utility.yul\":1420:1473   */\n      tag_328\n      jump\t// in\n    tag_352:\n        /* \"#utility.yul\":1410:1473   */\n      swap3\n      pop\n        /* \"#utility.yul\":1366:1483   */\n      pop\n        /* \"#utility.yul\":1522:1524   */\n      0x20\n        /* \"#utility.yul\":1548:1601   */\n      tag_353\n        /* \"#utility.yul\":1593:1600   */\n      dup6\n        /* \"#utility.yul\":1584:1590   */\n      dup3\n        /* \"#utility.yul\":1573:1582   */\n      dup7\n        /* \"#utility.yul\":1569:1591   */\n      add\n        /* \"#utility.yul\":1548:1601   */\n      tag_328\n      jump\t// in\n    tag_353:\n        /* \"#utility.yul\":1538:1601   */\n      swap2\n      pop\n        /* \"#utility.yul\":1493:1611   */\n      pop\n        /* \"#utility.yul\":1144:1618   */\n      swap3\n      pop\n      swap3\n      swap1\n      pop\n      jump\t// out\n        /* \"#utility.yul\":1624:2243   */\n    tag_71:\n        /* \"#utility.yul\":1701:1707   */\n      0x00\n        /* \"#utility.yul\":1709:1715   */\n      dup1\n        /* \"#utility.yul\":1717:1723   */\n      0x00\n        /* \"#utility.yul\":1766:1768   */\n      0x60\n        /* \"#utility.yul\":1754:1763   */\n      dup5\n        /* \"#utility.yul\":1745:1752   */\n      dup7\n        /* \"#utility.yul\":1741:1764   */\n      sub\n        /* \"#utility.yul\":1737:1769   */\n      slt\n        /* \"#utility.yul\":1734:1853   */\n      iszero\n      tag_355\n      jumpi\n        /* \"#utility.yul\":1772:1851   */\n      tag_356\n      tag_343\n      jump\t// in\n    tag_356:\n        /* \"#utility.yul\":1734:1853   */\n    tag_355:\n        /* \"#utility.yul\":1892:1893   */\n      0x00\n        /* \"#utility.yul\":1917:1970   */\n      tag_357\n        /* \"#utility.yul\":1962:1969   */\n      dup7\n        /* \"#utility.yul\":1953:1959   */\n      dup3\n        /* \"#utility.yul\":1942:1951   */\n      dup8\n        /* \"#utility.yul\":1938:1960   */\n      add\n        /* \"#utility.yul\":1917:1970   */\n      tag_328\n      jump\t// in\n    tag_357:\n        /* \"#utility.yul\":1907:1970   */\n      swap4\n      pop\n        /* \"#utility.yul\":1863:1980   */\n      pop\n        /* \"#utility.yul\":2019:2021   */\n      0x20\n        /* \"#utility.yul\":2045:2098   */\n      tag_358\n        /* \"#utility.yul\":2090:2097   */\n      dup7\n        /* \"#utility.yul\":2081:2087   */\n      dup3\n        /* \"#utility.yul\":2070:2079   */\n      dup8\n        /* \"#utility.yul\":2066:2088   */\n      add\n        /* \"#utility.yul\":2045:2098   */\n      tag_328\n      jump\t// in\n    tag_358:\n        /* \"#utility.yul\":2035:2098   */\n      swap3\n      pop\n        /* \"#utility.yul\":1990:2108   */\n      pop\n        /* \"#utility.yul\":2147:2149   */\n      0x40\n        /* \"#utility.yul\":2173:2226   */\n      tag_359\n        /* \"#utility.yul\":2218:2225   */\n      dup7\n        /* \"#utility.yul\":2209:2215   */\n      dup3\n        /* \"#utility.yul\":2198:2207   */\n      dup8\n        /* \"#utility.yul\":2194:2216   */\n      add\n        /* \"#utility.yul\":2173:2226   */\n      tag_336\n      jump\t// in\n    tag_359:\n        /* \"#utility.yul\":2163:2226   */\n      swap2\n      pop\n        /* \"#utility.yul\":2118:2236   */\n      pop\n        /* \"#utility.yul\":1624:2243   */\n      swap3\n      pop\n      swap3\n      pop\n      swap3\n      jump\t// out\n        /* \"#utility.yul\":2249:2723   */\n    tag_59:\n        /* \"#utility.yul\":2317:2323   */\n      0x00\n        /* \"#utility.yul\":2325:2331   */\n      dup1\n        /* \"#utility.yul\":2374:2376   */\n      0x40\n        /* \"#utility.yul\":2362:2371   */\n      dup4\n        /* \"#utility.yul\":2353:2360   */\n      dup6\n        /* \"#utility.yul\":2349:2372   */\n      sub\n        /* \"#utility.yul\":2345:2377   */\n      slt\n        /* \"#utility.yul\":2342:2461   */\n      iszero\n      tag_361\n      jumpi\n        /* \"#utility.yul\":2380:2459   */\n      tag_362\n      tag_343\n      jump\t// in\n    tag_362:\n        /* \"#utility.yul\":2342:2461   */\n    tag_361:\n        /* \"#utility.yul\":2500:2501   */\n      0x00\n        /* \"#utility.yul\":2525:2578   */\n      tag_363\n        /* \"#utility.yul\":2570:2577   */\n      dup6\n        /* \"#utility.yul\":2561:2567   */\n      dup3\n        /* \"#utility.yul\":2550:2559   */\n      dup7\n        /* \"#utility.yul\":2546:2568   */\n      add\n        /* \"#utility.yul\":2525:2578   */\n      tag_328\n      jump\t// in\n    tag_363:\n        /* \"#utility.yul\":2515:2578   */\n      swap3\n      pop\n        /* \"#utility.yul\":2471:2588   */\n      pop\n        /* \"#utility.yul\":2627:2629   */\n      0x20\n        /* \"#utility.yul\":2653:2706   */\n      tag_364\n        /* \"#utility.yul\":2698:2705   */\n      dup6\n        /* \"#utility.yul\":2689:2695   */\n      dup3\n        /* \"#utility.yul\":2678:2687   */\n      dup7\n        /* \"#utility.yul\":2674:2696   */\n      add\n        /* \"#utility.yul\":2653:2706   */\n      tag_336\n      jump\t// in\n    tag_364:\n        /* \"#utility.yul\":2643:2706   */\n      swap2\n      pop\n        /* \"#utility.yul\":2598:2716   */\n      pop\n        /* \"#utility.yul\":2249:2723   */\n      swap3\n      pop\n      swap3\n      swap1\n      pop\n      jump\t// out\n        /* \"#utility.yul\":2729:3058   */\n    tag_93:\n        /* \"#utility.yul\":2788:2794   */\n      0x00\n        /* \"#utility.yul\":2837:2839   */\n      0x20\n        /* \"#utility.yul\":2825:2834   */\n      dup3\n        /* \"#utility.yul\":2816:2823   */\n      dup5\n        /* \"#utility.yul\":2812:2835   */\n      sub\n        /* \"#utility.yul\":2808:2840   */\n      slt\n        /* \"#utility.yul\":2805:2924   */\n      iszero\n      tag_366\n      jumpi\n        /* \"#utility.yul\":2843:2922   */\n      tag_367\n      tag_343\n      jump\t// in\n    tag_367:\n        /* \"#utility.yul\":2805:2924   */\n    tag_366:\n        /* \"#utility.yul\":2963:2964   */\n      0x00\n        /* \"#utility.yul\":2988:3041   */\n      tag_368\n        /* \"#utility.yul\":3033:3040   */\n      dup5\n        /* \"#utility.yul\":3024:3030   */\n      dup3\n        /* \"#utility.yul\":3013:3022   */\n      dup6\n        /* \"#utility.yul\":3009:3031   */\n      add\n        /* \"#utility.yul\":2988:3041   */\n      tag_336\n      jump\t// in\n    tag_368:\n        /* \"#utility.yul\":2978:3041   */\n      swap2\n      pop\n        /* \"#utility.yul\":2934:3051   */\n      pop\n        /* \"#utility.yul\":2729:3058   */\n      swap3\n      swap2\n      pop\n      pop\n      jump\t// out\n        /* \"#utility.yul\":3064:3206   */\n    tag_369:\n        /* \"#utility.yul\":3167:3199   */\n      tag_371\n        /* \"#utility.yul\":3193:3198   */\n      dup2\n        /* \"#utility.yul\":3167:3199   */\n      tag_372\n      jump\t// in\n    tag_371:\n        /* \"#utility.yul\":3162:3165   */\n      dup3\n        /* \"#utility.yul\":3155:3200   */\n      mstore\n        /* \"#utility.yul\":3064:3206   */\n      pop\n      pop\n      jump\t// out\n        /* \"#utility.yul\":3212:3330   */\n    tag_373:\n        /* \"#utility.yul\":3299:3323   */\n      tag_375\n        /* \"#utility.yul\":3317:3322   */\n      dup2\n        /* \"#utility.yul\":3299:3323   */\n      tag_376\n      jump\t// in\n    tag_375:\n        /* \"#utility.yul\":3294:3297   */\n      dup3\n        /* \"#utility.yul\":3287:3324   */\n      mstore\n        /* \"#utility.yul\":3212:3330   */\n      pop\n      pop\n      jump\t// out\n        /* \"#utility.yul\":3336:3445   */\n    tag_377:\n        /* \"#utility.yul\":3417:3438   */\n      tag_379\n        /* \"#utility.yul\":3432:3437   */\n      dup2\n        /* \"#utility.yul\":3417:3438   */\n      tag_380\n      jump\t// in\n    tag_379:\n        /* \"#utility.yul\":3412:3415   */\n      dup3\n        /* \"#utility.yul\":3405:3439   */\n      mstore\n        /* \"#utility.yul\":3336:3445   */\n      pop\n      pop\n      jump\t// out\n        /* \"#utility.yul\":3451:3596   */\n    tag_381:\n        /* \"#utility.yul\":3545:3589   */\n      tag_383\n        /* \"#utility.yul\":3583:3588   */\n      dup2\n        /* \"#utility.yul\":3545:3589   */\n      tag_384\n      jump\t// in\n    tag_383:\n        /* \"#utility.yul\":3540:3543   */\n      dup3\n        /* \"#utility.yul\":3533:3590   */\n      mstore\n        /* \"#utility.yul\":3451:3596   */\n      pop\n      pop\n      jump\t// out\n        /* \"#utility.yul\":3602:3966   */\n    tag_385:\n        /* \"#utility.yul\":3690:3693   */\n      0x00\n        /* \"#utility.yul\":3718:3757   */\n      tag_387\n        /* \"#utility.yul\":3751:3756   */\n      dup3\n        /* \"#utility.yul\":3718:3757   */\n      tag_388\n      jump\t// in\n    tag_387:\n        /* \"#utility.yul\":3773:3844   */\n      tag_389\n        /* \"#utility.yul\":3837:3843   */\n      dup2\n        /* \"#utility.yul\":3832:3835   */\n      dup6\n        /* \"#utility.yul\":3773:3844   */\n      tag_390\n      jump\t// in\n    tag_389:\n        /* \"#utility.yul\":3766:3844   */\n      swap4\n      pop\n        /* \"#utility.yul\":3853:3905   */\n      tag_391\n        /* \"#utility.yul\":3898:3904   */\n      dup2\n        /* \"#utility.yul\":3893:3896   */\n      dup6\n        /* \"#utility.yul\":3886:3890   */\n      0x20\n        /* \"#utility.yul\":3879:3884   */\n      dup7\n        /* \"#utility.yul\":3875:3891   */\n      add\n        /* \"#utility.yul\":3853:3905   */\n      tag_392\n      jump\t// in\n    tag_391:\n        /* \"#utility.yul\":3930:3959   */\n      tag_393\n        /* \"#utility.yul\":3952:3958   */\n      dup2\n        /* \"#utility.yul\":3930:3959   */\n      tag_394\n      jump\t// in\n    tag_393:\n        /* \"#utility.yul\":3925:3928   */\n      dup5\n        /* \"#utility.yul\":3921:3960   */\n      add\n        /* \"#utility.yul\":3914:3960   */\n      swap2\n      pop\n        /* \"#utility.yul\":3694:3966   */\n      pop\n        /* \"#utility.yul\":3602:3966   */\n      swap3\n      swap2\n      pop\n      pop\n      jump\t// out\n        /* \"#utility.yul\":3972:4349   */\n    tag_395:\n        /* \"#utility.yul\":4078:4081   */\n      0x00\n        /* \"#utility.yul\":4106:4145   */\n      tag_397\n        /* \"#utility.yul\":4139:4144   */\n      dup3\n        /* \"#utility.yul\":4106:4145   */\n      tag_388\n      jump\t// in\n    tag_397:\n        /* \"#utility.yul\":4161:4250   */\n      tag_398\n        /* \"#utility.yul\":4243:4249   */\n      dup2\n        /* \"#utility.yul\":4238:4241   */\n      dup6\n        /* \"#utility.yul\":4161:4250   */\n      tag_399\n      jump\t// in\n    tag_398:\n        /* \"#utility.yul\":4154:4250   */\n      swap4\n      pop\n        /* \"#utility.yul\":4259:4311   */\n      tag_400\n        /* \"#utility.yul\":4304:4310   */\n      dup2\n        /* \"#utility.yul\":4299:4302   */\n      dup6\n        /* \"#utility.yul\":4292:4296   */\n      0x20\n        /* \"#utility.yul\":4285:4290   */\n      dup7\n        /* \"#utility.yul\":4281:4297   */\n      add\n        /* \"#utility.yul\":4259:4311   */\n      tag_392\n      jump\t// in\n    tag_400:\n        /* \"#utility.yul\":4336:4342   */\n      dup1\n        /* \"#utility.yul\":4331:4334   */\n      dup5\n        /* \"#utility.yul\":4327:4343   */\n      add\n        /* \"#utility.yul\":4320:4343   */\n      swap2\n      pop\n        /* \"#utility.yul\":4082:4349   */\n      pop\n        /* \"#utility.yul\":3972:4349   */\n      swap3\n      swap2\n      pop\n      pop\n      jump\t// out\n        /* \"#utility.yul\":4355:4721   */\n    tag_401:\n        /* \"#utility.yul\":4497:4500   */\n      0x00\n        /* \"#utility.yul\":4518:4585   */\n      tag_403\n        /* \"#utility.yul\":4582:4584   */\n      0x30\n        /* \"#utility.yul\":4577:4580   */\n      dup4\n        /* \"#utility.yul\":4518:4585   */\n      tag_390\n      jump\t// in\n    tag_403:\n        /* \"#utility.yul\":4511:4585   */\n      swap2\n      pop\n        /* \"#utility.yul\":4594:4687   */\n      tag_404\n        /* \"#utility.yul\":4683:4686   */\n      dup3\n        /* \"#utility.yul\":4594:4687   */\n      tag_405\n      jump\t// in\n    tag_404:\n        /* \"#utility.yul\":4712:4714   */\n      0x40\n        /* \"#utility.yul\":4707:4710   */\n      dup3\n        /* \"#utility.yul\":4703:4715   */\n      add\n        /* \"#utility.yul\":4696:4715   */\n      swap1\n      pop\n        /* \"#utility.yul\":4355:4721   */\n      swap2\n      swap1\n      pop\n      jump\t// out\n        /* \"#utility.yul\":4727:5093   */\n    tag_406:\n        /* \"#utility.yul\":4869:4872   */\n      0x00\n        /* \"#utility.yul\":4890:4957   */\n      tag_408\n        /* \"#utility.yul\":4954:4956   */\n      0x1f\n        /* \"#utility.yul\":4949:4952   */\n      dup4\n        /* \"#utility.yul\":4890:4957   */\n      tag_390\n      jump\t// in\n    tag_408:\n        /* \"#utility.yul\":4883:4957   */\n      swap2\n      pop\n        /* \"#utility.yul\":4966:5059   */\n      tag_409\n        /* \"#utility.yul\":5055:5058   */\n      dup3\n        /* \"#utility.yul\":4966:5059   */\n      tag_410\n      jump\t// in\n    tag_409:\n        /* \"#utility.yul\":5084:5086   */\n      0x20\n        /* \"#utility.yul\":5079:5082   */\n      dup3\n        /* \"#utility.yul\":5075:5087   */\n      add\n        /* \"#utility.yul\":5068:5087   */\n      swap1\n      pop\n        /* \"#utility.yul\":4727:5093   */\n      swap2\n      swap1\n      pop\n      jump\t// out\n        /* \"#utility.yul\":5099:5465   */\n    tag_411:\n        /* \"#utility.yul\":5241:5244   */\n      0x00\n        /* \"#utility.yul\":5262:5329   */\n      tag_413\n        /* \"#utility.yul\":5326:5328   */\n      0x22\n        /* \"#utility.yul\":5321:5324   */\n      dup4\n        /* \"#utility.yul\":5262:5329   */\n      tag_390\n      jump\t// in\n    tag_413:\n        /* \"#utility.yul\":5255:5329   */\n      swap2\n      pop\n        /* \"#utility.yul\":5338:5431   */\n      tag_414\n        /* \"#utility.yul\":5427:5430   */\n      dup3\n        /* \"#utility.yul\":5338:5431   */\n      tag_415\n      jump\t// in\n    tag_414:\n        /* \"#utility.yul\":5456:5458   */\n      0x40\n        /* \"#utility.yul\":5451:5454   */\n      dup3\n        /* \"#utility.yul\":5447:5459   */\n      add\n        /* \"#utility.yul\":5440:5459   */\n      swap1\n      pop\n        /* \"#utility.yul\":5099:5465   */\n      swap2\n      swap1\n      pop\n      jump\t// out\n        /* \"#utility.yul\":5471:5837   */\n    tag_416:\n        /* \"#utility.yul\":5613:5616   */\n      0x00\n        /* \"#utility.yul\":5634:5701   */\n      tag_418\n        /* \"#utility.yul\":5698:5700   */\n      0x20\n        /* \"#utility.yul\":5693:5696   */\n      dup4\n        /* \"#utility.yul\":5634:5701   */\n      tag_390\n      jump\t// in\n    tag_418:\n        /* \"#utility.yul\":5627:5701   */\n      swap2\n      pop\n        /* \"#utility.yul\":5710:5803   */\n      tag_419\n        /* \"#utility.yul\":5799:5802   */\n      dup3\n        /* \"#utility.yul\":5710:5803   */\n      tag_420\n      jump\t// in\n    tag_419:\n        /* \"#utility.yul\":5828:5830   */\n      0x20\n        /* \"#utility.yul\":5823:5826   */\n      dup3\n        /* \"#utility.yul\":5819:5831   */\n      add\n        /* \"#utility.yul\":5812:5831   */\n      swap1\n      pop\n        /* \"#utility.yul\":5471:5837   */\n      swap2\n      swap1\n      pop\n      jump\t// out\n        /* \"#utility.yul\":5843:6245   */\n    tag_421:\n        /* \"#utility.yul\":6003:6006   */\n      0x00\n        /* \"#utility.yul\":6024:6109   */\n      tag_423\n        /* \"#utility.yul\":6106:6108   */\n      0x1f\n        /* \"#utility.yul\":6101:6104   */\n      dup4\n        /* \"#utility.yul\":6024:6109   */\n      tag_399\n      jump\t// in\n    tag_423:\n        /* \"#utility.yul\":6017:6109   */\n      swap2\n      pop\n        /* \"#utility.yul\":6118:6211   */\n      tag_424\n        /* \"#utility.yul\":6207:6210   */\n      dup3\n        /* \"#utility.yul\":6118:6211   */\n      tag_425\n      jump\t// in\n    tag_424:\n        /* \"#utility.yul\":6236:6238   */\n      0x1f\n        /* \"#utility.yul\":6231:6234   */\n      dup3\n        /* \"#utility.yul\":6227:6239   */\n      add\n        /* \"#utility.yul\":6220:6239   */\n      swap1\n      pop\n        /* \"#utility.yul\":5843:6245   */\n      swap2\n      swap1\n      pop\n      jump\t// out\n        /* \"#utility.yul\":6251:6617   */\n    tag_426:\n        /* \"#utility.yul\":6393:6396   */\n      0x00\n        /* \"#utility.yul\":6414:6481   */\n      tag_428\n        /* \"#utility.yul\":6478:6480   */\n      0x22\n        /* \"#utility.yul\":6473:6476   */\n      dup4\n        /* \"#utility.yul\":6414:6481   */\n      tag_390\n      jump\t// in\n    tag_428:\n        /* \"#utility.yul\":6407:6481   */\n      swap2\n      pop\n        /* \"#utility.yul\":6490:6583   */\n      tag_429\n        /* \"#utility.yul\":6579:6582   */\n      dup3\n        /* \"#utility.yul\":6490:6583   */\n      tag_430\n      jump\t// in\n    tag_429:\n        /* \"#utility.yul\":6608:6610   */\n      0x40\n        /* \"#utility.yul\":6603:6606   */\n      dup3\n        /* \"#utility.yul\":6599:6611   */\n      add\n        /* \"#utility.yul\":6592:6611   */\n      swap1\n      pop\n        /* \"#utility.yul\":6251:6617   */\n      swap2\n      swap1\n      pop\n      jump\t// out\n        /* \"#utility.yul\":6623:6989   */\n    tag_431:\n        /* \"#utility.yul\":6765:6768   */\n      0x00\n        /* \"#utility.yul\":6786:6853   */\n      tag_433\n        /* \"#utility.yul\":6850:6852   */\n      0x30\n        /* \"#utility.yul\":6845:6848   */\n      dup4\n        /* \"#utility.yul\":6786:6853   */\n      tag_390\n      jump\t// in\n    tag_433:\n        /* \"#utility.yul\":6779:6853   */\n      swap2\n      pop\n        /* \"#utility.yul\":6862:6955   */\n      tag_434\n        /* \"#utility.yul\":6951:6954   */\n      dup3\n        /* \"#utility.yul\":6862:6955   */\n      tag_435\n      jump\t// in\n    tag_434:\n        /* \"#utility.yul\":6980:6982   */\n      0x40\n        /* \"#utility.yul\":6975:6978   */\n      dup3\n        /* \"#utility.yul\":6971:6983   */\n      add\n        /* \"#utility.yul\":6964:6983   */\n      swap1\n      pop\n        /* \"#utility.yul\":6623:6989   */\n      swap2\n      swap1\n      pop\n      jump\t// out\n        /* \"#utility.yul\":6995:7361   */\n    tag_436:\n        /* \"#utility.yul\":7137:7140   */\n      0x00\n        /* \"#utility.yul\":7158:7225   */\n      tag_438\n        /* \"#utility.yul\":7222:7224   */\n      0x1e\n        /* \"#utility.yul\":7217:7220   */\n      dup4\n        /* \"#utility.yul\":7158:7225   */\n      tag_390\n      jump\t// in\n    tag_438:\n        /* \"#utility.yul\":7151:7225   */\n      swap2\n      pop\n        /* \"#utility.yul\":7234:7327   */\n      tag_439\n        /* \"#utility.yul\":7323:7326   */\n      dup3\n        /* \"#utility.yul\":7234:7327   */\n      tag_440\n      jump\t// in\n    tag_439:\n        /* \"#utility.yul\":7352:7354   */\n      0x20\n        /* \"#utility.yul\":7347:7350   */\n      dup3\n        /* \"#utility.yul\":7343:7355   */\n      add\n        /* \"#utility.yul\":7336:7355   */\n      swap1\n      pop\n        /* \"#utility.yul\":6995:7361   */\n      swap2\n      swap1\n      pop\n      jump\t// out\n        /* \"#utility.yul\":7367:7733   */\n    tag_441:\n        /* \"#utility.yul\":7509:7512   */\n      0x00\n        /* \"#utility.yul\":7530:7597   */\n      tag_443\n        /* \"#utility.yul\":7594:7596   */\n      0x30\n        /* \"#utility.yul\":7589:7592   */\n      dup4\n        /* \"#utility.yul\":7530:7597   */\n      tag_390\n      jump\t// in\n    tag_443:\n        /* \"#utility.yul\":7523:7597   */\n      swap2\n      pop\n        /* \"#utility.yul\":7606:7699   */\n      tag_444\n        /* \"#utility.yul\":7695:7698   */\n      dup3\n        /* \"#utility.yul\":7606:7699   */\n      tag_445\n      jump\t// in\n    tag_444:\n        /* \"#utility.yul\":7724:7726   */\n      0x40\n        /* \"#utility.yul\":7719:7722   */\n      dup3\n        /* \"#utility.yul\":7715:7727   */\n      add\n        /* \"#utility.yul\":7708:7727   */\n      swap1\n      pop\n        /* \"#utility.yul\":7367:7733   */\n      swap2\n      swap1\n      pop\n      jump\t// out\n        /* \"#utility.yul\":7739:8141   */\n    tag_446:\n        /* \"#utility.yul\":7899:7902   */\n      0x00\n        /* \"#utility.yul\":7920:8005   */\n      tag_448\n        /* \"#utility.yul\":8002:8004   */\n      0x21\n        /* \"#utility.yul\":7997:8000   */\n      dup4\n        /* \"#utility.yul\":7920:8005   */\n      tag_399\n      jump\t// in\n    tag_448:\n        /* \"#utility.yul\":7913:8005   */\n      swap2\n      pop\n        /* \"#utility.yul\":8014:8107   */\n      tag_449\n        /* \"#utility.yul\":8103:8106   */\n      dup3\n        /* \"#utility.yul\":8014:8107   */\n      tag_450\n      jump\t// in\n    tag_449:\n        /* \"#utility.yul\":8132:8134   */\n      0x21\n        /* \"#utility.yul\":8127:8130   */\n      dup3\n        /* \"#utility.yul\":8123:8135   */\n      add\n        /* \"#utility.yul\":8116:8135   */\n      swap1\n      pop\n        /* \"#utility.yul\":7739:8141   */\n      swap2\n      swap1\n      pop\n      jump\t// out\n        /* \"#utility.yul\":8147:8513   */\n    tag_451:\n        /* \"#utility.yul\":8289:8292   */\n      0x00\n        /* \"#utility.yul\":8310:8377   */\n      tag_453\n        /* \"#utility.yul\":8374:8376   */\n      0x1c\n        /* \"#utility.yul\":8369:8372   */\n      dup4\n        /* \"#utility.yul\":8310:8377   */\n      tag_390\n      jump\t// in\n    tag_453:\n        /* \"#utility.yul\":8303:8377   */\n      swap2\n      pop\n        /* \"#utility.yul\":8386:8479   */\n      tag_454\n        /* \"#utility.yul\":8475:8478   */\n      dup3\n        /* \"#utility.yul\":8386:8479   */\n      tag_455\n      jump\t// in\n    tag_454:\n        /* \"#utility.yul\":8504:8506   */\n      0x20\n        /* \"#utility.yul\":8499:8502   */\n      dup3\n        /* \"#utility.yul\":8495:8507   */\n      add\n        /* \"#utility.yul\":8488:8507   */\n      swap1\n      pop\n        /* \"#utility.yul\":8147:8513   */\n      swap2\n      swap1\n      pop\n      jump\t// out\n        /* \"#utility.yul\":8519:8885   */\n    tag_456:\n        /* \"#utility.yul\":8661:8664   */\n      0x00\n        /* \"#utility.yul\":8682:8749   */\n      tag_458\n        /* \"#utility.yul\":8746:8748   */\n      0x12\n        /* \"#utility.yul\":8741:8744   */\n      dup4\n        /* \"#utility.yul\":8682:8749   */\n      tag_390\n      jump\t// in\n    tag_458:\n        /* \"#utility.yul\":8675:8749   */\n      swap2\n      pop\n        /* \"#utility.yul\":8758:8851   */\n      tag_459\n        /* \"#utility.yul\":8847:8850   */\n      dup3\n        /* \"#utility.yul\":8758:8851   */\n      tag_460\n      jump\t// in\n    tag_459:\n        /* \"#utility.yul\":8876:8878   */\n      0x20\n        /* \"#utility.yul\":8871:8874   */\n      dup3\n        /* \"#utility.yul\":8867:8879   */\n      add\n        /* \"#utility.yul\":8860:8879   */\n      swap1\n      pop\n        /* \"#utility.yul\":8519:8885   */\n      swap2\n      swap1\n      pop\n      jump\t// out\n        /* \"#utility.yul\":8891:9009   */\n    tag_461:\n        /* \"#utility.yul\":8978:9002   */\n      tag_463\n        /* \"#utility.yul\":8996:9001   */\n      dup2\n        /* \"#utility.yul\":8978:9002   */\n      tag_464\n      jump\t// in\n    tag_463:\n        /* \"#utility.yul\":8973:8976   */\n      dup3\n        /* \"#utility.yul\":8966:9003   */\n      mstore\n        /* \"#utility.yul\":8891:9009   */\n      pop\n      pop\n      jump\t// out\n        /* \"#utility.yul\":9015:9172   */\n    tag_465:\n        /* \"#utility.yul\":9120:9165   */\n      tag_467\n        /* \"#utility.yul\":9140:9164   */\n      tag_468\n        /* \"#utility.yul\":9158:9163   */\n      dup3\n        /* \"#utility.yul\":9140:9164   */\n      tag_464\n      jump\t// in\n    tag_468:\n        /* \"#utility.yul\":9120:9165   */\n      tag_469\n      jump\t// in\n    tag_467:\n        /* \"#utility.yul\":9115:9118   */\n      dup3\n        /* \"#utility.yul\":9108:9166   */\n      mstore\n        /* \"#utility.yul\":9015:9172   */\n      pop\n      pop\n      jump\t// out\n        /* \"#utility.yul\":9178:9613   */\n    tag_200:\n        /* \"#utility.yul\":9358:9361   */\n      0x00\n        /* \"#utility.yul\":9380:9475   */\n      tag_471\n        /* \"#utility.yul\":9471:9474   */\n      dup3\n        /* \"#utility.yul\":9462:9468   */\n      dup6\n        /* \"#utility.yul\":9380:9475   */\n      tag_395\n      jump\t// in\n    tag_471:\n        /* \"#utility.yul\":9373:9475   */\n      swap2\n      pop\n        /* \"#utility.yul\":9492:9587   */\n      tag_472\n        /* \"#utility.yul\":9583:9586   */\n      dup3\n        /* \"#utility.yul\":9574:9580   */\n      dup5\n        /* \"#utility.yul\":9492:9587   */\n      tag_395\n      jump\t// in\n    tag_472:\n        /* \"#utility.yul\":9485:9587   */\n      swap2\n      pop\n        /* \"#utility.yul\":9604:9607   */\n      dup2\n        /* \"#utility.yul\":9597:9607   */\n      swap1\n      pop\n        /* \"#utility.yul\":9178:9613   */\n      swap4\n      swap3\n      pop\n      pop\n      pop\n      jump\t// out\n        /* \"#utility.yul\":9619:10141   */\n    tag_196:\n        /* \"#utility.yul\":9832:9835   */\n      0x00\n        /* \"#utility.yul\":9854:10002   */\n      tag_474\n        /* \"#utility.yul\":9998:10001   */\n      dup3\n        /* \"#utility.yul\":9854:10002   */\n      tag_421\n      jump\t// in\n    tag_474:\n        /* \"#utility.yul\":9847:10002   */\n      swap2\n      pop\n        /* \"#utility.yul\":10012:10087   */\n      tag_475\n        /* \"#utility.yul\":10083:10086   */\n      dup3\n        /* \"#utility.yul\":10074:10080   */\n      dup5\n        /* \"#utility.yul\":10012:10087   */\n      tag_465\n      jump\t// in\n    tag_475:\n        /* \"#utility.yul\":10112:10114   */\n      0x20\n        /* \"#utility.yul\":10107:10110   */\n      dup3\n        /* \"#utility.yul\":10103:10115   */\n      add\n        /* \"#utility.yul\":10096:10115   */\n      swap2\n      pop\n        /* \"#utility.yul\":10132:10135   */\n      dup2\n        /* \"#utility.yul\":10125:10135   */\n      swap1\n      pop\n        /* \"#utility.yul\":9619:10141   */\n      swap3\n      swap2\n      pop\n      pop\n      jump\t// out\n        /* \"#utility.yul\":10147:10669   */\n    tag_198:\n        /* \"#utility.yul\":10360:10363   */\n      0x00\n        /* \"#utility.yul\":10382:10530   */\n      tag_477\n        /* \"#utility.yul\":10526:10529   */\n      dup3\n        /* \"#utility.yul\":10382:10530   */\n      tag_446\n      jump\t// in\n    tag_477:\n        /* \"#utility.yul\":10375:10530   */\n      swap2\n      pop\n        /* \"#utility.yul\":10540:10615   */\n      tag_478\n        /* \"#utility.yul\":10611:10614   */\n      dup3\n        /* \"#utility.yul\":10602:10608   */\n      dup5\n        /* \"#utility.yul\":10540:10615   */\n      tag_465\n      jump\t// in\n    tag_478:\n        /* \"#utility.yul\":10640:10642   */\n      0x20\n        /* \"#utility.yul\":10635:10638   */\n      dup3\n        /* \"#utility.yul\":10631:10643   */\n      add\n        /* \"#utility.yul\":10624:10643   */\n      swap2\n      pop\n        /* \"#utility.yul\":10660:10663   */\n      dup2\n        /* \"#utility.yul\":10653:10663   */\n      swap1\n      pop\n        /* \"#utility.yul\":10147:10669   */\n      swap3\n      swap2\n      pop\n      pop\n      jump\t// out\n        /* \"#utility.yul\":10675:10897   */\n    tag_111:\n        /* \"#utility.yul\":10768:10772   */\n      0x00\n        /* \"#utility.yul\":10806:10808   */\n      0x20\n        /* \"#utility.yul\":10795:10804   */\n      dup3\n        /* \"#utility.yul\":10791:10809   */\n      add\n        /* \"#utility.yul\":10783:10809   */\n      swap1\n      pop\n        /* \"#utility.yul\":10819:10890   */\n      tag_480\n        /* \"#utility.yul\":10887:10888   */\n      0x00\n        /* \"#utility.yul\":10876:10885   */\n      dup4\n        /* \"#utility.yul\":10872:10889   */\n      add\n        /* \"#utility.yul\":10863:10869   */\n      dup5\n        /* \"#utility.yul\":10819:10890   */\n      tag_373\n      jump\t// in\n    tag_480:\n        /* \"#utility.yul\":10675:10897   */\n      swap3\n      swap2\n      pop\n      pop\n      jump\t// out\n        /* \"#utility.yul\":10903:11157   */\n    tag_84:\n        /* \"#utility.yul\":11012:11016   */\n      0x00\n        /* \"#utility.yul\":11050:11052   */\n      0x20\n        /* \"#utility.yul\":11039:11048   */\n      dup3\n        /* \"#utility.yul\":11035:11053   */\n      add\n        /* \"#utility.yul\":11027:11053   */\n      swap1\n      pop\n        /* \"#utility.yul\":11063:11150   */\n      tag_482\n        /* \"#utility.yul\":11147:11148   */\n      0x00\n        /* \"#utility.yul\":11136:11145   */\n      dup4\n        /* \"#utility.yul\":11132:11149   */\n      add\n        /* \"#utility.yul\":11123:11129   */\n      dup5\n        /* \"#utility.yul\":11063:11150   */\n      tag_369\n      jump\t// in\n    tag_482:\n        /* \"#utility.yul\":10903:11157   */\n      swap3\n      swap2\n      pop\n      pop\n      jump\t// out\n        /* \"#utility.yul\":11163:11605   */\n    tag_218:\n        /* \"#utility.yul\":11312:11316   */\n      0x00\n        /* \"#utility.yul\":11350:11352   */\n      0x60\n        /* \"#utility.yul\":11339:11348   */\n      dup3\n        /* \"#utility.yul\":11335:11353   */\n      add\n        /* \"#utility.yul\":11327:11353   */\n      swap1\n      pop\n        /* \"#utility.yul\":11363:11434   */\n      tag_484\n        /* \"#utility.yul\":11431:11432   */\n      0x00\n        /* \"#utility.yul\":11420:11429   */\n      dup4\n        /* \"#utility.yul\":11416:11433   */\n      add\n        /* \"#utility.yul\":11407:11413   */\n      dup7\n        /* \"#utility.yul\":11363:11434   */\n      tag_373\n      jump\t// in\n    tag_484:\n        /* \"#utility.yul\":11444:11516   */\n      tag_485\n        /* \"#utility.yul\":11512:11514   */\n      0x20\n        /* \"#utility.yul\":11501:11510   */\n      dup4\n        /* \"#utility.yul\":11497:11515   */\n      add\n        /* \"#utility.yul\":11488:11494   */\n      dup6\n        /* \"#utility.yul\":11444:11516   */\n      tag_461\n      jump\t// in\n    tag_485:\n        /* \"#utility.yul\":11526:11598   */\n      tag_486\n        /* \"#utility.yul\":11594:11596   */\n      0x40\n        /* \"#utility.yul\":11583:11592   */\n      dup4\n        /* \"#utility.yul\":11579:11597   */\n      add\n        /* \"#utility.yul\":11570:11576   */\n      dup5\n        /* \"#utility.yul\":11526:11598   */\n      tag_461\n      jump\t// in\n    tag_486:\n        /* \"#utility.yul\":11163:11605   */\n      swap5\n      swap4\n      pop\n      pop\n      pop\n      pop\n      jump\t// out\n        /* \"#utility.yul\":11611:11821   */\n    tag_62:\n        /* \"#utility.yul\":11698:11702   */\n      0x00\n        /* \"#utility.yul\":11736:11738   */\n      0x20\n        /* \"#utility.yul\":11725:11734   */\n      dup3\n        /* \"#utility.yul\":11721:11739   */\n      add\n        /* \"#utility.yul\":11713:11739   */\n      swap1\n      pop\n        /* \"#utility.yul\":11749:11814   */\n      tag_488\n        /* \"#utility.yul\":11811:11812   */\n      0x00\n        /* \"#utility.yul\":11800:11809   */\n      dup4\n        /* \"#utility.yul\":11796:11813   */\n      add\n        /* \"#utility.yul\":11787:11793   */\n      dup5\n        /* \"#utility.yul\":11749:11814   */\n      tag_377\n      jump\t// in\n    tag_488:\n        /* \"#utility.yul\":11611:11821   */\n      swap3\n      swap2\n      pop\n      pop\n      jump\t// out\n        /* \"#utility.yul\":11827:12063   */\n    tag_89:\n        /* \"#utility.yul\":11927:11931   */\n      0x00\n        /* \"#utility.yul\":11965:11967   */\n      0x20\n        /* \"#utility.yul\":11954:11963   */\n      dup3\n        /* \"#utility.yul\":11950:11968   */\n      add\n        /* \"#utility.yul\":11942:11968   */\n      swap1\n      pop\n        /* \"#utility.yul\":11978:12056   */\n      tag_490\n        /* \"#utility.yul\":12053:12054   */\n      0x00\n        /* \"#utility.yul\":12042:12051   */\n      dup4\n        /* \"#utility.yul\":12038:12055   */\n      add\n        /* \"#utility.yul\":12029:12035   */\n      dup5\n        /* \"#utility.yul\":11978:12056   */\n      tag_381\n      jump\t// in\n    tag_490:\n        /* \"#utility.yul\":11827:12063   */\n      swap3\n      swap2\n      pop\n      pop\n      jump\t// out\n        /* \"#utility.yul\":12069:12382   */\n    tag_52:\n        /* \"#utility.yul\":12182:12186   */\n      0x00\n        /* \"#utility.yul\":12220:12222   */\n      0x20\n        /* \"#utility.yul\":12209:12218   */\n      dup3\n        /* \"#utility.yul\":12205:12223   */\n      add\n        /* \"#utility.yul\":12197:12223   */\n      swap1\n      pop\n        /* \"#utility.yul\":12269:12278   */\n      dup2\n        /* \"#utility.yul\":12263:12267   */\n      dup2\n        /* \"#utility.yul\":12259:12279   */\n      sub\n        /* \"#utility.yul\":12255:12256   */\n      0x00\n        /* \"#utility.yul\":12244:12253   */\n      dup4\n        /* \"#utility.yul\":12240:12257   */\n      add\n        /* \"#utility.yul\":12233:12280   */\n      mstore\n        /* \"#utility.yul\":12297:12375   */\n      tag_492\n        /* \"#utility.yul\":12370:12374   */\n      dup2\n        /* \"#utility.yul\":12361:12367   */\n      dup5\n        /* \"#utility.yul\":12297:12375   */\n      tag_385\n      jump\t// in\n    tag_492:\n        /* \"#utility.yul\":12289:12375   */\n      swap1\n      pop\n        /* \"#utility.yul\":12069:12382   */\n      swap3\n      swap2\n      pop\n      pop\n      jump\t// out\n        /* \"#utility.yul\":12388:12807   */\n    tag_310:\n        /* \"#utility.yul\":12554:12558   */\n      0x00\n        /* \"#utility.yul\":12592:12594   */\n      0x20\n        /* \"#utility.yul\":12581:12590   */\n      dup3\n        /* \"#utility.yul\":12577:12595   */\n      add\n        /* \"#utility.yul\":12569:12595   */\n      swap1\n      pop\n        /* \"#utility.yul\":12641:12650   */\n      dup2\n        /* \"#utility.yul\":12635:12639   */\n      dup2\n        /* \"#utility.yul\":12631:12651   */\n      sub\n        /* \"#utility.yul\":12627:12628   */\n      0x00\n        /* \"#utility.yul\":12616:12625   */\n      dup4\n        /* \"#utility.yul\":12612:12629   */\n      add\n        /* \"#utility.yul\":12605:12652   */\n      mstore\n        /* \"#utility.yul\":12669:12800   */\n      tag_494\n        /* \"#utility.yul\":12795:12799   */\n      dup2\n        /* \"#utility.yul\":12669:12800   */\n      tag_401\n      jump\t// in\n    tag_494:\n        /* \"#utility.yul\":12661:12800   */\n      swap1\n      pop\n        /* \"#utility.yul\":12388:12807   */\n      swap2\n      swap1\n      pop\n      jump\t// out\n        /* \"#utility.yul\":12813:13232   */\n    tag_242:\n        /* \"#utility.yul\":12979:12983   */\n      0x00\n        /* \"#utility.yul\":13017:13019   */\n      0x20\n        /* \"#utility.yul\":13006:13015   */\n      dup3\n        /* \"#utility.yul\":13002:13020   */\n      add\n        /* \"#utility.yul\":12994:13020   */\n      swap1\n      pop\n        /* \"#utility.yul\":13066:13075   */\n      dup2\n        /* \"#utility.yul\":13060:13064   */\n      dup2\n        /* \"#utility.yul\":13056:13076   */\n      sub\n        /* \"#utility.yul\":13052:13053   */\n      0x00\n        /* \"#utility.yul\":13041:13050   */\n      dup4\n        /* \"#utility.yul\":13037:13054   */\n      add\n        /* \"#utility.yul\":13030:13077   */\n      mstore\n        /* \"#utility.yul\":13094:13225   */\n      tag_496\n        /* \"#utility.yul\":13220:13224   */\n      dup2\n        /* \"#utility.yul\":13094:13225   */\n      tag_406\n      jump\t// in\n    tag_496:\n        /* \"#utility.yul\":13086:13225   */\n      swap1\n      pop\n        /* \"#utility.yul\":12813:13232   */\n      swap2\n      swap1\n      pop\n      jump\t// out\n        /* \"#utility.yul\":13238:13657   */\n    tag_252:\n        /* \"#utility.yul\":13404:13408   */\n      0x00\n        /* \"#utility.yul\":13442:13444   */\n      0x20\n        /* \"#utility.yul\":13431:13440   */\n      dup3\n        /* \"#utility.yul\":13427:13445   */\n      add\n        /* \"#utility.yul\":13419:13445   */\n      swap1\n      pop\n        /* \"#utility.yul\":13491:13500   */\n      dup2\n        /* \"#utility.yul\":13485:13489   */\n      dup2\n        /* \"#utility.yul\":13481:13501   */\n      sub\n        /* \"#utility.yul\":13477:13478   */\n      0x00\n        /* \"#utility.yul\":13466:13475   */\n      dup4\n        /* \"#utility.yul\":13462:13479   */\n      add\n        /* \"#utility.yul\":13455:13502   */\n      mstore\n        /* \"#utility.yul\":13519:13650   */\n      tag_498\n        /* \"#utility.yul\":13645:13649   */\n      dup2\n        /* \"#utility.yul\":13519:13650   */\n      tag_411\n      jump\t// in\n    tag_498:\n        /* \"#utility.yul\":13511:13650   */\n      swap1\n      pop\n        /* \"#utility.yul\":13238:13657   */\n      swap2\n      swap1\n      pop\n      jump\t// out\n        /* \"#utility.yul\":13663:14082   */\n    tag_194:\n        /* \"#utility.yul\":13829:13833   */\n      0x00\n        /* \"#utility.yul\":13867:13869   */\n      0x20\n        /* \"#utility.yul\":13856:13865   */\n      dup3\n        /* \"#utility.yul\":13852:13870   */\n      add\n        /* \"#utility.yul\":13844:13870   */\n      swap1\n      pop\n        /* \"#utility.yul\":13916:13925   */\n      dup2\n        /* \"#utility.yul\":13910:13914   */\n      dup2\n        /* \"#utility.yul\":13906:13926   */\n      sub\n        /* \"#utility.yul\":13902:13903   */\n      0x00\n        /* \"#utility.yul\":13891:13900   */\n      dup4\n        /* \"#utility.yul\":13887:13904   */\n      add\n        /* \"#utility.yul\":13880:13927   */\n      mstore\n        /* \"#utility.yul\":13944:14075   */\n      tag_500\n        /* \"#utility.yul\":14070:14074   */\n      dup2\n        /* \"#utility.yul\":13944:14075   */\n      tag_416\n      jump\t// in\n    tag_500:\n        /* \"#utility.yul\":13936:14075   */\n      swap1\n      pop\n        /* \"#utility.yul\":13663:14082   */\n      swap2\n      swap1\n      pop\n      jump\t// out\n        /* \"#utility.yul\":14088:14507   */\n    tag_222:\n        /* \"#utility.yul\":14254:14258   */\n      0x00\n        /* \"#utility.yul\":14292:14294   */\n      0x20\n        /* \"#utility.yul\":14281:14290   */\n      dup3\n        /* \"#utility.yul\":14277:14295   */\n      add\n        /* \"#utility.yul\":14269:14295   */\n      swap1\n      pop\n        /* \"#utility.yul\":14341:14350   */\n      dup2\n        /* \"#utility.yul\":14335:14339   */\n      dup2\n        /* \"#utility.yul\":14331:14351   */\n      sub\n        /* \"#utility.yul\":14327:14328   */\n      0x00\n        /* \"#utility.yul\":14316:14325   */\n      dup4\n        /* \"#utility.yul\":14312:14329   */\n      add\n        /* \"#utility.yul\":14305:14352   */\n      mstore\n        /* \"#utility.yul\":14369:14500   */\n      tag_502\n        /* \"#utility.yul\":14495:14499   */\n      dup2\n        /* \"#utility.yul\":14369:14500   */\n      tag_426\n      jump\t// in\n    tag_502:\n        /* \"#utility.yul\":14361:14500   */\n      swap1\n      pop\n        /* \"#utility.yul\":14088:14507   */\n      swap2\n      swap1\n      pop\n      jump\t// out\n        /* \"#utility.yul\":14513:14932   */\n    tag_249:\n        /* \"#utility.yul\":14679:14683   */\n      0x00\n        /* \"#utility.yul\":14717:14719   */\n      0x20\n        /* \"#utility.yul\":14706:14715   */\n      dup3\n        /* \"#utility.yul\":14702:14720   */\n      add\n        /* \"#utility.yul\":14694:14720   */\n      swap1\n      pop\n        /* \"#utility.yul\":14766:14775   */\n      dup2\n        /* \"#utility.yul\":14760:14764   */\n      dup2\n        /* \"#utility.yul\":14756:14776   */\n      sub\n        /* \"#utility.yul\":14752:14753   */\n      0x00\n        /* \"#utility.yul\":14741:14750   */\n      dup4\n        /* \"#utility.yul\":14737:14754   */\n      add\n        /* \"#utility.yul\":14730:14777   */\n      mstore\n        /* \"#utility.yul\":14794:14925   */\n      tag_504\n        /* \"#utility.yul\":14920:14924   */\n      dup2\n        /* \"#utility.yul\":14794:14925   */\n      tag_431\n      jump\t// in\n    tag_504:\n        /* \"#utility.yul\":14786:14925   */\n      swap1\n      pop\n        /* \"#utility.yul\":14513:14932   */\n      swap2\n      swap1\n      pop\n      jump\t// out\n        /* \"#utility.yul\":14938:15357   */\n    tag_245:\n        /* \"#utility.yul\":15104:15108   */\n      0x00\n        /* \"#utility.yul\":15142:15144   */\n      0x20\n        /* \"#utility.yul\":15131:15140   */\n      dup3\n        /* \"#utility.yul\":15127:15145   */\n      add\n        /* \"#utility.yul\":15119:15145   */\n      swap1\n      pop\n        /* \"#utility.yul\":15191:15200   */\n      dup2\n        /* \"#utility.yul\":15185:15189   */\n      dup2\n        /* \"#utility.yul\":15181:15201   */\n      sub\n        /* \"#utility.yul\":15177:15178   */\n      0x00\n        /* \"#utility.yul\":15166:15175   */\n      dup4\n        /* \"#utility.yul\":15162:15179   */\n      add\n        /* \"#utility.yul\":15155:15202   */\n      mstore\n        /* \"#utility.yul\":15219:15350   */\n      tag_506\n        /* \"#utility.yul\":15345:15349   */\n      dup2\n        /* \"#utility.yul\":15219:15350   */\n      tag_436\n      jump\t// in\n    tag_506:\n        /* \"#utility.yul\":15211:15350   */\n      swap1\n      pop\n        /* \"#utility.yul\":14938:15357   */\n      swap2\n      swap1\n      pop\n      jump\t// out\n        /* \"#utility.yul\":15363:15782   */\n    tag_208:\n        /* \"#utility.yul\":15529:15533   */\n      0x00\n        /* \"#utility.yul\":15567:15569   */\n      0x20\n        /* \"#utility.yul\":15556:15565   */\n      dup3\n        /* \"#utility.yul\":15552:15570   */\n      add\n        /* \"#utility.yul\":15544:15570   */\n      swap1\n      pop\n        /* \"#utility.yul\":15616:15625   */\n      dup2\n        /* \"#utility.yul\":15610:15614   */\n      dup2\n        /* \"#utility.yul\":15606:15626   */\n      sub\n        /* \"#utility.yul\":15602:15603   */\n      0x00\n        /* \"#utility.yul\":15591:15600   */\n      dup4\n        /* \"#utility.yul\":15587:15604   */\n      add\n        /* \"#utility.yul\":15580:15627   */\n      mstore\n        /* \"#utility.yul\":15644:15775   */\n      tag_508\n        /* \"#utility.yul\":15770:15774   */\n      dup2\n        /* \"#utility.yul\":15644:15775   */\n      tag_441\n      jump\t// in\n    tag_508:\n        /* \"#utility.yul\":15636:15775   */\n      swap1\n      pop\n        /* \"#utility.yul\":15363:15782   */\n      swap2\n      swap1\n      pop\n      jump\t// out\n        /* \"#utility.yul\":15788:16207   */\n    tag_323:\n        /* \"#utility.yul\":15954:15958   */\n      0x00\n        /* \"#utility.yul\":15992:15994   */\n      0x20\n        /* \"#utility.yul\":15981:15990   */\n      dup3\n        /* \"#utility.yul\":15977:15995   */\n      add\n        /* \"#utility.yul\":15969:15995   */\n      swap1\n      pop\n        /* \"#utility.yul\":16041:16050   */\n      dup2\n        /* \"#utility.yul\":16035:16039   */\n      dup2\n        /* \"#utility.yul\":16031:16051   */\n      sub\n        /* \"#utility.yul\":16027:16028   */\n      0x00\n        /* \"#utility.yul\":16016:16025   */\n      dup4\n        /* \"#utility.yul\":16012:16029   */\n      add\n        /* \"#utility.yul\":16005:16052   */\n      mstore\n        /* \"#utility.yul\":16069:16200   */\n      tag_510\n        /* \"#utility.yul\":16195:16199   */\n      dup2\n        /* \"#utility.yul\":16069:16200   */\n      tag_451\n      jump\t// in\n    tag_510:\n        /* \"#utility.yul\":16061:16200   */\n      swap1\n      pop\n        /* \"#utility.yul\":15788:16207   */\n      swap2\n      swap1\n      pop\n      jump\t// out\n        /* \"#utility.yul\":16213:16632   */\n    tag_313:\n        /* \"#utility.yul\":16379:16383   */\n      0x00\n        /* \"#utility.yul\":16417:16419   */\n      0x20\n        /* \"#utility.yul\":16406:16415   */\n      dup3\n        /* \"#utility.yul\":16402:16420   */\n      add\n        /* \"#utility.yul\":16394:16420   */\n      swap1\n      pop\n        /* \"#utility.yul\":16466:16475   */\n      dup2\n        /* \"#utility.yul\":16460:16464   */\n      dup2\n        /* \"#utility.yul\":16456:16476   */\n      sub\n        /* \"#utility.yul\":16452:16453   */\n      0x00\n        /* \"#utility.yul\":16441:16450   */\n      dup4\n        /* \"#utility.yul\":16437:16454   */\n      add\n        /* \"#utility.yul\":16430:16477   */\n      mstore\n        /* \"#utility.yul\":16494:16625   */\n      tag_512\n        /* \"#utility.yul\":16620:16624   */\n      dup2\n        /* \"#utility.yul\":16494:16625   */\n      tag_456\n      jump\t// in\n    tag_512:\n        /* \"#utility.yul\":16486:16625   */\n      swap1\n      pop\n        /* \"#utility.yul\":16213:16632   */\n      swap2\n      swap1\n      pop\n      jump\t// out\n        /* \"#utility.yul\":16638:16860   */\n    tag_67:\n        /* \"#utility.yul\":16731:16735   */\n      0x00\n        /* \"#utility.yul\":16769:16771   */\n      0x20\n        /* \"#utility.yul\":16758:16767   */\n      dup3\n        /* \"#utility.yul\":16754:16772   */\n      add\n        /* \"#utility.yul\":16746:16772   */\n      swap1\n      pop\n        /* \"#utility.yul\":16782:16853   */\n      tag_514\n        /* \"#utility.yul\":16850:16851   */\n      0x00\n        /* \"#utility.yul\":16839:16848   */\n      dup4\n        /* \"#utility.yul\":16835:16852   */\n      add\n        /* \"#utility.yul\":16826:16832   */\n      dup5\n        /* \"#utility.yul\":16782:16853   */\n      tag_461\n      jump\t// in\n    tag_514:\n        /* \"#utility.yul\":16638:16860   */\n      swap3\n      swap2\n      pop\n      pop\n      jump\t// out\n        /* \"#utility.yul\":16947:17046   */\n    tag_388:\n        /* \"#utility.yul\":16999:17005   */\n      0x00\n        /* \"#utility.yul\":17033:17038   */\n      dup2\n        /* \"#utility.yul\":17027:17039   */\n      mload\n        /* \"#utility.yul\":17017:17039   */\n      swap1\n      pop\n        /* \"#utility.yul\":16947:17046   */\n      swap2\n      swap1\n      pop\n      jump\t// out\n        /* \"#utility.yul\":17052:17221   */\n    tag_390:\n        /* \"#utility.yul\":17136:17147   */\n      0x00\n        /* \"#utility.yul\":17170:17176   */\n      dup3\n        /* \"#utility.yul\":17165:17168   */\n      dup3\n        /* \"#utility.yul\":17158:17177   */\n      mstore\n        /* \"#utility.yul\":17210:17214   */\n      0x20\n        /* \"#utility.yul\":17205:17208   */\n      dup3\n        /* \"#utility.yul\":17201:17215   */\n      add\n        /* \"#utility.yul\":17186:17215   */\n      swap1\n      pop\n        /* \"#utility.yul\":17052:17221   */\n      swap3\n      swap2\n      pop\n      pop\n      jump\t// out\n        /* \"#utility.yul\":17227:17375   */\n    tag_399:\n        /* \"#utility.yul\":17329:17340   */\n      0x00\n        /* \"#utility.yul\":17366:17369   */\n      dup2\n        /* \"#utility.yul\":17351:17369   */\n      swap1\n      pop\n        /* \"#utility.yul\":17227:17375   */\n      swap3\n      swap2\n      pop\n      pop\n      jump\t// out\n        /* \"#utility.yul\":17381:17686   */\n    tag_205:\n        /* \"#utility.yul\":17421:17424   */\n      0x00\n        /* \"#utility.yul\":17440:17460   */\n      tag_521\n        /* \"#utility.yul\":17458:17459   */\n      dup3\n        /* \"#utility.yul\":17440:17460   */\n      tag_464\n      jump\t// in\n    tag_521:\n        /* \"#utility.yul\":17435:17460   */\n      swap2\n      pop\n        /* \"#utility.yul\":17474:17494   */\n      tag_522\n        /* \"#utility.yul\":17492:17493   */\n      dup4\n        /* \"#utility.yul\":17474:17494   */\n      tag_464\n      jump\t// in\n    tag_522:\n        /* \"#utility.yul\":17469:17494   */\n      swap3\n      pop\n        /* \"#utility.yul\":17628:17629   */\n      dup3\n        /* \"#utility.yul\":17560:17626   */\n      0xffffffffffffffffffffffffffffffffffffffffffffffffffffffffffffffff\n        /* \"#utility.yul\":17556:17630   */\n      sub\n        /* \"#utility.yul\":17553:17554   */\n      dup3\n        /* \"#utility.yul\":17550:17631   */\n      gt\n        /* \"#utility.yul\":17547:17654   */\n      iszero\n      tag_523\n      jumpi\n        /* \"#utility.yul\":17634:17652   */\n      tag_524\n      tag_525\n      jump\t// in\n    tag_524:\n        /* \"#utility.yul\":17547:17654   */\n    tag_523:\n        /* \"#utility.yul\":17678:17679   */\n      dup3\n        /* \"#utility.yul\":17675:17676   */\n      dup3\n        /* \"#utility.yul\":17671:17680   */\n      add\n        /* \"#utility.yul\":17664:17680   */\n      swap1\n      pop\n        /* \"#utility.yul\":17381:17686   */\n      swap3\n      swap2\n      pop\n      pop\n      jump\t// out\n        /* \"#utility.yul\":17692:17877   */\n    tag_211:\n        /* \"#utility.yul\":17732:17733   */\n      0x00\n        /* \"#utility.yul\":17749:17769   */\n      tag_527\n        /* \"#utility.yul\":17767:17768   */\n      dup3\n        /* \"#utility.yul\":17749:17769   */\n      tag_464\n      jump\t// in\n    tag_527:\n        /* \"#utility.yul\":17744:17769   */\n      swap2\n      pop\n        /* \"#utility.yul\":17783:17803   */\n      tag_528\n        /* \"#utility.yul\":17801:17802   */\n      dup4\n        /* \"#utility.yul\":17783:17803   */\n      tag_464\n      jump\t// in\n    tag_528:\n        /* \"#utility.yul\":17778:17803   */\n      swap3\n      pop\n        /* \"#utility.yul\":17822:17823   */\n      dup3\n        /* \"#utility.yul\":17812:17847   */\n      tag_529\n      jumpi\n        /* \"#utility.yul\":17827:17845   */\n      tag_530\n      tag_531\n      jump\t// in\n    tag_530:\n        /* \"#utility.yul\":17812:17847   */\n    tag_529:\n        /* \"#utility.yul\":17869:17870   */\n      dup3\n        /* \"#utility.yul\":17866:17867   */\n      dup3\n        /* \"#utility.yul\":17862:17871   */\n      div\n        /* \"#utility.yul\":17857:17871   */\n      swap1\n      pop\n        /* \"#utility.yul\":17692:17877   */\n      swap3\n      swap2\n      pop\n      pop\n      jump\t// out\n        /* \"#utility.yul\":17883:18074   */\n    tag_214:\n        /* \"#utility.yul\":17923:17927   */\n      0x00\n        /* \"#utility.yul\":17943:17963   */\n      tag_533\n        /* \"#utility.yul\":17961:17962   */\n      dup3\n        /* \"#utility.yul\":17943:17963   */\n      tag_464\n      jump\t// in\n    tag_533:\n        /* \"#utility.yul\":17938:17963   */\n      swap2\n      pop\n        /* \"#utility.yul\":17977:17997   */\n      tag_534\n        /* \"#utility.yul\":17995:17996   */\n      dup4\n        /* \"#utility.yul\":17977:17997   */\n      tag_464\n      jump\t// in\n    tag_534:\n        /* \"#utility.yul\":17972:17997   */\n      swap3\n      pop\n        /* \"#utility.yul\":18016:18017   */\n      dup3\n        /* \"#utility.yul\":18013:18014   */\n      dup3\n        /* \"#utility.yul\":18010:18018   */\n      lt\n        /* \"#utility.yul\":18007:18041   */\n      iszero\n      tag_535\n      jumpi\n        /* \"#utility.yul\":18021:18039   */\n      tag_536\n      tag_525\n      jump\t// in\n    tag_536:\n        /* \"#utility.yul\":18007:18041   */\n    tag_535:\n        /* \"#utility.yul\":18066:18067   */\n      dup3\n        /* \"#utility.yul\":18063:18064   */\n      dup3\n        /* \"#utility.yul\":18059:18068   */\n      sub\n        /* \"#utility.yul\":18051:18068   */\n      swap1\n      pop\n        /* \"#utility.yul\":17883:18074   */\n      swap3\n      swap2\n      pop\n      pop\n      jump\t// out\n        /* \"#utility.yul\":18080:18176   */\n    tag_376:\n        /* \"#utility.yul\":18117:18124   */\n      0x00\n        /* \"#utility.yul\":18146:18170   */\n      tag_538\n        /* \"#utility.yul\":18164:18169   */\n      dup3\n        /* \"#utility.yul\":18146:18170   */\n      tag_539\n      jump\t// in\n    tag_538:\n        /* \"#utility.yul\":18135:18170   */\n      swap1\n      pop\n        /* \"#utility.yul\":18080:18176   */\n      swap2\n      swap1\n      pop\n      jump\t// out\n        /* \"#utility.yul\":18182:18286   */\n    tag_372:\n        /* \"#utility.yul\":18227:18234   */\n      0x00\n        /* \"#utility.yul\":18256:18280   */\n      tag_541\n        /* \"#utility.yul\":18274:18279   */\n      dup3\n        /* \"#utility.yul\":18256:18280   */\n      tag_539\n      jump\t// in\n    tag_541:\n        /* \"#utility.yul\":18245:18280   */\n      swap1\n      pop\n        /* \"#utility.yul\":18182:18286   */\n      swap2\n      swap1\n      pop\n      jump\t// out\n        /* \"#utility.yul\":18292:18382   */\n    tag_380:\n        /* \"#utility.yul\":18326:18333   */\n      0x00\n        /* \"#utility.yul\":18369:18374   */\n      dup2\n        /* \"#utility.yul\":18362:18375   */\n      iszero\n        /* \"#utility.yul\":18355:18376   */\n      iszero\n        /* \"#utility.yul\":18344:18376   */\n      swap1\n      pop\n        /* \"#utility.yul\":18292:18382   */\n      swap2\n      swap1\n      pop\n      jump\t// out\n        /* \"#utility.yul\":18388:18517   */\n    tag_543:\n        /* \"#utility.yul\":18434:18441   */\n      0x00\n        /* \"#utility.yul\":18463:18468   */\n      dup2\n        /* \"#utility.yul\":18452:18468   */\n      swap1\n      pop\n        /* \"#utility.yul\":18469:18511   */\n      tag_545\n        /* \"#utility.yul\":18505:18510   */\n      dup3\n        /* \"#utility.yul\":18469:18511   */\n      tag_546\n      jump\t// in\n    tag_545:\n        /* \"#utility.yul\":18388:18517   */\n      swap2\n      swap1\n      pop\n      jump\t// out\n        /* \"#utility.yul\":18523:18649   */\n    tag_539:\n        /* \"#utility.yul\":18560:18567   */\n      0x00\n        /* \"#utility.yul\":18600:18642   */\n      0xffffffffffffffffffffffffffffffffffffffff\n        /* \"#utility.yul\":18593:18598   */\n      dup3\n        /* \"#utility.yul\":18589:18643   */\n      and\n        /* \"#utility.yul\":18578:18643   */\n      swap1\n      pop\n        /* \"#utility.yul\":18523:18649   */\n      swap2\n      swap1\n      pop\n      jump\t// out\n        /* \"#utility.yul\":18655:18732   */\n    tag_464:\n        /* \"#utility.yul\":18692:18699   */\n      0x00\n        /* \"#utility.yul\":18721:18726   */\n      dup2\n        /* \"#utility.yul\":18710:18726   */\n      swap1\n      pop\n        /* \"#utility.yul\":18655:18732   */\n      swap2\n      swap1\n      pop\n      jump\t// out\n        /* \"#utility.yul\":18738:18867   */\n    tag_384:\n        /* \"#utility.yul\":18795:18804   */\n      0x00\n        /* \"#utility.yul\":18828:18861   */\n      tag_550\n        /* \"#utility.yul\":18855:18860   */\n      dup3\n        /* \"#utility.yul\":18828:18861   */\n      tag_543\n      jump\t// in\n    tag_550:\n        /* \"#utility.yul\":18815:18861   */\n      swap1\n      pop\n        /* \"#utility.yul\":18738:18867   */\n      swap2\n      swap1\n      pop\n      jump\t// out\n        /* \"#utility.yul\":18873:19180   */\n    tag_392:\n        /* \"#utility.yul\":18941:18942   */\n      0x00\n        /* \"#utility.yul\":18951:19064   */\n    tag_552:\n        /* \"#utility.yul\":18965:18971   */\n      dup4\n        /* \"#utility.yul\":18962:18963   */\n      dup2\n        /* \"#utility.yul\":18959:18972   */\n      lt\n        /* \"#utility.yul\":18951:19064   */\n      iszero\n      tag_554\n      jumpi\n        /* \"#utility.yul\":19050:19051   */\n      dup1\n        /* \"#utility.yul\":19045:19048   */\n      dup3\n        /* \"#utility.yul\":19041:19052   */\n      add\n        /* \"#utility.yul\":19035:19053   */\n      mload\n        /* \"#utility.yul\":19031:19032   */\n      dup2\n        /* \"#utility.yul\":19026:19029   */\n      dup5\n        /* \"#utility.yul\":19022:19033   */\n      add\n        /* \"#utility.yul\":19015:19054   */\n      mstore\n        /* \"#utility.yul\":18987:18989   */\n      0x20\n        /* \"#utility.yul\":18984:18985   */\n      dup2\n        /* \"#utility.yul\":18980:18990   */\n      add\n        /* \"#utility.yul\":18975:18990   */\n      swap1\n      pop\n        /* \"#utility.yul\":18951:19064   */\n      jump(tag_552)\n    tag_554:\n        /* \"#utility.yul\":19082:19088   */\n      dup4\n        /* \"#utility.yul\":19079:19080   */\n      dup2\n        /* \"#utility.yul\":19076:19089   */\n      gt\n        /* \"#utility.yul\":19073:19174   */\n      iszero\n      tag_555\n      jumpi\n        /* \"#utility.yul\":19162:19163   */\n      0x00\n        /* \"#utility.yul\":19153:19159   */\n      dup5\n        /* \"#utility.yul\":19148:19151   */\n      dup5\n        /* \"#utility.yul\":19144:19160   */\n      add\n        /* \"#utility.yul\":19137:19164   */\n      mstore\n        /* \"#utility.yul\":19073:19174   */\n    tag_555:\n        /* \"#utility.yul\":18922:19180   */\n      pop\n        /* \"#utility.yul\":18873:19180   */\n      pop\n      pop\n      pop\n      jump\t// out\n        /* \"#utility.yul\":19186:19506   */\n    tag_227:\n        /* \"#utility.yul\":19230:19236   */\n      0x00\n        /* \"#utility.yul\":19267:19268   */\n      0x02\n        /* \"#utility.yul\":19261:19265   */\n      dup3\n        /* \"#utility.yul\":19257:19269   */\n      div\n        /* \"#utility.yul\":19247:19269   */\n      swap1\n      pop\n        /* \"#utility.yul\":19314:19315   */\n      0x01\n        /* \"#utility.yul\":19308:19312   */\n      dup3\n        /* \"#utility.yul\":19304:19316   */\n      and\n        /* \"#utility.yul\":19335:19353   */\n      dup1\n        /* \"#utility.yul\":19325:19406   */\n      tag_557\n      jumpi\n        /* \"#utility.yul\":19391:19395   */\n      0x7f\n        /* \"#utility.yul\":19383:19389   */\n      dup3\n        /* \"#utility.yul\":19379:19396   */\n      and\n        /* \"#utility.yul\":19369:19396   */\n      swap2\n      pop\n        /* \"#utility.yul\":19325:19406   */\n    tag_557:\n        /* \"#utility.yul\":19453:19455   */\n      0x20\n        /* \"#utility.yul\":19445:19451   */\n      dup3\n        /* \"#utility.yul\":19442:19456   */\n      lt\n        /* \"#utility.yul\":19422:19440   */\n      dup2\n        /* \"#utility.yul\":19419:19457   */\n      eq\n        /* \"#utility.yul\":19416:19500   */\n      iszero\n      tag_558\n      jumpi\n        /* \"#utility.yul\":19472:19490   */\n      tag_559\n      tag_560\n      jump\t// in\n    tag_559:\n        /* \"#utility.yul\":19416:19500   */\n    tag_558:\n        /* \"#utility.yul\":19237:19506   */\n      pop\n        /* \"#utility.yul\":19186:19506   */\n      swap2\n      swap1\n      pop\n      jump\t// out\n        /* \"#utility.yul\":19512:19591   */\n    tag_469:\n        /* \"#utility.yul\":19551:19558   */\n      0x00\n        /* \"#utility.yul\":19580:19585   */\n      dup2\n        /* \"#utility.yul\":19569:19585   */\n      swap1\n      pop\n        /* \"#utility.yul\":19512:19591   */\n      swap2\n      swap1\n      pop\n      jump\t// out\n        /* \"#utility.yul\":19597:19777   */\n    tag_525:\n        /* \"#utility.yul\":19645:19722   */\n      0x4e487b7100000000000000000000000000000000000000000000000000000000\n        /* \"#utility.yul\":19642:19643   */\n      0x00\n        /* \"#utility.yul\":19635:19723   */\n      mstore\n        /* \"#utility.yul\":19742:19746   */\n      0x11\n        /* \"#utility.yul\":19739:19740   */\n      0x04\n        /* \"#utility.yul\":19732:19747   */\n      mstore\n        /* \"#utility.yul\":19766:19770   */\n      0x24\n        /* \"#utility.yul\":19763:19764   */\n      0x00\n        /* \"#utility.yul\":19756:19771   */\n      revert\n        /* \"#utility.yul\":19783:19963   */\n    tag_531:\n        /* \"#utility.yul\":19831:19908   */\n      0x4e487b7100000000000000000000000000000000000000000000000000000000\n        /* \"#utility.yul\":19828:19829   */\n      0x00\n        /* \"#utility.yul\":19821:19909   */\n      mstore\n        /* \"#utility.yul\":19928:19932   */\n      0x12\n        /* \"#utility.yul\":19925:19926   */\n      0x04\n        /* \"#utility.yul\":19918:19933   */\n      mstore\n        /* \"#utility.yul\":19952:19956   */\n      0x24\n        /* \"#utility.yul\":19949:19950   */\n      0x00\n        /* \"#utility.yul\":19942:19957   */\n      revert\n        /* \"#utility.yul\":19969:20149   */\n    tag_187:\n        /* \"#utility.yul\":20017:20094   */\n      0x4e487b7100000000000000000000000000000000000000000000000000000000\n        /* \"#utility.yul\":20014:20015   */\n      0x00\n        /* \"#utility.yul\":20007:20095   */\n      mstore\n        /* \"#utility.yul\":20114:20118   */\n      0x21\n        /* \"#utility.yul\":20111:20112   */\n      0x04\n        /* \"#utility.yul\":20104:20119   */\n      mstore\n        /* \"#utility.yul\":20138:20142   */\n      0x24\n        /* \"#utility.yul\":20135:20136   */\n      0x00\n        /* \"#utility.yul\":20128:20143   */\n      revert\n        /* \"#utility.yul\":20155:20335   */\n    tag_560:\n        /* \"#utility.yul\":20203:20280   */\n      0x4e487b7100000000000000000000000000000000000000000000000000000000\n        /* \"#utility.yul\":20200:20201   */\n      0x00\n        /* \"#utility.yul\":20193:20281   */\n      mstore\n        /* \"#utility.yul\":20300:20304   */\n      0x22\n        /* \"#utility.yul\":20297:20298   */\n      0x04\n        /* \"#utility.yul\":20290:20305   */\n      mstore\n        /* \"#utility.yul\":20324:20328   */\n      0x24\n        /* \"#utility.yul\":20321:20322   */\n      0x00\n        /* \"#utility.yul\":20314:20329   */\n      revert\n        /* \"#utility.yul\":20464:20581   */\n    tag_343:\n        /* \"#utility.yul\":20573:20574   */\n      0x00\n        /* \"#utility.yul\":20570:20571   */\n      dup1\n        /* \"#utility.yul\":20563:20575   */\n      revert\n        /* \"#utility.yul\":20587:20689   */\n    tag_394:\n        /* \"#utility.yul\":20628:20634   */\n      0x00\n        /* \"#utility.yul\":20679:20681   */\n      0x1f\n        /* \"#utility.yul\":20675:20682   */\n      not\n        /* \"#utility.yul\":20670:20672   */\n      0x1f\n        /* \"#utility.yul\":20663:20668   */\n      dup4\n        /* \"#utility.yul\":20659:20673   */\n      add\n        /* \"#utility.yul\":20655:20683   */\n      and\n        /* \"#utility.yul\":20645:20683   */\n      swap1\n      pop\n        /* \"#utility.yul\":20587:20689   */\n      swap2\n      swap1\n      pop\n      jump\t// out\n        /* \"#utility.yul\":20695:20930   */\n    tag_405:\n        /* \"#utility.yul\":20835:20869   */\n      0x546f6b656e2076616c75652069732067726561746572207468616e2074686520\n        /* \"#utility.yul\":20831:20832   */\n      0x00\n        /* \"#utility.yul\":20823:20829   */\n      dup3\n        /* \"#utility.yul\":20819:20833   */\n      add\n        /* \"#utility.yul\":20812:20870   */\n      mstore\n        /* \"#utility.yul\":20904:20922   */\n      0x617070726f7665642062616c616e636500000000000000000000000000000000\n        /* \"#utility.yul\":20899:20901   */\n      0x20\n        /* \"#utility.yul\":20891:20897   */\n      dup3\n        /* \"#utility.yul\":20887:20902   */\n      add\n        /* \"#utility.yul\":20880:20923   */\n      mstore\n        /* \"#utility.yul\":20695:20930   */\n      pop\n      jump\t// out\n        /* \"#utility.yul\":20936:21117   */\n    tag_410:\n        /* \"#utility.yul\":21076:21109   */\n      0x546f6b656e2073616c6573206973206e6f74207965742066696e697368656400\n        /* \"#utility.yul\":21072:21073   */\n      0x00\n        /* \"#utility.yul\":21064:21070   */\n      dup3\n        /* \"#utility.yul\":21060:21074   */\n      add\n        /* \"#utility.yul\":21053:21110   */\n      mstore\n        /* \"#utility.yul\":20936:21117   */\n      pop\n      jump\t// out\n        /* \"#utility.yul\":21123:21344   */\n    tag_415:\n        /* \"#utility.yul\":21263:21297   */\n      0x546f6b656e2076616c7565206d7573742062652067726561746572207468616e\n        /* \"#utility.yul\":21259:21260   */\n      0x00\n        /* \"#utility.yul\":21251:21257   */\n      dup3\n        /* \"#utility.yul\":21247:21261   */\n      add\n        /* \"#utility.yul\":21240:21298   */\n      mstore\n        /* \"#utility.yul\":21332:21336   */\n      0x2030000000000000000000000000000000000000000000000000000000000000\n        /* \"#utility.yul\":21327:21329   */\n      0x20\n        /* \"#utility.yul\":21319:21325   */\n      dup3\n        /* \"#utility.yul\":21315:21330   */\n      add\n        /* \"#utility.yul\":21308:21337   */\n      mstore\n        /* \"#utility.yul\":21123:21344   */\n      pop\n      jump\t// out\n        /* \"#utility.yul\":21350:21532   */\n    tag_420:\n        /* \"#utility.yul\":21490:21524   */\n      0x416d6f756e74206d7573742062652067726561746572207468616e207a65726f\n        /* \"#utility.yul\":21486:21487   */\n      0x00\n        /* \"#utility.yul\":21478:21484   */\n      dup3\n        /* \"#utility.yul\":21474:21488   */\n      add\n        /* \"#utility.yul\":21467:21525   */\n      mstore\n        /* \"#utility.yul\":21350:21532   */\n      pop\n      jump\t// out\n        /* \"#utility.yul\":21538:21719   */\n    tag_425:\n        /* \"#utility.yul\":21678:21711   */\n      0x416d6f756e742063616e6e6f74206e6f74206265206c6f776572207468616e00\n        /* \"#utility.yul\":21674:21675   */\n      0x00\n        /* \"#utility.yul\":21666:21672   */\n      dup3\n        /* \"#utility.yul\":21662:21676   */\n      add\n        /* \"#utility.yul\":21655:21712   */\n      mstore\n        /* \"#utility.yul\":21538:21719   */\n      pop\n      jump\t// out\n        /* \"#utility.yul\":21725:21946   */\n    tag_430:\n        /* \"#utility.yul\":21865:21899   */\n      0x4163636573732064656e6965642c20796f75206165206e6f7420616e2061646d\n        /* \"#utility.yul\":21861:21862   */\n      0x00\n        /* \"#utility.yul\":21853:21859   */\n      dup3\n        /* \"#utility.yul\":21849:21863   */\n      add\n        /* \"#utility.yul\":21842:21900   */\n      mstore\n        /* \"#utility.yul\":21934:21938   */\n      0x696e000000000000000000000000000000000000000000000000000000000000\n        /* \"#utility.yul\":21929:21931   */\n      0x20\n        /* \"#utility.yul\":21921:21927   */\n      dup3\n        /* \"#utility.yul\":21917:21932   */\n      add\n        /* \"#utility.yul\":21910:21939   */\n      mstore\n        /* \"#utility.yul\":21725:21946   */\n      pop\n      jump\t// out\n        /* \"#utility.yul\":21952:22187   */\n    tag_435:\n        /* \"#utility.yul\":22092:22126   */\n      0x546f6b656e2076616c75652069732067726561746572207468616e20796f7572\n        /* \"#utility.yul\":22088:22089   */\n      0x00\n        /* \"#utility.yul\":22080:22086   */\n      dup3\n        /* \"#utility.yul\":22076:22090   */\n      add\n        /* \"#utility.yul\":22069:22127   */\n      mstore\n        /* \"#utility.yul\":22161:22179   */\n      0x2063757272656e7420686f6c64696e6700000000000000000000000000000000\n        /* \"#utility.yul\":22156:22158   */\n      0x20\n        /* \"#utility.yul\":22148:22154   */\n      dup3\n        /* \"#utility.yul\":22144:22159   */\n      add\n        /* \"#utility.yul\":22137:22180   */\n      mstore\n        /* \"#utility.yul\":21952:22187   */\n      pop\n      jump\t// out\n        /* \"#utility.yul\":22193:22373   */\n    tag_440:\n        /* \"#utility.yul\":22333:22365   */\n      0x4e6f20746f6b656e20617661696c61626c6520666f72206275726e696e670000\n        /* \"#utility.yul\":22329:22330   */\n      0x00\n        /* \"#utility.yul\":22321:22327   */\n      dup3\n        /* \"#utility.yul\":22317:22331   */\n      add\n        /* \"#utility.yul\":22310:22366   */\n      mstore\n        /* \"#utility.yul\":22193:22373   */\n      pop\n      jump\t// out\n        /* \"#utility.yul\":22379:22614   */\n    tag_445:\n        /* \"#utility.yul\":22519:22553   */\n      0x546865206d6178696d756d20616d6f756e7420746f2062652072616973656420\n        /* \"#utility.yul\":22515:22516   */\n      0x00\n        /* \"#utility.yul\":22507:22513   */\n      dup3\n        /* \"#utility.yul\":22503:22517   */\n      add\n        /* \"#utility.yul\":22496:22554   */\n      mstore\n        /* \"#utility.yul\":22588:22606   */\n      0x686173206265656e207265616368656400000000000000000000000000000000\n        /* \"#utility.yul\":22583:22585   */\n      0x20\n        /* \"#utility.yul\":22575:22581   */\n      dup3\n        /* \"#utility.yul\":22571:22586   */\n      add\n        /* \"#utility.yul\":22564:22607   */\n      mstore\n        /* \"#utility.yul\":22379:22614   */\n      pop\n      jump\t// out\n        /* \"#utility.yul\":22620:22840   */\n    tag_450:\n        /* \"#utility.yul\":22760:22794   */\n      0x416d6f756e742063616e6e6f74206e6f74206265206869676768657220746861\n        /* \"#utility.yul\":22756:22757   */\n      0x00\n        /* \"#utility.yul\":22748:22754   */\n      dup3\n        /* \"#utility.yul\":22744:22758   */\n      add\n        /* \"#utility.yul\":22737:22795   */\n      mstore\n        /* \"#utility.yul\":22829:22832   */\n      0x6e00000000000000000000000000000000000000000000000000000000000000\n        /* \"#utility.yul\":22824:22826   */\n      0x20\n        /* \"#utility.yul\":22816:22822   */\n      dup3\n        /* \"#utility.yul\":22812:22827   */\n      add\n        /* \"#utility.yul\":22805:22833   */\n      mstore\n        /* \"#utility.yul\":22620:22840   */\n      pop\n      jump\t// out\n        /* \"#utility.yul\":22846:23024   */\n    tag_455:\n        /* \"#utility.yul\":22986:23016   */\n      0x496e73756666696369656e74204163636f756e742042616c616e636500000000\n        /* \"#utility.yul\":22982:22983   */\n      0x00\n        /* \"#utility.yul\":22974:22980   */\n      dup3\n        /* \"#utility.yul\":22970:22984   */\n      add\n        /* \"#utility.yul\":22963:23017   */\n      mstore\n        /* \"#utility.yul\":22846:23024   */\n      pop\n      jump\t// out\n        /* \"#utility.yul\":23030:23198   */\n    tag_460:\n        /* \"#utility.yul\":23170:23190   */\n      0x496e737566696369656e742042616c6e63650000000000000000000000000000\n        /* \"#utility.yul\":23166:23167   */\n      0x00\n        /* \"#utility.yul\":23158:23164   */\n      dup3\n        /* \"#utility.yul\":23154:23168   */\n      add\n        /* \"#utility.yul\":23147:23191   */\n      mstore\n        /* \"#utility.yul\":23030:23198   */\n      pop\n      jump\t// out\n        /* \"#utility.yul\":23204:23318   */\n    tag_546:\n        /* \"#utility.yul\":23286:23287   */\n      0x05\n        /* \"#utility.yul\":23279:23284   */\n      dup2\n        /* \"#utility.yul\":23276:23288   */\n      lt\n        /* \"#utility.yul\":23266:23312   */\n      tag_583\n      jumpi\n        /* \"#utility.yul\":23292:23310   */\n      tag_584\n      tag_187\n      jump\t// in\n    tag_584:\n        /* \"#utility.yul\":23266:23312   */\n    tag_583:\n        /* \"#utility.yul\":23204:23318   */\n      pop\n      jump\t// out\n        /* \"#utility.yul\":23324:23446   */\n    tag_331:\n        /* \"#utility.yul\":23397:23421   */\n      tag_586\n        /* \"#utility.yul\":23415:23420   */\n      dup2\n        /* \"#utility.yul\":23397:23421   */\n      tag_376\n      jump\t// in\n    tag_586:\n        /* \"#utility.yul\":23390:23395   */\n      dup2\n        /* \"#utility.yul\":23387:23422   */\n      eq\n        /* \"#utility.yul\":23377:23440   */\n      tag_587\n      jumpi\n        /* \"#utility.yul\":23436:23437   */\n      0x00\n        /* \"#utility.yul\":23433:23434   */\n      dup1\n        /* \"#utility.yul\":23426:23438   */\n      revert\n        /* \"#utility.yul\":23377:23440   */\n    tag_587:\n        /* \"#utility.yul\":23324:23446   */\n      pop\n      jump\t// out\n        /* \"#utility.yul\":23452:23590   */\n    tag_335:\n        /* \"#utility.yul\":23533:23565   */\n      tag_589\n        /* \"#utility.yul\":23559:23564   */\n      dup2\n        /* \"#utility.yul\":23533:23565   */\n      tag_372\n      jump\t// in\n    tag_589:\n        /* \"#utility.yul\":23526:23531   */\n      dup2\n        /* \"#utility.yul\":23523:23566   */\n      eq\n        /* \"#utility.yul\":23513:23584   */\n      tag_590\n      jumpi\n        /* \"#utility.yul\":23580:23581   */\n      0x00\n        /* \"#utility.yul\":23577:23578   */\n      dup1\n        /* \"#utility.yul\":23570:23582   */\n      revert\n        /* \"#utility.yul\":23513:23584   */\n    tag_590:\n        /* \"#utility.yul\":23452:23590   */\n      pop\n      jump\t// out\n        /* \"#utility.yul\":23596:23718   */\n    tag_339:\n        /* \"#utility.yul\":23669:23693   */\n      tag_592\n        /* \"#utility.yul\":23687:23692   */\n      dup2\n        /* \"#utility.yul\":23669:23693   */\n      tag_464\n      jump\t// in\n    tag_592:\n        /* \"#utility.yul\":23662:23667   */\n      dup2\n        /* \"#utility.yul\":23659:23694   */\n      eq\n        /* \"#utility.yul\":23649:23712   */\n      tag_593\n      jumpi\n        /* \"#utility.yul\":23708:23709   */\n      0x00\n        /* \"#utility.yul\":23705:23706   */\n      dup1\n        /* \"#utility.yul\":23698:23710   */\n      revert\n        /* \"#utility.yul\":23649:23712   */\n    tag_593:\n        /* \"#utility.yul\":23596:23718   */\n      pop\n      jump\t// out\n\n    auxdata: 0xa2646970667358221220b78c3bcd8f5493d4420e69fa0c36aab3347ae4cfceae1d1a91973a5bd4b139b964736f6c63430008070033\n}\n",
				"bytecode": {
					"linkReferences": {},
					"object": "60806040526040518060400160405280600681526020017f5a494c4c4158000000000000000000000000000000000000000000000000000081525060009080519060200190620000519291906200028c565b506040518060400160405280600381526020017f5a4c5a0000000000000000000000000000000000000000000000000000000000815250600190805190602001906200009f9291906200028c565b50600060025566038d7ea4c68000600855674563918244f40000600a5542600b5567016345785d8a0000600d55670de0b6b3a7640000600e55348015620000e557600080fd5b5060405162002d4838038062002d4883398181016040528101906200010b91906200036a565b620f424060048190555033600360006101000a81548173ffffffffffffffffffffffffffffffffffffffff021916908373ffffffffffffffffffffffffffffffffffffffff16021790555060045460056000600360009054906101000a900473ffffffffffffffffffffffffffffffffffffffff1673ffffffffffffffffffffffffffffffffffffffff1673ffffffffffffffffffffffffffffffffffffffff168152602001908152602001600020819055506000600f60006101000a81548160ff02191690836004811115620001e757620001e6620004b1565b5b021790555033600760006101000a81548173ffffffffffffffffffffffffffffffffffffffff021916908373ffffffffffffffffffffffffffffffffffffffff16021790555081600b546200023d9190620003b1565b600c8190555080600f60016101000a81548173ffffffffffffffffffffffffffffffffffffffff021916908373ffffffffffffffffffffffffffffffffffffffff160217905550505062000548565b8280546200029a906200044c565b90600052602060002090601f016020900481019282620002be57600085556200030a565b82601f10620002d957805160ff19168380011785556200030a565b828001600101855582156200030a579182015b8281111562000309578251825591602001919060010190620002ec565b5b5090506200031991906200031d565b5090565b5b80821115620003385760008160009055506001016200031e565b5090565b6000815190506200034d8162000514565b92915050565b60008151905062000364816200052e565b92915050565b600080604083850312156200038457620003836200050f565b5b6000620003948582860162000353565b9250506020620003a7858286016200033c565b9150509250929050565b6000620003be8262000442565b9150620003cb8362000442565b9250827fffffffffffffffffffffffffffffffffffffffffffffffffffffffffffffffff0382111562000403576200040262000482565b5b828201905092915050565b60006200041b8262000422565b9050919050565b600073ffffffffffffffffffffffffffffffffffffffff82169050919050565b6000819050919050565b600060028204905060018216806200046557607f821691505b602082108114156200047c576200047b620004e0565b5b50919050565b7f4e487b7100000000000000000000000000000000000000000000000000000000600052601160045260246000fd5b7f4e487b7100000000000000000000000000000000000000000000000000000000600052602160045260246000fd5b7f4e487b7100000000000000000000000000000000000000000000000000000000600052602260045260246000fd5b600080fd5b6200051f816200040e565b81146200052b57600080fd5b50565b620005398162000442565b81146200054557600080fd5b50565b6127f080620005586000396000f3fe6080604052600436106101dc5760003560e01c80635ed7ca5b11610102578063bb0c829811610095578063e8b5e51f11610064578063e8b5e51f146106b4578063f4807944146106d2578063f851a440146106fd578063fb86a40414610728576101ec565b8063bb0c8298146105f8578063c59ee1dc14610623578063cf942c791461064e578063dd62ed3e14610677576101ec565b806378e97925116100d157806378e979251461053a57806395d89b4114610565578063a9059cbb14610590578063a9bcea61146105cd576101ec565b80635ed7ca5b146104945780636d58c88f146104ab57806370a08231146104d457806377eab3e314610511576101ec565b806328f833b71161017a5780633197cbb6116101495780633197cbb6146103d657806344f38756146104015780634d853ee51461042c5780635c65816514610457576101ec565b806328f833b71461032c5780632942b61a146103575780633052b75e14610382578063313ce567146103ab576101ec565b8063095ea7b3116101b6578063095ea7b31461024a57806318160ddd1461028757806323b872dd146102b257806327e235e3146102ef576101ec565b8063046f7da2146101f157806306fdde031461020857806308003f7814610233576101ec565b366101ec576101e9610753565b50005b600080fd5b3480156101fd57600080fd5b50610206610ac5565b005b34801561021457600080fd5b5061021d610b82565b60405161022a9190612072565b60405180910390f35b34801561023f57600080fd5b50610248610c10565b005b34801561025657600080fd5b50610271600480360381019061026c9190611c82565b610dc4565b60405161027e919061203c565b60405180910390f35b34801561029357600080fd5b5061029c610f7b565b6040516102a991906121d4565b60405180910390f35b3480156102be57600080fd5b506102d960048036038101906102d49190611c2f565b610f81565b6040516102e6919061203c565b60405180910390f35b3480156102fb57600080fd5b5061031660048036038101906103119190611b95565b610fde565b60405161032391906121d4565b60405180910390f35b34801561033857600080fd5b50610341610ff6565b60405161034e9190611fea565b60405180910390f35b34801561036357600080fd5b5061036c61101c565b6040516103799190612057565b60405180910390f35b34801561038e57600080fd5b506103a960048036038101906103a49190611cc2565b6110a5565b005b3480156103b757600080fd5b506103c061114c565b6040516103cd91906121d4565b60405180910390f35b3480156103e257600080fd5b506103eb611152565b6040516103f891906121d4565b60405180910390f35b34801561040d57600080fd5b50610416611158565b6040516104239190612057565b60405180910390f35b34801561043857600080fd5b5061044161116b565b60405161044e9190611fcf565b60405180910390f35b34801561046357600080fd5b5061047e60048036038101906104799190611bef565b611191565b60405161048b91906121d4565b60405180910390f35b3480156104a057600080fd5b506104a96111b6565b005b3480156104b757600080fd5b506104d260048036038101906104cd9190611bc2565b611273565b005b3480156104e057600080fd5b506104fb60048036038101906104f69190611b95565b611347565b60405161050891906121d4565b60405180910390f35b34801561051d57600080fd5b5061053860048036038101906105339190611cc2565b611390565b005b34801561054657600080fd5b5061054f61142a565b60405161055c91906121d4565b60405180910390f35b34801561057157600080fd5b5061057a611430565b6040516105879190612072565b60405180910390f35b34801561059c57600080fd5b506105b760048036038101906105b29190611c82565b6114be565b6040516105c4919061203c565b60405180910390f35b3480156105d957600080fd5b506105e2611519565b6040516105ef91906121d4565b60405180910390f35b34801561060457600080fd5b5061060d61151f565b60405161061a91906121d4565b60405180910390f35b34801561062f57600080fd5b50610638611525565b60405161064591906121d4565b60405180910390f35b34801561065a57600080fd5b5061067560048036038101906106709190611cc2565b61152b565b005b34801561068357600080fd5b5061069e60048036038101906106999190611bef565b6115c5565b6040516106ab91906121d4565b60405180910390f35b6106bc610753565b6040516106c9919061203c565b60405180910390f35b3480156106de57600080fd5b506106e761164c565b6040516106f491906121d4565b60405180910390f35b34801561070957600080fd5b50610712611656565b60405161071f9190611fcf565b60405180910390f35b34801561073457600080fd5b5061073d61167c565b60405161074a91906121d4565b60405180910390f35b600061075d61101c565b600f60006101000a81548160ff021916908360048111156107815761078061241d565b5b02179055506001600481111561079a5761079961241d565b5b600f60009054906101000a900460ff1660048111156107bc576107bb61241d565b5b146107fc576040517f08c379a00000000000000000000000000000000000000000000000000000000081526004016107f3906120f4565b60405180910390fd5b6000600d546040516020016108119190611f83565b60405160208183030381529060405290506000600e546040516020016108379190611fa9565b60405160208183030381529060405290506000828260405160200161085d929190611f5f565b6040516020818303038152906040529050600d5434101580156108825750600e543411155b81906108c4576040517f08c379a00000000000000000000000000000000000000000000000000000000081526004016108bb9190612072565b60405180910390fd5b506000346009546108d59190612216565b9050600a5481111561091c576040517f08c379a000000000000000000000000000000000000000000000000000000000815260040161091390612174565b60405180910390fd5b346009600082825461092e9190612216565b92505081905550600060085434610945919061226c565b905080600560003373ffffffffffffffffffffffffffffffffffffffff1673ffffffffffffffffffffffffffffffffffffffff16815260200190815260200160002060008282546109969190612216565b925050819055508060056000600360009054906101000a900473ffffffffffffffffffffffffffffffffffffffff1673ffffffffffffffffffffffffffffffffffffffff1673ffffffffffffffffffffffffffffffffffffffff1681526020019081526020016000206000828254610a0e919061229d565b92505081905550600f60019054906101000a900473ffffffffffffffffffffffffffffffffffffffff1673ffffffffffffffffffffffffffffffffffffffff166108fc349081150290604051600060405180830381858888f19350505050158015610a7d573d6000803e3d6000fd5b507f4ae4bd7655e0d350876a23cd90c4227b13db560e34435c6a488150a9c844bf5f333483604051610ab193929190612005565b60405180910390a160019550505050505090565b600760009054906101000a900473ffffffffffffffffffffffffffffffffffffffff1673ffffffffffffffffffffffffffffffffffffffff163373ffffffffffffffffffffffffffffffffffffffff1614610b55576040517f08c379a0000000000000000000000000000000000000000000000000000000008152600401610b4c90612114565b60405180910390fd5b6001600f60006101000a81548160ff02191690836004811115610b7b57610b7a61241d565b5b0217905550565b60008054610b8f90612383565b80601f0160208091040260200160405190810160405280929190818152602001828054610bbb90612383565b8015610c085780601f10610bdd57610100808354040283529160200191610c08565b820191906000526020600020905b815481529060010190602001808311610beb57829003601f168201915b505050505081565b610c1861101c565b600f60006101000a81548160ff02191690836004811115610c3c57610c3b61241d565b5b021790555060036004811115610c5557610c5461241d565b5b600f60009054906101000a900460ff166004811115610c7757610c7661241d565b5b14610cb7576040517f08c379a0000000000000000000000000000000000000000000000000000000008152600401610cae906120b4565b60405180910390fd5b600060056000600360009054906101000a900473ffffffffffffffffffffffffffffffffffffffff1673ffffffffffffffffffffffffffffffffffffffff1673ffffffffffffffffffffffffffffffffffffffff1681526020019081526020016000205411610d5b576040517f08c379a0000000000000000000000000000000000000000000000000000000008152600401610d5290612154565b60405180910390fd5b600060056000600360009054906101000a900473ffffffffffffffffffffffffffffffffffffffff1673ffffffffffffffffffffffffffffffffffffffff1673ffffffffffffffffffffffffffffffffffffffff16815260200190815260200160002081905550565b600081600560003373ffffffffffffffffffffffffffffffffffffffff1673ffffffffffffffffffffffffffffffffffffffff168152602001908152602001600020541015610e48576040517f08c379a0000000000000000000000000000000000000000000000000000000008152600401610e3f90612134565b60405180910390fd5b60008211610e8b576040517f08c379a0000000000000000000000000000000000000000000000000000000008152600401610e82906120d4565b60405180910390fd5b81600660003373ffffffffffffffffffffffffffffffffffffffff1673ffffffffffffffffffffffffffffffffffffffff16815260200190815260200160002060008573ffffffffffffffffffffffffffffffffffffffff1673ffffffffffffffffffffffffffffffffffffffff168152602001908152602001600020819055508273ffffffffffffffffffffffffffffffffffffffff163373ffffffffffffffffffffffffffffffffffffffff167f8c5be1e5ebec7d5bd14f71427d1e84f3dd0314c0f7b2291e5b200ac8c7c3b92584604051610f6991906121d4565b60405180910390a36001905092915050565b60045481565b6000600c544211610fc7576040517f08c379a0000000000000000000000000000000000000000000000000000000008152600401610fbe906120b4565b60405180910390fd5b610fd2848484611682565b50600190509392505050565b60056020528060005260406000206000915090505481565b600f60019054906101000a900473ffffffffffffffffffffffffffffffffffffffff1681565b6000806004808111156110325761103161241d565b5b600f60009054906101000a900460ff1660048111156110545761105361241d565b5b1415611063576004905061109e565b600b54421015611076576000905061109d565b600b5442101580156110895750600c5442105b15611097576001905061109c565b600390505b5b5b8091505090565b600760009054906101000a900473ffffffffffffffffffffffffffffffffffffffff1673ffffffffffffffffffffffffffffffffffffffff163373ffffffffffffffffffffffffffffffffffffffff1614611135576040517f08c379a000000000000000000000000000000000000000000000000000000000815260040161112c90612114565b60405180910390fd5b80600b546111439190612216565b600c8190555050565b60025481565b600c5481565b600f60009054906101000a900460ff1681565b600360009054906101000a900473ffffffffffffffffffffffffffffffffffffffff1681565b6006602052816000526040600020602052806000526040600020600091509150505481565b600760009054906101000a900473ffffffffffffffffffffffffffffffffffffffff1673ffffffffffffffffffffffffffffffffffffffff163373ffffffffffffffffffffffffffffffffffffffff1614611246576040517f08c379a000000000000000000000000000000000000000000000000000000000815260040161123d90612114565b60405180910390fd5b6004600f60006101000a81548160ff0219169083600481111561126c5761126b61241d565b5b0217905550565b600760009054906101000a900473ffffffffffffffffffffffffffffffffffffffff1673ffffffffffffffffffffffffffffffffffffffff163373ffffffffffffffffffffffffffffffffffffffff1614611303576040517f08c379a00000000000000000000000000000000000000000000000000000000081526004016112fa90612114565b60405180910390fd5b80600f60016101000a81548173ffffffffffffffffffffffffffffffffffffffff021916908373ffffffffffffffffffffffffffffffffffffffff16021790555050565b6000600560008373ffffffffffffffffffffffffffffffffffffffff1673ffffffffffffffffffffffffffffffffffffffff168152602001908152602001600020549050919050565b600760009054906101000a900473ffffffffffffffffffffffffffffffffffffffff1673ffffffffffffffffffffffffffffffffffffffff163373ffffffffffffffffffffffffffffffffffffffff1614611420576040517f08c379a000000000000000000000000000000000000000000000000000000000815260040161141790612114565b60405180910390fd5b80600e8190555050565b600b5481565b6001805461143d90612383565b80601f016020809104026020016040519081016040528092919081815260200182805461146990612383565b80156114b65780601f1061148b576101008083540402835291602001916114b6565b820191906000526020600020905b81548152906001019060200180831161149957829003601f168201915b505050505081565b6000600c544211611504576040517f08c379a00000000000000000000000000000000000000000000000000000000081526004016114fb906120b4565b60405180910390fd5b61150e83836119b7565b506001905092915050565b600e5481565b600d5481565b60095481565b600760009054906101000a900473ffffffffffffffffffffffffffffffffffffffff1673ffffffffffffffffffffffffffffffffffffffff163373ffffffffffffffffffffffffffffffffffffffff16146115bb576040517f08c379a00000000000000000000000000000000000000000000000000000000081526004016115b290612114565b60405180910390fd5b80600d8190555050565b6000600660008473ffffffffffffffffffffffffffffffffffffffff1673ffffffffffffffffffffffffffffffffffffffff16815260200190815260200160002060008373ffffffffffffffffffffffffffffffffffffffff1673ffffffffffffffffffffffffffffffffffffffff16815260200190815260200160002054905092915050565b6000600954905090565b600760009054906101000a900473ffffffffffffffffffffffffffffffffffffffff1681565b600a5481565b600081600660008673ffffffffffffffffffffffffffffffffffffffff1673ffffffffffffffffffffffffffffffffffffffff16815260200190815260200160002060003373ffffffffffffffffffffffffffffffffffffffff1673ffffffffffffffffffffffffffffffffffffffff168152602001908152602001600020541015611743576040517f08c379a000000000000000000000000000000000000000000000000000000000815260040161173a90612094565b60405180910390fd5b81600560008673ffffffffffffffffffffffffffffffffffffffff1673ffffffffffffffffffffffffffffffffffffffff1681526020019081526020016000205410156117c5576040517f08c379a00000000000000000000000000000000000000000000000000000000081526004016117bc906121b4565b60405180910390fd5b60008211611808576040517f08c379a00000000000000000000000000000000000000000000000000000000081526004016117ff906120d4565b60405180910390fd5b81600660008673ffffffffffffffffffffffffffffffffffffffff1673ffffffffffffffffffffffffffffffffffffffff16815260200190815260200160002060003373ffffffffffffffffffffffffffffffffffffffff1673ffffffffffffffffffffffffffffffffffffffff1681526020019081526020016000206000828254611894919061229d565b9250508190555081600560008673ffffffffffffffffffffffffffffffffffffffff1673ffffffffffffffffffffffffffffffffffffffff16815260200190815260200160002060008282546118ea919061229d565b9250508190555081600560008573ffffffffffffffffffffffffffffffffffffffff1673ffffffffffffffffffffffffffffffffffffffff16815260200190815260200160002060008282546119409190612216565b925050819055508273ffffffffffffffffffffffffffffffffffffffff168473ffffffffffffffffffffffffffffffffffffffff167fddf252ad1be2c89b69c2b068fc378daa952ba7f163c4a11628f55a4df523b3ef846040516119a491906121d4565b60405180910390a3600190509392505050565b600081600560003373ffffffffffffffffffffffffffffffffffffffff1673ffffffffffffffffffffffffffffffffffffffff168152602001908152602001600020541015611a3b576040517f08c379a0000000000000000000000000000000000000000000000000000000008152600401611a3290612194565b60405180910390fd5b81600560008573ffffffffffffffffffffffffffffffffffffffff1673ffffffffffffffffffffffffffffffffffffffff1681526020019081526020016000206000828254611a8a9190612216565b9250508190555081600560003373ffffffffffffffffffffffffffffffffffffffff1673ffffffffffffffffffffffffffffffffffffffff1681526020019081526020016000206000828254611ae0919061229d565b925050819055508273ffffffffffffffffffffffffffffffffffffffff163373ffffffffffffffffffffffffffffffffffffffff167fddf252ad1be2c89b69c2b068fc378daa952ba7f163c4a11628f55a4df523b3ef84604051611b4491906121d4565b60405180910390a36001905092915050565b600081359050611b6581612775565b92915050565b600081359050611b7a8161278c565b92915050565b600081359050611b8f816127a3565b92915050565b600060208284031215611bab57611baa61247b565b5b6000611bb984828501611b56565b91505092915050565b600060208284031215611bd857611bd761247b565b5b6000611be684828501611b6b565b91505092915050565b60008060408385031215611c0657611c0561247b565b5b6000611c1485828601611b56565b9250506020611c2585828601611b56565b9150509250929050565b600080600060608486031215611c4857611c4761247b565b5b6000611c5686828701611b56565b9350506020611c6786828701611b56565b9250506040611c7886828701611b80565b9150509250925092565b60008060408385031215611c9957611c9861247b565b5b6000611ca785828601611b56565b9250506020611cb885828601611b80565b9150509250929050565b600060208284031215611cd857611cd761247b565b5b6000611ce684828501611b80565b91505092915050565b611cf8816122e3565b82525050565b611d07816122d1565b82525050565b611d16816122f5565b82525050565b611d258161233e565b82525050565b6000611d36826121ef565b611d4081856121fa565b9350611d50818560208601612350565b611d5981612480565b840191505092915050565b6000611d6f826121ef565b611d79818561220b565b9350611d89818560208601612350565b80840191505092915050565b6000611da26030836121fa565b9150611dad82612491565b604082019050919050565b6000611dc5601f836121fa565b9150611dd0826124e0565b602082019050919050565b6000611de86022836121fa565b9150611df382612509565b604082019050919050565b6000611e0b6020836121fa565b9150611e1682612558565b602082019050919050565b6000611e2e601f8361220b565b9150611e3982612581565b601f82019050919050565b6000611e516022836121fa565b9150611e5c826125aa565b604082019050919050565b6000611e746030836121fa565b9150611e7f826125f9565b604082019050919050565b6000611e97601e836121fa565b9150611ea282612648565b602082019050919050565b6000611eba6030836121fa565b9150611ec582612671565b604082019050919050565b6000611edd60218361220b565b9150611ee8826126c0565b602182019050919050565b6000611f00601c836121fa565b9150611f0b8261270f565b602082019050919050565b6000611f236012836121fa565b9150611f2e82612738565b602082019050919050565b611f4281612334565b82525050565b611f59611f5482612334565b6123b5565b82525050565b6000611f6b8285611d64565b9150611f778284611d64565b91508190509392505050565b6000611f8e82611e21565b9150611f9a8284611f48565b60208201915081905092915050565b6000611fb482611ed0565b9150611fc08284611f48565b60208201915081905092915050565b6000602082019050611fe46000830184611cfe565b92915050565b6000602082019050611fff6000830184611cef565b92915050565b600060608201905061201a6000830186611cfe565b6120276020830185611f39565b6120346040830184611f39565b949350505050565b60006020820190506120516000830184611d0d565b92915050565b600060208201905061206c6000830184611d1c565b92915050565b6000602082019050818103600083015261208c8184611d2b565b905092915050565b600060208201905081810360008301526120ad81611d95565b9050919050565b600060208201905081810360008301526120cd81611db8565b9050919050565b600060208201905081810360008301526120ed81611ddb565b9050919050565b6000602082019050818103600083015261210d81611dfe565b9050919050565b6000602082019050818103600083015261212d81611e44565b9050919050565b6000602082019050818103600083015261214d81611e67565b9050919050565b6000602082019050818103600083015261216d81611e8a565b9050919050565b6000602082019050818103600083015261218d81611ead565b9050919050565b600060208201905081810360008301526121ad81611ef3565b9050919050565b600060208201905081810360008301526121cd81611f16565b9050919050565b60006020820190506121e96000830184611f39565b92915050565b600081519050919050565b600082825260208201905092915050565b600081905092915050565b600061222182612334565b915061222c83612334565b9250827fffffffffffffffffffffffffffffffffffffffffffffffffffffffffffffffff03821115612261576122606123bf565b5b828201905092915050565b600061227782612334565b915061228283612334565b925082612292576122916123ee565b5b828204905092915050565b60006122a882612334565b91506122b383612334565b9250828210156122c6576122c56123bf565b5b828203905092915050565b60006122dc82612314565b9050919050565b60006122ee82612314565b9050919050565b60008115159050919050565b600081905061230f82612761565b919050565b600073ffffffffffffffffffffffffffffffffffffffff82169050919050565b6000819050919050565b600061234982612301565b9050919050565b60005b8381101561236e578082015181840152602081019050612353565b8381111561237d576000848401525b50505050565b6000600282049050600182168061239b57607f821691505b602082108114156123af576123ae61244c565b5b50919050565b6000819050919050565b7f4e487b7100000000000000000000000000000000000000000000000000000000600052601160045260246000fd5b7f4e487b7100000000000000000000000000000000000000000000000000000000600052601260045260246000fd5b7f4e487b7100000000000000000000000000000000000000000000000000000000600052602160045260246000fd5b7f4e487b7100000000000000000000000000000000000000000000000000000000600052602260045260246000fd5b600080fd5b6000601f19601f8301169050919050565b7f546f6b656e2076616c75652069732067726561746572207468616e207468652060008201527f617070726f7665642062616c616e636500000000000000000000000000000000602082015250565b7f546f6b656e2073616c6573206973206e6f74207965742066696e697368656400600082015250565b7f546f6b656e2076616c7565206d7573742062652067726561746572207468616e60008201527f2030000000000000000000000000000000000000000000000000000000000000602082015250565b7f416d6f756e74206d7573742062652067726561746572207468616e207a65726f600082015250565b7f416d6f756e742063616e6e6f74206e6f74206265206c6f776572207468616e00600082015250565b7f4163636573732064656e6965642c20796f75206165206e6f7420616e2061646d60008201527f696e000000000000000000000000000000000000000000000000000000000000602082015250565b7f546f6b656e2076616c75652069732067726561746572207468616e20796f757260008201527f2063757272656e7420686f6c64696e6700000000000000000000000000000000602082015250565b7f4e6f20746f6b656e20617661696c61626c6520666f72206275726e696e670000600082015250565b7f546865206d6178696d756d20616d6f756e7420746f206265207261697365642060008201527f686173206265656e207265616368656400000000000000000000000000000000602082015250565b7f416d6f756e742063616e6e6f74206e6f7420626520686967676865722074686160008201527f6e00000000000000000000000000000000000000000000000000000000000000602082015250565b7f496e73756666696369656e74204163636f756e742042616c616e636500000000600082015250565b7f496e737566696369656e742042616c6e63650000000000000000000000000000600082015250565b600581106127725761277161241d565b5b50565b61277e816122d1565b811461278957600080fd5b50565b612795816122e3565b81146127a057600080fd5b50565b6127ac81612334565b81146127b757600080fd5b5056fea2646970667358221220b78c3bcd8f5493d4420e69fa0c36aab3347ae4cfceae1d1a91973a5bd4b139b964736f6c63430008070033",
					"opcodes": "PUSH1 0x80 PUSH1 0x40 MSTORE PUSH1 0x40 MLOAD DUP1 PUSH1 0x40 ADD PUSH1 0x40 MSTORE DUP1 PUSH1 0x6 DUP2 MSTORE PUSH1 0x20 ADD PUSH32 0x5A494C4C41580000000000000000000000000000000000000000000000000000 DUP2 MSTORE POP PUSH1 0x0 SWAP1 DUP1 MLOAD SWAP1 PUSH1 0x20 ADD SWAP1 PUSH3 0x51 SWAP3 SWAP2 SWAP1 PUSH3 0x28C JUMP JUMPDEST POP PUSH1 0x40 MLOAD DUP1 PUSH1 0x40 ADD PUSH1 0x40 MSTORE DUP1 PUSH1 0x3 DUP2 MSTORE PUSH1 0x20 ADD PUSH32 0x5A4C5A0000000000000000000000000000000000000000000000000000000000 DUP2 MSTORE POP PUSH1 0x1 SWAP1 DUP1 MLOAD SWAP1 PUSH1 0x20 ADD SWAP1 PUSH3 0x9F SWAP3 SWAP2 SWAP1 PUSH3 0x28C JUMP JUMPDEST POP PUSH1 0x0 PUSH1 0x2 SSTORE PUSH7 0x38D7EA4C68000 PUSH1 0x8 SSTORE PUSH8 0x4563918244F40000 PUSH1 0xA SSTORE TIMESTAMP PUSH1 0xB SSTORE PUSH8 0x16345785D8A0000 PUSH1 0xD SSTORE PUSH8 0xDE0B6B3A7640000 PUSH1 0xE SSTORE CALLVALUE DUP1 ISZERO PUSH3 0xE5 JUMPI PUSH1 0x0 DUP1 REVERT JUMPDEST POP PUSH1 0x40 MLOAD PUSH3 0x2D48 CODESIZE SUB DUP1 PUSH3 0x2D48 DUP4 CODECOPY DUP2 DUP2 ADD PUSH1 0x40 MSTORE DUP2 ADD SWAP1 PUSH3 0x10B SWAP2 SWAP1 PUSH3 0x36A JUMP JUMPDEST PUSH3 0xF4240 PUSH1 0x4 DUP2 SWAP1 SSTORE POP CALLER PUSH1 0x3 PUSH1 0x0 PUSH2 0x100 EXP DUP2 SLOAD DUP2 PUSH20 0xFFFFFFFFFFFFFFFFFFFFFFFFFFFFFFFFFFFFFFFF MUL NOT AND SWAP1 DUP4 PUSH20 0xFFFFFFFFFFFFFFFFFFFFFFFFFFFFFFFFFFFFFFFF AND MUL OR SWAP1 SSTORE POP PUSH1 0x4 SLOAD PUSH1 0x5 PUSH1 0x0 PUSH1 0x3 PUSH1 0x0 SWAP1 SLOAD SWAP1 PUSH2 0x100 EXP SWAP1 DIV PUSH20 0xFFFFFFFFFFFFFFFFFFFFFFFFFFFFFFFFFFFFFFFF AND PUSH20 0xFFFFFFFFFFFFFFFFFFFFFFFFFFFFFFFFFFFFFFFF AND PUSH20 0xFFFFFFFFFFFFFFFFFFFFFFFFFFFFFFFFFFFFFFFF AND DUP2 MSTORE PUSH1 0x20 ADD SWAP1 DUP2 MSTORE PUSH1 0x20 ADD PUSH1 0x0 KECCAK256 DUP2 SWAP1 SSTORE POP PUSH1 0x0 PUSH1 0xF PUSH1 0x0 PUSH2 0x100 EXP DUP2 SLOAD DUP2 PUSH1 0xFF MUL NOT AND SWAP1 DUP4 PUSH1 0x4 DUP2 GT ISZERO PUSH3 0x1E7 JUMPI PUSH3 0x1E6 PUSH3 0x4B1 JUMP JUMPDEST JUMPDEST MUL OR SWAP1 SSTORE POP CALLER PUSH1 0x7 PUSH1 0x0 PUSH2 0x100 EXP DUP2 SLOAD DUP2 PUSH20 0xFFFFFFFFFFFFFFFFFFFFFFFFFFFFFFFFFFFFFFFF MUL NOT AND SWAP1 DUP4 PUSH20 0xFFFFFFFFFFFFFFFFFFFFFFFFFFFFFFFFFFFFFFFF AND MUL OR SWAP1 SSTORE POP DUP2 PUSH1 0xB SLOAD PUSH3 0x23D SWAP2 SWAP1 PUSH3 0x3B1 JUMP JUMPDEST PUSH1 0xC DUP2 SWAP1 SSTORE POP DUP1 PUSH1 0xF PUSH1 0x1 PUSH2 0x100 EXP DUP2 SLOAD DUP2 PUSH20 0xFFFFFFFFFFFFFFFFFFFFFFFFFFFFFFFFFFFFFFFF MUL NOT AND SWAP1 DUP4 PUSH20 0xFFFFFFFFFFFFFFFFFFFFFFFFFFFFFFFFFFFFFFFF AND MUL OR SWAP1 SSTORE POP POP POP PUSH3 0x548 JUMP JUMPDEST DUP3 DUP1 SLOAD PUSH3 0x29A SWAP1 PUSH3 0x44C JUMP JUMPDEST SWAP1 PUSH1 0x0 MSTORE PUSH1 0x20 PUSH1 0x0 KECCAK256 SWAP1 PUSH1 0x1F ADD PUSH1 0x20 SWAP1 DIV DUP2 ADD SWAP3 DUP3 PUSH3 0x2BE JUMPI PUSH1 0x0 DUP6 SSTORE PUSH3 0x30A JUMP JUMPDEST DUP3 PUSH1 0x1F LT PUSH3 0x2D9 JUMPI DUP1 MLOAD PUSH1 0xFF NOT AND DUP4 DUP1 ADD OR DUP6 SSTORE PUSH3 0x30A JUMP JUMPDEST DUP3 DUP1 ADD PUSH1 0x1 ADD DUP6 SSTORE DUP3 ISZERO PUSH3 0x30A JUMPI SWAP2 DUP3 ADD JUMPDEST DUP3 DUP2 GT ISZERO PUSH3 0x309 JUMPI DUP3 MLOAD DUP3 SSTORE SWAP2 PUSH1 0x20 ADD SWAP2 SWAP1 PUSH1 0x1 ADD SWAP1 PUSH3 0x2EC JUMP JUMPDEST JUMPDEST POP SWAP1 POP PUSH3 0x319 SWAP2 SWAP1 PUSH3 0x31D JUMP JUMPDEST POP SWAP1 JUMP JUMPDEST JUMPDEST DUP1 DUP3 GT ISZERO PUSH3 0x338 JUMPI PUSH1 0x0 DUP2 PUSH1 0x0 SWAP1 SSTORE POP PUSH1 0x1 ADD PUSH3 0x31E JUMP JUMPDEST POP SWAP1 JUMP JUMPDEST PUSH1 0x0 DUP2 MLOAD SWAP1 POP PUSH3 0x34D DUP2 PUSH3 0x514 JUMP JUMPDEST SWAP3 SWAP2 POP POP JUMP JUMPDEST PUSH1 0x0 DUP2 MLOAD SWAP1 POP PUSH3 0x364 DUP2 PUSH3 0x52E JUMP JUMPDEST SWAP3 SWAP2 POP POP JUMP JUMPDEST PUSH1 0x0 DUP1 PUSH1 0x40 DUP4 DUP6 SUB SLT ISZERO PUSH3 0x384 JUMPI PUSH3 0x383 PUSH3 0x50F JUMP JUMPDEST JUMPDEST PUSH1 0x0 PUSH3 0x394 DUP6 DUP3 DUP7 ADD PUSH3 0x353 JUMP JUMPDEST SWAP3 POP POP PUSH1 0x20 PUSH3 0x3A7 DUP6 DUP3 DUP7 ADD PUSH3 0x33C JUMP JUMPDEST SWAP2 POP POP SWAP3 POP SWAP3 SWAP1 POP JUMP JUMPDEST PUSH1 0x0 PUSH3 0x3BE DUP3 PUSH3 0x442 JUMP JUMPDEST SWAP2 POP PUSH3 0x3CB DUP4 PUSH3 0x442 JUMP JUMPDEST SWAP3 POP DUP3 PUSH32 0xFFFFFFFFFFFFFFFFFFFFFFFFFFFFFFFFFFFFFFFFFFFFFFFFFFFFFFFFFFFFFFFF SUB DUP3 GT ISZERO PUSH3 0x403 JUMPI PUSH3 0x402 PUSH3 0x482 JUMP JUMPDEST JUMPDEST DUP3 DUP3 ADD SWAP1 POP SWAP3 SWAP2 POP POP JUMP JUMPDEST PUSH1 0x0 PUSH3 0x41B DUP3 PUSH3 0x422 JUMP JUMPDEST SWAP1 POP SWAP2 SWAP1 POP JUMP JUMPDEST PUSH1 0x0 PUSH20 0xFFFFFFFFFFFFFFFFFFFFFFFFFFFFFFFFFFFFFFFF DUP3 AND SWAP1 POP SWAP2 SWAP1 POP JUMP JUMPDEST PUSH1 0x0 DUP2 SWAP1 POP SWAP2 SWAP1 POP JUMP JUMPDEST PUSH1 0x0 PUSH1 0x2 DUP3 DIV SWAP1 POP PUSH1 0x1 DUP3 AND DUP1 PUSH3 0x465 JUMPI PUSH1 0x7F DUP3 AND SWAP2 POP JUMPDEST PUSH1 0x20 DUP3 LT DUP2 EQ ISZERO PUSH3 0x47C JUMPI PUSH3 0x47B PUSH3 0x4E0 JUMP JUMPDEST JUMPDEST POP SWAP2 SWAP1 POP JUMP JUMPDEST PUSH32 0x4E487B7100000000000000000000000000000000000000000000000000000000 PUSH1 0x0 MSTORE PUSH1 0x11 PUSH1 0x4 MSTORE PUSH1 0x24 PUSH1 0x0 REVERT JUMPDEST PUSH32 0x4E487B7100000000000000000000000000000000000000000000000000000000 PUSH1 0x0 MSTORE PUSH1 0x21 PUSH1 0x4 MSTORE PUSH1 0x24 PUSH1 0x0 REVERT JUMPDEST PUSH32 0x4E487B7100000000000000000000000000000000000000000000000000000000 PUSH1 0x0 MSTORE PUSH1 0x22 PUSH1 0x4 MSTORE PUSH1 0x24 PUSH1 0x0 REVERT JUMPDEST PUSH1 0x0 DUP1 REVERT JUMPDEST PUSH3 0x51F DUP2 PUSH3 0x40E JUMP JUMPDEST DUP2 EQ PUSH3 0x52B JUMPI PUSH1 0x0 DUP1 REVERT JUMPDEST POP JUMP JUMPDEST PUSH3 0x539 DUP2 PUSH3 0x442 JUMP JUMPDEST DUP2 EQ PUSH3 0x545 JUMPI PUSH1 0x0 DUP1 REVERT JUMPDEST POP JUMP JUMPDEST PUSH2 0x27F0 DUP1 PUSH3 0x558 PUSH1 0x0 CODECOPY PUSH1 0x0 RETURN INVALID PUSH1 0x80 PUSH1 0x40 MSTORE PUSH1 0x4 CALLDATASIZE LT PUSH2 0x1DC JUMPI PUSH1 0x0 CALLDATALOAD PUSH1 0xE0 SHR DUP1 PUSH4 0x5ED7CA5B GT PUSH2 0x102 JUMPI DUP1 PUSH4 0xBB0C8298 GT PUSH2 0x95 JUMPI DUP1 PUSH4 0xE8B5E51F GT PUSH2 0x64 JUMPI DUP1 PUSH4 0xE8B5E51F EQ PUSH2 0x6B4 JUMPI DUP1 PUSH4 0xF4807944 EQ PUSH2 0x6D2 JUMPI DUP1 PUSH4 0xF851A440 EQ PUSH2 0x6FD JUMPI DUP1 PUSH4 0xFB86A404 EQ PUSH2 0x728 JUMPI PUSH2 0x1EC JUMP JUMPDEST DUP1 PUSH4 0xBB0C8298 EQ PUSH2 0x5F8 JUMPI DUP1 PUSH4 0xC59EE1DC EQ PUSH2 0x623 JUMPI DUP1 PUSH4 0xCF942C79 EQ PUSH2 0x64E JUMPI DUP1 PUSH4 0xDD62ED3E EQ PUSH2 0x677 JUMPI PUSH2 0x1EC JUMP JUMPDEST DUP1 PUSH4 0x78E97925 GT PUSH2 0xD1 JUMPI DUP1 PUSH4 0x78E97925 EQ PUSH2 0x53A JUMPI DUP1 PUSH4 0x95D89B41 EQ PUSH2 0x565 JUMPI DUP1 PUSH4 0xA9059CBB EQ PUSH2 0x590 JUMPI DUP1 PUSH4 0xA9BCEA61 EQ PUSH2 0x5CD JUMPI PUSH2 0x1EC JUMP JUMPDEST DUP1 PUSH4 0x5ED7CA5B EQ PUSH2 0x494 JUMPI DUP1 PUSH4 0x6D58C88F EQ PUSH2 0x4AB JUMPI DUP1 PUSH4 0x70A08231 EQ PUSH2 0x4D4 JUMPI DUP1 PUSH4 0x77EAB3E3 EQ PUSH2 0x511 JUMPI PUSH2 0x1EC JUMP JUMPDEST DUP1 PUSH4 0x28F833B7 GT PUSH2 0x17A JUMPI DUP1 PUSH4 0x3197CBB6 GT PUSH2 0x149 JUMPI DUP1 PUSH4 0x3197CBB6 EQ PUSH2 0x3D6 JUMPI DUP1 PUSH4 0x44F38756 EQ PUSH2 0x401 JUMPI DUP1 PUSH4 0x4D853EE5 EQ PUSH2 0x42C JUMPI DUP1 PUSH4 0x5C658165 EQ PUSH2 0x457 JUMPI PUSH2 0x1EC JUMP JUMPDEST DUP1 PUSH4 0x28F833B7 EQ PUSH2 0x32C JUMPI DUP1 PUSH4 0x2942B61A EQ PUSH2 0x357 JUMPI DUP1 PUSH4 0x3052B75E EQ PUSH2 0x382 JUMPI DUP1 PUSH4 0x313CE567 EQ PUSH2 0x3AB JUMPI PUSH2 0x1EC JUMP JUMPDEST DUP1 PUSH4 0x95EA7B3 GT PUSH2 0x1B6 JUMPI DUP1 PUSH4 0x95EA7B3 EQ PUSH2 0x24A JUMPI DUP1 PUSH4 0x18160DDD EQ PUSH2 0x287 JUMPI DUP1 PUSH4 0x23B872DD EQ PUSH2 0x2B2 JUMPI DUP1 PUSH4 0x27E235E3 EQ PUSH2 0x2EF JUMPI PUSH2 0x1EC JUMP JUMPDEST DUP1 PUSH4 0x46F7DA2 EQ PUSH2 0x1F1 JUMPI DUP1 PUSH4 0x6FDDE03 EQ PUSH2 0x208 JUMPI DUP1 PUSH4 0x8003F78 EQ PUSH2 0x233 JUMPI PUSH2 0x1EC JUMP JUMPDEST CALLDATASIZE PUSH2 0x1EC JUMPI PUSH2 0x1E9 PUSH2 0x753 JUMP JUMPDEST POP STOP JUMPDEST PUSH1 0x0 DUP1 REVERT JUMPDEST CALLVALUE DUP1 ISZERO PUSH2 0x1FD JUMPI PUSH1 0x0 DUP1 REVERT JUMPDEST POP PUSH2 0x206 PUSH2 0xAC5 JUMP JUMPDEST STOP JUMPDEST CALLVALUE DUP1 ISZERO PUSH2 0x214 JUMPI PUSH1 0x0 DUP1 REVERT JUMPDEST POP PUSH2 0x21D PUSH2 0xB82 JUMP JUMPDEST PUSH1 0x40 MLOAD PUSH2 0x22A SWAP2 SWAP1 PUSH2 0x2072 JUMP JUMPDEST PUSH1 0x40 MLOAD DUP1 SWAP2 SUB SWAP1 RETURN JUMPDEST CALLVALUE DUP1 ISZERO PUSH2 0x23F JUMPI PUSH1 0x0 DUP1 REVERT JUMPDEST POP PUSH2 0x248 PUSH2 0xC10 JUMP JUMPDEST STOP JUMPDEST CALLVALUE DUP1 ISZERO PUSH2 0x256 JUMPI PUSH1 0x0 DUP1 REVERT JUMPDEST POP PUSH2 0x271 PUSH1 0x4 DUP1 CALLDATASIZE SUB DUP2 ADD SWAP1 PUSH2 0x26C SWAP2 SWAP1 PUSH2 0x1C82 JUMP JUMPDEST PUSH2 0xDC4 JUMP JUMPDEST PUSH1 0x40 MLOAD PUSH2 0x27E SWAP2 SWAP1 PUSH2 0x203C JUMP JUMPDEST PUSH1 0x40 MLOAD DUP1 SWAP2 SUB SWAP1 RETURN JUMPDEST CALLVALUE DUP1 ISZERO PUSH2 0x293 JUMPI PUSH1 0x0 DUP1 REVERT JUMPDEST POP PUSH2 0x29C PUSH2 0xF7B JUMP JUMPDEST PUSH1 0x40 MLOAD PUSH2 0x2A9 SWAP2 SWAP1 PUSH2 0x21D4 JUMP JUMPDEST PUSH1 0x40 MLOAD DUP1 SWAP2 SUB SWAP1 RETURN JUMPDEST CALLVALUE DUP1 ISZERO PUSH2 0x2BE JUMPI PUSH1 0x0 DUP1 REVERT JUMPDEST POP PUSH2 0x2D9 PUSH1 0x4 DUP1 CALLDATASIZE SUB DUP2 ADD SWAP1 PUSH2 0x2D4 SWAP2 SWAP1 PUSH2 0x1C2F JUMP JUMPDEST PUSH2 0xF81 JUMP JUMPDEST PUSH1 0x40 MLOAD PUSH2 0x2E6 SWAP2 SWAP1 PUSH2 0x203C JUMP JUMPDEST PUSH1 0x40 MLOAD DUP1 SWAP2 SUB SWAP1 RETURN JUMPDEST CALLVALUE DUP1 ISZERO PUSH2 0x2FB JUMPI PUSH1 0x0 DUP1 REVERT JUMPDEST POP PUSH2 0x316 PUSH1 0x4 DUP1 CALLDATASIZE SUB DUP2 ADD SWAP1 PUSH2 0x311 SWAP2 SWAP1 PUSH2 0x1B95 JUMP JUMPDEST PUSH2 0xFDE JUMP JUMPDEST PUSH1 0x40 MLOAD PUSH2 0x323 SWAP2 SWAP1 PUSH2 0x21D4 JUMP JUMPDEST PUSH1 0x40 MLOAD DUP1 SWAP2 SUB SWAP1 RETURN JUMPDEST CALLVALUE DUP1 ISZERO PUSH2 0x338 JUMPI PUSH1 0x0 DUP1 REVERT JUMPDEST POP PUSH2 0x341 PUSH2 0xFF6 JUMP JUMPDEST PUSH1 0x40 MLOAD PUSH2 0x34E SWAP2 SWAP1 PUSH2 0x1FEA JUMP JUMPDEST PUSH1 0x40 MLOAD DUP1 SWAP2 SUB SWAP1 RETURN JUMPDEST CALLVALUE DUP1 ISZERO PUSH2 0x363 JUMPI PUSH1 0x0 DUP1 REVERT JUMPDEST POP PUSH2 0x36C PUSH2 0x101C JUMP JUMPDEST PUSH1 0x40 MLOAD PUSH2 0x379 SWAP2 SWAP1 PUSH2 0x2057 JUMP JUMPDEST PUSH1 0x40 MLOAD DUP1 SWAP2 SUB SWAP1 RETURN JUMPDEST CALLVALUE DUP1 ISZERO PUSH2 0x38E JUMPI PUSH1 0x0 DUP1 REVERT JUMPDEST POP PUSH2 0x3A9 PUSH1 0x4 DUP1 CALLDATASIZE SUB DUP2 ADD SWAP1 PUSH2 0x3A4 SWAP2 SWAP1 PUSH2 0x1CC2 JUMP JUMPDEST PUSH2 0x10A5 JUMP JUMPDEST STOP JUMPDEST CALLVALUE DUP1 ISZERO PUSH2 0x3B7 JUMPI PUSH1 0x0 DUP1 REVERT JUMPDEST POP PUSH2 0x3C0 PUSH2 0x114C JUMP JUMPDEST PUSH1 0x40 MLOAD PUSH2 0x3CD SWAP2 SWAP1 PUSH2 0x21D4 JUMP JUMPDEST PUSH1 0x40 MLOAD DUP1 SWAP2 SUB SWAP1 RETURN JUMPDEST CALLVALUE DUP1 ISZERO PUSH2 0x3E2 JUMPI PUSH1 0x0 DUP1 REVERT JUMPDEST POP PUSH2 0x3EB PUSH2 0x1152 JUMP JUMPDEST PUSH1 0x40 MLOAD PUSH2 0x3F8 SWAP2 SWAP1 PUSH2 0x21D4 JUMP JUMPDEST PUSH1 0x40 MLOAD DUP1 SWAP2 SUB SWAP1 RETURN JUMPDEST CALLVALUE DUP1 ISZERO PUSH2 0x40D JUMPI PUSH1 0x0 DUP1 REVERT JUMPDEST POP PUSH2 0x416 PUSH2 0x1158 JUMP JUMPDEST PUSH1 0x40 MLOAD PUSH2 0x423 SWAP2 SWAP1 PUSH2 0x2057 JUMP JUMPDEST PUSH1 0x40 MLOAD DUP1 SWAP2 SUB SWAP1 RETURN JUMPDEST CALLVALUE DUP1 ISZERO PUSH2 0x438 JUMPI PUSH1 0x0 DUP1 REVERT JUMPDEST POP PUSH2 0x441 PUSH2 0x116B JUMP JUMPDEST PUSH1 0x40 MLOAD PUSH2 0x44E SWAP2 SWAP1 PUSH2 0x1FCF JUMP JUMPDEST PUSH1 0x40 MLOAD DUP1 SWAP2 SUB SWAP1 RETURN JUMPDEST CALLVALUE DUP1 ISZERO PUSH2 0x463 JUMPI PUSH1 0x0 DUP1 REVERT JUMPDEST POP PUSH2 0x47E PUSH1 0x4 DUP1 CALLDATASIZE SUB DUP2 ADD SWAP1 PUSH2 0x479 SWAP2 SWAP1 PUSH2 0x1BEF JUMP JUMPDEST PUSH2 0x1191 JUMP JUMPDEST PUSH1 0x40 MLOAD PUSH2 0x48B SWAP2 SWAP1 PUSH2 0x21D4 JUMP JUMPDEST PUSH1 0x40 MLOAD DUP1 SWAP2 SUB SWAP1 RETURN JUMPDEST CALLVALUE DUP1 ISZERO PUSH2 0x4A0 JUMPI PUSH1 0x0 DUP1 REVERT JUMPDEST POP PUSH2 0x4A9 PUSH2 0x11B6 JUMP JUMPDEST STOP JUMPDEST CALLVALUE DUP1 ISZERO PUSH2 0x4B7 JUMPI PUSH1 0x0 DUP1 REVERT JUMPDEST POP PUSH2 0x4D2 PUSH1 0x4 DUP1 CALLDATASIZE SUB DUP2 ADD SWAP1 PUSH2 0x4CD SWAP2 SWAP1 PUSH2 0x1BC2 JUMP JUMPDEST PUSH2 0x1273 JUMP JUMPDEST STOP JUMPDEST CALLVALUE DUP1 ISZERO PUSH2 0x4E0 JUMPI PUSH1 0x0 DUP1 REVERT JUMPDEST POP PUSH2 0x4FB PUSH1 0x4 DUP1 CALLDATASIZE SUB DUP2 ADD SWAP1 PUSH2 0x4F6 SWAP2 SWAP1 PUSH2 0x1B95 JUMP JUMPDEST PUSH2 0x1347 JUMP JUMPDEST PUSH1 0x40 MLOAD PUSH2 0x508 SWAP2 SWAP1 PUSH2 0x21D4 JUMP JUMPDEST PUSH1 0x40 MLOAD DUP1 SWAP2 SUB SWAP1 RETURN JUMPDEST CALLVALUE DUP1 ISZERO PUSH2 0x51D JUMPI PUSH1 0x0 DUP1 REVERT JUMPDEST POP PUSH2 0x538 PUSH1 0x4 DUP1 CALLDATASIZE SUB DUP2 ADD SWAP1 PUSH2 0x533 SWAP2 SWAP1 PUSH2 0x1CC2 JUMP JUMPDEST PUSH2 0x1390 JUMP JUMPDEST STOP JUMPDEST CALLVALUE DUP1 ISZERO PUSH2 0x546 JUMPI PUSH1 0x0 DUP1 REVERT JUMPDEST POP PUSH2 0x54F PUSH2 0x142A JUMP JUMPDEST PUSH1 0x40 MLOAD PUSH2 0x55C SWAP2 SWAP1 PUSH2 0x21D4 JUMP JUMPDEST PUSH1 0x40 MLOAD DUP1 SWAP2 SUB SWAP1 RETURN JUMPDEST CALLVALUE DUP1 ISZERO PUSH2 0x571 JUMPI PUSH1 0x0 DUP1 REVERT JUMPDEST POP PUSH2 0x57A PUSH2 0x1430 JUMP JUMPDEST PUSH1 0x40 MLOAD PUSH2 0x587 SWAP2 SWAP1 PUSH2 0x2072 JUMP JUMPDEST PUSH1 0x40 MLOAD DUP1 SWAP2 SUB SWAP1 RETURN JUMPDEST CALLVALUE DUP1 ISZERO PUSH2 0x59C JUMPI PUSH1 0x0 DUP1 REVERT JUMPDEST POP PUSH2 0x5B7 PUSH1 0x4 DUP1 CALLDATASIZE SUB DUP2 ADD SWAP1 PUSH2 0x5B2 SWAP2 SWAP1 PUSH2 0x1C82 JUMP JUMPDEST PUSH2 0x14BE JUMP JUMPDEST PUSH1 0x40 MLOAD PUSH2 0x5C4 SWAP2 SWAP1 PUSH2 0x203C JUMP JUMPDEST PUSH1 0x40 MLOAD DUP1 SWAP2 SUB SWAP1 RETURN JUMPDEST CALLVALUE DUP1 ISZERO PUSH2 0x5D9 JUMPI PUSH1 0x0 DUP1 REVERT JUMPDEST POP PUSH2 0x5E2 PUSH2 0x1519 JUMP JUMPDEST PUSH1 0x40 MLOAD PUSH2 0x5EF SWAP2 SWAP1 PUSH2 0x21D4 JUMP JUMPDEST PUSH1 0x40 MLOAD DUP1 SWAP2 SUB SWAP1 RETURN JUMPDEST CALLVALUE DUP1 ISZERO PUSH2 0x604 JUMPI PUSH1 0x0 DUP1 REVERT JUMPDEST POP PUSH2 0x60D PUSH2 0x151F JUMP JUMPDEST PUSH1 0x40 MLOAD PUSH2 0x61A SWAP2 SWAP1 PUSH2 0x21D4 JUMP JUMPDEST PUSH1 0x40 MLOAD DUP1 SWAP2 SUB SWAP1 RETURN JUMPDEST CALLVALUE DUP1 ISZERO PUSH2 0x62F JUMPI PUSH1 0x0 DUP1 REVERT JUMPDEST POP PUSH2 0x638 PUSH2 0x1525 JUMP JUMPDEST PUSH1 0x40 MLOAD PUSH2 0x645 SWAP2 SWAP1 PUSH2 0x21D4 JUMP JUMPDEST PUSH1 0x40 MLOAD DUP1 SWAP2 SUB SWAP1 RETURN JUMPDEST CALLVALUE DUP1 ISZERO PUSH2 0x65A JUMPI PUSH1 0x0 DUP1 REVERT JUMPDEST POP PUSH2 0x675 PUSH1 0x4 DUP1 CALLDATASIZE SUB DUP2 ADD SWAP1 PUSH2 0x670 SWAP2 SWAP1 PUSH2 0x1CC2 JUMP JUMPDEST PUSH2 0x152B JUMP JUMPDEST STOP JUMPDEST CALLVALUE DUP1 ISZERO PUSH2 0x683 JUMPI PUSH1 0x0 DUP1 REVERT JUMPDEST POP PUSH2 0x69E PUSH1 0x4 DUP1 CALLDATASIZE SUB DUP2 ADD SWAP1 PUSH2 0x699 SWAP2 SWAP1 PUSH2 0x1BEF JUMP JUMPDEST PUSH2 0x15C5 JUMP JUMPDEST PUSH1 0x40 MLOAD PUSH2 0x6AB SWAP2 SWAP1 PUSH2 0x21D4 JUMP JUMPDEST PUSH1 0x40 MLOAD DUP1 SWAP2 SUB SWAP1 RETURN JUMPDEST PUSH2 0x6BC PUSH2 0x753 JUMP JUMPDEST PUSH1 0x40 MLOAD PUSH2 0x6C9 SWAP2 SWAP1 PUSH2 0x203C JUMP JUMPDEST PUSH1 0x40 MLOAD DUP1 SWAP2 SUB SWAP1 RETURN JUMPDEST CALLVALUE DUP1 ISZERO PUSH2 0x6DE JUMPI PUSH1 0x0 DUP1 REVERT JUMPDEST POP PUSH2 0x6E7 PUSH2 0x164C JUMP JUMPDEST PUSH1 0x40 MLOAD PUSH2 0x6F4 SWAP2 SWAP1 PUSH2 0x21D4 JUMP JUMPDEST PUSH1 0x40 MLOAD DUP1 SWAP2 SUB SWAP1 RETURN JUMPDEST CALLVALUE DUP1 ISZERO PUSH2 0x709 JUMPI PUSH1 0x0 DUP1 REVERT JUMPDEST POP PUSH2 0x712 PUSH2 0x1656 JUMP JUMPDEST PUSH1 0x40 MLOAD PUSH2 0x71F SWAP2 SWAP1 PUSH2 0x1FCF JUMP JUMPDEST PUSH1 0x40 MLOAD DUP1 SWAP2 SUB SWAP1 RETURN JUMPDEST CALLVALUE DUP1 ISZERO PUSH2 0x734 JUMPI PUSH1 0x0 DUP1 REVERT JUMPDEST POP PUSH2 0x73D PUSH2 0x167C JUMP JUMPDEST PUSH1 0x40 MLOAD PUSH2 0x74A SWAP2 SWAP1 PUSH2 0x21D4 JUMP JUMPDEST PUSH1 0x40 MLOAD DUP1 SWAP2 SUB SWAP1 RETURN JUMPDEST PUSH1 0x0 PUSH2 0x75D PUSH2 0x101C JUMP JUMPDEST PUSH1 0xF PUSH1 0x0 PUSH2 0x100 EXP DUP2 SLOAD DUP2 PUSH1 0xFF MUL NOT AND SWAP1 DUP4 PUSH1 0x4 DUP2 GT ISZERO PUSH2 0x781 JUMPI PUSH2 0x780 PUSH2 0x241D JUMP JUMPDEST JUMPDEST MUL OR SWAP1 SSTORE POP PUSH1 0x1 PUSH1 0x4 DUP2 GT ISZERO PUSH2 0x79A JUMPI PUSH2 0x799 PUSH2 0x241D JUMP JUMPDEST JUMPDEST PUSH1 0xF PUSH1 0x0 SWAP1 SLOAD SWAP1 PUSH2 0x100 EXP SWAP1 DIV PUSH1 0xFF AND PUSH1 0x4 DUP2 GT ISZERO PUSH2 0x7BC JUMPI PUSH2 0x7BB PUSH2 0x241D JUMP JUMPDEST JUMPDEST EQ PUSH2 0x7FC JUMPI PUSH1 0x40 MLOAD PUSH32 0x8C379A000000000000000000000000000000000000000000000000000000000 DUP2 MSTORE PUSH1 0x4 ADD PUSH2 0x7F3 SWAP1 PUSH2 0x20F4 JUMP JUMPDEST PUSH1 0x40 MLOAD DUP1 SWAP2 SUB SWAP1 REVERT JUMPDEST PUSH1 0x0 PUSH1 0xD SLOAD PUSH1 0x40 MLOAD PUSH1 0x20 ADD PUSH2 0x811 SWAP2 SWAP1 PUSH2 0x1F83 JUMP JUMPDEST PUSH1 0x40 MLOAD PUSH1 0x20 DUP2 DUP4 SUB SUB DUP2 MSTORE SWAP1 PUSH1 0x40 MSTORE SWAP1 POP PUSH1 0x0 PUSH1 0xE SLOAD PUSH1 0x40 MLOAD PUSH1 0x20 ADD PUSH2 0x837 SWAP2 SWAP1 PUSH2 0x1FA9 JUMP JUMPDEST PUSH1 0x40 MLOAD PUSH1 0x20 DUP2 DUP4 SUB SUB DUP2 MSTORE SWAP1 PUSH1 0x40 MSTORE SWAP1 POP PUSH1 0x0 DUP3 DUP3 PUSH1 0x40 MLOAD PUSH1 0x20 ADD PUSH2 0x85D SWAP3 SWAP2 SWAP1 PUSH2 0x1F5F JUMP JUMPDEST PUSH1 0x40 MLOAD PUSH1 0x20 DUP2 DUP4 SUB SUB DUP2 MSTORE SWAP1 PUSH1 0x40 MSTORE SWAP1 POP PUSH1 0xD SLOAD CALLVALUE LT ISZERO DUP1 ISZERO PUSH2 0x882 JUMPI POP PUSH1 0xE SLOAD CALLVALUE GT ISZERO JUMPDEST DUP2 SWAP1 PUSH2 0x8C4 JUMPI PUSH1 0x40 MLOAD PUSH32 0x8C379A000000000000000000000000000000000000000000000000000000000 DUP2 MSTORE PUSH1 0x4 ADD PUSH2 0x8BB SWAP2 SWAP1 PUSH2 0x2072 JUMP JUMPDEST PUSH1 0x40 MLOAD DUP1 SWAP2 SUB SWAP1 REVERT JUMPDEST POP PUSH1 0x0 CALLVALUE PUSH1 0x9 SLOAD PUSH2 0x8D5 SWAP2 SWAP1 PUSH2 0x2216 JUMP JUMPDEST SWAP1 POP PUSH1 0xA SLOAD DUP2 GT ISZERO PUSH2 0x91C JUMPI PUSH1 0x40 MLOAD PUSH32 0x8C379A000000000000000000000000000000000000000000000000000000000 DUP2 MSTORE PUSH1 0x4 ADD PUSH2 0x913 SWAP1 PUSH2 0x2174 JUMP JUMPDEST PUSH1 0x40 MLOAD DUP1 SWAP2 SUB SWAP1 REVERT JUMPDEST CALLVALUE PUSH1 0x9 PUSH1 0x0 DUP3 DUP3 SLOAD PUSH2 0x92E SWAP2 SWAP1 PUSH2 0x2216 JUMP JUMPDEST SWAP3 POP POP DUP2 SWAP1 SSTORE POP PUSH1 0x0 PUSH1 0x8 SLOAD CALLVALUE PUSH2 0x945 SWAP2 SWAP1 PUSH2 0x226C JUMP JUMPDEST SWAP1 POP DUP1 PUSH1 0x5 PUSH1 0x0 CALLER PUSH20 0xFFFFFFFFFFFFFFFFFFFFFFFFFFFFFFFFFFFFFFFF AND PUSH20 0xFFFFFFFFFFFFFFFFFFFFFFFFFFFFFFFFFFFFFFFF AND DUP2 MSTORE PUSH1 0x20 ADD SWAP1 DUP2 MSTORE PUSH1 0x20 ADD PUSH1 0x0 KECCAK256 PUSH1 0x0 DUP3 DUP3 SLOAD PUSH2 0x996 SWAP2 SWAP1 PUSH2 0x2216 JUMP JUMPDEST SWAP3 POP POP DUP2 SWAP1 SSTORE POP DUP1 PUSH1 0x5 PUSH1 0x0 PUSH1 0x3 PUSH1 0x0 SWAP1 SLOAD SWAP1 PUSH2 0x100 EXP SWAP1 DIV PUSH20 0xFFFFFFFFFFFFFFFFFFFFFFFFFFFFFFFFFFFFFFFF AND PUSH20 0xFFFFFFFFFFFFFFFFFFFFFFFFFFFFFFFFFFFFFFFF AND PUSH20 0xFFFFFFFFFFFFFFFFFFFFFFFFFFFFFFFFFFFFFFFF AND DUP2 MSTORE PUSH1 0x20 ADD SWAP1 DUP2 MSTORE PUSH1 0x20 ADD PUSH1 0x0 KECCAK256 PUSH1 0x0 DUP3 DUP3 SLOAD PUSH2 0xA0E SWAP2 SWAP1 PUSH2 0x229D JUMP JUMPDEST SWAP3 POP POP DUP2 SWAP1 SSTORE POP PUSH1 0xF PUSH1 0x1 SWAP1 SLOAD SWAP1 PUSH2 0x100 EXP SWAP1 DIV PUSH20 0xFFFFFFFFFFFFFFFFFFFFFFFFFFFFFFFFFFFFFFFF AND PUSH20 0xFFFFFFFFFFFFFFFFFFFFFFFFFFFFFFFFFFFFFFFF AND PUSH2 0x8FC CALLVALUE SWAP1 DUP2 ISZERO MUL SWAP1 PUSH1 0x40 MLOAD PUSH1 0x0 PUSH1 0x40 MLOAD DUP1 DUP4 SUB DUP2 DUP6 DUP9 DUP9 CALL SWAP4 POP POP POP POP ISZERO DUP1 ISZERO PUSH2 0xA7D JUMPI RETURNDATASIZE PUSH1 0x0 DUP1 RETURNDATACOPY RETURNDATASIZE PUSH1 0x0 REVERT JUMPDEST POP PUSH32 0x4AE4BD7655E0D350876A23CD90C4227B13DB560E34435C6A488150A9C844BF5F CALLER CALLVALUE DUP4 PUSH1 0x40 MLOAD PUSH2 0xAB1 SWAP4 SWAP3 SWAP2 SWAP1 PUSH2 0x2005 JUMP JUMPDEST PUSH1 0x40 MLOAD DUP1 SWAP2 SUB SWAP1 LOG1 PUSH1 0x1 SWAP6 POP POP POP POP POP POP SWAP1 JUMP JUMPDEST PUSH1 0x7 PUSH1 0x0 SWAP1 SLOAD SWAP1 PUSH2 0x100 EXP SWAP1 DIV PUSH20 0xFFFFFFFFFFFFFFFFFFFFFFFFFFFFFFFFFFFFFFFF AND PUSH20 0xFFFFFFFFFFFFFFFFFFFFFFFFFFFFFFFFFFFFFFFF AND CALLER PUSH20 0xFFFFFFFFFFFFFFFFFFFFFFFFFFFFFFFFFFFFFFFF AND EQ PUSH2 0xB55 JUMPI PUSH1 0x40 MLOAD PUSH32 0x8C379A000000000000000000000000000000000000000000000000000000000 DUP2 MSTORE PUSH1 0x4 ADD PUSH2 0xB4C SWAP1 PUSH2 0x2114 JUMP JUMPDEST PUSH1 0x40 MLOAD DUP1 SWAP2 SUB SWAP1 REVERT JUMPDEST PUSH1 0x1 PUSH1 0xF PUSH1 0x0 PUSH2 0x100 EXP DUP2 SLOAD DUP2 PUSH1 0xFF MUL NOT AND SWAP1 DUP4 PUSH1 0x4 DUP2 GT ISZERO PUSH2 0xB7B JUMPI PUSH2 0xB7A PUSH2 0x241D JUMP JUMPDEST JUMPDEST MUL OR SWAP1 SSTORE POP JUMP JUMPDEST PUSH1 0x0 DUP1 SLOAD PUSH2 0xB8F SWAP1 PUSH2 0x2383 JUMP JUMPDEST DUP1 PUSH1 0x1F ADD PUSH1 0x20 DUP1 SWAP2 DIV MUL PUSH1 0x20 ADD PUSH1 0x40 MLOAD SWAP1 DUP2 ADD PUSH1 0x40 MSTORE DUP1 SWAP3 SWAP2 SWAP1 DUP2 DUP2 MSTORE PUSH1 0x20 ADD DUP3 DUP1 SLOAD PUSH2 0xBBB SWAP1 PUSH2 0x2383 JUMP JUMPDEST DUP1 ISZERO PUSH2 0xC08 JUMPI DUP1 PUSH1 0x1F LT PUSH2 0xBDD JUMPI PUSH2 0x100 DUP1 DUP4 SLOAD DIV MUL DUP4 MSTORE SWAP2 PUSH1 0x20 ADD SWAP2 PUSH2 0xC08 JUMP JUMPDEST DUP3 ADD SWAP2 SWAP1 PUSH1 0x0 MSTORE PUSH1 0x20 PUSH1 0x0 KECCAK256 SWAP1 JUMPDEST DUP2 SLOAD DUP2 MSTORE SWAP1 PUSH1 0x1 ADD SWAP1 PUSH1 0x20 ADD DUP1 DUP4 GT PUSH2 0xBEB JUMPI DUP3 SWAP1 SUB PUSH1 0x1F AND DUP3 ADD SWAP2 JUMPDEST POP POP POP POP POP DUP2 JUMP JUMPDEST PUSH2 0xC18 PUSH2 0x101C JUMP JUMPDEST PUSH1 0xF PUSH1 0x0 PUSH2 0x100 EXP DUP2 SLOAD DUP2 PUSH1 0xFF MUL NOT AND SWAP1 DUP4 PUSH1 0x4 DUP2 GT ISZERO PUSH2 0xC3C JUMPI PUSH2 0xC3B PUSH2 0x241D JUMP JUMPDEST JUMPDEST MUL OR SWAP1 SSTORE POP PUSH1 0x3 PUSH1 0x4 DUP2 GT ISZERO PUSH2 0xC55 JUMPI PUSH2 0xC54 PUSH2 0x241D JUMP JUMPDEST JUMPDEST PUSH1 0xF PUSH1 0x0 SWAP1 SLOAD SWAP1 PUSH2 0x100 EXP SWAP1 DIV PUSH1 0xFF AND PUSH1 0x4 DUP2 GT ISZERO PUSH2 0xC77 JUMPI PUSH2 0xC76 PUSH2 0x241D JUMP JUMPDEST JUMPDEST EQ PUSH2 0xCB7 JUMPI PUSH1 0x40 MLOAD PUSH32 0x8C379A000000000000000000000000000000000000000000000000000000000 DUP2 MSTORE PUSH1 0x4 ADD PUSH2 0xCAE SWAP1 PUSH2 0x20B4 JUMP JUMPDEST PUSH1 0x40 MLOAD DUP1 SWAP2 SUB SWAP1 REVERT JUMPDEST PUSH1 0x0 PUSH1 0x5 PUSH1 0x0 PUSH1 0x3 PUSH1 0x0 SWAP1 SLOAD SWAP1 PUSH2 0x100 EXP SWAP1 DIV PUSH20 0xFFFFFFFFFFFFFFFFFFFFFFFFFFFFFFFFFFFFFFFF AND PUSH20 0xFFFFFFFFFFFFFFFFFFFFFFFFFFFFFFFFFFFFFFFF AND PUSH20 0xFFFFFFFFFFFFFFFFFFFFFFFFFFFFFFFFFFFFFFFF AND DUP2 MSTORE PUSH1 0x20 ADD SWAP1 DUP2 MSTORE PUSH1 0x20 ADD PUSH1 0x0 KECCAK256 SLOAD GT PUSH2 0xD5B JUMPI PUSH1 0x40 MLOAD PUSH32 0x8C379A000000000000000000000000000000000000000000000000000000000 DUP2 MSTORE PUSH1 0x4 ADD PUSH2 0xD52 SWAP1 PUSH2 0x2154 JUMP JUMPDEST PUSH1 0x40 MLOAD DUP1 SWAP2 SUB SWAP1 REVERT JUMPDEST PUSH1 0x0 PUSH1 0x5 PUSH1 0x0 PUSH1 0x3 PUSH1 0x0 SWAP1 SLOAD SWAP1 PUSH2 0x100 EXP SWAP1 DIV PUSH20 0xFFFFFFFFFFFFFFFFFFFFFFFFFFFFFFFFFFFFFFFF AND PUSH20 0xFFFFFFFFFFFFFFFFFFFFFFFFFFFFFFFFFFFFFFFF AND PUSH20 0xFFFFFFFFFFFFFFFFFFFFFFFFFFFFFFFFFFFFFFFF AND DUP2 MSTORE PUSH1 0x20 ADD SWAP1 DUP2 MSTORE PUSH1 0x20 ADD PUSH1 0x0 KECCAK256 DUP2 SWAP1 SSTORE POP JUMP JUMPDEST PUSH1 0x0 DUP2 PUSH1 0x5 PUSH1 0x0 CALLER PUSH20 0xFFFFFFFFFFFFFFFFFFFFFFFFFFFFFFFFFFFFFFFF AND PUSH20 0xFFFFFFFFFFFFFFFFFFFFFFFFFFFFFFFFFFFFFFFF AND DUP2 MSTORE PUSH1 0x20 ADD SWAP1 DUP2 MSTORE PUSH1 0x20 ADD PUSH1 0x0 KECCAK256 SLOAD LT ISZERO PUSH2 0xE48 JUMPI PUSH1 0x40 MLOAD PUSH32 0x8C379A000000000000000000000000000000000000000000000000000000000 DUP2 MSTORE PUSH1 0x4 ADD PUSH2 0xE3F SWAP1 PUSH2 0x2134 JUMP JUMPDEST PUSH1 0x40 MLOAD DUP1 SWAP2 SUB SWAP1 REVERT JUMPDEST PUSH1 0x0 DUP3 GT PUSH2 0xE8B JUMPI PUSH1 0x40 MLOAD PUSH32 0x8C379A000000000000000000000000000000000000000000000000000000000 DUP2 MSTORE PUSH1 0x4 ADD PUSH2 0xE82 SWAP1 PUSH2 0x20D4 JUMP JUMPDEST PUSH1 0x40 MLOAD DUP1 SWAP2 SUB SWAP1 REVERT JUMPDEST DUP2 PUSH1 0x6 PUSH1 0x0 CALLER PUSH20 0xFFFFFFFFFFFFFFFFFFFFFFFFFFFFFFFFFFFFFFFF AND PUSH20 0xFFFFFFFFFFFFFFFFFFFFFFFFFFFFFFFFFFFFFFFF AND DUP2 MSTORE PUSH1 0x20 ADD SWAP1 DUP2 MSTORE PUSH1 0x20 ADD PUSH1 0x0 KECCAK256 PUSH1 0x0 DUP6 PUSH20 0xFFFFFFFFFFFFFFFFFFFFFFFFFFFFFFFFFFFFFFFF AND PUSH20 0xFFFFFFFFFFFFFFFFFFFFFFFFFFFFFFFFFFFFFFFF AND DUP2 MSTORE PUSH1 0x20 ADD SWAP1 DUP2 MSTORE PUSH1 0x20 ADD PUSH1 0x0 KECCAK256 DUP2 SWAP1 SSTORE POP DUP3 PUSH20 0xFFFFFFFFFFFFFFFFFFFFFFFFFFFFFFFFFFFFFFFF AND CALLER PUSH20 0xFFFFFFFFFFFFFFFFFFFFFFFFFFFFFFFFFFFFFFFF AND PUSH32 0x8C5BE1E5EBEC7D5BD14F71427D1E84F3DD0314C0F7B2291E5B200AC8C7C3B925 DUP5 PUSH1 0x40 MLOAD PUSH2 0xF69 SWAP2 SWAP1 PUSH2 0x21D4 JUMP JUMPDEST PUSH1 0x40 MLOAD DUP1 SWAP2 SUB SWAP1 LOG3 PUSH1 0x1 SWAP1 POP SWAP3 SWAP2 POP POP JUMP JUMPDEST PUSH1 0x4 SLOAD DUP2 JUMP JUMPDEST PUSH1 0x0 PUSH1 0xC SLOAD TIMESTAMP GT PUSH2 0xFC7 JUMPI PUSH1 0x40 MLOAD PUSH32 0x8C379A000000000000000000000000000000000000000000000000000000000 DUP2 MSTORE PUSH1 0x4 ADD PUSH2 0xFBE SWAP1 PUSH2 0x20B4 JUMP JUMPDEST PUSH1 0x40 MLOAD DUP1 SWAP2 SUB SWAP1 REVERT JUMPDEST PUSH2 0xFD2 DUP5 DUP5 DUP5 PUSH2 0x1682 JUMP JUMPDEST POP PUSH1 0x1 SWAP1 POP SWAP4 SWAP3 POP POP POP JUMP JUMPDEST PUSH1 0x5 PUSH1 0x20 MSTORE DUP1 PUSH1 0x0 MSTORE PUSH1 0x40 PUSH1 0x0 KECCAK256 PUSH1 0x0 SWAP2 POP SWAP1 POP SLOAD DUP2 JUMP JUMPDEST PUSH1 0xF PUSH1 0x1 SWAP1 SLOAD SWAP1 PUSH2 0x100 EXP SWAP1 DIV PUSH20 0xFFFFFFFFFFFFFFFFFFFFFFFFFFFFFFFFFFFFFFFF AND DUP2 JUMP JUMPDEST PUSH1 0x0 DUP1 PUSH1 0x4 DUP1 DUP2 GT ISZERO PUSH2 0x1032 JUMPI PUSH2 0x1031 PUSH2 0x241D JUMP JUMPDEST JUMPDEST PUSH1 0xF PUSH1 0x0 SWAP1 SLOAD SWAP1 PUSH2 0x100 EXP SWAP1 DIV PUSH1 0xFF AND PUSH1 0x4 DUP2 GT ISZERO PUSH2 0x1054 JUMPI PUSH2 0x1053 PUSH2 0x241D JUMP JUMPDEST JUMPDEST EQ ISZERO PUSH2 0x1063 JUMPI PUSH1 0x4 SWAP1 POP PUSH2 0x109E JUMP JUMPDEST PUSH1 0xB SLOAD TIMESTAMP LT ISZERO PUSH2 0x1076 JUMPI PUSH1 0x0 SWAP1 POP PUSH2 0x109D JUMP JUMPDEST PUSH1 0xB SLOAD TIMESTAMP LT ISZERO DUP1 ISZERO PUSH2 0x1089 JUMPI POP PUSH1 0xC SLOAD TIMESTAMP LT JUMPDEST ISZERO PUSH2 0x1097 JUMPI PUSH1 0x1 SWAP1 POP PUSH2 0x109C JUMP JUMPDEST PUSH1 0x3 SWAP1 POP JUMPDEST JUMPDEST JUMPDEST DUP1 SWAP2 POP POP SWAP1 JUMP JUMPDEST PUSH1 0x7 PUSH1 0x0 SWAP1 SLOAD SWAP1 PUSH2 0x100 EXP SWAP1 DIV PUSH20 0xFFFFFFFFFFFFFFFFFFFFFFFFFFFFFFFFFFFFFFFF AND PUSH20 0xFFFFFFFFFFFFFFFFFFFFFFFFFFFFFFFFFFFFFFFF AND CALLER PUSH20 0xFFFFFFFFFFFFFFFFFFFFFFFFFFFFFFFFFFFFFFFF AND EQ PUSH2 0x1135 JUMPI PUSH1 0x40 MLOAD PUSH32 0x8C379A000000000000000000000000000000000000000000000000000000000 DUP2 MSTORE PUSH1 0x4 ADD PUSH2 0x112C SWAP1 PUSH2 0x2114 JUMP JUMPDEST PUSH1 0x40 MLOAD DUP1 SWAP2 SUB SWAP1 REVERT JUMPDEST DUP1 PUSH1 0xB SLOAD PUSH2 0x1143 SWAP2 SWAP1 PUSH2 0x2216 JUMP JUMPDEST PUSH1 0xC DUP2 SWAP1 SSTORE POP POP JUMP JUMPDEST PUSH1 0x2 SLOAD DUP2 JUMP JUMPDEST PUSH1 0xC SLOAD DUP2 JUMP JUMPDEST PUSH1 0xF PUSH1 0x0 SWAP1 SLOAD SWAP1 PUSH2 0x100 EXP SWAP1 DIV PUSH1 0xFF AND DUP2 JUMP JUMPDEST PUSH1 0x3 PUSH1 0x0 SWAP1 SLOAD SWAP1 PUSH2 0x100 EXP SWAP1 DIV PUSH20 0xFFFFFFFFFFFFFFFFFFFFFFFFFFFFFFFFFFFFFFFF AND DUP2 JUMP JUMPDEST PUSH1 0x6 PUSH1 0x20 MSTORE DUP2 PUSH1 0x0 MSTORE PUSH1 0x40 PUSH1 0x0 KECCAK256 PUSH1 0x20 MSTORE DUP1 PUSH1 0x0 MSTORE PUSH1 0x40 PUSH1 0x0 KECCAK256 PUSH1 0x0 SWAP2 POP SWAP2 POP POP SLOAD DUP2 JUMP JUMPDEST PUSH1 0x7 PUSH1 0x0 SWAP1 SLOAD SWAP1 PUSH2 0x100 EXP SWAP1 DIV PUSH20 0xFFFFFFFFFFFFFFFFFFFFFFFFFFFFFFFFFFFFFFFF AND PUSH20 0xFFFFFFFFFFFFFFFFFFFFFFFFFFFFFFFFFFFFFFFF AND CALLER PUSH20 0xFFFFFFFFFFFFFFFFFFFFFFFFFFFFFFFFFFFFFFFF AND EQ PUSH2 0x1246 JUMPI PUSH1 0x40 MLOAD PUSH32 0x8C379A000000000000000000000000000000000000000000000000000000000 DUP2 MSTORE PUSH1 0x4 ADD PUSH2 0x123D SWAP1 PUSH2 0x2114 JUMP JUMPDEST PUSH1 0x40 MLOAD DUP1 SWAP2 SUB SWAP1 REVERT JUMPDEST PUSH1 0x4 PUSH1 0xF PUSH1 0x0 PUSH2 0x100 EXP DUP2 SLOAD DUP2 PUSH1 0xFF MUL NOT AND SWAP1 DUP4 PUSH1 0x4 DUP2 GT ISZERO PUSH2 0x126C JUMPI PUSH2 0x126B PUSH2 0x241D JUMP JUMPDEST JUMPDEST MUL OR SWAP1 SSTORE POP JUMP JUMPDEST PUSH1 0x7 PUSH1 0x0 SWAP1 SLOAD SWAP1 PUSH2 0x100 EXP SWAP1 DIV PUSH20 0xFFFFFFFFFFFFFFFFFFFFFFFFFFFFFFFFFFFFFFFF AND PUSH20 0xFFFFFFFFFFFFFFFFFFFFFFFFFFFFFFFFFFFFFFFF AND CALLER PUSH20 0xFFFFFFFFFFFFFFFFFFFFFFFFFFFFFFFFFFFFFFFF AND EQ PUSH2 0x1303 JUMPI PUSH1 0x40 MLOAD PUSH32 0x8C379A000000000000000000000000000000000000000000000000000000000 DUP2 MSTORE PUSH1 0x4 ADD PUSH2 0x12FA SWAP1 PUSH2 0x2114 JUMP JUMPDEST PUSH1 0x40 MLOAD DUP1 SWAP2 SUB SWAP1 REVERT JUMPDEST DUP1 PUSH1 0xF PUSH1 0x1 PUSH2 0x100 EXP DUP2 SLOAD DUP2 PUSH20 0xFFFFFFFFFFFFFFFFFFFFFFFFFFFFFFFFFFFFFFFF MUL NOT AND SWAP1 DUP4 PUSH20 0xFFFFFFFFFFFFFFFFFFFFFFFFFFFFFFFFFFFFFFFF AND MUL OR SWAP1 SSTORE POP POP JUMP JUMPDEST PUSH1 0x0 PUSH1 0x5 PUSH1 0x0 DUP4 PUSH20 0xFFFFFFFFFFFFFFFFFFFFFFFFFFFFFFFFFFFFFFFF AND PUSH20 0xFFFFFFFFFFFFFFFFFFFFFFFFFFFFFFFFFFFFFFFF AND DUP2 MSTORE PUSH1 0x20 ADD SWAP1 DUP2 MSTORE PUSH1 0x20 ADD PUSH1 0x0 KECCAK256 SLOAD SWAP1 POP SWAP2 SWAP1 POP JUMP JUMPDEST PUSH1 0x7 PUSH1 0x0 SWAP1 SLOAD SWAP1 PUSH2 0x100 EXP SWAP1 DIV PUSH20 0xFFFFFFFFFFFFFFFFFFFFFFFFFFFFFFFFFFFFFFFF AND PUSH20 0xFFFFFFFFFFFFFFFFFFFFFFFFFFFFFFFFFFFFFFFF AND CALLER PUSH20 0xFFFFFFFFFFFFFFFFFFFFFFFFFFFFFFFFFFFFFFFF AND EQ PUSH2 0x1420 JUMPI PUSH1 0x40 MLOAD PUSH32 0x8C379A000000000000000000000000000000000000000000000000000000000 DUP2 MSTORE PUSH1 0x4 ADD PUSH2 0x1417 SWAP1 PUSH2 0x2114 JUMP JUMPDEST PUSH1 0x40 MLOAD DUP1 SWAP2 SUB SWAP1 REVERT JUMPDEST DUP1 PUSH1 0xE DUP2 SWAP1 SSTORE POP POP JUMP JUMPDEST PUSH1 0xB SLOAD DUP2 JUMP JUMPDEST PUSH1 0x1 DUP1 SLOAD PUSH2 0x143D SWAP1 PUSH2 0x2383 JUMP JUMPDEST DUP1 PUSH1 0x1F ADD PUSH1 0x20 DUP1 SWAP2 DIV MUL PUSH1 0x20 ADD PUSH1 0x40 MLOAD SWAP1 DUP2 ADD PUSH1 0x40 MSTORE DUP1 SWAP3 SWAP2 SWAP1 DUP2 DUP2 MSTORE PUSH1 0x20 ADD DUP3 DUP1 SLOAD PUSH2 0x1469 SWAP1 PUSH2 0x2383 JUMP JUMPDEST DUP1 ISZERO PUSH2 0x14B6 JUMPI DUP1 PUSH1 0x1F LT PUSH2 0x148B JUMPI PUSH2 0x100 DUP1 DUP4 SLOAD DIV MUL DUP4 MSTORE SWAP2 PUSH1 0x20 ADD SWAP2 PUSH2 0x14B6 JUMP JUMPDEST DUP3 ADD SWAP2 SWAP1 PUSH1 0x0 MSTORE PUSH1 0x20 PUSH1 0x0 KECCAK256 SWAP1 JUMPDEST DUP2 SLOAD DUP2 MSTORE SWAP1 PUSH1 0x1 ADD SWAP1 PUSH1 0x20 ADD DUP1 DUP4 GT PUSH2 0x1499 JUMPI DUP3 SWAP1 SUB PUSH1 0x1F AND DUP3 ADD SWAP2 JUMPDEST POP POP POP POP POP DUP2 JUMP JUMPDEST PUSH1 0x0 PUSH1 0xC SLOAD TIMESTAMP GT PUSH2 0x1504 JUMPI PUSH1 0x40 MLOAD PUSH32 0x8C379A000000000000000000000000000000000000000000000000000000000 DUP2 MSTORE PUSH1 0x4 ADD PUSH2 0x14FB SWAP1 PUSH2 0x20B4 JUMP JUMPDEST PUSH1 0x40 MLOAD DUP1 SWAP2 SUB SWAP1 REVERT JUMPDEST PUSH2 0x150E DUP4 DUP4 PUSH2 0x19B7 JUMP JUMPDEST POP PUSH1 0x1 SWAP1 POP SWAP3 SWAP2 POP POP JUMP JUMPDEST PUSH1 0xE SLOAD DUP2 JUMP JUMPDEST PUSH1 0xD SLOAD DUP2 JUMP JUMPDEST PUSH1 0x9 SLOAD DUP2 JUMP JUMPDEST PUSH1 0x7 PUSH1 0x0 SWAP1 SLOAD SWAP1 PUSH2 0x100 EXP SWAP1 DIV PUSH20 0xFFFFFFFFFFFFFFFFFFFFFFFFFFFFFFFFFFFFFFFF AND PUSH20 0xFFFFFFFFFFFFFFFFFFFFFFFFFFFFFFFFFFFFFFFF AND CALLER PUSH20 0xFFFFFFFFFFFFFFFFFFFFFFFFFFFFFFFFFFFFFFFF AND EQ PUSH2 0x15BB JUMPI PUSH1 0x40 MLOAD PUSH32 0x8C379A000000000000000000000000000000000000000000000000000000000 DUP2 MSTORE PUSH1 0x4 ADD PUSH2 0x15B2 SWAP1 PUSH2 0x2114 JUMP JUMPDEST PUSH1 0x40 MLOAD DUP1 SWAP2 SUB SWAP1 REVERT JUMPDEST DUP1 PUSH1 0xD DUP2 SWAP1 SSTORE POP POP JUMP JUMPDEST PUSH1 0x0 PUSH1 0x6 PUSH1 0x0 DUP5 PUSH20 0xFFFFFFFFFFFFFFFFFFFFFFFFFFFFFFFFFFFFFFFF AND PUSH20 0xFFFFFFFFFFFFFFFFFFFFFFFFFFFFFFFFFFFFFFFF AND DUP2 MSTORE PUSH1 0x20 ADD SWAP1 DUP2 MSTORE PUSH1 0x20 ADD PUSH1 0x0 KECCAK256 PUSH1 0x0 DUP4 PUSH20 0xFFFFFFFFFFFFFFFFFFFFFFFFFFFFFFFFFFFFFFFF AND PUSH20 0xFFFFFFFFFFFFFFFFFFFFFFFFFFFFFFFFFFFFFFFF AND DUP2 MSTORE PUSH1 0x20 ADD SWAP1 DUP2 MSTORE PUSH1 0x20 ADD PUSH1 0x0 KECCAK256 SLOAD SWAP1 POP SWAP3 SWAP2 POP POP JUMP JUMPDEST PUSH1 0x0 PUSH1 0x9 SLOAD SWAP1 POP SWAP1 JUMP JUMPDEST PUSH1 0x7 PUSH1 0x0 SWAP1 SLOAD SWAP1 PUSH2 0x100 EXP SWAP1 DIV PUSH20 0xFFFFFFFFFFFFFFFFFFFFFFFFFFFFFFFFFFFFFFFF AND DUP2 JUMP JUMPDEST PUSH1 0xA SLOAD DUP2 JUMP JUMPDEST PUSH1 0x0 DUP2 PUSH1 0x6 PUSH1 0x0 DUP7 PUSH20 0xFFFFFFFFFFFFFFFFFFFFFFFFFFFFFFFFFFFFFFFF AND PUSH20 0xFFFFFFFFFFFFFFFFFFFFFFFFFFFFFFFFFFFFFFFF AND DUP2 MSTORE PUSH1 0x20 ADD SWAP1 DUP2 MSTORE PUSH1 0x20 ADD PUSH1 0x0 KECCAK256 PUSH1 0x0 CALLER PUSH20 0xFFFFFFFFFFFFFFFFFFFFFFFFFFFFFFFFFFFFFFFF AND PUSH20 0xFFFFFFFFFFFFFFFFFFFFFFFFFFFFFFFFFFFFFFFF AND DUP2 MSTORE PUSH1 0x20 ADD SWAP1 DUP2 MSTORE PUSH1 0x20 ADD PUSH1 0x0 KECCAK256 SLOAD LT ISZERO PUSH2 0x1743 JUMPI PUSH1 0x40 MLOAD PUSH32 0x8C379A000000000000000000000000000000000000000000000000000000000 DUP2 MSTORE PUSH1 0x4 ADD PUSH2 0x173A SWAP1 PUSH2 0x2094 JUMP JUMPDEST PUSH1 0x40 MLOAD DUP1 SWAP2 SUB SWAP1 REVERT JUMPDEST DUP2 PUSH1 0x5 PUSH1 0x0 DUP7 PUSH20 0xFFFFFFFFFFFFFFFFFFFFFFFFFFFFFFFFFFFFFFFF AND PUSH20 0xFFFFFFFFFFFFFFFFFFFFFFFFFFFFFFFFFFFFFFFF AND DUP2 MSTORE PUSH1 0x20 ADD SWAP1 DUP2 MSTORE PUSH1 0x20 ADD PUSH1 0x0 KECCAK256 SLOAD LT ISZERO PUSH2 0x17C5 JUMPI PUSH1 0x40 MLOAD PUSH32 0x8C379A000000000000000000000000000000000000000000000000000000000 DUP2 MSTORE PUSH1 0x4 ADD PUSH2 0x17BC SWAP1 PUSH2 0x21B4 JUMP JUMPDEST PUSH1 0x40 MLOAD DUP1 SWAP2 SUB SWAP1 REVERT JUMPDEST PUSH1 0x0 DUP3 GT PUSH2 0x1808 JUMPI PUSH1 0x40 MLOAD PUSH32 0x8C379A000000000000000000000000000000000000000000000000000000000 DUP2 MSTORE PUSH1 0x4 ADD PUSH2 0x17FF SWAP1 PUSH2 0x20D4 JUMP JUMPDEST PUSH1 0x40 MLOAD DUP1 SWAP2 SUB SWAP1 REVERT JUMPDEST DUP2 PUSH1 0x6 PUSH1 0x0 DUP7 PUSH20 0xFFFFFFFFFFFFFFFFFFFFFFFFFFFFFFFFFFFFFFFF AND PUSH20 0xFFFFFFFFFFFFFFFFFFFFFFFFFFFFFFFFFFFFFFFF AND DUP2 MSTORE PUSH1 0x20 ADD SWAP1 DUP2 MSTORE PUSH1 0x20 ADD PUSH1 0x0 KECCAK256 PUSH1 0x0 CALLER PUSH20 0xFFFFFFFFFFFFFFFFFFFFFFFFFFFFFFFFFFFFFFFF AND PUSH20 0xFFFFFFFFFFFFFFFFFFFFFFFFFFFFFFFFFFFFFFFF AND DUP2 MSTORE PUSH1 0x20 ADD SWAP1 DUP2 MSTORE PUSH1 0x20 ADD PUSH1 0x0 KECCAK256 PUSH1 0x0 DUP3 DUP3 SLOAD PUSH2 0x1894 SWAP2 SWAP1 PUSH2 0x229D JUMP JUMPDEST SWAP3 POP POP DUP2 SWAP1 SSTORE POP DUP2 PUSH1 0x5 PUSH1 0x0 DUP7 PUSH20 0xFFFFFFFFFFFFFFFFFFFFFFFFFFFFFFFFFFFFFFFF AND PUSH20 0xFFFFFFFFFFFFFFFFFFFFFFFFFFFFFFFFFFFFFFFF AND DUP2 MSTORE PUSH1 0x20 ADD SWAP1 DUP2 MSTORE PUSH1 0x20 ADD PUSH1 0x0 KECCAK256 PUSH1 0x0 DUP3 DUP3 SLOAD PUSH2 0x18EA SWAP2 SWAP1 PUSH2 0x229D JUMP JUMPDEST SWAP3 POP POP DUP2 SWAP1 SSTORE POP DUP2 PUSH1 0x5 PUSH1 0x0 DUP6 PUSH20 0xFFFFFFFFFFFFFFFFFFFFFFFFFFFFFFFFFFFFFFFF AND PUSH20 0xFFFFFFFFFFFFFFFFFFFFFFFFFFFFFFFFFFFFFFFF AND DUP2 MSTORE PUSH1 0x20 ADD SWAP1 DUP2 MSTORE PUSH1 0x20 ADD PUSH1 0x0 KECCAK256 PUSH1 0x0 DUP3 DUP3 SLOAD PUSH2 0x1940 SWAP2 SWAP1 PUSH2 0x2216 JUMP JUMPDEST SWAP3 POP POP DUP2 SWAP1 SSTORE POP DUP3 PUSH20 0xFFFFFFFFFFFFFFFFFFFFFFFFFFFFFFFFFFFFFFFF AND DUP5 PUSH20 0xFFFFFFFFFFFFFFFFFFFFFFFFFFFFFFFFFFFFFFFF AND PUSH32 0xDDF252AD1BE2C89B69C2B068FC378DAA952BA7F163C4A11628F55A4DF523B3EF DUP5 PUSH1 0x40 MLOAD PUSH2 0x19A4 SWAP2 SWAP1 PUSH2 0x21D4 JUMP JUMPDEST PUSH1 0x40 MLOAD DUP1 SWAP2 SUB SWAP1 LOG3 PUSH1 0x1 SWAP1 POP SWAP4 SWAP3 POP POP POP JUMP JUMPDEST PUSH1 0x0 DUP2 PUSH1 0x5 PUSH1 0x0 CALLER PUSH20 0xFFFFFFFFFFFFFFFFFFFFFFFFFFFFFFFFFFFFFFFF AND PUSH20 0xFFFFFFFFFFFFFFFFFFFFFFFFFFFFFFFFFFFFFFFF AND DUP2 MSTORE PUSH1 0x20 ADD SWAP1 DUP2 MSTORE PUSH1 0x20 ADD PUSH1 0x0 KECCAK256 SLOAD LT ISZERO PUSH2 0x1A3B JUMPI PUSH1 0x40 MLOAD PUSH32 0x8C379A000000000000000000000000000000000000000000000000000000000 DUP2 MSTORE PUSH1 0x4 ADD PUSH2 0x1A32 SWAP1 PUSH2 0x2194 JUMP JUMPDEST PUSH1 0x40 MLOAD DUP1 SWAP2 SUB SWAP1 REVERT JUMPDEST DUP2 PUSH1 0x5 PUSH1 0x0 DUP6 PUSH20 0xFFFFFFFFFFFFFFFFFFFFFFFFFFFFFFFFFFFFFFFF AND PUSH20 0xFFFFFFFFFFFFFFFFFFFFFFFFFFFFFFFFFFFFFFFF AND DUP2 MSTORE PUSH1 0x20 ADD SWAP1 DUP2 MSTORE PUSH1 0x20 ADD PUSH1 0x0 KECCAK256 PUSH1 0x0 DUP3 DUP3 SLOAD PUSH2 0x1A8A SWAP2 SWAP1 PUSH2 0x2216 JUMP JUMPDEST SWAP3 POP POP DUP2 SWAP1 SSTORE POP DUP2 PUSH1 0x5 PUSH1 0x0 CALLER PUSH20 0xFFFFFFFFFFFFFFFFFFFFFFFFFFFFFFFFFFFFFFFF AND PUSH20 0xFFFFFFFFFFFFFFFFFFFFFFFFFFFFFFFFFFFFFFFF AND DUP2 MSTORE PUSH1 0x20 ADD SWAP1 DUP2 MSTORE PUSH1 0x20 ADD PUSH1 0x0 KECCAK256 PUSH1 0x0 DUP3 DUP3 SLOAD PUSH2 0x1AE0 SWAP2 SWAP1 PUSH2 0x229D JUMP JUMPDEST SWAP3 POP POP DUP2 SWAP1 SSTORE POP DUP3 PUSH20 0xFFFFFFFFFFFFFFFFFFFFFFFFFFFFFFFFFFFFFFFF AND CALLER PUSH20 0xFFFFFFFFFFFFFFFFFFFFFFFFFFFFFFFFFFFFFFFF AND PUSH32 0xDDF252AD1BE2C89B69C2B068FC378DAA952BA7F163C4A11628F55A4DF523B3EF DUP5 PUSH1 0x40 MLOAD PUSH2 0x1B44 SWAP2 SWAP1 PUSH2 0x21D4 JUMP JUMPDEST PUSH1 0x40 MLOAD DUP1 SWAP2 SUB SWAP1 LOG3 PUSH1 0x1 SWAP1 POP SWAP3 SWAP2 POP POP JUMP JUMPDEST PUSH1 0x0 DUP2 CALLDATALOAD SWAP1 POP PUSH2 0x1B65 DUP2 PUSH2 0x2775 JUMP JUMPDEST SWAP3 SWAP2 POP POP JUMP JUMPDEST PUSH1 0x0 DUP2 CALLDATALOAD SWAP1 POP PUSH2 0x1B7A DUP2 PUSH2 0x278C JUMP JUMPDEST SWAP3 SWAP2 POP POP JUMP JUMPDEST PUSH1 0x0 DUP2 CALLDATALOAD SWAP1 POP PUSH2 0x1B8F DUP2 PUSH2 0x27A3 JUMP JUMPDEST SWAP3 SWAP2 POP POP JUMP JUMPDEST PUSH1 0x0 PUSH1 0x20 DUP3 DUP5 SUB SLT ISZERO PUSH2 0x1BAB JUMPI PUSH2 0x1BAA PUSH2 0x247B JUMP JUMPDEST JUMPDEST PUSH1 0x0 PUSH2 0x1BB9 DUP5 DUP3 DUP6 ADD PUSH2 0x1B56 JUMP JUMPDEST SWAP2 POP POP SWAP3 SWAP2 POP POP JUMP JUMPDEST PUSH1 0x0 PUSH1 0x20 DUP3 DUP5 SUB SLT ISZERO PUSH2 0x1BD8 JUMPI PUSH2 0x1BD7 PUSH2 0x247B JUMP JUMPDEST JUMPDEST PUSH1 0x0 PUSH2 0x1BE6 DUP5 DUP3 DUP6 ADD PUSH2 0x1B6B JUMP JUMPDEST SWAP2 POP POP SWAP3 SWAP2 POP POP JUMP JUMPDEST PUSH1 0x0 DUP1 PUSH1 0x40 DUP4 DUP6 SUB SLT ISZERO PUSH2 0x1C06 JUMPI PUSH2 0x1C05 PUSH2 0x247B JUMP JUMPDEST JUMPDEST PUSH1 0x0 PUSH2 0x1C14 DUP6 DUP3 DUP7 ADD PUSH2 0x1B56 JUMP JUMPDEST SWAP3 POP POP PUSH1 0x20 PUSH2 0x1C25 DUP6 DUP3 DUP7 ADD PUSH2 0x1B56 JUMP JUMPDEST SWAP2 POP POP SWAP3 POP SWAP3 SWAP1 POP JUMP JUMPDEST PUSH1 0x0 DUP1 PUSH1 0x0 PUSH1 0x60 DUP5 DUP7 SUB SLT ISZERO PUSH2 0x1C48 JUMPI PUSH2 0x1C47 PUSH2 0x247B JUMP JUMPDEST JUMPDEST PUSH1 0x0 PUSH2 0x1C56 DUP7 DUP3 DUP8 ADD PUSH2 0x1B56 JUMP JUMPDEST SWAP4 POP POP PUSH1 0x20 PUSH2 0x1C67 DUP7 DUP3 DUP8 ADD PUSH2 0x1B56 JUMP JUMPDEST SWAP3 POP POP PUSH1 0x40 PUSH2 0x1C78 DUP7 DUP3 DUP8 ADD PUSH2 0x1B80 JUMP JUMPDEST SWAP2 POP POP SWAP3 POP SWAP3 POP SWAP3 JUMP JUMPDEST PUSH1 0x0 DUP1 PUSH1 0x40 DUP4 DUP6 SUB SLT ISZERO PUSH2 0x1C99 JUMPI PUSH2 0x1C98 PUSH2 0x247B JUMP JUMPDEST JUMPDEST PUSH1 0x0 PUSH2 0x1CA7 DUP6 DUP3 DUP7 ADD PUSH2 0x1B56 JUMP JUMPDEST SWAP3 POP POP PUSH1 0x20 PUSH2 0x1CB8 DUP6 DUP3 DUP7 ADD PUSH2 0x1B80 JUMP JUMPDEST SWAP2 POP POP SWAP3 POP SWAP3 SWAP1 POP JUMP JUMPDEST PUSH1 0x0 PUSH1 0x20 DUP3 DUP5 SUB SLT ISZERO PUSH2 0x1CD8 JUMPI PUSH2 0x1CD7 PUSH2 0x247B JUMP JUMPDEST JUMPDEST PUSH1 0x0 PUSH2 0x1CE6 DUP5 DUP3 DUP6 ADD PUSH2 0x1B80 JUMP JUMPDEST SWAP2 POP POP SWAP3 SWAP2 POP POP JUMP JUMPDEST PUSH2 0x1CF8 DUP2 PUSH2 0x22E3 JUMP JUMPDEST DUP3 MSTORE POP POP JUMP JUMPDEST PUSH2 0x1D07 DUP2 PUSH2 0x22D1 JUMP JUMPDEST DUP3 MSTORE POP POP JUMP JUMPDEST PUSH2 0x1D16 DUP2 PUSH2 0x22F5 JUMP JUMPDEST DUP3 MSTORE POP POP JUMP JUMPDEST PUSH2 0x1D25 DUP2 PUSH2 0x233E JUMP JUMPDEST DUP3 MSTORE POP POP JUMP JUMPDEST PUSH1 0x0 PUSH2 0x1D36 DUP3 PUSH2 0x21EF JUMP JUMPDEST PUSH2 0x1D40 DUP2 DUP6 PUSH2 0x21FA JUMP JUMPDEST SWAP4 POP PUSH2 0x1D50 DUP2 DUP6 PUSH1 0x20 DUP7 ADD PUSH2 0x2350 JUMP JUMPDEST PUSH2 0x1D59 DUP2 PUSH2 0x2480 JUMP JUMPDEST DUP5 ADD SWAP2 POP POP SWAP3 SWAP2 POP POP JUMP JUMPDEST PUSH1 0x0 PUSH2 0x1D6F DUP3 PUSH2 0x21EF JUMP JUMPDEST PUSH2 0x1D79 DUP2 DUP6 PUSH2 0x220B JUMP JUMPDEST SWAP4 POP PUSH2 0x1D89 DUP2 DUP6 PUSH1 0x20 DUP7 ADD PUSH2 0x2350 JUMP JUMPDEST DUP1 DUP5 ADD SWAP2 POP POP SWAP3 SWAP2 POP POP JUMP JUMPDEST PUSH1 0x0 PUSH2 0x1DA2 PUSH1 0x30 DUP4 PUSH2 0x21FA JUMP JUMPDEST SWAP2 POP PUSH2 0x1DAD DUP3 PUSH2 0x2491 JUMP JUMPDEST PUSH1 0x40 DUP3 ADD SWAP1 POP SWAP2 SWAP1 POP JUMP JUMPDEST PUSH1 0x0 PUSH2 0x1DC5 PUSH1 0x1F DUP4 PUSH2 0x21FA JUMP JUMPDEST SWAP2 POP PUSH2 0x1DD0 DUP3 PUSH2 0x24E0 JUMP JUMPDEST PUSH1 0x20 DUP3 ADD SWAP1 POP SWAP2 SWAP1 POP JUMP JUMPDEST PUSH1 0x0 PUSH2 0x1DE8 PUSH1 0x22 DUP4 PUSH2 0x21FA JUMP JUMPDEST SWAP2 POP PUSH2 0x1DF3 DUP3 PUSH2 0x2509 JUMP JUMPDEST PUSH1 0x40 DUP3 ADD SWAP1 POP SWAP2 SWAP1 POP JUMP JUMPDEST PUSH1 0x0 PUSH2 0x1E0B PUSH1 0x20 DUP4 PUSH2 0x21FA JUMP JUMPDEST SWAP2 POP PUSH2 0x1E16 DUP3 PUSH2 0x2558 JUMP JUMPDEST PUSH1 0x20 DUP3 ADD SWAP1 POP SWAP2 SWAP1 POP JUMP JUMPDEST PUSH1 0x0 PUSH2 0x1E2E PUSH1 0x1F DUP4 PUSH2 0x220B JUMP JUMPDEST SWAP2 POP PUSH2 0x1E39 DUP3 PUSH2 0x2581 JUMP JUMPDEST PUSH1 0x1F DUP3 ADD SWAP1 POP SWAP2 SWAP1 POP JUMP JUMPDEST PUSH1 0x0 PUSH2 0x1E51 PUSH1 0x22 DUP4 PUSH2 0x21FA JUMP JUMPDEST SWAP2 POP PUSH2 0x1E5C DUP3 PUSH2 0x25AA JUMP JUMPDEST PUSH1 0x40 DUP3 ADD SWAP1 POP SWAP2 SWAP1 POP JUMP JUMPDEST PUSH1 0x0 PUSH2 0x1E74 PUSH1 0x30 DUP4 PUSH2 0x21FA JUMP JUMPDEST SWAP2 POP PUSH2 0x1E7F DUP3 PUSH2 0x25F9 JUMP JUMPDEST PUSH1 0x40 DUP3 ADD SWAP1 POP SWAP2 SWAP1 POP JUMP JUMPDEST PUSH1 0x0 PUSH2 0x1E97 PUSH1 0x1E DUP4 PUSH2 0x21FA JUMP JUMPDEST SWAP2 POP PUSH2 0x1EA2 DUP3 PUSH2 0x2648 JUMP JUMPDEST PUSH1 0x20 DUP3 ADD SWAP1 POP SWAP2 SWAP1 POP JUMP JUMPDEST PUSH1 0x0 PUSH2 0x1EBA PUSH1 0x30 DUP4 PUSH2 0x21FA JUMP JUMPDEST SWAP2 POP PUSH2 0x1EC5 DUP3 PUSH2 0x2671 JUMP JUMPDEST PUSH1 0x40 DUP3 ADD SWAP1 POP SWAP2 SWAP1 POP JUMP JUMPDEST PUSH1 0x0 PUSH2 0x1EDD PUSH1 0x21 DUP4 PUSH2 0x220B JUMP JUMPDEST SWAP2 POP PUSH2 0x1EE8 DUP3 PUSH2 0x26C0 JUMP JUMPDEST PUSH1 0x21 DUP3 ADD SWAP1 POP SWAP2 SWAP1 POP JUMP JUMPDEST PUSH1 0x0 PUSH2 0x1F00 PUSH1 0x1C DUP4 PUSH2 0x21FA JUMP JUMPDEST SWAP2 POP PUSH2 0x1F0B DUP3 PUSH2 0x270F JUMP JUMPDEST PUSH1 0x20 DUP3 ADD SWAP1 POP SWAP2 SWAP1 POP JUMP JUMPDEST PUSH1 0x0 PUSH2 0x1F23 PUSH1 0x12 DUP4 PUSH2 0x21FA JUMP JUMPDEST SWAP2 POP PUSH2 0x1F2E DUP3 PUSH2 0x2738 JUMP JUMPDEST PUSH1 0x20 DUP3 ADD SWAP1 POP SWAP2 SWAP1 POP JUMP JUMPDEST PUSH2 0x1F42 DUP2 PUSH2 0x2334 JUMP JUMPDEST DUP3 MSTORE POP POP JUMP JUMPDEST PUSH2 0x1F59 PUSH2 0x1F54 DUP3 PUSH2 0x2334 JUMP JUMPDEST PUSH2 0x23B5 JUMP JUMPDEST DUP3 MSTORE POP POP JUMP JUMPDEST PUSH1 0x0 PUSH2 0x1F6B DUP3 DUP6 PUSH2 0x1D64 JUMP JUMPDEST SWAP2 POP PUSH2 0x1F77 DUP3 DUP5 PUSH2 0x1D64 JUMP JUMPDEST SWAP2 POP DUP2 SWAP1 POP SWAP4 SWAP3 POP POP POP JUMP JUMPDEST PUSH1 0x0 PUSH2 0x1F8E DUP3 PUSH2 0x1E21 JUMP JUMPDEST SWAP2 POP PUSH2 0x1F9A DUP3 DUP5 PUSH2 0x1F48 JUMP JUMPDEST PUSH1 0x20 DUP3 ADD SWAP2 POP DUP2 SWAP1 POP SWAP3 SWAP2 POP POP JUMP JUMPDEST PUSH1 0x0 PUSH2 0x1FB4 DUP3 PUSH2 0x1ED0 JUMP JUMPDEST SWAP2 POP PUSH2 0x1FC0 DUP3 DUP5 PUSH2 0x1F48 JUMP JUMPDEST PUSH1 0x20 DUP3 ADD SWAP2 POP DUP2 SWAP1 POP SWAP3 SWAP2 POP POP JUMP JUMPDEST PUSH1 0x0 PUSH1 0x20 DUP3 ADD SWAP1 POP PUSH2 0x1FE4 PUSH1 0x0 DUP4 ADD DUP5 PUSH2 0x1CFE JUMP JUMPDEST SWAP3 SWAP2 POP POP JUMP JUMPDEST PUSH1 0x0 PUSH1 0x20 DUP3 ADD SWAP1 POP PUSH2 0x1FFF PUSH1 0x0 DUP4 ADD DUP5 PUSH2 0x1CEF JUMP JUMPDEST SWAP3 SWAP2 POP POP JUMP JUMPDEST PUSH1 0x0 PUSH1 0x60 DUP3 ADD SWAP1 POP PUSH2 0x201A PUSH1 0x0 DUP4 ADD DUP7 PUSH2 0x1CFE JUMP JUMPDEST PUSH2 0x2027 PUSH1 0x20 DUP4 ADD DUP6 PUSH2 0x1F39 JUMP JUMPDEST PUSH2 0x2034 PUSH1 0x40 DUP4 ADD DUP5 PUSH2 0x1F39 JUMP JUMPDEST SWAP5 SWAP4 POP POP POP POP JUMP JUMPDEST PUSH1 0x0 PUSH1 0x20 DUP3 ADD SWAP1 POP PUSH2 0x2051 PUSH1 0x0 DUP4 ADD DUP5 PUSH2 0x1D0D JUMP JUMPDEST SWAP3 SWAP2 POP POP JUMP JUMPDEST PUSH1 0x0 PUSH1 0x20 DUP3 ADD SWAP1 POP PUSH2 0x206C PUSH1 0x0 DUP4 ADD DUP5 PUSH2 0x1D1C JUMP JUMPDEST SWAP3 SWAP2 POP POP JUMP JUMPDEST PUSH1 0x0 PUSH1 0x20 DUP3 ADD SWAP1 POP DUP2 DUP2 SUB PUSH1 0x0 DUP4 ADD MSTORE PUSH2 0x208C DUP2 DUP5 PUSH2 0x1D2B JUMP JUMPDEST SWAP1 POP SWAP3 SWAP2 POP POP JUMP JUMPDEST PUSH1 0x0 PUSH1 0x20 DUP3 ADD SWAP1 POP DUP2 DUP2 SUB PUSH1 0x0 DUP4 ADD MSTORE PUSH2 0x20AD DUP2 PUSH2 0x1D95 JUMP JUMPDEST SWAP1 POP SWAP2 SWAP1 POP JUMP JUMPDEST PUSH1 0x0 PUSH1 0x20 DUP3 ADD SWAP1 POP DUP2 DUP2 SUB PUSH1 0x0 DUP4 ADD MSTORE PUSH2 0x20CD DUP2 PUSH2 0x1DB8 JUMP JUMPDEST SWAP1 POP SWAP2 SWAP1 POP JUMP JUMPDEST PUSH1 0x0 PUSH1 0x20 DUP3 ADD SWAP1 POP DUP2 DUP2 SUB PUSH1 0x0 DUP4 ADD MSTORE PUSH2 0x20ED DUP2 PUSH2 0x1DDB JUMP JUMPDEST SWAP1 POP SWAP2 SWAP1 POP JUMP JUMPDEST PUSH1 0x0 PUSH1 0x20 DUP3 ADD SWAP1 POP DUP2 DUP2 SUB PUSH1 0x0 DUP4 ADD MSTORE PUSH2 0x210D DUP2 PUSH2 0x1DFE JUMP JUMPDEST SWAP1 POP SWAP2 SWAP1 POP JUMP JUMPDEST PUSH1 0x0 PUSH1 0x20 DUP3 ADD SWAP1 POP DUP2 DUP2 SUB PUSH1 0x0 DUP4 ADD MSTORE PUSH2 0x212D DUP2 PUSH2 0x1E44 JUMP JUMPDEST SWAP1 POP SWAP2 SWAP1 POP JUMP JUMPDEST PUSH1 0x0 PUSH1 0x20 DUP3 ADD SWAP1 POP DUP2 DUP2 SUB PUSH1 0x0 DUP4 ADD MSTORE PUSH2 0x214D DUP2 PUSH2 0x1E67 JUMP JUMPDEST SWAP1 POP SWAP2 SWAP1 POP JUMP JUMPDEST PUSH1 0x0 PUSH1 0x20 DUP3 ADD SWAP1 POP DUP2 DUP2 SUB PUSH1 0x0 DUP4 ADD MSTORE PUSH2 0x216D DUP2 PUSH2 0x1E8A JUMP JUMPDEST SWAP1 POP SWAP2 SWAP1 POP JUMP JUMPDEST PUSH1 0x0 PUSH1 0x20 DUP3 ADD SWAP1 POP DUP2 DUP2 SUB PUSH1 0x0 DUP4 ADD MSTORE PUSH2 0x218D DUP2 PUSH2 0x1EAD JUMP JUMPDEST SWAP1 POP SWAP2 SWAP1 POP JUMP JUMPDEST PUSH1 0x0 PUSH1 0x20 DUP3 ADD SWAP1 POP DUP2 DUP2 SUB PUSH1 0x0 DUP4 ADD MSTORE PUSH2 0x21AD DUP2 PUSH2 0x1EF3 JUMP JUMPDEST SWAP1 POP SWAP2 SWAP1 POP JUMP JUMPDEST PUSH1 0x0 PUSH1 0x20 DUP3 ADD SWAP1 POP DUP2 DUP2 SUB PUSH1 0x0 DUP4 ADD MSTORE PUSH2 0x21CD DUP2 PUSH2 0x1F16 JUMP JUMPDEST SWAP1 POP SWAP2 SWAP1 POP JUMP JUMPDEST PUSH1 0x0 PUSH1 0x20 DUP3 ADD SWAP1 POP PUSH2 0x21E9 PUSH1 0x0 DUP4 ADD DUP5 PUSH2 0x1F39 JUMP JUMPDEST SWAP3 SWAP2 POP POP JUMP JUMPDEST PUSH1 0x0 DUP2 MLOAD SWAP1 POP SWAP2 SWAP1 POP JUMP JUMPDEST PUSH1 0x0 DUP3 DUP3 MSTORE PUSH1 0x20 DUP3 ADD SWAP1 POP SWAP3 SWAP2 POP POP JUMP JUMPDEST PUSH1 0x0 DUP2 SWAP1 POP SWAP3 SWAP2 POP POP JUMP JUMPDEST PUSH1 0x0 PUSH2 0x2221 DUP3 PUSH2 0x2334 JUMP JUMPDEST SWAP2 POP PUSH2 0x222C DUP4 PUSH2 0x2334 JUMP JUMPDEST SWAP3 POP DUP3 PUSH32 0xFFFFFFFFFFFFFFFFFFFFFFFFFFFFFFFFFFFFFFFFFFFFFFFFFFFFFFFFFFFFFFFF SUB DUP3 GT ISZERO PUSH2 0x2261 JUMPI PUSH2 0x2260 PUSH2 0x23BF JUMP JUMPDEST JUMPDEST DUP3 DUP3 ADD SWAP1 POP SWAP3 SWAP2 POP POP JUMP JUMPDEST PUSH1 0x0 PUSH2 0x2277 DUP3 PUSH2 0x2334 JUMP JUMPDEST SWAP2 POP PUSH2 0x2282 DUP4 PUSH2 0x2334 JUMP JUMPDEST SWAP3 POP DUP3 PUSH2 0x2292 JUMPI PUSH2 0x2291 PUSH2 0x23EE JUMP JUMPDEST JUMPDEST DUP3 DUP3 DIV SWAP1 POP SWAP3 SWAP2 POP POP JUMP JUMPDEST PUSH1 0x0 PUSH2 0x22A8 DUP3 PUSH2 0x2334 JUMP JUMPDEST SWAP2 POP PUSH2 0x22B3 DUP4 PUSH2 0x2334 JUMP JUMPDEST SWAP3 POP DUP3 DUP3 LT ISZERO PUSH2 0x22C6 JUMPI PUSH2 0x22C5 PUSH2 0x23BF JUMP JUMPDEST JUMPDEST DUP3 DUP3 SUB SWAP1 POP SWAP3 SWAP2 POP POP JUMP JUMPDEST PUSH1 0x0 PUSH2 0x22DC DUP3 PUSH2 0x2314 JUMP JUMPDEST SWAP1 POP SWAP2 SWAP1 POP JUMP JUMPDEST PUSH1 0x0 PUSH2 0x22EE DUP3 PUSH2 0x2314 JUMP JUMPDEST SWAP1 POP SWAP2 SWAP1 POP JUMP JUMPDEST PUSH1 0x0 DUP2 ISZERO ISZERO SWAP1 POP SWAP2 SWAP1 POP JUMP JUMPDEST PUSH1 0x0 DUP2 SWAP1 POP PUSH2 0x230F DUP3 PUSH2 0x2761 JUMP JUMPDEST SWAP2 SWAP1 POP JUMP JUMPDEST PUSH1 0x0 PUSH20 0xFFFFFFFFFFFFFFFFFFFFFFFFFFFFFFFFFFFFFFFF DUP3 AND SWAP1 POP SWAP2 SWAP1 POP JUMP JUMPDEST PUSH1 0x0 DUP2 SWAP1 POP SWAP2 SWAP1 POP JUMP JUMPDEST PUSH1 0x0 PUSH2 0x2349 DUP3 PUSH2 0x2301 JUMP JUMPDEST SWAP1 POP SWAP2 SWAP1 POP JUMP JUMPDEST PUSH1 0x0 JUMPDEST DUP4 DUP2 LT ISZERO PUSH2 0x236E JUMPI DUP1 DUP3 ADD MLOAD DUP2 DUP5 ADD MSTORE PUSH1 0x20 DUP2 ADD SWAP1 POP PUSH2 0x2353 JUMP JUMPDEST DUP4 DUP2 GT ISZERO PUSH2 0x237D JUMPI PUSH1 0x0 DUP5 DUP5 ADD MSTORE JUMPDEST POP POP POP POP JUMP JUMPDEST PUSH1 0x0 PUSH1 0x2 DUP3 DIV SWAP1 POP PUSH1 0x1 DUP3 AND DUP1 PUSH2 0x239B JUMPI PUSH1 0x7F DUP3 AND SWAP2 POP JUMPDEST PUSH1 0x20 DUP3 LT DUP2 EQ ISZERO PUSH2 0x23AF JUMPI PUSH2 0x23AE PUSH2 0x244C JUMP JUMPDEST JUMPDEST POP SWAP2 SWAP1 POP JUMP JUMPDEST PUSH1 0x0 DUP2 SWAP1 POP SWAP2 SWAP1 POP JUMP JUMPDEST PUSH32 0x4E487B7100000000000000000000000000000000000000000000000000000000 PUSH1 0x0 MSTORE PUSH1 0x11 PUSH1 0x4 MSTORE PUSH1 0x24 PUSH1 0x0 REVERT JUMPDEST PUSH32 0x4E487B7100000000000000000000000000000000000000000000000000000000 PUSH1 0x0 MSTORE PUSH1 0x12 PUSH1 0x4 MSTORE PUSH1 0x24 PUSH1 0x0 REVERT JUMPDEST PUSH32 0x4E487B7100000000000000000000000000000000000000000000000000000000 PUSH1 0x0 MSTORE PUSH1 0x21 PUSH1 0x4 MSTORE PUSH1 0x24 PUSH1 0x0 REVERT JUMPDEST PUSH32 0x4E487B7100000000000000000000000000000000000000000000000000000000 PUSH1 0x0 MSTORE PUSH1 0x22 PUSH1 0x4 MSTORE PUSH1 0x24 PUSH1 0x0 REVERT JUMPDEST PUSH1 0x0 DUP1 REVERT JUMPDEST PUSH1 0x0 PUSH1 0x1F NOT PUSH1 0x1F DUP4 ADD AND SWAP1 POP SWAP2 SWAP1 POP JUMP JUMPDEST PUSH32 0x546F6B656E2076616C75652069732067726561746572207468616E2074686520 PUSH1 0x0 DUP3 ADD MSTORE PUSH32 0x617070726F7665642062616C616E636500000000000000000000000000000000 PUSH1 0x20 DUP3 ADD MSTORE POP JUMP JUMPDEST PUSH32 0x546F6B656E2073616C6573206973206E6F74207965742066696E697368656400 PUSH1 0x0 DUP3 ADD MSTORE POP JUMP JUMPDEST PUSH32 0x546F6B656E2076616C7565206D7573742062652067726561746572207468616E PUSH1 0x0 DUP3 ADD MSTORE PUSH32 0x2030000000000000000000000000000000000000000000000000000000000000 PUSH1 0x20 DUP3 ADD MSTORE POP JUMP JUMPDEST PUSH32 0x416D6F756E74206D7573742062652067726561746572207468616E207A65726F PUSH1 0x0 DUP3 ADD MSTORE POP JUMP JUMPDEST PUSH32 0x416D6F756E742063616E6E6F74206E6F74206265206C6F776572207468616E00 PUSH1 0x0 DUP3 ADD MSTORE POP JUMP JUMPDEST PUSH32 0x4163636573732064656E6965642C20796F75206165206E6F7420616E2061646D PUSH1 0x0 DUP3 ADD MSTORE PUSH32 0x696E000000000000000000000000000000000000000000000000000000000000 PUSH1 0x20 DUP3 ADD MSTORE POP JUMP JUMPDEST PUSH32 0x546F6B656E2076616C75652069732067726561746572207468616E20796F7572 PUSH1 0x0 DUP3 ADD MSTORE PUSH32 0x2063757272656E7420686F6C64696E6700000000000000000000000000000000 PUSH1 0x20 DUP3 ADD MSTORE POP JUMP JUMPDEST PUSH32 0x4E6F20746F6B656E20617661696C61626C6520666F72206275726E696E670000 PUSH1 0x0 DUP3 ADD MSTORE POP JUMP JUMPDEST PUSH32 0x546865206D6178696D756D20616D6F756E7420746F2062652072616973656420 PUSH1 0x0 DUP3 ADD MSTORE PUSH32 0x686173206265656E207265616368656400000000000000000000000000000000 PUSH1 0x20 DUP3 ADD MSTORE POP JUMP JUMPDEST PUSH32 0x416D6F756E742063616E6E6F74206E6F74206265206869676768657220746861 PUSH1 0x0 DUP3 ADD MSTORE PUSH32 0x6E00000000000000000000000000000000000000000000000000000000000000 PUSH1 0x20 DUP3 ADD MSTORE POP JUMP JUMPDEST PUSH32 0x496E73756666696369656E74204163636F756E742042616C616E636500000000 PUSH1 0x0 DUP3 ADD MSTORE POP JUMP JUMPDEST PUSH32 0x496E737566696369656E742042616C6E63650000000000000000000000000000 PUSH1 0x0 DUP3 ADD MSTORE POP JUMP JUMPDEST PUSH1 0x5 DUP2 LT PUSH2 0x2772 JUMPI PUSH2 0x2771 PUSH2 0x241D JUMP JUMPDEST JUMPDEST POP JUMP JUMPDEST PUSH2 0x277E DUP2 PUSH2 0x22D1 JUMP JUMPDEST DUP2 EQ PUSH2 0x2789 JUMPI PUSH1 0x0 DUP1 REVERT JUMPDEST POP JUMP JUMPDEST PUSH2 0x2795 DUP2 PUSH2 0x22E3 JUMP JUMPDEST DUP2 EQ PUSH2 0x27A0 JUMPI PUSH1 0x0 DUP1 REVERT JUMPDEST POP JUMP JUMPDEST PUSH2 0x27AC DUP2 PUSH2 0x2334 JUMP JUMPDEST DUP2 EQ PUSH2 0x27B7 JUMPI PUSH1 0x0 DUP1 REVERT JUMPDEST POP JUMP INVALID LOG2 PUSH5 0x6970667358 0x22 SLT KECCAK256 0xB7 DUP13 EXTCODESIZE 0xCD DUP16 SLOAD SWAP4 0xD4 TIMESTAMP 0xE PUSH10 0xFA0C36AAB3347AE4CFCE 0xAE SAR BYTE SWAP2 SWAP8 GASPRICE JUMPDEST 0xD4 0xB1 CODECOPY 0xB9 PUSH5 0x736F6C6343 STOP ADDMOD SMOD STOP CALLER "
				},
				"gasEstimates": {
					"creation": {
						"codeDepositCost": "2044800",
						"executionCost": "infinite",
						"totalCost": "infinite"
					},
					"external": {
						"admin()": "2602",
						"allowance(address,address)": "infinite",
						"allowed(address,address)": "infinite",
						"approve(address,uint256)": "infinite",
						"balanceOf(address)": "2931",
						"balances(address)": "2926",
						"burnTokens()": "35680",
						"changeDepositAddress(address)": "27010",
						"changeEndTime(uint256)": "infinite",
						"changeMaximumAmount(uint256)": "24779",
						"changeMinimumAmount(uint256)": "24802",
						"checkIcoState()": "9123",
						"decimals()": "2541",
						"depositAddress()": "2610",
						"endTime()": "2474",
						"founder()": "2603",
						"halt()": "26647",
						"hardCap()": "2539",
						"icoState()": "2627",
						"invest()": "infinite",
						"maximumAmount()": "2540",
						"minimumAmount()": "2474",
						"name()": "infinite",
						"raisedAmount()": "2496",
						"resume()": "26648",
						"returnRaisedAmount()": "2503",
						"startTime()": "2474",
						"symbol()": "infinite",
						"totalSupply()": "2497",
						"transfer(address,uint256)": "infinite",
						"transferFrom(address,address,uint256)": "infinite"
					}
				},
				"methodIdentifiers": {
					"admin()": "f851a440",
					"allowance(address,address)": "dd62ed3e",
					"allowed(address,address)": "5c658165",
					"approve(address,uint256)": "095ea7b3",
					"balanceOf(address)": "70a08231",
					"balances(address)": "27e235e3",
					"burnTokens()": "08003f78",
					"changeDepositAddress(address)": "6d58c88f",
					"changeEndTime(uint256)": "3052b75e",
					"changeMaximumAmount(uint256)": "cf942c79",
					"changeMinimumAmount(uint256)": "77eab3e3",
					"checkIcoState()": "2942b61a",
					"decimals()": "313ce567",
					"depositAddress()": "28f833b7",
					"endTime()": "3197cbb6",
					"founder()": "4d853ee5",
					"halt()": "5ed7ca5b",
					"hardCap()": "fb86a404",
					"icoState()": "44f38756",
					"invest()": "e8b5e51f",
					"maximumAmount()": "a9bcea61",
					"minimumAmount()": "bb0c8298",
					"name()": "06fdde03",
					"raisedAmount()": "c59ee1dc",
					"resume()": "046f7da2",
					"returnRaisedAmount()": "f4807944",
					"startTime()": "78e97925",
					"symbol()": "95d89b41",
					"totalSupply()": "18160ddd",
					"transfer(address,uint256)": "a9059cbb",
					"transferFrom(address,address,uint256)": "23b872dd"
				}
			},
			"storageLayout": {
				"storage": [
					{
						"astId": 73,
						"contract": "contracts/Erc20token.sol:icoContract",
						"label": "name",
						"offset": 0,
						"slot": "0",
						"type": "t_string_storage"
					},
					{
						"astId": 76,
						"contract": "contracts/Erc20token.sol:icoContract",
						"label": "symbol",
						"offset": 0,
						"slot": "1",
						"type": "t_string_storage"
					},
					{
						"astId": 79,
						"contract": "contracts/Erc20token.sol:icoContract",
						"label": "decimals",
						"offset": 0,
						"slot": "2",
						"type": "t_uint256"
					},
					{
						"astId": 81,
						"contract": "contracts/Erc20token.sol:icoContract",
						"label": "founder",
						"offset": 0,
						"slot": "3",
						"type": "t_address"
					},
					{
						"astId": 84,
						"contract": "contracts/Erc20token.sol:icoContract",
						"label": "totalSupply",
						"offset": 0,
						"slot": "4",
						"type": "t_uint256"
					},
					{
						"astId": 88,
						"contract": "contracts/Erc20token.sol:icoContract",
						"label": "balances",
						"offset": 0,
						"slot": "5",
						"type": "t_mapping(t_address,t_uint256)"
					},
					{
						"astId": 94,
						"contract": "contracts/Erc20token.sol:icoContract",
						"label": "allowed",
						"offset": 0,
						"slot": "6",
						"type": "t_mapping(t_address,t_mapping(t_address,t_uint256))"
					},
					{
						"astId": 307,
						"contract": "contracts/Erc20token.sol:icoContract",
						"label": "admin",
						"offset": 0,
						"slot": "7",
						"type": "t_address"
					},
					{
						"astId": 310,
						"contract": "contracts/Erc20token.sol:icoContract",
						"label": "tokenPrice",
						"offset": 0,
						"slot": "8",
						"type": "t_uint256"
					},
					{
						"astId": 312,
						"contract": "contracts/Erc20token.sol:icoContract",
						"label": "raisedAmount",
						"offset": 0,
						"slot": "9",
						"type": "t_uint256"
					},
					{
						"astId": 315,
						"contract": "contracts/Erc20token.sol:icoContract",
						"label": "hardCap",
						"offset": 0,
						"slot": "10",
						"type": "t_uint256"
					},
					{
						"astId": 325,
						"contract": "contracts/Erc20token.sol:icoContract",
						"label": "startTime",
						"offset": 0,
						"slot": "11",
						"type": "t_uint256"
					},
					{
						"astId": 327,
						"contract": "contracts/Erc20token.sol:icoContract",
						"label": "endTime",
						"offset": 0,
						"slot": "12",
						"type": "t_uint256"
					},
					{
						"astId": 330,
						"contract": "contracts/Erc20token.sol:icoContract",
						"label": "minimumAmount",
						"offset": 0,
						"slot": "13",
						"type": "t_uint256"
					},
					{
						"astId": 333,
						"contract": "contracts/Erc20token.sol:icoContract",
						"label": "maximumAmount",
						"offset": 0,
						"slot": "14",
						"type": "t_uint256"
					},
					{
						"astId": 336,
						"contract": "contracts/Erc20token.sol:icoContract",
						"label": "icoState",
						"offset": 0,
						"slot": "15",
						"type": "t_enum(State)321"
					},
					{
						"astId": 338,
						"contract": "contracts/Erc20token.sol:icoContract",
						"label": "depositAddress",
						"offset": 1,
						"slot": "15",
						"type": "t_address_payable"
					}
				],
				"types": {
					"t_address": {
						"encoding": "inplace",
						"label": "address",
						"numberOfBytes": "20"
					},
					"t_address_payable": {
						"encoding": "inplace",
						"label": "address payable",
						"numberOfBytes": "20"
					},
					"t_enum(State)321": {
						"encoding": "inplace",
						"label": "enum icoContract.State",
						"numberOfBytes": "1"
					},
					"t_mapping(t_address,t_mapping(t_address,t_uint256))": {
						"encoding": "mapping",
						"key": "t_address",
						"label": "mapping(address => mapping(address => uint256))",
						"numberOfBytes": "32",
						"value": "t_mapping(t_address,t_uint256)"
					},
					"t_mapping(t_address,t_uint256)": {
						"encoding": "mapping",
						"key": "t_address",
						"label": "mapping(address => uint256)",
						"numberOfBytes": "32",
						"value": "t_uint256"
					},
					"t_string_storage": {
						"encoding": "bytes",
						"label": "string",
						"numberOfBytes": "32"
					},
					"t_uint256": {
						"encoding": "inplace",
						"label": "uint256",
						"numberOfBytes": "32"
					}
				}
			},
			"userdoc": {
				"kind": "user",
				"methods": {},
				"version": 1
			}
		}
	}
}