{
	"contracts/Erc20token.sol": {
		"icoContract": {
			"abi": [
				{
					"inputs": [
						{
							"internalType": "uint256",
							"name": "_duration",
							"type": "uint256"
						},
						{
							"internalType": "address payable",
							"name": "_depositAddress",
							"type": "address"
						}
					],
					"stateMutability": "nonpayable",
					"type": "constructor"
				},
				{
					"anonymous": false,
					"inputs": [
						{
							"indexed": true,
							"internalType": "address",
							"name": "tokenOwner",
							"type": "address"
						},
						{
							"indexed": true,
							"internalType": "address",
							"name": "spender",
							"type": "address"
						},
						{
							"indexed": false,
							"internalType": "uint256",
							"name": "tokens",
							"type": "uint256"
						}
					],
					"name": "Approval",
					"type": "event"
				},
				{
					"anonymous": false,
					"inputs": [
						{
							"indexed": true,
							"internalType": "address",
							"name": "from",
							"type": "address"
						},
						{
							"indexed": true,
							"internalType": "address",
							"name": "to",
							"type": "address"
						},
						{
							"indexed": false,
							"internalType": "uint256",
							"name": "tokens",
							"type": "uint256"
						}
					],
					"name": "Transfer",
					"type": "event"
				},
				{
					"inputs": [],
					"name": "admin",
					"outputs": [
						{
							"internalType": "address",
							"name": "",
							"type": "address"
						}
					],
					"stateMutability": "view",
					"type": "function"
				},
				{
					"inputs": [
						{
							"internalType": "address",
							"name": "tokenOwner",
							"type": "address"
						},
						{
							"internalType": "address",
							"name": "spender",
							"type": "address"
						}
					],
					"name": "allowance",
					"outputs": [
						{
							"internalType": "uint256",
							"name": "remaining",
							"type": "uint256"
						}
					],
					"stateMutability": "view",
					"type": "function"
				},
				{
					"inputs": [
						{
							"internalType": "address",
							"name": "",
							"type": "address"
						},
						{
							"internalType": "address",
							"name": "",
							"type": "address"
						}
					],
					"name": "allowed",
					"outputs": [
						{
							"internalType": "uint256",
							"name": "",
							"type": "uint256"
						}
					],
					"stateMutability": "view",
					"type": "function"
				},
				{
					"inputs": [
						{
							"internalType": "address",
							"name": "spender",
							"type": "address"
						},
						{
							"internalType": "uint256",
							"name": "tokens",
							"type": "uint256"
						}
					],
					"name": "approve",
					"outputs": [
						{
							"internalType": "bool",
							"name": "success",
							"type": "bool"
						}
					],
					"stateMutability": "nonpayable",
					"type": "function"
				},
				{
					"inputs": [
						{
							"internalType": "address",
							"name": "tokenOwner",
							"type": "address"
						}
					],
					"name": "balanceOf",
					"outputs": [
						{
							"internalType": "uint256",
							"name": "balance",
							"type": "uint256"
						}
					],
					"stateMutability": "view",
					"type": "function"
				},
				{
					"inputs": [
						{
							"internalType": "address",
							"name": "",
							"type": "address"
						}
					],
					"name": "balances",
					"outputs": [
						{
							"internalType": "uint256",
							"name": "",
							"type": "uint256"
						}
					],
					"stateMutability": "view",
					"type": "function"
				},
				{
					"inputs": [],
					"name": "decimals",
					"outputs": [
						{
							"internalType": "uint256",
							"name": "",
							"type": "uint256"
						}
					],
					"stateMutability": "view",
					"type": "function"
				},
				{
					"inputs": [],
					"name": "depositAddress",
					"outputs": [
						{
							"internalType": "address payable",
							"name": "",
							"type": "address"
						}
					],
					"stateMutability": "view",
					"type": "function"
				},
				{
					"inputs": [],
					"name": "endTime",
					"outputs": [
						{
							"internalType": "uint256",
							"name": "",
							"type": "uint256"
						}
					],
					"stateMutability": "view",
					"type": "function"
				},
				{
					"inputs": [],
					"name": "founder",
					"outputs": [
						{
							"internalType": "address",
							"name": "",
							"type": "address"
						}
					],
					"stateMutability": "view",
					"type": "function"
				},
				{
					"inputs": [],
					"name": "hardCap",
					"outputs": [
						{
							"internalType": "uint256",
							"name": "",
							"type": "uint256"
						}
					],
					"stateMutability": "view",
					"type": "function"
				},
				{
					"inputs": [],
					"name": "icoState",
					"outputs": [
						{
							"internalType": "enum icoContract.State",
							"name": "",
							"type": "uint8"
						}
					],
					"stateMutability": "view",
					"type": "function"
				},
				{
					"inputs": [],
					"name": "invest",
					"outputs": [
						{
							"internalType": "bool",
							"name": "",
							"type": "bool"
						}
					],
					"stateMutability": "payable",
					"type": "function"
				},
				{
					"inputs": [],
					"name": "maximumAmount",
					"outputs": [
						{
							"internalType": "uint256",
							"name": "",
							"type": "uint256"
						}
					],
					"stateMutability": "view",
					"type": "function"
				},
				{
					"inputs": [],
					"name": "minimumAmount",
					"outputs": [
						{
							"internalType": "uint256",
							"name": "",
							"type": "uint256"
						}
					],
					"stateMutability": "view",
					"type": "function"
				},
				{
					"inputs": [],
					"name": "name",
					"outputs": [
						{
							"internalType": "string",
							"name": "",
							"type": "string"
						}
					],
					"stateMutability": "view",
					"type": "function"
				},
				{
					"inputs": [],
					"name": "raisedAmount",
					"outputs": [
						{
							"internalType": "uint256",
							"name": "",
							"type": "uint256"
						}
					],
					"stateMutability": "view",
					"type": "function"
				},
				{
					"inputs": [],
					"name": "startTime",
					"outputs": [
						{
							"internalType": "uint256",
							"name": "",
							"type": "uint256"
						}
					],
					"stateMutability": "view",
					"type": "function"
				},
				{
					"inputs": [],
					"name": "symbol",
					"outputs": [
						{
							"internalType": "string",
							"name": "",
							"type": "string"
						}
					],
					"stateMutability": "view",
					"type": "function"
				},
				{
					"inputs": [],
					"name": "totalSupply",
					"outputs": [
						{
							"internalType": "uint256",
							"name": "",
							"type": "uint256"
						}
					],
					"stateMutability": "view",
					"type": "function"
				},
				{
					"inputs": [
						{
							"internalType": "address",
							"name": "to",
							"type": "address"
						},
						{
							"internalType": "uint256",
							"name": "tokens",
							"type": "uint256"
						}
					],
					"name": "transfer",
					"outputs": [
						{
							"internalType": "bool",
							"name": "success",
							"type": "bool"
						}
					],
					"stateMutability": "nonpayable",
					"type": "function"
				},
				{
					"inputs": [
						{
							"internalType": "address",
							"name": "from",
							"type": "address"
						},
						{
							"internalType": "address",
							"name": "to",
							"type": "address"
						},
						{
							"internalType": "uint256",
							"name": "tokens",
							"type": "uint256"
						}
					],
					"name": "transferFrom",
					"outputs": [
						{
							"internalType": "bool",
							"name": "success",
							"type": "bool"
						}
					],
					"stateMutability": "nonpayable",
					"type": "function"
				}
			],
			"devdoc": {
				"kind": "dev",
				"methods": {},
				"version": 1
			},
			"evm": {
				"assembly": "    /* \"contracts/Erc20token.sol\":3280:5351  contract icoContract is MyToken{\r... */\n  mstore(0x40, 0x80)\n    /* \"contracts/Erc20token.sol\":1033:1062  string public name = \"ZILLAX\" */\n  mload(0x40)\n  dup1\n  0x40\n  add\n  0x40\n  mstore\n  dup1\n  0x06\n  dup2\n  mstore\n  0x20\n  add\n  0x5a494c4c41580000000000000000000000000000000000000000000000000000\n  dup2\n  mstore\n  pop\n  0x00\n  swap1\n  dup1\n  mload\n  swap1\n  0x20\n  add\n  swap1\n  tag_1\n  swap3\n  swap2\n  swap1\n  tag_2\n  jump\t// in\ntag_1:\n  pop\n    /* \"contracts/Erc20token.sol\":1069:1097  string public symbol = \"ZLZ\" */\n  mload(0x40)\n  dup1\n  0x40\n  add\n  0x40\n  mstore\n  dup1\n  0x03\n  dup2\n  mstore\n  0x20\n  add\n  0x5a4c5a0000000000000000000000000000000000000000000000000000000000\n  dup2\n  mstore\n  pop\n  0x01\n  swap1\n  dup1\n  mload\n  swap1\n  0x20\n  add\n  swap1\n  tag_3\n  swap3\n  swap2\n  swap1\n  tag_2\n  jump\t// in\ntag_3:\n  pop\n    /* \"contracts/Erc20token.sol\":1127:1128  0 */\n  0x00\n    /* \"contracts/Erc20token.sol\":1104:1128  uint public decimals = 0 */\n  0x02\n  sstore\n    /* \"contracts/Erc20token.sol\":3504:3511  5 ether */\n  0x4563918244f40000\n    /* \"contracts/Erc20token.sol\":3482:3511  uint public hardCap = 5 ether */\n  0x09\n  sstore\n    /* \"contracts/Erc20token.sol\":3669:3684  block.timestamp */\n  timestamp\n    /* \"contracts/Erc20token.sol\":3645:3684  uint public startTime = block.timestamp */\n  0x0a\n  sstore\n    /* \"contracts/Erc20token.sol\":3794:3803  0.1 ether */\n  0x016345785d8a0000\n    /* \"contracts/Erc20token.sol\":3766:3803  uint public minimumAmount = 0.1 ether */\n  0x0c\n  sstore\n    /* \"contracts/Erc20token.sol\":3838:3845  1 ether */\n  0x0de0b6b3a7640000\n    /* \"contracts/Erc20token.sol\":3810:3845  uint public maximumAmount = 1 ether */\n  0x0d\n  sstore\n    /* \"contracts/Erc20token.sol\":3997:4318  constructor(uint _duration, address payable _depositAddress){\r... */\n  callvalue\n  dup1\n  iszero\n  tag_4\n  jumpi\n  0x00\n  dup1\n  revert\ntag_4:\n  pop\n  mload(0x40)\n  sub(codesize, bytecodeSize)\n  dup1\n  bytecodeSize\n  dup4\n  codecopy\n  dup2\n  dup2\n  add\n  0x40\n  mstore\n  dup2\n  add\n  swap1\n  tag_5\n  swap2\n  swap1\n  tag_6\n  jump\t// in\ntag_5:\n    /* \"contracts/Erc20token.sol\":1365:1372  1000000 */\n  0x0f4240\n    /* \"contracts/Erc20token.sol\":1351:1362  totalSupply */\n  0x04\n    /* \"contracts/Erc20token.sol\":1351:1372  totalSupply = 1000000 */\n  dup2\n  swap1\n  sstore\n  pop\n    /* \"contracts/Erc20token.sol\":1393:1403  msg.sender */\n  caller\n    /* \"contracts/Erc20token.sol\":1383:1390  founder */\n  0x03\n  0x00\n    /* \"contracts/Erc20token.sol\":1383:1403  founder = msg.sender */\n  0x0100\n  exp\n  dup2\n  sload\n  dup2\n  0xffffffffffffffffffffffffffffffffffffffff\n  mul\n  not\n  and\n  swap1\n  dup4\n  0xffffffffffffffffffffffffffffffffffffffff\n  and\n  mul\n  or\n  swap1\n  sstore\n  pop\n    /* \"contracts/Erc20token.sol\":1434:1445  totalSupply */\n  sload(0x04)\n    /* \"contracts/Erc20token.sol\":1414:1422  balances */\n  0x05\n    /* \"contracts/Erc20token.sol\":1414:1431  balances[founder] */\n  0x00\n    /* \"contracts/Erc20token.sol\":1423:1430  founder */\n  0x03\n  0x00\n  swap1\n  sload\n  swap1\n  0x0100\n  exp\n  swap1\n  div\n  0xffffffffffffffffffffffffffffffffffffffff\n  and\n    /* \"contracts/Erc20token.sol\":1414:1431  balances[founder] */\n  0xffffffffffffffffffffffffffffffffffffffff\n  and\n  0xffffffffffffffffffffffffffffffffffffffff\n  and\n  dup2\n  mstore\n  0x20\n  add\n  swap1\n  dup2\n  mstore\n  0x20\n  add\n  0x00\n  keccak256\n    /* \"contracts/Erc20token.sol\":1414:1445  balances[founder] = totalSupply */\n  dup2\n  swap1\n  sstore\n  pop\n    /* \"contracts/Erc20token.sol\":4079:4096  State.beforeStart */\n  0x00\n    /* \"contracts/Erc20token.sol\":4068:4076  icoState */\n  0x0e\n  0x00\n    /* \"contracts/Erc20token.sol\":4068:4096  icoState = State.beforeStart */\n  0x0100\n  exp\n  dup2\n  sload\n  dup2\n  0xff\n  mul\n  not\n  and\n  swap1\n  dup4\n  0x03\n  dup2\n  gt\n  iszero\n  tag_11\n  jumpi\n  tag_12\n  tag_13\n  jump\t// in\ntag_12:\ntag_11:\n  mul\n  or\n  swap1\n  sstore\n  pop\n    /* \"contracts/Erc20token.sol\":4144:4154  msg.sender */\n  caller\n    /* \"contracts/Erc20token.sol\":4136:4141  admin */\n  0x07\n  0x00\n    /* \"contracts/Erc20token.sol\":4136:4154  admin = msg.sender */\n  0x0100\n  exp\n  dup2\n  sload\n  dup2\n  0xffffffffffffffffffffffffffffffffffffffff\n  mul\n  not\n  and\n  swap1\n  dup4\n  0xffffffffffffffffffffffffffffffffffffffff\n  and\n  mul\n  or\n  swap1\n  sstore\n  pop\n    /* \"contracts/Erc20token.sol\":4219:4228  _duration */\n  dup2\n    /* \"contracts/Erc20token.sol\":4207:4216  startTime */\n  sload(0x0a)\n    /* \"contracts/Erc20token.sol\":4207:4228  startTime + _duration */\n  tag_14\n  swap2\n  swap1\n  tag_15\n  jump\t// in\ntag_14:\n    /* \"contracts/Erc20token.sol\":4197:4204  endTime */\n  0x0b\n    /* \"contracts/Erc20token.sol\":4197:4228  endTime = startTime + _duration */\n  dup2\n  swap1\n  sstore\n  pop\n    /* \"contracts/Erc20token.sol\":4293:4308  _depositAddress */\n  dup1\n    /* \"contracts/Erc20token.sol\":4276:4290  depositAddress */\n  0x0e\n  0x01\n    /* \"contracts/Erc20token.sol\":4276:4308  depositAddress = _depositAddress */\n  0x0100\n  exp\n  dup2\n  sload\n  dup2\n  0xffffffffffffffffffffffffffffffffffffffff\n  mul\n  not\n  and\n  swap1\n  dup4\n  0xffffffffffffffffffffffffffffffffffffffff\n  and\n  mul\n  or\n  swap1\n  sstore\n  pop\n    /* \"contracts/Erc20token.sol\":3997:4318  constructor(uint _duration, address payable _depositAddress){\r... */\n  pop\n  pop\n    /* \"contracts/Erc20token.sol\":3280:5351  contract icoContract is MyToken{\r... */\n  jump(tag_16)\ntag_2:\n  dup3\n  dup1\n  sload\n  tag_17\n  swap1\n  tag_18\n  jump\t// in\ntag_17:\n  swap1\n  0x00\n  mstore\n  keccak256(0x00, 0x20)\n  swap1\n  0x1f\n  add\n  0x20\n  swap1\n  div\n  dup2\n  add\n  swap3\n  dup3\n  tag_20\n  jumpi\n  0x00\n  dup6\n  sstore\n  jump(tag_19)\ntag_20:\n  dup3\n  0x1f\n  lt\n  tag_21\n  jumpi\n  dup1\n  mload\n  not(0xff)\n  and\n  dup4\n  dup1\n  add\n  or\n  dup6\n  sstore\n  jump(tag_19)\ntag_21:\n  dup3\n  dup1\n  add\n  0x01\n  add\n  dup6\n  sstore\n  dup3\n  iszero\n  tag_19\n  jumpi\n  swap2\n  dup3\n  add\ntag_22:\n  dup3\n  dup2\n  gt\n  iszero\n  tag_23\n  jumpi\n  dup3\n  mload\n  dup3\n  sstore\n  swap2\n  0x20\n  add\n  swap2\n  swap1\n  0x01\n  add\n  swap1\n  jump(tag_22)\ntag_23:\ntag_19:\n  pop\n  swap1\n  pop\n  tag_24\n  swap2\n  swap1\n  tag_25\n  jump\t// in\ntag_24:\n  pop\n  swap1\n  jump\t// out\ntag_25:\ntag_26:\n  dup1\n  dup3\n  gt\n  iszero\n  tag_27\n  jumpi\n  0x00\n  dup2\n  0x00\n  swap1\n  sstore\n  pop\n  0x01\n  add\n  jump(tag_26)\ntag_27:\n  pop\n  swap1\n  jump\t// out\n    /* \"#utility.yul\":7:166   */\ntag_29:\n    /* \"#utility.yul\":72:77   */\n  0x00\n    /* \"#utility.yul\":103:109   */\n  dup2\n    /* \"#utility.yul\":97:110   */\n  mload\n    /* \"#utility.yul\":88:110   */\n  swap1\n  pop\n    /* \"#utility.yul\":119:160   */\n  tag_31\n    /* \"#utility.yul\":154:159   */\n  dup2\n    /* \"#utility.yul\":119:160   */\n  tag_32\n  jump\t// in\ntag_31:\n    /* \"#utility.yul\":7:166   */\n  swap3\n  swap2\n  pop\n  pop\n  jump\t// out\n    /* \"#utility.yul\":172:315   */\ntag_33:\n    /* \"#utility.yul\":229:234   */\n  0x00\n    /* \"#utility.yul\":260:266   */\n  dup2\n    /* \"#utility.yul\":254:267   */\n  mload\n    /* \"#utility.yul\":245:267   */\n  swap1\n  pop\n    /* \"#utility.yul\":276:309   */\n  tag_35\n    /* \"#utility.yul\":303:308   */\n  dup2\n    /* \"#utility.yul\":276:309   */\n  tag_36\n  jump\t// in\ntag_35:\n    /* \"#utility.yul\":172:315   */\n  swap3\n  swap2\n  pop\n  pop\n  jump\t// out\n    /* \"#utility.yul\":321:844   */\ntag_6:\n    /* \"#utility.yul\":408:414   */\n  0x00\n    /* \"#utility.yul\":416:422   */\n  dup1\n    /* \"#utility.yul\":465:467   */\n  0x40\n    /* \"#utility.yul\":453:462   */\n  dup4\n    /* \"#utility.yul\":444:451   */\n  dup6\n    /* \"#utility.yul\":440:463   */\n  sub\n    /* \"#utility.yul\":436:468   */\n  slt\n    /* \"#utility.yul\":433:552   */\n  iszero\n  tag_38\n  jumpi\n    /* \"#utility.yul\":471:550   */\n  tag_39\n  tag_40\n  jump\t// in\ntag_39:\n    /* \"#utility.yul\":433:552   */\ntag_38:\n    /* \"#utility.yul\":591:592   */\n  0x00\n    /* \"#utility.yul\":616:680   */\n  tag_41\n    /* \"#utility.yul\":672:679   */\n  dup6\n    /* \"#utility.yul\":663:669   */\n  dup3\n    /* \"#utility.yul\":652:661   */\n  dup7\n    /* \"#utility.yul\":648:670   */\n  add\n    /* \"#utility.yul\":616:680   */\n  tag_33\n  jump\t// in\ntag_41:\n    /* \"#utility.yul\":606:680   */\n  swap3\n  pop\n    /* \"#utility.yul\":562:690   */\n  pop\n    /* \"#utility.yul\":729:731   */\n  0x20\n    /* \"#utility.yul\":755:827   */\n  tag_42\n    /* \"#utility.yul\":819:826   */\n  dup6\n    /* \"#utility.yul\":810:816   */\n  dup3\n    /* \"#utility.yul\":799:808   */\n  dup7\n    /* \"#utility.yul\":795:817   */\n  add\n    /* \"#utility.yul\":755:827   */\n  tag_29\n  jump\t// in\ntag_42:\n    /* \"#utility.yul\":745:827   */\n  swap2\n  pop\n    /* \"#utility.yul\":700:837   */\n  pop\n    /* \"#utility.yul\":321:844   */\n  swap3\n  pop\n  swap3\n  swap1\n  pop\n  jump\t// out\n    /* \"#utility.yul\":931:1236   */\ntag_15:\n    /* \"#utility.yul\":971:974   */\n  0x00\n    /* \"#utility.yul\":990:1010   */\n  tag_46\n    /* \"#utility.yul\":1008:1009   */\n  dup3\n    /* \"#utility.yul\":990:1010   */\n  tag_47\n  jump\t// in\ntag_46:\n    /* \"#utility.yul\":985:1010   */\n  swap2\n  pop\n    /* \"#utility.yul\":1024:1044   */\n  tag_48\n    /* \"#utility.yul\":1042:1043   */\n  dup4\n    /* \"#utility.yul\":1024:1044   */\n  tag_47\n  jump\t// in\ntag_48:\n    /* \"#utility.yul\":1019:1044   */\n  swap3\n  pop\n    /* \"#utility.yul\":1178:1179   */\n  dup3\n    /* \"#utility.yul\":1110:1176   */\n  0xffffffffffffffffffffffffffffffffffffffffffffffffffffffffffffffff\n    /* \"#utility.yul\":1106:1180   */\n  sub\n    /* \"#utility.yul\":1103:1104   */\n  dup3\n    /* \"#utility.yul\":1100:1181   */\n  gt\n    /* \"#utility.yul\":1097:1204   */\n  iszero\n  tag_49\n  jumpi\n    /* \"#utility.yul\":1184:1202   */\n  tag_50\n  tag_51\n  jump\t// in\ntag_50:\n    /* \"#utility.yul\":1097:1204   */\ntag_49:\n    /* \"#utility.yul\":1228:1229   */\n  dup3\n    /* \"#utility.yul\":1225:1226   */\n  dup3\n    /* \"#utility.yul\":1221:1230   */\n  add\n    /* \"#utility.yul\":1214:1230   */\n  swap1\n  pop\n    /* \"#utility.yul\":931:1236   */\n  swap3\n  swap2\n  pop\n  pop\n  jump\t// out\n    /* \"#utility.yul\":1242:1346   */\ntag_52:\n    /* \"#utility.yul\":1287:1294   */\n  0x00\n    /* \"#utility.yul\":1316:1340   */\n  tag_54\n    /* \"#utility.yul\":1334:1339   */\n  dup3\n    /* \"#utility.yul\":1316:1340   */\n  tag_55\n  jump\t// in\ntag_54:\n    /* \"#utility.yul\":1305:1340   */\n  swap1\n  pop\n    /* \"#utility.yul\":1242:1346   */\n  swap2\n  swap1\n  pop\n  jump\t// out\n    /* \"#utility.yul\":1352:1478   */\ntag_55:\n    /* \"#utility.yul\":1389:1396   */\n  0x00\n    /* \"#utility.yul\":1429:1471   */\n  0xffffffffffffffffffffffffffffffffffffffff\n    /* \"#utility.yul\":1422:1427   */\n  dup3\n    /* \"#utility.yul\":1418:1472   */\n  and\n    /* \"#utility.yul\":1407:1472   */\n  swap1\n  pop\n    /* \"#utility.yul\":1352:1478   */\n  swap2\n  swap1\n  pop\n  jump\t// out\n    /* \"#utility.yul\":1484:1561   */\ntag_47:\n    /* \"#utility.yul\":1521:1528   */\n  0x00\n    /* \"#utility.yul\":1550:1555   */\n  dup2\n    /* \"#utility.yul\":1539:1555   */\n  swap1\n  pop\n    /* \"#utility.yul\":1484:1561   */\n  swap2\n  swap1\n  pop\n  jump\t// out\n    /* \"#utility.yul\":1567:1887   */\ntag_18:\n    /* \"#utility.yul\":1611:1617   */\n  0x00\n    /* \"#utility.yul\":1648:1649   */\n  0x02\n    /* \"#utility.yul\":1642:1646   */\n  dup3\n    /* \"#utility.yul\":1638:1650   */\n  div\n    /* \"#utility.yul\":1628:1650   */\n  swap1\n  pop\n    /* \"#utility.yul\":1695:1696   */\n  0x01\n    /* \"#utility.yul\":1689:1693   */\n  dup3\n    /* \"#utility.yul\":1685:1697   */\n  and\n    /* \"#utility.yul\":1716:1734   */\n  dup1\n    /* \"#utility.yul\":1706:1787   */\n  tag_59\n  jumpi\n    /* \"#utility.yul\":1772:1776   */\n  0x7f\n    /* \"#utility.yul\":1764:1770   */\n  dup3\n    /* \"#utility.yul\":1760:1777   */\n  and\n    /* \"#utility.yul\":1750:1777   */\n  swap2\n  pop\n    /* \"#utility.yul\":1706:1787   */\ntag_59:\n    /* \"#utility.yul\":1834:1836   */\n  0x20\n    /* \"#utility.yul\":1826:1832   */\n  dup3\n    /* \"#utility.yul\":1823:1837   */\n  lt\n    /* \"#utility.yul\":1803:1821   */\n  dup2\n    /* \"#utility.yul\":1800:1838   */\n  eq\n    /* \"#utility.yul\":1797:1881   */\n  iszero\n  tag_60\n  jumpi\n    /* \"#utility.yul\":1853:1871   */\n  tag_61\n  tag_62\n  jump\t// in\ntag_61:\n    /* \"#utility.yul\":1797:1881   */\ntag_60:\n    /* \"#utility.yul\":1618:1887   */\n  pop\n    /* \"#utility.yul\":1567:1887   */\n  swap2\n  swap1\n  pop\n  jump\t// out\n    /* \"#utility.yul\":1893:2073   */\ntag_51:\n    /* \"#utility.yul\":1941:2018   */\n  0x4e487b7100000000000000000000000000000000000000000000000000000000\n    /* \"#utility.yul\":1938:1939   */\n  0x00\n    /* \"#utility.yul\":1931:2019   */\n  mstore\n    /* \"#utility.yul\":2038:2042   */\n  0x11\n    /* \"#utility.yul\":2035:2036   */\n  0x04\n    /* \"#utility.yul\":2028:2043   */\n  mstore\n    /* \"#utility.yul\":2062:2066   */\n  0x24\n    /* \"#utility.yul\":2059:2060   */\n  0x00\n    /* \"#utility.yul\":2052:2067   */\n  revert\n    /* \"#utility.yul\":2079:2259   */\ntag_13:\n    /* \"#utility.yul\":2127:2204   */\n  0x4e487b7100000000000000000000000000000000000000000000000000000000\n    /* \"#utility.yul\":2124:2125   */\n  0x00\n    /* \"#utility.yul\":2117:2205   */\n  mstore\n    /* \"#utility.yul\":2224:2228   */\n  0x21\n    /* \"#utility.yul\":2221:2222   */\n  0x04\n    /* \"#utility.yul\":2214:2229   */\n  mstore\n    /* \"#utility.yul\":2248:2252   */\n  0x24\n    /* \"#utility.yul\":2245:2246   */\n  0x00\n    /* \"#utility.yul\":2238:2253   */\n  revert\n    /* \"#utility.yul\":2265:2445   */\ntag_62:\n    /* \"#utility.yul\":2313:2390   */\n  0x4e487b7100000000000000000000000000000000000000000000000000000000\n    /* \"#utility.yul\":2310:2311   */\n  0x00\n    /* \"#utility.yul\":2303:2391   */\n  mstore\n    /* \"#utility.yul\":2410:2414   */\n  0x22\n    /* \"#utility.yul\":2407:2408   */\n  0x04\n    /* \"#utility.yul\":2400:2415   */\n  mstore\n    /* \"#utility.yul\":2434:2438   */\n  0x24\n    /* \"#utility.yul\":2431:2432   */\n  0x00\n    /* \"#utility.yul\":2424:2439   */\n  revert\n    /* \"#utility.yul\":2574:2691   */\ntag_40:\n    /* \"#utility.yul\":2683:2684   */\n  0x00\n    /* \"#utility.yul\":2680:2681   */\n  dup1\n    /* \"#utility.yul\":2673:2685   */\n  revert\n    /* \"#utility.yul\":2697:2835   */\ntag_32:\n    /* \"#utility.yul\":2778:2810   */\n  tag_70\n    /* \"#utility.yul\":2804:2809   */\n  dup2\n    /* \"#utility.yul\":2778:2810   */\n  tag_52\n  jump\t// in\ntag_70:\n    /* \"#utility.yul\":2771:2776   */\n  dup2\n    /* \"#utility.yul\":2768:2811   */\n  eq\n    /* \"#utility.yul\":2758:2829   */\n  tag_71\n  jumpi\n    /* \"#utility.yul\":2825:2826   */\n  0x00\n    /* \"#utility.yul\":2822:2823   */\n  dup1\n    /* \"#utility.yul\":2815:2827   */\n  revert\n    /* \"#utility.yul\":2758:2829   */\ntag_71:\n    /* \"#utility.yul\":2697:2835   */\n  pop\n  jump\t// out\n    /* \"#utility.yul\":2841:2963   */\ntag_36:\n    /* \"#utility.yul\":2914:2938   */\n  tag_73\n    /* \"#utility.yul\":2932:2937   */\n  dup2\n    /* \"#utility.yul\":2914:2938   */\n  tag_47\n  jump\t// in\ntag_73:\n    /* \"#utility.yul\":2907:2912   */\n  dup2\n    /* \"#utility.yul\":2904:2939   */\n  eq\n    /* \"#utility.yul\":2894:2957   */\n  tag_74\n  jumpi\n    /* \"#utility.yul\":2953:2954   */\n  0x00\n    /* \"#utility.yul\":2950:2951   */\n  dup1\n    /* \"#utility.yul\":2943:2955   */\n  revert\n    /* \"#utility.yul\":2894:2957   */\ntag_74:\n    /* \"#utility.yul\":2841:2963   */\n  pop\n  jump\t// out\n    /* \"contracts/Erc20token.sol\":3280:5351  contract icoContract is MyToken{\r... */\ntag_16:\n  dataSize(sub_0)\n  dup1\n  dataOffset(sub_0)\n  0x00\n  codecopy\n  0x00\n  return\nstop\n\nsub_0: assembly {\n        /* \"contracts/Erc20token.sol\":3280:5351  contract icoContract is MyToken{\r... */\n      mstore(0x40, 0x80)\n      jumpi(tag_1, lt(calldatasize, 0x04))\n      shr(0xe0, calldataload(0x00))\n      dup1\n      0x70a08231\n      gt\n      tag_24\n      jumpi\n      dup1\n      0xbb0c8298\n      gt\n      tag_25\n      jumpi\n      dup1\n      0xbb0c8298\n      eq\n      tag_18\n      jumpi\n      dup1\n      0xc59ee1dc\n      eq\n      tag_19\n      jumpi\n      dup1\n      0xdd62ed3e\n      eq\n      tag_20\n      jumpi\n      dup1\n      0xe8b5e51f\n      eq\n      tag_21\n      jumpi\n      dup1\n      0xf851a440\n      eq\n      tag_22\n      jumpi\n      dup1\n      0xfb86a404\n      eq\n      tag_23\n      jumpi\n      jump(tag_1)\n    tag_25:\n      dup1\n      0x70a08231\n      eq\n      tag_13\n      jumpi\n      dup1\n      0x78e97925\n      eq\n      tag_14\n      jumpi\n      dup1\n      0x95d89b41\n      eq\n      tag_15\n      jumpi\n      dup1\n      0xa9059cbb\n      eq\n      tag_16\n      jumpi\n      dup1\n      0xa9bcea61\n      eq\n      tag_17\n      jumpi\n      jump(tag_1)\n    tag_24:\n      dup1\n      0x28f833b7\n      gt\n      tag_26\n      jumpi\n      dup1\n      0x28f833b7\n      eq\n      tag_7\n      jumpi\n      dup1\n      0x313ce567\n      eq\n      tag_8\n      jumpi\n      dup1\n      0x3197cbb6\n      eq\n      tag_9\n      jumpi\n      dup1\n      0x44f38756\n      eq\n      tag_10\n      jumpi\n      dup1\n      0x4d853ee5\n      eq\n      tag_11\n      jumpi\n      dup1\n      0x5c658165\n      eq\n      tag_12\n      jumpi\n      jump(tag_1)\n    tag_26:\n      dup1\n      0x06fdde03\n      eq\n      tag_2\n      jumpi\n      dup1\n      0x095ea7b3\n      eq\n      tag_3\n      jumpi\n      dup1\n      0x18160ddd\n      eq\n      tag_4\n      jumpi\n      dup1\n      0x23b872dd\n      eq\n      tag_5\n      jumpi\n      dup1\n      0x27e235e3\n      eq\n      tag_6\n      jumpi\n    tag_1:\n      0x00\n      dup1\n      revert\n        /* \"contracts/Erc20token.sol\":1033:1062  string public name = \"ZILLAX\" */\n    tag_2:\n      callvalue\n      dup1\n      iszero\n      tag_27\n      jumpi\n      0x00\n      dup1\n      revert\n    tag_27:\n      pop\n      tag_28\n      tag_29\n      jump\t// in\n    tag_28:\n      mload(0x40)\n      tag_30\n      swap2\n      swap1\n      tag_31\n      jump\t// in\n    tag_30:\n      mload(0x40)\n      dup1\n      swap2\n      sub\n      swap1\n      return\n        /* \"contracts/Erc20token.sol\":2225:2627  function approve(address spender, uint tokens) public override returns (bool success){\r... */\n    tag_3:\n      callvalue\n      dup1\n      iszero\n      tag_32\n      jumpi\n      0x00\n      dup1\n      revert\n    tag_32:\n      pop\n      tag_33\n      0x04\n      dup1\n      calldatasize\n      sub\n      dup2\n      add\n      swap1\n      tag_34\n      swap2\n      swap1\n      tag_35\n      jump\t// in\n    tag_34:\n      tag_36\n      jump\t// in\n    tag_33:\n      mload(0x40)\n      tag_37\n      swap2\n      swap1\n      tag_38\n      jump\t// in\n    tag_37:\n      mload(0x40)\n      dup1\n      swap2\n      sub\n      swap1\n      return\n        /* \"contracts/Erc20token.sol\":1168:1200  uint public override totalSupply */\n    tag_4:\n      callvalue\n      dup1\n      iszero\n      tag_39\n      jumpi\n      0x00\n      dup1\n      revert\n    tag_39:\n      pop\n      tag_40\n      tag_41\n      jump\t// in\n    tag_40:\n      mload(0x40)\n      tag_42\n      swap2\n      swap1\n      tag_43\n      jump\t// in\n    tag_42:\n      mload(0x40)\n      dup1\n      swap2\n      sub\n      swap1\n      return\n        /* \"contracts/Erc20token.sol\":2635:3271  function transferFrom(address from, address to, uint tokens) public override returns (bool success){\r... */\n    tag_5:\n      callvalue\n      dup1\n      iszero\n      tag_44\n      jumpi\n      0x00\n      dup1\n      revert\n    tag_44:\n      pop\n      tag_45\n      0x04\n      dup1\n      calldatasize\n      sub\n      dup2\n      add\n      swap1\n      tag_46\n      swap2\n      swap1\n      tag_47\n      jump\t// in\n    tag_46:\n      tag_48\n      jump\t// in\n    tag_45:\n      mload(0x40)\n      tag_49\n      swap2\n      swap1\n      tag_38\n      jump\t// in\n    tag_49:\n      mload(0x40)\n      dup1\n      swap2\n      sub\n      swap1\n      return\n        /* \"contracts/Erc20token.sol\":1209:1250  mapping(address => uint) public  balances */\n    tag_6:\n      callvalue\n      dup1\n      iszero\n      tag_50\n      jumpi\n      0x00\n      dup1\n      revert\n    tag_50:\n      pop\n      tag_51\n      0x04\n      dup1\n      calldatasize\n      sub\n      dup2\n      add\n      swap1\n      tag_52\n      swap2\n      swap1\n      tag_53\n      jump\t// in\n    tag_52:\n      tag_54\n      jump\t// in\n    tag_51:\n      mload(0x40)\n      tag_55\n      swap2\n      swap1\n      tag_43\n      jump\t// in\n    tag_55:\n      mload(0x40)\n      dup1\n      swap2\n      sub\n      swap1\n      return\n        /* \"contracts/Erc20token.sol\":3951:3988  address payable public depositAddress */\n    tag_7:\n      callvalue\n      dup1\n      iszero\n      tag_56\n      jumpi\n      0x00\n      dup1\n      revert\n    tag_56:\n      pop\n      tag_57\n      tag_58\n      jump\t// in\n    tag_57:\n      mload(0x40)\n      tag_59\n      swap2\n      swap1\n      tag_60\n      jump\t// in\n    tag_59:\n      mload(0x40)\n      dup1\n      swap2\n      sub\n      swap1\n      return\n        /* \"contracts/Erc20token.sol\":1104:1128  uint public decimals = 0 */\n    tag_8:\n      callvalue\n      dup1\n      iszero\n      tag_61\n      jumpi\n      0x00\n      dup1\n      revert\n    tag_61:\n      pop\n      tag_62\n      tag_63\n      jump\t// in\n    tag_62:\n      mload(0x40)\n      tag_64\n      swap2\n      swap1\n      tag_43\n      jump\t// in\n    tag_64:\n      mload(0x40)\n      dup1\n      swap2\n      sub\n      swap1\n      return\n        /* \"contracts/Erc20token.sol\":3691:3710  uint public endTime */\n    tag_9:\n      callvalue\n      dup1\n      iszero\n      tag_65\n      jumpi\n      0x00\n      dup1\n      revert\n    tag_65:\n      pop\n      tag_66\n      tag_67\n      jump\t// in\n    tag_66:\n      mload(0x40)\n      tag_68\n      swap2\n      swap1\n      tag_43\n      jump\t// in\n    tag_68:\n      mload(0x40)\n      dup1\n      swap2\n      sub\n      swap1\n      return\n        /* \"contracts/Erc20token.sol\":3894:3915  State public icoState */\n    tag_10:\n      callvalue\n      dup1\n      iszero\n      tag_69\n      jumpi\n      0x00\n      dup1\n      revert\n    tag_69:\n      pop\n      tag_70\n      tag_71\n      jump\t// in\n    tag_70:\n      mload(0x40)\n      tag_72\n      swap2\n      swap1\n      tag_73\n      jump\t// in\n    tag_72:\n      mload(0x40)\n      dup1\n      swap2\n      sub\n      swap1\n      return\n        /* \"contracts/Erc20token.sol\":1137:1159  address public founder */\n    tag_11:\n      callvalue\n      dup1\n      iszero\n      tag_74\n      jumpi\n      0x00\n      dup1\n      revert\n    tag_74:\n      pop\n      tag_75\n      tag_76\n      jump\t// in\n    tag_75:\n      mload(0x40)\n      tag_77\n      swap2\n      swap1\n      tag_78\n      jump\t// in\n    tag_77:\n      mload(0x40)\n      dup1\n      swap2\n      sub\n      swap1\n      return\n        /* \"contracts/Erc20token.sol\":1259:1318  mapping(address => mapping(address => uint)) public allowed */\n    tag_12:\n      callvalue\n      dup1\n      iszero\n      tag_79\n      jumpi\n      0x00\n      dup1\n      revert\n    tag_79:\n      pop\n      tag_80\n      0x04\n      dup1\n      calldatasize\n      sub\n      dup2\n      add\n      swap1\n      tag_81\n      swap2\n      swap1\n      tag_82\n      jump\t// in\n    tag_81:\n      tag_83\n      jump\t// in\n    tag_80:\n      mload(0x40)\n      tag_84\n      swap2\n      swap1\n      tag_43\n      jump\t// in\n    tag_84:\n      mload(0x40)\n      dup1\n      swap2\n      sub\n      swap1\n      return\n        /* \"contracts/Erc20token.sol\":1461:1589  function balanceOf(address tokenOwner) public override view returns (uint balance){\r... */\n    tag_13:\n      callvalue\n      dup1\n      iszero\n      tag_85\n      jumpi\n      0x00\n      dup1\n      revert\n    tag_85:\n      pop\n      tag_86\n      0x04\n      dup1\n      calldatasize\n      sub\n      dup2\n      add\n      swap1\n      tag_87\n      swap2\n      swap1\n      tag_53\n      jump\t// in\n    tag_87:\n      tag_88\n      jump\t// in\n    tag_86:\n      mload(0x40)\n      tag_89\n      swap2\n      swap1\n      tag_43\n      jump\t// in\n    tag_89:\n      mload(0x40)\n      dup1\n      swap2\n      sub\n      swap1\n      return\n        /* \"contracts/Erc20token.sol\":3645:3684  uint public startTime = block.timestamp */\n    tag_14:\n      callvalue\n      dup1\n      iszero\n      tag_90\n      jumpi\n      0x00\n      dup1\n      revert\n    tag_90:\n      pop\n      tag_91\n      tag_92\n      jump\t// in\n    tag_91:\n      mload(0x40)\n      tag_93\n      swap2\n      swap1\n      tag_43\n      jump\t// in\n    tag_93:\n      mload(0x40)\n      dup1\n      swap2\n      sub\n      swap1\n      return\n        /* \"contracts/Erc20token.sol\":1069:1097  string public symbol = \"ZLZ\" */\n    tag_15:\n      callvalue\n      dup1\n      iszero\n      tag_94\n      jumpi\n      0x00\n      dup1\n      revert\n    tag_94:\n      pop\n      tag_95\n      tag_96\n      jump\t// in\n    tag_95:\n      mload(0x40)\n      tag_97\n      swap2\n      swap1\n      tag_31\n      jump\t// in\n    tag_97:\n      mload(0x40)\n      dup1\n      swap2\n      sub\n      swap1\n      return\n        /* \"contracts/Erc20token.sol\":1643:1964  function transfer(address to, uint tokens) public override returns (bool success){\r... */\n    tag_16:\n      callvalue\n      dup1\n      iszero\n      tag_98\n      jumpi\n      0x00\n      dup1\n      revert\n    tag_98:\n      pop\n      tag_99\n      0x04\n      dup1\n      calldatasize\n      sub\n      dup2\n      add\n      swap1\n      tag_100\n      swap2\n      swap1\n      tag_35\n      jump\t// in\n    tag_100:\n      tag_101\n      jump\t// in\n    tag_99:\n      mload(0x40)\n      tag_102\n      swap2\n      swap1\n      tag_38\n      jump\t// in\n    tag_102:\n      mload(0x40)\n      dup1\n      swap2\n      sub\n      swap1\n      return\n        /* \"contracts/Erc20token.sol\":3810:3845  uint public maximumAmount = 1 ether */\n    tag_17:\n      callvalue\n      dup1\n      iszero\n      tag_103\n      jumpi\n      0x00\n      dup1\n      revert\n    tag_103:\n      pop\n      tag_104\n      tag_105\n      jump\t// in\n    tag_104:\n      mload(0x40)\n      tag_106\n      swap2\n      swap1\n      tag_43\n      jump\t// in\n    tag_106:\n      mload(0x40)\n      dup1\n      swap2\n      sub\n      swap1\n      return\n        /* \"contracts/Erc20token.sol\":3766:3803  uint public minimumAmount = 0.1 ether */\n    tag_18:\n      callvalue\n      dup1\n      iszero\n      tag_107\n      jumpi\n      0x00\n      dup1\n      revert\n    tag_107:\n      pop\n      tag_108\n      tag_109\n      jump\t// in\n    tag_108:\n      mload(0x40)\n      tag_110\n      swap2\n      swap1\n      tag_43\n      jump\t// in\n    tag_110:\n      mload(0x40)\n      dup1\n      swap2\n      sub\n      swap1\n      return\n        /* \"contracts/Erc20token.sol\":3399:3423  uint public raisedAmount */\n    tag_19:\n      callvalue\n      dup1\n      iszero\n      tag_111\n      jumpi\n      0x00\n      dup1\n      revert\n    tag_111:\n      pop\n      tag_112\n      tag_113\n      jump\t// in\n    tag_112:\n      mload(0x40)\n      tag_114\n      swap2\n      swap1\n      tag_43\n      jump\t// in\n    tag_114:\n      mload(0x40)\n      dup1\n      swap2\n      sub\n      swap1\n      return\n        /* \"contracts/Erc20token.sol\":2062:2217  function allowance(address tokenOwner, address spender) public override view returns (uint remaining){\r... */\n    tag_20:\n      callvalue\n      dup1\n      iszero\n      tag_115\n      jumpi\n      0x00\n      dup1\n      revert\n    tag_115:\n      pop\n      tag_116\n      0x04\n      dup1\n      calldatasize\n      sub\n      dup2\n      add\n      swap1\n      tag_117\n      swap2\n      swap1\n      tag_82\n      jump\t// in\n    tag_117:\n      tag_118\n      jump\t// in\n    tag_116:\n      mload(0x40)\n      tag_119\n      swap2\n      swap1\n      tag_43\n      jump\t// in\n    tag_119:\n      mload(0x40)\n      dup1\n      swap2\n      sub\n      swap1\n      return\n        /* \"contracts/Erc20token.sol\":4533:5346  function invest() public payable onlyAdmin returns(bool){\r... */\n    tag_21:\n      tag_120\n      tag_121\n      jump\t// in\n    tag_120:\n      mload(0x40)\n      tag_122\n      swap2\n      swap1\n      tag_38\n      jump\t// in\n    tag_122:\n      mload(0x40)\n      dup1\n      swap2\n      sub\n      swap1\n      return\n        /* \"contracts/Erc20token.sol\":3320:3340  address public admin */\n    tag_22:\n      callvalue\n      dup1\n      iszero\n      tag_123\n      jumpi\n      0x00\n      dup1\n      revert\n    tag_123:\n      pop\n      tag_124\n      tag_125\n      jump\t// in\n    tag_124:\n      mload(0x40)\n      tag_126\n      swap2\n      swap1\n      tag_78\n      jump\t// in\n    tag_126:\n      mload(0x40)\n      dup1\n      swap2\n      sub\n      swap1\n      return\n        /* \"contracts/Erc20token.sol\":3482:3511  uint public hardCap = 5 ether */\n    tag_23:\n      callvalue\n      dup1\n      iszero\n      tag_127\n      jumpi\n      0x00\n      dup1\n      revert\n    tag_127:\n      pop\n      tag_128\n      tag_129\n      jump\t// in\n    tag_128:\n      mload(0x40)\n      tag_130\n      swap2\n      swap1\n      tag_43\n      jump\t// in\n    tag_130:\n      mload(0x40)\n      dup1\n      swap2\n      sub\n      swap1\n      return\n        /* \"contracts/Erc20token.sol\":1033:1062  string public name = \"ZILLAX\" */\n    tag_29:\n      0x00\n      dup1\n      sload\n      tag_131\n      swap1\n      tag_132\n      jump\t// in\n    tag_131:\n      dup1\n      0x1f\n      add\n      0x20\n      dup1\n      swap2\n      div\n      mul\n      0x20\n      add\n      mload(0x40)\n      swap1\n      dup2\n      add\n      0x40\n      mstore\n      dup1\n      swap3\n      swap2\n      swap1\n      dup2\n      dup2\n      mstore\n      0x20\n      add\n      dup3\n      dup1\n      sload\n      tag_133\n      swap1\n      tag_132\n      jump\t// in\n    tag_133:\n      dup1\n      iszero\n      tag_134\n      jumpi\n      dup1\n      0x1f\n      lt\n      tag_135\n      jumpi\n      0x0100\n      dup1\n      dup4\n      sload\n      div\n      mul\n      dup4\n      mstore\n      swap2\n      0x20\n      add\n      swap2\n      jump(tag_134)\n    tag_135:\n      dup3\n      add\n      swap2\n      swap1\n      0x00\n      mstore\n      keccak256(0x00, 0x20)\n      swap1\n    tag_136:\n      dup2\n      sload\n      dup2\n      mstore\n      swap1\n      0x01\n      add\n      swap1\n      0x20\n      add\n      dup1\n      dup4\n      gt\n      tag_136\n      jumpi\n      dup3\n      swap1\n      sub\n      0x1f\n      and\n      dup3\n      add\n      swap2\n    tag_134:\n      pop\n      pop\n      pop\n      pop\n      pop\n      dup2\n      jump\t// out\n        /* \"contracts/Erc20token.sol\":2225:2627  function approve(address spender, uint tokens) public override returns (bool success){\r... */\n    tag_36:\n        /* \"contracts/Erc20token.sol\":2297:2309  bool success */\n      0x00\n        /* \"contracts/Erc20token.sol\":2355:2361  tokens */\n      dup2\n        /* \"contracts/Erc20token.sol\":2331:2339  balances */\n      0x05\n        /* \"contracts/Erc20token.sol\":2331:2351  balances[msg.sender] */\n      0x00\n        /* \"contracts/Erc20token.sol\":2340:2350  msg.sender */\n      caller\n        /* \"contracts/Erc20token.sol\":2331:2351  balances[msg.sender] */\n      0xffffffffffffffffffffffffffffffffffffffff\n      and\n      0xffffffffffffffffffffffffffffffffffffffff\n      and\n      dup2\n      mstore\n      0x20\n      add\n      swap1\n      dup2\n      mstore\n      0x20\n      add\n      0x00\n      keccak256\n      sload\n        /* \"contracts/Erc20token.sol\":2331:2361  balances[msg.sender] >= tokens */\n      lt\n      iszero\n        /* \"contracts/Erc20token.sol\":2323:2414  require(balances[msg.sender] >= tokens, \"Token value is greater than your current holding\") */\n      tag_138\n      jumpi\n      mload(0x40)\n      0x08c379a000000000000000000000000000000000000000000000000000000000\n      dup2\n      mstore\n      0x04\n      add\n      tag_139\n      swap1\n      tag_140\n      jump\t// in\n    tag_139:\n      mload(0x40)\n      dup1\n      swap2\n      sub\n      swap1\n      revert\n    tag_138:\n        /* \"contracts/Erc20token.sol\":2442:2443  0 */\n      0x00\n        /* \"contracts/Erc20token.sol\":2433:2439  tokens */\n      dup3\n        /* \"contracts/Erc20token.sol\":2433:2443  tokens > 0 */\n      gt\n        /* \"contracts/Erc20token.sol\":2425:2482  require(tokens > 0, \"Token value must be greater than 0\") */\n      tag_141\n      jumpi\n      mload(0x40)\n      0x08c379a000000000000000000000000000000000000000000000000000000000\n      dup2\n      mstore\n      0x04\n      add\n      tag_142\n      swap1\n      tag_143\n      jump\t// in\n    tag_142:\n      mload(0x40)\n      dup1\n      swap2\n      sub\n      swap1\n      revert\n    tag_141:\n        /* \"contracts/Erc20token.sol\":2534:2540  tokens */\n      dup2\n        /* \"contracts/Erc20token.sol\":2503:2510  allowed */\n      0x06\n        /* \"contracts/Erc20token.sol\":2503:2522  allowed[msg.sender] */\n      0x00\n        /* \"contracts/Erc20token.sol\":2511:2521  msg.sender */\n      caller\n        /* \"contracts/Erc20token.sol\":2503:2522  allowed[msg.sender] */\n      0xffffffffffffffffffffffffffffffffffffffff\n      and\n      0xffffffffffffffffffffffffffffffffffffffff\n      and\n      dup2\n      mstore\n      0x20\n      add\n      swap1\n      dup2\n      mstore\n      0x20\n      add\n      0x00\n      keccak256\n        /* \"contracts/Erc20token.sol\":2503:2531  allowed[msg.sender][spender] */\n      0x00\n        /* \"contracts/Erc20token.sol\":2523:2530  spender */\n      dup6\n        /* \"contracts/Erc20token.sol\":2503:2531  allowed[msg.sender][spender] */\n      0xffffffffffffffffffffffffffffffffffffffff\n      and\n      0xffffffffffffffffffffffffffffffffffffffff\n      and\n      dup2\n      mstore\n      0x20\n      add\n      swap1\n      dup2\n      mstore\n      0x20\n      add\n      0x00\n      keccak256\n        /* \"contracts/Erc20token.sol\":2503:2540  allowed[msg.sender][spender] = tokens */\n      dup2\n      swap1\n      sstore\n      pop\n        /* \"contracts/Erc20token.sol\":2579:2586  spender */\n      dup3\n        /* \"contracts/Erc20token.sol\":2558:2595  Approval(msg.sender, spender, tokens) */\n      0xffffffffffffffffffffffffffffffffffffffff\n      and\n        /* \"contracts/Erc20token.sol\":2567:2577  msg.sender */\n      caller\n        /* \"contracts/Erc20token.sol\":2558:2595  Approval(msg.sender, spender, tokens) */\n      0xffffffffffffffffffffffffffffffffffffffff\n      and\n      0x8c5be1e5ebec7d5bd14f71427d1e84f3dd0314c0f7b2291e5b200ac8c7c3b925\n        /* \"contracts/Erc20token.sol\":2588:2594  tokens */\n      dup5\n        /* \"contracts/Erc20token.sol\":2558:2595  Approval(msg.sender, spender, tokens) */\n      mload(0x40)\n      tag_144\n      swap2\n      swap1\n      tag_43\n      jump\t// in\n    tag_144:\n      mload(0x40)\n      dup1\n      swap2\n      sub\n      swap1\n      log3\n        /* \"contracts/Erc20token.sol\":2615:2619  true */\n      0x01\n        /* \"contracts/Erc20token.sol\":2608:2619  return true */\n      swap1\n      pop\n        /* \"contracts/Erc20token.sol\":2225:2627  function approve(address spender, uint tokens) public override returns (bool success){\r... */\n      swap3\n      swap2\n      pop\n      pop\n      jump\t// out\n        /* \"contracts/Erc20token.sol\":1168:1200  uint public override totalSupply */\n    tag_41:\n      sload(0x04)\n      dup2\n      jump\t// out\n        /* \"contracts/Erc20token.sol\":2635:3271  function transferFrom(address from, address to, uint tokens) public override returns (bool success){\r... */\n    tag_48:\n        /* \"contracts/Erc20token.sol\":2721:2733  bool success */\n      0x00\n        /* \"contracts/Erc20token.sol\":2782:2788  tokens */\n      dup2\n        /* \"contracts/Erc20token.sol\":2753:2760  allowed */\n      0x06\n        /* \"contracts/Erc20token.sol\":2753:2766  allowed[from] */\n      0x00\n        /* \"contracts/Erc20token.sol\":2761:2765  from */\n      dup7\n        /* \"contracts/Erc20token.sol\":2753:2766  allowed[from] */\n      0xffffffffffffffffffffffffffffffffffffffff\n      and\n      0xffffffffffffffffffffffffffffffffffffffff\n      and\n      dup2\n      mstore\n      0x20\n      add\n      swap1\n      dup2\n      mstore\n      0x20\n      add\n      0x00\n      keccak256\n        /* \"contracts/Erc20token.sol\":2753:2778  allowed[from][msg.sender] */\n      0x00\n        /* \"contracts/Erc20token.sol\":2767:2777  msg.sender */\n      caller\n        /* \"contracts/Erc20token.sol\":2753:2778  allowed[from][msg.sender] */\n      0xffffffffffffffffffffffffffffffffffffffff\n      and\n      0xffffffffffffffffffffffffffffffffffffffff\n      and\n      dup2\n      mstore\n      0x20\n      add\n      swap1\n      dup2\n      mstore\n      0x20\n      add\n      0x00\n      keccak256\n      sload\n        /* \"contracts/Erc20token.sol\":2753:2788  allowed[from][msg.sender] >= tokens */\n      lt\n      iszero\n        /* \"contracts/Erc20token.sol\":2745:2841  require(allowed[from][msg.sender] >= tokens, \"Token value is greater than the approved balance\") */\n      tag_146\n      jumpi\n      mload(0x40)\n      0x08c379a000000000000000000000000000000000000000000000000000000000\n      dup2\n      mstore\n      0x04\n      add\n      tag_147\n      swap1\n      tag_148\n      jump\t// in\n    tag_147:\n      mload(0x40)\n      dup1\n      swap2\n      sub\n      swap1\n      revert\n    tag_146:\n        /* \"contracts/Erc20token.sol\":2878:2884  tokens */\n      dup2\n        /* \"contracts/Erc20token.sol\":2860:2868  balances */\n      0x05\n        /* \"contracts/Erc20token.sol\":2860:2874  balances[from] */\n      0x00\n        /* \"contracts/Erc20token.sol\":2869:2873  from */\n      dup7\n        /* \"contracts/Erc20token.sol\":2860:2874  balances[from] */\n      0xffffffffffffffffffffffffffffffffffffffff\n      and\n      0xffffffffffffffffffffffffffffffffffffffff\n      and\n      dup2\n      mstore\n      0x20\n      add\n      swap1\n      dup2\n      mstore\n      0x20\n      add\n      0x00\n      keccak256\n      sload\n        /* \"contracts/Erc20token.sol\":2860:2884  balances[from] >= tokens */\n      lt\n      iszero\n        /* \"contracts/Erc20token.sol\":2852:2907  require(balances[from] >= tokens, \"Insuficient Balnce\") */\n      tag_149\n      jumpi\n      mload(0x40)\n      0x08c379a000000000000000000000000000000000000000000000000000000000\n      dup2\n      mstore\n      0x04\n      add\n      tag_150\n      swap1\n      tag_151\n      jump\t// in\n    tag_150:\n      mload(0x40)\n      dup1\n      swap2\n      sub\n      swap1\n      revert\n    tag_149:\n        /* \"contracts/Erc20token.sol\":2935:2936  0 */\n      0x00\n        /* \"contracts/Erc20token.sol\":2926:2932  tokens */\n      dup3\n        /* \"contracts/Erc20token.sol\":2926:2936  tokens > 0 */\n      gt\n        /* \"contracts/Erc20token.sol\":2918:2975  require(tokens > 0, \"Token value must be greater than 0\") */\n      tag_152\n      jumpi\n      mload(0x40)\n      0x08c379a000000000000000000000000000000000000000000000000000000000\n      dup2\n      mstore\n      0x04\n      add\n      tag_153\n      swap1\n      tag_143\n      jump\t// in\n    tag_153:\n      mload(0x40)\n      dup1\n      swap2\n      sub\n      swap1\n      revert\n    tag_152:\n        /* \"contracts/Erc20token.sol\":3017:3023  tokens */\n      dup2\n        /* \"contracts/Erc20token.sol\":2988:2995  allowed */\n      0x06\n        /* \"contracts/Erc20token.sol\":2988:3001  allowed[from] */\n      0x00\n        /* \"contracts/Erc20token.sol\":2996:3000  from */\n      dup7\n        /* \"contracts/Erc20token.sol\":2988:3001  allowed[from] */\n      0xffffffffffffffffffffffffffffffffffffffff\n      and\n      0xffffffffffffffffffffffffffffffffffffffff\n      and\n      dup2\n      mstore\n      0x20\n      add\n      swap1\n      dup2\n      mstore\n      0x20\n      add\n      0x00\n      keccak256\n        /* \"contracts/Erc20token.sol\":2988:3013  allowed[from][msg.sender] */\n      0x00\n        /* \"contracts/Erc20token.sol\":3002:3012  msg.sender */\n      caller\n        /* \"contracts/Erc20token.sol\":2988:3013  allowed[from][msg.sender] */\n      0xffffffffffffffffffffffffffffffffffffffff\n      and\n      0xffffffffffffffffffffffffffffffffffffffff\n      and\n      dup2\n      mstore\n      0x20\n      add\n      swap1\n      dup2\n      mstore\n      0x20\n      add\n      0x00\n      keccak256\n      0x00\n        /* \"contracts/Erc20token.sol\":2988:3023  allowed[from][msg.sender] -= tokens */\n      dup3\n      dup3\n      sload\n      tag_154\n      swap2\n      swap1\n      tag_155\n      jump\t// in\n    tag_154:\n      swap3\n      pop\n      pop\n      dup2\n      swap1\n      sstore\n      pop\n        /* \"contracts/Erc20token.sol\":3105:3111  tokens */\n      dup2\n        /* \"contracts/Erc20token.sol\":3087:3095  balances */\n      0x05\n        /* \"contracts/Erc20token.sol\":3087:3101  balances[from] */\n      0x00\n        /* \"contracts/Erc20token.sol\":3096:3100  from */\n      dup7\n        /* \"contracts/Erc20token.sol\":3087:3101  balances[from] */\n      0xffffffffffffffffffffffffffffffffffffffff\n      and\n      0xffffffffffffffffffffffffffffffffffffffff\n      and\n      dup2\n      mstore\n      0x20\n      add\n      swap1\n      dup2\n      mstore\n      0x20\n      add\n      0x00\n      keccak256\n      0x00\n        /* \"contracts/Erc20token.sol\":3087:3111  balances[from] -= tokens */\n      dup3\n      dup3\n      sload\n      tag_156\n      swap2\n      swap1\n      tag_155\n      jump\t// in\n    tag_156:\n      swap3\n      pop\n      pop\n      dup2\n      swap1\n      sstore\n      pop\n        /* \"contracts/Erc20token.sol\":3189:3195  tokens */\n      dup2\n        /* \"contracts/Erc20token.sol\":3173:3181  balances */\n      0x05\n        /* \"contracts/Erc20token.sol\":3173:3185  balances[to] */\n      0x00\n        /* \"contracts/Erc20token.sol\":3182:3184  to */\n      dup6\n        /* \"contracts/Erc20token.sol\":3173:3185  balances[to] */\n      0xffffffffffffffffffffffffffffffffffffffff\n      and\n      0xffffffffffffffffffffffffffffffffffffffff\n      and\n      dup2\n      mstore\n      0x20\n      add\n      swap1\n      dup2\n      mstore\n      0x20\n      add\n      0x00\n      keccak256\n      0x00\n        /* \"contracts/Erc20token.sol\":3173:3195  balances[to] += tokens */\n      dup3\n      dup3\n      sload\n      tag_157\n      swap2\n      swap1\n      tag_158\n      jump\t// in\n    tag_157:\n      swap3\n      pop\n      pop\n      dup2\n      swap1\n      sstore\n      pop\n        /* \"contracts/Erc20token.sol\":3228:3230  to */\n      dup3\n        /* \"contracts/Erc20token.sol\":3213:3239  Transfer(from, to, tokens) */\n      0xffffffffffffffffffffffffffffffffffffffff\n      and\n        /* \"contracts/Erc20token.sol\":3222:3226  from */\n      dup5\n        /* \"contracts/Erc20token.sol\":3213:3239  Transfer(from, to, tokens) */\n      0xffffffffffffffffffffffffffffffffffffffff\n      and\n      0xddf252ad1be2c89b69c2b068fc378daa952ba7f163c4a11628f55a4df523b3ef\n        /* \"contracts/Erc20token.sol\":3232:3238  tokens */\n      dup5\n        /* \"contracts/Erc20token.sol\":3213:3239  Transfer(from, to, tokens) */\n      mload(0x40)\n      tag_159\n      swap2\n      swap1\n      tag_43\n      jump\t// in\n    tag_159:\n      mload(0x40)\n      dup1\n      swap2\n      sub\n      swap1\n      log3\n        /* \"contracts/Erc20token.sol\":3259:3263  true */\n      0x01\n        /* \"contracts/Erc20token.sol\":3252:3263  return true */\n      swap1\n      pop\n        /* \"contracts/Erc20token.sol\":2635:3271  function transferFrom(address from, address to, uint tokens) public override returns (bool success){\r... */\n      swap4\n      swap3\n      pop\n      pop\n      pop\n      jump\t// out\n        /* \"contracts/Erc20token.sol\":1209:1250  mapping(address => uint) public  balances */\n    tag_54:\n      mstore(0x20, 0x05)\n      dup1\n      0x00\n      mstore\n      keccak256(0x00, 0x40)\n      0x00\n      swap2\n      pop\n      swap1\n      pop\n      sload\n      dup2\n      jump\t// out\n        /* \"contracts/Erc20token.sol\":3951:3988  address payable public depositAddress */\n    tag_58:\n      0x0e\n      0x01\n      swap1\n      sload\n      swap1\n      0x0100\n      exp\n      swap1\n      div\n      0xffffffffffffffffffffffffffffffffffffffff\n      and\n      dup2\n      jump\t// out\n        /* \"contracts/Erc20token.sol\":1104:1128  uint public decimals = 0 */\n    tag_63:\n      sload(0x02)\n      dup2\n      jump\t// out\n        /* \"contracts/Erc20token.sol\":3691:3710  uint public endTime */\n    tag_67:\n      sload(0x0b)\n      dup2\n      jump\t// out\n        /* \"contracts/Erc20token.sol\":3894:3915  State public icoState */\n    tag_71:\n      0x0e\n      0x00\n      swap1\n      sload\n      swap1\n      0x0100\n      exp\n      swap1\n      div\n      0xff\n      and\n      dup2\n      jump\t// out\n        /* \"contracts/Erc20token.sol\":1137:1159  address public founder */\n    tag_76:\n      0x03\n      0x00\n      swap1\n      sload\n      swap1\n      0x0100\n      exp\n      swap1\n      div\n      0xffffffffffffffffffffffffffffffffffffffff\n      and\n      dup2\n      jump\t// out\n        /* \"contracts/Erc20token.sol\":1259:1318  mapping(address => mapping(address => uint)) public allowed */\n    tag_83:\n      mstore(0x20, 0x06)\n      dup2\n      0x00\n      mstore\n      mstore(0x20, keccak256(0x00, 0x40))\n      dup1\n      0x00\n      mstore\n      keccak256(0x00, 0x40)\n      0x00\n      swap2\n      pop\n      swap2\n      pop\n      pop\n      sload\n      dup2\n      jump\t// out\n        /* \"contracts/Erc20token.sol\":1461:1589  function balanceOf(address tokenOwner) public override view returns (uint balance){\r... */\n    tag_88:\n        /* \"contracts/Erc20token.sol\":1530:1542  uint balance */\n      0x00\n        /* \"contracts/Erc20token.sol\":1561:1569  balances */\n      0x05\n        /* \"contracts/Erc20token.sol\":1561:1581  balances[tokenOwner] */\n      0x00\n        /* \"contracts/Erc20token.sol\":1570:1580  tokenOwner */\n      dup4\n        /* \"contracts/Erc20token.sol\":1561:1581  balances[tokenOwner] */\n      0xffffffffffffffffffffffffffffffffffffffff\n      and\n      0xffffffffffffffffffffffffffffffffffffffff\n      and\n      dup2\n      mstore\n      0x20\n      add\n      swap1\n      dup2\n      mstore\n      0x20\n      add\n      0x00\n      keccak256\n      sload\n        /* \"contracts/Erc20token.sol\":1554:1581  return balances[tokenOwner] */\n      swap1\n      pop\n        /* \"contracts/Erc20token.sol\":1461:1589  function balanceOf(address tokenOwner) public override view returns (uint balance){\r... */\n      swap2\n      swap1\n      pop\n      jump\t// out\n        /* \"contracts/Erc20token.sol\":3645:3684  uint public startTime = block.timestamp */\n    tag_92:\n      sload(0x0a)\n      dup2\n      jump\t// out\n        /* \"contracts/Erc20token.sol\":1069:1097  string public symbol = \"ZLZ\" */\n    tag_96:\n      0x01\n      dup1\n      sload\n      tag_161\n      swap1\n      tag_132\n      jump\t// in\n    tag_161:\n      dup1\n      0x1f\n      add\n      0x20\n      dup1\n      swap2\n      div\n      mul\n      0x20\n      add\n      mload(0x40)\n      swap1\n      dup2\n      add\n      0x40\n      mstore\n      dup1\n      swap3\n      swap2\n      swap1\n      dup2\n      dup2\n      mstore\n      0x20\n      add\n      dup3\n      dup1\n      sload\n      tag_162\n      swap1\n      tag_132\n      jump\t// in\n    tag_162:\n      dup1\n      iszero\n      tag_163\n      jumpi\n      dup1\n      0x1f\n      lt\n      tag_164\n      jumpi\n      0x0100\n      dup1\n      dup4\n      sload\n      div\n      mul\n      dup4\n      mstore\n      swap2\n      0x20\n      add\n      swap2\n      jump(tag_163)\n    tag_164:\n      dup3\n      add\n      swap2\n      swap1\n      0x00\n      mstore\n      keccak256(0x00, 0x20)\n      swap1\n    tag_165:\n      dup2\n      sload\n      dup2\n      mstore\n      swap1\n      0x01\n      add\n      swap1\n      0x20\n      add\n      dup1\n      dup4\n      gt\n      tag_165\n      jumpi\n      dup3\n      swap1\n      sub\n      0x1f\n      and\n      dup3\n      add\n      swap2\n    tag_163:\n      pop\n      pop\n      pop\n      pop\n      pop\n      dup2\n      jump\t// out\n        /* \"contracts/Erc20token.sol\":1643:1964  function transfer(address to, uint tokens) public override returns (bool success){\r... */\n    tag_101:\n        /* \"contracts/Erc20token.sol\":1711:1723  bool success */\n      0x00\n        /* \"contracts/Erc20token.sol\":1767:1773  tokens */\n      dup2\n        /* \"contracts/Erc20token.sol\":1743:1751  balances */\n      0x05\n        /* \"contracts/Erc20token.sol\":1743:1763  balances[msg.sender] */\n      0x00\n        /* \"contracts/Erc20token.sol\":1752:1762  msg.sender */\n      caller\n        /* \"contracts/Erc20token.sol\":1743:1763  balances[msg.sender] */\n      0xffffffffffffffffffffffffffffffffffffffff\n      and\n      0xffffffffffffffffffffffffffffffffffffffff\n      and\n      dup2\n      mstore\n      0x20\n      add\n      swap1\n      dup2\n      mstore\n      0x20\n      add\n      0x00\n      keccak256\n      sload\n        /* \"contracts/Erc20token.sol\":1743:1773  balances[msg.sender] >= tokens */\n      lt\n      iszero\n        /* \"contracts/Erc20token.sol\":1735:1806  require(balances[msg.sender] >= tokens, \"Insufficient Account Balance\") */\n      tag_167\n      jumpi\n      mload(0x40)\n      0x08c379a000000000000000000000000000000000000000000000000000000000\n      dup2\n      mstore\n      0x04\n      add\n      tag_168\n      swap1\n      tag_169\n      jump\t// in\n    tag_168:\n      mload(0x40)\n      dup1\n      swap2\n      sub\n      swap1\n      revert\n    tag_167:\n        /* \"contracts/Erc20token.sol\":1835:1841  tokens */\n      dup2\n        /* \"contracts/Erc20token.sol\":1819:1827  balances */\n      0x05\n        /* \"contracts/Erc20token.sol\":1819:1831  balances[to] */\n      0x00\n        /* \"contracts/Erc20token.sol\":1828:1830  to */\n      dup6\n        /* \"contracts/Erc20token.sol\":1819:1831  balances[to] */\n      0xffffffffffffffffffffffffffffffffffffffff\n      and\n      0xffffffffffffffffffffffffffffffffffffffff\n      and\n      dup2\n      mstore\n      0x20\n      add\n      swap1\n      dup2\n      mstore\n      0x20\n      add\n      0x00\n      keccak256\n      0x00\n        /* \"contracts/Erc20token.sol\":1819:1841  balances[to] += tokens */\n      dup3\n      dup3\n      sload\n      tag_170\n      swap2\n      swap1\n      tag_158\n      jump\t// in\n    tag_170:\n      swap3\n      pop\n      pop\n      dup2\n      swap1\n      sstore\n      pop\n        /* \"contracts/Erc20token.sol\":1876:1882  tokens */\n      dup2\n        /* \"contracts/Erc20token.sol\":1852:1860  balances */\n      0x05\n        /* \"contracts/Erc20token.sol\":1852:1872  balances[msg.sender] */\n      0x00\n        /* \"contracts/Erc20token.sol\":1861:1871  msg.sender */\n      caller\n        /* \"contracts/Erc20token.sol\":1852:1872  balances[msg.sender] */\n      0xffffffffffffffffffffffffffffffffffffffff\n      and\n      0xffffffffffffffffffffffffffffffffffffffff\n      and\n      dup2\n      mstore\n      0x20\n      add\n      swap1\n      dup2\n      mstore\n      0x20\n      add\n      0x00\n      keccak256\n      0x00\n        /* \"contracts/Erc20token.sol\":1852:1882  balances[msg.sender] -= tokens */\n      dup3\n      dup3\n      sload\n      tag_171\n      swap2\n      swap1\n      tag_155\n      jump\t// in\n    tag_171:\n      swap3\n      pop\n      pop\n      dup2\n      swap1\n      sstore\n      pop\n        /* \"contracts/Erc20token.sol\":1921:1923  to */\n      dup3\n        /* \"contracts/Erc20token.sol\":1900:1932  Transfer(msg.sender, to, tokens) */\n      0xffffffffffffffffffffffffffffffffffffffff\n      and\n        /* \"contracts/Erc20token.sol\":1909:1919  msg.sender */\n      caller\n        /* \"contracts/Erc20token.sol\":1900:1932  Transfer(msg.sender, to, tokens) */\n      0xffffffffffffffffffffffffffffffffffffffff\n      and\n      0xddf252ad1be2c89b69c2b068fc378daa952ba7f163c4a11628f55a4df523b3ef\n        /* \"contracts/Erc20token.sol\":1925:1931  tokens */\n      dup5\n        /* \"contracts/Erc20token.sol\":1900:1932  Transfer(msg.sender, to, tokens) */\n      mload(0x40)\n      tag_172\n      swap2\n      swap1\n      tag_43\n      jump\t// in\n    tag_172:\n      mload(0x40)\n      dup1\n      swap2\n      sub\n      swap1\n      log3\n        /* \"contracts/Erc20token.sol\":1952:1956  true */\n      0x01\n        /* \"contracts/Erc20token.sol\":1945:1956  return true */\n      swap1\n      pop\n        /* \"contracts/Erc20token.sol\":1643:1964  function transfer(address to, uint tokens) public override returns (bool success){\r... */\n      swap3\n      swap2\n      pop\n      pop\n      jump\t// out\n        /* \"contracts/Erc20token.sol\":3810:3845  uint public maximumAmount = 1 ether */\n    tag_105:\n      sload(0x0d)\n      dup2\n      jump\t// out\n        /* \"contracts/Erc20token.sol\":3766:3803  uint public minimumAmount = 0.1 ether */\n    tag_109:\n      sload(0x0c)\n      dup2\n      jump\t// out\n        /* \"contracts/Erc20token.sol\":3399:3423  uint public raisedAmount */\n    tag_113:\n      sload(0x08)\n      dup2\n      jump\t// out\n        /* \"contracts/Erc20token.sol\":2062:2217  function allowance(address tokenOwner, address spender) public override view returns (uint remaining){\r... */\n    tag_118:\n        /* \"contracts/Erc20token.sol\":2148:2162  uint remaining */\n      0x00\n        /* \"contracts/Erc20token.sol\":2181:2188  allowed */\n      0x06\n        /* \"contracts/Erc20token.sol\":2181:2200  allowed[tokenOwner] */\n      0x00\n        /* \"contracts/Erc20token.sol\":2189:2199  tokenOwner */\n      dup5\n        /* \"contracts/Erc20token.sol\":2181:2200  allowed[tokenOwner] */\n      0xffffffffffffffffffffffffffffffffffffffff\n      and\n      0xffffffffffffffffffffffffffffffffffffffff\n      and\n      dup2\n      mstore\n      0x20\n      add\n      swap1\n      dup2\n      mstore\n      0x20\n      add\n      0x00\n      keccak256\n        /* \"contracts/Erc20token.sol\":2181:2209  allowed[tokenOwner][spender] */\n      0x00\n        /* \"contracts/Erc20token.sol\":2201:2208  spender */\n      dup4\n        /* \"contracts/Erc20token.sol\":2181:2209  allowed[tokenOwner][spender] */\n      0xffffffffffffffffffffffffffffffffffffffff\n      and\n      0xffffffffffffffffffffffffffffffffffffffff\n      and\n      dup2\n      mstore\n      0x20\n      add\n      swap1\n      dup2\n      mstore\n      0x20\n      add\n      0x00\n      keccak256\n      sload\n        /* \"contracts/Erc20token.sol\":2174:2209  return allowed[tokenOwner][spender] */\n      swap1\n      pop\n        /* \"contracts/Erc20token.sol\":2062:2217  function allowance(address tokenOwner, address spender) public override view returns (uint remaining){\r... */\n      swap3\n      swap2\n      pop\n      pop\n      jump\t// out\n        /* \"contracts/Erc20token.sol\":4533:5346  function invest() public payable onlyAdmin returns(bool){\r... */\n    tag_121:\n        /* \"contracts/Erc20token.sol\":4584:4588  bool */\n      0x00\n        /* \"contracts/Erc20token.sol\":4420:4425  admin */\n      0x07\n      0x00\n      swap1\n      sload\n      swap1\n      0x0100\n      exp\n      swap1\n      div\n      0xffffffffffffffffffffffffffffffffffffffff\n      and\n        /* \"contracts/Erc20token.sol\":4406:4425  msg.sender == admin */\n      0xffffffffffffffffffffffffffffffffffffffff\n      and\n        /* \"contracts/Erc20token.sol\":4406:4416  msg.sender */\n      caller\n        /* \"contracts/Erc20token.sol\":4406:4425  msg.sender == admin */\n      0xffffffffffffffffffffffffffffffffffffffff\n      and\n      eq\n        /* \"contracts/Erc20token.sol\":4398:4464  require(msg.sender == admin, \"Access denied, you ae not an admin\") */\n      tag_175\n      jumpi\n      mload(0x40)\n      0x08c379a000000000000000000000000000000000000000000000000000000000\n      dup2\n      mstore\n      0x04\n      add\n      tag_176\n      swap1\n      tag_177\n      jump\t// in\n    tag_176:\n      mload(0x40)\n      dup1\n      swap2\n      sub\n      swap1\n      revert\n    tag_175:\n        /* \"contracts/Erc20token.sol\":4622:4623  0 */\n      0x00\n        /* \"contracts/Erc20token.sol\":4610:4619  msg.value */\n      callvalue\n        /* \"contracts/Erc20token.sol\":4610:4623  msg.value > 0 */\n      gt\n        /* \"contracts/Erc20token.sol\":4602:4660  require(msg.value > 0, \"Amount must be greater than zero\") */\n      tag_179\n      jumpi\n      mload(0x40)\n      0x08c379a000000000000000000000000000000000000000000000000000000000\n      dup2\n      mstore\n      0x04\n      add\n      tag_180\n      swap1\n      tag_181\n      jump\t// in\n    tag_180:\n      mload(0x40)\n      dup1\n      swap2\n      sub\n      swap1\n      revert\n    tag_179:\n        /* \"contracts/Erc20token.sol\":4704:4720  string memory s1 */\n      0x00\n        /* \"contracts/Erc20token.sol\":4782:4795  minimumAmount */\n      sload(0x0c)\n        /* \"contracts/Erc20token.sol\":4730:4796  abi.encodePacked(\"Amount cannot not be lower than\", minimumAmount) */\n      add(0x20, mload(0x40))\n      tag_182\n      swap2\n      swap1\n      tag_183\n      jump\t// in\n    tag_182:\n      mload(0x40)\n      0x20\n      dup2\n      dup4\n      sub\n      sub\n      dup2\n      mstore\n      swap1\n      0x40\n      mstore\n        /* \"contracts/Erc20token.sol\":4704:4797  string memory s1 = string(abi.encodePacked(\"Amount cannot not be lower than\", minimumAmount)) */\n      swap1\n      pop\n        /* \"contracts/Erc20token.sol\":4808:4824  string memory s2 */\n      0x00\n        /* \"contracts/Erc20token.sol\":4888:4901  maximumAmount */\n      sload(0x0d)\n        /* \"contracts/Erc20token.sol\":4834:4902  abi.encodePacked(\"Amount cannot not be higgher than\", maximumAmount) */\n      add(0x20, mload(0x40))\n      tag_184\n      swap2\n      swap1\n      tag_185\n      jump\t// in\n    tag_184:\n      mload(0x40)\n      0x20\n      dup2\n      dup4\n      sub\n      sub\n      dup2\n      mstore\n      swap1\n      0x40\n      mstore\n        /* \"contracts/Erc20token.sol\":4808:4903  string memory s2 = string(abi.encodePacked(\"Amount cannot not be higgher than\", maximumAmount)) */\n      swap1\n      pop\n        /* \"contracts/Erc20token.sol\":4914:4930  string memory s3 */\n      0x00\n        /* \"contracts/Erc20token.sol\":4957:4959  s1 */\n      dup3\n        /* \"contracts/Erc20token.sol\":4961:4963  s2 */\n      dup3\n        /* \"contracts/Erc20token.sol\":4940:4964  abi.encodePacked(s1, s2) */\n      add(0x20, mload(0x40))\n      tag_186\n      swap3\n      swap2\n      swap1\n      tag_187\n      jump\t// in\n    tag_186:\n      mload(0x40)\n      0x20\n      dup2\n      dup4\n      sub\n      sub\n      dup2\n      mstore\n      swap1\n      0x40\n      mstore\n        /* \"contracts/Erc20token.sol\":4914:4965  string memory s3 = string(abi.encodePacked(s1, s2)) */\n      swap1\n      pop\n        /* \"contracts/Erc20token.sol\":4997:5010  minimumAmount */\n      sload(0x0c)\n        /* \"contracts/Erc20token.sol\":4984:4993  msg.value */\n      callvalue\n        /* \"contracts/Erc20token.sol\":4984:5010  msg.value >= minimumAmount */\n      lt\n      iszero\n        /* \"contracts/Erc20token.sol\":4984:5040  msg.value >= minimumAmount && msg.value <= maximumAmount */\n      dup1\n      iszero\n      tag_188\n      jumpi\n      pop\n        /* \"contracts/Erc20token.sol\":5027:5040  maximumAmount */\n      sload(0x0d)\n        /* \"contracts/Erc20token.sol\":5014:5023  msg.value */\n      callvalue\n        /* \"contracts/Erc20token.sol\":5014:5040  msg.value <= maximumAmount */\n      gt\n      iszero\n        /* \"contracts/Erc20token.sol\":4984:5040  msg.value >= minimumAmount && msg.value <= maximumAmount */\n    tag_188:\n        /* \"contracts/Erc20token.sol\":5042:5044  s3 */\n      dup2\n        /* \"contracts/Erc20token.sol\":4976:5045  require(msg.value >= minimumAmount && msg.value <= maximumAmount, s3) */\n      swap1\n      tag_189\n      jumpi\n      mload(0x40)\n      0x08c379a000000000000000000000000000000000000000000000000000000000\n      dup2\n      mstore\n      0x04\n      add\n      tag_190\n      swap2\n      swap1\n      tag_31\n      jump\t// in\n    tag_190:\n      mload(0x40)\n      dup1\n      swap2\n      sub\n      swap1\n      revert\n    tag_189:\n      pop\n        /* \"contracts/Erc20token.sol\":5058:5069  uint amount */\n      0x00\n        /* \"contracts/Erc20token.sol\":5087:5096  msg.value */\n      callvalue\n        /* \"contracts/Erc20token.sol\":5072:5084  raisedAmount */\n      sload(0x08)\n        /* \"contracts/Erc20token.sol\":5072:5096  raisedAmount + msg.value */\n      tag_191\n      swap2\n      swap1\n      tag_158\n      jump\t// in\n    tag_191:\n        /* \"contracts/Erc20token.sol\":5058:5096  uint amount = raisedAmount + msg.value */\n      swap1\n      pop\n        /* \"contracts/Erc20token.sol\":5125:5132  hardCap */\n      sload(0x09)\n        /* \"contracts/Erc20token.sol\":5115:5121  amount */\n      dup2\n        /* \"contracts/Erc20token.sol\":5115:5132  amount <= hardCap */\n      gt\n      iszero\n        /* \"contracts/Erc20token.sol\":5107:5137  require(amount <= hardCap, \"\") */\n      tag_192\n      jumpi\n      mload(0x40)\n      0x08c379a000000000000000000000000000000000000000000000000000000000\n      dup2\n      mstore\n      0x04\n      add\n      tag_193\n      swap1\n      tag_194\n      jump\t// in\n    tag_193:\n      mload(0x40)\n      dup1\n      swap2\n      sub\n      swap1\n      revert\n    tag_192:\n        /* \"contracts/Erc20token.sol\":5207:5216  msg.value */\n      callvalue\n        /* \"contracts/Erc20token.sol\":5183:5191  balances */\n      0x05\n        /* \"contracts/Erc20token.sol\":5183:5203  balances[msg.sender] */\n      0x00\n        /* \"contracts/Erc20token.sol\":5192:5202  msg.sender */\n      caller\n        /* \"contracts/Erc20token.sol\":5183:5203  balances[msg.sender] */\n      0xffffffffffffffffffffffffffffffffffffffff\n      and\n      0xffffffffffffffffffffffffffffffffffffffff\n      and\n      dup2\n      mstore\n      0x20\n      add\n      swap1\n      dup2\n      mstore\n      0x20\n      add\n      0x00\n      keccak256\n      0x00\n        /* \"contracts/Erc20token.sol\":5183:5216  balances[msg.sender] += msg.value */\n      dup3\n      dup3\n      sload\n      tag_195\n      swap2\n      swap1\n      tag_158\n      jump\t// in\n    tag_195:\n      swap3\n      pop\n      pop\n      dup2\n      swap1\n      sstore\n      pop\n        /* \"contracts/Erc20token.sol\":5278:5292  depositAddress */\n      0x0e\n      0x01\n      swap1\n      sload\n      swap1\n      0x0100\n      exp\n      swap1\n      div\n      0xffffffffffffffffffffffffffffffffffffffff\n      and\n        /* \"contracts/Erc20token.sol\":5278:5301  depositAddress.transfer */\n      0xffffffffffffffffffffffffffffffffffffffff\n      and\n        /* \"contracts/Erc20token.sol\":5278:5312  depositAddress.transfer(msg.value) */\n      0x08fc\n        /* \"contracts/Erc20token.sol\":5302:5311  msg.value */\n      callvalue\n        /* \"contracts/Erc20token.sol\":5278:5312  depositAddress.transfer(msg.value) */\n      swap1\n      dup2\n      iszero\n      mul\n      swap1\n      mload(0x40)\n      0x00\n      mload(0x40)\n      dup1\n      dup4\n      sub\n      dup2\n      dup6\n      dup9\n      dup9\n      call\n      swap4\n      pop\n      pop\n      pop\n      pop\n      iszero\n      dup1\n      iszero\n      tag_197\n      jumpi\n      returndatasize\n      0x00\n      dup1\n      returndatacopy\n      revert(0x00, returndatasize)\n    tag_197:\n      pop\n        /* \"contracts/Erc20token.sol\":5332:5336  true */\n      0x01\n        /* \"contracts/Erc20token.sol\":5325:5336  return true */\n      swap5\n      pop\n      pop\n      pop\n      pop\n      pop\n        /* \"contracts/Erc20token.sol\":4533:5346  function invest() public payable onlyAdmin returns(bool){\r... */\n      swap1\n      jump\t// out\n        /* \"contracts/Erc20token.sol\":3320:3340  address public admin */\n    tag_125:\n      0x07\n      0x00\n      swap1\n      sload\n      swap1\n      0x0100\n      exp\n      swap1\n      div\n      0xffffffffffffffffffffffffffffffffffffffff\n      and\n      dup2\n      jump\t// out\n        /* \"contracts/Erc20token.sol\":3482:3511  uint public hardCap = 5 ether */\n    tag_129:\n      sload(0x09)\n      dup2\n      jump\t// out\n        /* \"#utility.yul\":7:146   */\n    tag_199:\n        /* \"#utility.yul\":53:58   */\n      0x00\n        /* \"#utility.yul\":91:97   */\n      dup2\n        /* \"#utility.yul\":78:98   */\n      calldataload\n        /* \"#utility.yul\":69:98   */\n      swap1\n      pop\n        /* \"#utility.yul\":107:140   */\n      tag_201\n        /* \"#utility.yul\":134:139   */\n      dup2\n        /* \"#utility.yul\":107:140   */\n      tag_202\n      jump\t// in\n    tag_201:\n        /* \"#utility.yul\":7:146   */\n      swap3\n      swap2\n      pop\n      pop\n      jump\t// out\n        /* \"#utility.yul\":152:291   */\n    tag_203:\n        /* \"#utility.yul\":198:203   */\n      0x00\n        /* \"#utility.yul\":236:242   */\n      dup2\n        /* \"#utility.yul\":223:243   */\n      calldataload\n        /* \"#utility.yul\":214:243   */\n      swap1\n      pop\n        /* \"#utility.yul\":252:285   */\n      tag_205\n        /* \"#utility.yul\":279:284   */\n      dup2\n        /* \"#utility.yul\":252:285   */\n      tag_206\n      jump\t// in\n    tag_205:\n        /* \"#utility.yul\":152:291   */\n      swap3\n      swap2\n      pop\n      pop\n      jump\t// out\n        /* \"#utility.yul\":297:626   */\n    tag_53:\n        /* \"#utility.yul\":356:362   */\n      0x00\n        /* \"#utility.yul\":405:407   */\n      0x20\n        /* \"#utility.yul\":393:402   */\n      dup3\n        /* \"#utility.yul\":384:391   */\n      dup5\n        /* \"#utility.yul\":380:403   */\n      sub\n        /* \"#utility.yul\":376:408   */\n      slt\n        /* \"#utility.yul\":373:492   */\n      iszero\n      tag_208\n      jumpi\n        /* \"#utility.yul\":411:490   */\n      tag_209\n      tag_210\n      jump\t// in\n    tag_209:\n        /* \"#utility.yul\":373:492   */\n    tag_208:\n        /* \"#utility.yul\":531:532   */\n      0x00\n        /* \"#utility.yul\":556:609   */\n      tag_211\n        /* \"#utility.yul\":601:608   */\n      dup5\n        /* \"#utility.yul\":592:598   */\n      dup3\n        /* \"#utility.yul\":581:590   */\n      dup6\n        /* \"#utility.yul\":577:599   */\n      add\n        /* \"#utility.yul\":556:609   */\n      tag_199\n      jump\t// in\n    tag_211:\n        /* \"#utility.yul\":546:609   */\n      swap2\n      pop\n        /* \"#utility.yul\":502:619   */\n      pop\n        /* \"#utility.yul\":297:626   */\n      swap3\n      swap2\n      pop\n      pop\n      jump\t// out\n        /* \"#utility.yul\":632:1106   */\n    tag_82:\n        /* \"#utility.yul\":700:706   */\n      0x00\n        /* \"#utility.yul\":708:714   */\n      dup1\n        /* \"#utility.yul\":757:759   */\n      0x40\n        /* \"#utility.yul\":745:754   */\n      dup4\n        /* \"#utility.yul\":736:743   */\n      dup6\n        /* \"#utility.yul\":732:755   */\n      sub\n        /* \"#utility.yul\":728:760   */\n      slt\n        /* \"#utility.yul\":725:844   */\n      iszero\n      tag_213\n      jumpi\n        /* \"#utility.yul\":763:842   */\n      tag_214\n      tag_210\n      jump\t// in\n    tag_214:\n        /* \"#utility.yul\":725:844   */\n    tag_213:\n        /* \"#utility.yul\":883:884   */\n      0x00\n        /* \"#utility.yul\":908:961   */\n      tag_215\n        /* \"#utility.yul\":953:960   */\n      dup6\n        /* \"#utility.yul\":944:950   */\n      dup3\n        /* \"#utility.yul\":933:942   */\n      dup7\n        /* \"#utility.yul\":929:951   */\n      add\n        /* \"#utility.yul\":908:961   */\n      tag_199\n      jump\t// in\n    tag_215:\n        /* \"#utility.yul\":898:961   */\n      swap3\n      pop\n        /* \"#utility.yul\":854:971   */\n      pop\n        /* \"#utility.yul\":1010:1012   */\n      0x20\n        /* \"#utility.yul\":1036:1089   */\n      tag_216\n        /* \"#utility.yul\":1081:1088   */\n      dup6\n        /* \"#utility.yul\":1072:1078   */\n      dup3\n        /* \"#utility.yul\":1061:1070   */\n      dup7\n        /* \"#utility.yul\":1057:1079   */\n      add\n        /* \"#utility.yul\":1036:1089   */\n      tag_199\n      jump\t// in\n    tag_216:\n        /* \"#utility.yul\":1026:1089   */\n      swap2\n      pop\n        /* \"#utility.yul\":981:1099   */\n      pop\n        /* \"#utility.yul\":632:1106   */\n      swap3\n      pop\n      swap3\n      swap1\n      pop\n      jump\t// out\n        /* \"#utility.yul\":1112:1731   */\n    tag_47:\n        /* \"#utility.yul\":1189:1195   */\n      0x00\n        /* \"#utility.yul\":1197:1203   */\n      dup1\n        /* \"#utility.yul\":1205:1211   */\n      0x00\n        /* \"#utility.yul\":1254:1256   */\n      0x60\n        /* \"#utility.yul\":1242:1251   */\n      dup5\n        /* \"#utility.yul\":1233:1240   */\n      dup7\n        /* \"#utility.yul\":1229:1252   */\n      sub\n        /* \"#utility.yul\":1225:1257   */\n      slt\n        /* \"#utility.yul\":1222:1341   */\n      iszero\n      tag_218\n      jumpi\n        /* \"#utility.yul\":1260:1339   */\n      tag_219\n      tag_210\n      jump\t// in\n    tag_219:\n        /* \"#utility.yul\":1222:1341   */\n    tag_218:\n        /* \"#utility.yul\":1380:1381   */\n      0x00\n        /* \"#utility.yul\":1405:1458   */\n      tag_220\n        /* \"#utility.yul\":1450:1457   */\n      dup7\n        /* \"#utility.yul\":1441:1447   */\n      dup3\n        /* \"#utility.yul\":1430:1439   */\n      dup8\n        /* \"#utility.yul\":1426:1448   */\n      add\n        /* \"#utility.yul\":1405:1458   */\n      tag_199\n      jump\t// in\n    tag_220:\n        /* \"#utility.yul\":1395:1458   */\n      swap4\n      pop\n        /* \"#utility.yul\":1351:1468   */\n      pop\n        /* \"#utility.yul\":1507:1509   */\n      0x20\n        /* \"#utility.yul\":1533:1586   */\n      tag_221\n        /* \"#utility.yul\":1578:1585   */\n      dup7\n        /* \"#utility.yul\":1569:1575   */\n      dup3\n        /* \"#utility.yul\":1558:1567   */\n      dup8\n        /* \"#utility.yul\":1554:1576   */\n      add\n        /* \"#utility.yul\":1533:1586   */\n      tag_199\n      jump\t// in\n    tag_221:\n        /* \"#utility.yul\":1523:1586   */\n      swap3\n      pop\n        /* \"#utility.yul\":1478:1596   */\n      pop\n        /* \"#utility.yul\":1635:1637   */\n      0x40\n        /* \"#utility.yul\":1661:1714   */\n      tag_222\n        /* \"#utility.yul\":1706:1713   */\n      dup7\n        /* \"#utility.yul\":1697:1703   */\n      dup3\n        /* \"#utility.yul\":1686:1695   */\n      dup8\n        /* \"#utility.yul\":1682:1704   */\n      add\n        /* \"#utility.yul\":1661:1714   */\n      tag_203\n      jump\t// in\n    tag_222:\n        /* \"#utility.yul\":1651:1714   */\n      swap2\n      pop\n        /* \"#utility.yul\":1606:1724   */\n      pop\n        /* \"#utility.yul\":1112:1731   */\n      swap3\n      pop\n      swap3\n      pop\n      swap3\n      jump\t// out\n        /* \"#utility.yul\":1737:2211   */\n    tag_35:\n        /* \"#utility.yul\":1805:1811   */\n      0x00\n        /* \"#utility.yul\":1813:1819   */\n      dup1\n        /* \"#utility.yul\":1862:1864   */\n      0x40\n        /* \"#utility.yul\":1850:1859   */\n      dup4\n        /* \"#utility.yul\":1841:1848   */\n      dup6\n        /* \"#utility.yul\":1837:1860   */\n      sub\n        /* \"#utility.yul\":1833:1865   */\n      slt\n        /* \"#utility.yul\":1830:1949   */\n      iszero\n      tag_224\n      jumpi\n        /* \"#utility.yul\":1868:1947   */\n      tag_225\n      tag_210\n      jump\t// in\n    tag_225:\n        /* \"#utility.yul\":1830:1949   */\n    tag_224:\n        /* \"#utility.yul\":1988:1989   */\n      0x00\n        /* \"#utility.yul\":2013:2066   */\n      tag_226\n        /* \"#utility.yul\":2058:2065   */\n      dup6\n        /* \"#utility.yul\":2049:2055   */\n      dup3\n        /* \"#utility.yul\":2038:2047   */\n      dup7\n        /* \"#utility.yul\":2034:2056   */\n      add\n        /* \"#utility.yul\":2013:2066   */\n      tag_199\n      jump\t// in\n    tag_226:\n        /* \"#utility.yul\":2003:2066   */\n      swap3\n      pop\n        /* \"#utility.yul\":1959:2076   */\n      pop\n        /* \"#utility.yul\":2115:2117   */\n      0x20\n        /* \"#utility.yul\":2141:2194   */\n      tag_227\n        /* \"#utility.yul\":2186:2193   */\n      dup6\n        /* \"#utility.yul\":2177:2183   */\n      dup3\n        /* \"#utility.yul\":2166:2175   */\n      dup7\n        /* \"#utility.yul\":2162:2184   */\n      add\n        /* \"#utility.yul\":2141:2194   */\n      tag_203\n      jump\t// in\n    tag_227:\n        /* \"#utility.yul\":2131:2194   */\n      swap2\n      pop\n        /* \"#utility.yul\":2086:2204   */\n      pop\n        /* \"#utility.yul\":1737:2211   */\n      swap3\n      pop\n      swap3\n      swap1\n      pop\n      jump\t// out\n        /* \"#utility.yul\":2217:2359   */\n    tag_228:\n        /* \"#utility.yul\":2320:2352   */\n      tag_230\n        /* \"#utility.yul\":2346:2351   */\n      dup2\n        /* \"#utility.yul\":2320:2352   */\n      tag_231\n      jump\t// in\n    tag_230:\n        /* \"#utility.yul\":2315:2318   */\n      dup3\n        /* \"#utility.yul\":2308:2353   */\n      mstore\n        /* \"#utility.yul\":2217:2359   */\n      pop\n      pop\n      jump\t// out\n        /* \"#utility.yul\":2365:2483   */\n    tag_232:\n        /* \"#utility.yul\":2452:2476   */\n      tag_234\n        /* \"#utility.yul\":2470:2475   */\n      dup2\n        /* \"#utility.yul\":2452:2476   */\n      tag_235\n      jump\t// in\n    tag_234:\n        /* \"#utility.yul\":2447:2450   */\n      dup3\n        /* \"#utility.yul\":2440:2477   */\n      mstore\n        /* \"#utility.yul\":2365:2483   */\n      pop\n      pop\n      jump\t// out\n        /* \"#utility.yul\":2489:2598   */\n    tag_236:\n        /* \"#utility.yul\":2570:2591   */\n      tag_238\n        /* \"#utility.yul\":2585:2590   */\n      dup2\n        /* \"#utility.yul\":2570:2591   */\n      tag_239\n      jump\t// in\n    tag_238:\n        /* \"#utility.yul\":2565:2568   */\n      dup3\n        /* \"#utility.yul\":2558:2592   */\n      mstore\n        /* \"#utility.yul\":2489:2598   */\n      pop\n      pop\n      jump\t// out\n        /* \"#utility.yul\":2604:2749   */\n    tag_240:\n        /* \"#utility.yul\":2698:2742   */\n      tag_242\n        /* \"#utility.yul\":2736:2741   */\n      dup2\n        /* \"#utility.yul\":2698:2742   */\n      tag_243\n      jump\t// in\n    tag_242:\n        /* \"#utility.yul\":2693:2696   */\n      dup3\n        /* \"#utility.yul\":2686:2743   */\n      mstore\n        /* \"#utility.yul\":2604:2749   */\n      pop\n      pop\n      jump\t// out\n        /* \"#utility.yul\":2755:3119   */\n    tag_244:\n        /* \"#utility.yul\":2843:2846   */\n      0x00\n        /* \"#utility.yul\":2871:2910   */\n      tag_246\n        /* \"#utility.yul\":2904:2909   */\n      dup3\n        /* \"#utility.yul\":2871:2910   */\n      tag_247\n      jump\t// in\n    tag_246:\n        /* \"#utility.yul\":2926:2997   */\n      tag_248\n        /* \"#utility.yul\":2990:2996   */\n      dup2\n        /* \"#utility.yul\":2985:2988   */\n      dup6\n        /* \"#utility.yul\":2926:2997   */\n      tag_249\n      jump\t// in\n    tag_248:\n        /* \"#utility.yul\":2919:2997   */\n      swap4\n      pop\n        /* \"#utility.yul\":3006:3058   */\n      tag_250\n        /* \"#utility.yul\":3051:3057   */\n      dup2\n        /* \"#utility.yul\":3046:3049   */\n      dup6\n        /* \"#utility.yul\":3039:3043   */\n      0x20\n        /* \"#utility.yul\":3032:3037   */\n      dup7\n        /* \"#utility.yul\":3028:3044   */\n      add\n        /* \"#utility.yul\":3006:3058   */\n      tag_251\n      jump\t// in\n    tag_250:\n        /* \"#utility.yul\":3083:3112   */\n      tag_252\n        /* \"#utility.yul\":3105:3111   */\n      dup2\n        /* \"#utility.yul\":3083:3112   */\n      tag_253\n      jump\t// in\n    tag_252:\n        /* \"#utility.yul\":3078:3081   */\n      dup5\n        /* \"#utility.yul\":3074:3113   */\n      add\n        /* \"#utility.yul\":3067:3113   */\n      swap2\n      pop\n        /* \"#utility.yul\":2847:3119   */\n      pop\n        /* \"#utility.yul\":2755:3119   */\n      swap3\n      swap2\n      pop\n      pop\n      jump\t// out\n        /* \"#utility.yul\":3125:3502   */\n    tag_254:\n        /* \"#utility.yul\":3231:3234   */\n      0x00\n        /* \"#utility.yul\":3259:3298   */\n      tag_256\n        /* \"#utility.yul\":3292:3297   */\n      dup3\n        /* \"#utility.yul\":3259:3298   */\n      tag_247\n      jump\t// in\n    tag_256:\n        /* \"#utility.yul\":3314:3403   */\n      tag_257\n        /* \"#utility.yul\":3396:3402   */\n      dup2\n        /* \"#utility.yul\":3391:3394   */\n      dup6\n        /* \"#utility.yul\":3314:3403   */\n      tag_258\n      jump\t// in\n    tag_257:\n        /* \"#utility.yul\":3307:3403   */\n      swap4\n      pop\n        /* \"#utility.yul\":3412:3464   */\n      tag_259\n        /* \"#utility.yul\":3457:3463   */\n      dup2\n        /* \"#utility.yul\":3452:3455   */\n      dup6\n        /* \"#utility.yul\":3445:3449   */\n      0x20\n        /* \"#utility.yul\":3438:3443   */\n      dup7\n        /* \"#utility.yul\":3434:3450   */\n      add\n        /* \"#utility.yul\":3412:3464   */\n      tag_251\n      jump\t// in\n    tag_259:\n        /* \"#utility.yul\":3489:3495   */\n      dup1\n        /* \"#utility.yul\":3484:3487   */\n      dup5\n        /* \"#utility.yul\":3480:3496   */\n      add\n        /* \"#utility.yul\":3473:3496   */\n      swap2\n      pop\n        /* \"#utility.yul\":3235:3502   */\n      pop\n        /* \"#utility.yul\":3125:3502   */\n      swap3\n      swap2\n      pop\n      pop\n      jump\t// out\n        /* \"#utility.yul\":3508:3874   */\n    tag_260:\n        /* \"#utility.yul\":3650:3653   */\n      0x00\n        /* \"#utility.yul\":3671:3738   */\n      tag_262\n        /* \"#utility.yul\":3735:3737   */\n      0x30\n        /* \"#utility.yul\":3730:3733   */\n      dup4\n        /* \"#utility.yul\":3671:3738   */\n      tag_249\n      jump\t// in\n    tag_262:\n        /* \"#utility.yul\":3664:3738   */\n      swap2\n      pop\n        /* \"#utility.yul\":3747:3840   */\n      tag_263\n        /* \"#utility.yul\":3836:3839   */\n      dup3\n        /* \"#utility.yul\":3747:3840   */\n      tag_264\n      jump\t// in\n    tag_263:\n        /* \"#utility.yul\":3865:3867   */\n      0x40\n        /* \"#utility.yul\":3860:3863   */\n      dup3\n        /* \"#utility.yul\":3856:3868   */\n      add\n        /* \"#utility.yul\":3849:3868   */\n      swap1\n      pop\n        /* \"#utility.yul\":3508:3874   */\n      swap2\n      swap1\n      pop\n      jump\t// out\n        /* \"#utility.yul\":3880:4246   */\n    tag_265:\n        /* \"#utility.yul\":4022:4025   */\n      0x00\n        /* \"#utility.yul\":4043:4110   */\n      tag_267\n        /* \"#utility.yul\":4107:4109   */\n      0x22\n        /* \"#utility.yul\":4102:4105   */\n      dup4\n        /* \"#utility.yul\":4043:4110   */\n      tag_249\n      jump\t// in\n    tag_267:\n        /* \"#utility.yul\":4036:4110   */\n      swap2\n      pop\n        /* \"#utility.yul\":4119:4212   */\n      tag_268\n        /* \"#utility.yul\":4208:4211   */\n      dup3\n        /* \"#utility.yul\":4119:4212   */\n      tag_269\n      jump\t// in\n    tag_268:\n        /* \"#utility.yul\":4237:4239   */\n      0x40\n        /* \"#utility.yul\":4232:4235   */\n      dup3\n        /* \"#utility.yul\":4228:4240   */\n      add\n        /* \"#utility.yul\":4221:4240   */\n      swap1\n      pop\n        /* \"#utility.yul\":3880:4246   */\n      swap2\n      swap1\n      pop\n      jump\t// out\n        /* \"#utility.yul\":4252:4618   */\n    tag_270:\n        /* \"#utility.yul\":4394:4397   */\n      0x00\n        /* \"#utility.yul\":4415:4482   */\n      tag_272\n        /* \"#utility.yul\":4479:4481   */\n      0x20\n        /* \"#utility.yul\":4474:4477   */\n      dup4\n        /* \"#utility.yul\":4415:4482   */\n      tag_249\n      jump\t// in\n    tag_272:\n        /* \"#utility.yul\":4408:4482   */\n      swap2\n      pop\n        /* \"#utility.yul\":4491:4584   */\n      tag_273\n        /* \"#utility.yul\":4580:4583   */\n      dup3\n        /* \"#utility.yul\":4491:4584   */\n      tag_274\n      jump\t// in\n    tag_273:\n        /* \"#utility.yul\":4609:4611   */\n      0x20\n        /* \"#utility.yul\":4604:4607   */\n      dup3\n        /* \"#utility.yul\":4600:4612   */\n      add\n        /* \"#utility.yul\":4593:4612   */\n      swap1\n      pop\n        /* \"#utility.yul\":4252:4618   */\n      swap2\n      swap1\n      pop\n      jump\t// out\n        /* \"#utility.yul\":4624:5026   */\n    tag_275:\n        /* \"#utility.yul\":4784:4787   */\n      0x00\n        /* \"#utility.yul\":4805:4890   */\n      tag_277\n        /* \"#utility.yul\":4887:4889   */\n      0x1f\n        /* \"#utility.yul\":4882:4885   */\n      dup4\n        /* \"#utility.yul\":4805:4890   */\n      tag_258\n      jump\t// in\n    tag_277:\n        /* \"#utility.yul\":4798:4890   */\n      swap2\n      pop\n        /* \"#utility.yul\":4899:4992   */\n      tag_278\n        /* \"#utility.yul\":4988:4991   */\n      dup3\n        /* \"#utility.yul\":4899:4992   */\n      tag_279\n      jump\t// in\n    tag_278:\n        /* \"#utility.yul\":5017:5019   */\n      0x1f\n        /* \"#utility.yul\":5012:5015   */\n      dup3\n        /* \"#utility.yul\":5008:5020   */\n      add\n        /* \"#utility.yul\":5001:5020   */\n      swap1\n      pop\n        /* \"#utility.yul\":4624:5026   */\n      swap2\n      swap1\n      pop\n      jump\t// out\n        /* \"#utility.yul\":5032:5398   */\n    tag_280:\n        /* \"#utility.yul\":5174:5177   */\n      0x00\n        /* \"#utility.yul\":5195:5262   */\n      tag_282\n        /* \"#utility.yul\":5259:5261   */\n      0x22\n        /* \"#utility.yul\":5254:5257   */\n      dup4\n        /* \"#utility.yul\":5195:5262   */\n      tag_249\n      jump\t// in\n    tag_282:\n        /* \"#utility.yul\":5188:5262   */\n      swap2\n      pop\n        /* \"#utility.yul\":5271:5364   */\n      tag_283\n        /* \"#utility.yul\":5360:5363   */\n      dup3\n        /* \"#utility.yul\":5271:5364   */\n      tag_284\n      jump\t// in\n    tag_283:\n        /* \"#utility.yul\":5389:5391   */\n      0x40\n        /* \"#utility.yul\":5384:5387   */\n      dup3\n        /* \"#utility.yul\":5380:5392   */\n      add\n        /* \"#utility.yul\":5373:5392   */\n      swap1\n      pop\n        /* \"#utility.yul\":5032:5398   */\n      swap2\n      swap1\n      pop\n      jump\t// out\n        /* \"#utility.yul\":5404:5770   */\n    tag_285:\n        /* \"#utility.yul\":5546:5549   */\n      0x00\n        /* \"#utility.yul\":5567:5634   */\n      tag_287\n        /* \"#utility.yul\":5631:5633   */\n      0x30\n        /* \"#utility.yul\":5626:5629   */\n      dup4\n        /* \"#utility.yul\":5567:5634   */\n      tag_249\n      jump\t// in\n    tag_287:\n        /* \"#utility.yul\":5560:5634   */\n      swap2\n      pop\n        /* \"#utility.yul\":5643:5736   */\n      tag_288\n        /* \"#utility.yul\":5732:5735   */\n      dup3\n        /* \"#utility.yul\":5643:5736   */\n      tag_289\n      jump\t// in\n    tag_288:\n        /* \"#utility.yul\":5761:5763   */\n      0x40\n        /* \"#utility.yul\":5756:5759   */\n      dup3\n        /* \"#utility.yul\":5752:5764   */\n      add\n        /* \"#utility.yul\":5745:5764   */\n      swap1\n      pop\n        /* \"#utility.yul\":5404:5770   */\n      swap2\n      swap1\n      pop\n      jump\t// out\n        /* \"#utility.yul\":5776:6178   */\n    tag_290:\n        /* \"#utility.yul\":5936:5939   */\n      0x00\n        /* \"#utility.yul\":5957:6042   */\n      tag_292\n        /* \"#utility.yul\":6039:6041   */\n      0x21\n        /* \"#utility.yul\":6034:6037   */\n      dup4\n        /* \"#utility.yul\":5957:6042   */\n      tag_258\n      jump\t// in\n    tag_292:\n        /* \"#utility.yul\":5950:6042   */\n      swap2\n      pop\n        /* \"#utility.yul\":6051:6144   */\n      tag_293\n        /* \"#utility.yul\":6140:6143   */\n      dup3\n        /* \"#utility.yul\":6051:6144   */\n      tag_294\n      jump\t// in\n    tag_293:\n        /* \"#utility.yul\":6169:6171   */\n      0x21\n        /* \"#utility.yul\":6164:6167   */\n      dup3\n        /* \"#utility.yul\":6160:6172   */\n      add\n        /* \"#utility.yul\":6153:6172   */\n      swap1\n      pop\n        /* \"#utility.yul\":5776:6178   */\n      swap2\n      swap1\n      pop\n      jump\t// out\n        /* \"#utility.yul\":6184:6550   */\n    tag_295:\n        /* \"#utility.yul\":6326:6329   */\n      0x00\n        /* \"#utility.yul\":6347:6414   */\n      tag_297\n        /* \"#utility.yul\":6411:6413   */\n      0x1c\n        /* \"#utility.yul\":6406:6409   */\n      dup4\n        /* \"#utility.yul\":6347:6414   */\n      tag_249\n      jump\t// in\n    tag_297:\n        /* \"#utility.yul\":6340:6414   */\n      swap2\n      pop\n        /* \"#utility.yul\":6423:6516   */\n      tag_298\n        /* \"#utility.yul\":6512:6515   */\n      dup3\n        /* \"#utility.yul\":6423:6516   */\n      tag_299\n      jump\t// in\n    tag_298:\n        /* \"#utility.yul\":6541:6543   */\n      0x20\n        /* \"#utility.yul\":6536:6539   */\n      dup3\n        /* \"#utility.yul\":6532:6544   */\n      add\n        /* \"#utility.yul\":6525:6544   */\n      swap1\n      pop\n        /* \"#utility.yul\":6184:6550   */\n      swap2\n      swap1\n      pop\n      jump\t// out\n        /* \"#utility.yul\":6556:6920   */\n    tag_300:\n        /* \"#utility.yul\":6698:6701   */\n      0x00\n        /* \"#utility.yul\":6719:6785   */\n      tag_302\n        /* \"#utility.yul\":6783:6784   */\n      0x00\n        /* \"#utility.yul\":6778:6781   */\n      dup4\n        /* \"#utility.yul\":6719:6785   */\n      tag_249\n      jump\t// in\n    tag_302:\n        /* \"#utility.yul\":6712:6785   */\n      swap2\n      pop\n        /* \"#utility.yul\":6794:6887   */\n      tag_303\n        /* \"#utility.yul\":6883:6886   */\n      dup3\n        /* \"#utility.yul\":6794:6887   */\n      tag_304\n      jump\t// in\n    tag_303:\n        /* \"#utility.yul\":6912:6913   */\n      0x00\n        /* \"#utility.yul\":6907:6910   */\n      dup3\n        /* \"#utility.yul\":6903:6914   */\n      add\n        /* \"#utility.yul\":6896:6914   */\n      swap1\n      pop\n        /* \"#utility.yul\":6556:6920   */\n      swap2\n      swap1\n      pop\n      jump\t// out\n        /* \"#utility.yul\":6926:7292   */\n    tag_305:\n        /* \"#utility.yul\":7068:7071   */\n      0x00\n        /* \"#utility.yul\":7089:7156   */\n      tag_307\n        /* \"#utility.yul\":7153:7155   */\n      0x12\n        /* \"#utility.yul\":7148:7151   */\n      dup4\n        /* \"#utility.yul\":7089:7156   */\n      tag_249\n      jump\t// in\n    tag_307:\n        /* \"#utility.yul\":7082:7156   */\n      swap2\n      pop\n        /* \"#utility.yul\":7165:7258   */\n      tag_308\n        /* \"#utility.yul\":7254:7257   */\n      dup3\n        /* \"#utility.yul\":7165:7258   */\n      tag_309\n      jump\t// in\n    tag_308:\n        /* \"#utility.yul\":7283:7285   */\n      0x20\n        /* \"#utility.yul\":7278:7281   */\n      dup3\n        /* \"#utility.yul\":7274:7286   */\n      add\n        /* \"#utility.yul\":7267:7286   */\n      swap1\n      pop\n        /* \"#utility.yul\":6926:7292   */\n      swap2\n      swap1\n      pop\n      jump\t// out\n        /* \"#utility.yul\":7298:7416   */\n    tag_310:\n        /* \"#utility.yul\":7385:7409   */\n      tag_312\n        /* \"#utility.yul\":7403:7408   */\n      dup2\n        /* \"#utility.yul\":7385:7409   */\n      tag_313\n      jump\t// in\n    tag_312:\n        /* \"#utility.yul\":7380:7383   */\n      dup3\n        /* \"#utility.yul\":7373:7410   */\n      mstore\n        /* \"#utility.yul\":7298:7416   */\n      pop\n      pop\n      jump\t// out\n        /* \"#utility.yul\":7422:7579   */\n    tag_314:\n        /* \"#utility.yul\":7527:7572   */\n      tag_316\n        /* \"#utility.yul\":7547:7571   */\n      tag_317\n        /* \"#utility.yul\":7565:7570   */\n      dup3\n        /* \"#utility.yul\":7547:7571   */\n      tag_313\n      jump\t// in\n    tag_317:\n        /* \"#utility.yul\":7527:7572   */\n      tag_318\n      jump\t// in\n    tag_316:\n        /* \"#utility.yul\":7522:7525   */\n      dup3\n        /* \"#utility.yul\":7515:7573   */\n      mstore\n        /* \"#utility.yul\":7422:7579   */\n      pop\n      pop\n      jump\t// out\n        /* \"#utility.yul\":7585:8020   */\n    tag_187:\n        /* \"#utility.yul\":7765:7768   */\n      0x00\n        /* \"#utility.yul\":7787:7882   */\n      tag_320\n        /* \"#utility.yul\":7878:7881   */\n      dup3\n        /* \"#utility.yul\":7869:7875   */\n      dup6\n        /* \"#utility.yul\":7787:7882   */\n      tag_254\n      jump\t// in\n    tag_320:\n        /* \"#utility.yul\":7780:7882   */\n      swap2\n      pop\n        /* \"#utility.yul\":7899:7994   */\n      tag_321\n        /* \"#utility.yul\":7990:7993   */\n      dup3\n        /* \"#utility.yul\":7981:7987   */\n      dup5\n        /* \"#utility.yul\":7899:7994   */\n      tag_254\n      jump\t// in\n    tag_321:\n        /* \"#utility.yul\":7892:7994   */\n      swap2\n      pop\n        /* \"#utility.yul\":8011:8014   */\n      dup2\n        /* \"#utility.yul\":8004:8014   */\n      swap1\n      pop\n        /* \"#utility.yul\":7585:8020   */\n      swap4\n      swap3\n      pop\n      pop\n      pop\n      jump\t// out\n        /* \"#utility.yul\":8026:8548   */\n    tag_183:\n        /* \"#utility.yul\":8239:8242   */\n      0x00\n        /* \"#utility.yul\":8261:8409   */\n      tag_323\n        /* \"#utility.yul\":8405:8408   */\n      dup3\n        /* \"#utility.yul\":8261:8409   */\n      tag_275\n      jump\t// in\n    tag_323:\n        /* \"#utility.yul\":8254:8409   */\n      swap2\n      pop\n        /* \"#utility.yul\":8419:8494   */\n      tag_324\n        /* \"#utility.yul\":8490:8493   */\n      dup3\n        /* \"#utility.yul\":8481:8487   */\n      dup5\n        /* \"#utility.yul\":8419:8494   */\n      tag_314\n      jump\t// in\n    tag_324:\n        /* \"#utility.yul\":8519:8521   */\n      0x20\n        /* \"#utility.yul\":8514:8517   */\n      dup3\n        /* \"#utility.yul\":8510:8522   */\n      add\n        /* \"#utility.yul\":8503:8522   */\n      swap2\n      pop\n        /* \"#utility.yul\":8539:8542   */\n      dup2\n        /* \"#utility.yul\":8532:8542   */\n      swap1\n      pop\n        /* \"#utility.yul\":8026:8548   */\n      swap3\n      swap2\n      pop\n      pop\n      jump\t// out\n        /* \"#utility.yul\":8554:9076   */\n    tag_185:\n        /* \"#utility.yul\":8767:8770   */\n      0x00\n        /* \"#utility.yul\":8789:8937   */\n      tag_326\n        /* \"#utility.yul\":8933:8936   */\n      dup3\n        /* \"#utility.yul\":8789:8937   */\n      tag_290\n      jump\t// in\n    tag_326:\n        /* \"#utility.yul\":8782:8937   */\n      swap2\n      pop\n        /* \"#utility.yul\":8947:9022   */\n      tag_327\n        /* \"#utility.yul\":9018:9021   */\n      dup3\n        /* \"#utility.yul\":9009:9015   */\n      dup5\n        /* \"#utility.yul\":8947:9022   */\n      tag_314\n      jump\t// in\n    tag_327:\n        /* \"#utility.yul\":9047:9049   */\n      0x20\n        /* \"#utility.yul\":9042:9045   */\n      dup3\n        /* \"#utility.yul\":9038:9050   */\n      add\n        /* \"#utility.yul\":9031:9050   */\n      swap2\n      pop\n        /* \"#utility.yul\":9067:9070   */\n      dup2\n        /* \"#utility.yul\":9060:9070   */\n      swap1\n      pop\n        /* \"#utility.yul\":8554:9076   */\n      swap3\n      swap2\n      pop\n      pop\n      jump\t// out\n        /* \"#utility.yul\":9082:9304   */\n    tag_78:\n        /* \"#utility.yul\":9175:9179   */\n      0x00\n        /* \"#utility.yul\":9213:9215   */\n      0x20\n        /* \"#utility.yul\":9202:9211   */\n      dup3\n        /* \"#utility.yul\":9198:9216   */\n      add\n        /* \"#utility.yul\":9190:9216   */\n      swap1\n      pop\n        /* \"#utility.yul\":9226:9297   */\n      tag_329\n        /* \"#utility.yul\":9294:9295   */\n      0x00\n        /* \"#utility.yul\":9283:9292   */\n      dup4\n        /* \"#utility.yul\":9279:9296   */\n      add\n        /* \"#utility.yul\":9270:9276   */\n      dup5\n        /* \"#utility.yul\":9226:9297   */\n      tag_232\n      jump\t// in\n    tag_329:\n        /* \"#utility.yul\":9082:9304   */\n      swap3\n      swap2\n      pop\n      pop\n      jump\t// out\n        /* \"#utility.yul\":9310:9564   */\n    tag_60:\n        /* \"#utility.yul\":9419:9423   */\n      0x00\n        /* \"#utility.yul\":9457:9459   */\n      0x20\n        /* \"#utility.yul\":9446:9455   */\n      dup3\n        /* \"#utility.yul\":9442:9460   */\n      add\n        /* \"#utility.yul\":9434:9460   */\n      swap1\n      pop\n        /* \"#utility.yul\":9470:9557   */\n      tag_331\n        /* \"#utility.yul\":9554:9555   */\n      0x00\n        /* \"#utility.yul\":9543:9552   */\n      dup4\n        /* \"#utility.yul\":9539:9556   */\n      add\n        /* \"#utility.yul\":9530:9536   */\n      dup5\n        /* \"#utility.yul\":9470:9557   */\n      tag_228\n      jump\t// in\n    tag_331:\n        /* \"#utility.yul\":9310:9564   */\n      swap3\n      swap2\n      pop\n      pop\n      jump\t// out\n        /* \"#utility.yul\":9570:9780   */\n    tag_38:\n        /* \"#utility.yul\":9657:9661   */\n      0x00\n        /* \"#utility.yul\":9695:9697   */\n      0x20\n        /* \"#utility.yul\":9684:9693   */\n      dup3\n        /* \"#utility.yul\":9680:9698   */\n      add\n        /* \"#utility.yul\":9672:9698   */\n      swap1\n      pop\n        /* \"#utility.yul\":9708:9773   */\n      tag_333\n        /* \"#utility.yul\":9770:9771   */\n      0x00\n        /* \"#utility.yul\":9759:9768   */\n      dup4\n        /* \"#utility.yul\":9755:9772   */\n      add\n        /* \"#utility.yul\":9746:9752   */\n      dup5\n        /* \"#utility.yul\":9708:9773   */\n      tag_236\n      jump\t// in\n    tag_333:\n        /* \"#utility.yul\":9570:9780   */\n      swap3\n      swap2\n      pop\n      pop\n      jump\t// out\n        /* \"#utility.yul\":9786:10022   */\n    tag_73:\n        /* \"#utility.yul\":9886:9890   */\n      0x00\n        /* \"#utility.yul\":9924:9926   */\n      0x20\n        /* \"#utility.yul\":9913:9922   */\n      dup3\n        /* \"#utility.yul\":9909:9927   */\n      add\n        /* \"#utility.yul\":9901:9927   */\n      swap1\n      pop\n        /* \"#utility.yul\":9937:10015   */\n      tag_335\n        /* \"#utility.yul\":10012:10013   */\n      0x00\n        /* \"#utility.yul\":10001:10010   */\n      dup4\n        /* \"#utility.yul\":9997:10014   */\n      add\n        /* \"#utility.yul\":9988:9994   */\n      dup5\n        /* \"#utility.yul\":9937:10015   */\n      tag_240\n      jump\t// in\n    tag_335:\n        /* \"#utility.yul\":9786:10022   */\n      swap3\n      swap2\n      pop\n      pop\n      jump\t// out\n        /* \"#utility.yul\":10028:10341   */\n    tag_31:\n        /* \"#utility.yul\":10141:10145   */\n      0x00\n        /* \"#utility.yul\":10179:10181   */\n      0x20\n        /* \"#utility.yul\":10168:10177   */\n      dup3\n        /* \"#utility.yul\":10164:10182   */\n      add\n        /* \"#utility.yul\":10156:10182   */\n      swap1\n      pop\n        /* \"#utility.yul\":10228:10237   */\n      dup2\n        /* \"#utility.yul\":10222:10226   */\n      dup2\n        /* \"#utility.yul\":10218:10238   */\n      sub\n        /* \"#utility.yul\":10214:10215   */\n      0x00\n        /* \"#utility.yul\":10203:10212   */\n      dup4\n        /* \"#utility.yul\":10199:10216   */\n      add\n        /* \"#utility.yul\":10192:10239   */\n      mstore\n        /* \"#utility.yul\":10256:10334   */\n      tag_337\n        /* \"#utility.yul\":10329:10333   */\n      dup2\n        /* \"#utility.yul\":10320:10326   */\n      dup5\n        /* \"#utility.yul\":10256:10334   */\n      tag_244\n      jump\t// in\n    tag_337:\n        /* \"#utility.yul\":10248:10334   */\n      swap1\n      pop\n        /* \"#utility.yul\":10028:10341   */\n      swap3\n      swap2\n      pop\n      pop\n      jump\t// out\n        /* \"#utility.yul\":10347:10766   */\n    tag_148:\n        /* \"#utility.yul\":10513:10517   */\n      0x00\n        /* \"#utility.yul\":10551:10553   */\n      0x20\n        /* \"#utility.yul\":10540:10549   */\n      dup3\n        /* \"#utility.yul\":10536:10554   */\n      add\n        /* \"#utility.yul\":10528:10554   */\n      swap1\n      pop\n        /* \"#utility.yul\":10600:10609   */\n      dup2\n        /* \"#utility.yul\":10594:10598   */\n      dup2\n        /* \"#utility.yul\":10590:10610   */\n      sub\n        /* \"#utility.yul\":10586:10587   */\n      0x00\n        /* \"#utility.yul\":10575:10584   */\n      dup4\n        /* \"#utility.yul\":10571:10588   */\n      add\n        /* \"#utility.yul\":10564:10611   */\n      mstore\n        /* \"#utility.yul\":10628:10759   */\n      tag_339\n        /* \"#utility.yul\":10754:10758   */\n      dup2\n        /* \"#utility.yul\":10628:10759   */\n      tag_260\n      jump\t// in\n    tag_339:\n        /* \"#utility.yul\":10620:10759   */\n      swap1\n      pop\n        /* \"#utility.yul\":10347:10766   */\n      swap2\n      swap1\n      pop\n      jump\t// out\n        /* \"#utility.yul\":10772:11191   */\n    tag_143:\n        /* \"#utility.yul\":10938:10942   */\n      0x00\n        /* \"#utility.yul\":10976:10978   */\n      0x20\n        /* \"#utility.yul\":10965:10974   */\n      dup3\n        /* \"#utility.yul\":10961:10979   */\n      add\n        /* \"#utility.yul\":10953:10979   */\n      swap1\n      pop\n        /* \"#utility.yul\":11025:11034   */\n      dup2\n        /* \"#utility.yul\":11019:11023   */\n      dup2\n        /* \"#utility.yul\":11015:11035   */\n      sub\n        /* \"#utility.yul\":11011:11012   */\n      0x00\n        /* \"#utility.yul\":11000:11009   */\n      dup4\n        /* \"#utility.yul\":10996:11013   */\n      add\n        /* \"#utility.yul\":10989:11036   */\n      mstore\n        /* \"#utility.yul\":11053:11184   */\n      tag_341\n        /* \"#utility.yul\":11179:11183   */\n      dup2\n        /* \"#utility.yul\":11053:11184   */\n      tag_265\n      jump\t// in\n    tag_341:\n        /* \"#utility.yul\":11045:11184   */\n      swap1\n      pop\n        /* \"#utility.yul\":10772:11191   */\n      swap2\n      swap1\n      pop\n      jump\t// out\n        /* \"#utility.yul\":11197:11616   */\n    tag_181:\n        /* \"#utility.yul\":11363:11367   */\n      0x00\n        /* \"#utility.yul\":11401:11403   */\n      0x20\n        /* \"#utility.yul\":11390:11399   */\n      dup3\n        /* \"#utility.yul\":11386:11404   */\n      add\n        /* \"#utility.yul\":11378:11404   */\n      swap1\n      pop\n        /* \"#utility.yul\":11450:11459   */\n      dup2\n        /* \"#utility.yul\":11444:11448   */\n      dup2\n        /* \"#utility.yul\":11440:11460   */\n      sub\n        /* \"#utility.yul\":11436:11437   */\n      0x00\n        /* \"#utility.yul\":11425:11434   */\n      dup4\n        /* \"#utility.yul\":11421:11438   */\n      add\n        /* \"#utility.yul\":11414:11461   */\n      mstore\n        /* \"#utility.yul\":11478:11609   */\n      tag_343\n        /* \"#utility.yul\":11604:11608   */\n      dup2\n        /* \"#utility.yul\":11478:11609   */\n      tag_270\n      jump\t// in\n    tag_343:\n        /* \"#utility.yul\":11470:11609   */\n      swap1\n      pop\n        /* \"#utility.yul\":11197:11616   */\n      swap2\n      swap1\n      pop\n      jump\t// out\n        /* \"#utility.yul\":11622:12041   */\n    tag_177:\n        /* \"#utility.yul\":11788:11792   */\n      0x00\n        /* \"#utility.yul\":11826:11828   */\n      0x20\n        /* \"#utility.yul\":11815:11824   */\n      dup3\n        /* \"#utility.yul\":11811:11829   */\n      add\n        /* \"#utility.yul\":11803:11829   */\n      swap1\n      pop\n        /* \"#utility.yul\":11875:11884   */\n      dup2\n        /* \"#utility.yul\":11869:11873   */\n      dup2\n        /* \"#utility.yul\":11865:11885   */\n      sub\n        /* \"#utility.yul\":11861:11862   */\n      0x00\n        /* \"#utility.yul\":11850:11859   */\n      dup4\n        /* \"#utility.yul\":11846:11863   */\n      add\n        /* \"#utility.yul\":11839:11886   */\n      mstore\n        /* \"#utility.yul\":11903:12034   */\n      tag_345\n        /* \"#utility.yul\":12029:12033   */\n      dup2\n        /* \"#utility.yul\":11903:12034   */\n      tag_280\n      jump\t// in\n    tag_345:\n        /* \"#utility.yul\":11895:12034   */\n      swap1\n      pop\n        /* \"#utility.yul\":11622:12041   */\n      swap2\n      swap1\n      pop\n      jump\t// out\n        /* \"#utility.yul\":12047:12466   */\n    tag_140:\n        /* \"#utility.yul\":12213:12217   */\n      0x00\n        /* \"#utility.yul\":12251:12253   */\n      0x20\n        /* \"#utility.yul\":12240:12249   */\n      dup3\n        /* \"#utility.yul\":12236:12254   */\n      add\n        /* \"#utility.yul\":12228:12254   */\n      swap1\n      pop\n        /* \"#utility.yul\":12300:12309   */\n      dup2\n        /* \"#utility.yul\":12294:12298   */\n      dup2\n        /* \"#utility.yul\":12290:12310   */\n      sub\n        /* \"#utility.yul\":12286:12287   */\n      0x00\n        /* \"#utility.yul\":12275:12284   */\n      dup4\n        /* \"#utility.yul\":12271:12288   */\n      add\n        /* \"#utility.yul\":12264:12311   */\n      mstore\n        /* \"#utility.yul\":12328:12459   */\n      tag_347\n        /* \"#utility.yul\":12454:12458   */\n      dup2\n        /* \"#utility.yul\":12328:12459   */\n      tag_285\n      jump\t// in\n    tag_347:\n        /* \"#utility.yul\":12320:12459   */\n      swap1\n      pop\n        /* \"#utility.yul\":12047:12466   */\n      swap2\n      swap1\n      pop\n      jump\t// out\n        /* \"#utility.yul\":12472:12891   */\n    tag_169:\n        /* \"#utility.yul\":12638:12642   */\n      0x00\n        /* \"#utility.yul\":12676:12678   */\n      0x20\n        /* \"#utility.yul\":12665:12674   */\n      dup3\n        /* \"#utility.yul\":12661:12679   */\n      add\n        /* \"#utility.yul\":12653:12679   */\n      swap1\n      pop\n        /* \"#utility.yul\":12725:12734   */\n      dup2\n        /* \"#utility.yul\":12719:12723   */\n      dup2\n        /* \"#utility.yul\":12715:12735   */\n      sub\n        /* \"#utility.yul\":12711:12712   */\n      0x00\n        /* \"#utility.yul\":12700:12709   */\n      dup4\n        /* \"#utility.yul\":12696:12713   */\n      add\n        /* \"#utility.yul\":12689:12736   */\n      mstore\n        /* \"#utility.yul\":12753:12884   */\n      tag_349\n        /* \"#utility.yul\":12879:12883   */\n      dup2\n        /* \"#utility.yul\":12753:12884   */\n      tag_295\n      jump\t// in\n    tag_349:\n        /* \"#utility.yul\":12745:12884   */\n      swap1\n      pop\n        /* \"#utility.yul\":12472:12891   */\n      swap2\n      swap1\n      pop\n      jump\t// out\n        /* \"#utility.yul\":12897:13316   */\n    tag_194:\n        /* \"#utility.yul\":13063:13067   */\n      0x00\n        /* \"#utility.yul\":13101:13103   */\n      0x20\n        /* \"#utility.yul\":13090:13099   */\n      dup3\n        /* \"#utility.yul\":13086:13104   */\n      add\n        /* \"#utility.yul\":13078:13104   */\n      swap1\n      pop\n        /* \"#utility.yul\":13150:13159   */\n      dup2\n        /* \"#utility.yul\":13144:13148   */\n      dup2\n        /* \"#utility.yul\":13140:13160   */\n      sub\n        /* \"#utility.yul\":13136:13137   */\n      0x00\n        /* \"#utility.yul\":13125:13134   */\n      dup4\n        /* \"#utility.yul\":13121:13138   */\n      add\n        /* \"#utility.yul\":13114:13161   */\n      mstore\n        /* \"#utility.yul\":13178:13309   */\n      tag_351\n        /* \"#utility.yul\":13304:13308   */\n      dup2\n        /* \"#utility.yul\":13178:13309   */\n      tag_300\n      jump\t// in\n    tag_351:\n        /* \"#utility.yul\":13170:13309   */\n      swap1\n      pop\n        /* \"#utility.yul\":12897:13316   */\n      swap2\n      swap1\n      pop\n      jump\t// out\n        /* \"#utility.yul\":13322:13741   */\n    tag_151:\n        /* \"#utility.yul\":13488:13492   */\n      0x00\n        /* \"#utility.yul\":13526:13528   */\n      0x20\n        /* \"#utility.yul\":13515:13524   */\n      dup3\n        /* \"#utility.yul\":13511:13529   */\n      add\n        /* \"#utility.yul\":13503:13529   */\n      swap1\n      pop\n        /* \"#utility.yul\":13575:13584   */\n      dup2\n        /* \"#utility.yul\":13569:13573   */\n      dup2\n        /* \"#utility.yul\":13565:13585   */\n      sub\n        /* \"#utility.yul\":13561:13562   */\n      0x00\n        /* \"#utility.yul\":13550:13559   */\n      dup4\n        /* \"#utility.yul\":13546:13563   */\n      add\n        /* \"#utility.yul\":13539:13586   */\n      mstore\n        /* \"#utility.yul\":13603:13734   */\n      tag_353\n        /* \"#utility.yul\":13729:13733   */\n      dup2\n        /* \"#utility.yul\":13603:13734   */\n      tag_305\n      jump\t// in\n    tag_353:\n        /* \"#utility.yul\":13595:13734   */\n      swap1\n      pop\n        /* \"#utility.yul\":13322:13741   */\n      swap2\n      swap1\n      pop\n      jump\t// out\n        /* \"#utility.yul\":13747:13969   */\n    tag_43:\n        /* \"#utility.yul\":13840:13844   */\n      0x00\n        /* \"#utility.yul\":13878:13880   */\n      0x20\n        /* \"#utility.yul\":13867:13876   */\n      dup3\n        /* \"#utility.yul\":13863:13881   */\n      add\n        /* \"#utility.yul\":13855:13881   */\n      swap1\n      pop\n        /* \"#utility.yul\":13891:13962   */\n      tag_355\n        /* \"#utility.yul\":13959:13960   */\n      0x00\n        /* \"#utility.yul\":13948:13957   */\n      dup4\n        /* \"#utility.yul\":13944:13961   */\n      add\n        /* \"#utility.yul\":13935:13941   */\n      dup5\n        /* \"#utility.yul\":13891:13962   */\n      tag_310\n      jump\t// in\n    tag_355:\n        /* \"#utility.yul\":13747:13969   */\n      swap3\n      swap2\n      pop\n      pop\n      jump\t// out\n        /* \"#utility.yul\":14056:14155   */\n    tag_247:\n        /* \"#utility.yul\":14108:14114   */\n      0x00\n        /* \"#utility.yul\":14142:14147   */\n      dup2\n        /* \"#utility.yul\":14136:14148   */\n      mload\n        /* \"#utility.yul\":14126:14148   */\n      swap1\n      pop\n        /* \"#utility.yul\":14056:14155   */\n      swap2\n      swap1\n      pop\n      jump\t// out\n        /* \"#utility.yul\":14161:14330   */\n    tag_249:\n        /* \"#utility.yul\":14245:14256   */\n      0x00\n        /* \"#utility.yul\":14279:14285   */\n      dup3\n        /* \"#utility.yul\":14274:14277   */\n      dup3\n        /* \"#utility.yul\":14267:14286   */\n      mstore\n        /* \"#utility.yul\":14319:14323   */\n      0x20\n        /* \"#utility.yul\":14314:14317   */\n      dup3\n        /* \"#utility.yul\":14310:14324   */\n      add\n        /* \"#utility.yul\":14295:14324   */\n      swap1\n      pop\n        /* \"#utility.yul\":14161:14330   */\n      swap3\n      swap2\n      pop\n      pop\n      jump\t// out\n        /* \"#utility.yul\":14336:14484   */\n    tag_258:\n        /* \"#utility.yul\":14438:14449   */\n      0x00\n        /* \"#utility.yul\":14475:14478   */\n      dup2\n        /* \"#utility.yul\":14460:14478   */\n      swap1\n      pop\n        /* \"#utility.yul\":14336:14484   */\n      swap3\n      swap2\n      pop\n      pop\n      jump\t// out\n        /* \"#utility.yul\":14490:14795   */\n    tag_158:\n        /* \"#utility.yul\":14530:14533   */\n      0x00\n        /* \"#utility.yul\":14549:14569   */\n      tag_362\n        /* \"#utility.yul\":14567:14568   */\n      dup3\n        /* \"#utility.yul\":14549:14569   */\n      tag_313\n      jump\t// in\n    tag_362:\n        /* \"#utility.yul\":14544:14569   */\n      swap2\n      pop\n        /* \"#utility.yul\":14583:14603   */\n      tag_363\n        /* \"#utility.yul\":14601:14602   */\n      dup4\n        /* \"#utility.yul\":14583:14603   */\n      tag_313\n      jump\t// in\n    tag_363:\n        /* \"#utility.yul\":14578:14603   */\n      swap3\n      pop\n        /* \"#utility.yul\":14737:14738   */\n      dup3\n        /* \"#utility.yul\":14669:14735   */\n      0xffffffffffffffffffffffffffffffffffffffffffffffffffffffffffffffff\n        /* \"#utility.yul\":14665:14739   */\n      sub\n        /* \"#utility.yul\":14662:14663   */\n      dup3\n        /* \"#utility.yul\":14659:14740   */\n      gt\n        /* \"#utility.yul\":14656:14763   */\n      iszero\n      tag_364\n      jumpi\n        /* \"#utility.yul\":14743:14761   */\n      tag_365\n      tag_366\n      jump\t// in\n    tag_365:\n        /* \"#utility.yul\":14656:14763   */\n    tag_364:\n        /* \"#utility.yul\":14787:14788   */\n      dup3\n        /* \"#utility.yul\":14784:14785   */\n      dup3\n        /* \"#utility.yul\":14780:14789   */\n      add\n        /* \"#utility.yul\":14773:14789   */\n      swap1\n      pop\n        /* \"#utility.yul\":14490:14795   */\n      swap3\n      swap2\n      pop\n      pop\n      jump\t// out\n        /* \"#utility.yul\":14801:14992   */\n    tag_155:\n        /* \"#utility.yul\":14841:14845   */\n      0x00\n        /* \"#utility.yul\":14861:14881   */\n      tag_368\n        /* \"#utility.yul\":14879:14880   */\n      dup3\n        /* \"#utility.yul\":14861:14881   */\n      tag_313\n      jump\t// in\n    tag_368:\n        /* \"#utility.yul\":14856:14881   */\n      swap2\n      pop\n        /* \"#utility.yul\":14895:14915   */\n      tag_369\n        /* \"#utility.yul\":14913:14914   */\n      dup4\n        /* \"#utility.yul\":14895:14915   */\n      tag_313\n      jump\t// in\n    tag_369:\n        /* \"#utility.yul\":14890:14915   */\n      swap3\n      pop\n        /* \"#utility.yul\":14934:14935   */\n      dup3\n        /* \"#utility.yul\":14931:14932   */\n      dup3\n        /* \"#utility.yul\":14928:14936   */\n      lt\n        /* \"#utility.yul\":14925:14959   */\n      iszero\n      tag_370\n      jumpi\n        /* \"#utility.yul\":14939:14957   */\n      tag_371\n      tag_366\n      jump\t// in\n    tag_371:\n        /* \"#utility.yul\":14925:14959   */\n    tag_370:\n        /* \"#utility.yul\":14984:14985   */\n      dup3\n        /* \"#utility.yul\":14981:14982   */\n      dup3\n        /* \"#utility.yul\":14977:14986   */\n      sub\n        /* \"#utility.yul\":14969:14986   */\n      swap1\n      pop\n        /* \"#utility.yul\":14801:14992   */\n      swap3\n      swap2\n      pop\n      pop\n      jump\t// out\n        /* \"#utility.yul\":14998:15094   */\n    tag_235:\n        /* \"#utility.yul\":15035:15042   */\n      0x00\n        /* \"#utility.yul\":15064:15088   */\n      tag_373\n        /* \"#utility.yul\":15082:15087   */\n      dup3\n        /* \"#utility.yul\":15064:15088   */\n      tag_374\n      jump\t// in\n    tag_373:\n        /* \"#utility.yul\":15053:15088   */\n      swap1\n      pop\n        /* \"#utility.yul\":14998:15094   */\n      swap2\n      swap1\n      pop\n      jump\t// out\n        /* \"#utility.yul\":15100:15204   */\n    tag_231:\n        /* \"#utility.yul\":15145:15152   */\n      0x00\n        /* \"#utility.yul\":15174:15198   */\n      tag_376\n        /* \"#utility.yul\":15192:15197   */\n      dup3\n        /* \"#utility.yul\":15174:15198   */\n      tag_374\n      jump\t// in\n    tag_376:\n        /* \"#utility.yul\":15163:15198   */\n      swap1\n      pop\n        /* \"#utility.yul\":15100:15204   */\n      swap2\n      swap1\n      pop\n      jump\t// out\n        /* \"#utility.yul\":15210:15300   */\n    tag_239:\n        /* \"#utility.yul\":15244:15251   */\n      0x00\n        /* \"#utility.yul\":15287:15292   */\n      dup2\n        /* \"#utility.yul\":15280:15293   */\n      iszero\n        /* \"#utility.yul\":15273:15294   */\n      iszero\n        /* \"#utility.yul\":15262:15294   */\n      swap1\n      pop\n        /* \"#utility.yul\":15210:15300   */\n      swap2\n      swap1\n      pop\n      jump\t// out\n        /* \"#utility.yul\":15306:15435   */\n    tag_378:\n        /* \"#utility.yul\":15352:15359   */\n      0x00\n        /* \"#utility.yul\":15381:15386   */\n      dup2\n        /* \"#utility.yul\":15370:15386   */\n      swap1\n      pop\n        /* \"#utility.yul\":15387:15429   */\n      tag_380\n        /* \"#utility.yul\":15423:15428   */\n      dup3\n        /* \"#utility.yul\":15387:15429   */\n      tag_381\n      jump\t// in\n    tag_380:\n        /* \"#utility.yul\":15306:15435   */\n      swap2\n      swap1\n      pop\n      jump\t// out\n        /* \"#utility.yul\":15441:15567   */\n    tag_374:\n        /* \"#utility.yul\":15478:15485   */\n      0x00\n        /* \"#utility.yul\":15518:15560   */\n      0xffffffffffffffffffffffffffffffffffffffff\n        /* \"#utility.yul\":15511:15516   */\n      dup3\n        /* \"#utility.yul\":15507:15561   */\n      and\n        /* \"#utility.yul\":15496:15561   */\n      swap1\n      pop\n        /* \"#utility.yul\":15441:15567   */\n      swap2\n      swap1\n      pop\n      jump\t// out\n        /* \"#utility.yul\":15573:15650   */\n    tag_313:\n        /* \"#utility.yul\":15610:15617   */\n      0x00\n        /* \"#utility.yul\":15639:15644   */\n      dup2\n        /* \"#utility.yul\":15628:15644   */\n      swap1\n      pop\n        /* \"#utility.yul\":15573:15650   */\n      swap2\n      swap1\n      pop\n      jump\t// out\n        /* \"#utility.yul\":15656:15785   */\n    tag_243:\n        /* \"#utility.yul\":15713:15722   */\n      0x00\n        /* \"#utility.yul\":15746:15779   */\n      tag_385\n        /* \"#utility.yul\":15773:15778   */\n      dup3\n        /* \"#utility.yul\":15746:15779   */\n      tag_378\n      jump\t// in\n    tag_385:\n        /* \"#utility.yul\":15733:15779   */\n      swap1\n      pop\n        /* \"#utility.yul\":15656:15785   */\n      swap2\n      swap1\n      pop\n      jump\t// out\n        /* \"#utility.yul\":15791:16098   */\n    tag_251:\n        /* \"#utility.yul\":15859:15860   */\n      0x00\n        /* \"#utility.yul\":15869:15982   */\n    tag_387:\n        /* \"#utility.yul\":15883:15889   */\n      dup4\n        /* \"#utility.yul\":15880:15881   */\n      dup2\n        /* \"#utility.yul\":15877:15890   */\n      lt\n        /* \"#utility.yul\":15869:15982   */\n      iszero\n      tag_389\n      jumpi\n        /* \"#utility.yul\":15968:15969   */\n      dup1\n        /* \"#utility.yul\":15963:15966   */\n      dup3\n        /* \"#utility.yul\":15959:15970   */\n      add\n        /* \"#utility.yul\":15953:15971   */\n      mload\n        /* \"#utility.yul\":15949:15950   */\n      dup2\n        /* \"#utility.yul\":15944:15947   */\n      dup5\n        /* \"#utility.yul\":15940:15951   */\n      add\n        /* \"#utility.yul\":15933:15972   */\n      mstore\n        /* \"#utility.yul\":15905:15907   */\n      0x20\n        /* \"#utility.yul\":15902:15903   */\n      dup2\n        /* \"#utility.yul\":15898:15908   */\n      add\n        /* \"#utility.yul\":15893:15908   */\n      swap1\n      pop\n        /* \"#utility.yul\":15869:15982   */\n      jump(tag_387)\n    tag_389:\n        /* \"#utility.yul\":16000:16006   */\n      dup4\n        /* \"#utility.yul\":15997:15998   */\n      dup2\n        /* \"#utility.yul\":15994:16007   */\n      gt\n        /* \"#utility.yul\":15991:16092   */\n      iszero\n      tag_390\n      jumpi\n        /* \"#utility.yul\":16080:16081   */\n      0x00\n        /* \"#utility.yul\":16071:16077   */\n      dup5\n        /* \"#utility.yul\":16066:16069   */\n      dup5\n        /* \"#utility.yul\":16062:16078   */\n      add\n        /* \"#utility.yul\":16055:16082   */\n      mstore\n        /* \"#utility.yul\":15991:16092   */\n    tag_390:\n        /* \"#utility.yul\":15840:16098   */\n      pop\n        /* \"#utility.yul\":15791:16098   */\n      pop\n      pop\n      pop\n      jump\t// out\n        /* \"#utility.yul\":16104:16424   */\n    tag_132:\n        /* \"#utility.yul\":16148:16154   */\n      0x00\n        /* \"#utility.yul\":16185:16186   */\n      0x02\n        /* \"#utility.yul\":16179:16183   */\n      dup3\n        /* \"#utility.yul\":16175:16187   */\n      div\n        /* \"#utility.yul\":16165:16187   */\n      swap1\n      pop\n        /* \"#utility.yul\":16232:16233   */\n      0x01\n        /* \"#utility.yul\":16226:16230   */\n      dup3\n        /* \"#utility.yul\":16222:16234   */\n      and\n        /* \"#utility.yul\":16253:16271   */\n      dup1\n        /* \"#utility.yul\":16243:16324   */\n      tag_392\n      jumpi\n        /* \"#utility.yul\":16309:16313   */\n      0x7f\n        /* \"#utility.yul\":16301:16307   */\n      dup3\n        /* \"#utility.yul\":16297:16314   */\n      and\n        /* \"#utility.yul\":16287:16314   */\n      swap2\n      pop\n        /* \"#utility.yul\":16243:16324   */\n    tag_392:\n        /* \"#utility.yul\":16371:16373   */\n      0x20\n        /* \"#utility.yul\":16363:16369   */\n      dup3\n        /* \"#utility.yul\":16360:16374   */\n      lt\n        /* \"#utility.yul\":16340:16358   */\n      dup2\n        /* \"#utility.yul\":16337:16375   */\n      eq\n        /* \"#utility.yul\":16334:16418   */\n      iszero\n      tag_393\n      jumpi\n        /* \"#utility.yul\":16390:16408   */\n      tag_394\n      tag_395\n      jump\t// in\n    tag_394:\n        /* \"#utility.yul\":16334:16418   */\n    tag_393:\n        /* \"#utility.yul\":16155:16424   */\n      pop\n        /* \"#utility.yul\":16104:16424   */\n      swap2\n      swap1\n      pop\n      jump\t// out\n        /* \"#utility.yul\":16430:16509   */\n    tag_318:\n        /* \"#utility.yul\":16469:16476   */\n      0x00\n        /* \"#utility.yul\":16498:16503   */\n      dup2\n        /* \"#utility.yul\":16487:16503   */\n      swap1\n      pop\n        /* \"#utility.yul\":16430:16509   */\n      swap2\n      swap1\n      pop\n      jump\t// out\n        /* \"#utility.yul\":16515:16695   */\n    tag_366:\n        /* \"#utility.yul\":16563:16640   */\n      0x4e487b7100000000000000000000000000000000000000000000000000000000\n        /* \"#utility.yul\":16560:16561   */\n      0x00\n        /* \"#utility.yul\":16553:16641   */\n      mstore\n        /* \"#utility.yul\":16660:16664   */\n      0x11\n        /* \"#utility.yul\":16657:16658   */\n      0x04\n        /* \"#utility.yul\":16650:16665   */\n      mstore\n        /* \"#utility.yul\":16684:16688   */\n      0x24\n        /* \"#utility.yul\":16681:16682   */\n      0x00\n        /* \"#utility.yul\":16674:16689   */\n      revert\n        /* \"#utility.yul\":16701:16881   */\n    tag_398:\n        /* \"#utility.yul\":16749:16826   */\n      0x4e487b7100000000000000000000000000000000000000000000000000000000\n        /* \"#utility.yul\":16746:16747   */\n      0x00\n        /* \"#utility.yul\":16739:16827   */\n      mstore\n        /* \"#utility.yul\":16846:16850   */\n      0x21\n        /* \"#utility.yul\":16843:16844   */\n      0x04\n        /* \"#utility.yul\":16836:16851   */\n      mstore\n        /* \"#utility.yul\":16870:16874   */\n      0x24\n        /* \"#utility.yul\":16867:16868   */\n      0x00\n        /* \"#utility.yul\":16860:16875   */\n      revert\n        /* \"#utility.yul\":16887:17067   */\n    tag_395:\n        /* \"#utility.yul\":16935:17012   */\n      0x4e487b7100000000000000000000000000000000000000000000000000000000\n        /* \"#utility.yul\":16932:16933   */\n      0x00\n        /* \"#utility.yul\":16925:17013   */\n      mstore\n        /* \"#utility.yul\":17032:17036   */\n      0x22\n        /* \"#utility.yul\":17029:17030   */\n      0x04\n        /* \"#utility.yul\":17022:17037   */\n      mstore\n        /* \"#utility.yul\":17056:17060   */\n      0x24\n        /* \"#utility.yul\":17053:17054   */\n      0x00\n        /* \"#utility.yul\":17046:17061   */\n      revert\n        /* \"#utility.yul\":17196:17313   */\n    tag_210:\n        /* \"#utility.yul\":17305:17306   */\n      0x00\n        /* \"#utility.yul\":17302:17303   */\n      dup1\n        /* \"#utility.yul\":17295:17307   */\n      revert\n        /* \"#utility.yul\":17319:17421   */\n    tag_253:\n        /* \"#utility.yul\":17360:17366   */\n      0x00\n        /* \"#utility.yul\":17411:17413   */\n      0x1f\n        /* \"#utility.yul\":17407:17414   */\n      not\n        /* \"#utility.yul\":17402:17404   */\n      0x1f\n        /* \"#utility.yul\":17395:17400   */\n      dup4\n        /* \"#utility.yul\":17391:17405   */\n      add\n        /* \"#utility.yul\":17387:17415   */\n      and\n        /* \"#utility.yul\":17377:17415   */\n      swap1\n      pop\n        /* \"#utility.yul\":17319:17421   */\n      swap2\n      swap1\n      pop\n      jump\t// out\n        /* \"#utility.yul\":17427:17662   */\n    tag_264:\n        /* \"#utility.yul\":17567:17601   */\n      0x546f6b656e2076616c75652069732067726561746572207468616e2074686520\n        /* \"#utility.yul\":17563:17564   */\n      0x00\n        /* \"#utility.yul\":17555:17561   */\n      dup3\n        /* \"#utility.yul\":17551:17565   */\n      add\n        /* \"#utility.yul\":17544:17602   */\n      mstore\n        /* \"#utility.yul\":17636:17654   */\n      0x617070726f7665642062616c616e636500000000000000000000000000000000\n        /* \"#utility.yul\":17631:17633   */\n      0x20\n        /* \"#utility.yul\":17623:17629   */\n      dup3\n        /* \"#utility.yul\":17619:17634   */\n      add\n        /* \"#utility.yul\":17612:17655   */\n      mstore\n        /* \"#utility.yul\":17427:17662   */\n      pop\n      jump\t// out\n        /* \"#utility.yul\":17668:17889   */\n    tag_269:\n        /* \"#utility.yul\":17808:17842   */\n      0x546f6b656e2076616c7565206d7573742062652067726561746572207468616e\n        /* \"#utility.yul\":17804:17805   */\n      0x00\n        /* \"#utility.yul\":17796:17802   */\n      dup3\n        /* \"#utility.yul\":17792:17806   */\n      add\n        /* \"#utility.yul\":17785:17843   */\n      mstore\n        /* \"#utility.yul\":17877:17881   */\n      0x2030000000000000000000000000000000000000000000000000000000000000\n        /* \"#utility.yul\":17872:17874   */\n      0x20\n        /* \"#utility.yul\":17864:17870   */\n      dup3\n        /* \"#utility.yul\":17860:17875   */\n      add\n        /* \"#utility.yul\":17853:17882   */\n      mstore\n        /* \"#utility.yul\":17668:17889   */\n      pop\n      jump\t// out\n        /* \"#utility.yul\":17895:18077   */\n    tag_274:\n        /* \"#utility.yul\":18035:18069   */\n      0x416d6f756e74206d7573742062652067726561746572207468616e207a65726f\n        /* \"#utility.yul\":18031:18032   */\n      0x00\n        /* \"#utility.yul\":18023:18029   */\n      dup3\n        /* \"#utility.yul\":18019:18033   */\n      add\n        /* \"#utility.yul\":18012:18070   */\n      mstore\n        /* \"#utility.yul\":17895:18077   */\n      pop\n      jump\t// out\n        /* \"#utility.yul\":18083:18264   */\n    tag_279:\n        /* \"#utility.yul\":18223:18256   */\n      0x416d6f756e742063616e6e6f74206e6f74206265206c6f776572207468616e00\n        /* \"#utility.yul\":18219:18220   */\n      0x00\n        /* \"#utility.yul\":18211:18217   */\n      dup3\n        /* \"#utility.yul\":18207:18221   */\n      add\n        /* \"#utility.yul\":18200:18257   */\n      mstore\n        /* \"#utility.yul\":18083:18264   */\n      pop\n      jump\t// out\n        /* \"#utility.yul\":18270:18491   */\n    tag_284:\n        /* \"#utility.yul\":18410:18444   */\n      0x4163636573732064656e6965642c20796f75206165206e6f7420616e2061646d\n        /* \"#utility.yul\":18406:18407   */\n      0x00\n        /* \"#utility.yul\":18398:18404   */\n      dup3\n        /* \"#utility.yul\":18394:18408   */\n      add\n        /* \"#utility.yul\":18387:18445   */\n      mstore\n        /* \"#utility.yul\":18479:18483   */\n      0x696e000000000000000000000000000000000000000000000000000000000000\n        /* \"#utility.yul\":18474:18476   */\n      0x20\n        /* \"#utility.yul\":18466:18472   */\n      dup3\n        /* \"#utility.yul\":18462:18477   */\n      add\n        /* \"#utility.yul\":18455:18484   */\n      mstore\n        /* \"#utility.yul\":18270:18491   */\n      pop\n      jump\t// out\n        /* \"#utility.yul\":18497:18732   */\n    tag_289:\n        /* \"#utility.yul\":18637:18671   */\n      0x546f6b656e2076616c75652069732067726561746572207468616e20796f7572\n        /* \"#utility.yul\":18633:18634   */\n      0x00\n        /* \"#utility.yul\":18625:18631   */\n      dup3\n        /* \"#utility.yul\":18621:18635   */\n      add\n        /* \"#utility.yul\":18614:18672   */\n      mstore\n        /* \"#utility.yul\":18706:18724   */\n      0x2063757272656e7420686f6c64696e6700000000000000000000000000000000\n        /* \"#utility.yul\":18701:18703   */\n      0x20\n        /* \"#utility.yul\":18693:18699   */\n      dup3\n        /* \"#utility.yul\":18689:18704   */\n      add\n        /* \"#utility.yul\":18682:18725   */\n      mstore\n        /* \"#utility.yul\":18497:18732   */\n      pop\n      jump\t// out\n        /* \"#utility.yul\":18738:18958   */\n    tag_294:\n        /* \"#utility.yul\":18878:18912   */\n      0x416d6f756e742063616e6e6f74206e6f74206265206869676768657220746861\n        /* \"#utility.yul\":18874:18875   */\n      0x00\n        /* \"#utility.yul\":18866:18872   */\n      dup3\n        /* \"#utility.yul\":18862:18876   */\n      add\n        /* \"#utility.yul\":18855:18913   */\n      mstore\n        /* \"#utility.yul\":18947:18950   */\n      0x6e00000000000000000000000000000000000000000000000000000000000000\n        /* \"#utility.yul\":18942:18944   */\n      0x20\n        /* \"#utility.yul\":18934:18940   */\n      dup3\n        /* \"#utility.yul\":18930:18945   */\n      add\n        /* \"#utility.yul\":18923:18951   */\n      mstore\n        /* \"#utility.yul\":18738:18958   */\n      pop\n      jump\t// out\n        /* \"#utility.yul\":18964:19142   */\n    tag_299:\n        /* \"#utility.yul\":19104:19134   */\n      0x496e73756666696369656e74204163636f756e742042616c616e636500000000\n        /* \"#utility.yul\":19100:19101   */\n      0x00\n        /* \"#utility.yul\":19092:19098   */\n      dup3\n        /* \"#utility.yul\":19088:19102   */\n      add\n        /* \"#utility.yul\":19081:19135   */\n      mstore\n        /* \"#utility.yul\":18964:19142   */\n      pop\n      jump\t// out\n        /* \"#utility.yul\":19148:19262   */\n    tag_304:\n      pop\n      jump\t// out\n        /* \"#utility.yul\":19268:19436   */\n    tag_309:\n        /* \"#utility.yul\":19408:19428   */\n      0x496e737566696369656e742042616c6e63650000000000000000000000000000\n        /* \"#utility.yul\":19404:19405   */\n      0x00\n        /* \"#utility.yul\":19396:19402   */\n      dup3\n        /* \"#utility.yul\":19392:19406   */\n      add\n        /* \"#utility.yul\":19385:19429   */\n      mstore\n        /* \"#utility.yul\":19268:19436   */\n      pop\n      jump\t// out\n        /* \"#utility.yul\":19442:19556   */\n    tag_381:\n        /* \"#utility.yul\":19524:19525   */\n      0x04\n        /* \"#utility.yul\":19517:19522   */\n      dup2\n        /* \"#utility.yul\":19514:19526   */\n      lt\n        /* \"#utility.yul\":19504:19550   */\n      tag_416\n      jumpi\n        /* \"#utility.yul\":19530:19548   */\n      tag_417\n      tag_398\n      jump\t// in\n    tag_417:\n        /* \"#utility.yul\":19504:19550   */\n    tag_416:\n        /* \"#utility.yul\":19442:19556   */\n      pop\n      jump\t// out\n        /* \"#utility.yul\":19562:19684   */\n    tag_202:\n        /* \"#utility.yul\":19635:19659   */\n      tag_419\n        /* \"#utility.yul\":19653:19658   */\n      dup2\n        /* \"#utility.yul\":19635:19659   */\n      tag_235\n      jump\t// in\n    tag_419:\n        /* \"#utility.yul\":19628:19633   */\n      dup2\n        /* \"#utility.yul\":19625:19660   */\n      eq\n        /* \"#utility.yul\":19615:19678   */\n      tag_420\n      jumpi\n        /* \"#utility.yul\":19674:19675   */\n      0x00\n        /* \"#utility.yul\":19671:19672   */\n      dup1\n        /* \"#utility.yul\":19664:19676   */\n      revert\n        /* \"#utility.yul\":19615:19678   */\n    tag_420:\n        /* \"#utility.yul\":19562:19684   */\n      pop\n      jump\t// out\n        /* \"#utility.yul\":19690:19812   */\n    tag_206:\n        /* \"#utility.yul\":19763:19787   */\n      tag_422\n        /* \"#utility.yul\":19781:19786   */\n      dup2\n        /* \"#utility.yul\":19763:19787   */\n      tag_313\n      jump\t// in\n    tag_422:\n        /* \"#utility.yul\":19756:19761   */\n      dup2\n        /* \"#utility.yul\":19753:19788   */\n      eq\n        /* \"#utility.yul\":19743:19806   */\n      tag_423\n      jumpi\n        /* \"#utility.yul\":19802:19803   */\n      0x00\n        /* \"#utility.yul\":19799:19800   */\n      dup1\n        /* \"#utility.yul\":19792:19804   */\n      revert\n        /* \"#utility.yul\":19743:19806   */\n    tag_423:\n        /* \"#utility.yul\":19690:19812   */\n      pop\n      jump\t// out\n\n    auxdata: 0xa26469706673582212202652bd3fcb0dbac324249a7340e2071929e29f1106dad249a8f9433461accdbb64736f6c63430008070033\n}\n",
				"bytecode": {
					"linkReferences": {},
					"object": "60806040526040518060400160405280600681526020017f5a494c4c41580000000000000000000000000000000000000000000000000000815250600090805190602001906200005192919062000281565b506040518060400160405280600381526020017f5a4c5a0000000000000000000000000000000000000000000000000000000000815250600190805190602001906200009f92919062000281565b506000600255674563918244f4000060095542600a5567016345785d8a0000600c55670de0b6b3a7640000600d55348015620000da57600080fd5b506040516200212b3803806200212b83398181016040528101906200010091906200035f565b620f424060048190555033600360006101000a81548173ffffffffffffffffffffffffffffffffffffffff021916908373ffffffffffffffffffffffffffffffffffffffff16021790555060045460056000600360009054906101000a900473ffffffffffffffffffffffffffffffffffffffff1673ffffffffffffffffffffffffffffffffffffffff1673ffffffffffffffffffffffffffffffffffffffff168152602001908152602001600020819055506000600e60006101000a81548160ff02191690836003811115620001dc57620001db620004a6565b5b021790555033600760006101000a81548173ffffffffffffffffffffffffffffffffffffffff021916908373ffffffffffffffffffffffffffffffffffffffff16021790555081600a54620002329190620003a6565b600b8190555080600e60016101000a81548173ffffffffffffffffffffffffffffffffffffffff021916908373ffffffffffffffffffffffffffffffffffffffff16021790555050506200053d565b8280546200028f9062000441565b90600052602060002090601f016020900481019282620002b35760008555620002ff565b82601f10620002ce57805160ff1916838001178555620002ff565b82800160010185558215620002ff579182015b82811115620002fe578251825591602001919060010190620002e1565b5b5090506200030e919062000312565b5090565b5b808211156200032d57600081600090555060010162000313565b5090565b600081519050620003428162000509565b92915050565b600081519050620003598162000523565b92915050565b6000806040838503121562000379576200037862000504565b5b6000620003898582860162000348565b92505060206200039c8582860162000331565b9150509250929050565b6000620003b38262000437565b9150620003c08362000437565b9250827fffffffffffffffffffffffffffffffffffffffffffffffffffffffffffffffff03821115620003f857620003f762000477565b5b828201905092915050565b6000620004108262000417565b9050919050565b600073ffffffffffffffffffffffffffffffffffffffff82169050919050565b6000819050919050565b600060028204905060018216806200045a57607f821691505b60208210811415620004715762000470620004d5565b5b50919050565b7f4e487b7100000000000000000000000000000000000000000000000000000000600052601160045260246000fd5b7f4e487b7100000000000000000000000000000000000000000000000000000000600052602160045260246000fd5b7f4e487b7100000000000000000000000000000000000000000000000000000000600052602260045260246000fd5b600080fd5b620005148162000403565b81146200052057600080fd5b50565b6200052e8162000437565b81146200053a57600080fd5b50565b611bde806200054d6000396000f3fe6080604052600436106101355760003560e01c806370a08231116100ab578063bb0c82981161006f578063bb0c829814610456578063c59ee1dc14610481578063dd62ed3e146104ac578063e8b5e51f146104e9578063f851a44014610507578063fb86a4041461053257610135565b806370a082311461035b57806378e979251461039857806395d89b41146103c3578063a9059cbb146103ee578063a9bcea611461042b57610135565b806328f833b7116100fd57806328f833b714610247578063313ce567146102725780633197cbb61461029d57806344f38756146102c85780634d853ee5146102f35780635c6581651461031e57610135565b806306fdde031461013a578063095ea7b31461016557806318160ddd146101a257806323b872dd146101cd57806327e235e31461020a575b600080fd5b34801561014657600080fd5b5061014f61055d565b60405161015c91906115b5565b60405180910390f35b34801561017157600080fd5b5061018c6004803603810190610187919061126f565b6105eb565b604051610199919061157f565b60405180910390f35b3480156101ae57600080fd5b506101b76107a2565b6040516101c491906116d7565b60405180910390f35b3480156101d957600080fd5b506101f460048036038101906101ef919061121c565b6107a8565b604051610201919061157f565b60405180910390f35b34801561021657600080fd5b50610231600480360381019061022c91906111af565b610add565b60405161023e91906116d7565b60405180910390f35b34801561025357600080fd5b5061025c610af5565b6040516102699190611564565b60405180910390f35b34801561027e57600080fd5b50610287610b1b565b60405161029491906116d7565b60405180910390f35b3480156102a957600080fd5b506102b2610b21565b6040516102bf91906116d7565b60405180910390f35b3480156102d457600080fd5b506102dd610b27565b6040516102ea919061159a565b60405180910390f35b3480156102ff57600080fd5b50610308610b3a565b6040516103159190611549565b60405180910390f35b34801561032a57600080fd5b50610345600480360381019061034091906111dc565b610b60565b60405161035291906116d7565b60405180910390f35b34801561036757600080fd5b50610382600480360381019061037d91906111af565b610b85565b60405161038f91906116d7565b60405180910390f35b3480156103a457600080fd5b506103ad610bce565b6040516103ba91906116d7565b60405180910390f35b3480156103cf57600080fd5b506103d8610bd4565b6040516103e591906115b5565b60405180910390f35b3480156103fa57600080fd5b506104156004803603810190610410919061126f565b610c62565b604051610422919061157f565b60405180910390f35b34801561043757600080fd5b50610440610e01565b60405161044d91906116d7565b60405180910390f35b34801561046257600080fd5b5061046b610e07565b60405161047891906116d7565b60405180910390f35b34801561048d57600080fd5b50610496610e0d565b6040516104a391906116d7565b60405180910390f35b3480156104b857600080fd5b506104d360048036038101906104ce91906111dc565b610e13565b6040516104e091906116d7565b60405180910390f35b6104f1610e9a565b6040516104fe919061157f565b60405180910390f35b34801561051357600080fd5b5061051c611159565b6040516105299190611549565b60405180910390f35b34801561053e57600080fd5b5061054761117f565b60405161055491906116d7565b60405180910390f35b6000805461056a90611855565b80601f016020809104026020016040519081016040528092919081815260200182805461059690611855565b80156105e35780601f106105b8576101008083540402835291602001916105e3565b820191906000526020600020905b8154815290600101906020018083116105c657829003601f168201915b505050505081565b600081600560003373ffffffffffffffffffffffffffffffffffffffff1673ffffffffffffffffffffffffffffffffffffffff16815260200190815260200160002054101561066f576040517f08c379a000000000000000000000000000000000000000000000000000000000815260040161066690611657565b60405180910390fd5b600082116106b2576040517f08c379a00000000000000000000000000000000000000000000000000000000081526004016106a9906115f7565b60405180910390fd5b81600660003373ffffffffffffffffffffffffffffffffffffffff1673ffffffffffffffffffffffffffffffffffffffff16815260200190815260200160002060008573ffffffffffffffffffffffffffffffffffffffff1673ffffffffffffffffffffffffffffffffffffffff168152602001908152602001600020819055508273ffffffffffffffffffffffffffffffffffffffff163373ffffffffffffffffffffffffffffffffffffffff167f8c5be1e5ebec7d5bd14f71427d1e84f3dd0314c0f7b2291e5b200ac8c7c3b9258460405161079091906116d7565b60405180910390a36001905092915050565b60045481565b600081600660008673ffffffffffffffffffffffffffffffffffffffff1673ffffffffffffffffffffffffffffffffffffffff16815260200190815260200160002060003373ffffffffffffffffffffffffffffffffffffffff1673ffffffffffffffffffffffffffffffffffffffff168152602001908152602001600020541015610869576040517f08c379a0000000000000000000000000000000000000000000000000000000008152600401610860906115d7565b60405180910390fd5b81600560008673ffffffffffffffffffffffffffffffffffffffff1673ffffffffffffffffffffffffffffffffffffffff1681526020019081526020016000205410156108eb576040517f08c379a00000000000000000000000000000000000000000000000000000000081526004016108e2906116b7565b60405180910390fd5b6000821161092e576040517f08c379a0000000000000000000000000000000000000000000000000000000008152600401610925906115f7565b60405180910390fd5b81600660008673ffffffffffffffffffffffffffffffffffffffff1673ffffffffffffffffffffffffffffffffffffffff16815260200190815260200160002060003373ffffffffffffffffffffffffffffffffffffffff1673ffffffffffffffffffffffffffffffffffffffff16815260200190815260200160002060008282546109ba919061176f565b9250508190555081600560008673ffffffffffffffffffffffffffffffffffffffff1673ffffffffffffffffffffffffffffffffffffffff1681526020019081526020016000206000828254610a10919061176f565b9250508190555081600560008573ffffffffffffffffffffffffffffffffffffffff1673ffffffffffffffffffffffffffffffffffffffff1681526020019081526020016000206000828254610a669190611719565b925050819055508273ffffffffffffffffffffffffffffffffffffffff168473ffffffffffffffffffffffffffffffffffffffff167fddf252ad1be2c89b69c2b068fc378daa952ba7f163c4a11628f55a4df523b3ef84604051610aca91906116d7565b60405180910390a3600190509392505050565b60056020528060005260406000206000915090505481565b600e60019054906101000a900473ffffffffffffffffffffffffffffffffffffffff1681565b60025481565b600b5481565b600e60009054906101000a900460ff1681565b600360009054906101000a900473ffffffffffffffffffffffffffffffffffffffff1681565b6006602052816000526040600020602052806000526040600020600091509150505481565b6000600560008373ffffffffffffffffffffffffffffffffffffffff1673ffffffffffffffffffffffffffffffffffffffff168152602001908152602001600020549050919050565b600a5481565b60018054610be190611855565b80601f0160208091040260200160405190810160405280929190818152602001828054610c0d90611855565b8015610c5a5780601f10610c2f57610100808354040283529160200191610c5a565b820191906000526020600020905b815481529060010190602001808311610c3d57829003601f168201915b505050505081565b600081600560003373ffffffffffffffffffffffffffffffffffffffff1673ffffffffffffffffffffffffffffffffffffffff168152602001908152602001600020541015610ce6576040517f08c379a0000000000000000000000000000000000000000000000000000000008152600401610cdd90611677565b60405180910390fd5b81600560008573ffffffffffffffffffffffffffffffffffffffff1673ffffffffffffffffffffffffffffffffffffffff1681526020019081526020016000206000828254610d359190611719565b9250508190555081600560003373ffffffffffffffffffffffffffffffffffffffff1673ffffffffffffffffffffffffffffffffffffffff1681526020019081526020016000206000828254610d8b919061176f565b925050819055508273ffffffffffffffffffffffffffffffffffffffff163373ffffffffffffffffffffffffffffffffffffffff167fddf252ad1be2c89b69c2b068fc378daa952ba7f163c4a11628f55a4df523b3ef84604051610def91906116d7565b60405180910390a36001905092915050565b600d5481565b600c5481565b60085481565b6000600660008473ffffffffffffffffffffffffffffffffffffffff1673ffffffffffffffffffffffffffffffffffffffff16815260200190815260200160002060008373ffffffffffffffffffffffffffffffffffffffff1673ffffffffffffffffffffffffffffffffffffffff16815260200190815260200160002054905092915050565b6000600760009054906101000a900473ffffffffffffffffffffffffffffffffffffffff1673ffffffffffffffffffffffffffffffffffffffff163373ffffffffffffffffffffffffffffffffffffffff1614610f2c576040517f08c379a0000000000000000000000000000000000000000000000000000000008152600401610f2390611637565b60405180910390fd5b60003411610f6f576040517f08c379a0000000000000000000000000000000000000000000000000000000008152600401610f6690611617565b60405180910390fd5b6000600c54604051602001610f8491906114fd565b60405160208183030381529060405290506000600d54604051602001610faa9190611523565b604051602081830303815290604052905060008282604051602001610fd09291906114d9565b6040516020818303038152906040529050600c543410158015610ff55750600d543411155b8190611037576040517f08c379a000000000000000000000000000000000000000000000000000000000815260040161102e91906115b5565b60405180910390fd5b506000346008546110489190611719565b905060095481111561108f576040517f08c379a000000000000000000000000000000000000000000000000000000000815260040161108690611697565b60405180910390fd5b34600560003373ffffffffffffffffffffffffffffffffffffffff1673ffffffffffffffffffffffffffffffffffffffff16815260200190815260200160002060008282546110de9190611719565b92505081905550600e60019054906101000a900473ffffffffffffffffffffffffffffffffffffffff1673ffffffffffffffffffffffffffffffffffffffff166108fc349081150290604051600060405180830381858888f1935050505015801561114d573d6000803e3d6000fd5b50600194505050505090565b600760009054906101000a900473ffffffffffffffffffffffffffffffffffffffff1681565b60095481565b60008135905061119481611b7a565b92915050565b6000813590506111a981611b91565b92915050565b6000602082840312156111c5576111c461191e565b5b60006111d384828501611185565b91505092915050565b600080604083850312156111f3576111f261191e565b5b600061120185828601611185565b925050602061121285828601611185565b9150509250929050565b6000806000606084860312156112355761123461191e565b5b600061124386828701611185565b935050602061125486828701611185565b92505060406112658682870161119a565b9150509250925092565b600080604083850312156112865761128561191e565b5b600061129485828601611185565b92505060206112a58582860161119a565b9150509250929050565b6112b8816117b5565b82525050565b6112c7816117a3565b82525050565b6112d6816117c7565b82525050565b6112e581611810565b82525050565b60006112f6826116f2565b61130081856116fd565b9350611310818560208601611822565b61131981611923565b840191505092915050565b600061132f826116f2565b611339818561170e565b9350611349818560208601611822565b80840191505092915050565b60006113626030836116fd565b915061136d82611934565b604082019050919050565b60006113856022836116fd565b915061139082611983565b604082019050919050565b60006113a86020836116fd565b91506113b3826119d2565b602082019050919050565b60006113cb601f8361170e565b91506113d6826119fb565b601f82019050919050565b60006113ee6022836116fd565b91506113f982611a24565b604082019050919050565b60006114116030836116fd565b915061141c82611a73565b604082019050919050565b600061143460218361170e565b915061143f82611ac2565b602182019050919050565b6000611457601c836116fd565b915061146282611b11565b602082019050919050565b600061147a6000836116fd565b915061148582611b3a565b600082019050919050565b600061149d6012836116fd565b91506114a882611b3d565b602082019050919050565b6114bc81611806565b82525050565b6114d36114ce82611806565b611887565b82525050565b60006114e58285611324565b91506114f18284611324565b91508190509392505050565b6000611508826113be565b915061151482846114c2565b60208201915081905092915050565b600061152e82611427565b915061153a82846114c2565b60208201915081905092915050565b600060208201905061155e60008301846112be565b92915050565b600060208201905061157960008301846112af565b92915050565b600060208201905061159460008301846112cd565b92915050565b60006020820190506115af60008301846112dc565b92915050565b600060208201905081810360008301526115cf81846112eb565b905092915050565b600060208201905081810360008301526115f081611355565b9050919050565b6000602082019050818103600083015261161081611378565b9050919050565b600060208201905081810360008301526116308161139b565b9050919050565b60006020820190508181036000830152611650816113e1565b9050919050565b6000602082019050818103600083015261167081611404565b9050919050565b600060208201905081810360008301526116908161144a565b9050919050565b600060208201905081810360008301526116b08161146d565b9050919050565b600060208201905081810360008301526116d081611490565b9050919050565b60006020820190506116ec60008301846114b3565b92915050565b600081519050919050565b600082825260208201905092915050565b600081905092915050565b600061172482611806565b915061172f83611806565b9250827fffffffffffffffffffffffffffffffffffffffffffffffffffffffffffffffff0382111561176457611763611891565b5b828201905092915050565b600061177a82611806565b915061178583611806565b92508282101561179857611797611891565b5b828203905092915050565b60006117ae826117e6565b9050919050565b60006117c0826117e6565b9050919050565b60008115159050919050565b60008190506117e182611b66565b919050565b600073ffffffffffffffffffffffffffffffffffffffff82169050919050565b6000819050919050565b600061181b826117d3565b9050919050565b60005b83811015611840578082015181840152602081019050611825565b8381111561184f576000848401525b50505050565b6000600282049050600182168061186d57607f821691505b60208210811415611881576118806118ef565b5b50919050565b6000819050919050565b7f4e487b7100000000000000000000000000000000000000000000000000000000600052601160045260246000fd5b7f4e487b7100000000000000000000000000000000000000000000000000000000600052602160045260246000fd5b7f4e487b7100000000000000000000000000000000000000000000000000000000600052602260045260246000fd5b600080fd5b6000601f19601f8301169050919050565b7f546f6b656e2076616c75652069732067726561746572207468616e207468652060008201527f617070726f7665642062616c616e636500000000000000000000000000000000602082015250565b7f546f6b656e2076616c7565206d7573742062652067726561746572207468616e60008201527f2030000000000000000000000000000000000000000000000000000000000000602082015250565b7f416d6f756e74206d7573742062652067726561746572207468616e207a65726f600082015250565b7f416d6f756e742063616e6e6f74206e6f74206265206c6f776572207468616e00600082015250565b7f4163636573732064656e6965642c20796f75206165206e6f7420616e2061646d60008201527f696e000000000000000000000000000000000000000000000000000000000000602082015250565b7f546f6b656e2076616c75652069732067726561746572207468616e20796f757260008201527f2063757272656e7420686f6c64696e6700000000000000000000000000000000602082015250565b7f416d6f756e742063616e6e6f74206e6f7420626520686967676865722074686160008201527f6e00000000000000000000000000000000000000000000000000000000000000602082015250565b7f496e73756666696369656e74204163636f756e742042616c616e636500000000600082015250565b50565b7f496e737566696369656e742042616c6e63650000000000000000000000000000600082015250565b60048110611b7757611b766118c0565b5b50565b611b83816117a3565b8114611b8e57600080fd5b50565b611b9a81611806565b8114611ba557600080fd5b5056fea26469706673582212202652bd3fcb0dbac324249a7340e2071929e29f1106dad249a8f9433461accdbb64736f6c63430008070033",
					"opcodes": "PUSH1 0x80 PUSH1 0x40 MSTORE PUSH1 0x40 MLOAD DUP1 PUSH1 0x40 ADD PUSH1 0x40 MSTORE DUP1 PUSH1 0x6 DUP2 MSTORE PUSH1 0x20 ADD PUSH32 0x5A494C4C41580000000000000000000000000000000000000000000000000000 DUP2 MSTORE POP PUSH1 0x0 SWAP1 DUP1 MLOAD SWAP1 PUSH1 0x20 ADD SWAP1 PUSH3 0x51 SWAP3 SWAP2 SWAP1 PUSH3 0x281 JUMP JUMPDEST POP PUSH1 0x40 MLOAD DUP1 PUSH1 0x40 ADD PUSH1 0x40 MSTORE DUP1 PUSH1 0x3 DUP2 MSTORE PUSH1 0x20 ADD PUSH32 0x5A4C5A0000000000000000000000000000000000000000000000000000000000 DUP2 MSTORE POP PUSH1 0x1 SWAP1 DUP1 MLOAD SWAP1 PUSH1 0x20 ADD SWAP1 PUSH3 0x9F SWAP3 SWAP2 SWAP1 PUSH3 0x281 JUMP JUMPDEST POP PUSH1 0x0 PUSH1 0x2 SSTORE PUSH8 0x4563918244F40000 PUSH1 0x9 SSTORE TIMESTAMP PUSH1 0xA SSTORE PUSH8 0x16345785D8A0000 PUSH1 0xC SSTORE PUSH8 0xDE0B6B3A7640000 PUSH1 0xD SSTORE CALLVALUE DUP1 ISZERO PUSH3 0xDA JUMPI PUSH1 0x0 DUP1 REVERT JUMPDEST POP PUSH1 0x40 MLOAD PUSH3 0x212B CODESIZE SUB DUP1 PUSH3 0x212B DUP4 CODECOPY DUP2 DUP2 ADD PUSH1 0x40 MSTORE DUP2 ADD SWAP1 PUSH3 0x100 SWAP2 SWAP1 PUSH3 0x35F JUMP JUMPDEST PUSH3 0xF4240 PUSH1 0x4 DUP2 SWAP1 SSTORE POP CALLER PUSH1 0x3 PUSH1 0x0 PUSH2 0x100 EXP DUP2 SLOAD DUP2 PUSH20 0xFFFFFFFFFFFFFFFFFFFFFFFFFFFFFFFFFFFFFFFF MUL NOT AND SWAP1 DUP4 PUSH20 0xFFFFFFFFFFFFFFFFFFFFFFFFFFFFFFFFFFFFFFFF AND MUL OR SWAP1 SSTORE POP PUSH1 0x4 SLOAD PUSH1 0x5 PUSH1 0x0 PUSH1 0x3 PUSH1 0x0 SWAP1 SLOAD SWAP1 PUSH2 0x100 EXP SWAP1 DIV PUSH20 0xFFFFFFFFFFFFFFFFFFFFFFFFFFFFFFFFFFFFFFFF AND PUSH20 0xFFFFFFFFFFFFFFFFFFFFFFFFFFFFFFFFFFFFFFFF AND PUSH20 0xFFFFFFFFFFFFFFFFFFFFFFFFFFFFFFFFFFFFFFFF AND DUP2 MSTORE PUSH1 0x20 ADD SWAP1 DUP2 MSTORE PUSH1 0x20 ADD PUSH1 0x0 KECCAK256 DUP2 SWAP1 SSTORE POP PUSH1 0x0 PUSH1 0xE PUSH1 0x0 PUSH2 0x100 EXP DUP2 SLOAD DUP2 PUSH1 0xFF MUL NOT AND SWAP1 DUP4 PUSH1 0x3 DUP2 GT ISZERO PUSH3 0x1DC JUMPI PUSH3 0x1DB PUSH3 0x4A6 JUMP JUMPDEST JUMPDEST MUL OR SWAP1 SSTORE POP CALLER PUSH1 0x7 PUSH1 0x0 PUSH2 0x100 EXP DUP2 SLOAD DUP2 PUSH20 0xFFFFFFFFFFFFFFFFFFFFFFFFFFFFFFFFFFFFFFFF MUL NOT AND SWAP1 DUP4 PUSH20 0xFFFFFFFFFFFFFFFFFFFFFFFFFFFFFFFFFFFFFFFF AND MUL OR SWAP1 SSTORE POP DUP2 PUSH1 0xA SLOAD PUSH3 0x232 SWAP2 SWAP1 PUSH3 0x3A6 JUMP JUMPDEST PUSH1 0xB DUP2 SWAP1 SSTORE POP DUP1 PUSH1 0xE PUSH1 0x1 PUSH2 0x100 EXP DUP2 SLOAD DUP2 PUSH20 0xFFFFFFFFFFFFFFFFFFFFFFFFFFFFFFFFFFFFFFFF MUL NOT AND SWAP1 DUP4 PUSH20 0xFFFFFFFFFFFFFFFFFFFFFFFFFFFFFFFFFFFFFFFF AND MUL OR SWAP1 SSTORE POP POP POP PUSH3 0x53D JUMP JUMPDEST DUP3 DUP1 SLOAD PUSH3 0x28F SWAP1 PUSH3 0x441 JUMP JUMPDEST SWAP1 PUSH1 0x0 MSTORE PUSH1 0x20 PUSH1 0x0 KECCAK256 SWAP1 PUSH1 0x1F ADD PUSH1 0x20 SWAP1 DIV DUP2 ADD SWAP3 DUP3 PUSH3 0x2B3 JUMPI PUSH1 0x0 DUP6 SSTORE PUSH3 0x2FF JUMP JUMPDEST DUP3 PUSH1 0x1F LT PUSH3 0x2CE JUMPI DUP1 MLOAD PUSH1 0xFF NOT AND DUP4 DUP1 ADD OR DUP6 SSTORE PUSH3 0x2FF JUMP JUMPDEST DUP3 DUP1 ADD PUSH1 0x1 ADD DUP6 SSTORE DUP3 ISZERO PUSH3 0x2FF JUMPI SWAP2 DUP3 ADD JUMPDEST DUP3 DUP2 GT ISZERO PUSH3 0x2FE JUMPI DUP3 MLOAD DUP3 SSTORE SWAP2 PUSH1 0x20 ADD SWAP2 SWAP1 PUSH1 0x1 ADD SWAP1 PUSH3 0x2E1 JUMP JUMPDEST JUMPDEST POP SWAP1 POP PUSH3 0x30E SWAP2 SWAP1 PUSH3 0x312 JUMP JUMPDEST POP SWAP1 JUMP JUMPDEST JUMPDEST DUP1 DUP3 GT ISZERO PUSH3 0x32D JUMPI PUSH1 0x0 DUP2 PUSH1 0x0 SWAP1 SSTORE POP PUSH1 0x1 ADD PUSH3 0x313 JUMP JUMPDEST POP SWAP1 JUMP JUMPDEST PUSH1 0x0 DUP2 MLOAD SWAP1 POP PUSH3 0x342 DUP2 PUSH3 0x509 JUMP JUMPDEST SWAP3 SWAP2 POP POP JUMP JUMPDEST PUSH1 0x0 DUP2 MLOAD SWAP1 POP PUSH3 0x359 DUP2 PUSH3 0x523 JUMP JUMPDEST SWAP3 SWAP2 POP POP JUMP JUMPDEST PUSH1 0x0 DUP1 PUSH1 0x40 DUP4 DUP6 SUB SLT ISZERO PUSH3 0x379 JUMPI PUSH3 0x378 PUSH3 0x504 JUMP JUMPDEST JUMPDEST PUSH1 0x0 PUSH3 0x389 DUP6 DUP3 DUP7 ADD PUSH3 0x348 JUMP JUMPDEST SWAP3 POP POP PUSH1 0x20 PUSH3 0x39C DUP6 DUP3 DUP7 ADD PUSH3 0x331 JUMP JUMPDEST SWAP2 POP POP SWAP3 POP SWAP3 SWAP1 POP JUMP JUMPDEST PUSH1 0x0 PUSH3 0x3B3 DUP3 PUSH3 0x437 JUMP JUMPDEST SWAP2 POP PUSH3 0x3C0 DUP4 PUSH3 0x437 JUMP JUMPDEST SWAP3 POP DUP3 PUSH32 0xFFFFFFFFFFFFFFFFFFFFFFFFFFFFFFFFFFFFFFFFFFFFFFFFFFFFFFFFFFFFFFFF SUB DUP3 GT ISZERO PUSH3 0x3F8 JUMPI PUSH3 0x3F7 PUSH3 0x477 JUMP JUMPDEST JUMPDEST DUP3 DUP3 ADD SWAP1 POP SWAP3 SWAP2 POP POP JUMP JUMPDEST PUSH1 0x0 PUSH3 0x410 DUP3 PUSH3 0x417 JUMP JUMPDEST SWAP1 POP SWAP2 SWAP1 POP JUMP JUMPDEST PUSH1 0x0 PUSH20 0xFFFFFFFFFFFFFFFFFFFFFFFFFFFFFFFFFFFFFFFF DUP3 AND SWAP1 POP SWAP2 SWAP1 POP JUMP JUMPDEST PUSH1 0x0 DUP2 SWAP1 POP SWAP2 SWAP1 POP JUMP JUMPDEST PUSH1 0x0 PUSH1 0x2 DUP3 DIV SWAP1 POP PUSH1 0x1 DUP3 AND DUP1 PUSH3 0x45A JUMPI PUSH1 0x7F DUP3 AND SWAP2 POP JUMPDEST PUSH1 0x20 DUP3 LT DUP2 EQ ISZERO PUSH3 0x471 JUMPI PUSH3 0x470 PUSH3 0x4D5 JUMP JUMPDEST JUMPDEST POP SWAP2 SWAP1 POP JUMP JUMPDEST PUSH32 0x4E487B7100000000000000000000000000000000000000000000000000000000 PUSH1 0x0 MSTORE PUSH1 0x11 PUSH1 0x4 MSTORE PUSH1 0x24 PUSH1 0x0 REVERT JUMPDEST PUSH32 0x4E487B7100000000000000000000000000000000000000000000000000000000 PUSH1 0x0 MSTORE PUSH1 0x21 PUSH1 0x4 MSTORE PUSH1 0x24 PUSH1 0x0 REVERT JUMPDEST PUSH32 0x4E487B7100000000000000000000000000000000000000000000000000000000 PUSH1 0x0 MSTORE PUSH1 0x22 PUSH1 0x4 MSTORE PUSH1 0x24 PUSH1 0x0 REVERT JUMPDEST PUSH1 0x0 DUP1 REVERT JUMPDEST PUSH3 0x514 DUP2 PUSH3 0x403 JUMP JUMPDEST DUP2 EQ PUSH3 0x520 JUMPI PUSH1 0x0 DUP1 REVERT JUMPDEST POP JUMP JUMPDEST PUSH3 0x52E DUP2 PUSH3 0x437 JUMP JUMPDEST DUP2 EQ PUSH3 0x53A JUMPI PUSH1 0x0 DUP1 REVERT JUMPDEST POP JUMP JUMPDEST PUSH2 0x1BDE DUP1 PUSH3 0x54D PUSH1 0x0 CODECOPY PUSH1 0x0 RETURN INVALID PUSH1 0x80 PUSH1 0x40 MSTORE PUSH1 0x4 CALLDATASIZE LT PUSH2 0x135 JUMPI PUSH1 0x0 CALLDATALOAD PUSH1 0xE0 SHR DUP1 PUSH4 0x70A08231 GT PUSH2 0xAB JUMPI DUP1 PUSH4 0xBB0C8298 GT PUSH2 0x6F JUMPI DUP1 PUSH4 0xBB0C8298 EQ PUSH2 0x456 JUMPI DUP1 PUSH4 0xC59EE1DC EQ PUSH2 0x481 JUMPI DUP1 PUSH4 0xDD62ED3E EQ PUSH2 0x4AC JUMPI DUP1 PUSH4 0xE8B5E51F EQ PUSH2 0x4E9 JUMPI DUP1 PUSH4 0xF851A440 EQ PUSH2 0x507 JUMPI DUP1 PUSH4 0xFB86A404 EQ PUSH2 0x532 JUMPI PUSH2 0x135 JUMP JUMPDEST DUP1 PUSH4 0x70A08231 EQ PUSH2 0x35B JUMPI DUP1 PUSH4 0x78E97925 EQ PUSH2 0x398 JUMPI DUP1 PUSH4 0x95D89B41 EQ PUSH2 0x3C3 JUMPI DUP1 PUSH4 0xA9059CBB EQ PUSH2 0x3EE JUMPI DUP1 PUSH4 0xA9BCEA61 EQ PUSH2 0x42B JUMPI PUSH2 0x135 JUMP JUMPDEST DUP1 PUSH4 0x28F833B7 GT PUSH2 0xFD JUMPI DUP1 PUSH4 0x28F833B7 EQ PUSH2 0x247 JUMPI DUP1 PUSH4 0x313CE567 EQ PUSH2 0x272 JUMPI DUP1 PUSH4 0x3197CBB6 EQ PUSH2 0x29D JUMPI DUP1 PUSH4 0x44F38756 EQ PUSH2 0x2C8 JUMPI DUP1 PUSH4 0x4D853EE5 EQ PUSH2 0x2F3 JUMPI DUP1 PUSH4 0x5C658165 EQ PUSH2 0x31E JUMPI PUSH2 0x135 JUMP JUMPDEST DUP1 PUSH4 0x6FDDE03 EQ PUSH2 0x13A JUMPI DUP1 PUSH4 0x95EA7B3 EQ PUSH2 0x165 JUMPI DUP1 PUSH4 0x18160DDD EQ PUSH2 0x1A2 JUMPI DUP1 PUSH4 0x23B872DD EQ PUSH2 0x1CD JUMPI DUP1 PUSH4 0x27E235E3 EQ PUSH2 0x20A JUMPI JUMPDEST PUSH1 0x0 DUP1 REVERT JUMPDEST CALLVALUE DUP1 ISZERO PUSH2 0x146 JUMPI PUSH1 0x0 DUP1 REVERT JUMPDEST POP PUSH2 0x14F PUSH2 0x55D JUMP JUMPDEST PUSH1 0x40 MLOAD PUSH2 0x15C SWAP2 SWAP1 PUSH2 0x15B5 JUMP JUMPDEST PUSH1 0x40 MLOAD DUP1 SWAP2 SUB SWAP1 RETURN JUMPDEST CALLVALUE DUP1 ISZERO PUSH2 0x171 JUMPI PUSH1 0x0 DUP1 REVERT JUMPDEST POP PUSH2 0x18C PUSH1 0x4 DUP1 CALLDATASIZE SUB DUP2 ADD SWAP1 PUSH2 0x187 SWAP2 SWAP1 PUSH2 0x126F JUMP JUMPDEST PUSH2 0x5EB JUMP JUMPDEST PUSH1 0x40 MLOAD PUSH2 0x199 SWAP2 SWAP1 PUSH2 0x157F JUMP JUMPDEST PUSH1 0x40 MLOAD DUP1 SWAP2 SUB SWAP1 RETURN JUMPDEST CALLVALUE DUP1 ISZERO PUSH2 0x1AE JUMPI PUSH1 0x0 DUP1 REVERT JUMPDEST POP PUSH2 0x1B7 PUSH2 0x7A2 JUMP JUMPDEST PUSH1 0x40 MLOAD PUSH2 0x1C4 SWAP2 SWAP1 PUSH2 0x16D7 JUMP JUMPDEST PUSH1 0x40 MLOAD DUP1 SWAP2 SUB SWAP1 RETURN JUMPDEST CALLVALUE DUP1 ISZERO PUSH2 0x1D9 JUMPI PUSH1 0x0 DUP1 REVERT JUMPDEST POP PUSH2 0x1F4 PUSH1 0x4 DUP1 CALLDATASIZE SUB DUP2 ADD SWAP1 PUSH2 0x1EF SWAP2 SWAP1 PUSH2 0x121C JUMP JUMPDEST PUSH2 0x7A8 JUMP JUMPDEST PUSH1 0x40 MLOAD PUSH2 0x201 SWAP2 SWAP1 PUSH2 0x157F JUMP JUMPDEST PUSH1 0x40 MLOAD DUP1 SWAP2 SUB SWAP1 RETURN JUMPDEST CALLVALUE DUP1 ISZERO PUSH2 0x216 JUMPI PUSH1 0x0 DUP1 REVERT JUMPDEST POP PUSH2 0x231 PUSH1 0x4 DUP1 CALLDATASIZE SUB DUP2 ADD SWAP1 PUSH2 0x22C SWAP2 SWAP1 PUSH2 0x11AF JUMP JUMPDEST PUSH2 0xADD JUMP JUMPDEST PUSH1 0x40 MLOAD PUSH2 0x23E SWAP2 SWAP1 PUSH2 0x16D7 JUMP JUMPDEST PUSH1 0x40 MLOAD DUP1 SWAP2 SUB SWAP1 RETURN JUMPDEST CALLVALUE DUP1 ISZERO PUSH2 0x253 JUMPI PUSH1 0x0 DUP1 REVERT JUMPDEST POP PUSH2 0x25C PUSH2 0xAF5 JUMP JUMPDEST PUSH1 0x40 MLOAD PUSH2 0x269 SWAP2 SWAP1 PUSH2 0x1564 JUMP JUMPDEST PUSH1 0x40 MLOAD DUP1 SWAP2 SUB SWAP1 RETURN JUMPDEST CALLVALUE DUP1 ISZERO PUSH2 0x27E JUMPI PUSH1 0x0 DUP1 REVERT JUMPDEST POP PUSH2 0x287 PUSH2 0xB1B JUMP JUMPDEST PUSH1 0x40 MLOAD PUSH2 0x294 SWAP2 SWAP1 PUSH2 0x16D7 JUMP JUMPDEST PUSH1 0x40 MLOAD DUP1 SWAP2 SUB SWAP1 RETURN JUMPDEST CALLVALUE DUP1 ISZERO PUSH2 0x2A9 JUMPI PUSH1 0x0 DUP1 REVERT JUMPDEST POP PUSH2 0x2B2 PUSH2 0xB21 JUMP JUMPDEST PUSH1 0x40 MLOAD PUSH2 0x2BF SWAP2 SWAP1 PUSH2 0x16D7 JUMP JUMPDEST PUSH1 0x40 MLOAD DUP1 SWAP2 SUB SWAP1 RETURN JUMPDEST CALLVALUE DUP1 ISZERO PUSH2 0x2D4 JUMPI PUSH1 0x0 DUP1 REVERT JUMPDEST POP PUSH2 0x2DD PUSH2 0xB27 JUMP JUMPDEST PUSH1 0x40 MLOAD PUSH2 0x2EA SWAP2 SWAP1 PUSH2 0x159A JUMP JUMPDEST PUSH1 0x40 MLOAD DUP1 SWAP2 SUB SWAP1 RETURN JUMPDEST CALLVALUE DUP1 ISZERO PUSH2 0x2FF JUMPI PUSH1 0x0 DUP1 REVERT JUMPDEST POP PUSH2 0x308 PUSH2 0xB3A JUMP JUMPDEST PUSH1 0x40 MLOAD PUSH2 0x315 SWAP2 SWAP1 PUSH2 0x1549 JUMP JUMPDEST PUSH1 0x40 MLOAD DUP1 SWAP2 SUB SWAP1 RETURN JUMPDEST CALLVALUE DUP1 ISZERO PUSH2 0x32A JUMPI PUSH1 0x0 DUP1 REVERT JUMPDEST POP PUSH2 0x345 PUSH1 0x4 DUP1 CALLDATASIZE SUB DUP2 ADD SWAP1 PUSH2 0x340 SWAP2 SWAP1 PUSH2 0x11DC JUMP JUMPDEST PUSH2 0xB60 JUMP JUMPDEST PUSH1 0x40 MLOAD PUSH2 0x352 SWAP2 SWAP1 PUSH2 0x16D7 JUMP JUMPDEST PUSH1 0x40 MLOAD DUP1 SWAP2 SUB SWAP1 RETURN JUMPDEST CALLVALUE DUP1 ISZERO PUSH2 0x367 JUMPI PUSH1 0x0 DUP1 REVERT JUMPDEST POP PUSH2 0x382 PUSH1 0x4 DUP1 CALLDATASIZE SUB DUP2 ADD SWAP1 PUSH2 0x37D SWAP2 SWAP1 PUSH2 0x11AF JUMP JUMPDEST PUSH2 0xB85 JUMP JUMPDEST PUSH1 0x40 MLOAD PUSH2 0x38F SWAP2 SWAP1 PUSH2 0x16D7 JUMP JUMPDEST PUSH1 0x40 MLOAD DUP1 SWAP2 SUB SWAP1 RETURN JUMPDEST CALLVALUE DUP1 ISZERO PUSH2 0x3A4 JUMPI PUSH1 0x0 DUP1 REVERT JUMPDEST POP PUSH2 0x3AD PUSH2 0xBCE JUMP JUMPDEST PUSH1 0x40 MLOAD PUSH2 0x3BA SWAP2 SWAP1 PUSH2 0x16D7 JUMP JUMPDEST PUSH1 0x40 MLOAD DUP1 SWAP2 SUB SWAP1 RETURN JUMPDEST CALLVALUE DUP1 ISZERO PUSH2 0x3CF JUMPI PUSH1 0x0 DUP1 REVERT JUMPDEST POP PUSH2 0x3D8 PUSH2 0xBD4 JUMP JUMPDEST PUSH1 0x40 MLOAD PUSH2 0x3E5 SWAP2 SWAP1 PUSH2 0x15B5 JUMP JUMPDEST PUSH1 0x40 MLOAD DUP1 SWAP2 SUB SWAP1 RETURN JUMPDEST CALLVALUE DUP1 ISZERO PUSH2 0x3FA JUMPI PUSH1 0x0 DUP1 REVERT JUMPDEST POP PUSH2 0x415 PUSH1 0x4 DUP1 CALLDATASIZE SUB DUP2 ADD SWAP1 PUSH2 0x410 SWAP2 SWAP1 PUSH2 0x126F JUMP JUMPDEST PUSH2 0xC62 JUMP JUMPDEST PUSH1 0x40 MLOAD PUSH2 0x422 SWAP2 SWAP1 PUSH2 0x157F JUMP JUMPDEST PUSH1 0x40 MLOAD DUP1 SWAP2 SUB SWAP1 RETURN JUMPDEST CALLVALUE DUP1 ISZERO PUSH2 0x437 JUMPI PUSH1 0x0 DUP1 REVERT JUMPDEST POP PUSH2 0x440 PUSH2 0xE01 JUMP JUMPDEST PUSH1 0x40 MLOAD PUSH2 0x44D SWAP2 SWAP1 PUSH2 0x16D7 JUMP JUMPDEST PUSH1 0x40 MLOAD DUP1 SWAP2 SUB SWAP1 RETURN JUMPDEST CALLVALUE DUP1 ISZERO PUSH2 0x462 JUMPI PUSH1 0x0 DUP1 REVERT JUMPDEST POP PUSH2 0x46B PUSH2 0xE07 JUMP JUMPDEST PUSH1 0x40 MLOAD PUSH2 0x478 SWAP2 SWAP1 PUSH2 0x16D7 JUMP JUMPDEST PUSH1 0x40 MLOAD DUP1 SWAP2 SUB SWAP1 RETURN JUMPDEST CALLVALUE DUP1 ISZERO PUSH2 0x48D JUMPI PUSH1 0x0 DUP1 REVERT JUMPDEST POP PUSH2 0x496 PUSH2 0xE0D JUMP JUMPDEST PUSH1 0x40 MLOAD PUSH2 0x4A3 SWAP2 SWAP1 PUSH2 0x16D7 JUMP JUMPDEST PUSH1 0x40 MLOAD DUP1 SWAP2 SUB SWAP1 RETURN JUMPDEST CALLVALUE DUP1 ISZERO PUSH2 0x4B8 JUMPI PUSH1 0x0 DUP1 REVERT JUMPDEST POP PUSH2 0x4D3 PUSH1 0x4 DUP1 CALLDATASIZE SUB DUP2 ADD SWAP1 PUSH2 0x4CE SWAP2 SWAP1 PUSH2 0x11DC JUMP JUMPDEST PUSH2 0xE13 JUMP JUMPDEST PUSH1 0x40 MLOAD PUSH2 0x4E0 SWAP2 SWAP1 PUSH2 0x16D7 JUMP JUMPDEST PUSH1 0x40 MLOAD DUP1 SWAP2 SUB SWAP1 RETURN JUMPDEST PUSH2 0x4F1 PUSH2 0xE9A JUMP JUMPDEST PUSH1 0x40 MLOAD PUSH2 0x4FE SWAP2 SWAP1 PUSH2 0x157F JUMP JUMPDEST PUSH1 0x40 MLOAD DUP1 SWAP2 SUB SWAP1 RETURN JUMPDEST CALLVALUE DUP1 ISZERO PUSH2 0x513 JUMPI PUSH1 0x0 DUP1 REVERT JUMPDEST POP PUSH2 0x51C PUSH2 0x1159 JUMP JUMPDEST PUSH1 0x40 MLOAD PUSH2 0x529 SWAP2 SWAP1 PUSH2 0x1549 JUMP JUMPDEST PUSH1 0x40 MLOAD DUP1 SWAP2 SUB SWAP1 RETURN JUMPDEST CALLVALUE DUP1 ISZERO PUSH2 0x53E JUMPI PUSH1 0x0 DUP1 REVERT JUMPDEST POP PUSH2 0x547 PUSH2 0x117F JUMP JUMPDEST PUSH1 0x40 MLOAD PUSH2 0x554 SWAP2 SWAP1 PUSH2 0x16D7 JUMP JUMPDEST PUSH1 0x40 MLOAD DUP1 SWAP2 SUB SWAP1 RETURN JUMPDEST PUSH1 0x0 DUP1 SLOAD PUSH2 0x56A SWAP1 PUSH2 0x1855 JUMP JUMPDEST DUP1 PUSH1 0x1F ADD PUSH1 0x20 DUP1 SWAP2 DIV MUL PUSH1 0x20 ADD PUSH1 0x40 MLOAD SWAP1 DUP2 ADD PUSH1 0x40 MSTORE DUP1 SWAP3 SWAP2 SWAP1 DUP2 DUP2 MSTORE PUSH1 0x20 ADD DUP3 DUP1 SLOAD PUSH2 0x596 SWAP1 PUSH2 0x1855 JUMP JUMPDEST DUP1 ISZERO PUSH2 0x5E3 JUMPI DUP1 PUSH1 0x1F LT PUSH2 0x5B8 JUMPI PUSH2 0x100 DUP1 DUP4 SLOAD DIV MUL DUP4 MSTORE SWAP2 PUSH1 0x20 ADD SWAP2 PUSH2 0x5E3 JUMP JUMPDEST DUP3 ADD SWAP2 SWAP1 PUSH1 0x0 MSTORE PUSH1 0x20 PUSH1 0x0 KECCAK256 SWAP1 JUMPDEST DUP2 SLOAD DUP2 MSTORE SWAP1 PUSH1 0x1 ADD SWAP1 PUSH1 0x20 ADD DUP1 DUP4 GT PUSH2 0x5C6 JUMPI DUP3 SWAP1 SUB PUSH1 0x1F AND DUP3 ADD SWAP2 JUMPDEST POP POP POP POP POP DUP2 JUMP JUMPDEST PUSH1 0x0 DUP2 PUSH1 0x5 PUSH1 0x0 CALLER PUSH20 0xFFFFFFFFFFFFFFFFFFFFFFFFFFFFFFFFFFFFFFFF AND PUSH20 0xFFFFFFFFFFFFFFFFFFFFFFFFFFFFFFFFFFFFFFFF AND DUP2 MSTORE PUSH1 0x20 ADD SWAP1 DUP2 MSTORE PUSH1 0x20 ADD PUSH1 0x0 KECCAK256 SLOAD LT ISZERO PUSH2 0x66F JUMPI PUSH1 0x40 MLOAD PUSH32 0x8C379A000000000000000000000000000000000000000000000000000000000 DUP2 MSTORE PUSH1 0x4 ADD PUSH2 0x666 SWAP1 PUSH2 0x1657 JUMP JUMPDEST PUSH1 0x40 MLOAD DUP1 SWAP2 SUB SWAP1 REVERT JUMPDEST PUSH1 0x0 DUP3 GT PUSH2 0x6B2 JUMPI PUSH1 0x40 MLOAD PUSH32 0x8C379A000000000000000000000000000000000000000000000000000000000 DUP2 MSTORE PUSH1 0x4 ADD PUSH2 0x6A9 SWAP1 PUSH2 0x15F7 JUMP JUMPDEST PUSH1 0x40 MLOAD DUP1 SWAP2 SUB SWAP1 REVERT JUMPDEST DUP2 PUSH1 0x6 PUSH1 0x0 CALLER PUSH20 0xFFFFFFFFFFFFFFFFFFFFFFFFFFFFFFFFFFFFFFFF AND PUSH20 0xFFFFFFFFFFFFFFFFFFFFFFFFFFFFFFFFFFFFFFFF AND DUP2 MSTORE PUSH1 0x20 ADD SWAP1 DUP2 MSTORE PUSH1 0x20 ADD PUSH1 0x0 KECCAK256 PUSH1 0x0 DUP6 PUSH20 0xFFFFFFFFFFFFFFFFFFFFFFFFFFFFFFFFFFFFFFFF AND PUSH20 0xFFFFFFFFFFFFFFFFFFFFFFFFFFFFFFFFFFFFFFFF AND DUP2 MSTORE PUSH1 0x20 ADD SWAP1 DUP2 MSTORE PUSH1 0x20 ADD PUSH1 0x0 KECCAK256 DUP2 SWAP1 SSTORE POP DUP3 PUSH20 0xFFFFFFFFFFFFFFFFFFFFFFFFFFFFFFFFFFFFFFFF AND CALLER PUSH20 0xFFFFFFFFFFFFFFFFFFFFFFFFFFFFFFFFFFFFFFFF AND PUSH32 0x8C5BE1E5EBEC7D5BD14F71427D1E84F3DD0314C0F7B2291E5B200AC8C7C3B925 DUP5 PUSH1 0x40 MLOAD PUSH2 0x790 SWAP2 SWAP1 PUSH2 0x16D7 JUMP JUMPDEST PUSH1 0x40 MLOAD DUP1 SWAP2 SUB SWAP1 LOG3 PUSH1 0x1 SWAP1 POP SWAP3 SWAP2 POP POP JUMP JUMPDEST PUSH1 0x4 SLOAD DUP2 JUMP JUMPDEST PUSH1 0x0 DUP2 PUSH1 0x6 PUSH1 0x0 DUP7 PUSH20 0xFFFFFFFFFFFFFFFFFFFFFFFFFFFFFFFFFFFFFFFF AND PUSH20 0xFFFFFFFFFFFFFFFFFFFFFFFFFFFFFFFFFFFFFFFF AND DUP2 MSTORE PUSH1 0x20 ADD SWAP1 DUP2 MSTORE PUSH1 0x20 ADD PUSH1 0x0 KECCAK256 PUSH1 0x0 CALLER PUSH20 0xFFFFFFFFFFFFFFFFFFFFFFFFFFFFFFFFFFFFFFFF AND PUSH20 0xFFFFFFFFFFFFFFFFFFFFFFFFFFFFFFFFFFFFFFFF AND DUP2 MSTORE PUSH1 0x20 ADD SWAP1 DUP2 MSTORE PUSH1 0x20 ADD PUSH1 0x0 KECCAK256 SLOAD LT ISZERO PUSH2 0x869 JUMPI PUSH1 0x40 MLOAD PUSH32 0x8C379A000000000000000000000000000000000000000000000000000000000 DUP2 MSTORE PUSH1 0x4 ADD PUSH2 0x860 SWAP1 PUSH2 0x15D7 JUMP JUMPDEST PUSH1 0x40 MLOAD DUP1 SWAP2 SUB SWAP1 REVERT JUMPDEST DUP2 PUSH1 0x5 PUSH1 0x0 DUP7 PUSH20 0xFFFFFFFFFFFFFFFFFFFFFFFFFFFFFFFFFFFFFFFF AND PUSH20 0xFFFFFFFFFFFFFFFFFFFFFFFFFFFFFFFFFFFFFFFF AND DUP2 MSTORE PUSH1 0x20 ADD SWAP1 DUP2 MSTORE PUSH1 0x20 ADD PUSH1 0x0 KECCAK256 SLOAD LT ISZERO PUSH2 0x8EB JUMPI PUSH1 0x40 MLOAD PUSH32 0x8C379A000000000000000000000000000000000000000000000000000000000 DUP2 MSTORE PUSH1 0x4 ADD PUSH2 0x8E2 SWAP1 PUSH2 0x16B7 JUMP JUMPDEST PUSH1 0x40 MLOAD DUP1 SWAP2 SUB SWAP1 REVERT JUMPDEST PUSH1 0x0 DUP3 GT PUSH2 0x92E JUMPI PUSH1 0x40 MLOAD PUSH32 0x8C379A000000000000000000000000000000000000000000000000000000000 DUP2 MSTORE PUSH1 0x4 ADD PUSH2 0x925 SWAP1 PUSH2 0x15F7 JUMP JUMPDEST PUSH1 0x40 MLOAD DUP1 SWAP2 SUB SWAP1 REVERT JUMPDEST DUP2 PUSH1 0x6 PUSH1 0x0 DUP7 PUSH20 0xFFFFFFFFFFFFFFFFFFFFFFFFFFFFFFFFFFFFFFFF AND PUSH20 0xFFFFFFFFFFFFFFFFFFFFFFFFFFFFFFFFFFFFFFFF AND DUP2 MSTORE PUSH1 0x20 ADD SWAP1 DUP2 MSTORE PUSH1 0x20 ADD PUSH1 0x0 KECCAK256 PUSH1 0x0 CALLER PUSH20 0xFFFFFFFFFFFFFFFFFFFFFFFFFFFFFFFFFFFFFFFF AND PUSH20 0xFFFFFFFFFFFFFFFFFFFFFFFFFFFFFFFFFFFFFFFF AND DUP2 MSTORE PUSH1 0x20 ADD SWAP1 DUP2 MSTORE PUSH1 0x20 ADD PUSH1 0x0 KECCAK256 PUSH1 0x0 DUP3 DUP3 SLOAD PUSH2 0x9BA SWAP2 SWAP1 PUSH2 0x176F JUMP JUMPDEST SWAP3 POP POP DUP2 SWAP1 SSTORE POP DUP2 PUSH1 0x5 PUSH1 0x0 DUP7 PUSH20 0xFFFFFFFFFFFFFFFFFFFFFFFFFFFFFFFFFFFFFFFF AND PUSH20 0xFFFFFFFFFFFFFFFFFFFFFFFFFFFFFFFFFFFFFFFF AND DUP2 MSTORE PUSH1 0x20 ADD SWAP1 DUP2 MSTORE PUSH1 0x20 ADD PUSH1 0x0 KECCAK256 PUSH1 0x0 DUP3 DUP3 SLOAD PUSH2 0xA10 SWAP2 SWAP1 PUSH2 0x176F JUMP JUMPDEST SWAP3 POP POP DUP2 SWAP1 SSTORE POP DUP2 PUSH1 0x5 PUSH1 0x0 DUP6 PUSH20 0xFFFFFFFFFFFFFFFFFFFFFFFFFFFFFFFFFFFFFFFF AND PUSH20 0xFFFFFFFFFFFFFFFFFFFFFFFFFFFFFFFFFFFFFFFF AND DUP2 MSTORE PUSH1 0x20 ADD SWAP1 DUP2 MSTORE PUSH1 0x20 ADD PUSH1 0x0 KECCAK256 PUSH1 0x0 DUP3 DUP3 SLOAD PUSH2 0xA66 SWAP2 SWAP1 PUSH2 0x1719 JUMP JUMPDEST SWAP3 POP POP DUP2 SWAP1 SSTORE POP DUP3 PUSH20 0xFFFFFFFFFFFFFFFFFFFFFFFFFFFFFFFFFFFFFFFF AND DUP5 PUSH20 0xFFFFFFFFFFFFFFFFFFFFFFFFFFFFFFFFFFFFFFFF AND PUSH32 0xDDF252AD1BE2C89B69C2B068FC378DAA952BA7F163C4A11628F55A4DF523B3EF DUP5 PUSH1 0x40 MLOAD PUSH2 0xACA SWAP2 SWAP1 PUSH2 0x16D7 JUMP JUMPDEST PUSH1 0x40 MLOAD DUP1 SWAP2 SUB SWAP1 LOG3 PUSH1 0x1 SWAP1 POP SWAP4 SWAP3 POP POP POP JUMP JUMPDEST PUSH1 0x5 PUSH1 0x20 MSTORE DUP1 PUSH1 0x0 MSTORE PUSH1 0x40 PUSH1 0x0 KECCAK256 PUSH1 0x0 SWAP2 POP SWAP1 POP SLOAD DUP2 JUMP JUMPDEST PUSH1 0xE PUSH1 0x1 SWAP1 SLOAD SWAP1 PUSH2 0x100 EXP SWAP1 DIV PUSH20 0xFFFFFFFFFFFFFFFFFFFFFFFFFFFFFFFFFFFFFFFF AND DUP2 JUMP JUMPDEST PUSH1 0x2 SLOAD DUP2 JUMP JUMPDEST PUSH1 0xB SLOAD DUP2 JUMP JUMPDEST PUSH1 0xE PUSH1 0x0 SWAP1 SLOAD SWAP1 PUSH2 0x100 EXP SWAP1 DIV PUSH1 0xFF AND DUP2 JUMP JUMPDEST PUSH1 0x3 PUSH1 0x0 SWAP1 SLOAD SWAP1 PUSH2 0x100 EXP SWAP1 DIV PUSH20 0xFFFFFFFFFFFFFFFFFFFFFFFFFFFFFFFFFFFFFFFF AND DUP2 JUMP JUMPDEST PUSH1 0x6 PUSH1 0x20 MSTORE DUP2 PUSH1 0x0 MSTORE PUSH1 0x40 PUSH1 0x0 KECCAK256 PUSH1 0x20 MSTORE DUP1 PUSH1 0x0 MSTORE PUSH1 0x40 PUSH1 0x0 KECCAK256 PUSH1 0x0 SWAP2 POP SWAP2 POP POP SLOAD DUP2 JUMP JUMPDEST PUSH1 0x0 PUSH1 0x5 PUSH1 0x0 DUP4 PUSH20 0xFFFFFFFFFFFFFFFFFFFFFFFFFFFFFFFFFFFFFFFF AND PUSH20 0xFFFFFFFFFFFFFFFFFFFFFFFFFFFFFFFFFFFFFFFF AND DUP2 MSTORE PUSH1 0x20 ADD SWAP1 DUP2 MSTORE PUSH1 0x20 ADD PUSH1 0x0 KECCAK256 SLOAD SWAP1 POP SWAP2 SWAP1 POP JUMP JUMPDEST PUSH1 0xA SLOAD DUP2 JUMP JUMPDEST PUSH1 0x1 DUP1 SLOAD PUSH2 0xBE1 SWAP1 PUSH2 0x1855 JUMP JUMPDEST DUP1 PUSH1 0x1F ADD PUSH1 0x20 DUP1 SWAP2 DIV MUL PUSH1 0x20 ADD PUSH1 0x40 MLOAD SWAP1 DUP2 ADD PUSH1 0x40 MSTORE DUP1 SWAP3 SWAP2 SWAP1 DUP2 DUP2 MSTORE PUSH1 0x20 ADD DUP3 DUP1 SLOAD PUSH2 0xC0D SWAP1 PUSH2 0x1855 JUMP JUMPDEST DUP1 ISZERO PUSH2 0xC5A JUMPI DUP1 PUSH1 0x1F LT PUSH2 0xC2F JUMPI PUSH2 0x100 DUP1 DUP4 SLOAD DIV MUL DUP4 MSTORE SWAP2 PUSH1 0x20 ADD SWAP2 PUSH2 0xC5A JUMP JUMPDEST DUP3 ADD SWAP2 SWAP1 PUSH1 0x0 MSTORE PUSH1 0x20 PUSH1 0x0 KECCAK256 SWAP1 JUMPDEST DUP2 SLOAD DUP2 MSTORE SWAP1 PUSH1 0x1 ADD SWAP1 PUSH1 0x20 ADD DUP1 DUP4 GT PUSH2 0xC3D JUMPI DUP3 SWAP1 SUB PUSH1 0x1F AND DUP3 ADD SWAP2 JUMPDEST POP POP POP POP POP DUP2 JUMP JUMPDEST PUSH1 0x0 DUP2 PUSH1 0x5 PUSH1 0x0 CALLER PUSH20 0xFFFFFFFFFFFFFFFFFFFFFFFFFFFFFFFFFFFFFFFF AND PUSH20 0xFFFFFFFFFFFFFFFFFFFFFFFFFFFFFFFFFFFFFFFF AND DUP2 MSTORE PUSH1 0x20 ADD SWAP1 DUP2 MSTORE PUSH1 0x20 ADD PUSH1 0x0 KECCAK256 SLOAD LT ISZERO PUSH2 0xCE6 JUMPI PUSH1 0x40 MLOAD PUSH32 0x8C379A000000000000000000000000000000000000000000000000000000000 DUP2 MSTORE PUSH1 0x4 ADD PUSH2 0xCDD SWAP1 PUSH2 0x1677 JUMP JUMPDEST PUSH1 0x40 MLOAD DUP1 SWAP2 SUB SWAP1 REVERT JUMPDEST DUP2 PUSH1 0x5 PUSH1 0x0 DUP6 PUSH20 0xFFFFFFFFFFFFFFFFFFFFFFFFFFFFFFFFFFFFFFFF AND PUSH20 0xFFFFFFFFFFFFFFFFFFFFFFFFFFFFFFFFFFFFFFFF AND DUP2 MSTORE PUSH1 0x20 ADD SWAP1 DUP2 MSTORE PUSH1 0x20 ADD PUSH1 0x0 KECCAK256 PUSH1 0x0 DUP3 DUP3 SLOAD PUSH2 0xD35 SWAP2 SWAP1 PUSH2 0x1719 JUMP JUMPDEST SWAP3 POP POP DUP2 SWAP1 SSTORE POP DUP2 PUSH1 0x5 PUSH1 0x0 CALLER PUSH20 0xFFFFFFFFFFFFFFFFFFFFFFFFFFFFFFFFFFFFFFFF AND PUSH20 0xFFFFFFFFFFFFFFFFFFFFFFFFFFFFFFFFFFFFFFFF AND DUP2 MSTORE PUSH1 0x20 ADD SWAP1 DUP2 MSTORE PUSH1 0x20 ADD PUSH1 0x0 KECCAK256 PUSH1 0x0 DUP3 DUP3 SLOAD PUSH2 0xD8B SWAP2 SWAP1 PUSH2 0x176F JUMP JUMPDEST SWAP3 POP POP DUP2 SWAP1 SSTORE POP DUP3 PUSH20 0xFFFFFFFFFFFFFFFFFFFFFFFFFFFFFFFFFFFFFFFF AND CALLER PUSH20 0xFFFFFFFFFFFFFFFFFFFFFFFFFFFFFFFFFFFFFFFF AND PUSH32 0xDDF252AD1BE2C89B69C2B068FC378DAA952BA7F163C4A11628F55A4DF523B3EF DUP5 PUSH1 0x40 MLOAD PUSH2 0xDEF SWAP2 SWAP1 PUSH2 0x16D7 JUMP JUMPDEST PUSH1 0x40 MLOAD DUP1 SWAP2 SUB SWAP1 LOG3 PUSH1 0x1 SWAP1 POP SWAP3 SWAP2 POP POP JUMP JUMPDEST PUSH1 0xD SLOAD DUP2 JUMP JUMPDEST PUSH1 0xC SLOAD DUP2 JUMP JUMPDEST PUSH1 0x8 SLOAD DUP2 JUMP JUMPDEST PUSH1 0x0 PUSH1 0x6 PUSH1 0x0 DUP5 PUSH20 0xFFFFFFFFFFFFFFFFFFFFFFFFFFFFFFFFFFFFFFFF AND PUSH20 0xFFFFFFFFFFFFFFFFFFFFFFFFFFFFFFFFFFFFFFFF AND DUP2 MSTORE PUSH1 0x20 ADD SWAP1 DUP2 MSTORE PUSH1 0x20 ADD PUSH1 0x0 KECCAK256 PUSH1 0x0 DUP4 PUSH20 0xFFFFFFFFFFFFFFFFFFFFFFFFFFFFFFFFFFFFFFFF AND PUSH20 0xFFFFFFFFFFFFFFFFFFFFFFFFFFFFFFFFFFFFFFFF AND DUP2 MSTORE PUSH1 0x20 ADD SWAP1 DUP2 MSTORE PUSH1 0x20 ADD PUSH1 0x0 KECCAK256 SLOAD SWAP1 POP SWAP3 SWAP2 POP POP JUMP JUMPDEST PUSH1 0x0 PUSH1 0x7 PUSH1 0x0 SWAP1 SLOAD SWAP1 PUSH2 0x100 EXP SWAP1 DIV PUSH20 0xFFFFFFFFFFFFFFFFFFFFFFFFFFFFFFFFFFFFFFFF AND PUSH20 0xFFFFFFFFFFFFFFFFFFFFFFFFFFFFFFFFFFFFFFFF AND CALLER PUSH20 0xFFFFFFFFFFFFFFFFFFFFFFFFFFFFFFFFFFFFFFFF AND EQ PUSH2 0xF2C JUMPI PUSH1 0x40 MLOAD PUSH32 0x8C379A000000000000000000000000000000000000000000000000000000000 DUP2 MSTORE PUSH1 0x4 ADD PUSH2 0xF23 SWAP1 PUSH2 0x1637 JUMP JUMPDEST PUSH1 0x40 MLOAD DUP1 SWAP2 SUB SWAP1 REVERT JUMPDEST PUSH1 0x0 CALLVALUE GT PUSH2 0xF6F JUMPI PUSH1 0x40 MLOAD PUSH32 0x8C379A000000000000000000000000000000000000000000000000000000000 DUP2 MSTORE PUSH1 0x4 ADD PUSH2 0xF66 SWAP1 PUSH2 0x1617 JUMP JUMPDEST PUSH1 0x40 MLOAD DUP1 SWAP2 SUB SWAP1 REVERT JUMPDEST PUSH1 0x0 PUSH1 0xC SLOAD PUSH1 0x40 MLOAD PUSH1 0x20 ADD PUSH2 0xF84 SWAP2 SWAP1 PUSH2 0x14FD JUMP JUMPDEST PUSH1 0x40 MLOAD PUSH1 0x20 DUP2 DUP4 SUB SUB DUP2 MSTORE SWAP1 PUSH1 0x40 MSTORE SWAP1 POP PUSH1 0x0 PUSH1 0xD SLOAD PUSH1 0x40 MLOAD PUSH1 0x20 ADD PUSH2 0xFAA SWAP2 SWAP1 PUSH2 0x1523 JUMP JUMPDEST PUSH1 0x40 MLOAD PUSH1 0x20 DUP2 DUP4 SUB SUB DUP2 MSTORE SWAP1 PUSH1 0x40 MSTORE SWAP1 POP PUSH1 0x0 DUP3 DUP3 PUSH1 0x40 MLOAD PUSH1 0x20 ADD PUSH2 0xFD0 SWAP3 SWAP2 SWAP1 PUSH2 0x14D9 JUMP JUMPDEST PUSH1 0x40 MLOAD PUSH1 0x20 DUP2 DUP4 SUB SUB DUP2 MSTORE SWAP1 PUSH1 0x40 MSTORE SWAP1 POP PUSH1 0xC SLOAD CALLVALUE LT ISZERO DUP1 ISZERO PUSH2 0xFF5 JUMPI POP PUSH1 0xD SLOAD CALLVALUE GT ISZERO JUMPDEST DUP2 SWAP1 PUSH2 0x1037 JUMPI PUSH1 0x40 MLOAD PUSH32 0x8C379A000000000000000000000000000000000000000000000000000000000 DUP2 MSTORE PUSH1 0x4 ADD PUSH2 0x102E SWAP2 SWAP1 PUSH2 0x15B5 JUMP JUMPDEST PUSH1 0x40 MLOAD DUP1 SWAP2 SUB SWAP1 REVERT JUMPDEST POP PUSH1 0x0 CALLVALUE PUSH1 0x8 SLOAD PUSH2 0x1048 SWAP2 SWAP1 PUSH2 0x1719 JUMP JUMPDEST SWAP1 POP PUSH1 0x9 SLOAD DUP2 GT ISZERO PUSH2 0x108F JUMPI PUSH1 0x40 MLOAD PUSH32 0x8C379A000000000000000000000000000000000000000000000000000000000 DUP2 MSTORE PUSH1 0x4 ADD PUSH2 0x1086 SWAP1 PUSH2 0x1697 JUMP JUMPDEST PUSH1 0x40 MLOAD DUP1 SWAP2 SUB SWAP1 REVERT JUMPDEST CALLVALUE PUSH1 0x5 PUSH1 0x0 CALLER PUSH20 0xFFFFFFFFFFFFFFFFFFFFFFFFFFFFFFFFFFFFFFFF AND PUSH20 0xFFFFFFFFFFFFFFFFFFFFFFFFFFFFFFFFFFFFFFFF AND DUP2 MSTORE PUSH1 0x20 ADD SWAP1 DUP2 MSTORE PUSH1 0x20 ADD PUSH1 0x0 KECCAK256 PUSH1 0x0 DUP3 DUP3 SLOAD PUSH2 0x10DE SWAP2 SWAP1 PUSH2 0x1719 JUMP JUMPDEST SWAP3 POP POP DUP2 SWAP1 SSTORE POP PUSH1 0xE PUSH1 0x1 SWAP1 SLOAD SWAP1 PUSH2 0x100 EXP SWAP1 DIV PUSH20 0xFFFFFFFFFFFFFFFFFFFFFFFFFFFFFFFFFFFFFFFF AND PUSH20 0xFFFFFFFFFFFFFFFFFFFFFFFFFFFFFFFFFFFFFFFF AND PUSH2 0x8FC CALLVALUE SWAP1 DUP2 ISZERO MUL SWAP1 PUSH1 0x40 MLOAD PUSH1 0x0 PUSH1 0x40 MLOAD DUP1 DUP4 SUB DUP2 DUP6 DUP9 DUP9 CALL SWAP4 POP POP POP POP ISZERO DUP1 ISZERO PUSH2 0x114D JUMPI RETURNDATASIZE PUSH1 0x0 DUP1 RETURNDATACOPY RETURNDATASIZE PUSH1 0x0 REVERT JUMPDEST POP PUSH1 0x1 SWAP5 POP POP POP POP POP SWAP1 JUMP JUMPDEST PUSH1 0x7 PUSH1 0x0 SWAP1 SLOAD SWAP1 PUSH2 0x100 EXP SWAP1 DIV PUSH20 0xFFFFFFFFFFFFFFFFFFFFFFFFFFFFFFFFFFFFFFFF AND DUP2 JUMP JUMPDEST PUSH1 0x9 SLOAD DUP2 JUMP JUMPDEST PUSH1 0x0 DUP2 CALLDATALOAD SWAP1 POP PUSH2 0x1194 DUP2 PUSH2 0x1B7A JUMP JUMPDEST SWAP3 SWAP2 POP POP JUMP JUMPDEST PUSH1 0x0 DUP2 CALLDATALOAD SWAP1 POP PUSH2 0x11A9 DUP2 PUSH2 0x1B91 JUMP JUMPDEST SWAP3 SWAP2 POP POP JUMP JUMPDEST PUSH1 0x0 PUSH1 0x20 DUP3 DUP5 SUB SLT ISZERO PUSH2 0x11C5 JUMPI PUSH2 0x11C4 PUSH2 0x191E JUMP JUMPDEST JUMPDEST PUSH1 0x0 PUSH2 0x11D3 DUP5 DUP3 DUP6 ADD PUSH2 0x1185 JUMP JUMPDEST SWAP2 POP POP SWAP3 SWAP2 POP POP JUMP JUMPDEST PUSH1 0x0 DUP1 PUSH1 0x40 DUP4 DUP6 SUB SLT ISZERO PUSH2 0x11F3 JUMPI PUSH2 0x11F2 PUSH2 0x191E JUMP JUMPDEST JUMPDEST PUSH1 0x0 PUSH2 0x1201 DUP6 DUP3 DUP7 ADD PUSH2 0x1185 JUMP JUMPDEST SWAP3 POP POP PUSH1 0x20 PUSH2 0x1212 DUP6 DUP3 DUP7 ADD PUSH2 0x1185 JUMP JUMPDEST SWAP2 POP POP SWAP3 POP SWAP3 SWAP1 POP JUMP JUMPDEST PUSH1 0x0 DUP1 PUSH1 0x0 PUSH1 0x60 DUP5 DUP7 SUB SLT ISZERO PUSH2 0x1235 JUMPI PUSH2 0x1234 PUSH2 0x191E JUMP JUMPDEST JUMPDEST PUSH1 0x0 PUSH2 0x1243 DUP7 DUP3 DUP8 ADD PUSH2 0x1185 JUMP JUMPDEST SWAP4 POP POP PUSH1 0x20 PUSH2 0x1254 DUP7 DUP3 DUP8 ADD PUSH2 0x1185 JUMP JUMPDEST SWAP3 POP POP PUSH1 0x40 PUSH2 0x1265 DUP7 DUP3 DUP8 ADD PUSH2 0x119A JUMP JUMPDEST SWAP2 POP POP SWAP3 POP SWAP3 POP SWAP3 JUMP JUMPDEST PUSH1 0x0 DUP1 PUSH1 0x40 DUP4 DUP6 SUB SLT ISZERO PUSH2 0x1286 JUMPI PUSH2 0x1285 PUSH2 0x191E JUMP JUMPDEST JUMPDEST PUSH1 0x0 PUSH2 0x1294 DUP6 DUP3 DUP7 ADD PUSH2 0x1185 JUMP JUMPDEST SWAP3 POP POP PUSH1 0x20 PUSH2 0x12A5 DUP6 DUP3 DUP7 ADD PUSH2 0x119A JUMP JUMPDEST SWAP2 POP POP SWAP3 POP SWAP3 SWAP1 POP JUMP JUMPDEST PUSH2 0x12B8 DUP2 PUSH2 0x17B5 JUMP JUMPDEST DUP3 MSTORE POP POP JUMP JUMPDEST PUSH2 0x12C7 DUP2 PUSH2 0x17A3 JUMP JUMPDEST DUP3 MSTORE POP POP JUMP JUMPDEST PUSH2 0x12D6 DUP2 PUSH2 0x17C7 JUMP JUMPDEST DUP3 MSTORE POP POP JUMP JUMPDEST PUSH2 0x12E5 DUP2 PUSH2 0x1810 JUMP JUMPDEST DUP3 MSTORE POP POP JUMP JUMPDEST PUSH1 0x0 PUSH2 0x12F6 DUP3 PUSH2 0x16F2 JUMP JUMPDEST PUSH2 0x1300 DUP2 DUP6 PUSH2 0x16FD JUMP JUMPDEST SWAP4 POP PUSH2 0x1310 DUP2 DUP6 PUSH1 0x20 DUP7 ADD PUSH2 0x1822 JUMP JUMPDEST PUSH2 0x1319 DUP2 PUSH2 0x1923 JUMP JUMPDEST DUP5 ADD SWAP2 POP POP SWAP3 SWAP2 POP POP JUMP JUMPDEST PUSH1 0x0 PUSH2 0x132F DUP3 PUSH2 0x16F2 JUMP JUMPDEST PUSH2 0x1339 DUP2 DUP6 PUSH2 0x170E JUMP JUMPDEST SWAP4 POP PUSH2 0x1349 DUP2 DUP6 PUSH1 0x20 DUP7 ADD PUSH2 0x1822 JUMP JUMPDEST DUP1 DUP5 ADD SWAP2 POP POP SWAP3 SWAP2 POP POP JUMP JUMPDEST PUSH1 0x0 PUSH2 0x1362 PUSH1 0x30 DUP4 PUSH2 0x16FD JUMP JUMPDEST SWAP2 POP PUSH2 0x136D DUP3 PUSH2 0x1934 JUMP JUMPDEST PUSH1 0x40 DUP3 ADD SWAP1 POP SWAP2 SWAP1 POP JUMP JUMPDEST PUSH1 0x0 PUSH2 0x1385 PUSH1 0x22 DUP4 PUSH2 0x16FD JUMP JUMPDEST SWAP2 POP PUSH2 0x1390 DUP3 PUSH2 0x1983 JUMP JUMPDEST PUSH1 0x40 DUP3 ADD SWAP1 POP SWAP2 SWAP1 POP JUMP JUMPDEST PUSH1 0x0 PUSH2 0x13A8 PUSH1 0x20 DUP4 PUSH2 0x16FD JUMP JUMPDEST SWAP2 POP PUSH2 0x13B3 DUP3 PUSH2 0x19D2 JUMP JUMPDEST PUSH1 0x20 DUP3 ADD SWAP1 POP SWAP2 SWAP1 POP JUMP JUMPDEST PUSH1 0x0 PUSH2 0x13CB PUSH1 0x1F DUP4 PUSH2 0x170E JUMP JUMPDEST SWAP2 POP PUSH2 0x13D6 DUP3 PUSH2 0x19FB JUMP JUMPDEST PUSH1 0x1F DUP3 ADD SWAP1 POP SWAP2 SWAP1 POP JUMP JUMPDEST PUSH1 0x0 PUSH2 0x13EE PUSH1 0x22 DUP4 PUSH2 0x16FD JUMP JUMPDEST SWAP2 POP PUSH2 0x13F9 DUP3 PUSH2 0x1A24 JUMP JUMPDEST PUSH1 0x40 DUP3 ADD SWAP1 POP SWAP2 SWAP1 POP JUMP JUMPDEST PUSH1 0x0 PUSH2 0x1411 PUSH1 0x30 DUP4 PUSH2 0x16FD JUMP JUMPDEST SWAP2 POP PUSH2 0x141C DUP3 PUSH2 0x1A73 JUMP JUMPDEST PUSH1 0x40 DUP3 ADD SWAP1 POP SWAP2 SWAP1 POP JUMP JUMPDEST PUSH1 0x0 PUSH2 0x1434 PUSH1 0x21 DUP4 PUSH2 0x170E JUMP JUMPDEST SWAP2 POP PUSH2 0x143F DUP3 PUSH2 0x1AC2 JUMP JUMPDEST PUSH1 0x21 DUP3 ADD SWAP1 POP SWAP2 SWAP1 POP JUMP JUMPDEST PUSH1 0x0 PUSH2 0x1457 PUSH1 0x1C DUP4 PUSH2 0x16FD JUMP JUMPDEST SWAP2 POP PUSH2 0x1462 DUP3 PUSH2 0x1B11 JUMP JUMPDEST PUSH1 0x20 DUP3 ADD SWAP1 POP SWAP2 SWAP1 POP JUMP JUMPDEST PUSH1 0x0 PUSH2 0x147A PUSH1 0x0 DUP4 PUSH2 0x16FD JUMP JUMPDEST SWAP2 POP PUSH2 0x1485 DUP3 PUSH2 0x1B3A JUMP JUMPDEST PUSH1 0x0 DUP3 ADD SWAP1 POP SWAP2 SWAP1 POP JUMP JUMPDEST PUSH1 0x0 PUSH2 0x149D PUSH1 0x12 DUP4 PUSH2 0x16FD JUMP JUMPDEST SWAP2 POP PUSH2 0x14A8 DUP3 PUSH2 0x1B3D JUMP JUMPDEST PUSH1 0x20 DUP3 ADD SWAP1 POP SWAP2 SWAP1 POP JUMP JUMPDEST PUSH2 0x14BC DUP2 PUSH2 0x1806 JUMP JUMPDEST DUP3 MSTORE POP POP JUMP JUMPDEST PUSH2 0x14D3 PUSH2 0x14CE DUP3 PUSH2 0x1806 JUMP JUMPDEST PUSH2 0x1887 JUMP JUMPDEST DUP3 MSTORE POP POP JUMP JUMPDEST PUSH1 0x0 PUSH2 0x14E5 DUP3 DUP6 PUSH2 0x1324 JUMP JUMPDEST SWAP2 POP PUSH2 0x14F1 DUP3 DUP5 PUSH2 0x1324 JUMP JUMPDEST SWAP2 POP DUP2 SWAP1 POP SWAP4 SWAP3 POP POP POP JUMP JUMPDEST PUSH1 0x0 PUSH2 0x1508 DUP3 PUSH2 0x13BE JUMP JUMPDEST SWAP2 POP PUSH2 0x1514 DUP3 DUP5 PUSH2 0x14C2 JUMP JUMPDEST PUSH1 0x20 DUP3 ADD SWAP2 POP DUP2 SWAP1 POP SWAP3 SWAP2 POP POP JUMP JUMPDEST PUSH1 0x0 PUSH2 0x152E DUP3 PUSH2 0x1427 JUMP JUMPDEST SWAP2 POP PUSH2 0x153A DUP3 DUP5 PUSH2 0x14C2 JUMP JUMPDEST PUSH1 0x20 DUP3 ADD SWAP2 POP DUP2 SWAP1 POP SWAP3 SWAP2 POP POP JUMP JUMPDEST PUSH1 0x0 PUSH1 0x20 DUP3 ADD SWAP1 POP PUSH2 0x155E PUSH1 0x0 DUP4 ADD DUP5 PUSH2 0x12BE JUMP JUMPDEST SWAP3 SWAP2 POP POP JUMP JUMPDEST PUSH1 0x0 PUSH1 0x20 DUP3 ADD SWAP1 POP PUSH2 0x1579 PUSH1 0x0 DUP4 ADD DUP5 PUSH2 0x12AF JUMP JUMPDEST SWAP3 SWAP2 POP POP JUMP JUMPDEST PUSH1 0x0 PUSH1 0x20 DUP3 ADD SWAP1 POP PUSH2 0x1594 PUSH1 0x0 DUP4 ADD DUP5 PUSH2 0x12CD JUMP JUMPDEST SWAP3 SWAP2 POP POP JUMP JUMPDEST PUSH1 0x0 PUSH1 0x20 DUP3 ADD SWAP1 POP PUSH2 0x15AF PUSH1 0x0 DUP4 ADD DUP5 PUSH2 0x12DC JUMP JUMPDEST SWAP3 SWAP2 POP POP JUMP JUMPDEST PUSH1 0x0 PUSH1 0x20 DUP3 ADD SWAP1 POP DUP2 DUP2 SUB PUSH1 0x0 DUP4 ADD MSTORE PUSH2 0x15CF DUP2 DUP5 PUSH2 0x12EB JUMP JUMPDEST SWAP1 POP SWAP3 SWAP2 POP POP JUMP JUMPDEST PUSH1 0x0 PUSH1 0x20 DUP3 ADD SWAP1 POP DUP2 DUP2 SUB PUSH1 0x0 DUP4 ADD MSTORE PUSH2 0x15F0 DUP2 PUSH2 0x1355 JUMP JUMPDEST SWAP1 POP SWAP2 SWAP1 POP JUMP JUMPDEST PUSH1 0x0 PUSH1 0x20 DUP3 ADD SWAP1 POP DUP2 DUP2 SUB PUSH1 0x0 DUP4 ADD MSTORE PUSH2 0x1610 DUP2 PUSH2 0x1378 JUMP JUMPDEST SWAP1 POP SWAP2 SWAP1 POP JUMP JUMPDEST PUSH1 0x0 PUSH1 0x20 DUP3 ADD SWAP1 POP DUP2 DUP2 SUB PUSH1 0x0 DUP4 ADD MSTORE PUSH2 0x1630 DUP2 PUSH2 0x139B JUMP JUMPDEST SWAP1 POP SWAP2 SWAP1 POP JUMP JUMPDEST PUSH1 0x0 PUSH1 0x20 DUP3 ADD SWAP1 POP DUP2 DUP2 SUB PUSH1 0x0 DUP4 ADD MSTORE PUSH2 0x1650 DUP2 PUSH2 0x13E1 JUMP JUMPDEST SWAP1 POP SWAP2 SWAP1 POP JUMP JUMPDEST PUSH1 0x0 PUSH1 0x20 DUP3 ADD SWAP1 POP DUP2 DUP2 SUB PUSH1 0x0 DUP4 ADD MSTORE PUSH2 0x1670 DUP2 PUSH2 0x1404 JUMP JUMPDEST SWAP1 POP SWAP2 SWAP1 POP JUMP JUMPDEST PUSH1 0x0 PUSH1 0x20 DUP3 ADD SWAP1 POP DUP2 DUP2 SUB PUSH1 0x0 DUP4 ADD MSTORE PUSH2 0x1690 DUP2 PUSH2 0x144A JUMP JUMPDEST SWAP1 POP SWAP2 SWAP1 POP JUMP JUMPDEST PUSH1 0x0 PUSH1 0x20 DUP3 ADD SWAP1 POP DUP2 DUP2 SUB PUSH1 0x0 DUP4 ADD MSTORE PUSH2 0x16B0 DUP2 PUSH2 0x146D JUMP JUMPDEST SWAP1 POP SWAP2 SWAP1 POP JUMP JUMPDEST PUSH1 0x0 PUSH1 0x20 DUP3 ADD SWAP1 POP DUP2 DUP2 SUB PUSH1 0x0 DUP4 ADD MSTORE PUSH2 0x16D0 DUP2 PUSH2 0x1490 JUMP JUMPDEST SWAP1 POP SWAP2 SWAP1 POP JUMP JUMPDEST PUSH1 0x0 PUSH1 0x20 DUP3 ADD SWAP1 POP PUSH2 0x16EC PUSH1 0x0 DUP4 ADD DUP5 PUSH2 0x14B3 JUMP JUMPDEST SWAP3 SWAP2 POP POP JUMP JUMPDEST PUSH1 0x0 DUP2 MLOAD SWAP1 POP SWAP2 SWAP1 POP JUMP JUMPDEST PUSH1 0x0 DUP3 DUP3 MSTORE PUSH1 0x20 DUP3 ADD SWAP1 POP SWAP3 SWAP2 POP POP JUMP JUMPDEST PUSH1 0x0 DUP2 SWAP1 POP SWAP3 SWAP2 POP POP JUMP JUMPDEST PUSH1 0x0 PUSH2 0x1724 DUP3 PUSH2 0x1806 JUMP JUMPDEST SWAP2 POP PUSH2 0x172F DUP4 PUSH2 0x1806 JUMP JUMPDEST SWAP3 POP DUP3 PUSH32 0xFFFFFFFFFFFFFFFFFFFFFFFFFFFFFFFFFFFFFFFFFFFFFFFFFFFFFFFFFFFFFFFF SUB DUP3 GT ISZERO PUSH2 0x1764 JUMPI PUSH2 0x1763 PUSH2 0x1891 JUMP JUMPDEST JUMPDEST DUP3 DUP3 ADD SWAP1 POP SWAP3 SWAP2 POP POP JUMP JUMPDEST PUSH1 0x0 PUSH2 0x177A DUP3 PUSH2 0x1806 JUMP JUMPDEST SWAP2 POP PUSH2 0x1785 DUP4 PUSH2 0x1806 JUMP JUMPDEST SWAP3 POP DUP3 DUP3 LT ISZERO PUSH2 0x1798 JUMPI PUSH2 0x1797 PUSH2 0x1891 JUMP JUMPDEST JUMPDEST DUP3 DUP3 SUB SWAP1 POP SWAP3 SWAP2 POP POP JUMP JUMPDEST PUSH1 0x0 PUSH2 0x17AE DUP3 PUSH2 0x17E6 JUMP JUMPDEST SWAP1 POP SWAP2 SWAP1 POP JUMP JUMPDEST PUSH1 0x0 PUSH2 0x17C0 DUP3 PUSH2 0x17E6 JUMP JUMPDEST SWAP1 POP SWAP2 SWAP1 POP JUMP JUMPDEST PUSH1 0x0 DUP2 ISZERO ISZERO SWAP1 POP SWAP2 SWAP1 POP JUMP JUMPDEST PUSH1 0x0 DUP2 SWAP1 POP PUSH2 0x17E1 DUP3 PUSH2 0x1B66 JUMP JUMPDEST SWAP2 SWAP1 POP JUMP JUMPDEST PUSH1 0x0 PUSH20 0xFFFFFFFFFFFFFFFFFFFFFFFFFFFFFFFFFFFFFFFF DUP3 AND SWAP1 POP SWAP2 SWAP1 POP JUMP JUMPDEST PUSH1 0x0 DUP2 SWAP1 POP SWAP2 SWAP1 POP JUMP JUMPDEST PUSH1 0x0 PUSH2 0x181B DUP3 PUSH2 0x17D3 JUMP JUMPDEST SWAP1 POP SWAP2 SWAP1 POP JUMP JUMPDEST PUSH1 0x0 JUMPDEST DUP4 DUP2 LT ISZERO PUSH2 0x1840 JUMPI DUP1 DUP3 ADD MLOAD DUP2 DUP5 ADD MSTORE PUSH1 0x20 DUP2 ADD SWAP1 POP PUSH2 0x1825 JUMP JUMPDEST DUP4 DUP2 GT ISZERO PUSH2 0x184F JUMPI PUSH1 0x0 DUP5 DUP5 ADD MSTORE JUMPDEST POP POP POP POP JUMP JUMPDEST PUSH1 0x0 PUSH1 0x2 DUP3 DIV SWAP1 POP PUSH1 0x1 DUP3 AND DUP1 PUSH2 0x186D JUMPI PUSH1 0x7F DUP3 AND SWAP2 POP JUMPDEST PUSH1 0x20 DUP3 LT DUP2 EQ ISZERO PUSH2 0x1881 JUMPI PUSH2 0x1880 PUSH2 0x18EF JUMP JUMPDEST JUMPDEST POP SWAP2 SWAP1 POP JUMP JUMPDEST PUSH1 0x0 DUP2 SWAP1 POP SWAP2 SWAP1 POP JUMP JUMPDEST PUSH32 0x4E487B7100000000000000000000000000000000000000000000000000000000 PUSH1 0x0 MSTORE PUSH1 0x11 PUSH1 0x4 MSTORE PUSH1 0x24 PUSH1 0x0 REVERT JUMPDEST PUSH32 0x4E487B7100000000000000000000000000000000000000000000000000000000 PUSH1 0x0 MSTORE PUSH1 0x21 PUSH1 0x4 MSTORE PUSH1 0x24 PUSH1 0x0 REVERT JUMPDEST PUSH32 0x4E487B7100000000000000000000000000000000000000000000000000000000 PUSH1 0x0 MSTORE PUSH1 0x22 PUSH1 0x4 MSTORE PUSH1 0x24 PUSH1 0x0 REVERT JUMPDEST PUSH1 0x0 DUP1 REVERT JUMPDEST PUSH1 0x0 PUSH1 0x1F NOT PUSH1 0x1F DUP4 ADD AND SWAP1 POP SWAP2 SWAP1 POP JUMP JUMPDEST PUSH32 0x546F6B656E2076616C75652069732067726561746572207468616E2074686520 PUSH1 0x0 DUP3 ADD MSTORE PUSH32 0x617070726F7665642062616C616E636500000000000000000000000000000000 PUSH1 0x20 DUP3 ADD MSTORE POP JUMP JUMPDEST PUSH32 0x546F6B656E2076616C7565206D7573742062652067726561746572207468616E PUSH1 0x0 DUP3 ADD MSTORE PUSH32 0x2030000000000000000000000000000000000000000000000000000000000000 PUSH1 0x20 DUP3 ADD MSTORE POP JUMP JUMPDEST PUSH32 0x416D6F756E74206D7573742062652067726561746572207468616E207A65726F PUSH1 0x0 DUP3 ADD MSTORE POP JUMP JUMPDEST PUSH32 0x416D6F756E742063616E6E6F74206E6F74206265206C6F776572207468616E00 PUSH1 0x0 DUP3 ADD MSTORE POP JUMP JUMPDEST PUSH32 0x4163636573732064656E6965642C20796F75206165206E6F7420616E2061646D PUSH1 0x0 DUP3 ADD MSTORE PUSH32 0x696E000000000000000000000000000000000000000000000000000000000000 PUSH1 0x20 DUP3 ADD MSTORE POP JUMP JUMPDEST PUSH32 0x546F6B656E2076616C75652069732067726561746572207468616E20796F7572 PUSH1 0x0 DUP3 ADD MSTORE PUSH32 0x2063757272656E7420686F6C64696E6700000000000000000000000000000000 PUSH1 0x20 DUP3 ADD MSTORE POP JUMP JUMPDEST PUSH32 0x416D6F756E742063616E6E6F74206E6F74206265206869676768657220746861 PUSH1 0x0 DUP3 ADD MSTORE PUSH32 0x6E00000000000000000000000000000000000000000000000000000000000000 PUSH1 0x20 DUP3 ADD MSTORE POP JUMP JUMPDEST PUSH32 0x496E73756666696369656E74204163636F756E742042616C616E636500000000 PUSH1 0x0 DUP3 ADD MSTORE POP JUMP JUMPDEST POP JUMP JUMPDEST PUSH32 0x496E737566696369656E742042616C6E63650000000000000000000000000000 PUSH1 0x0 DUP3 ADD MSTORE POP JUMP JUMPDEST PUSH1 0x4 DUP2 LT PUSH2 0x1B77 JUMPI PUSH2 0x1B76 PUSH2 0x18C0 JUMP JUMPDEST JUMPDEST POP JUMP JUMPDEST PUSH2 0x1B83 DUP2 PUSH2 0x17A3 JUMP JUMPDEST DUP2 EQ PUSH2 0x1B8E JUMPI PUSH1 0x0 DUP1 REVERT JUMPDEST POP JUMP JUMPDEST PUSH2 0x1B9A DUP2 PUSH2 0x1806 JUMP JUMPDEST DUP2 EQ PUSH2 0x1BA5 JUMPI PUSH1 0x0 DUP1 REVERT JUMPDEST POP JUMP INVALID LOG2 PUSH5 0x6970667358 0x22 SLT KECCAK256 0x26 MSTORE 0xBD EXTCODEHASH 0xCB 0xD 0xBA 0xC3 0x24 0x24 SWAP11 PUSH20 0x40E2071929E29F1106DAD249A8F9433461ACCDBB PUSH5 0x736F6C6343 STOP ADDMOD SMOD STOP CALLER "
				},
				"gasEstimates": {
					"creation": {
						"codeDepositCost": "1426800",
						"executionCost": "infinite",
						"totalCost": "infinite"
					},
					"external": {
						"admin()": "2624",
						"allowance(address,address)": "infinite",
						"allowed(address,address)": "infinite",
						"approve(address,uint256)": "infinite",
						"balanceOf(address)": "2864",
						"balances(address)": "2926",
						"decimals()": "2474",
						"depositAddress()": "2587",
						"endTime()": "2496",
						"founder()": "2625",
						"hardCap()": "2561",
						"icoState()": "2649",
						"invest()": "infinite",
						"maximumAmount()": "2540",
						"minimumAmount()": "2451",
						"name()": "infinite",
						"raisedAmount()": "2473",
						"startTime()": "2474",
						"symbol()": "infinite",
						"totalSupply()": "2497",
						"transfer(address,uint256)": "infinite",
						"transferFrom(address,address,uint256)": "infinite"
					}
				},
				"methodIdentifiers": {
					"admin()": "f851a440",
					"allowance(address,address)": "dd62ed3e",
					"allowed(address,address)": "5c658165",
					"approve(address,uint256)": "095ea7b3",
					"balanceOf(address)": "70a08231",
					"balances(address)": "27e235e3",
					"decimals()": "313ce567",
					"depositAddress()": "28f833b7",
					"endTime()": "3197cbb6",
					"founder()": "4d853ee5",
					"hardCap()": "fb86a404",
					"icoState()": "44f38756",
					"invest()": "e8b5e51f",
					"maximumAmount()": "a9bcea61",
					"minimumAmount()": "bb0c8298",
					"name()": "06fdde03",
					"raisedAmount()": "c59ee1dc",
					"startTime()": "78e97925",
					"symbol()": "95d89b41",
					"totalSupply()": "18160ddd",
					"transfer(address,uint256)": "a9059cbb",
					"transferFrom(address,address,uint256)": "23b872dd"
				}
			},
			"storageLayout": {
				"storage": [
					{
						"astId": 73,
						"contract": "contracts/Erc20token.sol:icoContract",
						"label": "name",
						"offset": 0,
						"slot": "0",
						"type": "t_string_storage"
					},
					{
						"astId": 76,
						"contract": "contracts/Erc20token.sol:icoContract",
						"label": "symbol",
						"offset": 0,
						"slot": "1",
						"type": "t_string_storage"
					},
					{
						"astId": 79,
						"contract": "contracts/Erc20token.sol:icoContract",
						"label": "decimals",
						"offset": 0,
						"slot": "2",
						"type": "t_uint256"
					},
					{
						"astId": 81,
						"contract": "contracts/Erc20token.sol:icoContract",
						"label": "founder",
						"offset": 0,
						"slot": "3",
						"type": "t_address"
					},
					{
						"astId": 84,
						"contract": "contracts/Erc20token.sol:icoContract",
						"label": "totalSupply",
						"offset": 0,
						"slot": "4",
						"type": "t_uint256"
					},
					{
						"astId": 88,
						"contract": "contracts/Erc20token.sol:icoContract",
						"label": "balances",
						"offset": 0,
						"slot": "5",
						"type": "t_mapping(t_address,t_uint256)"
					},
					{
						"astId": 94,
						"contract": "contracts/Erc20token.sol:icoContract",
						"label": "allowed",
						"offset": 0,
						"slot": "6",
						"type": "t_mapping(t_address,t_mapping(t_address,t_uint256))"
					},
					{
						"astId": 307,
						"contract": "contracts/Erc20token.sol:icoContract",
						"label": "admin",
						"offset": 0,
						"slot": "7",
						"type": "t_address"
					},
					{
						"astId": 309,
						"contract": "contracts/Erc20token.sol:icoContract",
						"label": "raisedAmount",
						"offset": 0,
						"slot": "8",
						"type": "t_uint256"
					},
					{
						"astId": 312,
						"contract": "contracts/Erc20token.sol:icoContract",
						"label": "hardCap",
						"offset": 0,
						"slot": "9",
						"type": "t_uint256"
					},
					{
						"astId": 321,
						"contract": "contracts/Erc20token.sol:icoContract",
						"label": "startTime",
						"offset": 0,
						"slot": "10",
						"type": "t_uint256"
					},
					{
						"astId": 323,
						"contract": "contracts/Erc20token.sol:icoContract",
						"label": "endTime",
						"offset": 0,
						"slot": "11",
						"type": "t_uint256"
					},
					{
						"astId": 326,
						"contract": "contracts/Erc20token.sol:icoContract",
						"label": "minimumAmount",
						"offset": 0,
						"slot": "12",
						"type": "t_uint256"
					},
					{
						"astId": 329,
						"contract": "contracts/Erc20token.sol:icoContract",
						"label": "maximumAmount",
						"offset": 0,
						"slot": "13",
						"type": "t_uint256"
					},
					{
						"astId": 332,
						"contract": "contracts/Erc20token.sol:icoContract",
						"label": "icoState",
						"offset": 0,
						"slot": "14",
						"type": "t_enum(State)317"
					},
					{
						"astId": 334,
						"contract": "contracts/Erc20token.sol:icoContract",
						"label": "depositAddress",
						"offset": 1,
						"slot": "14",
						"type": "t_address_payable"
					}
				],
				"types": {
					"t_address": {
						"encoding": "inplace",
						"label": "address",
						"numberOfBytes": "20"
					},
					"t_address_payable": {
						"encoding": "inplace",
						"label": "address payable",
						"numberOfBytes": "20"
					},
					"t_enum(State)317": {
						"encoding": "inplace",
						"label": "enum icoContract.State",
						"numberOfBytes": "1"
					},
					"t_mapping(t_address,t_mapping(t_address,t_uint256))": {
						"encoding": "mapping",
						"key": "t_address",
						"label": "mapping(address => mapping(address => uint256))",
						"numberOfBytes": "32",
						"value": "t_mapping(t_address,t_uint256)"
					},
					"t_mapping(t_address,t_uint256)": {
						"encoding": "mapping",
						"key": "t_address",
						"label": "mapping(address => uint256)",
						"numberOfBytes": "32",
						"value": "t_uint256"
					},
					"t_string_storage": {
						"encoding": "bytes",
						"label": "string",
						"numberOfBytes": "32"
					},
					"t_uint256": {
						"encoding": "inplace",
						"label": "uint256",
						"numberOfBytes": "32"
					}
				}
			},
			"userdoc": {
				"kind": "user",
				"methods": {},
				"version": 1
			}
		}
	}
}