{
	"contracts/Auctionsol.sol": {
		"Lottery": {
			"abi": [
				{
					"inputs": [],
					"stateMutability": "nonpayable",
					"type": "constructor"
				},
				{
					"inputs": [],
					"name": "auctionState",
					"outputs": [
						{
							"internalType": "enum Lottery.State",
							"name": "",
							"type": "uint8"
						}
					],
					"stateMutability": "view",
					"type": "function"
				},
				{
					"inputs": [],
					"name": "bidIncrement",
					"outputs": [
						{
							"internalType": "uint256",
							"name": "",
							"type": "uint256"
						}
					],
					"stateMutability": "view",
					"type": "function"
				},
				{
					"inputs": [
						{
							"internalType": "address",
							"name": "",
							"type": "address"
						}
					],
					"name": "bidsMap",
					"outputs": [
						{
							"internalType": "uint256",
							"name": "",
							"type": "uint256"
						}
					],
					"stateMutability": "view",
					"type": "function"
				},
				{
					"inputs": [],
					"name": "endBlock",
					"outputs": [
						{
							"internalType": "uint256",
							"name": "",
							"type": "uint256"
						}
					],
					"stateMutability": "view",
					"type": "function"
				},
				{
					"inputs": [],
					"name": "higestBindingBid",
					"outputs": [
						{
							"internalType": "uint256",
							"name": "",
							"type": "uint256"
						}
					],
					"stateMutability": "view",
					"type": "function"
				},
				{
					"inputs": [],
					"name": "highestBidder",
					"outputs": [
						{
							"internalType": "address payable",
							"name": "",
							"type": "address"
						}
					],
					"stateMutability": "view",
					"type": "function"
				},
				{
					"inputs": [],
					"name": "owner",
					"outputs": [
						{
							"internalType": "address payable",
							"name": "",
							"type": "address"
						}
					],
					"stateMutability": "view",
					"type": "function"
				},
				{
					"inputs": [],
					"name": "startBlock",
					"outputs": [
						{
							"internalType": "uint256",
							"name": "",
							"type": "uint256"
						}
					],
					"stateMutability": "view",
					"type": "function"
				}
			],
			"devdoc": {
				"kind": "dev",
				"methods": {},
				"version": 1
			},
			"evm": {
				"assembly": "    /* \"contracts/Auctionsol.sol\":74:660  contract Lottery{\r... */\n  mstore(0x40, 0x80)\n    /* \"contracts/Auctionsol.sol\":334:346  block.number */\n  number\n    /* \"contracts/Auctionsol.sol\":309:346  uint public startBlock = block.number */\n  0x05\n  sstore\n    /* \"contracts/Auctionsol.sol\":389:390  3 */\n  0x03\n    /* \"contracts/Auctionsol.sol\":376:386  startBlock */\n  sload(0x05)\n    /* \"contracts/Auctionsol.sol\":376:390  startBlock + 3 */\n  tag_1\n  swap2\n  swap1\n  tag_2\n  jump\t// in\ntag_1:\n    /* \"contracts/Auctionsol.sol\":353:390  uint public endBlock = startBlock + 3 */\n  0x06\n  sstore\n    /* \"contracts/Auctionsol.sol\":528:655  constructor(){\r... */\n  callvalue\n  dup1\n  iszero\n  tag_3\n  jumpi\n  0x00\n  dup1\n  revert\ntag_3:\n  pop\n    /* \"contracts/Auctionsol.sol\":568:578  msg.sender */\n  caller\n    /* \"contracts/Auctionsol.sol\":552:557  owner */\n  0x01\n  0x00\n    /* \"contracts/Auctionsol.sol\":552:579  owner = payable(msg.sender) */\n  0x0100\n  exp\n  dup2\n  sload\n  dup2\n  0xffffffffffffffffffffffffffffffffffffffff\n  mul\n  not\n  and\n  swap1\n  dup4\n  0xffffffffffffffffffffffffffffffffffffffff\n  and\n  mul\n  or\n  swap1\n  sstore\n  pop\n    /* \"contracts/Auctionsol.sol\":605:608  100 */\n  0x64\n    /* \"contracts/Auctionsol.sol\":590:602  bidIncrement */\n  0x04\n    /* \"contracts/Auctionsol.sol\":590:608  bidIncrement = 100 */\n  dup2\n  swap1\n  sstore\n  pop\n    /* \"contracts/Auctionsol.sol\":634:647  State.Running */\n  0x01\n    /* \"contracts/Auctionsol.sol\":619:631  auctionState */\n  0x07\n  0x00\n    /* \"contracts/Auctionsol.sol\":619:647  auctionState = State.Running */\n  0x0100\n  exp\n  dup2\n  sload\n  dup2\n  0xff\n  mul\n  not\n  and\n  swap1\n  dup4\n  0x03\n  dup2\n  gt\n  iszero\n  tag_6\n  jumpi\n  tag_7\n  tag_8\n  jump\t// in\ntag_7:\ntag_6:\n  mul\n  or\n  swap1\n  sstore\n  pop\n    /* \"contracts/Auctionsol.sol\":74:660  contract Lottery{\r... */\n  jump(tag_9)\n    /* \"#utility.yul\":7:312   */\ntag_2:\n    /* \"#utility.yul\":47:50   */\n  0x00\n    /* \"#utility.yul\":66:86   */\n  tag_12\n    /* \"#utility.yul\":84:85   */\n  dup3\n    /* \"#utility.yul\":66:86   */\n  tag_13\n  jump\t// in\ntag_12:\n    /* \"#utility.yul\":61:86   */\n  swap2\n  pop\n    /* \"#utility.yul\":100:120   */\n  tag_14\n    /* \"#utility.yul\":118:119   */\n  dup4\n    /* \"#utility.yul\":100:120   */\n  tag_13\n  jump\t// in\ntag_14:\n    /* \"#utility.yul\":95:120   */\n  swap3\n  pop\n    /* \"#utility.yul\":254:255   */\n  dup3\n    /* \"#utility.yul\":186:252   */\n  0xffffffffffffffffffffffffffffffffffffffffffffffffffffffffffffffff\n    /* \"#utility.yul\":182:256   */\n  sub\n    /* \"#utility.yul\":179:180   */\n  dup3\n    /* \"#utility.yul\":176:257   */\n  gt\n    /* \"#utility.yul\":173:280   */\n  iszero\n  tag_15\n  jumpi\n    /* \"#utility.yul\":260:278   */\n  tag_16\n  tag_17\n  jump\t// in\ntag_16:\n    /* \"#utility.yul\":173:280   */\ntag_15:\n    /* \"#utility.yul\":304:305   */\n  dup3\n    /* \"#utility.yul\":301:302   */\n  dup3\n    /* \"#utility.yul\":297:306   */\n  add\n    /* \"#utility.yul\":290:306   */\n  swap1\n  pop\n    /* \"#utility.yul\":7:312   */\n  swap3\n  swap2\n  pop\n  pop\n  jump\t// out\n    /* \"#utility.yul\":318:395   */\ntag_13:\n    /* \"#utility.yul\":355:362   */\n  0x00\n    /* \"#utility.yul\":384:389   */\n  dup2\n    /* \"#utility.yul\":373:389   */\n  swap1\n  pop\n    /* \"#utility.yul\":318:395   */\n  swap2\n  swap1\n  pop\n  jump\t// out\n    /* \"#utility.yul\":401:581   */\ntag_17:\n    /* \"#utility.yul\":449:526   */\n  0x4e487b7100000000000000000000000000000000000000000000000000000000\n    /* \"#utility.yul\":446:447   */\n  0x00\n    /* \"#utility.yul\":439:527   */\n  mstore\n    /* \"#utility.yul\":546:550   */\n  0x11\n    /* \"#utility.yul\":543:544   */\n  0x04\n    /* \"#utility.yul\":536:551   */\n  mstore\n    /* \"#utility.yul\":570:574   */\n  0x24\n    /* \"#utility.yul\":567:568   */\n  0x00\n    /* \"#utility.yul\":560:575   */\n  revert\n    /* \"#utility.yul\":587:767   */\ntag_8:\n    /* \"#utility.yul\":635:712   */\n  0x4e487b7100000000000000000000000000000000000000000000000000000000\n    /* \"#utility.yul\":632:633   */\n  0x00\n    /* \"#utility.yul\":625:713   */\n  mstore\n    /* \"#utility.yul\":732:736   */\n  0x21\n    /* \"#utility.yul\":729:730   */\n  0x04\n    /* \"#utility.yul\":722:737   */\n  mstore\n    /* \"#utility.yul\":756:760   */\n  0x24\n    /* \"#utility.yul\":753:754   */\n  0x00\n    /* \"#utility.yul\":746:761   */\n  revert\n    /* \"contracts/Auctionsol.sol\":74:660  contract Lottery{\r... */\ntag_9:\n  dataSize(sub_0)\n  dup1\n  dataOffset(sub_0)\n  0x00\n  codecopy\n  0x00\n  return\nstop\n\nsub_0: assembly {\n        /* \"contracts/Auctionsol.sol\":74:660  contract Lottery{\r... */\n      mstore(0x40, 0x80)\n      callvalue\n      dup1\n      iszero\n      tag_1\n      jumpi\n      0x00\n      dup1\n      revert\n    tag_1:\n      pop\n      jumpi(tag_2, lt(calldatasize, 0x04))\n      shr(0xe0, calldataload(0x00))\n      dup1\n      0x8ee77512\n      gt\n      tag_11\n      jumpi\n      dup1\n      0x8ee77512\n      eq\n      tag_7\n      jumpi\n      dup1\n      0x91c11f7d\n      eq\n      tag_8\n      jumpi\n      dup1\n      0x91f90157\n      eq\n      tag_9\n      jumpi\n      dup1\n      0xb3cc167a\n      eq\n      tag_10\n      jumpi\n      jump(tag_2)\n    tag_11:\n      dup1\n      0x083c6323\n      eq\n      tag_3\n      jumpi\n      dup1\n      0x48cd4cb1\n      eq\n      tag_4\n      jumpi\n      dup1\n      0x7fb45099\n      eq\n      tag_5\n      jumpi\n      dup1\n      0x8da5cb5b\n      eq\n      tag_6\n      jumpi\n    tag_2:\n      0x00\n      dup1\n      revert\n        /* \"contracts/Auctionsol.sol\":353:390  uint public endBlock = startBlock + 3 */\n    tag_3:\n      tag_12\n      tag_13\n      jump\t// in\n    tag_12:\n      mload(0x40)\n      tag_14\n      swap2\n      swap1\n      tag_15\n      jump\t// in\n    tag_14:\n      mload(0x40)\n      dup1\n      swap2\n      sub\n      swap1\n      return\n        /* \"contracts/Auctionsol.sol\":309:346  uint public startBlock = block.number */\n    tag_4:\n      tag_16\n      tag_17\n      jump\t// in\n    tag_16:\n      mload(0x40)\n      tag_18\n      swap2\n      swap1\n      tag_15\n      jump\t// in\n    tag_18:\n      mload(0x40)\n      dup1\n      swap2\n      sub\n      swap1\n      return\n        /* \"contracts/Auctionsol.sol\":492:517  State public auctionState */\n    tag_5:\n      tag_19\n      tag_20\n      jump\t// in\n    tag_19:\n      mload(0x40)\n      tag_21\n      swap2\n      swap1\n      tag_22\n      jump\t// in\n    tag_21:\n      mload(0x40)\n      dup1\n      swap2\n      sub\n      swap1\n      return\n        /* \"contracts/Auctionsol.sol\":145:173  address payable public owner */\n    tag_6:\n      tag_23\n      tag_24\n      jump\t// in\n    tag_23:\n      mload(0x40)\n      tag_25\n      swap2\n      swap1\n      tag_26\n      jump\t// in\n    tag_25:\n      mload(0x40)\n      dup1\n      swap2\n      sub\n      swap1\n      return\n        /* \"contracts/Auctionsol.sol\":99:138  mapping(address => uint) public bidsMap */\n    tag_7:\n      tag_27\n      0x04\n      dup1\n      calldatasize\n      sub\n      dup2\n      add\n      swap1\n      tag_28\n      swap2\n      swap1\n      tag_29\n      jump\t// in\n    tag_28:\n      tag_30\n      jump\t// in\n    tag_27:\n      mload(0x40)\n      tag_31\n      swap2\n      swap1\n      tag_15\n      jump\t// in\n    tag_31:\n      mload(0x40)\n      dup1\n      swap2\n      sub\n      swap1\n      return\n        /* \"contracts/Auctionsol.sol\":227:255  uint public higestBindingBid */\n    tag_8:\n      tag_32\n      tag_33\n      jump\t// in\n    tag_32:\n      mload(0x40)\n      tag_34\n      swap2\n      swap1\n      tag_15\n      jump\t// in\n    tag_34:\n      mload(0x40)\n      dup1\n      swap2\n      sub\n      swap1\n      return\n        /* \"contracts/Auctionsol.sol\":184:220  address payable public highestBidder */\n    tag_9:\n      tag_35\n      tag_36\n      jump\t// in\n    tag_35:\n      mload(0x40)\n      tag_37\n      swap2\n      swap1\n      tag_26\n      jump\t// in\n    tag_37:\n      mload(0x40)\n      dup1\n      swap2\n      sub\n      swap1\n      return\n        /* \"contracts/Auctionsol.sol\":262:286  uint public bidIncrement */\n    tag_10:\n      tag_38\n      tag_39\n      jump\t// in\n    tag_38:\n      mload(0x40)\n      tag_40\n      swap2\n      swap1\n      tag_15\n      jump\t// in\n    tag_40:\n      mload(0x40)\n      dup1\n      swap2\n      sub\n      swap1\n      return\n        /* \"contracts/Auctionsol.sol\":353:390  uint public endBlock = startBlock + 3 */\n    tag_13:\n      sload(0x06)\n      dup2\n      jump\t// out\n        /* \"contracts/Auctionsol.sol\":309:346  uint public startBlock = block.number */\n    tag_17:\n      sload(0x05)\n      dup2\n      jump\t// out\n        /* \"contracts/Auctionsol.sol\":492:517  State public auctionState */\n    tag_20:\n      0x07\n      0x00\n      swap1\n      sload\n      swap1\n      0x0100\n      exp\n      swap1\n      div\n      0xff\n      and\n      dup2\n      jump\t// out\n        /* \"contracts/Auctionsol.sol\":145:173  address payable public owner */\n    tag_24:\n      0x01\n      0x00\n      swap1\n      sload\n      swap1\n      0x0100\n      exp\n      swap1\n      div\n      0xffffffffffffffffffffffffffffffffffffffff\n      and\n      dup2\n      jump\t// out\n        /* \"contracts/Auctionsol.sol\":99:138  mapping(address => uint) public bidsMap */\n    tag_30:\n      mstore(0x20, 0x00)\n      dup1\n      0x00\n      mstore\n      keccak256(0x00, 0x40)\n      0x00\n      swap2\n      pop\n      swap1\n      pop\n      sload\n      dup2\n      jump\t// out\n        /* \"contracts/Auctionsol.sol\":227:255  uint public higestBindingBid */\n    tag_33:\n      sload(0x03)\n      dup2\n      jump\t// out\n        /* \"contracts/Auctionsol.sol\":184:220  address payable public highestBidder */\n    tag_36:\n      0x02\n      0x00\n      swap1\n      sload\n      swap1\n      0x0100\n      exp\n      swap1\n      div\n      0xffffffffffffffffffffffffffffffffffffffff\n      and\n      dup2\n      jump\t// out\n        /* \"contracts/Auctionsol.sol\":262:286  uint public bidIncrement */\n    tag_39:\n      sload(0x04)\n      dup2\n      jump\t// out\n        /* \"#utility.yul\":7:146   */\n    tag_42:\n        /* \"#utility.yul\":53:58   */\n      0x00\n        /* \"#utility.yul\":91:97   */\n      dup2\n        /* \"#utility.yul\":78:98   */\n      calldataload\n        /* \"#utility.yul\":69:98   */\n      swap1\n      pop\n        /* \"#utility.yul\":107:140   */\n      tag_44\n        /* \"#utility.yul\":134:139   */\n      dup2\n        /* \"#utility.yul\":107:140   */\n      tag_45\n      jump\t// in\n    tag_44:\n        /* \"#utility.yul\":7:146   */\n      swap3\n      swap2\n      pop\n      pop\n      jump\t// out\n        /* \"#utility.yul\":152:481   */\n    tag_29:\n        /* \"#utility.yul\":211:217   */\n      0x00\n        /* \"#utility.yul\":260:262   */\n      0x20\n        /* \"#utility.yul\":248:257   */\n      dup3\n        /* \"#utility.yul\":239:246   */\n      dup5\n        /* \"#utility.yul\":235:258   */\n      sub\n        /* \"#utility.yul\":231:263   */\n      slt\n        /* \"#utility.yul\":228:347   */\n      iszero\n      tag_47\n      jumpi\n        /* \"#utility.yul\":266:345   */\n      tag_48\n      tag_49\n      jump\t// in\n    tag_48:\n        /* \"#utility.yul\":228:347   */\n    tag_47:\n        /* \"#utility.yul\":386:387   */\n      0x00\n        /* \"#utility.yul\":411:464   */\n      tag_50\n        /* \"#utility.yul\":456:463   */\n      dup5\n        /* \"#utility.yul\":447:453   */\n      dup3\n        /* \"#utility.yul\":436:445   */\n      dup6\n        /* \"#utility.yul\":432:454   */\n      add\n        /* \"#utility.yul\":411:464   */\n      tag_42\n      jump\t// in\n    tag_50:\n        /* \"#utility.yul\":401:464   */\n      swap2\n      pop\n        /* \"#utility.yul\":357:474   */\n      pop\n        /* \"#utility.yul\":152:481   */\n      swap3\n      swap2\n      pop\n      pop\n      jump\t// out\n        /* \"#utility.yul\":487:629   */\n    tag_51:\n        /* \"#utility.yul\":590:622   */\n      tag_53\n        /* \"#utility.yul\":616:621   */\n      dup2\n        /* \"#utility.yul\":590:622   */\n      tag_54\n      jump\t// in\n    tag_53:\n        /* \"#utility.yul\":585:588   */\n      dup3\n        /* \"#utility.yul\":578:623   */\n      mstore\n        /* \"#utility.yul\":487:629   */\n      pop\n      pop\n      jump\t// out\n        /* \"#utility.yul\":635:778   */\n    tag_55:\n        /* \"#utility.yul\":728:771   */\n      tag_57\n        /* \"#utility.yul\":765:770   */\n      dup2\n        /* \"#utility.yul\":728:771   */\n      tag_58\n      jump\t// in\n    tag_57:\n        /* \"#utility.yul\":723:726   */\n      dup3\n        /* \"#utility.yul\":716:772   */\n      mstore\n        /* \"#utility.yul\":635:778   */\n      pop\n      pop\n      jump\t// out\n        /* \"#utility.yul\":784:902   */\n    tag_59:\n        /* \"#utility.yul\":871:895   */\n      tag_61\n        /* \"#utility.yul\":889:894   */\n      dup2\n        /* \"#utility.yul\":871:895   */\n      tag_62\n      jump\t// in\n    tag_61:\n        /* \"#utility.yul\":866:869   */\n      dup3\n        /* \"#utility.yul\":859:896   */\n      mstore\n        /* \"#utility.yul\":784:902   */\n      pop\n      pop\n      jump\t// out\n        /* \"#utility.yul\":908:1162   */\n    tag_26:\n        /* \"#utility.yul\":1017:1021   */\n      0x00\n        /* \"#utility.yul\":1055:1057   */\n      0x20\n        /* \"#utility.yul\":1044:1053   */\n      dup3\n        /* \"#utility.yul\":1040:1058   */\n      add\n        /* \"#utility.yul\":1032:1058   */\n      swap1\n      pop\n        /* \"#utility.yul\":1068:1155   */\n      tag_64\n        /* \"#utility.yul\":1152:1153   */\n      0x00\n        /* \"#utility.yul\":1141:1150   */\n      dup4\n        /* \"#utility.yul\":1137:1154   */\n      add\n        /* \"#utility.yul\":1128:1134   */\n      dup5\n        /* \"#utility.yul\":1068:1155   */\n      tag_51\n      jump\t// in\n    tag_64:\n        /* \"#utility.yul\":908:1162   */\n      swap3\n      swap2\n      pop\n      pop\n      jump\t// out\n        /* \"#utility.yul\":1168:1402   */\n    tag_22:\n        /* \"#utility.yul\":1267:1271   */\n      0x00\n        /* \"#utility.yul\":1305:1307   */\n      0x20\n        /* \"#utility.yul\":1294:1303   */\n      dup3\n        /* \"#utility.yul\":1290:1308   */\n      add\n        /* \"#utility.yul\":1282:1308   */\n      swap1\n      pop\n        /* \"#utility.yul\":1318:1395   */\n      tag_66\n        /* \"#utility.yul\":1392:1393   */\n      0x00\n        /* \"#utility.yul\":1381:1390   */\n      dup4\n        /* \"#utility.yul\":1377:1394   */\n      add\n        /* \"#utility.yul\":1368:1374   */\n      dup5\n        /* \"#utility.yul\":1318:1395   */\n      tag_55\n      jump\t// in\n    tag_66:\n        /* \"#utility.yul\":1168:1402   */\n      swap3\n      swap2\n      pop\n      pop\n      jump\t// out\n        /* \"#utility.yul\":1408:1630   */\n    tag_15:\n        /* \"#utility.yul\":1501:1505   */\n      0x00\n        /* \"#utility.yul\":1539:1541   */\n      0x20\n        /* \"#utility.yul\":1528:1537   */\n      dup3\n        /* \"#utility.yul\":1524:1542   */\n      add\n        /* \"#utility.yul\":1516:1542   */\n      swap1\n      pop\n        /* \"#utility.yul\":1552:1623   */\n      tag_68\n        /* \"#utility.yul\":1620:1621   */\n      0x00\n        /* \"#utility.yul\":1609:1618   */\n      dup4\n        /* \"#utility.yul\":1605:1622   */\n      add\n        /* \"#utility.yul\":1596:1602   */\n      dup5\n        /* \"#utility.yul\":1552:1623   */\n      tag_59\n      jump\t// in\n    tag_68:\n        /* \"#utility.yul\":1408:1630   */\n      swap3\n      swap2\n      pop\n      pop\n      jump\t// out\n        /* \"#utility.yul\":1717:1813   */\n    tag_71:\n        /* \"#utility.yul\":1754:1761   */\n      0x00\n        /* \"#utility.yul\":1783:1807   */\n      tag_73\n        /* \"#utility.yul\":1801:1806   */\n      dup3\n        /* \"#utility.yul\":1783:1807   */\n      tag_74\n      jump\t// in\n    tag_73:\n        /* \"#utility.yul\":1772:1807   */\n      swap1\n      pop\n        /* \"#utility.yul\":1717:1813   */\n      swap2\n      swap1\n      pop\n      jump\t// out\n        /* \"#utility.yul\":1819:1923   */\n    tag_54:\n        /* \"#utility.yul\":1864:1871   */\n      0x00\n        /* \"#utility.yul\":1893:1917   */\n      tag_76\n        /* \"#utility.yul\":1911:1916   */\n      dup3\n        /* \"#utility.yul\":1893:1917   */\n      tag_74\n      jump\t// in\n    tag_76:\n        /* \"#utility.yul\":1882:1917   */\n      swap1\n      pop\n        /* \"#utility.yul\":1819:1923   */\n      swap2\n      swap1\n      pop\n      jump\t// out\n        /* \"#utility.yul\":1929:2056   */\n    tag_77:\n        /* \"#utility.yul\":1974:1981   */\n      0x00\n        /* \"#utility.yul\":2003:2008   */\n      dup2\n        /* \"#utility.yul\":1992:2008   */\n      swap1\n      pop\n        /* \"#utility.yul\":2009:2050   */\n      tag_79\n        /* \"#utility.yul\":2044:2049   */\n      dup3\n        /* \"#utility.yul\":2009:2050   */\n      tag_80\n      jump\t// in\n    tag_79:\n        /* \"#utility.yul\":1929:2056   */\n      swap2\n      swap1\n      pop\n      jump\t// out\n        /* \"#utility.yul\":2062:2188   */\n    tag_74:\n        /* \"#utility.yul\":2099:2106   */\n      0x00\n        /* \"#utility.yul\":2139:2181   */\n      0xffffffffffffffffffffffffffffffffffffffff\n        /* \"#utility.yul\":2132:2137   */\n      dup3\n        /* \"#utility.yul\":2128:2182   */\n      and\n        /* \"#utility.yul\":2117:2182   */\n      swap1\n      pop\n        /* \"#utility.yul\":2062:2188   */\n      swap2\n      swap1\n      pop\n      jump\t// out\n        /* \"#utility.yul\":2194:2271   */\n    tag_62:\n        /* \"#utility.yul\":2231:2238   */\n      0x00\n        /* \"#utility.yul\":2260:2265   */\n      dup2\n        /* \"#utility.yul\":2249:2265   */\n      swap1\n      pop\n        /* \"#utility.yul\":2194:2271   */\n      swap2\n      swap1\n      pop\n      jump\t// out\n        /* \"#utility.yul\":2277:2404   */\n    tag_58:\n        /* \"#utility.yul\":2333:2342   */\n      0x00\n        /* \"#utility.yul\":2366:2398   */\n      tag_84\n        /* \"#utility.yul\":2392:2397   */\n      dup3\n        /* \"#utility.yul\":2366:2398   */\n      tag_77\n      jump\t// in\n    tag_84:\n        /* \"#utility.yul\":2353:2398   */\n      swap1\n      pop\n        /* \"#utility.yul\":2277:2404   */\n      swap2\n      swap1\n      pop\n      jump\t// out\n        /* \"#utility.yul\":2410:2590   */\n    tag_85:\n        /* \"#utility.yul\":2458:2535   */\n      0x4e487b7100000000000000000000000000000000000000000000000000000000\n        /* \"#utility.yul\":2455:2456   */\n      0x00\n        /* \"#utility.yul\":2448:2536   */\n      mstore\n        /* \"#utility.yul\":2555:2559   */\n      0x21\n        /* \"#utility.yul\":2552:2553   */\n      0x04\n        /* \"#utility.yul\":2545:2560   */\n      mstore\n        /* \"#utility.yul\":2579:2583   */\n      0x24\n        /* \"#utility.yul\":2576:2577   */\n      0x00\n        /* \"#utility.yul\":2569:2584   */\n      revert\n        /* \"#utility.yul\":2719:2836   */\n    tag_49:\n        /* \"#utility.yul\":2828:2829   */\n      0x00\n        /* \"#utility.yul\":2825:2826   */\n      dup1\n        /* \"#utility.yul\":2818:2830   */\n      revert\n        /* \"#utility.yul\":2842:2955   */\n    tag_80:\n        /* \"#utility.yul\":2923:2924   */\n      0x04\n        /* \"#utility.yul\":2916:2921   */\n      dup2\n        /* \"#utility.yul\":2913:2925   */\n      lt\n        /* \"#utility.yul\":2903:2949   */\n      tag_91\n      jumpi\n        /* \"#utility.yul\":2929:2947   */\n      tag_92\n      tag_85\n      jump\t// in\n    tag_92:\n        /* \"#utility.yul\":2903:2949   */\n    tag_91:\n        /* \"#utility.yul\":2842:2955   */\n      pop\n      jump\t// out\n        /* \"#utility.yul\":2961:3083   */\n    tag_45:\n        /* \"#utility.yul\":3034:3058   */\n      tag_94\n        /* \"#utility.yul\":3052:3057   */\n      dup2\n        /* \"#utility.yul\":3034:3058   */\n      tag_71\n      jump\t// in\n    tag_94:\n        /* \"#utility.yul\":3027:3032   */\n      dup2\n        /* \"#utility.yul\":3024:3059   */\n      eq\n        /* \"#utility.yul\":3014:3077   */\n      tag_95\n      jumpi\n        /* \"#utility.yul\":3073:3074   */\n      0x00\n        /* \"#utility.yul\":3070:3071   */\n      dup1\n        /* \"#utility.yul\":3063:3075   */\n      revert\n        /* \"#utility.yul\":3014:3077   */\n    tag_95:\n        /* \"#utility.yul\":2961:3083   */\n      pop\n      jump\t// out\n\n    auxdata: 0xa2646970667358221220a7df09ff42054baf3a90bc854ed43f733dd1f2af46f2f657aa3b756267f9a32164736f6c63430008070033\n}\n",
				"bytecode": {
					"linkReferences": {},
					"object": "608060405243600555600360055461001791906100a0565b60065534801561002657600080fd5b5033600160006101000a81548173ffffffffffffffffffffffffffffffffffffffff021916908373ffffffffffffffffffffffffffffffffffffffff16021790555060646004819055506001600760006101000a81548160ff021916908360038111156100965761009561012f565b5b021790555061015e565b60006100ab826100f6565b91506100b6836100f6565b9250827fffffffffffffffffffffffffffffffffffffffffffffffffffffffffffffffff038211156100eb576100ea610100565b5b828201905092915050565b6000819050919050565b7f4e487b7100000000000000000000000000000000000000000000000000000000600052601160045260246000fd5b7f4e487b7100000000000000000000000000000000000000000000000000000000600052602160045260246000fd5b6103e68061016d6000396000f3fe608060405234801561001057600080fd5b50600436106100885760003560e01c80638ee775121161005b5780638ee775121461010557806391c11f7d1461013557806391f9015714610153578063b3cc167a1461017157610088565b8063083c63231461008d57806348cd4cb1146100ab5780637fb45099146100c95780638da5cb5b146100e7575b600080fd5b61009561018f565b6040516100a291906102c3565b60405180910390f35b6100b3610195565b6040516100c091906102c3565b60405180910390f35b6100d161019b565b6040516100de91906102a8565b60405180910390f35b6100ef6101ae565b6040516100fc919061028d565b60405180910390f35b61011f600480360381019061011a9190610233565b6101d4565b60405161012c91906102c3565b60405180910390f35b61013d6101ec565b60405161014a91906102c3565b60405180910390f35b61015b6101f2565b604051610168919061028d565b60405180910390f35b610179610218565b60405161018691906102c3565b60405180910390f35b60065481565b60055481565b600760009054906101000a900460ff1681565b600160009054906101000a900473ffffffffffffffffffffffffffffffffffffffff1681565b60006020528060005260406000206000915090505481565b60035481565b600260009054906101000a900473ffffffffffffffffffffffffffffffffffffffff1681565b60045481565b60008135905061022d81610399565b92915050565b60006020828403121561024957610248610380565b5b60006102578482850161021e565b91505092915050565b610269816102f0565b82525050565b6102788161033f565b82525050565b61028781610335565b82525050565b60006020820190506102a26000830184610260565b92915050565b60006020820190506102bd600083018461026f565b92915050565b60006020820190506102d8600083018461027e565b92915050565b60006102e982610315565b9050919050565b60006102fb82610315565b9050919050565b600081905061031082610385565b919050565b600073ffffffffffffffffffffffffffffffffffffffff82169050919050565b6000819050919050565b600061034a82610302565b9050919050565b7f4e487b7100000000000000000000000000000000000000000000000000000000600052602160045260246000fd5b600080fd5b6004811061039657610395610351565b5b50565b6103a2816102de565b81146103ad57600080fd5b5056fea2646970667358221220a7df09ff42054baf3a90bc854ed43f733dd1f2af46f2f657aa3b756267f9a32164736f6c63430008070033",
					"opcodes": "PUSH1 0x80 PUSH1 0x40 MSTORE NUMBER PUSH1 0x5 SSTORE PUSH1 0x3 PUSH1 0x5 SLOAD PUSH2 0x17 SWAP2 SWAP1 PUSH2 0xA0 JUMP JUMPDEST PUSH1 0x6 SSTORE CALLVALUE DUP1 ISZERO PUSH2 0x26 JUMPI PUSH1 0x0 DUP1 REVERT JUMPDEST POP CALLER PUSH1 0x1 PUSH1 0x0 PUSH2 0x100 EXP DUP2 SLOAD DUP2 PUSH20 0xFFFFFFFFFFFFFFFFFFFFFFFFFFFFFFFFFFFFFFFF MUL NOT AND SWAP1 DUP4 PUSH20 0xFFFFFFFFFFFFFFFFFFFFFFFFFFFFFFFFFFFFFFFF AND MUL OR SWAP1 SSTORE POP PUSH1 0x64 PUSH1 0x4 DUP2 SWAP1 SSTORE POP PUSH1 0x1 PUSH1 0x7 PUSH1 0x0 PUSH2 0x100 EXP DUP2 SLOAD DUP2 PUSH1 0xFF MUL NOT AND SWAP1 DUP4 PUSH1 0x3 DUP2 GT ISZERO PUSH2 0x96 JUMPI PUSH2 0x95 PUSH2 0x12F JUMP JUMPDEST JUMPDEST MUL OR SWAP1 SSTORE POP PUSH2 0x15E JUMP JUMPDEST PUSH1 0x0 PUSH2 0xAB DUP3 PUSH2 0xF6 JUMP JUMPDEST SWAP2 POP PUSH2 0xB6 DUP4 PUSH2 0xF6 JUMP JUMPDEST SWAP3 POP DUP3 PUSH32 0xFFFFFFFFFFFFFFFFFFFFFFFFFFFFFFFFFFFFFFFFFFFFFFFFFFFFFFFFFFFFFFFF SUB DUP3 GT ISZERO PUSH2 0xEB JUMPI PUSH2 0xEA PUSH2 0x100 JUMP JUMPDEST JUMPDEST DUP3 DUP3 ADD SWAP1 POP SWAP3 SWAP2 POP POP JUMP JUMPDEST PUSH1 0x0 DUP2 SWAP1 POP SWAP2 SWAP1 POP JUMP JUMPDEST PUSH32 0x4E487B7100000000000000000000000000000000000000000000000000000000 PUSH1 0x0 MSTORE PUSH1 0x11 PUSH1 0x4 MSTORE PUSH1 0x24 PUSH1 0x0 REVERT JUMPDEST PUSH32 0x4E487B7100000000000000000000000000000000000000000000000000000000 PUSH1 0x0 MSTORE PUSH1 0x21 PUSH1 0x4 MSTORE PUSH1 0x24 PUSH1 0x0 REVERT JUMPDEST PUSH2 0x3E6 DUP1 PUSH2 0x16D PUSH1 0x0 CODECOPY PUSH1 0x0 RETURN INVALID PUSH1 0x80 PUSH1 0x40 MSTORE CALLVALUE DUP1 ISZERO PUSH2 0x10 JUMPI PUSH1 0x0 DUP1 REVERT JUMPDEST POP PUSH1 0x4 CALLDATASIZE LT PUSH2 0x88 JUMPI PUSH1 0x0 CALLDATALOAD PUSH1 0xE0 SHR DUP1 PUSH4 0x8EE77512 GT PUSH2 0x5B JUMPI DUP1 PUSH4 0x8EE77512 EQ PUSH2 0x105 JUMPI DUP1 PUSH4 0x91C11F7D EQ PUSH2 0x135 JUMPI DUP1 PUSH4 0x91F90157 EQ PUSH2 0x153 JUMPI DUP1 PUSH4 0xB3CC167A EQ PUSH2 0x171 JUMPI PUSH2 0x88 JUMP JUMPDEST DUP1 PUSH4 0x83C6323 EQ PUSH2 0x8D JUMPI DUP1 PUSH4 0x48CD4CB1 EQ PUSH2 0xAB JUMPI DUP1 PUSH4 0x7FB45099 EQ PUSH2 0xC9 JUMPI DUP1 PUSH4 0x8DA5CB5B EQ PUSH2 0xE7 JUMPI JUMPDEST PUSH1 0x0 DUP1 REVERT JUMPDEST PUSH2 0x95 PUSH2 0x18F JUMP JUMPDEST PUSH1 0x40 MLOAD PUSH2 0xA2 SWAP2 SWAP1 PUSH2 0x2C3 JUMP JUMPDEST PUSH1 0x40 MLOAD DUP1 SWAP2 SUB SWAP1 RETURN JUMPDEST PUSH2 0xB3 PUSH2 0x195 JUMP JUMPDEST PUSH1 0x40 MLOAD PUSH2 0xC0 SWAP2 SWAP1 PUSH2 0x2C3 JUMP JUMPDEST PUSH1 0x40 MLOAD DUP1 SWAP2 SUB SWAP1 RETURN JUMPDEST PUSH2 0xD1 PUSH2 0x19B JUMP JUMPDEST PUSH1 0x40 MLOAD PUSH2 0xDE SWAP2 SWAP1 PUSH2 0x2A8 JUMP JUMPDEST PUSH1 0x40 MLOAD DUP1 SWAP2 SUB SWAP1 RETURN JUMPDEST PUSH2 0xEF PUSH2 0x1AE JUMP JUMPDEST PUSH1 0x40 MLOAD PUSH2 0xFC SWAP2 SWAP1 PUSH2 0x28D JUMP JUMPDEST PUSH1 0x40 MLOAD DUP1 SWAP2 SUB SWAP1 RETURN JUMPDEST PUSH2 0x11F PUSH1 0x4 DUP1 CALLDATASIZE SUB DUP2 ADD SWAP1 PUSH2 0x11A SWAP2 SWAP1 PUSH2 0x233 JUMP JUMPDEST PUSH2 0x1D4 JUMP JUMPDEST PUSH1 0x40 MLOAD PUSH2 0x12C SWAP2 SWAP1 PUSH2 0x2C3 JUMP JUMPDEST PUSH1 0x40 MLOAD DUP1 SWAP2 SUB SWAP1 RETURN JUMPDEST PUSH2 0x13D PUSH2 0x1EC JUMP JUMPDEST PUSH1 0x40 MLOAD PUSH2 0x14A SWAP2 SWAP1 PUSH2 0x2C3 JUMP JUMPDEST PUSH1 0x40 MLOAD DUP1 SWAP2 SUB SWAP1 RETURN JUMPDEST PUSH2 0x15B PUSH2 0x1F2 JUMP JUMPDEST PUSH1 0x40 MLOAD PUSH2 0x168 SWAP2 SWAP1 PUSH2 0x28D JUMP JUMPDEST PUSH1 0x40 MLOAD DUP1 SWAP2 SUB SWAP1 RETURN JUMPDEST PUSH2 0x179 PUSH2 0x218 JUMP JUMPDEST PUSH1 0x40 MLOAD PUSH2 0x186 SWAP2 SWAP1 PUSH2 0x2C3 JUMP JUMPDEST PUSH1 0x40 MLOAD DUP1 SWAP2 SUB SWAP1 RETURN JUMPDEST PUSH1 0x6 SLOAD DUP2 JUMP JUMPDEST PUSH1 0x5 SLOAD DUP2 JUMP JUMPDEST PUSH1 0x7 PUSH1 0x0 SWAP1 SLOAD SWAP1 PUSH2 0x100 EXP SWAP1 DIV PUSH1 0xFF AND DUP2 JUMP JUMPDEST PUSH1 0x1 PUSH1 0x0 SWAP1 SLOAD SWAP1 PUSH2 0x100 EXP SWAP1 DIV PUSH20 0xFFFFFFFFFFFFFFFFFFFFFFFFFFFFFFFFFFFFFFFF AND DUP2 JUMP JUMPDEST PUSH1 0x0 PUSH1 0x20 MSTORE DUP1 PUSH1 0x0 MSTORE PUSH1 0x40 PUSH1 0x0 KECCAK256 PUSH1 0x0 SWAP2 POP SWAP1 POP SLOAD DUP2 JUMP JUMPDEST PUSH1 0x3 SLOAD DUP2 JUMP JUMPDEST PUSH1 0x2 PUSH1 0x0 SWAP1 SLOAD SWAP1 PUSH2 0x100 EXP SWAP1 DIV PUSH20 0xFFFFFFFFFFFFFFFFFFFFFFFFFFFFFFFFFFFFFFFF AND DUP2 JUMP JUMPDEST PUSH1 0x4 SLOAD DUP2 JUMP JUMPDEST PUSH1 0x0 DUP2 CALLDATALOAD SWAP1 POP PUSH2 0x22D DUP2 PUSH2 0x399 JUMP JUMPDEST SWAP3 SWAP2 POP POP JUMP JUMPDEST PUSH1 0x0 PUSH1 0x20 DUP3 DUP5 SUB SLT ISZERO PUSH2 0x249 JUMPI PUSH2 0x248 PUSH2 0x380 JUMP JUMPDEST JUMPDEST PUSH1 0x0 PUSH2 0x257 DUP5 DUP3 DUP6 ADD PUSH2 0x21E JUMP JUMPDEST SWAP2 POP POP SWAP3 SWAP2 POP POP JUMP JUMPDEST PUSH2 0x269 DUP2 PUSH2 0x2F0 JUMP JUMPDEST DUP3 MSTORE POP POP JUMP JUMPDEST PUSH2 0x278 DUP2 PUSH2 0x33F JUMP JUMPDEST DUP3 MSTORE POP POP JUMP JUMPDEST PUSH2 0x287 DUP2 PUSH2 0x335 JUMP JUMPDEST DUP3 MSTORE POP POP JUMP JUMPDEST PUSH1 0x0 PUSH1 0x20 DUP3 ADD SWAP1 POP PUSH2 0x2A2 PUSH1 0x0 DUP4 ADD DUP5 PUSH2 0x260 JUMP JUMPDEST SWAP3 SWAP2 POP POP JUMP JUMPDEST PUSH1 0x0 PUSH1 0x20 DUP3 ADD SWAP1 POP PUSH2 0x2BD PUSH1 0x0 DUP4 ADD DUP5 PUSH2 0x26F JUMP JUMPDEST SWAP3 SWAP2 POP POP JUMP JUMPDEST PUSH1 0x0 PUSH1 0x20 DUP3 ADD SWAP1 POP PUSH2 0x2D8 PUSH1 0x0 DUP4 ADD DUP5 PUSH2 0x27E JUMP JUMPDEST SWAP3 SWAP2 POP POP JUMP JUMPDEST PUSH1 0x0 PUSH2 0x2E9 DUP3 PUSH2 0x315 JUMP JUMPDEST SWAP1 POP SWAP2 SWAP1 POP JUMP JUMPDEST PUSH1 0x0 PUSH2 0x2FB DUP3 PUSH2 0x315 JUMP JUMPDEST SWAP1 POP SWAP2 SWAP1 POP JUMP JUMPDEST PUSH1 0x0 DUP2 SWAP1 POP PUSH2 0x310 DUP3 PUSH2 0x385 JUMP JUMPDEST SWAP2 SWAP1 POP JUMP JUMPDEST PUSH1 0x0 PUSH20 0xFFFFFFFFFFFFFFFFFFFFFFFFFFFFFFFFFFFFFFFF DUP3 AND SWAP1 POP SWAP2 SWAP1 POP JUMP JUMPDEST PUSH1 0x0 DUP2 SWAP1 POP SWAP2 SWAP1 POP JUMP JUMPDEST PUSH1 0x0 PUSH2 0x34A DUP3 PUSH2 0x302 JUMP JUMPDEST SWAP1 POP SWAP2 SWAP1 POP JUMP JUMPDEST PUSH32 0x4E487B7100000000000000000000000000000000000000000000000000000000 PUSH1 0x0 MSTORE PUSH1 0x21 PUSH1 0x4 MSTORE PUSH1 0x24 PUSH1 0x0 REVERT JUMPDEST PUSH1 0x0 DUP1 REVERT JUMPDEST PUSH1 0x4 DUP2 LT PUSH2 0x396 JUMPI PUSH2 0x395 PUSH2 0x351 JUMP JUMPDEST JUMPDEST POP JUMP JUMPDEST PUSH2 0x3A2 DUP2 PUSH2 0x2DE JUMP JUMPDEST DUP2 EQ PUSH2 0x3AD JUMPI PUSH1 0x0 DUP1 REVERT JUMPDEST POP JUMP INVALID LOG2 PUSH5 0x6970667358 0x22 SLT KECCAK256 0xA7 0xDF MULMOD SELFDESTRUCT TIMESTAMP SDIV 0x4B 0xAF GASPRICE SWAP1 0xBC DUP6 0x4E 0xD4 EXTCODEHASH PUSH20 0x3DD1F2AF46F2F657AA3B756267F9A32164736F6C PUSH4 0x43000807 STOP CALLER "
				},
				"gasEstimates": {
					"creation": {
						"codeDepositCost": "199600",
						"executionCost": "infinite",
						"totalCost": "infinite"
					},
					"external": {
						"auctionState()": "2605",
						"bidIncrement()": "2495",
						"bidsMap(address)": "2814",
						"endBlock()": "2430",
						"higestBindingBid()": "2451",
						"highestBidder()": "2558",
						"owner()": "2581",
						"startBlock()": "2452"
					}
				},
				"methodIdentifiers": {
					"auctionState()": "7fb45099",
					"bidIncrement()": "b3cc167a",
					"bidsMap(address)": "8ee77512",
					"endBlock()": "083c6323",
					"higestBindingBid()": "91c11f7d",
					"highestBidder()": "91f90157",
					"owner()": "8da5cb5b",
					"startBlock()": "48cd4cb1"
				}
			},
			"storageLayout": {
				"storage": [
					{
						"astId": 5,
						"contract": "contracts/Auctionsol.sol:Lottery",
						"label": "bidsMap",
						"offset": 0,
						"slot": "0",
						"type": "t_mapping(t_address,t_uint256)"
					},
					{
						"astId": 7,
						"contract": "contracts/Auctionsol.sol:Lottery",
						"label": "owner",
						"offset": 0,
						"slot": "1",
						"type": "t_address_payable"
					},
					{
						"astId": 9,
						"contract": "contracts/Auctionsol.sol:Lottery",
						"label": "highestBidder",
						"offset": 0,
						"slot": "2",
						"type": "t_address_payable"
					},
					{
						"astId": 11,
						"contract": "contracts/Auctionsol.sol:Lottery",
						"label": "higestBindingBid",
						"offset": 0,
						"slot": "3",
						"type": "t_uint256"
					},
					{
						"astId": 13,
						"contract": "contracts/Auctionsol.sol:Lottery",
						"label": "bidIncrement",
						"offset": 0,
						"slot": "4",
						"type": "t_uint256"
					},
					{
						"astId": 17,
						"contract": "contracts/Auctionsol.sol:Lottery",
						"label": "startBlock",
						"offset": 0,
						"slot": "5",
						"type": "t_uint256"
					},
					{
						"astId": 22,
						"contract": "contracts/Auctionsol.sol:Lottery",
						"label": "endBlock",
						"offset": 0,
						"slot": "6",
						"type": "t_uint256"
					},
					{
						"astId": 30,
						"contract": "contracts/Auctionsol.sol:Lottery",
						"label": "auctionState",
						"offset": 0,
						"slot": "7",
						"type": "t_enum(State)27"
					}
				],
				"types": {
					"t_address": {
						"encoding": "inplace",
						"label": "address",
						"numberOfBytes": "20"
					},
					"t_address_payable": {
						"encoding": "inplace",
						"label": "address payable",
						"numberOfBytes": "20"
					},
					"t_enum(State)27": {
						"encoding": "inplace",
						"label": "enum Lottery.State",
						"numberOfBytes": "1"
					},
					"t_mapping(t_address,t_uint256)": {
						"encoding": "mapping",
						"key": "t_address",
						"label": "mapping(address => uint256)",
						"numberOfBytes": "32",
						"value": "t_uint256"
					},
					"t_uint256": {
						"encoding": "inplace",
						"label": "uint256",
						"numberOfBytes": "32"
					}
				}
			},
			"userdoc": {
				"kind": "user",
				"methods": {},
				"version": 1
			}
		}
	}
}