{
	"contracts/FixedSizeArrays.sol": {
		"FixedSizeArrays": {
			"abi": [
				{
					"inputs": [],
					"name": "b1",
					"outputs": [
						{
							"internalType": "bytes1",
							"name": "",
							"type": "bytes1"
						}
					],
					"stateMutability": "view",
					"type": "function"
				},
				{
					"inputs": [],
					"name": "b2",
					"outputs": [
						{
							"internalType": "bytes2",
							"name": "",
							"type": "bytes2"
						}
					],
					"stateMutability": "view",
					"type": "function"
				},
				{
					"inputs": [],
					"name": "b3",
					"outputs": [
						{
							"internalType": "bytes3",
							"name": "",
							"type": "bytes3"
						}
					],
					"stateMutability": "view",
					"type": "function"
				},
				{
					"inputs": [],
					"name": "getArrayLength",
					"outputs": [
						{
							"internalType": "uint256",
							"name": "",
							"type": "uint256"
						}
					],
					"stateMutability": "view",
					"type": "function"
				},
				{
					"inputs": [
						{
							"internalType": "uint256",
							"name": "",
							"type": "uint256"
						}
					],
					"name": "numbers",
					"outputs": [
						{
							"internalType": "uint256",
							"name": "",
							"type": "uint256"
						}
					],
					"stateMutability": "view",
					"type": "function"
				},
				{
					"inputs": [
						{
							"internalType": "uint256",
							"name": "index",
							"type": "uint256"
						},
						{
							"internalType": "uint256",
							"name": "number",
							"type": "uint256"
						}
					],
					"name": "setArrayElement",
					"outputs": [],
					"stateMutability": "nonpayable",
					"type": "function"
				},
				{
					"inputs": [],
					"name": "setByteArray",
					"outputs": [],
					"stateMutability": "nonpayable",
					"type": "function"
				}
			],
			"devdoc": {
				"kind": "dev",
				"methods": {},
				"version": 1
			},
			"evm": {
				"assembly": "    /* \"contracts/FixedSizeArrays.sol\":75:570  contract FixedSizeArrays{\r... */\n  mstore(0x40, 0x80)\n  callvalue\n  dup1\n  iszero\n  tag_1\n  jumpi\n  0x00\n  dup1\n  revert\ntag_1:\n  pop\n  dataSize(sub_0)\n  dup1\n  dataOffset(sub_0)\n  0x00\n  codecopy\n  0x00\n  return\nstop\n\nsub_0: assembly {\n        /* \"contracts/FixedSizeArrays.sol\":75:570  contract FixedSizeArrays{\r... */\n      mstore(0x40, 0x80)\n      callvalue\n      dup1\n      iszero\n      tag_1\n      jumpi\n      0x00\n      dup1\n      revert\n    tag_1:\n      pop\n      jumpi(tag_2, lt(calldatasize, 0x04))\n      shr(0xe0, calldataload(0x00))\n      dup1\n      0xa27b23a1\n      gt\n      tag_10\n      jumpi\n      dup1\n      0xa27b23a1\n      eq\n      tag_6\n      jumpi\n      dup1\n      0xd39fa233\n      eq\n      tag_7\n      jumpi\n      dup1\n      0xe9b61909\n      eq\n      tag_8\n      jumpi\n      dup1\n      0xee495002\n      eq\n      tag_9\n      jumpi\n      jump(tag_2)\n    tag_10:\n      dup1\n      0x0849cc99\n      eq\n      tag_3\n      jumpi\n      dup1\n      0x0add6ef2\n      eq\n      tag_4\n      jumpi\n      dup1\n      0x8b137a4f\n      eq\n      tag_5\n      jumpi\n    tag_2:\n      0x00\n      dup1\n      revert\n        /* \"contracts/FixedSizeArrays.sol\":367:458  function getArrayLength() public view returns(uint){\r... */\n    tag_3:\n      tag_11\n      tag_12\n      jump\t// in\n    tag_11:\n      mload(0x40)\n      tag_13\n      swap2\n      swap1\n      tag_14\n      jump\t// in\n    tag_13:\n      mload(0x40)\n      dup1\n      swap2\n      sub\n      swap1\n      return\n        /* \"contracts/FixedSizeArrays.sol\":212:228  bytes2 public b2 */\n    tag_4:\n      tag_15\n      tag_16\n      jump\t// in\n    tag_15:\n      mload(0x40)\n      tag_17\n      swap2\n      swap1\n      tag_18\n      jump\t// in\n    tag_17:\n      mload(0x40)\n      dup1\n      swap2\n      sub\n      swap1\n      return\n        /* \"contracts/FixedSizeArrays.sol\":466:565  function setByteArray() public {\r... */\n    tag_5:\n      tag_19\n      tag_20\n      jump\t// in\n    tag_19:\n      stop\n        /* \"contracts/FixedSizeArrays.sol\":260:359  function setArrayElement(uint index, uint number) public {\r... */\n    tag_6:\n      tag_21\n      0x04\n      dup1\n      calldatasize\n      sub\n      dup2\n      add\n      swap1\n      tag_22\n      swap2\n      swap1\n      tag_23\n      jump\t// in\n    tag_22:\n      tag_24\n      jump\t// in\n    tag_21:\n      stop\n        /* \"contracts/FixedSizeArrays.sol\":131:153  uint[4] public numbers */\n    tag_7:\n      tag_25\n      0x04\n      dup1\n      calldatasize\n      sub\n      dup2\n      add\n      swap1\n      tag_26\n      swap2\n      swap1\n      tag_27\n      jump\t// in\n    tag_26:\n      tag_28\n      jump\t// in\n    tag_25:\n      mload(0x40)\n      tag_29\n      swap2\n      swap1\n      tag_14\n      jump\t// in\n    tag_29:\n      mload(0x40)\n      dup1\n      swap2\n      sub\n      swap1\n      return\n        /* \"contracts/FixedSizeArrays.sol\":235:251  bytes3 public b3 */\n    tag_8:\n      tag_30\n      tag_31\n      jump\t// in\n    tag_30:\n      mload(0x40)\n      tag_32\n      swap2\n      swap1\n      tag_33\n      jump\t// in\n    tag_32:\n      mload(0x40)\n      dup1\n      swap2\n      sub\n      swap1\n      return\n        /* \"contracts/FixedSizeArrays.sol\":189:205  bytes1 public b1 */\n    tag_9:\n      tag_34\n      tag_35\n      jump\t// in\n    tag_34:\n      mload(0x40)\n      tag_36\n      swap2\n      swap1\n      tag_37\n      jump\t// in\n    tag_36:\n      mload(0x40)\n      dup1\n      swap2\n      sub\n      swap1\n      return\n        /* \"contracts/FixedSizeArrays.sol\":367:458  function getArrayLength() public view returns(uint){\r... */\n    tag_12:\n        /* \"contracts/FixedSizeArrays.sol\":413:417  uint */\n      0x00\n        /* \"contracts/FixedSizeArrays.sol\":436:450  numbers.length */\n      0x04\n        /* \"contracts/FixedSizeArrays.sol\":429:450  return numbers.length */\n      swap1\n      pop\n        /* \"contracts/FixedSizeArrays.sol\":367:458  function getArrayLength() public view returns(uint){\r... */\n      swap1\n      jump\t// out\n        /* \"contracts/FixedSizeArrays.sol\":212:228  bytes2 public b2 */\n    tag_16:\n      0x04\n      0x01\n      swap1\n      sload\n      swap1\n      0x0100\n      exp\n      swap1\n      div\n      0xf0\n      shl\n      dup2\n      jump\t// out\n        /* \"contracts/FixedSizeArrays.sol\":466:565  function setByteArray() public {\r... */\n    tag_20:\n        /* \"contracts/FixedSizeArrays.sol\":508:516  b1 = 'a' */\n      0x6100000000000000000000000000000000000000000000000000000000000000\n        /* \"contracts/FixedSizeArrays.sol\":508:510  b1 */\n      0x04\n      0x00\n        /* \"contracts/FixedSizeArrays.sol\":508:516  b1 = 'a' */\n      0x0100\n      exp\n      dup2\n      sload\n      dup2\n      0xff\n      mul\n      not\n      and\n      swap1\n      dup4\n      0xf8\n      shr\n      mul\n      or\n      swap1\n      sstore\n      pop\n        /* \"contracts/FixedSizeArrays.sol\":527:536  b2 = 'ab' */\n      0x6162000000000000000000000000000000000000000000000000000000000000\n        /* \"contracts/FixedSizeArrays.sol\":527:529  b2 */\n      0x04\n      0x01\n        /* \"contracts/FixedSizeArrays.sol\":527:536  b2 = 'ab' */\n      0x0100\n      exp\n      dup2\n      sload\n      dup2\n      0xffff\n      mul\n      not\n      and\n      swap1\n      dup4\n      0xf0\n      shr\n      mul\n      or\n      swap1\n      sstore\n      pop\n        /* \"contracts/FixedSizeArrays.sol\":547:557  b3 = 'abc' */\n      0x6162630000000000000000000000000000000000000000000000000000000000\n        /* \"contracts/FixedSizeArrays.sol\":547:549  b3 */\n      0x04\n      0x03\n        /* \"contracts/FixedSizeArrays.sol\":547:557  b3 = 'abc' */\n      0x0100\n      exp\n      dup2\n      sload\n      dup2\n      0xffffff\n      mul\n      not\n      and\n      swap1\n      dup4\n      0xe8\n      shr\n      mul\n      or\n      swap1\n      sstore\n      pop\n        /* \"contracts/FixedSizeArrays.sol\":466:565  function setByteArray() public {\r... */\n      jump\t// out\n        /* \"contracts/FixedSizeArrays.sol\":260:359  function setArrayElement(uint index, uint number) public {\r... */\n    tag_24:\n        /* \"contracts/FixedSizeArrays.sol\":345:351  number */\n      dup1\n        /* \"contracts/FixedSizeArrays.sol\":328:335  numbers */\n      0x00\n        /* \"contracts/FixedSizeArrays.sol\":336:341  index */\n      dup4\n        /* \"contracts/FixedSizeArrays.sol\":328:342  numbers[index] */\n      0x04\n      dup2\n      lt\n      tag_41\n      jumpi\n      tag_42\n      tag_43\n      jump\t// in\n    tag_42:\n    tag_41:\n      add\n        /* \"contracts/FixedSizeArrays.sol\":328:351  numbers[index] = number */\n      dup2\n      swap1\n      sstore\n      pop\n        /* \"contracts/FixedSizeArrays.sol\":260:359  function setArrayElement(uint index, uint number) public {\r... */\n      pop\n      pop\n      jump\t// out\n        /* \"contracts/FixedSizeArrays.sol\":131:153  uint[4] public numbers */\n    tag_28:\n      0x00\n      dup2\n      0x04\n      dup2\n      lt\n      tag_45\n      jumpi\n      0x00\n      dup1\n      revert\n    tag_45:\n      add\n      0x00\n      swap2\n      pop\n      swap1\n      pop\n      sload\n      dup2\n      jump\t// out\n        /* \"contracts/FixedSizeArrays.sol\":235:251  bytes3 public b3 */\n    tag_31:\n      0x04\n      0x03\n      swap1\n      sload\n      swap1\n      0x0100\n      exp\n      swap1\n      div\n      0xe8\n      shl\n      dup2\n      jump\t// out\n        /* \"contracts/FixedSizeArrays.sol\":189:205  bytes1 public b1 */\n    tag_35:\n      0x04\n      0x00\n      swap1\n      sload\n      swap1\n      0x0100\n      exp\n      swap1\n      div\n      0xf8\n      shl\n      dup2\n      jump\t// out\n        /* \"#utility.yul\":7:146   */\n    tag_48:\n        /* \"#utility.yul\":53:58   */\n      0x00\n        /* \"#utility.yul\":91:97   */\n      dup2\n        /* \"#utility.yul\":78:98   */\n      calldataload\n        /* \"#utility.yul\":69:98   */\n      swap1\n      pop\n        /* \"#utility.yul\":107:140   */\n      tag_50\n        /* \"#utility.yul\":134:139   */\n      dup2\n        /* \"#utility.yul\":107:140   */\n      tag_51\n      jump\t// in\n    tag_50:\n        /* \"#utility.yul\":7:146   */\n      swap3\n      swap2\n      pop\n      pop\n      jump\t// out\n        /* \"#utility.yul\":152:481   */\n    tag_27:\n        /* \"#utility.yul\":211:217   */\n      0x00\n        /* \"#utility.yul\":260:262   */\n      0x20\n        /* \"#utility.yul\":248:257   */\n      dup3\n        /* \"#utility.yul\":239:246   */\n      dup5\n        /* \"#utility.yul\":235:258   */\n      sub\n        /* \"#utility.yul\":231:263   */\n      slt\n        /* \"#utility.yul\":228:347   */\n      iszero\n      tag_53\n      jumpi\n        /* \"#utility.yul\":266:345   */\n      tag_54\n      tag_55\n      jump\t// in\n    tag_54:\n        /* \"#utility.yul\":228:347   */\n    tag_53:\n        /* \"#utility.yul\":386:387   */\n      0x00\n        /* \"#utility.yul\":411:464   */\n      tag_56\n        /* \"#utility.yul\":456:463   */\n      dup5\n        /* \"#utility.yul\":447:453   */\n      dup3\n        /* \"#utility.yul\":436:445   */\n      dup6\n        /* \"#utility.yul\":432:454   */\n      add\n        /* \"#utility.yul\":411:464   */\n      tag_48\n      jump\t// in\n    tag_56:\n        /* \"#utility.yul\":401:464   */\n      swap2\n      pop\n        /* \"#utility.yul\":357:474   */\n      pop\n        /* \"#utility.yul\":152:481   */\n      swap3\n      swap2\n      pop\n      pop\n      jump\t// out\n        /* \"#utility.yul\":487:961   */\n    tag_23:\n        /* \"#utility.yul\":555:561   */\n      0x00\n        /* \"#utility.yul\":563:569   */\n      dup1\n        /* \"#utility.yul\":612:614   */\n      0x40\n        /* \"#utility.yul\":600:609   */\n      dup4\n        /* \"#utility.yul\":591:598   */\n      dup6\n        /* \"#utility.yul\":587:610   */\n      sub\n        /* \"#utility.yul\":583:615   */\n      slt\n        /* \"#utility.yul\":580:699   */\n      iszero\n      tag_58\n      jumpi\n        /* \"#utility.yul\":618:697   */\n      tag_59\n      tag_55\n      jump\t// in\n    tag_59:\n        /* \"#utility.yul\":580:699   */\n    tag_58:\n        /* \"#utility.yul\":738:739   */\n      0x00\n        /* \"#utility.yul\":763:816   */\n      tag_60\n        /* \"#utility.yul\":808:815   */\n      dup6\n        /* \"#utility.yul\":799:805   */\n      dup3\n        /* \"#utility.yul\":788:797   */\n      dup7\n        /* \"#utility.yul\":784:806   */\n      add\n        /* \"#utility.yul\":763:816   */\n      tag_48\n      jump\t// in\n    tag_60:\n        /* \"#utility.yul\":753:816   */\n      swap3\n      pop\n        /* \"#utility.yul\":709:826   */\n      pop\n        /* \"#utility.yul\":865:867   */\n      0x20\n        /* \"#utility.yul\":891:944   */\n      tag_61\n        /* \"#utility.yul\":936:943   */\n      dup6\n        /* \"#utility.yul\":927:933   */\n      dup3\n        /* \"#utility.yul\":916:925   */\n      dup7\n        /* \"#utility.yul\":912:934   */\n      add\n        /* \"#utility.yul\":891:944   */\n      tag_48\n      jump\t// in\n    tag_61:\n        /* \"#utility.yul\":881:944   */\n      swap2\n      pop\n        /* \"#utility.yul\":836:954   */\n      pop\n        /* \"#utility.yul\":487:961   */\n      swap3\n      pop\n      swap3\n      swap1\n      pop\n      jump\t// out\n        /* \"#utility.yul\":967:1082   */\n    tag_62:\n        /* \"#utility.yul\":1052:1075   */\n      tag_64\n        /* \"#utility.yul\":1069:1074   */\n      dup2\n        /* \"#utility.yul\":1052:1075   */\n      tag_65\n      jump\t// in\n    tag_64:\n        /* \"#utility.yul\":1047:1050   */\n      dup3\n        /* \"#utility.yul\":1040:1076   */\n      mstore\n        /* \"#utility.yul\":967:1082   */\n      pop\n      pop\n      jump\t// out\n        /* \"#utility.yul\":1088:1203   */\n    tag_66:\n        /* \"#utility.yul\":1173:1196   */\n      tag_68\n        /* \"#utility.yul\":1190:1195   */\n      dup2\n        /* \"#utility.yul\":1173:1196   */\n      tag_69\n      jump\t// in\n    tag_68:\n        /* \"#utility.yul\":1168:1171   */\n      dup3\n        /* \"#utility.yul\":1161:1197   */\n      mstore\n        /* \"#utility.yul\":1088:1203   */\n      pop\n      pop\n      jump\t// out\n        /* \"#utility.yul\":1209:1324   */\n    tag_70:\n        /* \"#utility.yul\":1294:1317   */\n      tag_72\n        /* \"#utility.yul\":1311:1316   */\n      dup2\n        /* \"#utility.yul\":1294:1317   */\n      tag_73\n      jump\t// in\n    tag_72:\n        /* \"#utility.yul\":1289:1292   */\n      dup3\n        /* \"#utility.yul\":1282:1318   */\n      mstore\n        /* \"#utility.yul\":1209:1324   */\n      pop\n      pop\n      jump\t// out\n        /* \"#utility.yul\":1330:1448   */\n    tag_74:\n        /* \"#utility.yul\":1417:1441   */\n      tag_76\n        /* \"#utility.yul\":1435:1440   */\n      dup2\n        /* \"#utility.yul\":1417:1441   */\n      tag_77\n      jump\t// in\n    tag_76:\n        /* \"#utility.yul\":1412:1415   */\n      dup3\n        /* \"#utility.yul\":1405:1442   */\n      mstore\n        /* \"#utility.yul\":1330:1448   */\n      pop\n      pop\n      jump\t// out\n        /* \"#utility.yul\":1454:1672   */\n    tag_37:\n        /* \"#utility.yul\":1545:1549   */\n      0x00\n        /* \"#utility.yul\":1583:1585   */\n      0x20\n        /* \"#utility.yul\":1572:1581   */\n      dup3\n        /* \"#utility.yul\":1568:1586   */\n      add\n        /* \"#utility.yul\":1560:1586   */\n      swap1\n      pop\n        /* \"#utility.yul\":1596:1665   */\n      tag_79\n        /* \"#utility.yul\":1662:1663   */\n      0x00\n        /* \"#utility.yul\":1651:1660   */\n      dup4\n        /* \"#utility.yul\":1647:1664   */\n      add\n        /* \"#utility.yul\":1638:1644   */\n      dup5\n        /* \"#utility.yul\":1596:1665   */\n      tag_62\n      jump\t// in\n    tag_79:\n        /* \"#utility.yul\":1454:1672   */\n      swap3\n      swap2\n      pop\n      pop\n      jump\t// out\n        /* \"#utility.yul\":1678:1896   */\n    tag_18:\n        /* \"#utility.yul\":1769:1773   */\n      0x00\n        /* \"#utility.yul\":1807:1809   */\n      0x20\n        /* \"#utility.yul\":1796:1805   */\n      dup3\n        /* \"#utility.yul\":1792:1810   */\n      add\n        /* \"#utility.yul\":1784:1810   */\n      swap1\n      pop\n        /* \"#utility.yul\":1820:1889   */\n      tag_81\n        /* \"#utility.yul\":1886:1887   */\n      0x00\n        /* \"#utility.yul\":1875:1884   */\n      dup4\n        /* \"#utility.yul\":1871:1888   */\n      add\n        /* \"#utility.yul\":1862:1868   */\n      dup5\n        /* \"#utility.yul\":1820:1889   */\n      tag_66\n      jump\t// in\n    tag_81:\n        /* \"#utility.yul\":1678:1896   */\n      swap3\n      swap2\n      pop\n      pop\n      jump\t// out\n        /* \"#utility.yul\":1902:2120   */\n    tag_33:\n        /* \"#utility.yul\":1993:1997   */\n      0x00\n        /* \"#utility.yul\":2031:2033   */\n      0x20\n        /* \"#utility.yul\":2020:2029   */\n      dup3\n        /* \"#utility.yul\":2016:2034   */\n      add\n        /* \"#utility.yul\":2008:2034   */\n      swap1\n      pop\n        /* \"#utility.yul\":2044:2113   */\n      tag_83\n        /* \"#utility.yul\":2110:2111   */\n      0x00\n        /* \"#utility.yul\":2099:2108   */\n      dup4\n        /* \"#utility.yul\":2095:2112   */\n      add\n        /* \"#utility.yul\":2086:2092   */\n      dup5\n        /* \"#utility.yul\":2044:2113   */\n      tag_70\n      jump\t// in\n    tag_83:\n        /* \"#utility.yul\":1902:2120   */\n      swap3\n      swap2\n      pop\n      pop\n      jump\t// out\n        /* \"#utility.yul\":2126:2348   */\n    tag_14:\n        /* \"#utility.yul\":2219:2223   */\n      0x00\n        /* \"#utility.yul\":2257:2259   */\n      0x20\n        /* \"#utility.yul\":2246:2255   */\n      dup3\n        /* \"#utility.yul\":2242:2260   */\n      add\n        /* \"#utility.yul\":2234:2260   */\n      swap1\n      pop\n        /* \"#utility.yul\":2270:2341   */\n      tag_85\n        /* \"#utility.yul\":2338:2339   */\n      0x00\n        /* \"#utility.yul\":2327:2336   */\n      dup4\n        /* \"#utility.yul\":2323:2340   */\n      add\n        /* \"#utility.yul\":2314:2320   */\n      dup5\n        /* \"#utility.yul\":2270:2341   */\n      tag_74\n      jump\t// in\n    tag_85:\n        /* \"#utility.yul\":2126:2348   */\n      swap3\n      swap2\n      pop\n      pop\n      jump\t// out\n        /* \"#utility.yul\":2435:2584   */\n    tag_65:\n        /* \"#utility.yul\":2471:2478   */\n      0x00\n        /* \"#utility.yul\":2511:2577   */\n      0xff00000000000000000000000000000000000000000000000000000000000000\n        /* \"#utility.yul\":2504:2509   */\n      dup3\n        /* \"#utility.yul\":2500:2578   */\n      and\n        /* \"#utility.yul\":2489:2578   */\n      swap1\n      pop\n        /* \"#utility.yul\":2435:2584   */\n      swap2\n      swap1\n      pop\n      jump\t// out\n        /* \"#utility.yul\":2590:2739   */\n    tag_69:\n        /* \"#utility.yul\":2626:2633   */\n      0x00\n        /* \"#utility.yul\":2666:2732   */\n      0xffff000000000000000000000000000000000000000000000000000000000000\n        /* \"#utility.yul\":2659:2664   */\n      dup3\n        /* \"#utility.yul\":2655:2733   */\n      and\n        /* \"#utility.yul\":2644:2733   */\n      swap1\n      pop\n        /* \"#utility.yul\":2590:2739   */\n      swap2\n      swap1\n      pop\n      jump\t// out\n        /* \"#utility.yul\":2745:2894   */\n    tag_73:\n        /* \"#utility.yul\":2781:2788   */\n      0x00\n        /* \"#utility.yul\":2821:2887   */\n      0xffffff0000000000000000000000000000000000000000000000000000000000\n        /* \"#utility.yul\":2814:2819   */\n      dup3\n        /* \"#utility.yul\":2810:2888   */\n      and\n        /* \"#utility.yul\":2799:2888   */\n      swap1\n      pop\n        /* \"#utility.yul\":2745:2894   */\n      swap2\n      swap1\n      pop\n      jump\t// out\n        /* \"#utility.yul\":2900:2977   */\n    tag_77:\n        /* \"#utility.yul\":2937:2944   */\n      0x00\n        /* \"#utility.yul\":2966:2971   */\n      dup2\n        /* \"#utility.yul\":2955:2971   */\n      swap1\n      pop\n        /* \"#utility.yul\":2900:2977   */\n      swap2\n      swap1\n      pop\n      jump\t// out\n        /* \"#utility.yul\":2983:3163   */\n    tag_43:\n        /* \"#utility.yul\":3031:3108   */\n      0x4e487b7100000000000000000000000000000000000000000000000000000000\n        /* \"#utility.yul\":3028:3029   */\n      0x00\n        /* \"#utility.yul\":3021:3109   */\n      mstore\n        /* \"#utility.yul\":3128:3132   */\n      0x32\n        /* \"#utility.yul\":3125:3126   */\n      0x04\n        /* \"#utility.yul\":3118:3133   */\n      mstore\n        /* \"#utility.yul\":3152:3156   */\n      0x24\n        /* \"#utility.yul\":3149:3150   */\n      0x00\n        /* \"#utility.yul\":3142:3157   */\n      revert\n        /* \"#utility.yul\":3292:3409   */\n    tag_55:\n        /* \"#utility.yul\":3401:3402   */\n      0x00\n        /* \"#utility.yul\":3398:3399   */\n      dup1\n        /* \"#utility.yul\":3391:3403   */\n      revert\n        /* \"#utility.yul\":3415:3537   */\n    tag_51:\n        /* \"#utility.yul\":3488:3512   */\n      tag_97\n        /* \"#utility.yul\":3506:3511   */\n      dup2\n        /* \"#utility.yul\":3488:3512   */\n      tag_77\n      jump\t// in\n    tag_97:\n        /* \"#utility.yul\":3481:3486   */\n      dup2\n        /* \"#utility.yul\":3478:3513   */\n      eq\n        /* \"#utility.yul\":3468:3531   */\n      tag_98\n      jumpi\n        /* \"#utility.yul\":3527:3528   */\n      0x00\n        /* \"#utility.yul\":3524:3525   */\n      dup1\n        /* \"#utility.yul\":3517:3529   */\n      revert\n        /* \"#utility.yul\":3468:3531   */\n    tag_98:\n        /* \"#utility.yul\":3415:3537   */\n      pop\n      jump\t// out\n\n    auxdata: 0xa2646970667358221220fa836a8ad4a424860da457ac8d6d2990da643685f0dbd1285e2df0d2aa09dc3764736f6c63430008070033\n}\n",
				"bytecode": {
					"linkReferences": {},
					"object": "608060405234801561001057600080fd5b506104ba806100206000396000f3fe608060405234801561001057600080fd5b506004361061007d5760003560e01c8063a27b23a11161005b578063a27b23a1146100c8578063d39fa233146100e4578063e9b6190914610114578063ee495002146101325761007d565b80630849cc99146100825780630add6ef2146100a05780638b137a4f146100be575b600080fd5b61008a610150565b6040516100979190610390565b60405180910390f35b6100a8610159565b6040516100b5919061035a565b60405180910390f35b6100c661016c565b005b6100e260048036038101906100dd91906102c3565b610222565b005b6100fe60048036038101906100f99190610296565b610240565b60405161010b9190610390565b60405180910390f35b61011c61025b565b6040516101299190610375565b60405180910390f35b61013a61026e565b604051610147919061033f565b60405180910390f35b60006004905090565b600460019054906101000a900460f01b81565b7f6100000000000000000000000000000000000000000000000000000000000000600460006101000a81548160ff021916908360f81c02179055507f6162000000000000000000000000000000000000000000000000000000000000600460016101000a81548161ffff021916908360f01c02179055507f6162630000000000000000000000000000000000000000000000000000000000600460036101000a81548162ffffff021916908360e81c0217905550565b806000836004811061023757610236610439565b5b01819055505050565b6000816004811061025057600080fd5b016000915090505481565b600460039054906101000a900460e81b81565b600460009054906101000a900460f81b81565b6000813590506102908161046d565b92915050565b6000602082840312156102ac576102ab610468565b5b60006102ba84828501610281565b91505092915050565b600080604083850312156102da576102d9610468565b5b60006102e885828601610281565b92505060206102f985828601610281565b9150509250929050565b61030c816103ab565b82525050565b61031b816103d7565b82525050565b61032a81610403565b82525050565b6103398161042f565b82525050565b60006020820190506103546000830184610303565b92915050565b600060208201905061036f6000830184610312565b92915050565b600060208201905061038a6000830184610321565b92915050565b60006020820190506103a56000830184610330565b92915050565b60007fff0000000000000000000000000000000000000000000000000000000000000082169050919050565b60007fffff00000000000000000000000000000000000000000000000000000000000082169050919050565b60007fffffff000000000000000000000000000000000000000000000000000000000082169050919050565b6000819050919050565b7f4e487b7100000000000000000000000000000000000000000000000000000000600052603260045260246000fd5b600080fd5b6104768161042f565b811461048157600080fd5b5056fea2646970667358221220fa836a8ad4a424860da457ac8d6d2990da643685f0dbd1285e2df0d2aa09dc3764736f6c63430008070033",
					"opcodes": "PUSH1 0x80 PUSH1 0x40 MSTORE CALLVALUE DUP1 ISZERO PUSH2 0x10 JUMPI PUSH1 0x0 DUP1 REVERT JUMPDEST POP PUSH2 0x4BA DUP1 PUSH2 0x20 PUSH1 0x0 CODECOPY PUSH1 0x0 RETURN INVALID PUSH1 0x80 PUSH1 0x40 MSTORE CALLVALUE DUP1 ISZERO PUSH2 0x10 JUMPI PUSH1 0x0 DUP1 REVERT JUMPDEST POP PUSH1 0x4 CALLDATASIZE LT PUSH2 0x7D JUMPI PUSH1 0x0 CALLDATALOAD PUSH1 0xE0 SHR DUP1 PUSH4 0xA27B23A1 GT PUSH2 0x5B JUMPI DUP1 PUSH4 0xA27B23A1 EQ PUSH2 0xC8 JUMPI DUP1 PUSH4 0xD39FA233 EQ PUSH2 0xE4 JUMPI DUP1 PUSH4 0xE9B61909 EQ PUSH2 0x114 JUMPI DUP1 PUSH4 0xEE495002 EQ PUSH2 0x132 JUMPI PUSH2 0x7D JUMP JUMPDEST DUP1 PUSH4 0x849CC99 EQ PUSH2 0x82 JUMPI DUP1 PUSH4 0xADD6EF2 EQ PUSH2 0xA0 JUMPI DUP1 PUSH4 0x8B137A4F EQ PUSH2 0xBE JUMPI JUMPDEST PUSH1 0x0 DUP1 REVERT JUMPDEST PUSH2 0x8A PUSH2 0x150 JUMP JUMPDEST PUSH1 0x40 MLOAD PUSH2 0x97 SWAP2 SWAP1 PUSH2 0x390 JUMP JUMPDEST PUSH1 0x40 MLOAD DUP1 SWAP2 SUB SWAP1 RETURN JUMPDEST PUSH2 0xA8 PUSH2 0x159 JUMP JUMPDEST PUSH1 0x40 MLOAD PUSH2 0xB5 SWAP2 SWAP1 PUSH2 0x35A JUMP JUMPDEST PUSH1 0x40 MLOAD DUP1 SWAP2 SUB SWAP1 RETURN JUMPDEST PUSH2 0xC6 PUSH2 0x16C JUMP JUMPDEST STOP JUMPDEST PUSH2 0xE2 PUSH1 0x4 DUP1 CALLDATASIZE SUB DUP2 ADD SWAP1 PUSH2 0xDD SWAP2 SWAP1 PUSH2 0x2C3 JUMP JUMPDEST PUSH2 0x222 JUMP JUMPDEST STOP JUMPDEST PUSH2 0xFE PUSH1 0x4 DUP1 CALLDATASIZE SUB DUP2 ADD SWAP1 PUSH2 0xF9 SWAP2 SWAP1 PUSH2 0x296 JUMP JUMPDEST PUSH2 0x240 JUMP JUMPDEST PUSH1 0x40 MLOAD PUSH2 0x10B SWAP2 SWAP1 PUSH2 0x390 JUMP JUMPDEST PUSH1 0x40 MLOAD DUP1 SWAP2 SUB SWAP1 RETURN JUMPDEST PUSH2 0x11C PUSH2 0x25B JUMP JUMPDEST PUSH1 0x40 MLOAD PUSH2 0x129 SWAP2 SWAP1 PUSH2 0x375 JUMP JUMPDEST PUSH1 0x40 MLOAD DUP1 SWAP2 SUB SWAP1 RETURN JUMPDEST PUSH2 0x13A PUSH2 0x26E JUMP JUMPDEST PUSH1 0x40 MLOAD PUSH2 0x147 SWAP2 SWAP1 PUSH2 0x33F JUMP JUMPDEST PUSH1 0x40 MLOAD DUP1 SWAP2 SUB SWAP1 RETURN JUMPDEST PUSH1 0x0 PUSH1 0x4 SWAP1 POP SWAP1 JUMP JUMPDEST PUSH1 0x4 PUSH1 0x1 SWAP1 SLOAD SWAP1 PUSH2 0x100 EXP SWAP1 DIV PUSH1 0xF0 SHL DUP2 JUMP JUMPDEST PUSH32 0x6100000000000000000000000000000000000000000000000000000000000000 PUSH1 0x4 PUSH1 0x0 PUSH2 0x100 EXP DUP2 SLOAD DUP2 PUSH1 0xFF MUL NOT AND SWAP1 DUP4 PUSH1 0xF8 SHR MUL OR SWAP1 SSTORE POP PUSH32 0x6162000000000000000000000000000000000000000000000000000000000000 PUSH1 0x4 PUSH1 0x1 PUSH2 0x100 EXP DUP2 SLOAD DUP2 PUSH2 0xFFFF MUL NOT AND SWAP1 DUP4 PUSH1 0xF0 SHR MUL OR SWAP1 SSTORE POP PUSH32 0x6162630000000000000000000000000000000000000000000000000000000000 PUSH1 0x4 PUSH1 0x3 PUSH2 0x100 EXP DUP2 SLOAD DUP2 PUSH3 0xFFFFFF MUL NOT AND SWAP1 DUP4 PUSH1 0xE8 SHR MUL OR SWAP1 SSTORE POP JUMP JUMPDEST DUP1 PUSH1 0x0 DUP4 PUSH1 0x4 DUP2 LT PUSH2 0x237 JUMPI PUSH2 0x236 PUSH2 0x439 JUMP JUMPDEST JUMPDEST ADD DUP2 SWAP1 SSTORE POP POP POP JUMP JUMPDEST PUSH1 0x0 DUP2 PUSH1 0x4 DUP2 LT PUSH2 0x250 JUMPI PUSH1 0x0 DUP1 REVERT JUMPDEST ADD PUSH1 0x0 SWAP2 POP SWAP1 POP SLOAD DUP2 JUMP JUMPDEST PUSH1 0x4 PUSH1 0x3 SWAP1 SLOAD SWAP1 PUSH2 0x100 EXP SWAP1 DIV PUSH1 0xE8 SHL DUP2 JUMP JUMPDEST PUSH1 0x4 PUSH1 0x0 SWAP1 SLOAD SWAP1 PUSH2 0x100 EXP SWAP1 DIV PUSH1 0xF8 SHL DUP2 JUMP JUMPDEST PUSH1 0x0 DUP2 CALLDATALOAD SWAP1 POP PUSH2 0x290 DUP2 PUSH2 0x46D JUMP JUMPDEST SWAP3 SWAP2 POP POP JUMP JUMPDEST PUSH1 0x0 PUSH1 0x20 DUP3 DUP5 SUB SLT ISZERO PUSH2 0x2AC JUMPI PUSH2 0x2AB PUSH2 0x468 JUMP JUMPDEST JUMPDEST PUSH1 0x0 PUSH2 0x2BA DUP5 DUP3 DUP6 ADD PUSH2 0x281 JUMP JUMPDEST SWAP2 POP POP SWAP3 SWAP2 POP POP JUMP JUMPDEST PUSH1 0x0 DUP1 PUSH1 0x40 DUP4 DUP6 SUB SLT ISZERO PUSH2 0x2DA JUMPI PUSH2 0x2D9 PUSH2 0x468 JUMP JUMPDEST JUMPDEST PUSH1 0x0 PUSH2 0x2E8 DUP6 DUP3 DUP7 ADD PUSH2 0x281 JUMP JUMPDEST SWAP3 POP POP PUSH1 0x20 PUSH2 0x2F9 DUP6 DUP3 DUP7 ADD PUSH2 0x281 JUMP JUMPDEST SWAP2 POP POP SWAP3 POP SWAP3 SWAP1 POP JUMP JUMPDEST PUSH2 0x30C DUP2 PUSH2 0x3AB JUMP JUMPDEST DUP3 MSTORE POP POP JUMP JUMPDEST PUSH2 0x31B DUP2 PUSH2 0x3D7 JUMP JUMPDEST DUP3 MSTORE POP POP JUMP JUMPDEST PUSH2 0x32A DUP2 PUSH2 0x403 JUMP JUMPDEST DUP3 MSTORE POP POP JUMP JUMPDEST PUSH2 0x339 DUP2 PUSH2 0x42F JUMP JUMPDEST DUP3 MSTORE POP POP JUMP JUMPDEST PUSH1 0x0 PUSH1 0x20 DUP3 ADD SWAP1 POP PUSH2 0x354 PUSH1 0x0 DUP4 ADD DUP5 PUSH2 0x303 JUMP JUMPDEST SWAP3 SWAP2 POP POP JUMP JUMPDEST PUSH1 0x0 PUSH1 0x20 DUP3 ADD SWAP1 POP PUSH2 0x36F PUSH1 0x0 DUP4 ADD DUP5 PUSH2 0x312 JUMP JUMPDEST SWAP3 SWAP2 POP POP JUMP JUMPDEST PUSH1 0x0 PUSH1 0x20 DUP3 ADD SWAP1 POP PUSH2 0x38A PUSH1 0x0 DUP4 ADD DUP5 PUSH2 0x321 JUMP JUMPDEST SWAP3 SWAP2 POP POP JUMP JUMPDEST PUSH1 0x0 PUSH1 0x20 DUP3 ADD SWAP1 POP PUSH2 0x3A5 PUSH1 0x0 DUP4 ADD DUP5 PUSH2 0x330 JUMP JUMPDEST SWAP3 SWAP2 POP POP JUMP JUMPDEST PUSH1 0x0 PUSH32 0xFF00000000000000000000000000000000000000000000000000000000000000 DUP3 AND SWAP1 POP SWAP2 SWAP1 POP JUMP JUMPDEST PUSH1 0x0 PUSH32 0xFFFF000000000000000000000000000000000000000000000000000000000000 DUP3 AND SWAP1 POP SWAP2 SWAP1 POP JUMP JUMPDEST PUSH1 0x0 PUSH32 0xFFFFFF0000000000000000000000000000000000000000000000000000000000 DUP3 AND SWAP1 POP SWAP2 SWAP1 POP JUMP JUMPDEST PUSH1 0x0 DUP2 SWAP1 POP SWAP2 SWAP1 POP JUMP JUMPDEST PUSH32 0x4E487B7100000000000000000000000000000000000000000000000000000000 PUSH1 0x0 MSTORE PUSH1 0x32 PUSH1 0x4 MSTORE PUSH1 0x24 PUSH1 0x0 REVERT JUMPDEST PUSH1 0x0 DUP1 REVERT JUMPDEST PUSH2 0x476 DUP2 PUSH2 0x42F JUMP JUMPDEST DUP2 EQ PUSH2 0x481 JUMPI PUSH1 0x0 DUP1 REVERT JUMPDEST POP JUMP INVALID LOG2 PUSH5 0x6970667358 0x22 SLT KECCAK256 STATICCALL DUP4 PUSH11 0x8AD4A424860DA457AC8D6D 0x29 SWAP1 0xDA PUSH5 0x3685F0DBD1 0x28 0x5E 0x2D CREATE 0xD2 0xAA MULMOD 0xDC CALLDATACOPY PUSH5 0x736F6C6343 STOP ADDMOD SMOD STOP CALLER "
				},
				"gasEstimates": {
					"creation": {
						"codeDepositCost": "242000",
						"executionCost": "281",
						"totalCost": "242281"
					},
					"external": {
						"b1()": "2537",
						"b2()": "2544",
						"b3()": "2565",
						"getArrayLength()": "338",
						"numbers(uint256)": "infinite",
						"setArrayElement(uint256,uint256)": "infinite",
						"setByteArray()": "73090"
					}
				},
				"methodIdentifiers": {
					"b1()": "ee495002",
					"b2()": "0add6ef2",
					"b3()": "e9b61909",
					"getArrayLength()": "0849cc99",
					"numbers(uint256)": "d39fa233",
					"setArrayElement(uint256,uint256)": "a27b23a1",
					"setByteArray()": "8b137a4f"
				}
			},
			"storageLayout": {
				"storage": [
					{
						"astId": 5,
						"contract": "contracts/FixedSizeArrays.sol:FixedSizeArrays",
						"label": "numbers",
						"offset": 0,
						"slot": "0",
						"type": "t_array(t_uint256)4_storage"
					},
					{
						"astId": 7,
						"contract": "contracts/FixedSizeArrays.sol:FixedSizeArrays",
						"label": "b1",
						"offset": 0,
						"slot": "4",
						"type": "t_bytes1"
					},
					{
						"astId": 9,
						"contract": "contracts/FixedSizeArrays.sol:FixedSizeArrays",
						"label": "b2",
						"offset": 1,
						"slot": "4",
						"type": "t_bytes2"
					},
					{
						"astId": 11,
						"contract": "contracts/FixedSizeArrays.sol:FixedSizeArrays",
						"label": "b3",
						"offset": 3,
						"slot": "4",
						"type": "t_bytes3"
					}
				],
				"types": {
					"t_array(t_uint256)4_storage": {
						"base": "t_uint256",
						"encoding": "inplace",
						"label": "uint256[4]",
						"numberOfBytes": "128"
					},
					"t_bytes1": {
						"encoding": "inplace",
						"label": "bytes1",
						"numberOfBytes": "1"
					},
					"t_bytes2": {
						"encoding": "inplace",
						"label": "bytes2",
						"numberOfBytes": "2"
					},
					"t_bytes3": {
						"encoding": "inplace",
						"label": "bytes3",
						"numberOfBytes": "3"
					},
					"t_uint256": {
						"encoding": "inplace",
						"label": "uint256",
						"numberOfBytes": "32"
					}
				}
			},
			"userdoc": {
				"kind": "user",
				"methods": {},
				"version": 1
			}
		}
	}
}