{
	"contracts/Auctions.sol": {
		"Auction": {
			"abi": [
				{
					"inputs": [],
					"stateMutability": "nonpayable",
					"type": "constructor"
				},
				{
					"inputs": [],
					"name": "auctionState",
					"outputs": [
						{
							"internalType": "enum Auction.State",
							"name": "",
							"type": "uint8"
						}
					],
					"stateMutability": "view",
					"type": "function"
				},
				{
					"inputs": [],
					"name": "bidIncrement",
					"outputs": [
						{
							"internalType": "uint256",
							"name": "",
							"type": "uint256"
						}
					],
					"stateMutability": "view",
					"type": "function"
				},
				{
					"inputs": [
						{
							"internalType": "address",
							"name": "",
							"type": "address"
						}
					],
					"name": "bidsMap",
					"outputs": [
						{
							"internalType": "uint256",
							"name": "",
							"type": "uint256"
						}
					],
					"stateMutability": "view",
					"type": "function"
				},
				{
					"inputs": [],
					"name": "cancelAuction",
					"outputs": [],
					"stateMutability": "nonpayable",
					"type": "function"
				},
				{
					"inputs": [],
					"name": "endBlock",
					"outputs": [
						{
							"internalType": "uint256",
							"name": "",
							"type": "uint256"
						}
					],
					"stateMutability": "view",
					"type": "function"
				},
				{
					"inputs": [],
					"name": "finalizeAuction",
					"outputs": [],
					"stateMutability": "nonpayable",
					"type": "function"
				},
				{
					"inputs": [],
					"name": "higestBindingBid",
					"outputs": [
						{
							"internalType": "uint256",
							"name": "",
							"type": "uint256"
						}
					],
					"stateMutability": "view",
					"type": "function"
				},
				{
					"inputs": [],
					"name": "highestBidder",
					"outputs": [
						{
							"internalType": "address payable",
							"name": "",
							"type": "address"
						}
					],
					"stateMutability": "view",
					"type": "function"
				},
				{
					"inputs": [],
					"name": "ipfsHash",
					"outputs": [
						{
							"internalType": "string",
							"name": "",
							"type": "string"
						}
					],
					"stateMutability": "view",
					"type": "function"
				},
				{
					"inputs": [],
					"name": "makeABid",
					"outputs": [],
					"stateMutability": "payable",
					"type": "function"
				},
				{
					"inputs": [],
					"name": "owner",
					"outputs": [
						{
							"internalType": "address payable",
							"name": "",
							"type": "address"
						}
					],
					"stateMutability": "view",
					"type": "function"
				},
				{
					"inputs": [],
					"name": "startBlock",
					"outputs": [
						{
							"internalType": "uint256",
							"name": "",
							"type": "uint256"
						}
					],
					"stateMutability": "view",
					"type": "function"
				}
			],
			"devdoc": {
				"kind": "dev",
				"methods": {},
				"version": 1
			},
			"evm": {
				"assembly": "    /* \"contracts/Auctions.sol\":74:4152  contract Auction{\r... */\n  mstore(0x40, 0x80)\n    /* \"contracts/Auctions.sol\":550:554  true */\n  0x01\n    /* \"contracts/Auctions.sol\":525:554  bool ownerRewardChance = true */\n  0x09\n  exp(0x0100, 0x00)\n  dup2\n  sload\n  dup2\n  0xff\n  mul\n  not\n  and\n  swap1\n  dup4\n  iszero\n  iszero\n  mul\n  or\n  swap1\n  sstore\n  pop\n    /* \"contracts/Auctions.sol\":565:792  constructor(){\r... */\n  callvalue\n  dup1\n  iszero\n  tag_1\n  jumpi\n  0x00\n  dup1\n  revert\ntag_1:\n  pop\n    /* \"contracts/Auctions.sol\":605:615  msg.sender */\n  caller\n    /* \"contracts/Auctions.sol\":589:594  owner */\n  0x01\n  0x00\n    /* \"contracts/Auctions.sol\":589:616  owner = payable(msg.sender) */\n  0x0100\n  exp\n  dup2\n  sload\n  dup2\n  0xffffffffffffffffffffffffffffffffffffffff\n  mul\n  not\n  and\n  swap1\n  dup4\n  0xffffffffffffffffffffffffffffffffffffffff\n  and\n  mul\n  or\n  swap1\n  sstore\n  pop\n    /* \"contracts/Auctions.sol\":642:645  100 */\n  0x64\n    /* \"contracts/Auctions.sol\":627:639  bidIncrement */\n  0x04\n    /* \"contracts/Auctions.sol\":627:645  bidIncrement = 100 */\n  dup2\n  swap1\n  sstore\n  pop\n    /* \"contracts/Auctions.sol\":671:684  State.Running */\n  0x01\n    /* \"contracts/Auctions.sol\":656:668  auctionState */\n  0x07\n  0x00\n    /* \"contracts/Auctions.sol\":656:684  auctionState = State.Running */\n  0x0100\n  exp\n  dup2\n  sload\n  dup2\n  0xff\n  mul\n  not\n  and\n  swap1\n  dup4\n  0x03\n  dup2\n  gt\n  iszero\n  tag_4\n  jumpi\n  tag_5\n  tag_6\n  jump\t// in\ntag_5:\ntag_4:\n  mul\n  or\n  swap1\n  sstore\n  pop\n    /* \"contracts/Auctions.sol\":697:710  ipfsHash = '' */\n  mload(0x40)\n  dup1\n  0x20\n  add\n  0x40\n  mstore\n  dup1\n  0x00\n  dup2\n  mstore\n  pop\n    /* \"contracts/Auctions.sol\":697:705  ipfsHash */\n  0x08\n    /* \"contracts/Auctions.sol\":697:710  ipfsHash = '' */\n  swap1\n  dup1\n  mload\n  swap1\n  0x20\n  add\n  swap1\n  tag_7\n  swap3\n  swap2\n  swap1\n  tag_8\n  jump\t// in\ntag_7:\n  pop\n    /* \"contracts/Auctions.sol\":736:748  block.number */\n  number\n    /* \"contracts/Auctions.sol\":723:733  startBlock */\n  0x05\n    /* \"contracts/Auctions.sol\":723:748  startBlock = block.number */\n  dup2\n  swap1\n  sstore\n  pop\n    /* \"contracts/Auctions.sol\":783:784  3 */\n  0x03\n    /* \"contracts/Auctions.sol\":770:780  startBlock */\n  sload(0x05)\n    /* \"contracts/Auctions.sol\":770:784  startBlock + 3 */\n  tag_9\n  swap2\n  swap1\n  tag_10\n  jump\t// in\ntag_9:\n    /* \"contracts/Auctions.sol\":759:767  endBlock */\n  0x06\n    /* \"contracts/Auctions.sol\":759:784  endBlock = startBlock + 3 */\n  dup2\n  swap1\n  sstore\n  pop\n    /* \"contracts/Auctions.sol\":74:4152  contract Auction{\r... */\n  jump(tag_11)\ntag_8:\n  dup3\n  dup1\n  sload\n  tag_12\n  swap1\n  tag_13\n  jump\t// in\ntag_12:\n  swap1\n  0x00\n  mstore\n  keccak256(0x00, 0x20)\n  swap1\n  0x1f\n  add\n  0x20\n  swap1\n  div\n  dup2\n  add\n  swap3\n  dup3\n  tag_15\n  jumpi\n  0x00\n  dup6\n  sstore\n  jump(tag_14)\ntag_15:\n  dup3\n  0x1f\n  lt\n  tag_16\n  jumpi\n  dup1\n  mload\n  not(0xff)\n  and\n  dup4\n  dup1\n  add\n  or\n  dup6\n  sstore\n  jump(tag_14)\ntag_16:\n  dup3\n  dup1\n  add\n  0x01\n  add\n  dup6\n  sstore\n  dup3\n  iszero\n  tag_14\n  jumpi\n  swap2\n  dup3\n  add\ntag_17:\n  dup3\n  dup2\n  gt\n  iszero\n  tag_18\n  jumpi\n  dup3\n  mload\n  dup3\n  sstore\n  swap2\n  0x20\n  add\n  swap2\n  swap1\n  0x01\n  add\n  swap1\n  jump(tag_17)\ntag_18:\ntag_14:\n  pop\n  swap1\n  pop\n  tag_19\n  swap2\n  swap1\n  tag_20\n  jump\t// in\ntag_19:\n  pop\n  swap1\n  jump\t// out\ntag_20:\ntag_21:\n  dup1\n  dup3\n  gt\n  iszero\n  tag_22\n  jumpi\n  0x00\n  dup2\n  0x00\n  swap1\n  sstore\n  pop\n  0x01\n  add\n  jump(tag_21)\ntag_22:\n  pop\n  swap1\n  jump\t// out\n    /* \"#utility.yul\":7:312   */\ntag_10:\n    /* \"#utility.yul\":47:50   */\n  0x00\n    /* \"#utility.yul\":66:86   */\n  tag_25\n    /* \"#utility.yul\":84:85   */\n  dup3\n    /* \"#utility.yul\":66:86   */\n  tag_26\n  jump\t// in\ntag_25:\n    /* \"#utility.yul\":61:86   */\n  swap2\n  pop\n    /* \"#utility.yul\":100:120   */\n  tag_27\n    /* \"#utility.yul\":118:119   */\n  dup4\n    /* \"#utility.yul\":100:120   */\n  tag_26\n  jump\t// in\ntag_27:\n    /* \"#utility.yul\":95:120   */\n  swap3\n  pop\n    /* \"#utility.yul\":254:255   */\n  dup3\n    /* \"#utility.yul\":186:252   */\n  0xffffffffffffffffffffffffffffffffffffffffffffffffffffffffffffffff\n    /* \"#utility.yul\":182:256   */\n  sub\n    /* \"#utility.yul\":179:180   */\n  dup3\n    /* \"#utility.yul\":176:257   */\n  gt\n    /* \"#utility.yul\":173:280   */\n  iszero\n  tag_28\n  jumpi\n    /* \"#utility.yul\":260:278   */\n  tag_29\n  tag_30\n  jump\t// in\ntag_29:\n    /* \"#utility.yul\":173:280   */\ntag_28:\n    /* \"#utility.yul\":304:305   */\n  dup3\n    /* \"#utility.yul\":301:302   */\n  dup3\n    /* \"#utility.yul\":297:306   */\n  add\n    /* \"#utility.yul\":290:306   */\n  swap1\n  pop\n    /* \"#utility.yul\":7:312   */\n  swap3\n  swap2\n  pop\n  pop\n  jump\t// out\n    /* \"#utility.yul\":318:395   */\ntag_26:\n    /* \"#utility.yul\":355:362   */\n  0x00\n    /* \"#utility.yul\":384:389   */\n  dup2\n    /* \"#utility.yul\":373:389   */\n  swap1\n  pop\n    /* \"#utility.yul\":318:395   */\n  swap2\n  swap1\n  pop\n  jump\t// out\n    /* \"#utility.yul\":401:721   */\ntag_13:\n    /* \"#utility.yul\":445:451   */\n  0x00\n    /* \"#utility.yul\":482:483   */\n  0x02\n    /* \"#utility.yul\":476:480   */\n  dup3\n    /* \"#utility.yul\":472:484   */\n  div\n    /* \"#utility.yul\":462:484   */\n  swap1\n  pop\n    /* \"#utility.yul\":529:530   */\n  0x01\n    /* \"#utility.yul\":523:527   */\n  dup3\n    /* \"#utility.yul\":519:531   */\n  and\n    /* \"#utility.yul\":550:568   */\n  dup1\n    /* \"#utility.yul\":540:621   */\n  tag_33\n  jumpi\n    /* \"#utility.yul\":606:610   */\n  0x7f\n    /* \"#utility.yul\":598:604   */\n  dup3\n    /* \"#utility.yul\":594:611   */\n  and\n    /* \"#utility.yul\":584:611   */\n  swap2\n  pop\n    /* \"#utility.yul\":540:621   */\ntag_33:\n    /* \"#utility.yul\":668:670   */\n  0x20\n    /* \"#utility.yul\":660:666   */\n  dup3\n    /* \"#utility.yul\":657:671   */\n  lt\n    /* \"#utility.yul\":637:655   */\n  dup2\n    /* \"#utility.yul\":634:672   */\n  eq\n    /* \"#utility.yul\":631:715   */\n  iszero\n  tag_34\n  jumpi\n    /* \"#utility.yul\":687:705   */\n  tag_35\n  tag_36\n  jump\t// in\ntag_35:\n    /* \"#utility.yul\":631:715   */\ntag_34:\n    /* \"#utility.yul\":452:721   */\n  pop\n    /* \"#utility.yul\":401:721   */\n  swap2\n  swap1\n  pop\n  jump\t// out\n    /* \"#utility.yul\":727:907   */\ntag_30:\n    /* \"#utility.yul\":775:852   */\n  0x4e487b7100000000000000000000000000000000000000000000000000000000\n    /* \"#utility.yul\":772:773   */\n  0x00\n    /* \"#utility.yul\":765:853   */\n  mstore\n    /* \"#utility.yul\":872:876   */\n  0x11\n    /* \"#utility.yul\":869:870   */\n  0x04\n    /* \"#utility.yul\":862:877   */\n  mstore\n    /* \"#utility.yul\":896:900   */\n  0x24\n    /* \"#utility.yul\":893:894   */\n  0x00\n    /* \"#utility.yul\":886:901   */\n  revert\n    /* \"#utility.yul\":913:1093   */\ntag_6:\n    /* \"#utility.yul\":961:1038   */\n  0x4e487b7100000000000000000000000000000000000000000000000000000000\n    /* \"#utility.yul\":958:959   */\n  0x00\n    /* \"#utility.yul\":951:1039   */\n  mstore\n    /* \"#utility.yul\":1058:1062   */\n  0x21\n    /* \"#utility.yul\":1055:1056   */\n  0x04\n    /* \"#utility.yul\":1048:1063   */\n  mstore\n    /* \"#utility.yul\":1082:1086   */\n  0x24\n    /* \"#utility.yul\":1079:1080   */\n  0x00\n    /* \"#utility.yul\":1072:1087   */\n  revert\n    /* \"#utility.yul\":1099:1279   */\ntag_36:\n    /* \"#utility.yul\":1147:1224   */\n  0x4e487b7100000000000000000000000000000000000000000000000000000000\n    /* \"#utility.yul\":1144:1145   */\n  0x00\n    /* \"#utility.yul\":1137:1225   */\n  mstore\n    /* \"#utility.yul\":1244:1248   */\n  0x22\n    /* \"#utility.yul\":1241:1242   */\n  0x04\n    /* \"#utility.yul\":1234:1249   */\n  mstore\n    /* \"#utility.yul\":1268:1272   */\n  0x24\n    /* \"#utility.yul\":1265:1266   */\n  0x00\n    /* \"#utility.yul\":1258:1273   */\n  revert\n    /* \"contracts/Auctions.sol\":74:4152  contract Auction{\r... */\ntag_11:\n  dataSize(sub_0)\n  dup1\n  dataOffset(sub_0)\n  0x00\n  codecopy\n  0x00\n  return\nstop\n\nsub_0: assembly {\n        /* \"contracts/Auctions.sol\":74:4152  contract Auction{\r... */\n      mstore(0x40, 0x80)\n      jumpi(tag_1, lt(calldatasize, 0x04))\n      shr(0xe0, calldataload(0x00))\n      dup1\n      0x91c11f7d\n      gt\n      tag_14\n      jumpi\n      dup1\n      0x91c11f7d\n      eq\n      tag_8\n      jumpi\n      dup1\n      0x91f90157\n      eq\n      tag_9\n      jumpi\n      dup1\n      0xb3cc167a\n      eq\n      tag_10\n      jumpi\n      dup1\n      0xc623674f\n      eq\n      tag_11\n      jumpi\n      dup1\n      0xeb36a479\n      eq\n      tag_12\n      jumpi\n      dup1\n      0xf77282ab\n      eq\n      tag_13\n      jumpi\n      jump(tag_1)\n    tag_14:\n      dup1\n      0x083c6323\n      eq\n      tag_2\n      jumpi\n      dup1\n      0x48cd4cb1\n      eq\n      tag_3\n      jumpi\n      dup1\n      0x7fb45099\n      eq\n      tag_4\n      jumpi\n      dup1\n      0x8da5cb5b\n      eq\n      tag_5\n      jumpi\n      dup1\n      0x8ee77512\n      eq\n      tag_6\n      jumpi\n      dup1\n      0x8fa8b790\n      eq\n      tag_7\n      jumpi\n    tag_1:\n      0x00\n      dup1\n      revert\n        /* \"contracts/Auctions.sol\":338:358  uint public endBlock */\n    tag_2:\n      callvalue\n      dup1\n      iszero\n      tag_15\n      jumpi\n      0x00\n      dup1\n      revert\n    tag_15:\n      pop\n      tag_16\n      tag_17\n      jump\t// in\n    tag_16:\n      mload(0x40)\n      tag_18\n      swap2\n      swap1\n      tag_19\n      jump\t// in\n    tag_18:\n      mload(0x40)\n      dup1\n      swap2\n      sub\n      swap1\n      return\n        /* \"contracts/Auctions.sol\":309:331  uint public startBlock */\n    tag_3:\n      callvalue\n      dup1\n      iszero\n      tag_20\n      jumpi\n      0x00\n      dup1\n      revert\n    tag_20:\n      pop\n      tag_21\n      tag_22\n      jump\t// in\n    tag_21:\n      mload(0x40)\n      tag_23\n      swap2\n      swap1\n      tag_19\n      jump\t// in\n    tag_23:\n      mload(0x40)\n      dup1\n      swap2\n      sub\n      swap1\n      return\n        /* \"contracts/Auctions.sol\":460:485  State public auctionState */\n    tag_4:\n      callvalue\n      dup1\n      iszero\n      tag_24\n      jumpi\n      0x00\n      dup1\n      revert\n    tag_24:\n      pop\n      tag_25\n      tag_26\n      jump\t// in\n    tag_25:\n      mload(0x40)\n      tag_27\n      swap2\n      swap1\n      tag_28\n      jump\t// in\n    tag_27:\n      mload(0x40)\n      dup1\n      swap2\n      sub\n      swap1\n      return\n        /* \"contracts/Auctions.sol\":145:173  address payable public owner */\n    tag_5:\n      callvalue\n      dup1\n      iszero\n      tag_29\n      jumpi\n      0x00\n      dup1\n      revert\n    tag_29:\n      pop\n      tag_30\n      tag_31\n      jump\t// in\n    tag_30:\n      mload(0x40)\n      tag_32\n      swap2\n      swap1\n      tag_33\n      jump\t// in\n    tag_32:\n      mload(0x40)\n      dup1\n      swap2\n      sub\n      swap1\n      return\n        /* \"contracts/Auctions.sol\":99:138  mapping(address => uint) public bidsMap */\n    tag_6:\n      callvalue\n      dup1\n      iszero\n      tag_34\n      jumpi\n      0x00\n      dup1\n      revert\n    tag_34:\n      pop\n      tag_35\n      0x04\n      dup1\n      calldatasize\n      sub\n      dup2\n      add\n      swap1\n      tag_36\n      swap2\n      swap1\n      tag_37\n      jump\t// in\n    tag_36:\n      tag_38\n      jump\t// in\n    tag_35:\n      mload(0x40)\n      tag_39\n      swap2\n      swap1\n      tag_19\n      jump\t// in\n    tag_39:\n      mload(0x40)\n      dup1\n      swap2\n      sub\n      swap1\n      return\n        /* \"contracts/Auctions.sol\":2752:2833  function cancelAuction() public {\r... */\n    tag_7:\n      callvalue\n      dup1\n      iszero\n      tag_40\n      jumpi\n      0x00\n      dup1\n      revert\n    tag_40:\n      pop\n      tag_41\n      tag_42\n      jump\t// in\n    tag_41:\n      stop\n        /* \"contracts/Auctions.sol\":227:255  uint public higestBindingBid */\n    tag_8:\n      callvalue\n      dup1\n      iszero\n      tag_43\n      jumpi\n      0x00\n      dup1\n      revert\n    tag_43:\n      pop\n      tag_44\n      tag_45\n      jump\t// in\n    tag_44:\n      mload(0x40)\n      tag_46\n      swap2\n      swap1\n      tag_19\n      jump\t// in\n    tag_46:\n      mload(0x40)\n      dup1\n      swap2\n      sub\n      swap1\n      return\n        /* \"contracts/Auctions.sol\":184:220  address payable public highestBidder */\n    tag_9:\n      callvalue\n      dup1\n      iszero\n      tag_47\n      jumpi\n      0x00\n      dup1\n      revert\n    tag_47:\n      pop\n      tag_48\n      tag_49\n      jump\t// in\n    tag_48:\n      mload(0x40)\n      tag_50\n      swap2\n      swap1\n      tag_33\n      jump\t// in\n    tag_50:\n      mload(0x40)\n      dup1\n      swap2\n      sub\n      swap1\n      return\n        /* \"contracts/Auctions.sol\":262:286  uint public bidIncrement */\n    tag_10:\n      callvalue\n      dup1\n      iszero\n      tag_51\n      jumpi\n      0x00\n      dup1\n      revert\n    tag_51:\n      pop\n      tag_52\n      tag_53\n      jump\t// in\n    tag_52:\n      mload(0x40)\n      tag_54\n      swap2\n      swap1\n      tag_19\n      jump\t// in\n    tag_54:\n      mload(0x40)\n      dup1\n      swap2\n      sub\n      swap1\n      return\n        /* \"contracts/Auctions.sol\":494:516  string public ipfsHash */\n    tag_11:\n      callvalue\n      dup1\n      iszero\n      tag_55\n      jumpi\n      0x00\n      dup1\n      revert\n    tag_55:\n      pop\n      tag_56\n      tag_57\n      jump\t// in\n    tag_56:\n      mload(0x40)\n      tag_58\n      swap2\n      swap1\n      tag_59\n      jump\t// in\n    tag_58:\n      mload(0x40)\n      dup1\n      swap2\n      sub\n      swap1\n      return\n        /* \"contracts/Auctions.sol\":1774:2744  function makeABid() payable public notOwner afterStart beforeEnd {\r... */\n    tag_12:\n      tag_60\n      tag_61\n      jump\t// in\n    tag_60:\n      stop\n        /* \"contracts/Auctions.sol\":2841:4147  function finalizeAuction() public {\r... */\n    tag_13:\n      callvalue\n      dup1\n      iszero\n      tag_62\n      jumpi\n      0x00\n      dup1\n      revert\n    tag_62:\n      pop\n      tag_63\n      tag_64\n      jump\t// in\n    tag_63:\n      stop\n        /* \"contracts/Auctions.sol\":338:358  uint public endBlock */\n    tag_17:\n      sload(0x06)\n      dup2\n      jump\t// out\n        /* \"contracts/Auctions.sol\":309:331  uint public startBlock */\n    tag_22:\n      sload(0x05)\n      dup2\n      jump\t// out\n        /* \"contracts/Auctions.sol\":460:485  State public auctionState */\n    tag_26:\n      0x07\n      0x00\n      swap1\n      sload\n      swap1\n      0x0100\n      exp\n      swap1\n      div\n      0xff\n      and\n      dup2\n      jump\t// out\n        /* \"contracts/Auctions.sol\":145:173  address payable public owner */\n    tag_31:\n      0x01\n      0x00\n      swap1\n      sload\n      swap1\n      0x0100\n      exp\n      swap1\n      div\n      0xffffffffffffffffffffffffffffffffffffffff\n      and\n      dup2\n      jump\t// out\n        /* \"contracts/Auctions.sol\":99:138  mapping(address => uint) public bidsMap */\n    tag_38:\n      mstore(0x20, 0x00)\n      dup1\n      0x00\n      mstore\n      keccak256(0x00, 0x40)\n      0x00\n      swap2\n      pop\n      swap1\n      pop\n      sload\n      dup2\n      jump\t// out\n        /* \"contracts/Auctions.sol\":2752:2833  function cancelAuction() public {\r... */\n    tag_42:\n        /* \"contracts/Auctions.sol\":2810:2825  State.Cancelled */\n      0x03\n        /* \"contracts/Auctions.sol\":2795:2807  auctionState */\n      0x07\n      0x00\n        /* \"contracts/Auctions.sol\":2795:2825  auctionState = State.Cancelled */\n      0x0100\n      exp\n      dup2\n      sload\n      dup2\n      0xff\n      mul\n      not\n      and\n      swap1\n      dup4\n      0x03\n      dup2\n      gt\n      iszero\n      tag_66\n      jumpi\n      tag_67\n      tag_68\n      jump\t// in\n    tag_67:\n    tag_66:\n      mul\n      or\n      swap1\n      sstore\n      pop\n        /* \"contracts/Auctions.sol\":2752:2833  function cancelAuction() public {\r... */\n      jump\t// out\n        /* \"contracts/Auctions.sol\":227:255  uint public higestBindingBid */\n    tag_45:\n      sload(0x03)\n      dup2\n      jump\t// out\n        /* \"contracts/Auctions.sol\":184:220  address payable public highestBidder */\n    tag_49:\n      0x02\n      0x00\n      swap1\n      sload\n      swap1\n      0x0100\n      exp\n      swap1\n      div\n      0xffffffffffffffffffffffffffffffffffffffff\n      and\n      dup2\n      jump\t// out\n        /* \"contracts/Auctions.sol\":262:286  uint public bidIncrement */\n    tag_53:\n      sload(0x04)\n      dup2\n      jump\t// out\n        /* \"contracts/Auctions.sol\":494:516  string public ipfsHash */\n    tag_57:\n      0x08\n      dup1\n      sload\n      tag_69\n      swap1\n      tag_70\n      jump\t// in\n    tag_69:\n      dup1\n      0x1f\n      add\n      0x20\n      dup1\n      swap2\n      div\n      mul\n      0x20\n      add\n      mload(0x40)\n      swap1\n      dup2\n      add\n      0x40\n      mstore\n      dup1\n      swap3\n      swap2\n      swap1\n      dup2\n      dup2\n      mstore\n      0x20\n      add\n      dup3\n      dup1\n      sload\n      tag_71\n      swap1\n      tag_70\n      jump\t// in\n    tag_71:\n      dup1\n      iszero\n      tag_72\n      jumpi\n      dup1\n      0x1f\n      lt\n      tag_73\n      jumpi\n      0x0100\n      dup1\n      dup4\n      sload\n      div\n      mul\n      dup4\n      mstore\n      swap2\n      0x20\n      add\n      swap2\n      jump(tag_72)\n    tag_73:\n      dup3\n      add\n      swap2\n      swap1\n      0x00\n      mstore\n      keccak256(0x00, 0x20)\n      swap1\n    tag_74:\n      dup2\n      sload\n      dup2\n      mstore\n      swap1\n      0x01\n      add\n      swap1\n      0x20\n      add\n      dup1\n      dup4\n      gt\n      tag_74\n      jumpi\n      dup3\n      swap1\n      sub\n      0x1f\n      and\n      dup3\n      add\n      swap2\n    tag_72:\n      pop\n      pop\n      pop\n      pop\n      pop\n      dup2\n      jump\t// out\n        /* \"contracts/Auctions.sol\":1774:2744  function makeABid() payable public notOwner afterStart beforeEnd {\r... */\n    tag_61:\n        /* \"contracts/Auctions.sol\":853:858  owner */\n      0x01\n      0x00\n      swap1\n      sload\n      swap1\n      0x0100\n      exp\n      swap1\n      div\n      0xffffffffffffffffffffffffffffffffffffffff\n      and\n        /* \"contracts/Auctions.sol\":839:858  msg.sender != owner */\n      0xffffffffffffffffffffffffffffffffffffffff\n      and\n        /* \"contracts/Auctions.sol\":839:849  msg.sender */\n      caller\n        /* \"contracts/Auctions.sol\":839:858  msg.sender != owner */\n      0xffffffffffffffffffffffffffffffffffffffff\n      and\n      eq\n      iszero\n        /* \"contracts/Auctions.sol\":831:901  require(msg.sender != owner, \"Bids can only be placed by none owners\") */\n      tag_76\n      jumpi\n      mload(0x40)\n      0x08c379a000000000000000000000000000000000000000000000000000000000\n      dup2\n      mstore\n      0x04\n      add\n      tag_77\n      swap1\n      tag_78\n      jump\t// in\n    tag_77:\n      mload(0x40)\n      dup1\n      swap2\n      sub\n      swap1\n      revert\n    tag_76:\n        /* \"contracts/Auctions.sol\":986:996  startBlock */\n      sload(0x05)\n        /* \"contracts/Auctions.sol\":970:982  block.number */\n      number\n        /* \"contracts/Auctions.sol\":970:996  block.number >= startBlock */\n      lt\n      iszero\n        /* \"contracts/Auctions.sol\":962:1038  require(block.number >= startBlock, \"Auction cannot be played at this time\") */\n      tag_80\n      jumpi\n      mload(0x40)\n      0x08c379a000000000000000000000000000000000000000000000000000000000\n      dup2\n      mstore\n      0x04\n      add\n      tag_81\n      swap1\n      tag_82\n      jump\t// in\n    tag_81:\n      mload(0x40)\n      dup1\n      swap2\n      sub\n      swap1\n      revert\n    tag_80:\n        /* \"contracts/Auctions.sol\":1122:1130  endBlock */\n      sload(0x06)\n        /* \"contracts/Auctions.sol\":1106:1118  block.number */\n      number\n        /* \"contracts/Auctions.sol\":1106:1130  block.number <= endBlock */\n      gt\n      iszero\n        /* \"contracts/Auctions.sol\":1098:1159  require(block.number <= endBlock, \"Auction time has elasped\") */\n      tag_84\n      jumpi\n      mload(0x40)\n      0x08c379a000000000000000000000000000000000000000000000000000000000\n      dup2\n      mstore\n      0x04\n      add\n      tag_85\n      swap1\n      tag_86\n      jump\t// in\n    tag_85:\n      mload(0x40)\n      dup1\n      swap2\n      sub\n      swap1\n      revert\n    tag_84:\n        /* \"contracts/Auctions.sol\":1870:1877  1 ether */\n      0x0de0b6b3a7640000\n        /* \"contracts/Auctions.sol\":1858:1867  msg.value */\n      callvalue\n        /* \"contracts/Auctions.sol\":1858:1877  msg.value > 1 ether */\n      gt\n        /* \"contracts/Auctions.sol\":1850:1921  require(msg.value > 1 ether, \"Value sent must be greater than 1 ether\") */\n      tag_88\n      jumpi\n      mload(0x40)\n      0x08c379a000000000000000000000000000000000000000000000000000000000\n      dup2\n      mstore\n      0x04\n      add\n      tag_89\n      swap1\n      tag_90\n      jump\t// in\n    tag_89:\n      mload(0x40)\n      dup1\n      swap2\n      sub\n      swap1\n      revert\n    tag_88:\n        /* \"contracts/Auctions.sol\":1993:2006  State.Running */\n      0x01\n        /* \"contracts/Auctions.sol\":1977:2006  auctionState == State.Running */\n      0x03\n      dup2\n      gt\n      iszero\n      tag_91\n      jumpi\n      tag_92\n      tag_68\n      jump\t// in\n    tag_92:\n    tag_91:\n        /* \"contracts/Auctions.sol\":1977:1989  auctionState */\n      0x07\n      0x00\n      swap1\n      sload\n      swap1\n      0x0100\n      exp\n      swap1\n      div\n      0xff\n      and\n        /* \"contracts/Auctions.sol\":1977:2006  auctionState == State.Running */\n      0x03\n      dup2\n      gt\n      iszero\n      tag_93\n      jumpi\n      tag_94\n      tag_68\n      jump\t// in\n    tag_94:\n    tag_93:\n      eq\n        /* \"contracts/Auctions.sol\":1969:2055  require(auctionState == State.Running, \"Auction state must be running to accept bids\") */\n      tag_95\n      jumpi\n      mload(0x40)\n      0x08c379a000000000000000000000000000000000000000000000000000000000\n      dup2\n      mstore\n      0x04\n      add\n      tag_96\n      swap1\n      tag_97\n      jump\t// in\n    tag_96:\n      mload(0x40)\n      dup1\n      swap2\n      sub\n      swap1\n      revert\n    tag_95:\n        /* \"contracts/Auctions.sol\":2133:2148  uint currentBid */\n      0x00\n        /* \"contracts/Auctions.sol\":2163:2170  bidsMap */\n      dup1\n        /* \"contracts/Auctions.sol\":2163:2182  bidsMap[msg.sender] */\n      0x00\n        /* \"contracts/Auctions.sol\":2171:2181  msg.sender */\n      caller\n        /* \"contracts/Auctions.sol\":2163:2182  bidsMap[msg.sender] */\n      0xffffffffffffffffffffffffffffffffffffffff\n      and\n      0xffffffffffffffffffffffffffffffffffffffff\n      and\n      dup2\n      mstore\n      0x20\n      add\n      swap1\n      dup2\n      mstore\n      0x20\n      add\n      0x00\n      keccak256\n      sload\n        /* \"contracts/Auctions.sol\":2151:2160  msg.value */\n      callvalue\n        /* \"contracts/Auctions.sol\":2151:2182  msg.value + bidsMap[msg.sender] */\n      tag_98\n      swap2\n      swap1\n      tag_99\n      jump\t// in\n    tag_98:\n        /* \"contracts/Auctions.sol\":2133:2182  uint currentBid = msg.value + bidsMap[msg.sender] */\n      swap1\n      pop\n        /* \"contracts/Auctions.sol\":2216:2232  higestBindingBid */\n      sload(0x03)\n        /* \"contracts/Auctions.sol\":2203:2213  currentBid */\n      dup2\n        /* \"contracts/Auctions.sol\":2203:2232  currentBid > higestBindingBid */\n      gt\n        /* \"contracts/Auctions.sol\":2195:2233  require(currentBid > higestBindingBid) */\n      tag_100\n      jumpi\n      0x00\n      dup1\n      revert\n    tag_100:\n        /* \"contracts/Auctions.sol\":2376:2386  currentBid */\n      dup1\n        /* \"contracts/Auctions.sol\":2354:2361  bidsMap */\n      0x00\n        /* \"contracts/Auctions.sol\":2354:2373  bidsMap[msg.sender] */\n      dup1\n        /* \"contracts/Auctions.sol\":2362:2372  msg.sender */\n      caller\n        /* \"contracts/Auctions.sol\":2354:2373  bidsMap[msg.sender] */\n      0xffffffffffffffffffffffffffffffffffffffff\n      and\n      0xffffffffffffffffffffffffffffffffffffffff\n      and\n      dup2\n      mstore\n      0x20\n      add\n      swap1\n      dup2\n      mstore\n      0x20\n      add\n      0x00\n      keccak256\n        /* \"contracts/Auctions.sol\":2354:2386  bidsMap[msg.sender] = currentBid */\n      dup2\n      swap1\n      sstore\n      pop\n        /* \"contracts/Auctions.sol\":2458:2465  bidsMap */\n      0x00\n        /* \"contracts/Auctions.sol\":2458:2480  bidsMap[highestBidder] */\n      dup1\n        /* \"contracts/Auctions.sol\":2466:2479  highestBidder */\n      0x02\n      0x00\n      swap1\n      sload\n      swap1\n      0x0100\n      exp\n      swap1\n      div\n      0xffffffffffffffffffffffffffffffffffffffff\n      and\n        /* \"contracts/Auctions.sol\":2458:2480  bidsMap[highestBidder] */\n      0xffffffffffffffffffffffffffffffffffffffff\n      and\n      0xffffffffffffffffffffffffffffffffffffffff\n      and\n      dup2\n      mstore\n      0x20\n      add\n      swap1\n      dup2\n      mstore\n      0x20\n      add\n      0x00\n      keccak256\n      sload\n        /* \"contracts/Auctions.sol\":2445:2455  currentBid */\n      dup2\n        /* \"contracts/Auctions.sol\":2445:2480  currentBid < bidsMap[highestBidder] */\n      lt\n        /* \"contracts/Auctions.sol\":2442:2735  if(currentBid < bidsMap[highestBidder]){\r... */\n      iszero\n      tag_101\n      jumpi\n        /* \"contracts/Auctions.sol\":2515:2569  min(currentBid + bidIncrement, bidsMap[highestBidder]) */\n      tag_102\n        /* \"contracts/Auctions.sol\":2532:2544  bidIncrement */\n      sload(0x04)\n        /* \"contracts/Auctions.sol\":2519:2529  currentBid */\n      dup3\n        /* \"contracts/Auctions.sol\":2519:2544  currentBid + bidIncrement */\n      tag_103\n      swap2\n      swap1\n      tag_99\n      jump\t// in\n    tag_103:\n        /* \"contracts/Auctions.sol\":2546:2553  bidsMap */\n      0x00\n        /* \"contracts/Auctions.sol\":2546:2568  bidsMap[highestBidder] */\n      dup1\n        /* \"contracts/Auctions.sol\":2554:2567  highestBidder */\n      0x02\n      0x00\n      swap1\n      sload\n      swap1\n      0x0100\n      exp\n      swap1\n      div\n      0xffffffffffffffffffffffffffffffffffffffff\n      and\n        /* \"contracts/Auctions.sol\":2546:2568  bidsMap[highestBidder] */\n      0xffffffffffffffffffffffffffffffffffffffff\n      and\n      0xffffffffffffffffffffffffffffffffffffffff\n      and\n      dup2\n      mstore\n      0x20\n      add\n      swap1\n      dup2\n      mstore\n      0x20\n      add\n      0x00\n      keccak256\n      sload\n        /* \"contracts/Auctions.sol\":2515:2518  min */\n      tag_104\n        /* \"contracts/Auctions.sol\":2515:2569  min(currentBid + bidIncrement, bidsMap[highestBidder]) */\n      jump\t// in\n    tag_102:\n        /* \"contracts/Auctions.sol\":2496:2512  higestBindingBid */\n      0x03\n        /* \"contracts/Auctions.sol\":2496:2569  higestBindingBid = min(currentBid + bidIncrement, bidsMap[highestBidder]) */\n      dup2\n      swap1\n      sstore\n      pop\n        /* \"contracts/Auctions.sol\":2442:2735  if(currentBid < bidsMap[highestBidder]){\r... */\n      jump(tag_105)\n    tag_101:\n        /* \"contracts/Auctions.sol\":2619:2673  min(currentBid, bidsMap[highestBidder] + bidIncrement) */\n      tag_106\n        /* \"contracts/Auctions.sol\":2623:2633  currentBid */\n      dup2\n        /* \"contracts/Auctions.sol\":2660:2672  bidIncrement */\n      sload(0x04)\n        /* \"contracts/Auctions.sol\":2635:2642  bidsMap */\n      0x00\n        /* \"contracts/Auctions.sol\":2635:2657  bidsMap[highestBidder] */\n      dup1\n        /* \"contracts/Auctions.sol\":2643:2656  highestBidder */\n      0x02\n      0x00\n      swap1\n      sload\n      swap1\n      0x0100\n      exp\n      swap1\n      div\n      0xffffffffffffffffffffffffffffffffffffffff\n      and\n        /* \"contracts/Auctions.sol\":2635:2657  bidsMap[highestBidder] */\n      0xffffffffffffffffffffffffffffffffffffffff\n      and\n      0xffffffffffffffffffffffffffffffffffffffff\n      and\n      dup2\n      mstore\n      0x20\n      add\n      swap1\n      dup2\n      mstore\n      0x20\n      add\n      0x00\n      keccak256\n      sload\n        /* \"contracts/Auctions.sol\":2635:2672  bidsMap[highestBidder] + bidIncrement */\n      tag_107\n      swap2\n      swap1\n      tag_99\n      jump\t// in\n    tag_107:\n        /* \"contracts/Auctions.sol\":2619:2622  min */\n      tag_104\n        /* \"contracts/Auctions.sol\":2619:2673  min(currentBid, bidsMap[highestBidder] + bidIncrement) */\n      jump\t// in\n    tag_106:\n        /* \"contracts/Auctions.sol\":2600:2616  higestBindingBid */\n      0x03\n        /* \"contracts/Auctions.sol\":2600:2673  higestBindingBid = min(currentBid, bidsMap[highestBidder] + bidIncrement) */\n      dup2\n      swap1\n      sstore\n      pop\n        /* \"contracts/Auctions.sol\":2712:2722  msg.sender */\n      caller\n        /* \"contracts/Auctions.sol\":2688:2701  highestBidder */\n      0x02\n      0x00\n        /* \"contracts/Auctions.sol\":2688:2723  highestBidder = payable(msg.sender) */\n      0x0100\n      exp\n      dup2\n      sload\n      dup2\n      0xffffffffffffffffffffffffffffffffffffffff\n      mul\n      not\n      and\n      swap1\n      dup4\n      0xffffffffffffffffffffffffffffffffffffffff\n      and\n      mul\n      or\n      swap1\n      sstore\n      pop\n        /* \"contracts/Auctions.sol\":2442:2735  if(currentBid < bidsMap[highestBidder]){\r... */\n    tag_105:\n        /* \"contracts/Auctions.sol\":1839:2744  {\r... */\n      pop\n        /* \"contracts/Auctions.sol\":1774:2744  function makeABid() payable public notOwner afterStart beforeEnd {\r... */\n      jump\t// out\n        /* \"contracts/Auctions.sol\":2841:4147  function finalizeAuction() public {\r... */\n    tag_64:\n        /* \"contracts/Auctions.sol\":3010:3022  auctionState */\n      0x07\n      0x00\n      swap1\n      sload\n      swap1\n      0x0100\n      exp\n      swap1\n      div\n      0xff\n      and\n        /* \"contracts/Auctions.sol\":2991:3022  State.Cancelled == auctionState */\n      0x03\n      dup2\n      gt\n      iszero\n      tag_109\n      jumpi\n      tag_110\n      tag_68\n      jump\t// in\n    tag_110:\n    tag_109:\n        /* \"contracts/Auctions.sol\":2991:3006  State.Cancelled */\n      0x03\n        /* \"contracts/Auctions.sol\":2991:3022  State.Cancelled == auctionState */\n      dup1\n      dup2\n      gt\n      iszero\n      tag_111\n      jumpi\n      tag_112\n      tag_68\n      jump\t// in\n    tag_112:\n    tag_111:\n      eq\n        /* \"contracts/Auctions.sol\":2991:3049  State.Cancelled == auctionState || block.number > endBlock */\n      dup1\n      tag_113\n      jumpi\n      pop\n        /* \"contracts/Auctions.sol\":3041:3049  endBlock */\n      sload(0x06)\n        /* \"contracts/Auctions.sol\":3026:3038  block.number */\n      number\n        /* \"contracts/Auctions.sol\":3026:3049  block.number > endBlock */\n      gt\n        /* \"contracts/Auctions.sol\":2991:3049  State.Cancelled == auctionState || block.number > endBlock */\n    tag_113:\n        /* \"contracts/Auctions.sol\":2983:3050  require(State.Cancelled == auctionState || block.number > endBlock) */\n      tag_114\n      jumpi\n      0x00\n      dup1\n      revert\n    tag_114:\n        /* \"contracts/Auctions.sol\":3235:3236  0 */\n      0x00\n        /* \"contracts/Auctions.sol\":3213:3220  bidsMap */\n      dup1\n        /* \"contracts/Auctions.sol\":3213:3232  bidsMap[msg.sender] */\n      0x00\n        /* \"contracts/Auctions.sol\":3221:3231  msg.sender */\n      caller\n        /* \"contracts/Auctions.sol\":3213:3232  bidsMap[msg.sender] */\n      0xffffffffffffffffffffffffffffffffffffffff\n      and\n      0xffffffffffffffffffffffffffffffffffffffff\n      and\n      dup2\n      mstore\n      0x20\n      add\n      swap1\n      dup2\n      mstore\n      0x20\n      add\n      0x00\n      keccak256\n      sload\n        /* \"contracts/Auctions.sol\":3213:3236  bidsMap[msg.sender] > 0 */\n      gt\n        /* \"contracts/Auctions.sol\":3213:3259  bidsMap[msg.sender] > 0 || msg.sender == owner */\n      dup1\n      tag_115\n      jumpi\n      pop\n        /* \"contracts/Auctions.sol\":3254:3259  owner */\n      0x01\n      0x00\n      swap1\n      sload\n      swap1\n      0x0100\n      exp\n      swap1\n      div\n      0xffffffffffffffffffffffffffffffffffffffff\n      and\n        /* \"contracts/Auctions.sol\":3240:3259  msg.sender == owner */\n      0xffffffffffffffffffffffffffffffffffffffff\n      and\n        /* \"contracts/Auctions.sol\":3240:3250  msg.sender */\n      caller\n        /* \"contracts/Auctions.sol\":3240:3259  msg.sender == owner */\n      0xffffffffffffffffffffffffffffffffffffffff\n      and\n      eq\n        /* \"contracts/Auctions.sol\":3213:3259  bidsMap[msg.sender] > 0 || msg.sender == owner */\n    tag_115:\n        /* \"contracts/Auctions.sol\":3205:3260  require(bidsMap[msg.sender] > 0 || msg.sender == owner) */\n      tag_116\n      jumpi\n      0x00\n      dup1\n      revert\n    tag_116:\n        /* \"contracts/Auctions.sol\":3273:3286  uint theValue */\n      0x00\n        /* \"contracts/Auctions.sol\":3297:3322  address payable recipient */\n      dup1\n        /* \"contracts/Auctions.sol\":3354:3369  State.Cancelled */\n      0x03\n        /* \"contracts/Auctions.sol\":3338:3369  auctionState == State.Cancelled */\n      dup1\n      dup2\n      gt\n      iszero\n      tag_117\n      jumpi\n      tag_118\n      tag_68\n      jump\t// in\n    tag_118:\n    tag_117:\n        /* \"contracts/Auctions.sol\":3338:3350  auctionState */\n      0x07\n      0x00\n      swap1\n      sload\n      swap1\n      0x0100\n      exp\n      swap1\n      div\n      0xff\n      and\n        /* \"contracts/Auctions.sol\":3338:3369  auctionState == State.Cancelled */\n      0x03\n      dup2\n      gt\n      iszero\n      tag_119\n      jumpi\n      tag_120\n      tag_68\n      jump\t// in\n    tag_120:\n    tag_119:\n      eq\n        /* \"contracts/Auctions.sol\":3335:4006  if(auctionState == State.Cancelled){\r... */\n      iszero\n      tag_121\n      jumpi\n        /* \"contracts/Auctions.sol\":3405:3415  msg.sender */\n      caller\n        /* \"contracts/Auctions.sol\":3385:3416  recipient = payable(msg.sender) */\n      swap1\n      pop\n        /* \"contracts/Auctions.sol\":3442:3449  bidsMap */\n      0x00\n        /* \"contracts/Auctions.sol\":3442:3464  bidsMap[highestBidder] */\n      dup1\n        /* \"contracts/Auctions.sol\":3450:3463  highestBidder */\n      0x02\n      0x00\n      swap1\n      sload\n      swap1\n      0x0100\n      exp\n      swap1\n      div\n      0xffffffffffffffffffffffffffffffffffffffff\n      and\n        /* \"contracts/Auctions.sol\":3442:3464  bidsMap[highestBidder] */\n      0xffffffffffffffffffffffffffffffffffffffff\n      and\n      0xffffffffffffffffffffffffffffffffffffffff\n      and\n      dup2\n      mstore\n      0x20\n      add\n      swap1\n      dup2\n      mstore\n      0x20\n      add\n      0x00\n      keccak256\n      sload\n        /* \"contracts/Auctions.sol\":3431:3464  theValue = bidsMap[highestBidder] */\n      swap2\n      pop\n        /* \"contracts/Auctions.sol\":3335:4006  if(auctionState == State.Cancelled){\r... */\n      jump(tag_122)\n    tag_121:\n        /* \"contracts/Auctions.sol\":3546:3551  owner */\n      0x01\n      0x00\n      swap1\n      sload\n      swap1\n      0x0100\n      exp\n      swap1\n      div\n      0xffffffffffffffffffffffffffffffffffffffff\n      and\n        /* \"contracts/Auctions.sol\":3532:3551  msg.sender == owner */\n      0xffffffffffffffffffffffffffffffffffffffff\n      and\n        /* \"contracts/Auctions.sol\":3532:3542  msg.sender */\n      caller\n        /* \"contracts/Auctions.sol\":3532:3551  msg.sender == owner */\n      0xffffffffffffffffffffffffffffffffffffffff\n      and\n      eq\n        /* \"contracts/Auctions.sol\":3529:3995  if(msg.sender == owner){\r... */\n      iszero\n      tag_123\n      jumpi\n        /* \"contracts/Auctions.sol\":3583:3588  owner */\n      0x01\n      0x00\n      swap1\n      sload\n      swap1\n      0x0100\n      exp\n      swap1\n      div\n      0xffffffffffffffffffffffffffffffffffffffff\n      and\n        /* \"contracts/Auctions.sol\":3571:3588  recipient = owner */\n      swap1\n      pop\n        /* \"contracts/Auctions.sol\":3618:3634  higestBindingBid */\n      sload(0x03)\n        /* \"contracts/Auctions.sol\":3607:3634  theValue = higestBindingBid */\n      swap2\n      pop\n        /* \"contracts/Auctions.sol\":3529:3995  if(msg.sender == owner){\r... */\n      jump(tag_124)\n    tag_123:\n        /* \"contracts/Auctions.sol\":3692:3705  highestBidder */\n      0x02\n      0x00\n      swap1\n      sload\n      swap1\n      0x0100\n      exp\n      swap1\n      div\n      0xffffffffffffffffffffffffffffffffffffffff\n      and\n        /* \"contracts/Auctions.sol\":3678:3705  msg.sender == highestBidder */\n      0xffffffffffffffffffffffffffffffffffffffff\n      and\n        /* \"contracts/Auctions.sol\":3678:3688  msg.sender */\n      caller\n        /* \"contracts/Auctions.sol\":3678:3705  msg.sender == highestBidder */\n      0xffffffffffffffffffffffffffffffffffffffff\n      and\n      eq\n        /* \"contracts/Auctions.sol\":3675:3980  if(msg.sender == highestBidder){\r... */\n      iszero\n      tag_125\n      jumpi\n        /* \"contracts/Auctions.sol\":3741:3754  highestBidder */\n      0x02\n      0x00\n      swap1\n      sload\n      swap1\n      0x0100\n      exp\n      swap1\n      div\n      0xffffffffffffffffffffffffffffffffffffffff\n      and\n        /* \"contracts/Auctions.sol\":3729:3754  recipient = highestBidder */\n      swap1\n      pop\n        /* \"contracts/Auctions.sol\":3813:3829  higestBindingBid */\n      sload(0x03)\n        /* \"contracts/Auctions.sol\":3788:3795  bidsMap */\n      0x00\n        /* \"contracts/Auctions.sol\":3788:3810  bidsMap[highestBidder] */\n      dup1\n        /* \"contracts/Auctions.sol\":3796:3809  highestBidder */\n      0x02\n      0x00\n      swap1\n      sload\n      swap1\n      0x0100\n      exp\n      swap1\n      div\n      0xffffffffffffffffffffffffffffffffffffffff\n      and\n        /* \"contracts/Auctions.sol\":3788:3810  bidsMap[highestBidder] */\n      0xffffffffffffffffffffffffffffffffffffffff\n      and\n      0xffffffffffffffffffffffffffffffffffffffff\n      and\n      dup2\n      mstore\n      0x20\n      add\n      swap1\n      dup2\n      mstore\n      0x20\n      add\n      0x00\n      keccak256\n      sload\n        /* \"contracts/Auctions.sol\":3788:3829  bidsMap[highestBidder] - higestBindingBid */\n      tag_126\n      swap2\n      swap1\n      tag_127\n      jump\t// in\n    tag_126:\n        /* \"contracts/Auctions.sol\":3777:3829  theValue = bidsMap[highestBidder] - higestBindingBid */\n      swap2\n      pop\n        /* \"contracts/Auctions.sol\":3675:3980  if(msg.sender == highestBidder){\r... */\n      jump(tag_128)\n    tag_125:\n        /* \"contracts/Auctions.sol\":3896:3906  msg.sender */\n      caller\n        /* \"contracts/Auctions.sol\":3876:3907  recipient = payable(msg.sender) */\n      swap1\n      pop\n        /* \"contracts/Auctions.sol\":3941:3948  bidsMap */\n      0x00\n        /* \"contracts/Auctions.sol\":3941:3960  bidsMap[msg.sender] */\n      dup1\n        /* \"contracts/Auctions.sol\":3949:3959  msg.sender */\n      caller\n        /* \"contracts/Auctions.sol\":3941:3960  bidsMap[msg.sender] */\n      0xffffffffffffffffffffffffffffffffffffffff\n      and\n      0xffffffffffffffffffffffffffffffffffffffff\n      and\n      dup2\n      mstore\n      0x20\n      add\n      swap1\n      dup2\n      mstore\n      0x20\n      add\n      0x00\n      keccak256\n      sload\n        /* \"contracts/Auctions.sol\":3930:3960  theValue = bidsMap[msg.sender] */\n      swap2\n      pop\n        /* \"contracts/Auctions.sol\":3675:3980  if(msg.sender == highestBidder){\r... */\n    tag_128:\n        /* \"contracts/Auctions.sol\":3529:3995  if(msg.sender == owner){\r... */\n    tag_124:\n        /* \"contracts/Auctions.sol\":3335:4006  if(auctionState == State.Cancelled){\r... */\n    tag_122:\n        /* \"contracts/Auctions.sol\":4093:4094  0 */\n      0x00\n        /* \"contracts/Auctions.sol\":4072:4079  bidsMap */\n      dup1\n        /* \"contracts/Auctions.sol\":4072:4090  bidsMap[recipient] */\n      0x00\n        /* \"contracts/Auctions.sol\":4080:4089  recipient */\n      dup4\n        /* \"contracts/Auctions.sol\":4072:4090  bidsMap[recipient] */\n      0xffffffffffffffffffffffffffffffffffffffff\n      and\n      0xffffffffffffffffffffffffffffffffffffffff\n      and\n      dup2\n      mstore\n      0x20\n      add\n      swap1\n      dup2\n      mstore\n      0x20\n      add\n      0x00\n      keccak256\n        /* \"contracts/Auctions.sol\":4072:4094  bidsMap[recipient] = 0 */\n      dup2\n      swap1\n      sstore\n      pop\n        /* \"contracts/Auctions.sol\":4105:4114  recipient */\n      dup1\n        /* \"contracts/Auctions.sol\":4105:4123  recipient.transfer */\n      0xffffffffffffffffffffffffffffffffffffffff\n      and\n        /* \"contracts/Auctions.sol\":4105:4133  recipient.transfer(theValue) */\n      0x08fc\n        /* \"contracts/Auctions.sol\":4124:4132  theValue */\n      dup4\n        /* \"contracts/Auctions.sol\":4105:4133  recipient.transfer(theValue) */\n      swap1\n      dup2\n      iszero\n      mul\n      swap1\n      mload(0x40)\n      0x00\n      mload(0x40)\n      dup1\n      dup4\n      sub\n      dup2\n      dup6\n      dup9\n      dup9\n      call\n      swap4\n      pop\n      pop\n      pop\n      pop\n      iszero\n      dup1\n      iszero\n      tag_130\n      jumpi\n      returndatasize\n      0x00\n      dup1\n      returndatacopy\n      revert(0x00, returndatasize)\n    tag_130:\n      pop\n        /* \"contracts/Auctions.sol\":2875:4147  {\r... */\n      pop\n      pop\n        /* \"contracts/Auctions.sol\":2841:4147  function finalizeAuction() public {\r... */\n      jump\t// out\n        /* \"contracts/Auctions.sol\":1251:1409  function min(uint a, uint b) pure internal returns(uint){\r... */\n    tag_104:\n        /* \"contracts/Auctions.sol\":1302:1306  uint */\n      0x00\n        /* \"contracts/Auctions.sol\":1326:1327  b */\n      dup2\n        /* \"contracts/Auctions.sol\":1321:1322  a */\n      dup4\n        /* \"contracts/Auctions.sol\":1321:1327  a <= b */\n      gt\n        /* \"contracts/Auctions.sol\":1318:1402  if(a <= b){\r... */\n      tag_132\n      jumpi\n        /* \"contracts/Auctions.sol\":1350:1351  a */\n      dup3\n        /* \"contracts/Auctions.sol\":1343:1351  return a */\n      swap1\n      pop\n      jump(tag_131)\n        /* \"contracts/Auctions.sol\":1318:1402  if(a <= b){\r... */\n    tag_132:\n        /* \"contracts/Auctions.sol\":1389:1390  b */\n      dup2\n        /* \"contracts/Auctions.sol\":1382:1390  return b */\n      swap1\n      pop\n        /* \"contracts/Auctions.sol\":1251:1409  function min(uint a, uint b) pure internal returns(uint){\r... */\n    tag_131:\n      swap3\n      swap2\n      pop\n      pop\n      jump\t// out\n        /* \"#utility.yul\":7:146   */\n    tag_135:\n        /* \"#utility.yul\":53:58   */\n      0x00\n        /* \"#utility.yul\":91:97   */\n      dup2\n        /* \"#utility.yul\":78:98   */\n      calldataload\n        /* \"#utility.yul\":69:98   */\n      swap1\n      pop\n        /* \"#utility.yul\":107:140   */\n      tag_137\n        /* \"#utility.yul\":134:139   */\n      dup2\n        /* \"#utility.yul\":107:140   */\n      tag_138\n      jump\t// in\n    tag_137:\n        /* \"#utility.yul\":7:146   */\n      swap3\n      swap2\n      pop\n      pop\n      jump\t// out\n        /* \"#utility.yul\":152:481   */\n    tag_37:\n        /* \"#utility.yul\":211:217   */\n      0x00\n        /* \"#utility.yul\":260:262   */\n      0x20\n        /* \"#utility.yul\":248:257   */\n      dup3\n        /* \"#utility.yul\":239:246   */\n      dup5\n        /* \"#utility.yul\":235:258   */\n      sub\n        /* \"#utility.yul\":231:263   */\n      slt\n        /* \"#utility.yul\":228:347   */\n      iszero\n      tag_140\n      jumpi\n        /* \"#utility.yul\":266:345   */\n      tag_141\n      tag_142\n      jump\t// in\n    tag_141:\n        /* \"#utility.yul\":228:347   */\n    tag_140:\n        /* \"#utility.yul\":386:387   */\n      0x00\n        /* \"#utility.yul\":411:464   */\n      tag_143\n        /* \"#utility.yul\":456:463   */\n      dup5\n        /* \"#utility.yul\":447:453   */\n      dup3\n        /* \"#utility.yul\":436:445   */\n      dup6\n        /* \"#utility.yul\":432:454   */\n      add\n        /* \"#utility.yul\":411:464   */\n      tag_135\n      jump\t// in\n    tag_143:\n        /* \"#utility.yul\":401:464   */\n      swap2\n      pop\n        /* \"#utility.yul\":357:474   */\n      pop\n        /* \"#utility.yul\":152:481   */\n      swap3\n      swap2\n      pop\n      pop\n      jump\t// out\n        /* \"#utility.yul\":487:629   */\n    tag_144:\n        /* \"#utility.yul\":590:622   */\n      tag_146\n        /* \"#utility.yul\":616:621   */\n      dup2\n        /* \"#utility.yul\":590:622   */\n      tag_147\n      jump\t// in\n    tag_146:\n        /* \"#utility.yul\":585:588   */\n      dup3\n        /* \"#utility.yul\":578:623   */\n      mstore\n        /* \"#utility.yul\":487:629   */\n      pop\n      pop\n      jump\t// out\n        /* \"#utility.yul\":635:778   */\n    tag_148:\n        /* \"#utility.yul\":728:771   */\n      tag_150\n        /* \"#utility.yul\":765:770   */\n      dup2\n        /* \"#utility.yul\":728:771   */\n      tag_151\n      jump\t// in\n    tag_150:\n        /* \"#utility.yul\":723:726   */\n      dup3\n        /* \"#utility.yul\":716:772   */\n      mstore\n        /* \"#utility.yul\":635:778   */\n      pop\n      pop\n      jump\t// out\n        /* \"#utility.yul\":784:1148   */\n    tag_152:\n        /* \"#utility.yul\":872:875   */\n      0x00\n        /* \"#utility.yul\":900:939   */\n      tag_154\n        /* \"#utility.yul\":933:938   */\n      dup3\n        /* \"#utility.yul\":900:939   */\n      tag_155\n      jump\t// in\n    tag_154:\n        /* \"#utility.yul\":955:1026   */\n      tag_156\n        /* \"#utility.yul\":1019:1025   */\n      dup2\n        /* \"#utility.yul\":1014:1017   */\n      dup6\n        /* \"#utility.yul\":955:1026   */\n      tag_157\n      jump\t// in\n    tag_156:\n        /* \"#utility.yul\":948:1026   */\n      swap4\n      pop\n        /* \"#utility.yul\":1035:1087   */\n      tag_158\n        /* \"#utility.yul\":1080:1086   */\n      dup2\n        /* \"#utility.yul\":1075:1078   */\n      dup6\n        /* \"#utility.yul\":1068:1072   */\n      0x20\n        /* \"#utility.yul\":1061:1066   */\n      dup7\n        /* \"#utility.yul\":1057:1073   */\n      add\n        /* \"#utility.yul\":1035:1087   */\n      tag_159\n      jump\t// in\n    tag_158:\n        /* \"#utility.yul\":1112:1141   */\n      tag_160\n        /* \"#utility.yul\":1134:1140   */\n      dup2\n        /* \"#utility.yul\":1112:1141   */\n      tag_161\n      jump\t// in\n    tag_160:\n        /* \"#utility.yul\":1107:1110   */\n      dup5\n        /* \"#utility.yul\":1103:1142   */\n      add\n        /* \"#utility.yul\":1096:1142   */\n      swap2\n      pop\n        /* \"#utility.yul\":876:1148   */\n      pop\n        /* \"#utility.yul\":784:1148   */\n      swap3\n      swap2\n      pop\n      pop\n      jump\t// out\n        /* \"#utility.yul\":1154:1520   */\n    tag_162:\n        /* \"#utility.yul\":1296:1299   */\n      0x00\n        /* \"#utility.yul\":1317:1384   */\n      tag_164\n        /* \"#utility.yul\":1381:1383   */\n      0x26\n        /* \"#utility.yul\":1376:1379   */\n      dup4\n        /* \"#utility.yul\":1317:1384   */\n      tag_157\n      jump\t// in\n    tag_164:\n        /* \"#utility.yul\":1310:1384   */\n      swap2\n      pop\n        /* \"#utility.yul\":1393:1486   */\n      tag_165\n        /* \"#utility.yul\":1482:1485   */\n      dup3\n        /* \"#utility.yul\":1393:1486   */\n      tag_166\n      jump\t// in\n    tag_165:\n        /* \"#utility.yul\":1511:1513   */\n      0x40\n        /* \"#utility.yul\":1506:1509   */\n      dup3\n        /* \"#utility.yul\":1502:1514   */\n      add\n        /* \"#utility.yul\":1495:1514   */\n      swap1\n      pop\n        /* \"#utility.yul\":1154:1520   */\n      swap2\n      swap1\n      pop\n      jump\t// out\n        /* \"#utility.yul\":1526:1892   */\n    tag_167:\n        /* \"#utility.yul\":1668:1671   */\n      0x00\n        /* \"#utility.yul\":1689:1756   */\n      tag_169\n        /* \"#utility.yul\":1753:1755   */\n      0x18\n        /* \"#utility.yul\":1748:1751   */\n      dup4\n        /* \"#utility.yul\":1689:1756   */\n      tag_157\n      jump\t// in\n    tag_169:\n        /* \"#utility.yul\":1682:1756   */\n      swap2\n      pop\n        /* \"#utility.yul\":1765:1858   */\n      tag_170\n        /* \"#utility.yul\":1854:1857   */\n      dup3\n        /* \"#utility.yul\":1765:1858   */\n      tag_171\n      jump\t// in\n    tag_170:\n        /* \"#utility.yul\":1883:1885   */\n      0x20\n        /* \"#utility.yul\":1878:1881   */\n      dup3\n        /* \"#utility.yul\":1874:1886   */\n      add\n        /* \"#utility.yul\":1867:1886   */\n      swap1\n      pop\n        /* \"#utility.yul\":1526:1892   */\n      swap2\n      swap1\n      pop\n      jump\t// out\n        /* \"#utility.yul\":1898:2264   */\n    tag_172:\n        /* \"#utility.yul\":2040:2043   */\n      0x00\n        /* \"#utility.yul\":2061:2128   */\n      tag_174\n        /* \"#utility.yul\":2125:2127   */\n      0x25\n        /* \"#utility.yul\":2120:2123   */\n      dup4\n        /* \"#utility.yul\":2061:2128   */\n      tag_157\n      jump\t// in\n    tag_174:\n        /* \"#utility.yul\":2054:2128   */\n      swap2\n      pop\n        /* \"#utility.yul\":2137:2230   */\n      tag_175\n        /* \"#utility.yul\":2226:2229   */\n      dup3\n        /* \"#utility.yul\":2137:2230   */\n      tag_176\n      jump\t// in\n    tag_175:\n        /* \"#utility.yul\":2255:2257   */\n      0x40\n        /* \"#utility.yul\":2250:2253   */\n      dup3\n        /* \"#utility.yul\":2246:2258   */\n      add\n        /* \"#utility.yul\":2239:2258   */\n      swap1\n      pop\n        /* \"#utility.yul\":1898:2264   */\n      swap2\n      swap1\n      pop\n      jump\t// out\n        /* \"#utility.yul\":2270:2636   */\n    tag_177:\n        /* \"#utility.yul\":2412:2415   */\n      0x00\n        /* \"#utility.yul\":2433:2500   */\n      tag_179\n        /* \"#utility.yul\":2497:2499   */\n      0x27\n        /* \"#utility.yul\":2492:2495   */\n      dup4\n        /* \"#utility.yul\":2433:2500   */\n      tag_157\n      jump\t// in\n    tag_179:\n        /* \"#utility.yul\":2426:2500   */\n      swap2\n      pop\n        /* \"#utility.yul\":2509:2602   */\n      tag_180\n        /* \"#utility.yul\":2598:2601   */\n      dup3\n        /* \"#utility.yul\":2509:2602   */\n      tag_181\n      jump\t// in\n    tag_180:\n        /* \"#utility.yul\":2627:2629   */\n      0x40\n        /* \"#utility.yul\":2622:2625   */\n      dup3\n        /* \"#utility.yul\":2618:2630   */\n      add\n        /* \"#utility.yul\":2611:2630   */\n      swap1\n      pop\n        /* \"#utility.yul\":2270:2636   */\n      swap2\n      swap1\n      pop\n      jump\t// out\n        /* \"#utility.yul\":2642:3008   */\n    tag_182:\n        /* \"#utility.yul\":2784:2787   */\n      0x00\n        /* \"#utility.yul\":2805:2872   */\n      tag_184\n        /* \"#utility.yul\":2869:2871   */\n      0x2c\n        /* \"#utility.yul\":2864:2867   */\n      dup4\n        /* \"#utility.yul\":2805:2872   */\n      tag_157\n      jump\t// in\n    tag_184:\n        /* \"#utility.yul\":2798:2872   */\n      swap2\n      pop\n        /* \"#utility.yul\":2881:2974   */\n      tag_185\n        /* \"#utility.yul\":2970:2973   */\n      dup3\n        /* \"#utility.yul\":2881:2974   */\n      tag_186\n      jump\t// in\n    tag_185:\n        /* \"#utility.yul\":2999:3001   */\n      0x40\n        /* \"#utility.yul\":2994:2997   */\n      dup3\n        /* \"#utility.yul\":2990:3002   */\n      add\n        /* \"#utility.yul\":2983:3002   */\n      swap1\n      pop\n        /* \"#utility.yul\":2642:3008   */\n      swap2\n      swap1\n      pop\n      jump\t// out\n        /* \"#utility.yul\":3014:3132   */\n    tag_187:\n        /* \"#utility.yul\":3101:3125   */\n      tag_189\n        /* \"#utility.yul\":3119:3124   */\n      dup2\n        /* \"#utility.yul\":3101:3125   */\n      tag_190\n      jump\t// in\n    tag_189:\n        /* \"#utility.yul\":3096:3099   */\n      dup3\n        /* \"#utility.yul\":3089:3126   */\n      mstore\n        /* \"#utility.yul\":3014:3132   */\n      pop\n      pop\n      jump\t// out\n        /* \"#utility.yul\":3138:3392   */\n    tag_33:\n        /* \"#utility.yul\":3247:3251   */\n      0x00\n        /* \"#utility.yul\":3285:3287   */\n      0x20\n        /* \"#utility.yul\":3274:3283   */\n      dup3\n        /* \"#utility.yul\":3270:3288   */\n      add\n        /* \"#utility.yul\":3262:3288   */\n      swap1\n      pop\n        /* \"#utility.yul\":3298:3385   */\n      tag_192\n        /* \"#utility.yul\":3382:3383   */\n      0x00\n        /* \"#utility.yul\":3371:3380   */\n      dup4\n        /* \"#utility.yul\":3367:3384   */\n      add\n        /* \"#utility.yul\":3358:3364   */\n      dup5\n        /* \"#utility.yul\":3298:3385   */\n      tag_144\n      jump\t// in\n    tag_192:\n        /* \"#utility.yul\":3138:3392   */\n      swap3\n      swap2\n      pop\n      pop\n      jump\t// out\n        /* \"#utility.yul\":3398:3632   */\n    tag_28:\n        /* \"#utility.yul\":3497:3501   */\n      0x00\n        /* \"#utility.yul\":3535:3537   */\n      0x20\n        /* \"#utility.yul\":3524:3533   */\n      dup3\n        /* \"#utility.yul\":3520:3538   */\n      add\n        /* \"#utility.yul\":3512:3538   */\n      swap1\n      pop\n        /* \"#utility.yul\":3548:3625   */\n      tag_194\n        /* \"#utility.yul\":3622:3623   */\n      0x00\n        /* \"#utility.yul\":3611:3620   */\n      dup4\n        /* \"#utility.yul\":3607:3624   */\n      add\n        /* \"#utility.yul\":3598:3604   */\n      dup5\n        /* \"#utility.yul\":3548:3625   */\n      tag_148\n      jump\t// in\n    tag_194:\n        /* \"#utility.yul\":3398:3632   */\n      swap3\n      swap2\n      pop\n      pop\n      jump\t// out\n        /* \"#utility.yul\":3638:3951   */\n    tag_59:\n        /* \"#utility.yul\":3751:3755   */\n      0x00\n        /* \"#utility.yul\":3789:3791   */\n      0x20\n        /* \"#utility.yul\":3778:3787   */\n      dup3\n        /* \"#utility.yul\":3774:3792   */\n      add\n        /* \"#utility.yul\":3766:3792   */\n      swap1\n      pop\n        /* \"#utility.yul\":3838:3847   */\n      dup2\n        /* \"#utility.yul\":3832:3836   */\n      dup2\n        /* \"#utility.yul\":3828:3848   */\n      sub\n        /* \"#utility.yul\":3824:3825   */\n      0x00\n        /* \"#utility.yul\":3813:3822   */\n      dup4\n        /* \"#utility.yul\":3809:3826   */\n      add\n        /* \"#utility.yul\":3802:3849   */\n      mstore\n        /* \"#utility.yul\":3866:3944   */\n      tag_196\n        /* \"#utility.yul\":3939:3943   */\n      dup2\n        /* \"#utility.yul\":3930:3936   */\n      dup5\n        /* \"#utility.yul\":3866:3944   */\n      tag_152\n      jump\t// in\n    tag_196:\n        /* \"#utility.yul\":3858:3944   */\n      swap1\n      pop\n        /* \"#utility.yul\":3638:3951   */\n      swap3\n      swap2\n      pop\n      pop\n      jump\t// out\n        /* \"#utility.yul\":3957:4376   */\n    tag_78:\n        /* \"#utility.yul\":4123:4127   */\n      0x00\n        /* \"#utility.yul\":4161:4163   */\n      0x20\n        /* \"#utility.yul\":4150:4159   */\n      dup3\n        /* \"#utility.yul\":4146:4164   */\n      add\n        /* \"#utility.yul\":4138:4164   */\n      swap1\n      pop\n        /* \"#utility.yul\":4210:4219   */\n      dup2\n        /* \"#utility.yul\":4204:4208   */\n      dup2\n        /* \"#utility.yul\":4200:4220   */\n      sub\n        /* \"#utility.yul\":4196:4197   */\n      0x00\n        /* \"#utility.yul\":4185:4194   */\n      dup4\n        /* \"#utility.yul\":4181:4198   */\n      add\n        /* \"#utility.yul\":4174:4221   */\n      mstore\n        /* \"#utility.yul\":4238:4369   */\n      tag_198\n        /* \"#utility.yul\":4364:4368   */\n      dup2\n        /* \"#utility.yul\":4238:4369   */\n      tag_162\n      jump\t// in\n    tag_198:\n        /* \"#utility.yul\":4230:4369   */\n      swap1\n      pop\n        /* \"#utility.yul\":3957:4376   */\n      swap2\n      swap1\n      pop\n      jump\t// out\n        /* \"#utility.yul\":4382:4801   */\n    tag_86:\n        /* \"#utility.yul\":4548:4552   */\n      0x00\n        /* \"#utility.yul\":4586:4588   */\n      0x20\n        /* \"#utility.yul\":4575:4584   */\n      dup3\n        /* \"#utility.yul\":4571:4589   */\n      add\n        /* \"#utility.yul\":4563:4589   */\n      swap1\n      pop\n        /* \"#utility.yul\":4635:4644   */\n      dup2\n        /* \"#utility.yul\":4629:4633   */\n      dup2\n        /* \"#utility.yul\":4625:4645   */\n      sub\n        /* \"#utility.yul\":4621:4622   */\n      0x00\n        /* \"#utility.yul\":4610:4619   */\n      dup4\n        /* \"#utility.yul\":4606:4623   */\n      add\n        /* \"#utility.yul\":4599:4646   */\n      mstore\n        /* \"#utility.yul\":4663:4794   */\n      tag_200\n        /* \"#utility.yul\":4789:4793   */\n      dup2\n        /* \"#utility.yul\":4663:4794   */\n      tag_167\n      jump\t// in\n    tag_200:\n        /* \"#utility.yul\":4655:4794   */\n      swap1\n      pop\n        /* \"#utility.yul\":4382:4801   */\n      swap2\n      swap1\n      pop\n      jump\t// out\n        /* \"#utility.yul\":4807:5226   */\n    tag_82:\n        /* \"#utility.yul\":4973:4977   */\n      0x00\n        /* \"#utility.yul\":5011:5013   */\n      0x20\n        /* \"#utility.yul\":5000:5009   */\n      dup3\n        /* \"#utility.yul\":4996:5014   */\n      add\n        /* \"#utility.yul\":4988:5014   */\n      swap1\n      pop\n        /* \"#utility.yul\":5060:5069   */\n      dup2\n        /* \"#utility.yul\":5054:5058   */\n      dup2\n        /* \"#utility.yul\":5050:5070   */\n      sub\n        /* \"#utility.yul\":5046:5047   */\n      0x00\n        /* \"#utility.yul\":5035:5044   */\n      dup4\n        /* \"#utility.yul\":5031:5048   */\n      add\n        /* \"#utility.yul\":5024:5071   */\n      mstore\n        /* \"#utility.yul\":5088:5219   */\n      tag_202\n        /* \"#utility.yul\":5214:5218   */\n      dup2\n        /* \"#utility.yul\":5088:5219   */\n      tag_172\n      jump\t// in\n    tag_202:\n        /* \"#utility.yul\":5080:5219   */\n      swap1\n      pop\n        /* \"#utility.yul\":4807:5226   */\n      swap2\n      swap1\n      pop\n      jump\t// out\n        /* \"#utility.yul\":5232:5651   */\n    tag_90:\n        /* \"#utility.yul\":5398:5402   */\n      0x00\n        /* \"#utility.yul\":5436:5438   */\n      0x20\n        /* \"#utility.yul\":5425:5434   */\n      dup3\n        /* \"#utility.yul\":5421:5439   */\n      add\n        /* \"#utility.yul\":5413:5439   */\n      swap1\n      pop\n        /* \"#utility.yul\":5485:5494   */\n      dup2\n        /* \"#utility.yul\":5479:5483   */\n      dup2\n        /* \"#utility.yul\":5475:5495   */\n      sub\n        /* \"#utility.yul\":5471:5472   */\n      0x00\n        /* \"#utility.yul\":5460:5469   */\n      dup4\n        /* \"#utility.yul\":5456:5473   */\n      add\n        /* \"#utility.yul\":5449:5496   */\n      mstore\n        /* \"#utility.yul\":5513:5644   */\n      tag_204\n        /* \"#utility.yul\":5639:5643   */\n      dup2\n        /* \"#utility.yul\":5513:5644   */\n      tag_177\n      jump\t// in\n    tag_204:\n        /* \"#utility.yul\":5505:5644   */\n      swap1\n      pop\n        /* \"#utility.yul\":5232:5651   */\n      swap2\n      swap1\n      pop\n      jump\t// out\n        /* \"#utility.yul\":5657:6076   */\n    tag_97:\n        /* \"#utility.yul\":5823:5827   */\n      0x00\n        /* \"#utility.yul\":5861:5863   */\n      0x20\n        /* \"#utility.yul\":5850:5859   */\n      dup3\n        /* \"#utility.yul\":5846:5864   */\n      add\n        /* \"#utility.yul\":5838:5864   */\n      swap1\n      pop\n        /* \"#utility.yul\":5910:5919   */\n      dup2\n        /* \"#utility.yul\":5904:5908   */\n      dup2\n        /* \"#utility.yul\":5900:5920   */\n      sub\n        /* \"#utility.yul\":5896:5897   */\n      0x00\n        /* \"#utility.yul\":5885:5894   */\n      dup4\n        /* \"#utility.yul\":5881:5898   */\n      add\n        /* \"#utility.yul\":5874:5921   */\n      mstore\n        /* \"#utility.yul\":5938:6069   */\n      tag_206\n        /* \"#utility.yul\":6064:6068   */\n      dup2\n        /* \"#utility.yul\":5938:6069   */\n      tag_182\n      jump\t// in\n    tag_206:\n        /* \"#utility.yul\":5930:6069   */\n      swap1\n      pop\n        /* \"#utility.yul\":5657:6076   */\n      swap2\n      swap1\n      pop\n      jump\t// out\n        /* \"#utility.yul\":6082:6304   */\n    tag_19:\n        /* \"#utility.yul\":6175:6179   */\n      0x00\n        /* \"#utility.yul\":6213:6215   */\n      0x20\n        /* \"#utility.yul\":6202:6211   */\n      dup3\n        /* \"#utility.yul\":6198:6216   */\n      add\n        /* \"#utility.yul\":6190:6216   */\n      swap1\n      pop\n        /* \"#utility.yul\":6226:6297   */\n      tag_208\n        /* \"#utility.yul\":6294:6295   */\n      0x00\n        /* \"#utility.yul\":6283:6292   */\n      dup4\n        /* \"#utility.yul\":6279:6296   */\n      add\n        /* \"#utility.yul\":6270:6276   */\n      dup5\n        /* \"#utility.yul\":6226:6297   */\n      tag_187\n      jump\t// in\n    tag_208:\n        /* \"#utility.yul\":6082:6304   */\n      swap3\n      swap2\n      pop\n      pop\n      jump\t// out\n        /* \"#utility.yul\":6391:6490   */\n    tag_155:\n        /* \"#utility.yul\":6443:6449   */\n      0x00\n        /* \"#utility.yul\":6477:6482   */\n      dup2\n        /* \"#utility.yul\":6471:6483   */\n      mload\n        /* \"#utility.yul\":6461:6483   */\n      swap1\n      pop\n        /* \"#utility.yul\":6391:6490   */\n      swap2\n      swap1\n      pop\n      jump\t// out\n        /* \"#utility.yul\":6496:6665   */\n    tag_157:\n        /* \"#utility.yul\":6580:6591   */\n      0x00\n        /* \"#utility.yul\":6614:6620   */\n      dup3\n        /* \"#utility.yul\":6609:6612   */\n      dup3\n        /* \"#utility.yul\":6602:6621   */\n      mstore\n        /* \"#utility.yul\":6654:6658   */\n      0x20\n        /* \"#utility.yul\":6649:6652   */\n      dup3\n        /* \"#utility.yul\":6645:6659   */\n      add\n        /* \"#utility.yul\":6630:6659   */\n      swap1\n      pop\n        /* \"#utility.yul\":6496:6665   */\n      swap3\n      swap2\n      pop\n      pop\n      jump\t// out\n        /* \"#utility.yul\":6671:6976   */\n    tag_99:\n        /* \"#utility.yul\":6711:6714   */\n      0x00\n        /* \"#utility.yul\":6730:6750   */\n      tag_214\n        /* \"#utility.yul\":6748:6749   */\n      dup3\n        /* \"#utility.yul\":6730:6750   */\n      tag_190\n      jump\t// in\n    tag_214:\n        /* \"#utility.yul\":6725:6750   */\n      swap2\n      pop\n        /* \"#utility.yul\":6764:6784   */\n      tag_215\n        /* \"#utility.yul\":6782:6783   */\n      dup4\n        /* \"#utility.yul\":6764:6784   */\n      tag_190\n      jump\t// in\n    tag_215:\n        /* \"#utility.yul\":6759:6784   */\n      swap3\n      pop\n        /* \"#utility.yul\":6918:6919   */\n      dup3\n        /* \"#utility.yul\":6850:6916   */\n      0xffffffffffffffffffffffffffffffffffffffffffffffffffffffffffffffff\n        /* \"#utility.yul\":6846:6920   */\n      sub\n        /* \"#utility.yul\":6843:6844   */\n      dup3\n        /* \"#utility.yul\":6840:6921   */\n      gt\n        /* \"#utility.yul\":6837:6944   */\n      iszero\n      tag_216\n      jumpi\n        /* \"#utility.yul\":6924:6942   */\n      tag_217\n      tag_218\n      jump\t// in\n    tag_217:\n        /* \"#utility.yul\":6837:6944   */\n    tag_216:\n        /* \"#utility.yul\":6968:6969   */\n      dup3\n        /* \"#utility.yul\":6965:6966   */\n      dup3\n        /* \"#utility.yul\":6961:6970   */\n      add\n        /* \"#utility.yul\":6954:6970   */\n      swap1\n      pop\n        /* \"#utility.yul\":6671:6976   */\n      swap3\n      swap2\n      pop\n      pop\n      jump\t// out\n        /* \"#utility.yul\":6982:7173   */\n    tag_127:\n        /* \"#utility.yul\":7022:7026   */\n      0x00\n        /* \"#utility.yul\":7042:7062   */\n      tag_220\n        /* \"#utility.yul\":7060:7061   */\n      dup3\n        /* \"#utility.yul\":7042:7062   */\n      tag_190\n      jump\t// in\n    tag_220:\n        /* \"#utility.yul\":7037:7062   */\n      swap2\n      pop\n        /* \"#utility.yul\":7076:7096   */\n      tag_221\n        /* \"#utility.yul\":7094:7095   */\n      dup4\n        /* \"#utility.yul\":7076:7096   */\n      tag_190\n      jump\t// in\n    tag_221:\n        /* \"#utility.yul\":7071:7096   */\n      swap3\n      pop\n        /* \"#utility.yul\":7115:7116   */\n      dup3\n        /* \"#utility.yul\":7112:7113   */\n      dup3\n        /* \"#utility.yul\":7109:7117   */\n      lt\n        /* \"#utility.yul\":7106:7140   */\n      iszero\n      tag_222\n      jumpi\n        /* \"#utility.yul\":7120:7138   */\n      tag_223\n      tag_218\n      jump\t// in\n    tag_223:\n        /* \"#utility.yul\":7106:7140   */\n    tag_222:\n        /* \"#utility.yul\":7165:7166   */\n      dup3\n        /* \"#utility.yul\":7162:7163   */\n      dup3\n        /* \"#utility.yul\":7158:7167   */\n      sub\n        /* \"#utility.yul\":7150:7167   */\n      swap1\n      pop\n        /* \"#utility.yul\":6982:7173   */\n      swap3\n      swap2\n      pop\n      pop\n      jump\t// out\n        /* \"#utility.yul\":7179:7275   */\n    tag_224:\n        /* \"#utility.yul\":7216:7223   */\n      0x00\n        /* \"#utility.yul\":7245:7269   */\n      tag_226\n        /* \"#utility.yul\":7263:7268   */\n      dup3\n        /* \"#utility.yul\":7245:7269   */\n      tag_227\n      jump\t// in\n    tag_226:\n        /* \"#utility.yul\":7234:7269   */\n      swap1\n      pop\n        /* \"#utility.yul\":7179:7275   */\n      swap2\n      swap1\n      pop\n      jump\t// out\n        /* \"#utility.yul\":7281:7385   */\n    tag_147:\n        /* \"#utility.yul\":7326:7333   */\n      0x00\n        /* \"#utility.yul\":7355:7379   */\n      tag_229\n        /* \"#utility.yul\":7373:7378   */\n      dup3\n        /* \"#utility.yul\":7355:7379   */\n      tag_227\n      jump\t// in\n    tag_229:\n        /* \"#utility.yul\":7344:7379   */\n      swap1\n      pop\n        /* \"#utility.yul\":7281:7385   */\n      swap2\n      swap1\n      pop\n      jump\t// out\n        /* \"#utility.yul\":7391:7518   */\n    tag_230:\n        /* \"#utility.yul\":7436:7443   */\n      0x00\n        /* \"#utility.yul\":7465:7470   */\n      dup2\n        /* \"#utility.yul\":7454:7470   */\n      swap1\n      pop\n        /* \"#utility.yul\":7471:7512   */\n      tag_232\n        /* \"#utility.yul\":7506:7511   */\n      dup3\n        /* \"#utility.yul\":7471:7512   */\n      tag_233\n      jump\t// in\n    tag_232:\n        /* \"#utility.yul\":7391:7518   */\n      swap2\n      swap1\n      pop\n      jump\t// out\n        /* \"#utility.yul\":7524:7650   */\n    tag_227:\n        /* \"#utility.yul\":7561:7568   */\n      0x00\n        /* \"#utility.yul\":7601:7643   */\n      0xffffffffffffffffffffffffffffffffffffffff\n        /* \"#utility.yul\":7594:7599   */\n      dup3\n        /* \"#utility.yul\":7590:7644   */\n      and\n        /* \"#utility.yul\":7579:7644   */\n      swap1\n      pop\n        /* \"#utility.yul\":7524:7650   */\n      swap2\n      swap1\n      pop\n      jump\t// out\n        /* \"#utility.yul\":7656:7733   */\n    tag_190:\n        /* \"#utility.yul\":7693:7700   */\n      0x00\n        /* \"#utility.yul\":7722:7727   */\n      dup2\n        /* \"#utility.yul\":7711:7727   */\n      swap1\n      pop\n        /* \"#utility.yul\":7656:7733   */\n      swap2\n      swap1\n      pop\n      jump\t// out\n        /* \"#utility.yul\":7739:7866   */\n    tag_151:\n        /* \"#utility.yul\":7795:7804   */\n      0x00\n        /* \"#utility.yul\":7828:7860   */\n      tag_237\n        /* \"#utility.yul\":7854:7859   */\n      dup3\n        /* \"#utility.yul\":7828:7860   */\n      tag_230\n      jump\t// in\n    tag_237:\n        /* \"#utility.yul\":7815:7860   */\n      swap1\n      pop\n        /* \"#utility.yul\":7739:7866   */\n      swap2\n      swap1\n      pop\n      jump\t// out\n        /* \"#utility.yul\":7872:8179   */\n    tag_159:\n        /* \"#utility.yul\":7940:7941   */\n      0x00\n        /* \"#utility.yul\":7950:8063   */\n    tag_239:\n        /* \"#utility.yul\":7964:7970   */\n      dup4\n        /* \"#utility.yul\":7961:7962   */\n      dup2\n        /* \"#utility.yul\":7958:7971   */\n      lt\n        /* \"#utility.yul\":7950:8063   */\n      iszero\n      tag_241\n      jumpi\n        /* \"#utility.yul\":8049:8050   */\n      dup1\n        /* \"#utility.yul\":8044:8047   */\n      dup3\n        /* \"#utility.yul\":8040:8051   */\n      add\n        /* \"#utility.yul\":8034:8052   */\n      mload\n        /* \"#utility.yul\":8030:8031   */\n      dup2\n        /* \"#utility.yul\":8025:8028   */\n      dup5\n        /* \"#utility.yul\":8021:8032   */\n      add\n        /* \"#utility.yul\":8014:8053   */\n      mstore\n        /* \"#utility.yul\":7986:7988   */\n      0x20\n        /* \"#utility.yul\":7983:7984   */\n      dup2\n        /* \"#utility.yul\":7979:7989   */\n      add\n        /* \"#utility.yul\":7974:7989   */\n      swap1\n      pop\n        /* \"#utility.yul\":7950:8063   */\n      jump(tag_239)\n    tag_241:\n        /* \"#utility.yul\":8081:8087   */\n      dup4\n        /* \"#utility.yul\":8078:8079   */\n      dup2\n        /* \"#utility.yul\":8075:8088   */\n      gt\n        /* \"#utility.yul\":8072:8173   */\n      iszero\n      tag_242\n      jumpi\n        /* \"#utility.yul\":8161:8162   */\n      0x00\n        /* \"#utility.yul\":8152:8158   */\n      dup5\n        /* \"#utility.yul\":8147:8150   */\n      dup5\n        /* \"#utility.yul\":8143:8159   */\n      add\n        /* \"#utility.yul\":8136:8163   */\n      mstore\n        /* \"#utility.yul\":8072:8173   */\n    tag_242:\n        /* \"#utility.yul\":7921:8179   */\n      pop\n        /* \"#utility.yul\":7872:8179   */\n      pop\n      pop\n      pop\n      jump\t// out\n        /* \"#utility.yul\":8185:8505   */\n    tag_70:\n        /* \"#utility.yul\":8229:8235   */\n      0x00\n        /* \"#utility.yul\":8266:8267   */\n      0x02\n        /* \"#utility.yul\":8260:8264   */\n      dup3\n        /* \"#utility.yul\":8256:8268   */\n      div\n        /* \"#utility.yul\":8246:8268   */\n      swap1\n      pop\n        /* \"#utility.yul\":8313:8314   */\n      0x01\n        /* \"#utility.yul\":8307:8311   */\n      dup3\n        /* \"#utility.yul\":8303:8315   */\n      and\n        /* \"#utility.yul\":8334:8352   */\n      dup1\n        /* \"#utility.yul\":8324:8405   */\n      tag_244\n      jumpi\n        /* \"#utility.yul\":8390:8394   */\n      0x7f\n        /* \"#utility.yul\":8382:8388   */\n      dup3\n        /* \"#utility.yul\":8378:8395   */\n      and\n        /* \"#utility.yul\":8368:8395   */\n      swap2\n      pop\n        /* \"#utility.yul\":8324:8405   */\n    tag_244:\n        /* \"#utility.yul\":8452:8454   */\n      0x20\n        /* \"#utility.yul\":8444:8450   */\n      dup3\n        /* \"#utility.yul\":8441:8455   */\n      lt\n        /* \"#utility.yul\":8421:8439   */\n      dup2\n        /* \"#utility.yul\":8418:8456   */\n      eq\n        /* \"#utility.yul\":8415:8499   */\n      iszero\n      tag_245\n      jumpi\n        /* \"#utility.yul\":8471:8489   */\n      tag_246\n      tag_247\n      jump\t// in\n    tag_246:\n        /* \"#utility.yul\":8415:8499   */\n    tag_245:\n        /* \"#utility.yul\":8236:8505   */\n      pop\n        /* \"#utility.yul\":8185:8505   */\n      swap2\n      swap1\n      pop\n      jump\t// out\n        /* \"#utility.yul\":8511:8691   */\n    tag_218:\n        /* \"#utility.yul\":8559:8636   */\n      0x4e487b7100000000000000000000000000000000000000000000000000000000\n        /* \"#utility.yul\":8556:8557   */\n      0x00\n        /* \"#utility.yul\":8549:8637   */\n      mstore\n        /* \"#utility.yul\":8656:8660   */\n      0x11\n        /* \"#utility.yul\":8653:8654   */\n      0x04\n        /* \"#utility.yul\":8646:8661   */\n      mstore\n        /* \"#utility.yul\":8680:8684   */\n      0x24\n        /* \"#utility.yul\":8677:8678   */\n      0x00\n        /* \"#utility.yul\":8670:8685   */\n      revert\n        /* \"#utility.yul\":8697:8877   */\n    tag_68:\n        /* \"#utility.yul\":8745:8822   */\n      0x4e487b7100000000000000000000000000000000000000000000000000000000\n        /* \"#utility.yul\":8742:8743   */\n      0x00\n        /* \"#utility.yul\":8735:8823   */\n      mstore\n        /* \"#utility.yul\":8842:8846   */\n      0x21\n        /* \"#utility.yul\":8839:8840   */\n      0x04\n        /* \"#utility.yul\":8832:8847   */\n      mstore\n        /* \"#utility.yul\":8866:8870   */\n      0x24\n        /* \"#utility.yul\":8863:8864   */\n      0x00\n        /* \"#utility.yul\":8856:8871   */\n      revert\n        /* \"#utility.yul\":8883:9063   */\n    tag_247:\n        /* \"#utility.yul\":8931:9008   */\n      0x4e487b7100000000000000000000000000000000000000000000000000000000\n        /* \"#utility.yul\":8928:8929   */\n      0x00\n        /* \"#utility.yul\":8921:9009   */\n      mstore\n        /* \"#utility.yul\":9028:9032   */\n      0x22\n        /* \"#utility.yul\":9025:9026   */\n      0x04\n        /* \"#utility.yul\":9018:9033   */\n      mstore\n        /* \"#utility.yul\":9052:9056   */\n      0x24\n        /* \"#utility.yul\":9049:9050   */\n      0x00\n        /* \"#utility.yul\":9042:9057   */\n      revert\n        /* \"#utility.yul\":9192:9309   */\n    tag_142:\n        /* \"#utility.yul\":9301:9302   */\n      0x00\n        /* \"#utility.yul\":9298:9299   */\n      dup1\n        /* \"#utility.yul\":9291:9303   */\n      revert\n        /* \"#utility.yul\":9315:9417   */\n    tag_161:\n        /* \"#utility.yul\":9356:9362   */\n      0x00\n        /* \"#utility.yul\":9407:9409   */\n      0x1f\n        /* \"#utility.yul\":9403:9410   */\n      not\n        /* \"#utility.yul\":9398:9400   */\n      0x1f\n        /* \"#utility.yul\":9391:9396   */\n      dup4\n        /* \"#utility.yul\":9387:9401   */\n      add\n        /* \"#utility.yul\":9383:9411   */\n      and\n        /* \"#utility.yul\":9373:9411   */\n      swap1\n      pop\n        /* \"#utility.yul\":9315:9417   */\n      swap2\n      swap1\n      pop\n      jump\t// out\n        /* \"#utility.yul\":9423:9648   */\n    tag_166:\n        /* \"#utility.yul\":9563:9597   */\n      0x426964732063616e206f6e6c7920626520706c61636564206279206e6f6e6520\n        /* \"#utility.yul\":9559:9560   */\n      0x00\n        /* \"#utility.yul\":9551:9557   */\n      dup3\n        /* \"#utility.yul\":9547:9561   */\n      add\n        /* \"#utility.yul\":9540:9598   */\n      mstore\n        /* \"#utility.yul\":9632:9640   */\n      0x6f776e6572730000000000000000000000000000000000000000000000000000\n        /* \"#utility.yul\":9627:9629   */\n      0x20\n        /* \"#utility.yul\":9619:9625   */\n      dup3\n        /* \"#utility.yul\":9615:9630   */\n      add\n        /* \"#utility.yul\":9608:9641   */\n      mstore\n        /* \"#utility.yul\":9423:9648   */\n      pop\n      jump\t// out\n        /* \"#utility.yul\":9654:9828   */\n    tag_171:\n        /* \"#utility.yul\":9794:9820   */\n      0x41756374696f6e2074696d652068617320656c61737065640000000000000000\n        /* \"#utility.yul\":9790:9791   */\n      0x00\n        /* \"#utility.yul\":9782:9788   */\n      dup3\n        /* \"#utility.yul\":9778:9792   */\n      add\n        /* \"#utility.yul\":9771:9821   */\n      mstore\n        /* \"#utility.yul\":9654:9828   */\n      pop\n      jump\t// out\n        /* \"#utility.yul\":9834:10058   */\n    tag_176:\n        /* \"#utility.yul\":9974:10008   */\n      0x41756374696f6e2063616e6e6f7420626520706c617965642061742074686973\n        /* \"#utility.yul\":9970:9971   */\n      0x00\n        /* \"#utility.yul\":9962:9968   */\n      dup3\n        /* \"#utility.yul\":9958:9972   */\n      add\n        /* \"#utility.yul\":9951:10009   */\n      mstore\n        /* \"#utility.yul\":10043:10050   */\n      0x2074696d65000000000000000000000000000000000000000000000000000000\n        /* \"#utility.yul\":10038:10040   */\n      0x20\n        /* \"#utility.yul\":10030:10036   */\n      dup3\n        /* \"#utility.yul\":10026:10041   */\n      add\n        /* \"#utility.yul\":10019:10051   */\n      mstore\n        /* \"#utility.yul\":9834:10058   */\n      pop\n      jump\t// out\n        /* \"#utility.yul\":10064:10290   */\n    tag_181:\n        /* \"#utility.yul\":10204:10238   */\n      0x56616c75652073656e74206d7573742062652067726561746572207468616e20\n        /* \"#utility.yul\":10200:10201   */\n      0x00\n        /* \"#utility.yul\":10192:10198   */\n      dup3\n        /* \"#utility.yul\":10188:10202   */\n      add\n        /* \"#utility.yul\":10181:10239   */\n      mstore\n        /* \"#utility.yul\":10273:10282   */\n      0x3120657468657200000000000000000000000000000000000000000000000000\n        /* \"#utility.yul\":10268:10270   */\n      0x20\n        /* \"#utility.yul\":10260:10266   */\n      dup3\n        /* \"#utility.yul\":10256:10271   */\n      add\n        /* \"#utility.yul\":10249:10283   */\n      mstore\n        /* \"#utility.yul\":10064:10290   */\n      pop\n      jump\t// out\n        /* \"#utility.yul\":10296:10527   */\n    tag_186:\n        /* \"#utility.yul\":10436:10470   */\n      0x41756374696f6e207374617465206d7573742062652072756e6e696e6720746f\n        /* \"#utility.yul\":10432:10433   */\n      0x00\n        /* \"#utility.yul\":10424:10430   */\n      dup3\n        /* \"#utility.yul\":10420:10434   */\n      add\n        /* \"#utility.yul\":10413:10471   */\n      mstore\n        /* \"#utility.yul\":10505:10519   */\n      0x2061636365707420626964730000000000000000000000000000000000000000\n        /* \"#utility.yul\":10500:10502   */\n      0x20\n        /* \"#utility.yul\":10492:10498   */\n      dup3\n        /* \"#utility.yul\":10488:10503   */\n      add\n        /* \"#utility.yul\":10481:10520   */\n      mstore\n        /* \"#utility.yul\":10296:10527   */\n      pop\n      jump\t// out\n        /* \"#utility.yul\":10533:10646   */\n    tag_233:\n        /* \"#utility.yul\":10614:10615   */\n      0x04\n        /* \"#utility.yul\":10607:10612   */\n      dup2\n        /* \"#utility.yul\":10604:10616   */\n      lt\n        /* \"#utility.yul\":10594:10640   */\n      tag_261\n      jumpi\n        /* \"#utility.yul\":10620:10638   */\n      tag_262\n      tag_68\n      jump\t// in\n    tag_262:\n        /* \"#utility.yul\":10594:10640   */\n    tag_261:\n        /* \"#utility.yul\":10533:10646   */\n      pop\n      jump\t// out\n        /* \"#utility.yul\":10652:10774   */\n    tag_138:\n        /* \"#utility.yul\":10725:10749   */\n      tag_264\n        /* \"#utility.yul\":10743:10748   */\n      dup2\n        /* \"#utility.yul\":10725:10749   */\n      tag_224\n      jump\t// in\n    tag_264:\n        /* \"#utility.yul\":10718:10723   */\n      dup2\n        /* \"#utility.yul\":10715:10750   */\n      eq\n        /* \"#utility.yul\":10705:10768   */\n      tag_265\n      jumpi\n        /* \"#utility.yul\":10764:10765   */\n      0x00\n        /* \"#utility.yul\":10761:10762   */\n      dup1\n        /* \"#utility.yul\":10754:10766   */\n      revert\n        /* \"#utility.yul\":10705:10768   */\n    tag_265:\n        /* \"#utility.yul\":10652:10774   */\n      pop\n      jump\t// out\n\n    auxdata: 0xa264697066735822122003a5bbd0965c96009c755b4e892f03132c0d89686f7c2a443e9d4d4f8c78dcdb64736f6c63430008070033\n}\n",
				"bytecode": {
					"linkReferences": {},
					"object": "60806040526001600960006101000a81548160ff0219169083151502179055503480156200002c57600080fd5b5033600160006101000a81548173ffffffffffffffffffffffffffffffffffffffff021916908373ffffffffffffffffffffffffffffffffffffffff16021790555060646004819055506001600760006101000a81548160ff021916908360038111156200009f576200009e6200026c565b5b02179055506040518060200160405280600081525060089080519060200190620000cb929190620000f0565b50436005819055506003600554620000e49190620001a0565b600681905550620002ca565b828054620000fe9062000207565b90600052602060002090601f0160209004810192826200012257600085556200016e565b82601f106200013d57805160ff19168380011785556200016e565b828001600101855582156200016e579182015b828111156200016d57825182559160200191906001019062000150565b5b5090506200017d919062000181565b5090565b5b808211156200019c57600081600090555060010162000182565b5090565b6000620001ad82620001fd565b9150620001ba83620001fd565b9250827fffffffffffffffffffffffffffffffffffffffffffffffffffffffffffffffff03821115620001f257620001f16200023d565b5b828201905092915050565b6000819050919050565b600060028204905060018216806200022057607f821691505b602082108114156200023757620002366200029b565b5b50919050565b7f4e487b7100000000000000000000000000000000000000000000000000000000600052601160045260246000fd5b7f4e487b7100000000000000000000000000000000000000000000000000000000600052602160045260246000fd5b7f4e487b7100000000000000000000000000000000000000000000000000000000600052602260045260246000fd5b61123780620002da6000396000f3fe6080604052600436106100a75760003560e01c806391c11f7d1161006457806391c11f7d146101ac57806391f90157146101d7578063b3cc167a14610202578063c623674f1461022d578063eb36a47914610258578063f77282ab14610262576100a7565b8063083c6323146100ac57806348cd4cb1146100d75780637fb45099146101025780638da5cb5b1461012d5780638ee77512146101585780638fa8b79014610195575b600080fd5b3480156100b857600080fd5b506100c1610279565b6040516100ce9190610e35565b60405180910390f35b3480156100e357600080fd5b506100ec61027f565b6040516100f99190610e35565b60405180910390f35b34801561010e57600080fd5b50610117610285565b6040516101249190610d58565b60405180910390f35b34801561013957600080fd5b50610142610298565b60405161014f9190610d3d565b60405180910390f35b34801561016457600080fd5b5061017f600480360381019061017a9190610bfb565b6102be565b60405161018c9190610e35565b60405180910390f35b3480156101a157600080fd5b506101aa6102d6565b005b3480156101b857600080fd5b506101c1610303565b6040516101ce9190610e35565b60405180910390f35b3480156101e357600080fd5b506101ec610309565b6040516101f99190610d3d565b60405180910390f35b34801561020e57600080fd5b5061021761032f565b6040516102249190610e35565b60405180910390f35b34801561023957600080fd5b50610242610335565b60405161024f9190610d73565b60405180910390f35b6102606103c3565b005b34801561026e57600080fd5b506102776107e9565b005b60065481565b60055481565b600760009054906101000a900460ff1681565b600160009054906101000a900473ffffffffffffffffffffffffffffffffffffffff1681565b60006020528060005260406000206000915090505481565b6003600760006101000a81548160ff021916908360038111156102fc576102fb610ffd565b5b0217905550565b60035481565b600260009054906101000a900473ffffffffffffffffffffffffffffffffffffffff1681565b60045481565b6008805461034290610f9c565b80601f016020809104026020016040519081016040528092919081815260200182805461036e90610f9c565b80156103bb5780601f10610390576101008083540402835291602001916103bb565b820191906000526020600020905b81548152906001019060200180831161039e57829003601f168201915b505050505081565b600160009054906101000a900473ffffffffffffffffffffffffffffffffffffffff1673ffffffffffffffffffffffffffffffffffffffff163373ffffffffffffffffffffffffffffffffffffffff161415610454576040517f08c379a000000000000000000000000000000000000000000000000000000000815260040161044b90610d95565b60405180910390fd5b600554431015610499576040517f08c379a000000000000000000000000000000000000000000000000000000000815260040161049090610dd5565b60405180910390fd5b6006544311156104de576040517f08c379a00000000000000000000000000000000000000000000000000000000081526004016104d590610db5565b60405180910390fd5b670de0b6b3a76400003411610528576040517f08c379a000000000000000000000000000000000000000000000000000000000815260040161051f90610df5565b60405180910390fd5b6001600381111561053c5761053b610ffd565b5b600760009054906101000a900460ff16600381111561055e5761055d610ffd565b5b1461059e576040517f08c379a000000000000000000000000000000000000000000000000000000000815260040161059590610e15565b60405180910390fd5b60008060003373ffffffffffffffffffffffffffffffffffffffff1673ffffffffffffffffffffffffffffffffffffffff16815260200190815260200160002054346105ea9190610e6c565b905060035481116105fa57600080fd5b806000803373ffffffffffffffffffffffffffffffffffffffff1673ffffffffffffffffffffffffffffffffffffffff16815260200190815260200160002081905550600080600260009054906101000a900473ffffffffffffffffffffffffffffffffffffffff1673ffffffffffffffffffffffffffffffffffffffff1673ffffffffffffffffffffffffffffffffffffffff168152602001908152602001600020548110156107275761071c600454826106b69190610e6c565b600080600260009054906101000a900473ffffffffffffffffffffffffffffffffffffffff1673ffffffffffffffffffffffffffffffffffffffff1673ffffffffffffffffffffffffffffffffffffffff16815260200190815260200160002054610bcb565b6003819055506107e6565b61079e81600454600080600260009054906101000a900473ffffffffffffffffffffffffffffffffffffffff1673ffffffffffffffffffffffffffffffffffffffff1673ffffffffffffffffffffffffffffffffffffffff168152602001908152602001600020546107999190610e6c565b610bcb565b60038190555033600260006101000a81548173ffffffffffffffffffffffffffffffffffffffff021916908373ffffffffffffffffffffffffffffffffffffffff1602179055505b50565b600760009054906101000a900460ff16600381111561080b5761080a610ffd565b5b60038081111561081e5761081d610ffd565b5b148061082b575060065443115b61083457600080fd5b60008060003373ffffffffffffffffffffffffffffffffffffffff1673ffffffffffffffffffffffffffffffffffffffff1681526020019081526020016000205411806108ce5750600160009054906101000a900473ffffffffffffffffffffffffffffffffffffffff1673ffffffffffffffffffffffffffffffffffffffff163373ffffffffffffffffffffffffffffffffffffffff16145b6108d757600080fd5b6000806003808111156108ed576108ec610ffd565b5b600760009054906101000a900460ff16600381111561090f5761090e610ffd565b5b141561098057339050600080600260009054906101000a900473ffffffffffffffffffffffffffffffffffffffff1673ffffffffffffffffffffffffffffffffffffffff1673ffffffffffffffffffffffffffffffffffffffff168152602001908152602001600020549150610b3c565b600160009054906101000a900473ffffffffffffffffffffffffffffffffffffffff1673ffffffffffffffffffffffffffffffffffffffff163373ffffffffffffffffffffffffffffffffffffffff161415610a0557600160009054906101000a900473ffffffffffffffffffffffffffffffffffffffff1690506003549150610b3b565b600260009054906101000a900473ffffffffffffffffffffffffffffffffffffffff1673ffffffffffffffffffffffffffffffffffffffff163373ffffffffffffffffffffffffffffffffffffffff161415610af557600260009054906101000a900473ffffffffffffffffffffffffffffffffffffffff169050600354600080600260009054906101000a900473ffffffffffffffffffffffffffffffffffffffff1673ffffffffffffffffffffffffffffffffffffffff1673ffffffffffffffffffffffffffffffffffffffff16815260200190815260200160002054610aee9190610ec2565b9150610b3a565b3390506000803373ffffffffffffffffffffffffffffffffffffffff1673ffffffffffffffffffffffffffffffffffffffff1681526020019081526020016000205491505b5b5b60008060008373ffffffffffffffffffffffffffffffffffffffff1673ffffffffffffffffffffffffffffffffffffffff168152602001908152602001600020819055508073ffffffffffffffffffffffffffffffffffffffff166108fc839081150290604051600060405180830381858888f19350505050158015610bc6573d6000803e3d6000fd5b505050565b6000818311610bdc57829050610be0565b8190505b92915050565b600081359050610bf5816111ea565b92915050565b600060208284031215610c1157610c1061105b565b5b6000610c1f84828501610be6565b91505092915050565b610c3181610f08565b82525050565b610c4081610f57565b82525050565b6000610c5182610e50565b610c5b8185610e5b565b9350610c6b818560208601610f69565b610c7481611060565b840191505092915050565b6000610c8c602683610e5b565b9150610c9782611071565b604082019050919050565b6000610caf601883610e5b565b9150610cba826110c0565b602082019050919050565b6000610cd2602583610e5b565b9150610cdd826110e9565b604082019050919050565b6000610cf5602783610e5b565b9150610d0082611138565b604082019050919050565b6000610d18602c83610e5b565b9150610d2382611187565b604082019050919050565b610d3781610f4d565b82525050565b6000602082019050610d526000830184610c28565b92915050565b6000602082019050610d6d6000830184610c37565b92915050565b60006020820190508181036000830152610d8d8184610c46565b905092915050565b60006020820190508181036000830152610dae81610c7f565b9050919050565b60006020820190508181036000830152610dce81610ca2565b9050919050565b60006020820190508181036000830152610dee81610cc5565b9050919050565b60006020820190508181036000830152610e0e81610ce8565b9050919050565b60006020820190508181036000830152610e2e81610d0b565b9050919050565b6000602082019050610e4a6000830184610d2e565b92915050565b600081519050919050565b600082825260208201905092915050565b6000610e7782610f4d565b9150610e8283610f4d565b9250827fffffffffffffffffffffffffffffffffffffffffffffffffffffffffffffffff03821115610eb757610eb6610fce565b5b828201905092915050565b6000610ecd82610f4d565b9150610ed883610f4d565b925082821015610eeb57610eea610fce565b5b828203905092915050565b6000610f0182610f2d565b9050919050565b6000610f1382610f2d565b9050919050565b6000819050610f28826111d6565b919050565b600073ffffffffffffffffffffffffffffffffffffffff82169050919050565b6000819050919050565b6000610f6282610f1a565b9050919050565b60005b83811015610f87578082015181840152602081019050610f6c565b83811115610f96576000848401525b50505050565b60006002820490506001821680610fb457607f821691505b60208210811415610fc857610fc761102c565b5b50919050565b7f4e487b7100000000000000000000000000000000000000000000000000000000600052601160045260246000fd5b7f4e487b7100000000000000000000000000000000000000000000000000000000600052602160045260246000fd5b7f4e487b7100000000000000000000000000000000000000000000000000000000600052602260045260246000fd5b600080fd5b6000601f19601f8301169050919050565b7f426964732063616e206f6e6c7920626520706c61636564206279206e6f6e652060008201527f6f776e6572730000000000000000000000000000000000000000000000000000602082015250565b7f41756374696f6e2074696d652068617320656c61737065640000000000000000600082015250565b7f41756374696f6e2063616e6e6f7420626520706c61796564206174207468697360008201527f2074696d65000000000000000000000000000000000000000000000000000000602082015250565b7f56616c75652073656e74206d7573742062652067726561746572207468616e2060008201527f3120657468657200000000000000000000000000000000000000000000000000602082015250565b7f41756374696f6e207374617465206d7573742062652072756e6e696e6720746f60008201527f2061636365707420626964730000000000000000000000000000000000000000602082015250565b600481106111e7576111e6610ffd565b5b50565b6111f381610ef6565b81146111fe57600080fd5b5056fea264697066735822122003a5bbd0965c96009c755b4e892f03132c0d89686f7c2a443e9d4d4f8c78dcdb64736f6c63430008070033",
					"opcodes": "PUSH1 0x80 PUSH1 0x40 MSTORE PUSH1 0x1 PUSH1 0x9 PUSH1 0x0 PUSH2 0x100 EXP DUP2 SLOAD DUP2 PUSH1 0xFF MUL NOT AND SWAP1 DUP4 ISZERO ISZERO MUL OR SWAP1 SSTORE POP CALLVALUE DUP1 ISZERO PUSH3 0x2C JUMPI PUSH1 0x0 DUP1 REVERT JUMPDEST POP CALLER PUSH1 0x1 PUSH1 0x0 PUSH2 0x100 EXP DUP2 SLOAD DUP2 PUSH20 0xFFFFFFFFFFFFFFFFFFFFFFFFFFFFFFFFFFFFFFFF MUL NOT AND SWAP1 DUP4 PUSH20 0xFFFFFFFFFFFFFFFFFFFFFFFFFFFFFFFFFFFFFFFF AND MUL OR SWAP1 SSTORE POP PUSH1 0x64 PUSH1 0x4 DUP2 SWAP1 SSTORE POP PUSH1 0x1 PUSH1 0x7 PUSH1 0x0 PUSH2 0x100 EXP DUP2 SLOAD DUP2 PUSH1 0xFF MUL NOT AND SWAP1 DUP4 PUSH1 0x3 DUP2 GT ISZERO PUSH3 0x9F JUMPI PUSH3 0x9E PUSH3 0x26C JUMP JUMPDEST JUMPDEST MUL OR SWAP1 SSTORE POP PUSH1 0x40 MLOAD DUP1 PUSH1 0x20 ADD PUSH1 0x40 MSTORE DUP1 PUSH1 0x0 DUP2 MSTORE POP PUSH1 0x8 SWAP1 DUP1 MLOAD SWAP1 PUSH1 0x20 ADD SWAP1 PUSH3 0xCB SWAP3 SWAP2 SWAP1 PUSH3 0xF0 JUMP JUMPDEST POP NUMBER PUSH1 0x5 DUP2 SWAP1 SSTORE POP PUSH1 0x3 PUSH1 0x5 SLOAD PUSH3 0xE4 SWAP2 SWAP1 PUSH3 0x1A0 JUMP JUMPDEST PUSH1 0x6 DUP2 SWAP1 SSTORE POP PUSH3 0x2CA JUMP JUMPDEST DUP3 DUP1 SLOAD PUSH3 0xFE SWAP1 PUSH3 0x207 JUMP JUMPDEST SWAP1 PUSH1 0x0 MSTORE PUSH1 0x20 PUSH1 0x0 KECCAK256 SWAP1 PUSH1 0x1F ADD PUSH1 0x20 SWAP1 DIV DUP2 ADD SWAP3 DUP3 PUSH3 0x122 JUMPI PUSH1 0x0 DUP6 SSTORE PUSH3 0x16E JUMP JUMPDEST DUP3 PUSH1 0x1F LT PUSH3 0x13D JUMPI DUP1 MLOAD PUSH1 0xFF NOT AND DUP4 DUP1 ADD OR DUP6 SSTORE PUSH3 0x16E JUMP JUMPDEST DUP3 DUP1 ADD PUSH1 0x1 ADD DUP6 SSTORE DUP3 ISZERO PUSH3 0x16E JUMPI SWAP2 DUP3 ADD JUMPDEST DUP3 DUP2 GT ISZERO PUSH3 0x16D JUMPI DUP3 MLOAD DUP3 SSTORE SWAP2 PUSH1 0x20 ADD SWAP2 SWAP1 PUSH1 0x1 ADD SWAP1 PUSH3 0x150 JUMP JUMPDEST JUMPDEST POP SWAP1 POP PUSH3 0x17D SWAP2 SWAP1 PUSH3 0x181 JUMP JUMPDEST POP SWAP1 JUMP JUMPDEST JUMPDEST DUP1 DUP3 GT ISZERO PUSH3 0x19C JUMPI PUSH1 0x0 DUP2 PUSH1 0x0 SWAP1 SSTORE POP PUSH1 0x1 ADD PUSH3 0x182 JUMP JUMPDEST POP SWAP1 JUMP JUMPDEST PUSH1 0x0 PUSH3 0x1AD DUP3 PUSH3 0x1FD JUMP JUMPDEST SWAP2 POP PUSH3 0x1BA DUP4 PUSH3 0x1FD JUMP JUMPDEST SWAP3 POP DUP3 PUSH32 0xFFFFFFFFFFFFFFFFFFFFFFFFFFFFFFFFFFFFFFFFFFFFFFFFFFFFFFFFFFFFFFFF SUB DUP3 GT ISZERO PUSH3 0x1F2 JUMPI PUSH3 0x1F1 PUSH3 0x23D JUMP JUMPDEST JUMPDEST DUP3 DUP3 ADD SWAP1 POP SWAP3 SWAP2 POP POP JUMP JUMPDEST PUSH1 0x0 DUP2 SWAP1 POP SWAP2 SWAP1 POP JUMP JUMPDEST PUSH1 0x0 PUSH1 0x2 DUP3 DIV SWAP1 POP PUSH1 0x1 DUP3 AND DUP1 PUSH3 0x220 JUMPI PUSH1 0x7F DUP3 AND SWAP2 POP JUMPDEST PUSH1 0x20 DUP3 LT DUP2 EQ ISZERO PUSH3 0x237 JUMPI PUSH3 0x236 PUSH3 0x29B JUMP JUMPDEST JUMPDEST POP SWAP2 SWAP1 POP JUMP JUMPDEST PUSH32 0x4E487B7100000000000000000000000000000000000000000000000000000000 PUSH1 0x0 MSTORE PUSH1 0x11 PUSH1 0x4 MSTORE PUSH1 0x24 PUSH1 0x0 REVERT JUMPDEST PUSH32 0x4E487B7100000000000000000000000000000000000000000000000000000000 PUSH1 0x0 MSTORE PUSH1 0x21 PUSH1 0x4 MSTORE PUSH1 0x24 PUSH1 0x0 REVERT JUMPDEST PUSH32 0x4E487B7100000000000000000000000000000000000000000000000000000000 PUSH1 0x0 MSTORE PUSH1 0x22 PUSH1 0x4 MSTORE PUSH1 0x24 PUSH1 0x0 REVERT JUMPDEST PUSH2 0x1237 DUP1 PUSH3 0x2DA PUSH1 0x0 CODECOPY PUSH1 0x0 RETURN INVALID PUSH1 0x80 PUSH1 0x40 MSTORE PUSH1 0x4 CALLDATASIZE LT PUSH2 0xA7 JUMPI PUSH1 0x0 CALLDATALOAD PUSH1 0xE0 SHR DUP1 PUSH4 0x91C11F7D GT PUSH2 0x64 JUMPI DUP1 PUSH4 0x91C11F7D EQ PUSH2 0x1AC JUMPI DUP1 PUSH4 0x91F90157 EQ PUSH2 0x1D7 JUMPI DUP1 PUSH4 0xB3CC167A EQ PUSH2 0x202 JUMPI DUP1 PUSH4 0xC623674F EQ PUSH2 0x22D JUMPI DUP1 PUSH4 0xEB36A479 EQ PUSH2 0x258 JUMPI DUP1 PUSH4 0xF77282AB EQ PUSH2 0x262 JUMPI PUSH2 0xA7 JUMP JUMPDEST DUP1 PUSH4 0x83C6323 EQ PUSH2 0xAC JUMPI DUP1 PUSH4 0x48CD4CB1 EQ PUSH2 0xD7 JUMPI DUP1 PUSH4 0x7FB45099 EQ PUSH2 0x102 JUMPI DUP1 PUSH4 0x8DA5CB5B EQ PUSH2 0x12D JUMPI DUP1 PUSH4 0x8EE77512 EQ PUSH2 0x158 JUMPI DUP1 PUSH4 0x8FA8B790 EQ PUSH2 0x195 JUMPI JUMPDEST PUSH1 0x0 DUP1 REVERT JUMPDEST CALLVALUE DUP1 ISZERO PUSH2 0xB8 JUMPI PUSH1 0x0 DUP1 REVERT JUMPDEST POP PUSH2 0xC1 PUSH2 0x279 JUMP JUMPDEST PUSH1 0x40 MLOAD PUSH2 0xCE SWAP2 SWAP1 PUSH2 0xE35 JUMP JUMPDEST PUSH1 0x40 MLOAD DUP1 SWAP2 SUB SWAP1 RETURN JUMPDEST CALLVALUE DUP1 ISZERO PUSH2 0xE3 JUMPI PUSH1 0x0 DUP1 REVERT JUMPDEST POP PUSH2 0xEC PUSH2 0x27F JUMP JUMPDEST PUSH1 0x40 MLOAD PUSH2 0xF9 SWAP2 SWAP1 PUSH2 0xE35 JUMP JUMPDEST PUSH1 0x40 MLOAD DUP1 SWAP2 SUB SWAP1 RETURN JUMPDEST CALLVALUE DUP1 ISZERO PUSH2 0x10E JUMPI PUSH1 0x0 DUP1 REVERT JUMPDEST POP PUSH2 0x117 PUSH2 0x285 JUMP JUMPDEST PUSH1 0x40 MLOAD PUSH2 0x124 SWAP2 SWAP1 PUSH2 0xD58 JUMP JUMPDEST PUSH1 0x40 MLOAD DUP1 SWAP2 SUB SWAP1 RETURN JUMPDEST CALLVALUE DUP1 ISZERO PUSH2 0x139 JUMPI PUSH1 0x0 DUP1 REVERT JUMPDEST POP PUSH2 0x142 PUSH2 0x298 JUMP JUMPDEST PUSH1 0x40 MLOAD PUSH2 0x14F SWAP2 SWAP1 PUSH2 0xD3D JUMP JUMPDEST PUSH1 0x40 MLOAD DUP1 SWAP2 SUB SWAP1 RETURN JUMPDEST CALLVALUE DUP1 ISZERO PUSH2 0x164 JUMPI PUSH1 0x0 DUP1 REVERT JUMPDEST POP PUSH2 0x17F PUSH1 0x4 DUP1 CALLDATASIZE SUB DUP2 ADD SWAP1 PUSH2 0x17A SWAP2 SWAP1 PUSH2 0xBFB JUMP JUMPDEST PUSH2 0x2BE JUMP JUMPDEST PUSH1 0x40 MLOAD PUSH2 0x18C SWAP2 SWAP1 PUSH2 0xE35 JUMP JUMPDEST PUSH1 0x40 MLOAD DUP1 SWAP2 SUB SWAP1 RETURN JUMPDEST CALLVALUE DUP1 ISZERO PUSH2 0x1A1 JUMPI PUSH1 0x0 DUP1 REVERT JUMPDEST POP PUSH2 0x1AA PUSH2 0x2D6 JUMP JUMPDEST STOP JUMPDEST CALLVALUE DUP1 ISZERO PUSH2 0x1B8 JUMPI PUSH1 0x0 DUP1 REVERT JUMPDEST POP PUSH2 0x1C1 PUSH2 0x303 JUMP JUMPDEST PUSH1 0x40 MLOAD PUSH2 0x1CE SWAP2 SWAP1 PUSH2 0xE35 JUMP JUMPDEST PUSH1 0x40 MLOAD DUP1 SWAP2 SUB SWAP1 RETURN JUMPDEST CALLVALUE DUP1 ISZERO PUSH2 0x1E3 JUMPI PUSH1 0x0 DUP1 REVERT JUMPDEST POP PUSH2 0x1EC PUSH2 0x309 JUMP JUMPDEST PUSH1 0x40 MLOAD PUSH2 0x1F9 SWAP2 SWAP1 PUSH2 0xD3D JUMP JUMPDEST PUSH1 0x40 MLOAD DUP1 SWAP2 SUB SWAP1 RETURN JUMPDEST CALLVALUE DUP1 ISZERO PUSH2 0x20E JUMPI PUSH1 0x0 DUP1 REVERT JUMPDEST POP PUSH2 0x217 PUSH2 0x32F JUMP JUMPDEST PUSH1 0x40 MLOAD PUSH2 0x224 SWAP2 SWAP1 PUSH2 0xE35 JUMP JUMPDEST PUSH1 0x40 MLOAD DUP1 SWAP2 SUB SWAP1 RETURN JUMPDEST CALLVALUE DUP1 ISZERO PUSH2 0x239 JUMPI PUSH1 0x0 DUP1 REVERT JUMPDEST POP PUSH2 0x242 PUSH2 0x335 JUMP JUMPDEST PUSH1 0x40 MLOAD PUSH2 0x24F SWAP2 SWAP1 PUSH2 0xD73 JUMP JUMPDEST PUSH1 0x40 MLOAD DUP1 SWAP2 SUB SWAP1 RETURN JUMPDEST PUSH2 0x260 PUSH2 0x3C3 JUMP JUMPDEST STOP JUMPDEST CALLVALUE DUP1 ISZERO PUSH2 0x26E JUMPI PUSH1 0x0 DUP1 REVERT JUMPDEST POP PUSH2 0x277 PUSH2 0x7E9 JUMP JUMPDEST STOP JUMPDEST PUSH1 0x6 SLOAD DUP2 JUMP JUMPDEST PUSH1 0x5 SLOAD DUP2 JUMP JUMPDEST PUSH1 0x7 PUSH1 0x0 SWAP1 SLOAD SWAP1 PUSH2 0x100 EXP SWAP1 DIV PUSH1 0xFF AND DUP2 JUMP JUMPDEST PUSH1 0x1 PUSH1 0x0 SWAP1 SLOAD SWAP1 PUSH2 0x100 EXP SWAP1 DIV PUSH20 0xFFFFFFFFFFFFFFFFFFFFFFFFFFFFFFFFFFFFFFFF AND DUP2 JUMP JUMPDEST PUSH1 0x0 PUSH1 0x20 MSTORE DUP1 PUSH1 0x0 MSTORE PUSH1 0x40 PUSH1 0x0 KECCAK256 PUSH1 0x0 SWAP2 POP SWAP1 POP SLOAD DUP2 JUMP JUMPDEST PUSH1 0x3 PUSH1 0x7 PUSH1 0x0 PUSH2 0x100 EXP DUP2 SLOAD DUP2 PUSH1 0xFF MUL NOT AND SWAP1 DUP4 PUSH1 0x3 DUP2 GT ISZERO PUSH2 0x2FC JUMPI PUSH2 0x2FB PUSH2 0xFFD JUMP JUMPDEST JUMPDEST MUL OR SWAP1 SSTORE POP JUMP JUMPDEST PUSH1 0x3 SLOAD DUP2 JUMP JUMPDEST PUSH1 0x2 PUSH1 0x0 SWAP1 SLOAD SWAP1 PUSH2 0x100 EXP SWAP1 DIV PUSH20 0xFFFFFFFFFFFFFFFFFFFFFFFFFFFFFFFFFFFFFFFF AND DUP2 JUMP JUMPDEST PUSH1 0x4 SLOAD DUP2 JUMP JUMPDEST PUSH1 0x8 DUP1 SLOAD PUSH2 0x342 SWAP1 PUSH2 0xF9C JUMP JUMPDEST DUP1 PUSH1 0x1F ADD PUSH1 0x20 DUP1 SWAP2 DIV MUL PUSH1 0x20 ADD PUSH1 0x40 MLOAD SWAP1 DUP2 ADD PUSH1 0x40 MSTORE DUP1 SWAP3 SWAP2 SWAP1 DUP2 DUP2 MSTORE PUSH1 0x20 ADD DUP3 DUP1 SLOAD PUSH2 0x36E SWAP1 PUSH2 0xF9C JUMP JUMPDEST DUP1 ISZERO PUSH2 0x3BB JUMPI DUP1 PUSH1 0x1F LT PUSH2 0x390 JUMPI PUSH2 0x100 DUP1 DUP4 SLOAD DIV MUL DUP4 MSTORE SWAP2 PUSH1 0x20 ADD SWAP2 PUSH2 0x3BB JUMP JUMPDEST DUP3 ADD SWAP2 SWAP1 PUSH1 0x0 MSTORE PUSH1 0x20 PUSH1 0x0 KECCAK256 SWAP1 JUMPDEST DUP2 SLOAD DUP2 MSTORE SWAP1 PUSH1 0x1 ADD SWAP1 PUSH1 0x20 ADD DUP1 DUP4 GT PUSH2 0x39E JUMPI DUP3 SWAP1 SUB PUSH1 0x1F AND DUP3 ADD SWAP2 JUMPDEST POP POP POP POP POP DUP2 JUMP JUMPDEST PUSH1 0x1 PUSH1 0x0 SWAP1 SLOAD SWAP1 PUSH2 0x100 EXP SWAP1 DIV PUSH20 0xFFFFFFFFFFFFFFFFFFFFFFFFFFFFFFFFFFFFFFFF AND PUSH20 0xFFFFFFFFFFFFFFFFFFFFFFFFFFFFFFFFFFFFFFFF AND CALLER PUSH20 0xFFFFFFFFFFFFFFFFFFFFFFFFFFFFFFFFFFFFFFFF AND EQ ISZERO PUSH2 0x454 JUMPI PUSH1 0x40 MLOAD PUSH32 0x8C379A000000000000000000000000000000000000000000000000000000000 DUP2 MSTORE PUSH1 0x4 ADD PUSH2 0x44B SWAP1 PUSH2 0xD95 JUMP JUMPDEST PUSH1 0x40 MLOAD DUP1 SWAP2 SUB SWAP1 REVERT JUMPDEST PUSH1 0x5 SLOAD NUMBER LT ISZERO PUSH2 0x499 JUMPI PUSH1 0x40 MLOAD PUSH32 0x8C379A000000000000000000000000000000000000000000000000000000000 DUP2 MSTORE PUSH1 0x4 ADD PUSH2 0x490 SWAP1 PUSH2 0xDD5 JUMP JUMPDEST PUSH1 0x40 MLOAD DUP1 SWAP2 SUB SWAP1 REVERT JUMPDEST PUSH1 0x6 SLOAD NUMBER GT ISZERO PUSH2 0x4DE JUMPI PUSH1 0x40 MLOAD PUSH32 0x8C379A000000000000000000000000000000000000000000000000000000000 DUP2 MSTORE PUSH1 0x4 ADD PUSH2 0x4D5 SWAP1 PUSH2 0xDB5 JUMP JUMPDEST PUSH1 0x40 MLOAD DUP1 SWAP2 SUB SWAP1 REVERT JUMPDEST PUSH8 0xDE0B6B3A7640000 CALLVALUE GT PUSH2 0x528 JUMPI PUSH1 0x40 MLOAD PUSH32 0x8C379A000000000000000000000000000000000000000000000000000000000 DUP2 MSTORE PUSH1 0x4 ADD PUSH2 0x51F SWAP1 PUSH2 0xDF5 JUMP JUMPDEST PUSH1 0x40 MLOAD DUP1 SWAP2 SUB SWAP1 REVERT JUMPDEST PUSH1 0x1 PUSH1 0x3 DUP2 GT ISZERO PUSH2 0x53C JUMPI PUSH2 0x53B PUSH2 0xFFD JUMP JUMPDEST JUMPDEST PUSH1 0x7 PUSH1 0x0 SWAP1 SLOAD SWAP1 PUSH2 0x100 EXP SWAP1 DIV PUSH1 0xFF AND PUSH1 0x3 DUP2 GT ISZERO PUSH2 0x55E JUMPI PUSH2 0x55D PUSH2 0xFFD JUMP JUMPDEST JUMPDEST EQ PUSH2 0x59E JUMPI PUSH1 0x40 MLOAD PUSH32 0x8C379A000000000000000000000000000000000000000000000000000000000 DUP2 MSTORE PUSH1 0x4 ADD PUSH2 0x595 SWAP1 PUSH2 0xE15 JUMP JUMPDEST PUSH1 0x40 MLOAD DUP1 SWAP2 SUB SWAP1 REVERT JUMPDEST PUSH1 0x0 DUP1 PUSH1 0x0 CALLER PUSH20 0xFFFFFFFFFFFFFFFFFFFFFFFFFFFFFFFFFFFFFFFF AND PUSH20 0xFFFFFFFFFFFFFFFFFFFFFFFFFFFFFFFFFFFFFFFF AND DUP2 MSTORE PUSH1 0x20 ADD SWAP1 DUP2 MSTORE PUSH1 0x20 ADD PUSH1 0x0 KECCAK256 SLOAD CALLVALUE PUSH2 0x5EA SWAP2 SWAP1 PUSH2 0xE6C JUMP JUMPDEST SWAP1 POP PUSH1 0x3 SLOAD DUP2 GT PUSH2 0x5FA JUMPI PUSH1 0x0 DUP1 REVERT JUMPDEST DUP1 PUSH1 0x0 DUP1 CALLER PUSH20 0xFFFFFFFFFFFFFFFFFFFFFFFFFFFFFFFFFFFFFFFF AND PUSH20 0xFFFFFFFFFFFFFFFFFFFFFFFFFFFFFFFFFFFFFFFF AND DUP2 MSTORE PUSH1 0x20 ADD SWAP1 DUP2 MSTORE PUSH1 0x20 ADD PUSH1 0x0 KECCAK256 DUP2 SWAP1 SSTORE POP PUSH1 0x0 DUP1 PUSH1 0x2 PUSH1 0x0 SWAP1 SLOAD SWAP1 PUSH2 0x100 EXP SWAP1 DIV PUSH20 0xFFFFFFFFFFFFFFFFFFFFFFFFFFFFFFFFFFFFFFFF AND PUSH20 0xFFFFFFFFFFFFFFFFFFFFFFFFFFFFFFFFFFFFFFFF AND PUSH20 0xFFFFFFFFFFFFFFFFFFFFFFFFFFFFFFFFFFFFFFFF AND DUP2 MSTORE PUSH1 0x20 ADD SWAP1 DUP2 MSTORE PUSH1 0x20 ADD PUSH1 0x0 KECCAK256 SLOAD DUP2 LT ISZERO PUSH2 0x727 JUMPI PUSH2 0x71C PUSH1 0x4 SLOAD DUP3 PUSH2 0x6B6 SWAP2 SWAP1 PUSH2 0xE6C JUMP JUMPDEST PUSH1 0x0 DUP1 PUSH1 0x2 PUSH1 0x0 SWAP1 SLOAD SWAP1 PUSH2 0x100 EXP SWAP1 DIV PUSH20 0xFFFFFFFFFFFFFFFFFFFFFFFFFFFFFFFFFFFFFFFF AND PUSH20 0xFFFFFFFFFFFFFFFFFFFFFFFFFFFFFFFFFFFFFFFF AND PUSH20 0xFFFFFFFFFFFFFFFFFFFFFFFFFFFFFFFFFFFFFFFF AND DUP2 MSTORE PUSH1 0x20 ADD SWAP1 DUP2 MSTORE PUSH1 0x20 ADD PUSH1 0x0 KECCAK256 SLOAD PUSH2 0xBCB JUMP JUMPDEST PUSH1 0x3 DUP2 SWAP1 SSTORE POP PUSH2 0x7E6 JUMP JUMPDEST PUSH2 0x79E DUP2 PUSH1 0x4 SLOAD PUSH1 0x0 DUP1 PUSH1 0x2 PUSH1 0x0 SWAP1 SLOAD SWAP1 PUSH2 0x100 EXP SWAP1 DIV PUSH20 0xFFFFFFFFFFFFFFFFFFFFFFFFFFFFFFFFFFFFFFFF AND PUSH20 0xFFFFFFFFFFFFFFFFFFFFFFFFFFFFFFFFFFFFFFFF AND PUSH20 0xFFFFFFFFFFFFFFFFFFFFFFFFFFFFFFFFFFFFFFFF AND DUP2 MSTORE PUSH1 0x20 ADD SWAP1 DUP2 MSTORE PUSH1 0x20 ADD PUSH1 0x0 KECCAK256 SLOAD PUSH2 0x799 SWAP2 SWAP1 PUSH2 0xE6C JUMP JUMPDEST PUSH2 0xBCB JUMP JUMPDEST PUSH1 0x3 DUP2 SWAP1 SSTORE POP CALLER PUSH1 0x2 PUSH1 0x0 PUSH2 0x100 EXP DUP2 SLOAD DUP2 PUSH20 0xFFFFFFFFFFFFFFFFFFFFFFFFFFFFFFFFFFFFFFFF MUL NOT AND SWAP1 DUP4 PUSH20 0xFFFFFFFFFFFFFFFFFFFFFFFFFFFFFFFFFFFFFFFF AND MUL OR SWAP1 SSTORE POP JUMPDEST POP JUMP JUMPDEST PUSH1 0x7 PUSH1 0x0 SWAP1 SLOAD SWAP1 PUSH2 0x100 EXP SWAP1 DIV PUSH1 0xFF AND PUSH1 0x3 DUP2 GT ISZERO PUSH2 0x80B JUMPI PUSH2 0x80A PUSH2 0xFFD JUMP JUMPDEST JUMPDEST PUSH1 0x3 DUP1 DUP2 GT ISZERO PUSH2 0x81E JUMPI PUSH2 0x81D PUSH2 0xFFD JUMP JUMPDEST JUMPDEST EQ DUP1 PUSH2 0x82B JUMPI POP PUSH1 0x6 SLOAD NUMBER GT JUMPDEST PUSH2 0x834 JUMPI PUSH1 0x0 DUP1 REVERT JUMPDEST PUSH1 0x0 DUP1 PUSH1 0x0 CALLER PUSH20 0xFFFFFFFFFFFFFFFFFFFFFFFFFFFFFFFFFFFFFFFF AND PUSH20 0xFFFFFFFFFFFFFFFFFFFFFFFFFFFFFFFFFFFFFFFF AND DUP2 MSTORE PUSH1 0x20 ADD SWAP1 DUP2 MSTORE PUSH1 0x20 ADD PUSH1 0x0 KECCAK256 SLOAD GT DUP1 PUSH2 0x8CE JUMPI POP PUSH1 0x1 PUSH1 0x0 SWAP1 SLOAD SWAP1 PUSH2 0x100 EXP SWAP1 DIV PUSH20 0xFFFFFFFFFFFFFFFFFFFFFFFFFFFFFFFFFFFFFFFF AND PUSH20 0xFFFFFFFFFFFFFFFFFFFFFFFFFFFFFFFFFFFFFFFF AND CALLER PUSH20 0xFFFFFFFFFFFFFFFFFFFFFFFFFFFFFFFFFFFFFFFF AND EQ JUMPDEST PUSH2 0x8D7 JUMPI PUSH1 0x0 DUP1 REVERT JUMPDEST PUSH1 0x0 DUP1 PUSH1 0x3 DUP1 DUP2 GT ISZERO PUSH2 0x8ED JUMPI PUSH2 0x8EC PUSH2 0xFFD JUMP JUMPDEST JUMPDEST PUSH1 0x7 PUSH1 0x0 SWAP1 SLOAD SWAP1 PUSH2 0x100 EXP SWAP1 DIV PUSH1 0xFF AND PUSH1 0x3 DUP2 GT ISZERO PUSH2 0x90F JUMPI PUSH2 0x90E PUSH2 0xFFD JUMP JUMPDEST JUMPDEST EQ ISZERO PUSH2 0x980 JUMPI CALLER SWAP1 POP PUSH1 0x0 DUP1 PUSH1 0x2 PUSH1 0x0 SWAP1 SLOAD SWAP1 PUSH2 0x100 EXP SWAP1 DIV PUSH20 0xFFFFFFFFFFFFFFFFFFFFFFFFFFFFFFFFFFFFFFFF AND PUSH20 0xFFFFFFFFFFFFFFFFFFFFFFFFFFFFFFFFFFFFFFFF AND PUSH20 0xFFFFFFFFFFFFFFFFFFFFFFFFFFFFFFFFFFFFFFFF AND DUP2 MSTORE PUSH1 0x20 ADD SWAP1 DUP2 MSTORE PUSH1 0x20 ADD PUSH1 0x0 KECCAK256 SLOAD SWAP2 POP PUSH2 0xB3C JUMP JUMPDEST PUSH1 0x1 PUSH1 0x0 SWAP1 SLOAD SWAP1 PUSH2 0x100 EXP SWAP1 DIV PUSH20 0xFFFFFFFFFFFFFFFFFFFFFFFFFFFFFFFFFFFFFFFF AND PUSH20 0xFFFFFFFFFFFFFFFFFFFFFFFFFFFFFFFFFFFFFFFF AND CALLER PUSH20 0xFFFFFFFFFFFFFFFFFFFFFFFFFFFFFFFFFFFFFFFF AND EQ ISZERO PUSH2 0xA05 JUMPI PUSH1 0x1 PUSH1 0x0 SWAP1 SLOAD SWAP1 PUSH2 0x100 EXP SWAP1 DIV PUSH20 0xFFFFFFFFFFFFFFFFFFFFFFFFFFFFFFFFFFFFFFFF AND SWAP1 POP PUSH1 0x3 SLOAD SWAP2 POP PUSH2 0xB3B JUMP JUMPDEST PUSH1 0x2 PUSH1 0x0 SWAP1 SLOAD SWAP1 PUSH2 0x100 EXP SWAP1 DIV PUSH20 0xFFFFFFFFFFFFFFFFFFFFFFFFFFFFFFFFFFFFFFFF AND PUSH20 0xFFFFFFFFFFFFFFFFFFFFFFFFFFFFFFFFFFFFFFFF AND CALLER PUSH20 0xFFFFFFFFFFFFFFFFFFFFFFFFFFFFFFFFFFFFFFFF AND EQ ISZERO PUSH2 0xAF5 JUMPI PUSH1 0x2 PUSH1 0x0 SWAP1 SLOAD SWAP1 PUSH2 0x100 EXP SWAP1 DIV PUSH20 0xFFFFFFFFFFFFFFFFFFFFFFFFFFFFFFFFFFFFFFFF AND SWAP1 POP PUSH1 0x3 SLOAD PUSH1 0x0 DUP1 PUSH1 0x2 PUSH1 0x0 SWAP1 SLOAD SWAP1 PUSH2 0x100 EXP SWAP1 DIV PUSH20 0xFFFFFFFFFFFFFFFFFFFFFFFFFFFFFFFFFFFFFFFF AND PUSH20 0xFFFFFFFFFFFFFFFFFFFFFFFFFFFFFFFFFFFFFFFF AND PUSH20 0xFFFFFFFFFFFFFFFFFFFFFFFFFFFFFFFFFFFFFFFF AND DUP2 MSTORE PUSH1 0x20 ADD SWAP1 DUP2 MSTORE PUSH1 0x20 ADD PUSH1 0x0 KECCAK256 SLOAD PUSH2 0xAEE SWAP2 SWAP1 PUSH2 0xEC2 JUMP JUMPDEST SWAP2 POP PUSH2 0xB3A JUMP JUMPDEST CALLER SWAP1 POP PUSH1 0x0 DUP1 CALLER PUSH20 0xFFFFFFFFFFFFFFFFFFFFFFFFFFFFFFFFFFFFFFFF AND PUSH20 0xFFFFFFFFFFFFFFFFFFFFFFFFFFFFFFFFFFFFFFFF AND DUP2 MSTORE PUSH1 0x20 ADD SWAP1 DUP2 MSTORE PUSH1 0x20 ADD PUSH1 0x0 KECCAK256 SLOAD SWAP2 POP JUMPDEST JUMPDEST JUMPDEST PUSH1 0x0 DUP1 PUSH1 0x0 DUP4 PUSH20 0xFFFFFFFFFFFFFFFFFFFFFFFFFFFFFFFFFFFFFFFF AND PUSH20 0xFFFFFFFFFFFFFFFFFFFFFFFFFFFFFFFFFFFFFFFF AND DUP2 MSTORE PUSH1 0x20 ADD SWAP1 DUP2 MSTORE PUSH1 0x20 ADD PUSH1 0x0 KECCAK256 DUP2 SWAP1 SSTORE POP DUP1 PUSH20 0xFFFFFFFFFFFFFFFFFFFFFFFFFFFFFFFFFFFFFFFF AND PUSH2 0x8FC DUP4 SWAP1 DUP2 ISZERO MUL SWAP1 PUSH1 0x40 MLOAD PUSH1 0x0 PUSH1 0x40 MLOAD DUP1 DUP4 SUB DUP2 DUP6 DUP9 DUP9 CALL SWAP4 POP POP POP POP ISZERO DUP1 ISZERO PUSH2 0xBC6 JUMPI RETURNDATASIZE PUSH1 0x0 DUP1 RETURNDATACOPY RETURNDATASIZE PUSH1 0x0 REVERT JUMPDEST POP POP POP JUMP JUMPDEST PUSH1 0x0 DUP2 DUP4 GT PUSH2 0xBDC JUMPI DUP3 SWAP1 POP PUSH2 0xBE0 JUMP JUMPDEST DUP2 SWAP1 POP JUMPDEST SWAP3 SWAP2 POP POP JUMP JUMPDEST PUSH1 0x0 DUP2 CALLDATALOAD SWAP1 POP PUSH2 0xBF5 DUP2 PUSH2 0x11EA JUMP JUMPDEST SWAP3 SWAP2 POP POP JUMP JUMPDEST PUSH1 0x0 PUSH1 0x20 DUP3 DUP5 SUB SLT ISZERO PUSH2 0xC11 JUMPI PUSH2 0xC10 PUSH2 0x105B JUMP JUMPDEST JUMPDEST PUSH1 0x0 PUSH2 0xC1F DUP5 DUP3 DUP6 ADD PUSH2 0xBE6 JUMP JUMPDEST SWAP2 POP POP SWAP3 SWAP2 POP POP JUMP JUMPDEST PUSH2 0xC31 DUP2 PUSH2 0xF08 JUMP JUMPDEST DUP3 MSTORE POP POP JUMP JUMPDEST PUSH2 0xC40 DUP2 PUSH2 0xF57 JUMP JUMPDEST DUP3 MSTORE POP POP JUMP JUMPDEST PUSH1 0x0 PUSH2 0xC51 DUP3 PUSH2 0xE50 JUMP JUMPDEST PUSH2 0xC5B DUP2 DUP6 PUSH2 0xE5B JUMP JUMPDEST SWAP4 POP PUSH2 0xC6B DUP2 DUP6 PUSH1 0x20 DUP7 ADD PUSH2 0xF69 JUMP JUMPDEST PUSH2 0xC74 DUP2 PUSH2 0x1060 JUMP JUMPDEST DUP5 ADD SWAP2 POP POP SWAP3 SWAP2 POP POP JUMP JUMPDEST PUSH1 0x0 PUSH2 0xC8C PUSH1 0x26 DUP4 PUSH2 0xE5B JUMP JUMPDEST SWAP2 POP PUSH2 0xC97 DUP3 PUSH2 0x1071 JUMP JUMPDEST PUSH1 0x40 DUP3 ADD SWAP1 POP SWAP2 SWAP1 POP JUMP JUMPDEST PUSH1 0x0 PUSH2 0xCAF PUSH1 0x18 DUP4 PUSH2 0xE5B JUMP JUMPDEST SWAP2 POP PUSH2 0xCBA DUP3 PUSH2 0x10C0 JUMP JUMPDEST PUSH1 0x20 DUP3 ADD SWAP1 POP SWAP2 SWAP1 POP JUMP JUMPDEST PUSH1 0x0 PUSH2 0xCD2 PUSH1 0x25 DUP4 PUSH2 0xE5B JUMP JUMPDEST SWAP2 POP PUSH2 0xCDD DUP3 PUSH2 0x10E9 JUMP JUMPDEST PUSH1 0x40 DUP3 ADD SWAP1 POP SWAP2 SWAP1 POP JUMP JUMPDEST PUSH1 0x0 PUSH2 0xCF5 PUSH1 0x27 DUP4 PUSH2 0xE5B JUMP JUMPDEST SWAP2 POP PUSH2 0xD00 DUP3 PUSH2 0x1138 JUMP JUMPDEST PUSH1 0x40 DUP3 ADD SWAP1 POP SWAP2 SWAP1 POP JUMP JUMPDEST PUSH1 0x0 PUSH2 0xD18 PUSH1 0x2C DUP4 PUSH2 0xE5B JUMP JUMPDEST SWAP2 POP PUSH2 0xD23 DUP3 PUSH2 0x1187 JUMP JUMPDEST PUSH1 0x40 DUP3 ADD SWAP1 POP SWAP2 SWAP1 POP JUMP JUMPDEST PUSH2 0xD37 DUP2 PUSH2 0xF4D JUMP JUMPDEST DUP3 MSTORE POP POP JUMP JUMPDEST PUSH1 0x0 PUSH1 0x20 DUP3 ADD SWAP1 POP PUSH2 0xD52 PUSH1 0x0 DUP4 ADD DUP5 PUSH2 0xC28 JUMP JUMPDEST SWAP3 SWAP2 POP POP JUMP JUMPDEST PUSH1 0x0 PUSH1 0x20 DUP3 ADD SWAP1 POP PUSH2 0xD6D PUSH1 0x0 DUP4 ADD DUP5 PUSH2 0xC37 JUMP JUMPDEST SWAP3 SWAP2 POP POP JUMP JUMPDEST PUSH1 0x0 PUSH1 0x20 DUP3 ADD SWAP1 POP DUP2 DUP2 SUB PUSH1 0x0 DUP4 ADD MSTORE PUSH2 0xD8D DUP2 DUP5 PUSH2 0xC46 JUMP JUMPDEST SWAP1 POP SWAP3 SWAP2 POP POP JUMP JUMPDEST PUSH1 0x0 PUSH1 0x20 DUP3 ADD SWAP1 POP DUP2 DUP2 SUB PUSH1 0x0 DUP4 ADD MSTORE PUSH2 0xDAE DUP2 PUSH2 0xC7F JUMP JUMPDEST SWAP1 POP SWAP2 SWAP1 POP JUMP JUMPDEST PUSH1 0x0 PUSH1 0x20 DUP3 ADD SWAP1 POP DUP2 DUP2 SUB PUSH1 0x0 DUP4 ADD MSTORE PUSH2 0xDCE DUP2 PUSH2 0xCA2 JUMP JUMPDEST SWAP1 POP SWAP2 SWAP1 POP JUMP JUMPDEST PUSH1 0x0 PUSH1 0x20 DUP3 ADD SWAP1 POP DUP2 DUP2 SUB PUSH1 0x0 DUP4 ADD MSTORE PUSH2 0xDEE DUP2 PUSH2 0xCC5 JUMP JUMPDEST SWAP1 POP SWAP2 SWAP1 POP JUMP JUMPDEST PUSH1 0x0 PUSH1 0x20 DUP3 ADD SWAP1 POP DUP2 DUP2 SUB PUSH1 0x0 DUP4 ADD MSTORE PUSH2 0xE0E DUP2 PUSH2 0xCE8 JUMP JUMPDEST SWAP1 POP SWAP2 SWAP1 POP JUMP JUMPDEST PUSH1 0x0 PUSH1 0x20 DUP3 ADD SWAP1 POP DUP2 DUP2 SUB PUSH1 0x0 DUP4 ADD MSTORE PUSH2 0xE2E DUP2 PUSH2 0xD0B JUMP JUMPDEST SWAP1 POP SWAP2 SWAP1 POP JUMP JUMPDEST PUSH1 0x0 PUSH1 0x20 DUP3 ADD SWAP1 POP PUSH2 0xE4A PUSH1 0x0 DUP4 ADD DUP5 PUSH2 0xD2E JUMP JUMPDEST SWAP3 SWAP2 POP POP JUMP JUMPDEST PUSH1 0x0 DUP2 MLOAD SWAP1 POP SWAP2 SWAP1 POP JUMP JUMPDEST PUSH1 0x0 DUP3 DUP3 MSTORE PUSH1 0x20 DUP3 ADD SWAP1 POP SWAP3 SWAP2 POP POP JUMP JUMPDEST PUSH1 0x0 PUSH2 0xE77 DUP3 PUSH2 0xF4D JUMP JUMPDEST SWAP2 POP PUSH2 0xE82 DUP4 PUSH2 0xF4D JUMP JUMPDEST SWAP3 POP DUP3 PUSH32 0xFFFFFFFFFFFFFFFFFFFFFFFFFFFFFFFFFFFFFFFFFFFFFFFFFFFFFFFFFFFFFFFF SUB DUP3 GT ISZERO PUSH2 0xEB7 JUMPI PUSH2 0xEB6 PUSH2 0xFCE JUMP JUMPDEST JUMPDEST DUP3 DUP3 ADD SWAP1 POP SWAP3 SWAP2 POP POP JUMP JUMPDEST PUSH1 0x0 PUSH2 0xECD DUP3 PUSH2 0xF4D JUMP JUMPDEST SWAP2 POP PUSH2 0xED8 DUP4 PUSH2 0xF4D JUMP JUMPDEST SWAP3 POP DUP3 DUP3 LT ISZERO PUSH2 0xEEB JUMPI PUSH2 0xEEA PUSH2 0xFCE JUMP JUMPDEST JUMPDEST DUP3 DUP3 SUB SWAP1 POP SWAP3 SWAP2 POP POP JUMP JUMPDEST PUSH1 0x0 PUSH2 0xF01 DUP3 PUSH2 0xF2D JUMP JUMPDEST SWAP1 POP SWAP2 SWAP1 POP JUMP JUMPDEST PUSH1 0x0 PUSH2 0xF13 DUP3 PUSH2 0xF2D JUMP JUMPDEST SWAP1 POP SWAP2 SWAP1 POP JUMP JUMPDEST PUSH1 0x0 DUP2 SWAP1 POP PUSH2 0xF28 DUP3 PUSH2 0x11D6 JUMP JUMPDEST SWAP2 SWAP1 POP JUMP JUMPDEST PUSH1 0x0 PUSH20 0xFFFFFFFFFFFFFFFFFFFFFFFFFFFFFFFFFFFFFFFF DUP3 AND SWAP1 POP SWAP2 SWAP1 POP JUMP JUMPDEST PUSH1 0x0 DUP2 SWAP1 POP SWAP2 SWAP1 POP JUMP JUMPDEST PUSH1 0x0 PUSH2 0xF62 DUP3 PUSH2 0xF1A JUMP JUMPDEST SWAP1 POP SWAP2 SWAP1 POP JUMP JUMPDEST PUSH1 0x0 JUMPDEST DUP4 DUP2 LT ISZERO PUSH2 0xF87 JUMPI DUP1 DUP3 ADD MLOAD DUP2 DUP5 ADD MSTORE PUSH1 0x20 DUP2 ADD SWAP1 POP PUSH2 0xF6C JUMP JUMPDEST DUP4 DUP2 GT ISZERO PUSH2 0xF96 JUMPI PUSH1 0x0 DUP5 DUP5 ADD MSTORE JUMPDEST POP POP POP POP JUMP JUMPDEST PUSH1 0x0 PUSH1 0x2 DUP3 DIV SWAP1 POP PUSH1 0x1 DUP3 AND DUP1 PUSH2 0xFB4 JUMPI PUSH1 0x7F DUP3 AND SWAP2 POP JUMPDEST PUSH1 0x20 DUP3 LT DUP2 EQ ISZERO PUSH2 0xFC8 JUMPI PUSH2 0xFC7 PUSH2 0x102C JUMP JUMPDEST JUMPDEST POP SWAP2 SWAP1 POP JUMP JUMPDEST PUSH32 0x4E487B7100000000000000000000000000000000000000000000000000000000 PUSH1 0x0 MSTORE PUSH1 0x11 PUSH1 0x4 MSTORE PUSH1 0x24 PUSH1 0x0 REVERT JUMPDEST PUSH32 0x4E487B7100000000000000000000000000000000000000000000000000000000 PUSH1 0x0 MSTORE PUSH1 0x21 PUSH1 0x4 MSTORE PUSH1 0x24 PUSH1 0x0 REVERT JUMPDEST PUSH32 0x4E487B7100000000000000000000000000000000000000000000000000000000 PUSH1 0x0 MSTORE PUSH1 0x22 PUSH1 0x4 MSTORE PUSH1 0x24 PUSH1 0x0 REVERT JUMPDEST PUSH1 0x0 DUP1 REVERT JUMPDEST PUSH1 0x0 PUSH1 0x1F NOT PUSH1 0x1F DUP4 ADD AND SWAP1 POP SWAP2 SWAP1 POP JUMP JUMPDEST PUSH32 0x426964732063616E206F6E6C7920626520706C61636564206279206E6F6E6520 PUSH1 0x0 DUP3 ADD MSTORE PUSH32 0x6F776E6572730000000000000000000000000000000000000000000000000000 PUSH1 0x20 DUP3 ADD MSTORE POP JUMP JUMPDEST PUSH32 0x41756374696F6E2074696D652068617320656C61737065640000000000000000 PUSH1 0x0 DUP3 ADD MSTORE POP JUMP JUMPDEST PUSH32 0x41756374696F6E2063616E6E6F7420626520706C617965642061742074686973 PUSH1 0x0 DUP3 ADD MSTORE PUSH32 0x2074696D65000000000000000000000000000000000000000000000000000000 PUSH1 0x20 DUP3 ADD MSTORE POP JUMP JUMPDEST PUSH32 0x56616C75652073656E74206D7573742062652067726561746572207468616E20 PUSH1 0x0 DUP3 ADD MSTORE PUSH32 0x3120657468657200000000000000000000000000000000000000000000000000 PUSH1 0x20 DUP3 ADD MSTORE POP JUMP JUMPDEST PUSH32 0x41756374696F6E207374617465206D7573742062652072756E6E696E6720746F PUSH1 0x0 DUP3 ADD MSTORE PUSH32 0x2061636365707420626964730000000000000000000000000000000000000000 PUSH1 0x20 DUP3 ADD MSTORE POP JUMP JUMPDEST PUSH1 0x4 DUP2 LT PUSH2 0x11E7 JUMPI PUSH2 0x11E6 PUSH2 0xFFD JUMP JUMPDEST JUMPDEST POP JUMP JUMPDEST PUSH2 0x11F3 DUP2 PUSH2 0xEF6 JUMP JUMPDEST DUP2 EQ PUSH2 0x11FE JUMPI PUSH1 0x0 DUP1 REVERT JUMPDEST POP JUMP INVALID LOG2 PUSH5 0x6970667358 0x22 SLT KECCAK256 SUB 0xA5 0xBB 0xD0 SWAP7 0x5C SWAP7 STOP SWAP13 PUSH22 0x5B4E892F03132C0D89686F7C2A443E9D4D4F8C78DCDB PUSH5 0x736F6C6343 STOP ADDMOD SMOD STOP CALLER "
				},
				"gasEstimates": {
					"creation": {
						"codeDepositCost": "932600",
						"executionCost": "infinite",
						"totalCost": "infinite"
					},
					"external": {
						"auctionState()": "2605",
						"bidIncrement()": "2473",
						"bidsMap(address)": "2903",
						"cancelAuction()": "24542",
						"endBlock()": "2430",
						"finalizeAuction()": "infinite",
						"higestBindingBid()": "2429",
						"highestBidder()": "2536",
						"ipfsHash()": "infinite",
						"makeABid()": "infinite",
						"owner()": "2581",
						"startBlock()": "2452"
					},
					"internal": {
						"min(uint256,uint256)": "64"
					}
				},
				"methodIdentifiers": {
					"auctionState()": "7fb45099",
					"bidIncrement()": "b3cc167a",
					"bidsMap(address)": "8ee77512",
					"cancelAuction()": "8fa8b790",
					"endBlock()": "083c6323",
					"finalizeAuction()": "f77282ab",
					"higestBindingBid()": "91c11f7d",
					"highestBidder()": "91f90157",
					"ipfsHash()": "c623674f",
					"makeABid()": "eb36a479",
					"owner()": "8da5cb5b",
					"startBlock()": "48cd4cb1"
				}
			},
			"storageLayout": {
				"storage": [
					{
						"astId": 5,
						"contract": "contracts/Auctions.sol:Auction",
						"label": "bidsMap",
						"offset": 0,
						"slot": "0",
						"type": "t_mapping(t_address,t_uint256)"
					},
					{
						"astId": 7,
						"contract": "contracts/Auctions.sol:Auction",
						"label": "owner",
						"offset": 0,
						"slot": "1",
						"type": "t_address_payable"
					},
					{
						"astId": 9,
						"contract": "contracts/Auctions.sol:Auction",
						"label": "highestBidder",
						"offset": 0,
						"slot": "2",
						"type": "t_address_payable"
					},
					{
						"astId": 11,
						"contract": "contracts/Auctions.sol:Auction",
						"label": "higestBindingBid",
						"offset": 0,
						"slot": "3",
						"type": "t_uint256"
					},
					{
						"astId": 13,
						"contract": "contracts/Auctions.sol:Auction",
						"label": "bidIncrement",
						"offset": 0,
						"slot": "4",
						"type": "t_uint256"
					},
					{
						"astId": 15,
						"contract": "contracts/Auctions.sol:Auction",
						"label": "startBlock",
						"offset": 0,
						"slot": "5",
						"type": "t_uint256"
					},
					{
						"astId": 17,
						"contract": "contracts/Auctions.sol:Auction",
						"label": "endBlock",
						"offset": 0,
						"slot": "6",
						"type": "t_uint256"
					},
					{
						"astId": 25,
						"contract": "contracts/Auctions.sol:Auction",
						"label": "auctionState",
						"offset": 0,
						"slot": "7",
						"type": "t_enum(State)22"
					},
					{
						"astId": 27,
						"contract": "contracts/Auctions.sol:Auction",
						"label": "ipfsHash",
						"offset": 0,
						"slot": "8",
						"type": "t_string_storage"
					},
					{
						"astId": 30,
						"contract": "contracts/Auctions.sol:Auction",
						"label": "ownerRewardChance",
						"offset": 0,
						"slot": "9",
						"type": "t_bool"
					}
				],
				"types": {
					"t_address": {
						"encoding": "inplace",
						"label": "address",
						"numberOfBytes": "20"
					},
					"t_address_payable": {
						"encoding": "inplace",
						"label": "address payable",
						"numberOfBytes": "20"
					},
					"t_bool": {
						"encoding": "inplace",
						"label": "bool",
						"numberOfBytes": "1"
					},
					"t_enum(State)22": {
						"encoding": "inplace",
						"label": "enum Auction.State",
						"numberOfBytes": "1"
					},
					"t_mapping(t_address,t_uint256)": {
						"encoding": "mapping",
						"key": "t_address",
						"label": "mapping(address => uint256)",
						"numberOfBytes": "32",
						"value": "t_uint256"
					},
					"t_string_storage": {
						"encoding": "bytes",
						"label": "string",
						"numberOfBytes": "32"
					},
					"t_uint256": {
						"encoding": "inplace",
						"label": "uint256",
						"numberOfBytes": "32"
					}
				}
			},
			"userdoc": {
				"kind": "user",
				"methods": {},
				"version": 1
			}
		}
	}
}