{
	"contracts/DynamicArrays.sol": {
		"DynamicArrays": {
			"abi": [
				{
					"inputs": [
						{
							"internalType": "uint256",
							"name": "number",
							"type": "uint256"
						}
					],
					"name": "addNumbers",
					"outputs": [],
					"stateMutability": "nonpayable",
					"type": "function"
				},
				{
					"inputs": [],
					"name": "createMemArray",
					"outputs": [],
					"stateMutability": "nonpayable",
					"type": "function"
				},
				{
					"inputs": [],
					"name": "getArrayLength",
					"outputs": [
						{
							"internalType": "uint256",
							"name": "",
							"type": "uint256"
						}
					],
					"stateMutability": "view",
					"type": "function"
				},
				{
					"inputs": [
						{
							"internalType": "uint256",
							"name": "",
							"type": "uint256"
						}
					],
					"name": "numbers",
					"outputs": [
						{
							"internalType": "uint256",
							"name": "",
							"type": "uint256"
						}
					],
					"stateMutability": "view",
					"type": "function"
				},
				{
					"inputs": [],
					"name": "popNumber",
					"outputs": [],
					"stateMutability": "nonpayable",
					"type": "function"
				}
			],
			"devdoc": {
				"kind": "dev",
				"methods": {},
				"version": 1
			},
			"evm": {
				"assembly": "    /* \"contracts/DynamicArrays.sol\":75:658  contract DynamicArrays{\r... */\n  mstore(0x40, 0x80)\n  callvalue\n  dup1\n  iszero\n  tag_1\n  jumpi\n  0x00\n  dup1\n  revert\ntag_1:\n  pop\n  dataSize(sub_0)\n  dup1\n  dataOffset(sub_0)\n  0x00\n  codecopy\n  0x00\n  return\nstop\n\nsub_0: assembly {\n        /* \"contracts/DynamicArrays.sol\":75:658  contract DynamicArrays{\r... */\n      mstore(0x40, 0x80)\n      callvalue\n      dup1\n      iszero\n      tag_1\n      jumpi\n      0x00\n      dup1\n      revert\n    tag_1:\n      pop\n      jumpi(tag_2, lt(calldatasize, 0x04))\n      shr(0xe0, calldataload(0x00))\n      dup1\n      0x0849cc99\n      eq\n      tag_3\n      jumpi\n      dup1\n      0x2705f37f\n      eq\n      tag_4\n      jumpi\n      dup1\n      0x2be55998\n      eq\n      tag_5\n      jumpi\n      dup1\n      0x6fdabcb1\n      eq\n      tag_6\n      jumpi\n      dup1\n      0xd39fa233\n      eq\n      tag_7\n      jumpi\n    tag_2:\n      0x00\n      dup1\n      revert\n        /* \"contracts/DynamicArrays.sol\":291:382  function getArrayLength() public view returns(uint){\r... */\n    tag_3:\n      tag_8\n      tag_9\n      jump\t// in\n    tag_8:\n      mload(0x40)\n      tag_10\n      swap2\n      swap1\n      tag_11\n      jump\t// in\n    tag_10:\n      mload(0x40)\n      dup1\n      swap2\n      sub\n      swap1\n      return\n        /* \"contracts/DynamicArrays.sol\":223:283  function popNumber() public {\r... */\n    tag_4:\n      tag_12\n      tag_13\n      jump\t// in\n    tag_12:\n      stop\n        /* \"contracts/DynamicArrays.sol\":136:215  function addNumbers(uint number) public {\r... */\n    tag_5:\n      tag_14\n      0x04\n      dup1\n      calldatasize\n      sub\n      dup2\n      add\n      swap1\n      tag_15\n      swap2\n      swap1\n      tag_16\n      jump\t// in\n    tag_15:\n      tag_17\n      jump\t// in\n    tag_14:\n      stop\n        /* \"contracts/DynamicArrays.sol\":423:653  function createMemArray() public {\r... */\n    tag_6:\n      tag_18\n      tag_19\n      jump\t// in\n    tag_18:\n      stop\n        /* \"contracts/DynamicArrays.sol\":106:127  uint[] public numbers */\n    tag_7:\n      tag_20\n      0x04\n      dup1\n      calldatasize\n      sub\n      dup2\n      add\n      swap1\n      tag_21\n      swap2\n      swap1\n      tag_16\n      jump\t// in\n    tag_21:\n      tag_22\n      jump\t// in\n    tag_20:\n      mload(0x40)\n      tag_23\n      swap2\n      swap1\n      tag_11\n      jump\t// in\n    tag_23:\n      mload(0x40)\n      dup1\n      swap2\n      sub\n      swap1\n      return\n        /* \"contracts/DynamicArrays.sol\":291:382  function getArrayLength() public view returns(uint){\r... */\n    tag_9:\n        /* \"contracts/DynamicArrays.sol\":337:341  uint */\n      0x00\n        /* \"contracts/DynamicArrays.sol\":360:367  numbers */\n      dup1\n        /* \"contracts/DynamicArrays.sol\":360:374  numbers.length */\n      dup1\n      sload\n      swap1\n      pop\n        /* \"contracts/DynamicArrays.sol\":353:374  return numbers.length */\n      swap1\n      pop\n        /* \"contracts/DynamicArrays.sol\":291:382  function getArrayLength() public view returns(uint){\r... */\n      swap1\n      jump\t// out\n        /* \"contracts/DynamicArrays.sol\":223:283  function popNumber() public {\r... */\n    tag_13:\n        /* \"contracts/DynamicArrays.sol\":262:269  numbers */\n      0x00\n        /* \"contracts/DynamicArrays.sol\":262:275  numbers.pop() */\n      dup1\n      sload\n      dup1\n      tag_26\n      jumpi\n      tag_27\n      tag_28\n      jump\t// in\n    tag_27:\n    tag_26:\n      0x01\n      swap1\n      sub\n      dup2\n      dup2\n      swap1\n      0x00\n      mstore\n      keccak256(0x00, 0x20)\n      add\n      0x00\n      swap1\n      sstore\n      swap1\n      sstore\n        /* \"contracts/DynamicArrays.sol\":223:283  function popNumber() public {\r... */\n      jump\t// out\n        /* \"contracts/DynamicArrays.sol\":136:215  function addNumbers(uint number) public {\r... */\n    tag_17:\n        /* \"contracts/DynamicArrays.sol\":187:194  numbers */\n      0x00\n        /* \"contracts/DynamicArrays.sol\":200:206  number */\n      dup2\n        /* \"contracts/DynamicArrays.sol\":187:207  numbers.push(number) */\n      swap1\n      dup1\n      0x01\n      dup2\n      sload\n      add\n      dup1\n      dup3\n      sstore\n      dup1\n      swap2\n      pop\n      pop\n      0x01\n      swap1\n      sub\n      swap1\n      0x00\n      mstore\n      keccak256(0x00, 0x20)\n      add\n      0x00\n      swap1\n      swap2\n      swap1\n      swap2\n      swap1\n      swap2\n      pop\n      sstore\n        /* \"contracts/DynamicArrays.sol\":136:215  function addNumbers(uint number) public {\r... */\n      pop\n      jump\t// out\n        /* \"contracts/DynamicArrays.sol\":423:653  function createMemArray() public {\r... */\n    tag_19:\n        /* \"contracts/DynamicArrays.sol\":469:491  uint[] memory _numbers */\n      0x00\n        /* \"contracts/DynamicArrays.sol\":505:506  3 */\n      0x03\n        /* \"contracts/DynamicArrays.sol\":494:507  new uint[](3) */\n      0xffffffffffffffff\n      dup2\n      gt\n      iszero\n      tag_33\n      jumpi\n      tag_34\n      tag_35\n      jump\t// in\n    tag_34:\n    tag_33:\n      mload(0x40)\n      swap1\n      dup1\n      dup3\n      mstore\n      dup1\n      0x20\n      mul\n      0x20\n      add\n      dup3\n      add\n      0x40\n      mstore\n      dup1\n      iszero\n      tag_36\n      jumpi\n      dup2\n      0x20\n      add\n      0x20\n      dup3\n      mul\n      dup1\n      calldatasize\n      dup4\n      calldatacopy\n      dup1\n      dup3\n      add\n      swap2\n      pop\n      pop\n      swap1\n      pop\n    tag_36:\n      pop\n        /* \"contracts/DynamicArrays.sol\":469:507  uint[] memory _numbers = new uint[](3) */\n      swap1\n      pop\n        /* \"contracts/DynamicArrays.sol\":532:534  10 */\n      0x0a\n        /* \"contracts/DynamicArrays.sol\":518:526  _numbers */\n      dup2\n        /* \"contracts/DynamicArrays.sol\":527:528  0 */\n      0x00\n        /* \"contracts/DynamicArrays.sol\":518:529  _numbers[0] */\n      dup2\n      mload\n      dup2\n      lt\n      tag_37\n      jumpi\n      tag_38\n      tag_39\n      jump\t// in\n    tag_38:\n    tag_37:\n      0x20\n      mul\n      0x20\n      add\n      add\n        /* \"contracts/DynamicArrays.sol\":518:534  _numbers[0] = 10 */\n      dup2\n      dup2\n      mstore\n      pop\n      pop\n        /* \"contracts/DynamicArrays.sol\":559:560  5 */\n      0x05\n        /* \"contracts/DynamicArrays.sol\":545:553  _numbers */\n      dup2\n        /* \"contracts/DynamicArrays.sol\":554:555  1 */\n      0x01\n        /* \"contracts/DynamicArrays.sol\":545:556  _numbers[1] */\n      dup2\n      mload\n      dup2\n      lt\n      tag_40\n      jumpi\n      tag_41\n      tag_39\n      jump\t// in\n    tag_41:\n    tag_40:\n      0x20\n      mul\n      0x20\n      add\n      add\n        /* \"contracts/DynamicArrays.sol\":545:560  _numbers[1] = 5 */\n      dup2\n      dup2\n      mstore\n      pop\n      pop\n        /* \"contracts/DynamicArrays.sol\":585:586  8 */\n      0x08\n        /* \"contracts/DynamicArrays.sol\":571:579  _numbers */\n      dup2\n        /* \"contracts/DynamicArrays.sol\":580:581  2 */\n      0x02\n        /* \"contracts/DynamicArrays.sol\":571:582  _numbers[2] */\n      dup2\n      mload\n      dup2\n      lt\n      tag_42\n      jumpi\n      tag_43\n      tag_39\n      jump\t// in\n    tag_43:\n    tag_42:\n      0x20\n      mul\n      0x20\n      add\n      add\n        /* \"contracts/DynamicArrays.sol\":571:586  _numbers[2] = 8 */\n      dup2\n      dup2\n      mstore\n      pop\n      pop\n        /* \"contracts/DynamicArrays.sol\":611:612  0 */\n      0x00\n        /* \"contracts/DynamicArrays.sol\":597:605  _numbers */\n      dup2\n        /* \"contracts/DynamicArrays.sol\":606:607  3 */\n      0x03\n        /* \"contracts/DynamicArrays.sol\":597:608  _numbers[3] */\n      dup2\n      mload\n      dup2\n      lt\n      tag_44\n      jumpi\n      tag_45\n      tag_39\n      jump\t// in\n    tag_45:\n    tag_44:\n      0x20\n      mul\n      0x20\n      add\n      add\n        /* \"contracts/DynamicArrays.sol\":597:612  _numbers[3] = 0 */\n      dup2\n      dup2\n      mstore\n      pop\n      pop\n        /* \"contracts/DynamicArrays.sol\":635:643  _numbers */\n      dup1\n        /* \"contracts/DynamicArrays.sol\":625:632  numbers */\n      0x00\n        /* \"contracts/DynamicArrays.sol\":625:643  numbers = _numbers */\n      swap1\n      dup1\n      mload\n      swap1\n      0x20\n      add\n      swap1\n      tag_46\n      swap3\n      swap2\n      swap1\n      tag_47\n      jump\t// in\n    tag_46:\n      pop\n        /* \"contracts/DynamicArrays.sol\":456:653  {\r... */\n      pop\n        /* \"contracts/DynamicArrays.sol\":423:653  function createMemArray() public {\r... */\n      jump\t// out\n        /* \"contracts/DynamicArrays.sol\":106:127  uint[] public numbers */\n    tag_22:\n      0x00\n      dup2\n      dup2\n      sload\n      dup2\n      lt\n      tag_48\n      jumpi\n      0x00\n      dup1\n      revert\n    tag_48:\n      swap1\n      0x00\n      mstore\n      keccak256(0x00, 0x20)\n      add\n      0x00\n      swap2\n      pop\n      swap1\n      pop\n      sload\n      dup2\n      jump\t// out\n    tag_47:\n      dup3\n      dup1\n      sload\n      dup3\n      dup3\n      sstore\n      swap1\n      0x00\n      mstore\n      keccak256(0x00, 0x20)\n      swap1\n      dup2\n      add\n      swap3\n      dup3\n      iszero\n      tag_50\n      jumpi\n      swap2\n      0x20\n      mul\n      dup3\n      add\n    tag_51:\n      dup3\n      dup2\n      gt\n      iszero\n      tag_52\n      jumpi\n      dup3\n      mload\n      dup3\n      sstore\n      swap2\n      0x20\n      add\n      swap2\n      swap1\n      0x01\n      add\n      swap1\n      jump(tag_51)\n    tag_52:\n    tag_50:\n      pop\n      swap1\n      pop\n      tag_53\n      swap2\n      swap1\n      tag_54\n      jump\t// in\n    tag_53:\n      pop\n      swap1\n      jump\t// out\n    tag_54:\n    tag_55:\n      dup1\n      dup3\n      gt\n      iszero\n      tag_56\n      jumpi\n      0x00\n      dup2\n      0x00\n      swap1\n      sstore\n      pop\n      0x01\n      add\n      jump(tag_55)\n    tag_56:\n      pop\n      swap1\n      jump\t// out\n        /* \"#utility.yul\":7:146   */\n    tag_58:\n        /* \"#utility.yul\":53:58   */\n      0x00\n        /* \"#utility.yul\":91:97   */\n      dup2\n        /* \"#utility.yul\":78:98   */\n      calldataload\n        /* \"#utility.yul\":69:98   */\n      swap1\n      pop\n        /* \"#utility.yul\":107:140   */\n      tag_60\n        /* \"#utility.yul\":134:139   */\n      dup2\n        /* \"#utility.yul\":107:140   */\n      tag_61\n      jump\t// in\n    tag_60:\n        /* \"#utility.yul\":7:146   */\n      swap3\n      swap2\n      pop\n      pop\n      jump\t// out\n        /* \"#utility.yul\":152:481   */\n    tag_16:\n        /* \"#utility.yul\":211:217   */\n      0x00\n        /* \"#utility.yul\":260:262   */\n      0x20\n        /* \"#utility.yul\":248:257   */\n      dup3\n        /* \"#utility.yul\":239:246   */\n      dup5\n        /* \"#utility.yul\":235:258   */\n      sub\n        /* \"#utility.yul\":231:263   */\n      slt\n        /* \"#utility.yul\":228:347   */\n      iszero\n      tag_63\n      jumpi\n        /* \"#utility.yul\":266:345   */\n      tag_64\n      tag_65\n      jump\t// in\n    tag_64:\n        /* \"#utility.yul\":228:347   */\n    tag_63:\n        /* \"#utility.yul\":386:387   */\n      0x00\n        /* \"#utility.yul\":411:464   */\n      tag_66\n        /* \"#utility.yul\":456:463   */\n      dup5\n        /* \"#utility.yul\":447:453   */\n      dup3\n        /* \"#utility.yul\":436:445   */\n      dup6\n        /* \"#utility.yul\":432:454   */\n      add\n        /* \"#utility.yul\":411:464   */\n      tag_58\n      jump\t// in\n    tag_66:\n        /* \"#utility.yul\":401:464   */\n      swap2\n      pop\n        /* \"#utility.yul\":357:474   */\n      pop\n        /* \"#utility.yul\":152:481   */\n      swap3\n      swap2\n      pop\n      pop\n      jump\t// out\n        /* \"#utility.yul\":487:605   */\n    tag_67:\n        /* \"#utility.yul\":574:598   */\n      tag_69\n        /* \"#utility.yul\":592:597   */\n      dup2\n        /* \"#utility.yul\":574:598   */\n      tag_70\n      jump\t// in\n    tag_69:\n        /* \"#utility.yul\":569:572   */\n      dup3\n        /* \"#utility.yul\":562:599   */\n      mstore\n        /* \"#utility.yul\":487:605   */\n      pop\n      pop\n      jump\t// out\n        /* \"#utility.yul\":611:833   */\n    tag_11:\n        /* \"#utility.yul\":704:708   */\n      0x00\n        /* \"#utility.yul\":742:744   */\n      0x20\n        /* \"#utility.yul\":731:740   */\n      dup3\n        /* \"#utility.yul\":727:745   */\n      add\n        /* \"#utility.yul\":719:745   */\n      swap1\n      pop\n        /* \"#utility.yul\":755:826   */\n      tag_72\n        /* \"#utility.yul\":823:824   */\n      0x00\n        /* \"#utility.yul\":812:821   */\n      dup4\n        /* \"#utility.yul\":808:825   */\n      add\n        /* \"#utility.yul\":799:805   */\n      dup5\n        /* \"#utility.yul\":755:826   */\n      tag_67\n      jump\t// in\n    tag_72:\n        /* \"#utility.yul\":611:833   */\n      swap3\n      swap2\n      pop\n      pop\n      jump\t// out\n        /* \"#utility.yul\":920:997   */\n    tag_70:\n        /* \"#utility.yul\":957:964   */\n      0x00\n        /* \"#utility.yul\":986:991   */\n      dup2\n        /* \"#utility.yul\":975:991   */\n      swap1\n      pop\n        /* \"#utility.yul\":920:997   */\n      swap2\n      swap1\n      pop\n      jump\t// out\n        /* \"#utility.yul\":1003:1183   */\n    tag_28:\n        /* \"#utility.yul\":1051:1128   */\n      0x4e487b7100000000000000000000000000000000000000000000000000000000\n        /* \"#utility.yul\":1048:1049   */\n      0x00\n        /* \"#utility.yul\":1041:1129   */\n      mstore\n        /* \"#utility.yul\":1148:1152   */\n      0x31\n        /* \"#utility.yul\":1145:1146   */\n      0x04\n        /* \"#utility.yul\":1138:1153   */\n      mstore\n        /* \"#utility.yul\":1172:1176   */\n      0x24\n        /* \"#utility.yul\":1169:1170   */\n      0x00\n        /* \"#utility.yul\":1162:1177   */\n      revert\n        /* \"#utility.yul\":1189:1369   */\n    tag_39:\n        /* \"#utility.yul\":1237:1314   */\n      0x4e487b7100000000000000000000000000000000000000000000000000000000\n        /* \"#utility.yul\":1234:1235   */\n      0x00\n        /* \"#utility.yul\":1227:1315   */\n      mstore\n        /* \"#utility.yul\":1334:1338   */\n      0x32\n        /* \"#utility.yul\":1331:1332   */\n      0x04\n        /* \"#utility.yul\":1324:1339   */\n      mstore\n        /* \"#utility.yul\":1358:1362   */\n      0x24\n        /* \"#utility.yul\":1355:1356   */\n      0x00\n        /* \"#utility.yul\":1348:1363   */\n      revert\n        /* \"#utility.yul\":1375:1555   */\n    tag_35:\n        /* \"#utility.yul\":1423:1500   */\n      0x4e487b7100000000000000000000000000000000000000000000000000000000\n        /* \"#utility.yul\":1420:1421   */\n      0x00\n        /* \"#utility.yul\":1413:1501   */\n      mstore\n        /* \"#utility.yul\":1520:1524   */\n      0x41\n        /* \"#utility.yul\":1517:1518   */\n      0x04\n        /* \"#utility.yul\":1510:1525   */\n      mstore\n        /* \"#utility.yul\":1544:1548   */\n      0x24\n        /* \"#utility.yul\":1541:1542   */\n      0x00\n        /* \"#utility.yul\":1534:1549   */\n      revert\n        /* \"#utility.yul\":1684:1801   */\n    tag_65:\n        /* \"#utility.yul\":1793:1794   */\n      0x00\n        /* \"#utility.yul\":1790:1791   */\n      dup1\n        /* \"#utility.yul\":1783:1795   */\n      revert\n        /* \"#utility.yul\":1807:1929   */\n    tag_61:\n        /* \"#utility.yul\":1880:1904   */\n      tag_83\n        /* \"#utility.yul\":1898:1903   */\n      dup2\n        /* \"#utility.yul\":1880:1904   */\n      tag_70\n      jump\t// in\n    tag_83:\n        /* \"#utility.yul\":1873:1878   */\n      dup2\n        /* \"#utility.yul\":1870:1905   */\n      eq\n        /* \"#utility.yul\":1860:1923   */\n      tag_84\n      jumpi\n        /* \"#utility.yul\":1919:1920   */\n      0x00\n        /* \"#utility.yul\":1916:1917   */\n      dup1\n        /* \"#utility.yul\":1909:1921   */\n      revert\n        /* \"#utility.yul\":1860:1923   */\n    tag_84:\n        /* \"#utility.yul\":1807:1929   */\n      pop\n      jump\t// out\n\n    auxdata: 0xa2646970667358221220c9ea3996b74a0d415b11472ee313a7672527a844a80476f22d3faebb90e987bb64736f6c63430008070033\n}\n",
				"bytecode": {
					"linkReferences": {},
					"object": "608060405234801561001057600080fd5b5061040f806100206000396000f3fe608060405234801561001057600080fd5b50600436106100575760003560e01c80630849cc991461005c5780632705f37f1461007a5780632be55998146100845780636fdabcb1146100a0578063d39fa233146100aa575b600080fd5b6100646100da565b604051610071919061030b565b60405180910390f35b6100826100e6565b005b61009e600480360381019061009991906102cf565b610110565b005b6100a861013c565b005b6100c460048036038101906100bf91906102cf565b61022c565b6040516100d1919061030b565b60405180910390f35b60008080549050905090565b60008054806100f8576100f7610330565b5b60019003818190600052602060002001600090559055565b600081908060018154018082558091505060019003906000526020600020016000909190919091505550565b6000600367ffffffffffffffff8111156101595761015861038e565b5b6040519080825280602002602001820160405280156101875781602001602082028036833780820191505090505b509050600a816000815181106101a05761019f61035f565b5b6020026020010181815250506005816001815181106101c2576101c161035f565b5b6020026020010181815250506008816002815181106101e4576101e361035f565b5b6020026020010181815250506000816003815181106102065761020561035f565b5b6020026020010181815250508060009080519060200190610228929190610250565b5050565b6000818154811061023c57600080fd5b906000526020600020016000915090505481565b82805482825590600052602060002090810192821561028c579160200282015b8281111561028b578251825591602001919060010190610270565b5b509050610299919061029d565b5090565b5b808211156102b657600081600090555060010161029e565b5090565b6000813590506102c9816103c2565b92915050565b6000602082840312156102e5576102e46103bd565b5b60006102f3848285016102ba565b91505092915050565b61030581610326565b82525050565b600060208201905061032060008301846102fc565b92915050565b6000819050919050565b7f4e487b7100000000000000000000000000000000000000000000000000000000600052603160045260246000fd5b7f4e487b7100000000000000000000000000000000000000000000000000000000600052603260045260246000fd5b7f4e487b7100000000000000000000000000000000000000000000000000000000600052604160045260246000fd5b600080fd5b6103cb81610326565b81146103d657600080fd5b5056fea2646970667358221220c9ea3996b74a0d415b11472ee313a7672527a844a80476f22d3faebb90e987bb64736f6c63430008070033",
					"opcodes": "PUSH1 0x80 PUSH1 0x40 MSTORE CALLVALUE DUP1 ISZERO PUSH2 0x10 JUMPI PUSH1 0x0 DUP1 REVERT JUMPDEST POP PUSH2 0x40F DUP1 PUSH2 0x20 PUSH1 0x0 CODECOPY PUSH1 0x0 RETURN INVALID PUSH1 0x80 PUSH1 0x40 MSTORE CALLVALUE DUP1 ISZERO PUSH2 0x10 JUMPI PUSH1 0x0 DUP1 REVERT JUMPDEST POP PUSH1 0x4 CALLDATASIZE LT PUSH2 0x57 JUMPI PUSH1 0x0 CALLDATALOAD PUSH1 0xE0 SHR DUP1 PUSH4 0x849CC99 EQ PUSH2 0x5C JUMPI DUP1 PUSH4 0x2705F37F EQ PUSH2 0x7A JUMPI DUP1 PUSH4 0x2BE55998 EQ PUSH2 0x84 JUMPI DUP1 PUSH4 0x6FDABCB1 EQ PUSH2 0xA0 JUMPI DUP1 PUSH4 0xD39FA233 EQ PUSH2 0xAA JUMPI JUMPDEST PUSH1 0x0 DUP1 REVERT JUMPDEST PUSH2 0x64 PUSH2 0xDA JUMP JUMPDEST PUSH1 0x40 MLOAD PUSH2 0x71 SWAP2 SWAP1 PUSH2 0x30B JUMP JUMPDEST PUSH1 0x40 MLOAD DUP1 SWAP2 SUB SWAP1 RETURN JUMPDEST PUSH2 0x82 PUSH2 0xE6 JUMP JUMPDEST STOP JUMPDEST PUSH2 0x9E PUSH1 0x4 DUP1 CALLDATASIZE SUB DUP2 ADD SWAP1 PUSH2 0x99 SWAP2 SWAP1 PUSH2 0x2CF JUMP JUMPDEST PUSH2 0x110 JUMP JUMPDEST STOP JUMPDEST PUSH2 0xA8 PUSH2 0x13C JUMP JUMPDEST STOP JUMPDEST PUSH2 0xC4 PUSH1 0x4 DUP1 CALLDATASIZE SUB DUP2 ADD SWAP1 PUSH2 0xBF SWAP2 SWAP1 PUSH2 0x2CF JUMP JUMPDEST PUSH2 0x22C JUMP JUMPDEST PUSH1 0x40 MLOAD PUSH2 0xD1 SWAP2 SWAP1 PUSH2 0x30B JUMP JUMPDEST PUSH1 0x40 MLOAD DUP1 SWAP2 SUB SWAP1 RETURN JUMPDEST PUSH1 0x0 DUP1 DUP1 SLOAD SWAP1 POP SWAP1 POP SWAP1 JUMP JUMPDEST PUSH1 0x0 DUP1 SLOAD DUP1 PUSH2 0xF8 JUMPI PUSH2 0xF7 PUSH2 0x330 JUMP JUMPDEST JUMPDEST PUSH1 0x1 SWAP1 SUB DUP2 DUP2 SWAP1 PUSH1 0x0 MSTORE PUSH1 0x20 PUSH1 0x0 KECCAK256 ADD PUSH1 0x0 SWAP1 SSTORE SWAP1 SSTORE JUMP JUMPDEST PUSH1 0x0 DUP2 SWAP1 DUP1 PUSH1 0x1 DUP2 SLOAD ADD DUP1 DUP3 SSTORE DUP1 SWAP2 POP POP PUSH1 0x1 SWAP1 SUB SWAP1 PUSH1 0x0 MSTORE PUSH1 0x20 PUSH1 0x0 KECCAK256 ADD PUSH1 0x0 SWAP1 SWAP2 SWAP1 SWAP2 SWAP1 SWAP2 POP SSTORE POP JUMP JUMPDEST PUSH1 0x0 PUSH1 0x3 PUSH8 0xFFFFFFFFFFFFFFFF DUP2 GT ISZERO PUSH2 0x159 JUMPI PUSH2 0x158 PUSH2 0x38E JUMP JUMPDEST JUMPDEST PUSH1 0x40 MLOAD SWAP1 DUP1 DUP3 MSTORE DUP1 PUSH1 0x20 MUL PUSH1 0x20 ADD DUP3 ADD PUSH1 0x40 MSTORE DUP1 ISZERO PUSH2 0x187 JUMPI DUP2 PUSH1 0x20 ADD PUSH1 0x20 DUP3 MUL DUP1 CALLDATASIZE DUP4 CALLDATACOPY DUP1 DUP3 ADD SWAP2 POP POP SWAP1 POP JUMPDEST POP SWAP1 POP PUSH1 0xA DUP2 PUSH1 0x0 DUP2 MLOAD DUP2 LT PUSH2 0x1A0 JUMPI PUSH2 0x19F PUSH2 0x35F JUMP JUMPDEST JUMPDEST PUSH1 0x20 MUL PUSH1 0x20 ADD ADD DUP2 DUP2 MSTORE POP POP PUSH1 0x5 DUP2 PUSH1 0x1 DUP2 MLOAD DUP2 LT PUSH2 0x1C2 JUMPI PUSH2 0x1C1 PUSH2 0x35F JUMP JUMPDEST JUMPDEST PUSH1 0x20 MUL PUSH1 0x20 ADD ADD DUP2 DUP2 MSTORE POP POP PUSH1 0x8 DUP2 PUSH1 0x2 DUP2 MLOAD DUP2 LT PUSH2 0x1E4 JUMPI PUSH2 0x1E3 PUSH2 0x35F JUMP JUMPDEST JUMPDEST PUSH1 0x20 MUL PUSH1 0x20 ADD ADD DUP2 DUP2 MSTORE POP POP PUSH1 0x0 DUP2 PUSH1 0x3 DUP2 MLOAD DUP2 LT PUSH2 0x206 JUMPI PUSH2 0x205 PUSH2 0x35F JUMP JUMPDEST JUMPDEST PUSH1 0x20 MUL PUSH1 0x20 ADD ADD DUP2 DUP2 MSTORE POP POP DUP1 PUSH1 0x0 SWAP1 DUP1 MLOAD SWAP1 PUSH1 0x20 ADD SWAP1 PUSH2 0x228 SWAP3 SWAP2 SWAP1 PUSH2 0x250 JUMP JUMPDEST POP POP JUMP JUMPDEST PUSH1 0x0 DUP2 DUP2 SLOAD DUP2 LT PUSH2 0x23C JUMPI PUSH1 0x0 DUP1 REVERT JUMPDEST SWAP1 PUSH1 0x0 MSTORE PUSH1 0x20 PUSH1 0x0 KECCAK256 ADD PUSH1 0x0 SWAP2 POP SWAP1 POP SLOAD DUP2 JUMP JUMPDEST DUP3 DUP1 SLOAD DUP3 DUP3 SSTORE SWAP1 PUSH1 0x0 MSTORE PUSH1 0x20 PUSH1 0x0 KECCAK256 SWAP1 DUP2 ADD SWAP3 DUP3 ISZERO PUSH2 0x28C JUMPI SWAP2 PUSH1 0x20 MUL DUP3 ADD JUMPDEST DUP3 DUP2 GT ISZERO PUSH2 0x28B JUMPI DUP3 MLOAD DUP3 SSTORE SWAP2 PUSH1 0x20 ADD SWAP2 SWAP1 PUSH1 0x1 ADD SWAP1 PUSH2 0x270 JUMP JUMPDEST JUMPDEST POP SWAP1 POP PUSH2 0x299 SWAP2 SWAP1 PUSH2 0x29D JUMP JUMPDEST POP SWAP1 JUMP JUMPDEST JUMPDEST DUP1 DUP3 GT ISZERO PUSH2 0x2B6 JUMPI PUSH1 0x0 DUP2 PUSH1 0x0 SWAP1 SSTORE POP PUSH1 0x1 ADD PUSH2 0x29E JUMP JUMPDEST POP SWAP1 JUMP JUMPDEST PUSH1 0x0 DUP2 CALLDATALOAD SWAP1 POP PUSH2 0x2C9 DUP2 PUSH2 0x3C2 JUMP JUMPDEST SWAP3 SWAP2 POP POP JUMP JUMPDEST PUSH1 0x0 PUSH1 0x20 DUP3 DUP5 SUB SLT ISZERO PUSH2 0x2E5 JUMPI PUSH2 0x2E4 PUSH2 0x3BD JUMP JUMPDEST JUMPDEST PUSH1 0x0 PUSH2 0x2F3 DUP5 DUP3 DUP6 ADD PUSH2 0x2BA JUMP JUMPDEST SWAP2 POP POP SWAP3 SWAP2 POP POP JUMP JUMPDEST PUSH2 0x305 DUP2 PUSH2 0x326 JUMP JUMPDEST DUP3 MSTORE POP POP JUMP JUMPDEST PUSH1 0x0 PUSH1 0x20 DUP3 ADD SWAP1 POP PUSH2 0x320 PUSH1 0x0 DUP4 ADD DUP5 PUSH2 0x2FC JUMP JUMPDEST SWAP3 SWAP2 POP POP JUMP JUMPDEST PUSH1 0x0 DUP2 SWAP1 POP SWAP2 SWAP1 POP JUMP JUMPDEST PUSH32 0x4E487B7100000000000000000000000000000000000000000000000000000000 PUSH1 0x0 MSTORE PUSH1 0x31 PUSH1 0x4 MSTORE PUSH1 0x24 PUSH1 0x0 REVERT JUMPDEST PUSH32 0x4E487B7100000000000000000000000000000000000000000000000000000000 PUSH1 0x0 MSTORE PUSH1 0x32 PUSH1 0x4 MSTORE PUSH1 0x24 PUSH1 0x0 REVERT JUMPDEST PUSH32 0x4E487B7100000000000000000000000000000000000000000000000000000000 PUSH1 0x0 MSTORE PUSH1 0x41 PUSH1 0x4 MSTORE PUSH1 0x24 PUSH1 0x0 REVERT JUMPDEST PUSH1 0x0 DUP1 REVERT JUMPDEST PUSH2 0x3CB DUP2 PUSH2 0x326 JUMP JUMPDEST DUP2 EQ PUSH2 0x3D6 JUMPI PUSH1 0x0 DUP1 REVERT JUMPDEST POP JUMP INVALID LOG2 PUSH5 0x6970667358 0x22 SLT KECCAK256 0xC9 0xEA CODECOPY SWAP7 0xB7 0x4A 0xD COINBASE JUMPDEST GT SELFBALANCE 0x2E 0xE3 SGT 0xA7 PUSH8 0x2527A844A80476F2 0x2D EXTCODEHASH 0xAE 0xBB SWAP1 0xE9 DUP8 0xBB PUSH5 0x736F6C6343 STOP ADDMOD SMOD STOP CALLER "
				},
				"gasEstimates": {
					"creation": {
						"codeDepositCost": "207800",
						"executionCost": "251",
						"totalCost": "208051"
					},
					"external": {
						"addNumbers(uint256)": "46851",
						"createMemArray()": "infinite",
						"getArrayLength()": "2423",
						"numbers(uint256)": "infinite",
						"popNumber()": "29445"
					}
				},
				"methodIdentifiers": {
					"addNumbers(uint256)": "2be55998",
					"createMemArray()": "6fdabcb1",
					"getArrayLength()": "0849cc99",
					"numbers(uint256)": "d39fa233",
					"popNumber()": "2705f37f"
				}
			},
			"storageLayout": {
				"storage": [
					{
						"astId": 4,
						"contract": "contracts/DynamicArrays.sol:DynamicArrays",
						"label": "numbers",
						"offset": 0,
						"slot": "0",
						"type": "t_array(t_uint256)dyn_storage"
					}
				],
				"types": {
					"t_array(t_uint256)dyn_storage": {
						"base": "t_uint256",
						"encoding": "dynamic_array",
						"label": "uint256[]",
						"numberOfBytes": "32"
					},
					"t_uint256": {
						"encoding": "inplace",
						"label": "uint256",
						"numberOfBytes": "32"
					}
				}
			},
			"userdoc": {
				"kind": "user",
				"methods": {},
				"version": 1
			}
		}
	}
}