{
	"contracts/Auctionsol.sol": {
		"Lottery": {
			"abi": [
				{
					"inputs": [],
					"stateMutability": "nonpayable",
					"type": "constructor"
				},
				{
					"inputs": [],
					"name": "bidIncrement",
					"outputs": [
						{
							"internalType": "uint256",
							"name": "",
							"type": "uint256"
						}
					],
					"stateMutability": "view",
					"type": "function"
				},
				{
					"inputs": [
						{
							"internalType": "address",
							"name": "",
							"type": "address"
						}
					],
					"name": "bidsMap",
					"outputs": [
						{
							"internalType": "uint256",
							"name": "",
							"type": "uint256"
						}
					],
					"stateMutability": "view",
					"type": "function"
				},
				{
					"inputs": [],
					"name": "higestBindingBid",
					"outputs": [
						{
							"internalType": "uint256",
							"name": "",
							"type": "uint256"
						}
					],
					"stateMutability": "view",
					"type": "function"
				},
				{
					"inputs": [],
					"name": "highestBidder",
					"outputs": [
						{
							"internalType": "address payable",
							"name": "",
							"type": "address"
						}
					],
					"stateMutability": "view",
					"type": "function"
				},
				{
					"inputs": [],
					"name": "owner",
					"outputs": [
						{
							"internalType": "address",
							"name": "",
							"type": "address"
						}
					],
					"stateMutability": "view",
					"type": "function"
				},
				{
					"inputs": [],
					"name": "startBlock",
					"outputs": [
						{
							"internalType": "uint256",
							"name": "",
							"type": "uint256"
						}
					],
					"stateMutability": "view",
					"type": "function"
				}
			],
			"devdoc": {
				"kind": "dev",
				"methods": {},
				"version": 1
			},
			"evm": {
				"assembly": "    /* \"contracts/Auctionsol.sol\":74:429  contract Lottery{\r... */\n  mstore(0x40, 0x80)\n    /* \"contracts/Auctionsol.sol\":322:334  block.number */\n  number\n    /* \"contracts/Auctionsol.sol\":297:334  uint public startBlock = block.number */\n  0x05\n  sstore\n    /* \"contracts/Auctionsol.sol\":345:424  constructor(){\r... */\n  callvalue\n  dup1\n  iszero\n  tag_1\n  jumpi\n  0x00\n  dup1\n  revert\ntag_1:\n  pop\n    /* \"contracts/Auctionsol.sol\":377:387  msg.sender */\n  caller\n    /* \"contracts/Auctionsol.sol\":369:374  owner */\n  0x01\n  0x00\n    /* \"contracts/Auctionsol.sol\":369:387  owner = msg.sender */\n  0x0100\n  exp\n  dup2\n  sload\n  dup2\n  0xffffffffffffffffffffffffffffffffffffffff\n  mul\n  not\n  and\n  swap1\n  dup4\n  0xffffffffffffffffffffffffffffffffffffffff\n  and\n  mul\n  or\n  swap1\n  sstore\n  pop\n    /* \"contracts/Auctionsol.sol\":413:416  100 */\n  0x64\n    /* \"contracts/Auctionsol.sol\":398:410  bidIncrement */\n  0x04\n    /* \"contracts/Auctionsol.sol\":398:416  bidIncrement = 100 */\n  dup2\n  swap1\n  sstore\n  pop\n    /* \"contracts/Auctionsol.sol\":74:429  contract Lottery{\r... */\n  dataSize(sub_0)\n  dup1\n  dataOffset(sub_0)\n  0x00\n  codecopy\n  0x00\n  return\nstop\n\nsub_0: assembly {\n        /* \"contracts/Auctionsol.sol\":74:429  contract Lottery{\r... */\n      mstore(0x40, 0x80)\n      callvalue\n      dup1\n      iszero\n      tag_1\n      jumpi\n      0x00\n      dup1\n      revert\n    tag_1:\n      pop\n      jumpi(tag_2, lt(calldatasize, 0x04))\n      shr(0xe0, calldataload(0x00))\n      dup1\n      0x48cd4cb1\n      eq\n      tag_3\n      jumpi\n      dup1\n      0x8da5cb5b\n      eq\n      tag_4\n      jumpi\n      dup1\n      0x8ee77512\n      eq\n      tag_5\n      jumpi\n      dup1\n      0x91c11f7d\n      eq\n      tag_6\n      jumpi\n      dup1\n      0x91f90157\n      eq\n      tag_7\n      jumpi\n      dup1\n      0xb3cc167a\n      eq\n      tag_8\n      jumpi\n    tag_2:\n      0x00\n      dup1\n      revert\n        /* \"contracts/Auctionsol.sol\":297:334  uint public startBlock = block.number */\n    tag_3:\n      tag_9\n      tag_10\n      jump\t// in\n    tag_9:\n      mload(0x40)\n      tag_11\n      swap2\n      swap1\n      tag_12\n      jump\t// in\n    tag_11:\n      mload(0x40)\n      dup1\n      swap2\n      sub\n      swap1\n      return\n        /* \"contracts/Auctionsol.sol\":145:165  address public owner */\n    tag_4:\n      tag_13\n      tag_14\n      jump\t// in\n    tag_13:\n      mload(0x40)\n      tag_15\n      swap2\n      swap1\n      tag_16\n      jump\t// in\n    tag_15:\n      mload(0x40)\n      dup1\n      swap2\n      sub\n      swap1\n      return\n        /* \"contracts/Auctionsol.sol\":99:138  mapping(address => uint) public bidsMap */\n    tag_5:\n      tag_17\n      0x04\n      dup1\n      calldatasize\n      sub\n      dup2\n      add\n      swap1\n      tag_18\n      swap2\n      swap1\n      tag_19\n      jump\t// in\n    tag_18:\n      tag_20\n      jump\t// in\n    tag_17:\n      mload(0x40)\n      tag_21\n      swap2\n      swap1\n      tag_12\n      jump\t// in\n    tag_21:\n      mload(0x40)\n      dup1\n      swap2\n      sub\n      swap1\n      return\n        /* \"contracts/Auctionsol.sol\":215:243  uint public higestBindingBid */\n    tag_6:\n      tag_22\n      tag_23\n      jump\t// in\n    tag_22:\n      mload(0x40)\n      tag_24\n      swap2\n      swap1\n      tag_12\n      jump\t// in\n    tag_24:\n      mload(0x40)\n      dup1\n      swap2\n      sub\n      swap1\n      return\n        /* \"contracts/Auctionsol.sol\":172:208  address payable public highestBidder */\n    tag_7:\n      tag_25\n      tag_26\n      jump\t// in\n    tag_25:\n      mload(0x40)\n      tag_27\n      swap2\n      swap1\n      tag_28\n      jump\t// in\n    tag_27:\n      mload(0x40)\n      dup1\n      swap2\n      sub\n      swap1\n      return\n        /* \"contracts/Auctionsol.sol\":250:274  uint public bidIncrement */\n    tag_8:\n      tag_29\n      tag_30\n      jump\t// in\n    tag_29:\n      mload(0x40)\n      tag_31\n      swap2\n      swap1\n      tag_12\n      jump\t// in\n    tag_31:\n      mload(0x40)\n      dup1\n      swap2\n      sub\n      swap1\n      return\n        /* \"contracts/Auctionsol.sol\":297:334  uint public startBlock = block.number */\n    tag_10:\n      sload(0x05)\n      dup2\n      jump\t// out\n        /* \"contracts/Auctionsol.sol\":145:165  address public owner */\n    tag_14:\n      0x01\n      0x00\n      swap1\n      sload\n      swap1\n      0x0100\n      exp\n      swap1\n      div\n      0xffffffffffffffffffffffffffffffffffffffff\n      and\n      dup2\n      jump\t// out\n        /* \"contracts/Auctionsol.sol\":99:138  mapping(address => uint) public bidsMap */\n    tag_20:\n      mstore(0x20, 0x00)\n      dup1\n      0x00\n      mstore\n      keccak256(0x00, 0x40)\n      0x00\n      swap2\n      pop\n      swap1\n      pop\n      sload\n      dup2\n      jump\t// out\n        /* \"contracts/Auctionsol.sol\":215:243  uint public higestBindingBid */\n    tag_23:\n      sload(0x03)\n      dup2\n      jump\t// out\n        /* \"contracts/Auctionsol.sol\":172:208  address payable public highestBidder */\n    tag_26:\n      0x02\n      0x00\n      swap1\n      sload\n      swap1\n      0x0100\n      exp\n      swap1\n      div\n      0xffffffffffffffffffffffffffffffffffffffff\n      and\n      dup2\n      jump\t// out\n        /* \"contracts/Auctionsol.sol\":250:274  uint public bidIncrement */\n    tag_30:\n      sload(0x04)\n      dup2\n      jump\t// out\n        /* \"#utility.yul\":7:146   */\n    tag_33:\n        /* \"#utility.yul\":53:58   */\n      0x00\n        /* \"#utility.yul\":91:97   */\n      dup2\n        /* \"#utility.yul\":78:98   */\n      calldataload\n        /* \"#utility.yul\":69:98   */\n      swap1\n      pop\n        /* \"#utility.yul\":107:140   */\n      tag_35\n        /* \"#utility.yul\":134:139   */\n      dup2\n        /* \"#utility.yul\":107:140   */\n      tag_36\n      jump\t// in\n    tag_35:\n        /* \"#utility.yul\":7:146   */\n      swap3\n      swap2\n      pop\n      pop\n      jump\t// out\n        /* \"#utility.yul\":152:481   */\n    tag_19:\n        /* \"#utility.yul\":211:217   */\n      0x00\n        /* \"#utility.yul\":260:262   */\n      0x20\n        /* \"#utility.yul\":248:257   */\n      dup3\n        /* \"#utility.yul\":239:246   */\n      dup5\n        /* \"#utility.yul\":235:258   */\n      sub\n        /* \"#utility.yul\":231:263   */\n      slt\n        /* \"#utility.yul\":228:347   */\n      iszero\n      tag_38\n      jumpi\n        /* \"#utility.yul\":266:345   */\n      tag_39\n      tag_40\n      jump\t// in\n    tag_39:\n        /* \"#utility.yul\":228:347   */\n    tag_38:\n        /* \"#utility.yul\":386:387   */\n      0x00\n        /* \"#utility.yul\":411:464   */\n      tag_41\n        /* \"#utility.yul\":456:463   */\n      dup5\n        /* \"#utility.yul\":447:453   */\n      dup3\n        /* \"#utility.yul\":436:445   */\n      dup6\n        /* \"#utility.yul\":432:454   */\n      add\n        /* \"#utility.yul\":411:464   */\n      tag_33\n      jump\t// in\n    tag_41:\n        /* \"#utility.yul\":401:464   */\n      swap2\n      pop\n        /* \"#utility.yul\":357:474   */\n      pop\n        /* \"#utility.yul\":152:481   */\n      swap3\n      swap2\n      pop\n      pop\n      jump\t// out\n        /* \"#utility.yul\":487:629   */\n    tag_42:\n        /* \"#utility.yul\":590:622   */\n      tag_44\n        /* \"#utility.yul\":616:621   */\n      dup2\n        /* \"#utility.yul\":590:622   */\n      tag_45\n      jump\t// in\n    tag_44:\n        /* \"#utility.yul\":585:588   */\n      dup3\n        /* \"#utility.yul\":578:623   */\n      mstore\n        /* \"#utility.yul\":487:629   */\n      pop\n      pop\n      jump\t// out\n        /* \"#utility.yul\":635:753   */\n    tag_46:\n        /* \"#utility.yul\":722:746   */\n      tag_48\n        /* \"#utility.yul\":740:745   */\n      dup2\n        /* \"#utility.yul\":722:746   */\n      tag_49\n      jump\t// in\n    tag_48:\n        /* \"#utility.yul\":717:720   */\n      dup3\n        /* \"#utility.yul\":710:747   */\n      mstore\n        /* \"#utility.yul\":635:753   */\n      pop\n      pop\n      jump\t// out\n        /* \"#utility.yul\":759:877   */\n    tag_50:\n        /* \"#utility.yul\":846:870   */\n      tag_52\n        /* \"#utility.yul\":864:869   */\n      dup2\n        /* \"#utility.yul\":846:870   */\n      tag_53\n      jump\t// in\n    tag_52:\n        /* \"#utility.yul\":841:844   */\n      dup3\n        /* \"#utility.yul\":834:871   */\n      mstore\n        /* \"#utility.yul\":759:877   */\n      pop\n      pop\n      jump\t// out\n        /* \"#utility.yul\":883:1105   */\n    tag_16:\n        /* \"#utility.yul\":976:980   */\n      0x00\n        /* \"#utility.yul\":1014:1016   */\n      0x20\n        /* \"#utility.yul\":1003:1012   */\n      dup3\n        /* \"#utility.yul\":999:1017   */\n      add\n        /* \"#utility.yul\":991:1017   */\n      swap1\n      pop\n        /* \"#utility.yul\":1027:1098   */\n      tag_55\n        /* \"#utility.yul\":1095:1096   */\n      0x00\n        /* \"#utility.yul\":1084:1093   */\n      dup4\n        /* \"#utility.yul\":1080:1097   */\n      add\n        /* \"#utility.yul\":1071:1077   */\n      dup5\n        /* \"#utility.yul\":1027:1098   */\n      tag_46\n      jump\t// in\n    tag_55:\n        /* \"#utility.yul\":883:1105   */\n      swap3\n      swap2\n      pop\n      pop\n      jump\t// out\n        /* \"#utility.yul\":1111:1365   */\n    tag_28:\n        /* \"#utility.yul\":1220:1224   */\n      0x00\n        /* \"#utility.yul\":1258:1260   */\n      0x20\n        /* \"#utility.yul\":1247:1256   */\n      dup3\n        /* \"#utility.yul\":1243:1261   */\n      add\n        /* \"#utility.yul\":1235:1261   */\n      swap1\n      pop\n        /* \"#utility.yul\":1271:1358   */\n      tag_57\n        /* \"#utility.yul\":1355:1356   */\n      0x00\n        /* \"#utility.yul\":1344:1353   */\n      dup4\n        /* \"#utility.yul\":1340:1357   */\n      add\n        /* \"#utility.yul\":1331:1337   */\n      dup5\n        /* \"#utility.yul\":1271:1358   */\n      tag_42\n      jump\t// in\n    tag_57:\n        /* \"#utility.yul\":1111:1365   */\n      swap3\n      swap2\n      pop\n      pop\n      jump\t// out\n        /* \"#utility.yul\":1371:1593   */\n    tag_12:\n        /* \"#utility.yul\":1464:1468   */\n      0x00\n        /* \"#utility.yul\":1502:1504   */\n      0x20\n        /* \"#utility.yul\":1491:1500   */\n      dup3\n        /* \"#utility.yul\":1487:1505   */\n      add\n        /* \"#utility.yul\":1479:1505   */\n      swap1\n      pop\n        /* \"#utility.yul\":1515:1586   */\n      tag_59\n        /* \"#utility.yul\":1583:1584   */\n      0x00\n        /* \"#utility.yul\":1572:1581   */\n      dup4\n        /* \"#utility.yul\":1568:1585   */\n      add\n        /* \"#utility.yul\":1559:1565   */\n      dup5\n        /* \"#utility.yul\":1515:1586   */\n      tag_50\n      jump\t// in\n    tag_59:\n        /* \"#utility.yul\":1371:1593   */\n      swap3\n      swap2\n      pop\n      pop\n      jump\t// out\n        /* \"#utility.yul\":1680:1776   */\n    tag_49:\n        /* \"#utility.yul\":1717:1724   */\n      0x00\n        /* \"#utility.yul\":1746:1770   */\n      tag_63\n        /* \"#utility.yul\":1764:1769   */\n      dup3\n        /* \"#utility.yul\":1746:1770   */\n      tag_64\n      jump\t// in\n    tag_63:\n        /* \"#utility.yul\":1735:1770   */\n      swap1\n      pop\n        /* \"#utility.yul\":1680:1776   */\n      swap2\n      swap1\n      pop\n      jump\t// out\n        /* \"#utility.yul\":1782:1886   */\n    tag_45:\n        /* \"#utility.yul\":1827:1834   */\n      0x00\n        /* \"#utility.yul\":1856:1880   */\n      tag_66\n        /* \"#utility.yul\":1874:1879   */\n      dup3\n        /* \"#utility.yul\":1856:1880   */\n      tag_64\n      jump\t// in\n    tag_66:\n        /* \"#utility.yul\":1845:1880   */\n      swap1\n      pop\n        /* \"#utility.yul\":1782:1886   */\n      swap2\n      swap1\n      pop\n      jump\t// out\n        /* \"#utility.yul\":1892:2018   */\n    tag_64:\n        /* \"#utility.yul\":1929:1936   */\n      0x00\n        /* \"#utility.yul\":1969:2011   */\n      0xffffffffffffffffffffffffffffffffffffffff\n        /* \"#utility.yul\":1962:1967   */\n      dup3\n        /* \"#utility.yul\":1958:2012   */\n      and\n        /* \"#utility.yul\":1947:2012   */\n      swap1\n      pop\n        /* \"#utility.yul\":1892:2018   */\n      swap2\n      swap1\n      pop\n      jump\t// out\n        /* \"#utility.yul\":2024:2101   */\n    tag_53:\n        /* \"#utility.yul\":2061:2068   */\n      0x00\n        /* \"#utility.yul\":2090:2095   */\n      dup2\n        /* \"#utility.yul\":2079:2095   */\n      swap1\n      pop\n        /* \"#utility.yul\":2024:2101   */\n      swap2\n      swap1\n      pop\n      jump\t// out\n        /* \"#utility.yul\":2230:2347   */\n    tag_40:\n        /* \"#utility.yul\":2339:2340   */\n      0x00\n        /* \"#utility.yul\":2336:2337   */\n      dup1\n        /* \"#utility.yul\":2329:2341   */\n      revert\n        /* \"#utility.yul\":2353:2475   */\n    tag_36:\n        /* \"#utility.yul\":2426:2450   */\n      tag_73\n        /* \"#utility.yul\":2444:2449   */\n      dup2\n        /* \"#utility.yul\":2426:2450   */\n      tag_49\n      jump\t// in\n    tag_73:\n        /* \"#utility.yul\":2419:2424   */\n      dup2\n        /* \"#utility.yul\":2416:2451   */\n      eq\n        /* \"#utility.yul\":2406:2469   */\n      tag_74\n      jumpi\n        /* \"#utility.yul\":2465:2466   */\n      0x00\n        /* \"#utility.yul\":2462:2463   */\n      dup1\n        /* \"#utility.yul\":2455:2467   */\n      revert\n        /* \"#utility.yul\":2406:2469   */\n    tag_74:\n        /* \"#utility.yul\":2353:2475   */\n      pop\n      jump\t// out\n\n    auxdata: 0xa2646970667358221220c302359b8288f99e84e14d79021c3a3d14cad596526ab73e2d138dd044ecb57064736f6c63430008070033\n}\n",
				"bytecode": {
					"linkReferences": {},
					"object": "60806040524360055534801561001457600080fd5b5033600160006101000a81548173ffffffffffffffffffffffffffffffffffffffff021916908373ffffffffffffffffffffffffffffffffffffffff16021790555060646004819055506103038061006d6000396000f3fe608060405234801561001057600080fd5b50600436106100625760003560e01c806348cd4cb1146100675780638da5cb5b146100855780638ee77512146100a357806391c11f7d146100d357806391f90157146100f1578063b3cc167a1461010f575b600080fd5b61006f61012d565b60405161007c9190610248565b60405180910390f35b61008d610133565b60405161009a9190610212565b60405180910390f35b6100bd60048036038101906100b891906101b8565b610159565b6040516100ca9190610248565b60405180910390f35b6100db610171565b6040516100e89190610248565b60405180910390f35b6100f9610177565b604051610106919061022d565b60405180910390f35b61011761019d565b6040516101249190610248565b60405180910390f35b60055481565b600160009054906101000a900473ffffffffffffffffffffffffffffffffffffffff1681565b60006020528060005260406000206000915090505481565b60035481565b600260009054906101000a900473ffffffffffffffffffffffffffffffffffffffff1681565b60045481565b6000813590506101b2816102b6565b92915050565b6000602082840312156101ce576101cd6102b1565b5b60006101dc848285016101a3565b91505092915050565b6101ee81610275565b82525050565b6101fd81610263565b82525050565b61020c816102a7565b82525050565b600060208201905061022760008301846101f4565b92915050565b600060208201905061024260008301846101e5565b92915050565b600060208201905061025d6000830184610203565b92915050565b600061026e82610287565b9050919050565b600061028082610287565b9050919050565b600073ffffffffffffffffffffffffffffffffffffffff82169050919050565b6000819050919050565b600080fd5b6102bf81610263565b81146102ca57600080fd5b5056fea2646970667358221220c302359b8288f99e84e14d79021c3a3d14cad596526ab73e2d138dd044ecb57064736f6c63430008070033",
					"opcodes": "PUSH1 0x80 PUSH1 0x40 MSTORE NUMBER PUSH1 0x5 SSTORE CALLVALUE DUP1 ISZERO PUSH2 0x14 JUMPI PUSH1 0x0 DUP1 REVERT JUMPDEST POP CALLER PUSH1 0x1 PUSH1 0x0 PUSH2 0x100 EXP DUP2 SLOAD DUP2 PUSH20 0xFFFFFFFFFFFFFFFFFFFFFFFFFFFFFFFFFFFFFFFF MUL NOT AND SWAP1 DUP4 PUSH20 0xFFFFFFFFFFFFFFFFFFFFFFFFFFFFFFFFFFFFFFFF AND MUL OR SWAP1 SSTORE POP PUSH1 0x64 PUSH1 0x4 DUP2 SWAP1 SSTORE POP PUSH2 0x303 DUP1 PUSH2 0x6D PUSH1 0x0 CODECOPY PUSH1 0x0 RETURN INVALID PUSH1 0x80 PUSH1 0x40 MSTORE CALLVALUE DUP1 ISZERO PUSH2 0x10 JUMPI PUSH1 0x0 DUP1 REVERT JUMPDEST POP PUSH1 0x4 CALLDATASIZE LT PUSH2 0x62 JUMPI PUSH1 0x0 CALLDATALOAD PUSH1 0xE0 SHR DUP1 PUSH4 0x48CD4CB1 EQ PUSH2 0x67 JUMPI DUP1 PUSH4 0x8DA5CB5B EQ PUSH2 0x85 JUMPI DUP1 PUSH4 0x8EE77512 EQ PUSH2 0xA3 JUMPI DUP1 PUSH4 0x91C11F7D EQ PUSH2 0xD3 JUMPI DUP1 PUSH4 0x91F90157 EQ PUSH2 0xF1 JUMPI DUP1 PUSH4 0xB3CC167A EQ PUSH2 0x10F JUMPI JUMPDEST PUSH1 0x0 DUP1 REVERT JUMPDEST PUSH2 0x6F PUSH2 0x12D JUMP JUMPDEST PUSH1 0x40 MLOAD PUSH2 0x7C SWAP2 SWAP1 PUSH2 0x248 JUMP JUMPDEST PUSH1 0x40 MLOAD DUP1 SWAP2 SUB SWAP1 RETURN JUMPDEST PUSH2 0x8D PUSH2 0x133 JUMP JUMPDEST PUSH1 0x40 MLOAD PUSH2 0x9A SWAP2 SWAP1 PUSH2 0x212 JUMP JUMPDEST PUSH1 0x40 MLOAD DUP1 SWAP2 SUB SWAP1 RETURN JUMPDEST PUSH2 0xBD PUSH1 0x4 DUP1 CALLDATASIZE SUB DUP2 ADD SWAP1 PUSH2 0xB8 SWAP2 SWAP1 PUSH2 0x1B8 JUMP JUMPDEST PUSH2 0x159 JUMP JUMPDEST PUSH1 0x40 MLOAD PUSH2 0xCA SWAP2 SWAP1 PUSH2 0x248 JUMP JUMPDEST PUSH1 0x40 MLOAD DUP1 SWAP2 SUB SWAP1 RETURN JUMPDEST PUSH2 0xDB PUSH2 0x171 JUMP JUMPDEST PUSH1 0x40 MLOAD PUSH2 0xE8 SWAP2 SWAP1 PUSH2 0x248 JUMP JUMPDEST PUSH1 0x40 MLOAD DUP1 SWAP2 SUB SWAP1 RETURN JUMPDEST PUSH2 0xF9 PUSH2 0x177 JUMP JUMPDEST PUSH1 0x40 MLOAD PUSH2 0x106 SWAP2 SWAP1 PUSH2 0x22D JUMP JUMPDEST PUSH1 0x40 MLOAD DUP1 SWAP2 SUB SWAP1 RETURN JUMPDEST PUSH2 0x117 PUSH2 0x19D JUMP JUMPDEST PUSH1 0x40 MLOAD PUSH2 0x124 SWAP2 SWAP1 PUSH2 0x248 JUMP JUMPDEST PUSH1 0x40 MLOAD DUP1 SWAP2 SUB SWAP1 RETURN JUMPDEST PUSH1 0x5 SLOAD DUP2 JUMP JUMPDEST PUSH1 0x1 PUSH1 0x0 SWAP1 SLOAD SWAP1 PUSH2 0x100 EXP SWAP1 DIV PUSH20 0xFFFFFFFFFFFFFFFFFFFFFFFFFFFFFFFFFFFFFFFF AND DUP2 JUMP JUMPDEST PUSH1 0x0 PUSH1 0x20 MSTORE DUP1 PUSH1 0x0 MSTORE PUSH1 0x40 PUSH1 0x0 KECCAK256 PUSH1 0x0 SWAP2 POP SWAP1 POP SLOAD DUP2 JUMP JUMPDEST PUSH1 0x3 SLOAD DUP2 JUMP JUMPDEST PUSH1 0x2 PUSH1 0x0 SWAP1 SLOAD SWAP1 PUSH2 0x100 EXP SWAP1 DIV PUSH20 0xFFFFFFFFFFFFFFFFFFFFFFFFFFFFFFFFFFFFFFFF AND DUP2 JUMP JUMPDEST PUSH1 0x4 SLOAD DUP2 JUMP JUMPDEST PUSH1 0x0 DUP2 CALLDATALOAD SWAP1 POP PUSH2 0x1B2 DUP2 PUSH2 0x2B6 JUMP JUMPDEST SWAP3 SWAP2 POP POP JUMP JUMPDEST PUSH1 0x0 PUSH1 0x20 DUP3 DUP5 SUB SLT ISZERO PUSH2 0x1CE JUMPI PUSH2 0x1CD PUSH2 0x2B1 JUMP JUMPDEST JUMPDEST PUSH1 0x0 PUSH2 0x1DC DUP5 DUP3 DUP6 ADD PUSH2 0x1A3 JUMP JUMPDEST SWAP2 POP POP SWAP3 SWAP2 POP POP JUMP JUMPDEST PUSH2 0x1EE DUP2 PUSH2 0x275 JUMP JUMPDEST DUP3 MSTORE POP POP JUMP JUMPDEST PUSH2 0x1FD DUP2 PUSH2 0x263 JUMP JUMPDEST DUP3 MSTORE POP POP JUMP JUMPDEST PUSH2 0x20C DUP2 PUSH2 0x2A7 JUMP JUMPDEST DUP3 MSTORE POP POP JUMP JUMPDEST PUSH1 0x0 PUSH1 0x20 DUP3 ADD SWAP1 POP PUSH2 0x227 PUSH1 0x0 DUP4 ADD DUP5 PUSH2 0x1F4 JUMP JUMPDEST SWAP3 SWAP2 POP POP JUMP JUMPDEST PUSH1 0x0 PUSH1 0x20 DUP3 ADD SWAP1 POP PUSH2 0x242 PUSH1 0x0 DUP4 ADD DUP5 PUSH2 0x1E5 JUMP JUMPDEST SWAP3 SWAP2 POP POP JUMP JUMPDEST PUSH1 0x0 PUSH1 0x20 DUP3 ADD SWAP1 POP PUSH2 0x25D PUSH1 0x0 DUP4 ADD DUP5 PUSH2 0x203 JUMP JUMPDEST SWAP3 SWAP2 POP POP JUMP JUMPDEST PUSH1 0x0 PUSH2 0x26E DUP3 PUSH2 0x287 JUMP JUMPDEST SWAP1 POP SWAP2 SWAP1 POP JUMP JUMPDEST PUSH1 0x0 PUSH2 0x280 DUP3 PUSH2 0x287 JUMP JUMPDEST SWAP1 POP SWAP2 SWAP1 POP JUMP JUMPDEST PUSH1 0x0 PUSH20 0xFFFFFFFFFFFFFFFFFFFFFFFFFFFFFFFFFFFFFFFF DUP3 AND SWAP1 POP SWAP2 SWAP1 POP JUMP JUMPDEST PUSH1 0x0 DUP2 SWAP1 POP SWAP2 SWAP1 POP JUMP JUMPDEST PUSH1 0x0 DUP1 REVERT JUMPDEST PUSH2 0x2BF DUP2 PUSH2 0x263 JUMP JUMPDEST DUP2 EQ PUSH2 0x2CA JUMPI PUSH1 0x0 DUP1 REVERT JUMPDEST POP JUMP INVALID LOG2 PUSH5 0x6970667358 0x22 SLT KECCAK256 0xC3 MUL CALLDATALOAD SWAP12 DUP3 DUP9 0xF9 SWAP15 DUP5 0xE1 0x4D PUSH26 0x21C3A3D14CAD596526AB73E2D138DD044ECB57064736F6C6343 STOP ADDMOD SMOD STOP CALLER "
				},
				"gasEstimates": {
					"creation": {
						"codeDepositCost": "154200",
						"executionCost": "68687",
						"totalCost": "222887"
					},
					"external": {
						"bidIncrement()": "2517",
						"bidsMap(address)": "2836",
						"higestBindingBid()": "2473",
						"highestBidder()": "2580",
						"owner()": "2514",
						"startBlock()": "2407"
					}
				},
				"methodIdentifiers": {
					"bidIncrement()": "b3cc167a",
					"bidsMap(address)": "8ee77512",
					"higestBindingBid()": "91c11f7d",
					"highestBidder()": "91f90157",
					"owner()": "8da5cb5b",
					"startBlock()": "48cd4cb1"
				}
			},
			"storageLayout": {
				"storage": [
					{
						"astId": 5,
						"contract": "contracts/Auctionsol.sol:Lottery",
						"label": "bidsMap",
						"offset": 0,
						"slot": "0",
						"type": "t_mapping(t_address,t_uint256)"
					},
					{
						"astId": 7,
						"contract": "contracts/Auctionsol.sol:Lottery",
						"label": "owner",
						"offset": 0,
						"slot": "1",
						"type": "t_address"
					},
					{
						"astId": 9,
						"contract": "contracts/Auctionsol.sol:Lottery",
						"label": "highestBidder",
						"offset": 0,
						"slot": "2",
						"type": "t_address_payable"
					},
					{
						"astId": 11,
						"contract": "contracts/Auctionsol.sol:Lottery",
						"label": "higestBindingBid",
						"offset": 0,
						"slot": "3",
						"type": "t_uint256"
					},
					{
						"astId": 13,
						"contract": "contracts/Auctionsol.sol:Lottery",
						"label": "bidIncrement",
						"offset": 0,
						"slot": "4",
						"type": "t_uint256"
					},
					{
						"astId": 17,
						"contract": "contracts/Auctionsol.sol:Lottery",
						"label": "startBlock",
						"offset": 0,
						"slot": "5",
						"type": "t_uint256"
					}
				],
				"types": {
					"t_address": {
						"encoding": "inplace",
						"label": "address",
						"numberOfBytes": "20"
					},
					"t_address_payable": {
						"encoding": "inplace",
						"label": "address payable",
						"numberOfBytes": "20"
					},
					"t_mapping(t_address,t_uint256)": {
						"encoding": "mapping",
						"key": "t_address",
						"label": "mapping(address => uint256)",
						"numberOfBytes": "32",
						"value": "t_uint256"
					},
					"t_uint256": {
						"encoding": "inplace",
						"label": "uint256",
						"numberOfBytes": "32"
					}
				}
			},
			"userdoc": {
				"kind": "user",
				"methods": {},
				"version": 1
			}
		}
	}
}