{
	"contracts/Crowdfunding.sol": {
		"CrowdFunding": {
			"abi": [
				{
					"inputs": [
						{
							"internalType": "uint256",
							"name": "_goal",
							"type": "uint256"
						},
						{
							"internalType": "uint256",
							"name": "_deadLine",
							"type": "uint256"
						}
					],
					"stateMutability": "nonpayable",
					"type": "constructor"
				},
				{
					"inputs": [],
					"name": "admin",
					"outputs": [
						{
							"internalType": "address",
							"name": "",
							"type": "address"
						}
					],
					"stateMutability": "view",
					"type": "function"
				},
				{
					"inputs": [],
					"name": "contribute",
					"outputs": [],
					"stateMutability": "payable",
					"type": "function"
				},
				{
					"inputs": [
						{
							"internalType": "address",
							"name": "",
							"type": "address"
						}
					],
					"name": "contributors",
					"outputs": [
						{
							"internalType": "uint256",
							"name": "",
							"type": "uint256"
						}
					],
					"stateMutability": "view",
					"type": "function"
				},
				{
					"inputs": [
						{
							"internalType": "string",
							"name": "_description",
							"type": "string"
						},
						{
							"internalType": "uint256",
							"name": "_amount",
							"type": "uint256"
						},
						{
							"internalType": "address payable",
							"name": "receiptient",
							"type": "address"
						}
					],
					"name": "createRequest",
					"outputs": [],
					"stateMutability": "nonpayable",
					"type": "function"
				},
				{
					"inputs": [],
					"name": "deadLine",
					"outputs": [
						{
							"internalType": "uint256",
							"name": "",
							"type": "uint256"
						}
					],
					"stateMutability": "view",
					"type": "function"
				},
				{
					"inputs": [],
					"name": "getBalance",
					"outputs": [
						{
							"internalType": "uint256",
							"name": "",
							"type": "uint256"
						}
					],
					"stateMutability": "view",
					"type": "function"
				},
				{
					"inputs": [],
					"name": "getRefund",
					"outputs": [],
					"stateMutability": "nonpayable",
					"type": "function"
				},
				{
					"inputs": [],
					"name": "goal",
					"outputs": [
						{
							"internalType": "uint256",
							"name": "",
							"type": "uint256"
						}
					],
					"stateMutability": "view",
					"type": "function"
				},
				{
					"inputs": [
						{
							"internalType": "uint256",
							"name": "_requestIndex",
							"type": "uint256"
						}
					],
					"name": "makePayment",
					"outputs": [],
					"stateMutability": "payable",
					"type": "function"
				},
				{
					"inputs": [],
					"name": "minimumAmount",
					"outputs": [
						{
							"internalType": "uint256",
							"name": "",
							"type": "uint256"
						}
					],
					"stateMutability": "view",
					"type": "function"
				},
				{
					"inputs": [],
					"name": "noOfRequests",
					"outputs": [
						{
							"internalType": "uint256",
							"name": "",
							"type": "uint256"
						}
					],
					"stateMutability": "view",
					"type": "function"
				},
				{
					"inputs": [],
					"name": "numberOfContributors",
					"outputs": [
						{
							"internalType": "uint256",
							"name": "",
							"type": "uint256"
						}
					],
					"stateMutability": "view",
					"type": "function"
				},
				{
					"inputs": [],
					"name": "totalAmount",
					"outputs": [
						{
							"internalType": "uint256",
							"name": "",
							"type": "uint256"
						}
					],
					"stateMutability": "view",
					"type": "function"
				},
				{
					"inputs": [
						{
							"internalType": "uint256",
							"name": "_requestIndex",
							"type": "uint256"
						}
					],
					"name": "vote",
					"outputs": [],
					"stateMutability": "nonpayable",
					"type": "function"
				},
				{
					"stateMutability": "payable",
					"type": "receive"
				}
			],
			"devdoc": {
				"kind": "dev",
				"methods": {},
				"version": 1
			},
			"evm": {
				"assembly": "    /* \"contracts/Crowdfunding.sol\":74:4118  contract CrowdFunding{\r... */\n  mstore(0x40, 0x80)\n    /* \"contracts/Crowdfunding.sol\":996:1180  constructor(uint _goal, uint _deadLine){\r... */\n  callvalue\n  dup1\n  iszero\n  tag_1\n  jumpi\n  0x00\n  dup1\n  revert\ntag_1:\n  pop\n  mload(0x40)\n  sub(codesize, bytecodeSize)\n  dup1\n  bytecodeSize\n  dup4\n  codecopy\n  dup2\n  dup2\n  add\n  0x40\n  mstore\n  dup2\n  add\n  swap1\n  tag_2\n  swap2\n  swap1\n  tag_3\n  jump\t// in\ntag_2:\n    /* \"contracts/Crowdfunding.sol\":1053:1058  _goal */\n  dup2\n    /* \"contracts/Crowdfunding.sol\":1046:1050  goal */\n  0x02\n    /* \"contracts/Crowdfunding.sol\":1046:1058  goal = _goal */\n  dup2\n  swap1\n  sstore\n  pop\n    /* \"contracts/Crowdfunding.sol\":1098:1107  _deadLine */\n  dup1\n    /* \"contracts/Crowdfunding.sol\":1080:1095  block.timestamp */\n  timestamp\n    /* \"contracts/Crowdfunding.sol\":1080:1107  block.timestamp + _deadLine */\n  tag_6\n  swap2\n  swap1\n  tag_7\n  jump\t// in\ntag_6:\n    /* \"contracts/Crowdfunding.sol\":1069:1077  deadLine */\n  0x03\n    /* \"contracts/Crowdfunding.sol\":1069:1107  deadLine = block.timestamp + _deadLine */\n  dup2\n  swap1\n  sstore\n  pop\n    /* \"contracts/Crowdfunding.sol\":1126:1136  msg.sender */\n  caller\n    /* \"contracts/Crowdfunding.sol\":1118:1123  admin */\n  0x01\n  0x00\n    /* \"contracts/Crowdfunding.sol\":1118:1136  admin = msg.sender */\n  0x0100\n  exp\n  dup2\n  sload\n  dup2\n  0xffffffffffffffffffffffffffffffffffffffff\n  mul\n  not\n  and\n  swap1\n  dup4\n  0xffffffffffffffffffffffffffffffffffffffff\n  and\n  mul\n  or\n  swap1\n  sstore\n  pop\n    /* \"contracts/Crowdfunding.sol\":1163:1172  100 ether */\n  0x056bc75e2d63100000\n    /* \"contracts/Crowdfunding.sol\":1147:1160  minimumAmount */\n  0x04\n    /* \"contracts/Crowdfunding.sol\":1147:1172  minimumAmount = 100 ether */\n  dup2\n  swap1\n  sstore\n  pop\n    /* \"contracts/Crowdfunding.sol\":996:1180  constructor(uint _goal, uint _deadLine){\r... */\n  pop\n  pop\n    /* \"contracts/Crowdfunding.sol\":74:4118  contract CrowdFunding{\r... */\n  jump(tag_8)\n    /* \"#utility.yul\":7:150   */\ntag_10:\n    /* \"#utility.yul\":64:69   */\n  0x00\n    /* \"#utility.yul\":95:101   */\n  dup2\n    /* \"#utility.yul\":89:102   */\n  mload\n    /* \"#utility.yul\":80:102   */\n  swap1\n  pop\n    /* \"#utility.yul\":111:144   */\n  tag_12\n    /* \"#utility.yul\":138:143   */\n  dup2\n    /* \"#utility.yul\":111:144   */\n  tag_13\n  jump\t// in\ntag_12:\n    /* \"#utility.yul\":7:150   */\n  swap3\n  swap2\n  pop\n  pop\n  jump\t// out\n    /* \"#utility.yul\":156:663   */\ntag_3:\n    /* \"#utility.yul\":235:241   */\n  0x00\n    /* \"#utility.yul\":243:249   */\n  dup1\n    /* \"#utility.yul\":292:294   */\n  0x40\n    /* \"#utility.yul\":280:289   */\n  dup4\n    /* \"#utility.yul\":271:278   */\n  dup6\n    /* \"#utility.yul\":267:290   */\n  sub\n    /* \"#utility.yul\":263:295   */\n  slt\n    /* \"#utility.yul\":260:379   */\n  iszero\n  tag_15\n  jumpi\n    /* \"#utility.yul\":298:377   */\n  tag_16\n  tag_17\n  jump\t// in\ntag_16:\n    /* \"#utility.yul\":260:379   */\ntag_15:\n    /* \"#utility.yul\":418:419   */\n  0x00\n    /* \"#utility.yul\":443:507   */\n  tag_18\n    /* \"#utility.yul\":499:506   */\n  dup6\n    /* \"#utility.yul\":490:496   */\n  dup3\n    /* \"#utility.yul\":479:488   */\n  dup7\n    /* \"#utility.yul\":475:497   */\n  add\n    /* \"#utility.yul\":443:507   */\n  tag_10\n  jump\t// in\ntag_18:\n    /* \"#utility.yul\":433:507   */\n  swap3\n  pop\n    /* \"#utility.yul\":389:517   */\n  pop\n    /* \"#utility.yul\":556:558   */\n  0x20\n    /* \"#utility.yul\":582:646   */\n  tag_19\n    /* \"#utility.yul\":638:645   */\n  dup6\n    /* \"#utility.yul\":629:635   */\n  dup3\n    /* \"#utility.yul\":618:627   */\n  dup7\n    /* \"#utility.yul\":614:636   */\n  add\n    /* \"#utility.yul\":582:646   */\n  tag_10\n  jump\t// in\ntag_19:\n    /* \"#utility.yul\":572:646   */\n  swap2\n  pop\n    /* \"#utility.yul\":527:656   */\n  pop\n    /* \"#utility.yul\":156:663   */\n  swap3\n  pop\n  swap3\n  swap1\n  pop\n  jump\t// out\n    /* \"#utility.yul\":750:1055   */\ntag_7:\n    /* \"#utility.yul\":790:793   */\n  0x00\n    /* \"#utility.yul\":809:829   */\n  tag_23\n    /* \"#utility.yul\":827:828   */\n  dup3\n    /* \"#utility.yul\":809:829   */\n  tag_24\n  jump\t// in\ntag_23:\n    /* \"#utility.yul\":804:829   */\n  swap2\n  pop\n    /* \"#utility.yul\":843:863   */\n  tag_25\n    /* \"#utility.yul\":861:862   */\n  dup4\n    /* \"#utility.yul\":843:863   */\n  tag_24\n  jump\t// in\ntag_25:\n    /* \"#utility.yul\":838:863   */\n  swap3\n  pop\n    /* \"#utility.yul\":997:998   */\n  dup3\n    /* \"#utility.yul\":929:995   */\n  0xffffffffffffffffffffffffffffffffffffffffffffffffffffffffffffffff\n    /* \"#utility.yul\":925:999   */\n  sub\n    /* \"#utility.yul\":922:923   */\n  dup3\n    /* \"#utility.yul\":919:1000   */\n  gt\n    /* \"#utility.yul\":916:1023   */\n  iszero\n  tag_26\n  jumpi\n    /* \"#utility.yul\":1003:1021   */\n  tag_27\n  tag_28\n  jump\t// in\ntag_27:\n    /* \"#utility.yul\":916:1023   */\ntag_26:\n    /* \"#utility.yul\":1047:1048   */\n  dup3\n    /* \"#utility.yul\":1044:1045   */\n  dup3\n    /* \"#utility.yul\":1040:1049   */\n  add\n    /* \"#utility.yul\":1033:1049   */\n  swap1\n  pop\n    /* \"#utility.yul\":750:1055   */\n  swap3\n  swap2\n  pop\n  pop\n  jump\t// out\n    /* \"#utility.yul\":1061:1138   */\ntag_24:\n    /* \"#utility.yul\":1098:1105   */\n  0x00\n    /* \"#utility.yul\":1127:1132   */\n  dup2\n    /* \"#utility.yul\":1116:1132   */\n  swap1\n  pop\n    /* \"#utility.yul\":1061:1138   */\n  swap2\n  swap1\n  pop\n  jump\t// out\n    /* \"#utility.yul\":1144:1324   */\ntag_28:\n    /* \"#utility.yul\":1192:1269   */\n  0x4e487b7100000000000000000000000000000000000000000000000000000000\n    /* \"#utility.yul\":1189:1190   */\n  0x00\n    /* \"#utility.yul\":1182:1270   */\n  mstore\n    /* \"#utility.yul\":1289:1293   */\n  0x11\n    /* \"#utility.yul\":1286:1287   */\n  0x04\n    /* \"#utility.yul\":1279:1294   */\n  mstore\n    /* \"#utility.yul\":1313:1317   */\n  0x24\n    /* \"#utility.yul\":1310:1311   */\n  0x00\n    /* \"#utility.yul\":1303:1318   */\n  revert\n    /* \"#utility.yul\":1453:1570   */\ntag_17:\n    /* \"#utility.yul\":1562:1563   */\n  0x00\n    /* \"#utility.yul\":1559:1560   */\n  dup1\n    /* \"#utility.yul\":1552:1564   */\n  revert\n    /* \"#utility.yul\":1576:1698   */\ntag_13:\n    /* \"#utility.yul\":1649:1673   */\n  tag_35\n    /* \"#utility.yul\":1667:1672   */\n  dup2\n    /* \"#utility.yul\":1649:1673   */\n  tag_24\n  jump\t// in\ntag_35:\n    /* \"#utility.yul\":1642:1647   */\n  dup2\n    /* \"#utility.yul\":1639:1674   */\n  eq\n    /* \"#utility.yul\":1629:1692   */\n  tag_36\n  jumpi\n    /* \"#utility.yul\":1688:1689   */\n  0x00\n    /* \"#utility.yul\":1685:1686   */\n  dup1\n    /* \"#utility.yul\":1678:1690   */\n  revert\n    /* \"#utility.yul\":1629:1692   */\ntag_36:\n    /* \"#utility.yul\":1576:1698   */\n  pop\n  jump\t// out\n    /* \"contracts/Crowdfunding.sol\":74:4118  contract CrowdFunding{\r... */\ntag_8:\n  dataSize(sub_0)\n  dup1\n  dataOffset(sub_0)\n  0x00\n  codecopy\n  0x00\n  return\nstop\n\nsub_0: assembly {\n        /* \"contracts/Crowdfunding.sol\":74:4118  contract CrowdFunding{\r... */\n      mstore(0x40, 0x80)\n      jumpi(tag_1, lt(calldatasize, 0x04))\n      shr(0xe0, calldataload(0x00))\n      dup1\n      0x8a9cfd55\n      gt\n      tag_17\n      jumpi\n      dup1\n      0xbef3a083\n      gt\n      tag_18\n      jumpi\n      dup1\n      0xbef3a083\n      eq\n      tag_13\n      jumpi\n      dup1\n      0xc1f11b4c\n      eq\n      tag_14\n      jumpi\n      dup1\n      0xd7bb99ba\n      eq\n      tag_15\n      jumpi\n      dup1\n      0xf851a440\n      eq\n      tag_16\n      jumpi\n      jump(tag_2)\n    tag_18:\n      dup1\n      0x8a9cfd55\n      eq\n      tag_10\n      jumpi\n      dup1\n      0xb2d5ae44\n      eq\n      tag_11\n      jumpi\n      dup1\n      0xbb0c8298\n      eq\n      tag_12\n      jumpi\n      jump(tag_2)\n    tag_17:\n      dup1\n      0x1f6d4942\n      gt\n      tag_19\n      jumpi\n      dup1\n      0x1f6d4942\n      eq\n      tag_6\n      jumpi\n      dup1\n      0x40193883\n      eq\n      tag_7\n      jumpi\n      dup1\n      0x4377cf65\n      eq\n      tag_8\n      jumpi\n      dup1\n      0x5114cb52\n      eq\n      tag_9\n      jumpi\n      jump(tag_2)\n    tag_19:\n      dup1\n      0x0121b93f\n      eq\n      tag_3\n      jumpi\n      dup1\n      0x12065fe0\n      eq\n      tag_4\n      jumpi\n      dup1\n      0x1a39d8ef\n      eq\n      tag_5\n      jumpi\n      jump(tag_2)\n    tag_1:\n      jumpi(tag_2, calldatasize)\n        /* \"contracts/Crowdfunding.sol\":2011:2023  contribute() */\n      tag_22\n        /* \"contracts/Crowdfunding.sol\":2011:2021  contribute */\n      tag_23\n        /* \"contracts/Crowdfunding.sol\":2011:2023  contribute() */\n      jump\t// in\n    tag_22:\n        /* \"contracts/Crowdfunding.sol\":74:4118  contract CrowdFunding{\r... */\n      stop\n    tag_2:\n      0x00\n      dup1\n      revert\n        /* \"contracts/Crowdfunding.sol\":3092:3639  function vote(uint _requestIndex) public {\r... */\n    tag_3:\n      callvalue\n      dup1\n      iszero\n      tag_24\n      jumpi\n      0x00\n      dup1\n      revert\n    tag_24:\n      pop\n      tag_25\n      0x04\n      dup1\n      calldatasize\n      sub\n      dup2\n      add\n      swap1\n      tag_26\n      swap2\n      swap1\n      tag_27\n      jump\t// in\n    tag_26:\n      tag_28\n      jump\t// in\n    tag_25:\n      stop\n        /* \"contracts/Crowdfunding.sol\":2039:2133  function getBalance() public view returns(uint){\r... */\n    tag_4:\n      callvalue\n      dup1\n      iszero\n      tag_29\n      jumpi\n      0x00\n      dup1\n      revert\n    tag_29:\n      pop\n      tag_30\n      tag_31\n      jump\t// in\n    tag_30:\n      mload(0x40)\n      tag_32\n      swap2\n      swap1\n      tag_33\n      jump\t// in\n    tag_32:\n      mload(0x40)\n      dup1\n      swap2\n      sub\n      swap1\n      return\n        /* \"contracts/Crowdfunding.sol\":573:596  uint public totalAmount */\n    tag_5:\n      callvalue\n      dup1\n      iszero\n      tag_34\n      jumpi\n      0x00\n      dup1\n      revert\n    tag_34:\n      pop\n      tag_35\n      tag_36\n      jump\t// in\n    tag_35:\n      mload(0x40)\n      tag_37\n      swap2\n      swap1\n      tag_33\n      jump\t// in\n    tag_37:\n      mload(0x40)\n      dup1\n      swap2\n      sub\n      swap1\n      return\n        /* \"contracts/Crowdfunding.sol\":161:205  mapping(address => uint) public contributors */\n    tag_6:\n      callvalue\n      dup1\n      iszero\n      tag_38\n      jumpi\n      0x00\n      dup1\n      revert\n    tag_38:\n      pop\n      tag_39\n      0x04\n      dup1\n      calldatasize\n      sub\n      dup2\n      add\n      swap1\n      tag_40\n      swap2\n      swap1\n      tag_41\n      jump\t// in\n    tag_40:\n      tag_42\n      jump\t// in\n    tag_39:\n      mload(0x40)\n      tag_43\n      swap2\n      swap1\n      tag_33\n      jump\t// in\n    tag_43:\n      mload(0x40)\n      dup1\n      swap2\n      sub\n      swap1\n      return\n        /* \"contracts/Crowdfunding.sol\":354:370  uint public goal */\n    tag_7:\n      callvalue\n      dup1\n      iszero\n      tag_44\n      jumpi\n      0x00\n      dup1\n      revert\n    tag_44:\n      pop\n      tag_45\n      tag_46\n      jump\t// in\n    tag_45:\n      mload(0x40)\n      tag_47\n      swap2\n      swap1\n      tag_33\n      jump\t// in\n    tag_47:\n      mload(0x40)\n      dup1\n      swap2\n      sub\n      swap1\n      return\n        /* \"contracts/Crowdfunding.sol\":633:665  uint public numberOfContributors */\n    tag_8:\n      callvalue\n      dup1\n      iszero\n      tag_48\n      jumpi\n      0x00\n      dup1\n      revert\n    tag_48:\n      pop\n      tag_49\n      tag_50\n      jump\t// in\n    tag_49:\n      mload(0x40)\n      tag_51\n      swap2\n      swap1\n      tag_33\n      jump\t// in\n    tag_51:\n      mload(0x40)\n      dup1\n      swap2\n      sub\n      swap1\n      return\n        /* \"contracts/Crowdfunding.sol\":3647:4113  function makePayment(uint _requestIndex) public payable onlyAdmin {\r... */\n    tag_9:\n      tag_52\n      0x04\n      dup1\n      calldatasize\n      sub\n      dup2\n      add\n      swap1\n      tag_53\n      swap2\n      swap1\n      tag_27\n      jump\t// in\n    tag_53:\n      tag_54\n      jump\t// in\n    tag_52:\n      stop\n        /* \"contracts/Crowdfunding.sol\":2675:3084  function createRequest(string memory _description, uint _amount, address payable receiptient) public onlyAdmin {\r... */\n    tag_10:\n      callvalue\n      dup1\n      iszero\n      tag_55\n      jumpi\n      0x00\n      dup1\n      revert\n    tag_55:\n      pop\n      tag_56\n      0x04\n      dup1\n      calldatasize\n      sub\n      dup2\n      add\n      swap1\n      tag_57\n      swap2\n      swap1\n      tag_58\n      jump\t// in\n    tag_57:\n      tag_59\n      jump\t// in\n    tag_56:\n      stop\n        /* \"contracts/Crowdfunding.sol\":2141:2579  function getRefund() public  {\r... */\n    tag_11:\n      callvalue\n      dup1\n      iszero\n      tag_60\n      jumpi\n      0x00\n      dup1\n      revert\n    tag_60:\n      pop\n      tag_61\n      tag_62\n      jump\t// in\n    tag_61:\n      stop\n        /* \"contracts/Crowdfunding.sol\":500:525  uint public minimumAmount */\n    tag_12:\n      callvalue\n      dup1\n      iszero\n      tag_63\n      jumpi\n      0x00\n      dup1\n      revert\n    tag_63:\n      pop\n      tag_64\n      tag_65\n      jump\t// in\n    tag_64:\n      mload(0x40)\n      tag_66\n      swap2\n      swap1\n      tag_33\n      jump\t// in\n    tag_66:\n      mload(0x40)\n      dup1\n      swap2\n      sub\n      swap1\n      return\n        /* \"contracts/Crowdfunding.sol\":420:440  uint public deadLine */\n    tag_13:\n      callvalue\n      dup1\n      iszero\n      tag_67\n      jumpi\n      0x00\n      dup1\n      revert\n    tag_67:\n      pop\n      tag_68\n      tag_69\n      jump\t// in\n    tag_68:\n      mload(0x40)\n      tag_70\n      swap2\n      swap1\n      tag_33\n      jump\t// in\n    tag_70:\n      mload(0x40)\n      dup1\n      swap2\n      sub\n      swap1\n      return\n        /* \"contracts/Crowdfunding.sol\":924:948  uint public noOfRequests */\n    tag_14:\n      callvalue\n      dup1\n      iszero\n      tag_71\n      jumpi\n      0x00\n      dup1\n      revert\n    tag_71:\n      pop\n      tag_72\n      tag_73\n      jump\t// in\n    tag_72:\n      mload(0x40)\n      tag_74\n      swap2\n      swap1\n      tag_33\n      jump\t// in\n    tag_74:\n      mload(0x40)\n      dup1\n      swap2\n      sub\n      swap1\n      return\n        /* \"contracts/Crowdfunding.sol\":1188:1965  function contribute() public payable{\r... */\n    tag_15:\n      tag_75\n      tag_23\n      jump\t// in\n    tag_75:\n      stop\n        /* \"contracts/Crowdfunding.sol\":240:260  address public admin */\n    tag_16:\n      callvalue\n      dup1\n      iszero\n      tag_76\n      jumpi\n      0x00\n      dup1\n      revert\n    tag_76:\n      pop\n      tag_77\n      tag_78\n      jump\t// in\n    tag_77:\n      mload(0x40)\n      tag_79\n      swap2\n      swap1\n      tag_80\n      jump\t// in\n    tag_79:\n      mload(0x40)\n      dup1\n      swap2\n      sub\n      swap1\n      return\n        /* \"contracts/Crowdfunding.sol\":1188:1965  function contribute() public payable{\r... */\n    tag_23:\n        /* \"contracts/Crowdfunding.sol\":1341:1354  minimumAmount */\n      sload(0x04)\n        /* \"contracts/Crowdfunding.sol\":1328:1337  msg.value */\n      callvalue\n        /* \"contracts/Crowdfunding.sol\":1328:1354  msg.value >= minimumAmount */\n      lt\n      iszero\n        /* \"contracts/Crowdfunding.sol\":1320:1405  require(msg.value >= minimumAmount, \"Amount must be greater than the minimum amount\") */\n      tag_82\n      jumpi\n      mload(0x40)\n      0x08c379a000000000000000000000000000000000000000000000000000000000\n      dup2\n      mstore\n      0x04\n      add\n      tag_83\n      swap1\n      tag_84\n      jump\t// in\n    tag_83:\n      mload(0x40)\n      dup1\n      swap2\n      sub\n      swap1\n      revert\n    tag_82:\n        /* \"contracts/Crowdfunding.sol\":1489:1493  goal */\n      sload(0x02)\n        /* \"contracts/Crowdfunding.sol\":1475:1486  totalAmount */\n      sload(0x05)\n        /* \"contracts/Crowdfunding.sol\":1475:1493  totalAmount < goal */\n      lt\n        /* \"contracts/Crowdfunding.sol\":1467:1531  require(totalAmount < goal, \"Goal for funding has been reached\") */\n      tag_85\n      jumpi\n      mload(0x40)\n      0x08c379a000000000000000000000000000000000000000000000000000000000\n      dup2\n      mstore\n      0x04\n      add\n      tag_86\n      swap1\n      tag_87\n      jump\t// in\n    tag_86:\n      mload(0x40)\n      dup1\n      swap2\n      sub\n      swap1\n      revert\n    tag_85:\n        /* \"contracts/Crowdfunding.sol\":1603:1611  deadLine */\n      sload(0x03)\n        /* \"contracts/Crowdfunding.sol\":1585:1600  block.timestamp */\n      timestamp\n        /* \"contracts/Crowdfunding.sol\":1585:1611  block.timestamp < deadLine */\n      lt\n        /* \"contracts/Crowdfunding.sol\":1577:1653  require(block.timestamp < deadLine, \"Time frame set for unding has elasped\") */\n      tag_88\n      jumpi\n      mload(0x40)\n      0x08c379a000000000000000000000000000000000000000000000000000000000\n      dup2\n      mstore\n      0x04\n      add\n      tag_89\n      swap1\n      tag_90\n      jump\t// in\n    tag_89:\n      mload(0x40)\n      dup1\n      swap2\n      sub\n      swap1\n      revert\n    tag_88:\n        /* \"contracts/Crowdfunding.sol\":1705:1706  0 */\n      0x00\n        /* \"contracts/Crowdfunding.sol\":1677:1689  contributors */\n      dup1\n        /* \"contracts/Crowdfunding.sol\":1677:1701  contributors[msg.sender] */\n      0x00\n        /* \"contracts/Crowdfunding.sol\":1690:1700  msg.sender */\n      caller\n        /* \"contracts/Crowdfunding.sol\":1677:1701  contributors[msg.sender] */\n      0xffffffffffffffffffffffffffffffffffffffff\n      and\n      0xffffffffffffffffffffffffffffffffffffffff\n      and\n      dup2\n      mstore\n      0x20\n      add\n      swap1\n      dup2\n      mstore\n      0x20\n      add\n      0x00\n      keccak256\n      sload\n        /* \"contracts/Crowdfunding.sol\":1677:1706  contributors[msg.sender] == 0 */\n      eq\n        /* \"contracts/Crowdfunding.sol\":1674:1756  if(contributors[msg.sender] == 0){\r... */\n      iszero\n      tag_91\n      jumpi\n        /* \"contracts/Crowdfunding.sol\":1722:1742  numberOfContributors */\n      0x06\n      0x00\n        /* \"contracts/Crowdfunding.sol\":1722:1744  numberOfContributors++ */\n      dup2\n      sload\n      dup1\n      swap3\n      swap2\n      swap1\n      tag_92\n      swap1\n      tag_93\n      jump\t// in\n    tag_92:\n      swap2\n      swap1\n      pop\n      sstore\n      pop\n        /* \"contracts/Crowdfunding.sol\":1674:1756  if(contributors[msg.sender] == 0){\r... */\n    tag_91:\n        /* \"contracts/Crowdfunding.sol\":1847:1856  msg.value */\n      callvalue\n        /* \"contracts/Crowdfunding.sol\":1819:1831  contributors */\n      0x00\n        /* \"contracts/Crowdfunding.sol\":1819:1843  contributors[msg.sender] */\n      dup1\n        /* \"contracts/Crowdfunding.sol\":1832:1842  msg.sender */\n      caller\n        /* \"contracts/Crowdfunding.sol\":1819:1843  contributors[msg.sender] */\n      0xffffffffffffffffffffffffffffffffffffffff\n      and\n      0xffffffffffffffffffffffffffffffffffffffff\n      and\n      dup2\n      mstore\n      0x20\n      add\n      swap1\n      dup2\n      mstore\n      0x20\n      add\n      0x00\n      keccak256\n      0x00\n        /* \"contracts/Crowdfunding.sol\":1819:1856  contributors[msg.sender] += msg.value */\n      dup3\n      dup3\n      sload\n      tag_94\n      swap2\n      swap1\n      tag_95\n      jump\t// in\n    tag_94:\n      swap3\n      pop\n      pop\n      dup2\n      swap1\n      sstore\n      pop\n        /* \"contracts/Crowdfunding.sol\":1946:1955  msg.value */\n      callvalue\n        /* \"contracts/Crowdfunding.sol\":1931:1942  totalAmount */\n      0x05\n      0x00\n        /* \"contracts/Crowdfunding.sol\":1931:1955  totalAmount += msg.value */\n      dup3\n      dup3\n      sload\n      tag_96\n      swap2\n      swap1\n      tag_95\n      jump\t// in\n    tag_96:\n      swap3\n      pop\n      pop\n      dup2\n      swap1\n      sstore\n      pop\n        /* \"contracts/Crowdfunding.sol\":1188:1965  function contribute() public payable{\r... */\n      jump\t// out\n        /* \"contracts/Crowdfunding.sol\":3092:3639  function vote(uint _requestIndex) public {\r... */\n    tag_28:\n        /* \"contracts/Crowdfunding.sol\":3238:3239  0 */\n      0x00\n        /* \"contracts/Crowdfunding.sol\":3211:3223  contributors */\n      dup1\n        /* \"contracts/Crowdfunding.sol\":3211:3235  contributors[msg.sender] */\n      0x00\n        /* \"contracts/Crowdfunding.sol\":3224:3234  msg.sender */\n      caller\n        /* \"contracts/Crowdfunding.sol\":3211:3235  contributors[msg.sender] */\n      0xffffffffffffffffffffffffffffffffffffffff\n      and\n      0xffffffffffffffffffffffffffffffffffffffff\n      and\n      dup2\n      mstore\n      0x20\n      add\n      swap1\n      dup2\n      mstore\n      0x20\n      add\n      0x00\n      keccak256\n      sload\n        /* \"contracts/Crowdfunding.sol\":3211:3239  contributors[msg.sender] > 0 */\n      gt\n        /* \"contracts/Crowdfunding.sol\":3203:3288  require(contributors[msg.sender] > 0, \"You must be a contributor to be able to vote\") */\n      tag_98\n      jumpi\n      mload(0x40)\n      0x08c379a000000000000000000000000000000000000000000000000000000000\n      dup2\n      mstore\n      0x04\n      add\n      tag_99\n      swap1\n      tag_100\n      jump\t// in\n    tag_99:\n      mload(0x40)\n      dup1\n      swap2\n      sub\n      swap1\n      revert\n    tag_98:\n        /* \"contracts/Crowdfunding.sol\":3301:3330  Request storage requestObject */\n      0x00\n        /* \"contracts/Crowdfunding.sol\":3333:3340  request */\n      0x08\n        /* \"contracts/Crowdfunding.sol\":3333:3355  request[_requestIndex] */\n      0x00\n        /* \"contracts/Crowdfunding.sol\":3341:3354  _requestIndex */\n      dup4\n        /* \"contracts/Crowdfunding.sol\":3333:3355  request[_requestIndex] */\n      dup2\n      mstore\n      0x20\n      add\n      swap1\n      dup2\n      mstore\n      0x20\n      add\n      0x00\n      keccak256\n        /* \"contracts/Crowdfunding.sol\":3301:3355  Request storage requestObject = request[_requestIndex] */\n      swap1\n      pop\n        /* \"contracts/Crowdfunding.sol\":3464:3469  false */\n      0x00\n        /* \"contracts/Crowdfunding.sol\":3421:3469  requestObject.votingDetails[msg.sender] == false */\n      iszero\n      iszero\n        /* \"contracts/Crowdfunding.sol\":3421:3434  requestObject */\n      dup2\n        /* \"contracts/Crowdfunding.sol\":3421:3448  requestObject.votingDetails */\n      0x06\n      add\n        /* \"contracts/Crowdfunding.sol\":3421:3460  requestObject.votingDetails[msg.sender] */\n      0x00\n        /* \"contracts/Crowdfunding.sol\":3449:3459  msg.sender */\n      caller\n        /* \"contracts/Crowdfunding.sol\":3421:3460  requestObject.votingDetails[msg.sender] */\n      0xffffffffffffffffffffffffffffffffffffffff\n      and\n      0xffffffffffffffffffffffffffffffffffffffff\n      and\n      dup2\n      mstore\n      0x20\n      add\n      swap1\n      dup2\n      mstore\n      0x20\n      add\n      0x00\n      keccak256\n      0x00\n      swap1\n      sload\n      swap1\n      0x0100\n      exp\n      swap1\n      div\n      0xff\n      and\n        /* \"contracts/Crowdfunding.sol\":3421:3469  requestObject.votingDetails[msg.sender] == false */\n      iszero\n      iszero\n      eq\n        /* \"contracts/Crowdfunding.sol\":3413:3470  require(requestObject.votingDetails[msg.sender] == false) */\n      tag_101\n      jumpi\n      0x00\n      dup1\n      revert\n    tag_101:\n        /* \"contracts/Crowdfunding.sol\":3525:3529  true */\n      0x01\n        /* \"contracts/Crowdfunding.sol\":3483:3496  requestObject */\n      dup2\n        /* \"contracts/Crowdfunding.sol\":3483:3510  requestObject.votingDetails */\n      0x06\n      add\n        /* \"contracts/Crowdfunding.sol\":3483:3522  requestObject.votingDetails[msg.sender] */\n      0x00\n        /* \"contracts/Crowdfunding.sol\":3511:3521  msg.sender */\n      caller\n        /* \"contracts/Crowdfunding.sol\":3483:3522  requestObject.votingDetails[msg.sender] */\n      0xffffffffffffffffffffffffffffffffffffffff\n      and\n      0xffffffffffffffffffffffffffffffffffffffff\n      and\n      dup2\n      mstore\n      0x20\n      add\n      swap1\n      dup2\n      mstore\n      0x20\n      add\n      0x00\n      keccak256\n      0x00\n        /* \"contracts/Crowdfunding.sol\":3483:3529  requestObject.votingDetails[msg.sender] = true */\n      0x0100\n      exp\n      dup2\n      sload\n      dup2\n      0xff\n      mul\n      not\n      and\n      swap1\n      dup4\n      iszero\n      iszero\n      mul\n      or\n      swap1\n      sstore\n      pop\n        /* \"contracts/Crowdfunding.sol\":3555:3568  requestObject */\n      dup1\n        /* \"contracts/Crowdfunding.sol\":3555:3579  requestObject.noOfVoters */\n      0x04\n      add\n      0x00\n        /* \"contracts/Crowdfunding.sol\":3555:3581  requestObject.noOfVoters++ */\n      dup2\n      sload\n      dup1\n      swap3\n      swap2\n      swap1\n      tag_102\n      swap1\n      tag_93\n      jump\t// in\n    tag_102:\n      swap2\n      swap1\n      pop\n      sstore\n      pop\n        /* \"contracts/Crowdfunding.sol\":3133:3639  {\r... */\n      pop\n        /* \"contracts/Crowdfunding.sol\":3092:3639  function vote(uint _requestIndex) public {\r... */\n      pop\n      jump\t// out\n        /* \"contracts/Crowdfunding.sol\":2039:2133  function getBalance() public view returns(uint){\r... */\n    tag_31:\n        /* \"contracts/Crowdfunding.sol\":2081:2085  uint */\n      0x00\n        /* \"contracts/Crowdfunding.sol\":2104:2125  address(this).balance */\n      selfbalance\n        /* \"contracts/Crowdfunding.sol\":2097:2125  return address(this).balance */\n      swap1\n      pop\n        /* \"contracts/Crowdfunding.sol\":2039:2133  function getBalance() public view returns(uint){\r... */\n      swap1\n      jump\t// out\n        /* \"contracts/Crowdfunding.sol\":573:596  uint public totalAmount */\n    tag_36:\n      sload(0x05)\n      dup2\n      jump\t// out\n        /* \"contracts/Crowdfunding.sol\":161:205  mapping(address => uint) public contributors */\n    tag_42:\n      mstore(0x20, 0x00)\n      dup1\n      0x00\n      mstore\n      keccak256(0x00, 0x40)\n      0x00\n      swap2\n      pop\n      swap1\n      pop\n      sload\n      dup2\n      jump\t// out\n        /* \"contracts/Crowdfunding.sol\":354:370  uint public goal */\n    tag_46:\n      sload(0x02)\n      dup2\n      jump\t// out\n        /* \"contracts/Crowdfunding.sol\":633:665  uint public numberOfContributors */\n    tag_50:\n      sload(0x06)\n      dup2\n      jump\t// out\n        /* \"contracts/Crowdfunding.sol\":3647:4113  function makePayment(uint _requestIndex) public payable onlyAdmin {\r... */\n    tag_54:\n        /* \"contracts/Crowdfunding.sol\":2641:2646  admin */\n      0x01\n      0x00\n      swap1\n      sload\n      swap1\n      0x0100\n      exp\n      swap1\n      div\n      0xffffffffffffffffffffffffffffffffffffffff\n      and\n        /* \"contracts/Crowdfunding.sol\":2627:2646  msg.sender == admin */\n      0xffffffffffffffffffffffffffffffffffffffff\n      and\n        /* \"contracts/Crowdfunding.sol\":2627:2637  msg.sender */\n      caller\n        /* \"contracts/Crowdfunding.sol\":2627:2646  msg.sender == admin */\n      0xffffffffffffffffffffffffffffffffffffffff\n      and\n      eq\n        /* \"contracts/Crowdfunding.sol\":2619:2647  require(msg.sender == admin) */\n      tag_105\n      jumpi\n      0x00\n      dup1\n      revert\n    tag_105:\n        /* \"contracts/Crowdfunding.sol\":3726:3755  Request storage requestObject */\n      0x00\n        /* \"contracts/Crowdfunding.sol\":3758:3765  request */\n      0x08\n        /* \"contracts/Crowdfunding.sol\":3758:3780  request[_requestIndex] */\n      0x00\n        /* \"contracts/Crowdfunding.sol\":3766:3779  _requestIndex */\n      dup4\n        /* \"contracts/Crowdfunding.sol\":3758:3780  request[_requestIndex] */\n      dup2\n      mstore\n      0x20\n      add\n      swap1\n      dup2\n      mstore\n      0x20\n      add\n      0x00\n      keccak256\n        /* \"contracts/Crowdfunding.sol\":3726:3780  Request storage requestObject = request[_requestIndex] */\n      swap1\n      pop\n        /* \"contracts/Crowdfunding.sol\":3849:3850  2 */\n      0x02\n        /* \"contracts/Crowdfunding.sol\":3828:3848  numberOfContributors */\n      sload(0x06)\n        /* \"contracts/Crowdfunding.sol\":3828:3850  numberOfContributors/2 */\n      tag_107\n      swap2\n      swap1\n      tag_108\n      jump\t// in\n    tag_107:\n        /* \"contracts/Crowdfunding.sol\":3801:3814  requestObject */\n      dup2\n        /* \"contracts/Crowdfunding.sol\":3801:3825  requestObject.noOfVoters */\n      0x04\n      add\n      sload\n        /* \"contracts/Crowdfunding.sol\":3801:3850  requestObject.noOfVoters > numberOfContributors/2 */\n      gt\n        /* \"contracts/Crowdfunding.sol\":3793:3851  require(requestObject.noOfVoters > numberOfContributors/2) */\n      tag_109\n      jumpi\n      0x00\n      dup1\n      revert\n    tag_109:\n        /* \"contracts/Crowdfunding.sol\":4002:4007  false */\n      0x00\n        /* \"contracts/Crowdfunding.sol\":3967:4007  requestObject.fundReleaseStatus == false */\n      iszero\n      iszero\n        /* \"contracts/Crowdfunding.sol\":3967:3980  requestObject */\n      dup2\n        /* \"contracts/Crowdfunding.sol\":3967:3998  requestObject.fundReleaseStatus */\n      0x05\n      add\n      0x00\n      swap1\n      sload\n      swap1\n      0x0100\n      exp\n      swap1\n      div\n      0xff\n      and\n        /* \"contracts/Crowdfunding.sol\":3967:4007  requestObject.fundReleaseStatus == false */\n      iszero\n      iszero\n      eq\n        /* \"contracts/Crowdfunding.sol\":3959:4008  require(requestObject.fundReleaseStatus == false) */\n      tag_110\n      jumpi\n      0x00\n      dup1\n      revert\n    tag_110:\n        /* \"contracts/Crowdfunding.sol\":4050:4063  requestObject */\n      dup1\n        /* \"contracts/Crowdfunding.sol\":4050:4072  requestObject.receiver */\n      0x02\n      add\n      0x00\n      swap1\n      sload\n      swap1\n      0x0100\n      exp\n      swap1\n      div\n      0xffffffffffffffffffffffffffffffffffffffff\n      and\n        /* \"contracts/Crowdfunding.sol\":4050:4081  requestObject.receiver.transfer */\n      0xffffffffffffffffffffffffffffffffffffffff\n      and\n        /* \"contracts/Crowdfunding.sol\":4050:4103  requestObject.receiver.transfer(requestObject.amount) */\n      0x08fc\n        /* \"contracts/Crowdfunding.sol\":4082:4095  requestObject */\n      dup3\n        /* \"contracts/Crowdfunding.sol\":4082:4102  requestObject.amount */\n      0x01\n      add\n      sload\n        /* \"contracts/Crowdfunding.sol\":4050:4103  requestObject.receiver.transfer(requestObject.amount) */\n      swap1\n      dup2\n      iszero\n      mul\n      swap1\n      mload(0x40)\n      0x00\n      mload(0x40)\n      dup1\n      dup4\n      sub\n      dup2\n      dup6\n      dup9\n      dup9\n      call\n      swap4\n      pop\n      pop\n      pop\n      pop\n      iszero\n      dup1\n      iszero\n      tag_112\n      jumpi\n      returndatasize\n      0x00\n      dup1\n      returndatacopy\n      revert(0x00, returndatasize)\n    tag_112:\n      pop\n        /* \"contracts/Crowdfunding.sol\":3713:4113  {\r... */\n      pop\n        /* \"contracts/Crowdfunding.sol\":3647:4113  function makePayment(uint _requestIndex) public payable onlyAdmin {\r... */\n      pop\n      jump\t// out\n        /* \"contracts/Crowdfunding.sol\":2675:3084  function createRequest(string memory _description, uint _amount, address payable receiptient) public onlyAdmin {\r... */\n    tag_59:\n        /* \"contracts/Crowdfunding.sol\":2641:2646  admin */\n      0x01\n      0x00\n      swap1\n      sload\n      swap1\n      0x0100\n      exp\n      swap1\n      div\n      0xffffffffffffffffffffffffffffffffffffffff\n      and\n        /* \"contracts/Crowdfunding.sol\":2627:2646  msg.sender == admin */\n      0xffffffffffffffffffffffffffffffffffffffff\n      and\n        /* \"contracts/Crowdfunding.sol\":2627:2637  msg.sender */\n      caller\n        /* \"contracts/Crowdfunding.sol\":2627:2646  msg.sender == admin */\n      0xffffffffffffffffffffffffffffffffffffffff\n      and\n      eq\n        /* \"contracts/Crowdfunding.sol\":2619:2647  require(msg.sender == admin) */\n      tag_114\n      jumpi\n      0x00\n      dup1\n      revert\n    tag_114:\n        /* \"contracts/Crowdfunding.sol\":2797:2828  Request storage _requestDetails */\n      0x00\n        /* \"contracts/Crowdfunding.sol\":2831:2838  request */\n      0x08\n        /* \"contracts/Crowdfunding.sol\":2831:2852  request[noOfRequests] */\n      0x00\n        /* \"contracts/Crowdfunding.sol\":2839:2851  noOfRequests */\n      sload(0x07)\n        /* \"contracts/Crowdfunding.sol\":2831:2852  request[noOfRequests] */\n      dup2\n      mstore\n      0x20\n      add\n      swap1\n      dup2\n      mstore\n      0x20\n      add\n      0x00\n      keccak256\n        /* \"contracts/Crowdfunding.sol\":2797:2852  Request storage _requestDetails = request[noOfRequests] */\n      swap1\n      pop\n        /* \"contracts/Crowdfunding.sol\":2893:2905  _description */\n      dup4\n        /* \"contracts/Crowdfunding.sol\":2863:2878  _requestDetails */\n      dup2\n        /* \"contracts/Crowdfunding.sol\":2863:2890  _requestDetails.description */\n      0x00\n      add\n        /* \"contracts/Crowdfunding.sol\":2863:2905  _requestDetails.description = _description */\n      swap1\n      dup1\n      mload\n      swap1\n      0x20\n      add\n      swap1\n      tag_116\n      swap3\n      swap2\n      swap1\n      tag_117\n      jump\t// in\n    tag_116:\n      pop\n        /* \"contracts/Crowdfunding.sol\":2941:2948  _amount */\n      dup3\n        /* \"contracts/Crowdfunding.sol\":2916:2931  _requestDetails */\n      dup2\n        /* \"contracts/Crowdfunding.sol\":2916:2938  _requestDetails.amount */\n      0x01\n      add\n        /* \"contracts/Crowdfunding.sol\":2916:2948  _requestDetails.amount = _amount */\n      dup2\n      swap1\n      sstore\n      pop\n        /* \"contracts/Crowdfunding.sol\":2995:3000  false */\n      0x00\n        /* \"contracts/Crowdfunding.sol\":2959:2974  _requestDetails */\n      dup2\n        /* \"contracts/Crowdfunding.sol\":2959:2992  _requestDetails.fundReleaseStatus */\n      0x05\n      add\n      0x00\n        /* \"contracts/Crowdfunding.sol\":2959:3000  _requestDetails.fundReleaseStatus = false */\n      0x0100\n      exp\n      dup2\n      sload\n      dup2\n      0xff\n      mul\n      not\n      and\n      swap1\n      dup4\n      iszero\n      iszero\n      mul\n      or\n      swap1\n      sstore\n      pop\n        /* \"contracts/Crowdfunding.sol\":3038:3049  receiptient */\n      dup2\n        /* \"contracts/Crowdfunding.sol\":3011:3026  _requestDetails */\n      dup2\n        /* \"contracts/Crowdfunding.sol\":3011:3035  _requestDetails.receiver */\n      0x02\n      add\n      0x00\n        /* \"contracts/Crowdfunding.sol\":3011:3049  _requestDetails.receiver = receiptient */\n      0x0100\n      exp\n      dup2\n      sload\n      dup2\n      0xffffffffffffffffffffffffffffffffffffffff\n      mul\n      not\n      and\n      swap1\n      dup4\n      0xffffffffffffffffffffffffffffffffffffffff\n      and\n      mul\n      or\n      swap1\n      sstore\n      pop\n        /* \"contracts/Crowdfunding.sol\":3062:3074  noOfRequests */\n      0x07\n      0x00\n        /* \"contracts/Crowdfunding.sol\":3062:3076  noOfRequests++ */\n      dup2\n      sload\n      dup1\n      swap3\n      swap2\n      swap1\n      tag_118\n      swap1\n      tag_93\n      jump\t// in\n    tag_118:\n      swap2\n      swap1\n      pop\n      sstore\n      pop\n        /* \"contracts/Crowdfunding.sol\":2786:3084  {\r... */\n      pop\n        /* \"contracts/Crowdfunding.sol\":2675:3084  function createRequest(string memory _description, uint _amount, address payable receiptient) public onlyAdmin {\r... */\n      pop\n      pop\n      pop\n      jump\t// out\n        /* \"contracts/Crowdfunding.sol\":2141:2579  function getRefund() public  {\r... */\n    tag_62:\n        /* \"contracts/Crowdfunding.sol\":2216:2217  0 */\n      0x00\n        /* \"contracts/Crowdfunding.sol\":2189:2201  contributors */\n      dup1\n        /* \"contracts/Crowdfunding.sol\":2189:2213  contributors[msg.sender] */\n      0x00\n        /* \"contracts/Crowdfunding.sol\":2202:2212  msg.sender */\n      caller\n        /* \"contracts/Crowdfunding.sol\":2189:2213  contributors[msg.sender] */\n      0xffffffffffffffffffffffffffffffffffffffff\n      and\n      0xffffffffffffffffffffffffffffffffffffffff\n      and\n      dup2\n      mstore\n      0x20\n      add\n      swap1\n      dup2\n      mstore\n      0x20\n      add\n      0x00\n      keccak256\n      sload\n        /* \"contracts/Crowdfunding.sol\":2189:2217  contributors[msg.sender] > 0 */\n      gt\n        /* \"contracts/Crowdfunding.sol\":2181:2257  require(contributors[msg.sender] > 0, \"You are not an existing contributor\") */\n      tag_120\n      jumpi\n      mload(0x40)\n      0x08c379a000000000000000000000000000000000000000000000000000000000\n      dup2\n      mstore\n      0x04\n      add\n      tag_121\n      swap1\n      tag_122\n      jump\t// in\n    tag_121:\n      mload(0x40)\n      dup1\n      swap2\n      sub\n      swap1\n      revert\n    tag_120:\n        /* \"contracts/Crowdfunding.sol\":2369:2377  deadLine */\n      sload(0x03)\n        /* \"contracts/Crowdfunding.sol\":2350:2365  block.timestamp */\n      timestamp\n        /* \"contracts/Crowdfunding.sol\":2350:2377  block.timestamp >= deadLine */\n      lt\n      iszero\n        /* \"contracts/Crowdfunding.sol\":2350:2399  block.timestamp >= deadLine && totalAmount < goal */\n      dup1\n      iszero\n      tag_123\n      jumpi\n      pop\n        /* \"contracts/Crowdfunding.sol\":2395:2399  goal */\n      sload(0x02)\n        /* \"contracts/Crowdfunding.sol\":2381:2392  totalAmount */\n      sload(0x05)\n        /* \"contracts/Crowdfunding.sol\":2381:2399  totalAmount < goal */\n      lt\n        /* \"contracts/Crowdfunding.sol\":2350:2399  block.timestamp >= deadLine && totalAmount < goal */\n    tag_123:\n        /* \"contracts/Crowdfunding.sol\":2342:2439  require(block.timestamp >= deadLine && totalAmount < goal, \"Funding time frame is yet to expire\") */\n      tag_124\n      jumpi\n      mload(0x40)\n      0x08c379a000000000000000000000000000000000000000000000000000000000\n      dup2\n      mstore\n      0x04\n      add\n      tag_125\n      swap1\n      tag_126\n      jump\t// in\n    tag_125:\n      mload(0x40)\n      dup1\n      swap2\n      sub\n      swap1\n      revert\n    tag_124:\n        /* \"contracts/Crowdfunding.sol\":2484:2494  msg.sender */\n      caller\n        /* \"contracts/Crowdfunding.sol\":2476:2504  payable(msg.sender).transfer */\n      0xffffffffffffffffffffffffffffffffffffffff\n      and\n        /* \"contracts/Crowdfunding.sol\":2476:2530  payable(msg.sender).transfer(contributors[msg.sender]) */\n      0x08fc\n        /* \"contracts/Crowdfunding.sol\":2505:2517  contributors */\n      0x00\n        /* \"contracts/Crowdfunding.sol\":2505:2529  contributors[msg.sender] */\n      dup1\n        /* \"contracts/Crowdfunding.sol\":2518:2528  msg.sender */\n      caller\n        /* \"contracts/Crowdfunding.sol\":2505:2529  contributors[msg.sender] */\n      0xffffffffffffffffffffffffffffffffffffffff\n      and\n      0xffffffffffffffffffffffffffffffffffffffff\n      and\n      dup2\n      mstore\n      0x20\n      add\n      swap1\n      dup2\n      mstore\n      0x20\n      add\n      0x00\n      keccak256\n      sload\n        /* \"contracts/Crowdfunding.sol\":2476:2530  payable(msg.sender).transfer(contributors[msg.sender]) */\n      swap1\n      dup2\n      iszero\n      mul\n      swap1\n      mload(0x40)\n      0x00\n      mload(0x40)\n      dup1\n      dup4\n      sub\n      dup2\n      dup6\n      dup9\n      dup9\n      call\n      swap4\n      pop\n      pop\n      pop\n      pop\n      iszero\n      dup1\n      iszero\n      tag_128\n      jumpi\n      returndatasize\n      0x00\n      dup1\n      returndatacopy\n      revert(0x00, returndatasize)\n    tag_128:\n      pop\n        /* \"contracts/Crowdfunding.sol\":2570:2571  0 */\n      0x00\n        /* \"contracts/Crowdfunding.sol\":2543:2555  contributors */\n      dup1\n        /* \"contracts/Crowdfunding.sol\":2543:2567  contributors[msg.sender] */\n      0x00\n        /* \"contracts/Crowdfunding.sol\":2556:2566  msg.sender */\n      caller\n        /* \"contracts/Crowdfunding.sol\":2543:2567  contributors[msg.sender] */\n      0xffffffffffffffffffffffffffffffffffffffff\n      and\n      0xffffffffffffffffffffffffffffffffffffffff\n      and\n      dup2\n      mstore\n      0x20\n      add\n      swap1\n      dup2\n      mstore\n      0x20\n      add\n      0x00\n      keccak256\n        /* \"contracts/Crowdfunding.sol\":2543:2571  contributors[msg.sender] = 0 */\n      dup2\n      swap1\n      sstore\n      pop\n        /* \"contracts/Crowdfunding.sol\":2141:2579  function getRefund() public  {\r... */\n      jump\t// out\n        /* \"contracts/Crowdfunding.sol\":500:525  uint public minimumAmount */\n    tag_65:\n      sload(0x04)\n      dup2\n      jump\t// out\n        /* \"contracts/Crowdfunding.sol\":420:440  uint public deadLine */\n    tag_69:\n      sload(0x03)\n      dup2\n      jump\t// out\n        /* \"contracts/Crowdfunding.sol\":924:948  uint public noOfRequests */\n    tag_73:\n      sload(0x07)\n      dup2\n      jump\t// out\n        /* \"contracts/Crowdfunding.sol\":240:260  address public admin */\n    tag_78:\n      0x01\n      0x00\n      swap1\n      sload\n      swap1\n      0x0100\n      exp\n      swap1\n      div\n      0xffffffffffffffffffffffffffffffffffffffff\n      and\n      dup2\n      jump\t// out\n    tag_117:\n      dup3\n      dup1\n      sload\n      tag_129\n      swap1\n      tag_130\n      jump\t// in\n    tag_129:\n      swap1\n      0x00\n      mstore\n      keccak256(0x00, 0x20)\n      swap1\n      0x1f\n      add\n      0x20\n      swap1\n      div\n      dup2\n      add\n      swap3\n      dup3\n      tag_132\n      jumpi\n      0x00\n      dup6\n      sstore\n      jump(tag_131)\n    tag_132:\n      dup3\n      0x1f\n      lt\n      tag_133\n      jumpi\n      dup1\n      mload\n      not(0xff)\n      and\n      dup4\n      dup1\n      add\n      or\n      dup6\n      sstore\n      jump(tag_131)\n    tag_133:\n      dup3\n      dup1\n      add\n      0x01\n      add\n      dup6\n      sstore\n      dup3\n      iszero\n      tag_131\n      jumpi\n      swap2\n      dup3\n      add\n    tag_134:\n      dup3\n      dup2\n      gt\n      iszero\n      tag_135\n      jumpi\n      dup3\n      mload\n      dup3\n      sstore\n      swap2\n      0x20\n      add\n      swap2\n      swap1\n      0x01\n      add\n      swap1\n      jump(tag_134)\n    tag_135:\n    tag_131:\n      pop\n      swap1\n      pop\n      tag_136\n      swap2\n      swap1\n      tag_137\n      jump\t// in\n    tag_136:\n      pop\n      swap1\n      jump\t// out\n    tag_137:\n    tag_138:\n      dup1\n      dup3\n      gt\n      iszero\n      tag_139\n      jumpi\n      0x00\n      dup2\n      0x00\n      swap1\n      sstore\n      pop\n      0x01\n      add\n      jump(tag_138)\n    tag_139:\n      pop\n      swap1\n      jump\t// out\n        /* \"#utility.yul\":7:419   */\n    tag_141:\n        /* \"#utility.yul\":85:90   */\n      0x00\n        /* \"#utility.yul\":110:176   */\n      tag_143\n        /* \"#utility.yul\":126:175   */\n      tag_144\n        /* \"#utility.yul\":168:174   */\n      dup5\n        /* \"#utility.yul\":126:175   */\n      tag_145\n      jump\t// in\n    tag_144:\n        /* \"#utility.yul\":110:176   */\n      tag_146\n      jump\t// in\n    tag_143:\n        /* \"#utility.yul\":101:176   */\n      swap1\n      pop\n        /* \"#utility.yul\":199:205   */\n      dup3\n        /* \"#utility.yul\":192:197   */\n      dup2\n        /* \"#utility.yul\":185:206   */\n      mstore\n        /* \"#utility.yul\":237:241   */\n      0x20\n        /* \"#utility.yul\":230:235   */\n      dup2\n        /* \"#utility.yul\":226:242   */\n      add\n        /* \"#utility.yul\":275:278   */\n      dup5\n        /* \"#utility.yul\":266:272   */\n      dup5\n        /* \"#utility.yul\":261:264   */\n      dup5\n        /* \"#utility.yul\":257:273   */\n      add\n        /* \"#utility.yul\":254:279   */\n      gt\n        /* \"#utility.yul\":251:363   */\n      iszero\n      tag_147\n      jumpi\n        /* \"#utility.yul\":282:361   */\n      tag_148\n      tag_149\n      jump\t// in\n    tag_148:\n        /* \"#utility.yul\":251:363   */\n    tag_147:\n        /* \"#utility.yul\":372:413   */\n      tag_150\n        /* \"#utility.yul\":406:412   */\n      dup5\n        /* \"#utility.yul\":401:404   */\n      dup3\n        /* \"#utility.yul\":396:399   */\n      dup6\n        /* \"#utility.yul\":372:413   */\n      tag_151\n      jump\t// in\n    tag_150:\n        /* \"#utility.yul\":91:419   */\n      pop\n        /* \"#utility.yul\":7:419   */\n      swap4\n      swap3\n      pop\n      pop\n      pop\n      jump\t// out\n        /* \"#utility.yul\":425:564   */\n    tag_152:\n        /* \"#utility.yul\":471:476   */\n      0x00\n        /* \"#utility.yul\":509:515   */\n      dup2\n        /* \"#utility.yul\":496:516   */\n      calldataload\n        /* \"#utility.yul\":487:516   */\n      swap1\n      pop\n        /* \"#utility.yul\":525:558   */\n      tag_154\n        /* \"#utility.yul\":552:557   */\n      dup2\n        /* \"#utility.yul\":525:558   */\n      tag_155\n      jump\t// in\n    tag_154:\n        /* \"#utility.yul\":425:564   */\n      swap3\n      swap2\n      pop\n      pop\n      jump\t// out\n        /* \"#utility.yul\":570:725   */\n    tag_156:\n        /* \"#utility.yul\":624:629   */\n      0x00\n        /* \"#utility.yul\":662:668   */\n      dup2\n        /* \"#utility.yul\":649:669   */\n      calldataload\n        /* \"#utility.yul\":640:669   */\n      swap1\n      pop\n        /* \"#utility.yul\":678:719   */\n      tag_158\n        /* \"#utility.yul\":713:718   */\n      dup2\n        /* \"#utility.yul\":678:719   */\n      tag_159\n      jump\t// in\n    tag_158:\n        /* \"#utility.yul\":570:725   */\n      swap3\n      swap2\n      pop\n      pop\n      jump\t// out\n        /* \"#utility.yul\":745:1085   */\n    tag_160:\n        /* \"#utility.yul\":801:806   */\n      0x00\n        /* \"#utility.yul\":850:853   */\n      dup3\n        /* \"#utility.yul\":843:847   */\n      0x1f\n        /* \"#utility.yul\":835:841   */\n      dup4\n        /* \"#utility.yul\":831:848   */\n      add\n        /* \"#utility.yul\":827:854   */\n      slt\n        /* \"#utility.yul\":817:939   */\n      tag_162\n      jumpi\n        /* \"#utility.yul\":858:937   */\n      tag_163\n      tag_164\n      jump\t// in\n    tag_163:\n        /* \"#utility.yul\":817:939   */\n    tag_162:\n        /* \"#utility.yul\":975:981   */\n      dup2\n        /* \"#utility.yul\":962:982   */\n      calldataload\n        /* \"#utility.yul\":1000:1079   */\n      tag_165\n        /* \"#utility.yul\":1075:1078   */\n      dup5\n        /* \"#utility.yul\":1067:1073   */\n      dup3\n        /* \"#utility.yul\":1060:1064   */\n      0x20\n        /* \"#utility.yul\":1052:1058   */\n      dup7\n        /* \"#utility.yul\":1048:1065   */\n      add\n        /* \"#utility.yul\":1000:1079   */\n      tag_141\n      jump\t// in\n    tag_165:\n        /* \"#utility.yul\":991:1079   */\n      swap2\n      pop\n        /* \"#utility.yul\":807:1085   */\n      pop\n        /* \"#utility.yul\":745:1085   */\n      swap3\n      swap2\n      pop\n      pop\n      jump\t// out\n        /* \"#utility.yul\":1091:1230   */\n    tag_166:\n        /* \"#utility.yul\":1137:1142   */\n      0x00\n        /* \"#utility.yul\":1175:1181   */\n      dup2\n        /* \"#utility.yul\":1162:1182   */\n      calldataload\n        /* \"#utility.yul\":1153:1182   */\n      swap1\n      pop\n        /* \"#utility.yul\":1191:1224   */\n      tag_168\n        /* \"#utility.yul\":1218:1223   */\n      dup2\n        /* \"#utility.yul\":1191:1224   */\n      tag_169\n      jump\t// in\n    tag_168:\n        /* \"#utility.yul\":1091:1230   */\n      swap3\n      swap2\n      pop\n      pop\n      jump\t// out\n        /* \"#utility.yul\":1236:1565   */\n    tag_41:\n        /* \"#utility.yul\":1295:1301   */\n      0x00\n        /* \"#utility.yul\":1344:1346   */\n      0x20\n        /* \"#utility.yul\":1332:1341   */\n      dup3\n        /* \"#utility.yul\":1323:1330   */\n      dup5\n        /* \"#utility.yul\":1319:1342   */\n      sub\n        /* \"#utility.yul\":1315:1347   */\n      slt\n        /* \"#utility.yul\":1312:1431   */\n      iszero\n      tag_171\n      jumpi\n        /* \"#utility.yul\":1350:1429   */\n      tag_172\n      tag_173\n      jump\t// in\n    tag_172:\n        /* \"#utility.yul\":1312:1431   */\n    tag_171:\n        /* \"#utility.yul\":1470:1471   */\n      0x00\n        /* \"#utility.yul\":1495:1548   */\n      tag_174\n        /* \"#utility.yul\":1540:1547   */\n      dup5\n        /* \"#utility.yul\":1531:1537   */\n      dup3\n        /* \"#utility.yul\":1520:1529   */\n      dup6\n        /* \"#utility.yul\":1516:1538   */\n      add\n        /* \"#utility.yul\":1495:1548   */\n      tag_152\n      jump\t// in\n    tag_174:\n        /* \"#utility.yul\":1485:1548   */\n      swap2\n      pop\n        /* \"#utility.yul\":1441:1558   */\n      pop\n        /* \"#utility.yul\":1236:1565   */\n      swap3\n      swap2\n      pop\n      pop\n      jump\t// out\n        /* \"#utility.yul\":1571:2386   */\n    tag_58:\n        /* \"#utility.yul\":1666:1672   */\n      0x00\n        /* \"#utility.yul\":1674:1680   */\n      dup1\n        /* \"#utility.yul\":1682:1688   */\n      0x00\n        /* \"#utility.yul\":1731:1733   */\n      0x60\n        /* \"#utility.yul\":1719:1728   */\n      dup5\n        /* \"#utility.yul\":1710:1717   */\n      dup7\n        /* \"#utility.yul\":1706:1729   */\n      sub\n        /* \"#utility.yul\":1702:1734   */\n      slt\n        /* \"#utility.yul\":1699:1818   */\n      iszero\n      tag_176\n      jumpi\n        /* \"#utility.yul\":1737:1816   */\n      tag_177\n      tag_173\n      jump\t// in\n    tag_177:\n        /* \"#utility.yul\":1699:1818   */\n    tag_176:\n        /* \"#utility.yul\":1885:1886   */\n      0x00\n        /* \"#utility.yul\":1874:1883   */\n      dup5\n        /* \"#utility.yul\":1870:1887   */\n      add\n        /* \"#utility.yul\":1857:1888   */\n      calldataload\n        /* \"#utility.yul\":1915:1933   */\n      0xffffffffffffffff\n        /* \"#utility.yul\":1907:1913   */\n      dup2\n        /* \"#utility.yul\":1904:1934   */\n      gt\n        /* \"#utility.yul\":1901:2018   */\n      iszero\n      tag_178\n      jumpi\n        /* \"#utility.yul\":1937:2016   */\n      tag_179\n      tag_180\n      jump\t// in\n    tag_179:\n        /* \"#utility.yul\":1901:2018   */\n    tag_178:\n        /* \"#utility.yul\":2042:2105   */\n      tag_181\n        /* \"#utility.yul\":2097:2104   */\n      dup7\n        /* \"#utility.yul\":2088:2094   */\n      dup3\n        /* \"#utility.yul\":2077:2086   */\n      dup8\n        /* \"#utility.yul\":2073:2095   */\n      add\n        /* \"#utility.yul\":2042:2105   */\n      tag_160\n      jump\t// in\n    tag_181:\n        /* \"#utility.yul\":2032:2105   */\n      swap4\n      pop\n        /* \"#utility.yul\":1828:2115   */\n      pop\n        /* \"#utility.yul\":2154:2156   */\n      0x20\n        /* \"#utility.yul\":2180:2233   */\n      tag_182\n        /* \"#utility.yul\":2225:2232   */\n      dup7\n        /* \"#utility.yul\":2216:2222   */\n      dup3\n        /* \"#utility.yul\":2205:2214   */\n      dup8\n        /* \"#utility.yul\":2201:2223   */\n      add\n        /* \"#utility.yul\":2180:2233   */\n      tag_166\n      jump\t// in\n    tag_182:\n        /* \"#utility.yul\":2170:2233   */\n      swap3\n      pop\n        /* \"#utility.yul\":2125:2243   */\n      pop\n        /* \"#utility.yul\":2282:2284   */\n      0x40\n        /* \"#utility.yul\":2308:2369   */\n      tag_183\n        /* \"#utility.yul\":2361:2368   */\n      dup7\n        /* \"#utility.yul\":2352:2358   */\n      dup3\n        /* \"#utility.yul\":2341:2350   */\n      dup8\n        /* \"#utility.yul\":2337:2359   */\n      add\n        /* \"#utility.yul\":2308:2369   */\n      tag_156\n      jump\t// in\n    tag_183:\n        /* \"#utility.yul\":2298:2369   */\n      swap2\n      pop\n        /* \"#utility.yul\":2253:2379   */\n      pop\n        /* \"#utility.yul\":1571:2386   */\n      swap3\n      pop\n      swap3\n      pop\n      swap3\n      jump\t// out\n        /* \"#utility.yul\":2392:2721   */\n    tag_27:\n        /* \"#utility.yul\":2451:2457   */\n      0x00\n        /* \"#utility.yul\":2500:2502   */\n      0x20\n        /* \"#utility.yul\":2488:2497   */\n      dup3\n        /* \"#utility.yul\":2479:2486   */\n      dup5\n        /* \"#utility.yul\":2475:2498   */\n      sub\n        /* \"#utility.yul\":2471:2503   */\n      slt\n        /* \"#utility.yul\":2468:2587   */\n      iszero\n      tag_185\n      jumpi\n        /* \"#utility.yul\":2506:2585   */\n      tag_186\n      tag_173\n      jump\t// in\n    tag_186:\n        /* \"#utility.yul\":2468:2587   */\n    tag_185:\n        /* \"#utility.yul\":2626:2627   */\n      0x00\n        /* \"#utility.yul\":2651:2704   */\n      tag_187\n        /* \"#utility.yul\":2696:2703   */\n      dup5\n        /* \"#utility.yul\":2687:2693   */\n      dup3\n        /* \"#utility.yul\":2676:2685   */\n      dup6\n        /* \"#utility.yul\":2672:2694   */\n      add\n        /* \"#utility.yul\":2651:2704   */\n      tag_166\n      jump\t// in\n    tag_187:\n        /* \"#utility.yul\":2641:2704   */\n      swap2\n      pop\n        /* \"#utility.yul\":2597:2714   */\n      pop\n        /* \"#utility.yul\":2392:2721   */\n      swap3\n      swap2\n      pop\n      pop\n      jump\t// out\n        /* \"#utility.yul\":2727:2845   */\n    tag_188:\n        /* \"#utility.yul\":2814:2838   */\n      tag_190\n        /* \"#utility.yul\":2832:2837   */\n      dup2\n        /* \"#utility.yul\":2814:2838   */\n      tag_191\n      jump\t// in\n    tag_190:\n        /* \"#utility.yul\":2809:2812   */\n      dup3\n        /* \"#utility.yul\":2802:2839   */\n      mstore\n        /* \"#utility.yul\":2727:2845   */\n      pop\n      pop\n      jump\t// out\n        /* \"#utility.yul\":2851:3217   */\n    tag_192:\n        /* \"#utility.yul\":2993:2996   */\n      0x00\n        /* \"#utility.yul\":3014:3081   */\n      tag_194\n        /* \"#utility.yul\":3078:3080   */\n      0x21\n        /* \"#utility.yul\":3073:3076   */\n      dup4\n        /* \"#utility.yul\":3014:3081   */\n      tag_195\n      jump\t// in\n    tag_194:\n        /* \"#utility.yul\":3007:3081   */\n      swap2\n      pop\n        /* \"#utility.yul\":3090:3183   */\n      tag_196\n        /* \"#utility.yul\":3179:3182   */\n      dup3\n        /* \"#utility.yul\":3090:3183   */\n      tag_197\n      jump\t// in\n    tag_196:\n        /* \"#utility.yul\":3208:3210   */\n      0x40\n        /* \"#utility.yul\":3203:3206   */\n      dup3\n        /* \"#utility.yul\":3199:3211   */\n      add\n        /* \"#utility.yul\":3192:3211   */\n      swap1\n      pop\n        /* \"#utility.yul\":2851:3217   */\n      swap2\n      swap1\n      pop\n      jump\t// out\n        /* \"#utility.yul\":3223:3589   */\n    tag_198:\n        /* \"#utility.yul\":3365:3368   */\n      0x00\n        /* \"#utility.yul\":3386:3453   */\n      tag_200\n        /* \"#utility.yul\":3450:3452   */\n      0x2c\n        /* \"#utility.yul\":3445:3448   */\n      dup4\n        /* \"#utility.yul\":3386:3453   */\n      tag_195\n      jump\t// in\n    tag_200:\n        /* \"#utility.yul\":3379:3453   */\n      swap2\n      pop\n        /* \"#utility.yul\":3462:3555   */\n      tag_201\n        /* \"#utility.yul\":3551:3554   */\n      dup3\n        /* \"#utility.yul\":3462:3555   */\n      tag_202\n      jump\t// in\n    tag_201:\n        /* \"#utility.yul\":3580:3582   */\n      0x40\n        /* \"#utility.yul\":3575:3578   */\n      dup3\n        /* \"#utility.yul\":3571:3583   */\n      add\n        /* \"#utility.yul\":3564:3583   */\n      swap1\n      pop\n        /* \"#utility.yul\":3223:3589   */\n      swap2\n      swap1\n      pop\n      jump\t// out\n        /* \"#utility.yul\":3595:3961   */\n    tag_203:\n        /* \"#utility.yul\":3737:3740   */\n      0x00\n        /* \"#utility.yul\":3758:3825   */\n      tag_205\n        /* \"#utility.yul\":3822:3824   */\n      0x23\n        /* \"#utility.yul\":3817:3820   */\n      dup4\n        /* \"#utility.yul\":3758:3825   */\n      tag_195\n      jump\t// in\n    tag_205:\n        /* \"#utility.yul\":3751:3825   */\n      swap2\n      pop\n        /* \"#utility.yul\":3834:3927   */\n      tag_206\n        /* \"#utility.yul\":3923:3926   */\n      dup3\n        /* \"#utility.yul\":3834:3927   */\n      tag_207\n      jump\t// in\n    tag_206:\n        /* \"#utility.yul\":3952:3954   */\n      0x40\n        /* \"#utility.yul\":3947:3950   */\n      dup3\n        /* \"#utility.yul\":3943:3955   */\n      add\n        /* \"#utility.yul\":3936:3955   */\n      swap1\n      pop\n        /* \"#utility.yul\":3595:3961   */\n      swap2\n      swap1\n      pop\n      jump\t// out\n        /* \"#utility.yul\":3967:4333   */\n    tag_208:\n        /* \"#utility.yul\":4109:4112   */\n      0x00\n        /* \"#utility.yul\":4130:4197   */\n      tag_210\n        /* \"#utility.yul\":4194:4196   */\n      0x23\n        /* \"#utility.yul\":4189:4192   */\n      dup4\n        /* \"#utility.yul\":4130:4197   */\n      tag_195\n      jump\t// in\n    tag_210:\n        /* \"#utility.yul\":4123:4197   */\n      swap2\n      pop\n        /* \"#utility.yul\":4206:4299   */\n      tag_211\n        /* \"#utility.yul\":4295:4298   */\n      dup3\n        /* \"#utility.yul\":4206:4299   */\n      tag_212\n      jump\t// in\n    tag_211:\n        /* \"#utility.yul\":4324:4326   */\n      0x40\n        /* \"#utility.yul\":4319:4322   */\n      dup3\n        /* \"#utility.yul\":4315:4327   */\n      add\n        /* \"#utility.yul\":4308:4327   */\n      swap1\n      pop\n        /* \"#utility.yul\":3967:4333   */\n      swap2\n      swap1\n      pop\n      jump\t// out\n        /* \"#utility.yul\":4339:4705   */\n    tag_213:\n        /* \"#utility.yul\":4481:4484   */\n      0x00\n        /* \"#utility.yul\":4502:4569   */\n      tag_215\n        /* \"#utility.yul\":4566:4568   */\n      0x25\n        /* \"#utility.yul\":4561:4564   */\n      dup4\n        /* \"#utility.yul\":4502:4569   */\n      tag_195\n      jump\t// in\n    tag_215:\n        /* \"#utility.yul\":4495:4569   */\n      swap2\n      pop\n        /* \"#utility.yul\":4578:4671   */\n      tag_216\n        /* \"#utility.yul\":4667:4670   */\n      dup3\n        /* \"#utility.yul\":4578:4671   */\n      tag_217\n      jump\t// in\n    tag_216:\n        /* \"#utility.yul\":4696:4698   */\n      0x40\n        /* \"#utility.yul\":4691:4694   */\n      dup3\n        /* \"#utility.yul\":4687:4699   */\n      add\n        /* \"#utility.yul\":4680:4699   */\n      swap1\n      pop\n        /* \"#utility.yul\":4339:4705   */\n      swap2\n      swap1\n      pop\n      jump\t// out\n        /* \"#utility.yul\":4711:5077   */\n    tag_218:\n        /* \"#utility.yul\":4853:4856   */\n      0x00\n        /* \"#utility.yul\":4874:4941   */\n      tag_220\n        /* \"#utility.yul\":4938:4940   */\n      0x2e\n        /* \"#utility.yul\":4933:4936   */\n      dup4\n        /* \"#utility.yul\":4874:4941   */\n      tag_195\n      jump\t// in\n    tag_220:\n        /* \"#utility.yul\":4867:4941   */\n      swap2\n      pop\n        /* \"#utility.yul\":4950:5043   */\n      tag_221\n        /* \"#utility.yul\":5039:5042   */\n      dup3\n        /* \"#utility.yul\":4950:5043   */\n      tag_222\n      jump\t// in\n    tag_221:\n        /* \"#utility.yul\":5068:5070   */\n      0x40\n        /* \"#utility.yul\":5063:5066   */\n      dup3\n        /* \"#utility.yul\":5059:5071   */\n      add\n        /* \"#utility.yul\":5052:5071   */\n      swap1\n      pop\n        /* \"#utility.yul\":4711:5077   */\n      swap2\n      swap1\n      pop\n      jump\t// out\n        /* \"#utility.yul\":5083:5201   */\n    tag_223:\n        /* \"#utility.yul\":5170:5194   */\n      tag_225\n        /* \"#utility.yul\":5188:5193   */\n      dup2\n        /* \"#utility.yul\":5170:5194   */\n      tag_226\n      jump\t// in\n    tag_225:\n        /* \"#utility.yul\":5165:5168   */\n      dup3\n        /* \"#utility.yul\":5158:5195   */\n      mstore\n        /* \"#utility.yul\":5083:5201   */\n      pop\n      pop\n      jump\t// out\n        /* \"#utility.yul\":5207:5429   */\n    tag_80:\n        /* \"#utility.yul\":5300:5304   */\n      0x00\n        /* \"#utility.yul\":5338:5340   */\n      0x20\n        /* \"#utility.yul\":5327:5336   */\n      dup3\n        /* \"#utility.yul\":5323:5341   */\n      add\n        /* \"#utility.yul\":5315:5341   */\n      swap1\n      pop\n        /* \"#utility.yul\":5351:5422   */\n      tag_228\n        /* \"#utility.yul\":5419:5420   */\n      0x00\n        /* \"#utility.yul\":5408:5417   */\n      dup4\n        /* \"#utility.yul\":5404:5421   */\n      add\n        /* \"#utility.yul\":5395:5401   */\n      dup5\n        /* \"#utility.yul\":5351:5422   */\n      tag_188\n      jump\t// in\n    tag_228:\n        /* \"#utility.yul\":5207:5429   */\n      swap3\n      swap2\n      pop\n      pop\n      jump\t// out\n        /* \"#utility.yul\":5435:5854   */\n    tag_87:\n        /* \"#utility.yul\":5601:5605   */\n      0x00\n        /* \"#utility.yul\":5639:5641   */\n      0x20\n        /* \"#utility.yul\":5628:5637   */\n      dup3\n        /* \"#utility.yul\":5624:5642   */\n      add\n        /* \"#utility.yul\":5616:5642   */\n      swap1\n      pop\n        /* \"#utility.yul\":5688:5697   */\n      dup2\n        /* \"#utility.yul\":5682:5686   */\n      dup2\n        /* \"#utility.yul\":5678:5698   */\n      sub\n        /* \"#utility.yul\":5674:5675   */\n      0x00\n        /* \"#utility.yul\":5663:5672   */\n      dup4\n        /* \"#utility.yul\":5659:5676   */\n      add\n        /* \"#utility.yul\":5652:5699   */\n      mstore\n        /* \"#utility.yul\":5716:5847   */\n      tag_230\n        /* \"#utility.yul\":5842:5846   */\n      dup2\n        /* \"#utility.yul\":5716:5847   */\n      tag_192\n      jump\t// in\n    tag_230:\n        /* \"#utility.yul\":5708:5847   */\n      swap1\n      pop\n        /* \"#utility.yul\":5435:5854   */\n      swap2\n      swap1\n      pop\n      jump\t// out\n        /* \"#utility.yul\":5860:6279   */\n    tag_100:\n        /* \"#utility.yul\":6026:6030   */\n      0x00\n        /* \"#utility.yul\":6064:6066   */\n      0x20\n        /* \"#utility.yul\":6053:6062   */\n      dup3\n        /* \"#utility.yul\":6049:6067   */\n      add\n        /* \"#utility.yul\":6041:6067   */\n      swap1\n      pop\n        /* \"#utility.yul\":6113:6122   */\n      dup2\n        /* \"#utility.yul\":6107:6111   */\n      dup2\n        /* \"#utility.yul\":6103:6123   */\n      sub\n        /* \"#utility.yul\":6099:6100   */\n      0x00\n        /* \"#utility.yul\":6088:6097   */\n      dup4\n        /* \"#utility.yul\":6084:6101   */\n      add\n        /* \"#utility.yul\":6077:6124   */\n      mstore\n        /* \"#utility.yul\":6141:6272   */\n      tag_232\n        /* \"#utility.yul\":6267:6271   */\n      dup2\n        /* \"#utility.yul\":6141:6272   */\n      tag_198\n      jump\t// in\n    tag_232:\n        /* \"#utility.yul\":6133:6272   */\n      swap1\n      pop\n        /* \"#utility.yul\":5860:6279   */\n      swap2\n      swap1\n      pop\n      jump\t// out\n        /* \"#utility.yul\":6285:6704   */\n    tag_126:\n        /* \"#utility.yul\":6451:6455   */\n      0x00\n        /* \"#utility.yul\":6489:6491   */\n      0x20\n        /* \"#utility.yul\":6478:6487   */\n      dup3\n        /* \"#utility.yul\":6474:6492   */\n      add\n        /* \"#utility.yul\":6466:6492   */\n      swap1\n      pop\n        /* \"#utility.yul\":6538:6547   */\n      dup2\n        /* \"#utility.yul\":6532:6536   */\n      dup2\n        /* \"#utility.yul\":6528:6548   */\n      sub\n        /* \"#utility.yul\":6524:6525   */\n      0x00\n        /* \"#utility.yul\":6513:6522   */\n      dup4\n        /* \"#utility.yul\":6509:6526   */\n      add\n        /* \"#utility.yul\":6502:6549   */\n      mstore\n        /* \"#utility.yul\":6566:6697   */\n      tag_234\n        /* \"#utility.yul\":6692:6696   */\n      dup2\n        /* \"#utility.yul\":6566:6697   */\n      tag_203\n      jump\t// in\n    tag_234:\n        /* \"#utility.yul\":6558:6697   */\n      swap1\n      pop\n        /* \"#utility.yul\":6285:6704   */\n      swap2\n      swap1\n      pop\n      jump\t// out\n        /* \"#utility.yul\":6710:7129   */\n    tag_122:\n        /* \"#utility.yul\":6876:6880   */\n      0x00\n        /* \"#utility.yul\":6914:6916   */\n      0x20\n        /* \"#utility.yul\":6903:6912   */\n      dup3\n        /* \"#utility.yul\":6899:6917   */\n      add\n        /* \"#utility.yul\":6891:6917   */\n      swap1\n      pop\n        /* \"#utility.yul\":6963:6972   */\n      dup2\n        /* \"#utility.yul\":6957:6961   */\n      dup2\n        /* \"#utility.yul\":6953:6973   */\n      sub\n        /* \"#utility.yul\":6949:6950   */\n      0x00\n        /* \"#utility.yul\":6938:6947   */\n      dup4\n        /* \"#utility.yul\":6934:6951   */\n      add\n        /* \"#utility.yul\":6927:6974   */\n      mstore\n        /* \"#utility.yul\":6991:7122   */\n      tag_236\n        /* \"#utility.yul\":7117:7121   */\n      dup2\n        /* \"#utility.yul\":6991:7122   */\n      tag_208\n      jump\t// in\n    tag_236:\n        /* \"#utility.yul\":6983:7122   */\n      swap1\n      pop\n        /* \"#utility.yul\":6710:7129   */\n      swap2\n      swap1\n      pop\n      jump\t// out\n        /* \"#utility.yul\":7135:7554   */\n    tag_90:\n        /* \"#utility.yul\":7301:7305   */\n      0x00\n        /* \"#utility.yul\":7339:7341   */\n      0x20\n        /* \"#utility.yul\":7328:7337   */\n      dup3\n        /* \"#utility.yul\":7324:7342   */\n      add\n        /* \"#utility.yul\":7316:7342   */\n      swap1\n      pop\n        /* \"#utility.yul\":7388:7397   */\n      dup2\n        /* \"#utility.yul\":7382:7386   */\n      dup2\n        /* \"#utility.yul\":7378:7398   */\n      sub\n        /* \"#utility.yul\":7374:7375   */\n      0x00\n        /* \"#utility.yul\":7363:7372   */\n      dup4\n        /* \"#utility.yul\":7359:7376   */\n      add\n        /* \"#utility.yul\":7352:7399   */\n      mstore\n        /* \"#utility.yul\":7416:7547   */\n      tag_238\n        /* \"#utility.yul\":7542:7546   */\n      dup2\n        /* \"#utility.yul\":7416:7547   */\n      tag_213\n      jump\t// in\n    tag_238:\n        /* \"#utility.yul\":7408:7547   */\n      swap1\n      pop\n        /* \"#utility.yul\":7135:7554   */\n      swap2\n      swap1\n      pop\n      jump\t// out\n        /* \"#utility.yul\":7560:7979   */\n    tag_84:\n        /* \"#utility.yul\":7726:7730   */\n      0x00\n        /* \"#utility.yul\":7764:7766   */\n      0x20\n        /* \"#utility.yul\":7753:7762   */\n      dup3\n        /* \"#utility.yul\":7749:7767   */\n      add\n        /* \"#utility.yul\":7741:7767   */\n      swap1\n      pop\n        /* \"#utility.yul\":7813:7822   */\n      dup2\n        /* \"#utility.yul\":7807:7811   */\n      dup2\n        /* \"#utility.yul\":7803:7823   */\n      sub\n        /* \"#utility.yul\":7799:7800   */\n      0x00\n        /* \"#utility.yul\":7788:7797   */\n      dup4\n        /* \"#utility.yul\":7784:7801   */\n      add\n        /* \"#utility.yul\":7777:7824   */\n      mstore\n        /* \"#utility.yul\":7841:7972   */\n      tag_240\n        /* \"#utility.yul\":7967:7971   */\n      dup2\n        /* \"#utility.yul\":7841:7972   */\n      tag_218\n      jump\t// in\n    tag_240:\n        /* \"#utility.yul\":7833:7972   */\n      swap1\n      pop\n        /* \"#utility.yul\":7560:7979   */\n      swap2\n      swap1\n      pop\n      jump\t// out\n        /* \"#utility.yul\":7985:8207   */\n    tag_33:\n        /* \"#utility.yul\":8078:8082   */\n      0x00\n        /* \"#utility.yul\":8116:8118   */\n      0x20\n        /* \"#utility.yul\":8105:8114   */\n      dup3\n        /* \"#utility.yul\":8101:8119   */\n      add\n        /* \"#utility.yul\":8093:8119   */\n      swap1\n      pop\n        /* \"#utility.yul\":8129:8200   */\n      tag_242\n        /* \"#utility.yul\":8197:8198   */\n      0x00\n        /* \"#utility.yul\":8186:8195   */\n      dup4\n        /* \"#utility.yul\":8182:8199   */\n      add\n        /* \"#utility.yul\":8173:8179   */\n      dup5\n        /* \"#utility.yul\":8129:8200   */\n      tag_223\n      jump\t// in\n    tag_242:\n        /* \"#utility.yul\":7985:8207   */\n      swap3\n      swap2\n      pop\n      pop\n      jump\t// out\n        /* \"#utility.yul\":8213:8342   */\n    tag_146:\n        /* \"#utility.yul\":8247:8253   */\n      0x00\n        /* \"#utility.yul\":8274:8294   */\n      tag_244\n      tag_245\n      jump\t// in\n    tag_244:\n        /* \"#utility.yul\":8264:8294   */\n      swap1\n      pop\n        /* \"#utility.yul\":8303:8336   */\n      tag_246\n        /* \"#utility.yul\":8331:8335   */\n      dup3\n        /* \"#utility.yul\":8323:8329   */\n      dup3\n        /* \"#utility.yul\":8303:8336   */\n      tag_247\n      jump\t// in\n    tag_246:\n        /* \"#utility.yul\":8213:8342   */\n      swap2\n      swap1\n      pop\n      jump\t// out\n        /* \"#utility.yul\":8348:8423   */\n    tag_245:\n        /* \"#utility.yul\":8381:8387   */\n      0x00\n        /* \"#utility.yul\":8414:8416   */\n      0x40\n        /* \"#utility.yul\":8408:8417   */\n      mload\n        /* \"#utility.yul\":8398:8417   */\n      swap1\n      pop\n        /* \"#utility.yul\":8348:8423   */\n      swap1\n      jump\t// out\n        /* \"#utility.yul\":8429:8737   */\n    tag_145:\n        /* \"#utility.yul\":8491:8495   */\n      0x00\n        /* \"#utility.yul\":8581:8599   */\n      0xffffffffffffffff\n        /* \"#utility.yul\":8573:8579   */\n      dup3\n        /* \"#utility.yul\":8570:8600   */\n      gt\n        /* \"#utility.yul\":8567:8623   */\n      iszero\n      tag_250\n      jumpi\n        /* \"#utility.yul\":8603:8621   */\n      tag_251\n      tag_252\n      jump\t// in\n    tag_251:\n        /* \"#utility.yul\":8567:8623   */\n    tag_250:\n        /* \"#utility.yul\":8641:8670   */\n      tag_253\n        /* \"#utility.yul\":8663:8669   */\n      dup3\n        /* \"#utility.yul\":8641:8670   */\n      tag_254\n      jump\t// in\n    tag_253:\n        /* \"#utility.yul\":8633:8670   */\n      swap1\n      pop\n        /* \"#utility.yul\":8725:8729   */\n      0x20\n        /* \"#utility.yul\":8719:8723   */\n      dup2\n        /* \"#utility.yul\":8715:8730   */\n      add\n        /* \"#utility.yul\":8707:8730   */\n      swap1\n      pop\n        /* \"#utility.yul\":8429:8737   */\n      swap2\n      swap1\n      pop\n      jump\t// out\n        /* \"#utility.yul\":8743:8912   */\n    tag_195:\n        /* \"#utility.yul\":8827:8838   */\n      0x00\n        /* \"#utility.yul\":8861:8867   */\n      dup3\n        /* \"#utility.yul\":8856:8859   */\n      dup3\n        /* \"#utility.yul\":8849:8868   */\n      mstore\n        /* \"#utility.yul\":8901:8905   */\n      0x20\n        /* \"#utility.yul\":8896:8899   */\n      dup3\n        /* \"#utility.yul\":8892:8906   */\n      add\n        /* \"#utility.yul\":8877:8906   */\n      swap1\n      pop\n        /* \"#utility.yul\":8743:8912   */\n      swap3\n      swap2\n      pop\n      pop\n      jump\t// out\n        /* \"#utility.yul\":8918:9223   */\n    tag_95:\n        /* \"#utility.yul\":8958:8961   */\n      0x00\n        /* \"#utility.yul\":8977:8997   */\n      tag_257\n        /* \"#utility.yul\":8995:8996   */\n      dup3\n        /* \"#utility.yul\":8977:8997   */\n      tag_226\n      jump\t// in\n    tag_257:\n        /* \"#utility.yul\":8972:8997   */\n      swap2\n      pop\n        /* \"#utility.yul\":9011:9031   */\n      tag_258\n        /* \"#utility.yul\":9029:9030   */\n      dup4\n        /* \"#utility.yul\":9011:9031   */\n      tag_226\n      jump\t// in\n    tag_258:\n        /* \"#utility.yul\":9006:9031   */\n      swap3\n      pop\n        /* \"#utility.yul\":9165:9166   */\n      dup3\n        /* \"#utility.yul\":9097:9163   */\n      0xffffffffffffffffffffffffffffffffffffffffffffffffffffffffffffffff\n        /* \"#utility.yul\":9093:9167   */\n      sub\n        /* \"#utility.yul\":9090:9091   */\n      dup3\n        /* \"#utility.yul\":9087:9168   */\n      gt\n        /* \"#utility.yul\":9084:9191   */\n      iszero\n      tag_259\n      jumpi\n        /* \"#utility.yul\":9171:9189   */\n      tag_260\n      tag_261\n      jump\t// in\n    tag_260:\n        /* \"#utility.yul\":9084:9191   */\n    tag_259:\n        /* \"#utility.yul\":9215:9216   */\n      dup3\n        /* \"#utility.yul\":9212:9213   */\n      dup3\n        /* \"#utility.yul\":9208:9217   */\n      add\n        /* \"#utility.yul\":9201:9217   */\n      swap1\n      pop\n        /* \"#utility.yul\":8918:9223   */\n      swap3\n      swap2\n      pop\n      pop\n      jump\t// out\n        /* \"#utility.yul\":9229:9414   */\n    tag_108:\n        /* \"#utility.yul\":9269:9270   */\n      0x00\n        /* \"#utility.yul\":9286:9306   */\n      tag_263\n        /* \"#utility.yul\":9304:9305   */\n      dup3\n        /* \"#utility.yul\":9286:9306   */\n      tag_226\n      jump\t// in\n    tag_263:\n        /* \"#utility.yul\":9281:9306   */\n      swap2\n      pop\n        /* \"#utility.yul\":9320:9340   */\n      tag_264\n        /* \"#utility.yul\":9338:9339   */\n      dup4\n        /* \"#utility.yul\":9320:9340   */\n      tag_226\n      jump\t// in\n    tag_264:\n        /* \"#utility.yul\":9315:9340   */\n      swap3\n      pop\n        /* \"#utility.yul\":9359:9360   */\n      dup3\n        /* \"#utility.yul\":9349:9384   */\n      tag_265\n      jumpi\n        /* \"#utility.yul\":9364:9382   */\n      tag_266\n      tag_267\n      jump\t// in\n    tag_266:\n        /* \"#utility.yul\":9349:9384   */\n    tag_265:\n        /* \"#utility.yul\":9406:9407   */\n      dup3\n        /* \"#utility.yul\":9403:9404   */\n      dup3\n        /* \"#utility.yul\":9399:9408   */\n      div\n        /* \"#utility.yul\":9394:9408   */\n      swap1\n      pop\n        /* \"#utility.yul\":9229:9414   */\n      swap3\n      swap2\n      pop\n      pop\n      jump\t// out\n        /* \"#utility.yul\":9420:9516   */\n    tag_191:\n        /* \"#utility.yul\":9457:9464   */\n      0x00\n        /* \"#utility.yul\":9486:9510   */\n      tag_269\n        /* \"#utility.yul\":9504:9509   */\n      dup3\n        /* \"#utility.yul\":9486:9510   */\n      tag_270\n      jump\t// in\n    tag_269:\n        /* \"#utility.yul\":9475:9510   */\n      swap1\n      pop\n        /* \"#utility.yul\":9420:9516   */\n      swap2\n      swap1\n      pop\n      jump\t// out\n        /* \"#utility.yul\":9522:9626   */\n    tag_271:\n        /* \"#utility.yul\":9567:9574   */\n      0x00\n        /* \"#utility.yul\":9596:9620   */\n      tag_273\n        /* \"#utility.yul\":9614:9619   */\n      dup3\n        /* \"#utility.yul\":9596:9620   */\n      tag_270\n      jump\t// in\n    tag_273:\n        /* \"#utility.yul\":9585:9620   */\n      swap1\n      pop\n        /* \"#utility.yul\":9522:9626   */\n      swap2\n      swap1\n      pop\n      jump\t// out\n        /* \"#utility.yul\":9632:9758   */\n    tag_270:\n        /* \"#utility.yul\":9669:9676   */\n      0x00\n        /* \"#utility.yul\":9709:9751   */\n      0xffffffffffffffffffffffffffffffffffffffff\n        /* \"#utility.yul\":9702:9707   */\n      dup3\n        /* \"#utility.yul\":9698:9752   */\n      and\n        /* \"#utility.yul\":9687:9752   */\n      swap1\n      pop\n        /* \"#utility.yul\":9632:9758   */\n      swap2\n      swap1\n      pop\n      jump\t// out\n        /* \"#utility.yul\":9764:9841   */\n    tag_226:\n        /* \"#utility.yul\":9801:9808   */\n      0x00\n        /* \"#utility.yul\":9830:9835   */\n      dup2\n        /* \"#utility.yul\":9819:9835   */\n      swap1\n      pop\n        /* \"#utility.yul\":9764:9841   */\n      swap2\n      swap1\n      pop\n      jump\t// out\n        /* \"#utility.yul\":9847:10001   */\n    tag_151:\n        /* \"#utility.yul\":9931:9937   */\n      dup3\n        /* \"#utility.yul\":9926:9929   */\n      dup2\n        /* \"#utility.yul\":9921:9924   */\n      dup4\n        /* \"#utility.yul\":9908:9938   */\n      calldatacopy\n        /* \"#utility.yul\":9993:9994   */\n      0x00\n        /* \"#utility.yul\":9984:9990   */\n      dup4\n        /* \"#utility.yul\":9979:9982   */\n      dup4\n        /* \"#utility.yul\":9975:9991   */\n      add\n        /* \"#utility.yul\":9968:9995   */\n      mstore\n        /* \"#utility.yul\":9847:10001   */\n      pop\n      pop\n      pop\n      jump\t// out\n        /* \"#utility.yul\":10007:10327   */\n    tag_130:\n        /* \"#utility.yul\":10051:10057   */\n      0x00\n        /* \"#utility.yul\":10088:10089   */\n      0x02\n        /* \"#utility.yul\":10082:10086   */\n      dup3\n        /* \"#utility.yul\":10078:10090   */\n      div\n        /* \"#utility.yul\":10068:10090   */\n      swap1\n      pop\n        /* \"#utility.yul\":10135:10136   */\n      0x01\n        /* \"#utility.yul\":10129:10133   */\n      dup3\n        /* \"#utility.yul\":10125:10137   */\n      and\n        /* \"#utility.yul\":10156:10174   */\n      dup1\n        /* \"#utility.yul\":10146:10227   */\n      tag_278\n      jumpi\n        /* \"#utility.yul\":10212:10216   */\n      0x7f\n        /* \"#utility.yul\":10204:10210   */\n      dup3\n        /* \"#utility.yul\":10200:10217   */\n      and\n        /* \"#utility.yul\":10190:10217   */\n      swap2\n      pop\n        /* \"#utility.yul\":10146:10227   */\n    tag_278:\n        /* \"#utility.yul\":10274:10276   */\n      0x20\n        /* \"#utility.yul\":10266:10272   */\n      dup3\n        /* \"#utility.yul\":10263:10277   */\n      lt\n        /* \"#utility.yul\":10243:10261   */\n      dup2\n        /* \"#utility.yul\":10240:10278   */\n      eq\n        /* \"#utility.yul\":10237:10321   */\n      iszero\n      tag_279\n      jumpi\n        /* \"#utility.yul\":10293:10311   */\n      tag_280\n      tag_281\n      jump\t// in\n    tag_280:\n        /* \"#utility.yul\":10237:10321   */\n    tag_279:\n        /* \"#utility.yul\":10058:10327   */\n      pop\n        /* \"#utility.yul\":10007:10327   */\n      swap2\n      swap1\n      pop\n      jump\t// out\n        /* \"#utility.yul\":10333:10614   */\n    tag_247:\n        /* \"#utility.yul\":10416:10443   */\n      tag_283\n        /* \"#utility.yul\":10438:10442   */\n      dup3\n        /* \"#utility.yul\":10416:10443   */\n      tag_254\n      jump\t// in\n    tag_283:\n        /* \"#utility.yul\":10408:10414   */\n      dup2\n        /* \"#utility.yul\":10404:10444   */\n      add\n        /* \"#utility.yul\":10546:10552   */\n      dup2\n        /* \"#utility.yul\":10534:10544   */\n      dup2\n        /* \"#utility.yul\":10531:10553   */\n      lt\n        /* \"#utility.yul\":10510:10528   */\n      0xffffffffffffffff\n        /* \"#utility.yul\":10498:10508   */\n      dup3\n        /* \"#utility.yul\":10495:10529   */\n      gt\n        /* \"#utility.yul\":10492:10554   */\n      or\n        /* \"#utility.yul\":10489:10577   */\n      iszero\n      tag_284\n      jumpi\n        /* \"#utility.yul\":10557:10575   */\n      tag_285\n      tag_252\n      jump\t// in\n    tag_285:\n        /* \"#utility.yul\":10489:10577   */\n    tag_284:\n        /* \"#utility.yul\":10597:10607   */\n      dup1\n        /* \"#utility.yul\":10593:10595   */\n      0x40\n        /* \"#utility.yul\":10586:10608   */\n      mstore\n        /* \"#utility.yul\":10376:10614   */\n      pop\n        /* \"#utility.yul\":10333:10614   */\n      pop\n      pop\n      jump\t// out\n        /* \"#utility.yul\":10620:10853   */\n    tag_93:\n        /* \"#utility.yul\":10659:10662   */\n      0x00\n        /* \"#utility.yul\":10682:10706   */\n      tag_287\n        /* \"#utility.yul\":10700:10705   */\n      dup3\n        /* \"#utility.yul\":10682:10706   */\n      tag_226\n      jump\t// in\n    tag_287:\n        /* \"#utility.yul\":10673:10706   */\n      swap2\n      pop\n        /* \"#utility.yul\":10728:10794   */\n      0xffffffffffffffffffffffffffffffffffffffffffffffffffffffffffffffff\n        /* \"#utility.yul\":10721:10726   */\n      dup3\n        /* \"#utility.yul\":10718:10795   */\n      eq\n        /* \"#utility.yul\":10715:10818   */\n      iszero\n      tag_288\n      jumpi\n        /* \"#utility.yul\":10798:10816   */\n      tag_289\n      tag_261\n      jump\t// in\n    tag_289:\n        /* \"#utility.yul\":10715:10818   */\n    tag_288:\n        /* \"#utility.yul\":10845:10846   */\n      0x01\n        /* \"#utility.yul\":10838:10843   */\n      dup3\n        /* \"#utility.yul\":10834:10847   */\n      add\n        /* \"#utility.yul\":10827:10847   */\n      swap1\n      pop\n        /* \"#utility.yul\":10620:10853   */\n      swap2\n      swap1\n      pop\n      jump\t// out\n        /* \"#utility.yul\":10859:11039   */\n    tag_261:\n        /* \"#utility.yul\":10907:10984   */\n      0x4e487b7100000000000000000000000000000000000000000000000000000000\n        /* \"#utility.yul\":10904:10905   */\n      0x00\n        /* \"#utility.yul\":10897:10985   */\n      mstore\n        /* \"#utility.yul\":11004:11008   */\n      0x11\n        /* \"#utility.yul\":11001:11002   */\n      0x04\n        /* \"#utility.yul\":10994:11009   */\n      mstore\n        /* \"#utility.yul\":11028:11032   */\n      0x24\n        /* \"#utility.yul\":11025:11026   */\n      0x00\n        /* \"#utility.yul\":11018:11033   */\n      revert\n        /* \"#utility.yul\":11045:11225   */\n    tag_267:\n        /* \"#utility.yul\":11093:11170   */\n      0x4e487b7100000000000000000000000000000000000000000000000000000000\n        /* \"#utility.yul\":11090:11091   */\n      0x00\n        /* \"#utility.yul\":11083:11171   */\n      mstore\n        /* \"#utility.yul\":11190:11194   */\n      0x12\n        /* \"#utility.yul\":11187:11188   */\n      0x04\n        /* \"#utility.yul\":11180:11195   */\n      mstore\n        /* \"#utility.yul\":11214:11218   */\n      0x24\n        /* \"#utility.yul\":11211:11212   */\n      0x00\n        /* \"#utility.yul\":11204:11219   */\n      revert\n        /* \"#utility.yul\":11231:11411   */\n    tag_281:\n        /* \"#utility.yul\":11279:11356   */\n      0x4e487b7100000000000000000000000000000000000000000000000000000000\n        /* \"#utility.yul\":11276:11277   */\n      0x00\n        /* \"#utility.yul\":11269:11357   */\n      mstore\n        /* \"#utility.yul\":11376:11380   */\n      0x22\n        /* \"#utility.yul\":11373:11374   */\n      0x04\n        /* \"#utility.yul\":11366:11381   */\n      mstore\n        /* \"#utility.yul\":11400:11404   */\n      0x24\n        /* \"#utility.yul\":11397:11398   */\n      0x00\n        /* \"#utility.yul\":11390:11405   */\n      revert\n        /* \"#utility.yul\":11417:11597   */\n    tag_252:\n        /* \"#utility.yul\":11465:11542   */\n      0x4e487b7100000000000000000000000000000000000000000000000000000000\n        /* \"#utility.yul\":11462:11463   */\n      0x00\n        /* \"#utility.yul\":11455:11543   */\n      mstore\n        /* \"#utility.yul\":11562:11566   */\n      0x41\n        /* \"#utility.yul\":11559:11560   */\n      0x04\n        /* \"#utility.yul\":11552:11567   */\n      mstore\n        /* \"#utility.yul\":11586:11590   */\n      0x24\n        /* \"#utility.yul\":11583:11584   */\n      0x00\n        /* \"#utility.yul\":11576:11591   */\n      revert\n        /* \"#utility.yul\":11603:11720   */\n    tag_164:\n        /* \"#utility.yul\":11712:11713   */\n      0x00\n        /* \"#utility.yul\":11709:11710   */\n      dup1\n        /* \"#utility.yul\":11702:11714   */\n      revert\n        /* \"#utility.yul\":11726:11843   */\n    tag_149:\n        /* \"#utility.yul\":11835:11836   */\n      0x00\n        /* \"#utility.yul\":11832:11833   */\n      dup1\n        /* \"#utility.yul\":11825:11837   */\n      revert\n        /* \"#utility.yul\":11849:11966   */\n    tag_180:\n        /* \"#utility.yul\":11958:11959   */\n      0x00\n        /* \"#utility.yul\":11955:11956   */\n      dup1\n        /* \"#utility.yul\":11948:11960   */\n      revert\n        /* \"#utility.yul\":11972:12089   */\n    tag_173:\n        /* \"#utility.yul\":12081:12082   */\n      0x00\n        /* \"#utility.yul\":12078:12079   */\n      dup1\n        /* \"#utility.yul\":12071:12083   */\n      revert\n        /* \"#utility.yul\":12095:12197   */\n    tag_254:\n        /* \"#utility.yul\":12136:12142   */\n      0x00\n        /* \"#utility.yul\":12187:12189   */\n      0x1f\n        /* \"#utility.yul\":12183:12190   */\n      not\n        /* \"#utility.yul\":12178:12180   */\n      0x1f\n        /* \"#utility.yul\":12171:12176   */\n      dup4\n        /* \"#utility.yul\":12167:12181   */\n      add\n        /* \"#utility.yul\":12163:12191   */\n      and\n        /* \"#utility.yul\":12153:12191   */\n      swap1\n      pop\n        /* \"#utility.yul\":12095:12197   */\n      swap2\n      swap1\n      pop\n      jump\t// out\n        /* \"#utility.yul\":12203:12423   */\n    tag_197:\n        /* \"#utility.yul\":12343:12377   */\n      0x476f616c20666f722066756e64696e6720686173206265656e20726561636865\n        /* \"#utility.yul\":12339:12340   */\n      0x00\n        /* \"#utility.yul\":12331:12337   */\n      dup3\n        /* \"#utility.yul\":12327:12341   */\n      add\n        /* \"#utility.yul\":12320:12378   */\n      mstore\n        /* \"#utility.yul\":12412:12415   */\n      0x6400000000000000000000000000000000000000000000000000000000000000\n        /* \"#utility.yul\":12407:12409   */\n      0x20\n        /* \"#utility.yul\":12399:12405   */\n      dup3\n        /* \"#utility.yul\":12395:12410   */\n      add\n        /* \"#utility.yul\":12388:12416   */\n      mstore\n        /* \"#utility.yul\":12203:12423   */\n      pop\n      jump\t// out\n        /* \"#utility.yul\":12429:12660   */\n    tag_202:\n        /* \"#utility.yul\":12569:12603   */\n      0x596f75206d757374206265206120636f6e7472696275746f7220746f20626520\n        /* \"#utility.yul\":12565:12566   */\n      0x00\n        /* \"#utility.yul\":12557:12563   */\n      dup3\n        /* \"#utility.yul\":12553:12567   */\n      add\n        /* \"#utility.yul\":12546:12604   */\n      mstore\n        /* \"#utility.yul\":12638:12652   */\n      0x61626c6520746f20766f74650000000000000000000000000000000000000000\n        /* \"#utility.yul\":12633:12635   */\n      0x20\n        /* \"#utility.yul\":12625:12631   */\n      dup3\n        /* \"#utility.yul\":12621:12636   */\n      add\n        /* \"#utility.yul\":12614:12653   */\n      mstore\n        /* \"#utility.yul\":12429:12660   */\n      pop\n      jump\t// out\n        /* \"#utility.yul\":12666:12888   */\n    tag_207:\n        /* \"#utility.yul\":12806:12840   */\n      0x46756e64696e672074696d65206672616d652069732079657420746f20657870\n        /* \"#utility.yul\":12802:12803   */\n      0x00\n        /* \"#utility.yul\":12794:12800   */\n      dup3\n        /* \"#utility.yul\":12790:12804   */\n      add\n        /* \"#utility.yul\":12783:12841   */\n      mstore\n        /* \"#utility.yul\":12875:12880   */\n      0x6972650000000000000000000000000000000000000000000000000000000000\n        /* \"#utility.yul\":12870:12872   */\n      0x20\n        /* \"#utility.yul\":12862:12868   */\n      dup3\n        /* \"#utility.yul\":12858:12873   */\n      add\n        /* \"#utility.yul\":12851:12881   */\n      mstore\n        /* \"#utility.yul\":12666:12888   */\n      pop\n      jump\t// out\n        /* \"#utility.yul\":12894:13116   */\n    tag_212:\n        /* \"#utility.yul\":13034:13068   */\n      0x596f7520617265206e6f7420616e206578697374696e6720636f6e7472696275\n        /* \"#utility.yul\":13030:13031   */\n      0x00\n        /* \"#utility.yul\":13022:13028   */\n      dup3\n        /* \"#utility.yul\":13018:13032   */\n      add\n        /* \"#utility.yul\":13011:13069   */\n      mstore\n        /* \"#utility.yul\":13103:13108   */\n      0x746f720000000000000000000000000000000000000000000000000000000000\n        /* \"#utility.yul\":13098:13100   */\n      0x20\n        /* \"#utility.yul\":13090:13096   */\n      dup3\n        /* \"#utility.yul\":13086:13101   */\n      add\n        /* \"#utility.yul\":13079:13109   */\n      mstore\n        /* \"#utility.yul\":12894:13116   */\n      pop\n      jump\t// out\n        /* \"#utility.yul\":13122:13346   */\n    tag_217:\n        /* \"#utility.yul\":13262:13296   */\n      0x54696d65206672616d652073657420666f7220756e64696e672068617320656c\n        /* \"#utility.yul\":13258:13259   */\n      0x00\n        /* \"#utility.yul\":13250:13256   */\n      dup3\n        /* \"#utility.yul\":13246:13260   */\n      add\n        /* \"#utility.yul\":13239:13297   */\n      mstore\n        /* \"#utility.yul\":13331:13338   */\n      0x6173706564000000000000000000000000000000000000000000000000000000\n        /* \"#utility.yul\":13326:13328   */\n      0x20\n        /* \"#utility.yul\":13318:13324   */\n      dup3\n        /* \"#utility.yul\":13314:13329   */\n      add\n        /* \"#utility.yul\":13307:13339   */\n      mstore\n        /* \"#utility.yul\":13122:13346   */\n      pop\n      jump\t// out\n        /* \"#utility.yul\":13352:13585   */\n    tag_222:\n        /* \"#utility.yul\":13492:13526   */\n      0x416d6f756e74206d7573742062652067726561746572207468616e2074686520\n        /* \"#utility.yul\":13488:13489   */\n      0x00\n        /* \"#utility.yul\":13480:13486   */\n      dup3\n        /* \"#utility.yul\":13476:13490   */\n      add\n        /* \"#utility.yul\":13469:13527   */\n      mstore\n        /* \"#utility.yul\":13561:13577   */\n      0x6d696e696d756d20616d6f756e74000000000000000000000000000000000000\n        /* \"#utility.yul\":13556:13558   */\n      0x20\n        /* \"#utility.yul\":13548:13554   */\n      dup3\n        /* \"#utility.yul\":13544:13559   */\n      add\n        /* \"#utility.yul\":13537:13578   */\n      mstore\n        /* \"#utility.yul\":13352:13585   */\n      pop\n      jump\t// out\n        /* \"#utility.yul\":13591:13713   */\n    tag_155:\n        /* \"#utility.yul\":13664:13688   */\n      tag_306\n        /* \"#utility.yul\":13682:13687   */\n      dup2\n        /* \"#utility.yul\":13664:13688   */\n      tag_191\n      jump\t// in\n    tag_306:\n        /* \"#utility.yul\":13657:13662   */\n      dup2\n        /* \"#utility.yul\":13654:13689   */\n      eq\n        /* \"#utility.yul\":13644:13707   */\n      tag_307\n      jumpi\n        /* \"#utility.yul\":13703:13704   */\n      0x00\n        /* \"#utility.yul\":13700:13701   */\n      dup1\n        /* \"#utility.yul\":13693:13705   */\n      revert\n        /* \"#utility.yul\":13644:13707   */\n    tag_307:\n        /* \"#utility.yul\":13591:13713   */\n      pop\n      jump\t// out\n        /* \"#utility.yul\":13719:13857   */\n    tag_159:\n        /* \"#utility.yul\":13800:13832   */\n      tag_309\n        /* \"#utility.yul\":13826:13831   */\n      dup2\n        /* \"#utility.yul\":13800:13832   */\n      tag_271\n      jump\t// in\n    tag_309:\n        /* \"#utility.yul\":13793:13798   */\n      dup2\n        /* \"#utility.yul\":13790:13833   */\n      eq\n        /* \"#utility.yul\":13780:13851   */\n      tag_310\n      jumpi\n        /* \"#utility.yul\":13847:13848   */\n      0x00\n        /* \"#utility.yul\":13844:13845   */\n      dup1\n        /* \"#utility.yul\":13837:13849   */\n      revert\n        /* \"#utility.yul\":13780:13851   */\n    tag_310:\n        /* \"#utility.yul\":13719:13857   */\n      pop\n      jump\t// out\n        /* \"#utility.yul\":13863:13985   */\n    tag_169:\n        /* \"#utility.yul\":13936:13960   */\n      tag_312\n        /* \"#utility.yul\":13954:13959   */\n      dup2\n        /* \"#utility.yul\":13936:13960   */\n      tag_226\n      jump\t// in\n    tag_312:\n        /* \"#utility.yul\":13929:13934   */\n      dup2\n        /* \"#utility.yul\":13926:13961   */\n      eq\n        /* \"#utility.yul\":13916:13979   */\n      tag_313\n      jumpi\n        /* \"#utility.yul\":13975:13976   */\n      0x00\n        /* \"#utility.yul\":13972:13973   */\n      dup1\n        /* \"#utility.yul\":13965:13977   */\n      revert\n        /* \"#utility.yul\":13916:13979   */\n    tag_313:\n        /* \"#utility.yul\":13863:13985   */\n      pop\n      jump\t// out\n\n    auxdata: 0xa2646970667358221220ef0d158e368d56171960ff7644ddb55cf9fd8c07f7ac37f85f45b582cc52667664736f6c63430008070033\n}\n",
				"bytecode": {
					"linkReferences": {},
					"object": "60806040523480156200001157600080fd5b5060405162001564380380620015648339818101604052810190620000379190620000c2565b8160028190555080426200004c919062000109565b60038190555033600160006101000a81548173ffffffffffffffffffffffffffffffffffffffff021916908373ffffffffffffffffffffffffffffffffffffffff16021790555068056bc75e2d631000006004819055505050620001be565b600081519050620000bc81620001a4565b92915050565b60008060408385031215620000dc57620000db6200019f565b5b6000620000ec85828601620000ab565b9250506020620000ff85828601620000ab565b9150509250929050565b6000620001168262000166565b9150620001238362000166565b9250827fffffffffffffffffffffffffffffffffffffffffffffffffffffffffffffffff038211156200015b576200015a62000170565b5b828201905092915050565b6000819050919050565b7f4e487b7100000000000000000000000000000000000000000000000000000000600052601160045260246000fd5b600080fd5b620001af8162000166565b8114620001bb57600080fd5b50565b61139680620001ce6000396000f3fe6080604052600436106100e15760003560e01c80638a9cfd551161007f578063bef3a08311610059578063bef3a0831461028e578063c1f11b4c146102b9578063d7bb99ba146102e4578063f851a440146102ee576100f0565b80638a9cfd5514610223578063b2d5ae441461024c578063bb0c829814610263576100f0565b80631f6d4942116100bb5780631f6d49421461017457806340193883146101b15780634377cf65146101dc5780635114cb5214610207576100f0565b80630121b93f146100f557806312065fe01461011e5780631a39d8ef14610149576100f0565b366100f0576100ee610319565b005b600080fd5b34801561010157600080fd5b5061011c60048036038101906101179190610c56565b6104b8565b005b34801561012a57600080fd5b50610133610627565b6040516101409190610e4e565b60405180910390f35b34801561015557600080fd5b5061015e61062f565b60405161016b9190610e4e565b60405180910390f35b34801561018057600080fd5b5061019b60048036038101906101969190610bba565b610635565b6040516101a89190610e4e565b60405180910390f35b3480156101bd57600080fd5b506101c661064d565b6040516101d39190610e4e565b60405180910390f35b3480156101e857600080fd5b506101f1610653565b6040516101fe9190610e4e565b60405180910390f35b610221600480360381019061021c9190610c56565b610659565b005b34801561022f57600080fd5b5061024a60048036038101906102459190610be7565b61077d565b005b34801561025857600080fd5b50610261610890565b005b34801561026f57600080fd5b50610278610a30565b6040516102859190610e4e565b60405180910390f35b34801561029a57600080fd5b506102a3610a36565b6040516102b09190610e4e565b60405180910390f35b3480156102c557600080fd5b506102ce610a3c565b6040516102db9190610e4e565b60405180910390f35b6102ec610319565b005b3480156102fa57600080fd5b50610303610a42565b6040516103109190610d73565b60405180910390f35b60045434101561035e576040517f08c379a000000000000000000000000000000000000000000000000000000000815260040161035590610e2e565b60405180910390fd5b600254600554106103a4576040517f08c379a000000000000000000000000000000000000000000000000000000000815260040161039b90610d8e565b60405180910390fd5b60035442106103e8576040517f08c379a00000000000000000000000000000000000000000000000000000000081526004016103df90610e0e565b60405180910390fd5b60008060003373ffffffffffffffffffffffffffffffffffffffff1673ffffffffffffffffffffffffffffffffffffffff168152602001908152602001600020541415610448576006600081548092919061044290611017565b91905055505b346000803373ffffffffffffffffffffffffffffffffffffffff1673ffffffffffffffffffffffffffffffffffffffff16815260200190815260200160002060008282546104969190610ed0565b9250508190555034600560008282546104af9190610ed0565b92505081905550565b60008060003373ffffffffffffffffffffffffffffffffffffffff1673ffffffffffffffffffffffffffffffffffffffff1681526020019081526020016000205411610539576040517f08c379a000000000000000000000000000000000000000000000000000000000815260040161053090610dae565b60405180910390fd5b6000600860008381526020019081526020016000209050600015158160060160003373ffffffffffffffffffffffffffffffffffffffff1673ffffffffffffffffffffffffffffffffffffffff16815260200190815260200160002060009054906101000a900460ff161515146105af57600080fd5b60018160060160003373ffffffffffffffffffffffffffffffffffffffff1673ffffffffffffffffffffffffffffffffffffffff16815260200190815260200160002060006101000a81548160ff02191690831515021790555080600401600081548092919061061e90611017565b91905055505050565b600047905090565b60055481565b60006020528060005260406000206000915090505481565b60025481565b60065481565b600160009054906101000a900473ffffffffffffffffffffffffffffffffffffffff1673ffffffffffffffffffffffffffffffffffffffff163373ffffffffffffffffffffffffffffffffffffffff16146106b357600080fd5b600060086000838152602001908152602001600020905060026006546106d99190610f26565b8160040154116106e857600080fd5b600015158160050160009054906101000a900460ff1615151461070a57600080fd5b8060020160009054906101000a900473ffffffffffffffffffffffffffffffffffffffff1673ffffffffffffffffffffffffffffffffffffffff166108fc82600101549081150290604051600060405180830381858888f19350505050158015610778573d6000803e3d6000fd5b505050565b600160009054906101000a900473ffffffffffffffffffffffffffffffffffffffff1673ffffffffffffffffffffffffffffffffffffffff163373ffffffffffffffffffffffffffffffffffffffff16146107d757600080fd5b6000600860006007548152602001908152602001600020905083816000019080519060200190610808929190610a68565b5082816001018190555060008160050160006101000a81548160ff021916908315150217905550818160020160006101000a81548173ffffffffffffffffffffffffffffffffffffffff021916908373ffffffffffffffffffffffffffffffffffffffff1602179055506007600081548092919061088590611017565b919050555050505050565b60008060003373ffffffffffffffffffffffffffffffffffffffff1673ffffffffffffffffffffffffffffffffffffffff1681526020019081526020016000205411610911576040517f08c379a000000000000000000000000000000000000000000000000000000000815260040161090890610dee565b60405180910390fd5b60035442101580156109265750600254600554105b610965576040517f08c379a000000000000000000000000000000000000000000000000000000000815260040161095c90610dce565b60405180910390fd5b3373ffffffffffffffffffffffffffffffffffffffff166108fc6000803373ffffffffffffffffffffffffffffffffffffffff1673ffffffffffffffffffffffffffffffffffffffff168152602001908152602001600020549081150290604051600060405180830381858888f193505050501580156109e9573d6000803e3d6000fd5b5060008060003373ffffffffffffffffffffffffffffffffffffffff1673ffffffffffffffffffffffffffffffffffffffff16815260200190815260200160002081905550565b60045481565b60035481565b60075481565b600160009054906101000a900473ffffffffffffffffffffffffffffffffffffffff1681565b828054610a7490610fb4565b90600052602060002090601f016020900481019282610a965760008555610add565b82601f10610aaf57805160ff1916838001178555610add565b82800160010185558215610add579182015b82811115610adc578251825591602001919060010190610ac1565b5b509050610aea9190610aee565b5090565b5b80821115610b07576000816000905550600101610aef565b5090565b6000610b1e610b1984610e8e565b610e69565b905082815260208101848484011115610b3a57610b39611121565b5b610b45848285610fa5565b509392505050565b600081359050610b5c8161131b565b92915050565b600081359050610b7181611332565b92915050565b600082601f830112610b8c57610b8b61111c565b5b8135610b9c848260208601610b0b565b91505092915050565b600081359050610bb481611349565b92915050565b600060208284031215610bd057610bcf61112b565b5b6000610bde84828501610b4d565b91505092915050565b600080600060608486031215610c0057610bff61112b565b5b600084013567ffffffffffffffff811115610c1e57610c1d611126565b5b610c2a86828701610b77565b9350506020610c3b86828701610ba5565b9250506040610c4c86828701610b62565b9150509250925092565b600060208284031215610c6c57610c6b61112b565b5b6000610c7a84828501610ba5565b91505092915050565b610c8c81610f57565b82525050565b6000610c9f602183610ebf565b9150610caa82611141565b604082019050919050565b6000610cc2602c83610ebf565b9150610ccd82611190565b604082019050919050565b6000610ce5602383610ebf565b9150610cf0826111df565b604082019050919050565b6000610d08602383610ebf565b9150610d138261122e565b604082019050919050565b6000610d2b602583610ebf565b9150610d368261127d565b604082019050919050565b6000610d4e602e83610ebf565b9150610d59826112cc565b604082019050919050565b610d6d81610f9b565b82525050565b6000602082019050610d886000830184610c83565b92915050565b60006020820190508181036000830152610da781610c92565b9050919050565b60006020820190508181036000830152610dc781610cb5565b9050919050565b60006020820190508181036000830152610de781610cd8565b9050919050565b60006020820190508181036000830152610e0781610cfb565b9050919050565b60006020820190508181036000830152610e2781610d1e565b9050919050565b60006020820190508181036000830152610e4781610d41565b9050919050565b6000602082019050610e636000830184610d64565b92915050565b6000610e73610e84565b9050610e7f8282610fe6565b919050565b6000604051905090565b600067ffffffffffffffff821115610ea957610ea86110ed565b5b610eb282611130565b9050602081019050919050565b600082825260208201905092915050565b6000610edb82610f9b565b9150610ee683610f9b565b9250827fffffffffffffffffffffffffffffffffffffffffffffffffffffffffffffffff03821115610f1b57610f1a611060565b5b828201905092915050565b6000610f3182610f9b565b9150610f3c83610f9b565b925082610f4c57610f4b61108f565b5b828204905092915050565b6000610f6282610f7b565b9050919050565b6000610f7482610f7b565b9050919050565b600073ffffffffffffffffffffffffffffffffffffffff82169050919050565b6000819050919050565b82818337600083830152505050565b60006002820490506001821680610fcc57607f821691505b60208210811415610fe057610fdf6110be565b5b50919050565b610fef82611130565b810181811067ffffffffffffffff8211171561100e5761100d6110ed565b5b80604052505050565b600061102282610f9b565b91507fffffffffffffffffffffffffffffffffffffffffffffffffffffffffffffffff82141561105557611054611060565b5b600182019050919050565b7f4e487b7100000000000000000000000000000000000000000000000000000000600052601160045260246000fd5b7f4e487b7100000000000000000000000000000000000000000000000000000000600052601260045260246000fd5b7f4e487b7100000000000000000000000000000000000000000000000000000000600052602260045260246000fd5b7f4e487b7100000000000000000000000000000000000000000000000000000000600052604160045260246000fd5b600080fd5b600080fd5b600080fd5b600080fd5b6000601f19601f8301169050919050565b7f476f616c20666f722066756e64696e6720686173206265656e2072656163686560008201527f6400000000000000000000000000000000000000000000000000000000000000602082015250565b7f596f75206d757374206265206120636f6e7472696275746f7220746f2062652060008201527f61626c6520746f20766f74650000000000000000000000000000000000000000602082015250565b7f46756e64696e672074696d65206672616d652069732079657420746f2065787060008201527f6972650000000000000000000000000000000000000000000000000000000000602082015250565b7f596f7520617265206e6f7420616e206578697374696e6720636f6e747269627560008201527f746f720000000000000000000000000000000000000000000000000000000000602082015250565b7f54696d65206672616d652073657420666f7220756e64696e672068617320656c60008201527f6173706564000000000000000000000000000000000000000000000000000000602082015250565b7f416d6f756e74206d7573742062652067726561746572207468616e207468652060008201527f6d696e696d756d20616d6f756e74000000000000000000000000000000000000602082015250565b61132481610f57565b811461132f57600080fd5b50565b61133b81610f69565b811461134657600080fd5b50565b61135281610f9b565b811461135d57600080fd5b5056fea2646970667358221220ef0d158e368d56171960ff7644ddb55cf9fd8c07f7ac37f85f45b582cc52667664736f6c63430008070033",
					"opcodes": "PUSH1 0x80 PUSH1 0x40 MSTORE CALLVALUE DUP1 ISZERO PUSH3 0x11 JUMPI PUSH1 0x0 DUP1 REVERT JUMPDEST POP PUSH1 0x40 MLOAD PUSH3 0x1564 CODESIZE SUB DUP1 PUSH3 0x1564 DUP4 CODECOPY DUP2 DUP2 ADD PUSH1 0x40 MSTORE DUP2 ADD SWAP1 PUSH3 0x37 SWAP2 SWAP1 PUSH3 0xC2 JUMP JUMPDEST DUP2 PUSH1 0x2 DUP2 SWAP1 SSTORE POP DUP1 TIMESTAMP PUSH3 0x4C SWAP2 SWAP1 PUSH3 0x109 JUMP JUMPDEST PUSH1 0x3 DUP2 SWAP1 SSTORE POP CALLER PUSH1 0x1 PUSH1 0x0 PUSH2 0x100 EXP DUP2 SLOAD DUP2 PUSH20 0xFFFFFFFFFFFFFFFFFFFFFFFFFFFFFFFFFFFFFFFF MUL NOT AND SWAP1 DUP4 PUSH20 0xFFFFFFFFFFFFFFFFFFFFFFFFFFFFFFFFFFFFFFFF AND MUL OR SWAP1 SSTORE POP PUSH9 0x56BC75E2D63100000 PUSH1 0x4 DUP2 SWAP1 SSTORE POP POP POP PUSH3 0x1BE JUMP JUMPDEST PUSH1 0x0 DUP2 MLOAD SWAP1 POP PUSH3 0xBC DUP2 PUSH3 0x1A4 JUMP JUMPDEST SWAP3 SWAP2 POP POP JUMP JUMPDEST PUSH1 0x0 DUP1 PUSH1 0x40 DUP4 DUP6 SUB SLT ISZERO PUSH3 0xDC JUMPI PUSH3 0xDB PUSH3 0x19F JUMP JUMPDEST JUMPDEST PUSH1 0x0 PUSH3 0xEC DUP6 DUP3 DUP7 ADD PUSH3 0xAB JUMP JUMPDEST SWAP3 POP POP PUSH1 0x20 PUSH3 0xFF DUP6 DUP3 DUP7 ADD PUSH3 0xAB JUMP JUMPDEST SWAP2 POP POP SWAP3 POP SWAP3 SWAP1 POP JUMP JUMPDEST PUSH1 0x0 PUSH3 0x116 DUP3 PUSH3 0x166 JUMP JUMPDEST SWAP2 POP PUSH3 0x123 DUP4 PUSH3 0x166 JUMP JUMPDEST SWAP3 POP DUP3 PUSH32 0xFFFFFFFFFFFFFFFFFFFFFFFFFFFFFFFFFFFFFFFFFFFFFFFFFFFFFFFFFFFFFFFF SUB DUP3 GT ISZERO PUSH3 0x15B JUMPI PUSH3 0x15A PUSH3 0x170 JUMP JUMPDEST JUMPDEST DUP3 DUP3 ADD SWAP1 POP SWAP3 SWAP2 POP POP JUMP JUMPDEST PUSH1 0x0 DUP2 SWAP1 POP SWAP2 SWAP1 POP JUMP JUMPDEST PUSH32 0x4E487B7100000000000000000000000000000000000000000000000000000000 PUSH1 0x0 MSTORE PUSH1 0x11 PUSH1 0x4 MSTORE PUSH1 0x24 PUSH1 0x0 REVERT JUMPDEST PUSH1 0x0 DUP1 REVERT JUMPDEST PUSH3 0x1AF DUP2 PUSH3 0x166 JUMP JUMPDEST DUP2 EQ PUSH3 0x1BB JUMPI PUSH1 0x0 DUP1 REVERT JUMPDEST POP JUMP JUMPDEST PUSH2 0x1396 DUP1 PUSH3 0x1CE PUSH1 0x0 CODECOPY PUSH1 0x0 RETURN INVALID PUSH1 0x80 PUSH1 0x40 MSTORE PUSH1 0x4 CALLDATASIZE LT PUSH2 0xE1 JUMPI PUSH1 0x0 CALLDATALOAD PUSH1 0xE0 SHR DUP1 PUSH4 0x8A9CFD55 GT PUSH2 0x7F JUMPI DUP1 PUSH4 0xBEF3A083 GT PUSH2 0x59 JUMPI DUP1 PUSH4 0xBEF3A083 EQ PUSH2 0x28E JUMPI DUP1 PUSH4 0xC1F11B4C EQ PUSH2 0x2B9 JUMPI DUP1 PUSH4 0xD7BB99BA EQ PUSH2 0x2E4 JUMPI DUP1 PUSH4 0xF851A440 EQ PUSH2 0x2EE JUMPI PUSH2 0xF0 JUMP JUMPDEST DUP1 PUSH4 0x8A9CFD55 EQ PUSH2 0x223 JUMPI DUP1 PUSH4 0xB2D5AE44 EQ PUSH2 0x24C JUMPI DUP1 PUSH4 0xBB0C8298 EQ PUSH2 0x263 JUMPI PUSH2 0xF0 JUMP JUMPDEST DUP1 PUSH4 0x1F6D4942 GT PUSH2 0xBB JUMPI DUP1 PUSH4 0x1F6D4942 EQ PUSH2 0x174 JUMPI DUP1 PUSH4 0x40193883 EQ PUSH2 0x1B1 JUMPI DUP1 PUSH4 0x4377CF65 EQ PUSH2 0x1DC JUMPI DUP1 PUSH4 0x5114CB52 EQ PUSH2 0x207 JUMPI PUSH2 0xF0 JUMP JUMPDEST DUP1 PUSH4 0x121B93F EQ PUSH2 0xF5 JUMPI DUP1 PUSH4 0x12065FE0 EQ PUSH2 0x11E JUMPI DUP1 PUSH4 0x1A39D8EF EQ PUSH2 0x149 JUMPI PUSH2 0xF0 JUMP JUMPDEST CALLDATASIZE PUSH2 0xF0 JUMPI PUSH2 0xEE PUSH2 0x319 JUMP JUMPDEST STOP JUMPDEST PUSH1 0x0 DUP1 REVERT JUMPDEST CALLVALUE DUP1 ISZERO PUSH2 0x101 JUMPI PUSH1 0x0 DUP1 REVERT JUMPDEST POP PUSH2 0x11C PUSH1 0x4 DUP1 CALLDATASIZE SUB DUP2 ADD SWAP1 PUSH2 0x117 SWAP2 SWAP1 PUSH2 0xC56 JUMP JUMPDEST PUSH2 0x4B8 JUMP JUMPDEST STOP JUMPDEST CALLVALUE DUP1 ISZERO PUSH2 0x12A JUMPI PUSH1 0x0 DUP1 REVERT JUMPDEST POP PUSH2 0x133 PUSH2 0x627 JUMP JUMPDEST PUSH1 0x40 MLOAD PUSH2 0x140 SWAP2 SWAP1 PUSH2 0xE4E JUMP JUMPDEST PUSH1 0x40 MLOAD DUP1 SWAP2 SUB SWAP1 RETURN JUMPDEST CALLVALUE DUP1 ISZERO PUSH2 0x155 JUMPI PUSH1 0x0 DUP1 REVERT JUMPDEST POP PUSH2 0x15E PUSH2 0x62F JUMP JUMPDEST PUSH1 0x40 MLOAD PUSH2 0x16B SWAP2 SWAP1 PUSH2 0xE4E JUMP JUMPDEST PUSH1 0x40 MLOAD DUP1 SWAP2 SUB SWAP1 RETURN JUMPDEST CALLVALUE DUP1 ISZERO PUSH2 0x180 JUMPI PUSH1 0x0 DUP1 REVERT JUMPDEST POP PUSH2 0x19B PUSH1 0x4 DUP1 CALLDATASIZE SUB DUP2 ADD SWAP1 PUSH2 0x196 SWAP2 SWAP1 PUSH2 0xBBA JUMP JUMPDEST PUSH2 0x635 JUMP JUMPDEST PUSH1 0x40 MLOAD PUSH2 0x1A8 SWAP2 SWAP1 PUSH2 0xE4E JUMP JUMPDEST PUSH1 0x40 MLOAD DUP1 SWAP2 SUB SWAP1 RETURN JUMPDEST CALLVALUE DUP1 ISZERO PUSH2 0x1BD JUMPI PUSH1 0x0 DUP1 REVERT JUMPDEST POP PUSH2 0x1C6 PUSH2 0x64D JUMP JUMPDEST PUSH1 0x40 MLOAD PUSH2 0x1D3 SWAP2 SWAP1 PUSH2 0xE4E JUMP JUMPDEST PUSH1 0x40 MLOAD DUP1 SWAP2 SUB SWAP1 RETURN JUMPDEST CALLVALUE DUP1 ISZERO PUSH2 0x1E8 JUMPI PUSH1 0x0 DUP1 REVERT JUMPDEST POP PUSH2 0x1F1 PUSH2 0x653 JUMP JUMPDEST PUSH1 0x40 MLOAD PUSH2 0x1FE SWAP2 SWAP1 PUSH2 0xE4E JUMP JUMPDEST PUSH1 0x40 MLOAD DUP1 SWAP2 SUB SWAP1 RETURN JUMPDEST PUSH2 0x221 PUSH1 0x4 DUP1 CALLDATASIZE SUB DUP2 ADD SWAP1 PUSH2 0x21C SWAP2 SWAP1 PUSH2 0xC56 JUMP JUMPDEST PUSH2 0x659 JUMP JUMPDEST STOP JUMPDEST CALLVALUE DUP1 ISZERO PUSH2 0x22F JUMPI PUSH1 0x0 DUP1 REVERT JUMPDEST POP PUSH2 0x24A PUSH1 0x4 DUP1 CALLDATASIZE SUB DUP2 ADD SWAP1 PUSH2 0x245 SWAP2 SWAP1 PUSH2 0xBE7 JUMP JUMPDEST PUSH2 0x77D JUMP JUMPDEST STOP JUMPDEST CALLVALUE DUP1 ISZERO PUSH2 0x258 JUMPI PUSH1 0x0 DUP1 REVERT JUMPDEST POP PUSH2 0x261 PUSH2 0x890 JUMP JUMPDEST STOP JUMPDEST CALLVALUE DUP1 ISZERO PUSH2 0x26F JUMPI PUSH1 0x0 DUP1 REVERT JUMPDEST POP PUSH2 0x278 PUSH2 0xA30 JUMP JUMPDEST PUSH1 0x40 MLOAD PUSH2 0x285 SWAP2 SWAP1 PUSH2 0xE4E JUMP JUMPDEST PUSH1 0x40 MLOAD DUP1 SWAP2 SUB SWAP1 RETURN JUMPDEST CALLVALUE DUP1 ISZERO PUSH2 0x29A JUMPI PUSH1 0x0 DUP1 REVERT JUMPDEST POP PUSH2 0x2A3 PUSH2 0xA36 JUMP JUMPDEST PUSH1 0x40 MLOAD PUSH2 0x2B0 SWAP2 SWAP1 PUSH2 0xE4E JUMP JUMPDEST PUSH1 0x40 MLOAD DUP1 SWAP2 SUB SWAP1 RETURN JUMPDEST CALLVALUE DUP1 ISZERO PUSH2 0x2C5 JUMPI PUSH1 0x0 DUP1 REVERT JUMPDEST POP PUSH2 0x2CE PUSH2 0xA3C JUMP JUMPDEST PUSH1 0x40 MLOAD PUSH2 0x2DB SWAP2 SWAP1 PUSH2 0xE4E JUMP JUMPDEST PUSH1 0x40 MLOAD DUP1 SWAP2 SUB SWAP1 RETURN JUMPDEST PUSH2 0x2EC PUSH2 0x319 JUMP JUMPDEST STOP JUMPDEST CALLVALUE DUP1 ISZERO PUSH2 0x2FA JUMPI PUSH1 0x0 DUP1 REVERT JUMPDEST POP PUSH2 0x303 PUSH2 0xA42 JUMP JUMPDEST PUSH1 0x40 MLOAD PUSH2 0x310 SWAP2 SWAP1 PUSH2 0xD73 JUMP JUMPDEST PUSH1 0x40 MLOAD DUP1 SWAP2 SUB SWAP1 RETURN JUMPDEST PUSH1 0x4 SLOAD CALLVALUE LT ISZERO PUSH2 0x35E JUMPI PUSH1 0x40 MLOAD PUSH32 0x8C379A000000000000000000000000000000000000000000000000000000000 DUP2 MSTORE PUSH1 0x4 ADD PUSH2 0x355 SWAP1 PUSH2 0xE2E JUMP JUMPDEST PUSH1 0x40 MLOAD DUP1 SWAP2 SUB SWAP1 REVERT JUMPDEST PUSH1 0x2 SLOAD PUSH1 0x5 SLOAD LT PUSH2 0x3A4 JUMPI PUSH1 0x40 MLOAD PUSH32 0x8C379A000000000000000000000000000000000000000000000000000000000 DUP2 MSTORE PUSH1 0x4 ADD PUSH2 0x39B SWAP1 PUSH2 0xD8E JUMP JUMPDEST PUSH1 0x40 MLOAD DUP1 SWAP2 SUB SWAP1 REVERT JUMPDEST PUSH1 0x3 SLOAD TIMESTAMP LT PUSH2 0x3E8 JUMPI PUSH1 0x40 MLOAD PUSH32 0x8C379A000000000000000000000000000000000000000000000000000000000 DUP2 MSTORE PUSH1 0x4 ADD PUSH2 0x3DF SWAP1 PUSH2 0xE0E JUMP JUMPDEST PUSH1 0x40 MLOAD DUP1 SWAP2 SUB SWAP1 REVERT JUMPDEST PUSH1 0x0 DUP1 PUSH1 0x0 CALLER PUSH20 0xFFFFFFFFFFFFFFFFFFFFFFFFFFFFFFFFFFFFFFFF AND PUSH20 0xFFFFFFFFFFFFFFFFFFFFFFFFFFFFFFFFFFFFFFFF AND DUP2 MSTORE PUSH1 0x20 ADD SWAP1 DUP2 MSTORE PUSH1 0x20 ADD PUSH1 0x0 KECCAK256 SLOAD EQ ISZERO PUSH2 0x448 JUMPI PUSH1 0x6 PUSH1 0x0 DUP2 SLOAD DUP1 SWAP3 SWAP2 SWAP1 PUSH2 0x442 SWAP1 PUSH2 0x1017 JUMP JUMPDEST SWAP2 SWAP1 POP SSTORE POP JUMPDEST CALLVALUE PUSH1 0x0 DUP1 CALLER PUSH20 0xFFFFFFFFFFFFFFFFFFFFFFFFFFFFFFFFFFFFFFFF AND PUSH20 0xFFFFFFFFFFFFFFFFFFFFFFFFFFFFFFFFFFFFFFFF AND DUP2 MSTORE PUSH1 0x20 ADD SWAP1 DUP2 MSTORE PUSH1 0x20 ADD PUSH1 0x0 KECCAK256 PUSH1 0x0 DUP3 DUP3 SLOAD PUSH2 0x496 SWAP2 SWAP1 PUSH2 0xED0 JUMP JUMPDEST SWAP3 POP POP DUP2 SWAP1 SSTORE POP CALLVALUE PUSH1 0x5 PUSH1 0x0 DUP3 DUP3 SLOAD PUSH2 0x4AF SWAP2 SWAP1 PUSH2 0xED0 JUMP JUMPDEST SWAP3 POP POP DUP2 SWAP1 SSTORE POP JUMP JUMPDEST PUSH1 0x0 DUP1 PUSH1 0x0 CALLER PUSH20 0xFFFFFFFFFFFFFFFFFFFFFFFFFFFFFFFFFFFFFFFF AND PUSH20 0xFFFFFFFFFFFFFFFFFFFFFFFFFFFFFFFFFFFFFFFF AND DUP2 MSTORE PUSH1 0x20 ADD SWAP1 DUP2 MSTORE PUSH1 0x20 ADD PUSH1 0x0 KECCAK256 SLOAD GT PUSH2 0x539 JUMPI PUSH1 0x40 MLOAD PUSH32 0x8C379A000000000000000000000000000000000000000000000000000000000 DUP2 MSTORE PUSH1 0x4 ADD PUSH2 0x530 SWAP1 PUSH2 0xDAE JUMP JUMPDEST PUSH1 0x40 MLOAD DUP1 SWAP2 SUB SWAP1 REVERT JUMPDEST PUSH1 0x0 PUSH1 0x8 PUSH1 0x0 DUP4 DUP2 MSTORE PUSH1 0x20 ADD SWAP1 DUP2 MSTORE PUSH1 0x20 ADD PUSH1 0x0 KECCAK256 SWAP1 POP PUSH1 0x0 ISZERO ISZERO DUP2 PUSH1 0x6 ADD PUSH1 0x0 CALLER PUSH20 0xFFFFFFFFFFFFFFFFFFFFFFFFFFFFFFFFFFFFFFFF AND PUSH20 0xFFFFFFFFFFFFFFFFFFFFFFFFFFFFFFFFFFFFFFFF AND DUP2 MSTORE PUSH1 0x20 ADD SWAP1 DUP2 MSTORE PUSH1 0x20 ADD PUSH1 0x0 KECCAK256 PUSH1 0x0 SWAP1 SLOAD SWAP1 PUSH2 0x100 EXP SWAP1 DIV PUSH1 0xFF AND ISZERO ISZERO EQ PUSH2 0x5AF JUMPI PUSH1 0x0 DUP1 REVERT JUMPDEST PUSH1 0x1 DUP2 PUSH1 0x6 ADD PUSH1 0x0 CALLER PUSH20 0xFFFFFFFFFFFFFFFFFFFFFFFFFFFFFFFFFFFFFFFF AND PUSH20 0xFFFFFFFFFFFFFFFFFFFFFFFFFFFFFFFFFFFFFFFF AND DUP2 MSTORE PUSH1 0x20 ADD SWAP1 DUP2 MSTORE PUSH1 0x20 ADD PUSH1 0x0 KECCAK256 PUSH1 0x0 PUSH2 0x100 EXP DUP2 SLOAD DUP2 PUSH1 0xFF MUL NOT AND SWAP1 DUP4 ISZERO ISZERO MUL OR SWAP1 SSTORE POP DUP1 PUSH1 0x4 ADD PUSH1 0x0 DUP2 SLOAD DUP1 SWAP3 SWAP2 SWAP1 PUSH2 0x61E SWAP1 PUSH2 0x1017 JUMP JUMPDEST SWAP2 SWAP1 POP SSTORE POP POP POP JUMP JUMPDEST PUSH1 0x0 SELFBALANCE SWAP1 POP SWAP1 JUMP JUMPDEST PUSH1 0x5 SLOAD DUP2 JUMP JUMPDEST PUSH1 0x0 PUSH1 0x20 MSTORE DUP1 PUSH1 0x0 MSTORE PUSH1 0x40 PUSH1 0x0 KECCAK256 PUSH1 0x0 SWAP2 POP SWAP1 POP SLOAD DUP2 JUMP JUMPDEST PUSH1 0x2 SLOAD DUP2 JUMP JUMPDEST PUSH1 0x6 SLOAD DUP2 JUMP JUMPDEST PUSH1 0x1 PUSH1 0x0 SWAP1 SLOAD SWAP1 PUSH2 0x100 EXP SWAP1 DIV PUSH20 0xFFFFFFFFFFFFFFFFFFFFFFFFFFFFFFFFFFFFFFFF AND PUSH20 0xFFFFFFFFFFFFFFFFFFFFFFFFFFFFFFFFFFFFFFFF AND CALLER PUSH20 0xFFFFFFFFFFFFFFFFFFFFFFFFFFFFFFFFFFFFFFFF AND EQ PUSH2 0x6B3 JUMPI PUSH1 0x0 DUP1 REVERT JUMPDEST PUSH1 0x0 PUSH1 0x8 PUSH1 0x0 DUP4 DUP2 MSTORE PUSH1 0x20 ADD SWAP1 DUP2 MSTORE PUSH1 0x20 ADD PUSH1 0x0 KECCAK256 SWAP1 POP PUSH1 0x2 PUSH1 0x6 SLOAD PUSH2 0x6D9 SWAP2 SWAP1 PUSH2 0xF26 JUMP JUMPDEST DUP2 PUSH1 0x4 ADD SLOAD GT PUSH2 0x6E8 JUMPI PUSH1 0x0 DUP1 REVERT JUMPDEST PUSH1 0x0 ISZERO ISZERO DUP2 PUSH1 0x5 ADD PUSH1 0x0 SWAP1 SLOAD SWAP1 PUSH2 0x100 EXP SWAP1 DIV PUSH1 0xFF AND ISZERO ISZERO EQ PUSH2 0x70A JUMPI PUSH1 0x0 DUP1 REVERT JUMPDEST DUP1 PUSH1 0x2 ADD PUSH1 0x0 SWAP1 SLOAD SWAP1 PUSH2 0x100 EXP SWAP1 DIV PUSH20 0xFFFFFFFFFFFFFFFFFFFFFFFFFFFFFFFFFFFFFFFF AND PUSH20 0xFFFFFFFFFFFFFFFFFFFFFFFFFFFFFFFFFFFFFFFF AND PUSH2 0x8FC DUP3 PUSH1 0x1 ADD SLOAD SWAP1 DUP2 ISZERO MUL SWAP1 PUSH1 0x40 MLOAD PUSH1 0x0 PUSH1 0x40 MLOAD DUP1 DUP4 SUB DUP2 DUP6 DUP9 DUP9 CALL SWAP4 POP POP POP POP ISZERO DUP1 ISZERO PUSH2 0x778 JUMPI RETURNDATASIZE PUSH1 0x0 DUP1 RETURNDATACOPY RETURNDATASIZE PUSH1 0x0 REVERT JUMPDEST POP POP POP JUMP JUMPDEST PUSH1 0x1 PUSH1 0x0 SWAP1 SLOAD SWAP1 PUSH2 0x100 EXP SWAP1 DIV PUSH20 0xFFFFFFFFFFFFFFFFFFFFFFFFFFFFFFFFFFFFFFFF AND PUSH20 0xFFFFFFFFFFFFFFFFFFFFFFFFFFFFFFFFFFFFFFFF AND CALLER PUSH20 0xFFFFFFFFFFFFFFFFFFFFFFFFFFFFFFFFFFFFFFFF AND EQ PUSH2 0x7D7 JUMPI PUSH1 0x0 DUP1 REVERT JUMPDEST PUSH1 0x0 PUSH1 0x8 PUSH1 0x0 PUSH1 0x7 SLOAD DUP2 MSTORE PUSH1 0x20 ADD SWAP1 DUP2 MSTORE PUSH1 0x20 ADD PUSH1 0x0 KECCAK256 SWAP1 POP DUP4 DUP2 PUSH1 0x0 ADD SWAP1 DUP1 MLOAD SWAP1 PUSH1 0x20 ADD SWAP1 PUSH2 0x808 SWAP3 SWAP2 SWAP1 PUSH2 0xA68 JUMP JUMPDEST POP DUP3 DUP2 PUSH1 0x1 ADD DUP2 SWAP1 SSTORE POP PUSH1 0x0 DUP2 PUSH1 0x5 ADD PUSH1 0x0 PUSH2 0x100 EXP DUP2 SLOAD DUP2 PUSH1 0xFF MUL NOT AND SWAP1 DUP4 ISZERO ISZERO MUL OR SWAP1 SSTORE POP DUP2 DUP2 PUSH1 0x2 ADD PUSH1 0x0 PUSH2 0x100 EXP DUP2 SLOAD DUP2 PUSH20 0xFFFFFFFFFFFFFFFFFFFFFFFFFFFFFFFFFFFFFFFF MUL NOT AND SWAP1 DUP4 PUSH20 0xFFFFFFFFFFFFFFFFFFFFFFFFFFFFFFFFFFFFFFFF AND MUL OR SWAP1 SSTORE POP PUSH1 0x7 PUSH1 0x0 DUP2 SLOAD DUP1 SWAP3 SWAP2 SWAP1 PUSH2 0x885 SWAP1 PUSH2 0x1017 JUMP JUMPDEST SWAP2 SWAP1 POP SSTORE POP POP POP POP POP JUMP JUMPDEST PUSH1 0x0 DUP1 PUSH1 0x0 CALLER PUSH20 0xFFFFFFFFFFFFFFFFFFFFFFFFFFFFFFFFFFFFFFFF AND PUSH20 0xFFFFFFFFFFFFFFFFFFFFFFFFFFFFFFFFFFFFFFFF AND DUP2 MSTORE PUSH1 0x20 ADD SWAP1 DUP2 MSTORE PUSH1 0x20 ADD PUSH1 0x0 KECCAK256 SLOAD GT PUSH2 0x911 JUMPI PUSH1 0x40 MLOAD PUSH32 0x8C379A000000000000000000000000000000000000000000000000000000000 DUP2 MSTORE PUSH1 0x4 ADD PUSH2 0x908 SWAP1 PUSH2 0xDEE JUMP JUMPDEST PUSH1 0x40 MLOAD DUP1 SWAP2 SUB SWAP1 REVERT JUMPDEST PUSH1 0x3 SLOAD TIMESTAMP LT ISZERO DUP1 ISZERO PUSH2 0x926 JUMPI POP PUSH1 0x2 SLOAD PUSH1 0x5 SLOAD LT JUMPDEST PUSH2 0x965 JUMPI PUSH1 0x40 MLOAD PUSH32 0x8C379A000000000000000000000000000000000000000000000000000000000 DUP2 MSTORE PUSH1 0x4 ADD PUSH2 0x95C SWAP1 PUSH2 0xDCE JUMP JUMPDEST PUSH1 0x40 MLOAD DUP1 SWAP2 SUB SWAP1 REVERT JUMPDEST CALLER PUSH20 0xFFFFFFFFFFFFFFFFFFFFFFFFFFFFFFFFFFFFFFFF AND PUSH2 0x8FC PUSH1 0x0 DUP1 CALLER PUSH20 0xFFFFFFFFFFFFFFFFFFFFFFFFFFFFFFFFFFFFFFFF AND PUSH20 0xFFFFFFFFFFFFFFFFFFFFFFFFFFFFFFFFFFFFFFFF AND DUP2 MSTORE PUSH1 0x20 ADD SWAP1 DUP2 MSTORE PUSH1 0x20 ADD PUSH1 0x0 KECCAK256 SLOAD SWAP1 DUP2 ISZERO MUL SWAP1 PUSH1 0x40 MLOAD PUSH1 0x0 PUSH1 0x40 MLOAD DUP1 DUP4 SUB DUP2 DUP6 DUP9 DUP9 CALL SWAP4 POP POP POP POP ISZERO DUP1 ISZERO PUSH2 0x9E9 JUMPI RETURNDATASIZE PUSH1 0x0 DUP1 RETURNDATACOPY RETURNDATASIZE PUSH1 0x0 REVERT JUMPDEST POP PUSH1 0x0 DUP1 PUSH1 0x0 CALLER PUSH20 0xFFFFFFFFFFFFFFFFFFFFFFFFFFFFFFFFFFFFFFFF AND PUSH20 0xFFFFFFFFFFFFFFFFFFFFFFFFFFFFFFFFFFFFFFFF AND DUP2 MSTORE PUSH1 0x20 ADD SWAP1 DUP2 MSTORE PUSH1 0x20 ADD PUSH1 0x0 KECCAK256 DUP2 SWAP1 SSTORE POP JUMP JUMPDEST PUSH1 0x4 SLOAD DUP2 JUMP JUMPDEST PUSH1 0x3 SLOAD DUP2 JUMP JUMPDEST PUSH1 0x7 SLOAD DUP2 JUMP JUMPDEST PUSH1 0x1 PUSH1 0x0 SWAP1 SLOAD SWAP1 PUSH2 0x100 EXP SWAP1 DIV PUSH20 0xFFFFFFFFFFFFFFFFFFFFFFFFFFFFFFFFFFFFFFFF AND DUP2 JUMP JUMPDEST DUP3 DUP1 SLOAD PUSH2 0xA74 SWAP1 PUSH2 0xFB4 JUMP JUMPDEST SWAP1 PUSH1 0x0 MSTORE PUSH1 0x20 PUSH1 0x0 KECCAK256 SWAP1 PUSH1 0x1F ADD PUSH1 0x20 SWAP1 DIV DUP2 ADD SWAP3 DUP3 PUSH2 0xA96 JUMPI PUSH1 0x0 DUP6 SSTORE PUSH2 0xADD JUMP JUMPDEST DUP3 PUSH1 0x1F LT PUSH2 0xAAF JUMPI DUP1 MLOAD PUSH1 0xFF NOT AND DUP4 DUP1 ADD OR DUP6 SSTORE PUSH2 0xADD JUMP JUMPDEST DUP3 DUP1 ADD PUSH1 0x1 ADD DUP6 SSTORE DUP3 ISZERO PUSH2 0xADD JUMPI SWAP2 DUP3 ADD JUMPDEST DUP3 DUP2 GT ISZERO PUSH2 0xADC JUMPI DUP3 MLOAD DUP3 SSTORE SWAP2 PUSH1 0x20 ADD SWAP2 SWAP1 PUSH1 0x1 ADD SWAP1 PUSH2 0xAC1 JUMP JUMPDEST JUMPDEST POP SWAP1 POP PUSH2 0xAEA SWAP2 SWAP1 PUSH2 0xAEE JUMP JUMPDEST POP SWAP1 JUMP JUMPDEST JUMPDEST DUP1 DUP3 GT ISZERO PUSH2 0xB07 JUMPI PUSH1 0x0 DUP2 PUSH1 0x0 SWAP1 SSTORE POP PUSH1 0x1 ADD PUSH2 0xAEF JUMP JUMPDEST POP SWAP1 JUMP JUMPDEST PUSH1 0x0 PUSH2 0xB1E PUSH2 0xB19 DUP5 PUSH2 0xE8E JUMP JUMPDEST PUSH2 0xE69 JUMP JUMPDEST SWAP1 POP DUP3 DUP2 MSTORE PUSH1 0x20 DUP2 ADD DUP5 DUP5 DUP5 ADD GT ISZERO PUSH2 0xB3A JUMPI PUSH2 0xB39 PUSH2 0x1121 JUMP JUMPDEST JUMPDEST PUSH2 0xB45 DUP5 DUP3 DUP6 PUSH2 0xFA5 JUMP JUMPDEST POP SWAP4 SWAP3 POP POP POP JUMP JUMPDEST PUSH1 0x0 DUP2 CALLDATALOAD SWAP1 POP PUSH2 0xB5C DUP2 PUSH2 0x131B JUMP JUMPDEST SWAP3 SWAP2 POP POP JUMP JUMPDEST PUSH1 0x0 DUP2 CALLDATALOAD SWAP1 POP PUSH2 0xB71 DUP2 PUSH2 0x1332 JUMP JUMPDEST SWAP3 SWAP2 POP POP JUMP JUMPDEST PUSH1 0x0 DUP3 PUSH1 0x1F DUP4 ADD SLT PUSH2 0xB8C JUMPI PUSH2 0xB8B PUSH2 0x111C JUMP JUMPDEST JUMPDEST DUP2 CALLDATALOAD PUSH2 0xB9C DUP5 DUP3 PUSH1 0x20 DUP7 ADD PUSH2 0xB0B JUMP JUMPDEST SWAP2 POP POP SWAP3 SWAP2 POP POP JUMP JUMPDEST PUSH1 0x0 DUP2 CALLDATALOAD SWAP1 POP PUSH2 0xBB4 DUP2 PUSH2 0x1349 JUMP JUMPDEST SWAP3 SWAP2 POP POP JUMP JUMPDEST PUSH1 0x0 PUSH1 0x20 DUP3 DUP5 SUB SLT ISZERO PUSH2 0xBD0 JUMPI PUSH2 0xBCF PUSH2 0x112B JUMP JUMPDEST JUMPDEST PUSH1 0x0 PUSH2 0xBDE DUP5 DUP3 DUP6 ADD PUSH2 0xB4D JUMP JUMPDEST SWAP2 POP POP SWAP3 SWAP2 POP POP JUMP JUMPDEST PUSH1 0x0 DUP1 PUSH1 0x0 PUSH1 0x60 DUP5 DUP7 SUB SLT ISZERO PUSH2 0xC00 JUMPI PUSH2 0xBFF PUSH2 0x112B JUMP JUMPDEST JUMPDEST PUSH1 0x0 DUP5 ADD CALLDATALOAD PUSH8 0xFFFFFFFFFFFFFFFF DUP2 GT ISZERO PUSH2 0xC1E JUMPI PUSH2 0xC1D PUSH2 0x1126 JUMP JUMPDEST JUMPDEST PUSH2 0xC2A DUP7 DUP3 DUP8 ADD PUSH2 0xB77 JUMP JUMPDEST SWAP4 POP POP PUSH1 0x20 PUSH2 0xC3B DUP7 DUP3 DUP8 ADD PUSH2 0xBA5 JUMP JUMPDEST SWAP3 POP POP PUSH1 0x40 PUSH2 0xC4C DUP7 DUP3 DUP8 ADD PUSH2 0xB62 JUMP JUMPDEST SWAP2 POP POP SWAP3 POP SWAP3 POP SWAP3 JUMP JUMPDEST PUSH1 0x0 PUSH1 0x20 DUP3 DUP5 SUB SLT ISZERO PUSH2 0xC6C JUMPI PUSH2 0xC6B PUSH2 0x112B JUMP JUMPDEST JUMPDEST PUSH1 0x0 PUSH2 0xC7A DUP5 DUP3 DUP6 ADD PUSH2 0xBA5 JUMP JUMPDEST SWAP2 POP POP SWAP3 SWAP2 POP POP JUMP JUMPDEST PUSH2 0xC8C DUP2 PUSH2 0xF57 JUMP JUMPDEST DUP3 MSTORE POP POP JUMP JUMPDEST PUSH1 0x0 PUSH2 0xC9F PUSH1 0x21 DUP4 PUSH2 0xEBF JUMP JUMPDEST SWAP2 POP PUSH2 0xCAA DUP3 PUSH2 0x1141 JUMP JUMPDEST PUSH1 0x40 DUP3 ADD SWAP1 POP SWAP2 SWAP1 POP JUMP JUMPDEST PUSH1 0x0 PUSH2 0xCC2 PUSH1 0x2C DUP4 PUSH2 0xEBF JUMP JUMPDEST SWAP2 POP PUSH2 0xCCD DUP3 PUSH2 0x1190 JUMP JUMPDEST PUSH1 0x40 DUP3 ADD SWAP1 POP SWAP2 SWAP1 POP JUMP JUMPDEST PUSH1 0x0 PUSH2 0xCE5 PUSH1 0x23 DUP4 PUSH2 0xEBF JUMP JUMPDEST SWAP2 POP PUSH2 0xCF0 DUP3 PUSH2 0x11DF JUMP JUMPDEST PUSH1 0x40 DUP3 ADD SWAP1 POP SWAP2 SWAP1 POP JUMP JUMPDEST PUSH1 0x0 PUSH2 0xD08 PUSH1 0x23 DUP4 PUSH2 0xEBF JUMP JUMPDEST SWAP2 POP PUSH2 0xD13 DUP3 PUSH2 0x122E JUMP JUMPDEST PUSH1 0x40 DUP3 ADD SWAP1 POP SWAP2 SWAP1 POP JUMP JUMPDEST PUSH1 0x0 PUSH2 0xD2B PUSH1 0x25 DUP4 PUSH2 0xEBF JUMP JUMPDEST SWAP2 POP PUSH2 0xD36 DUP3 PUSH2 0x127D JUMP JUMPDEST PUSH1 0x40 DUP3 ADD SWAP1 POP SWAP2 SWAP1 POP JUMP JUMPDEST PUSH1 0x0 PUSH2 0xD4E PUSH1 0x2E DUP4 PUSH2 0xEBF JUMP JUMPDEST SWAP2 POP PUSH2 0xD59 DUP3 PUSH2 0x12CC JUMP JUMPDEST PUSH1 0x40 DUP3 ADD SWAP1 POP SWAP2 SWAP1 POP JUMP JUMPDEST PUSH2 0xD6D DUP2 PUSH2 0xF9B JUMP JUMPDEST DUP3 MSTORE POP POP JUMP JUMPDEST PUSH1 0x0 PUSH1 0x20 DUP3 ADD SWAP1 POP PUSH2 0xD88 PUSH1 0x0 DUP4 ADD DUP5 PUSH2 0xC83 JUMP JUMPDEST SWAP3 SWAP2 POP POP JUMP JUMPDEST PUSH1 0x0 PUSH1 0x20 DUP3 ADD SWAP1 POP DUP2 DUP2 SUB PUSH1 0x0 DUP4 ADD MSTORE PUSH2 0xDA7 DUP2 PUSH2 0xC92 JUMP JUMPDEST SWAP1 POP SWAP2 SWAP1 POP JUMP JUMPDEST PUSH1 0x0 PUSH1 0x20 DUP3 ADD SWAP1 POP DUP2 DUP2 SUB PUSH1 0x0 DUP4 ADD MSTORE PUSH2 0xDC7 DUP2 PUSH2 0xCB5 JUMP JUMPDEST SWAP1 POP SWAP2 SWAP1 POP JUMP JUMPDEST PUSH1 0x0 PUSH1 0x20 DUP3 ADD SWAP1 POP DUP2 DUP2 SUB PUSH1 0x0 DUP4 ADD MSTORE PUSH2 0xDE7 DUP2 PUSH2 0xCD8 JUMP JUMPDEST SWAP1 POP SWAP2 SWAP1 POP JUMP JUMPDEST PUSH1 0x0 PUSH1 0x20 DUP3 ADD SWAP1 POP DUP2 DUP2 SUB PUSH1 0x0 DUP4 ADD MSTORE PUSH2 0xE07 DUP2 PUSH2 0xCFB JUMP JUMPDEST SWAP1 POP SWAP2 SWAP1 POP JUMP JUMPDEST PUSH1 0x0 PUSH1 0x20 DUP3 ADD SWAP1 POP DUP2 DUP2 SUB PUSH1 0x0 DUP4 ADD MSTORE PUSH2 0xE27 DUP2 PUSH2 0xD1E JUMP JUMPDEST SWAP1 POP SWAP2 SWAP1 POP JUMP JUMPDEST PUSH1 0x0 PUSH1 0x20 DUP3 ADD SWAP1 POP DUP2 DUP2 SUB PUSH1 0x0 DUP4 ADD MSTORE PUSH2 0xE47 DUP2 PUSH2 0xD41 JUMP JUMPDEST SWAP1 POP SWAP2 SWAP1 POP JUMP JUMPDEST PUSH1 0x0 PUSH1 0x20 DUP3 ADD SWAP1 POP PUSH2 0xE63 PUSH1 0x0 DUP4 ADD DUP5 PUSH2 0xD64 JUMP JUMPDEST SWAP3 SWAP2 POP POP JUMP JUMPDEST PUSH1 0x0 PUSH2 0xE73 PUSH2 0xE84 JUMP JUMPDEST SWAP1 POP PUSH2 0xE7F DUP3 DUP3 PUSH2 0xFE6 JUMP JUMPDEST SWAP2 SWAP1 POP JUMP JUMPDEST PUSH1 0x0 PUSH1 0x40 MLOAD SWAP1 POP SWAP1 JUMP JUMPDEST PUSH1 0x0 PUSH8 0xFFFFFFFFFFFFFFFF DUP3 GT ISZERO PUSH2 0xEA9 JUMPI PUSH2 0xEA8 PUSH2 0x10ED JUMP JUMPDEST JUMPDEST PUSH2 0xEB2 DUP3 PUSH2 0x1130 JUMP JUMPDEST SWAP1 POP PUSH1 0x20 DUP2 ADD SWAP1 POP SWAP2 SWAP1 POP JUMP JUMPDEST PUSH1 0x0 DUP3 DUP3 MSTORE PUSH1 0x20 DUP3 ADD SWAP1 POP SWAP3 SWAP2 POP POP JUMP JUMPDEST PUSH1 0x0 PUSH2 0xEDB DUP3 PUSH2 0xF9B JUMP JUMPDEST SWAP2 POP PUSH2 0xEE6 DUP4 PUSH2 0xF9B JUMP JUMPDEST SWAP3 POP DUP3 PUSH32 0xFFFFFFFFFFFFFFFFFFFFFFFFFFFFFFFFFFFFFFFFFFFFFFFFFFFFFFFFFFFFFFFF SUB DUP3 GT ISZERO PUSH2 0xF1B JUMPI PUSH2 0xF1A PUSH2 0x1060 JUMP JUMPDEST JUMPDEST DUP3 DUP3 ADD SWAP1 POP SWAP3 SWAP2 POP POP JUMP JUMPDEST PUSH1 0x0 PUSH2 0xF31 DUP3 PUSH2 0xF9B JUMP JUMPDEST SWAP2 POP PUSH2 0xF3C DUP4 PUSH2 0xF9B JUMP JUMPDEST SWAP3 POP DUP3 PUSH2 0xF4C JUMPI PUSH2 0xF4B PUSH2 0x108F JUMP JUMPDEST JUMPDEST DUP3 DUP3 DIV SWAP1 POP SWAP3 SWAP2 POP POP JUMP JUMPDEST PUSH1 0x0 PUSH2 0xF62 DUP3 PUSH2 0xF7B JUMP JUMPDEST SWAP1 POP SWAP2 SWAP1 POP JUMP JUMPDEST PUSH1 0x0 PUSH2 0xF74 DUP3 PUSH2 0xF7B JUMP JUMPDEST SWAP1 POP SWAP2 SWAP1 POP JUMP JUMPDEST PUSH1 0x0 PUSH20 0xFFFFFFFFFFFFFFFFFFFFFFFFFFFFFFFFFFFFFFFF DUP3 AND SWAP1 POP SWAP2 SWAP1 POP JUMP JUMPDEST PUSH1 0x0 DUP2 SWAP1 POP SWAP2 SWAP1 POP JUMP JUMPDEST DUP3 DUP2 DUP4 CALLDATACOPY PUSH1 0x0 DUP4 DUP4 ADD MSTORE POP POP POP JUMP JUMPDEST PUSH1 0x0 PUSH1 0x2 DUP3 DIV SWAP1 POP PUSH1 0x1 DUP3 AND DUP1 PUSH2 0xFCC JUMPI PUSH1 0x7F DUP3 AND SWAP2 POP JUMPDEST PUSH1 0x20 DUP3 LT DUP2 EQ ISZERO PUSH2 0xFE0 JUMPI PUSH2 0xFDF PUSH2 0x10BE JUMP JUMPDEST JUMPDEST POP SWAP2 SWAP1 POP JUMP JUMPDEST PUSH2 0xFEF DUP3 PUSH2 0x1130 JUMP JUMPDEST DUP2 ADD DUP2 DUP2 LT PUSH8 0xFFFFFFFFFFFFFFFF DUP3 GT OR ISZERO PUSH2 0x100E JUMPI PUSH2 0x100D PUSH2 0x10ED JUMP JUMPDEST JUMPDEST DUP1 PUSH1 0x40 MSTORE POP POP POP JUMP JUMPDEST PUSH1 0x0 PUSH2 0x1022 DUP3 PUSH2 0xF9B JUMP JUMPDEST SWAP2 POP PUSH32 0xFFFFFFFFFFFFFFFFFFFFFFFFFFFFFFFFFFFFFFFFFFFFFFFFFFFFFFFFFFFFFFFF DUP3 EQ ISZERO PUSH2 0x1055 JUMPI PUSH2 0x1054 PUSH2 0x1060 JUMP JUMPDEST JUMPDEST PUSH1 0x1 DUP3 ADD SWAP1 POP SWAP2 SWAP1 POP JUMP JUMPDEST PUSH32 0x4E487B7100000000000000000000000000000000000000000000000000000000 PUSH1 0x0 MSTORE PUSH1 0x11 PUSH1 0x4 MSTORE PUSH1 0x24 PUSH1 0x0 REVERT JUMPDEST PUSH32 0x4E487B7100000000000000000000000000000000000000000000000000000000 PUSH1 0x0 MSTORE PUSH1 0x12 PUSH1 0x4 MSTORE PUSH1 0x24 PUSH1 0x0 REVERT JUMPDEST PUSH32 0x4E487B7100000000000000000000000000000000000000000000000000000000 PUSH1 0x0 MSTORE PUSH1 0x22 PUSH1 0x4 MSTORE PUSH1 0x24 PUSH1 0x0 REVERT JUMPDEST PUSH32 0x4E487B7100000000000000000000000000000000000000000000000000000000 PUSH1 0x0 MSTORE PUSH1 0x41 PUSH1 0x4 MSTORE PUSH1 0x24 PUSH1 0x0 REVERT JUMPDEST PUSH1 0x0 DUP1 REVERT JUMPDEST PUSH1 0x0 DUP1 REVERT JUMPDEST PUSH1 0x0 DUP1 REVERT JUMPDEST PUSH1 0x0 DUP1 REVERT JUMPDEST PUSH1 0x0 PUSH1 0x1F NOT PUSH1 0x1F DUP4 ADD AND SWAP1 POP SWAP2 SWAP1 POP JUMP JUMPDEST PUSH32 0x476F616C20666F722066756E64696E6720686173206265656E20726561636865 PUSH1 0x0 DUP3 ADD MSTORE PUSH32 0x6400000000000000000000000000000000000000000000000000000000000000 PUSH1 0x20 DUP3 ADD MSTORE POP JUMP JUMPDEST PUSH32 0x596F75206D757374206265206120636F6E7472696275746F7220746F20626520 PUSH1 0x0 DUP3 ADD MSTORE PUSH32 0x61626C6520746F20766F74650000000000000000000000000000000000000000 PUSH1 0x20 DUP3 ADD MSTORE POP JUMP JUMPDEST PUSH32 0x46756E64696E672074696D65206672616D652069732079657420746F20657870 PUSH1 0x0 DUP3 ADD MSTORE PUSH32 0x6972650000000000000000000000000000000000000000000000000000000000 PUSH1 0x20 DUP3 ADD MSTORE POP JUMP JUMPDEST PUSH32 0x596F7520617265206E6F7420616E206578697374696E6720636F6E7472696275 PUSH1 0x0 DUP3 ADD MSTORE PUSH32 0x746F720000000000000000000000000000000000000000000000000000000000 PUSH1 0x20 DUP3 ADD MSTORE POP JUMP JUMPDEST PUSH32 0x54696D65206672616D652073657420666F7220756E64696E672068617320656C PUSH1 0x0 DUP3 ADD MSTORE PUSH32 0x6173706564000000000000000000000000000000000000000000000000000000 PUSH1 0x20 DUP3 ADD MSTORE POP JUMP JUMPDEST PUSH32 0x416D6F756E74206D7573742062652067726561746572207468616E2074686520 PUSH1 0x0 DUP3 ADD MSTORE PUSH32 0x6D696E696D756D20616D6F756E74000000000000000000000000000000000000 PUSH1 0x20 DUP3 ADD MSTORE POP JUMP JUMPDEST PUSH2 0x1324 DUP2 PUSH2 0xF57 JUMP JUMPDEST DUP2 EQ PUSH2 0x132F JUMPI PUSH1 0x0 DUP1 REVERT JUMPDEST POP JUMP JUMPDEST PUSH2 0x133B DUP2 PUSH2 0xF69 JUMP JUMPDEST DUP2 EQ PUSH2 0x1346 JUMPI PUSH1 0x0 DUP1 REVERT JUMPDEST POP JUMP JUMPDEST PUSH2 0x1352 DUP2 PUSH2 0xF9B JUMP JUMPDEST DUP2 EQ PUSH2 0x135D JUMPI PUSH1 0x0 DUP1 REVERT JUMPDEST POP JUMP INVALID LOG2 PUSH5 0x6970667358 0x22 SLT KECCAK256 0xEF 0xD ISZERO DUP15 CALLDATASIZE DUP14 JUMP OR NOT PUSH1 0xFF PUSH23 0x44DDB55CF9FD8C07F7AC37F85F45B582CC52667664736F PUSH13 0x63430008070033000000000000 "
				},
				"gasEstimates": {
					"creation": {
						"codeDepositCost": "1002800",
						"executionCost": "infinite",
						"totalCost": "infinite"
					},
					"external": {
						"admin()": "2602",
						"contribute()": "infinite",
						"contributors(address)": "2837",
						"createRequest(string,uint256,address)": "infinite",
						"deadLine()": "2451",
						"getBalance()": "385",
						"getRefund()": "infinite",
						"goal()": "2474",
						"makePayment(uint256)": "infinite",
						"minimumAmount()": "2496",
						"noOfRequests()": "2473",
						"numberOfContributors()": "2496",
						"totalAmount()": "2497",
						"vote(uint256)": "infinite"
					}
				},
				"methodIdentifiers": {
					"admin()": "f851a440",
					"contribute()": "d7bb99ba",
					"contributors(address)": "1f6d4942",
					"createRequest(string,uint256,address)": "8a9cfd55",
					"deadLine()": "bef3a083",
					"getBalance()": "12065fe0",
					"getRefund()": "b2d5ae44",
					"goal()": "40193883",
					"makePayment(uint256)": "5114cb52",
					"minimumAmount()": "bb0c8298",
					"noOfRequests()": "c1f11b4c",
					"numberOfContributors()": "4377cf65",
					"totalAmount()": "1a39d8ef",
					"vote(uint256)": "0121b93f"
				}
			},
			"storageLayout": {
				"storage": [
					{
						"astId": 5,
						"contract": "contracts/Crowdfunding.sol:CrowdFunding",
						"label": "contributors",
						"offset": 0,
						"slot": "0",
						"type": "t_mapping(t_address,t_uint256)"
					},
					{
						"astId": 7,
						"contract": "contracts/Crowdfunding.sol:CrowdFunding",
						"label": "admin",
						"offset": 0,
						"slot": "1",
						"type": "t_address"
					},
					{
						"astId": 9,
						"contract": "contracts/Crowdfunding.sol:CrowdFunding",
						"label": "goal",
						"offset": 0,
						"slot": "2",
						"type": "t_uint256"
					},
					{
						"astId": 11,
						"contract": "contracts/Crowdfunding.sol:CrowdFunding",
						"label": "deadLine",
						"offset": 0,
						"slot": "3",
						"type": "t_uint256"
					},
					{
						"astId": 13,
						"contract": "contracts/Crowdfunding.sol:CrowdFunding",
						"label": "minimumAmount",
						"offset": 0,
						"slot": "4",
						"type": "t_uint256"
					},
					{
						"astId": 15,
						"contract": "contracts/Crowdfunding.sol:CrowdFunding",
						"label": "totalAmount",
						"offset": 0,
						"slot": "5",
						"type": "t_uint256"
					},
					{
						"astId": 17,
						"contract": "contracts/Crowdfunding.sol:CrowdFunding",
						"label": "numberOfContributors",
						"offset": 0,
						"slot": "6",
						"type": "t_uint256"
					},
					{
						"astId": 36,
						"contract": "contracts/Crowdfunding.sol:CrowdFunding",
						"label": "noOfRequests",
						"offset": 0,
						"slot": "7",
						"type": "t_uint256"
					},
					{
						"astId": 41,
						"contract": "contracts/Crowdfunding.sol:CrowdFunding",
						"label": "request",
						"offset": 0,
						"slot": "8",
						"type": "t_mapping(t_uint256,t_struct(Request)34_storage)"
					}
				],
				"types": {
					"t_address": {
						"encoding": "inplace",
						"label": "address",
						"numberOfBytes": "20"
					},
					"t_address_payable": {
						"encoding": "inplace",
						"label": "address payable",
						"numberOfBytes": "20"
					},
					"t_bool": {
						"encoding": "inplace",
						"label": "bool",
						"numberOfBytes": "1"
					},
					"t_mapping(t_address,t_bool)": {
						"encoding": "mapping",
						"key": "t_address",
						"label": "mapping(address => bool)",
						"numberOfBytes": "32",
						"value": "t_bool"
					},
					"t_mapping(t_address,t_uint256)": {
						"encoding": "mapping",
						"key": "t_address",
						"label": "mapping(address => uint256)",
						"numberOfBytes": "32",
						"value": "t_uint256"
					},
					"t_mapping(t_uint256,t_struct(Request)34_storage)": {
						"encoding": "mapping",
						"key": "t_uint256",
						"label": "mapping(uint256 => struct CrowdFunding.Request)",
						"numberOfBytes": "32",
						"value": "t_struct(Request)34_storage"
					},
					"t_string_storage": {
						"encoding": "bytes",
						"label": "string",
						"numberOfBytes": "32"
					},
					"t_struct(Request)34_storage": {
						"encoding": "inplace",
						"label": "struct CrowdFunding.Request",
						"members": [
							{
								"astId": 19,
								"contract": "contracts/Crowdfunding.sol:CrowdFunding",
								"label": "description",
								"offset": 0,
								"slot": "0",
								"type": "t_string_storage"
							},
							{
								"astId": 21,
								"contract": "contracts/Crowdfunding.sol:CrowdFunding",
								"label": "amount",
								"offset": 0,
								"slot": "1",
								"type": "t_uint256"
							},
							{
								"astId": 23,
								"contract": "contracts/Crowdfunding.sol:CrowdFunding",
								"label": "receiver",
								"offset": 0,
								"slot": "2",
								"type": "t_address_payable"
							},
							{
								"astId": 25,
								"contract": "contracts/Crowdfunding.sol:CrowdFunding",
								"label": "createdAt",
								"offset": 0,
								"slot": "3",
								"type": "t_uint256"
							},
							{
								"astId": 27,
								"contract": "contracts/Crowdfunding.sol:CrowdFunding",
								"label": "noOfVoters",
								"offset": 0,
								"slot": "4",
								"type": "t_uint256"
							},
							{
								"astId": 29,
								"contract": "contracts/Crowdfunding.sol:CrowdFunding",
								"label": "fundReleaseStatus",
								"offset": 0,
								"slot": "5",
								"type": "t_bool"
							},
							{
								"astId": 33,
								"contract": "contracts/Crowdfunding.sol:CrowdFunding",
								"label": "votingDetails",
								"offset": 0,
								"slot": "6",
								"type": "t_mapping(t_address,t_bool)"
							}
						],
						"numberOfBytes": "224"
					},
					"t_uint256": {
						"encoding": "inplace",
						"label": "uint256",
						"numberOfBytes": "32"
					}
				}
			},
			"userdoc": {
				"kind": "user",
				"methods": {},
				"version": 1
			}
		}
	}
}