{
	"contracts/GlobalVars.sol": {
		"GlobalVars": {
			"abi": [
				{
					"inputs": [],
					"stateMutability": "nonpayable",
					"type": "constructor"
				},
				{
					"inputs": [],
					"name": "changeOwner",
					"outputs": [],
					"stateMutability": "nonpayable",
					"type": "function"
				},
				{
					"inputs": [],
					"name": "getContractBalance",
					"outputs": [
						{
							"internalType": "uint256",
							"name": "",
							"type": "uint256"
						}
					],
					"stateMutability": "view",
					"type": "function"
				},
				{
					"inputs": [],
					"name": "getGasSpent",
					"outputs": [
						{
							"internalType": "uint256",
							"name": "",
							"type": "uint256"
						}
					],
					"stateMutability": "view",
					"type": "function"
				},
				{
					"inputs": [],
					"name": "owner",
					"outputs": [
						{
							"internalType": "address",
							"name": "",
							"type": "address"
						}
					],
					"stateMutability": "view",
					"type": "function"
				},
				{
					"inputs": [],
					"name": "sendEther",
					"outputs": [],
					"stateMutability": "payable",
					"type": "function"
				},
				{
					"inputs": [],
					"name": "sentValue",
					"outputs": [
						{
							"internalType": "uint256",
							"name": "",
							"type": "uint256"
						}
					],
					"stateMutability": "view",
					"type": "function"
				}
			],
			"devdoc": {
				"kind": "dev",
				"methods": {},
				"version": 1
			},
			"evm": {
				"assembly": "    /* \"contracts/GlobalVars.sol\":75:914  contract GlobalVars{\r... */\n  mstore(0x40, 0x80)\n    /* \"contracts/GlobalVars.sol\":162:257  constructor(){//get the adddress that deployed the contract\r... */\n  callvalue\n  dup1\n  iszero\n  tag_1\n  jumpi\n  0x00\n  dup1\n  revert\ntag_1:\n  pop\n    /* \"contracts/GlobalVars.sol\":239:249  msg.sender */\n  caller\n    /* \"contracts/GlobalVars.sol\":231:236  owner */\n  0x00\n  dup1\n    /* \"contracts/GlobalVars.sol\":231:249  owner = msg.sender */\n  0x0100\n  exp\n  dup2\n  sload\n  dup2\n  0xffffffffffffffffffffffffffffffffffffffff\n  mul\n  not\n  and\n  swap1\n  dup4\n  0xffffffffffffffffffffffffffffffffffffffff\n  and\n  mul\n  or\n  swap1\n  sstore\n  pop\n    /* \"contracts/GlobalVars.sol\":75:914  contract GlobalVars{\r... */\n  dataSize(sub_0)\n  dup1\n  dataOffset(sub_0)\n  0x00\n  codecopy\n  0x00\n  return\nstop\n\nsub_0: assembly {\n        /* \"contracts/GlobalVars.sol\":75:914  contract GlobalVars{\r... */\n      mstore(0x40, 0x80)\n      jumpi(tag_1, lt(calldatasize, 0x04))\n      shr(0xe0, calldataload(0x00))\n      dup1\n      0x0e29df22\n      eq\n      tag_2\n      jumpi\n      dup1\n      0x62a09477\n      eq\n      tag_3\n      jumpi\n      dup1\n      0x6dcb8d84\n      eq\n      tag_4\n      jumpi\n      dup1\n      0x6f9fb98a\n      eq\n      tag_5\n      jumpi\n      dup1\n      0x8da5cb5b\n      eq\n      tag_6\n      jumpi\n      dup1\n      0xc9ac1a35\n      eq\n      tag_7\n      jumpi\n    tag_1:\n      0x00\n      dup1\n      revert\n        /* \"contracts/GlobalVars.sol\":409:485  function sendEther() public payable {\r... */\n    tag_2:\n      tag_8\n      tag_9\n      jump\t// in\n    tag_8:\n      stop\n        /* \"contracts/GlobalVars.sol\":316:383  function changeOwner() public {\r... */\n    tag_3:\n      callvalue\n      dup1\n      iszero\n      tag_10\n      jumpi\n      0x00\n      dup1\n      revert\n    tag_10:\n      pop\n      tag_11\n      tag_12\n      jump\t// in\n    tag_11:\n      stop\n        /* \"contracts/GlobalVars.sol\":132:153  uint public sentValue */\n    tag_4:\n      callvalue\n      dup1\n      iszero\n      tag_13\n      jumpi\n      0x00\n      dup1\n      revert\n    tag_13:\n      pop\n      tag_14\n      tag_15\n      jump\t// in\n    tag_14:\n      mload(0x40)\n      tag_16\n      swap2\n      swap1\n      tag_17\n      jump\t// in\n    tag_16:\n      mload(0x40)\n      dup1\n      swap2\n      sub\n      swap1\n      return\n        /* \"contracts/GlobalVars.sol\":562:664  function getContractBalance() public view returns(uint){\r... */\n    tag_5:\n      callvalue\n      dup1\n      iszero\n      tag_18\n      jumpi\n      0x00\n      dup1\n      revert\n    tag_18:\n      pop\n      tag_19\n      tag_20\n      jump\t// in\n    tag_19:\n      mload(0x40)\n      tag_21\n      swap2\n      swap1\n      tag_17\n      jump\t// in\n    tag_21:\n      mload(0x40)\n      dup1\n      swap2\n      sub\n      swap1\n      return\n        /* \"contracts/GlobalVars.sol\":103:123  address public owner */\n    tag_6:\n      callvalue\n      dup1\n      iszero\n      tag_22\n      jumpi\n      0x00\n      dup1\n      revert\n    tag_22:\n      pop\n      tag_23\n      tag_24\n      jump\t// in\n    tag_23:\n      mload(0x40)\n      tag_25\n      swap2\n      swap1\n      tag_26\n      jump\t// in\n    tag_25:\n      mload(0x40)\n      dup1\n      swap2\n      sub\n      swap1\n      return\n        /* \"contracts/GlobalVars.sol\":752:909  function getGasSpent() public view returns(uint){\r... */\n    tag_7:\n      callvalue\n      dup1\n      iszero\n      tag_27\n      jumpi\n      0x00\n      dup1\n      revert\n    tag_27:\n      pop\n      tag_28\n      tag_29\n      jump\t// in\n    tag_28:\n      mload(0x40)\n      tag_30\n      swap2\n      swap1\n      tag_17\n      jump\t// in\n    tag_30:\n      mload(0x40)\n      dup1\n      swap2\n      sub\n      swap1\n      return\n        /* \"contracts/GlobalVars.sol\":409:485  function sendEther() public payable {\r... */\n    tag_9:\n        /* \"contracts/GlobalVars.sol\":468:477  msg.value */\n      callvalue\n        /* \"contracts/GlobalVars.sol\":456:465  sentValue */\n      0x01\n        /* \"contracts/GlobalVars.sol\":456:477  sentValue = msg.value */\n      dup2\n      swap1\n      sstore\n      pop\n        /* \"contracts/GlobalVars.sol\":409:485  function sendEther() public payable {\r... */\n      jump\t// out\n        /* \"contracts/GlobalVars.sol\":316:383  function changeOwner() public {\r... */\n    tag_12:\n        /* \"contracts/GlobalVars.sol\":365:375  msg.sender */\n      caller\n        /* \"contracts/GlobalVars.sol\":357:362  owner */\n      0x00\n      dup1\n        /* \"contracts/GlobalVars.sol\":357:375  owner = msg.sender */\n      0x0100\n      exp\n      dup2\n      sload\n      dup2\n      0xffffffffffffffffffffffffffffffffffffffff\n      mul\n      not\n      and\n      swap1\n      dup4\n      0xffffffffffffffffffffffffffffffffffffffff\n      and\n      mul\n      or\n      swap1\n      sstore\n      pop\n        /* \"contracts/GlobalVars.sol\":316:383  function changeOwner() public {\r... */\n      jump\t// out\n        /* \"contracts/GlobalVars.sol\":132:153  uint public sentValue */\n    tag_15:\n      sload(0x01)\n      dup2\n      jump\t// out\n        /* \"contracts/GlobalVars.sol\":562:664  function getContractBalance() public view returns(uint){\r... */\n    tag_20:\n        /* \"contracts/GlobalVars.sol\":612:616  uint */\n      0x00\n        /* \"contracts/GlobalVars.sol\":635:656  address(this).balance */\n      selfbalance\n        /* \"contracts/GlobalVars.sol\":628:656  return address(this).balance */\n      swap1\n      pop\n        /* \"contracts/GlobalVars.sol\":562:664  function getContractBalance() public view returns(uint){\r... */\n      swap1\n      jump\t// out\n        /* \"contracts/GlobalVars.sol\":103:123  address public owner */\n    tag_24:\n      0x00\n      dup1\n      sload\n      swap1\n      0x0100\n      exp\n      swap1\n      div\n      0xffffffffffffffffffffffffffffffffffffffff\n      and\n      dup2\n      jump\t// out\n        /* \"contracts/GlobalVars.sol\":752:909  function getGasSpent() public view returns(uint){\r... */\n    tag_29:\n        /* \"contracts/GlobalVars.sol\":795:799  uint */\n      0x00\n        /* \"contracts/GlobalVars.sol\":813:823  uint start */\n      dup1\n        /* \"contracts/GlobalVars.sol\":826:835  gasleft() */\n      gas\n        /* \"contracts/GlobalVars.sol\":813:835  uint start = gasleft() */\n      swap1\n      pop\n        /* \"contracts/GlobalVars.sol\":848:856  uint end */\n      0x00\n        /* \"contracts/GlobalVars.sol\":859:868  gasleft() */\n      gas\n        /* \"contracts/GlobalVars.sol\":848:868  uint end = gasleft() */\n      swap1\n      pop\n        /* \"contracts/GlobalVars.sol\":894:899  start */\n      dup2\n        /* \"contracts/GlobalVars.sol\":888:891  end */\n      dup2\n        /* \"contracts/GlobalVars.sol\":888:899  end - start */\n      tag_35\n      swap2\n      swap1\n      tag_36\n      jump\t// in\n    tag_35:\n        /* \"contracts/GlobalVars.sol\":881:899  return end - start */\n      swap3\n      pop\n      pop\n      pop\n        /* \"contracts/GlobalVars.sol\":752:909  function getGasSpent() public view returns(uint){\r... */\n      swap1\n      jump\t// out\n        /* \"#utility.yul\":7:125   */\n    tag_38:\n        /* \"#utility.yul\":94:118   */\n      tag_40\n        /* \"#utility.yul\":112:117   */\n      dup2\n        /* \"#utility.yul\":94:118   */\n      tag_41\n      jump\t// in\n    tag_40:\n        /* \"#utility.yul\":89:92   */\n      dup3\n        /* \"#utility.yul\":82:119   */\n      mstore\n        /* \"#utility.yul\":7:125   */\n      pop\n      pop\n      jump\t// out\n        /* \"#utility.yul\":131:249   */\n    tag_42:\n        /* \"#utility.yul\":218:242   */\n      tag_44\n        /* \"#utility.yul\":236:241   */\n      dup2\n        /* \"#utility.yul\":218:242   */\n      tag_45\n      jump\t// in\n    tag_44:\n        /* \"#utility.yul\":213:216   */\n      dup3\n        /* \"#utility.yul\":206:243   */\n      mstore\n        /* \"#utility.yul\":131:249   */\n      pop\n      pop\n      jump\t// out\n        /* \"#utility.yul\":255:477   */\n    tag_26:\n        /* \"#utility.yul\":348:352   */\n      0x00\n        /* \"#utility.yul\":386:388   */\n      0x20\n        /* \"#utility.yul\":375:384   */\n      dup3\n        /* \"#utility.yul\":371:389   */\n      add\n        /* \"#utility.yul\":363:389   */\n      swap1\n      pop\n        /* \"#utility.yul\":399:470   */\n      tag_47\n        /* \"#utility.yul\":467:468   */\n      0x00\n        /* \"#utility.yul\":456:465   */\n      dup4\n        /* \"#utility.yul\":452:469   */\n      add\n        /* \"#utility.yul\":443:449   */\n      dup5\n        /* \"#utility.yul\":399:470   */\n      tag_38\n      jump\t// in\n    tag_47:\n        /* \"#utility.yul\":255:477   */\n      swap3\n      swap2\n      pop\n      pop\n      jump\t// out\n        /* \"#utility.yul\":483:705   */\n    tag_17:\n        /* \"#utility.yul\":576:580   */\n      0x00\n        /* \"#utility.yul\":614:616   */\n      0x20\n        /* \"#utility.yul\":603:612   */\n      dup3\n        /* \"#utility.yul\":599:617   */\n      add\n        /* \"#utility.yul\":591:617   */\n      swap1\n      pop\n        /* \"#utility.yul\":627:698   */\n      tag_49\n        /* \"#utility.yul\":695:696   */\n      0x00\n        /* \"#utility.yul\":684:693   */\n      dup4\n        /* \"#utility.yul\":680:697   */\n      add\n        /* \"#utility.yul\":671:677   */\n      dup5\n        /* \"#utility.yul\":627:698   */\n      tag_42\n      jump\t// in\n    tag_49:\n        /* \"#utility.yul\":483:705   */\n      swap3\n      swap2\n      pop\n      pop\n      jump\t// out\n        /* \"#utility.yul\":711:902   */\n    tag_36:\n        /* \"#utility.yul\":751:755   */\n      0x00\n        /* \"#utility.yul\":771:791   */\n      tag_51\n        /* \"#utility.yul\":789:790   */\n      dup3\n        /* \"#utility.yul\":771:791   */\n      tag_45\n      jump\t// in\n    tag_51:\n        /* \"#utility.yul\":766:791   */\n      swap2\n      pop\n        /* \"#utility.yul\":805:825   */\n      tag_52\n        /* \"#utility.yul\":823:824   */\n      dup4\n        /* \"#utility.yul\":805:825   */\n      tag_45\n      jump\t// in\n    tag_52:\n        /* \"#utility.yul\":800:825   */\n      swap3\n      pop\n        /* \"#utility.yul\":844:845   */\n      dup3\n        /* \"#utility.yul\":841:842   */\n      dup3\n        /* \"#utility.yul\":838:846   */\n      lt\n        /* \"#utility.yul\":835:869   */\n      iszero\n      tag_53\n      jumpi\n        /* \"#utility.yul\":849:867   */\n      tag_54\n      tag_55\n      jump\t// in\n    tag_54:\n        /* \"#utility.yul\":835:869   */\n    tag_53:\n        /* \"#utility.yul\":894:895   */\n      dup3\n        /* \"#utility.yul\":891:892   */\n      dup3\n        /* \"#utility.yul\":887:896   */\n      sub\n        /* \"#utility.yul\":879:896   */\n      swap1\n      pop\n        /* \"#utility.yul\":711:902   */\n      swap3\n      swap2\n      pop\n      pop\n      jump\t// out\n        /* \"#utility.yul\":908:1004   */\n    tag_41:\n        /* \"#utility.yul\":945:952   */\n      0x00\n        /* \"#utility.yul\":974:998   */\n      tag_57\n        /* \"#utility.yul\":992:997   */\n      dup3\n        /* \"#utility.yul\":974:998   */\n      tag_58\n      jump\t// in\n    tag_57:\n        /* \"#utility.yul\":963:998   */\n      swap1\n      pop\n        /* \"#utility.yul\":908:1004   */\n      swap2\n      swap1\n      pop\n      jump\t// out\n        /* \"#utility.yul\":1010:1136   */\n    tag_58:\n        /* \"#utility.yul\":1047:1054   */\n      0x00\n        /* \"#utility.yul\":1087:1129   */\n      0xffffffffffffffffffffffffffffffffffffffff\n        /* \"#utility.yul\":1080:1085   */\n      dup3\n        /* \"#utility.yul\":1076:1130   */\n      and\n        /* \"#utility.yul\":1065:1130   */\n      swap1\n      pop\n        /* \"#utility.yul\":1010:1136   */\n      swap2\n      swap1\n      pop\n      jump\t// out\n        /* \"#utility.yul\":1142:1219   */\n    tag_45:\n        /* \"#utility.yul\":1179:1186   */\n      0x00\n        /* \"#utility.yul\":1208:1213   */\n      dup2\n        /* \"#utility.yul\":1197:1213   */\n      swap1\n      pop\n        /* \"#utility.yul\":1142:1219   */\n      swap2\n      swap1\n      pop\n      jump\t// out\n        /* \"#utility.yul\":1225:1405   */\n    tag_55:\n        /* \"#utility.yul\":1273:1350   */\n      0x4e487b7100000000000000000000000000000000000000000000000000000000\n        /* \"#utility.yul\":1270:1271   */\n      0x00\n        /* \"#utility.yul\":1263:1351   */\n      mstore\n        /* \"#utility.yul\":1370:1374   */\n      0x11\n        /* \"#utility.yul\":1367:1368   */\n      0x04\n        /* \"#utility.yul\":1360:1375   */\n      mstore\n        /* \"#utility.yul\":1394:1398   */\n      0x24\n        /* \"#utility.yul\":1391:1392   */\n      0x00\n        /* \"#utility.yul\":1384:1399   */\n      revert\n\n    auxdata: 0xa26469706673582212204c4bd471d4ee601a8cb1dc70229a36c119546c6c76d658af550cee9a76e5beae64736f6c63430008070033\n}\n",
				"bytecode": {
					"linkReferences": {},
					"object": "608060405234801561001057600080fd5b50336000806101000a81548173ffffffffffffffffffffffffffffffffffffffff021916908373ffffffffffffffffffffffffffffffffffffffff1602179055506102eb806100606000396000f3fe6080604052600436106100555760003560e01c80630e29df221461005a57806362a09477146100645780636dcb8d841461007b5780636f9fb98a146100a65780638da5cb5b146100d1578063c9ac1a35146100fc575b600080fd5b610062610127565b005b34801561007057600080fd5b50610079610130565b005b34801561008757600080fd5b50610090610172565b60405161009d91906101fb565b60405180910390f35b3480156100b257600080fd5b506100bb610178565b6040516100c891906101fb565b60405180910390f35b3480156100dd57600080fd5b506100e6610180565b6040516100f391906101e0565b60405180910390f35b34801561010857600080fd5b506101116101a4565b60405161011e91906101fb565b60405180910390f35b34600181905550565b336000806101000a81548173ffffffffffffffffffffffffffffffffffffffff021916908373ffffffffffffffffffffffffffffffffffffffff160217905550565b60015481565b600047905090565b60008054906101000a900473ffffffffffffffffffffffffffffffffffffffff1681565b6000805a905060005a905081816101bb9190610216565b9250505090565b6101cb8161024a565b82525050565b6101da8161027c565b82525050565b60006020820190506101f560008301846101c2565b92915050565b600060208201905061021060008301846101d1565b92915050565b60006102218261027c565b915061022c8361027c565b92508282101561023f5761023e610286565b5b828203905092915050565b60006102558261025c565b9050919050565b600073ffffffffffffffffffffffffffffffffffffffff82169050919050565b6000819050919050565b7f4e487b7100000000000000000000000000000000000000000000000000000000600052601160045260246000fdfea26469706673582212204c4bd471d4ee601a8cb1dc70229a36c119546c6c76d658af550cee9a76e5beae64736f6c63430008070033",
					"opcodes": "PUSH1 0x80 PUSH1 0x40 MSTORE CALLVALUE DUP1 ISZERO PUSH2 0x10 JUMPI PUSH1 0x0 DUP1 REVERT JUMPDEST POP CALLER PUSH1 0x0 DUP1 PUSH2 0x100 EXP DUP2 SLOAD DUP2 PUSH20 0xFFFFFFFFFFFFFFFFFFFFFFFFFFFFFFFFFFFFFFFF MUL NOT AND SWAP1 DUP4 PUSH20 0xFFFFFFFFFFFFFFFFFFFFFFFFFFFFFFFFFFFFFFFF AND MUL OR SWAP1 SSTORE POP PUSH2 0x2EB DUP1 PUSH2 0x60 PUSH1 0x0 CODECOPY PUSH1 0x0 RETURN INVALID PUSH1 0x80 PUSH1 0x40 MSTORE PUSH1 0x4 CALLDATASIZE LT PUSH2 0x55 JUMPI PUSH1 0x0 CALLDATALOAD PUSH1 0xE0 SHR DUP1 PUSH4 0xE29DF22 EQ PUSH2 0x5A JUMPI DUP1 PUSH4 0x62A09477 EQ PUSH2 0x64 JUMPI DUP1 PUSH4 0x6DCB8D84 EQ PUSH2 0x7B JUMPI DUP1 PUSH4 0x6F9FB98A EQ PUSH2 0xA6 JUMPI DUP1 PUSH4 0x8DA5CB5B EQ PUSH2 0xD1 JUMPI DUP1 PUSH4 0xC9AC1A35 EQ PUSH2 0xFC JUMPI JUMPDEST PUSH1 0x0 DUP1 REVERT JUMPDEST PUSH2 0x62 PUSH2 0x127 JUMP JUMPDEST STOP JUMPDEST CALLVALUE DUP1 ISZERO PUSH2 0x70 JUMPI PUSH1 0x0 DUP1 REVERT JUMPDEST POP PUSH2 0x79 PUSH2 0x130 JUMP JUMPDEST STOP JUMPDEST CALLVALUE DUP1 ISZERO PUSH2 0x87 JUMPI PUSH1 0x0 DUP1 REVERT JUMPDEST POP PUSH2 0x90 PUSH2 0x172 JUMP JUMPDEST PUSH1 0x40 MLOAD PUSH2 0x9D SWAP2 SWAP1 PUSH2 0x1FB JUMP JUMPDEST PUSH1 0x40 MLOAD DUP1 SWAP2 SUB SWAP1 RETURN JUMPDEST CALLVALUE DUP1 ISZERO PUSH2 0xB2 JUMPI PUSH1 0x0 DUP1 REVERT JUMPDEST POP PUSH2 0xBB PUSH2 0x178 JUMP JUMPDEST PUSH1 0x40 MLOAD PUSH2 0xC8 SWAP2 SWAP1 PUSH2 0x1FB JUMP JUMPDEST PUSH1 0x40 MLOAD DUP1 SWAP2 SUB SWAP1 RETURN JUMPDEST CALLVALUE DUP1 ISZERO PUSH2 0xDD JUMPI PUSH1 0x0 DUP1 REVERT JUMPDEST POP PUSH2 0xE6 PUSH2 0x180 JUMP JUMPDEST PUSH1 0x40 MLOAD PUSH2 0xF3 SWAP2 SWAP1 PUSH2 0x1E0 JUMP JUMPDEST PUSH1 0x40 MLOAD DUP1 SWAP2 SUB SWAP1 RETURN JUMPDEST CALLVALUE DUP1 ISZERO PUSH2 0x108 JUMPI PUSH1 0x0 DUP1 REVERT JUMPDEST POP PUSH2 0x111 PUSH2 0x1A4 JUMP JUMPDEST PUSH1 0x40 MLOAD PUSH2 0x11E SWAP2 SWAP1 PUSH2 0x1FB JUMP JUMPDEST PUSH1 0x40 MLOAD DUP1 SWAP2 SUB SWAP1 RETURN JUMPDEST CALLVALUE PUSH1 0x1 DUP2 SWAP1 SSTORE POP JUMP JUMPDEST CALLER PUSH1 0x0 DUP1 PUSH2 0x100 EXP DUP2 SLOAD DUP2 PUSH20 0xFFFFFFFFFFFFFFFFFFFFFFFFFFFFFFFFFFFFFFFF MUL NOT AND SWAP1 DUP4 PUSH20 0xFFFFFFFFFFFFFFFFFFFFFFFFFFFFFFFFFFFFFFFF AND MUL OR SWAP1 SSTORE POP JUMP JUMPDEST PUSH1 0x1 SLOAD DUP2 JUMP JUMPDEST PUSH1 0x0 SELFBALANCE SWAP1 POP SWAP1 JUMP JUMPDEST PUSH1 0x0 DUP1 SLOAD SWAP1 PUSH2 0x100 EXP SWAP1 DIV PUSH20 0xFFFFFFFFFFFFFFFFFFFFFFFFFFFFFFFFFFFFFFFF AND DUP2 JUMP JUMPDEST PUSH1 0x0 DUP1 GAS SWAP1 POP PUSH1 0x0 GAS SWAP1 POP DUP2 DUP2 PUSH2 0x1BB SWAP2 SWAP1 PUSH2 0x216 JUMP JUMPDEST SWAP3 POP POP POP SWAP1 JUMP JUMPDEST PUSH2 0x1CB DUP2 PUSH2 0x24A JUMP JUMPDEST DUP3 MSTORE POP POP JUMP JUMPDEST PUSH2 0x1DA DUP2 PUSH2 0x27C JUMP JUMPDEST DUP3 MSTORE POP POP JUMP JUMPDEST PUSH1 0x0 PUSH1 0x20 DUP3 ADD SWAP1 POP PUSH2 0x1F5 PUSH1 0x0 DUP4 ADD DUP5 PUSH2 0x1C2 JUMP JUMPDEST SWAP3 SWAP2 POP POP JUMP JUMPDEST PUSH1 0x0 PUSH1 0x20 DUP3 ADD SWAP1 POP PUSH2 0x210 PUSH1 0x0 DUP4 ADD DUP5 PUSH2 0x1D1 JUMP JUMPDEST SWAP3 SWAP2 POP POP JUMP JUMPDEST PUSH1 0x0 PUSH2 0x221 DUP3 PUSH2 0x27C JUMP JUMPDEST SWAP2 POP PUSH2 0x22C DUP4 PUSH2 0x27C JUMP JUMPDEST SWAP3 POP DUP3 DUP3 LT ISZERO PUSH2 0x23F JUMPI PUSH2 0x23E PUSH2 0x286 JUMP JUMPDEST JUMPDEST DUP3 DUP3 SUB SWAP1 POP SWAP3 SWAP2 POP POP JUMP JUMPDEST PUSH1 0x0 PUSH2 0x255 DUP3 PUSH2 0x25C JUMP JUMPDEST SWAP1 POP SWAP2 SWAP1 POP JUMP JUMPDEST PUSH1 0x0 PUSH20 0xFFFFFFFFFFFFFFFFFFFFFFFFFFFFFFFFFFFFFFFF DUP3 AND SWAP1 POP SWAP2 SWAP1 POP JUMP JUMPDEST PUSH1 0x0 DUP2 SWAP1 POP SWAP2 SWAP1 POP JUMP JUMPDEST PUSH32 0x4E487B7100000000000000000000000000000000000000000000000000000000 PUSH1 0x0 MSTORE PUSH1 0x11 PUSH1 0x4 MSTORE PUSH1 0x24 PUSH1 0x0 REVERT INVALID LOG2 PUSH5 0x6970667358 0x22 SLT KECCAK256 0x4C 0x4B 0xD4 PUSH18 0xD4EE601A8CB1DC70229A36C119546C6C76D6 PC 0xAF SSTORE 0xC 0xEE SWAP11 PUSH23 0xE5BEAE64736F6C63430008070033000000000000000000 "
				},
				"gasEstimates": {
					"creation": {
						"codeDepositCost": "149400",
						"executionCost": "24462",
						"totalCost": "173862"
					},
					"external": {
						"changeOwner()": "24410",
						"getContractBalance()": "383",
						"getGasSpent()": "infinite",
						"owner()": "2577",
						"sendEther()": "22211",
						"sentValue()": "2451"
					}
				},
				"methodIdentifiers": {
					"changeOwner()": "62a09477",
					"getContractBalance()": "6f9fb98a",
					"getGasSpent()": "c9ac1a35",
					"owner()": "8da5cb5b",
					"sendEther()": "0e29df22",
					"sentValue()": "6dcb8d84"
				}
			},
			"storageLayout": {
				"storage": [
					{
						"astId": 3,
						"contract": "contracts/GlobalVars.sol:GlobalVars",
						"label": "owner",
						"offset": 0,
						"slot": "0",
						"type": "t_address"
					},
					{
						"astId": 5,
						"contract": "contracts/GlobalVars.sol:GlobalVars",
						"label": "sentValue",
						"offset": 0,
						"slot": "1",
						"type": "t_uint256"
					}
				],
				"types": {
					"t_address": {
						"encoding": "inplace",
						"label": "address",
						"numberOfBytes": "20"
					},
					"t_uint256": {
						"encoding": "inplace",
						"label": "uint256",
						"numberOfBytes": "32"
					}
				}
			},
			"userdoc": {
				"kind": "user",
				"methods": {},
				"version": 1
			}
		}
	}
}