{
	"contracts/Erc20token.sol": {
		"icoContract": {
			"abi": [
				{
					"inputs": [
						{
							"internalType": "uint256",
							"name": "_duration",
							"type": "uint256"
						},
						{
							"internalType": "address payable",
							"name": "_depositAddress",
							"type": "address"
						}
					],
					"stateMutability": "nonpayable",
					"type": "constructor"
				},
				{
					"anonymous": false,
					"inputs": [
						{
							"indexed": true,
							"internalType": "address",
							"name": "tokenOwner",
							"type": "address"
						},
						{
							"indexed": true,
							"internalType": "address",
							"name": "spender",
							"type": "address"
						},
						{
							"indexed": false,
							"internalType": "uint256",
							"name": "tokens",
							"type": "uint256"
						}
					],
					"name": "Approval",
					"type": "event"
				},
				{
					"anonymous": false,
					"inputs": [
						{
							"indexed": false,
							"internalType": "address",
							"name": "_sender",
							"type": "address"
						},
						{
							"indexed": false,
							"internalType": "uint256",
							"name": "_amount",
							"type": "uint256"
						},
						{
							"indexed": false,
							"internalType": "uint256",
							"name": "_tokens",
							"type": "uint256"
						}
					],
					"name": "Invest",
					"type": "event"
				},
				{
					"anonymous": false,
					"inputs": [
						{
							"indexed": true,
							"internalType": "address",
							"name": "from",
							"type": "address"
						},
						{
							"indexed": true,
							"internalType": "address",
							"name": "to",
							"type": "address"
						},
						{
							"indexed": false,
							"internalType": "uint256",
							"name": "tokens",
							"type": "uint256"
						}
					],
					"name": "Transfer",
					"type": "event"
				},
				{
					"inputs": [],
					"name": "admin",
					"outputs": [
						{
							"internalType": "address",
							"name": "",
							"type": "address"
						}
					],
					"stateMutability": "view",
					"type": "function"
				},
				{
					"inputs": [
						{
							"internalType": "address",
							"name": "tokenOwner",
							"type": "address"
						},
						{
							"internalType": "address",
							"name": "spender",
							"type": "address"
						}
					],
					"name": "allowance",
					"outputs": [
						{
							"internalType": "uint256",
							"name": "remaining",
							"type": "uint256"
						}
					],
					"stateMutability": "view",
					"type": "function"
				},
				{
					"inputs": [
						{
							"internalType": "address",
							"name": "",
							"type": "address"
						},
						{
							"internalType": "address",
							"name": "",
							"type": "address"
						}
					],
					"name": "allowed",
					"outputs": [
						{
							"internalType": "uint256",
							"name": "",
							"type": "uint256"
						}
					],
					"stateMutability": "view",
					"type": "function"
				},
				{
					"inputs": [
						{
							"internalType": "address",
							"name": "spender",
							"type": "address"
						},
						{
							"internalType": "uint256",
							"name": "tokens",
							"type": "uint256"
						}
					],
					"name": "approve",
					"outputs": [
						{
							"internalType": "bool",
							"name": "success",
							"type": "bool"
						}
					],
					"stateMutability": "nonpayable",
					"type": "function"
				},
				{
					"inputs": [
						{
							"internalType": "address",
							"name": "tokenOwner",
							"type": "address"
						}
					],
					"name": "balanceOf",
					"outputs": [
						{
							"internalType": "uint256",
							"name": "balance",
							"type": "uint256"
						}
					],
					"stateMutability": "view",
					"type": "function"
				},
				{
					"inputs": [
						{
							"internalType": "address",
							"name": "",
							"type": "address"
						}
					],
					"name": "balances",
					"outputs": [
						{
							"internalType": "uint256",
							"name": "",
							"type": "uint256"
						}
					],
					"stateMutability": "view",
					"type": "function"
				},
				{
					"inputs": [],
					"name": "checkIcoState",
					"outputs": [
						{
							"internalType": "enum icoContract.State",
							"name": "",
							"type": "uint8"
						}
					],
					"stateMutability": "view",
					"type": "function"
				},
				{
					"inputs": [],
					"name": "decimals",
					"outputs": [
						{
							"internalType": "uint256",
							"name": "",
							"type": "uint256"
						}
					],
					"stateMutability": "view",
					"type": "function"
				},
				{
					"inputs": [],
					"name": "depositAddress",
					"outputs": [
						{
							"internalType": "address payable",
							"name": "",
							"type": "address"
						}
					],
					"stateMutability": "view",
					"type": "function"
				},
				{
					"inputs": [],
					"name": "endTime",
					"outputs": [
						{
							"internalType": "uint256",
							"name": "",
							"type": "uint256"
						}
					],
					"stateMutability": "view",
					"type": "function"
				},
				{
					"inputs": [],
					"name": "founder",
					"outputs": [
						{
							"internalType": "address",
							"name": "",
							"type": "address"
						}
					],
					"stateMutability": "view",
					"type": "function"
				},
				{
					"inputs": [],
					"name": "hardCap",
					"outputs": [
						{
							"internalType": "uint256",
							"name": "",
							"type": "uint256"
						}
					],
					"stateMutability": "view",
					"type": "function"
				},
				{
					"inputs": [],
					"name": "icoState",
					"outputs": [
						{
							"internalType": "enum icoContract.State",
							"name": "",
							"type": "uint8"
						}
					],
					"stateMutability": "view",
					"type": "function"
				},
				{
					"inputs": [],
					"name": "invest",
					"outputs": [
						{
							"internalType": "bool",
							"name": "",
							"type": "bool"
						}
					],
					"stateMutability": "payable",
					"type": "function"
				},
				{
					"inputs": [],
					"name": "maximumAmount",
					"outputs": [
						{
							"internalType": "uint256",
							"name": "",
							"type": "uint256"
						}
					],
					"stateMutability": "view",
					"type": "function"
				},
				{
					"inputs": [],
					"name": "minimumAmount",
					"outputs": [
						{
							"internalType": "uint256",
							"name": "",
							"type": "uint256"
						}
					],
					"stateMutability": "view",
					"type": "function"
				},
				{
					"inputs": [],
					"name": "name",
					"outputs": [
						{
							"internalType": "string",
							"name": "",
							"type": "string"
						}
					],
					"stateMutability": "view",
					"type": "function"
				},
				{
					"inputs": [],
					"name": "raisedAmount",
					"outputs": [
						{
							"internalType": "uint256",
							"name": "",
							"type": "uint256"
						}
					],
					"stateMutability": "view",
					"type": "function"
				},
				{
					"inputs": [],
					"name": "startTime",
					"outputs": [
						{
							"internalType": "uint256",
							"name": "",
							"type": "uint256"
						}
					],
					"stateMutability": "view",
					"type": "function"
				},
				{
					"inputs": [],
					"name": "symbol",
					"outputs": [
						{
							"internalType": "string",
							"name": "",
							"type": "string"
						}
					],
					"stateMutability": "view",
					"type": "function"
				},
				{
					"inputs": [],
					"name": "totalSupply",
					"outputs": [
						{
							"internalType": "uint256",
							"name": "",
							"type": "uint256"
						}
					],
					"stateMutability": "view",
					"type": "function"
				},
				{
					"inputs": [
						{
							"internalType": "address",
							"name": "to",
							"type": "address"
						},
						{
							"internalType": "uint256",
							"name": "tokens",
							"type": "uint256"
						}
					],
					"name": "transfer",
					"outputs": [
						{
							"internalType": "bool",
							"name": "success",
							"type": "bool"
						}
					],
					"stateMutability": "nonpayable",
					"type": "function"
				},
				{
					"inputs": [
						{
							"internalType": "address",
							"name": "from",
							"type": "address"
						},
						{
							"internalType": "address",
							"name": "to",
							"type": "address"
						},
						{
							"internalType": "uint256",
							"name": "tokens",
							"type": "uint256"
						}
					],
					"name": "transferFrom",
					"outputs": [
						{
							"internalType": "bool",
							"name": "success",
							"type": "bool"
						}
					],
					"stateMutability": "nonpayable",
					"type": "function"
				}
			],
			"devdoc": {
				"kind": "dev",
				"methods": {},
				"version": 1
			},
			"evm": {
				"assembly": "    /* \"contracts/Erc20token.sol\":3280:6575  contract icoContract is MyToken{\r... */\n  mstore(0x40, 0x80)\n    /* \"contracts/Erc20token.sol\":1033:1062  string public name = \"ZILLAX\" */\n  mload(0x40)\n  dup1\n  0x40\n  add\n  0x40\n  mstore\n  dup1\n  0x06\n  dup2\n  mstore\n  0x20\n  add\n  0x5a494c4c41580000000000000000000000000000000000000000000000000000\n  dup2\n  mstore\n  pop\n  0x00\n  swap1\n  dup1\n  mload\n  swap1\n  0x20\n  add\n  swap1\n  tag_1\n  swap3\n  swap2\n  swap1\n  tag_2\n  jump\t// in\ntag_1:\n  pop\n    /* \"contracts/Erc20token.sol\":1069:1097  string public symbol = \"ZLZ\" */\n  mload(0x40)\n  dup1\n  0x40\n  add\n  0x40\n  mstore\n  dup1\n  0x03\n  dup2\n  mstore\n  0x20\n  add\n  0x5a4c5a0000000000000000000000000000000000000000000000000000000000\n  dup2\n  mstore\n  pop\n  0x01\n  swap1\n  dup1\n  mload\n  swap1\n  0x20\n  add\n  swap1\n  tag_3\n  swap3\n  swap2\n  swap1\n  tag_2\n  jump\t// in\ntag_3:\n  pop\n    /* \"contracts/Erc20token.sol\":1127:1128  0 */\n  0x00\n    /* \"contracts/Erc20token.sol\":1104:1128  uint public decimals = 0 */\n  0x02\n  sstore\n    /* \"contracts/Erc20token.sol\":3447:3458  0.001 ether */\n  0x038d7ea4c68000\n    /* \"contracts/Erc20token.sol\":3429:3458  uint tokenPrice = 0.001 ether */\n  0x08\n  sstore\n    /* \"contracts/Erc20token.sol\":3622:3629  5 ether */\n  0x4563918244f40000\n    /* \"contracts/Erc20token.sol\":3600:3629  uint public hardCap = 5 ether */\n  0x0a\n  sstore\n    /* \"contracts/Erc20token.sol\":3795:3810  block.timestamp */\n  timestamp\n    /* \"contracts/Erc20token.sol\":3771:3810  uint public startTime = block.timestamp */\n  0x0b\n  sstore\n    /* \"contracts/Erc20token.sol\":3920:3929  0.1 ether */\n  0x016345785d8a0000\n    /* \"contracts/Erc20token.sol\":3892:3929  uint public minimumAmount = 0.1 ether */\n  0x0d\n  sstore\n    /* \"contracts/Erc20token.sol\":3964:3971  1 ether */\n  0x0de0b6b3a7640000\n    /* \"contracts/Erc20token.sol\":3936:3971  uint public maximumAmount = 1 ether */\n  0x0e\n  sstore\n    /* \"contracts/Erc20token.sol\":4220:4541  constructor(uint _duration, address payable _depositAddress){\r... */\n  callvalue\n  dup1\n  iszero\n  tag_4\n  jumpi\n  0x00\n  dup1\n  revert\ntag_4:\n  pop\n  mload(0x40)\n  sub(codesize, bytecodeSize)\n  dup1\n  bytecodeSize\n  dup4\n  codecopy\n  dup2\n  dup2\n  add\n  0x40\n  mstore\n  dup2\n  add\n  swap1\n  tag_5\n  swap2\n  swap1\n  tag_6\n  jump\t// in\ntag_5:\n    /* \"contracts/Erc20token.sol\":1365:1372  1000000 */\n  0x0f4240\n    /* \"contracts/Erc20token.sol\":1351:1362  totalSupply */\n  0x04\n    /* \"contracts/Erc20token.sol\":1351:1372  totalSupply = 1000000 */\n  dup2\n  swap1\n  sstore\n  pop\n    /* \"contracts/Erc20token.sol\":1393:1403  msg.sender */\n  caller\n    /* \"contracts/Erc20token.sol\":1383:1390  founder */\n  0x03\n  0x00\n    /* \"contracts/Erc20token.sol\":1383:1403  founder = msg.sender */\n  0x0100\n  exp\n  dup2\n  sload\n  dup2\n  0xffffffffffffffffffffffffffffffffffffffff\n  mul\n  not\n  and\n  swap1\n  dup4\n  0xffffffffffffffffffffffffffffffffffffffff\n  and\n  mul\n  or\n  swap1\n  sstore\n  pop\n    /* \"contracts/Erc20token.sol\":1434:1445  totalSupply */\n  sload(0x04)\n    /* \"contracts/Erc20token.sol\":1414:1422  balances */\n  0x05\n    /* \"contracts/Erc20token.sol\":1414:1431  balances[founder] */\n  0x00\n    /* \"contracts/Erc20token.sol\":1423:1430  founder */\n  0x03\n  0x00\n  swap1\n  sload\n  swap1\n  0x0100\n  exp\n  swap1\n  div\n  0xffffffffffffffffffffffffffffffffffffffff\n  and\n    /* \"contracts/Erc20token.sol\":1414:1431  balances[founder] */\n  0xffffffffffffffffffffffffffffffffffffffff\n  and\n  0xffffffffffffffffffffffffffffffffffffffff\n  and\n  dup2\n  mstore\n  0x20\n  add\n  swap1\n  dup2\n  mstore\n  0x20\n  add\n  0x00\n  keccak256\n    /* \"contracts/Erc20token.sol\":1414:1445  balances[founder] = totalSupply */\n  dup2\n  swap1\n  sstore\n  pop\n    /* \"contracts/Erc20token.sol\":4302:4319  State.beforeStart */\n  0x00\n    /* \"contracts/Erc20token.sol\":4291:4299  icoState */\n  0x0f\n  0x00\n    /* \"contracts/Erc20token.sol\":4291:4319  icoState = State.beforeStart */\n  0x0100\n  exp\n  dup2\n  sload\n  dup2\n  0xff\n  mul\n  not\n  and\n  swap1\n  dup4\n  0x04\n  dup2\n  gt\n  iszero\n  tag_11\n  jumpi\n  tag_12\n  tag_13\n  jump\t// in\ntag_12:\ntag_11:\n  mul\n  or\n  swap1\n  sstore\n  pop\n    /* \"contracts/Erc20token.sol\":4367:4377  msg.sender */\n  caller\n    /* \"contracts/Erc20token.sol\":4359:4364  admin */\n  0x07\n  0x00\n    /* \"contracts/Erc20token.sol\":4359:4377  admin = msg.sender */\n  0x0100\n  exp\n  dup2\n  sload\n  dup2\n  0xffffffffffffffffffffffffffffffffffffffff\n  mul\n  not\n  and\n  swap1\n  dup4\n  0xffffffffffffffffffffffffffffffffffffffff\n  and\n  mul\n  or\n  swap1\n  sstore\n  pop\n    /* \"contracts/Erc20token.sol\":4442:4451  _duration */\n  dup2\n    /* \"contracts/Erc20token.sol\":4430:4439  startTime */\n  sload(0x0b)\n    /* \"contracts/Erc20token.sol\":4430:4451  startTime + _duration */\n  tag_14\n  swap2\n  swap1\n  tag_15\n  jump\t// in\ntag_14:\n    /* \"contracts/Erc20token.sol\":4420:4427  endTime */\n  0x0c\n    /* \"contracts/Erc20token.sol\":4420:4451  endTime = startTime + _duration */\n  dup2\n  swap1\n  sstore\n  pop\n    /* \"contracts/Erc20token.sol\":4516:4531  _depositAddress */\n  dup1\n    /* \"contracts/Erc20token.sol\":4499:4513  depositAddress */\n  0x0f\n  0x01\n    /* \"contracts/Erc20token.sol\":4499:4531  depositAddress = _depositAddress */\n  0x0100\n  exp\n  dup2\n  sload\n  dup2\n  0xffffffffffffffffffffffffffffffffffffffff\n  mul\n  not\n  and\n  swap1\n  dup4\n  0xffffffffffffffffffffffffffffffffffffffff\n  and\n  mul\n  or\n  swap1\n  sstore\n  pop\n    /* \"contracts/Erc20token.sol\":4220:4541  constructor(uint _duration, address payable _depositAddress){\r... */\n  pop\n  pop\n    /* \"contracts/Erc20token.sol\":3280:6575  contract icoContract is MyToken{\r... */\n  jump(tag_16)\ntag_2:\n  dup3\n  dup1\n  sload\n  tag_17\n  swap1\n  tag_18\n  jump\t// in\ntag_17:\n  swap1\n  0x00\n  mstore\n  keccak256(0x00, 0x20)\n  swap1\n  0x1f\n  add\n  0x20\n  swap1\n  div\n  dup2\n  add\n  swap3\n  dup3\n  tag_20\n  jumpi\n  0x00\n  dup6\n  sstore\n  jump(tag_19)\ntag_20:\n  dup3\n  0x1f\n  lt\n  tag_21\n  jumpi\n  dup1\n  mload\n  not(0xff)\n  and\n  dup4\n  dup1\n  add\n  or\n  dup6\n  sstore\n  jump(tag_19)\ntag_21:\n  dup3\n  dup1\n  add\n  0x01\n  add\n  dup6\n  sstore\n  dup3\n  iszero\n  tag_19\n  jumpi\n  swap2\n  dup3\n  add\ntag_22:\n  dup3\n  dup2\n  gt\n  iszero\n  tag_23\n  jumpi\n  dup3\n  mload\n  dup3\n  sstore\n  swap2\n  0x20\n  add\n  swap2\n  swap1\n  0x01\n  add\n  swap1\n  jump(tag_22)\ntag_23:\ntag_19:\n  pop\n  swap1\n  pop\n  tag_24\n  swap2\n  swap1\n  tag_25\n  jump\t// in\ntag_24:\n  pop\n  swap1\n  jump\t// out\ntag_25:\ntag_26:\n  dup1\n  dup3\n  gt\n  iszero\n  tag_27\n  jumpi\n  0x00\n  dup2\n  0x00\n  swap1\n  sstore\n  pop\n  0x01\n  add\n  jump(tag_26)\ntag_27:\n  pop\n  swap1\n  jump\t// out\n    /* \"#utility.yul\":7:166   */\ntag_29:\n    /* \"#utility.yul\":72:77   */\n  0x00\n    /* \"#utility.yul\":103:109   */\n  dup2\n    /* \"#utility.yul\":97:110   */\n  mload\n    /* \"#utility.yul\":88:110   */\n  swap1\n  pop\n    /* \"#utility.yul\":119:160   */\n  tag_31\n    /* \"#utility.yul\":154:159   */\n  dup2\n    /* \"#utility.yul\":119:160   */\n  tag_32\n  jump\t// in\ntag_31:\n    /* \"#utility.yul\":7:166   */\n  swap3\n  swap2\n  pop\n  pop\n  jump\t// out\n    /* \"#utility.yul\":172:315   */\ntag_33:\n    /* \"#utility.yul\":229:234   */\n  0x00\n    /* \"#utility.yul\":260:266   */\n  dup2\n    /* \"#utility.yul\":254:267   */\n  mload\n    /* \"#utility.yul\":245:267   */\n  swap1\n  pop\n    /* \"#utility.yul\":276:309   */\n  tag_35\n    /* \"#utility.yul\":303:308   */\n  dup2\n    /* \"#utility.yul\":276:309   */\n  tag_36\n  jump\t// in\ntag_35:\n    /* \"#utility.yul\":172:315   */\n  swap3\n  swap2\n  pop\n  pop\n  jump\t// out\n    /* \"#utility.yul\":321:844   */\ntag_6:\n    /* \"#utility.yul\":408:414   */\n  0x00\n    /* \"#utility.yul\":416:422   */\n  dup1\n    /* \"#utility.yul\":465:467   */\n  0x40\n    /* \"#utility.yul\":453:462   */\n  dup4\n    /* \"#utility.yul\":444:451   */\n  dup6\n    /* \"#utility.yul\":440:463   */\n  sub\n    /* \"#utility.yul\":436:468   */\n  slt\n    /* \"#utility.yul\":433:552   */\n  iszero\n  tag_38\n  jumpi\n    /* \"#utility.yul\":471:550   */\n  tag_39\n  tag_40\n  jump\t// in\ntag_39:\n    /* \"#utility.yul\":433:552   */\ntag_38:\n    /* \"#utility.yul\":591:592   */\n  0x00\n    /* \"#utility.yul\":616:680   */\n  tag_41\n    /* \"#utility.yul\":672:679   */\n  dup6\n    /* \"#utility.yul\":663:669   */\n  dup3\n    /* \"#utility.yul\":652:661   */\n  dup7\n    /* \"#utility.yul\":648:670   */\n  add\n    /* \"#utility.yul\":616:680   */\n  tag_33\n  jump\t// in\ntag_41:\n    /* \"#utility.yul\":606:680   */\n  swap3\n  pop\n    /* \"#utility.yul\":562:690   */\n  pop\n    /* \"#utility.yul\":729:731   */\n  0x20\n    /* \"#utility.yul\":755:827   */\n  tag_42\n    /* \"#utility.yul\":819:826   */\n  dup6\n    /* \"#utility.yul\":810:816   */\n  dup3\n    /* \"#utility.yul\":799:808   */\n  dup7\n    /* \"#utility.yul\":795:817   */\n  add\n    /* \"#utility.yul\":755:827   */\n  tag_29\n  jump\t// in\ntag_42:\n    /* \"#utility.yul\":745:827   */\n  swap2\n  pop\n    /* \"#utility.yul\":700:837   */\n  pop\n    /* \"#utility.yul\":321:844   */\n  swap3\n  pop\n  swap3\n  swap1\n  pop\n  jump\t// out\n    /* \"#utility.yul\":931:1236   */\ntag_15:\n    /* \"#utility.yul\":971:974   */\n  0x00\n    /* \"#utility.yul\":990:1010   */\n  tag_46\n    /* \"#utility.yul\":1008:1009   */\n  dup3\n    /* \"#utility.yul\":990:1010   */\n  tag_47\n  jump\t// in\ntag_46:\n    /* \"#utility.yul\":985:1010   */\n  swap2\n  pop\n    /* \"#utility.yul\":1024:1044   */\n  tag_48\n    /* \"#utility.yul\":1042:1043   */\n  dup4\n    /* \"#utility.yul\":1024:1044   */\n  tag_47\n  jump\t// in\ntag_48:\n    /* \"#utility.yul\":1019:1044   */\n  swap3\n  pop\n    /* \"#utility.yul\":1178:1179   */\n  dup3\n    /* \"#utility.yul\":1110:1176   */\n  0xffffffffffffffffffffffffffffffffffffffffffffffffffffffffffffffff\n    /* \"#utility.yul\":1106:1180   */\n  sub\n    /* \"#utility.yul\":1103:1104   */\n  dup3\n    /* \"#utility.yul\":1100:1181   */\n  gt\n    /* \"#utility.yul\":1097:1204   */\n  iszero\n  tag_49\n  jumpi\n    /* \"#utility.yul\":1184:1202   */\n  tag_50\n  tag_51\n  jump\t// in\ntag_50:\n    /* \"#utility.yul\":1097:1204   */\ntag_49:\n    /* \"#utility.yul\":1228:1229   */\n  dup3\n    /* \"#utility.yul\":1225:1226   */\n  dup3\n    /* \"#utility.yul\":1221:1230   */\n  add\n    /* \"#utility.yul\":1214:1230   */\n  swap1\n  pop\n    /* \"#utility.yul\":931:1236   */\n  swap3\n  swap2\n  pop\n  pop\n  jump\t// out\n    /* \"#utility.yul\":1242:1346   */\ntag_52:\n    /* \"#utility.yul\":1287:1294   */\n  0x00\n    /* \"#utility.yul\":1316:1340   */\n  tag_54\n    /* \"#utility.yul\":1334:1339   */\n  dup3\n    /* \"#utility.yul\":1316:1340   */\n  tag_55\n  jump\t// in\ntag_54:\n    /* \"#utility.yul\":1305:1340   */\n  swap1\n  pop\n    /* \"#utility.yul\":1242:1346   */\n  swap2\n  swap1\n  pop\n  jump\t// out\n    /* \"#utility.yul\":1352:1478   */\ntag_55:\n    /* \"#utility.yul\":1389:1396   */\n  0x00\n    /* \"#utility.yul\":1429:1471   */\n  0xffffffffffffffffffffffffffffffffffffffff\n    /* \"#utility.yul\":1422:1427   */\n  dup3\n    /* \"#utility.yul\":1418:1472   */\n  and\n    /* \"#utility.yul\":1407:1472   */\n  swap1\n  pop\n    /* \"#utility.yul\":1352:1478   */\n  swap2\n  swap1\n  pop\n  jump\t// out\n    /* \"#utility.yul\":1484:1561   */\ntag_47:\n    /* \"#utility.yul\":1521:1528   */\n  0x00\n    /* \"#utility.yul\":1550:1555   */\n  dup2\n    /* \"#utility.yul\":1539:1555   */\n  swap1\n  pop\n    /* \"#utility.yul\":1484:1561   */\n  swap2\n  swap1\n  pop\n  jump\t// out\n    /* \"#utility.yul\":1567:1887   */\ntag_18:\n    /* \"#utility.yul\":1611:1617   */\n  0x00\n    /* \"#utility.yul\":1648:1649   */\n  0x02\n    /* \"#utility.yul\":1642:1646   */\n  dup3\n    /* \"#utility.yul\":1638:1650   */\n  div\n    /* \"#utility.yul\":1628:1650   */\n  swap1\n  pop\n    /* \"#utility.yul\":1695:1696   */\n  0x01\n    /* \"#utility.yul\":1689:1693   */\n  dup3\n    /* \"#utility.yul\":1685:1697   */\n  and\n    /* \"#utility.yul\":1716:1734   */\n  dup1\n    /* \"#utility.yul\":1706:1787   */\n  tag_59\n  jumpi\n    /* \"#utility.yul\":1772:1776   */\n  0x7f\n    /* \"#utility.yul\":1764:1770   */\n  dup3\n    /* \"#utility.yul\":1760:1777   */\n  and\n    /* \"#utility.yul\":1750:1777   */\n  swap2\n  pop\n    /* \"#utility.yul\":1706:1787   */\ntag_59:\n    /* \"#utility.yul\":1834:1836   */\n  0x20\n    /* \"#utility.yul\":1826:1832   */\n  dup3\n    /* \"#utility.yul\":1823:1837   */\n  lt\n    /* \"#utility.yul\":1803:1821   */\n  dup2\n    /* \"#utility.yul\":1800:1838   */\n  eq\n    /* \"#utility.yul\":1797:1881   */\n  iszero\n  tag_60\n  jumpi\n    /* \"#utility.yul\":1853:1871   */\n  tag_61\n  tag_62\n  jump\t// in\ntag_61:\n    /* \"#utility.yul\":1797:1881   */\ntag_60:\n    /* \"#utility.yul\":1618:1887   */\n  pop\n    /* \"#utility.yul\":1567:1887   */\n  swap2\n  swap1\n  pop\n  jump\t// out\n    /* \"#utility.yul\":1893:2073   */\ntag_51:\n    /* \"#utility.yul\":1941:2018   */\n  0x4e487b7100000000000000000000000000000000000000000000000000000000\n    /* \"#utility.yul\":1938:1939   */\n  0x00\n    /* \"#utility.yul\":1931:2019   */\n  mstore\n    /* \"#utility.yul\":2038:2042   */\n  0x11\n    /* \"#utility.yul\":2035:2036   */\n  0x04\n    /* \"#utility.yul\":2028:2043   */\n  mstore\n    /* \"#utility.yul\":2062:2066   */\n  0x24\n    /* \"#utility.yul\":2059:2060   */\n  0x00\n    /* \"#utility.yul\":2052:2067   */\n  revert\n    /* \"#utility.yul\":2079:2259   */\ntag_13:\n    /* \"#utility.yul\":2127:2204   */\n  0x4e487b7100000000000000000000000000000000000000000000000000000000\n    /* \"#utility.yul\":2124:2125   */\n  0x00\n    /* \"#utility.yul\":2117:2205   */\n  mstore\n    /* \"#utility.yul\":2224:2228   */\n  0x21\n    /* \"#utility.yul\":2221:2222   */\n  0x04\n    /* \"#utility.yul\":2214:2229   */\n  mstore\n    /* \"#utility.yul\":2248:2252   */\n  0x24\n    /* \"#utility.yul\":2245:2246   */\n  0x00\n    /* \"#utility.yul\":2238:2253   */\n  revert\n    /* \"#utility.yul\":2265:2445   */\ntag_62:\n    /* \"#utility.yul\":2313:2390   */\n  0x4e487b7100000000000000000000000000000000000000000000000000000000\n    /* \"#utility.yul\":2310:2311   */\n  0x00\n    /* \"#utility.yul\":2303:2391   */\n  mstore\n    /* \"#utility.yul\":2410:2414   */\n  0x22\n    /* \"#utility.yul\":2407:2408   */\n  0x04\n    /* \"#utility.yul\":2400:2415   */\n  mstore\n    /* \"#utility.yul\":2434:2438   */\n  0x24\n    /* \"#utility.yul\":2431:2432   */\n  0x00\n    /* \"#utility.yul\":2424:2439   */\n  revert\n    /* \"#utility.yul\":2574:2691   */\ntag_40:\n    /* \"#utility.yul\":2683:2684   */\n  0x00\n    /* \"#utility.yul\":2680:2681   */\n  dup1\n    /* \"#utility.yul\":2673:2685   */\n  revert\n    /* \"#utility.yul\":2697:2835   */\ntag_32:\n    /* \"#utility.yul\":2778:2810   */\n  tag_70\n    /* \"#utility.yul\":2804:2809   */\n  dup2\n    /* \"#utility.yul\":2778:2810   */\n  tag_52\n  jump\t// in\ntag_70:\n    /* \"#utility.yul\":2771:2776   */\n  dup2\n    /* \"#utility.yul\":2768:2811   */\n  eq\n    /* \"#utility.yul\":2758:2829   */\n  tag_71\n  jumpi\n    /* \"#utility.yul\":2825:2826   */\n  0x00\n    /* \"#utility.yul\":2822:2823   */\n  dup1\n    /* \"#utility.yul\":2815:2827   */\n  revert\n    /* \"#utility.yul\":2758:2829   */\ntag_71:\n    /* \"#utility.yul\":2697:2835   */\n  pop\n  jump\t// out\n    /* \"#utility.yul\":2841:2963   */\ntag_36:\n    /* \"#utility.yul\":2914:2938   */\n  tag_73\n    /* \"#utility.yul\":2932:2937   */\n  dup2\n    /* \"#utility.yul\":2914:2938   */\n  tag_47\n  jump\t// in\ntag_73:\n    /* \"#utility.yul\":2907:2912   */\n  dup2\n    /* \"#utility.yul\":2904:2939   */\n  eq\n    /* \"#utility.yul\":2894:2957   */\n  tag_74\n  jumpi\n    /* \"#utility.yul\":2953:2954   */\n  0x00\n    /* \"#utility.yul\":2950:2951   */\n  dup1\n    /* \"#utility.yul\":2943:2955   */\n  revert\n    /* \"#utility.yul\":2894:2957   */\ntag_74:\n    /* \"#utility.yul\":2841:2963   */\n  pop\n  jump\t// out\n    /* \"contracts/Erc20token.sol\":3280:6575  contract icoContract is MyToken{\r... */\ntag_16:\n  dataSize(sub_0)\n  dup1\n  dataOffset(sub_0)\n  0x00\n  codecopy\n  0x00\n  return\nstop\n\nsub_0: assembly {\n        /* \"contracts/Erc20token.sol\":3280:6575  contract icoContract is MyToken{\r... */\n      mstore(0x40, 0x80)\n      jumpi(tag_1, lt(calldatasize, 0x04))\n      shr(0xe0, calldataload(0x00))\n      dup1\n      0x5c658165\n      gt\n      tag_25\n      jumpi\n      dup1\n      0xbb0c8298\n      gt\n      tag_26\n      jumpi\n      dup1\n      0xbb0c8298\n      eq\n      tag_19\n      jumpi\n      dup1\n      0xc59ee1dc\n      eq\n      tag_20\n      jumpi\n      dup1\n      0xdd62ed3e\n      eq\n      tag_21\n      jumpi\n      dup1\n      0xe8b5e51f\n      eq\n      tag_22\n      jumpi\n      dup1\n      0xf851a440\n      eq\n      tag_23\n      jumpi\n      dup1\n      0xfb86a404\n      eq\n      tag_24\n      jumpi\n      jump(tag_1)\n    tag_26:\n      dup1\n      0x5c658165\n      eq\n      tag_13\n      jumpi\n      dup1\n      0x70a08231\n      eq\n      tag_14\n      jumpi\n      dup1\n      0x78e97925\n      eq\n      tag_15\n      jumpi\n      dup1\n      0x95d89b41\n      eq\n      tag_16\n      jumpi\n      dup1\n      0xa9059cbb\n      eq\n      tag_17\n      jumpi\n      dup1\n      0xa9bcea61\n      eq\n      tag_18\n      jumpi\n      jump(tag_1)\n    tag_25:\n      dup1\n      0x28f833b7\n      gt\n      tag_27\n      jumpi\n      dup1\n      0x28f833b7\n      eq\n      tag_7\n      jumpi\n      dup1\n      0x2942b61a\n      eq\n      tag_8\n      jumpi\n      dup1\n      0x313ce567\n      eq\n      tag_9\n      jumpi\n      dup1\n      0x3197cbb6\n      eq\n      tag_10\n      jumpi\n      dup1\n      0x44f38756\n      eq\n      tag_11\n      jumpi\n      dup1\n      0x4d853ee5\n      eq\n      tag_12\n      jumpi\n      jump(tag_1)\n    tag_27:\n      dup1\n      0x06fdde03\n      eq\n      tag_2\n      jumpi\n      dup1\n      0x095ea7b3\n      eq\n      tag_3\n      jumpi\n      dup1\n      0x18160ddd\n      eq\n      tag_4\n      jumpi\n      dup1\n      0x23b872dd\n      eq\n      tag_5\n      jumpi\n      dup1\n      0x27e235e3\n      eq\n      tag_6\n      jumpi\n    tag_1:\n      0x00\n      dup1\n      revert\n        /* \"contracts/Erc20token.sol\":1033:1062  string public name = \"ZILLAX\" */\n    tag_2:\n      callvalue\n      dup1\n      iszero\n      tag_28\n      jumpi\n      0x00\n      dup1\n      revert\n    tag_28:\n      pop\n      tag_29\n      tag_30\n      jump\t// in\n    tag_29:\n      mload(0x40)\n      tag_31\n      swap2\n      swap1\n      tag_32\n      jump\t// in\n    tag_31:\n      mload(0x40)\n      dup1\n      swap2\n      sub\n      swap1\n      return\n        /* \"contracts/Erc20token.sol\":2225:2627  function approve(address spender, uint tokens) public override returns (bool success){\r... */\n    tag_3:\n      callvalue\n      dup1\n      iszero\n      tag_33\n      jumpi\n      0x00\n      dup1\n      revert\n    tag_33:\n      pop\n      tag_34\n      0x04\n      dup1\n      calldatasize\n      sub\n      dup2\n      add\n      swap1\n      tag_35\n      swap2\n      swap1\n      tag_36\n      jump\t// in\n    tag_35:\n      tag_37\n      jump\t// in\n    tag_34:\n      mload(0x40)\n      tag_38\n      swap2\n      swap1\n      tag_39\n      jump\t// in\n    tag_38:\n      mload(0x40)\n      dup1\n      swap2\n      sub\n      swap1\n      return\n        /* \"contracts/Erc20token.sol\":1168:1200  uint public override totalSupply */\n    tag_4:\n      callvalue\n      dup1\n      iszero\n      tag_40\n      jumpi\n      0x00\n      dup1\n      revert\n    tag_40:\n      pop\n      tag_41\n      tag_42\n      jump\t// in\n    tag_41:\n      mload(0x40)\n      tag_43\n      swap2\n      swap1\n      tag_44\n      jump\t// in\n    tag_43:\n      mload(0x40)\n      dup1\n      swap2\n      sub\n      swap1\n      return\n        /* \"contracts/Erc20token.sol\":2635:3271  function transferFrom(address from, address to, uint tokens) public override returns (bool success){\r... */\n    tag_5:\n      callvalue\n      dup1\n      iszero\n      tag_45\n      jumpi\n      0x00\n      dup1\n      revert\n    tag_45:\n      pop\n      tag_46\n      0x04\n      dup1\n      calldatasize\n      sub\n      dup2\n      add\n      swap1\n      tag_47\n      swap2\n      swap1\n      tag_48\n      jump\t// in\n    tag_47:\n      tag_49\n      jump\t// in\n    tag_46:\n      mload(0x40)\n      tag_50\n      swap2\n      swap1\n      tag_39\n      jump\t// in\n    tag_50:\n      mload(0x40)\n      dup1\n      swap2\n      sub\n      swap1\n      return\n        /* \"contracts/Erc20token.sol\":1209:1250  mapping(address => uint) public  balances */\n    tag_6:\n      callvalue\n      dup1\n      iszero\n      tag_51\n      jumpi\n      0x00\n      dup1\n      revert\n    tag_51:\n      pop\n      tag_52\n      0x04\n      dup1\n      calldatasize\n      sub\n      dup2\n      add\n      swap1\n      tag_53\n      swap2\n      swap1\n      tag_54\n      jump\t// in\n    tag_53:\n      tag_55\n      jump\t// in\n    tag_52:\n      mload(0x40)\n      tag_56\n      swap2\n      swap1\n      tag_44\n      jump\t// in\n    tag_56:\n      mload(0x40)\n      dup1\n      swap2\n      sub\n      swap1\n      return\n        /* \"contracts/Erc20token.sol\":4077:4114  address payable public depositAddress */\n    tag_7:\n      callvalue\n      dup1\n      iszero\n      tag_57\n      jumpi\n      0x00\n      dup1\n      revert\n    tag_57:\n      pop\n      tag_58\n      tag_59\n      jump\t// in\n    tag_58:\n      mload(0x40)\n      tag_60\n      swap2\n      swap1\n      tag_61\n      jump\t// in\n    tag_60:\n      mload(0x40)\n      dup1\n      swap2\n      sub\n      swap1\n      return\n        /* \"contracts/Erc20token.sol\":4715:5201  function checkIcoState() public view returns(State){\r... */\n    tag_8:\n      callvalue\n      dup1\n      iszero\n      tag_62\n      jumpi\n      0x00\n      dup1\n      revert\n    tag_62:\n      pop\n      tag_63\n      tag_64\n      jump\t// in\n    tag_63:\n      mload(0x40)\n      tag_65\n      swap2\n      swap1\n      tag_66\n      jump\t// in\n    tag_65:\n      mload(0x40)\n      dup1\n      swap2\n      sub\n      swap1\n      return\n        /* \"contracts/Erc20token.sol\":1104:1128  uint public decimals = 0 */\n    tag_9:\n      callvalue\n      dup1\n      iszero\n      tag_67\n      jumpi\n      0x00\n      dup1\n      revert\n    tag_67:\n      pop\n      tag_68\n      tag_69\n      jump\t// in\n    tag_68:\n      mload(0x40)\n      tag_70\n      swap2\n      swap1\n      tag_44\n      jump\t// in\n    tag_70:\n      mload(0x40)\n      dup1\n      swap2\n      sub\n      swap1\n      return\n        /* \"contracts/Erc20token.sol\":3817:3836  uint public endTime */\n    tag_10:\n      callvalue\n      dup1\n      iszero\n      tag_71\n      jumpi\n      0x00\n      dup1\n      revert\n    tag_71:\n      pop\n      tag_72\n      tag_73\n      jump\t// in\n    tag_72:\n      mload(0x40)\n      tag_74\n      swap2\n      swap1\n      tag_44\n      jump\t// in\n    tag_74:\n      mload(0x40)\n      dup1\n      swap2\n      sub\n      swap1\n      return\n        /* \"contracts/Erc20token.sol\":4020:4041  State public icoState */\n    tag_11:\n      callvalue\n      dup1\n      iszero\n      tag_75\n      jumpi\n      0x00\n      dup1\n      revert\n    tag_75:\n      pop\n      tag_76\n      tag_77\n      jump\t// in\n    tag_76:\n      mload(0x40)\n      tag_78\n      swap2\n      swap1\n      tag_66\n      jump\t// in\n    tag_78:\n      mload(0x40)\n      dup1\n      swap2\n      sub\n      swap1\n      return\n        /* \"contracts/Erc20token.sol\":1137:1159  address public founder */\n    tag_12:\n      callvalue\n      dup1\n      iszero\n      tag_79\n      jumpi\n      0x00\n      dup1\n      revert\n    tag_79:\n      pop\n      tag_80\n      tag_81\n      jump\t// in\n    tag_80:\n      mload(0x40)\n      tag_82\n      swap2\n      swap1\n      tag_83\n      jump\t// in\n    tag_82:\n      mload(0x40)\n      dup1\n      swap2\n      sub\n      swap1\n      return\n        /* \"contracts/Erc20token.sol\":1259:1318  mapping(address => mapping(address => uint)) public allowed */\n    tag_13:\n      callvalue\n      dup1\n      iszero\n      tag_84\n      jumpi\n      0x00\n      dup1\n      revert\n    tag_84:\n      pop\n      tag_85\n      0x04\n      dup1\n      calldatasize\n      sub\n      dup2\n      add\n      swap1\n      tag_86\n      swap2\n      swap1\n      tag_87\n      jump\t// in\n    tag_86:\n      tag_88\n      jump\t// in\n    tag_85:\n      mload(0x40)\n      tag_89\n      swap2\n      swap1\n      tag_44\n      jump\t// in\n    tag_89:\n      mload(0x40)\n      dup1\n      swap2\n      sub\n      swap1\n      return\n        /* \"contracts/Erc20token.sol\":1461:1589  function balanceOf(address tokenOwner) public override view returns (uint balance){\r... */\n    tag_14:\n      callvalue\n      dup1\n      iszero\n      tag_90\n      jumpi\n      0x00\n      dup1\n      revert\n    tag_90:\n      pop\n      tag_91\n      0x04\n      dup1\n      calldatasize\n      sub\n      dup2\n      add\n      swap1\n      tag_92\n      swap2\n      swap1\n      tag_54\n      jump\t// in\n    tag_92:\n      tag_93\n      jump\t// in\n    tag_91:\n      mload(0x40)\n      tag_94\n      swap2\n      swap1\n      tag_44\n      jump\t// in\n    tag_94:\n      mload(0x40)\n      dup1\n      swap2\n      sub\n      swap1\n      return\n        /* \"contracts/Erc20token.sol\":3771:3810  uint public startTime = block.timestamp */\n    tag_15:\n      callvalue\n      dup1\n      iszero\n      tag_95\n      jumpi\n      0x00\n      dup1\n      revert\n    tag_95:\n      pop\n      tag_96\n      tag_97\n      jump\t// in\n    tag_96:\n      mload(0x40)\n      tag_98\n      swap2\n      swap1\n      tag_44\n      jump\t// in\n    tag_98:\n      mload(0x40)\n      dup1\n      swap2\n      sub\n      swap1\n      return\n        /* \"contracts/Erc20token.sol\":1069:1097  string public symbol = \"ZLZ\" */\n    tag_16:\n      callvalue\n      dup1\n      iszero\n      tag_99\n      jumpi\n      0x00\n      dup1\n      revert\n    tag_99:\n      pop\n      tag_100\n      tag_101\n      jump\t// in\n    tag_100:\n      mload(0x40)\n      tag_102\n      swap2\n      swap1\n      tag_32\n      jump\t// in\n    tag_102:\n      mload(0x40)\n      dup1\n      swap2\n      sub\n      swap1\n      return\n        /* \"contracts/Erc20token.sol\":1643:1964  function transfer(address to, uint tokens) public override returns (bool success){\r... */\n    tag_17:\n      callvalue\n      dup1\n      iszero\n      tag_103\n      jumpi\n      0x00\n      dup1\n      revert\n    tag_103:\n      pop\n      tag_104\n      0x04\n      dup1\n      calldatasize\n      sub\n      dup2\n      add\n      swap1\n      tag_105\n      swap2\n      swap1\n      tag_36\n      jump\t// in\n    tag_105:\n      tag_106\n      jump\t// in\n    tag_104:\n      mload(0x40)\n      tag_107\n      swap2\n      swap1\n      tag_39\n      jump\t// in\n    tag_107:\n      mload(0x40)\n      dup1\n      swap2\n      sub\n      swap1\n      return\n        /* \"contracts/Erc20token.sol\":3936:3971  uint public maximumAmount = 1 ether */\n    tag_18:\n      callvalue\n      dup1\n      iszero\n      tag_108\n      jumpi\n      0x00\n      dup1\n      revert\n    tag_108:\n      pop\n      tag_109\n      tag_110\n      jump\t// in\n    tag_109:\n      mload(0x40)\n      tag_111\n      swap2\n      swap1\n      tag_44\n      jump\t// in\n    tag_111:\n      mload(0x40)\n      dup1\n      swap2\n      sub\n      swap1\n      return\n        /* \"contracts/Erc20token.sol\":3892:3929  uint public minimumAmount = 0.1 ether */\n    tag_19:\n      callvalue\n      dup1\n      iszero\n      tag_112\n      jumpi\n      0x00\n      dup1\n      revert\n    tag_112:\n      pop\n      tag_113\n      tag_114\n      jump\t// in\n    tag_113:\n      mload(0x40)\n      tag_115\n      swap2\n      swap1\n      tag_44\n      jump\t// in\n    tag_115:\n      mload(0x40)\n      dup1\n      swap2\n      sub\n      swap1\n      return\n        /* \"contracts/Erc20token.sol\":3517:3541  uint public raisedAmount */\n    tag_20:\n      callvalue\n      dup1\n      iszero\n      tag_116\n      jumpi\n      0x00\n      dup1\n      revert\n    tag_116:\n      pop\n      tag_117\n      tag_118\n      jump\t// in\n    tag_117:\n      mload(0x40)\n      tag_119\n      swap2\n      swap1\n      tag_44\n      jump\t// in\n    tag_119:\n      mload(0x40)\n      dup1\n      swap2\n      sub\n      swap1\n      return\n        /* \"contracts/Erc20token.sol\":2062:2217  function allowance(address tokenOwner, address spender) public override view returns (uint remaining){\r... */\n    tag_21:\n      callvalue\n      dup1\n      iszero\n      tag_120\n      jumpi\n      0x00\n      dup1\n      revert\n    tag_120:\n      pop\n      tag_121\n      0x04\n      dup1\n      calldatasize\n      sub\n      dup2\n      add\n      swap1\n      tag_122\n      swap2\n      swap1\n      tag_87\n      jump\t// in\n    tag_122:\n      tag_123\n      jump\t// in\n    tag_121:\n      mload(0x40)\n      tag_124\n      swap2\n      swap1\n      tag_44\n      jump\t// in\n    tag_124:\n      mload(0x40)\n      dup1\n      swap2\n      sub\n      swap1\n      return\n        /* \"contracts/Erc20token.sol\":5250:6570  function invest() public payable onlyAdmin returns(bool){\r... */\n    tag_22:\n      tag_125\n      tag_126\n      jump\t// in\n    tag_125:\n      mload(0x40)\n      tag_127\n      swap2\n      swap1\n      tag_39\n      jump\t// in\n    tag_127:\n      mload(0x40)\n      dup1\n      swap2\n      sub\n      swap1\n      return\n        /* \"contracts/Erc20token.sol\":3320:3340  address public admin */\n    tag_23:\n      callvalue\n      dup1\n      iszero\n      tag_128\n      jumpi\n      0x00\n      dup1\n      revert\n    tag_128:\n      pop\n      tag_129\n      tag_130\n      jump\t// in\n    tag_129:\n      mload(0x40)\n      tag_131\n      swap2\n      swap1\n      tag_83\n      jump\t// in\n    tag_131:\n      mload(0x40)\n      dup1\n      swap2\n      sub\n      swap1\n      return\n        /* \"contracts/Erc20token.sol\":3600:3629  uint public hardCap = 5 ether */\n    tag_24:\n      callvalue\n      dup1\n      iszero\n      tag_132\n      jumpi\n      0x00\n      dup1\n      revert\n    tag_132:\n      pop\n      tag_133\n      tag_134\n      jump\t// in\n    tag_133:\n      mload(0x40)\n      tag_135\n      swap2\n      swap1\n      tag_44\n      jump\t// in\n    tag_135:\n      mload(0x40)\n      dup1\n      swap2\n      sub\n      swap1\n      return\n        /* \"contracts/Erc20token.sol\":1033:1062  string public name = \"ZILLAX\" */\n    tag_30:\n      0x00\n      dup1\n      sload\n      tag_136\n      swap1\n      tag_137\n      jump\t// in\n    tag_136:\n      dup1\n      0x1f\n      add\n      0x20\n      dup1\n      swap2\n      div\n      mul\n      0x20\n      add\n      mload(0x40)\n      swap1\n      dup2\n      add\n      0x40\n      mstore\n      dup1\n      swap3\n      swap2\n      swap1\n      dup2\n      dup2\n      mstore\n      0x20\n      add\n      dup3\n      dup1\n      sload\n      tag_138\n      swap1\n      tag_137\n      jump\t// in\n    tag_138:\n      dup1\n      iszero\n      tag_139\n      jumpi\n      dup1\n      0x1f\n      lt\n      tag_140\n      jumpi\n      0x0100\n      dup1\n      dup4\n      sload\n      div\n      mul\n      dup4\n      mstore\n      swap2\n      0x20\n      add\n      swap2\n      jump(tag_139)\n    tag_140:\n      dup3\n      add\n      swap2\n      swap1\n      0x00\n      mstore\n      keccak256(0x00, 0x20)\n      swap1\n    tag_141:\n      dup2\n      sload\n      dup2\n      mstore\n      swap1\n      0x01\n      add\n      swap1\n      0x20\n      add\n      dup1\n      dup4\n      gt\n      tag_141\n      jumpi\n      dup3\n      swap1\n      sub\n      0x1f\n      and\n      dup3\n      add\n      swap2\n    tag_139:\n      pop\n      pop\n      pop\n      pop\n      pop\n      dup2\n      jump\t// out\n        /* \"contracts/Erc20token.sol\":2225:2627  function approve(address spender, uint tokens) public override returns (bool success){\r... */\n    tag_37:\n        /* \"contracts/Erc20token.sol\":2297:2309  bool success */\n      0x00\n        /* \"contracts/Erc20token.sol\":2355:2361  tokens */\n      dup2\n        /* \"contracts/Erc20token.sol\":2331:2339  balances */\n      0x05\n        /* \"contracts/Erc20token.sol\":2331:2351  balances[msg.sender] */\n      0x00\n        /* \"contracts/Erc20token.sol\":2340:2350  msg.sender */\n      caller\n        /* \"contracts/Erc20token.sol\":2331:2351  balances[msg.sender] */\n      0xffffffffffffffffffffffffffffffffffffffff\n      and\n      0xffffffffffffffffffffffffffffffffffffffff\n      and\n      dup2\n      mstore\n      0x20\n      add\n      swap1\n      dup2\n      mstore\n      0x20\n      add\n      0x00\n      keccak256\n      sload\n        /* \"contracts/Erc20token.sol\":2331:2361  balances[msg.sender] >= tokens */\n      lt\n      iszero\n        /* \"contracts/Erc20token.sol\":2323:2414  require(balances[msg.sender] >= tokens, \"Token value is greater than your current holding\") */\n      tag_143\n      jumpi\n      mload(0x40)\n      0x08c379a000000000000000000000000000000000000000000000000000000000\n      dup2\n      mstore\n      0x04\n      add\n      tag_144\n      swap1\n      tag_145\n      jump\t// in\n    tag_144:\n      mload(0x40)\n      dup1\n      swap2\n      sub\n      swap1\n      revert\n    tag_143:\n        /* \"contracts/Erc20token.sol\":2442:2443  0 */\n      0x00\n        /* \"contracts/Erc20token.sol\":2433:2439  tokens */\n      dup3\n        /* \"contracts/Erc20token.sol\":2433:2443  tokens > 0 */\n      gt\n        /* \"contracts/Erc20token.sol\":2425:2482  require(tokens > 0, \"Token value must be greater than 0\") */\n      tag_146\n      jumpi\n      mload(0x40)\n      0x08c379a000000000000000000000000000000000000000000000000000000000\n      dup2\n      mstore\n      0x04\n      add\n      tag_147\n      swap1\n      tag_148\n      jump\t// in\n    tag_147:\n      mload(0x40)\n      dup1\n      swap2\n      sub\n      swap1\n      revert\n    tag_146:\n        /* \"contracts/Erc20token.sol\":2534:2540  tokens */\n      dup2\n        /* \"contracts/Erc20token.sol\":2503:2510  allowed */\n      0x06\n        /* \"contracts/Erc20token.sol\":2503:2522  allowed[msg.sender] */\n      0x00\n        /* \"contracts/Erc20token.sol\":2511:2521  msg.sender */\n      caller\n        /* \"contracts/Erc20token.sol\":2503:2522  allowed[msg.sender] */\n      0xffffffffffffffffffffffffffffffffffffffff\n      and\n      0xffffffffffffffffffffffffffffffffffffffff\n      and\n      dup2\n      mstore\n      0x20\n      add\n      swap1\n      dup2\n      mstore\n      0x20\n      add\n      0x00\n      keccak256\n        /* \"contracts/Erc20token.sol\":2503:2531  allowed[msg.sender][spender] */\n      0x00\n        /* \"contracts/Erc20token.sol\":2523:2530  spender */\n      dup6\n        /* \"contracts/Erc20token.sol\":2503:2531  allowed[msg.sender][spender] */\n      0xffffffffffffffffffffffffffffffffffffffff\n      and\n      0xffffffffffffffffffffffffffffffffffffffff\n      and\n      dup2\n      mstore\n      0x20\n      add\n      swap1\n      dup2\n      mstore\n      0x20\n      add\n      0x00\n      keccak256\n        /* \"contracts/Erc20token.sol\":2503:2540  allowed[msg.sender][spender] = tokens */\n      dup2\n      swap1\n      sstore\n      pop\n        /* \"contracts/Erc20token.sol\":2579:2586  spender */\n      dup3\n        /* \"contracts/Erc20token.sol\":2558:2595  Approval(msg.sender, spender, tokens) */\n      0xffffffffffffffffffffffffffffffffffffffff\n      and\n        /* \"contracts/Erc20token.sol\":2567:2577  msg.sender */\n      caller\n        /* \"contracts/Erc20token.sol\":2558:2595  Approval(msg.sender, spender, tokens) */\n      0xffffffffffffffffffffffffffffffffffffffff\n      and\n      0x8c5be1e5ebec7d5bd14f71427d1e84f3dd0314c0f7b2291e5b200ac8c7c3b925\n        /* \"contracts/Erc20token.sol\":2588:2594  tokens */\n      dup5\n        /* \"contracts/Erc20token.sol\":2558:2595  Approval(msg.sender, spender, tokens) */\n      mload(0x40)\n      tag_149\n      swap2\n      swap1\n      tag_44\n      jump\t// in\n    tag_149:\n      mload(0x40)\n      dup1\n      swap2\n      sub\n      swap1\n      log3\n        /* \"contracts/Erc20token.sol\":2615:2619  true */\n      0x01\n        /* \"contracts/Erc20token.sol\":2608:2619  return true */\n      swap1\n      pop\n        /* \"contracts/Erc20token.sol\":2225:2627  function approve(address spender, uint tokens) public override returns (bool success){\r... */\n      swap3\n      swap2\n      pop\n      pop\n      jump\t// out\n        /* \"contracts/Erc20token.sol\":1168:1200  uint public override totalSupply */\n    tag_42:\n      sload(0x04)\n      dup2\n      jump\t// out\n        /* \"contracts/Erc20token.sol\":2635:3271  function transferFrom(address from, address to, uint tokens) public override returns (bool success){\r... */\n    tag_49:\n        /* \"contracts/Erc20token.sol\":2721:2733  bool success */\n      0x00\n        /* \"contracts/Erc20token.sol\":2782:2788  tokens */\n      dup2\n        /* \"contracts/Erc20token.sol\":2753:2760  allowed */\n      0x06\n        /* \"contracts/Erc20token.sol\":2753:2766  allowed[from] */\n      0x00\n        /* \"contracts/Erc20token.sol\":2761:2765  from */\n      dup7\n        /* \"contracts/Erc20token.sol\":2753:2766  allowed[from] */\n      0xffffffffffffffffffffffffffffffffffffffff\n      and\n      0xffffffffffffffffffffffffffffffffffffffff\n      and\n      dup2\n      mstore\n      0x20\n      add\n      swap1\n      dup2\n      mstore\n      0x20\n      add\n      0x00\n      keccak256\n        /* \"contracts/Erc20token.sol\":2753:2778  allowed[from][msg.sender] */\n      0x00\n        /* \"contracts/Erc20token.sol\":2767:2777  msg.sender */\n      caller\n        /* \"contracts/Erc20token.sol\":2753:2778  allowed[from][msg.sender] */\n      0xffffffffffffffffffffffffffffffffffffffff\n      and\n      0xffffffffffffffffffffffffffffffffffffffff\n      and\n      dup2\n      mstore\n      0x20\n      add\n      swap1\n      dup2\n      mstore\n      0x20\n      add\n      0x00\n      keccak256\n      sload\n        /* \"contracts/Erc20token.sol\":2753:2788  allowed[from][msg.sender] >= tokens */\n      lt\n      iszero\n        /* \"contracts/Erc20token.sol\":2745:2841  require(allowed[from][msg.sender] >= tokens, \"Token value is greater than the approved balance\") */\n      tag_151\n      jumpi\n      mload(0x40)\n      0x08c379a000000000000000000000000000000000000000000000000000000000\n      dup2\n      mstore\n      0x04\n      add\n      tag_152\n      swap1\n      tag_153\n      jump\t// in\n    tag_152:\n      mload(0x40)\n      dup1\n      swap2\n      sub\n      swap1\n      revert\n    tag_151:\n        /* \"contracts/Erc20token.sol\":2878:2884  tokens */\n      dup2\n        /* \"contracts/Erc20token.sol\":2860:2868  balances */\n      0x05\n        /* \"contracts/Erc20token.sol\":2860:2874  balances[from] */\n      0x00\n        /* \"contracts/Erc20token.sol\":2869:2873  from */\n      dup7\n        /* \"contracts/Erc20token.sol\":2860:2874  balances[from] */\n      0xffffffffffffffffffffffffffffffffffffffff\n      and\n      0xffffffffffffffffffffffffffffffffffffffff\n      and\n      dup2\n      mstore\n      0x20\n      add\n      swap1\n      dup2\n      mstore\n      0x20\n      add\n      0x00\n      keccak256\n      sload\n        /* \"contracts/Erc20token.sol\":2860:2884  balances[from] >= tokens */\n      lt\n      iszero\n        /* \"contracts/Erc20token.sol\":2852:2907  require(balances[from] >= tokens, \"Insuficient Balnce\") */\n      tag_154\n      jumpi\n      mload(0x40)\n      0x08c379a000000000000000000000000000000000000000000000000000000000\n      dup2\n      mstore\n      0x04\n      add\n      tag_155\n      swap1\n      tag_156\n      jump\t// in\n    tag_155:\n      mload(0x40)\n      dup1\n      swap2\n      sub\n      swap1\n      revert\n    tag_154:\n        /* \"contracts/Erc20token.sol\":2935:2936  0 */\n      0x00\n        /* \"contracts/Erc20token.sol\":2926:2932  tokens */\n      dup3\n        /* \"contracts/Erc20token.sol\":2926:2936  tokens > 0 */\n      gt\n        /* \"contracts/Erc20token.sol\":2918:2975  require(tokens > 0, \"Token value must be greater than 0\") */\n      tag_157\n      jumpi\n      mload(0x40)\n      0x08c379a000000000000000000000000000000000000000000000000000000000\n      dup2\n      mstore\n      0x04\n      add\n      tag_158\n      swap1\n      tag_148\n      jump\t// in\n    tag_158:\n      mload(0x40)\n      dup1\n      swap2\n      sub\n      swap1\n      revert\n    tag_157:\n        /* \"contracts/Erc20token.sol\":3017:3023  tokens */\n      dup2\n        /* \"contracts/Erc20token.sol\":2988:2995  allowed */\n      0x06\n        /* \"contracts/Erc20token.sol\":2988:3001  allowed[from] */\n      0x00\n        /* \"contracts/Erc20token.sol\":2996:3000  from */\n      dup7\n        /* \"contracts/Erc20token.sol\":2988:3001  allowed[from] */\n      0xffffffffffffffffffffffffffffffffffffffff\n      and\n      0xffffffffffffffffffffffffffffffffffffffff\n      and\n      dup2\n      mstore\n      0x20\n      add\n      swap1\n      dup2\n      mstore\n      0x20\n      add\n      0x00\n      keccak256\n        /* \"contracts/Erc20token.sol\":2988:3013  allowed[from][msg.sender] */\n      0x00\n        /* \"contracts/Erc20token.sol\":3002:3012  msg.sender */\n      caller\n        /* \"contracts/Erc20token.sol\":2988:3013  allowed[from][msg.sender] */\n      0xffffffffffffffffffffffffffffffffffffffff\n      and\n      0xffffffffffffffffffffffffffffffffffffffff\n      and\n      dup2\n      mstore\n      0x20\n      add\n      swap1\n      dup2\n      mstore\n      0x20\n      add\n      0x00\n      keccak256\n      0x00\n        /* \"contracts/Erc20token.sol\":2988:3023  allowed[from][msg.sender] -= tokens */\n      dup3\n      dup3\n      sload\n      tag_159\n      swap2\n      swap1\n      tag_160\n      jump\t// in\n    tag_159:\n      swap3\n      pop\n      pop\n      dup2\n      swap1\n      sstore\n      pop\n        /* \"contracts/Erc20token.sol\":3105:3111  tokens */\n      dup2\n        /* \"contracts/Erc20token.sol\":3087:3095  balances */\n      0x05\n        /* \"contracts/Erc20token.sol\":3087:3101  balances[from] */\n      0x00\n        /* \"contracts/Erc20token.sol\":3096:3100  from */\n      dup7\n        /* \"contracts/Erc20token.sol\":3087:3101  balances[from] */\n      0xffffffffffffffffffffffffffffffffffffffff\n      and\n      0xffffffffffffffffffffffffffffffffffffffff\n      and\n      dup2\n      mstore\n      0x20\n      add\n      swap1\n      dup2\n      mstore\n      0x20\n      add\n      0x00\n      keccak256\n      0x00\n        /* \"contracts/Erc20token.sol\":3087:3111  balances[from] -= tokens */\n      dup3\n      dup3\n      sload\n      tag_161\n      swap2\n      swap1\n      tag_160\n      jump\t// in\n    tag_161:\n      swap3\n      pop\n      pop\n      dup2\n      swap1\n      sstore\n      pop\n        /* \"contracts/Erc20token.sol\":3189:3195  tokens */\n      dup2\n        /* \"contracts/Erc20token.sol\":3173:3181  balances */\n      0x05\n        /* \"contracts/Erc20token.sol\":3173:3185  balances[to] */\n      0x00\n        /* \"contracts/Erc20token.sol\":3182:3184  to */\n      dup6\n        /* \"contracts/Erc20token.sol\":3173:3185  balances[to] */\n      0xffffffffffffffffffffffffffffffffffffffff\n      and\n      0xffffffffffffffffffffffffffffffffffffffff\n      and\n      dup2\n      mstore\n      0x20\n      add\n      swap1\n      dup2\n      mstore\n      0x20\n      add\n      0x00\n      keccak256\n      0x00\n        /* \"contracts/Erc20token.sol\":3173:3195  balances[to] += tokens */\n      dup3\n      dup3\n      sload\n      tag_162\n      swap2\n      swap1\n      tag_163\n      jump\t// in\n    tag_162:\n      swap3\n      pop\n      pop\n      dup2\n      swap1\n      sstore\n      pop\n        /* \"contracts/Erc20token.sol\":3228:3230  to */\n      dup3\n        /* \"contracts/Erc20token.sol\":3213:3239  Transfer(from, to, tokens) */\n      0xffffffffffffffffffffffffffffffffffffffff\n      and\n        /* \"contracts/Erc20token.sol\":3222:3226  from */\n      dup5\n        /* \"contracts/Erc20token.sol\":3213:3239  Transfer(from, to, tokens) */\n      0xffffffffffffffffffffffffffffffffffffffff\n      and\n      0xddf252ad1be2c89b69c2b068fc378daa952ba7f163c4a11628f55a4df523b3ef\n        /* \"contracts/Erc20token.sol\":3232:3238  tokens */\n      dup5\n        /* \"contracts/Erc20token.sol\":3213:3239  Transfer(from, to, tokens) */\n      mload(0x40)\n      tag_164\n      swap2\n      swap1\n      tag_44\n      jump\t// in\n    tag_164:\n      mload(0x40)\n      dup1\n      swap2\n      sub\n      swap1\n      log3\n        /* \"contracts/Erc20token.sol\":3259:3263  true */\n      0x01\n        /* \"contracts/Erc20token.sol\":3252:3263  return true */\n      swap1\n      pop\n        /* \"contracts/Erc20token.sol\":2635:3271  function transferFrom(address from, address to, uint tokens) public override returns (bool success){\r... */\n      swap4\n      swap3\n      pop\n      pop\n      pop\n      jump\t// out\n        /* \"contracts/Erc20token.sol\":1209:1250  mapping(address => uint) public  balances */\n    tag_55:\n      mstore(0x20, 0x05)\n      dup1\n      0x00\n      mstore\n      keccak256(0x00, 0x40)\n      0x00\n      swap2\n      pop\n      swap1\n      pop\n      sload\n      dup2\n      jump\t// out\n        /* \"contracts/Erc20token.sol\":4077:4114  address payable public depositAddress */\n    tag_59:\n      0x0f\n      0x01\n      swap1\n      sload\n      swap1\n      0x0100\n      exp\n      swap1\n      div\n      0xffffffffffffffffffffffffffffffffffffffff\n      and\n      dup2\n      jump\t// out\n        /* \"contracts/Erc20token.sol\":4715:5201  function checkIcoState() public view returns(State){\r... */\n    tag_64:\n        /* \"contracts/Erc20token.sol\":4760:4765  State */\n      0x00\n        /* \"contracts/Erc20token.sol\":4777:4795  State currentState */\n      dup1\n        /* \"contracts/Erc20token.sol\":4821:4833  State.Halted */\n      0x04\n        /* \"contracts/Erc20token.sol\":4809:4833  icoState == State.Halted */\n      dup1\n      dup2\n      gt\n      iszero\n      tag_166\n      jumpi\n      tag_167\n      tag_168\n      jump\t// in\n    tag_167:\n    tag_166:\n        /* \"contracts/Erc20token.sol\":4809:4817  icoState */\n      0x0f\n      0x00\n      swap1\n      sload\n      swap1\n      0x0100\n      exp\n      swap1\n      div\n      0xff\n      and\n        /* \"contracts/Erc20token.sol\":4809:4833  icoState == State.Halted */\n      0x04\n      dup2\n      gt\n      iszero\n      tag_169\n      jumpi\n      tag_170\n      tag_168\n      jump\t// in\n    tag_170:\n    tag_169:\n      eq\n        /* \"contracts/Erc20token.sol\":4806:5164  if(icoState == State.Halted){\r... */\n      iszero\n      tag_171\n      jumpi\n        /* \"contracts/Erc20token.sol\":4864:4876  State.Halted */\n      0x04\n        /* \"contracts/Erc20token.sol\":4849:4876  currentState = State.Halted */\n      swap1\n      pop\n        /* \"contracts/Erc20token.sol\":4806:5164  if(icoState == State.Halted){\r... */\n      jump(tag_172)\n    tag_171:\n        /* \"contracts/Erc20token.sol\":4914:4923  startTime */\n      sload(0x0b)\n        /* \"contracts/Erc20token.sol\":4896:4911  block.timestamp */\n      timestamp\n        /* \"contracts/Erc20token.sol\":4896:4923  block.timestamp < startTime */\n      lt\n        /* \"contracts/Erc20token.sol\":4893:5164  if(block.timestamp < startTime){\r... */\n      iszero\n      tag_173\n      jumpi\n        /* \"contracts/Erc20token.sol\":4954:4971  State.beforeStart */\n      0x00\n        /* \"contracts/Erc20token.sol\":4939:4971  currentState = State.beforeStart */\n      swap1\n      pop\n        /* \"contracts/Erc20token.sol\":4893:5164  if(block.timestamp < startTime){\r... */\n      jump(tag_174)\n    tag_173:\n        /* \"contracts/Erc20token.sol\":5010:5019  startTime */\n      sload(0x0b)\n        /* \"contracts/Erc20token.sol\":4991:5006  block.timestamp */\n      timestamp\n        /* \"contracts/Erc20token.sol\":4991:5019  block.timestamp >= startTime */\n      lt\n      iszero\n        /* \"contracts/Erc20token.sol\":4991:5048  block.timestamp >= startTime && block.timestamp < endTime */\n      dup1\n      iszero\n      tag_175\n      jumpi\n      pop\n        /* \"contracts/Erc20token.sol\":5041:5048  endTime */\n      sload(0x0c)\n        /* \"contracts/Erc20token.sol\":5023:5038  block.timestamp */\n      timestamp\n        /* \"contracts/Erc20token.sol\":5023:5048  block.timestamp < endTime */\n      lt\n        /* \"contracts/Erc20token.sol\":4991:5048  block.timestamp >= startTime && block.timestamp < endTime */\n    tag_175:\n        /* \"contracts/Erc20token.sol\":4988:5164  if(block.timestamp >= startTime && block.timestamp < endTime){\r... */\n      iszero\n      tag_176\n      jumpi\n        /* \"contracts/Erc20token.sol\":5079:5092  State.Running */\n      0x01\n        /* \"contracts/Erc20token.sol\":5064:5092  currentState = State.Running */\n      swap1\n      pop\n        /* \"contracts/Erc20token.sol\":4988:5164  if(block.timestamp >= startTime && block.timestamp < endTime){\r... */\n      jump(tag_177)\n    tag_176:\n        /* \"contracts/Erc20token.sol\":5138:5152  State.AfterEnd */\n      0x03\n        /* \"contracts/Erc20token.sol\":5123:5152  currentState = State.AfterEnd */\n      swap1\n      pop\n        /* \"contracts/Erc20token.sol\":4988:5164  if(block.timestamp >= startTime && block.timestamp < endTime){\r... */\n    tag_177:\n        /* \"contracts/Erc20token.sol\":4893:5164  if(block.timestamp < startTime){\r... */\n    tag_174:\n        /* \"contracts/Erc20token.sol\":4806:5164  if(icoState == State.Halted){\r... */\n    tag_172:\n        /* \"contracts/Erc20token.sol\":5181:5193  currentState */\n      dup1\n        /* \"contracts/Erc20token.sol\":5174:5193  return currentState */\n      swap2\n      pop\n      pop\n        /* \"contracts/Erc20token.sol\":4715:5201  function checkIcoState() public view returns(State){\r... */\n      swap1\n      jump\t// out\n        /* \"contracts/Erc20token.sol\":1104:1128  uint public decimals = 0 */\n    tag_69:\n      sload(0x02)\n      dup2\n      jump\t// out\n        /* \"contracts/Erc20token.sol\":3817:3836  uint public endTime */\n    tag_73:\n      sload(0x0c)\n      dup2\n      jump\t// out\n        /* \"contracts/Erc20token.sol\":4020:4041  State public icoState */\n    tag_77:\n      0x0f\n      0x00\n      swap1\n      sload\n      swap1\n      0x0100\n      exp\n      swap1\n      div\n      0xff\n      and\n      dup2\n      jump\t// out\n        /* \"contracts/Erc20token.sol\":1137:1159  address public founder */\n    tag_81:\n      0x03\n      0x00\n      swap1\n      sload\n      swap1\n      0x0100\n      exp\n      swap1\n      div\n      0xffffffffffffffffffffffffffffffffffffffff\n      and\n      dup2\n      jump\t// out\n        /* \"contracts/Erc20token.sol\":1259:1318  mapping(address => mapping(address => uint)) public allowed */\n    tag_88:\n      mstore(0x20, 0x06)\n      dup2\n      0x00\n      mstore\n      mstore(0x20, keccak256(0x00, 0x40))\n      dup1\n      0x00\n      mstore\n      keccak256(0x00, 0x40)\n      0x00\n      swap2\n      pop\n      swap2\n      pop\n      pop\n      sload\n      dup2\n      jump\t// out\n        /* \"contracts/Erc20token.sol\":1461:1589  function balanceOf(address tokenOwner) public override view returns (uint balance){\r... */\n    tag_93:\n        /* \"contracts/Erc20token.sol\":1530:1542  uint balance */\n      0x00\n        /* \"contracts/Erc20token.sol\":1561:1569  balances */\n      0x05\n        /* \"contracts/Erc20token.sol\":1561:1581  balances[tokenOwner] */\n      0x00\n        /* \"contracts/Erc20token.sol\":1570:1580  tokenOwner */\n      dup4\n        /* \"contracts/Erc20token.sol\":1561:1581  balances[tokenOwner] */\n      0xffffffffffffffffffffffffffffffffffffffff\n      and\n      0xffffffffffffffffffffffffffffffffffffffff\n      and\n      dup2\n      mstore\n      0x20\n      add\n      swap1\n      dup2\n      mstore\n      0x20\n      add\n      0x00\n      keccak256\n      sload\n        /* \"contracts/Erc20token.sol\":1554:1581  return balances[tokenOwner] */\n      swap1\n      pop\n        /* \"contracts/Erc20token.sol\":1461:1589  function balanceOf(address tokenOwner) public override view returns (uint balance){\r... */\n      swap2\n      swap1\n      pop\n      jump\t// out\n        /* \"contracts/Erc20token.sol\":3771:3810  uint public startTime = block.timestamp */\n    tag_97:\n      sload(0x0b)\n      dup2\n      jump\t// out\n        /* \"contracts/Erc20token.sol\":1069:1097  string public symbol = \"ZLZ\" */\n    tag_101:\n      0x01\n      dup1\n      sload\n      tag_179\n      swap1\n      tag_137\n      jump\t// in\n    tag_179:\n      dup1\n      0x1f\n      add\n      0x20\n      dup1\n      swap2\n      div\n      mul\n      0x20\n      add\n      mload(0x40)\n      swap1\n      dup2\n      add\n      0x40\n      mstore\n      dup1\n      swap3\n      swap2\n      swap1\n      dup2\n      dup2\n      mstore\n      0x20\n      add\n      dup3\n      dup1\n      sload\n      tag_180\n      swap1\n      tag_137\n      jump\t// in\n    tag_180:\n      dup1\n      iszero\n      tag_181\n      jumpi\n      dup1\n      0x1f\n      lt\n      tag_182\n      jumpi\n      0x0100\n      dup1\n      dup4\n      sload\n      div\n      mul\n      dup4\n      mstore\n      swap2\n      0x20\n      add\n      swap2\n      jump(tag_181)\n    tag_182:\n      dup3\n      add\n      swap2\n      swap1\n      0x00\n      mstore\n      keccak256(0x00, 0x20)\n      swap1\n    tag_183:\n      dup2\n      sload\n      dup2\n      mstore\n      swap1\n      0x01\n      add\n      swap1\n      0x20\n      add\n      dup1\n      dup4\n      gt\n      tag_183\n      jumpi\n      dup3\n      swap1\n      sub\n      0x1f\n      and\n      dup3\n      add\n      swap2\n    tag_181:\n      pop\n      pop\n      pop\n      pop\n      pop\n      dup2\n      jump\t// out\n        /* \"contracts/Erc20token.sol\":1643:1964  function transfer(address to, uint tokens) public override returns (bool success){\r... */\n    tag_106:\n        /* \"contracts/Erc20token.sol\":1711:1723  bool success */\n      0x00\n        /* \"contracts/Erc20token.sol\":1767:1773  tokens */\n      dup2\n        /* \"contracts/Erc20token.sol\":1743:1751  balances */\n      0x05\n        /* \"contracts/Erc20token.sol\":1743:1763  balances[msg.sender] */\n      0x00\n        /* \"contracts/Erc20token.sol\":1752:1762  msg.sender */\n      caller\n        /* \"contracts/Erc20token.sol\":1743:1763  balances[msg.sender] */\n      0xffffffffffffffffffffffffffffffffffffffff\n      and\n      0xffffffffffffffffffffffffffffffffffffffff\n      and\n      dup2\n      mstore\n      0x20\n      add\n      swap1\n      dup2\n      mstore\n      0x20\n      add\n      0x00\n      keccak256\n      sload\n        /* \"contracts/Erc20token.sol\":1743:1773  balances[msg.sender] >= tokens */\n      lt\n      iszero\n        /* \"contracts/Erc20token.sol\":1735:1806  require(balances[msg.sender] >= tokens, \"Insufficient Account Balance\") */\n      tag_185\n      jumpi\n      mload(0x40)\n      0x08c379a000000000000000000000000000000000000000000000000000000000\n      dup2\n      mstore\n      0x04\n      add\n      tag_186\n      swap1\n      tag_187\n      jump\t// in\n    tag_186:\n      mload(0x40)\n      dup1\n      swap2\n      sub\n      swap1\n      revert\n    tag_185:\n        /* \"contracts/Erc20token.sol\":1835:1841  tokens */\n      dup2\n        /* \"contracts/Erc20token.sol\":1819:1827  balances */\n      0x05\n        /* \"contracts/Erc20token.sol\":1819:1831  balances[to] */\n      0x00\n        /* \"contracts/Erc20token.sol\":1828:1830  to */\n      dup6\n        /* \"contracts/Erc20token.sol\":1819:1831  balances[to] */\n      0xffffffffffffffffffffffffffffffffffffffff\n      and\n      0xffffffffffffffffffffffffffffffffffffffff\n      and\n      dup2\n      mstore\n      0x20\n      add\n      swap1\n      dup2\n      mstore\n      0x20\n      add\n      0x00\n      keccak256\n      0x00\n        /* \"contracts/Erc20token.sol\":1819:1841  balances[to] += tokens */\n      dup3\n      dup3\n      sload\n      tag_188\n      swap2\n      swap1\n      tag_163\n      jump\t// in\n    tag_188:\n      swap3\n      pop\n      pop\n      dup2\n      swap1\n      sstore\n      pop\n        /* \"contracts/Erc20token.sol\":1876:1882  tokens */\n      dup2\n        /* \"contracts/Erc20token.sol\":1852:1860  balances */\n      0x05\n        /* \"contracts/Erc20token.sol\":1852:1872  balances[msg.sender] */\n      0x00\n        /* \"contracts/Erc20token.sol\":1861:1871  msg.sender */\n      caller\n        /* \"contracts/Erc20token.sol\":1852:1872  balances[msg.sender] */\n      0xffffffffffffffffffffffffffffffffffffffff\n      and\n      0xffffffffffffffffffffffffffffffffffffffff\n      and\n      dup2\n      mstore\n      0x20\n      add\n      swap1\n      dup2\n      mstore\n      0x20\n      add\n      0x00\n      keccak256\n      0x00\n        /* \"contracts/Erc20token.sol\":1852:1882  balances[msg.sender] -= tokens */\n      dup3\n      dup3\n      sload\n      tag_189\n      swap2\n      swap1\n      tag_160\n      jump\t// in\n    tag_189:\n      swap3\n      pop\n      pop\n      dup2\n      swap1\n      sstore\n      pop\n        /* \"contracts/Erc20token.sol\":1921:1923  to */\n      dup3\n        /* \"contracts/Erc20token.sol\":1900:1932  Transfer(msg.sender, to, tokens) */\n      0xffffffffffffffffffffffffffffffffffffffff\n      and\n        /* \"contracts/Erc20token.sol\":1909:1919  msg.sender */\n      caller\n        /* \"contracts/Erc20token.sol\":1900:1932  Transfer(msg.sender, to, tokens) */\n      0xffffffffffffffffffffffffffffffffffffffff\n      and\n      0xddf252ad1be2c89b69c2b068fc378daa952ba7f163c4a11628f55a4df523b3ef\n        /* \"contracts/Erc20token.sol\":1925:1931  tokens */\n      dup5\n        /* \"contracts/Erc20token.sol\":1900:1932  Transfer(msg.sender, to, tokens) */\n      mload(0x40)\n      tag_190\n      swap2\n      swap1\n      tag_44\n      jump\t// in\n    tag_190:\n      mload(0x40)\n      dup1\n      swap2\n      sub\n      swap1\n      log3\n        /* \"contracts/Erc20token.sol\":1952:1956  true */\n      0x01\n        /* \"contracts/Erc20token.sol\":1945:1956  return true */\n      swap1\n      pop\n        /* \"contracts/Erc20token.sol\":1643:1964  function transfer(address to, uint tokens) public override returns (bool success){\r... */\n      swap3\n      swap2\n      pop\n      pop\n      jump\t// out\n        /* \"contracts/Erc20token.sol\":3936:3971  uint public maximumAmount = 1 ether */\n    tag_110:\n      sload(0x0e)\n      dup2\n      jump\t// out\n        /* \"contracts/Erc20token.sol\":3892:3929  uint public minimumAmount = 0.1 ether */\n    tag_114:\n      sload(0x0d)\n      dup2\n      jump\t// out\n        /* \"contracts/Erc20token.sol\":3517:3541  uint public raisedAmount */\n    tag_118:\n      sload(0x09)\n      dup2\n      jump\t// out\n        /* \"contracts/Erc20token.sol\":2062:2217  function allowance(address tokenOwner, address spender) public override view returns (uint remaining){\r... */\n    tag_123:\n        /* \"contracts/Erc20token.sol\":2148:2162  uint remaining */\n      0x00\n        /* \"contracts/Erc20token.sol\":2181:2188  allowed */\n      0x06\n        /* \"contracts/Erc20token.sol\":2181:2200  allowed[tokenOwner] */\n      0x00\n        /* \"contracts/Erc20token.sol\":2189:2199  tokenOwner */\n      dup5\n        /* \"contracts/Erc20token.sol\":2181:2200  allowed[tokenOwner] */\n      0xffffffffffffffffffffffffffffffffffffffff\n      and\n      0xffffffffffffffffffffffffffffffffffffffff\n      and\n      dup2\n      mstore\n      0x20\n      add\n      swap1\n      dup2\n      mstore\n      0x20\n      add\n      0x00\n      keccak256\n        /* \"contracts/Erc20token.sol\":2181:2209  allowed[tokenOwner][spender] */\n      0x00\n        /* \"contracts/Erc20token.sol\":2201:2208  spender */\n      dup4\n        /* \"contracts/Erc20token.sol\":2181:2209  allowed[tokenOwner][spender] */\n      0xffffffffffffffffffffffffffffffffffffffff\n      and\n      0xffffffffffffffffffffffffffffffffffffffff\n      and\n      dup2\n      mstore\n      0x20\n      add\n      swap1\n      dup2\n      mstore\n      0x20\n      add\n      0x00\n      keccak256\n      sload\n        /* \"contracts/Erc20token.sol\":2174:2209  return allowed[tokenOwner][spender] */\n      swap1\n      pop\n        /* \"contracts/Erc20token.sol\":2062:2217  function allowance(address tokenOwner, address spender) public override view returns (uint remaining){\r... */\n      swap3\n      swap2\n      pop\n      pop\n      jump\t// out\n        /* \"contracts/Erc20token.sol\":5250:6570  function invest() public payable onlyAdmin returns(bool){\r... */\n    tag_126:\n        /* \"contracts/Erc20token.sol\":5301:5305  bool */\n      0x00\n        /* \"contracts/Erc20token.sol\":4643:4648  admin */\n      0x07\n      0x00\n      swap1\n      sload\n      swap1\n      0x0100\n      exp\n      swap1\n      div\n      0xffffffffffffffffffffffffffffffffffffffff\n      and\n        /* \"contracts/Erc20token.sol\":4629:4648  msg.sender == admin */\n      0xffffffffffffffffffffffffffffffffffffffff\n      and\n        /* \"contracts/Erc20token.sol\":4629:4639  msg.sender */\n      caller\n        /* \"contracts/Erc20token.sol\":4629:4648  msg.sender == admin */\n      0xffffffffffffffffffffffffffffffffffffffff\n      and\n      eq\n        /* \"contracts/Erc20token.sol\":4621:4687  require(msg.sender == admin, \"Access denied, you ae not an admin\") */\n      tag_193\n      jumpi\n      mload(0x40)\n      0x08c379a000000000000000000000000000000000000000000000000000000000\n      dup2\n      mstore\n      0x04\n      add\n      tag_194\n      swap1\n      tag_195\n      jump\t// in\n    tag_194:\n      mload(0x40)\n      dup1\n      swap2\n      sub\n      swap1\n      revert\n    tag_193:\n        /* \"contracts/Erc20token.sol\":5368:5383  checkIcoState() */\n      tag_197\n        /* \"contracts/Erc20token.sol\":5368:5381  checkIcoState */\n      tag_64\n        /* \"contracts/Erc20token.sol\":5368:5383  checkIcoState() */\n      jump\t// in\n    tag_197:\n        /* \"contracts/Erc20token.sol\":5357:5365  icoState */\n      0x0f\n      0x00\n        /* \"contracts/Erc20token.sol\":5357:5383  icoState = checkIcoState() */\n      0x0100\n      exp\n      dup2\n      sload\n      dup2\n      0xff\n      mul\n      not\n      and\n      swap1\n      dup4\n      0x04\n      dup2\n      gt\n      iszero\n      tag_198\n      jumpi\n      tag_199\n      tag_168\n      jump\t// in\n    tag_199:\n    tag_198:\n      mul\n      or\n      swap1\n      sstore\n      pop\n        /* \"contracts/Erc20token.sol\":5414:5427  State.Running */\n      0x01\n        /* \"contracts/Erc20token.sol\":5402:5427  icoState == State.Running */\n      0x04\n      dup2\n      gt\n      iszero\n      tag_200\n      jumpi\n      tag_201\n      tag_168\n      jump\t// in\n    tag_201:\n    tag_200:\n        /* \"contracts/Erc20token.sol\":5402:5410  icoState */\n      0x0f\n      0x00\n      swap1\n      sload\n      swap1\n      0x0100\n      exp\n      swap1\n      div\n      0xff\n      and\n        /* \"contracts/Erc20token.sol\":5402:5427  icoState == State.Running */\n      0x04\n      dup2\n      gt\n      iszero\n      tag_202\n      jumpi\n      tag_203\n      tag_168\n      jump\t// in\n    tag_203:\n    tag_202:\n      eq\n        /* \"contracts/Erc20token.sol\":5394:5464  require(icoState == State.Running, \"Amount must be greater than zero\") */\n      tag_204\n      jumpi\n      mload(0x40)\n      0x08c379a000000000000000000000000000000000000000000000000000000000\n      dup2\n      mstore\n      0x04\n      add\n      tag_205\n      swap1\n      tag_206\n      jump\t// in\n    tag_205:\n      mload(0x40)\n      dup1\n      swap2\n      sub\n      swap1\n      revert\n    tag_204:\n        /* \"contracts/Erc20token.sol\":5552:5553  0 */\n      0x00\n        /* \"contracts/Erc20token.sol\":5540:5549  msg.value */\n      callvalue\n        /* \"contracts/Erc20token.sol\":5540:5553  msg.value > 0 */\n      gt\n        /* \"contracts/Erc20token.sol\":5532:5590  require(msg.value > 0, \"Amount must be greater than zero\") */\n      tag_207\n      jumpi\n      mload(0x40)\n      0x08c379a000000000000000000000000000000000000000000000000000000000\n      dup2\n      mstore\n      0x04\n      add\n      tag_208\n      swap1\n      tag_206\n      jump\t// in\n    tag_208:\n      mload(0x40)\n      dup1\n      swap2\n      sub\n      swap1\n      revert\n    tag_207:\n        /* \"contracts/Erc20token.sol\":5634:5650  string memory s1 */\n      0x00\n        /* \"contracts/Erc20token.sol\":5712:5725  minimumAmount */\n      sload(0x0d)\n        /* \"contracts/Erc20token.sol\":5660:5726  abi.encodePacked(\"Amount cannot not be lower than\", minimumAmount) */\n      add(0x20, mload(0x40))\n      tag_209\n      swap2\n      swap1\n      tag_210\n      jump\t// in\n    tag_209:\n      mload(0x40)\n      0x20\n      dup2\n      dup4\n      sub\n      sub\n      dup2\n      mstore\n      swap1\n      0x40\n      mstore\n        /* \"contracts/Erc20token.sol\":5634:5727  string memory s1 = string(abi.encodePacked(\"Amount cannot not be lower than\", minimumAmount)) */\n      swap1\n      pop\n        /* \"contracts/Erc20token.sol\":5738:5754  string memory s2 */\n      0x00\n        /* \"contracts/Erc20token.sol\":5818:5831  maximumAmount */\n      sload(0x0e)\n        /* \"contracts/Erc20token.sol\":5764:5832  abi.encodePacked(\"Amount cannot not be higgher than\", maximumAmount) */\n      add(0x20, mload(0x40))\n      tag_211\n      swap2\n      swap1\n      tag_212\n      jump\t// in\n    tag_211:\n      mload(0x40)\n      0x20\n      dup2\n      dup4\n      sub\n      sub\n      dup2\n      mstore\n      swap1\n      0x40\n      mstore\n        /* \"contracts/Erc20token.sol\":5738:5833  string memory s2 = string(abi.encodePacked(\"Amount cannot not be higgher than\", maximumAmount)) */\n      swap1\n      pop\n        /* \"contracts/Erc20token.sol\":5844:5860  string memory s3 */\n      0x00\n        /* \"contracts/Erc20token.sol\":5887:5889  s1 */\n      dup3\n        /* \"contracts/Erc20token.sol\":5891:5893  s2 */\n      dup3\n        /* \"contracts/Erc20token.sol\":5870:5894  abi.encodePacked(s1, s2) */\n      add(0x20, mload(0x40))\n      tag_213\n      swap3\n      swap2\n      swap1\n      tag_214\n      jump\t// in\n    tag_213:\n      mload(0x40)\n      0x20\n      dup2\n      dup4\n      sub\n      sub\n      dup2\n      mstore\n      swap1\n      0x40\n      mstore\n        /* \"contracts/Erc20token.sol\":5844:5895  string memory s3 = string(abi.encodePacked(s1, s2)) */\n      swap1\n      pop\n        /* \"contracts/Erc20token.sol\":5927:5940  minimumAmount */\n      sload(0x0d)\n        /* \"contracts/Erc20token.sol\":5914:5923  msg.value */\n      callvalue\n        /* \"contracts/Erc20token.sol\":5914:5940  msg.value >= minimumAmount */\n      lt\n      iszero\n        /* \"contracts/Erc20token.sol\":5914:5970  msg.value >= minimumAmount && msg.value <= maximumAmount */\n      dup1\n      iszero\n      tag_215\n      jumpi\n      pop\n        /* \"contracts/Erc20token.sol\":5957:5970  maximumAmount */\n      sload(0x0e)\n        /* \"contracts/Erc20token.sol\":5944:5953  msg.value */\n      callvalue\n        /* \"contracts/Erc20token.sol\":5944:5970  msg.value <= maximumAmount */\n      gt\n      iszero\n        /* \"contracts/Erc20token.sol\":5914:5970  msg.value >= minimumAmount && msg.value <= maximumAmount */\n    tag_215:\n        /* \"contracts/Erc20token.sol\":5972:5974  s3 */\n      dup2\n        /* \"contracts/Erc20token.sol\":5906:5975  require(msg.value >= minimumAmount && msg.value <= maximumAmount, s3) */\n      swap1\n      tag_216\n      jumpi\n      mload(0x40)\n      0x08c379a000000000000000000000000000000000000000000000000000000000\n      dup2\n      mstore\n      0x04\n      add\n      tag_217\n      swap2\n      swap1\n      tag_32\n      jump\t// in\n    tag_217:\n      mload(0x40)\n      dup1\n      swap2\n      sub\n      swap1\n      revert\n    tag_216:\n      pop\n        /* \"contracts/Erc20token.sol\":5988:5999  uint amount */\n      0x00\n        /* \"contracts/Erc20token.sol\":6017:6026  msg.value */\n      callvalue\n        /* \"contracts/Erc20token.sol\":6002:6014  raisedAmount */\n      sload(0x09)\n        /* \"contracts/Erc20token.sol\":6002:6026  raisedAmount + msg.value */\n      tag_218\n      swap2\n      swap1\n      tag_163\n      jump\t// in\n    tag_218:\n        /* \"contracts/Erc20token.sol\":5988:6026  uint amount = raisedAmount + msg.value */\n      swap1\n      pop\n        /* \"contracts/Erc20token.sol\":6055:6062  hardCap */\n      sload(0x0a)\n        /* \"contracts/Erc20token.sol\":6045:6051  amount */\n      dup2\n        /* \"contracts/Erc20token.sol\":6045:6062  amount <= hardCap */\n      gt\n      iszero\n        /* \"contracts/Erc20token.sol\":6037:6115  require(amount <= hardCap, \"The maximum amount to be raised has been reached\") */\n      tag_219\n      jumpi\n      mload(0x40)\n      0x08c379a000000000000000000000000000000000000000000000000000000000\n      dup2\n      mstore\n      0x04\n      add\n      tag_220\n      swap1\n      tag_221\n      jump\t// in\n    tag_220:\n      mload(0x40)\n      dup1\n      swap2\n      sub\n      swap1\n      revert\n    tag_219:\n        /* \"contracts/Erc20token.sol\":6235:6246  uint tokens */\n      0x00\n        /* \"contracts/Erc20token.sol\":6261:6271  tokenPrice */\n      sload(0x08)\n        /* \"contracts/Erc20token.sol\":6249:6258  msg.value */\n      callvalue\n        /* \"contracts/Erc20token.sol\":6249:6271  msg.value * tokenPrice */\n      tag_222\n      swap2\n      swap1\n      tag_223\n      jump\t// in\n    tag_222:\n        /* \"contracts/Erc20token.sol\":6235:6271  uint tokens = msg.value * tokenPrice */\n      swap1\n      pop\n        /* \"contracts/Erc20token.sol\":6341:6347  tokens */\n      dup1\n        /* \"contracts/Erc20token.sol\":6317:6325  balances */\n      0x05\n        /* \"contracts/Erc20token.sol\":6317:6337  balances[msg.sender] */\n      0x00\n        /* \"contracts/Erc20token.sol\":6326:6336  msg.sender */\n      caller\n        /* \"contracts/Erc20token.sol\":6317:6337  balances[msg.sender] */\n      0xffffffffffffffffffffffffffffffffffffffff\n      and\n      0xffffffffffffffffffffffffffffffffffffffff\n      and\n      dup2\n      mstore\n      0x20\n      add\n      swap1\n      dup2\n      mstore\n      0x20\n      add\n      0x00\n      keccak256\n      0x00\n        /* \"contracts/Erc20token.sol\":6317:6347  balances[msg.sender] += tokens */\n      dup3\n      dup3\n      sload\n      tag_224\n      swap2\n      swap1\n      tag_163\n      jump\t// in\n    tag_224:\n      swap3\n      pop\n      pop\n      dup2\n      swap1\n      sstore\n      pop\n        /* \"contracts/Erc20token.sol\":6379:6385  tokens */\n      dup1\n        /* \"contracts/Erc20token.sol\":6358:6366  balances */\n      0x05\n        /* \"contracts/Erc20token.sol\":6358:6375  balances[founder] */\n      0x00\n        /* \"contracts/Erc20token.sol\":6367:6374  founder */\n      0x03\n      0x00\n      swap1\n      sload\n      swap1\n      0x0100\n      exp\n      swap1\n      div\n      0xffffffffffffffffffffffffffffffffffffffff\n      and\n        /* \"contracts/Erc20token.sol\":6358:6375  balances[founder] */\n      0xffffffffffffffffffffffffffffffffffffffff\n      and\n      0xffffffffffffffffffffffffffffffffffffffff\n      and\n      dup2\n      mstore\n      0x20\n      add\n      swap1\n      dup2\n      mstore\n      0x20\n      add\n      0x00\n      keccak256\n      0x00\n        /* \"contracts/Erc20token.sol\":6358:6385  balances[founder] -= tokens */\n      dup3\n      dup3\n      sload\n      tag_225\n      swap2\n      swap1\n      tag_160\n      jump\t// in\n    tag_225:\n      swap3\n      pop\n      pop\n      dup2\n      swap1\n      sstore\n      pop\n        /* \"contracts/Erc20token.sol\":6447:6461  depositAddress */\n      0x0f\n      0x01\n      swap1\n      sload\n      swap1\n      0x0100\n      exp\n      swap1\n      div\n      0xffffffffffffffffffffffffffffffffffffffff\n      and\n        /* \"contracts/Erc20token.sol\":6447:6470  depositAddress.transfer */\n      0xffffffffffffffffffffffffffffffffffffffff\n      and\n        /* \"contracts/Erc20token.sol\":6447:6481  depositAddress.transfer(msg.value) */\n      0x08fc\n        /* \"contracts/Erc20token.sol\":6471:6480  msg.value */\n      callvalue\n        /* \"contracts/Erc20token.sol\":6447:6481  depositAddress.transfer(msg.value) */\n      swap1\n      dup2\n      iszero\n      mul\n      swap1\n      mload(0x40)\n      0x00\n      mload(0x40)\n      dup1\n      dup4\n      sub\n      dup2\n      dup6\n      dup9\n      dup9\n      call\n      swap4\n      pop\n      pop\n      pop\n      pop\n      iszero\n      dup1\n      iszero\n      tag_227\n      jumpi\n      returndatasize\n      0x00\n      dup1\n      returndatacopy\n      revert(0x00, returndatasize)\n    tag_227:\n      pop\n        /* \"contracts/Erc20token.sol\":6499:6536  Invest(msg.sender, msg.value, tokens) */\n      0x4ae4bd7655e0d350876a23cd90c4227b13db560e34435c6a488150a9c844bf5f\n        /* \"contracts/Erc20token.sol\":6506:6516  msg.sender */\n      caller\n        /* \"contracts/Erc20token.sol\":6518:6527  msg.value */\n      callvalue\n        /* \"contracts/Erc20token.sol\":6529:6535  tokens */\n      dup4\n        /* \"contracts/Erc20token.sol\":6499:6536  Invest(msg.sender, msg.value, tokens) */\n      mload(0x40)\n      tag_228\n      swap4\n      swap3\n      swap2\n      swap1\n      tag_229\n      jump\t// in\n    tag_228:\n      mload(0x40)\n      dup1\n      swap2\n      sub\n      swap1\n      log1\n        /* \"contracts/Erc20token.sol\":6556:6560  true */\n      0x01\n        /* \"contracts/Erc20token.sol\":6549:6560  return true */\n      swap6\n      pop\n      pop\n      pop\n      pop\n      pop\n      pop\n        /* \"contracts/Erc20token.sol\":5250:6570  function invest() public payable onlyAdmin returns(bool){\r... */\n      swap1\n      jump\t// out\n        /* \"contracts/Erc20token.sol\":3320:3340  address public admin */\n    tag_130:\n      0x07\n      0x00\n      swap1\n      sload\n      swap1\n      0x0100\n      exp\n      swap1\n      div\n      0xffffffffffffffffffffffffffffffffffffffff\n      and\n      dup2\n      jump\t// out\n        /* \"contracts/Erc20token.sol\":3600:3629  uint public hardCap = 5 ether */\n    tag_134:\n      sload(0x0a)\n      dup2\n      jump\t// out\n        /* \"#utility.yul\":7:146   */\n    tag_231:\n        /* \"#utility.yul\":53:58   */\n      0x00\n        /* \"#utility.yul\":91:97   */\n      dup2\n        /* \"#utility.yul\":78:98   */\n      calldataload\n        /* \"#utility.yul\":69:98   */\n      swap1\n      pop\n        /* \"#utility.yul\":107:140   */\n      tag_233\n        /* \"#utility.yul\":134:139   */\n      dup2\n        /* \"#utility.yul\":107:140   */\n      tag_234\n      jump\t// in\n    tag_233:\n        /* \"#utility.yul\":7:146   */\n      swap3\n      swap2\n      pop\n      pop\n      jump\t// out\n        /* \"#utility.yul\":152:291   */\n    tag_235:\n        /* \"#utility.yul\":198:203   */\n      0x00\n        /* \"#utility.yul\":236:242   */\n      dup2\n        /* \"#utility.yul\":223:243   */\n      calldataload\n        /* \"#utility.yul\":214:243   */\n      swap1\n      pop\n        /* \"#utility.yul\":252:285   */\n      tag_237\n        /* \"#utility.yul\":279:284   */\n      dup2\n        /* \"#utility.yul\":252:285   */\n      tag_238\n      jump\t// in\n    tag_237:\n        /* \"#utility.yul\":152:291   */\n      swap3\n      swap2\n      pop\n      pop\n      jump\t// out\n        /* \"#utility.yul\":297:626   */\n    tag_54:\n        /* \"#utility.yul\":356:362   */\n      0x00\n        /* \"#utility.yul\":405:407   */\n      0x20\n        /* \"#utility.yul\":393:402   */\n      dup3\n        /* \"#utility.yul\":384:391   */\n      dup5\n        /* \"#utility.yul\":380:403   */\n      sub\n        /* \"#utility.yul\":376:408   */\n      slt\n        /* \"#utility.yul\":373:492   */\n      iszero\n      tag_240\n      jumpi\n        /* \"#utility.yul\":411:490   */\n      tag_241\n      tag_242\n      jump\t// in\n    tag_241:\n        /* \"#utility.yul\":373:492   */\n    tag_240:\n        /* \"#utility.yul\":531:532   */\n      0x00\n        /* \"#utility.yul\":556:609   */\n      tag_243\n        /* \"#utility.yul\":601:608   */\n      dup5\n        /* \"#utility.yul\":592:598   */\n      dup3\n        /* \"#utility.yul\":581:590   */\n      dup6\n        /* \"#utility.yul\":577:599   */\n      add\n        /* \"#utility.yul\":556:609   */\n      tag_231\n      jump\t// in\n    tag_243:\n        /* \"#utility.yul\":546:609   */\n      swap2\n      pop\n        /* \"#utility.yul\":502:619   */\n      pop\n        /* \"#utility.yul\":297:626   */\n      swap3\n      swap2\n      pop\n      pop\n      jump\t// out\n        /* \"#utility.yul\":632:1106   */\n    tag_87:\n        /* \"#utility.yul\":700:706   */\n      0x00\n        /* \"#utility.yul\":708:714   */\n      dup1\n        /* \"#utility.yul\":757:759   */\n      0x40\n        /* \"#utility.yul\":745:754   */\n      dup4\n        /* \"#utility.yul\":736:743   */\n      dup6\n        /* \"#utility.yul\":732:755   */\n      sub\n        /* \"#utility.yul\":728:760   */\n      slt\n        /* \"#utility.yul\":725:844   */\n      iszero\n      tag_245\n      jumpi\n        /* \"#utility.yul\":763:842   */\n      tag_246\n      tag_242\n      jump\t// in\n    tag_246:\n        /* \"#utility.yul\":725:844   */\n    tag_245:\n        /* \"#utility.yul\":883:884   */\n      0x00\n        /* \"#utility.yul\":908:961   */\n      tag_247\n        /* \"#utility.yul\":953:960   */\n      dup6\n        /* \"#utility.yul\":944:950   */\n      dup3\n        /* \"#utility.yul\":933:942   */\n      dup7\n        /* \"#utility.yul\":929:951   */\n      add\n        /* \"#utility.yul\":908:961   */\n      tag_231\n      jump\t// in\n    tag_247:\n        /* \"#utility.yul\":898:961   */\n      swap3\n      pop\n        /* \"#utility.yul\":854:971   */\n      pop\n        /* \"#utility.yul\":1010:1012   */\n      0x20\n        /* \"#utility.yul\":1036:1089   */\n      tag_248\n        /* \"#utility.yul\":1081:1088   */\n      dup6\n        /* \"#utility.yul\":1072:1078   */\n      dup3\n        /* \"#utility.yul\":1061:1070   */\n      dup7\n        /* \"#utility.yul\":1057:1079   */\n      add\n        /* \"#utility.yul\":1036:1089   */\n      tag_231\n      jump\t// in\n    tag_248:\n        /* \"#utility.yul\":1026:1089   */\n      swap2\n      pop\n        /* \"#utility.yul\":981:1099   */\n      pop\n        /* \"#utility.yul\":632:1106   */\n      swap3\n      pop\n      swap3\n      swap1\n      pop\n      jump\t// out\n        /* \"#utility.yul\":1112:1731   */\n    tag_48:\n        /* \"#utility.yul\":1189:1195   */\n      0x00\n        /* \"#utility.yul\":1197:1203   */\n      dup1\n        /* \"#utility.yul\":1205:1211   */\n      0x00\n        /* \"#utility.yul\":1254:1256   */\n      0x60\n        /* \"#utility.yul\":1242:1251   */\n      dup5\n        /* \"#utility.yul\":1233:1240   */\n      dup7\n        /* \"#utility.yul\":1229:1252   */\n      sub\n        /* \"#utility.yul\":1225:1257   */\n      slt\n        /* \"#utility.yul\":1222:1341   */\n      iszero\n      tag_250\n      jumpi\n        /* \"#utility.yul\":1260:1339   */\n      tag_251\n      tag_242\n      jump\t// in\n    tag_251:\n        /* \"#utility.yul\":1222:1341   */\n    tag_250:\n        /* \"#utility.yul\":1380:1381   */\n      0x00\n        /* \"#utility.yul\":1405:1458   */\n      tag_252\n        /* \"#utility.yul\":1450:1457   */\n      dup7\n        /* \"#utility.yul\":1441:1447   */\n      dup3\n        /* \"#utility.yul\":1430:1439   */\n      dup8\n        /* \"#utility.yul\":1426:1448   */\n      add\n        /* \"#utility.yul\":1405:1458   */\n      tag_231\n      jump\t// in\n    tag_252:\n        /* \"#utility.yul\":1395:1458   */\n      swap4\n      pop\n        /* \"#utility.yul\":1351:1468   */\n      pop\n        /* \"#utility.yul\":1507:1509   */\n      0x20\n        /* \"#utility.yul\":1533:1586   */\n      tag_253\n        /* \"#utility.yul\":1578:1585   */\n      dup7\n        /* \"#utility.yul\":1569:1575   */\n      dup3\n        /* \"#utility.yul\":1558:1567   */\n      dup8\n        /* \"#utility.yul\":1554:1576   */\n      add\n        /* \"#utility.yul\":1533:1586   */\n      tag_231\n      jump\t// in\n    tag_253:\n        /* \"#utility.yul\":1523:1586   */\n      swap3\n      pop\n        /* \"#utility.yul\":1478:1596   */\n      pop\n        /* \"#utility.yul\":1635:1637   */\n      0x40\n        /* \"#utility.yul\":1661:1714   */\n      tag_254\n        /* \"#utility.yul\":1706:1713   */\n      dup7\n        /* \"#utility.yul\":1697:1703   */\n      dup3\n        /* \"#utility.yul\":1686:1695   */\n      dup8\n        /* \"#utility.yul\":1682:1704   */\n      add\n        /* \"#utility.yul\":1661:1714   */\n      tag_235\n      jump\t// in\n    tag_254:\n        /* \"#utility.yul\":1651:1714   */\n      swap2\n      pop\n        /* \"#utility.yul\":1606:1724   */\n      pop\n        /* \"#utility.yul\":1112:1731   */\n      swap3\n      pop\n      swap3\n      pop\n      swap3\n      jump\t// out\n        /* \"#utility.yul\":1737:2211   */\n    tag_36:\n        /* \"#utility.yul\":1805:1811   */\n      0x00\n        /* \"#utility.yul\":1813:1819   */\n      dup1\n        /* \"#utility.yul\":1862:1864   */\n      0x40\n        /* \"#utility.yul\":1850:1859   */\n      dup4\n        /* \"#utility.yul\":1841:1848   */\n      dup6\n        /* \"#utility.yul\":1837:1860   */\n      sub\n        /* \"#utility.yul\":1833:1865   */\n      slt\n        /* \"#utility.yul\":1830:1949   */\n      iszero\n      tag_256\n      jumpi\n        /* \"#utility.yul\":1868:1947   */\n      tag_257\n      tag_242\n      jump\t// in\n    tag_257:\n        /* \"#utility.yul\":1830:1949   */\n    tag_256:\n        /* \"#utility.yul\":1988:1989   */\n      0x00\n        /* \"#utility.yul\":2013:2066   */\n      tag_258\n        /* \"#utility.yul\":2058:2065   */\n      dup6\n        /* \"#utility.yul\":2049:2055   */\n      dup3\n        /* \"#utility.yul\":2038:2047   */\n      dup7\n        /* \"#utility.yul\":2034:2056   */\n      add\n        /* \"#utility.yul\":2013:2066   */\n      tag_231\n      jump\t// in\n    tag_258:\n        /* \"#utility.yul\":2003:2066   */\n      swap3\n      pop\n        /* \"#utility.yul\":1959:2076   */\n      pop\n        /* \"#utility.yul\":2115:2117   */\n      0x20\n        /* \"#utility.yul\":2141:2194   */\n      tag_259\n        /* \"#utility.yul\":2186:2193   */\n      dup6\n        /* \"#utility.yul\":2177:2183   */\n      dup3\n        /* \"#utility.yul\":2166:2175   */\n      dup7\n        /* \"#utility.yul\":2162:2184   */\n      add\n        /* \"#utility.yul\":2141:2194   */\n      tag_235\n      jump\t// in\n    tag_259:\n        /* \"#utility.yul\":2131:2194   */\n      swap2\n      pop\n        /* \"#utility.yul\":2086:2204   */\n      pop\n        /* \"#utility.yul\":1737:2211   */\n      swap3\n      pop\n      swap3\n      swap1\n      pop\n      jump\t// out\n        /* \"#utility.yul\":2217:2359   */\n    tag_260:\n        /* \"#utility.yul\":2320:2352   */\n      tag_262\n        /* \"#utility.yul\":2346:2351   */\n      dup2\n        /* \"#utility.yul\":2320:2352   */\n      tag_263\n      jump\t// in\n    tag_262:\n        /* \"#utility.yul\":2315:2318   */\n      dup3\n        /* \"#utility.yul\":2308:2353   */\n      mstore\n        /* \"#utility.yul\":2217:2359   */\n      pop\n      pop\n      jump\t// out\n        /* \"#utility.yul\":2365:2483   */\n    tag_264:\n        /* \"#utility.yul\":2452:2476   */\n      tag_266\n        /* \"#utility.yul\":2470:2475   */\n      dup2\n        /* \"#utility.yul\":2452:2476   */\n      tag_267\n      jump\t// in\n    tag_266:\n        /* \"#utility.yul\":2447:2450   */\n      dup3\n        /* \"#utility.yul\":2440:2477   */\n      mstore\n        /* \"#utility.yul\":2365:2483   */\n      pop\n      pop\n      jump\t// out\n        /* \"#utility.yul\":2489:2598   */\n    tag_268:\n        /* \"#utility.yul\":2570:2591   */\n      tag_270\n        /* \"#utility.yul\":2585:2590   */\n      dup2\n        /* \"#utility.yul\":2570:2591   */\n      tag_271\n      jump\t// in\n    tag_270:\n        /* \"#utility.yul\":2565:2568   */\n      dup3\n        /* \"#utility.yul\":2558:2592   */\n      mstore\n        /* \"#utility.yul\":2489:2598   */\n      pop\n      pop\n      jump\t// out\n        /* \"#utility.yul\":2604:2749   */\n    tag_272:\n        /* \"#utility.yul\":2698:2742   */\n      tag_274\n        /* \"#utility.yul\":2736:2741   */\n      dup2\n        /* \"#utility.yul\":2698:2742   */\n      tag_275\n      jump\t// in\n    tag_274:\n        /* \"#utility.yul\":2693:2696   */\n      dup3\n        /* \"#utility.yul\":2686:2743   */\n      mstore\n        /* \"#utility.yul\":2604:2749   */\n      pop\n      pop\n      jump\t// out\n        /* \"#utility.yul\":2755:3119   */\n    tag_276:\n        /* \"#utility.yul\":2843:2846   */\n      0x00\n        /* \"#utility.yul\":2871:2910   */\n      tag_278\n        /* \"#utility.yul\":2904:2909   */\n      dup3\n        /* \"#utility.yul\":2871:2910   */\n      tag_279\n      jump\t// in\n    tag_278:\n        /* \"#utility.yul\":2926:2997   */\n      tag_280\n        /* \"#utility.yul\":2990:2996   */\n      dup2\n        /* \"#utility.yul\":2985:2988   */\n      dup6\n        /* \"#utility.yul\":2926:2997   */\n      tag_281\n      jump\t// in\n    tag_280:\n        /* \"#utility.yul\":2919:2997   */\n      swap4\n      pop\n        /* \"#utility.yul\":3006:3058   */\n      tag_282\n        /* \"#utility.yul\":3051:3057   */\n      dup2\n        /* \"#utility.yul\":3046:3049   */\n      dup6\n        /* \"#utility.yul\":3039:3043   */\n      0x20\n        /* \"#utility.yul\":3032:3037   */\n      dup7\n        /* \"#utility.yul\":3028:3044   */\n      add\n        /* \"#utility.yul\":3006:3058   */\n      tag_283\n      jump\t// in\n    tag_282:\n        /* \"#utility.yul\":3083:3112   */\n      tag_284\n        /* \"#utility.yul\":3105:3111   */\n      dup2\n        /* \"#utility.yul\":3083:3112   */\n      tag_285\n      jump\t// in\n    tag_284:\n        /* \"#utility.yul\":3078:3081   */\n      dup5\n        /* \"#utility.yul\":3074:3113   */\n      add\n        /* \"#utility.yul\":3067:3113   */\n      swap2\n      pop\n        /* \"#utility.yul\":2847:3119   */\n      pop\n        /* \"#utility.yul\":2755:3119   */\n      swap3\n      swap2\n      pop\n      pop\n      jump\t// out\n        /* \"#utility.yul\":3125:3502   */\n    tag_286:\n        /* \"#utility.yul\":3231:3234   */\n      0x00\n        /* \"#utility.yul\":3259:3298   */\n      tag_288\n        /* \"#utility.yul\":3292:3297   */\n      dup3\n        /* \"#utility.yul\":3259:3298   */\n      tag_279\n      jump\t// in\n    tag_288:\n        /* \"#utility.yul\":3314:3403   */\n      tag_289\n        /* \"#utility.yul\":3396:3402   */\n      dup2\n        /* \"#utility.yul\":3391:3394   */\n      dup6\n        /* \"#utility.yul\":3314:3403   */\n      tag_290\n      jump\t// in\n    tag_289:\n        /* \"#utility.yul\":3307:3403   */\n      swap4\n      pop\n        /* \"#utility.yul\":3412:3464   */\n      tag_291\n        /* \"#utility.yul\":3457:3463   */\n      dup2\n        /* \"#utility.yul\":3452:3455   */\n      dup6\n        /* \"#utility.yul\":3445:3449   */\n      0x20\n        /* \"#utility.yul\":3438:3443   */\n      dup7\n        /* \"#utility.yul\":3434:3450   */\n      add\n        /* \"#utility.yul\":3412:3464   */\n      tag_283\n      jump\t// in\n    tag_291:\n        /* \"#utility.yul\":3489:3495   */\n      dup1\n        /* \"#utility.yul\":3484:3487   */\n      dup5\n        /* \"#utility.yul\":3480:3496   */\n      add\n        /* \"#utility.yul\":3473:3496   */\n      swap2\n      pop\n        /* \"#utility.yul\":3235:3502   */\n      pop\n        /* \"#utility.yul\":3125:3502   */\n      swap3\n      swap2\n      pop\n      pop\n      jump\t// out\n        /* \"#utility.yul\":3508:3874   */\n    tag_292:\n        /* \"#utility.yul\":3650:3653   */\n      0x00\n        /* \"#utility.yul\":3671:3738   */\n      tag_294\n        /* \"#utility.yul\":3735:3737   */\n      0x30\n        /* \"#utility.yul\":3730:3733   */\n      dup4\n        /* \"#utility.yul\":3671:3738   */\n      tag_281\n      jump\t// in\n    tag_294:\n        /* \"#utility.yul\":3664:3738   */\n      swap2\n      pop\n        /* \"#utility.yul\":3747:3840   */\n      tag_295\n        /* \"#utility.yul\":3836:3839   */\n      dup3\n        /* \"#utility.yul\":3747:3840   */\n      tag_296\n      jump\t// in\n    tag_295:\n        /* \"#utility.yul\":3865:3867   */\n      0x40\n        /* \"#utility.yul\":3860:3863   */\n      dup3\n        /* \"#utility.yul\":3856:3868   */\n      add\n        /* \"#utility.yul\":3849:3868   */\n      swap1\n      pop\n        /* \"#utility.yul\":3508:3874   */\n      swap2\n      swap1\n      pop\n      jump\t// out\n        /* \"#utility.yul\":3880:4246   */\n    tag_297:\n        /* \"#utility.yul\":4022:4025   */\n      0x00\n        /* \"#utility.yul\":4043:4110   */\n      tag_299\n        /* \"#utility.yul\":4107:4109   */\n      0x22\n        /* \"#utility.yul\":4102:4105   */\n      dup4\n        /* \"#utility.yul\":4043:4110   */\n      tag_281\n      jump\t// in\n    tag_299:\n        /* \"#utility.yul\":4036:4110   */\n      swap2\n      pop\n        /* \"#utility.yul\":4119:4212   */\n      tag_300\n        /* \"#utility.yul\":4208:4211   */\n      dup3\n        /* \"#utility.yul\":4119:4212   */\n      tag_301\n      jump\t// in\n    tag_300:\n        /* \"#utility.yul\":4237:4239   */\n      0x40\n        /* \"#utility.yul\":4232:4235   */\n      dup3\n        /* \"#utility.yul\":4228:4240   */\n      add\n        /* \"#utility.yul\":4221:4240   */\n      swap1\n      pop\n        /* \"#utility.yul\":3880:4246   */\n      swap2\n      swap1\n      pop\n      jump\t// out\n        /* \"#utility.yul\":4252:4618   */\n    tag_302:\n        /* \"#utility.yul\":4394:4397   */\n      0x00\n        /* \"#utility.yul\":4415:4482   */\n      tag_304\n        /* \"#utility.yul\":4479:4481   */\n      0x20\n        /* \"#utility.yul\":4474:4477   */\n      dup4\n        /* \"#utility.yul\":4415:4482   */\n      tag_281\n      jump\t// in\n    tag_304:\n        /* \"#utility.yul\":4408:4482   */\n      swap2\n      pop\n        /* \"#utility.yul\":4491:4584   */\n      tag_305\n        /* \"#utility.yul\":4580:4583   */\n      dup3\n        /* \"#utility.yul\":4491:4584   */\n      tag_306\n      jump\t// in\n    tag_305:\n        /* \"#utility.yul\":4609:4611   */\n      0x20\n        /* \"#utility.yul\":4604:4607   */\n      dup3\n        /* \"#utility.yul\":4600:4612   */\n      add\n        /* \"#utility.yul\":4593:4612   */\n      swap1\n      pop\n        /* \"#utility.yul\":4252:4618   */\n      swap2\n      swap1\n      pop\n      jump\t// out\n        /* \"#utility.yul\":4624:5026   */\n    tag_307:\n        /* \"#utility.yul\":4784:4787   */\n      0x00\n        /* \"#utility.yul\":4805:4890   */\n      tag_309\n        /* \"#utility.yul\":4887:4889   */\n      0x1f\n        /* \"#utility.yul\":4882:4885   */\n      dup4\n        /* \"#utility.yul\":4805:4890   */\n      tag_290\n      jump\t// in\n    tag_309:\n        /* \"#utility.yul\":4798:4890   */\n      swap2\n      pop\n        /* \"#utility.yul\":4899:4992   */\n      tag_310\n        /* \"#utility.yul\":4988:4991   */\n      dup3\n        /* \"#utility.yul\":4899:4992   */\n      tag_311\n      jump\t// in\n    tag_310:\n        /* \"#utility.yul\":5017:5019   */\n      0x1f\n        /* \"#utility.yul\":5012:5015   */\n      dup3\n        /* \"#utility.yul\":5008:5020   */\n      add\n        /* \"#utility.yul\":5001:5020   */\n      swap1\n      pop\n        /* \"#utility.yul\":4624:5026   */\n      swap2\n      swap1\n      pop\n      jump\t// out\n        /* \"#utility.yul\":5032:5398   */\n    tag_312:\n        /* \"#utility.yul\":5174:5177   */\n      0x00\n        /* \"#utility.yul\":5195:5262   */\n      tag_314\n        /* \"#utility.yul\":5259:5261   */\n      0x22\n        /* \"#utility.yul\":5254:5257   */\n      dup4\n        /* \"#utility.yul\":5195:5262   */\n      tag_281\n      jump\t// in\n    tag_314:\n        /* \"#utility.yul\":5188:5262   */\n      swap2\n      pop\n        /* \"#utility.yul\":5271:5364   */\n      tag_315\n        /* \"#utility.yul\":5360:5363   */\n      dup3\n        /* \"#utility.yul\":5271:5364   */\n      tag_316\n      jump\t// in\n    tag_315:\n        /* \"#utility.yul\":5389:5391   */\n      0x40\n        /* \"#utility.yul\":5384:5387   */\n      dup3\n        /* \"#utility.yul\":5380:5392   */\n      add\n        /* \"#utility.yul\":5373:5392   */\n      swap1\n      pop\n        /* \"#utility.yul\":5032:5398   */\n      swap2\n      swap1\n      pop\n      jump\t// out\n        /* \"#utility.yul\":5404:5770   */\n    tag_317:\n        /* \"#utility.yul\":5546:5549   */\n      0x00\n        /* \"#utility.yul\":5567:5634   */\n      tag_319\n        /* \"#utility.yul\":5631:5633   */\n      0x30\n        /* \"#utility.yul\":5626:5629   */\n      dup4\n        /* \"#utility.yul\":5567:5634   */\n      tag_281\n      jump\t// in\n    tag_319:\n        /* \"#utility.yul\":5560:5634   */\n      swap2\n      pop\n        /* \"#utility.yul\":5643:5736   */\n      tag_320\n        /* \"#utility.yul\":5732:5735   */\n      dup3\n        /* \"#utility.yul\":5643:5736   */\n      tag_321\n      jump\t// in\n    tag_320:\n        /* \"#utility.yul\":5761:5763   */\n      0x40\n        /* \"#utility.yul\":5756:5759   */\n      dup3\n        /* \"#utility.yul\":5752:5764   */\n      add\n        /* \"#utility.yul\":5745:5764   */\n      swap1\n      pop\n        /* \"#utility.yul\":5404:5770   */\n      swap2\n      swap1\n      pop\n      jump\t// out\n        /* \"#utility.yul\":5776:6142   */\n    tag_322:\n        /* \"#utility.yul\":5918:5921   */\n      0x00\n        /* \"#utility.yul\":5939:6006   */\n      tag_324\n        /* \"#utility.yul\":6003:6005   */\n      0x30\n        /* \"#utility.yul\":5998:6001   */\n      dup4\n        /* \"#utility.yul\":5939:6006   */\n      tag_281\n      jump\t// in\n    tag_324:\n        /* \"#utility.yul\":5932:6006   */\n      swap2\n      pop\n        /* \"#utility.yul\":6015:6108   */\n      tag_325\n        /* \"#utility.yul\":6104:6107   */\n      dup3\n        /* \"#utility.yul\":6015:6108   */\n      tag_326\n      jump\t// in\n    tag_325:\n        /* \"#utility.yul\":6133:6135   */\n      0x40\n        /* \"#utility.yul\":6128:6131   */\n      dup3\n        /* \"#utility.yul\":6124:6136   */\n      add\n        /* \"#utility.yul\":6117:6136   */\n      swap1\n      pop\n        /* \"#utility.yul\":5776:6142   */\n      swap2\n      swap1\n      pop\n      jump\t// out\n        /* \"#utility.yul\":6148:6550   */\n    tag_327:\n        /* \"#utility.yul\":6308:6311   */\n      0x00\n        /* \"#utility.yul\":6329:6414   */\n      tag_329\n        /* \"#utility.yul\":6411:6413   */\n      0x21\n        /* \"#utility.yul\":6406:6409   */\n      dup4\n        /* \"#utility.yul\":6329:6414   */\n      tag_290\n      jump\t// in\n    tag_329:\n        /* \"#utility.yul\":6322:6414   */\n      swap2\n      pop\n        /* \"#utility.yul\":6423:6516   */\n      tag_330\n        /* \"#utility.yul\":6512:6515   */\n      dup3\n        /* \"#utility.yul\":6423:6516   */\n      tag_331\n      jump\t// in\n    tag_330:\n        /* \"#utility.yul\":6541:6543   */\n      0x21\n        /* \"#utility.yul\":6536:6539   */\n      dup3\n        /* \"#utility.yul\":6532:6544   */\n      add\n        /* \"#utility.yul\":6525:6544   */\n      swap1\n      pop\n        /* \"#utility.yul\":6148:6550   */\n      swap2\n      swap1\n      pop\n      jump\t// out\n        /* \"#utility.yul\":6556:6922   */\n    tag_332:\n        /* \"#utility.yul\":6698:6701   */\n      0x00\n        /* \"#utility.yul\":6719:6786   */\n      tag_334\n        /* \"#utility.yul\":6783:6785   */\n      0x1c\n        /* \"#utility.yul\":6778:6781   */\n      dup4\n        /* \"#utility.yul\":6719:6786   */\n      tag_281\n      jump\t// in\n    tag_334:\n        /* \"#utility.yul\":6712:6786   */\n      swap2\n      pop\n        /* \"#utility.yul\":6795:6888   */\n      tag_335\n        /* \"#utility.yul\":6884:6887   */\n      dup3\n        /* \"#utility.yul\":6795:6888   */\n      tag_336\n      jump\t// in\n    tag_335:\n        /* \"#utility.yul\":6913:6915   */\n      0x20\n        /* \"#utility.yul\":6908:6911   */\n      dup3\n        /* \"#utility.yul\":6904:6916   */\n      add\n        /* \"#utility.yul\":6897:6916   */\n      swap1\n      pop\n        /* \"#utility.yul\":6556:6922   */\n      swap2\n      swap1\n      pop\n      jump\t// out\n        /* \"#utility.yul\":6928:7294   */\n    tag_337:\n        /* \"#utility.yul\":7070:7073   */\n      0x00\n        /* \"#utility.yul\":7091:7158   */\n      tag_339\n        /* \"#utility.yul\":7155:7157   */\n      0x12\n        /* \"#utility.yul\":7150:7153   */\n      dup4\n        /* \"#utility.yul\":7091:7158   */\n      tag_281\n      jump\t// in\n    tag_339:\n        /* \"#utility.yul\":7084:7158   */\n      swap2\n      pop\n        /* \"#utility.yul\":7167:7260   */\n      tag_340\n        /* \"#utility.yul\":7256:7259   */\n      dup3\n        /* \"#utility.yul\":7167:7260   */\n      tag_341\n      jump\t// in\n    tag_340:\n        /* \"#utility.yul\":7285:7287   */\n      0x20\n        /* \"#utility.yul\":7280:7283   */\n      dup3\n        /* \"#utility.yul\":7276:7288   */\n      add\n        /* \"#utility.yul\":7269:7288   */\n      swap1\n      pop\n        /* \"#utility.yul\":6928:7294   */\n      swap2\n      swap1\n      pop\n      jump\t// out\n        /* \"#utility.yul\":7300:7418   */\n    tag_342:\n        /* \"#utility.yul\":7387:7411   */\n      tag_344\n        /* \"#utility.yul\":7405:7410   */\n      dup2\n        /* \"#utility.yul\":7387:7411   */\n      tag_345\n      jump\t// in\n    tag_344:\n        /* \"#utility.yul\":7382:7385   */\n      dup3\n        /* \"#utility.yul\":7375:7412   */\n      mstore\n        /* \"#utility.yul\":7300:7418   */\n      pop\n      pop\n      jump\t// out\n        /* \"#utility.yul\":7424:7581   */\n    tag_346:\n        /* \"#utility.yul\":7529:7574   */\n      tag_348\n        /* \"#utility.yul\":7549:7573   */\n      tag_349\n        /* \"#utility.yul\":7567:7572   */\n      dup3\n        /* \"#utility.yul\":7549:7573   */\n      tag_345\n      jump\t// in\n    tag_349:\n        /* \"#utility.yul\":7529:7574   */\n      tag_350\n      jump\t// in\n    tag_348:\n        /* \"#utility.yul\":7524:7527   */\n      dup3\n        /* \"#utility.yul\":7517:7575   */\n      mstore\n        /* \"#utility.yul\":7424:7581   */\n      pop\n      pop\n      jump\t// out\n        /* \"#utility.yul\":7587:8022   */\n    tag_214:\n        /* \"#utility.yul\":7767:7770   */\n      0x00\n        /* \"#utility.yul\":7789:7884   */\n      tag_352\n        /* \"#utility.yul\":7880:7883   */\n      dup3\n        /* \"#utility.yul\":7871:7877   */\n      dup6\n        /* \"#utility.yul\":7789:7884   */\n      tag_286\n      jump\t// in\n    tag_352:\n        /* \"#utility.yul\":7782:7884   */\n      swap2\n      pop\n        /* \"#utility.yul\":7901:7996   */\n      tag_353\n        /* \"#utility.yul\":7992:7995   */\n      dup3\n        /* \"#utility.yul\":7983:7989   */\n      dup5\n        /* \"#utility.yul\":7901:7996   */\n      tag_286\n      jump\t// in\n    tag_353:\n        /* \"#utility.yul\":7894:7996   */\n      swap2\n      pop\n        /* \"#utility.yul\":8013:8016   */\n      dup2\n        /* \"#utility.yul\":8006:8016   */\n      swap1\n      pop\n        /* \"#utility.yul\":7587:8022   */\n      swap4\n      swap3\n      pop\n      pop\n      pop\n      jump\t// out\n        /* \"#utility.yul\":8028:8550   */\n    tag_210:\n        /* \"#utility.yul\":8241:8244   */\n      0x00\n        /* \"#utility.yul\":8263:8411   */\n      tag_355\n        /* \"#utility.yul\":8407:8410   */\n      dup3\n        /* \"#utility.yul\":8263:8411   */\n      tag_307\n      jump\t// in\n    tag_355:\n        /* \"#utility.yul\":8256:8411   */\n      swap2\n      pop\n        /* \"#utility.yul\":8421:8496   */\n      tag_356\n        /* \"#utility.yul\":8492:8495   */\n      dup3\n        /* \"#utility.yul\":8483:8489   */\n      dup5\n        /* \"#utility.yul\":8421:8496   */\n      tag_346\n      jump\t// in\n    tag_356:\n        /* \"#utility.yul\":8521:8523   */\n      0x20\n        /* \"#utility.yul\":8516:8519   */\n      dup3\n        /* \"#utility.yul\":8512:8524   */\n      add\n        /* \"#utility.yul\":8505:8524   */\n      swap2\n      pop\n        /* \"#utility.yul\":8541:8544   */\n      dup2\n        /* \"#utility.yul\":8534:8544   */\n      swap1\n      pop\n        /* \"#utility.yul\":8028:8550   */\n      swap3\n      swap2\n      pop\n      pop\n      jump\t// out\n        /* \"#utility.yul\":8556:9078   */\n    tag_212:\n        /* \"#utility.yul\":8769:8772   */\n      0x00\n        /* \"#utility.yul\":8791:8939   */\n      tag_358\n        /* \"#utility.yul\":8935:8938   */\n      dup3\n        /* \"#utility.yul\":8791:8939   */\n      tag_327\n      jump\t// in\n    tag_358:\n        /* \"#utility.yul\":8784:8939   */\n      swap2\n      pop\n        /* \"#utility.yul\":8949:9024   */\n      tag_359\n        /* \"#utility.yul\":9020:9023   */\n      dup3\n        /* \"#utility.yul\":9011:9017   */\n      dup5\n        /* \"#utility.yul\":8949:9024   */\n      tag_346\n      jump\t// in\n    tag_359:\n        /* \"#utility.yul\":9049:9051   */\n      0x20\n        /* \"#utility.yul\":9044:9047   */\n      dup3\n        /* \"#utility.yul\":9040:9052   */\n      add\n        /* \"#utility.yul\":9033:9052   */\n      swap2\n      pop\n        /* \"#utility.yul\":9069:9072   */\n      dup2\n        /* \"#utility.yul\":9062:9072   */\n      swap1\n      pop\n        /* \"#utility.yul\":8556:9078   */\n      swap3\n      swap2\n      pop\n      pop\n      jump\t// out\n        /* \"#utility.yul\":9084:9306   */\n    tag_83:\n        /* \"#utility.yul\":9177:9181   */\n      0x00\n        /* \"#utility.yul\":9215:9217   */\n      0x20\n        /* \"#utility.yul\":9204:9213   */\n      dup3\n        /* \"#utility.yul\":9200:9218   */\n      add\n        /* \"#utility.yul\":9192:9218   */\n      swap1\n      pop\n        /* \"#utility.yul\":9228:9299   */\n      tag_361\n        /* \"#utility.yul\":9296:9297   */\n      0x00\n        /* \"#utility.yul\":9285:9294   */\n      dup4\n        /* \"#utility.yul\":9281:9298   */\n      add\n        /* \"#utility.yul\":9272:9278   */\n      dup5\n        /* \"#utility.yul\":9228:9299   */\n      tag_264\n      jump\t// in\n    tag_361:\n        /* \"#utility.yul\":9084:9306   */\n      swap3\n      swap2\n      pop\n      pop\n      jump\t// out\n        /* \"#utility.yul\":9312:9566   */\n    tag_61:\n        /* \"#utility.yul\":9421:9425   */\n      0x00\n        /* \"#utility.yul\":9459:9461   */\n      0x20\n        /* \"#utility.yul\":9448:9457   */\n      dup3\n        /* \"#utility.yul\":9444:9462   */\n      add\n        /* \"#utility.yul\":9436:9462   */\n      swap1\n      pop\n        /* \"#utility.yul\":9472:9559   */\n      tag_363\n        /* \"#utility.yul\":9556:9557   */\n      0x00\n        /* \"#utility.yul\":9545:9554   */\n      dup4\n        /* \"#utility.yul\":9541:9558   */\n      add\n        /* \"#utility.yul\":9532:9538   */\n      dup5\n        /* \"#utility.yul\":9472:9559   */\n      tag_260\n      jump\t// in\n    tag_363:\n        /* \"#utility.yul\":9312:9566   */\n      swap3\n      swap2\n      pop\n      pop\n      jump\t// out\n        /* \"#utility.yul\":9572:10014   */\n    tag_229:\n        /* \"#utility.yul\":9721:9725   */\n      0x00\n        /* \"#utility.yul\":9759:9761   */\n      0x60\n        /* \"#utility.yul\":9748:9757   */\n      dup3\n        /* \"#utility.yul\":9744:9762   */\n      add\n        /* \"#utility.yul\":9736:9762   */\n      swap1\n      pop\n        /* \"#utility.yul\":9772:9843   */\n      tag_365\n        /* \"#utility.yul\":9840:9841   */\n      0x00\n        /* \"#utility.yul\":9829:9838   */\n      dup4\n        /* \"#utility.yul\":9825:9842   */\n      add\n        /* \"#utility.yul\":9816:9822   */\n      dup7\n        /* \"#utility.yul\":9772:9843   */\n      tag_264\n      jump\t// in\n    tag_365:\n        /* \"#utility.yul\":9853:9925   */\n      tag_366\n        /* \"#utility.yul\":9921:9923   */\n      0x20\n        /* \"#utility.yul\":9910:9919   */\n      dup4\n        /* \"#utility.yul\":9906:9924   */\n      add\n        /* \"#utility.yul\":9897:9903   */\n      dup6\n        /* \"#utility.yul\":9853:9925   */\n      tag_342\n      jump\t// in\n    tag_366:\n        /* \"#utility.yul\":9935:10007   */\n      tag_367\n        /* \"#utility.yul\":10003:10005   */\n      0x40\n        /* \"#utility.yul\":9992:10001   */\n      dup4\n        /* \"#utility.yul\":9988:10006   */\n      add\n        /* \"#utility.yul\":9979:9985   */\n      dup5\n        /* \"#utility.yul\":9935:10007   */\n      tag_342\n      jump\t// in\n    tag_367:\n        /* \"#utility.yul\":9572:10014   */\n      swap5\n      swap4\n      pop\n      pop\n      pop\n      pop\n      jump\t// out\n        /* \"#utility.yul\":10020:10230   */\n    tag_39:\n        /* \"#utility.yul\":10107:10111   */\n      0x00\n        /* \"#utility.yul\":10145:10147   */\n      0x20\n        /* \"#utility.yul\":10134:10143   */\n      dup3\n        /* \"#utility.yul\":10130:10148   */\n      add\n        /* \"#utility.yul\":10122:10148   */\n      swap1\n      pop\n        /* \"#utility.yul\":10158:10223   */\n      tag_369\n        /* \"#utility.yul\":10220:10221   */\n      0x00\n        /* \"#utility.yul\":10209:10218   */\n      dup4\n        /* \"#utility.yul\":10205:10222   */\n      add\n        /* \"#utility.yul\":10196:10202   */\n      dup5\n        /* \"#utility.yul\":10158:10223   */\n      tag_268\n      jump\t// in\n    tag_369:\n        /* \"#utility.yul\":10020:10230   */\n      swap3\n      swap2\n      pop\n      pop\n      jump\t// out\n        /* \"#utility.yul\":10236:10472   */\n    tag_66:\n        /* \"#utility.yul\":10336:10340   */\n      0x00\n        /* \"#utility.yul\":10374:10376   */\n      0x20\n        /* \"#utility.yul\":10363:10372   */\n      dup3\n        /* \"#utility.yul\":10359:10377   */\n      add\n        /* \"#utility.yul\":10351:10377   */\n      swap1\n      pop\n        /* \"#utility.yul\":10387:10465   */\n      tag_371\n        /* \"#utility.yul\":10462:10463   */\n      0x00\n        /* \"#utility.yul\":10451:10460   */\n      dup4\n        /* \"#utility.yul\":10447:10464   */\n      add\n        /* \"#utility.yul\":10438:10444   */\n      dup5\n        /* \"#utility.yul\":10387:10465   */\n      tag_272\n      jump\t// in\n    tag_371:\n        /* \"#utility.yul\":10236:10472   */\n      swap3\n      swap2\n      pop\n      pop\n      jump\t// out\n        /* \"#utility.yul\":10478:10791   */\n    tag_32:\n        /* \"#utility.yul\":10591:10595   */\n      0x00\n        /* \"#utility.yul\":10629:10631   */\n      0x20\n        /* \"#utility.yul\":10618:10627   */\n      dup3\n        /* \"#utility.yul\":10614:10632   */\n      add\n        /* \"#utility.yul\":10606:10632   */\n      swap1\n      pop\n        /* \"#utility.yul\":10678:10687   */\n      dup2\n        /* \"#utility.yul\":10672:10676   */\n      dup2\n        /* \"#utility.yul\":10668:10688   */\n      sub\n        /* \"#utility.yul\":10664:10665   */\n      0x00\n        /* \"#utility.yul\":10653:10662   */\n      dup4\n        /* \"#utility.yul\":10649:10666   */\n      add\n        /* \"#utility.yul\":10642:10689   */\n      mstore\n        /* \"#utility.yul\":10706:10784   */\n      tag_373\n        /* \"#utility.yul\":10779:10783   */\n      dup2\n        /* \"#utility.yul\":10770:10776   */\n      dup5\n        /* \"#utility.yul\":10706:10784   */\n      tag_276\n      jump\t// in\n    tag_373:\n        /* \"#utility.yul\":10698:10784   */\n      swap1\n      pop\n        /* \"#utility.yul\":10478:10791   */\n      swap3\n      swap2\n      pop\n      pop\n      jump\t// out\n        /* \"#utility.yul\":10797:11216   */\n    tag_153:\n        /* \"#utility.yul\":10963:10967   */\n      0x00\n        /* \"#utility.yul\":11001:11003   */\n      0x20\n        /* \"#utility.yul\":10990:10999   */\n      dup3\n        /* \"#utility.yul\":10986:11004   */\n      add\n        /* \"#utility.yul\":10978:11004   */\n      swap1\n      pop\n        /* \"#utility.yul\":11050:11059   */\n      dup2\n        /* \"#utility.yul\":11044:11048   */\n      dup2\n        /* \"#utility.yul\":11040:11060   */\n      sub\n        /* \"#utility.yul\":11036:11037   */\n      0x00\n        /* \"#utility.yul\":11025:11034   */\n      dup4\n        /* \"#utility.yul\":11021:11038   */\n      add\n        /* \"#utility.yul\":11014:11061   */\n      mstore\n        /* \"#utility.yul\":11078:11209   */\n      tag_375\n        /* \"#utility.yul\":11204:11208   */\n      dup2\n        /* \"#utility.yul\":11078:11209   */\n      tag_292\n      jump\t// in\n    tag_375:\n        /* \"#utility.yul\":11070:11209   */\n      swap1\n      pop\n        /* \"#utility.yul\":10797:11216   */\n      swap2\n      swap1\n      pop\n      jump\t// out\n        /* \"#utility.yul\":11222:11641   */\n    tag_148:\n        /* \"#utility.yul\":11388:11392   */\n      0x00\n        /* \"#utility.yul\":11426:11428   */\n      0x20\n        /* \"#utility.yul\":11415:11424   */\n      dup3\n        /* \"#utility.yul\":11411:11429   */\n      add\n        /* \"#utility.yul\":11403:11429   */\n      swap1\n      pop\n        /* \"#utility.yul\":11475:11484   */\n      dup2\n        /* \"#utility.yul\":11469:11473   */\n      dup2\n        /* \"#utility.yul\":11465:11485   */\n      sub\n        /* \"#utility.yul\":11461:11462   */\n      0x00\n        /* \"#utility.yul\":11450:11459   */\n      dup4\n        /* \"#utility.yul\":11446:11463   */\n      add\n        /* \"#utility.yul\":11439:11486   */\n      mstore\n        /* \"#utility.yul\":11503:11634   */\n      tag_377\n        /* \"#utility.yul\":11629:11633   */\n      dup2\n        /* \"#utility.yul\":11503:11634   */\n      tag_297\n      jump\t// in\n    tag_377:\n        /* \"#utility.yul\":11495:11634   */\n      swap1\n      pop\n        /* \"#utility.yul\":11222:11641   */\n      swap2\n      swap1\n      pop\n      jump\t// out\n        /* \"#utility.yul\":11647:12066   */\n    tag_206:\n        /* \"#utility.yul\":11813:11817   */\n      0x00\n        /* \"#utility.yul\":11851:11853   */\n      0x20\n        /* \"#utility.yul\":11840:11849   */\n      dup3\n        /* \"#utility.yul\":11836:11854   */\n      add\n        /* \"#utility.yul\":11828:11854   */\n      swap1\n      pop\n        /* \"#utility.yul\":11900:11909   */\n      dup2\n        /* \"#utility.yul\":11894:11898   */\n      dup2\n        /* \"#utility.yul\":11890:11910   */\n      sub\n        /* \"#utility.yul\":11886:11887   */\n      0x00\n        /* \"#utility.yul\":11875:11884   */\n      dup4\n        /* \"#utility.yul\":11871:11888   */\n      add\n        /* \"#utility.yul\":11864:11911   */\n      mstore\n        /* \"#utility.yul\":11928:12059   */\n      tag_379\n        /* \"#utility.yul\":12054:12058   */\n      dup2\n        /* \"#utility.yul\":11928:12059   */\n      tag_302\n      jump\t// in\n    tag_379:\n        /* \"#utility.yul\":11920:12059   */\n      swap1\n      pop\n        /* \"#utility.yul\":11647:12066   */\n      swap2\n      swap1\n      pop\n      jump\t// out\n        /* \"#utility.yul\":12072:12491   */\n    tag_195:\n        /* \"#utility.yul\":12238:12242   */\n      0x00\n        /* \"#utility.yul\":12276:12278   */\n      0x20\n        /* \"#utility.yul\":12265:12274   */\n      dup3\n        /* \"#utility.yul\":12261:12279   */\n      add\n        /* \"#utility.yul\":12253:12279   */\n      swap1\n      pop\n        /* \"#utility.yul\":12325:12334   */\n      dup2\n        /* \"#utility.yul\":12319:12323   */\n      dup2\n        /* \"#utility.yul\":12315:12335   */\n      sub\n        /* \"#utility.yul\":12311:12312   */\n      0x00\n        /* \"#utility.yul\":12300:12309   */\n      dup4\n        /* \"#utility.yul\":12296:12313   */\n      add\n        /* \"#utility.yul\":12289:12336   */\n      mstore\n        /* \"#utility.yul\":12353:12484   */\n      tag_381\n        /* \"#utility.yul\":12479:12483   */\n      dup2\n        /* \"#utility.yul\":12353:12484   */\n      tag_312\n      jump\t// in\n    tag_381:\n        /* \"#utility.yul\":12345:12484   */\n      swap1\n      pop\n        /* \"#utility.yul\":12072:12491   */\n      swap2\n      swap1\n      pop\n      jump\t// out\n        /* \"#utility.yul\":12497:12916   */\n    tag_145:\n        /* \"#utility.yul\":12663:12667   */\n      0x00\n        /* \"#utility.yul\":12701:12703   */\n      0x20\n        /* \"#utility.yul\":12690:12699   */\n      dup3\n        /* \"#utility.yul\":12686:12704   */\n      add\n        /* \"#utility.yul\":12678:12704   */\n      swap1\n      pop\n        /* \"#utility.yul\":12750:12759   */\n      dup2\n        /* \"#utility.yul\":12744:12748   */\n      dup2\n        /* \"#utility.yul\":12740:12760   */\n      sub\n        /* \"#utility.yul\":12736:12737   */\n      0x00\n        /* \"#utility.yul\":12725:12734   */\n      dup4\n        /* \"#utility.yul\":12721:12738   */\n      add\n        /* \"#utility.yul\":12714:12761   */\n      mstore\n        /* \"#utility.yul\":12778:12909   */\n      tag_383\n        /* \"#utility.yul\":12904:12908   */\n      dup2\n        /* \"#utility.yul\":12778:12909   */\n      tag_317\n      jump\t// in\n    tag_383:\n        /* \"#utility.yul\":12770:12909   */\n      swap1\n      pop\n        /* \"#utility.yul\":12497:12916   */\n      swap2\n      swap1\n      pop\n      jump\t// out\n        /* \"#utility.yul\":12922:13341   */\n    tag_221:\n        /* \"#utility.yul\":13088:13092   */\n      0x00\n        /* \"#utility.yul\":13126:13128   */\n      0x20\n        /* \"#utility.yul\":13115:13124   */\n      dup3\n        /* \"#utility.yul\":13111:13129   */\n      add\n        /* \"#utility.yul\":13103:13129   */\n      swap1\n      pop\n        /* \"#utility.yul\":13175:13184   */\n      dup2\n        /* \"#utility.yul\":13169:13173   */\n      dup2\n        /* \"#utility.yul\":13165:13185   */\n      sub\n        /* \"#utility.yul\":13161:13162   */\n      0x00\n        /* \"#utility.yul\":13150:13159   */\n      dup4\n        /* \"#utility.yul\":13146:13163   */\n      add\n        /* \"#utility.yul\":13139:13186   */\n      mstore\n        /* \"#utility.yul\":13203:13334   */\n      tag_385\n        /* \"#utility.yul\":13329:13333   */\n      dup2\n        /* \"#utility.yul\":13203:13334   */\n      tag_322\n      jump\t// in\n    tag_385:\n        /* \"#utility.yul\":13195:13334   */\n      swap1\n      pop\n        /* \"#utility.yul\":12922:13341   */\n      swap2\n      swap1\n      pop\n      jump\t// out\n        /* \"#utility.yul\":13347:13766   */\n    tag_187:\n        /* \"#utility.yul\":13513:13517   */\n      0x00\n        /* \"#utility.yul\":13551:13553   */\n      0x20\n        /* \"#utility.yul\":13540:13549   */\n      dup3\n        /* \"#utility.yul\":13536:13554   */\n      add\n        /* \"#utility.yul\":13528:13554   */\n      swap1\n      pop\n        /* \"#utility.yul\":13600:13609   */\n      dup2\n        /* \"#utility.yul\":13594:13598   */\n      dup2\n        /* \"#utility.yul\":13590:13610   */\n      sub\n        /* \"#utility.yul\":13586:13587   */\n      0x00\n        /* \"#utility.yul\":13575:13584   */\n      dup4\n        /* \"#utility.yul\":13571:13588   */\n      add\n        /* \"#utility.yul\":13564:13611   */\n      mstore\n        /* \"#utility.yul\":13628:13759   */\n      tag_387\n        /* \"#utility.yul\":13754:13758   */\n      dup2\n        /* \"#utility.yul\":13628:13759   */\n      tag_332\n      jump\t// in\n    tag_387:\n        /* \"#utility.yul\":13620:13759   */\n      swap1\n      pop\n        /* \"#utility.yul\":13347:13766   */\n      swap2\n      swap1\n      pop\n      jump\t// out\n        /* \"#utility.yul\":13772:14191   */\n    tag_156:\n        /* \"#utility.yul\":13938:13942   */\n      0x00\n        /* \"#utility.yul\":13976:13978   */\n      0x20\n        /* \"#utility.yul\":13965:13974   */\n      dup3\n        /* \"#utility.yul\":13961:13979   */\n      add\n        /* \"#utility.yul\":13953:13979   */\n      swap1\n      pop\n        /* \"#utility.yul\":14025:14034   */\n      dup2\n        /* \"#utility.yul\":14019:14023   */\n      dup2\n        /* \"#utility.yul\":14015:14035   */\n      sub\n        /* \"#utility.yul\":14011:14012   */\n      0x00\n        /* \"#utility.yul\":14000:14009   */\n      dup4\n        /* \"#utility.yul\":13996:14013   */\n      add\n        /* \"#utility.yul\":13989:14036   */\n      mstore\n        /* \"#utility.yul\":14053:14184   */\n      tag_389\n        /* \"#utility.yul\":14179:14183   */\n      dup2\n        /* \"#utility.yul\":14053:14184   */\n      tag_337\n      jump\t// in\n    tag_389:\n        /* \"#utility.yul\":14045:14184   */\n      swap1\n      pop\n        /* \"#utility.yul\":13772:14191   */\n      swap2\n      swap1\n      pop\n      jump\t// out\n        /* \"#utility.yul\":14197:14419   */\n    tag_44:\n        /* \"#utility.yul\":14290:14294   */\n      0x00\n        /* \"#utility.yul\":14328:14330   */\n      0x20\n        /* \"#utility.yul\":14317:14326   */\n      dup3\n        /* \"#utility.yul\":14313:14331   */\n      add\n        /* \"#utility.yul\":14305:14331   */\n      swap1\n      pop\n        /* \"#utility.yul\":14341:14412   */\n      tag_391\n        /* \"#utility.yul\":14409:14410   */\n      0x00\n        /* \"#utility.yul\":14398:14407   */\n      dup4\n        /* \"#utility.yul\":14394:14411   */\n      add\n        /* \"#utility.yul\":14385:14391   */\n      dup5\n        /* \"#utility.yul\":14341:14412   */\n      tag_342\n      jump\t// in\n    tag_391:\n        /* \"#utility.yul\":14197:14419   */\n      swap3\n      swap2\n      pop\n      pop\n      jump\t// out\n        /* \"#utility.yul\":14506:14605   */\n    tag_279:\n        /* \"#utility.yul\":14558:14564   */\n      0x00\n        /* \"#utility.yul\":14592:14597   */\n      dup2\n        /* \"#utility.yul\":14586:14598   */\n      mload\n        /* \"#utility.yul\":14576:14598   */\n      swap1\n      pop\n        /* \"#utility.yul\":14506:14605   */\n      swap2\n      swap1\n      pop\n      jump\t// out\n        /* \"#utility.yul\":14611:14780   */\n    tag_281:\n        /* \"#utility.yul\":14695:14706   */\n      0x00\n        /* \"#utility.yul\":14729:14735   */\n      dup3\n        /* \"#utility.yul\":14724:14727   */\n      dup3\n        /* \"#utility.yul\":14717:14736   */\n      mstore\n        /* \"#utility.yul\":14769:14773   */\n      0x20\n        /* \"#utility.yul\":14764:14767   */\n      dup3\n        /* \"#utility.yul\":14760:14774   */\n      add\n        /* \"#utility.yul\":14745:14774   */\n      swap1\n      pop\n        /* \"#utility.yul\":14611:14780   */\n      swap3\n      swap2\n      pop\n      pop\n      jump\t// out\n        /* \"#utility.yul\":14786:14934   */\n    tag_290:\n        /* \"#utility.yul\":14888:14899   */\n      0x00\n        /* \"#utility.yul\":14925:14928   */\n      dup2\n        /* \"#utility.yul\":14910:14928   */\n      swap1\n      pop\n        /* \"#utility.yul\":14786:14934   */\n      swap3\n      swap2\n      pop\n      pop\n      jump\t// out\n        /* \"#utility.yul\":14940:15245   */\n    tag_163:\n        /* \"#utility.yul\":14980:14983   */\n      0x00\n        /* \"#utility.yul\":14999:15019   */\n      tag_398\n        /* \"#utility.yul\":15017:15018   */\n      dup3\n        /* \"#utility.yul\":14999:15019   */\n      tag_345\n      jump\t// in\n    tag_398:\n        /* \"#utility.yul\":14994:15019   */\n      swap2\n      pop\n        /* \"#utility.yul\":15033:15053   */\n      tag_399\n        /* \"#utility.yul\":15051:15052   */\n      dup4\n        /* \"#utility.yul\":15033:15053   */\n      tag_345\n      jump\t// in\n    tag_399:\n        /* \"#utility.yul\":15028:15053   */\n      swap3\n      pop\n        /* \"#utility.yul\":15187:15188   */\n      dup3\n        /* \"#utility.yul\":15119:15185   */\n      0xffffffffffffffffffffffffffffffffffffffffffffffffffffffffffffffff\n        /* \"#utility.yul\":15115:15189   */\n      sub\n        /* \"#utility.yul\":15112:15113   */\n      dup3\n        /* \"#utility.yul\":15109:15190   */\n      gt\n        /* \"#utility.yul\":15106:15213   */\n      iszero\n      tag_400\n      jumpi\n        /* \"#utility.yul\":15193:15211   */\n      tag_401\n      tag_402\n      jump\t// in\n    tag_401:\n        /* \"#utility.yul\":15106:15213   */\n    tag_400:\n        /* \"#utility.yul\":15237:15238   */\n      dup3\n        /* \"#utility.yul\":15234:15235   */\n      dup3\n        /* \"#utility.yul\":15230:15239   */\n      add\n        /* \"#utility.yul\":15223:15239   */\n      swap1\n      pop\n        /* \"#utility.yul\":14940:15245   */\n      swap3\n      swap2\n      pop\n      pop\n      jump\t// out\n        /* \"#utility.yul\":15251:15599   */\n    tag_223:\n        /* \"#utility.yul\":15291:15298   */\n      0x00\n        /* \"#utility.yul\":15314:15334   */\n      tag_404\n        /* \"#utility.yul\":15332:15333   */\n      dup3\n        /* \"#utility.yul\":15314:15334   */\n      tag_345\n      jump\t// in\n    tag_404:\n        /* \"#utility.yul\":15309:15334   */\n      swap2\n      pop\n        /* \"#utility.yul\":15348:15368   */\n      tag_405\n        /* \"#utility.yul\":15366:15367   */\n      dup4\n        /* \"#utility.yul\":15348:15368   */\n      tag_345\n      jump\t// in\n    tag_405:\n        /* \"#utility.yul\":15343:15368   */\n      swap3\n      pop\n        /* \"#utility.yul\":15536:15537   */\n      dup2\n        /* \"#utility.yul\":15468:15534   */\n      0xffffffffffffffffffffffffffffffffffffffffffffffffffffffffffffffff\n        /* \"#utility.yul\":15464:15538   */\n      div\n        /* \"#utility.yul\":15461:15462   */\n      dup4\n        /* \"#utility.yul\":15458:15539   */\n      gt\n        /* \"#utility.yul\":15453:15454   */\n      dup3\n        /* \"#utility.yul\":15446:15455   */\n      iszero\n        /* \"#utility.yul\":15439:15456   */\n      iszero\n        /* \"#utility.yul\":15435:15540   */\n      and\n        /* \"#utility.yul\":15432:15563   */\n      iszero\n      tag_406\n      jumpi\n        /* \"#utility.yul\":15543:15561   */\n      tag_407\n      tag_402\n      jump\t// in\n    tag_407:\n        /* \"#utility.yul\":15432:15563   */\n    tag_406:\n        /* \"#utility.yul\":15591:15592   */\n      dup3\n        /* \"#utility.yul\":15588:15589   */\n      dup3\n        /* \"#utility.yul\":15584:15593   */\n      mul\n        /* \"#utility.yul\":15573:15593   */\n      swap1\n      pop\n        /* \"#utility.yul\":15251:15599   */\n      swap3\n      swap2\n      pop\n      pop\n      jump\t// out\n        /* \"#utility.yul\":15605:15796   */\n    tag_160:\n        /* \"#utility.yul\":15645:15649   */\n      0x00\n        /* \"#utility.yul\":15665:15685   */\n      tag_409\n        /* \"#utility.yul\":15683:15684   */\n      dup3\n        /* \"#utility.yul\":15665:15685   */\n      tag_345\n      jump\t// in\n    tag_409:\n        /* \"#utility.yul\":15660:15685   */\n      swap2\n      pop\n        /* \"#utility.yul\":15699:15719   */\n      tag_410\n        /* \"#utility.yul\":15717:15718   */\n      dup4\n        /* \"#utility.yul\":15699:15719   */\n      tag_345\n      jump\t// in\n    tag_410:\n        /* \"#utility.yul\":15694:15719   */\n      swap3\n      pop\n        /* \"#utility.yul\":15738:15739   */\n      dup3\n        /* \"#utility.yul\":15735:15736   */\n      dup3\n        /* \"#utility.yul\":15732:15740   */\n      lt\n        /* \"#utility.yul\":15729:15763   */\n      iszero\n      tag_411\n      jumpi\n        /* \"#utility.yul\":15743:15761   */\n      tag_412\n      tag_402\n      jump\t// in\n    tag_412:\n        /* \"#utility.yul\":15729:15763   */\n    tag_411:\n        /* \"#utility.yul\":15788:15789   */\n      dup3\n        /* \"#utility.yul\":15785:15786   */\n      dup3\n        /* \"#utility.yul\":15781:15790   */\n      sub\n        /* \"#utility.yul\":15773:15790   */\n      swap1\n      pop\n        /* \"#utility.yul\":15605:15796   */\n      swap3\n      swap2\n      pop\n      pop\n      jump\t// out\n        /* \"#utility.yul\":15802:15898   */\n    tag_267:\n        /* \"#utility.yul\":15839:15846   */\n      0x00\n        /* \"#utility.yul\":15868:15892   */\n      tag_414\n        /* \"#utility.yul\":15886:15891   */\n      dup3\n        /* \"#utility.yul\":15868:15892   */\n      tag_415\n      jump\t// in\n    tag_414:\n        /* \"#utility.yul\":15857:15892   */\n      swap1\n      pop\n        /* \"#utility.yul\":15802:15898   */\n      swap2\n      swap1\n      pop\n      jump\t// out\n        /* \"#utility.yul\":15904:16008   */\n    tag_263:\n        /* \"#utility.yul\":15949:15956   */\n      0x00\n        /* \"#utility.yul\":15978:16002   */\n      tag_417\n        /* \"#utility.yul\":15996:16001   */\n      dup3\n        /* \"#utility.yul\":15978:16002   */\n      tag_415\n      jump\t// in\n    tag_417:\n        /* \"#utility.yul\":15967:16002   */\n      swap1\n      pop\n        /* \"#utility.yul\":15904:16008   */\n      swap2\n      swap1\n      pop\n      jump\t// out\n        /* \"#utility.yul\":16014:16104   */\n    tag_271:\n        /* \"#utility.yul\":16048:16055   */\n      0x00\n        /* \"#utility.yul\":16091:16096   */\n      dup2\n        /* \"#utility.yul\":16084:16097   */\n      iszero\n        /* \"#utility.yul\":16077:16098   */\n      iszero\n        /* \"#utility.yul\":16066:16098   */\n      swap1\n      pop\n        /* \"#utility.yul\":16014:16104   */\n      swap2\n      swap1\n      pop\n      jump\t// out\n        /* \"#utility.yul\":16110:16239   */\n    tag_419:\n        /* \"#utility.yul\":16156:16163   */\n      0x00\n        /* \"#utility.yul\":16185:16190   */\n      dup2\n        /* \"#utility.yul\":16174:16190   */\n      swap1\n      pop\n        /* \"#utility.yul\":16191:16233   */\n      tag_421\n        /* \"#utility.yul\":16227:16232   */\n      dup3\n        /* \"#utility.yul\":16191:16233   */\n      tag_422\n      jump\t// in\n    tag_421:\n        /* \"#utility.yul\":16110:16239   */\n      swap2\n      swap1\n      pop\n      jump\t// out\n        /* \"#utility.yul\":16245:16371   */\n    tag_415:\n        /* \"#utility.yul\":16282:16289   */\n      0x00\n        /* \"#utility.yul\":16322:16364   */\n      0xffffffffffffffffffffffffffffffffffffffff\n        /* \"#utility.yul\":16315:16320   */\n      dup3\n        /* \"#utility.yul\":16311:16365   */\n      and\n        /* \"#utility.yul\":16300:16365   */\n      swap1\n      pop\n        /* \"#utility.yul\":16245:16371   */\n      swap2\n      swap1\n      pop\n      jump\t// out\n        /* \"#utility.yul\":16377:16454   */\n    tag_345:\n        /* \"#utility.yul\":16414:16421   */\n      0x00\n        /* \"#utility.yul\":16443:16448   */\n      dup2\n        /* \"#utility.yul\":16432:16448   */\n      swap1\n      pop\n        /* \"#utility.yul\":16377:16454   */\n      swap2\n      swap1\n      pop\n      jump\t// out\n        /* \"#utility.yul\":16460:16589   */\n    tag_275:\n        /* \"#utility.yul\":16517:16526   */\n      0x00\n        /* \"#utility.yul\":16550:16583   */\n      tag_426\n        /* \"#utility.yul\":16577:16582   */\n      dup3\n        /* \"#utility.yul\":16550:16583   */\n      tag_419\n      jump\t// in\n    tag_426:\n        /* \"#utility.yul\":16537:16583   */\n      swap1\n      pop\n        /* \"#utility.yul\":16460:16589   */\n      swap2\n      swap1\n      pop\n      jump\t// out\n        /* \"#utility.yul\":16595:16902   */\n    tag_283:\n        /* \"#utility.yul\":16663:16664   */\n      0x00\n        /* \"#utility.yul\":16673:16786   */\n    tag_428:\n        /* \"#utility.yul\":16687:16693   */\n      dup4\n        /* \"#utility.yul\":16684:16685   */\n      dup2\n        /* \"#utility.yul\":16681:16694   */\n      lt\n        /* \"#utility.yul\":16673:16786   */\n      iszero\n      tag_430\n      jumpi\n        /* \"#utility.yul\":16772:16773   */\n      dup1\n        /* \"#utility.yul\":16767:16770   */\n      dup3\n        /* \"#utility.yul\":16763:16774   */\n      add\n        /* \"#utility.yul\":16757:16775   */\n      mload\n        /* \"#utility.yul\":16753:16754   */\n      dup2\n        /* \"#utility.yul\":16748:16751   */\n      dup5\n        /* \"#utility.yul\":16744:16755   */\n      add\n        /* \"#utility.yul\":16737:16776   */\n      mstore\n        /* \"#utility.yul\":16709:16711   */\n      0x20\n        /* \"#utility.yul\":16706:16707   */\n      dup2\n        /* \"#utility.yul\":16702:16712   */\n      add\n        /* \"#utility.yul\":16697:16712   */\n      swap1\n      pop\n        /* \"#utility.yul\":16673:16786   */\n      jump(tag_428)\n    tag_430:\n        /* \"#utility.yul\":16804:16810   */\n      dup4\n        /* \"#utility.yul\":16801:16802   */\n      dup2\n        /* \"#utility.yul\":16798:16811   */\n      gt\n        /* \"#utility.yul\":16795:16896   */\n      iszero\n      tag_431\n      jumpi\n        /* \"#utility.yul\":16884:16885   */\n      0x00\n        /* \"#utility.yul\":16875:16881   */\n      dup5\n        /* \"#utility.yul\":16870:16873   */\n      dup5\n        /* \"#utility.yul\":16866:16882   */\n      add\n        /* \"#utility.yul\":16859:16886   */\n      mstore\n        /* \"#utility.yul\":16795:16896   */\n    tag_431:\n        /* \"#utility.yul\":16644:16902   */\n      pop\n        /* \"#utility.yul\":16595:16902   */\n      pop\n      pop\n      pop\n      jump\t// out\n        /* \"#utility.yul\":16908:17228   */\n    tag_137:\n        /* \"#utility.yul\":16952:16958   */\n      0x00\n        /* \"#utility.yul\":16989:16990   */\n      0x02\n        /* \"#utility.yul\":16983:16987   */\n      dup3\n        /* \"#utility.yul\":16979:16991   */\n      div\n        /* \"#utility.yul\":16969:16991   */\n      swap1\n      pop\n        /* \"#utility.yul\":17036:17037   */\n      0x01\n        /* \"#utility.yul\":17030:17034   */\n      dup3\n        /* \"#utility.yul\":17026:17038   */\n      and\n        /* \"#utility.yul\":17057:17075   */\n      dup1\n        /* \"#utility.yul\":17047:17128   */\n      tag_433\n      jumpi\n        /* \"#utility.yul\":17113:17117   */\n      0x7f\n        /* \"#utility.yul\":17105:17111   */\n      dup3\n        /* \"#utility.yul\":17101:17118   */\n      and\n        /* \"#utility.yul\":17091:17118   */\n      swap2\n      pop\n        /* \"#utility.yul\":17047:17128   */\n    tag_433:\n        /* \"#utility.yul\":17175:17177   */\n      0x20\n        /* \"#utility.yul\":17167:17173   */\n      dup3\n        /* \"#utility.yul\":17164:17178   */\n      lt\n        /* \"#utility.yul\":17144:17162   */\n      dup2\n        /* \"#utility.yul\":17141:17179   */\n      eq\n        /* \"#utility.yul\":17138:17222   */\n      iszero\n      tag_434\n      jumpi\n        /* \"#utility.yul\":17194:17212   */\n      tag_435\n      tag_436\n      jump\t// in\n    tag_435:\n        /* \"#utility.yul\":17138:17222   */\n    tag_434:\n        /* \"#utility.yul\":16959:17228   */\n      pop\n        /* \"#utility.yul\":16908:17228   */\n      swap2\n      swap1\n      pop\n      jump\t// out\n        /* \"#utility.yul\":17234:17313   */\n    tag_350:\n        /* \"#utility.yul\":17273:17280   */\n      0x00\n        /* \"#utility.yul\":17302:17307   */\n      dup2\n        /* \"#utility.yul\":17291:17307   */\n      swap1\n      pop\n        /* \"#utility.yul\":17234:17313   */\n      swap2\n      swap1\n      pop\n      jump\t// out\n        /* \"#utility.yul\":17319:17499   */\n    tag_402:\n        /* \"#utility.yul\":17367:17444   */\n      0x4e487b7100000000000000000000000000000000000000000000000000000000\n        /* \"#utility.yul\":17364:17365   */\n      0x00\n        /* \"#utility.yul\":17357:17445   */\n      mstore\n        /* \"#utility.yul\":17464:17468   */\n      0x11\n        /* \"#utility.yul\":17461:17462   */\n      0x04\n        /* \"#utility.yul\":17454:17469   */\n      mstore\n        /* \"#utility.yul\":17488:17492   */\n      0x24\n        /* \"#utility.yul\":17485:17486   */\n      0x00\n        /* \"#utility.yul\":17478:17493   */\n      revert\n        /* \"#utility.yul\":17505:17685   */\n    tag_168:\n        /* \"#utility.yul\":17553:17630   */\n      0x4e487b7100000000000000000000000000000000000000000000000000000000\n        /* \"#utility.yul\":17550:17551   */\n      0x00\n        /* \"#utility.yul\":17543:17631   */\n      mstore\n        /* \"#utility.yul\":17650:17654   */\n      0x21\n        /* \"#utility.yul\":17647:17648   */\n      0x04\n        /* \"#utility.yul\":17640:17655   */\n      mstore\n        /* \"#utility.yul\":17674:17678   */\n      0x24\n        /* \"#utility.yul\":17671:17672   */\n      0x00\n        /* \"#utility.yul\":17664:17679   */\n      revert\n        /* \"#utility.yul\":17691:17871   */\n    tag_436:\n        /* \"#utility.yul\":17739:17816   */\n      0x4e487b7100000000000000000000000000000000000000000000000000000000\n        /* \"#utility.yul\":17736:17737   */\n      0x00\n        /* \"#utility.yul\":17729:17817   */\n      mstore\n        /* \"#utility.yul\":17836:17840   */\n      0x22\n        /* \"#utility.yul\":17833:17834   */\n      0x04\n        /* \"#utility.yul\":17826:17841   */\n      mstore\n        /* \"#utility.yul\":17860:17864   */\n      0x24\n        /* \"#utility.yul\":17857:17858   */\n      0x00\n        /* \"#utility.yul\":17850:17865   */\n      revert\n        /* \"#utility.yul\":18000:18117   */\n    tag_242:\n        /* \"#utility.yul\":18109:18110   */\n      0x00\n        /* \"#utility.yul\":18106:18107   */\n      dup1\n        /* \"#utility.yul\":18099:18111   */\n      revert\n        /* \"#utility.yul\":18123:18225   */\n    tag_285:\n        /* \"#utility.yul\":18164:18170   */\n      0x00\n        /* \"#utility.yul\":18215:18217   */\n      0x1f\n        /* \"#utility.yul\":18211:18218   */\n      not\n        /* \"#utility.yul\":18206:18208   */\n      0x1f\n        /* \"#utility.yul\":18199:18204   */\n      dup4\n        /* \"#utility.yul\":18195:18209   */\n      add\n        /* \"#utility.yul\":18191:18219   */\n      and\n        /* \"#utility.yul\":18181:18219   */\n      swap1\n      pop\n        /* \"#utility.yul\":18123:18225   */\n      swap2\n      swap1\n      pop\n      jump\t// out\n        /* \"#utility.yul\":18231:18466   */\n    tag_296:\n        /* \"#utility.yul\":18371:18405   */\n      0x546f6b656e2076616c75652069732067726561746572207468616e2074686520\n        /* \"#utility.yul\":18367:18368   */\n      0x00\n        /* \"#utility.yul\":18359:18365   */\n      dup3\n        /* \"#utility.yul\":18355:18369   */\n      add\n        /* \"#utility.yul\":18348:18406   */\n      mstore\n        /* \"#utility.yul\":18440:18458   */\n      0x617070726f7665642062616c616e636500000000000000000000000000000000\n        /* \"#utility.yul\":18435:18437   */\n      0x20\n        /* \"#utility.yul\":18427:18433   */\n      dup3\n        /* \"#utility.yul\":18423:18438   */\n      add\n        /* \"#utility.yul\":18416:18459   */\n      mstore\n        /* \"#utility.yul\":18231:18466   */\n      pop\n      jump\t// out\n        /* \"#utility.yul\":18472:18693   */\n    tag_301:\n        /* \"#utility.yul\":18612:18646   */\n      0x546f6b656e2076616c7565206d7573742062652067726561746572207468616e\n        /* \"#utility.yul\":18608:18609   */\n      0x00\n        /* \"#utility.yul\":18600:18606   */\n      dup3\n        /* \"#utility.yul\":18596:18610   */\n      add\n        /* \"#utility.yul\":18589:18647   */\n      mstore\n        /* \"#utility.yul\":18681:18685   */\n      0x2030000000000000000000000000000000000000000000000000000000000000\n        /* \"#utility.yul\":18676:18678   */\n      0x20\n        /* \"#utility.yul\":18668:18674   */\n      dup3\n        /* \"#utility.yul\":18664:18679   */\n      add\n        /* \"#utility.yul\":18657:18686   */\n      mstore\n        /* \"#utility.yul\":18472:18693   */\n      pop\n      jump\t// out\n        /* \"#utility.yul\":18699:18881   */\n    tag_306:\n        /* \"#utility.yul\":18839:18873   */\n      0x416d6f756e74206d7573742062652067726561746572207468616e207a65726f\n        /* \"#utility.yul\":18835:18836   */\n      0x00\n        /* \"#utility.yul\":18827:18833   */\n      dup3\n        /* \"#utility.yul\":18823:18837   */\n      add\n        /* \"#utility.yul\":18816:18874   */\n      mstore\n        /* \"#utility.yul\":18699:18881   */\n      pop\n      jump\t// out\n        /* \"#utility.yul\":18887:19068   */\n    tag_311:\n        /* \"#utility.yul\":19027:19060   */\n      0x416d6f756e742063616e6e6f74206e6f74206265206c6f776572207468616e00\n        /* \"#utility.yul\":19023:19024   */\n      0x00\n        /* \"#utility.yul\":19015:19021   */\n      dup3\n        /* \"#utility.yul\":19011:19025   */\n      add\n        /* \"#utility.yul\":19004:19061   */\n      mstore\n        /* \"#utility.yul\":18887:19068   */\n      pop\n      jump\t// out\n        /* \"#utility.yul\":19074:19295   */\n    tag_316:\n        /* \"#utility.yul\":19214:19248   */\n      0x4163636573732064656e6965642c20796f75206165206e6f7420616e2061646d\n        /* \"#utility.yul\":19210:19211   */\n      0x00\n        /* \"#utility.yul\":19202:19208   */\n      dup3\n        /* \"#utility.yul\":19198:19212   */\n      add\n        /* \"#utility.yul\":19191:19249   */\n      mstore\n        /* \"#utility.yul\":19283:19287   */\n      0x696e000000000000000000000000000000000000000000000000000000000000\n        /* \"#utility.yul\":19278:19280   */\n      0x20\n        /* \"#utility.yul\":19270:19276   */\n      dup3\n        /* \"#utility.yul\":19266:19281   */\n      add\n        /* \"#utility.yul\":19259:19288   */\n      mstore\n        /* \"#utility.yul\":19074:19295   */\n      pop\n      jump\t// out\n        /* \"#utility.yul\":19301:19536   */\n    tag_321:\n        /* \"#utility.yul\":19441:19475   */\n      0x546f6b656e2076616c75652069732067726561746572207468616e20796f7572\n        /* \"#utility.yul\":19437:19438   */\n      0x00\n        /* \"#utility.yul\":19429:19435   */\n      dup3\n        /* \"#utility.yul\":19425:19439   */\n      add\n        /* \"#utility.yul\":19418:19476   */\n      mstore\n        /* \"#utility.yul\":19510:19528   */\n      0x2063757272656e7420686f6c64696e6700000000000000000000000000000000\n        /* \"#utility.yul\":19505:19507   */\n      0x20\n        /* \"#utility.yul\":19497:19503   */\n      dup3\n        /* \"#utility.yul\":19493:19508   */\n      add\n        /* \"#utility.yul\":19486:19529   */\n      mstore\n        /* \"#utility.yul\":19301:19536   */\n      pop\n      jump\t// out\n        /* \"#utility.yul\":19542:19777   */\n    tag_326:\n        /* \"#utility.yul\":19682:19716   */\n      0x546865206d6178696d756d20616d6f756e7420746f2062652072616973656420\n        /* \"#utility.yul\":19678:19679   */\n      0x00\n        /* \"#utility.yul\":19670:19676   */\n      dup3\n        /* \"#utility.yul\":19666:19680   */\n      add\n        /* \"#utility.yul\":19659:19717   */\n      mstore\n        /* \"#utility.yul\":19751:19769   */\n      0x686173206265656e207265616368656400000000000000000000000000000000\n        /* \"#utility.yul\":19746:19748   */\n      0x20\n        /* \"#utility.yul\":19738:19744   */\n      dup3\n        /* \"#utility.yul\":19734:19749   */\n      add\n        /* \"#utility.yul\":19727:19770   */\n      mstore\n        /* \"#utility.yul\":19542:19777   */\n      pop\n      jump\t// out\n        /* \"#utility.yul\":19783:20003   */\n    tag_331:\n        /* \"#utility.yul\":19923:19957   */\n      0x416d6f756e742063616e6e6f74206e6f74206265206869676768657220746861\n        /* \"#utility.yul\":19919:19920   */\n      0x00\n        /* \"#utility.yul\":19911:19917   */\n      dup3\n        /* \"#utility.yul\":19907:19921   */\n      add\n        /* \"#utility.yul\":19900:19958   */\n      mstore\n        /* \"#utility.yul\":19992:19995   */\n      0x6e00000000000000000000000000000000000000000000000000000000000000\n        /* \"#utility.yul\":19987:19989   */\n      0x20\n        /* \"#utility.yul\":19979:19985   */\n      dup3\n        /* \"#utility.yul\":19975:19990   */\n      add\n        /* \"#utility.yul\":19968:19996   */\n      mstore\n        /* \"#utility.yul\":19783:20003   */\n      pop\n      jump\t// out\n        /* \"#utility.yul\":20009:20187   */\n    tag_336:\n        /* \"#utility.yul\":20149:20179   */\n      0x496e73756666696369656e74204163636f756e742042616c616e636500000000\n        /* \"#utility.yul\":20145:20146   */\n      0x00\n        /* \"#utility.yul\":20137:20143   */\n      dup3\n        /* \"#utility.yul\":20133:20147   */\n      add\n        /* \"#utility.yul\":20126:20180   */\n      mstore\n        /* \"#utility.yul\":20009:20187   */\n      pop\n      jump\t// out\n        /* \"#utility.yul\":20193:20361   */\n    tag_341:\n        /* \"#utility.yul\":20333:20353   */\n      0x496e737566696369656e742042616c6e63650000000000000000000000000000\n        /* \"#utility.yul\":20329:20330   */\n      0x00\n        /* \"#utility.yul\":20321:20327   */\n      dup3\n        /* \"#utility.yul\":20317:20331   */\n      add\n        /* \"#utility.yul\":20310:20354   */\n      mstore\n        /* \"#utility.yul\":20193:20361   */\n      pop\n      jump\t// out\n        /* \"#utility.yul\":20367:20481   */\n    tag_422:\n        /* \"#utility.yul\":20449:20450   */\n      0x05\n        /* \"#utility.yul\":20442:20447   */\n      dup2\n        /* \"#utility.yul\":20439:20451   */\n      lt\n        /* \"#utility.yul\":20429:20475   */\n      tag_456\n      jumpi\n        /* \"#utility.yul\":20455:20473   */\n      tag_457\n      tag_168\n      jump\t// in\n    tag_457:\n        /* \"#utility.yul\":20429:20475   */\n    tag_456:\n        /* \"#utility.yul\":20367:20481   */\n      pop\n      jump\t// out\n        /* \"#utility.yul\":20487:20609   */\n    tag_234:\n        /* \"#utility.yul\":20560:20584   */\n      tag_459\n        /* \"#utility.yul\":20578:20583   */\n      dup2\n        /* \"#utility.yul\":20560:20584   */\n      tag_267\n      jump\t// in\n    tag_459:\n        /* \"#utility.yul\":20553:20558   */\n      dup2\n        /* \"#utility.yul\":20550:20585   */\n      eq\n        /* \"#utility.yul\":20540:20603   */\n      tag_460\n      jumpi\n        /* \"#utility.yul\":20599:20600   */\n      0x00\n        /* \"#utility.yul\":20596:20597   */\n      dup1\n        /* \"#utility.yul\":20589:20601   */\n      revert\n        /* \"#utility.yul\":20540:20603   */\n    tag_460:\n        /* \"#utility.yul\":20487:20609   */\n      pop\n      jump\t// out\n        /* \"#utility.yul\":20615:20737   */\n    tag_238:\n        /* \"#utility.yul\":20688:20712   */\n      tag_462\n        /* \"#utility.yul\":20706:20711   */\n      dup2\n        /* \"#utility.yul\":20688:20712   */\n      tag_345\n      jump\t// in\n    tag_462:\n        /* \"#utility.yul\":20681:20686   */\n      dup2\n        /* \"#utility.yul\":20678:20713   */\n      eq\n        /* \"#utility.yul\":20668:20731   */\n      tag_463\n      jumpi\n        /* \"#utility.yul\":20727:20728   */\n      0x00\n        /* \"#utility.yul\":20724:20725   */\n      dup1\n        /* \"#utility.yul\":20717:20729   */\n      revert\n        /* \"#utility.yul\":20668:20731   */\n    tag_463:\n        /* \"#utility.yul\":20615:20737   */\n      pop\n      jump\t// out\n\n    auxdata: 0xa264697066735822122056448d8de8b2a2cbdc8f6ca371d827500d79be91f21d08cae9fd28ccb0fa024c64736f6c63430008070033\n}\n",
				"bytecode": {
					"linkReferences": {},
					"object": "60806040526040518060400160405280600681526020017f5a494c4c4158000000000000000000000000000000000000000000000000000081525060009080519060200190620000519291906200028c565b506040518060400160405280600381526020017f5a4c5a0000000000000000000000000000000000000000000000000000000000815250600190805190602001906200009f9291906200028c565b50600060025566038d7ea4c68000600855674563918244f40000600a5542600b5567016345785d8a0000600d55670de0b6b3a7640000600e55348015620000e557600080fd5b506040516200243f3803806200243f83398181016040528101906200010b91906200036a565b620f424060048190555033600360006101000a81548173ffffffffffffffffffffffffffffffffffffffff021916908373ffffffffffffffffffffffffffffffffffffffff16021790555060045460056000600360009054906101000a900473ffffffffffffffffffffffffffffffffffffffff1673ffffffffffffffffffffffffffffffffffffffff1673ffffffffffffffffffffffffffffffffffffffff168152602001908152602001600020819055506000600f60006101000a81548160ff02191690836004811115620001e757620001e6620004b1565b5b021790555033600760006101000a81548173ffffffffffffffffffffffffffffffffffffffff021916908373ffffffffffffffffffffffffffffffffffffffff16021790555081600b546200023d9190620003b1565b600c8190555080600f60016101000a81548173ffffffffffffffffffffffffffffffffffffffff021916908373ffffffffffffffffffffffffffffffffffffffff160217905550505062000548565b8280546200029a906200044c565b90600052602060002090601f016020900481019282620002be57600085556200030a565b82601f10620002d957805160ff19168380011785556200030a565b828001600101855582156200030a579182015b8281111562000309578251825591602001919060010190620002ec565b5b5090506200031991906200031d565b5090565b5b80821115620003385760008160009055506001016200031e565b5090565b6000815190506200034d8162000514565b92915050565b60008151905062000364816200052e565b92915050565b600080604083850312156200038457620003836200050f565b5b6000620003948582860162000353565b9250506020620003a7858286016200033c565b9150509250929050565b6000620003be8262000442565b9150620003cb8362000442565b9250827fffffffffffffffffffffffffffffffffffffffffffffffffffffffffffffffff0382111562000403576200040262000482565b5b828201905092915050565b60006200041b8262000422565b9050919050565b600073ffffffffffffffffffffffffffffffffffffffff82169050919050565b6000819050919050565b600060028204905060018216806200046557607f821691505b602082108114156200047c576200047b620004e0565b5b50919050565b7f4e487b7100000000000000000000000000000000000000000000000000000000600052601160045260246000fd5b7f4e487b7100000000000000000000000000000000000000000000000000000000600052602160045260246000fd5b7f4e487b7100000000000000000000000000000000000000000000000000000000600052602260045260246000fd5b600080fd5b6200051f816200040e565b81146200052b57600080fd5b50565b620005398162000442565b81146200054557600080fd5b50565b611ee780620005586000396000f3fe6080604052600436106101405760003560e01c80635c658165116100b6578063bb0c82981161006f578063bb0c82981461048c578063c59ee1dc146104b7578063dd62ed3e146104e2578063e8b5e51f1461051f578063f851a4401461053d578063fb86a4041461056857610140565b80635c6581651461035457806370a082311461039157806378e97925146103ce57806395d89b41146103f9578063a9059cbb14610424578063a9bcea611461046157610140565b806328f833b71161010857806328f833b7146102525780632942b61a1461027d578063313ce567146102a85780633197cbb6146102d357806344f38756146102fe5780634d853ee51461032957610140565b806306fdde0314610145578063095ea7b31461017057806318160ddd146101ad57806323b872dd146101d857806327e235e314610215575b600080fd5b34801561015157600080fd5b5061015a610593565b6040516101679190611818565b60405180910390f35b34801561017c57600080fd5b506101976004803603810190610192919061149b565b610621565b6040516101a491906117e2565b60405180910390f35b3480156101b957600080fd5b506101c26107d8565b6040516101cf919061193a565b60405180910390f35b3480156101e457600080fd5b506101ff60048036038101906101fa9190611448565b6107de565b60405161020c91906117e2565b60405180910390f35b34801561022157600080fd5b5061023c600480360381019061023791906113db565b610b13565b604051610249919061193a565b60405180910390f35b34801561025e57600080fd5b50610267610b2b565b6040516102749190611790565b60405180910390f35b34801561028957600080fd5b50610292610b51565b60405161029f91906117fd565b60405180910390f35b3480156102b457600080fd5b506102bd610bda565b6040516102ca919061193a565b60405180910390f35b3480156102df57600080fd5b506102e8610be0565b6040516102f5919061193a565b60405180910390f35b34801561030a57600080fd5b50610313610be6565b60405161032091906117fd565b60405180910390f35b34801561033557600080fd5b5061033e610bf9565b60405161034b9190611775565b60405180910390f35b34801561036057600080fd5b5061037b60048036038101906103769190611408565b610c1f565b604051610388919061193a565b60405180910390f35b34801561039d57600080fd5b506103b860048036038101906103b391906113db565b610c44565b6040516103c5919061193a565b60405180910390f35b3480156103da57600080fd5b506103e3610c8d565b6040516103f0919061193a565b60405180910390f35b34801561040557600080fd5b5061040e610c93565b60405161041b9190611818565b60405180910390f35b34801561043057600080fd5b5061044b6004803603810190610446919061149b565b610d21565b60405161045891906117e2565b60405180910390f35b34801561046d57600080fd5b50610476610ec0565b604051610483919061193a565b60405180910390f35b34801561049857600080fd5b506104a1610ec6565b6040516104ae919061193a565b60405180910390f35b3480156104c357600080fd5b506104cc610ecc565b6040516104d9919061193a565b60405180910390f35b3480156104ee57600080fd5b5061050960048036038101906105049190611408565b610ed2565b604051610516919061193a565b60405180910390f35b610527610f59565b60405161053491906117e2565b60405180910390f35b34801561054957600080fd5b50610552611385565b60405161055f9190611775565b60405180910390f35b34801561057457600080fd5b5061057d6113ab565b60405161058a919061193a565b60405180910390f35b600080546105a090611b12565b80601f01602080910402602001604051908101604052809291908181526020018280546105cc90611b12565b80156106195780601f106105ee57610100808354040283529160200191610619565b820191906000526020600020905b8154815290600101906020018083116105fc57829003601f168201915b505050505081565b600081600560003373ffffffffffffffffffffffffffffffffffffffff1673ffffffffffffffffffffffffffffffffffffffff1681526020019081526020016000205410156106a5576040517f08c379a000000000000000000000000000000000000000000000000000000000815260040161069c906118ba565b60405180910390fd5b600082116106e8576040517f08c379a00000000000000000000000000000000000000000000000000000000081526004016106df9061185a565b60405180910390fd5b81600660003373ffffffffffffffffffffffffffffffffffffffff1673ffffffffffffffffffffffffffffffffffffffff16815260200190815260200160002060008573ffffffffffffffffffffffffffffffffffffffff1673ffffffffffffffffffffffffffffffffffffffff168152602001908152602001600020819055508273ffffffffffffffffffffffffffffffffffffffff163373ffffffffffffffffffffffffffffffffffffffff167f8c5be1e5ebec7d5bd14f71427d1e84f3dd0314c0f7b2291e5b200ac8c7c3b925846040516107c6919061193a565b60405180910390a36001905092915050565b60045481565b600081600660008673ffffffffffffffffffffffffffffffffffffffff1673ffffffffffffffffffffffffffffffffffffffff16815260200190815260200160002060003373ffffffffffffffffffffffffffffffffffffffff1673ffffffffffffffffffffffffffffffffffffffff16815260200190815260200160002054101561089f576040517f08c379a00000000000000000000000000000000000000000000000000000000081526004016108969061183a565b60405180910390fd5b81600560008673ffffffffffffffffffffffffffffffffffffffff1673ffffffffffffffffffffffffffffffffffffffff168152602001908152602001600020541015610921576040517f08c379a00000000000000000000000000000000000000000000000000000000081526004016109189061191a565b60405180910390fd5b60008211610964576040517f08c379a000000000000000000000000000000000000000000000000000000000815260040161095b9061185a565b60405180910390fd5b81600660008673ffffffffffffffffffffffffffffffffffffffff1673ffffffffffffffffffffffffffffffffffffffff16815260200190815260200160002060003373ffffffffffffffffffffffffffffffffffffffff1673ffffffffffffffffffffffffffffffffffffffff16815260200190815260200160002060008282546109f09190611a2c565b9250508190555081600560008673ffffffffffffffffffffffffffffffffffffffff1673ffffffffffffffffffffffffffffffffffffffff1681526020019081526020016000206000828254610a469190611a2c565b9250508190555081600560008573ffffffffffffffffffffffffffffffffffffffff1673ffffffffffffffffffffffffffffffffffffffff1681526020019081526020016000206000828254610a9c919061197c565b925050819055508273ffffffffffffffffffffffffffffffffffffffff168473ffffffffffffffffffffffffffffffffffffffff167fddf252ad1be2c89b69c2b068fc378daa952ba7f163c4a11628f55a4df523b3ef84604051610b00919061193a565b60405180910390a3600190509392505050565b60056020528060005260406000206000915090505481565b600f60019054906101000a900473ffffffffffffffffffffffffffffffffffffffff1681565b600080600480811115610b6757610b66611b7d565b5b600f60009054906101000a900460ff166004811115610b8957610b88611b7d565b5b1415610b985760049050610bd3565b600b54421015610bab5760009050610bd2565b600b544210158015610bbe5750600c5442105b15610bcc5760019050610bd1565b600390505b5b5b8091505090565b60025481565b600c5481565b600f60009054906101000a900460ff1681565b600360009054906101000a900473ffffffffffffffffffffffffffffffffffffffff1681565b6006602052816000526040600020602052806000526040600020600091509150505481565b6000600560008373ffffffffffffffffffffffffffffffffffffffff1673ffffffffffffffffffffffffffffffffffffffff168152602001908152602001600020549050919050565b600b5481565b60018054610ca090611b12565b80601f0160208091040260200160405190810160405280929190818152602001828054610ccc90611b12565b8015610d195780601f10610cee57610100808354040283529160200191610d19565b820191906000526020600020905b815481529060010190602001808311610cfc57829003601f168201915b505050505081565b600081600560003373ffffffffffffffffffffffffffffffffffffffff1673ffffffffffffffffffffffffffffffffffffffff168152602001908152602001600020541015610da5576040517f08c379a0000000000000000000000000000000000000000000000000000000008152600401610d9c906118fa565b60405180910390fd5b81600560008573ffffffffffffffffffffffffffffffffffffffff1673ffffffffffffffffffffffffffffffffffffffff1681526020019081526020016000206000828254610df4919061197c565b9250508190555081600560003373ffffffffffffffffffffffffffffffffffffffff1673ffffffffffffffffffffffffffffffffffffffff1681526020019081526020016000206000828254610e4a9190611a2c565b925050819055508273ffffffffffffffffffffffffffffffffffffffff163373ffffffffffffffffffffffffffffffffffffffff167fddf252ad1be2c89b69c2b068fc378daa952ba7f163c4a11628f55a4df523b3ef84604051610eae919061193a565b60405180910390a36001905092915050565b600e5481565b600d5481565b60095481565b6000600660008473ffffffffffffffffffffffffffffffffffffffff1673ffffffffffffffffffffffffffffffffffffffff16815260200190815260200160002060008373ffffffffffffffffffffffffffffffffffffffff1673ffffffffffffffffffffffffffffffffffffffff16815260200190815260200160002054905092915050565b6000600760009054906101000a900473ffffffffffffffffffffffffffffffffffffffff1673ffffffffffffffffffffffffffffffffffffffff163373ffffffffffffffffffffffffffffffffffffffff1614610feb576040517f08c379a0000000000000000000000000000000000000000000000000000000008152600401610fe29061189a565b60405180910390fd5b610ff3610b51565b600f60006101000a81548160ff0219169083600481111561101757611016611b7d565b5b0217905550600160048111156110305761102f611b7d565b5b600f60009054906101000a900460ff16600481111561105257611051611b7d565b5b14611092576040517f08c379a00000000000000000000000000000000000000000000000000000000081526004016110899061187a565b60405180910390fd5b600034116110d5576040517f08c379a00000000000000000000000000000000000000000000000000000000081526004016110cc9061187a565b60405180910390fd5b6000600d546040516020016110ea9190611729565b60405160208183030381529060405290506000600e54604051602001611110919061174f565b604051602081830303815290604052905060008282604051602001611136929190611705565b6040516020818303038152906040529050600d54341015801561115b5750600e543411155b819061119d576040517f08c379a00000000000000000000000000000000000000000000000000000000081526004016111949190611818565b60405180910390fd5b506000346009546111ae919061197c565b9050600a548111156111f5576040517f08c379a00000000000000000000000000000000000000000000000000000000081526004016111ec906118da565b60405180910390fd5b60006008543461120591906119d2565b905080600560003373ffffffffffffffffffffffffffffffffffffffff1673ffffffffffffffffffffffffffffffffffffffff1681526020019081526020016000206000828254611256919061197c565b925050819055508060056000600360009054906101000a900473ffffffffffffffffffffffffffffffffffffffff1673ffffffffffffffffffffffffffffffffffffffff1673ffffffffffffffffffffffffffffffffffffffff16815260200190815260200160002060008282546112ce9190611a2c565b92505081905550600f60019054906101000a900473ffffffffffffffffffffffffffffffffffffffff1673ffffffffffffffffffffffffffffffffffffffff166108fc349081150290604051600060405180830381858888f1935050505015801561133d573d6000803e3d6000fd5b507f4ae4bd7655e0d350876a23cd90c4227b13db560e34435c6a488150a9c844bf5f333483604051611371939291906117ab565b60405180910390a160019550505050505090565b600760009054906101000a900473ffffffffffffffffffffffffffffffffffffffff1681565b600a5481565b6000813590506113c081611e83565b92915050565b6000813590506113d581611e9a565b92915050565b6000602082840312156113f1576113f0611bdb565b5b60006113ff848285016113b1565b91505092915050565b6000806040838503121561141f5761141e611bdb565b5b600061142d858286016113b1565b925050602061143e858286016113b1565b9150509250929050565b60008060006060848603121561146157611460611bdb565b5b600061146f868287016113b1565b9350506020611480868287016113b1565b9250506040611491868287016113c6565b9150509250925092565b600080604083850312156114b2576114b1611bdb565b5b60006114c0858286016113b1565b92505060206114d1858286016113c6565b9150509250929050565b6114e481611a72565b82525050565b6114f381611a60565b82525050565b61150281611a84565b82525050565b61151181611acd565b82525050565b600061152282611955565b61152c8185611960565b935061153c818560208601611adf565b61154581611be0565b840191505092915050565b600061155b82611955565b6115658185611971565b9350611575818560208601611adf565b80840191505092915050565b600061158e603083611960565b915061159982611bf1565b604082019050919050565b60006115b1602283611960565b91506115bc82611c40565b604082019050919050565b60006115d4602083611960565b91506115df82611c8f565b602082019050919050565b60006115f7601f83611971565b915061160282611cb8565b601f82019050919050565b600061161a602283611960565b915061162582611ce1565b604082019050919050565b600061163d603083611960565b915061164882611d30565b604082019050919050565b6000611660603083611960565b915061166b82611d7f565b604082019050919050565b6000611683602183611971565b915061168e82611dce565b602182019050919050565b60006116a6601c83611960565b91506116b182611e1d565b602082019050919050565b60006116c9601283611960565b91506116d482611e46565b602082019050919050565b6116e881611ac3565b82525050565b6116ff6116fa82611ac3565b611b44565b82525050565b60006117118285611550565b915061171d8284611550565b91508190509392505050565b6000611734826115ea565b915061174082846116ee565b60208201915081905092915050565b600061175a82611676565b915061176682846116ee565b60208201915081905092915050565b600060208201905061178a60008301846114ea565b92915050565b60006020820190506117a560008301846114db565b92915050565b60006060820190506117c060008301866114ea565b6117cd60208301856116df565b6117da60408301846116df565b949350505050565b60006020820190506117f760008301846114f9565b92915050565b60006020820190506118126000830184611508565b92915050565b600060208201905081810360008301526118328184611517565b905092915050565b6000602082019050818103600083015261185381611581565b9050919050565b60006020820190508181036000830152611873816115a4565b9050919050565b60006020820190508181036000830152611893816115c7565b9050919050565b600060208201905081810360008301526118b38161160d565b9050919050565b600060208201905081810360008301526118d381611630565b9050919050565b600060208201905081810360008301526118f381611653565b9050919050565b6000602082019050818103600083015261191381611699565b9050919050565b60006020820190508181036000830152611933816116bc565b9050919050565b600060208201905061194f60008301846116df565b92915050565b600081519050919050565b600082825260208201905092915050565b600081905092915050565b600061198782611ac3565b915061199283611ac3565b9250827fffffffffffffffffffffffffffffffffffffffffffffffffffffffffffffffff038211156119c7576119c6611b4e565b5b828201905092915050565b60006119dd82611ac3565b91506119e883611ac3565b9250817fffffffffffffffffffffffffffffffffffffffffffffffffffffffffffffffff0483118215151615611a2157611a20611b4e565b5b828202905092915050565b6000611a3782611ac3565b9150611a4283611ac3565b925082821015611a5557611a54611b4e565b5b828203905092915050565b6000611a6b82611aa3565b9050919050565b6000611a7d82611aa3565b9050919050565b60008115159050919050565b6000819050611a9e82611e6f565b919050565b600073ffffffffffffffffffffffffffffffffffffffff82169050919050565b6000819050919050565b6000611ad882611a90565b9050919050565b60005b83811015611afd578082015181840152602081019050611ae2565b83811115611b0c576000848401525b50505050565b60006002820490506001821680611b2a57607f821691505b60208210811415611b3e57611b3d611bac565b5b50919050565b6000819050919050565b7f4e487b7100000000000000000000000000000000000000000000000000000000600052601160045260246000fd5b7f4e487b7100000000000000000000000000000000000000000000000000000000600052602160045260246000fd5b7f4e487b7100000000000000000000000000000000000000000000000000000000600052602260045260246000fd5b600080fd5b6000601f19601f8301169050919050565b7f546f6b656e2076616c75652069732067726561746572207468616e207468652060008201527f617070726f7665642062616c616e636500000000000000000000000000000000602082015250565b7f546f6b656e2076616c7565206d7573742062652067726561746572207468616e60008201527f2030000000000000000000000000000000000000000000000000000000000000602082015250565b7f416d6f756e74206d7573742062652067726561746572207468616e207a65726f600082015250565b7f416d6f756e742063616e6e6f74206e6f74206265206c6f776572207468616e00600082015250565b7f4163636573732064656e6965642c20796f75206165206e6f7420616e2061646d60008201527f696e000000000000000000000000000000000000000000000000000000000000602082015250565b7f546f6b656e2076616c75652069732067726561746572207468616e20796f757260008201527f2063757272656e7420686f6c64696e6700000000000000000000000000000000602082015250565b7f546865206d6178696d756d20616d6f756e7420746f206265207261697365642060008201527f686173206265656e207265616368656400000000000000000000000000000000602082015250565b7f416d6f756e742063616e6e6f74206e6f7420626520686967676865722074686160008201527f6e00000000000000000000000000000000000000000000000000000000000000602082015250565b7f496e73756666696369656e74204163636f756e742042616c616e636500000000600082015250565b7f496e737566696369656e742042616c6e63650000000000000000000000000000600082015250565b60058110611e8057611e7f611b7d565b5b50565b611e8c81611a60565b8114611e9757600080fd5b50565b611ea381611ac3565b8114611eae57600080fd5b5056fea264697066735822122056448d8de8b2a2cbdc8f6ca371d827500d79be91f21d08cae9fd28ccb0fa024c64736f6c63430008070033",
					"opcodes": "PUSH1 0x80 PUSH1 0x40 MSTORE PUSH1 0x40 MLOAD DUP1 PUSH1 0x40 ADD PUSH1 0x40 MSTORE DUP1 PUSH1 0x6 DUP2 MSTORE PUSH1 0x20 ADD PUSH32 0x5A494C4C41580000000000000000000000000000000000000000000000000000 DUP2 MSTORE POP PUSH1 0x0 SWAP1 DUP1 MLOAD SWAP1 PUSH1 0x20 ADD SWAP1 PUSH3 0x51 SWAP3 SWAP2 SWAP1 PUSH3 0x28C JUMP JUMPDEST POP PUSH1 0x40 MLOAD DUP1 PUSH1 0x40 ADD PUSH1 0x40 MSTORE DUP1 PUSH1 0x3 DUP2 MSTORE PUSH1 0x20 ADD PUSH32 0x5A4C5A0000000000000000000000000000000000000000000000000000000000 DUP2 MSTORE POP PUSH1 0x1 SWAP1 DUP1 MLOAD SWAP1 PUSH1 0x20 ADD SWAP1 PUSH3 0x9F SWAP3 SWAP2 SWAP1 PUSH3 0x28C JUMP JUMPDEST POP PUSH1 0x0 PUSH1 0x2 SSTORE PUSH7 0x38D7EA4C68000 PUSH1 0x8 SSTORE PUSH8 0x4563918244F40000 PUSH1 0xA SSTORE TIMESTAMP PUSH1 0xB SSTORE PUSH8 0x16345785D8A0000 PUSH1 0xD SSTORE PUSH8 0xDE0B6B3A7640000 PUSH1 0xE SSTORE CALLVALUE DUP1 ISZERO PUSH3 0xE5 JUMPI PUSH1 0x0 DUP1 REVERT JUMPDEST POP PUSH1 0x40 MLOAD PUSH3 0x243F CODESIZE SUB DUP1 PUSH3 0x243F DUP4 CODECOPY DUP2 DUP2 ADD PUSH1 0x40 MSTORE DUP2 ADD SWAP1 PUSH3 0x10B SWAP2 SWAP1 PUSH3 0x36A JUMP JUMPDEST PUSH3 0xF4240 PUSH1 0x4 DUP2 SWAP1 SSTORE POP CALLER PUSH1 0x3 PUSH1 0x0 PUSH2 0x100 EXP DUP2 SLOAD DUP2 PUSH20 0xFFFFFFFFFFFFFFFFFFFFFFFFFFFFFFFFFFFFFFFF MUL NOT AND SWAP1 DUP4 PUSH20 0xFFFFFFFFFFFFFFFFFFFFFFFFFFFFFFFFFFFFFFFF AND MUL OR SWAP1 SSTORE POP PUSH1 0x4 SLOAD PUSH1 0x5 PUSH1 0x0 PUSH1 0x3 PUSH1 0x0 SWAP1 SLOAD SWAP1 PUSH2 0x100 EXP SWAP1 DIV PUSH20 0xFFFFFFFFFFFFFFFFFFFFFFFFFFFFFFFFFFFFFFFF AND PUSH20 0xFFFFFFFFFFFFFFFFFFFFFFFFFFFFFFFFFFFFFFFF AND PUSH20 0xFFFFFFFFFFFFFFFFFFFFFFFFFFFFFFFFFFFFFFFF AND DUP2 MSTORE PUSH1 0x20 ADD SWAP1 DUP2 MSTORE PUSH1 0x20 ADD PUSH1 0x0 KECCAK256 DUP2 SWAP1 SSTORE POP PUSH1 0x0 PUSH1 0xF PUSH1 0x0 PUSH2 0x100 EXP DUP2 SLOAD DUP2 PUSH1 0xFF MUL NOT AND SWAP1 DUP4 PUSH1 0x4 DUP2 GT ISZERO PUSH3 0x1E7 JUMPI PUSH3 0x1E6 PUSH3 0x4B1 JUMP JUMPDEST JUMPDEST MUL OR SWAP1 SSTORE POP CALLER PUSH1 0x7 PUSH1 0x0 PUSH2 0x100 EXP DUP2 SLOAD DUP2 PUSH20 0xFFFFFFFFFFFFFFFFFFFFFFFFFFFFFFFFFFFFFFFF MUL NOT AND SWAP1 DUP4 PUSH20 0xFFFFFFFFFFFFFFFFFFFFFFFFFFFFFFFFFFFFFFFF AND MUL OR SWAP1 SSTORE POP DUP2 PUSH1 0xB SLOAD PUSH3 0x23D SWAP2 SWAP1 PUSH3 0x3B1 JUMP JUMPDEST PUSH1 0xC DUP2 SWAP1 SSTORE POP DUP1 PUSH1 0xF PUSH1 0x1 PUSH2 0x100 EXP DUP2 SLOAD DUP2 PUSH20 0xFFFFFFFFFFFFFFFFFFFFFFFFFFFFFFFFFFFFFFFF MUL NOT AND SWAP1 DUP4 PUSH20 0xFFFFFFFFFFFFFFFFFFFFFFFFFFFFFFFFFFFFFFFF AND MUL OR SWAP1 SSTORE POP POP POP PUSH3 0x548 JUMP JUMPDEST DUP3 DUP1 SLOAD PUSH3 0x29A SWAP1 PUSH3 0x44C JUMP JUMPDEST SWAP1 PUSH1 0x0 MSTORE PUSH1 0x20 PUSH1 0x0 KECCAK256 SWAP1 PUSH1 0x1F ADD PUSH1 0x20 SWAP1 DIV DUP2 ADD SWAP3 DUP3 PUSH3 0x2BE JUMPI PUSH1 0x0 DUP6 SSTORE PUSH3 0x30A JUMP JUMPDEST DUP3 PUSH1 0x1F LT PUSH3 0x2D9 JUMPI DUP1 MLOAD PUSH1 0xFF NOT AND DUP4 DUP1 ADD OR DUP6 SSTORE PUSH3 0x30A JUMP JUMPDEST DUP3 DUP1 ADD PUSH1 0x1 ADD DUP6 SSTORE DUP3 ISZERO PUSH3 0x30A JUMPI SWAP2 DUP3 ADD JUMPDEST DUP3 DUP2 GT ISZERO PUSH3 0x309 JUMPI DUP3 MLOAD DUP3 SSTORE SWAP2 PUSH1 0x20 ADD SWAP2 SWAP1 PUSH1 0x1 ADD SWAP1 PUSH3 0x2EC JUMP JUMPDEST JUMPDEST POP SWAP1 POP PUSH3 0x319 SWAP2 SWAP1 PUSH3 0x31D JUMP JUMPDEST POP SWAP1 JUMP JUMPDEST JUMPDEST DUP1 DUP3 GT ISZERO PUSH3 0x338 JUMPI PUSH1 0x0 DUP2 PUSH1 0x0 SWAP1 SSTORE POP PUSH1 0x1 ADD PUSH3 0x31E JUMP JUMPDEST POP SWAP1 JUMP JUMPDEST PUSH1 0x0 DUP2 MLOAD SWAP1 POP PUSH3 0x34D DUP2 PUSH3 0x514 JUMP JUMPDEST SWAP3 SWAP2 POP POP JUMP JUMPDEST PUSH1 0x0 DUP2 MLOAD SWAP1 POP PUSH3 0x364 DUP2 PUSH3 0x52E JUMP JUMPDEST SWAP3 SWAP2 POP POP JUMP JUMPDEST PUSH1 0x0 DUP1 PUSH1 0x40 DUP4 DUP6 SUB SLT ISZERO PUSH3 0x384 JUMPI PUSH3 0x383 PUSH3 0x50F JUMP JUMPDEST JUMPDEST PUSH1 0x0 PUSH3 0x394 DUP6 DUP3 DUP7 ADD PUSH3 0x353 JUMP JUMPDEST SWAP3 POP POP PUSH1 0x20 PUSH3 0x3A7 DUP6 DUP3 DUP7 ADD PUSH3 0x33C JUMP JUMPDEST SWAP2 POP POP SWAP3 POP SWAP3 SWAP1 POP JUMP JUMPDEST PUSH1 0x0 PUSH3 0x3BE DUP3 PUSH3 0x442 JUMP JUMPDEST SWAP2 POP PUSH3 0x3CB DUP4 PUSH3 0x442 JUMP JUMPDEST SWAP3 POP DUP3 PUSH32 0xFFFFFFFFFFFFFFFFFFFFFFFFFFFFFFFFFFFFFFFFFFFFFFFFFFFFFFFFFFFFFFFF SUB DUP3 GT ISZERO PUSH3 0x403 JUMPI PUSH3 0x402 PUSH3 0x482 JUMP JUMPDEST JUMPDEST DUP3 DUP3 ADD SWAP1 POP SWAP3 SWAP2 POP POP JUMP JUMPDEST PUSH1 0x0 PUSH3 0x41B DUP3 PUSH3 0x422 JUMP JUMPDEST SWAP1 POP SWAP2 SWAP1 POP JUMP JUMPDEST PUSH1 0x0 PUSH20 0xFFFFFFFFFFFFFFFFFFFFFFFFFFFFFFFFFFFFFFFF DUP3 AND SWAP1 POP SWAP2 SWAP1 POP JUMP JUMPDEST PUSH1 0x0 DUP2 SWAP1 POP SWAP2 SWAP1 POP JUMP JUMPDEST PUSH1 0x0 PUSH1 0x2 DUP3 DIV SWAP1 POP PUSH1 0x1 DUP3 AND DUP1 PUSH3 0x465 JUMPI PUSH1 0x7F DUP3 AND SWAP2 POP JUMPDEST PUSH1 0x20 DUP3 LT DUP2 EQ ISZERO PUSH3 0x47C JUMPI PUSH3 0x47B PUSH3 0x4E0 JUMP JUMPDEST JUMPDEST POP SWAP2 SWAP1 POP JUMP JUMPDEST PUSH32 0x4E487B7100000000000000000000000000000000000000000000000000000000 PUSH1 0x0 MSTORE PUSH1 0x11 PUSH1 0x4 MSTORE PUSH1 0x24 PUSH1 0x0 REVERT JUMPDEST PUSH32 0x4E487B7100000000000000000000000000000000000000000000000000000000 PUSH1 0x0 MSTORE PUSH1 0x21 PUSH1 0x4 MSTORE PUSH1 0x24 PUSH1 0x0 REVERT JUMPDEST PUSH32 0x4E487B7100000000000000000000000000000000000000000000000000000000 PUSH1 0x0 MSTORE PUSH1 0x22 PUSH1 0x4 MSTORE PUSH1 0x24 PUSH1 0x0 REVERT JUMPDEST PUSH1 0x0 DUP1 REVERT JUMPDEST PUSH3 0x51F DUP2 PUSH3 0x40E JUMP JUMPDEST DUP2 EQ PUSH3 0x52B JUMPI PUSH1 0x0 DUP1 REVERT JUMPDEST POP JUMP JUMPDEST PUSH3 0x539 DUP2 PUSH3 0x442 JUMP JUMPDEST DUP2 EQ PUSH3 0x545 JUMPI PUSH1 0x0 DUP1 REVERT JUMPDEST POP JUMP JUMPDEST PUSH2 0x1EE7 DUP1 PUSH3 0x558 PUSH1 0x0 CODECOPY PUSH1 0x0 RETURN INVALID PUSH1 0x80 PUSH1 0x40 MSTORE PUSH1 0x4 CALLDATASIZE LT PUSH2 0x140 JUMPI PUSH1 0x0 CALLDATALOAD PUSH1 0xE0 SHR DUP1 PUSH4 0x5C658165 GT PUSH2 0xB6 JUMPI DUP1 PUSH4 0xBB0C8298 GT PUSH2 0x6F JUMPI DUP1 PUSH4 0xBB0C8298 EQ PUSH2 0x48C JUMPI DUP1 PUSH4 0xC59EE1DC EQ PUSH2 0x4B7 JUMPI DUP1 PUSH4 0xDD62ED3E EQ PUSH2 0x4E2 JUMPI DUP1 PUSH4 0xE8B5E51F EQ PUSH2 0x51F JUMPI DUP1 PUSH4 0xF851A440 EQ PUSH2 0x53D JUMPI DUP1 PUSH4 0xFB86A404 EQ PUSH2 0x568 JUMPI PUSH2 0x140 JUMP JUMPDEST DUP1 PUSH4 0x5C658165 EQ PUSH2 0x354 JUMPI DUP1 PUSH4 0x70A08231 EQ PUSH2 0x391 JUMPI DUP1 PUSH4 0x78E97925 EQ PUSH2 0x3CE JUMPI DUP1 PUSH4 0x95D89B41 EQ PUSH2 0x3F9 JUMPI DUP1 PUSH4 0xA9059CBB EQ PUSH2 0x424 JUMPI DUP1 PUSH4 0xA9BCEA61 EQ PUSH2 0x461 JUMPI PUSH2 0x140 JUMP JUMPDEST DUP1 PUSH4 0x28F833B7 GT PUSH2 0x108 JUMPI DUP1 PUSH4 0x28F833B7 EQ PUSH2 0x252 JUMPI DUP1 PUSH4 0x2942B61A EQ PUSH2 0x27D JUMPI DUP1 PUSH4 0x313CE567 EQ PUSH2 0x2A8 JUMPI DUP1 PUSH4 0x3197CBB6 EQ PUSH2 0x2D3 JUMPI DUP1 PUSH4 0x44F38756 EQ PUSH2 0x2FE JUMPI DUP1 PUSH4 0x4D853EE5 EQ PUSH2 0x329 JUMPI PUSH2 0x140 JUMP JUMPDEST DUP1 PUSH4 0x6FDDE03 EQ PUSH2 0x145 JUMPI DUP1 PUSH4 0x95EA7B3 EQ PUSH2 0x170 JUMPI DUP1 PUSH4 0x18160DDD EQ PUSH2 0x1AD JUMPI DUP1 PUSH4 0x23B872DD EQ PUSH2 0x1D8 JUMPI DUP1 PUSH4 0x27E235E3 EQ PUSH2 0x215 JUMPI JUMPDEST PUSH1 0x0 DUP1 REVERT JUMPDEST CALLVALUE DUP1 ISZERO PUSH2 0x151 JUMPI PUSH1 0x0 DUP1 REVERT JUMPDEST POP PUSH2 0x15A PUSH2 0x593 JUMP JUMPDEST PUSH1 0x40 MLOAD PUSH2 0x167 SWAP2 SWAP1 PUSH2 0x1818 JUMP JUMPDEST PUSH1 0x40 MLOAD DUP1 SWAP2 SUB SWAP1 RETURN JUMPDEST CALLVALUE DUP1 ISZERO PUSH2 0x17C JUMPI PUSH1 0x0 DUP1 REVERT JUMPDEST POP PUSH2 0x197 PUSH1 0x4 DUP1 CALLDATASIZE SUB DUP2 ADD SWAP1 PUSH2 0x192 SWAP2 SWAP1 PUSH2 0x149B JUMP JUMPDEST PUSH2 0x621 JUMP JUMPDEST PUSH1 0x40 MLOAD PUSH2 0x1A4 SWAP2 SWAP1 PUSH2 0x17E2 JUMP JUMPDEST PUSH1 0x40 MLOAD DUP1 SWAP2 SUB SWAP1 RETURN JUMPDEST CALLVALUE DUP1 ISZERO PUSH2 0x1B9 JUMPI PUSH1 0x0 DUP1 REVERT JUMPDEST POP PUSH2 0x1C2 PUSH2 0x7D8 JUMP JUMPDEST PUSH1 0x40 MLOAD PUSH2 0x1CF SWAP2 SWAP1 PUSH2 0x193A JUMP JUMPDEST PUSH1 0x40 MLOAD DUP1 SWAP2 SUB SWAP1 RETURN JUMPDEST CALLVALUE DUP1 ISZERO PUSH2 0x1E4 JUMPI PUSH1 0x0 DUP1 REVERT JUMPDEST POP PUSH2 0x1FF PUSH1 0x4 DUP1 CALLDATASIZE SUB DUP2 ADD SWAP1 PUSH2 0x1FA SWAP2 SWAP1 PUSH2 0x1448 JUMP JUMPDEST PUSH2 0x7DE JUMP JUMPDEST PUSH1 0x40 MLOAD PUSH2 0x20C SWAP2 SWAP1 PUSH2 0x17E2 JUMP JUMPDEST PUSH1 0x40 MLOAD DUP1 SWAP2 SUB SWAP1 RETURN JUMPDEST CALLVALUE DUP1 ISZERO PUSH2 0x221 JUMPI PUSH1 0x0 DUP1 REVERT JUMPDEST POP PUSH2 0x23C PUSH1 0x4 DUP1 CALLDATASIZE SUB DUP2 ADD SWAP1 PUSH2 0x237 SWAP2 SWAP1 PUSH2 0x13DB JUMP JUMPDEST PUSH2 0xB13 JUMP JUMPDEST PUSH1 0x40 MLOAD PUSH2 0x249 SWAP2 SWAP1 PUSH2 0x193A JUMP JUMPDEST PUSH1 0x40 MLOAD DUP1 SWAP2 SUB SWAP1 RETURN JUMPDEST CALLVALUE DUP1 ISZERO PUSH2 0x25E JUMPI PUSH1 0x0 DUP1 REVERT JUMPDEST POP PUSH2 0x267 PUSH2 0xB2B JUMP JUMPDEST PUSH1 0x40 MLOAD PUSH2 0x274 SWAP2 SWAP1 PUSH2 0x1790 JUMP JUMPDEST PUSH1 0x40 MLOAD DUP1 SWAP2 SUB SWAP1 RETURN JUMPDEST CALLVALUE DUP1 ISZERO PUSH2 0x289 JUMPI PUSH1 0x0 DUP1 REVERT JUMPDEST POP PUSH2 0x292 PUSH2 0xB51 JUMP JUMPDEST PUSH1 0x40 MLOAD PUSH2 0x29F SWAP2 SWAP1 PUSH2 0x17FD JUMP JUMPDEST PUSH1 0x40 MLOAD DUP1 SWAP2 SUB SWAP1 RETURN JUMPDEST CALLVALUE DUP1 ISZERO PUSH2 0x2B4 JUMPI PUSH1 0x0 DUP1 REVERT JUMPDEST POP PUSH2 0x2BD PUSH2 0xBDA JUMP JUMPDEST PUSH1 0x40 MLOAD PUSH2 0x2CA SWAP2 SWAP1 PUSH2 0x193A JUMP JUMPDEST PUSH1 0x40 MLOAD DUP1 SWAP2 SUB SWAP1 RETURN JUMPDEST CALLVALUE DUP1 ISZERO PUSH2 0x2DF JUMPI PUSH1 0x0 DUP1 REVERT JUMPDEST POP PUSH2 0x2E8 PUSH2 0xBE0 JUMP JUMPDEST PUSH1 0x40 MLOAD PUSH2 0x2F5 SWAP2 SWAP1 PUSH2 0x193A JUMP JUMPDEST PUSH1 0x40 MLOAD DUP1 SWAP2 SUB SWAP1 RETURN JUMPDEST CALLVALUE DUP1 ISZERO PUSH2 0x30A JUMPI PUSH1 0x0 DUP1 REVERT JUMPDEST POP PUSH2 0x313 PUSH2 0xBE6 JUMP JUMPDEST PUSH1 0x40 MLOAD PUSH2 0x320 SWAP2 SWAP1 PUSH2 0x17FD JUMP JUMPDEST PUSH1 0x40 MLOAD DUP1 SWAP2 SUB SWAP1 RETURN JUMPDEST CALLVALUE DUP1 ISZERO PUSH2 0x335 JUMPI PUSH1 0x0 DUP1 REVERT JUMPDEST POP PUSH2 0x33E PUSH2 0xBF9 JUMP JUMPDEST PUSH1 0x40 MLOAD PUSH2 0x34B SWAP2 SWAP1 PUSH2 0x1775 JUMP JUMPDEST PUSH1 0x40 MLOAD DUP1 SWAP2 SUB SWAP1 RETURN JUMPDEST CALLVALUE DUP1 ISZERO PUSH2 0x360 JUMPI PUSH1 0x0 DUP1 REVERT JUMPDEST POP PUSH2 0x37B PUSH1 0x4 DUP1 CALLDATASIZE SUB DUP2 ADD SWAP1 PUSH2 0x376 SWAP2 SWAP1 PUSH2 0x1408 JUMP JUMPDEST PUSH2 0xC1F JUMP JUMPDEST PUSH1 0x40 MLOAD PUSH2 0x388 SWAP2 SWAP1 PUSH2 0x193A JUMP JUMPDEST PUSH1 0x40 MLOAD DUP1 SWAP2 SUB SWAP1 RETURN JUMPDEST CALLVALUE DUP1 ISZERO PUSH2 0x39D JUMPI PUSH1 0x0 DUP1 REVERT JUMPDEST POP PUSH2 0x3B8 PUSH1 0x4 DUP1 CALLDATASIZE SUB DUP2 ADD SWAP1 PUSH2 0x3B3 SWAP2 SWAP1 PUSH2 0x13DB JUMP JUMPDEST PUSH2 0xC44 JUMP JUMPDEST PUSH1 0x40 MLOAD PUSH2 0x3C5 SWAP2 SWAP1 PUSH2 0x193A JUMP JUMPDEST PUSH1 0x40 MLOAD DUP1 SWAP2 SUB SWAP1 RETURN JUMPDEST CALLVALUE DUP1 ISZERO PUSH2 0x3DA JUMPI PUSH1 0x0 DUP1 REVERT JUMPDEST POP PUSH2 0x3E3 PUSH2 0xC8D JUMP JUMPDEST PUSH1 0x40 MLOAD PUSH2 0x3F0 SWAP2 SWAP1 PUSH2 0x193A JUMP JUMPDEST PUSH1 0x40 MLOAD DUP1 SWAP2 SUB SWAP1 RETURN JUMPDEST CALLVALUE DUP1 ISZERO PUSH2 0x405 JUMPI PUSH1 0x0 DUP1 REVERT JUMPDEST POP PUSH2 0x40E PUSH2 0xC93 JUMP JUMPDEST PUSH1 0x40 MLOAD PUSH2 0x41B SWAP2 SWAP1 PUSH2 0x1818 JUMP JUMPDEST PUSH1 0x40 MLOAD DUP1 SWAP2 SUB SWAP1 RETURN JUMPDEST CALLVALUE DUP1 ISZERO PUSH2 0x430 JUMPI PUSH1 0x0 DUP1 REVERT JUMPDEST POP PUSH2 0x44B PUSH1 0x4 DUP1 CALLDATASIZE SUB DUP2 ADD SWAP1 PUSH2 0x446 SWAP2 SWAP1 PUSH2 0x149B JUMP JUMPDEST PUSH2 0xD21 JUMP JUMPDEST PUSH1 0x40 MLOAD PUSH2 0x458 SWAP2 SWAP1 PUSH2 0x17E2 JUMP JUMPDEST PUSH1 0x40 MLOAD DUP1 SWAP2 SUB SWAP1 RETURN JUMPDEST CALLVALUE DUP1 ISZERO PUSH2 0x46D JUMPI PUSH1 0x0 DUP1 REVERT JUMPDEST POP PUSH2 0x476 PUSH2 0xEC0 JUMP JUMPDEST PUSH1 0x40 MLOAD PUSH2 0x483 SWAP2 SWAP1 PUSH2 0x193A JUMP JUMPDEST PUSH1 0x40 MLOAD DUP1 SWAP2 SUB SWAP1 RETURN JUMPDEST CALLVALUE DUP1 ISZERO PUSH2 0x498 JUMPI PUSH1 0x0 DUP1 REVERT JUMPDEST POP PUSH2 0x4A1 PUSH2 0xEC6 JUMP JUMPDEST PUSH1 0x40 MLOAD PUSH2 0x4AE SWAP2 SWAP1 PUSH2 0x193A JUMP JUMPDEST PUSH1 0x40 MLOAD DUP1 SWAP2 SUB SWAP1 RETURN JUMPDEST CALLVALUE DUP1 ISZERO PUSH2 0x4C3 JUMPI PUSH1 0x0 DUP1 REVERT JUMPDEST POP PUSH2 0x4CC PUSH2 0xECC JUMP JUMPDEST PUSH1 0x40 MLOAD PUSH2 0x4D9 SWAP2 SWAP1 PUSH2 0x193A JUMP JUMPDEST PUSH1 0x40 MLOAD DUP1 SWAP2 SUB SWAP1 RETURN JUMPDEST CALLVALUE DUP1 ISZERO PUSH2 0x4EE JUMPI PUSH1 0x0 DUP1 REVERT JUMPDEST POP PUSH2 0x509 PUSH1 0x4 DUP1 CALLDATASIZE SUB DUP2 ADD SWAP1 PUSH2 0x504 SWAP2 SWAP1 PUSH2 0x1408 JUMP JUMPDEST PUSH2 0xED2 JUMP JUMPDEST PUSH1 0x40 MLOAD PUSH2 0x516 SWAP2 SWAP1 PUSH2 0x193A JUMP JUMPDEST PUSH1 0x40 MLOAD DUP1 SWAP2 SUB SWAP1 RETURN JUMPDEST PUSH2 0x527 PUSH2 0xF59 JUMP JUMPDEST PUSH1 0x40 MLOAD PUSH2 0x534 SWAP2 SWAP1 PUSH2 0x17E2 JUMP JUMPDEST PUSH1 0x40 MLOAD DUP1 SWAP2 SUB SWAP1 RETURN JUMPDEST CALLVALUE DUP1 ISZERO PUSH2 0x549 JUMPI PUSH1 0x0 DUP1 REVERT JUMPDEST POP PUSH2 0x552 PUSH2 0x1385 JUMP JUMPDEST PUSH1 0x40 MLOAD PUSH2 0x55F SWAP2 SWAP1 PUSH2 0x1775 JUMP JUMPDEST PUSH1 0x40 MLOAD DUP1 SWAP2 SUB SWAP1 RETURN JUMPDEST CALLVALUE DUP1 ISZERO PUSH2 0x574 JUMPI PUSH1 0x0 DUP1 REVERT JUMPDEST POP PUSH2 0x57D PUSH2 0x13AB JUMP JUMPDEST PUSH1 0x40 MLOAD PUSH2 0x58A SWAP2 SWAP1 PUSH2 0x193A JUMP JUMPDEST PUSH1 0x40 MLOAD DUP1 SWAP2 SUB SWAP1 RETURN JUMPDEST PUSH1 0x0 DUP1 SLOAD PUSH2 0x5A0 SWAP1 PUSH2 0x1B12 JUMP JUMPDEST DUP1 PUSH1 0x1F ADD PUSH1 0x20 DUP1 SWAP2 DIV MUL PUSH1 0x20 ADD PUSH1 0x40 MLOAD SWAP1 DUP2 ADD PUSH1 0x40 MSTORE DUP1 SWAP3 SWAP2 SWAP1 DUP2 DUP2 MSTORE PUSH1 0x20 ADD DUP3 DUP1 SLOAD PUSH2 0x5CC SWAP1 PUSH2 0x1B12 JUMP JUMPDEST DUP1 ISZERO PUSH2 0x619 JUMPI DUP1 PUSH1 0x1F LT PUSH2 0x5EE JUMPI PUSH2 0x100 DUP1 DUP4 SLOAD DIV MUL DUP4 MSTORE SWAP2 PUSH1 0x20 ADD SWAP2 PUSH2 0x619 JUMP JUMPDEST DUP3 ADD SWAP2 SWAP1 PUSH1 0x0 MSTORE PUSH1 0x20 PUSH1 0x0 KECCAK256 SWAP1 JUMPDEST DUP2 SLOAD DUP2 MSTORE SWAP1 PUSH1 0x1 ADD SWAP1 PUSH1 0x20 ADD DUP1 DUP4 GT PUSH2 0x5FC JUMPI DUP3 SWAP1 SUB PUSH1 0x1F AND DUP3 ADD SWAP2 JUMPDEST POP POP POP POP POP DUP2 JUMP JUMPDEST PUSH1 0x0 DUP2 PUSH1 0x5 PUSH1 0x0 CALLER PUSH20 0xFFFFFFFFFFFFFFFFFFFFFFFFFFFFFFFFFFFFFFFF AND PUSH20 0xFFFFFFFFFFFFFFFFFFFFFFFFFFFFFFFFFFFFFFFF AND DUP2 MSTORE PUSH1 0x20 ADD SWAP1 DUP2 MSTORE PUSH1 0x20 ADD PUSH1 0x0 KECCAK256 SLOAD LT ISZERO PUSH2 0x6A5 JUMPI PUSH1 0x40 MLOAD PUSH32 0x8C379A000000000000000000000000000000000000000000000000000000000 DUP2 MSTORE PUSH1 0x4 ADD PUSH2 0x69C SWAP1 PUSH2 0x18BA JUMP JUMPDEST PUSH1 0x40 MLOAD DUP1 SWAP2 SUB SWAP1 REVERT JUMPDEST PUSH1 0x0 DUP3 GT PUSH2 0x6E8 JUMPI PUSH1 0x40 MLOAD PUSH32 0x8C379A000000000000000000000000000000000000000000000000000000000 DUP2 MSTORE PUSH1 0x4 ADD PUSH2 0x6DF SWAP1 PUSH2 0x185A JUMP JUMPDEST PUSH1 0x40 MLOAD DUP1 SWAP2 SUB SWAP1 REVERT JUMPDEST DUP2 PUSH1 0x6 PUSH1 0x0 CALLER PUSH20 0xFFFFFFFFFFFFFFFFFFFFFFFFFFFFFFFFFFFFFFFF AND PUSH20 0xFFFFFFFFFFFFFFFFFFFFFFFFFFFFFFFFFFFFFFFF AND DUP2 MSTORE PUSH1 0x20 ADD SWAP1 DUP2 MSTORE PUSH1 0x20 ADD PUSH1 0x0 KECCAK256 PUSH1 0x0 DUP6 PUSH20 0xFFFFFFFFFFFFFFFFFFFFFFFFFFFFFFFFFFFFFFFF AND PUSH20 0xFFFFFFFFFFFFFFFFFFFFFFFFFFFFFFFFFFFFFFFF AND DUP2 MSTORE PUSH1 0x20 ADD SWAP1 DUP2 MSTORE PUSH1 0x20 ADD PUSH1 0x0 KECCAK256 DUP2 SWAP1 SSTORE POP DUP3 PUSH20 0xFFFFFFFFFFFFFFFFFFFFFFFFFFFFFFFFFFFFFFFF AND CALLER PUSH20 0xFFFFFFFFFFFFFFFFFFFFFFFFFFFFFFFFFFFFFFFF AND PUSH32 0x8C5BE1E5EBEC7D5BD14F71427D1E84F3DD0314C0F7B2291E5B200AC8C7C3B925 DUP5 PUSH1 0x40 MLOAD PUSH2 0x7C6 SWAP2 SWAP1 PUSH2 0x193A JUMP JUMPDEST PUSH1 0x40 MLOAD DUP1 SWAP2 SUB SWAP1 LOG3 PUSH1 0x1 SWAP1 POP SWAP3 SWAP2 POP POP JUMP JUMPDEST PUSH1 0x4 SLOAD DUP2 JUMP JUMPDEST PUSH1 0x0 DUP2 PUSH1 0x6 PUSH1 0x0 DUP7 PUSH20 0xFFFFFFFFFFFFFFFFFFFFFFFFFFFFFFFFFFFFFFFF AND PUSH20 0xFFFFFFFFFFFFFFFFFFFFFFFFFFFFFFFFFFFFFFFF AND DUP2 MSTORE PUSH1 0x20 ADD SWAP1 DUP2 MSTORE PUSH1 0x20 ADD PUSH1 0x0 KECCAK256 PUSH1 0x0 CALLER PUSH20 0xFFFFFFFFFFFFFFFFFFFFFFFFFFFFFFFFFFFFFFFF AND PUSH20 0xFFFFFFFFFFFFFFFFFFFFFFFFFFFFFFFFFFFFFFFF AND DUP2 MSTORE PUSH1 0x20 ADD SWAP1 DUP2 MSTORE PUSH1 0x20 ADD PUSH1 0x0 KECCAK256 SLOAD LT ISZERO PUSH2 0x89F JUMPI PUSH1 0x40 MLOAD PUSH32 0x8C379A000000000000000000000000000000000000000000000000000000000 DUP2 MSTORE PUSH1 0x4 ADD PUSH2 0x896 SWAP1 PUSH2 0x183A JUMP JUMPDEST PUSH1 0x40 MLOAD DUP1 SWAP2 SUB SWAP1 REVERT JUMPDEST DUP2 PUSH1 0x5 PUSH1 0x0 DUP7 PUSH20 0xFFFFFFFFFFFFFFFFFFFFFFFFFFFFFFFFFFFFFFFF AND PUSH20 0xFFFFFFFFFFFFFFFFFFFFFFFFFFFFFFFFFFFFFFFF AND DUP2 MSTORE PUSH1 0x20 ADD SWAP1 DUP2 MSTORE PUSH1 0x20 ADD PUSH1 0x0 KECCAK256 SLOAD LT ISZERO PUSH2 0x921 JUMPI PUSH1 0x40 MLOAD PUSH32 0x8C379A000000000000000000000000000000000000000000000000000000000 DUP2 MSTORE PUSH1 0x4 ADD PUSH2 0x918 SWAP1 PUSH2 0x191A JUMP JUMPDEST PUSH1 0x40 MLOAD DUP1 SWAP2 SUB SWAP1 REVERT JUMPDEST PUSH1 0x0 DUP3 GT PUSH2 0x964 JUMPI PUSH1 0x40 MLOAD PUSH32 0x8C379A000000000000000000000000000000000000000000000000000000000 DUP2 MSTORE PUSH1 0x4 ADD PUSH2 0x95B SWAP1 PUSH2 0x185A JUMP JUMPDEST PUSH1 0x40 MLOAD DUP1 SWAP2 SUB SWAP1 REVERT JUMPDEST DUP2 PUSH1 0x6 PUSH1 0x0 DUP7 PUSH20 0xFFFFFFFFFFFFFFFFFFFFFFFFFFFFFFFFFFFFFFFF AND PUSH20 0xFFFFFFFFFFFFFFFFFFFFFFFFFFFFFFFFFFFFFFFF AND DUP2 MSTORE PUSH1 0x20 ADD SWAP1 DUP2 MSTORE PUSH1 0x20 ADD PUSH1 0x0 KECCAK256 PUSH1 0x0 CALLER PUSH20 0xFFFFFFFFFFFFFFFFFFFFFFFFFFFFFFFFFFFFFFFF AND PUSH20 0xFFFFFFFFFFFFFFFFFFFFFFFFFFFFFFFFFFFFFFFF AND DUP2 MSTORE PUSH1 0x20 ADD SWAP1 DUP2 MSTORE PUSH1 0x20 ADD PUSH1 0x0 KECCAK256 PUSH1 0x0 DUP3 DUP3 SLOAD PUSH2 0x9F0 SWAP2 SWAP1 PUSH2 0x1A2C JUMP JUMPDEST SWAP3 POP POP DUP2 SWAP1 SSTORE POP DUP2 PUSH1 0x5 PUSH1 0x0 DUP7 PUSH20 0xFFFFFFFFFFFFFFFFFFFFFFFFFFFFFFFFFFFFFFFF AND PUSH20 0xFFFFFFFFFFFFFFFFFFFFFFFFFFFFFFFFFFFFFFFF AND DUP2 MSTORE PUSH1 0x20 ADD SWAP1 DUP2 MSTORE PUSH1 0x20 ADD PUSH1 0x0 KECCAK256 PUSH1 0x0 DUP3 DUP3 SLOAD PUSH2 0xA46 SWAP2 SWAP1 PUSH2 0x1A2C JUMP JUMPDEST SWAP3 POP POP DUP2 SWAP1 SSTORE POP DUP2 PUSH1 0x5 PUSH1 0x0 DUP6 PUSH20 0xFFFFFFFFFFFFFFFFFFFFFFFFFFFFFFFFFFFFFFFF AND PUSH20 0xFFFFFFFFFFFFFFFFFFFFFFFFFFFFFFFFFFFFFFFF AND DUP2 MSTORE PUSH1 0x20 ADD SWAP1 DUP2 MSTORE PUSH1 0x20 ADD PUSH1 0x0 KECCAK256 PUSH1 0x0 DUP3 DUP3 SLOAD PUSH2 0xA9C SWAP2 SWAP1 PUSH2 0x197C JUMP JUMPDEST SWAP3 POP POP DUP2 SWAP1 SSTORE POP DUP3 PUSH20 0xFFFFFFFFFFFFFFFFFFFFFFFFFFFFFFFFFFFFFFFF AND DUP5 PUSH20 0xFFFFFFFFFFFFFFFFFFFFFFFFFFFFFFFFFFFFFFFF AND PUSH32 0xDDF252AD1BE2C89B69C2B068FC378DAA952BA7F163C4A11628F55A4DF523B3EF DUP5 PUSH1 0x40 MLOAD PUSH2 0xB00 SWAP2 SWAP1 PUSH2 0x193A JUMP JUMPDEST PUSH1 0x40 MLOAD DUP1 SWAP2 SUB SWAP1 LOG3 PUSH1 0x1 SWAP1 POP SWAP4 SWAP3 POP POP POP JUMP JUMPDEST PUSH1 0x5 PUSH1 0x20 MSTORE DUP1 PUSH1 0x0 MSTORE PUSH1 0x40 PUSH1 0x0 KECCAK256 PUSH1 0x0 SWAP2 POP SWAP1 POP SLOAD DUP2 JUMP JUMPDEST PUSH1 0xF PUSH1 0x1 SWAP1 SLOAD SWAP1 PUSH2 0x100 EXP SWAP1 DIV PUSH20 0xFFFFFFFFFFFFFFFFFFFFFFFFFFFFFFFFFFFFFFFF AND DUP2 JUMP JUMPDEST PUSH1 0x0 DUP1 PUSH1 0x4 DUP1 DUP2 GT ISZERO PUSH2 0xB67 JUMPI PUSH2 0xB66 PUSH2 0x1B7D JUMP JUMPDEST JUMPDEST PUSH1 0xF PUSH1 0x0 SWAP1 SLOAD SWAP1 PUSH2 0x100 EXP SWAP1 DIV PUSH1 0xFF AND PUSH1 0x4 DUP2 GT ISZERO PUSH2 0xB89 JUMPI PUSH2 0xB88 PUSH2 0x1B7D JUMP JUMPDEST JUMPDEST EQ ISZERO PUSH2 0xB98 JUMPI PUSH1 0x4 SWAP1 POP PUSH2 0xBD3 JUMP JUMPDEST PUSH1 0xB SLOAD TIMESTAMP LT ISZERO PUSH2 0xBAB JUMPI PUSH1 0x0 SWAP1 POP PUSH2 0xBD2 JUMP JUMPDEST PUSH1 0xB SLOAD TIMESTAMP LT ISZERO DUP1 ISZERO PUSH2 0xBBE JUMPI POP PUSH1 0xC SLOAD TIMESTAMP LT JUMPDEST ISZERO PUSH2 0xBCC JUMPI PUSH1 0x1 SWAP1 POP PUSH2 0xBD1 JUMP JUMPDEST PUSH1 0x3 SWAP1 POP JUMPDEST JUMPDEST JUMPDEST DUP1 SWAP2 POP POP SWAP1 JUMP JUMPDEST PUSH1 0x2 SLOAD DUP2 JUMP JUMPDEST PUSH1 0xC SLOAD DUP2 JUMP JUMPDEST PUSH1 0xF PUSH1 0x0 SWAP1 SLOAD SWAP1 PUSH2 0x100 EXP SWAP1 DIV PUSH1 0xFF AND DUP2 JUMP JUMPDEST PUSH1 0x3 PUSH1 0x0 SWAP1 SLOAD SWAP1 PUSH2 0x100 EXP SWAP1 DIV PUSH20 0xFFFFFFFFFFFFFFFFFFFFFFFFFFFFFFFFFFFFFFFF AND DUP2 JUMP JUMPDEST PUSH1 0x6 PUSH1 0x20 MSTORE DUP2 PUSH1 0x0 MSTORE PUSH1 0x40 PUSH1 0x0 KECCAK256 PUSH1 0x20 MSTORE DUP1 PUSH1 0x0 MSTORE PUSH1 0x40 PUSH1 0x0 KECCAK256 PUSH1 0x0 SWAP2 POP SWAP2 POP POP SLOAD DUP2 JUMP JUMPDEST PUSH1 0x0 PUSH1 0x5 PUSH1 0x0 DUP4 PUSH20 0xFFFFFFFFFFFFFFFFFFFFFFFFFFFFFFFFFFFFFFFF AND PUSH20 0xFFFFFFFFFFFFFFFFFFFFFFFFFFFFFFFFFFFFFFFF AND DUP2 MSTORE PUSH1 0x20 ADD SWAP1 DUP2 MSTORE PUSH1 0x20 ADD PUSH1 0x0 KECCAK256 SLOAD SWAP1 POP SWAP2 SWAP1 POP JUMP JUMPDEST PUSH1 0xB SLOAD DUP2 JUMP JUMPDEST PUSH1 0x1 DUP1 SLOAD PUSH2 0xCA0 SWAP1 PUSH2 0x1B12 JUMP JUMPDEST DUP1 PUSH1 0x1F ADD PUSH1 0x20 DUP1 SWAP2 DIV MUL PUSH1 0x20 ADD PUSH1 0x40 MLOAD SWAP1 DUP2 ADD PUSH1 0x40 MSTORE DUP1 SWAP3 SWAP2 SWAP1 DUP2 DUP2 MSTORE PUSH1 0x20 ADD DUP3 DUP1 SLOAD PUSH2 0xCCC SWAP1 PUSH2 0x1B12 JUMP JUMPDEST DUP1 ISZERO PUSH2 0xD19 JUMPI DUP1 PUSH1 0x1F LT PUSH2 0xCEE JUMPI PUSH2 0x100 DUP1 DUP4 SLOAD DIV MUL DUP4 MSTORE SWAP2 PUSH1 0x20 ADD SWAP2 PUSH2 0xD19 JUMP JUMPDEST DUP3 ADD SWAP2 SWAP1 PUSH1 0x0 MSTORE PUSH1 0x20 PUSH1 0x0 KECCAK256 SWAP1 JUMPDEST DUP2 SLOAD DUP2 MSTORE SWAP1 PUSH1 0x1 ADD SWAP1 PUSH1 0x20 ADD DUP1 DUP4 GT PUSH2 0xCFC JUMPI DUP3 SWAP1 SUB PUSH1 0x1F AND DUP3 ADD SWAP2 JUMPDEST POP POP POP POP POP DUP2 JUMP JUMPDEST PUSH1 0x0 DUP2 PUSH1 0x5 PUSH1 0x0 CALLER PUSH20 0xFFFFFFFFFFFFFFFFFFFFFFFFFFFFFFFFFFFFFFFF AND PUSH20 0xFFFFFFFFFFFFFFFFFFFFFFFFFFFFFFFFFFFFFFFF AND DUP2 MSTORE PUSH1 0x20 ADD SWAP1 DUP2 MSTORE PUSH1 0x20 ADD PUSH1 0x0 KECCAK256 SLOAD LT ISZERO PUSH2 0xDA5 JUMPI PUSH1 0x40 MLOAD PUSH32 0x8C379A000000000000000000000000000000000000000000000000000000000 DUP2 MSTORE PUSH1 0x4 ADD PUSH2 0xD9C SWAP1 PUSH2 0x18FA JUMP JUMPDEST PUSH1 0x40 MLOAD DUP1 SWAP2 SUB SWAP1 REVERT JUMPDEST DUP2 PUSH1 0x5 PUSH1 0x0 DUP6 PUSH20 0xFFFFFFFFFFFFFFFFFFFFFFFFFFFFFFFFFFFFFFFF AND PUSH20 0xFFFFFFFFFFFFFFFFFFFFFFFFFFFFFFFFFFFFFFFF AND DUP2 MSTORE PUSH1 0x20 ADD SWAP1 DUP2 MSTORE PUSH1 0x20 ADD PUSH1 0x0 KECCAK256 PUSH1 0x0 DUP3 DUP3 SLOAD PUSH2 0xDF4 SWAP2 SWAP1 PUSH2 0x197C JUMP JUMPDEST SWAP3 POP POP DUP2 SWAP1 SSTORE POP DUP2 PUSH1 0x5 PUSH1 0x0 CALLER PUSH20 0xFFFFFFFFFFFFFFFFFFFFFFFFFFFFFFFFFFFFFFFF AND PUSH20 0xFFFFFFFFFFFFFFFFFFFFFFFFFFFFFFFFFFFFFFFF AND DUP2 MSTORE PUSH1 0x20 ADD SWAP1 DUP2 MSTORE PUSH1 0x20 ADD PUSH1 0x0 KECCAK256 PUSH1 0x0 DUP3 DUP3 SLOAD PUSH2 0xE4A SWAP2 SWAP1 PUSH2 0x1A2C JUMP JUMPDEST SWAP3 POP POP DUP2 SWAP1 SSTORE POP DUP3 PUSH20 0xFFFFFFFFFFFFFFFFFFFFFFFFFFFFFFFFFFFFFFFF AND CALLER PUSH20 0xFFFFFFFFFFFFFFFFFFFFFFFFFFFFFFFFFFFFFFFF AND PUSH32 0xDDF252AD1BE2C89B69C2B068FC378DAA952BA7F163C4A11628F55A4DF523B3EF DUP5 PUSH1 0x40 MLOAD PUSH2 0xEAE SWAP2 SWAP1 PUSH2 0x193A JUMP JUMPDEST PUSH1 0x40 MLOAD DUP1 SWAP2 SUB SWAP1 LOG3 PUSH1 0x1 SWAP1 POP SWAP3 SWAP2 POP POP JUMP JUMPDEST PUSH1 0xE SLOAD DUP2 JUMP JUMPDEST PUSH1 0xD SLOAD DUP2 JUMP JUMPDEST PUSH1 0x9 SLOAD DUP2 JUMP JUMPDEST PUSH1 0x0 PUSH1 0x6 PUSH1 0x0 DUP5 PUSH20 0xFFFFFFFFFFFFFFFFFFFFFFFFFFFFFFFFFFFFFFFF AND PUSH20 0xFFFFFFFFFFFFFFFFFFFFFFFFFFFFFFFFFFFFFFFF AND DUP2 MSTORE PUSH1 0x20 ADD SWAP1 DUP2 MSTORE PUSH1 0x20 ADD PUSH1 0x0 KECCAK256 PUSH1 0x0 DUP4 PUSH20 0xFFFFFFFFFFFFFFFFFFFFFFFFFFFFFFFFFFFFFFFF AND PUSH20 0xFFFFFFFFFFFFFFFFFFFFFFFFFFFFFFFFFFFFFFFF AND DUP2 MSTORE PUSH1 0x20 ADD SWAP1 DUP2 MSTORE PUSH1 0x20 ADD PUSH1 0x0 KECCAK256 SLOAD SWAP1 POP SWAP3 SWAP2 POP POP JUMP JUMPDEST PUSH1 0x0 PUSH1 0x7 PUSH1 0x0 SWAP1 SLOAD SWAP1 PUSH2 0x100 EXP SWAP1 DIV PUSH20 0xFFFFFFFFFFFFFFFFFFFFFFFFFFFFFFFFFFFFFFFF AND PUSH20 0xFFFFFFFFFFFFFFFFFFFFFFFFFFFFFFFFFFFFFFFF AND CALLER PUSH20 0xFFFFFFFFFFFFFFFFFFFFFFFFFFFFFFFFFFFFFFFF AND EQ PUSH2 0xFEB JUMPI PUSH1 0x40 MLOAD PUSH32 0x8C379A000000000000000000000000000000000000000000000000000000000 DUP2 MSTORE PUSH1 0x4 ADD PUSH2 0xFE2 SWAP1 PUSH2 0x189A JUMP JUMPDEST PUSH1 0x40 MLOAD DUP1 SWAP2 SUB SWAP1 REVERT JUMPDEST PUSH2 0xFF3 PUSH2 0xB51 JUMP JUMPDEST PUSH1 0xF PUSH1 0x0 PUSH2 0x100 EXP DUP2 SLOAD DUP2 PUSH1 0xFF MUL NOT AND SWAP1 DUP4 PUSH1 0x4 DUP2 GT ISZERO PUSH2 0x1017 JUMPI PUSH2 0x1016 PUSH2 0x1B7D JUMP JUMPDEST JUMPDEST MUL OR SWAP1 SSTORE POP PUSH1 0x1 PUSH1 0x4 DUP2 GT ISZERO PUSH2 0x1030 JUMPI PUSH2 0x102F PUSH2 0x1B7D JUMP JUMPDEST JUMPDEST PUSH1 0xF PUSH1 0x0 SWAP1 SLOAD SWAP1 PUSH2 0x100 EXP SWAP1 DIV PUSH1 0xFF AND PUSH1 0x4 DUP2 GT ISZERO PUSH2 0x1052 JUMPI PUSH2 0x1051 PUSH2 0x1B7D JUMP JUMPDEST JUMPDEST EQ PUSH2 0x1092 JUMPI PUSH1 0x40 MLOAD PUSH32 0x8C379A000000000000000000000000000000000000000000000000000000000 DUP2 MSTORE PUSH1 0x4 ADD PUSH2 0x1089 SWAP1 PUSH2 0x187A JUMP JUMPDEST PUSH1 0x40 MLOAD DUP1 SWAP2 SUB SWAP1 REVERT JUMPDEST PUSH1 0x0 CALLVALUE GT PUSH2 0x10D5 JUMPI PUSH1 0x40 MLOAD PUSH32 0x8C379A000000000000000000000000000000000000000000000000000000000 DUP2 MSTORE PUSH1 0x4 ADD PUSH2 0x10CC SWAP1 PUSH2 0x187A JUMP JUMPDEST PUSH1 0x40 MLOAD DUP1 SWAP2 SUB SWAP1 REVERT JUMPDEST PUSH1 0x0 PUSH1 0xD SLOAD PUSH1 0x40 MLOAD PUSH1 0x20 ADD PUSH2 0x10EA SWAP2 SWAP1 PUSH2 0x1729 JUMP JUMPDEST PUSH1 0x40 MLOAD PUSH1 0x20 DUP2 DUP4 SUB SUB DUP2 MSTORE SWAP1 PUSH1 0x40 MSTORE SWAP1 POP PUSH1 0x0 PUSH1 0xE SLOAD PUSH1 0x40 MLOAD PUSH1 0x20 ADD PUSH2 0x1110 SWAP2 SWAP1 PUSH2 0x174F JUMP JUMPDEST PUSH1 0x40 MLOAD PUSH1 0x20 DUP2 DUP4 SUB SUB DUP2 MSTORE SWAP1 PUSH1 0x40 MSTORE SWAP1 POP PUSH1 0x0 DUP3 DUP3 PUSH1 0x40 MLOAD PUSH1 0x20 ADD PUSH2 0x1136 SWAP3 SWAP2 SWAP1 PUSH2 0x1705 JUMP JUMPDEST PUSH1 0x40 MLOAD PUSH1 0x20 DUP2 DUP4 SUB SUB DUP2 MSTORE SWAP1 PUSH1 0x40 MSTORE SWAP1 POP PUSH1 0xD SLOAD CALLVALUE LT ISZERO DUP1 ISZERO PUSH2 0x115B JUMPI POP PUSH1 0xE SLOAD CALLVALUE GT ISZERO JUMPDEST DUP2 SWAP1 PUSH2 0x119D JUMPI PUSH1 0x40 MLOAD PUSH32 0x8C379A000000000000000000000000000000000000000000000000000000000 DUP2 MSTORE PUSH1 0x4 ADD PUSH2 0x1194 SWAP2 SWAP1 PUSH2 0x1818 JUMP JUMPDEST PUSH1 0x40 MLOAD DUP1 SWAP2 SUB SWAP1 REVERT JUMPDEST POP PUSH1 0x0 CALLVALUE PUSH1 0x9 SLOAD PUSH2 0x11AE SWAP2 SWAP1 PUSH2 0x197C JUMP JUMPDEST SWAP1 POP PUSH1 0xA SLOAD DUP2 GT ISZERO PUSH2 0x11F5 JUMPI PUSH1 0x40 MLOAD PUSH32 0x8C379A000000000000000000000000000000000000000000000000000000000 DUP2 MSTORE PUSH1 0x4 ADD PUSH2 0x11EC SWAP1 PUSH2 0x18DA JUMP JUMPDEST PUSH1 0x40 MLOAD DUP1 SWAP2 SUB SWAP1 REVERT JUMPDEST PUSH1 0x0 PUSH1 0x8 SLOAD CALLVALUE PUSH2 0x1205 SWAP2 SWAP1 PUSH2 0x19D2 JUMP JUMPDEST SWAP1 POP DUP1 PUSH1 0x5 PUSH1 0x0 CALLER PUSH20 0xFFFFFFFFFFFFFFFFFFFFFFFFFFFFFFFFFFFFFFFF AND PUSH20 0xFFFFFFFFFFFFFFFFFFFFFFFFFFFFFFFFFFFFFFFF AND DUP2 MSTORE PUSH1 0x20 ADD SWAP1 DUP2 MSTORE PUSH1 0x20 ADD PUSH1 0x0 KECCAK256 PUSH1 0x0 DUP3 DUP3 SLOAD PUSH2 0x1256 SWAP2 SWAP1 PUSH2 0x197C JUMP JUMPDEST SWAP3 POP POP DUP2 SWAP1 SSTORE POP DUP1 PUSH1 0x5 PUSH1 0x0 PUSH1 0x3 PUSH1 0x0 SWAP1 SLOAD SWAP1 PUSH2 0x100 EXP SWAP1 DIV PUSH20 0xFFFFFFFFFFFFFFFFFFFFFFFFFFFFFFFFFFFFFFFF AND PUSH20 0xFFFFFFFFFFFFFFFFFFFFFFFFFFFFFFFFFFFFFFFF AND PUSH20 0xFFFFFFFFFFFFFFFFFFFFFFFFFFFFFFFFFFFFFFFF AND DUP2 MSTORE PUSH1 0x20 ADD SWAP1 DUP2 MSTORE PUSH1 0x20 ADD PUSH1 0x0 KECCAK256 PUSH1 0x0 DUP3 DUP3 SLOAD PUSH2 0x12CE SWAP2 SWAP1 PUSH2 0x1A2C JUMP JUMPDEST SWAP3 POP POP DUP2 SWAP1 SSTORE POP PUSH1 0xF PUSH1 0x1 SWAP1 SLOAD SWAP1 PUSH2 0x100 EXP SWAP1 DIV PUSH20 0xFFFFFFFFFFFFFFFFFFFFFFFFFFFFFFFFFFFFFFFF AND PUSH20 0xFFFFFFFFFFFFFFFFFFFFFFFFFFFFFFFFFFFFFFFF AND PUSH2 0x8FC CALLVALUE SWAP1 DUP2 ISZERO MUL SWAP1 PUSH1 0x40 MLOAD PUSH1 0x0 PUSH1 0x40 MLOAD DUP1 DUP4 SUB DUP2 DUP6 DUP9 DUP9 CALL SWAP4 POP POP POP POP ISZERO DUP1 ISZERO PUSH2 0x133D JUMPI RETURNDATASIZE PUSH1 0x0 DUP1 RETURNDATACOPY RETURNDATASIZE PUSH1 0x0 REVERT JUMPDEST POP PUSH32 0x4AE4BD7655E0D350876A23CD90C4227B13DB560E34435C6A488150A9C844BF5F CALLER CALLVALUE DUP4 PUSH1 0x40 MLOAD PUSH2 0x1371 SWAP4 SWAP3 SWAP2 SWAP1 PUSH2 0x17AB JUMP JUMPDEST PUSH1 0x40 MLOAD DUP1 SWAP2 SUB SWAP1 LOG1 PUSH1 0x1 SWAP6 POP POP POP POP POP POP SWAP1 JUMP JUMPDEST PUSH1 0x7 PUSH1 0x0 SWAP1 SLOAD SWAP1 PUSH2 0x100 EXP SWAP1 DIV PUSH20 0xFFFFFFFFFFFFFFFFFFFFFFFFFFFFFFFFFFFFFFFF AND DUP2 JUMP JUMPDEST PUSH1 0xA SLOAD DUP2 JUMP JUMPDEST PUSH1 0x0 DUP2 CALLDATALOAD SWAP1 POP PUSH2 0x13C0 DUP2 PUSH2 0x1E83 JUMP JUMPDEST SWAP3 SWAP2 POP POP JUMP JUMPDEST PUSH1 0x0 DUP2 CALLDATALOAD SWAP1 POP PUSH2 0x13D5 DUP2 PUSH2 0x1E9A JUMP JUMPDEST SWAP3 SWAP2 POP POP JUMP JUMPDEST PUSH1 0x0 PUSH1 0x20 DUP3 DUP5 SUB SLT ISZERO PUSH2 0x13F1 JUMPI PUSH2 0x13F0 PUSH2 0x1BDB JUMP JUMPDEST JUMPDEST PUSH1 0x0 PUSH2 0x13FF DUP5 DUP3 DUP6 ADD PUSH2 0x13B1 JUMP JUMPDEST SWAP2 POP POP SWAP3 SWAP2 POP POP JUMP JUMPDEST PUSH1 0x0 DUP1 PUSH1 0x40 DUP4 DUP6 SUB SLT ISZERO PUSH2 0x141F JUMPI PUSH2 0x141E PUSH2 0x1BDB JUMP JUMPDEST JUMPDEST PUSH1 0x0 PUSH2 0x142D DUP6 DUP3 DUP7 ADD PUSH2 0x13B1 JUMP JUMPDEST SWAP3 POP POP PUSH1 0x20 PUSH2 0x143E DUP6 DUP3 DUP7 ADD PUSH2 0x13B1 JUMP JUMPDEST SWAP2 POP POP SWAP3 POP SWAP3 SWAP1 POP JUMP JUMPDEST PUSH1 0x0 DUP1 PUSH1 0x0 PUSH1 0x60 DUP5 DUP7 SUB SLT ISZERO PUSH2 0x1461 JUMPI PUSH2 0x1460 PUSH2 0x1BDB JUMP JUMPDEST JUMPDEST PUSH1 0x0 PUSH2 0x146F DUP7 DUP3 DUP8 ADD PUSH2 0x13B1 JUMP JUMPDEST SWAP4 POP POP PUSH1 0x20 PUSH2 0x1480 DUP7 DUP3 DUP8 ADD PUSH2 0x13B1 JUMP JUMPDEST SWAP3 POP POP PUSH1 0x40 PUSH2 0x1491 DUP7 DUP3 DUP8 ADD PUSH2 0x13C6 JUMP JUMPDEST SWAP2 POP POP SWAP3 POP SWAP3 POP SWAP3 JUMP JUMPDEST PUSH1 0x0 DUP1 PUSH1 0x40 DUP4 DUP6 SUB SLT ISZERO PUSH2 0x14B2 JUMPI PUSH2 0x14B1 PUSH2 0x1BDB JUMP JUMPDEST JUMPDEST PUSH1 0x0 PUSH2 0x14C0 DUP6 DUP3 DUP7 ADD PUSH2 0x13B1 JUMP JUMPDEST SWAP3 POP POP PUSH1 0x20 PUSH2 0x14D1 DUP6 DUP3 DUP7 ADD PUSH2 0x13C6 JUMP JUMPDEST SWAP2 POP POP SWAP3 POP SWAP3 SWAP1 POP JUMP JUMPDEST PUSH2 0x14E4 DUP2 PUSH2 0x1A72 JUMP JUMPDEST DUP3 MSTORE POP POP JUMP JUMPDEST PUSH2 0x14F3 DUP2 PUSH2 0x1A60 JUMP JUMPDEST DUP3 MSTORE POP POP JUMP JUMPDEST PUSH2 0x1502 DUP2 PUSH2 0x1A84 JUMP JUMPDEST DUP3 MSTORE POP POP JUMP JUMPDEST PUSH2 0x1511 DUP2 PUSH2 0x1ACD JUMP JUMPDEST DUP3 MSTORE POP POP JUMP JUMPDEST PUSH1 0x0 PUSH2 0x1522 DUP3 PUSH2 0x1955 JUMP JUMPDEST PUSH2 0x152C DUP2 DUP6 PUSH2 0x1960 JUMP JUMPDEST SWAP4 POP PUSH2 0x153C DUP2 DUP6 PUSH1 0x20 DUP7 ADD PUSH2 0x1ADF JUMP JUMPDEST PUSH2 0x1545 DUP2 PUSH2 0x1BE0 JUMP JUMPDEST DUP5 ADD SWAP2 POP POP SWAP3 SWAP2 POP POP JUMP JUMPDEST PUSH1 0x0 PUSH2 0x155B DUP3 PUSH2 0x1955 JUMP JUMPDEST PUSH2 0x1565 DUP2 DUP6 PUSH2 0x1971 JUMP JUMPDEST SWAP4 POP PUSH2 0x1575 DUP2 DUP6 PUSH1 0x20 DUP7 ADD PUSH2 0x1ADF JUMP JUMPDEST DUP1 DUP5 ADD SWAP2 POP POP SWAP3 SWAP2 POP POP JUMP JUMPDEST PUSH1 0x0 PUSH2 0x158E PUSH1 0x30 DUP4 PUSH2 0x1960 JUMP JUMPDEST SWAP2 POP PUSH2 0x1599 DUP3 PUSH2 0x1BF1 JUMP JUMPDEST PUSH1 0x40 DUP3 ADD SWAP1 POP SWAP2 SWAP1 POP JUMP JUMPDEST PUSH1 0x0 PUSH2 0x15B1 PUSH1 0x22 DUP4 PUSH2 0x1960 JUMP JUMPDEST SWAP2 POP PUSH2 0x15BC DUP3 PUSH2 0x1C40 JUMP JUMPDEST PUSH1 0x40 DUP3 ADD SWAP1 POP SWAP2 SWAP1 POP JUMP JUMPDEST PUSH1 0x0 PUSH2 0x15D4 PUSH1 0x20 DUP4 PUSH2 0x1960 JUMP JUMPDEST SWAP2 POP PUSH2 0x15DF DUP3 PUSH2 0x1C8F JUMP JUMPDEST PUSH1 0x20 DUP3 ADD SWAP1 POP SWAP2 SWAP1 POP JUMP JUMPDEST PUSH1 0x0 PUSH2 0x15F7 PUSH1 0x1F DUP4 PUSH2 0x1971 JUMP JUMPDEST SWAP2 POP PUSH2 0x1602 DUP3 PUSH2 0x1CB8 JUMP JUMPDEST PUSH1 0x1F DUP3 ADD SWAP1 POP SWAP2 SWAP1 POP JUMP JUMPDEST PUSH1 0x0 PUSH2 0x161A PUSH1 0x22 DUP4 PUSH2 0x1960 JUMP JUMPDEST SWAP2 POP PUSH2 0x1625 DUP3 PUSH2 0x1CE1 JUMP JUMPDEST PUSH1 0x40 DUP3 ADD SWAP1 POP SWAP2 SWAP1 POP JUMP JUMPDEST PUSH1 0x0 PUSH2 0x163D PUSH1 0x30 DUP4 PUSH2 0x1960 JUMP JUMPDEST SWAP2 POP PUSH2 0x1648 DUP3 PUSH2 0x1D30 JUMP JUMPDEST PUSH1 0x40 DUP3 ADD SWAP1 POP SWAP2 SWAP1 POP JUMP JUMPDEST PUSH1 0x0 PUSH2 0x1660 PUSH1 0x30 DUP4 PUSH2 0x1960 JUMP JUMPDEST SWAP2 POP PUSH2 0x166B DUP3 PUSH2 0x1D7F JUMP JUMPDEST PUSH1 0x40 DUP3 ADD SWAP1 POP SWAP2 SWAP1 POP JUMP JUMPDEST PUSH1 0x0 PUSH2 0x1683 PUSH1 0x21 DUP4 PUSH2 0x1971 JUMP JUMPDEST SWAP2 POP PUSH2 0x168E DUP3 PUSH2 0x1DCE JUMP JUMPDEST PUSH1 0x21 DUP3 ADD SWAP1 POP SWAP2 SWAP1 POP JUMP JUMPDEST PUSH1 0x0 PUSH2 0x16A6 PUSH1 0x1C DUP4 PUSH2 0x1960 JUMP JUMPDEST SWAP2 POP PUSH2 0x16B1 DUP3 PUSH2 0x1E1D JUMP JUMPDEST PUSH1 0x20 DUP3 ADD SWAP1 POP SWAP2 SWAP1 POP JUMP JUMPDEST PUSH1 0x0 PUSH2 0x16C9 PUSH1 0x12 DUP4 PUSH2 0x1960 JUMP JUMPDEST SWAP2 POP PUSH2 0x16D4 DUP3 PUSH2 0x1E46 JUMP JUMPDEST PUSH1 0x20 DUP3 ADD SWAP1 POP SWAP2 SWAP1 POP JUMP JUMPDEST PUSH2 0x16E8 DUP2 PUSH2 0x1AC3 JUMP JUMPDEST DUP3 MSTORE POP POP JUMP JUMPDEST PUSH2 0x16FF PUSH2 0x16FA DUP3 PUSH2 0x1AC3 JUMP JUMPDEST PUSH2 0x1B44 JUMP JUMPDEST DUP3 MSTORE POP POP JUMP JUMPDEST PUSH1 0x0 PUSH2 0x1711 DUP3 DUP6 PUSH2 0x1550 JUMP JUMPDEST SWAP2 POP PUSH2 0x171D DUP3 DUP5 PUSH2 0x1550 JUMP JUMPDEST SWAP2 POP DUP2 SWAP1 POP SWAP4 SWAP3 POP POP POP JUMP JUMPDEST PUSH1 0x0 PUSH2 0x1734 DUP3 PUSH2 0x15EA JUMP JUMPDEST SWAP2 POP PUSH2 0x1740 DUP3 DUP5 PUSH2 0x16EE JUMP JUMPDEST PUSH1 0x20 DUP3 ADD SWAP2 POP DUP2 SWAP1 POP SWAP3 SWAP2 POP POP JUMP JUMPDEST PUSH1 0x0 PUSH2 0x175A DUP3 PUSH2 0x1676 JUMP JUMPDEST SWAP2 POP PUSH2 0x1766 DUP3 DUP5 PUSH2 0x16EE JUMP JUMPDEST PUSH1 0x20 DUP3 ADD SWAP2 POP DUP2 SWAP1 POP SWAP3 SWAP2 POP POP JUMP JUMPDEST PUSH1 0x0 PUSH1 0x20 DUP3 ADD SWAP1 POP PUSH2 0x178A PUSH1 0x0 DUP4 ADD DUP5 PUSH2 0x14EA JUMP JUMPDEST SWAP3 SWAP2 POP POP JUMP JUMPDEST PUSH1 0x0 PUSH1 0x20 DUP3 ADD SWAP1 POP PUSH2 0x17A5 PUSH1 0x0 DUP4 ADD DUP5 PUSH2 0x14DB JUMP JUMPDEST SWAP3 SWAP2 POP POP JUMP JUMPDEST PUSH1 0x0 PUSH1 0x60 DUP3 ADD SWAP1 POP PUSH2 0x17C0 PUSH1 0x0 DUP4 ADD DUP7 PUSH2 0x14EA JUMP JUMPDEST PUSH2 0x17CD PUSH1 0x20 DUP4 ADD DUP6 PUSH2 0x16DF JUMP JUMPDEST PUSH2 0x17DA PUSH1 0x40 DUP4 ADD DUP5 PUSH2 0x16DF JUMP JUMPDEST SWAP5 SWAP4 POP POP POP POP JUMP JUMPDEST PUSH1 0x0 PUSH1 0x20 DUP3 ADD SWAP1 POP PUSH2 0x17F7 PUSH1 0x0 DUP4 ADD DUP5 PUSH2 0x14F9 JUMP JUMPDEST SWAP3 SWAP2 POP POP JUMP JUMPDEST PUSH1 0x0 PUSH1 0x20 DUP3 ADD SWAP1 POP PUSH2 0x1812 PUSH1 0x0 DUP4 ADD DUP5 PUSH2 0x1508 JUMP JUMPDEST SWAP3 SWAP2 POP POP JUMP JUMPDEST PUSH1 0x0 PUSH1 0x20 DUP3 ADD SWAP1 POP DUP2 DUP2 SUB PUSH1 0x0 DUP4 ADD MSTORE PUSH2 0x1832 DUP2 DUP5 PUSH2 0x1517 JUMP JUMPDEST SWAP1 POP SWAP3 SWAP2 POP POP JUMP JUMPDEST PUSH1 0x0 PUSH1 0x20 DUP3 ADD SWAP1 POP DUP2 DUP2 SUB PUSH1 0x0 DUP4 ADD MSTORE PUSH2 0x1853 DUP2 PUSH2 0x1581 JUMP JUMPDEST SWAP1 POP SWAP2 SWAP1 POP JUMP JUMPDEST PUSH1 0x0 PUSH1 0x20 DUP3 ADD SWAP1 POP DUP2 DUP2 SUB PUSH1 0x0 DUP4 ADD MSTORE PUSH2 0x1873 DUP2 PUSH2 0x15A4 JUMP JUMPDEST SWAP1 POP SWAP2 SWAP1 POP JUMP JUMPDEST PUSH1 0x0 PUSH1 0x20 DUP3 ADD SWAP1 POP DUP2 DUP2 SUB PUSH1 0x0 DUP4 ADD MSTORE PUSH2 0x1893 DUP2 PUSH2 0x15C7 JUMP JUMPDEST SWAP1 POP SWAP2 SWAP1 POP JUMP JUMPDEST PUSH1 0x0 PUSH1 0x20 DUP3 ADD SWAP1 POP DUP2 DUP2 SUB PUSH1 0x0 DUP4 ADD MSTORE PUSH2 0x18B3 DUP2 PUSH2 0x160D JUMP JUMPDEST SWAP1 POP SWAP2 SWAP1 POP JUMP JUMPDEST PUSH1 0x0 PUSH1 0x20 DUP3 ADD SWAP1 POP DUP2 DUP2 SUB PUSH1 0x0 DUP4 ADD MSTORE PUSH2 0x18D3 DUP2 PUSH2 0x1630 JUMP JUMPDEST SWAP1 POP SWAP2 SWAP1 POP JUMP JUMPDEST PUSH1 0x0 PUSH1 0x20 DUP3 ADD SWAP1 POP DUP2 DUP2 SUB PUSH1 0x0 DUP4 ADD MSTORE PUSH2 0x18F3 DUP2 PUSH2 0x1653 JUMP JUMPDEST SWAP1 POP SWAP2 SWAP1 POP JUMP JUMPDEST PUSH1 0x0 PUSH1 0x20 DUP3 ADD SWAP1 POP DUP2 DUP2 SUB PUSH1 0x0 DUP4 ADD MSTORE PUSH2 0x1913 DUP2 PUSH2 0x1699 JUMP JUMPDEST SWAP1 POP SWAP2 SWAP1 POP JUMP JUMPDEST PUSH1 0x0 PUSH1 0x20 DUP3 ADD SWAP1 POP DUP2 DUP2 SUB PUSH1 0x0 DUP4 ADD MSTORE PUSH2 0x1933 DUP2 PUSH2 0x16BC JUMP JUMPDEST SWAP1 POP SWAP2 SWAP1 POP JUMP JUMPDEST PUSH1 0x0 PUSH1 0x20 DUP3 ADD SWAP1 POP PUSH2 0x194F PUSH1 0x0 DUP4 ADD DUP5 PUSH2 0x16DF JUMP JUMPDEST SWAP3 SWAP2 POP POP JUMP JUMPDEST PUSH1 0x0 DUP2 MLOAD SWAP1 POP SWAP2 SWAP1 POP JUMP JUMPDEST PUSH1 0x0 DUP3 DUP3 MSTORE PUSH1 0x20 DUP3 ADD SWAP1 POP SWAP3 SWAP2 POP POP JUMP JUMPDEST PUSH1 0x0 DUP2 SWAP1 POP SWAP3 SWAP2 POP POP JUMP JUMPDEST PUSH1 0x0 PUSH2 0x1987 DUP3 PUSH2 0x1AC3 JUMP JUMPDEST SWAP2 POP PUSH2 0x1992 DUP4 PUSH2 0x1AC3 JUMP JUMPDEST SWAP3 POP DUP3 PUSH32 0xFFFFFFFFFFFFFFFFFFFFFFFFFFFFFFFFFFFFFFFFFFFFFFFFFFFFFFFFFFFFFFFF SUB DUP3 GT ISZERO PUSH2 0x19C7 JUMPI PUSH2 0x19C6 PUSH2 0x1B4E JUMP JUMPDEST JUMPDEST DUP3 DUP3 ADD SWAP1 POP SWAP3 SWAP2 POP POP JUMP JUMPDEST PUSH1 0x0 PUSH2 0x19DD DUP3 PUSH2 0x1AC3 JUMP JUMPDEST SWAP2 POP PUSH2 0x19E8 DUP4 PUSH2 0x1AC3 JUMP JUMPDEST SWAP3 POP DUP2 PUSH32 0xFFFFFFFFFFFFFFFFFFFFFFFFFFFFFFFFFFFFFFFFFFFFFFFFFFFFFFFFFFFFFFFF DIV DUP4 GT DUP3 ISZERO ISZERO AND ISZERO PUSH2 0x1A21 JUMPI PUSH2 0x1A20 PUSH2 0x1B4E JUMP JUMPDEST JUMPDEST DUP3 DUP3 MUL SWAP1 POP SWAP3 SWAP2 POP POP JUMP JUMPDEST PUSH1 0x0 PUSH2 0x1A37 DUP3 PUSH2 0x1AC3 JUMP JUMPDEST SWAP2 POP PUSH2 0x1A42 DUP4 PUSH2 0x1AC3 JUMP JUMPDEST SWAP3 POP DUP3 DUP3 LT ISZERO PUSH2 0x1A55 JUMPI PUSH2 0x1A54 PUSH2 0x1B4E JUMP JUMPDEST JUMPDEST DUP3 DUP3 SUB SWAP1 POP SWAP3 SWAP2 POP POP JUMP JUMPDEST PUSH1 0x0 PUSH2 0x1A6B DUP3 PUSH2 0x1AA3 JUMP JUMPDEST SWAP1 POP SWAP2 SWAP1 POP JUMP JUMPDEST PUSH1 0x0 PUSH2 0x1A7D DUP3 PUSH2 0x1AA3 JUMP JUMPDEST SWAP1 POP SWAP2 SWAP1 POP JUMP JUMPDEST PUSH1 0x0 DUP2 ISZERO ISZERO SWAP1 POP SWAP2 SWAP1 POP JUMP JUMPDEST PUSH1 0x0 DUP2 SWAP1 POP PUSH2 0x1A9E DUP3 PUSH2 0x1E6F JUMP JUMPDEST SWAP2 SWAP1 POP JUMP JUMPDEST PUSH1 0x0 PUSH20 0xFFFFFFFFFFFFFFFFFFFFFFFFFFFFFFFFFFFFFFFF DUP3 AND SWAP1 POP SWAP2 SWAP1 POP JUMP JUMPDEST PUSH1 0x0 DUP2 SWAP1 POP SWAP2 SWAP1 POP JUMP JUMPDEST PUSH1 0x0 PUSH2 0x1AD8 DUP3 PUSH2 0x1A90 JUMP JUMPDEST SWAP1 POP SWAP2 SWAP1 POP JUMP JUMPDEST PUSH1 0x0 JUMPDEST DUP4 DUP2 LT ISZERO PUSH2 0x1AFD JUMPI DUP1 DUP3 ADD MLOAD DUP2 DUP5 ADD MSTORE PUSH1 0x20 DUP2 ADD SWAP1 POP PUSH2 0x1AE2 JUMP JUMPDEST DUP4 DUP2 GT ISZERO PUSH2 0x1B0C JUMPI PUSH1 0x0 DUP5 DUP5 ADD MSTORE JUMPDEST POP POP POP POP JUMP JUMPDEST PUSH1 0x0 PUSH1 0x2 DUP3 DIV SWAP1 POP PUSH1 0x1 DUP3 AND DUP1 PUSH2 0x1B2A JUMPI PUSH1 0x7F DUP3 AND SWAP2 POP JUMPDEST PUSH1 0x20 DUP3 LT DUP2 EQ ISZERO PUSH2 0x1B3E JUMPI PUSH2 0x1B3D PUSH2 0x1BAC JUMP JUMPDEST JUMPDEST POP SWAP2 SWAP1 POP JUMP JUMPDEST PUSH1 0x0 DUP2 SWAP1 POP SWAP2 SWAP1 POP JUMP JUMPDEST PUSH32 0x4E487B7100000000000000000000000000000000000000000000000000000000 PUSH1 0x0 MSTORE PUSH1 0x11 PUSH1 0x4 MSTORE PUSH1 0x24 PUSH1 0x0 REVERT JUMPDEST PUSH32 0x4E487B7100000000000000000000000000000000000000000000000000000000 PUSH1 0x0 MSTORE PUSH1 0x21 PUSH1 0x4 MSTORE PUSH1 0x24 PUSH1 0x0 REVERT JUMPDEST PUSH32 0x4E487B7100000000000000000000000000000000000000000000000000000000 PUSH1 0x0 MSTORE PUSH1 0x22 PUSH1 0x4 MSTORE PUSH1 0x24 PUSH1 0x0 REVERT JUMPDEST PUSH1 0x0 DUP1 REVERT JUMPDEST PUSH1 0x0 PUSH1 0x1F NOT PUSH1 0x1F DUP4 ADD AND SWAP1 POP SWAP2 SWAP1 POP JUMP JUMPDEST PUSH32 0x546F6B656E2076616C75652069732067726561746572207468616E2074686520 PUSH1 0x0 DUP3 ADD MSTORE PUSH32 0x617070726F7665642062616C616E636500000000000000000000000000000000 PUSH1 0x20 DUP3 ADD MSTORE POP JUMP JUMPDEST PUSH32 0x546F6B656E2076616C7565206D7573742062652067726561746572207468616E PUSH1 0x0 DUP3 ADD MSTORE PUSH32 0x2030000000000000000000000000000000000000000000000000000000000000 PUSH1 0x20 DUP3 ADD MSTORE POP JUMP JUMPDEST PUSH32 0x416D6F756E74206D7573742062652067726561746572207468616E207A65726F PUSH1 0x0 DUP3 ADD MSTORE POP JUMP JUMPDEST PUSH32 0x416D6F756E742063616E6E6F74206E6F74206265206C6F776572207468616E00 PUSH1 0x0 DUP3 ADD MSTORE POP JUMP JUMPDEST PUSH32 0x4163636573732064656E6965642C20796F75206165206E6F7420616E2061646D PUSH1 0x0 DUP3 ADD MSTORE PUSH32 0x696E000000000000000000000000000000000000000000000000000000000000 PUSH1 0x20 DUP3 ADD MSTORE POP JUMP JUMPDEST PUSH32 0x546F6B656E2076616C75652069732067726561746572207468616E20796F7572 PUSH1 0x0 DUP3 ADD MSTORE PUSH32 0x2063757272656E7420686F6C64696E6700000000000000000000000000000000 PUSH1 0x20 DUP3 ADD MSTORE POP JUMP JUMPDEST PUSH32 0x546865206D6178696D756D20616D6F756E7420746F2062652072616973656420 PUSH1 0x0 DUP3 ADD MSTORE PUSH32 0x686173206265656E207265616368656400000000000000000000000000000000 PUSH1 0x20 DUP3 ADD MSTORE POP JUMP JUMPDEST PUSH32 0x416D6F756E742063616E6E6F74206E6F74206265206869676768657220746861 PUSH1 0x0 DUP3 ADD MSTORE PUSH32 0x6E00000000000000000000000000000000000000000000000000000000000000 PUSH1 0x20 DUP3 ADD MSTORE POP JUMP JUMPDEST PUSH32 0x496E73756666696369656E74204163636F756E742042616C616E636500000000 PUSH1 0x0 DUP3 ADD MSTORE POP JUMP JUMPDEST PUSH32 0x496E737566696369656E742042616C6E63650000000000000000000000000000 PUSH1 0x0 DUP3 ADD MSTORE POP JUMP JUMPDEST PUSH1 0x5 DUP2 LT PUSH2 0x1E80 JUMPI PUSH2 0x1E7F PUSH2 0x1B7D JUMP JUMPDEST JUMPDEST POP JUMP JUMPDEST PUSH2 0x1E8C DUP2 PUSH2 0x1A60 JUMP JUMPDEST DUP2 EQ PUSH2 0x1E97 JUMPI PUSH1 0x0 DUP1 REVERT JUMPDEST POP JUMP JUMPDEST PUSH2 0x1EA3 DUP2 PUSH2 0x1AC3 JUMP JUMPDEST DUP2 EQ PUSH2 0x1EAE JUMPI PUSH1 0x0 DUP1 REVERT JUMPDEST POP JUMP INVALID LOG2 PUSH5 0x6970667358 0x22 SLT KECCAK256 JUMP DIFFICULTY DUP14 DUP14 0xE8 0xB2 LOG2 0xCB 0xDC DUP16 PUSH13 0xA371D827500D79BE91F21D08CA 0xE9 REVERT 0x28 0xCC 0xB0 STATICCALL MUL 0x4C PUSH5 0x736F6C6343 STOP ADDMOD SMOD STOP CALLER "
				},
				"gasEstimates": {
					"creation": {
						"codeDepositCost": "1582200",
						"executionCost": "infinite",
						"totalCost": "infinite"
					},
					"external": {
						"admin()": "2624",
						"allowance(address,address)": "infinite",
						"allowed(address,address)": "infinite",
						"approve(address,uint256)": "infinite",
						"balanceOf(address)": "2886",
						"balances(address)": "2926",
						"checkIcoState()": "9100",
						"decimals()": "2496",
						"depositAddress()": "2587",
						"endTime()": "2518",
						"founder()": "2647",
						"hardCap()": "2561",
						"icoState()": "2671",
						"invest()": "infinite",
						"maximumAmount()": "2562",
						"minimumAmount()": "2451",
						"name()": "infinite",
						"raisedAmount()": "2473",
						"startTime()": "2496",
						"symbol()": "infinite",
						"totalSupply()": "2497",
						"transfer(address,uint256)": "infinite",
						"transferFrom(address,address,uint256)": "infinite"
					}
				},
				"methodIdentifiers": {
					"admin()": "f851a440",
					"allowance(address,address)": "dd62ed3e",
					"allowed(address,address)": "5c658165",
					"approve(address,uint256)": "095ea7b3",
					"balanceOf(address)": "70a08231",
					"balances(address)": "27e235e3",
					"checkIcoState()": "2942b61a",
					"decimals()": "313ce567",
					"depositAddress()": "28f833b7",
					"endTime()": "3197cbb6",
					"founder()": "4d853ee5",
					"hardCap()": "fb86a404",
					"icoState()": "44f38756",
					"invest()": "e8b5e51f",
					"maximumAmount()": "a9bcea61",
					"minimumAmount()": "bb0c8298",
					"name()": "06fdde03",
					"raisedAmount()": "c59ee1dc",
					"startTime()": "78e97925",
					"symbol()": "95d89b41",
					"totalSupply()": "18160ddd",
					"transfer(address,uint256)": "a9059cbb",
					"transferFrom(address,address,uint256)": "23b872dd"
				}
			},
			"storageLayout": {
				"storage": [
					{
						"astId": 73,
						"contract": "contracts/Erc20token.sol:icoContract",
						"label": "name",
						"offset": 0,
						"slot": "0",
						"type": "t_string_storage"
					},
					{
						"astId": 76,
						"contract": "contracts/Erc20token.sol:icoContract",
						"label": "symbol",
						"offset": 0,
						"slot": "1",
						"type": "t_string_storage"
					},
					{
						"astId": 79,
						"contract": "contracts/Erc20token.sol:icoContract",
						"label": "decimals",
						"offset": 0,
						"slot": "2",
						"type": "t_uint256"
					},
					{
						"astId": 81,
						"contract": "contracts/Erc20token.sol:icoContract",
						"label": "founder",
						"offset": 0,
						"slot": "3",
						"type": "t_address"
					},
					{
						"astId": 84,
						"contract": "contracts/Erc20token.sol:icoContract",
						"label": "totalSupply",
						"offset": 0,
						"slot": "4",
						"type": "t_uint256"
					},
					{
						"astId": 88,
						"contract": "contracts/Erc20token.sol:icoContract",
						"label": "balances",
						"offset": 0,
						"slot": "5",
						"type": "t_mapping(t_address,t_uint256)"
					},
					{
						"astId": 94,
						"contract": "contracts/Erc20token.sol:icoContract",
						"label": "allowed",
						"offset": 0,
						"slot": "6",
						"type": "t_mapping(t_address,t_mapping(t_address,t_uint256))"
					},
					{
						"astId": 307,
						"contract": "contracts/Erc20token.sol:icoContract",
						"label": "admin",
						"offset": 0,
						"slot": "7",
						"type": "t_address"
					},
					{
						"astId": 310,
						"contract": "contracts/Erc20token.sol:icoContract",
						"label": "tokenPrice",
						"offset": 0,
						"slot": "8",
						"type": "t_uint256"
					},
					{
						"astId": 312,
						"contract": "contracts/Erc20token.sol:icoContract",
						"label": "raisedAmount",
						"offset": 0,
						"slot": "9",
						"type": "t_uint256"
					},
					{
						"astId": 315,
						"contract": "contracts/Erc20token.sol:icoContract",
						"label": "hardCap",
						"offset": 0,
						"slot": "10",
						"type": "t_uint256"
					},
					{
						"astId": 325,
						"contract": "contracts/Erc20token.sol:icoContract",
						"label": "startTime",
						"offset": 0,
						"slot": "11",
						"type": "t_uint256"
					},
					{
						"astId": 327,
						"contract": "contracts/Erc20token.sol:icoContract",
						"label": "endTime",
						"offset": 0,
						"slot": "12",
						"type": "t_uint256"
					},
					{
						"astId": 330,
						"contract": "contracts/Erc20token.sol:icoContract",
						"label": "minimumAmount",
						"offset": 0,
						"slot": "13",
						"type": "t_uint256"
					},
					{
						"astId": 333,
						"contract": "contracts/Erc20token.sol:icoContract",
						"label": "maximumAmount",
						"offset": 0,
						"slot": "14",
						"type": "t_uint256"
					},
					{
						"astId": 336,
						"contract": "contracts/Erc20token.sol:icoContract",
						"label": "icoState",
						"offset": 0,
						"slot": "15",
						"type": "t_enum(State)321"
					},
					{
						"astId": 338,
						"contract": "contracts/Erc20token.sol:icoContract",
						"label": "depositAddress",
						"offset": 1,
						"slot": "15",
						"type": "t_address_payable"
					}
				],
				"types": {
					"t_address": {
						"encoding": "inplace",
						"label": "address",
						"numberOfBytes": "20"
					},
					"t_address_payable": {
						"encoding": "inplace",
						"label": "address payable",
						"numberOfBytes": "20"
					},
					"t_enum(State)321": {
						"encoding": "inplace",
						"label": "enum icoContract.State",
						"numberOfBytes": "1"
					},
					"t_mapping(t_address,t_mapping(t_address,t_uint256))": {
						"encoding": "mapping",
						"key": "t_address",
						"label": "mapping(address => mapping(address => uint256))",
						"numberOfBytes": "32",
						"value": "t_mapping(t_address,t_uint256)"
					},
					"t_mapping(t_address,t_uint256)": {
						"encoding": "mapping",
						"key": "t_address",
						"label": "mapping(address => uint256)",
						"numberOfBytes": "32",
						"value": "t_uint256"
					},
					"t_string_storage": {
						"encoding": "bytes",
						"label": "string",
						"numberOfBytes": "32"
					},
					"t_uint256": {
						"encoding": "inplace",
						"label": "uint256",
						"numberOfBytes": "32"
					}
				}
			},
			"userdoc": {
				"kind": "user",
				"methods": {},
				"version": 1
			}
		}
	}
}