{
	"contracts/Visibility.sol": {
		"C": {
			"abi": [
				{
					"inputs": [],
					"name": "contract_a",
					"outputs": [
						{
							"internalType": "contract A",
							"name": "",
							"type": "address"
						}
					],
					"stateMutability": "view",
					"type": "function"
				},
				{
					"inputs": [],
					"name": "xx",
					"outputs": [
						{
							"internalType": "int256",
							"name": "",
							"type": "int256"
						}
					],
					"stateMutability": "view",
					"type": "function"
				}
			],
			"devdoc": {
				"kind": "dev",
				"methods": {},
				"version": 1
			},
			"evm": {
				"assembly": "    /* \"contracts/Visibility.sol\":1234:1423  contract C{\r... */\n  mstore(0x40, 0x80)\n    /* \"contracts/Visibility.sol\":1277:1284  new A() */\n  mload(0x40)\n  tag_1\n  swap1\n  tag_2\n  jump\t// in\ntag_1:\n  mload(0x40)\n  dup1\n  swap2\n  sub\n  swap1\n  0x00\n  create\n  dup1\n  iszero\n  dup1\n  iszero\n  tag_3\n  jumpi\n  returndatasize\n  0x00\n  dup1\n  returndatacopy\n  revert(0x00, returndatasize)\ntag_3:\n  pop\n    /* \"contracts/Visibility.sol\":1255:1284  A public contract_a = new A() */\n  0x00\n  dup1\n  0x0100\n  exp\n  dup2\n  sload\n  dup2\n  0xffffffffffffffffffffffffffffffffffffffff\n  mul\n  not\n  and\n  swap1\n  dup4\n  0xffffffffffffffffffffffffffffffffffffffff\n  and\n  mul\n  or\n  swap1\n  sstore\n  pop\n    /* \"contracts/Visibility.sol\":1311:1321  contract_a */\n  0x00\n  dup1\n  sload\n  swap1\n  0x0100\n  exp\n  swap1\n  div\n  0xffffffffffffffffffffffffffffffffffffffff\n  and\n    /* \"contracts/Visibility.sol\":1311:1324  contract_a.f4 */\n  0xffffffffffffffffffffffffffffffffffffffff\n  and\n  0xc3f90202\n    /* \"contracts/Visibility.sol\":1311:1326  contract_a.f4() */\n  mload(0x40)\n  dup2\n  0xffffffff\n  and\n  0xe0\n  shl\n  dup2\n  mstore\n  0x04\n  add\n  0x20\n  mload(0x40)\n  dup1\n  dup4\n  sub\n  dup2\n  dup7\n  dup1\n  extcodesize\n  iszero\n  dup1\n  iszero\n  tag_4\n  jumpi\n  0x00\n  dup1\n  revert\ntag_4:\n  pop\n  gas\n  staticcall\n  iszero\n  dup1\n  iszero\n  tag_6\n  jumpi\n  returndatasize\n  0x00\n  dup1\n  returndatacopy\n  revert(0x00, returndatasize)\ntag_6:\n  pop\n  pop\n  pop\n  pop\n  mload(0x40)\n  returndatasize\n  not(0x1f)\n  0x1f\n  dup3\n  add\n  and\n  dup3\n  add\n  dup1\n  0x40\n  mstore\n  pop\n  dup2\n  add\n  swap1\n  tag_7\n  swap2\n  swap1\n  tag_8\n  jump\t// in\ntag_7:\n    /* \"contracts/Visibility.sol\":1295:1326  int public xx = contract_a.f4() */\n  0x01\n  sstore\n    /* \"contracts/Visibility.sol\":1234:1423  contract C{\r... */\n  callvalue\n  dup1\n  iszero\n  tag_9\n  jumpi\n  0x00\n  dup1\n  revert\ntag_9:\n  pop\n  jump(tag_10)\ntag_2:\n  dataSize(sub_1)\n  dup1\n  dataOffset(sub_1)\n  dup4\n  codecopy\n  add\n  swap1\n  jump\t// out\n    /* \"#utility.yul\":7:148   */\ntag_12:\n    /* \"#utility.yul\":63:68   */\n  0x00\n    /* \"#utility.yul\":94:100   */\n  dup2\n    /* \"#utility.yul\":88:101   */\n  mload\n    /* \"#utility.yul\":79:101   */\n  swap1\n  pop\n    /* \"#utility.yul\":110:142   */\n  tag_14\n    /* \"#utility.yul\":136:141   */\n  dup2\n    /* \"#utility.yul\":110:142   */\n  tag_15\n  jump\t// in\ntag_14:\n    /* \"#utility.yul\":7:148   */\n  swap3\n  swap2\n  pop\n  pop\n  jump\t// out\n    /* \"#utility.yul\":154:503   */\ntag_8:\n    /* \"#utility.yul\":223:229   */\n  0x00\n    /* \"#utility.yul\":272:274   */\n  0x20\n    /* \"#utility.yul\":260:269   */\n  dup3\n    /* \"#utility.yul\":251:258   */\n  dup5\n    /* \"#utility.yul\":247:270   */\n  sub\n    /* \"#utility.yul\":243:275   */\n  slt\n    /* \"#utility.yul\":240:359   */\n  iszero\n  tag_17\n  jumpi\n    /* \"#utility.yul\":278:357   */\n  tag_18\n  tag_19\n  jump\t// in\ntag_18:\n    /* \"#utility.yul\":240:359   */\ntag_17:\n    /* \"#utility.yul\":398:399   */\n  0x00\n    /* \"#utility.yul\":423:486   */\n  tag_20\n    /* \"#utility.yul\":478:485   */\n  dup5\n    /* \"#utility.yul\":469:475   */\n  dup3\n    /* \"#utility.yul\":458:467   */\n  dup6\n    /* \"#utility.yul\":454:476   */\n  add\n    /* \"#utility.yul\":423:486   */\n  tag_12\n  jump\t// in\ntag_20:\n    /* \"#utility.yul\":413:486   */\n  swap2\n  pop\n    /* \"#utility.yul\":369:496   */\n  pop\n    /* \"#utility.yul\":154:503   */\n  swap3\n  swap2\n  pop\n  pop\n  jump\t// out\n    /* \"#utility.yul\":590:666   */\ntag_23:\n    /* \"#utility.yul\":626:633   */\n  0x00\n    /* \"#utility.yul\":655:660   */\n  dup2\n    /* \"#utility.yul\":644:660   */\n  swap1\n  pop\n    /* \"#utility.yul\":590:666   */\n  swap2\n  swap1\n  pop\n  jump\t// out\n    /* \"#utility.yul\":795:912   */\ntag_19:\n    /* \"#utility.yul\":904:905   */\n  0x00\n    /* \"#utility.yul\":901:902   */\n  dup1\n    /* \"#utility.yul\":894:906   */\n  revert\n    /* \"#utility.yul\":918:1038   */\ntag_15:\n    /* \"#utility.yul\":990:1013   */\n  tag_29\n    /* \"#utility.yul\":1007:1012   */\n  dup2\n    /* \"#utility.yul\":990:1013   */\n  tag_23\n  jump\t// in\ntag_29:\n    /* \"#utility.yul\":983:988   */\n  dup2\n    /* \"#utility.yul\":980:1014   */\n  eq\n    /* \"#utility.yul\":970:1032   */\n  tag_30\n  jumpi\n    /* \"#utility.yul\":1028:1029   */\n  0x00\n    /* \"#utility.yul\":1025:1026   */\n  dup1\n    /* \"#utility.yul\":1018:1030   */\n  revert\n    /* \"#utility.yul\":970:1032   */\ntag_30:\n    /* \"#utility.yul\":918:1038   */\n  pop\n  jump\t// out\n    /* \"contracts/Visibility.sol\":1234:1423  contract C{\r... */\ntag_10:\n  dataSize(sub_0)\n  dup1\n  dataOffset(sub_0)\n  0x00\n  codecopy\n  0x00\n  return\nstop\n\nsub_0: assembly {\n        /* \"contracts/Visibility.sol\":1234:1423  contract C{\r... */\n      mstore(0x40, 0x80)\n      callvalue\n      dup1\n      iszero\n      tag_1\n      jumpi\n      0x00\n      dup1\n      revert\n    tag_1:\n      pop\n      jumpi(tag_2, lt(calldatasize, 0x04))\n      shr(0xe0, calldataload(0x00))\n      dup1\n      0x605b85ad\n      eq\n      tag_3\n      jumpi\n      dup1\n      0xece57b04\n      eq\n      tag_4\n      jumpi\n    tag_2:\n      0x00\n      dup1\n      revert\n        /* \"contracts/Visibility.sol\":1255:1284  A public contract_a = new A() */\n    tag_3:\n      tag_5\n      tag_6\n      jump\t// in\n    tag_5:\n      mload(0x40)\n      tag_7\n      swap2\n      swap1\n      tag_8\n      jump\t// in\n    tag_7:\n      mload(0x40)\n      dup1\n      swap2\n      sub\n      swap1\n      return\n        /* \"contracts/Visibility.sol\":1295:1326  int public xx = contract_a.f4() */\n    tag_4:\n      tag_9\n      tag_10\n      jump\t// in\n    tag_9:\n      mload(0x40)\n      tag_11\n      swap2\n      swap1\n      tag_12\n      jump\t// in\n    tag_11:\n      mload(0x40)\n      dup1\n      swap2\n      sub\n      swap1\n      return\n        /* \"contracts/Visibility.sol\":1255:1284  A public contract_a = new A() */\n    tag_6:\n      0x00\n      dup1\n      sload\n      swap1\n      0x0100\n      exp\n      swap1\n      div\n      0xffffffffffffffffffffffffffffffffffffffff\n      and\n      dup2\n      jump\t// out\n        /* \"contracts/Visibility.sol\":1295:1326  int public xx = contract_a.f4() */\n    tag_10:\n      sload(0x01)\n      dup2\n      jump\t// out\n        /* \"#utility.yul\":7:154   */\n    tag_14:\n        /* \"#utility.yul\":102:147   */\n      tag_16\n        /* \"#utility.yul\":141:146   */\n      dup2\n        /* \"#utility.yul\":102:147   */\n      tag_17\n      jump\t// in\n    tag_16:\n        /* \"#utility.yul\":97:100   */\n      dup3\n        /* \"#utility.yul\":90:148   */\n      mstore\n        /* \"#utility.yul\":7:154   */\n      pop\n      pop\n      jump\t// out\n        /* \"#utility.yul\":160:275   */\n    tag_18:\n        /* \"#utility.yul\":245:268   */\n      tag_20\n        /* \"#utility.yul\":262:267   */\n      dup2\n        /* \"#utility.yul\":245:268   */\n      tag_21\n      jump\t// in\n    tag_20:\n        /* \"#utility.yul\":240:243   */\n      dup3\n        /* \"#utility.yul\":233:269   */\n      mstore\n        /* \"#utility.yul\":160:275   */\n      pop\n      pop\n      jump\t// out\n        /* \"#utility.yul\":281:519   */\n    tag_8:\n        /* \"#utility.yul\":382:386   */\n      0x00\n        /* \"#utility.yul\":420:422   */\n      0x20\n        /* \"#utility.yul\":409:418   */\n      dup3\n        /* \"#utility.yul\":405:423   */\n      add\n        /* \"#utility.yul\":397:423   */\n      swap1\n      pop\n        /* \"#utility.yul\":433:512   */\n      tag_23\n        /* \"#utility.yul\":509:510   */\n      0x00\n        /* \"#utility.yul\":498:507   */\n      dup4\n        /* \"#utility.yul\":494:511   */\n      add\n        /* \"#utility.yul\":485:491   */\n      dup5\n        /* \"#utility.yul\":433:512   */\n      tag_14\n      jump\t// in\n    tag_23:\n        /* \"#utility.yul\":281:519   */\n      swap3\n      swap2\n      pop\n      pop\n      jump\t// out\n        /* \"#utility.yul\":525:743   */\n    tag_12:\n        /* \"#utility.yul\":616:620   */\n      0x00\n        /* \"#utility.yul\":654:656   */\n      0x20\n        /* \"#utility.yul\":643:652   */\n      dup3\n        /* \"#utility.yul\":639:657   */\n      add\n        /* \"#utility.yul\":631:657   */\n      swap1\n      pop\n        /* \"#utility.yul\":667:736   */\n      tag_25\n        /* \"#utility.yul\":733:734   */\n      0x00\n        /* \"#utility.yul\":722:731   */\n      dup4\n        /* \"#utility.yul\":718:735   */\n      add\n        /* \"#utility.yul\":709:715   */\n      dup5\n        /* \"#utility.yul\":667:736   */\n      tag_18\n      jump\t// in\n    tag_25:\n        /* \"#utility.yul\":525:743   */\n      swap3\n      swap2\n      pop\n      pop\n      jump\t// out\n        /* \"#utility.yul\":749:825   */\n    tag_21:\n        /* \"#utility.yul\":785:792   */\n      0x00\n        /* \"#utility.yul\":814:819   */\n      dup2\n        /* \"#utility.yul\":803:819   */\n      swap1\n      pop\n        /* \"#utility.yul\":749:825   */\n      swap2\n      swap1\n      pop\n      jump\t// out\n        /* \"#utility.yul\":831:957   */\n    tag_27:\n        /* \"#utility.yul\":868:875   */\n      0x00\n        /* \"#utility.yul\":908:950   */\n      0xffffffffffffffffffffffffffffffffffffffff\n        /* \"#utility.yul\":901:906   */\n      dup3\n        /* \"#utility.yul\":897:951   */\n      and\n        /* \"#utility.yul\":886:951   */\n      swap1\n      pop\n        /* \"#utility.yul\":831:957   */\n      swap2\n      swap1\n      pop\n      jump\t// out\n        /* \"#utility.yul\":963:1097   */\n    tag_17:\n        /* \"#utility.yul\":1021:1030   */\n      0x00\n        /* \"#utility.yul\":1054:1091   */\n      tag_30\n        /* \"#utility.yul\":1085:1090   */\n      dup3\n        /* \"#utility.yul\":1054:1091   */\n      tag_31\n      jump\t// in\n    tag_30:\n        /* \"#utility.yul\":1041:1091   */\n      swap1\n      pop\n        /* \"#utility.yul\":963:1097   */\n      swap2\n      swap1\n      pop\n      jump\t// out\n        /* \"#utility.yul\":1103:1229   */\n    tag_31:\n        /* \"#utility.yul\":1153:1162   */\n      0x00\n        /* \"#utility.yul\":1186:1223   */\n      tag_33\n        /* \"#utility.yul\":1217:1222   */\n      dup3\n        /* \"#utility.yul\":1186:1223   */\n      tag_34\n      jump\t// in\n    tag_33:\n        /* \"#utility.yul\":1173:1223   */\n      swap1\n      pop\n        /* \"#utility.yul\":1103:1229   */\n      swap2\n      swap1\n      pop\n      jump\t// out\n        /* \"#utility.yul\":1235:1348   */\n    tag_34:\n        /* \"#utility.yul\":1285:1294   */\n      0x00\n        /* \"#utility.yul\":1318:1342   */\n      tag_36\n        /* \"#utility.yul\":1336:1341   */\n      dup3\n        /* \"#utility.yul\":1318:1342   */\n      tag_27\n      jump\t// in\n    tag_36:\n        /* \"#utility.yul\":1305:1342   */\n      swap1\n      pop\n        /* \"#utility.yul\":1235:1348   */\n      swap2\n      swap1\n      pop\n      jump\t// out\n\n    auxdata: 0xa26469706673582212207e4d35c146dc6ed20139cdab3671b4cacd02176d351d1be079885abfc7eba00e64736f6c63430008070033\n}\n\nsub_1: assembly {\n        /* \"contracts/Visibility.sol\":95:1057  contract A{\r... */\n      mstore(0x40, 0x80)\n        /* \"contracts/Visibility.sol\":131:133  10 */\n      0x0a\n        /* \"contracts/Visibility.sol\":116:133  int public x = 10 */\n      0x00\n      sstore\n        /* \"contracts/Visibility.sol\":152:154  20 */\n      0x14\n        /* \"contracts/Visibility.sol\":144:154  int y = 20 */\n      0x01\n      sstore\n        /* \"contracts/Visibility.sol\":95:1057  contract A{\r... */\n      callvalue\n      dup1\n      iszero\n      tag_1\n      jumpi\n      0x00\n      dup1\n      revert\n    tag_1:\n      pop\n      dataSize(sub_0)\n      dup1\n      dataOffset(sub_0)\n      0x00\n      codecopy\n      0x00\n      return\n    stop\n\n    sub_0: assembly {\n            /* \"contracts/Visibility.sol\":95:1057  contract A{\r... */\n          mstore(0x40, 0x80)\n          callvalue\n          dup1\n          iszero\n          tag_1\n          jumpi\n          0x00\n          dup1\n          revert\n        tag_1:\n          pop\n          jumpi(tag_2, lt(calldatasize, 0x04))\n          shr(0xe0, calldataload(0x00))\n          dup1\n          0x0c55699c\n          eq\n          tag_3\n          jumpi\n          dup1\n          0x28d69c6d\n          eq\n          tag_4\n          jumpi\n          dup1\n          0x3c9d377d\n          eq\n          tag_5\n          jumpi\n          dup1\n          0x9942ec6f\n          eq\n          tag_6\n          jumpi\n          dup1\n          0xc3f90202\n          eq\n          tag_7\n          jumpi\n        tag_2:\n          0x00\n          dup1\n          revert\n            /* \"contracts/Visibility.sol\":116:133  int public x = 10 */\n        tag_3:\n          tag_8\n          tag_9\n          jump\t// in\n        tag_8:\n          mload(0x40)\n          tag_10\n          swap2\n          swap1\n          tag_11\n          jump\t// in\n        tag_10:\n          mload(0x40)\n          dup1\n          swap2\n          sub\n          swap1\n          return\n            /* \"contracts/Visibility.sol\":198:274  function get_y() public view returns(int){\r... */\n        tag_4:\n          tag_12\n          tag_13\n          jump\t// in\n        tag_12:\n          mload(0x40)\n          tag_14\n          swap2\n          swap1\n          tag_11\n          jump\t// in\n        tag_14:\n          mload(0x40)\n          dup1\n          swap2\n          sub\n          swap1\n          return\n            /* \"contracts/Visibility.sol\":714:1050  function f5() public pure returns(int){\r... */\n        tag_5:\n          tag_15\n          tag_16\n          jump\t// in\n        tag_15:\n          mload(0x40)\n          tag_17\n          swap2\n          swap1\n          tag_11\n          jump\t// in\n        tag_17:\n          mload(0x40)\n          dup1\n          swap2\n          sub\n          swap1\n          return\n            /* \"contracts/Visibility.sol\":388:504  function f2() public view returns(int){\r... */\n        tag_6:\n          tag_18\n          tag_19\n          jump\t// in\n        tag_18:\n          mload(0x40)\n          tag_20\n          swap2\n          swap1\n          tag_11\n          jump\t// in\n        tag_20:\n          mload(0x40)\n          dup1\n          swap2\n          sub\n          swap1\n          return\n            /* \"contracts/Visibility.sol\":619:694  function f4() external view returns(int){\r... */\n        tag_7:\n          tag_21\n          tag_22\n          jump\t// in\n        tag_21:\n          mload(0x40)\n          tag_23\n          swap2\n          swap1\n          tag_11\n          jump\t// in\n        tag_23:\n          mload(0x40)\n          dup1\n          swap2\n          sub\n          swap1\n          return\n            /* \"contracts/Visibility.sol\":116:133  int public x = 10 */\n        tag_9:\n          sload(0x00)\n          dup2\n          jump\t// out\n            /* \"contracts/Visibility.sol\":198:274  function get_y() public view returns(int){\r... */\n        tag_13:\n            /* \"contracts/Visibility.sol\":235:238  int */\n          0x00\n            /* \"contracts/Visibility.sol\":261:262  y */\n          sload(0x01)\n            /* \"contracts/Visibility.sol\":254:262  return y */\n          swap1\n          pop\n            /* \"contracts/Visibility.sol\":198:274  function get_y() public view returns(int){\r... */\n          swap1\n          jump\t// out\n            /* \"contracts/Visibility.sol\":714:1050  function f5() public pure returns(int){\r... */\n        tag_16:\n            /* \"contracts/Visibility.sol\":748:751  int */\n          0x00\n            /* \"contracts/Visibility.sol\":767:772  int b */\n          dup1\n            /* \"contracts/Visibility.sol\":1037:1038  b */\n          dup1\n            /* \"contracts/Visibility.sol\":1030:1038  return b */\n          swap2\n          pop\n          pop\n            /* \"contracts/Visibility.sol\":714:1050  function f5() public pure returns(int){\r... */\n          swap1\n          jump\t// out\n            /* \"contracts/Visibility.sol\":388:504  function f2() public view returns(int){\r... */\n        tag_19:\n            /* \"contracts/Visibility.sol\":422:425  int */\n          0x00\n            /* \"contracts/Visibility.sol\":441:446  int a */\n          dup1\n            /* \"contracts/Visibility.sol\":465:469  f1() */\n          tag_27\n            /* \"contracts/Visibility.sol\":465:467  f1 */\n          tag_28\n            /* \"contracts/Visibility.sol\":465:469  f1() */\n          jump\t// in\n        tag_27:\n            /* \"contracts/Visibility.sol\":461:469  a = f1() */\n          swap1\n          pop\n            /* \"contracts/Visibility.sol\":491:492  a */\n          dup1\n            /* \"contracts/Visibility.sol\":484:492  return a */\n          swap2\n          pop\n          pop\n            /* \"contracts/Visibility.sol\":388:504  function f2() public view returns(int){\r... */\n          swap1\n          jump\t// out\n            /* \"contracts/Visibility.sol\":619:694  function f4() external view returns(int){\r... */\n        tag_22:\n            /* \"contracts/Visibility.sol\":655:658  int */\n          0x00\n            /* \"contracts/Visibility.sol\":681:682  x */\n          dup1\n          sload\n            /* \"contracts/Visibility.sol\":674:682  return x */\n          swap1\n          pop\n            /* \"contracts/Visibility.sol\":619:694  function f4() external view returns(int){\r... */\n          swap1\n          jump\t// out\n            /* \"contracts/Visibility.sol\":294:368  function f1() private view returns(int){\r... */\n        tag_28:\n            /* \"contracts/Visibility.sol\":329:332  int */\n          0x00\n            /* \"contracts/Visibility.sol\":355:356  x */\n          dup1\n          sload\n            /* \"contracts/Visibility.sol\":348:356  return x */\n          swap1\n          pop\n            /* \"contracts/Visibility.sol\":294:368  function f1() private view returns(int){\r... */\n          swap1\n          jump\t// out\n            /* \"#utility.yul\":7:122   */\n        tag_32:\n            /* \"#utility.yul\":92:115   */\n          tag_34\n            /* \"#utility.yul\":109:114   */\n          dup2\n            /* \"#utility.yul\":92:115   */\n          tag_35\n          jump\t// in\n        tag_34:\n            /* \"#utility.yul\":87:90   */\n          dup3\n            /* \"#utility.yul\":80:116   */\n          mstore\n            /* \"#utility.yul\":7:122   */\n          pop\n          pop\n          jump\t// out\n            /* \"#utility.yul\":128:346   */\n        tag_11:\n            /* \"#utility.yul\":219:223   */\n          0x00\n            /* \"#utility.yul\":257:259   */\n          0x20\n            /* \"#utility.yul\":246:255   */\n          dup3\n            /* \"#utility.yul\":242:260   */\n          add\n            /* \"#utility.yul\":234:260   */\n          swap1\n          pop\n            /* \"#utility.yul\":270:339   */\n          tag_37\n            /* \"#utility.yul\":336:337   */\n          0x00\n            /* \"#utility.yul\":325:334   */\n          dup4\n            /* \"#utility.yul\":321:338   */\n          add\n            /* \"#utility.yul\":312:318   */\n          dup5\n            /* \"#utility.yul\":270:339   */\n          tag_32\n          jump\t// in\n        tag_37:\n            /* \"#utility.yul\":128:346   */\n          swap3\n          swap2\n          pop\n          pop\n          jump\t// out\n            /* \"#utility.yul\":352:428   */\n        tag_35:\n            /* \"#utility.yul\":388:395   */\n          0x00\n            /* \"#utility.yul\":417:422   */\n          dup2\n            /* \"#utility.yul\":406:422   */\n          swap1\n          pop\n            /* \"#utility.yul\":352:428   */\n          swap2\n          swap1\n          pop\n          jump\t// out\n\n        auxdata: 0xa264697066735822122026067aec1cf04b411298d5399c75e957ca45d669eb250c6f242a610f8dde085864736f6c63430008070033\n    }\n}\n",
				"bytecode": {
					"linkReferences": {},
					"object": "60806040526040516100109061011f565b604051809103906000f08015801561002c573d6000803e3d6000fd5b506000806101000a81548173ffffffffffffffffffffffffffffffffffffffff021916908373ffffffffffffffffffffffffffffffffffffffff16021790555060008054906101000a900473ffffffffffffffffffffffffffffffffffffffff1673ffffffffffffffffffffffffffffffffffffffff1663c3f902026040518163ffffffff1660e01b815260040160206040518083038186803b1580156100d257600080fd5b505afa1580156100e6573d6000803e3d6000fd5b505050506040513d601f19601f8201168201806040525081019061010a9190610141565b60015534801561011957600080fd5b50610194565b6101c68061032e83390190565b60008151905061013b8161017d565b92915050565b60006020828403121561015757610156610178565b5b60006101658482850161012c565b91505092915050565b6000819050919050565b600080fd5b6101868161016e565b811461019157600080fd5b50565b61018b806101a36000396000f3fe608060405234801561001057600080fd5b50600436106100365760003560e01c8063605b85ad1461003b578063ece57b0414610059575b600080fd5b610043610077565b60405161005091906100bf565b60405180910390f35b61006161009b565b60405161006e91906100da565b60405180910390f35b60008054906101000a900473ffffffffffffffffffffffffffffffffffffffff1681565b60015481565b6100aa8161011f565b82525050565b6100b9816100f5565b82525050565b60006020820190506100d460008301846100a1565b92915050565b60006020820190506100ef60008301846100b0565b92915050565b6000819050919050565b600073ffffffffffffffffffffffffffffffffffffffff82169050919050565b600061012a82610131565b9050919050565b600061013c82610143565b9050919050565b600061014e826100ff565b905091905056fea26469706673582212207e4d35c146dc6ed20139cdab3671b4cacd02176d351d1be079885abfc7eba00e64736f6c634300080700336080604052600a600055601460015534801561001a57600080fd5b5061019c8061002a6000396000f3fe608060405234801561001057600080fd5b50600436106100575760003560e01c80630c55699c1461005c57806328d69c6d1461007a5780633c9d377d146100985780639942ec6f146100b6578063c3f90202146100d4575b600080fd5b6100646100f2565b6040516100719190610141565b60405180910390f35b6100826100f8565b60405161008f9190610141565b60405180910390f35b6100a0610102565b6040516100ad9190610141565b60405180910390f35b6100be61010c565b6040516100cb9190610141565b60405180910390f35b6100dc610120565b6040516100e99190610141565b60405180910390f35b60005481565b6000600154905090565b6000808091505090565b600080610117610129565b90508091505090565b60008054905090565b60008054905090565b61013b8161015c565b82525050565b60006020820190506101566000830184610132565b92915050565b600081905091905056fea264697066735822122026067aec1cf04b411298d5399c75e957ca45d669eb250c6f242a610f8dde085864736f6c63430008070033",
					"opcodes": "PUSH1 0x80 PUSH1 0x40 MSTORE PUSH1 0x40 MLOAD PUSH2 0x10 SWAP1 PUSH2 0x11F JUMP JUMPDEST PUSH1 0x40 MLOAD DUP1 SWAP2 SUB SWAP1 PUSH1 0x0 CREATE DUP1 ISZERO DUP1 ISZERO PUSH2 0x2C JUMPI RETURNDATASIZE PUSH1 0x0 DUP1 RETURNDATACOPY RETURNDATASIZE PUSH1 0x0 REVERT JUMPDEST POP PUSH1 0x0 DUP1 PUSH2 0x100 EXP DUP2 SLOAD DUP2 PUSH20 0xFFFFFFFFFFFFFFFFFFFFFFFFFFFFFFFFFFFFFFFF MUL NOT AND SWAP1 DUP4 PUSH20 0xFFFFFFFFFFFFFFFFFFFFFFFFFFFFFFFFFFFFFFFF AND MUL OR SWAP1 SSTORE POP PUSH1 0x0 DUP1 SLOAD SWAP1 PUSH2 0x100 EXP SWAP1 DIV PUSH20 0xFFFFFFFFFFFFFFFFFFFFFFFFFFFFFFFFFFFFFFFF AND PUSH20 0xFFFFFFFFFFFFFFFFFFFFFFFFFFFFFFFFFFFFFFFF AND PUSH4 0xC3F90202 PUSH1 0x40 MLOAD DUP2 PUSH4 0xFFFFFFFF AND PUSH1 0xE0 SHL DUP2 MSTORE PUSH1 0x4 ADD PUSH1 0x20 PUSH1 0x40 MLOAD DUP1 DUP4 SUB DUP2 DUP7 DUP1 EXTCODESIZE ISZERO DUP1 ISZERO PUSH2 0xD2 JUMPI PUSH1 0x0 DUP1 REVERT JUMPDEST POP GAS STATICCALL ISZERO DUP1 ISZERO PUSH2 0xE6 JUMPI RETURNDATASIZE PUSH1 0x0 DUP1 RETURNDATACOPY RETURNDATASIZE PUSH1 0x0 REVERT JUMPDEST POP POP POP POP PUSH1 0x40 MLOAD RETURNDATASIZE PUSH1 0x1F NOT PUSH1 0x1F DUP3 ADD AND DUP3 ADD DUP1 PUSH1 0x40 MSTORE POP DUP2 ADD SWAP1 PUSH2 0x10A SWAP2 SWAP1 PUSH2 0x141 JUMP JUMPDEST PUSH1 0x1 SSTORE CALLVALUE DUP1 ISZERO PUSH2 0x119 JUMPI PUSH1 0x0 DUP1 REVERT JUMPDEST POP PUSH2 0x194 JUMP JUMPDEST PUSH2 0x1C6 DUP1 PUSH2 0x32E DUP4 CODECOPY ADD SWAP1 JUMP JUMPDEST PUSH1 0x0 DUP2 MLOAD SWAP1 POP PUSH2 0x13B DUP2 PUSH2 0x17D JUMP JUMPDEST SWAP3 SWAP2 POP POP JUMP JUMPDEST PUSH1 0x0 PUSH1 0x20 DUP3 DUP5 SUB SLT ISZERO PUSH2 0x157 JUMPI PUSH2 0x156 PUSH2 0x178 JUMP JUMPDEST JUMPDEST PUSH1 0x0 PUSH2 0x165 DUP5 DUP3 DUP6 ADD PUSH2 0x12C JUMP JUMPDEST SWAP2 POP POP SWAP3 SWAP2 POP POP JUMP JUMPDEST PUSH1 0x0 DUP2 SWAP1 POP SWAP2 SWAP1 POP JUMP JUMPDEST PUSH1 0x0 DUP1 REVERT JUMPDEST PUSH2 0x186 DUP2 PUSH2 0x16E JUMP JUMPDEST DUP2 EQ PUSH2 0x191 JUMPI PUSH1 0x0 DUP1 REVERT JUMPDEST POP JUMP JUMPDEST PUSH2 0x18B DUP1 PUSH2 0x1A3 PUSH1 0x0 CODECOPY PUSH1 0x0 RETURN INVALID PUSH1 0x80 PUSH1 0x40 MSTORE CALLVALUE DUP1 ISZERO PUSH2 0x10 JUMPI PUSH1 0x0 DUP1 REVERT JUMPDEST POP PUSH1 0x4 CALLDATASIZE LT PUSH2 0x36 JUMPI PUSH1 0x0 CALLDATALOAD PUSH1 0xE0 SHR DUP1 PUSH4 0x605B85AD EQ PUSH2 0x3B JUMPI DUP1 PUSH4 0xECE57B04 EQ PUSH2 0x59 JUMPI JUMPDEST PUSH1 0x0 DUP1 REVERT JUMPDEST PUSH2 0x43 PUSH2 0x77 JUMP JUMPDEST PUSH1 0x40 MLOAD PUSH2 0x50 SWAP2 SWAP1 PUSH2 0xBF JUMP JUMPDEST PUSH1 0x40 MLOAD DUP1 SWAP2 SUB SWAP1 RETURN JUMPDEST PUSH2 0x61 PUSH2 0x9B JUMP JUMPDEST PUSH1 0x40 MLOAD PUSH2 0x6E SWAP2 SWAP1 PUSH2 0xDA JUMP JUMPDEST PUSH1 0x40 MLOAD DUP1 SWAP2 SUB SWAP1 RETURN JUMPDEST PUSH1 0x0 DUP1 SLOAD SWAP1 PUSH2 0x100 EXP SWAP1 DIV PUSH20 0xFFFFFFFFFFFFFFFFFFFFFFFFFFFFFFFFFFFFFFFF AND DUP2 JUMP JUMPDEST PUSH1 0x1 SLOAD DUP2 JUMP JUMPDEST PUSH2 0xAA DUP2 PUSH2 0x11F JUMP JUMPDEST DUP3 MSTORE POP POP JUMP JUMPDEST PUSH2 0xB9 DUP2 PUSH2 0xF5 JUMP JUMPDEST DUP3 MSTORE POP POP JUMP JUMPDEST PUSH1 0x0 PUSH1 0x20 DUP3 ADD SWAP1 POP PUSH2 0xD4 PUSH1 0x0 DUP4 ADD DUP5 PUSH2 0xA1 JUMP JUMPDEST SWAP3 SWAP2 POP POP JUMP JUMPDEST PUSH1 0x0 PUSH1 0x20 DUP3 ADD SWAP1 POP PUSH2 0xEF PUSH1 0x0 DUP4 ADD DUP5 PUSH2 0xB0 JUMP JUMPDEST SWAP3 SWAP2 POP POP JUMP JUMPDEST PUSH1 0x0 DUP2 SWAP1 POP SWAP2 SWAP1 POP JUMP JUMPDEST PUSH1 0x0 PUSH20 0xFFFFFFFFFFFFFFFFFFFFFFFFFFFFFFFFFFFFFFFF DUP3 AND SWAP1 POP SWAP2 SWAP1 POP JUMP JUMPDEST PUSH1 0x0 PUSH2 0x12A DUP3 PUSH2 0x131 JUMP JUMPDEST SWAP1 POP SWAP2 SWAP1 POP JUMP JUMPDEST PUSH1 0x0 PUSH2 0x13C DUP3 PUSH2 0x143 JUMP JUMPDEST SWAP1 POP SWAP2 SWAP1 POP JUMP JUMPDEST PUSH1 0x0 PUSH2 0x14E DUP3 PUSH2 0xFF JUMP JUMPDEST SWAP1 POP SWAP2 SWAP1 POP JUMP INVALID LOG2 PUSH5 0x6970667358 0x22 SLT KECCAK256 PUSH31 0x4D35C146DC6ED20139CDAB3671B4CACD02176D351D1BE079885ABFC7EBA00E PUSH5 0x736F6C6343 STOP ADDMOD SMOD STOP CALLER PUSH1 0x80 PUSH1 0x40 MSTORE PUSH1 0xA PUSH1 0x0 SSTORE PUSH1 0x14 PUSH1 0x1 SSTORE CALLVALUE DUP1 ISZERO PUSH2 0x1A JUMPI PUSH1 0x0 DUP1 REVERT JUMPDEST POP PUSH2 0x19C DUP1 PUSH2 0x2A PUSH1 0x0 CODECOPY PUSH1 0x0 RETURN INVALID PUSH1 0x80 PUSH1 0x40 MSTORE CALLVALUE DUP1 ISZERO PUSH2 0x10 JUMPI PUSH1 0x0 DUP1 REVERT JUMPDEST POP PUSH1 0x4 CALLDATASIZE LT PUSH2 0x57 JUMPI PUSH1 0x0 CALLDATALOAD PUSH1 0xE0 SHR DUP1 PUSH4 0xC55699C EQ PUSH2 0x5C JUMPI DUP1 PUSH4 0x28D69C6D EQ PUSH2 0x7A JUMPI DUP1 PUSH4 0x3C9D377D EQ PUSH2 0x98 JUMPI DUP1 PUSH4 0x9942EC6F EQ PUSH2 0xB6 JUMPI DUP1 PUSH4 0xC3F90202 EQ PUSH2 0xD4 JUMPI JUMPDEST PUSH1 0x0 DUP1 REVERT JUMPDEST PUSH2 0x64 PUSH2 0xF2 JUMP JUMPDEST PUSH1 0x40 MLOAD PUSH2 0x71 SWAP2 SWAP1 PUSH2 0x141 JUMP JUMPDEST PUSH1 0x40 MLOAD DUP1 SWAP2 SUB SWAP1 RETURN JUMPDEST PUSH2 0x82 PUSH2 0xF8 JUMP JUMPDEST PUSH1 0x40 MLOAD PUSH2 0x8F SWAP2 SWAP1 PUSH2 0x141 JUMP JUMPDEST PUSH1 0x40 MLOAD DUP1 SWAP2 SUB SWAP1 RETURN JUMPDEST PUSH2 0xA0 PUSH2 0x102 JUMP JUMPDEST PUSH1 0x40 MLOAD PUSH2 0xAD SWAP2 SWAP1 PUSH2 0x141 JUMP JUMPDEST PUSH1 0x40 MLOAD DUP1 SWAP2 SUB SWAP1 RETURN JUMPDEST PUSH2 0xBE PUSH2 0x10C JUMP JUMPDEST PUSH1 0x40 MLOAD PUSH2 0xCB SWAP2 SWAP1 PUSH2 0x141 JUMP JUMPDEST PUSH1 0x40 MLOAD DUP1 SWAP2 SUB SWAP1 RETURN JUMPDEST PUSH2 0xDC PUSH2 0x120 JUMP JUMPDEST PUSH1 0x40 MLOAD PUSH2 0xE9 SWAP2 SWAP1 PUSH2 0x141 JUMP JUMPDEST PUSH1 0x40 MLOAD DUP1 SWAP2 SUB SWAP1 RETURN JUMPDEST PUSH1 0x0 SLOAD DUP2 JUMP JUMPDEST PUSH1 0x0 PUSH1 0x1 SLOAD SWAP1 POP SWAP1 JUMP JUMPDEST PUSH1 0x0 DUP1 DUP1 SWAP2 POP POP SWAP1 JUMP JUMPDEST PUSH1 0x0 DUP1 PUSH2 0x117 PUSH2 0x129 JUMP JUMPDEST SWAP1 POP DUP1 SWAP2 POP POP SWAP1 JUMP JUMPDEST PUSH1 0x0 DUP1 SLOAD SWAP1 POP SWAP1 JUMP JUMPDEST PUSH1 0x0 DUP1 SLOAD SWAP1 POP SWAP1 JUMP JUMPDEST PUSH2 0x13B DUP2 PUSH2 0x15C JUMP JUMPDEST DUP3 MSTORE POP POP JUMP JUMPDEST PUSH1 0x0 PUSH1 0x20 DUP3 ADD SWAP1 POP PUSH2 0x156 PUSH1 0x0 DUP4 ADD DUP5 PUSH2 0x132 JUMP JUMPDEST SWAP3 SWAP2 POP POP JUMP JUMPDEST PUSH1 0x0 DUP2 SWAP1 POP SWAP2 SWAP1 POP JUMP INVALID LOG2 PUSH5 0x6970667358 0x22 SLT KECCAK256 0x26 MOD PUSH27 0xEC1CF04B411298D5399C75E957CA45D669EB250C6F242A610F8DDE ADDMOD PC PUSH5 0x736F6C6343 STOP ADDMOD SMOD STOP CALLER "
				},
				"gasEstimates": {
					"creation": {
						"codeDepositCost": "79000",
						"executionCost": "infinite",
						"totalCost": "infinite"
					},
					"external": {
						"contract_a()": "2575",
						"xx()": "2429"
					}
				},
				"methodIdentifiers": {
					"contract_a()": "605b85ad",
					"xx()": "ece57b04"
				}
			},
			"storageLayout": {
				"storage": [
					{
						"astId": 81,
						"contract": "contracts/Visibility.sol:C",
						"label": "contract_a",
						"offset": 0,
						"slot": "0",
						"type": "t_contract(A)67"
					},
					{
						"astId": 86,
						"contract": "contracts/Visibility.sol:C",
						"label": "xx",
						"offset": 0,
						"slot": "1",
						"type": "t_int256"
					}
				],
				"types": {
					"t_contract(A)67": {
						"encoding": "inplace",
						"label": "contract A",
						"numberOfBytes": "20"
					},
					"t_int256": {
						"encoding": "inplace",
						"label": "int256",
						"numberOfBytes": "32"
					}
				}
			},
			"userdoc": {
				"kind": "user",
				"methods": {},
				"version": 1
			}
		}
	}
}