{
	"contracts/Erc20token.sol": {
		"icoContract": {
			"abi": [
				{
					"inputs": [
						{
							"internalType": "uint256",
							"name": "_duration",
							"type": "uint256"
						},
						{
							"internalType": "address payable",
							"name": "_depositAddress",
							"type": "address"
						}
					],
					"stateMutability": "nonpayable",
					"type": "constructor"
				},
				{
					"anonymous": false,
					"inputs": [
						{
							"indexed": true,
							"internalType": "address",
							"name": "tokenOwner",
							"type": "address"
						},
						{
							"indexed": true,
							"internalType": "address",
							"name": "spender",
							"type": "address"
						},
						{
							"indexed": false,
							"internalType": "uint256",
							"name": "tokens",
							"type": "uint256"
						}
					],
					"name": "Approval",
					"type": "event"
				},
				{
					"anonymous": false,
					"inputs": [
						{
							"indexed": true,
							"internalType": "address",
							"name": "from",
							"type": "address"
						},
						{
							"indexed": true,
							"internalType": "address",
							"name": "to",
							"type": "address"
						},
						{
							"indexed": false,
							"internalType": "uint256",
							"name": "tokens",
							"type": "uint256"
						}
					],
					"name": "Transfer",
					"type": "event"
				},
				{
					"inputs": [],
					"name": "admin",
					"outputs": [
						{
							"internalType": "address",
							"name": "",
							"type": "address"
						}
					],
					"stateMutability": "view",
					"type": "function"
				},
				{
					"inputs": [
						{
							"internalType": "address",
							"name": "tokenOwner",
							"type": "address"
						},
						{
							"internalType": "address",
							"name": "spender",
							"type": "address"
						}
					],
					"name": "allowance",
					"outputs": [
						{
							"internalType": "uint256",
							"name": "remaining",
							"type": "uint256"
						}
					],
					"stateMutability": "view",
					"type": "function"
				},
				{
					"inputs": [
						{
							"internalType": "address",
							"name": "",
							"type": "address"
						},
						{
							"internalType": "address",
							"name": "",
							"type": "address"
						}
					],
					"name": "allowed",
					"outputs": [
						{
							"internalType": "uint256",
							"name": "",
							"type": "uint256"
						}
					],
					"stateMutability": "view",
					"type": "function"
				},
				{
					"inputs": [
						{
							"internalType": "address",
							"name": "spender",
							"type": "address"
						},
						{
							"internalType": "uint256",
							"name": "tokens",
							"type": "uint256"
						}
					],
					"name": "approve",
					"outputs": [
						{
							"internalType": "bool",
							"name": "success",
							"type": "bool"
						}
					],
					"stateMutability": "nonpayable",
					"type": "function"
				},
				{
					"inputs": [
						{
							"internalType": "address",
							"name": "tokenOwner",
							"type": "address"
						}
					],
					"name": "balanceOf",
					"outputs": [
						{
							"internalType": "uint256",
							"name": "balance",
							"type": "uint256"
						}
					],
					"stateMutability": "view",
					"type": "function"
				},
				{
					"inputs": [
						{
							"internalType": "address",
							"name": "",
							"type": "address"
						}
					],
					"name": "balances",
					"outputs": [
						{
							"internalType": "uint256",
							"name": "",
							"type": "uint256"
						}
					],
					"stateMutability": "view",
					"type": "function"
				},
				{
					"inputs": [],
					"name": "decimals",
					"outputs": [
						{
							"internalType": "uint256",
							"name": "",
							"type": "uint256"
						}
					],
					"stateMutability": "view",
					"type": "function"
				},
				{
					"inputs": [],
					"name": "depositAddress",
					"outputs": [
						{
							"internalType": "address payable",
							"name": "",
							"type": "address"
						}
					],
					"stateMutability": "view",
					"type": "function"
				},
				{
					"inputs": [],
					"name": "endTime",
					"outputs": [
						{
							"internalType": "uint256",
							"name": "",
							"type": "uint256"
						}
					],
					"stateMutability": "view",
					"type": "function"
				},
				{
					"inputs": [],
					"name": "founder",
					"outputs": [
						{
							"internalType": "address",
							"name": "",
							"type": "address"
						}
					],
					"stateMutability": "view",
					"type": "function"
				},
				{
					"inputs": [],
					"name": "icoState",
					"outputs": [
						{
							"internalType": "enum icoContract.State",
							"name": "",
							"type": "uint8"
						}
					],
					"stateMutability": "view",
					"type": "function"
				},
				{
					"inputs": [],
					"name": "invest",
					"outputs": [
						{
							"internalType": "bool",
							"name": "",
							"type": "bool"
						}
					],
					"stateMutability": "payable",
					"type": "function"
				},
				{
					"inputs": [],
					"name": "maximumAmount",
					"outputs": [
						{
							"internalType": "uint256",
							"name": "",
							"type": "uint256"
						}
					],
					"stateMutability": "view",
					"type": "function"
				},
				{
					"inputs": [],
					"name": "minimumAmount",
					"outputs": [
						{
							"internalType": "uint256",
							"name": "",
							"type": "uint256"
						}
					],
					"stateMutability": "view",
					"type": "function"
				},
				{
					"inputs": [],
					"name": "name",
					"outputs": [
						{
							"internalType": "string",
							"name": "",
							"type": "string"
						}
					],
					"stateMutability": "view",
					"type": "function"
				},
				{
					"inputs": [],
					"name": "startTime",
					"outputs": [
						{
							"internalType": "uint256",
							"name": "",
							"type": "uint256"
						}
					],
					"stateMutability": "view",
					"type": "function"
				},
				{
					"inputs": [],
					"name": "symbol",
					"outputs": [
						{
							"internalType": "string",
							"name": "",
							"type": "string"
						}
					],
					"stateMutability": "view",
					"type": "function"
				},
				{
					"inputs": [],
					"name": "totalSupply",
					"outputs": [
						{
							"internalType": "uint256",
							"name": "",
							"type": "uint256"
						}
					],
					"stateMutability": "view",
					"type": "function"
				},
				{
					"inputs": [
						{
							"internalType": "address",
							"name": "to",
							"type": "address"
						},
						{
							"internalType": "uint256",
							"name": "tokens",
							"type": "uint256"
						}
					],
					"name": "transfer",
					"outputs": [
						{
							"internalType": "bool",
							"name": "success",
							"type": "bool"
						}
					],
					"stateMutability": "nonpayable",
					"type": "function"
				},
				{
					"inputs": [
						{
							"internalType": "address",
							"name": "from",
							"type": "address"
						},
						{
							"internalType": "address",
							"name": "to",
							"type": "address"
						},
						{
							"internalType": "uint256",
							"name": "tokens",
							"type": "uint256"
						}
					],
					"name": "transferFrom",
					"outputs": [
						{
							"internalType": "bool",
							"name": "success",
							"type": "bool"
						}
					],
					"stateMutability": "nonpayable",
					"type": "function"
				}
			],
			"devdoc": {
				"kind": "dev",
				"methods": {},
				"version": 1
			},
			"evm": {
				"assembly": "    /* \"contracts/Erc20token.sol\":3280:4860  contract icoContract is MyToken{\r... */\n  mstore(0x40, 0x80)\n    /* \"contracts/Erc20token.sol\":1033:1062  string public name = \"ZILLAX\" */\n  mload(0x40)\n  dup1\n  0x40\n  add\n  0x40\n  mstore\n  dup1\n  0x06\n  dup2\n  mstore\n  0x20\n  add\n  0x5a494c4c41580000000000000000000000000000000000000000000000000000\n  dup2\n  mstore\n  pop\n  0x00\n  swap1\n  dup1\n  mload\n  swap1\n  0x20\n  add\n  swap1\n  tag_1\n  swap3\n  swap2\n  swap1\n  tag_2\n  jump\t// in\ntag_1:\n  pop\n    /* \"contracts/Erc20token.sol\":1069:1097  string public symbol = \"ZLZ\" */\n  mload(0x40)\n  dup1\n  0x40\n  add\n  0x40\n  mstore\n  dup1\n  0x03\n  dup2\n  mstore\n  0x20\n  add\n  0x5a4c5a0000000000000000000000000000000000000000000000000000000000\n  dup2\n  mstore\n  pop\n  0x01\n  swap1\n  dup1\n  mload\n  swap1\n  0x20\n  add\n  swap1\n  tag_3\n  swap3\n  swap2\n  swap1\n  tag_2\n  jump\t// in\ntag_3:\n  pop\n    /* \"contracts/Erc20token.sol\":1127:1128  0 */\n  0x00\n    /* \"contracts/Erc20token.sol\":1104:1128  uint public decimals = 0 */\n  0x02\n  sstore\n    /* \"contracts/Erc20token.sol\":3498:3513  block.timestamp */\n  timestamp\n    /* \"contracts/Erc20token.sol\":3474:3513  uint public startTime = block.timestamp */\n  0x08\n  sstore\n    /* \"contracts/Erc20token.sol\":3623:3632  0.1 ether */\n  0x016345785d8a0000\n    /* \"contracts/Erc20token.sol\":3595:3632  uint public minimumAmount = 0.1 ether */\n  0x0a\n  sstore\n    /* \"contracts/Erc20token.sol\":3667:3674  1 ether */\n  0x0de0b6b3a7640000\n    /* \"contracts/Erc20token.sol\":3639:3674  uint public maximumAmount = 1 ether */\n  0x0b\n  sstore\n    /* \"contracts/Erc20token.sol\":3826:4147  constructor(uint _duration, address payable _depositAddress){\r... */\n  callvalue\n  dup1\n  iszero\n  tag_4\n  jumpi\n  0x00\n  dup1\n  revert\ntag_4:\n  pop\n  mload(0x40)\n  sub(codesize, bytecodeSize)\n  dup1\n  bytecodeSize\n  dup4\n  codecopy\n  dup2\n  dup2\n  add\n  0x40\n  mstore\n  dup2\n  add\n  swap1\n  tag_5\n  swap2\n  swap1\n  tag_6\n  jump\t// in\ntag_5:\n    /* \"contracts/Erc20token.sol\":1365:1372  1000000 */\n  0x0f4240\n    /* \"contracts/Erc20token.sol\":1351:1362  totalSupply */\n  0x04\n    /* \"contracts/Erc20token.sol\":1351:1372  totalSupply = 1000000 */\n  dup2\n  swap1\n  sstore\n  pop\n    /* \"contracts/Erc20token.sol\":1393:1403  msg.sender */\n  caller\n    /* \"contracts/Erc20token.sol\":1383:1390  founder */\n  0x03\n  0x00\n    /* \"contracts/Erc20token.sol\":1383:1403  founder = msg.sender */\n  0x0100\n  exp\n  dup2\n  sload\n  dup2\n  0xffffffffffffffffffffffffffffffffffffffff\n  mul\n  not\n  and\n  swap1\n  dup4\n  0xffffffffffffffffffffffffffffffffffffffff\n  and\n  mul\n  or\n  swap1\n  sstore\n  pop\n    /* \"contracts/Erc20token.sol\":1434:1445  totalSupply */\n  sload(0x04)\n    /* \"contracts/Erc20token.sol\":1414:1422  balances */\n  0x05\n    /* \"contracts/Erc20token.sol\":1414:1431  balances[founder] */\n  0x00\n    /* \"contracts/Erc20token.sol\":1423:1430  founder */\n  0x03\n  0x00\n  swap1\n  sload\n  swap1\n  0x0100\n  exp\n  swap1\n  div\n  0xffffffffffffffffffffffffffffffffffffffff\n  and\n    /* \"contracts/Erc20token.sol\":1414:1431  balances[founder] */\n  0xffffffffffffffffffffffffffffffffffffffff\n  and\n  0xffffffffffffffffffffffffffffffffffffffff\n  and\n  dup2\n  mstore\n  0x20\n  add\n  swap1\n  dup2\n  mstore\n  0x20\n  add\n  0x00\n  keccak256\n    /* \"contracts/Erc20token.sol\":1414:1445  balances[founder] = totalSupply */\n  dup2\n  swap1\n  sstore\n  pop\n    /* \"contracts/Erc20token.sol\":3908:3925  State.beforeStart */\n  0x00\n    /* \"contracts/Erc20token.sol\":3897:3905  icoState */\n  0x0c\n  0x00\n    /* \"contracts/Erc20token.sol\":3897:3925  icoState = State.beforeStart */\n  0x0100\n  exp\n  dup2\n  sload\n  dup2\n  0xff\n  mul\n  not\n  and\n  swap1\n  dup4\n  0x03\n  dup2\n  gt\n  iszero\n  tag_11\n  jumpi\n  tag_12\n  tag_13\n  jump\t// in\ntag_12:\ntag_11:\n  mul\n  or\n  swap1\n  sstore\n  pop\n    /* \"contracts/Erc20token.sol\":3973:3983  msg.sender */\n  caller\n    /* \"contracts/Erc20token.sol\":3965:3970  admin */\n  0x07\n  0x00\n    /* \"contracts/Erc20token.sol\":3965:3983  admin = msg.sender */\n  0x0100\n  exp\n  dup2\n  sload\n  dup2\n  0xffffffffffffffffffffffffffffffffffffffff\n  mul\n  not\n  and\n  swap1\n  dup4\n  0xffffffffffffffffffffffffffffffffffffffff\n  and\n  mul\n  or\n  swap1\n  sstore\n  pop\n    /* \"contracts/Erc20token.sol\":4048:4057  _duration */\n  dup2\n    /* \"contracts/Erc20token.sol\":4036:4045  startTime */\n  sload(0x08)\n    /* \"contracts/Erc20token.sol\":4036:4057  startTime + _duration */\n  tag_14\n  swap2\n  swap1\n  tag_15\n  jump\t// in\ntag_14:\n    /* \"contracts/Erc20token.sol\":4026:4033  endTime */\n  0x09\n    /* \"contracts/Erc20token.sol\":4026:4057  endTime = startTime + _duration */\n  dup2\n  swap1\n  sstore\n  pop\n    /* \"contracts/Erc20token.sol\":4122:4137  _depositAddress */\n  dup1\n    /* \"contracts/Erc20token.sol\":4105:4119  depositAddress */\n  0x0c\n  0x01\n    /* \"contracts/Erc20token.sol\":4105:4137  depositAddress = _depositAddress */\n  0x0100\n  exp\n  dup2\n  sload\n  dup2\n  0xffffffffffffffffffffffffffffffffffffffff\n  mul\n  not\n  and\n  swap1\n  dup4\n  0xffffffffffffffffffffffffffffffffffffffff\n  and\n  mul\n  or\n  swap1\n  sstore\n  pop\n    /* \"contracts/Erc20token.sol\":3826:4147  constructor(uint _duration, address payable _depositAddress){\r... */\n  pop\n  pop\n    /* \"contracts/Erc20token.sol\":3280:4860  contract icoContract is MyToken{\r... */\n  jump(tag_16)\ntag_2:\n  dup3\n  dup1\n  sload\n  tag_17\n  swap1\n  tag_18\n  jump\t// in\ntag_17:\n  swap1\n  0x00\n  mstore\n  keccak256(0x00, 0x20)\n  swap1\n  0x1f\n  add\n  0x20\n  swap1\n  div\n  dup2\n  add\n  swap3\n  dup3\n  tag_20\n  jumpi\n  0x00\n  dup6\n  sstore\n  jump(tag_19)\ntag_20:\n  dup3\n  0x1f\n  lt\n  tag_21\n  jumpi\n  dup1\n  mload\n  not(0xff)\n  and\n  dup4\n  dup1\n  add\n  or\n  dup6\n  sstore\n  jump(tag_19)\ntag_21:\n  dup3\n  dup1\n  add\n  0x01\n  add\n  dup6\n  sstore\n  dup3\n  iszero\n  tag_19\n  jumpi\n  swap2\n  dup3\n  add\ntag_22:\n  dup3\n  dup2\n  gt\n  iszero\n  tag_23\n  jumpi\n  dup3\n  mload\n  dup3\n  sstore\n  swap2\n  0x20\n  add\n  swap2\n  swap1\n  0x01\n  add\n  swap1\n  jump(tag_22)\ntag_23:\ntag_19:\n  pop\n  swap1\n  pop\n  tag_24\n  swap2\n  swap1\n  tag_25\n  jump\t// in\ntag_24:\n  pop\n  swap1\n  jump\t// out\ntag_25:\ntag_26:\n  dup1\n  dup3\n  gt\n  iszero\n  tag_27\n  jumpi\n  0x00\n  dup2\n  0x00\n  swap1\n  sstore\n  pop\n  0x01\n  add\n  jump(tag_26)\ntag_27:\n  pop\n  swap1\n  jump\t// out\n    /* \"#utility.yul\":7:166   */\ntag_29:\n    /* \"#utility.yul\":72:77   */\n  0x00\n    /* \"#utility.yul\":103:109   */\n  dup2\n    /* \"#utility.yul\":97:110   */\n  mload\n    /* \"#utility.yul\":88:110   */\n  swap1\n  pop\n    /* \"#utility.yul\":119:160   */\n  tag_31\n    /* \"#utility.yul\":154:159   */\n  dup2\n    /* \"#utility.yul\":119:160   */\n  tag_32\n  jump\t// in\ntag_31:\n    /* \"#utility.yul\":7:166   */\n  swap3\n  swap2\n  pop\n  pop\n  jump\t// out\n    /* \"#utility.yul\":172:315   */\ntag_33:\n    /* \"#utility.yul\":229:234   */\n  0x00\n    /* \"#utility.yul\":260:266   */\n  dup2\n    /* \"#utility.yul\":254:267   */\n  mload\n    /* \"#utility.yul\":245:267   */\n  swap1\n  pop\n    /* \"#utility.yul\":276:309   */\n  tag_35\n    /* \"#utility.yul\":303:308   */\n  dup2\n    /* \"#utility.yul\":276:309   */\n  tag_36\n  jump\t// in\ntag_35:\n    /* \"#utility.yul\":172:315   */\n  swap3\n  swap2\n  pop\n  pop\n  jump\t// out\n    /* \"#utility.yul\":321:844   */\ntag_6:\n    /* \"#utility.yul\":408:414   */\n  0x00\n    /* \"#utility.yul\":416:422   */\n  dup1\n    /* \"#utility.yul\":465:467   */\n  0x40\n    /* \"#utility.yul\":453:462   */\n  dup4\n    /* \"#utility.yul\":444:451   */\n  dup6\n    /* \"#utility.yul\":440:463   */\n  sub\n    /* \"#utility.yul\":436:468   */\n  slt\n    /* \"#utility.yul\":433:552   */\n  iszero\n  tag_38\n  jumpi\n    /* \"#utility.yul\":471:550   */\n  tag_39\n  tag_40\n  jump\t// in\ntag_39:\n    /* \"#utility.yul\":433:552   */\ntag_38:\n    /* \"#utility.yul\":591:592   */\n  0x00\n    /* \"#utility.yul\":616:680   */\n  tag_41\n    /* \"#utility.yul\":672:679   */\n  dup6\n    /* \"#utility.yul\":663:669   */\n  dup3\n    /* \"#utility.yul\":652:661   */\n  dup7\n    /* \"#utility.yul\":648:670   */\n  add\n    /* \"#utility.yul\":616:680   */\n  tag_33\n  jump\t// in\ntag_41:\n    /* \"#utility.yul\":606:680   */\n  swap3\n  pop\n    /* \"#utility.yul\":562:690   */\n  pop\n    /* \"#utility.yul\":729:731   */\n  0x20\n    /* \"#utility.yul\":755:827   */\n  tag_42\n    /* \"#utility.yul\":819:826   */\n  dup6\n    /* \"#utility.yul\":810:816   */\n  dup3\n    /* \"#utility.yul\":799:808   */\n  dup7\n    /* \"#utility.yul\":795:817   */\n  add\n    /* \"#utility.yul\":755:827   */\n  tag_29\n  jump\t// in\ntag_42:\n    /* \"#utility.yul\":745:827   */\n  swap2\n  pop\n    /* \"#utility.yul\":700:837   */\n  pop\n    /* \"#utility.yul\":321:844   */\n  swap3\n  pop\n  swap3\n  swap1\n  pop\n  jump\t// out\n    /* \"#utility.yul\":931:1236   */\ntag_15:\n    /* \"#utility.yul\":971:974   */\n  0x00\n    /* \"#utility.yul\":990:1010   */\n  tag_46\n    /* \"#utility.yul\":1008:1009   */\n  dup3\n    /* \"#utility.yul\":990:1010   */\n  tag_47\n  jump\t// in\ntag_46:\n    /* \"#utility.yul\":985:1010   */\n  swap2\n  pop\n    /* \"#utility.yul\":1024:1044   */\n  tag_48\n    /* \"#utility.yul\":1042:1043   */\n  dup4\n    /* \"#utility.yul\":1024:1044   */\n  tag_47\n  jump\t// in\ntag_48:\n    /* \"#utility.yul\":1019:1044   */\n  swap3\n  pop\n    /* \"#utility.yul\":1178:1179   */\n  dup3\n    /* \"#utility.yul\":1110:1176   */\n  0xffffffffffffffffffffffffffffffffffffffffffffffffffffffffffffffff\n    /* \"#utility.yul\":1106:1180   */\n  sub\n    /* \"#utility.yul\":1103:1104   */\n  dup3\n    /* \"#utility.yul\":1100:1181   */\n  gt\n    /* \"#utility.yul\":1097:1204   */\n  iszero\n  tag_49\n  jumpi\n    /* \"#utility.yul\":1184:1202   */\n  tag_50\n  tag_51\n  jump\t// in\ntag_50:\n    /* \"#utility.yul\":1097:1204   */\ntag_49:\n    /* \"#utility.yul\":1228:1229   */\n  dup3\n    /* \"#utility.yul\":1225:1226   */\n  dup3\n    /* \"#utility.yul\":1221:1230   */\n  add\n    /* \"#utility.yul\":1214:1230   */\n  swap1\n  pop\n    /* \"#utility.yul\":931:1236   */\n  swap3\n  swap2\n  pop\n  pop\n  jump\t// out\n    /* \"#utility.yul\":1242:1346   */\ntag_52:\n    /* \"#utility.yul\":1287:1294   */\n  0x00\n    /* \"#utility.yul\":1316:1340   */\n  tag_54\n    /* \"#utility.yul\":1334:1339   */\n  dup3\n    /* \"#utility.yul\":1316:1340   */\n  tag_55\n  jump\t// in\ntag_54:\n    /* \"#utility.yul\":1305:1340   */\n  swap1\n  pop\n    /* \"#utility.yul\":1242:1346   */\n  swap2\n  swap1\n  pop\n  jump\t// out\n    /* \"#utility.yul\":1352:1478   */\ntag_55:\n    /* \"#utility.yul\":1389:1396   */\n  0x00\n    /* \"#utility.yul\":1429:1471   */\n  0xffffffffffffffffffffffffffffffffffffffff\n    /* \"#utility.yul\":1422:1427   */\n  dup3\n    /* \"#utility.yul\":1418:1472   */\n  and\n    /* \"#utility.yul\":1407:1472   */\n  swap1\n  pop\n    /* \"#utility.yul\":1352:1478   */\n  swap2\n  swap1\n  pop\n  jump\t// out\n    /* \"#utility.yul\":1484:1561   */\ntag_47:\n    /* \"#utility.yul\":1521:1528   */\n  0x00\n    /* \"#utility.yul\":1550:1555   */\n  dup2\n    /* \"#utility.yul\":1539:1555   */\n  swap1\n  pop\n    /* \"#utility.yul\":1484:1561   */\n  swap2\n  swap1\n  pop\n  jump\t// out\n    /* \"#utility.yul\":1567:1887   */\ntag_18:\n    /* \"#utility.yul\":1611:1617   */\n  0x00\n    /* \"#utility.yul\":1648:1649   */\n  0x02\n    /* \"#utility.yul\":1642:1646   */\n  dup3\n    /* \"#utility.yul\":1638:1650   */\n  div\n    /* \"#utility.yul\":1628:1650   */\n  swap1\n  pop\n    /* \"#utility.yul\":1695:1696   */\n  0x01\n    /* \"#utility.yul\":1689:1693   */\n  dup3\n    /* \"#utility.yul\":1685:1697   */\n  and\n    /* \"#utility.yul\":1716:1734   */\n  dup1\n    /* \"#utility.yul\":1706:1787   */\n  tag_59\n  jumpi\n    /* \"#utility.yul\":1772:1776   */\n  0x7f\n    /* \"#utility.yul\":1764:1770   */\n  dup3\n    /* \"#utility.yul\":1760:1777   */\n  and\n    /* \"#utility.yul\":1750:1777   */\n  swap2\n  pop\n    /* \"#utility.yul\":1706:1787   */\ntag_59:\n    /* \"#utility.yul\":1834:1836   */\n  0x20\n    /* \"#utility.yul\":1826:1832   */\n  dup3\n    /* \"#utility.yul\":1823:1837   */\n  lt\n    /* \"#utility.yul\":1803:1821   */\n  dup2\n    /* \"#utility.yul\":1800:1838   */\n  eq\n    /* \"#utility.yul\":1797:1881   */\n  iszero\n  tag_60\n  jumpi\n    /* \"#utility.yul\":1853:1871   */\n  tag_61\n  tag_62\n  jump\t// in\ntag_61:\n    /* \"#utility.yul\":1797:1881   */\ntag_60:\n    /* \"#utility.yul\":1618:1887   */\n  pop\n    /* \"#utility.yul\":1567:1887   */\n  swap2\n  swap1\n  pop\n  jump\t// out\n    /* \"#utility.yul\":1893:2073   */\ntag_51:\n    /* \"#utility.yul\":1941:2018   */\n  0x4e487b7100000000000000000000000000000000000000000000000000000000\n    /* \"#utility.yul\":1938:1939   */\n  0x00\n    /* \"#utility.yul\":1931:2019   */\n  mstore\n    /* \"#utility.yul\":2038:2042   */\n  0x11\n    /* \"#utility.yul\":2035:2036   */\n  0x04\n    /* \"#utility.yul\":2028:2043   */\n  mstore\n    /* \"#utility.yul\":2062:2066   */\n  0x24\n    /* \"#utility.yul\":2059:2060   */\n  0x00\n    /* \"#utility.yul\":2052:2067   */\n  revert\n    /* \"#utility.yul\":2079:2259   */\ntag_13:\n    /* \"#utility.yul\":2127:2204   */\n  0x4e487b7100000000000000000000000000000000000000000000000000000000\n    /* \"#utility.yul\":2124:2125   */\n  0x00\n    /* \"#utility.yul\":2117:2205   */\n  mstore\n    /* \"#utility.yul\":2224:2228   */\n  0x21\n    /* \"#utility.yul\":2221:2222   */\n  0x04\n    /* \"#utility.yul\":2214:2229   */\n  mstore\n    /* \"#utility.yul\":2248:2252   */\n  0x24\n    /* \"#utility.yul\":2245:2246   */\n  0x00\n    /* \"#utility.yul\":2238:2253   */\n  revert\n    /* \"#utility.yul\":2265:2445   */\ntag_62:\n    /* \"#utility.yul\":2313:2390   */\n  0x4e487b7100000000000000000000000000000000000000000000000000000000\n    /* \"#utility.yul\":2310:2311   */\n  0x00\n    /* \"#utility.yul\":2303:2391   */\n  mstore\n    /* \"#utility.yul\":2410:2414   */\n  0x22\n    /* \"#utility.yul\":2407:2408   */\n  0x04\n    /* \"#utility.yul\":2400:2415   */\n  mstore\n    /* \"#utility.yul\":2434:2438   */\n  0x24\n    /* \"#utility.yul\":2431:2432   */\n  0x00\n    /* \"#utility.yul\":2424:2439   */\n  revert\n    /* \"#utility.yul\":2574:2691   */\ntag_40:\n    /* \"#utility.yul\":2683:2684   */\n  0x00\n    /* \"#utility.yul\":2680:2681   */\n  dup1\n    /* \"#utility.yul\":2673:2685   */\n  revert\n    /* \"#utility.yul\":2697:2835   */\ntag_32:\n    /* \"#utility.yul\":2778:2810   */\n  tag_70\n    /* \"#utility.yul\":2804:2809   */\n  dup2\n    /* \"#utility.yul\":2778:2810   */\n  tag_52\n  jump\t// in\ntag_70:\n    /* \"#utility.yul\":2771:2776   */\n  dup2\n    /* \"#utility.yul\":2768:2811   */\n  eq\n    /* \"#utility.yul\":2758:2829   */\n  tag_71\n  jumpi\n    /* \"#utility.yul\":2825:2826   */\n  0x00\n    /* \"#utility.yul\":2822:2823   */\n  dup1\n    /* \"#utility.yul\":2815:2827   */\n  revert\n    /* \"#utility.yul\":2758:2829   */\ntag_71:\n    /* \"#utility.yul\":2697:2835   */\n  pop\n  jump\t// out\n    /* \"#utility.yul\":2841:2963   */\ntag_36:\n    /* \"#utility.yul\":2914:2938   */\n  tag_73\n    /* \"#utility.yul\":2932:2937   */\n  dup2\n    /* \"#utility.yul\":2914:2938   */\n  tag_47\n  jump\t// in\ntag_73:\n    /* \"#utility.yul\":2907:2912   */\n  dup2\n    /* \"#utility.yul\":2904:2939   */\n  eq\n    /* \"#utility.yul\":2894:2957   */\n  tag_74\n  jumpi\n    /* \"#utility.yul\":2953:2954   */\n  0x00\n    /* \"#utility.yul\":2950:2951   */\n  dup1\n    /* \"#utility.yul\":2943:2955   */\n  revert\n    /* \"#utility.yul\":2894:2957   */\ntag_74:\n    /* \"#utility.yul\":2841:2963   */\n  pop\n  jump\t// out\n    /* \"contracts/Erc20token.sol\":3280:4860  contract icoContract is MyToken{\r... */\ntag_16:\n  dataSize(sub_0)\n  dup1\n  dataOffset(sub_0)\n  0x00\n  codecopy\n  0x00\n  return\nstop\n\nsub_0: assembly {\n        /* \"contracts/Erc20token.sol\":3280:4860  contract icoContract is MyToken{\r... */\n      mstore(0x40, 0x80)\n      jumpi(tag_1, lt(calldatasize, 0x04))\n      shr(0xe0, calldataload(0x00))\n      dup1\n      0x5c658165\n      gt\n      tag_22\n      jumpi\n      dup1\n      0xa9bcea61\n      gt\n      tag_23\n      jumpi\n      dup1\n      0xa9bcea61\n      eq\n      tag_17\n      jumpi\n      dup1\n      0xbb0c8298\n      eq\n      tag_18\n      jumpi\n      dup1\n      0xdd62ed3e\n      eq\n      tag_19\n      jumpi\n      dup1\n      0xe8b5e51f\n      eq\n      tag_20\n      jumpi\n      dup1\n      0xf851a440\n      eq\n      tag_21\n      jumpi\n      jump(tag_1)\n    tag_23:\n      dup1\n      0x5c658165\n      eq\n      tag_12\n      jumpi\n      dup1\n      0x70a08231\n      eq\n      tag_13\n      jumpi\n      dup1\n      0x78e97925\n      eq\n      tag_14\n      jumpi\n      dup1\n      0x95d89b41\n      eq\n      tag_15\n      jumpi\n      dup1\n      0xa9059cbb\n      eq\n      tag_16\n      jumpi\n      jump(tag_1)\n    tag_22:\n      dup1\n      0x28f833b7\n      gt\n      tag_24\n      jumpi\n      dup1\n      0x28f833b7\n      eq\n      tag_7\n      jumpi\n      dup1\n      0x313ce567\n      eq\n      tag_8\n      jumpi\n      dup1\n      0x3197cbb6\n      eq\n      tag_9\n      jumpi\n      dup1\n      0x44f38756\n      eq\n      tag_10\n      jumpi\n      dup1\n      0x4d853ee5\n      eq\n      tag_11\n      jumpi\n      jump(tag_1)\n    tag_24:\n      dup1\n      0x06fdde03\n      eq\n      tag_2\n      jumpi\n      dup1\n      0x095ea7b3\n      eq\n      tag_3\n      jumpi\n      dup1\n      0x18160ddd\n      eq\n      tag_4\n      jumpi\n      dup1\n      0x23b872dd\n      eq\n      tag_5\n      jumpi\n      dup1\n      0x27e235e3\n      eq\n      tag_6\n      jumpi\n    tag_1:\n      0x00\n      dup1\n      revert\n        /* \"contracts/Erc20token.sol\":1033:1062  string public name = \"ZILLAX\" */\n    tag_2:\n      callvalue\n      dup1\n      iszero\n      tag_25\n      jumpi\n      0x00\n      dup1\n      revert\n    tag_25:\n      pop\n      tag_26\n      tag_27\n      jump\t// in\n    tag_26:\n      mload(0x40)\n      tag_28\n      swap2\n      swap1\n      tag_29\n      jump\t// in\n    tag_28:\n      mload(0x40)\n      dup1\n      swap2\n      sub\n      swap1\n      return\n        /* \"contracts/Erc20token.sol\":2225:2627  function approve(address spender, uint tokens) public override returns (bool success){\r... */\n    tag_3:\n      callvalue\n      dup1\n      iszero\n      tag_30\n      jumpi\n      0x00\n      dup1\n      revert\n    tag_30:\n      pop\n      tag_31\n      0x04\n      dup1\n      calldatasize\n      sub\n      dup2\n      add\n      swap1\n      tag_32\n      swap2\n      swap1\n      tag_33\n      jump\t// in\n    tag_32:\n      tag_34\n      jump\t// in\n    tag_31:\n      mload(0x40)\n      tag_35\n      swap2\n      swap1\n      tag_36\n      jump\t// in\n    tag_35:\n      mload(0x40)\n      dup1\n      swap2\n      sub\n      swap1\n      return\n        /* \"contracts/Erc20token.sol\":1168:1200  uint public override totalSupply */\n    tag_4:\n      callvalue\n      dup1\n      iszero\n      tag_37\n      jumpi\n      0x00\n      dup1\n      revert\n    tag_37:\n      pop\n      tag_38\n      tag_39\n      jump\t// in\n    tag_38:\n      mload(0x40)\n      tag_40\n      swap2\n      swap1\n      tag_41\n      jump\t// in\n    tag_40:\n      mload(0x40)\n      dup1\n      swap2\n      sub\n      swap1\n      return\n        /* \"contracts/Erc20token.sol\":2635:3271  function transferFrom(address from, address to, uint tokens) public override returns (bool success){\r... */\n    tag_5:\n      callvalue\n      dup1\n      iszero\n      tag_42\n      jumpi\n      0x00\n      dup1\n      revert\n    tag_42:\n      pop\n      tag_43\n      0x04\n      dup1\n      calldatasize\n      sub\n      dup2\n      add\n      swap1\n      tag_44\n      swap2\n      swap1\n      tag_45\n      jump\t// in\n    tag_44:\n      tag_46\n      jump\t// in\n    tag_43:\n      mload(0x40)\n      tag_47\n      swap2\n      swap1\n      tag_36\n      jump\t// in\n    tag_47:\n      mload(0x40)\n      dup1\n      swap2\n      sub\n      swap1\n      return\n        /* \"contracts/Erc20token.sol\":1209:1250  mapping(address => uint) public  balances */\n    tag_6:\n      callvalue\n      dup1\n      iszero\n      tag_48\n      jumpi\n      0x00\n      dup1\n      revert\n    tag_48:\n      pop\n      tag_49\n      0x04\n      dup1\n      calldatasize\n      sub\n      dup2\n      add\n      swap1\n      tag_50\n      swap2\n      swap1\n      tag_51\n      jump\t// in\n    tag_50:\n      tag_52\n      jump\t// in\n    tag_49:\n      mload(0x40)\n      tag_53\n      swap2\n      swap1\n      tag_41\n      jump\t// in\n    tag_53:\n      mload(0x40)\n      dup1\n      swap2\n      sub\n      swap1\n      return\n        /* \"contracts/Erc20token.sol\":3780:3817  address payable public depositAddress */\n    tag_7:\n      callvalue\n      dup1\n      iszero\n      tag_54\n      jumpi\n      0x00\n      dup1\n      revert\n    tag_54:\n      pop\n      tag_55\n      tag_56\n      jump\t// in\n    tag_55:\n      mload(0x40)\n      tag_57\n      swap2\n      swap1\n      tag_58\n      jump\t// in\n    tag_57:\n      mload(0x40)\n      dup1\n      swap2\n      sub\n      swap1\n      return\n        /* \"contracts/Erc20token.sol\":1104:1128  uint public decimals = 0 */\n    tag_8:\n      callvalue\n      dup1\n      iszero\n      tag_59\n      jumpi\n      0x00\n      dup1\n      revert\n    tag_59:\n      pop\n      tag_60\n      tag_61\n      jump\t// in\n    tag_60:\n      mload(0x40)\n      tag_62\n      swap2\n      swap1\n      tag_41\n      jump\t// in\n    tag_62:\n      mload(0x40)\n      dup1\n      swap2\n      sub\n      swap1\n      return\n        /* \"contracts/Erc20token.sol\":3520:3539  uint public endTime */\n    tag_9:\n      callvalue\n      dup1\n      iszero\n      tag_63\n      jumpi\n      0x00\n      dup1\n      revert\n    tag_63:\n      pop\n      tag_64\n      tag_65\n      jump\t// in\n    tag_64:\n      mload(0x40)\n      tag_66\n      swap2\n      swap1\n      tag_41\n      jump\t// in\n    tag_66:\n      mload(0x40)\n      dup1\n      swap2\n      sub\n      swap1\n      return\n        /* \"contracts/Erc20token.sol\":3723:3744  State public icoState */\n    tag_10:\n      callvalue\n      dup1\n      iszero\n      tag_67\n      jumpi\n      0x00\n      dup1\n      revert\n    tag_67:\n      pop\n      tag_68\n      tag_69\n      jump\t// in\n    tag_68:\n      mload(0x40)\n      tag_70\n      swap2\n      swap1\n      tag_71\n      jump\t// in\n    tag_70:\n      mload(0x40)\n      dup1\n      swap2\n      sub\n      swap1\n      return\n        /* \"contracts/Erc20token.sol\":1137:1159  address public founder */\n    tag_11:\n      callvalue\n      dup1\n      iszero\n      tag_72\n      jumpi\n      0x00\n      dup1\n      revert\n    tag_72:\n      pop\n      tag_73\n      tag_74\n      jump\t// in\n    tag_73:\n      mload(0x40)\n      tag_75\n      swap2\n      swap1\n      tag_76\n      jump\t// in\n    tag_75:\n      mload(0x40)\n      dup1\n      swap2\n      sub\n      swap1\n      return\n        /* \"contracts/Erc20token.sol\":1259:1318  mapping(address => mapping(address => uint)) public allowed */\n    tag_12:\n      callvalue\n      dup1\n      iszero\n      tag_77\n      jumpi\n      0x00\n      dup1\n      revert\n    tag_77:\n      pop\n      tag_78\n      0x04\n      dup1\n      calldatasize\n      sub\n      dup2\n      add\n      swap1\n      tag_79\n      swap2\n      swap1\n      tag_80\n      jump\t// in\n    tag_79:\n      tag_81\n      jump\t// in\n    tag_78:\n      mload(0x40)\n      tag_82\n      swap2\n      swap1\n      tag_41\n      jump\t// in\n    tag_82:\n      mload(0x40)\n      dup1\n      swap2\n      sub\n      swap1\n      return\n        /* \"contracts/Erc20token.sol\":1461:1589  function balanceOf(address tokenOwner) public override view returns (uint balance){\r... */\n    tag_13:\n      callvalue\n      dup1\n      iszero\n      tag_83\n      jumpi\n      0x00\n      dup1\n      revert\n    tag_83:\n      pop\n      tag_84\n      0x04\n      dup1\n      calldatasize\n      sub\n      dup2\n      add\n      swap1\n      tag_85\n      swap2\n      swap1\n      tag_51\n      jump\t// in\n    tag_85:\n      tag_86\n      jump\t// in\n    tag_84:\n      mload(0x40)\n      tag_87\n      swap2\n      swap1\n      tag_41\n      jump\t// in\n    tag_87:\n      mload(0x40)\n      dup1\n      swap2\n      sub\n      swap1\n      return\n        /* \"contracts/Erc20token.sol\":3474:3513  uint public startTime = block.timestamp */\n    tag_14:\n      callvalue\n      dup1\n      iszero\n      tag_88\n      jumpi\n      0x00\n      dup1\n      revert\n    tag_88:\n      pop\n      tag_89\n      tag_90\n      jump\t// in\n    tag_89:\n      mload(0x40)\n      tag_91\n      swap2\n      swap1\n      tag_41\n      jump\t// in\n    tag_91:\n      mload(0x40)\n      dup1\n      swap2\n      sub\n      swap1\n      return\n        /* \"contracts/Erc20token.sol\":1069:1097  string public symbol = \"ZLZ\" */\n    tag_15:\n      callvalue\n      dup1\n      iszero\n      tag_92\n      jumpi\n      0x00\n      dup1\n      revert\n    tag_92:\n      pop\n      tag_93\n      tag_94\n      jump\t// in\n    tag_93:\n      mload(0x40)\n      tag_95\n      swap2\n      swap1\n      tag_29\n      jump\t// in\n    tag_95:\n      mload(0x40)\n      dup1\n      swap2\n      sub\n      swap1\n      return\n        /* \"contracts/Erc20token.sol\":1643:1964  function transfer(address to, uint tokens) public override returns (bool success){\r... */\n    tag_16:\n      callvalue\n      dup1\n      iszero\n      tag_96\n      jumpi\n      0x00\n      dup1\n      revert\n    tag_96:\n      pop\n      tag_97\n      0x04\n      dup1\n      calldatasize\n      sub\n      dup2\n      add\n      swap1\n      tag_98\n      swap2\n      swap1\n      tag_33\n      jump\t// in\n    tag_98:\n      tag_99\n      jump\t// in\n    tag_97:\n      mload(0x40)\n      tag_100\n      swap2\n      swap1\n      tag_36\n      jump\t// in\n    tag_100:\n      mload(0x40)\n      dup1\n      swap2\n      sub\n      swap1\n      return\n        /* \"contracts/Erc20token.sol\":3639:3674  uint public maximumAmount = 1 ether */\n    tag_17:\n      callvalue\n      dup1\n      iszero\n      tag_101\n      jumpi\n      0x00\n      dup1\n      revert\n    tag_101:\n      pop\n      tag_102\n      tag_103\n      jump\t// in\n    tag_102:\n      mload(0x40)\n      tag_104\n      swap2\n      swap1\n      tag_41\n      jump\t// in\n    tag_104:\n      mload(0x40)\n      dup1\n      swap2\n      sub\n      swap1\n      return\n        /* \"contracts/Erc20token.sol\":3595:3632  uint public minimumAmount = 0.1 ether */\n    tag_18:\n      callvalue\n      dup1\n      iszero\n      tag_105\n      jumpi\n      0x00\n      dup1\n      revert\n    tag_105:\n      pop\n      tag_106\n      tag_107\n      jump\t// in\n    tag_106:\n      mload(0x40)\n      tag_108\n      swap2\n      swap1\n      tag_41\n      jump\t// in\n    tag_108:\n      mload(0x40)\n      dup1\n      swap2\n      sub\n      swap1\n      return\n        /* \"contracts/Erc20token.sol\":2062:2217  function allowance(address tokenOwner, address spender) public override view returns (uint remaining){\r... */\n    tag_19:\n      callvalue\n      dup1\n      iszero\n      tag_109\n      jumpi\n      0x00\n      dup1\n      revert\n    tag_109:\n      pop\n      tag_110\n      0x04\n      dup1\n      calldatasize\n      sub\n      dup2\n      add\n      swap1\n      tag_111\n      swap2\n      swap1\n      tag_80\n      jump\t// in\n    tag_111:\n      tag_112\n      jump\t// in\n    tag_110:\n      mload(0x40)\n      tag_113\n      swap2\n      swap1\n      tag_41\n      jump\t// in\n    tag_113:\n      mload(0x40)\n      dup1\n      swap2\n      sub\n      swap1\n      return\n        /* \"contracts/Erc20token.sol\":4362:4855  function invest() public payable onlyAdmin returns(bool){\r... */\n    tag_20:\n      tag_114\n      tag_115\n      jump\t// in\n    tag_114:\n      mload(0x40)\n      tag_116\n      swap2\n      swap1\n      tag_36\n      jump\t// in\n    tag_116:\n      mload(0x40)\n      dup1\n      swap2\n      sub\n      swap1\n      return\n        /* \"contracts/Erc20token.sol\":3320:3340  address public admin */\n    tag_21:\n      callvalue\n      dup1\n      iszero\n      tag_117\n      jumpi\n      0x00\n      dup1\n      revert\n    tag_117:\n      pop\n      tag_118\n      tag_119\n      jump\t// in\n    tag_118:\n      mload(0x40)\n      tag_120\n      swap2\n      swap1\n      tag_76\n      jump\t// in\n    tag_120:\n      mload(0x40)\n      dup1\n      swap2\n      sub\n      swap1\n      return\n        /* \"contracts/Erc20token.sol\":1033:1062  string public name = \"ZILLAX\" */\n    tag_27:\n      0x00\n      dup1\n      sload\n      tag_121\n      swap1\n      tag_122\n      jump\t// in\n    tag_121:\n      dup1\n      0x1f\n      add\n      0x20\n      dup1\n      swap2\n      div\n      mul\n      0x20\n      add\n      mload(0x40)\n      swap1\n      dup2\n      add\n      0x40\n      mstore\n      dup1\n      swap3\n      swap2\n      swap1\n      dup2\n      dup2\n      mstore\n      0x20\n      add\n      dup3\n      dup1\n      sload\n      tag_123\n      swap1\n      tag_122\n      jump\t// in\n    tag_123:\n      dup1\n      iszero\n      tag_124\n      jumpi\n      dup1\n      0x1f\n      lt\n      tag_125\n      jumpi\n      0x0100\n      dup1\n      dup4\n      sload\n      div\n      mul\n      dup4\n      mstore\n      swap2\n      0x20\n      add\n      swap2\n      jump(tag_124)\n    tag_125:\n      dup3\n      add\n      swap2\n      swap1\n      0x00\n      mstore\n      keccak256(0x00, 0x20)\n      swap1\n    tag_126:\n      dup2\n      sload\n      dup2\n      mstore\n      swap1\n      0x01\n      add\n      swap1\n      0x20\n      add\n      dup1\n      dup4\n      gt\n      tag_126\n      jumpi\n      dup3\n      swap1\n      sub\n      0x1f\n      and\n      dup3\n      add\n      swap2\n    tag_124:\n      pop\n      pop\n      pop\n      pop\n      pop\n      dup2\n      jump\t// out\n        /* \"contracts/Erc20token.sol\":2225:2627  function approve(address spender, uint tokens) public override returns (bool success){\r... */\n    tag_34:\n        /* \"contracts/Erc20token.sol\":2297:2309  bool success */\n      0x00\n        /* \"contracts/Erc20token.sol\":2355:2361  tokens */\n      dup2\n        /* \"contracts/Erc20token.sol\":2331:2339  balances */\n      0x05\n        /* \"contracts/Erc20token.sol\":2331:2351  balances[msg.sender] */\n      0x00\n        /* \"contracts/Erc20token.sol\":2340:2350  msg.sender */\n      caller\n        /* \"contracts/Erc20token.sol\":2331:2351  balances[msg.sender] */\n      0xffffffffffffffffffffffffffffffffffffffff\n      and\n      0xffffffffffffffffffffffffffffffffffffffff\n      and\n      dup2\n      mstore\n      0x20\n      add\n      swap1\n      dup2\n      mstore\n      0x20\n      add\n      0x00\n      keccak256\n      sload\n        /* \"contracts/Erc20token.sol\":2331:2361  balances[msg.sender] >= tokens */\n      lt\n      iszero\n        /* \"contracts/Erc20token.sol\":2323:2414  require(balances[msg.sender] >= tokens, \"Token value is greater than your current holding\") */\n      tag_128\n      jumpi\n      mload(0x40)\n      0x08c379a000000000000000000000000000000000000000000000000000000000\n      dup2\n      mstore\n      0x04\n      add\n      tag_129\n      swap1\n      tag_130\n      jump\t// in\n    tag_129:\n      mload(0x40)\n      dup1\n      swap2\n      sub\n      swap1\n      revert\n    tag_128:\n        /* \"contracts/Erc20token.sol\":2442:2443  0 */\n      0x00\n        /* \"contracts/Erc20token.sol\":2433:2439  tokens */\n      dup3\n        /* \"contracts/Erc20token.sol\":2433:2443  tokens > 0 */\n      gt\n        /* \"contracts/Erc20token.sol\":2425:2482  require(tokens > 0, \"Token value must be greater than 0\") */\n      tag_131\n      jumpi\n      mload(0x40)\n      0x08c379a000000000000000000000000000000000000000000000000000000000\n      dup2\n      mstore\n      0x04\n      add\n      tag_132\n      swap1\n      tag_133\n      jump\t// in\n    tag_132:\n      mload(0x40)\n      dup1\n      swap2\n      sub\n      swap1\n      revert\n    tag_131:\n        /* \"contracts/Erc20token.sol\":2534:2540  tokens */\n      dup2\n        /* \"contracts/Erc20token.sol\":2503:2510  allowed */\n      0x06\n        /* \"contracts/Erc20token.sol\":2503:2522  allowed[msg.sender] */\n      0x00\n        /* \"contracts/Erc20token.sol\":2511:2521  msg.sender */\n      caller\n        /* \"contracts/Erc20token.sol\":2503:2522  allowed[msg.sender] */\n      0xffffffffffffffffffffffffffffffffffffffff\n      and\n      0xffffffffffffffffffffffffffffffffffffffff\n      and\n      dup2\n      mstore\n      0x20\n      add\n      swap1\n      dup2\n      mstore\n      0x20\n      add\n      0x00\n      keccak256\n        /* \"contracts/Erc20token.sol\":2503:2531  allowed[msg.sender][spender] */\n      0x00\n        /* \"contracts/Erc20token.sol\":2523:2530  spender */\n      dup6\n        /* \"contracts/Erc20token.sol\":2503:2531  allowed[msg.sender][spender] */\n      0xffffffffffffffffffffffffffffffffffffffff\n      and\n      0xffffffffffffffffffffffffffffffffffffffff\n      and\n      dup2\n      mstore\n      0x20\n      add\n      swap1\n      dup2\n      mstore\n      0x20\n      add\n      0x00\n      keccak256\n        /* \"contracts/Erc20token.sol\":2503:2540  allowed[msg.sender][spender] = tokens */\n      dup2\n      swap1\n      sstore\n      pop\n        /* \"contracts/Erc20token.sol\":2579:2586  spender */\n      dup3\n        /* \"contracts/Erc20token.sol\":2558:2595  Approval(msg.sender, spender, tokens) */\n      0xffffffffffffffffffffffffffffffffffffffff\n      and\n        /* \"contracts/Erc20token.sol\":2567:2577  msg.sender */\n      caller\n        /* \"contracts/Erc20token.sol\":2558:2595  Approval(msg.sender, spender, tokens) */\n      0xffffffffffffffffffffffffffffffffffffffff\n      and\n      0x8c5be1e5ebec7d5bd14f71427d1e84f3dd0314c0f7b2291e5b200ac8c7c3b925\n        /* \"contracts/Erc20token.sol\":2588:2594  tokens */\n      dup5\n        /* \"contracts/Erc20token.sol\":2558:2595  Approval(msg.sender, spender, tokens) */\n      mload(0x40)\n      tag_134\n      swap2\n      swap1\n      tag_41\n      jump\t// in\n    tag_134:\n      mload(0x40)\n      dup1\n      swap2\n      sub\n      swap1\n      log3\n        /* \"contracts/Erc20token.sol\":2615:2619  true */\n      0x01\n        /* \"contracts/Erc20token.sol\":2608:2619  return true */\n      swap1\n      pop\n        /* \"contracts/Erc20token.sol\":2225:2627  function approve(address spender, uint tokens) public override returns (bool success){\r... */\n      swap3\n      swap2\n      pop\n      pop\n      jump\t// out\n        /* \"contracts/Erc20token.sol\":1168:1200  uint public override totalSupply */\n    tag_39:\n      sload(0x04)\n      dup2\n      jump\t// out\n        /* \"contracts/Erc20token.sol\":2635:3271  function transferFrom(address from, address to, uint tokens) public override returns (bool success){\r... */\n    tag_46:\n        /* \"contracts/Erc20token.sol\":2721:2733  bool success */\n      0x00\n        /* \"contracts/Erc20token.sol\":2782:2788  tokens */\n      dup2\n        /* \"contracts/Erc20token.sol\":2753:2760  allowed */\n      0x06\n        /* \"contracts/Erc20token.sol\":2753:2766  allowed[from] */\n      0x00\n        /* \"contracts/Erc20token.sol\":2761:2765  from */\n      dup7\n        /* \"contracts/Erc20token.sol\":2753:2766  allowed[from] */\n      0xffffffffffffffffffffffffffffffffffffffff\n      and\n      0xffffffffffffffffffffffffffffffffffffffff\n      and\n      dup2\n      mstore\n      0x20\n      add\n      swap1\n      dup2\n      mstore\n      0x20\n      add\n      0x00\n      keccak256\n        /* \"contracts/Erc20token.sol\":2753:2778  allowed[from][msg.sender] */\n      0x00\n        /* \"contracts/Erc20token.sol\":2767:2777  msg.sender */\n      caller\n        /* \"contracts/Erc20token.sol\":2753:2778  allowed[from][msg.sender] */\n      0xffffffffffffffffffffffffffffffffffffffff\n      and\n      0xffffffffffffffffffffffffffffffffffffffff\n      and\n      dup2\n      mstore\n      0x20\n      add\n      swap1\n      dup2\n      mstore\n      0x20\n      add\n      0x00\n      keccak256\n      sload\n        /* \"contracts/Erc20token.sol\":2753:2788  allowed[from][msg.sender] >= tokens */\n      lt\n      iszero\n        /* \"contracts/Erc20token.sol\":2745:2841  require(allowed[from][msg.sender] >= tokens, \"Token value is greater than the approved balance\") */\n      tag_136\n      jumpi\n      mload(0x40)\n      0x08c379a000000000000000000000000000000000000000000000000000000000\n      dup2\n      mstore\n      0x04\n      add\n      tag_137\n      swap1\n      tag_138\n      jump\t// in\n    tag_137:\n      mload(0x40)\n      dup1\n      swap2\n      sub\n      swap1\n      revert\n    tag_136:\n        /* \"contracts/Erc20token.sol\":2878:2884  tokens */\n      dup2\n        /* \"contracts/Erc20token.sol\":2860:2868  balances */\n      0x05\n        /* \"contracts/Erc20token.sol\":2860:2874  balances[from] */\n      0x00\n        /* \"contracts/Erc20token.sol\":2869:2873  from */\n      dup7\n        /* \"contracts/Erc20token.sol\":2860:2874  balances[from] */\n      0xffffffffffffffffffffffffffffffffffffffff\n      and\n      0xffffffffffffffffffffffffffffffffffffffff\n      and\n      dup2\n      mstore\n      0x20\n      add\n      swap1\n      dup2\n      mstore\n      0x20\n      add\n      0x00\n      keccak256\n      sload\n        /* \"contracts/Erc20token.sol\":2860:2884  balances[from] >= tokens */\n      lt\n      iszero\n        /* \"contracts/Erc20token.sol\":2852:2907  require(balances[from] >= tokens, \"Insuficient Balnce\") */\n      tag_139\n      jumpi\n      mload(0x40)\n      0x08c379a000000000000000000000000000000000000000000000000000000000\n      dup2\n      mstore\n      0x04\n      add\n      tag_140\n      swap1\n      tag_141\n      jump\t// in\n    tag_140:\n      mload(0x40)\n      dup1\n      swap2\n      sub\n      swap1\n      revert\n    tag_139:\n        /* \"contracts/Erc20token.sol\":2935:2936  0 */\n      0x00\n        /* \"contracts/Erc20token.sol\":2926:2932  tokens */\n      dup3\n        /* \"contracts/Erc20token.sol\":2926:2936  tokens > 0 */\n      gt\n        /* \"contracts/Erc20token.sol\":2918:2975  require(tokens > 0, \"Token value must be greater than 0\") */\n      tag_142\n      jumpi\n      mload(0x40)\n      0x08c379a000000000000000000000000000000000000000000000000000000000\n      dup2\n      mstore\n      0x04\n      add\n      tag_143\n      swap1\n      tag_133\n      jump\t// in\n    tag_143:\n      mload(0x40)\n      dup1\n      swap2\n      sub\n      swap1\n      revert\n    tag_142:\n        /* \"contracts/Erc20token.sol\":3017:3023  tokens */\n      dup2\n        /* \"contracts/Erc20token.sol\":2988:2995  allowed */\n      0x06\n        /* \"contracts/Erc20token.sol\":2988:3001  allowed[from] */\n      0x00\n        /* \"contracts/Erc20token.sol\":2996:3000  from */\n      dup7\n        /* \"contracts/Erc20token.sol\":2988:3001  allowed[from] */\n      0xffffffffffffffffffffffffffffffffffffffff\n      and\n      0xffffffffffffffffffffffffffffffffffffffff\n      and\n      dup2\n      mstore\n      0x20\n      add\n      swap1\n      dup2\n      mstore\n      0x20\n      add\n      0x00\n      keccak256\n        /* \"contracts/Erc20token.sol\":2988:3013  allowed[from][msg.sender] */\n      0x00\n        /* \"contracts/Erc20token.sol\":3002:3012  msg.sender */\n      caller\n        /* \"contracts/Erc20token.sol\":2988:3013  allowed[from][msg.sender] */\n      0xffffffffffffffffffffffffffffffffffffffff\n      and\n      0xffffffffffffffffffffffffffffffffffffffff\n      and\n      dup2\n      mstore\n      0x20\n      add\n      swap1\n      dup2\n      mstore\n      0x20\n      add\n      0x00\n      keccak256\n      0x00\n        /* \"contracts/Erc20token.sol\":2988:3023  allowed[from][msg.sender] -= tokens */\n      dup3\n      dup3\n      sload\n      tag_144\n      swap2\n      swap1\n      tag_145\n      jump\t// in\n    tag_144:\n      swap3\n      pop\n      pop\n      dup2\n      swap1\n      sstore\n      pop\n        /* \"contracts/Erc20token.sol\":3105:3111  tokens */\n      dup2\n        /* \"contracts/Erc20token.sol\":3087:3095  balances */\n      0x05\n        /* \"contracts/Erc20token.sol\":3087:3101  balances[from] */\n      0x00\n        /* \"contracts/Erc20token.sol\":3096:3100  from */\n      dup7\n        /* \"contracts/Erc20token.sol\":3087:3101  balances[from] */\n      0xffffffffffffffffffffffffffffffffffffffff\n      and\n      0xffffffffffffffffffffffffffffffffffffffff\n      and\n      dup2\n      mstore\n      0x20\n      add\n      swap1\n      dup2\n      mstore\n      0x20\n      add\n      0x00\n      keccak256\n      0x00\n        /* \"contracts/Erc20token.sol\":3087:3111  balances[from] -= tokens */\n      dup3\n      dup3\n      sload\n      tag_146\n      swap2\n      swap1\n      tag_145\n      jump\t// in\n    tag_146:\n      swap3\n      pop\n      pop\n      dup2\n      swap1\n      sstore\n      pop\n        /* \"contracts/Erc20token.sol\":3189:3195  tokens */\n      dup2\n        /* \"contracts/Erc20token.sol\":3173:3181  balances */\n      0x05\n        /* \"contracts/Erc20token.sol\":3173:3185  balances[to] */\n      0x00\n        /* \"contracts/Erc20token.sol\":3182:3184  to */\n      dup6\n        /* \"contracts/Erc20token.sol\":3173:3185  balances[to] */\n      0xffffffffffffffffffffffffffffffffffffffff\n      and\n      0xffffffffffffffffffffffffffffffffffffffff\n      and\n      dup2\n      mstore\n      0x20\n      add\n      swap1\n      dup2\n      mstore\n      0x20\n      add\n      0x00\n      keccak256\n      0x00\n        /* \"contracts/Erc20token.sol\":3173:3195  balances[to] += tokens */\n      dup3\n      dup3\n      sload\n      tag_147\n      swap2\n      swap1\n      tag_148\n      jump\t// in\n    tag_147:\n      swap3\n      pop\n      pop\n      dup2\n      swap1\n      sstore\n      pop\n        /* \"contracts/Erc20token.sol\":3228:3230  to */\n      dup3\n        /* \"contracts/Erc20token.sol\":3213:3239  Transfer(from, to, tokens) */\n      0xffffffffffffffffffffffffffffffffffffffff\n      and\n        /* \"contracts/Erc20token.sol\":3222:3226  from */\n      dup5\n        /* \"contracts/Erc20token.sol\":3213:3239  Transfer(from, to, tokens) */\n      0xffffffffffffffffffffffffffffffffffffffff\n      and\n      0xddf252ad1be2c89b69c2b068fc378daa952ba7f163c4a11628f55a4df523b3ef\n        /* \"contracts/Erc20token.sol\":3232:3238  tokens */\n      dup5\n        /* \"contracts/Erc20token.sol\":3213:3239  Transfer(from, to, tokens) */\n      mload(0x40)\n      tag_149\n      swap2\n      swap1\n      tag_41\n      jump\t// in\n    tag_149:\n      mload(0x40)\n      dup1\n      swap2\n      sub\n      swap1\n      log3\n        /* \"contracts/Erc20token.sol\":3259:3263  true */\n      0x01\n        /* \"contracts/Erc20token.sol\":3252:3263  return true */\n      swap1\n      pop\n        /* \"contracts/Erc20token.sol\":2635:3271  function transferFrom(address from, address to, uint tokens) public override returns (bool success){\r... */\n      swap4\n      swap3\n      pop\n      pop\n      pop\n      jump\t// out\n        /* \"contracts/Erc20token.sol\":1209:1250  mapping(address => uint) public  balances */\n    tag_52:\n      mstore(0x20, 0x05)\n      dup1\n      0x00\n      mstore\n      keccak256(0x00, 0x40)\n      0x00\n      swap2\n      pop\n      swap1\n      pop\n      sload\n      dup2\n      jump\t// out\n        /* \"contracts/Erc20token.sol\":3780:3817  address payable public depositAddress */\n    tag_56:\n      0x0c\n      0x01\n      swap1\n      sload\n      swap1\n      0x0100\n      exp\n      swap1\n      div\n      0xffffffffffffffffffffffffffffffffffffffff\n      and\n      dup2\n      jump\t// out\n        /* \"contracts/Erc20token.sol\":1104:1128  uint public decimals = 0 */\n    tag_61:\n      sload(0x02)\n      dup2\n      jump\t// out\n        /* \"contracts/Erc20token.sol\":3520:3539  uint public endTime */\n    tag_65:\n      sload(0x09)\n      dup2\n      jump\t// out\n        /* \"contracts/Erc20token.sol\":3723:3744  State public icoState */\n    tag_69:\n      0x0c\n      0x00\n      swap1\n      sload\n      swap1\n      0x0100\n      exp\n      swap1\n      div\n      0xff\n      and\n      dup2\n      jump\t// out\n        /* \"contracts/Erc20token.sol\":1137:1159  address public founder */\n    tag_74:\n      0x03\n      0x00\n      swap1\n      sload\n      swap1\n      0x0100\n      exp\n      swap1\n      div\n      0xffffffffffffffffffffffffffffffffffffffff\n      and\n      dup2\n      jump\t// out\n        /* \"contracts/Erc20token.sol\":1259:1318  mapping(address => mapping(address => uint)) public allowed */\n    tag_81:\n      mstore(0x20, 0x06)\n      dup2\n      0x00\n      mstore\n      mstore(0x20, keccak256(0x00, 0x40))\n      dup1\n      0x00\n      mstore\n      keccak256(0x00, 0x40)\n      0x00\n      swap2\n      pop\n      swap2\n      pop\n      pop\n      sload\n      dup2\n      jump\t// out\n        /* \"contracts/Erc20token.sol\":1461:1589  function balanceOf(address tokenOwner) public override view returns (uint balance){\r... */\n    tag_86:\n        /* \"contracts/Erc20token.sol\":1530:1542  uint balance */\n      0x00\n        /* \"contracts/Erc20token.sol\":1561:1569  balances */\n      0x05\n        /* \"contracts/Erc20token.sol\":1561:1581  balances[tokenOwner] */\n      0x00\n        /* \"contracts/Erc20token.sol\":1570:1580  tokenOwner */\n      dup4\n        /* \"contracts/Erc20token.sol\":1561:1581  balances[tokenOwner] */\n      0xffffffffffffffffffffffffffffffffffffffff\n      and\n      0xffffffffffffffffffffffffffffffffffffffff\n      and\n      dup2\n      mstore\n      0x20\n      add\n      swap1\n      dup2\n      mstore\n      0x20\n      add\n      0x00\n      keccak256\n      sload\n        /* \"contracts/Erc20token.sol\":1554:1581  return balances[tokenOwner] */\n      swap1\n      pop\n        /* \"contracts/Erc20token.sol\":1461:1589  function balanceOf(address tokenOwner) public override view returns (uint balance){\r... */\n      swap2\n      swap1\n      pop\n      jump\t// out\n        /* \"contracts/Erc20token.sol\":3474:3513  uint public startTime = block.timestamp */\n    tag_90:\n      sload(0x08)\n      dup2\n      jump\t// out\n        /* \"contracts/Erc20token.sol\":1069:1097  string public symbol = \"ZLZ\" */\n    tag_94:\n      0x01\n      dup1\n      sload\n      tag_151\n      swap1\n      tag_122\n      jump\t// in\n    tag_151:\n      dup1\n      0x1f\n      add\n      0x20\n      dup1\n      swap2\n      div\n      mul\n      0x20\n      add\n      mload(0x40)\n      swap1\n      dup2\n      add\n      0x40\n      mstore\n      dup1\n      swap3\n      swap2\n      swap1\n      dup2\n      dup2\n      mstore\n      0x20\n      add\n      dup3\n      dup1\n      sload\n      tag_152\n      swap1\n      tag_122\n      jump\t// in\n    tag_152:\n      dup1\n      iszero\n      tag_153\n      jumpi\n      dup1\n      0x1f\n      lt\n      tag_154\n      jumpi\n      0x0100\n      dup1\n      dup4\n      sload\n      div\n      mul\n      dup4\n      mstore\n      swap2\n      0x20\n      add\n      swap2\n      jump(tag_153)\n    tag_154:\n      dup3\n      add\n      swap2\n      swap1\n      0x00\n      mstore\n      keccak256(0x00, 0x20)\n      swap1\n    tag_155:\n      dup2\n      sload\n      dup2\n      mstore\n      swap1\n      0x01\n      add\n      swap1\n      0x20\n      add\n      dup1\n      dup4\n      gt\n      tag_155\n      jumpi\n      dup3\n      swap1\n      sub\n      0x1f\n      and\n      dup3\n      add\n      swap2\n    tag_153:\n      pop\n      pop\n      pop\n      pop\n      pop\n      dup2\n      jump\t// out\n        /* \"contracts/Erc20token.sol\":1643:1964  function transfer(address to, uint tokens) public override returns (bool success){\r... */\n    tag_99:\n        /* \"contracts/Erc20token.sol\":1711:1723  bool success */\n      0x00\n        /* \"contracts/Erc20token.sol\":1767:1773  tokens */\n      dup2\n        /* \"contracts/Erc20token.sol\":1743:1751  balances */\n      0x05\n        /* \"contracts/Erc20token.sol\":1743:1763  balances[msg.sender] */\n      0x00\n        /* \"contracts/Erc20token.sol\":1752:1762  msg.sender */\n      caller\n        /* \"contracts/Erc20token.sol\":1743:1763  balances[msg.sender] */\n      0xffffffffffffffffffffffffffffffffffffffff\n      and\n      0xffffffffffffffffffffffffffffffffffffffff\n      and\n      dup2\n      mstore\n      0x20\n      add\n      swap1\n      dup2\n      mstore\n      0x20\n      add\n      0x00\n      keccak256\n      sload\n        /* \"contracts/Erc20token.sol\":1743:1773  balances[msg.sender] >= tokens */\n      lt\n      iszero\n        /* \"contracts/Erc20token.sol\":1735:1806  require(balances[msg.sender] >= tokens, \"Insufficient Account Balance\") */\n      tag_157\n      jumpi\n      mload(0x40)\n      0x08c379a000000000000000000000000000000000000000000000000000000000\n      dup2\n      mstore\n      0x04\n      add\n      tag_158\n      swap1\n      tag_159\n      jump\t// in\n    tag_158:\n      mload(0x40)\n      dup1\n      swap2\n      sub\n      swap1\n      revert\n    tag_157:\n        /* \"contracts/Erc20token.sol\":1835:1841  tokens */\n      dup2\n        /* \"contracts/Erc20token.sol\":1819:1827  balances */\n      0x05\n        /* \"contracts/Erc20token.sol\":1819:1831  balances[to] */\n      0x00\n        /* \"contracts/Erc20token.sol\":1828:1830  to */\n      dup6\n        /* \"contracts/Erc20token.sol\":1819:1831  balances[to] */\n      0xffffffffffffffffffffffffffffffffffffffff\n      and\n      0xffffffffffffffffffffffffffffffffffffffff\n      and\n      dup2\n      mstore\n      0x20\n      add\n      swap1\n      dup2\n      mstore\n      0x20\n      add\n      0x00\n      keccak256\n      0x00\n        /* \"contracts/Erc20token.sol\":1819:1841  balances[to] += tokens */\n      dup3\n      dup3\n      sload\n      tag_160\n      swap2\n      swap1\n      tag_148\n      jump\t// in\n    tag_160:\n      swap3\n      pop\n      pop\n      dup2\n      swap1\n      sstore\n      pop\n        /* \"contracts/Erc20token.sol\":1876:1882  tokens */\n      dup2\n        /* \"contracts/Erc20token.sol\":1852:1860  balances */\n      0x05\n        /* \"contracts/Erc20token.sol\":1852:1872  balances[msg.sender] */\n      0x00\n        /* \"contracts/Erc20token.sol\":1861:1871  msg.sender */\n      caller\n        /* \"contracts/Erc20token.sol\":1852:1872  balances[msg.sender] */\n      0xffffffffffffffffffffffffffffffffffffffff\n      and\n      0xffffffffffffffffffffffffffffffffffffffff\n      and\n      dup2\n      mstore\n      0x20\n      add\n      swap1\n      dup2\n      mstore\n      0x20\n      add\n      0x00\n      keccak256\n      0x00\n        /* \"contracts/Erc20token.sol\":1852:1882  balances[msg.sender] -= tokens */\n      dup3\n      dup3\n      sload\n      tag_161\n      swap2\n      swap1\n      tag_145\n      jump\t// in\n    tag_161:\n      swap3\n      pop\n      pop\n      dup2\n      swap1\n      sstore\n      pop\n        /* \"contracts/Erc20token.sol\":1921:1923  to */\n      dup3\n        /* \"contracts/Erc20token.sol\":1900:1932  Transfer(msg.sender, to, tokens) */\n      0xffffffffffffffffffffffffffffffffffffffff\n      and\n        /* \"contracts/Erc20token.sol\":1909:1919  msg.sender */\n      caller\n        /* \"contracts/Erc20token.sol\":1900:1932  Transfer(msg.sender, to, tokens) */\n      0xffffffffffffffffffffffffffffffffffffffff\n      and\n      0xddf252ad1be2c89b69c2b068fc378daa952ba7f163c4a11628f55a4df523b3ef\n        /* \"contracts/Erc20token.sol\":1925:1931  tokens */\n      dup5\n        /* \"contracts/Erc20token.sol\":1900:1932  Transfer(msg.sender, to, tokens) */\n      mload(0x40)\n      tag_162\n      swap2\n      swap1\n      tag_41\n      jump\t// in\n    tag_162:\n      mload(0x40)\n      dup1\n      swap2\n      sub\n      swap1\n      log3\n        /* \"contracts/Erc20token.sol\":1952:1956  true */\n      0x01\n        /* \"contracts/Erc20token.sol\":1945:1956  return true */\n      swap1\n      pop\n        /* \"contracts/Erc20token.sol\":1643:1964  function transfer(address to, uint tokens) public override returns (bool success){\r... */\n      swap3\n      swap2\n      pop\n      pop\n      jump\t// out\n        /* \"contracts/Erc20token.sol\":3639:3674  uint public maximumAmount = 1 ether */\n    tag_103:\n      sload(0x0b)\n      dup2\n      jump\t// out\n        /* \"contracts/Erc20token.sol\":3595:3632  uint public minimumAmount = 0.1 ether */\n    tag_107:\n      sload(0x0a)\n      dup2\n      jump\t// out\n        /* \"contracts/Erc20token.sol\":2062:2217  function allowance(address tokenOwner, address spender) public override view returns (uint remaining){\r... */\n    tag_112:\n        /* \"contracts/Erc20token.sol\":2148:2162  uint remaining */\n      0x00\n        /* \"contracts/Erc20token.sol\":2181:2188  allowed */\n      0x06\n        /* \"contracts/Erc20token.sol\":2181:2200  allowed[tokenOwner] */\n      0x00\n        /* \"contracts/Erc20token.sol\":2189:2199  tokenOwner */\n      dup5\n        /* \"contracts/Erc20token.sol\":2181:2200  allowed[tokenOwner] */\n      0xffffffffffffffffffffffffffffffffffffffff\n      and\n      0xffffffffffffffffffffffffffffffffffffffff\n      and\n      dup2\n      mstore\n      0x20\n      add\n      swap1\n      dup2\n      mstore\n      0x20\n      add\n      0x00\n      keccak256\n        /* \"contracts/Erc20token.sol\":2181:2209  allowed[tokenOwner][spender] */\n      0x00\n        /* \"contracts/Erc20token.sol\":2201:2208  spender */\n      dup4\n        /* \"contracts/Erc20token.sol\":2181:2209  allowed[tokenOwner][spender] */\n      0xffffffffffffffffffffffffffffffffffffffff\n      and\n      0xffffffffffffffffffffffffffffffffffffffff\n      and\n      dup2\n      mstore\n      0x20\n      add\n      swap1\n      dup2\n      mstore\n      0x20\n      add\n      0x00\n      keccak256\n      sload\n        /* \"contracts/Erc20token.sol\":2174:2209  return allowed[tokenOwner][spender] */\n      swap1\n      pop\n        /* \"contracts/Erc20token.sol\":2062:2217  function allowance(address tokenOwner, address spender) public override view returns (uint remaining){\r... */\n      swap3\n      swap2\n      pop\n      pop\n      jump\t// out\n        /* \"contracts/Erc20token.sol\":4362:4855  function invest() public payable onlyAdmin returns(bool){\r... */\n    tag_115:\n        /* \"contracts/Erc20token.sol\":4413:4417  bool */\n      0x00\n        /* \"contracts/Erc20token.sol\":4249:4254  admin */\n      0x07\n      0x00\n      swap1\n      sload\n      swap1\n      0x0100\n      exp\n      swap1\n      div\n      0xffffffffffffffffffffffffffffffffffffffff\n      and\n        /* \"contracts/Erc20token.sol\":4235:4254  msg.sender == admin */\n      0xffffffffffffffffffffffffffffffffffffffff\n      and\n        /* \"contracts/Erc20token.sol\":4235:4245  msg.sender */\n      caller\n        /* \"contracts/Erc20token.sol\":4235:4254  msg.sender == admin */\n      0xffffffffffffffffffffffffffffffffffffffff\n      and\n      eq\n        /* \"contracts/Erc20token.sol\":4227:4293  require(msg.sender == admin, \"Access denied, you ae not an admin\") */\n      tag_165\n      jumpi\n      mload(0x40)\n      0x08c379a000000000000000000000000000000000000000000000000000000000\n      dup2\n      mstore\n      0x04\n      add\n      tag_166\n      swap1\n      tag_167\n      jump\t// in\n    tag_166:\n      mload(0x40)\n      dup1\n      swap2\n      sub\n      swap1\n      revert\n    tag_165:\n        /* \"contracts/Erc20token.sol\":4451:4452  0 */\n      0x00\n        /* \"contracts/Erc20token.sol\":4439:4448  msg.value */\n      callvalue\n        /* \"contracts/Erc20token.sol\":4439:4452  msg.value > 0 */\n      gt\n        /* \"contracts/Erc20token.sol\":4431:4489  require(msg.value > 0, \"Amount must be greater than zero\") */\n      tag_169\n      jumpi\n      mload(0x40)\n      0x08c379a000000000000000000000000000000000000000000000000000000000\n      dup2\n      mstore\n      0x04\n      add\n      tag_170\n      swap1\n      tag_171\n      jump\t// in\n    tag_170:\n      mload(0x40)\n      dup1\n      swap2\n      sub\n      swap1\n      revert\n    tag_169:\n        /* \"contracts/Erc20token.sol\":4502:4518  string memory s1 */\n      0x00\n        /* \"contracts/Erc20token.sol\":4580:4593  minimumAmount */\n      sload(0x0a)\n        /* \"contracts/Erc20token.sol\":4528:4594  abi.encodePacked(\"Amount cannot not be lower than\", minimumAmount) */\n      add(0x20, mload(0x40))\n      tag_172\n      swap2\n      swap1\n      tag_173\n      jump\t// in\n    tag_172:\n      mload(0x40)\n      0x20\n      dup2\n      dup4\n      sub\n      sub\n      dup2\n      mstore\n      swap1\n      0x40\n      mstore\n        /* \"contracts/Erc20token.sol\":4502:4595  string memory s1 = string(abi.encodePacked(\"Amount cannot not be lower than\", minimumAmount)) */\n      swap1\n      pop\n        /* \"contracts/Erc20token.sol\":4606:4622  string memory s2 */\n      0x00\n        /* \"contracts/Erc20token.sol\":4686:4699  maximumAmount */\n      sload(0x0b)\n        /* \"contracts/Erc20token.sol\":4632:4700  abi.encodePacked(\"Amount cannot not be higgher than\", maximumAmount) */\n      add(0x20, mload(0x40))\n      tag_174\n      swap2\n      swap1\n      tag_175\n      jump\t// in\n    tag_174:\n      mload(0x40)\n      0x20\n      dup2\n      dup4\n      sub\n      sub\n      dup2\n      mstore\n      swap1\n      0x40\n      mstore\n        /* \"contracts/Erc20token.sol\":4606:4701  string memory s2 = string(abi.encodePacked(\"Amount cannot not be higgher than\", maximumAmount)) */\n      swap1\n      pop\n        /* \"contracts/Erc20token.sol\":4712:4728  string memory s3 */\n      0x00\n        /* \"contracts/Erc20token.sol\":4755:4757  s1 */\n      dup3\n        /* \"contracts/Erc20token.sol\":4759:4761  s2 */\n      dup3\n        /* \"contracts/Erc20token.sol\":4738:4762  abi.encodePacked(s1, s2) */\n      add(0x20, mload(0x40))\n      tag_176\n      swap3\n      swap2\n      swap1\n      tag_177\n      jump\t// in\n    tag_176:\n      mload(0x40)\n      0x20\n      dup2\n      dup4\n      sub\n      sub\n      dup2\n      mstore\n      swap1\n      0x40\n      mstore\n        /* \"contracts/Erc20token.sol\":4712:4763  string memory s3 = string(abi.encodePacked(s1, s2)) */\n      swap1\n      pop\n        /* \"contracts/Erc20token.sol\":4795:4808  minimumAmount */\n      sload(0x0a)\n        /* \"contracts/Erc20token.sol\":4782:4791  msg.value */\n      callvalue\n        /* \"contracts/Erc20token.sol\":4782:4808  msg.value >= minimumAmount */\n      lt\n      iszero\n        /* \"contracts/Erc20token.sol\":4782:4838  msg.value >= minimumAmount && msg.value <= maximumAmount */\n      dup1\n      iszero\n      tag_178\n      jumpi\n      pop\n        /* \"contracts/Erc20token.sol\":4825:4838  maximumAmount */\n      sload(0x0b)\n        /* \"contracts/Erc20token.sol\":4812:4821  msg.value */\n      callvalue\n        /* \"contracts/Erc20token.sol\":4812:4838  msg.value <= maximumAmount */\n      gt\n      iszero\n        /* \"contracts/Erc20token.sol\":4782:4838  msg.value >= minimumAmount && msg.value <= maximumAmount */\n    tag_178:\n        /* \"contracts/Erc20token.sol\":4840:4842  s3 */\n      dup2\n        /* \"contracts/Erc20token.sol\":4774:4843  require(msg.value >= minimumAmount && msg.value <= maximumAmount, s3) */\n      swap1\n      tag_179\n      jumpi\n      mload(0x40)\n      0x08c379a000000000000000000000000000000000000000000000000000000000\n      dup2\n      mstore\n      0x04\n      add\n      tag_180\n      swap2\n      swap1\n      tag_29\n      jump\t// in\n    tag_180:\n      mload(0x40)\n      dup1\n      swap2\n      sub\n      swap1\n      revert\n    tag_179:\n      pop\n        /* \"contracts/Erc20token.sol\":4418:4855  {\r... */\n      pop\n      pop\n      pop\n        /* \"contracts/Erc20token.sol\":4362:4855  function invest() public payable onlyAdmin returns(bool){\r... */\n      swap1\n      jump\t// out\n        /* \"contracts/Erc20token.sol\":3320:3340  address public admin */\n    tag_119:\n      0x07\n      0x00\n      swap1\n      sload\n      swap1\n      0x0100\n      exp\n      swap1\n      div\n      0xffffffffffffffffffffffffffffffffffffffff\n      and\n      dup2\n      jump\t// out\n        /* \"#utility.yul\":7:146   */\n    tag_182:\n        /* \"#utility.yul\":53:58   */\n      0x00\n        /* \"#utility.yul\":91:97   */\n      dup2\n        /* \"#utility.yul\":78:98   */\n      calldataload\n        /* \"#utility.yul\":69:98   */\n      swap1\n      pop\n        /* \"#utility.yul\":107:140   */\n      tag_184\n        /* \"#utility.yul\":134:139   */\n      dup2\n        /* \"#utility.yul\":107:140   */\n      tag_185\n      jump\t// in\n    tag_184:\n        /* \"#utility.yul\":7:146   */\n      swap3\n      swap2\n      pop\n      pop\n      jump\t// out\n        /* \"#utility.yul\":152:291   */\n    tag_186:\n        /* \"#utility.yul\":198:203   */\n      0x00\n        /* \"#utility.yul\":236:242   */\n      dup2\n        /* \"#utility.yul\":223:243   */\n      calldataload\n        /* \"#utility.yul\":214:243   */\n      swap1\n      pop\n        /* \"#utility.yul\":252:285   */\n      tag_188\n        /* \"#utility.yul\":279:284   */\n      dup2\n        /* \"#utility.yul\":252:285   */\n      tag_189\n      jump\t// in\n    tag_188:\n        /* \"#utility.yul\":152:291   */\n      swap3\n      swap2\n      pop\n      pop\n      jump\t// out\n        /* \"#utility.yul\":297:626   */\n    tag_51:\n        /* \"#utility.yul\":356:362   */\n      0x00\n        /* \"#utility.yul\":405:407   */\n      0x20\n        /* \"#utility.yul\":393:402   */\n      dup3\n        /* \"#utility.yul\":384:391   */\n      dup5\n        /* \"#utility.yul\":380:403   */\n      sub\n        /* \"#utility.yul\":376:408   */\n      slt\n        /* \"#utility.yul\":373:492   */\n      iszero\n      tag_191\n      jumpi\n        /* \"#utility.yul\":411:490   */\n      tag_192\n      tag_193\n      jump\t// in\n    tag_192:\n        /* \"#utility.yul\":373:492   */\n    tag_191:\n        /* \"#utility.yul\":531:532   */\n      0x00\n        /* \"#utility.yul\":556:609   */\n      tag_194\n        /* \"#utility.yul\":601:608   */\n      dup5\n        /* \"#utility.yul\":592:598   */\n      dup3\n        /* \"#utility.yul\":581:590   */\n      dup6\n        /* \"#utility.yul\":577:599   */\n      add\n        /* \"#utility.yul\":556:609   */\n      tag_182\n      jump\t// in\n    tag_194:\n        /* \"#utility.yul\":546:609   */\n      swap2\n      pop\n        /* \"#utility.yul\":502:619   */\n      pop\n        /* \"#utility.yul\":297:626   */\n      swap3\n      swap2\n      pop\n      pop\n      jump\t// out\n        /* \"#utility.yul\":632:1106   */\n    tag_80:\n        /* \"#utility.yul\":700:706   */\n      0x00\n        /* \"#utility.yul\":708:714   */\n      dup1\n        /* \"#utility.yul\":757:759   */\n      0x40\n        /* \"#utility.yul\":745:754   */\n      dup4\n        /* \"#utility.yul\":736:743   */\n      dup6\n        /* \"#utility.yul\":732:755   */\n      sub\n        /* \"#utility.yul\":728:760   */\n      slt\n        /* \"#utility.yul\":725:844   */\n      iszero\n      tag_196\n      jumpi\n        /* \"#utility.yul\":763:842   */\n      tag_197\n      tag_193\n      jump\t// in\n    tag_197:\n        /* \"#utility.yul\":725:844   */\n    tag_196:\n        /* \"#utility.yul\":883:884   */\n      0x00\n        /* \"#utility.yul\":908:961   */\n      tag_198\n        /* \"#utility.yul\":953:960   */\n      dup6\n        /* \"#utility.yul\":944:950   */\n      dup3\n        /* \"#utility.yul\":933:942   */\n      dup7\n        /* \"#utility.yul\":929:951   */\n      add\n        /* \"#utility.yul\":908:961   */\n      tag_182\n      jump\t// in\n    tag_198:\n        /* \"#utility.yul\":898:961   */\n      swap3\n      pop\n        /* \"#utility.yul\":854:971   */\n      pop\n        /* \"#utility.yul\":1010:1012   */\n      0x20\n        /* \"#utility.yul\":1036:1089   */\n      tag_199\n        /* \"#utility.yul\":1081:1088   */\n      dup6\n        /* \"#utility.yul\":1072:1078   */\n      dup3\n        /* \"#utility.yul\":1061:1070   */\n      dup7\n        /* \"#utility.yul\":1057:1079   */\n      add\n        /* \"#utility.yul\":1036:1089   */\n      tag_182\n      jump\t// in\n    tag_199:\n        /* \"#utility.yul\":1026:1089   */\n      swap2\n      pop\n        /* \"#utility.yul\":981:1099   */\n      pop\n        /* \"#utility.yul\":632:1106   */\n      swap3\n      pop\n      swap3\n      swap1\n      pop\n      jump\t// out\n        /* \"#utility.yul\":1112:1731   */\n    tag_45:\n        /* \"#utility.yul\":1189:1195   */\n      0x00\n        /* \"#utility.yul\":1197:1203   */\n      dup1\n        /* \"#utility.yul\":1205:1211   */\n      0x00\n        /* \"#utility.yul\":1254:1256   */\n      0x60\n        /* \"#utility.yul\":1242:1251   */\n      dup5\n        /* \"#utility.yul\":1233:1240   */\n      dup7\n        /* \"#utility.yul\":1229:1252   */\n      sub\n        /* \"#utility.yul\":1225:1257   */\n      slt\n        /* \"#utility.yul\":1222:1341   */\n      iszero\n      tag_201\n      jumpi\n        /* \"#utility.yul\":1260:1339   */\n      tag_202\n      tag_193\n      jump\t// in\n    tag_202:\n        /* \"#utility.yul\":1222:1341   */\n    tag_201:\n        /* \"#utility.yul\":1380:1381   */\n      0x00\n        /* \"#utility.yul\":1405:1458   */\n      tag_203\n        /* \"#utility.yul\":1450:1457   */\n      dup7\n        /* \"#utility.yul\":1441:1447   */\n      dup3\n        /* \"#utility.yul\":1430:1439   */\n      dup8\n        /* \"#utility.yul\":1426:1448   */\n      add\n        /* \"#utility.yul\":1405:1458   */\n      tag_182\n      jump\t// in\n    tag_203:\n        /* \"#utility.yul\":1395:1458   */\n      swap4\n      pop\n        /* \"#utility.yul\":1351:1468   */\n      pop\n        /* \"#utility.yul\":1507:1509   */\n      0x20\n        /* \"#utility.yul\":1533:1586   */\n      tag_204\n        /* \"#utility.yul\":1578:1585   */\n      dup7\n        /* \"#utility.yul\":1569:1575   */\n      dup3\n        /* \"#utility.yul\":1558:1567   */\n      dup8\n        /* \"#utility.yul\":1554:1576   */\n      add\n        /* \"#utility.yul\":1533:1586   */\n      tag_182\n      jump\t// in\n    tag_204:\n        /* \"#utility.yul\":1523:1586   */\n      swap3\n      pop\n        /* \"#utility.yul\":1478:1596   */\n      pop\n        /* \"#utility.yul\":1635:1637   */\n      0x40\n        /* \"#utility.yul\":1661:1714   */\n      tag_205\n        /* \"#utility.yul\":1706:1713   */\n      dup7\n        /* \"#utility.yul\":1697:1703   */\n      dup3\n        /* \"#utility.yul\":1686:1695   */\n      dup8\n        /* \"#utility.yul\":1682:1704   */\n      add\n        /* \"#utility.yul\":1661:1714   */\n      tag_186\n      jump\t// in\n    tag_205:\n        /* \"#utility.yul\":1651:1714   */\n      swap2\n      pop\n        /* \"#utility.yul\":1606:1724   */\n      pop\n        /* \"#utility.yul\":1112:1731   */\n      swap3\n      pop\n      swap3\n      pop\n      swap3\n      jump\t// out\n        /* \"#utility.yul\":1737:2211   */\n    tag_33:\n        /* \"#utility.yul\":1805:1811   */\n      0x00\n        /* \"#utility.yul\":1813:1819   */\n      dup1\n        /* \"#utility.yul\":1862:1864   */\n      0x40\n        /* \"#utility.yul\":1850:1859   */\n      dup4\n        /* \"#utility.yul\":1841:1848   */\n      dup6\n        /* \"#utility.yul\":1837:1860   */\n      sub\n        /* \"#utility.yul\":1833:1865   */\n      slt\n        /* \"#utility.yul\":1830:1949   */\n      iszero\n      tag_207\n      jumpi\n        /* \"#utility.yul\":1868:1947   */\n      tag_208\n      tag_193\n      jump\t// in\n    tag_208:\n        /* \"#utility.yul\":1830:1949   */\n    tag_207:\n        /* \"#utility.yul\":1988:1989   */\n      0x00\n        /* \"#utility.yul\":2013:2066   */\n      tag_209\n        /* \"#utility.yul\":2058:2065   */\n      dup6\n        /* \"#utility.yul\":2049:2055   */\n      dup3\n        /* \"#utility.yul\":2038:2047   */\n      dup7\n        /* \"#utility.yul\":2034:2056   */\n      add\n        /* \"#utility.yul\":2013:2066   */\n      tag_182\n      jump\t// in\n    tag_209:\n        /* \"#utility.yul\":2003:2066   */\n      swap3\n      pop\n        /* \"#utility.yul\":1959:2076   */\n      pop\n        /* \"#utility.yul\":2115:2117   */\n      0x20\n        /* \"#utility.yul\":2141:2194   */\n      tag_210\n        /* \"#utility.yul\":2186:2193   */\n      dup6\n        /* \"#utility.yul\":2177:2183   */\n      dup3\n        /* \"#utility.yul\":2166:2175   */\n      dup7\n        /* \"#utility.yul\":2162:2184   */\n      add\n        /* \"#utility.yul\":2141:2194   */\n      tag_186\n      jump\t// in\n    tag_210:\n        /* \"#utility.yul\":2131:2194   */\n      swap2\n      pop\n        /* \"#utility.yul\":2086:2204   */\n      pop\n        /* \"#utility.yul\":1737:2211   */\n      swap3\n      pop\n      swap3\n      swap1\n      pop\n      jump\t// out\n        /* \"#utility.yul\":2217:2359   */\n    tag_211:\n        /* \"#utility.yul\":2320:2352   */\n      tag_213\n        /* \"#utility.yul\":2346:2351   */\n      dup2\n        /* \"#utility.yul\":2320:2352   */\n      tag_214\n      jump\t// in\n    tag_213:\n        /* \"#utility.yul\":2315:2318   */\n      dup3\n        /* \"#utility.yul\":2308:2353   */\n      mstore\n        /* \"#utility.yul\":2217:2359   */\n      pop\n      pop\n      jump\t// out\n        /* \"#utility.yul\":2365:2483   */\n    tag_215:\n        /* \"#utility.yul\":2452:2476   */\n      tag_217\n        /* \"#utility.yul\":2470:2475   */\n      dup2\n        /* \"#utility.yul\":2452:2476   */\n      tag_218\n      jump\t// in\n    tag_217:\n        /* \"#utility.yul\":2447:2450   */\n      dup3\n        /* \"#utility.yul\":2440:2477   */\n      mstore\n        /* \"#utility.yul\":2365:2483   */\n      pop\n      pop\n      jump\t// out\n        /* \"#utility.yul\":2489:2598   */\n    tag_219:\n        /* \"#utility.yul\":2570:2591   */\n      tag_221\n        /* \"#utility.yul\":2585:2590   */\n      dup2\n        /* \"#utility.yul\":2570:2591   */\n      tag_222\n      jump\t// in\n    tag_221:\n        /* \"#utility.yul\":2565:2568   */\n      dup3\n        /* \"#utility.yul\":2558:2592   */\n      mstore\n        /* \"#utility.yul\":2489:2598   */\n      pop\n      pop\n      jump\t// out\n        /* \"#utility.yul\":2604:2749   */\n    tag_223:\n        /* \"#utility.yul\":2698:2742   */\n      tag_225\n        /* \"#utility.yul\":2736:2741   */\n      dup2\n        /* \"#utility.yul\":2698:2742   */\n      tag_226\n      jump\t// in\n    tag_225:\n        /* \"#utility.yul\":2693:2696   */\n      dup3\n        /* \"#utility.yul\":2686:2743   */\n      mstore\n        /* \"#utility.yul\":2604:2749   */\n      pop\n      pop\n      jump\t// out\n        /* \"#utility.yul\":2755:3119   */\n    tag_227:\n        /* \"#utility.yul\":2843:2846   */\n      0x00\n        /* \"#utility.yul\":2871:2910   */\n      tag_229\n        /* \"#utility.yul\":2904:2909   */\n      dup3\n        /* \"#utility.yul\":2871:2910   */\n      tag_230\n      jump\t// in\n    tag_229:\n        /* \"#utility.yul\":2926:2997   */\n      tag_231\n        /* \"#utility.yul\":2990:2996   */\n      dup2\n        /* \"#utility.yul\":2985:2988   */\n      dup6\n        /* \"#utility.yul\":2926:2997   */\n      tag_232\n      jump\t// in\n    tag_231:\n        /* \"#utility.yul\":2919:2997   */\n      swap4\n      pop\n        /* \"#utility.yul\":3006:3058   */\n      tag_233\n        /* \"#utility.yul\":3051:3057   */\n      dup2\n        /* \"#utility.yul\":3046:3049   */\n      dup6\n        /* \"#utility.yul\":3039:3043   */\n      0x20\n        /* \"#utility.yul\":3032:3037   */\n      dup7\n        /* \"#utility.yul\":3028:3044   */\n      add\n        /* \"#utility.yul\":3006:3058   */\n      tag_234\n      jump\t// in\n    tag_233:\n        /* \"#utility.yul\":3083:3112   */\n      tag_235\n        /* \"#utility.yul\":3105:3111   */\n      dup2\n        /* \"#utility.yul\":3083:3112   */\n      tag_236\n      jump\t// in\n    tag_235:\n        /* \"#utility.yul\":3078:3081   */\n      dup5\n        /* \"#utility.yul\":3074:3113   */\n      add\n        /* \"#utility.yul\":3067:3113   */\n      swap2\n      pop\n        /* \"#utility.yul\":2847:3119   */\n      pop\n        /* \"#utility.yul\":2755:3119   */\n      swap3\n      swap2\n      pop\n      pop\n      jump\t// out\n        /* \"#utility.yul\":3125:3502   */\n    tag_237:\n        /* \"#utility.yul\":3231:3234   */\n      0x00\n        /* \"#utility.yul\":3259:3298   */\n      tag_239\n        /* \"#utility.yul\":3292:3297   */\n      dup3\n        /* \"#utility.yul\":3259:3298   */\n      tag_230\n      jump\t// in\n    tag_239:\n        /* \"#utility.yul\":3314:3403   */\n      tag_240\n        /* \"#utility.yul\":3396:3402   */\n      dup2\n        /* \"#utility.yul\":3391:3394   */\n      dup6\n        /* \"#utility.yul\":3314:3403   */\n      tag_241\n      jump\t// in\n    tag_240:\n        /* \"#utility.yul\":3307:3403   */\n      swap4\n      pop\n        /* \"#utility.yul\":3412:3464   */\n      tag_242\n        /* \"#utility.yul\":3457:3463   */\n      dup2\n        /* \"#utility.yul\":3452:3455   */\n      dup6\n        /* \"#utility.yul\":3445:3449   */\n      0x20\n        /* \"#utility.yul\":3438:3443   */\n      dup7\n        /* \"#utility.yul\":3434:3450   */\n      add\n        /* \"#utility.yul\":3412:3464   */\n      tag_234\n      jump\t// in\n    tag_242:\n        /* \"#utility.yul\":3489:3495   */\n      dup1\n        /* \"#utility.yul\":3484:3487   */\n      dup5\n        /* \"#utility.yul\":3480:3496   */\n      add\n        /* \"#utility.yul\":3473:3496   */\n      swap2\n      pop\n        /* \"#utility.yul\":3235:3502   */\n      pop\n        /* \"#utility.yul\":3125:3502   */\n      swap3\n      swap2\n      pop\n      pop\n      jump\t// out\n        /* \"#utility.yul\":3508:3874   */\n    tag_243:\n        /* \"#utility.yul\":3650:3653   */\n      0x00\n        /* \"#utility.yul\":3671:3738   */\n      tag_245\n        /* \"#utility.yul\":3735:3737   */\n      0x30\n        /* \"#utility.yul\":3730:3733   */\n      dup4\n        /* \"#utility.yul\":3671:3738   */\n      tag_232\n      jump\t// in\n    tag_245:\n        /* \"#utility.yul\":3664:3738   */\n      swap2\n      pop\n        /* \"#utility.yul\":3747:3840   */\n      tag_246\n        /* \"#utility.yul\":3836:3839   */\n      dup3\n        /* \"#utility.yul\":3747:3840   */\n      tag_247\n      jump\t// in\n    tag_246:\n        /* \"#utility.yul\":3865:3867   */\n      0x40\n        /* \"#utility.yul\":3860:3863   */\n      dup3\n        /* \"#utility.yul\":3856:3868   */\n      add\n        /* \"#utility.yul\":3849:3868   */\n      swap1\n      pop\n        /* \"#utility.yul\":3508:3874   */\n      swap2\n      swap1\n      pop\n      jump\t// out\n        /* \"#utility.yul\":3880:4246   */\n    tag_248:\n        /* \"#utility.yul\":4022:4025   */\n      0x00\n        /* \"#utility.yul\":4043:4110   */\n      tag_250\n        /* \"#utility.yul\":4107:4109   */\n      0x22\n        /* \"#utility.yul\":4102:4105   */\n      dup4\n        /* \"#utility.yul\":4043:4110   */\n      tag_232\n      jump\t// in\n    tag_250:\n        /* \"#utility.yul\":4036:4110   */\n      swap2\n      pop\n        /* \"#utility.yul\":4119:4212   */\n      tag_251\n        /* \"#utility.yul\":4208:4211   */\n      dup3\n        /* \"#utility.yul\":4119:4212   */\n      tag_252\n      jump\t// in\n    tag_251:\n        /* \"#utility.yul\":4237:4239   */\n      0x40\n        /* \"#utility.yul\":4232:4235   */\n      dup3\n        /* \"#utility.yul\":4228:4240   */\n      add\n        /* \"#utility.yul\":4221:4240   */\n      swap1\n      pop\n        /* \"#utility.yul\":3880:4246   */\n      swap2\n      swap1\n      pop\n      jump\t// out\n        /* \"#utility.yul\":4252:4618   */\n    tag_253:\n        /* \"#utility.yul\":4394:4397   */\n      0x00\n        /* \"#utility.yul\":4415:4482   */\n      tag_255\n        /* \"#utility.yul\":4479:4481   */\n      0x20\n        /* \"#utility.yul\":4474:4477   */\n      dup4\n        /* \"#utility.yul\":4415:4482   */\n      tag_232\n      jump\t// in\n    tag_255:\n        /* \"#utility.yul\":4408:4482   */\n      swap2\n      pop\n        /* \"#utility.yul\":4491:4584   */\n      tag_256\n        /* \"#utility.yul\":4580:4583   */\n      dup3\n        /* \"#utility.yul\":4491:4584   */\n      tag_257\n      jump\t// in\n    tag_256:\n        /* \"#utility.yul\":4609:4611   */\n      0x20\n        /* \"#utility.yul\":4604:4607   */\n      dup3\n        /* \"#utility.yul\":4600:4612   */\n      add\n        /* \"#utility.yul\":4593:4612   */\n      swap1\n      pop\n        /* \"#utility.yul\":4252:4618   */\n      swap2\n      swap1\n      pop\n      jump\t// out\n        /* \"#utility.yul\":4624:5026   */\n    tag_258:\n        /* \"#utility.yul\":4784:4787   */\n      0x00\n        /* \"#utility.yul\":4805:4890   */\n      tag_260\n        /* \"#utility.yul\":4887:4889   */\n      0x1f\n        /* \"#utility.yul\":4882:4885   */\n      dup4\n        /* \"#utility.yul\":4805:4890   */\n      tag_241\n      jump\t// in\n    tag_260:\n        /* \"#utility.yul\":4798:4890   */\n      swap2\n      pop\n        /* \"#utility.yul\":4899:4992   */\n      tag_261\n        /* \"#utility.yul\":4988:4991   */\n      dup3\n        /* \"#utility.yul\":4899:4992   */\n      tag_262\n      jump\t// in\n    tag_261:\n        /* \"#utility.yul\":5017:5019   */\n      0x1f\n        /* \"#utility.yul\":5012:5015   */\n      dup3\n        /* \"#utility.yul\":5008:5020   */\n      add\n        /* \"#utility.yul\":5001:5020   */\n      swap1\n      pop\n        /* \"#utility.yul\":4624:5026   */\n      swap2\n      swap1\n      pop\n      jump\t// out\n        /* \"#utility.yul\":5032:5398   */\n    tag_263:\n        /* \"#utility.yul\":5174:5177   */\n      0x00\n        /* \"#utility.yul\":5195:5262   */\n      tag_265\n        /* \"#utility.yul\":5259:5261   */\n      0x22\n        /* \"#utility.yul\":5254:5257   */\n      dup4\n        /* \"#utility.yul\":5195:5262   */\n      tag_232\n      jump\t// in\n    tag_265:\n        /* \"#utility.yul\":5188:5262   */\n      swap2\n      pop\n        /* \"#utility.yul\":5271:5364   */\n      tag_266\n        /* \"#utility.yul\":5360:5363   */\n      dup3\n        /* \"#utility.yul\":5271:5364   */\n      tag_267\n      jump\t// in\n    tag_266:\n        /* \"#utility.yul\":5389:5391   */\n      0x40\n        /* \"#utility.yul\":5384:5387   */\n      dup3\n        /* \"#utility.yul\":5380:5392   */\n      add\n        /* \"#utility.yul\":5373:5392   */\n      swap1\n      pop\n        /* \"#utility.yul\":5032:5398   */\n      swap2\n      swap1\n      pop\n      jump\t// out\n        /* \"#utility.yul\":5404:5770   */\n    tag_268:\n        /* \"#utility.yul\":5546:5549   */\n      0x00\n        /* \"#utility.yul\":5567:5634   */\n      tag_270\n        /* \"#utility.yul\":5631:5633   */\n      0x30\n        /* \"#utility.yul\":5626:5629   */\n      dup4\n        /* \"#utility.yul\":5567:5634   */\n      tag_232\n      jump\t// in\n    tag_270:\n        /* \"#utility.yul\":5560:5634   */\n      swap2\n      pop\n        /* \"#utility.yul\":5643:5736   */\n      tag_271\n        /* \"#utility.yul\":5732:5735   */\n      dup3\n        /* \"#utility.yul\":5643:5736   */\n      tag_272\n      jump\t// in\n    tag_271:\n        /* \"#utility.yul\":5761:5763   */\n      0x40\n        /* \"#utility.yul\":5756:5759   */\n      dup3\n        /* \"#utility.yul\":5752:5764   */\n      add\n        /* \"#utility.yul\":5745:5764   */\n      swap1\n      pop\n        /* \"#utility.yul\":5404:5770   */\n      swap2\n      swap1\n      pop\n      jump\t// out\n        /* \"#utility.yul\":5776:6178   */\n    tag_273:\n        /* \"#utility.yul\":5936:5939   */\n      0x00\n        /* \"#utility.yul\":5957:6042   */\n      tag_275\n        /* \"#utility.yul\":6039:6041   */\n      0x21\n        /* \"#utility.yul\":6034:6037   */\n      dup4\n        /* \"#utility.yul\":5957:6042   */\n      tag_241\n      jump\t// in\n    tag_275:\n        /* \"#utility.yul\":5950:6042   */\n      swap2\n      pop\n        /* \"#utility.yul\":6051:6144   */\n      tag_276\n        /* \"#utility.yul\":6140:6143   */\n      dup3\n        /* \"#utility.yul\":6051:6144   */\n      tag_277\n      jump\t// in\n    tag_276:\n        /* \"#utility.yul\":6169:6171   */\n      0x21\n        /* \"#utility.yul\":6164:6167   */\n      dup3\n        /* \"#utility.yul\":6160:6172   */\n      add\n        /* \"#utility.yul\":6153:6172   */\n      swap1\n      pop\n        /* \"#utility.yul\":5776:6178   */\n      swap2\n      swap1\n      pop\n      jump\t// out\n        /* \"#utility.yul\":6184:6550   */\n    tag_278:\n        /* \"#utility.yul\":6326:6329   */\n      0x00\n        /* \"#utility.yul\":6347:6414   */\n      tag_280\n        /* \"#utility.yul\":6411:6413   */\n      0x1c\n        /* \"#utility.yul\":6406:6409   */\n      dup4\n        /* \"#utility.yul\":6347:6414   */\n      tag_232\n      jump\t// in\n    tag_280:\n        /* \"#utility.yul\":6340:6414   */\n      swap2\n      pop\n        /* \"#utility.yul\":6423:6516   */\n      tag_281\n        /* \"#utility.yul\":6512:6515   */\n      dup3\n        /* \"#utility.yul\":6423:6516   */\n      tag_282\n      jump\t// in\n    tag_281:\n        /* \"#utility.yul\":6541:6543   */\n      0x20\n        /* \"#utility.yul\":6536:6539   */\n      dup3\n        /* \"#utility.yul\":6532:6544   */\n      add\n        /* \"#utility.yul\":6525:6544   */\n      swap1\n      pop\n        /* \"#utility.yul\":6184:6550   */\n      swap2\n      swap1\n      pop\n      jump\t// out\n        /* \"#utility.yul\":6556:6922   */\n    tag_283:\n        /* \"#utility.yul\":6698:6701   */\n      0x00\n        /* \"#utility.yul\":6719:6786   */\n      tag_285\n        /* \"#utility.yul\":6783:6785   */\n      0x12\n        /* \"#utility.yul\":6778:6781   */\n      dup4\n        /* \"#utility.yul\":6719:6786   */\n      tag_232\n      jump\t// in\n    tag_285:\n        /* \"#utility.yul\":6712:6786   */\n      swap2\n      pop\n        /* \"#utility.yul\":6795:6888   */\n      tag_286\n        /* \"#utility.yul\":6884:6887   */\n      dup3\n        /* \"#utility.yul\":6795:6888   */\n      tag_287\n      jump\t// in\n    tag_286:\n        /* \"#utility.yul\":6913:6915   */\n      0x20\n        /* \"#utility.yul\":6908:6911   */\n      dup3\n        /* \"#utility.yul\":6904:6916   */\n      add\n        /* \"#utility.yul\":6897:6916   */\n      swap1\n      pop\n        /* \"#utility.yul\":6556:6922   */\n      swap2\n      swap1\n      pop\n      jump\t// out\n        /* \"#utility.yul\":6928:7046   */\n    tag_288:\n        /* \"#utility.yul\":7015:7039   */\n      tag_290\n        /* \"#utility.yul\":7033:7038   */\n      dup2\n        /* \"#utility.yul\":7015:7039   */\n      tag_291\n      jump\t// in\n    tag_290:\n        /* \"#utility.yul\":7010:7013   */\n      dup3\n        /* \"#utility.yul\":7003:7040   */\n      mstore\n        /* \"#utility.yul\":6928:7046   */\n      pop\n      pop\n      jump\t// out\n        /* \"#utility.yul\":7052:7209   */\n    tag_292:\n        /* \"#utility.yul\":7157:7202   */\n      tag_294\n        /* \"#utility.yul\":7177:7201   */\n      tag_295\n        /* \"#utility.yul\":7195:7200   */\n      dup3\n        /* \"#utility.yul\":7177:7201   */\n      tag_291\n      jump\t// in\n    tag_295:\n        /* \"#utility.yul\":7157:7202   */\n      tag_296\n      jump\t// in\n    tag_294:\n        /* \"#utility.yul\":7152:7155   */\n      dup3\n        /* \"#utility.yul\":7145:7203   */\n      mstore\n        /* \"#utility.yul\":7052:7209   */\n      pop\n      pop\n      jump\t// out\n        /* \"#utility.yul\":7215:7650   */\n    tag_177:\n        /* \"#utility.yul\":7395:7398   */\n      0x00\n        /* \"#utility.yul\":7417:7512   */\n      tag_298\n        /* \"#utility.yul\":7508:7511   */\n      dup3\n        /* \"#utility.yul\":7499:7505   */\n      dup6\n        /* \"#utility.yul\":7417:7512   */\n      tag_237\n      jump\t// in\n    tag_298:\n        /* \"#utility.yul\":7410:7512   */\n      swap2\n      pop\n        /* \"#utility.yul\":7529:7624   */\n      tag_299\n        /* \"#utility.yul\":7620:7623   */\n      dup3\n        /* \"#utility.yul\":7611:7617   */\n      dup5\n        /* \"#utility.yul\":7529:7624   */\n      tag_237\n      jump\t// in\n    tag_299:\n        /* \"#utility.yul\":7522:7624   */\n      swap2\n      pop\n        /* \"#utility.yul\":7641:7644   */\n      dup2\n        /* \"#utility.yul\":7634:7644   */\n      swap1\n      pop\n        /* \"#utility.yul\":7215:7650   */\n      swap4\n      swap3\n      pop\n      pop\n      pop\n      jump\t// out\n        /* \"#utility.yul\":7656:8178   */\n    tag_173:\n        /* \"#utility.yul\":7869:7872   */\n      0x00\n        /* \"#utility.yul\":7891:8039   */\n      tag_301\n        /* \"#utility.yul\":8035:8038   */\n      dup3\n        /* \"#utility.yul\":7891:8039   */\n      tag_258\n      jump\t// in\n    tag_301:\n        /* \"#utility.yul\":7884:8039   */\n      swap2\n      pop\n        /* \"#utility.yul\":8049:8124   */\n      tag_302\n        /* \"#utility.yul\":8120:8123   */\n      dup3\n        /* \"#utility.yul\":8111:8117   */\n      dup5\n        /* \"#utility.yul\":8049:8124   */\n      tag_292\n      jump\t// in\n    tag_302:\n        /* \"#utility.yul\":8149:8151   */\n      0x20\n        /* \"#utility.yul\":8144:8147   */\n      dup3\n        /* \"#utility.yul\":8140:8152   */\n      add\n        /* \"#utility.yul\":8133:8152   */\n      swap2\n      pop\n        /* \"#utility.yul\":8169:8172   */\n      dup2\n        /* \"#utility.yul\":8162:8172   */\n      swap1\n      pop\n        /* \"#utility.yul\":7656:8178   */\n      swap3\n      swap2\n      pop\n      pop\n      jump\t// out\n        /* \"#utility.yul\":8184:8706   */\n    tag_175:\n        /* \"#utility.yul\":8397:8400   */\n      0x00\n        /* \"#utility.yul\":8419:8567   */\n      tag_304\n        /* \"#utility.yul\":8563:8566   */\n      dup3\n        /* \"#utility.yul\":8419:8567   */\n      tag_273\n      jump\t// in\n    tag_304:\n        /* \"#utility.yul\":8412:8567   */\n      swap2\n      pop\n        /* \"#utility.yul\":8577:8652   */\n      tag_305\n        /* \"#utility.yul\":8648:8651   */\n      dup3\n        /* \"#utility.yul\":8639:8645   */\n      dup5\n        /* \"#utility.yul\":8577:8652   */\n      tag_292\n      jump\t// in\n    tag_305:\n        /* \"#utility.yul\":8677:8679   */\n      0x20\n        /* \"#utility.yul\":8672:8675   */\n      dup3\n        /* \"#utility.yul\":8668:8680   */\n      add\n        /* \"#utility.yul\":8661:8680   */\n      swap2\n      pop\n        /* \"#utility.yul\":8697:8700   */\n      dup2\n        /* \"#utility.yul\":8690:8700   */\n      swap1\n      pop\n        /* \"#utility.yul\":8184:8706   */\n      swap3\n      swap2\n      pop\n      pop\n      jump\t// out\n        /* \"#utility.yul\":8712:8934   */\n    tag_76:\n        /* \"#utility.yul\":8805:8809   */\n      0x00\n        /* \"#utility.yul\":8843:8845   */\n      0x20\n        /* \"#utility.yul\":8832:8841   */\n      dup3\n        /* \"#utility.yul\":8828:8846   */\n      add\n        /* \"#utility.yul\":8820:8846   */\n      swap1\n      pop\n        /* \"#utility.yul\":8856:8927   */\n      tag_307\n        /* \"#utility.yul\":8924:8925   */\n      0x00\n        /* \"#utility.yul\":8913:8922   */\n      dup4\n        /* \"#utility.yul\":8909:8926   */\n      add\n        /* \"#utility.yul\":8900:8906   */\n      dup5\n        /* \"#utility.yul\":8856:8927   */\n      tag_215\n      jump\t// in\n    tag_307:\n        /* \"#utility.yul\":8712:8934   */\n      swap3\n      swap2\n      pop\n      pop\n      jump\t// out\n        /* \"#utility.yul\":8940:9194   */\n    tag_58:\n        /* \"#utility.yul\":9049:9053   */\n      0x00\n        /* \"#utility.yul\":9087:9089   */\n      0x20\n        /* \"#utility.yul\":9076:9085   */\n      dup3\n        /* \"#utility.yul\":9072:9090   */\n      add\n        /* \"#utility.yul\":9064:9090   */\n      swap1\n      pop\n        /* \"#utility.yul\":9100:9187   */\n      tag_309\n        /* \"#utility.yul\":9184:9185   */\n      0x00\n        /* \"#utility.yul\":9173:9182   */\n      dup4\n        /* \"#utility.yul\":9169:9186   */\n      add\n        /* \"#utility.yul\":9160:9166   */\n      dup5\n        /* \"#utility.yul\":9100:9187   */\n      tag_211\n      jump\t// in\n    tag_309:\n        /* \"#utility.yul\":8940:9194   */\n      swap3\n      swap2\n      pop\n      pop\n      jump\t// out\n        /* \"#utility.yul\":9200:9410   */\n    tag_36:\n        /* \"#utility.yul\":9287:9291   */\n      0x00\n        /* \"#utility.yul\":9325:9327   */\n      0x20\n        /* \"#utility.yul\":9314:9323   */\n      dup3\n        /* \"#utility.yul\":9310:9328   */\n      add\n        /* \"#utility.yul\":9302:9328   */\n      swap1\n      pop\n        /* \"#utility.yul\":9338:9403   */\n      tag_311\n        /* \"#utility.yul\":9400:9401   */\n      0x00\n        /* \"#utility.yul\":9389:9398   */\n      dup4\n        /* \"#utility.yul\":9385:9402   */\n      add\n        /* \"#utility.yul\":9376:9382   */\n      dup5\n        /* \"#utility.yul\":9338:9403   */\n      tag_219\n      jump\t// in\n    tag_311:\n        /* \"#utility.yul\":9200:9410   */\n      swap3\n      swap2\n      pop\n      pop\n      jump\t// out\n        /* \"#utility.yul\":9416:9652   */\n    tag_71:\n        /* \"#utility.yul\":9516:9520   */\n      0x00\n        /* \"#utility.yul\":9554:9556   */\n      0x20\n        /* \"#utility.yul\":9543:9552   */\n      dup3\n        /* \"#utility.yul\":9539:9557   */\n      add\n        /* \"#utility.yul\":9531:9557   */\n      swap1\n      pop\n        /* \"#utility.yul\":9567:9645   */\n      tag_313\n        /* \"#utility.yul\":9642:9643   */\n      0x00\n        /* \"#utility.yul\":9631:9640   */\n      dup4\n        /* \"#utility.yul\":9627:9644   */\n      add\n        /* \"#utility.yul\":9618:9624   */\n      dup5\n        /* \"#utility.yul\":9567:9645   */\n      tag_223\n      jump\t// in\n    tag_313:\n        /* \"#utility.yul\":9416:9652   */\n      swap3\n      swap2\n      pop\n      pop\n      jump\t// out\n        /* \"#utility.yul\":9658:9971   */\n    tag_29:\n        /* \"#utility.yul\":9771:9775   */\n      0x00\n        /* \"#utility.yul\":9809:9811   */\n      0x20\n        /* \"#utility.yul\":9798:9807   */\n      dup3\n        /* \"#utility.yul\":9794:9812   */\n      add\n        /* \"#utility.yul\":9786:9812   */\n      swap1\n      pop\n        /* \"#utility.yul\":9858:9867   */\n      dup2\n        /* \"#utility.yul\":9852:9856   */\n      dup2\n        /* \"#utility.yul\":9848:9868   */\n      sub\n        /* \"#utility.yul\":9844:9845   */\n      0x00\n        /* \"#utility.yul\":9833:9842   */\n      dup4\n        /* \"#utility.yul\":9829:9846   */\n      add\n        /* \"#utility.yul\":9822:9869   */\n      mstore\n        /* \"#utility.yul\":9886:9964   */\n      tag_315\n        /* \"#utility.yul\":9959:9963   */\n      dup2\n        /* \"#utility.yul\":9950:9956   */\n      dup5\n        /* \"#utility.yul\":9886:9964   */\n      tag_227\n      jump\t// in\n    tag_315:\n        /* \"#utility.yul\":9878:9964   */\n      swap1\n      pop\n        /* \"#utility.yul\":9658:9971   */\n      swap3\n      swap2\n      pop\n      pop\n      jump\t// out\n        /* \"#utility.yul\":9977:10396   */\n    tag_138:\n        /* \"#utility.yul\":10143:10147   */\n      0x00\n        /* \"#utility.yul\":10181:10183   */\n      0x20\n        /* \"#utility.yul\":10170:10179   */\n      dup3\n        /* \"#utility.yul\":10166:10184   */\n      add\n        /* \"#utility.yul\":10158:10184   */\n      swap1\n      pop\n        /* \"#utility.yul\":10230:10239   */\n      dup2\n        /* \"#utility.yul\":10224:10228   */\n      dup2\n        /* \"#utility.yul\":10220:10240   */\n      sub\n        /* \"#utility.yul\":10216:10217   */\n      0x00\n        /* \"#utility.yul\":10205:10214   */\n      dup4\n        /* \"#utility.yul\":10201:10218   */\n      add\n        /* \"#utility.yul\":10194:10241   */\n      mstore\n        /* \"#utility.yul\":10258:10389   */\n      tag_317\n        /* \"#utility.yul\":10384:10388   */\n      dup2\n        /* \"#utility.yul\":10258:10389   */\n      tag_243\n      jump\t// in\n    tag_317:\n        /* \"#utility.yul\":10250:10389   */\n      swap1\n      pop\n        /* \"#utility.yul\":9977:10396   */\n      swap2\n      swap1\n      pop\n      jump\t// out\n        /* \"#utility.yul\":10402:10821   */\n    tag_133:\n        /* \"#utility.yul\":10568:10572   */\n      0x00\n        /* \"#utility.yul\":10606:10608   */\n      0x20\n        /* \"#utility.yul\":10595:10604   */\n      dup3\n        /* \"#utility.yul\":10591:10609   */\n      add\n        /* \"#utility.yul\":10583:10609   */\n      swap1\n      pop\n        /* \"#utility.yul\":10655:10664   */\n      dup2\n        /* \"#utility.yul\":10649:10653   */\n      dup2\n        /* \"#utility.yul\":10645:10665   */\n      sub\n        /* \"#utility.yul\":10641:10642   */\n      0x00\n        /* \"#utility.yul\":10630:10639   */\n      dup4\n        /* \"#utility.yul\":10626:10643   */\n      add\n        /* \"#utility.yul\":10619:10666   */\n      mstore\n        /* \"#utility.yul\":10683:10814   */\n      tag_319\n        /* \"#utility.yul\":10809:10813   */\n      dup2\n        /* \"#utility.yul\":10683:10814   */\n      tag_248\n      jump\t// in\n    tag_319:\n        /* \"#utility.yul\":10675:10814   */\n      swap1\n      pop\n        /* \"#utility.yul\":10402:10821   */\n      swap2\n      swap1\n      pop\n      jump\t// out\n        /* \"#utility.yul\":10827:11246   */\n    tag_171:\n        /* \"#utility.yul\":10993:10997   */\n      0x00\n        /* \"#utility.yul\":11031:11033   */\n      0x20\n        /* \"#utility.yul\":11020:11029   */\n      dup3\n        /* \"#utility.yul\":11016:11034   */\n      add\n        /* \"#utility.yul\":11008:11034   */\n      swap1\n      pop\n        /* \"#utility.yul\":11080:11089   */\n      dup2\n        /* \"#utility.yul\":11074:11078   */\n      dup2\n        /* \"#utility.yul\":11070:11090   */\n      sub\n        /* \"#utility.yul\":11066:11067   */\n      0x00\n        /* \"#utility.yul\":11055:11064   */\n      dup4\n        /* \"#utility.yul\":11051:11068   */\n      add\n        /* \"#utility.yul\":11044:11091   */\n      mstore\n        /* \"#utility.yul\":11108:11239   */\n      tag_321\n        /* \"#utility.yul\":11234:11238   */\n      dup2\n        /* \"#utility.yul\":11108:11239   */\n      tag_253\n      jump\t// in\n    tag_321:\n        /* \"#utility.yul\":11100:11239   */\n      swap1\n      pop\n        /* \"#utility.yul\":10827:11246   */\n      swap2\n      swap1\n      pop\n      jump\t// out\n        /* \"#utility.yul\":11252:11671   */\n    tag_167:\n        /* \"#utility.yul\":11418:11422   */\n      0x00\n        /* \"#utility.yul\":11456:11458   */\n      0x20\n        /* \"#utility.yul\":11445:11454   */\n      dup3\n        /* \"#utility.yul\":11441:11459   */\n      add\n        /* \"#utility.yul\":11433:11459   */\n      swap1\n      pop\n        /* \"#utility.yul\":11505:11514   */\n      dup2\n        /* \"#utility.yul\":11499:11503   */\n      dup2\n        /* \"#utility.yul\":11495:11515   */\n      sub\n        /* \"#utility.yul\":11491:11492   */\n      0x00\n        /* \"#utility.yul\":11480:11489   */\n      dup4\n        /* \"#utility.yul\":11476:11493   */\n      add\n        /* \"#utility.yul\":11469:11516   */\n      mstore\n        /* \"#utility.yul\":11533:11664   */\n      tag_323\n        /* \"#utility.yul\":11659:11663   */\n      dup2\n        /* \"#utility.yul\":11533:11664   */\n      tag_263\n      jump\t// in\n    tag_323:\n        /* \"#utility.yul\":11525:11664   */\n      swap1\n      pop\n        /* \"#utility.yul\":11252:11671   */\n      swap2\n      swap1\n      pop\n      jump\t// out\n        /* \"#utility.yul\":11677:12096   */\n    tag_130:\n        /* \"#utility.yul\":11843:11847   */\n      0x00\n        /* \"#utility.yul\":11881:11883   */\n      0x20\n        /* \"#utility.yul\":11870:11879   */\n      dup3\n        /* \"#utility.yul\":11866:11884   */\n      add\n        /* \"#utility.yul\":11858:11884   */\n      swap1\n      pop\n        /* \"#utility.yul\":11930:11939   */\n      dup2\n        /* \"#utility.yul\":11924:11928   */\n      dup2\n        /* \"#utility.yul\":11920:11940   */\n      sub\n        /* \"#utility.yul\":11916:11917   */\n      0x00\n        /* \"#utility.yul\":11905:11914   */\n      dup4\n        /* \"#utility.yul\":11901:11918   */\n      add\n        /* \"#utility.yul\":11894:11941   */\n      mstore\n        /* \"#utility.yul\":11958:12089   */\n      tag_325\n        /* \"#utility.yul\":12084:12088   */\n      dup2\n        /* \"#utility.yul\":11958:12089   */\n      tag_268\n      jump\t// in\n    tag_325:\n        /* \"#utility.yul\":11950:12089   */\n      swap1\n      pop\n        /* \"#utility.yul\":11677:12096   */\n      swap2\n      swap1\n      pop\n      jump\t// out\n        /* \"#utility.yul\":12102:12521   */\n    tag_159:\n        /* \"#utility.yul\":12268:12272   */\n      0x00\n        /* \"#utility.yul\":12306:12308   */\n      0x20\n        /* \"#utility.yul\":12295:12304   */\n      dup3\n        /* \"#utility.yul\":12291:12309   */\n      add\n        /* \"#utility.yul\":12283:12309   */\n      swap1\n      pop\n        /* \"#utility.yul\":12355:12364   */\n      dup2\n        /* \"#utility.yul\":12349:12353   */\n      dup2\n        /* \"#utility.yul\":12345:12365   */\n      sub\n        /* \"#utility.yul\":12341:12342   */\n      0x00\n        /* \"#utility.yul\":12330:12339   */\n      dup4\n        /* \"#utility.yul\":12326:12343   */\n      add\n        /* \"#utility.yul\":12319:12366   */\n      mstore\n        /* \"#utility.yul\":12383:12514   */\n      tag_327\n        /* \"#utility.yul\":12509:12513   */\n      dup2\n        /* \"#utility.yul\":12383:12514   */\n      tag_278\n      jump\t// in\n    tag_327:\n        /* \"#utility.yul\":12375:12514   */\n      swap1\n      pop\n        /* \"#utility.yul\":12102:12521   */\n      swap2\n      swap1\n      pop\n      jump\t// out\n        /* \"#utility.yul\":12527:12946   */\n    tag_141:\n        /* \"#utility.yul\":12693:12697   */\n      0x00\n        /* \"#utility.yul\":12731:12733   */\n      0x20\n        /* \"#utility.yul\":12720:12729   */\n      dup3\n        /* \"#utility.yul\":12716:12734   */\n      add\n        /* \"#utility.yul\":12708:12734   */\n      swap1\n      pop\n        /* \"#utility.yul\":12780:12789   */\n      dup2\n        /* \"#utility.yul\":12774:12778   */\n      dup2\n        /* \"#utility.yul\":12770:12790   */\n      sub\n        /* \"#utility.yul\":12766:12767   */\n      0x00\n        /* \"#utility.yul\":12755:12764   */\n      dup4\n        /* \"#utility.yul\":12751:12768   */\n      add\n        /* \"#utility.yul\":12744:12791   */\n      mstore\n        /* \"#utility.yul\":12808:12939   */\n      tag_329\n        /* \"#utility.yul\":12934:12938   */\n      dup2\n        /* \"#utility.yul\":12808:12939   */\n      tag_283\n      jump\t// in\n    tag_329:\n        /* \"#utility.yul\":12800:12939   */\n      swap1\n      pop\n        /* \"#utility.yul\":12527:12946   */\n      swap2\n      swap1\n      pop\n      jump\t// out\n        /* \"#utility.yul\":12952:13174   */\n    tag_41:\n        /* \"#utility.yul\":13045:13049   */\n      0x00\n        /* \"#utility.yul\":13083:13085   */\n      0x20\n        /* \"#utility.yul\":13072:13081   */\n      dup3\n        /* \"#utility.yul\":13068:13086   */\n      add\n        /* \"#utility.yul\":13060:13086   */\n      swap1\n      pop\n        /* \"#utility.yul\":13096:13167   */\n      tag_331\n        /* \"#utility.yul\":13164:13165   */\n      0x00\n        /* \"#utility.yul\":13153:13162   */\n      dup4\n        /* \"#utility.yul\":13149:13166   */\n      add\n        /* \"#utility.yul\":13140:13146   */\n      dup5\n        /* \"#utility.yul\":13096:13167   */\n      tag_288\n      jump\t// in\n    tag_331:\n        /* \"#utility.yul\":12952:13174   */\n      swap3\n      swap2\n      pop\n      pop\n      jump\t// out\n        /* \"#utility.yul\":13261:13360   */\n    tag_230:\n        /* \"#utility.yul\":13313:13319   */\n      0x00\n        /* \"#utility.yul\":13347:13352   */\n      dup2\n        /* \"#utility.yul\":13341:13353   */\n      mload\n        /* \"#utility.yul\":13331:13353   */\n      swap1\n      pop\n        /* \"#utility.yul\":13261:13360   */\n      swap2\n      swap1\n      pop\n      jump\t// out\n        /* \"#utility.yul\":13366:13535   */\n    tag_232:\n        /* \"#utility.yul\":13450:13461   */\n      0x00\n        /* \"#utility.yul\":13484:13490   */\n      dup3\n        /* \"#utility.yul\":13479:13482   */\n      dup3\n        /* \"#utility.yul\":13472:13491   */\n      mstore\n        /* \"#utility.yul\":13524:13528   */\n      0x20\n        /* \"#utility.yul\":13519:13522   */\n      dup3\n        /* \"#utility.yul\":13515:13529   */\n      add\n        /* \"#utility.yul\":13500:13529   */\n      swap1\n      pop\n        /* \"#utility.yul\":13366:13535   */\n      swap3\n      swap2\n      pop\n      pop\n      jump\t// out\n        /* \"#utility.yul\":13541:13689   */\n    tag_241:\n        /* \"#utility.yul\":13643:13654   */\n      0x00\n        /* \"#utility.yul\":13680:13683   */\n      dup2\n        /* \"#utility.yul\":13665:13683   */\n      swap1\n      pop\n        /* \"#utility.yul\":13541:13689   */\n      swap3\n      swap2\n      pop\n      pop\n      jump\t// out\n        /* \"#utility.yul\":13695:14000   */\n    tag_148:\n        /* \"#utility.yul\":13735:13738   */\n      0x00\n        /* \"#utility.yul\":13754:13774   */\n      tag_338\n        /* \"#utility.yul\":13772:13773   */\n      dup3\n        /* \"#utility.yul\":13754:13774   */\n      tag_291\n      jump\t// in\n    tag_338:\n        /* \"#utility.yul\":13749:13774   */\n      swap2\n      pop\n        /* \"#utility.yul\":13788:13808   */\n      tag_339\n        /* \"#utility.yul\":13806:13807   */\n      dup4\n        /* \"#utility.yul\":13788:13808   */\n      tag_291\n      jump\t// in\n    tag_339:\n        /* \"#utility.yul\":13783:13808   */\n      swap3\n      pop\n        /* \"#utility.yul\":13942:13943   */\n      dup3\n        /* \"#utility.yul\":13874:13940   */\n      0xffffffffffffffffffffffffffffffffffffffffffffffffffffffffffffffff\n        /* \"#utility.yul\":13870:13944   */\n      sub\n        /* \"#utility.yul\":13867:13868   */\n      dup3\n        /* \"#utility.yul\":13864:13945   */\n      gt\n        /* \"#utility.yul\":13861:13968   */\n      iszero\n      tag_340\n      jumpi\n        /* \"#utility.yul\":13948:13966   */\n      tag_341\n      tag_342\n      jump\t// in\n    tag_341:\n        /* \"#utility.yul\":13861:13968   */\n    tag_340:\n        /* \"#utility.yul\":13992:13993   */\n      dup3\n        /* \"#utility.yul\":13989:13990   */\n      dup3\n        /* \"#utility.yul\":13985:13994   */\n      add\n        /* \"#utility.yul\":13978:13994   */\n      swap1\n      pop\n        /* \"#utility.yul\":13695:14000   */\n      swap3\n      swap2\n      pop\n      pop\n      jump\t// out\n        /* \"#utility.yul\":14006:14197   */\n    tag_145:\n        /* \"#utility.yul\":14046:14050   */\n      0x00\n        /* \"#utility.yul\":14066:14086   */\n      tag_344\n        /* \"#utility.yul\":14084:14085   */\n      dup3\n        /* \"#utility.yul\":14066:14086   */\n      tag_291\n      jump\t// in\n    tag_344:\n        /* \"#utility.yul\":14061:14086   */\n      swap2\n      pop\n        /* \"#utility.yul\":14100:14120   */\n      tag_345\n        /* \"#utility.yul\":14118:14119   */\n      dup4\n        /* \"#utility.yul\":14100:14120   */\n      tag_291\n      jump\t// in\n    tag_345:\n        /* \"#utility.yul\":14095:14120   */\n      swap3\n      pop\n        /* \"#utility.yul\":14139:14140   */\n      dup3\n        /* \"#utility.yul\":14136:14137   */\n      dup3\n        /* \"#utility.yul\":14133:14141   */\n      lt\n        /* \"#utility.yul\":14130:14164   */\n      iszero\n      tag_346\n      jumpi\n        /* \"#utility.yul\":14144:14162   */\n      tag_347\n      tag_342\n      jump\t// in\n    tag_347:\n        /* \"#utility.yul\":14130:14164   */\n    tag_346:\n        /* \"#utility.yul\":14189:14190   */\n      dup3\n        /* \"#utility.yul\":14186:14187   */\n      dup3\n        /* \"#utility.yul\":14182:14191   */\n      sub\n        /* \"#utility.yul\":14174:14191   */\n      swap1\n      pop\n        /* \"#utility.yul\":14006:14197   */\n      swap3\n      swap2\n      pop\n      pop\n      jump\t// out\n        /* \"#utility.yul\":14203:14299   */\n    tag_218:\n        /* \"#utility.yul\":14240:14247   */\n      0x00\n        /* \"#utility.yul\":14269:14293   */\n      tag_349\n        /* \"#utility.yul\":14287:14292   */\n      dup3\n        /* \"#utility.yul\":14269:14293   */\n      tag_350\n      jump\t// in\n    tag_349:\n        /* \"#utility.yul\":14258:14293   */\n      swap1\n      pop\n        /* \"#utility.yul\":14203:14299   */\n      swap2\n      swap1\n      pop\n      jump\t// out\n        /* \"#utility.yul\":14305:14409   */\n    tag_214:\n        /* \"#utility.yul\":14350:14357   */\n      0x00\n        /* \"#utility.yul\":14379:14403   */\n      tag_352\n        /* \"#utility.yul\":14397:14402   */\n      dup3\n        /* \"#utility.yul\":14379:14403   */\n      tag_350\n      jump\t// in\n    tag_352:\n        /* \"#utility.yul\":14368:14403   */\n      swap1\n      pop\n        /* \"#utility.yul\":14305:14409   */\n      swap2\n      swap1\n      pop\n      jump\t// out\n        /* \"#utility.yul\":14415:14505   */\n    tag_222:\n        /* \"#utility.yul\":14449:14456   */\n      0x00\n        /* \"#utility.yul\":14492:14497   */\n      dup2\n        /* \"#utility.yul\":14485:14498   */\n      iszero\n        /* \"#utility.yul\":14478:14499   */\n      iszero\n        /* \"#utility.yul\":14467:14499   */\n      swap1\n      pop\n        /* \"#utility.yul\":14415:14505   */\n      swap2\n      swap1\n      pop\n      jump\t// out\n        /* \"#utility.yul\":14511:14640   */\n    tag_354:\n        /* \"#utility.yul\":14557:14564   */\n      0x00\n        /* \"#utility.yul\":14586:14591   */\n      dup2\n        /* \"#utility.yul\":14575:14591   */\n      swap1\n      pop\n        /* \"#utility.yul\":14592:14634   */\n      tag_356\n        /* \"#utility.yul\":14628:14633   */\n      dup3\n        /* \"#utility.yul\":14592:14634   */\n      tag_357\n      jump\t// in\n    tag_356:\n        /* \"#utility.yul\":14511:14640   */\n      swap2\n      swap1\n      pop\n      jump\t// out\n        /* \"#utility.yul\":14646:14772   */\n    tag_350:\n        /* \"#utility.yul\":14683:14690   */\n      0x00\n        /* \"#utility.yul\":14723:14765   */\n      0xffffffffffffffffffffffffffffffffffffffff\n        /* \"#utility.yul\":14716:14721   */\n      dup3\n        /* \"#utility.yul\":14712:14766   */\n      and\n        /* \"#utility.yul\":14701:14766   */\n      swap1\n      pop\n        /* \"#utility.yul\":14646:14772   */\n      swap2\n      swap1\n      pop\n      jump\t// out\n        /* \"#utility.yul\":14778:14855   */\n    tag_291:\n        /* \"#utility.yul\":14815:14822   */\n      0x00\n        /* \"#utility.yul\":14844:14849   */\n      dup2\n        /* \"#utility.yul\":14833:14849   */\n      swap1\n      pop\n        /* \"#utility.yul\":14778:14855   */\n      swap2\n      swap1\n      pop\n      jump\t// out\n        /* \"#utility.yul\":14861:14990   */\n    tag_226:\n        /* \"#utility.yul\":14918:14927   */\n      0x00\n        /* \"#utility.yul\":14951:14984   */\n      tag_361\n        /* \"#utility.yul\":14978:14983   */\n      dup3\n        /* \"#utility.yul\":14951:14984   */\n      tag_354\n      jump\t// in\n    tag_361:\n        /* \"#utility.yul\":14938:14984   */\n      swap1\n      pop\n        /* \"#utility.yul\":14861:14990   */\n      swap2\n      swap1\n      pop\n      jump\t// out\n        /* \"#utility.yul\":14996:15303   */\n    tag_234:\n        /* \"#utility.yul\":15064:15065   */\n      0x00\n        /* \"#utility.yul\":15074:15187   */\n    tag_363:\n        /* \"#utility.yul\":15088:15094   */\n      dup4\n        /* \"#utility.yul\":15085:15086   */\n      dup2\n        /* \"#utility.yul\":15082:15095   */\n      lt\n        /* \"#utility.yul\":15074:15187   */\n      iszero\n      tag_365\n      jumpi\n        /* \"#utility.yul\":15173:15174   */\n      dup1\n        /* \"#utility.yul\":15168:15171   */\n      dup3\n        /* \"#utility.yul\":15164:15175   */\n      add\n        /* \"#utility.yul\":15158:15176   */\n      mload\n        /* \"#utility.yul\":15154:15155   */\n      dup2\n        /* \"#utility.yul\":15149:15152   */\n      dup5\n        /* \"#utility.yul\":15145:15156   */\n      add\n        /* \"#utility.yul\":15138:15177   */\n      mstore\n        /* \"#utility.yul\":15110:15112   */\n      0x20\n        /* \"#utility.yul\":15107:15108   */\n      dup2\n        /* \"#utility.yul\":15103:15113   */\n      add\n        /* \"#utility.yul\":15098:15113   */\n      swap1\n      pop\n        /* \"#utility.yul\":15074:15187   */\n      jump(tag_363)\n    tag_365:\n        /* \"#utility.yul\":15205:15211   */\n      dup4\n        /* \"#utility.yul\":15202:15203   */\n      dup2\n        /* \"#utility.yul\":15199:15212   */\n      gt\n        /* \"#utility.yul\":15196:15297   */\n      iszero\n      tag_366\n      jumpi\n        /* \"#utility.yul\":15285:15286   */\n      0x00\n        /* \"#utility.yul\":15276:15282   */\n      dup5\n        /* \"#utility.yul\":15271:15274   */\n      dup5\n        /* \"#utility.yul\":15267:15283   */\n      add\n        /* \"#utility.yul\":15260:15287   */\n      mstore\n        /* \"#utility.yul\":15196:15297   */\n    tag_366:\n        /* \"#utility.yul\":15045:15303   */\n      pop\n        /* \"#utility.yul\":14996:15303   */\n      pop\n      pop\n      pop\n      jump\t// out\n        /* \"#utility.yul\":15309:15629   */\n    tag_122:\n        /* \"#utility.yul\":15353:15359   */\n      0x00\n        /* \"#utility.yul\":15390:15391   */\n      0x02\n        /* \"#utility.yul\":15384:15388   */\n      dup3\n        /* \"#utility.yul\":15380:15392   */\n      div\n        /* \"#utility.yul\":15370:15392   */\n      swap1\n      pop\n        /* \"#utility.yul\":15437:15438   */\n      0x01\n        /* \"#utility.yul\":15431:15435   */\n      dup3\n        /* \"#utility.yul\":15427:15439   */\n      and\n        /* \"#utility.yul\":15458:15476   */\n      dup1\n        /* \"#utility.yul\":15448:15529   */\n      tag_368\n      jumpi\n        /* \"#utility.yul\":15514:15518   */\n      0x7f\n        /* \"#utility.yul\":15506:15512   */\n      dup3\n        /* \"#utility.yul\":15502:15519   */\n      and\n        /* \"#utility.yul\":15492:15519   */\n      swap2\n      pop\n        /* \"#utility.yul\":15448:15529   */\n    tag_368:\n        /* \"#utility.yul\":15576:15578   */\n      0x20\n        /* \"#utility.yul\":15568:15574   */\n      dup3\n        /* \"#utility.yul\":15565:15579   */\n      lt\n        /* \"#utility.yul\":15545:15563   */\n      dup2\n        /* \"#utility.yul\":15542:15580   */\n      eq\n        /* \"#utility.yul\":15539:15623   */\n      iszero\n      tag_369\n      jumpi\n        /* \"#utility.yul\":15595:15613   */\n      tag_370\n      tag_371\n      jump\t// in\n    tag_370:\n        /* \"#utility.yul\":15539:15623   */\n    tag_369:\n        /* \"#utility.yul\":15360:15629   */\n      pop\n        /* \"#utility.yul\":15309:15629   */\n      swap2\n      swap1\n      pop\n      jump\t// out\n        /* \"#utility.yul\":15635:15714   */\n    tag_296:\n        /* \"#utility.yul\":15674:15681   */\n      0x00\n        /* \"#utility.yul\":15703:15708   */\n      dup2\n        /* \"#utility.yul\":15692:15708   */\n      swap1\n      pop\n        /* \"#utility.yul\":15635:15714   */\n      swap2\n      swap1\n      pop\n      jump\t// out\n        /* \"#utility.yul\":15720:15900   */\n    tag_342:\n        /* \"#utility.yul\":15768:15845   */\n      0x4e487b7100000000000000000000000000000000000000000000000000000000\n        /* \"#utility.yul\":15765:15766   */\n      0x00\n        /* \"#utility.yul\":15758:15846   */\n      mstore\n        /* \"#utility.yul\":15865:15869   */\n      0x11\n        /* \"#utility.yul\":15862:15863   */\n      0x04\n        /* \"#utility.yul\":15855:15870   */\n      mstore\n        /* \"#utility.yul\":15889:15893   */\n      0x24\n        /* \"#utility.yul\":15886:15887   */\n      0x00\n        /* \"#utility.yul\":15879:15894   */\n      revert\n        /* \"#utility.yul\":15906:16086   */\n    tag_374:\n        /* \"#utility.yul\":15954:16031   */\n      0x4e487b7100000000000000000000000000000000000000000000000000000000\n        /* \"#utility.yul\":15951:15952   */\n      0x00\n        /* \"#utility.yul\":15944:16032   */\n      mstore\n        /* \"#utility.yul\":16051:16055   */\n      0x21\n        /* \"#utility.yul\":16048:16049   */\n      0x04\n        /* \"#utility.yul\":16041:16056   */\n      mstore\n        /* \"#utility.yul\":16075:16079   */\n      0x24\n        /* \"#utility.yul\":16072:16073   */\n      0x00\n        /* \"#utility.yul\":16065:16080   */\n      revert\n        /* \"#utility.yul\":16092:16272   */\n    tag_371:\n        /* \"#utility.yul\":16140:16217   */\n      0x4e487b7100000000000000000000000000000000000000000000000000000000\n        /* \"#utility.yul\":16137:16138   */\n      0x00\n        /* \"#utility.yul\":16130:16218   */\n      mstore\n        /* \"#utility.yul\":16237:16241   */\n      0x22\n        /* \"#utility.yul\":16234:16235   */\n      0x04\n        /* \"#utility.yul\":16227:16242   */\n      mstore\n        /* \"#utility.yul\":16261:16265   */\n      0x24\n        /* \"#utility.yul\":16258:16259   */\n      0x00\n        /* \"#utility.yul\":16251:16266   */\n      revert\n        /* \"#utility.yul\":16401:16518   */\n    tag_193:\n        /* \"#utility.yul\":16510:16511   */\n      0x00\n        /* \"#utility.yul\":16507:16508   */\n      dup1\n        /* \"#utility.yul\":16500:16512   */\n      revert\n        /* \"#utility.yul\":16524:16626   */\n    tag_236:\n        /* \"#utility.yul\":16565:16571   */\n      0x00\n        /* \"#utility.yul\":16616:16618   */\n      0x1f\n        /* \"#utility.yul\":16612:16619   */\n      not\n        /* \"#utility.yul\":16607:16609   */\n      0x1f\n        /* \"#utility.yul\":16600:16605   */\n      dup4\n        /* \"#utility.yul\":16596:16610   */\n      add\n        /* \"#utility.yul\":16592:16620   */\n      and\n        /* \"#utility.yul\":16582:16620   */\n      swap1\n      pop\n        /* \"#utility.yul\":16524:16626   */\n      swap2\n      swap1\n      pop\n      jump\t// out\n        /* \"#utility.yul\":16632:16867   */\n    tag_247:\n        /* \"#utility.yul\":16772:16806   */\n      0x546f6b656e2076616c75652069732067726561746572207468616e2074686520\n        /* \"#utility.yul\":16768:16769   */\n      0x00\n        /* \"#utility.yul\":16760:16766   */\n      dup3\n        /* \"#utility.yul\":16756:16770   */\n      add\n        /* \"#utility.yul\":16749:16807   */\n      mstore\n        /* \"#utility.yul\":16841:16859   */\n      0x617070726f7665642062616c616e636500000000000000000000000000000000\n        /* \"#utility.yul\":16836:16838   */\n      0x20\n        /* \"#utility.yul\":16828:16834   */\n      dup3\n        /* \"#utility.yul\":16824:16839   */\n      add\n        /* \"#utility.yul\":16817:16860   */\n      mstore\n        /* \"#utility.yul\":16632:16867   */\n      pop\n      jump\t// out\n        /* \"#utility.yul\":16873:17094   */\n    tag_252:\n        /* \"#utility.yul\":17013:17047   */\n      0x546f6b656e2076616c7565206d7573742062652067726561746572207468616e\n        /* \"#utility.yul\":17009:17010   */\n      0x00\n        /* \"#utility.yul\":17001:17007   */\n      dup3\n        /* \"#utility.yul\":16997:17011   */\n      add\n        /* \"#utility.yul\":16990:17048   */\n      mstore\n        /* \"#utility.yul\":17082:17086   */\n      0x2030000000000000000000000000000000000000000000000000000000000000\n        /* \"#utility.yul\":17077:17079   */\n      0x20\n        /* \"#utility.yul\":17069:17075   */\n      dup3\n        /* \"#utility.yul\":17065:17080   */\n      add\n        /* \"#utility.yul\":17058:17087   */\n      mstore\n        /* \"#utility.yul\":16873:17094   */\n      pop\n      jump\t// out\n        /* \"#utility.yul\":17100:17282   */\n    tag_257:\n        /* \"#utility.yul\":17240:17274   */\n      0x416d6f756e74206d7573742062652067726561746572207468616e207a65726f\n        /* \"#utility.yul\":17236:17237   */\n      0x00\n        /* \"#utility.yul\":17228:17234   */\n      dup3\n        /* \"#utility.yul\":17224:17238   */\n      add\n        /* \"#utility.yul\":17217:17275   */\n      mstore\n        /* \"#utility.yul\":17100:17282   */\n      pop\n      jump\t// out\n        /* \"#utility.yul\":17288:17469   */\n    tag_262:\n        /* \"#utility.yul\":17428:17461   */\n      0x416d6f756e742063616e6e6f74206e6f74206265206c6f776572207468616e00\n        /* \"#utility.yul\":17424:17425   */\n      0x00\n        /* \"#utility.yul\":17416:17422   */\n      dup3\n        /* \"#utility.yul\":17412:17426   */\n      add\n        /* \"#utility.yul\":17405:17462   */\n      mstore\n        /* \"#utility.yul\":17288:17469   */\n      pop\n      jump\t// out\n        /* \"#utility.yul\":17475:17696   */\n    tag_267:\n        /* \"#utility.yul\":17615:17649   */\n      0x4163636573732064656e6965642c20796f75206165206e6f7420616e2061646d\n        /* \"#utility.yul\":17611:17612   */\n      0x00\n        /* \"#utility.yul\":17603:17609   */\n      dup3\n        /* \"#utility.yul\":17599:17613   */\n      add\n        /* \"#utility.yul\":17592:17650   */\n      mstore\n        /* \"#utility.yul\":17684:17688   */\n      0x696e000000000000000000000000000000000000000000000000000000000000\n        /* \"#utility.yul\":17679:17681   */\n      0x20\n        /* \"#utility.yul\":17671:17677   */\n      dup3\n        /* \"#utility.yul\":17667:17682   */\n      add\n        /* \"#utility.yul\":17660:17689   */\n      mstore\n        /* \"#utility.yul\":17475:17696   */\n      pop\n      jump\t// out\n        /* \"#utility.yul\":17702:17937   */\n    tag_272:\n        /* \"#utility.yul\":17842:17876   */\n      0x546f6b656e2076616c75652069732067726561746572207468616e20796f7572\n        /* \"#utility.yul\":17838:17839   */\n      0x00\n        /* \"#utility.yul\":17830:17836   */\n      dup3\n        /* \"#utility.yul\":17826:17840   */\n      add\n        /* \"#utility.yul\":17819:17877   */\n      mstore\n        /* \"#utility.yul\":17911:17929   */\n      0x2063757272656e7420686f6c64696e6700000000000000000000000000000000\n        /* \"#utility.yul\":17906:17908   */\n      0x20\n        /* \"#utility.yul\":17898:17904   */\n      dup3\n        /* \"#utility.yul\":17894:17909   */\n      add\n        /* \"#utility.yul\":17887:17930   */\n      mstore\n        /* \"#utility.yul\":17702:17937   */\n      pop\n      jump\t// out\n        /* \"#utility.yul\":17943:18163   */\n    tag_277:\n        /* \"#utility.yul\":18083:18117   */\n      0x416d6f756e742063616e6e6f74206e6f74206265206869676768657220746861\n        /* \"#utility.yul\":18079:18080   */\n      0x00\n        /* \"#utility.yul\":18071:18077   */\n      dup3\n        /* \"#utility.yul\":18067:18081   */\n      add\n        /* \"#utility.yul\":18060:18118   */\n      mstore\n        /* \"#utility.yul\":18152:18155   */\n      0x6e00000000000000000000000000000000000000000000000000000000000000\n        /* \"#utility.yul\":18147:18149   */\n      0x20\n        /* \"#utility.yul\":18139:18145   */\n      dup3\n        /* \"#utility.yul\":18135:18150   */\n      add\n        /* \"#utility.yul\":18128:18156   */\n      mstore\n        /* \"#utility.yul\":17943:18163   */\n      pop\n      jump\t// out\n        /* \"#utility.yul\":18169:18347   */\n    tag_282:\n        /* \"#utility.yul\":18309:18339   */\n      0x496e73756666696369656e74204163636f756e742042616c616e636500000000\n        /* \"#utility.yul\":18305:18306   */\n      0x00\n        /* \"#utility.yul\":18297:18303   */\n      dup3\n        /* \"#utility.yul\":18293:18307   */\n      add\n        /* \"#utility.yul\":18286:18340   */\n      mstore\n        /* \"#utility.yul\":18169:18347   */\n      pop\n      jump\t// out\n        /* \"#utility.yul\":18353:18521   */\n    tag_287:\n        /* \"#utility.yul\":18493:18513   */\n      0x496e737566696369656e742042616c6e63650000000000000000000000000000\n        /* \"#utility.yul\":18489:18490   */\n      0x00\n        /* \"#utility.yul\":18481:18487   */\n      dup3\n        /* \"#utility.yul\":18477:18491   */\n      add\n        /* \"#utility.yul\":18470:18514   */\n      mstore\n        /* \"#utility.yul\":18353:18521   */\n      pop\n      jump\t// out\n        /* \"#utility.yul\":18527:18641   */\n    tag_357:\n        /* \"#utility.yul\":18609:18610   */\n      0x04\n        /* \"#utility.yul\":18602:18607   */\n      dup2\n        /* \"#utility.yul\":18599:18611   */\n      lt\n        /* \"#utility.yul\":18589:18635   */\n      tag_391\n      jumpi\n        /* \"#utility.yul\":18615:18633   */\n      tag_392\n      tag_374\n      jump\t// in\n    tag_392:\n        /* \"#utility.yul\":18589:18635   */\n    tag_391:\n        /* \"#utility.yul\":18527:18641   */\n      pop\n      jump\t// out\n        /* \"#utility.yul\":18647:18769   */\n    tag_185:\n        /* \"#utility.yul\":18720:18744   */\n      tag_394\n        /* \"#utility.yul\":18738:18743   */\n      dup2\n        /* \"#utility.yul\":18720:18744   */\n      tag_218\n      jump\t// in\n    tag_394:\n        /* \"#utility.yul\":18713:18718   */\n      dup2\n        /* \"#utility.yul\":18710:18745   */\n      eq\n        /* \"#utility.yul\":18700:18763   */\n      tag_395\n      jumpi\n        /* \"#utility.yul\":18759:18760   */\n      0x00\n        /* \"#utility.yul\":18756:18757   */\n      dup1\n        /* \"#utility.yul\":18749:18761   */\n      revert\n        /* \"#utility.yul\":18700:18763   */\n    tag_395:\n        /* \"#utility.yul\":18647:18769   */\n      pop\n      jump\t// out\n        /* \"#utility.yul\":18775:18897   */\n    tag_189:\n        /* \"#utility.yul\":18848:18872   */\n      tag_397\n        /* \"#utility.yul\":18866:18871   */\n      dup2\n        /* \"#utility.yul\":18848:18872   */\n      tag_291\n      jump\t// in\n    tag_397:\n        /* \"#utility.yul\":18841:18846   */\n      dup2\n        /* \"#utility.yul\":18838:18873   */\n      eq\n        /* \"#utility.yul\":18828:18891   */\n      tag_398\n      jumpi\n        /* \"#utility.yul\":18887:18888   */\n      0x00\n        /* \"#utility.yul\":18884:18885   */\n      dup1\n        /* \"#utility.yul\":18877:18889   */\n      revert\n        /* \"#utility.yul\":18828:18891   */\n    tag_398:\n        /* \"#utility.yul\":18775:18897   */\n      pop\n      jump\t// out\n\n    auxdata: 0xa2646970667358221220c10c82126b99f73e40513be9eb3903c5790aade18f9733d5567f85c1486e0d6e64736f6c63430008070033\n}\n",
				"bytecode": {
					"linkReferences": {},
					"object": "60806040526040518060400160405280600681526020017f5a494c4c41580000000000000000000000000000000000000000000000000000815250600090805190602001906200005192919062000275565b506040518060400160405280600381526020017f5a4c5a0000000000000000000000000000000000000000000000000000000000815250600190805190602001906200009f92919062000275565b5060006002554260085567016345785d8a0000600a55670de0b6b3a7640000600b55348015620000ce57600080fd5b5060405162001f4638038062001f468339818101604052810190620000f4919062000353565b620f424060048190555033600360006101000a81548173ffffffffffffffffffffffffffffffffffffffff021916908373ffffffffffffffffffffffffffffffffffffffff16021790555060045460056000600360009054906101000a900473ffffffffffffffffffffffffffffffffffffffff1673ffffffffffffffffffffffffffffffffffffffff1673ffffffffffffffffffffffffffffffffffffffff168152602001908152602001600020819055506000600c60006101000a81548160ff02191690836003811115620001d057620001cf6200049a565b5b021790555033600760006101000a81548173ffffffffffffffffffffffffffffffffffffffff021916908373ffffffffffffffffffffffffffffffffffffffff160217905550816008546200022691906200039a565b60098190555080600c60016101000a81548173ffffffffffffffffffffffffffffffffffffffff021916908373ffffffffffffffffffffffffffffffffffffffff160217905550505062000531565b828054620002839062000435565b90600052602060002090601f016020900481019282620002a75760008555620002f3565b82601f10620002c257805160ff1916838001178555620002f3565b82800160010185558215620002f3579182015b82811115620002f2578251825591602001919060010190620002d5565b5b50905062000302919062000306565b5090565b5b808211156200032157600081600090555060010162000307565b5090565b6000815190506200033681620004fd565b92915050565b6000815190506200034d8162000517565b92915050565b600080604083850312156200036d576200036c620004f8565b5b60006200037d858286016200033c565b9250506020620003908582860162000325565b9150509250929050565b6000620003a7826200042b565b9150620003b4836200042b565b9250827fffffffffffffffffffffffffffffffffffffffffffffffffffffffffffffffff03821115620003ec57620003eb6200046b565b5b828201905092915050565b600062000404826200040b565b9050919050565b600073ffffffffffffffffffffffffffffffffffffffff82169050919050565b6000819050919050565b600060028204905060018216806200044e57607f821691505b60208210811415620004655762000464620004c9565b5b50919050565b7f4e487b7100000000000000000000000000000000000000000000000000000000600052601160045260246000fd5b7f4e487b7100000000000000000000000000000000000000000000000000000000600052602160045260246000fd5b7f4e487b7100000000000000000000000000000000000000000000000000000000600052602260045260246000fd5b600080fd5b6200050881620003f7565b81146200051457600080fd5b50565b62000522816200042b565b81146200052e57600080fd5b50565b611a0580620005416000396000f3fe60806040526004361061011f5760003560e01c80635c658165116100a0578063a9bcea6111610064578063a9bcea6114610415578063bb0c829814610440578063dd62ed3e1461046b578063e8b5e51f146104a8578063f851a440146104c65761011f565b80635c6581651461030857806370a082311461034557806378e979251461038257806395d89b41146103ad578063a9059cbb146103d85761011f565b806328f833b7116100e757806328f833b714610231578063313ce5671461025c5780633197cbb61461028757806344f38756146102b25780634d853ee5146102dd5761011f565b806306fdde0314610124578063095ea7b31461014f57806318160ddd1461018c57806323b872dd146101b757806327e235e3146101f4575b600080fd5b34801561013057600080fd5b506101396104f1565b60405161014691906113ff565b60405180910390f35b34801561015b57600080fd5b50610176600480360381019061017191906110dc565b61057f565b60405161018391906113c9565b60405180910390f35b34801561019857600080fd5b506101a1610736565b6040516101ae9190611501565b60405180910390f35b3480156101c357600080fd5b506101de60048036038101906101d99190611089565b61073c565b6040516101eb91906113c9565b60405180910390f35b34801561020057600080fd5b5061021b6004803603810190610216919061101c565b610a71565b6040516102289190611501565b60405180910390f35b34801561023d57600080fd5b50610246610a89565b60405161025391906113ae565b60405180910390f35b34801561026857600080fd5b50610271610aaf565b60405161027e9190611501565b60405180910390f35b34801561029357600080fd5b5061029c610ab5565b6040516102a99190611501565b60405180910390f35b3480156102be57600080fd5b506102c7610abb565b6040516102d491906113e4565b60405180910390f35b3480156102e957600080fd5b506102f2610ace565b6040516102ff9190611393565b60405180910390f35b34801561031457600080fd5b5061032f600480360381019061032a9190611049565b610af4565b60405161033c9190611501565b60405180910390f35b34801561035157600080fd5b5061036c6004803603810190610367919061101c565b610b19565b6040516103799190611501565b60405180910390f35b34801561038e57600080fd5b50610397610b62565b6040516103a49190611501565b60405180910390f35b3480156103b957600080fd5b506103c2610b68565b6040516103cf91906113ff565b60405180910390f35b3480156103e457600080fd5b506103ff60048036038101906103fa91906110dc565b610bf6565b60405161040c91906113c9565b60405180910390f35b34801561042157600080fd5b5061042a610d95565b6040516104379190611501565b60405180910390f35b34801561044c57600080fd5b50610455610d9b565b6040516104629190611501565b60405180910390f35b34801561047757600080fd5b50610492600480360381019061048d9190611049565b610da1565b60405161049f9190611501565b60405180910390f35b6104b0610e28565b6040516104bd91906113c9565b60405180910390f35b3480156104d257600080fd5b506104db610fcc565b6040516104e89190611393565b60405180910390f35b600080546104fe9061167f565b80601f016020809104026020016040519081016040528092919081815260200182805461052a9061167f565b80156105775780601f1061054c57610100808354040283529160200191610577565b820191906000526020600020905b81548152906001019060200180831161055a57829003601f168201915b505050505081565b600081600560003373ffffffffffffffffffffffffffffffffffffffff1673ffffffffffffffffffffffffffffffffffffffff168152602001908152602001600020541015610603576040517f08c379a00000000000000000000000000000000000000000000000000000000081526004016105fa906114a1565b60405180910390fd5b60008211610646576040517f08c379a000000000000000000000000000000000000000000000000000000000815260040161063d90611441565b60405180910390fd5b81600660003373ffffffffffffffffffffffffffffffffffffffff1673ffffffffffffffffffffffffffffffffffffffff16815260200190815260200160002060008573ffffffffffffffffffffffffffffffffffffffff1673ffffffffffffffffffffffffffffffffffffffff168152602001908152602001600020819055508273ffffffffffffffffffffffffffffffffffffffff163373ffffffffffffffffffffffffffffffffffffffff167f8c5be1e5ebec7d5bd14f71427d1e84f3dd0314c0f7b2291e5b200ac8c7c3b925846040516107249190611501565b60405180910390a36001905092915050565b60045481565b600081600660008673ffffffffffffffffffffffffffffffffffffffff1673ffffffffffffffffffffffffffffffffffffffff16815260200190815260200160002060003373ffffffffffffffffffffffffffffffffffffffff1673ffffffffffffffffffffffffffffffffffffffff1681526020019081526020016000205410156107fd576040517f08c379a00000000000000000000000000000000000000000000000000000000081526004016107f490611421565b60405180910390fd5b81600560008673ffffffffffffffffffffffffffffffffffffffff1673ffffffffffffffffffffffffffffffffffffffff16815260200190815260200160002054101561087f576040517f08c379a0000000000000000000000000000000000000000000000000000000008152600401610876906114e1565b60405180910390fd5b600082116108c2576040517f08c379a00000000000000000000000000000000000000000000000000000000081526004016108b990611441565b60405180910390fd5b81600660008673ffffffffffffffffffffffffffffffffffffffff1673ffffffffffffffffffffffffffffffffffffffff16815260200190815260200160002060003373ffffffffffffffffffffffffffffffffffffffff1673ffffffffffffffffffffffffffffffffffffffff168152602001908152602001600020600082825461094e9190611599565b9250508190555081600560008673ffffffffffffffffffffffffffffffffffffffff1673ffffffffffffffffffffffffffffffffffffffff16815260200190815260200160002060008282546109a49190611599565b9250508190555081600560008573ffffffffffffffffffffffffffffffffffffffff1673ffffffffffffffffffffffffffffffffffffffff16815260200190815260200160002060008282546109fa9190611543565b925050819055508273ffffffffffffffffffffffffffffffffffffffff168473ffffffffffffffffffffffffffffffffffffffff167fddf252ad1be2c89b69c2b068fc378daa952ba7f163c4a11628f55a4df523b3ef84604051610a5e9190611501565b60405180910390a3600190509392505050565b60056020528060005260406000206000915090505481565b600c60019054906101000a900473ffffffffffffffffffffffffffffffffffffffff1681565b60025481565b60095481565b600c60009054906101000a900460ff1681565b600360009054906101000a900473ffffffffffffffffffffffffffffffffffffffff1681565b6006602052816000526040600020602052806000526040600020600091509150505481565b6000600560008373ffffffffffffffffffffffffffffffffffffffff1673ffffffffffffffffffffffffffffffffffffffff168152602001908152602001600020549050919050565b60085481565b60018054610b759061167f565b80601f0160208091040260200160405190810160405280929190818152602001828054610ba19061167f565b8015610bee5780601f10610bc357610100808354040283529160200191610bee565b820191906000526020600020905b815481529060010190602001808311610bd157829003601f168201915b505050505081565b600081600560003373ffffffffffffffffffffffffffffffffffffffff1673ffffffffffffffffffffffffffffffffffffffff168152602001908152602001600020541015610c7a576040517f08c379a0000000000000000000000000000000000000000000000000000000008152600401610c71906114c1565b60405180910390fd5b81600560008573ffffffffffffffffffffffffffffffffffffffff1673ffffffffffffffffffffffffffffffffffffffff1681526020019081526020016000206000828254610cc99190611543565b9250508190555081600560003373ffffffffffffffffffffffffffffffffffffffff1673ffffffffffffffffffffffffffffffffffffffff1681526020019081526020016000206000828254610d1f9190611599565b925050819055508273ffffffffffffffffffffffffffffffffffffffff163373ffffffffffffffffffffffffffffffffffffffff167fddf252ad1be2c89b69c2b068fc378daa952ba7f163c4a11628f55a4df523b3ef84604051610d839190611501565b60405180910390a36001905092915050565b600b5481565b600a5481565b6000600660008473ffffffffffffffffffffffffffffffffffffffff1673ffffffffffffffffffffffffffffffffffffffff16815260200190815260200160002060008373ffffffffffffffffffffffffffffffffffffffff1673ffffffffffffffffffffffffffffffffffffffff16815260200190815260200160002054905092915050565b6000600760009054906101000a900473ffffffffffffffffffffffffffffffffffffffff1673ffffffffffffffffffffffffffffffffffffffff163373ffffffffffffffffffffffffffffffffffffffff1614610eba576040517f08c379a0000000000000000000000000000000000000000000000000000000008152600401610eb190611481565b60405180910390fd5b60003411610efd576040517f08c379a0000000000000000000000000000000000000000000000000000000008152600401610ef490611461565b60405180910390fd5b6000600a54604051602001610f129190611347565b60405160208183030381529060405290506000600b54604051602001610f38919061136d565b604051602081830303815290604052905060008282604051602001610f5e929190611323565b6040516020818303038152906040529050600a543410158015610f835750600b543411155b8190610fc5576040517f08c379a0000000000000000000000000000000000000000000000000000000008152600401610fbc91906113ff565b60405180910390fd5b5050505090565b600760009054906101000a900473ffffffffffffffffffffffffffffffffffffffff1681565b600081359050611001816119a1565b92915050565b600081359050611016816119b8565b92915050565b60006020828403121561103257611031611748565b5b600061104084828501610ff2565b91505092915050565b600080604083850312156110605761105f611748565b5b600061106e85828601610ff2565b925050602061107f85828601610ff2565b9150509250929050565b6000806000606084860312156110a2576110a1611748565b5b60006110b086828701610ff2565b93505060206110c186828701610ff2565b92505060406110d286828701611007565b9150509250925092565b600080604083850312156110f3576110f2611748565b5b600061110185828601610ff2565b925050602061111285828601611007565b9150509250929050565b611125816115df565b82525050565b611134816115cd565b82525050565b611143816115f1565b82525050565b6111528161163a565b82525050565b60006111638261151c565b61116d8185611527565b935061117d81856020860161164c565b6111868161174d565b840191505092915050565b600061119c8261151c565b6111a68185611538565b93506111b681856020860161164c565b80840191505092915050565b60006111cf603083611527565b91506111da8261175e565b604082019050919050565b60006111f2602283611527565b91506111fd826117ad565b604082019050919050565b6000611215602083611527565b9150611220826117fc565b602082019050919050565b6000611238601f83611538565b915061124382611825565b601f82019050919050565b600061125b602283611527565b91506112668261184e565b604082019050919050565b600061127e603083611527565b91506112898261189d565b604082019050919050565b60006112a1602183611538565b91506112ac826118ec565b602182019050919050565b60006112c4601c83611527565b91506112cf8261193b565b602082019050919050565b60006112e7601283611527565b91506112f282611964565b602082019050919050565b61130681611630565b82525050565b61131d61131882611630565b6116b1565b82525050565b600061132f8285611191565b915061133b8284611191565b91508190509392505050565b60006113528261122b565b915061135e828461130c565b60208201915081905092915050565b600061137882611294565b9150611384828461130c565b60208201915081905092915050565b60006020820190506113a8600083018461112b565b92915050565b60006020820190506113c3600083018461111c565b92915050565b60006020820190506113de600083018461113a565b92915050565b60006020820190506113f96000830184611149565b92915050565b600060208201905081810360008301526114198184611158565b905092915050565b6000602082019050818103600083015261143a816111c2565b9050919050565b6000602082019050818103600083015261145a816111e5565b9050919050565b6000602082019050818103600083015261147a81611208565b9050919050565b6000602082019050818103600083015261149a8161124e565b9050919050565b600060208201905081810360008301526114ba81611271565b9050919050565b600060208201905081810360008301526114da816112b7565b9050919050565b600060208201905081810360008301526114fa816112da565b9050919050565b600060208201905061151660008301846112fd565b92915050565b600081519050919050565b600082825260208201905092915050565b600081905092915050565b600061154e82611630565b915061155983611630565b9250827fffffffffffffffffffffffffffffffffffffffffffffffffffffffffffffffff0382111561158e5761158d6116bb565b5b828201905092915050565b60006115a482611630565b91506115af83611630565b9250828210156115c2576115c16116bb565b5b828203905092915050565b60006115d882611610565b9050919050565b60006115ea82611610565b9050919050565b60008115159050919050565b600081905061160b8261198d565b919050565b600073ffffffffffffffffffffffffffffffffffffffff82169050919050565b6000819050919050565b6000611645826115fd565b9050919050565b60005b8381101561166a57808201518184015260208101905061164f565b83811115611679576000848401525b50505050565b6000600282049050600182168061169757607f821691505b602082108114156116ab576116aa611719565b5b50919050565b6000819050919050565b7f4e487b7100000000000000000000000000000000000000000000000000000000600052601160045260246000fd5b7f4e487b7100000000000000000000000000000000000000000000000000000000600052602160045260246000fd5b7f4e487b7100000000000000000000000000000000000000000000000000000000600052602260045260246000fd5b600080fd5b6000601f19601f8301169050919050565b7f546f6b656e2076616c75652069732067726561746572207468616e207468652060008201527f617070726f7665642062616c616e636500000000000000000000000000000000602082015250565b7f546f6b656e2076616c7565206d7573742062652067726561746572207468616e60008201527f2030000000000000000000000000000000000000000000000000000000000000602082015250565b7f416d6f756e74206d7573742062652067726561746572207468616e207a65726f600082015250565b7f416d6f756e742063616e6e6f74206e6f74206265206c6f776572207468616e00600082015250565b7f4163636573732064656e6965642c20796f75206165206e6f7420616e2061646d60008201527f696e000000000000000000000000000000000000000000000000000000000000602082015250565b7f546f6b656e2076616c75652069732067726561746572207468616e20796f757260008201527f2063757272656e7420686f6c64696e6700000000000000000000000000000000602082015250565b7f416d6f756e742063616e6e6f74206e6f7420626520686967676865722074686160008201527f6e00000000000000000000000000000000000000000000000000000000000000602082015250565b7f496e73756666696369656e74204163636f756e742042616c616e636500000000600082015250565b7f496e737566696369656e742042616c6e63650000000000000000000000000000600082015250565b6004811061199e5761199d6116ea565b5b50565b6119aa816115cd565b81146119b557600080fd5b50565b6119c181611630565b81146119cc57600080fd5b5056fea2646970667358221220c10c82126b99f73e40513be9eb3903c5790aade18f9733d5567f85c1486e0d6e64736f6c63430008070033",
					"opcodes": "PUSH1 0x80 PUSH1 0x40 MSTORE PUSH1 0x40 MLOAD DUP1 PUSH1 0x40 ADD PUSH1 0x40 MSTORE DUP1 PUSH1 0x6 DUP2 MSTORE PUSH1 0x20 ADD PUSH32 0x5A494C4C41580000000000000000000000000000000000000000000000000000 DUP2 MSTORE POP PUSH1 0x0 SWAP1 DUP1 MLOAD SWAP1 PUSH1 0x20 ADD SWAP1 PUSH3 0x51 SWAP3 SWAP2 SWAP1 PUSH3 0x275 JUMP JUMPDEST POP PUSH1 0x40 MLOAD DUP1 PUSH1 0x40 ADD PUSH1 0x40 MSTORE DUP1 PUSH1 0x3 DUP2 MSTORE PUSH1 0x20 ADD PUSH32 0x5A4C5A0000000000000000000000000000000000000000000000000000000000 DUP2 MSTORE POP PUSH1 0x1 SWAP1 DUP1 MLOAD SWAP1 PUSH1 0x20 ADD SWAP1 PUSH3 0x9F SWAP3 SWAP2 SWAP1 PUSH3 0x275 JUMP JUMPDEST POP PUSH1 0x0 PUSH1 0x2 SSTORE TIMESTAMP PUSH1 0x8 SSTORE PUSH8 0x16345785D8A0000 PUSH1 0xA SSTORE PUSH8 0xDE0B6B3A7640000 PUSH1 0xB SSTORE CALLVALUE DUP1 ISZERO PUSH3 0xCE JUMPI PUSH1 0x0 DUP1 REVERT JUMPDEST POP PUSH1 0x40 MLOAD PUSH3 0x1F46 CODESIZE SUB DUP1 PUSH3 0x1F46 DUP4 CODECOPY DUP2 DUP2 ADD PUSH1 0x40 MSTORE DUP2 ADD SWAP1 PUSH3 0xF4 SWAP2 SWAP1 PUSH3 0x353 JUMP JUMPDEST PUSH3 0xF4240 PUSH1 0x4 DUP2 SWAP1 SSTORE POP CALLER PUSH1 0x3 PUSH1 0x0 PUSH2 0x100 EXP DUP2 SLOAD DUP2 PUSH20 0xFFFFFFFFFFFFFFFFFFFFFFFFFFFFFFFFFFFFFFFF MUL NOT AND SWAP1 DUP4 PUSH20 0xFFFFFFFFFFFFFFFFFFFFFFFFFFFFFFFFFFFFFFFF AND MUL OR SWAP1 SSTORE POP PUSH1 0x4 SLOAD PUSH1 0x5 PUSH1 0x0 PUSH1 0x3 PUSH1 0x0 SWAP1 SLOAD SWAP1 PUSH2 0x100 EXP SWAP1 DIV PUSH20 0xFFFFFFFFFFFFFFFFFFFFFFFFFFFFFFFFFFFFFFFF AND PUSH20 0xFFFFFFFFFFFFFFFFFFFFFFFFFFFFFFFFFFFFFFFF AND PUSH20 0xFFFFFFFFFFFFFFFFFFFFFFFFFFFFFFFFFFFFFFFF AND DUP2 MSTORE PUSH1 0x20 ADD SWAP1 DUP2 MSTORE PUSH1 0x20 ADD PUSH1 0x0 KECCAK256 DUP2 SWAP1 SSTORE POP PUSH1 0x0 PUSH1 0xC PUSH1 0x0 PUSH2 0x100 EXP DUP2 SLOAD DUP2 PUSH1 0xFF MUL NOT AND SWAP1 DUP4 PUSH1 0x3 DUP2 GT ISZERO PUSH3 0x1D0 JUMPI PUSH3 0x1CF PUSH3 0x49A JUMP JUMPDEST JUMPDEST MUL OR SWAP1 SSTORE POP CALLER PUSH1 0x7 PUSH1 0x0 PUSH2 0x100 EXP DUP2 SLOAD DUP2 PUSH20 0xFFFFFFFFFFFFFFFFFFFFFFFFFFFFFFFFFFFFFFFF MUL NOT AND SWAP1 DUP4 PUSH20 0xFFFFFFFFFFFFFFFFFFFFFFFFFFFFFFFFFFFFFFFF AND MUL OR SWAP1 SSTORE POP DUP2 PUSH1 0x8 SLOAD PUSH3 0x226 SWAP2 SWAP1 PUSH3 0x39A JUMP JUMPDEST PUSH1 0x9 DUP2 SWAP1 SSTORE POP DUP1 PUSH1 0xC PUSH1 0x1 PUSH2 0x100 EXP DUP2 SLOAD DUP2 PUSH20 0xFFFFFFFFFFFFFFFFFFFFFFFFFFFFFFFFFFFFFFFF MUL NOT AND SWAP1 DUP4 PUSH20 0xFFFFFFFFFFFFFFFFFFFFFFFFFFFFFFFFFFFFFFFF AND MUL OR SWAP1 SSTORE POP POP POP PUSH3 0x531 JUMP JUMPDEST DUP3 DUP1 SLOAD PUSH3 0x283 SWAP1 PUSH3 0x435 JUMP JUMPDEST SWAP1 PUSH1 0x0 MSTORE PUSH1 0x20 PUSH1 0x0 KECCAK256 SWAP1 PUSH1 0x1F ADD PUSH1 0x20 SWAP1 DIV DUP2 ADD SWAP3 DUP3 PUSH3 0x2A7 JUMPI PUSH1 0x0 DUP6 SSTORE PUSH3 0x2F3 JUMP JUMPDEST DUP3 PUSH1 0x1F LT PUSH3 0x2C2 JUMPI DUP1 MLOAD PUSH1 0xFF NOT AND DUP4 DUP1 ADD OR DUP6 SSTORE PUSH3 0x2F3 JUMP JUMPDEST DUP3 DUP1 ADD PUSH1 0x1 ADD DUP6 SSTORE DUP3 ISZERO PUSH3 0x2F3 JUMPI SWAP2 DUP3 ADD JUMPDEST DUP3 DUP2 GT ISZERO PUSH3 0x2F2 JUMPI DUP3 MLOAD DUP3 SSTORE SWAP2 PUSH1 0x20 ADD SWAP2 SWAP1 PUSH1 0x1 ADD SWAP1 PUSH3 0x2D5 JUMP JUMPDEST JUMPDEST POP SWAP1 POP PUSH3 0x302 SWAP2 SWAP1 PUSH3 0x306 JUMP JUMPDEST POP SWAP1 JUMP JUMPDEST JUMPDEST DUP1 DUP3 GT ISZERO PUSH3 0x321 JUMPI PUSH1 0x0 DUP2 PUSH1 0x0 SWAP1 SSTORE POP PUSH1 0x1 ADD PUSH3 0x307 JUMP JUMPDEST POP SWAP1 JUMP JUMPDEST PUSH1 0x0 DUP2 MLOAD SWAP1 POP PUSH3 0x336 DUP2 PUSH3 0x4FD JUMP JUMPDEST SWAP3 SWAP2 POP POP JUMP JUMPDEST PUSH1 0x0 DUP2 MLOAD SWAP1 POP PUSH3 0x34D DUP2 PUSH3 0x517 JUMP JUMPDEST SWAP3 SWAP2 POP POP JUMP JUMPDEST PUSH1 0x0 DUP1 PUSH1 0x40 DUP4 DUP6 SUB SLT ISZERO PUSH3 0x36D JUMPI PUSH3 0x36C PUSH3 0x4F8 JUMP JUMPDEST JUMPDEST PUSH1 0x0 PUSH3 0x37D DUP6 DUP3 DUP7 ADD PUSH3 0x33C JUMP JUMPDEST SWAP3 POP POP PUSH1 0x20 PUSH3 0x390 DUP6 DUP3 DUP7 ADD PUSH3 0x325 JUMP JUMPDEST SWAP2 POP POP SWAP3 POP SWAP3 SWAP1 POP JUMP JUMPDEST PUSH1 0x0 PUSH3 0x3A7 DUP3 PUSH3 0x42B JUMP JUMPDEST SWAP2 POP PUSH3 0x3B4 DUP4 PUSH3 0x42B JUMP JUMPDEST SWAP3 POP DUP3 PUSH32 0xFFFFFFFFFFFFFFFFFFFFFFFFFFFFFFFFFFFFFFFFFFFFFFFFFFFFFFFFFFFFFFFF SUB DUP3 GT ISZERO PUSH3 0x3EC JUMPI PUSH3 0x3EB PUSH3 0x46B JUMP JUMPDEST JUMPDEST DUP3 DUP3 ADD SWAP1 POP SWAP3 SWAP2 POP POP JUMP JUMPDEST PUSH1 0x0 PUSH3 0x404 DUP3 PUSH3 0x40B JUMP JUMPDEST SWAP1 POP SWAP2 SWAP1 POP JUMP JUMPDEST PUSH1 0x0 PUSH20 0xFFFFFFFFFFFFFFFFFFFFFFFFFFFFFFFFFFFFFFFF DUP3 AND SWAP1 POP SWAP2 SWAP1 POP JUMP JUMPDEST PUSH1 0x0 DUP2 SWAP1 POP SWAP2 SWAP1 POP JUMP JUMPDEST PUSH1 0x0 PUSH1 0x2 DUP3 DIV SWAP1 POP PUSH1 0x1 DUP3 AND DUP1 PUSH3 0x44E JUMPI PUSH1 0x7F DUP3 AND SWAP2 POP JUMPDEST PUSH1 0x20 DUP3 LT DUP2 EQ ISZERO PUSH3 0x465 JUMPI PUSH3 0x464 PUSH3 0x4C9 JUMP JUMPDEST JUMPDEST POP SWAP2 SWAP1 POP JUMP JUMPDEST PUSH32 0x4E487B7100000000000000000000000000000000000000000000000000000000 PUSH1 0x0 MSTORE PUSH1 0x11 PUSH1 0x4 MSTORE PUSH1 0x24 PUSH1 0x0 REVERT JUMPDEST PUSH32 0x4E487B7100000000000000000000000000000000000000000000000000000000 PUSH1 0x0 MSTORE PUSH1 0x21 PUSH1 0x4 MSTORE PUSH1 0x24 PUSH1 0x0 REVERT JUMPDEST PUSH32 0x4E487B7100000000000000000000000000000000000000000000000000000000 PUSH1 0x0 MSTORE PUSH1 0x22 PUSH1 0x4 MSTORE PUSH1 0x24 PUSH1 0x0 REVERT JUMPDEST PUSH1 0x0 DUP1 REVERT JUMPDEST PUSH3 0x508 DUP2 PUSH3 0x3F7 JUMP JUMPDEST DUP2 EQ PUSH3 0x514 JUMPI PUSH1 0x0 DUP1 REVERT JUMPDEST POP JUMP JUMPDEST PUSH3 0x522 DUP2 PUSH3 0x42B JUMP JUMPDEST DUP2 EQ PUSH3 0x52E JUMPI PUSH1 0x0 DUP1 REVERT JUMPDEST POP JUMP JUMPDEST PUSH2 0x1A05 DUP1 PUSH3 0x541 PUSH1 0x0 CODECOPY PUSH1 0x0 RETURN INVALID PUSH1 0x80 PUSH1 0x40 MSTORE PUSH1 0x4 CALLDATASIZE LT PUSH2 0x11F JUMPI PUSH1 0x0 CALLDATALOAD PUSH1 0xE0 SHR DUP1 PUSH4 0x5C658165 GT PUSH2 0xA0 JUMPI DUP1 PUSH4 0xA9BCEA61 GT PUSH2 0x64 JUMPI DUP1 PUSH4 0xA9BCEA61 EQ PUSH2 0x415 JUMPI DUP1 PUSH4 0xBB0C8298 EQ PUSH2 0x440 JUMPI DUP1 PUSH4 0xDD62ED3E EQ PUSH2 0x46B JUMPI DUP1 PUSH4 0xE8B5E51F EQ PUSH2 0x4A8 JUMPI DUP1 PUSH4 0xF851A440 EQ PUSH2 0x4C6 JUMPI PUSH2 0x11F JUMP JUMPDEST DUP1 PUSH4 0x5C658165 EQ PUSH2 0x308 JUMPI DUP1 PUSH4 0x70A08231 EQ PUSH2 0x345 JUMPI DUP1 PUSH4 0x78E97925 EQ PUSH2 0x382 JUMPI DUP1 PUSH4 0x95D89B41 EQ PUSH2 0x3AD JUMPI DUP1 PUSH4 0xA9059CBB EQ PUSH2 0x3D8 JUMPI PUSH2 0x11F JUMP JUMPDEST DUP1 PUSH4 0x28F833B7 GT PUSH2 0xE7 JUMPI DUP1 PUSH4 0x28F833B7 EQ PUSH2 0x231 JUMPI DUP1 PUSH4 0x313CE567 EQ PUSH2 0x25C JUMPI DUP1 PUSH4 0x3197CBB6 EQ PUSH2 0x287 JUMPI DUP1 PUSH4 0x44F38756 EQ PUSH2 0x2B2 JUMPI DUP1 PUSH4 0x4D853EE5 EQ PUSH2 0x2DD JUMPI PUSH2 0x11F JUMP JUMPDEST DUP1 PUSH4 0x6FDDE03 EQ PUSH2 0x124 JUMPI DUP1 PUSH4 0x95EA7B3 EQ PUSH2 0x14F JUMPI DUP1 PUSH4 0x18160DDD EQ PUSH2 0x18C JUMPI DUP1 PUSH4 0x23B872DD EQ PUSH2 0x1B7 JUMPI DUP1 PUSH4 0x27E235E3 EQ PUSH2 0x1F4 JUMPI JUMPDEST PUSH1 0x0 DUP1 REVERT JUMPDEST CALLVALUE DUP1 ISZERO PUSH2 0x130 JUMPI PUSH1 0x0 DUP1 REVERT JUMPDEST POP PUSH2 0x139 PUSH2 0x4F1 JUMP JUMPDEST PUSH1 0x40 MLOAD PUSH2 0x146 SWAP2 SWAP1 PUSH2 0x13FF JUMP JUMPDEST PUSH1 0x40 MLOAD DUP1 SWAP2 SUB SWAP1 RETURN JUMPDEST CALLVALUE DUP1 ISZERO PUSH2 0x15B JUMPI PUSH1 0x0 DUP1 REVERT JUMPDEST POP PUSH2 0x176 PUSH1 0x4 DUP1 CALLDATASIZE SUB DUP2 ADD SWAP1 PUSH2 0x171 SWAP2 SWAP1 PUSH2 0x10DC JUMP JUMPDEST PUSH2 0x57F JUMP JUMPDEST PUSH1 0x40 MLOAD PUSH2 0x183 SWAP2 SWAP1 PUSH2 0x13C9 JUMP JUMPDEST PUSH1 0x40 MLOAD DUP1 SWAP2 SUB SWAP1 RETURN JUMPDEST CALLVALUE DUP1 ISZERO PUSH2 0x198 JUMPI PUSH1 0x0 DUP1 REVERT JUMPDEST POP PUSH2 0x1A1 PUSH2 0x736 JUMP JUMPDEST PUSH1 0x40 MLOAD PUSH2 0x1AE SWAP2 SWAP1 PUSH2 0x1501 JUMP JUMPDEST PUSH1 0x40 MLOAD DUP1 SWAP2 SUB SWAP1 RETURN JUMPDEST CALLVALUE DUP1 ISZERO PUSH2 0x1C3 JUMPI PUSH1 0x0 DUP1 REVERT JUMPDEST POP PUSH2 0x1DE PUSH1 0x4 DUP1 CALLDATASIZE SUB DUP2 ADD SWAP1 PUSH2 0x1D9 SWAP2 SWAP1 PUSH2 0x1089 JUMP JUMPDEST PUSH2 0x73C JUMP JUMPDEST PUSH1 0x40 MLOAD PUSH2 0x1EB SWAP2 SWAP1 PUSH2 0x13C9 JUMP JUMPDEST PUSH1 0x40 MLOAD DUP1 SWAP2 SUB SWAP1 RETURN JUMPDEST CALLVALUE DUP1 ISZERO PUSH2 0x200 JUMPI PUSH1 0x0 DUP1 REVERT JUMPDEST POP PUSH2 0x21B PUSH1 0x4 DUP1 CALLDATASIZE SUB DUP2 ADD SWAP1 PUSH2 0x216 SWAP2 SWAP1 PUSH2 0x101C JUMP JUMPDEST PUSH2 0xA71 JUMP JUMPDEST PUSH1 0x40 MLOAD PUSH2 0x228 SWAP2 SWAP1 PUSH2 0x1501 JUMP JUMPDEST PUSH1 0x40 MLOAD DUP1 SWAP2 SUB SWAP1 RETURN JUMPDEST CALLVALUE DUP1 ISZERO PUSH2 0x23D JUMPI PUSH1 0x0 DUP1 REVERT JUMPDEST POP PUSH2 0x246 PUSH2 0xA89 JUMP JUMPDEST PUSH1 0x40 MLOAD PUSH2 0x253 SWAP2 SWAP1 PUSH2 0x13AE JUMP JUMPDEST PUSH1 0x40 MLOAD DUP1 SWAP2 SUB SWAP1 RETURN JUMPDEST CALLVALUE DUP1 ISZERO PUSH2 0x268 JUMPI PUSH1 0x0 DUP1 REVERT JUMPDEST POP PUSH2 0x271 PUSH2 0xAAF JUMP JUMPDEST PUSH1 0x40 MLOAD PUSH2 0x27E SWAP2 SWAP1 PUSH2 0x1501 JUMP JUMPDEST PUSH1 0x40 MLOAD DUP1 SWAP2 SUB SWAP1 RETURN JUMPDEST CALLVALUE DUP1 ISZERO PUSH2 0x293 JUMPI PUSH1 0x0 DUP1 REVERT JUMPDEST POP PUSH2 0x29C PUSH2 0xAB5 JUMP JUMPDEST PUSH1 0x40 MLOAD PUSH2 0x2A9 SWAP2 SWAP1 PUSH2 0x1501 JUMP JUMPDEST PUSH1 0x40 MLOAD DUP1 SWAP2 SUB SWAP1 RETURN JUMPDEST CALLVALUE DUP1 ISZERO PUSH2 0x2BE JUMPI PUSH1 0x0 DUP1 REVERT JUMPDEST POP PUSH2 0x2C7 PUSH2 0xABB JUMP JUMPDEST PUSH1 0x40 MLOAD PUSH2 0x2D4 SWAP2 SWAP1 PUSH2 0x13E4 JUMP JUMPDEST PUSH1 0x40 MLOAD DUP1 SWAP2 SUB SWAP1 RETURN JUMPDEST CALLVALUE DUP1 ISZERO PUSH2 0x2E9 JUMPI PUSH1 0x0 DUP1 REVERT JUMPDEST POP PUSH2 0x2F2 PUSH2 0xACE JUMP JUMPDEST PUSH1 0x40 MLOAD PUSH2 0x2FF SWAP2 SWAP1 PUSH2 0x1393 JUMP JUMPDEST PUSH1 0x40 MLOAD DUP1 SWAP2 SUB SWAP1 RETURN JUMPDEST CALLVALUE DUP1 ISZERO PUSH2 0x314 JUMPI PUSH1 0x0 DUP1 REVERT JUMPDEST POP PUSH2 0x32F PUSH1 0x4 DUP1 CALLDATASIZE SUB DUP2 ADD SWAP1 PUSH2 0x32A SWAP2 SWAP1 PUSH2 0x1049 JUMP JUMPDEST PUSH2 0xAF4 JUMP JUMPDEST PUSH1 0x40 MLOAD PUSH2 0x33C SWAP2 SWAP1 PUSH2 0x1501 JUMP JUMPDEST PUSH1 0x40 MLOAD DUP1 SWAP2 SUB SWAP1 RETURN JUMPDEST CALLVALUE DUP1 ISZERO PUSH2 0x351 JUMPI PUSH1 0x0 DUP1 REVERT JUMPDEST POP PUSH2 0x36C PUSH1 0x4 DUP1 CALLDATASIZE SUB DUP2 ADD SWAP1 PUSH2 0x367 SWAP2 SWAP1 PUSH2 0x101C JUMP JUMPDEST PUSH2 0xB19 JUMP JUMPDEST PUSH1 0x40 MLOAD PUSH2 0x379 SWAP2 SWAP1 PUSH2 0x1501 JUMP JUMPDEST PUSH1 0x40 MLOAD DUP1 SWAP2 SUB SWAP1 RETURN JUMPDEST CALLVALUE DUP1 ISZERO PUSH2 0x38E JUMPI PUSH1 0x0 DUP1 REVERT JUMPDEST POP PUSH2 0x397 PUSH2 0xB62 JUMP JUMPDEST PUSH1 0x40 MLOAD PUSH2 0x3A4 SWAP2 SWAP1 PUSH2 0x1501 JUMP JUMPDEST PUSH1 0x40 MLOAD DUP1 SWAP2 SUB SWAP1 RETURN JUMPDEST CALLVALUE DUP1 ISZERO PUSH2 0x3B9 JUMPI PUSH1 0x0 DUP1 REVERT JUMPDEST POP PUSH2 0x3C2 PUSH2 0xB68 JUMP JUMPDEST PUSH1 0x40 MLOAD PUSH2 0x3CF SWAP2 SWAP1 PUSH2 0x13FF JUMP JUMPDEST PUSH1 0x40 MLOAD DUP1 SWAP2 SUB SWAP1 RETURN JUMPDEST CALLVALUE DUP1 ISZERO PUSH2 0x3E4 JUMPI PUSH1 0x0 DUP1 REVERT JUMPDEST POP PUSH2 0x3FF PUSH1 0x4 DUP1 CALLDATASIZE SUB DUP2 ADD SWAP1 PUSH2 0x3FA SWAP2 SWAP1 PUSH2 0x10DC JUMP JUMPDEST PUSH2 0xBF6 JUMP JUMPDEST PUSH1 0x40 MLOAD PUSH2 0x40C SWAP2 SWAP1 PUSH2 0x13C9 JUMP JUMPDEST PUSH1 0x40 MLOAD DUP1 SWAP2 SUB SWAP1 RETURN JUMPDEST CALLVALUE DUP1 ISZERO PUSH2 0x421 JUMPI PUSH1 0x0 DUP1 REVERT JUMPDEST POP PUSH2 0x42A PUSH2 0xD95 JUMP JUMPDEST PUSH1 0x40 MLOAD PUSH2 0x437 SWAP2 SWAP1 PUSH2 0x1501 JUMP JUMPDEST PUSH1 0x40 MLOAD DUP1 SWAP2 SUB SWAP1 RETURN JUMPDEST CALLVALUE DUP1 ISZERO PUSH2 0x44C JUMPI PUSH1 0x0 DUP1 REVERT JUMPDEST POP PUSH2 0x455 PUSH2 0xD9B JUMP JUMPDEST PUSH1 0x40 MLOAD PUSH2 0x462 SWAP2 SWAP1 PUSH2 0x1501 JUMP JUMPDEST PUSH1 0x40 MLOAD DUP1 SWAP2 SUB SWAP1 RETURN JUMPDEST CALLVALUE DUP1 ISZERO PUSH2 0x477 JUMPI PUSH1 0x0 DUP1 REVERT JUMPDEST POP PUSH2 0x492 PUSH1 0x4 DUP1 CALLDATASIZE SUB DUP2 ADD SWAP1 PUSH2 0x48D SWAP2 SWAP1 PUSH2 0x1049 JUMP JUMPDEST PUSH2 0xDA1 JUMP JUMPDEST PUSH1 0x40 MLOAD PUSH2 0x49F SWAP2 SWAP1 PUSH2 0x1501 JUMP JUMPDEST PUSH1 0x40 MLOAD DUP1 SWAP2 SUB SWAP1 RETURN JUMPDEST PUSH2 0x4B0 PUSH2 0xE28 JUMP JUMPDEST PUSH1 0x40 MLOAD PUSH2 0x4BD SWAP2 SWAP1 PUSH2 0x13C9 JUMP JUMPDEST PUSH1 0x40 MLOAD DUP1 SWAP2 SUB SWAP1 RETURN JUMPDEST CALLVALUE DUP1 ISZERO PUSH2 0x4D2 JUMPI PUSH1 0x0 DUP1 REVERT JUMPDEST POP PUSH2 0x4DB PUSH2 0xFCC JUMP JUMPDEST PUSH1 0x40 MLOAD PUSH2 0x4E8 SWAP2 SWAP1 PUSH2 0x1393 JUMP JUMPDEST PUSH1 0x40 MLOAD DUP1 SWAP2 SUB SWAP1 RETURN JUMPDEST PUSH1 0x0 DUP1 SLOAD PUSH2 0x4FE SWAP1 PUSH2 0x167F JUMP JUMPDEST DUP1 PUSH1 0x1F ADD PUSH1 0x20 DUP1 SWAP2 DIV MUL PUSH1 0x20 ADD PUSH1 0x40 MLOAD SWAP1 DUP2 ADD PUSH1 0x40 MSTORE DUP1 SWAP3 SWAP2 SWAP1 DUP2 DUP2 MSTORE PUSH1 0x20 ADD DUP3 DUP1 SLOAD PUSH2 0x52A SWAP1 PUSH2 0x167F JUMP JUMPDEST DUP1 ISZERO PUSH2 0x577 JUMPI DUP1 PUSH1 0x1F LT PUSH2 0x54C JUMPI PUSH2 0x100 DUP1 DUP4 SLOAD DIV MUL DUP4 MSTORE SWAP2 PUSH1 0x20 ADD SWAP2 PUSH2 0x577 JUMP JUMPDEST DUP3 ADD SWAP2 SWAP1 PUSH1 0x0 MSTORE PUSH1 0x20 PUSH1 0x0 KECCAK256 SWAP1 JUMPDEST DUP2 SLOAD DUP2 MSTORE SWAP1 PUSH1 0x1 ADD SWAP1 PUSH1 0x20 ADD DUP1 DUP4 GT PUSH2 0x55A JUMPI DUP3 SWAP1 SUB PUSH1 0x1F AND DUP3 ADD SWAP2 JUMPDEST POP POP POP POP POP DUP2 JUMP JUMPDEST PUSH1 0x0 DUP2 PUSH1 0x5 PUSH1 0x0 CALLER PUSH20 0xFFFFFFFFFFFFFFFFFFFFFFFFFFFFFFFFFFFFFFFF AND PUSH20 0xFFFFFFFFFFFFFFFFFFFFFFFFFFFFFFFFFFFFFFFF AND DUP2 MSTORE PUSH1 0x20 ADD SWAP1 DUP2 MSTORE PUSH1 0x20 ADD PUSH1 0x0 KECCAK256 SLOAD LT ISZERO PUSH2 0x603 JUMPI PUSH1 0x40 MLOAD PUSH32 0x8C379A000000000000000000000000000000000000000000000000000000000 DUP2 MSTORE PUSH1 0x4 ADD PUSH2 0x5FA SWAP1 PUSH2 0x14A1 JUMP JUMPDEST PUSH1 0x40 MLOAD DUP1 SWAP2 SUB SWAP1 REVERT JUMPDEST PUSH1 0x0 DUP3 GT PUSH2 0x646 JUMPI PUSH1 0x40 MLOAD PUSH32 0x8C379A000000000000000000000000000000000000000000000000000000000 DUP2 MSTORE PUSH1 0x4 ADD PUSH2 0x63D SWAP1 PUSH2 0x1441 JUMP JUMPDEST PUSH1 0x40 MLOAD DUP1 SWAP2 SUB SWAP1 REVERT JUMPDEST DUP2 PUSH1 0x6 PUSH1 0x0 CALLER PUSH20 0xFFFFFFFFFFFFFFFFFFFFFFFFFFFFFFFFFFFFFFFF AND PUSH20 0xFFFFFFFFFFFFFFFFFFFFFFFFFFFFFFFFFFFFFFFF AND DUP2 MSTORE PUSH1 0x20 ADD SWAP1 DUP2 MSTORE PUSH1 0x20 ADD PUSH1 0x0 KECCAK256 PUSH1 0x0 DUP6 PUSH20 0xFFFFFFFFFFFFFFFFFFFFFFFFFFFFFFFFFFFFFFFF AND PUSH20 0xFFFFFFFFFFFFFFFFFFFFFFFFFFFFFFFFFFFFFFFF AND DUP2 MSTORE PUSH1 0x20 ADD SWAP1 DUP2 MSTORE PUSH1 0x20 ADD PUSH1 0x0 KECCAK256 DUP2 SWAP1 SSTORE POP DUP3 PUSH20 0xFFFFFFFFFFFFFFFFFFFFFFFFFFFFFFFFFFFFFFFF AND CALLER PUSH20 0xFFFFFFFFFFFFFFFFFFFFFFFFFFFFFFFFFFFFFFFF AND PUSH32 0x8C5BE1E5EBEC7D5BD14F71427D1E84F3DD0314C0F7B2291E5B200AC8C7C3B925 DUP5 PUSH1 0x40 MLOAD PUSH2 0x724 SWAP2 SWAP1 PUSH2 0x1501 JUMP JUMPDEST PUSH1 0x40 MLOAD DUP1 SWAP2 SUB SWAP1 LOG3 PUSH1 0x1 SWAP1 POP SWAP3 SWAP2 POP POP JUMP JUMPDEST PUSH1 0x4 SLOAD DUP2 JUMP JUMPDEST PUSH1 0x0 DUP2 PUSH1 0x6 PUSH1 0x0 DUP7 PUSH20 0xFFFFFFFFFFFFFFFFFFFFFFFFFFFFFFFFFFFFFFFF AND PUSH20 0xFFFFFFFFFFFFFFFFFFFFFFFFFFFFFFFFFFFFFFFF AND DUP2 MSTORE PUSH1 0x20 ADD SWAP1 DUP2 MSTORE PUSH1 0x20 ADD PUSH1 0x0 KECCAK256 PUSH1 0x0 CALLER PUSH20 0xFFFFFFFFFFFFFFFFFFFFFFFFFFFFFFFFFFFFFFFF AND PUSH20 0xFFFFFFFFFFFFFFFFFFFFFFFFFFFFFFFFFFFFFFFF AND DUP2 MSTORE PUSH1 0x20 ADD SWAP1 DUP2 MSTORE PUSH1 0x20 ADD PUSH1 0x0 KECCAK256 SLOAD LT ISZERO PUSH2 0x7FD JUMPI PUSH1 0x40 MLOAD PUSH32 0x8C379A000000000000000000000000000000000000000000000000000000000 DUP2 MSTORE PUSH1 0x4 ADD PUSH2 0x7F4 SWAP1 PUSH2 0x1421 JUMP JUMPDEST PUSH1 0x40 MLOAD DUP1 SWAP2 SUB SWAP1 REVERT JUMPDEST DUP2 PUSH1 0x5 PUSH1 0x0 DUP7 PUSH20 0xFFFFFFFFFFFFFFFFFFFFFFFFFFFFFFFFFFFFFFFF AND PUSH20 0xFFFFFFFFFFFFFFFFFFFFFFFFFFFFFFFFFFFFFFFF AND DUP2 MSTORE PUSH1 0x20 ADD SWAP1 DUP2 MSTORE PUSH1 0x20 ADD PUSH1 0x0 KECCAK256 SLOAD LT ISZERO PUSH2 0x87F JUMPI PUSH1 0x40 MLOAD PUSH32 0x8C379A000000000000000000000000000000000000000000000000000000000 DUP2 MSTORE PUSH1 0x4 ADD PUSH2 0x876 SWAP1 PUSH2 0x14E1 JUMP JUMPDEST PUSH1 0x40 MLOAD DUP1 SWAP2 SUB SWAP1 REVERT JUMPDEST PUSH1 0x0 DUP3 GT PUSH2 0x8C2 JUMPI PUSH1 0x40 MLOAD PUSH32 0x8C379A000000000000000000000000000000000000000000000000000000000 DUP2 MSTORE PUSH1 0x4 ADD PUSH2 0x8B9 SWAP1 PUSH2 0x1441 JUMP JUMPDEST PUSH1 0x40 MLOAD DUP1 SWAP2 SUB SWAP1 REVERT JUMPDEST DUP2 PUSH1 0x6 PUSH1 0x0 DUP7 PUSH20 0xFFFFFFFFFFFFFFFFFFFFFFFFFFFFFFFFFFFFFFFF AND PUSH20 0xFFFFFFFFFFFFFFFFFFFFFFFFFFFFFFFFFFFFFFFF AND DUP2 MSTORE PUSH1 0x20 ADD SWAP1 DUP2 MSTORE PUSH1 0x20 ADD PUSH1 0x0 KECCAK256 PUSH1 0x0 CALLER PUSH20 0xFFFFFFFFFFFFFFFFFFFFFFFFFFFFFFFFFFFFFFFF AND PUSH20 0xFFFFFFFFFFFFFFFFFFFFFFFFFFFFFFFFFFFFFFFF AND DUP2 MSTORE PUSH1 0x20 ADD SWAP1 DUP2 MSTORE PUSH1 0x20 ADD PUSH1 0x0 KECCAK256 PUSH1 0x0 DUP3 DUP3 SLOAD PUSH2 0x94E SWAP2 SWAP1 PUSH2 0x1599 JUMP JUMPDEST SWAP3 POP POP DUP2 SWAP1 SSTORE POP DUP2 PUSH1 0x5 PUSH1 0x0 DUP7 PUSH20 0xFFFFFFFFFFFFFFFFFFFFFFFFFFFFFFFFFFFFFFFF AND PUSH20 0xFFFFFFFFFFFFFFFFFFFFFFFFFFFFFFFFFFFFFFFF AND DUP2 MSTORE PUSH1 0x20 ADD SWAP1 DUP2 MSTORE PUSH1 0x20 ADD PUSH1 0x0 KECCAK256 PUSH1 0x0 DUP3 DUP3 SLOAD PUSH2 0x9A4 SWAP2 SWAP1 PUSH2 0x1599 JUMP JUMPDEST SWAP3 POP POP DUP2 SWAP1 SSTORE POP DUP2 PUSH1 0x5 PUSH1 0x0 DUP6 PUSH20 0xFFFFFFFFFFFFFFFFFFFFFFFFFFFFFFFFFFFFFFFF AND PUSH20 0xFFFFFFFFFFFFFFFFFFFFFFFFFFFFFFFFFFFFFFFF AND DUP2 MSTORE PUSH1 0x20 ADD SWAP1 DUP2 MSTORE PUSH1 0x20 ADD PUSH1 0x0 KECCAK256 PUSH1 0x0 DUP3 DUP3 SLOAD PUSH2 0x9FA SWAP2 SWAP1 PUSH2 0x1543 JUMP JUMPDEST SWAP3 POP POP DUP2 SWAP1 SSTORE POP DUP3 PUSH20 0xFFFFFFFFFFFFFFFFFFFFFFFFFFFFFFFFFFFFFFFF AND DUP5 PUSH20 0xFFFFFFFFFFFFFFFFFFFFFFFFFFFFFFFFFFFFFFFF AND PUSH32 0xDDF252AD1BE2C89B69C2B068FC378DAA952BA7F163C4A11628F55A4DF523B3EF DUP5 PUSH1 0x40 MLOAD PUSH2 0xA5E SWAP2 SWAP1 PUSH2 0x1501 JUMP JUMPDEST PUSH1 0x40 MLOAD DUP1 SWAP2 SUB SWAP1 LOG3 PUSH1 0x1 SWAP1 POP SWAP4 SWAP3 POP POP POP JUMP JUMPDEST PUSH1 0x5 PUSH1 0x20 MSTORE DUP1 PUSH1 0x0 MSTORE PUSH1 0x40 PUSH1 0x0 KECCAK256 PUSH1 0x0 SWAP2 POP SWAP1 POP SLOAD DUP2 JUMP JUMPDEST PUSH1 0xC PUSH1 0x1 SWAP1 SLOAD SWAP1 PUSH2 0x100 EXP SWAP1 DIV PUSH20 0xFFFFFFFFFFFFFFFFFFFFFFFFFFFFFFFFFFFFFFFF AND DUP2 JUMP JUMPDEST PUSH1 0x2 SLOAD DUP2 JUMP JUMPDEST PUSH1 0x9 SLOAD DUP2 JUMP JUMPDEST PUSH1 0xC PUSH1 0x0 SWAP1 SLOAD SWAP1 PUSH2 0x100 EXP SWAP1 DIV PUSH1 0xFF AND DUP2 JUMP JUMPDEST PUSH1 0x3 PUSH1 0x0 SWAP1 SLOAD SWAP1 PUSH2 0x100 EXP SWAP1 DIV PUSH20 0xFFFFFFFFFFFFFFFFFFFFFFFFFFFFFFFFFFFFFFFF AND DUP2 JUMP JUMPDEST PUSH1 0x6 PUSH1 0x20 MSTORE DUP2 PUSH1 0x0 MSTORE PUSH1 0x40 PUSH1 0x0 KECCAK256 PUSH1 0x20 MSTORE DUP1 PUSH1 0x0 MSTORE PUSH1 0x40 PUSH1 0x0 KECCAK256 PUSH1 0x0 SWAP2 POP SWAP2 POP POP SLOAD DUP2 JUMP JUMPDEST PUSH1 0x0 PUSH1 0x5 PUSH1 0x0 DUP4 PUSH20 0xFFFFFFFFFFFFFFFFFFFFFFFFFFFFFFFFFFFFFFFF AND PUSH20 0xFFFFFFFFFFFFFFFFFFFFFFFFFFFFFFFFFFFFFFFF AND DUP2 MSTORE PUSH1 0x20 ADD SWAP1 DUP2 MSTORE PUSH1 0x20 ADD PUSH1 0x0 KECCAK256 SLOAD SWAP1 POP SWAP2 SWAP1 POP JUMP JUMPDEST PUSH1 0x8 SLOAD DUP2 JUMP JUMPDEST PUSH1 0x1 DUP1 SLOAD PUSH2 0xB75 SWAP1 PUSH2 0x167F JUMP JUMPDEST DUP1 PUSH1 0x1F ADD PUSH1 0x20 DUP1 SWAP2 DIV MUL PUSH1 0x20 ADD PUSH1 0x40 MLOAD SWAP1 DUP2 ADD PUSH1 0x40 MSTORE DUP1 SWAP3 SWAP2 SWAP1 DUP2 DUP2 MSTORE PUSH1 0x20 ADD DUP3 DUP1 SLOAD PUSH2 0xBA1 SWAP1 PUSH2 0x167F JUMP JUMPDEST DUP1 ISZERO PUSH2 0xBEE JUMPI DUP1 PUSH1 0x1F LT PUSH2 0xBC3 JUMPI PUSH2 0x100 DUP1 DUP4 SLOAD DIV MUL DUP4 MSTORE SWAP2 PUSH1 0x20 ADD SWAP2 PUSH2 0xBEE JUMP JUMPDEST DUP3 ADD SWAP2 SWAP1 PUSH1 0x0 MSTORE PUSH1 0x20 PUSH1 0x0 KECCAK256 SWAP1 JUMPDEST DUP2 SLOAD DUP2 MSTORE SWAP1 PUSH1 0x1 ADD SWAP1 PUSH1 0x20 ADD DUP1 DUP4 GT PUSH2 0xBD1 JUMPI DUP3 SWAP1 SUB PUSH1 0x1F AND DUP3 ADD SWAP2 JUMPDEST POP POP POP POP POP DUP2 JUMP JUMPDEST PUSH1 0x0 DUP2 PUSH1 0x5 PUSH1 0x0 CALLER PUSH20 0xFFFFFFFFFFFFFFFFFFFFFFFFFFFFFFFFFFFFFFFF AND PUSH20 0xFFFFFFFFFFFFFFFFFFFFFFFFFFFFFFFFFFFFFFFF AND DUP2 MSTORE PUSH1 0x20 ADD SWAP1 DUP2 MSTORE PUSH1 0x20 ADD PUSH1 0x0 KECCAK256 SLOAD LT ISZERO PUSH2 0xC7A JUMPI PUSH1 0x40 MLOAD PUSH32 0x8C379A000000000000000000000000000000000000000000000000000000000 DUP2 MSTORE PUSH1 0x4 ADD PUSH2 0xC71 SWAP1 PUSH2 0x14C1 JUMP JUMPDEST PUSH1 0x40 MLOAD DUP1 SWAP2 SUB SWAP1 REVERT JUMPDEST DUP2 PUSH1 0x5 PUSH1 0x0 DUP6 PUSH20 0xFFFFFFFFFFFFFFFFFFFFFFFFFFFFFFFFFFFFFFFF AND PUSH20 0xFFFFFFFFFFFFFFFFFFFFFFFFFFFFFFFFFFFFFFFF AND DUP2 MSTORE PUSH1 0x20 ADD SWAP1 DUP2 MSTORE PUSH1 0x20 ADD PUSH1 0x0 KECCAK256 PUSH1 0x0 DUP3 DUP3 SLOAD PUSH2 0xCC9 SWAP2 SWAP1 PUSH2 0x1543 JUMP JUMPDEST SWAP3 POP POP DUP2 SWAP1 SSTORE POP DUP2 PUSH1 0x5 PUSH1 0x0 CALLER PUSH20 0xFFFFFFFFFFFFFFFFFFFFFFFFFFFFFFFFFFFFFFFF AND PUSH20 0xFFFFFFFFFFFFFFFFFFFFFFFFFFFFFFFFFFFFFFFF AND DUP2 MSTORE PUSH1 0x20 ADD SWAP1 DUP2 MSTORE PUSH1 0x20 ADD PUSH1 0x0 KECCAK256 PUSH1 0x0 DUP3 DUP3 SLOAD PUSH2 0xD1F SWAP2 SWAP1 PUSH2 0x1599 JUMP JUMPDEST SWAP3 POP POP DUP2 SWAP1 SSTORE POP DUP3 PUSH20 0xFFFFFFFFFFFFFFFFFFFFFFFFFFFFFFFFFFFFFFFF AND CALLER PUSH20 0xFFFFFFFFFFFFFFFFFFFFFFFFFFFFFFFFFFFFFFFF AND PUSH32 0xDDF252AD1BE2C89B69C2B068FC378DAA952BA7F163C4A11628F55A4DF523B3EF DUP5 PUSH1 0x40 MLOAD PUSH2 0xD83 SWAP2 SWAP1 PUSH2 0x1501 JUMP JUMPDEST PUSH1 0x40 MLOAD DUP1 SWAP2 SUB SWAP1 LOG3 PUSH1 0x1 SWAP1 POP SWAP3 SWAP2 POP POP JUMP JUMPDEST PUSH1 0xB SLOAD DUP2 JUMP JUMPDEST PUSH1 0xA SLOAD DUP2 JUMP JUMPDEST PUSH1 0x0 PUSH1 0x6 PUSH1 0x0 DUP5 PUSH20 0xFFFFFFFFFFFFFFFFFFFFFFFFFFFFFFFFFFFFFFFF AND PUSH20 0xFFFFFFFFFFFFFFFFFFFFFFFFFFFFFFFFFFFFFFFF AND DUP2 MSTORE PUSH1 0x20 ADD SWAP1 DUP2 MSTORE PUSH1 0x20 ADD PUSH1 0x0 KECCAK256 PUSH1 0x0 DUP4 PUSH20 0xFFFFFFFFFFFFFFFFFFFFFFFFFFFFFFFFFFFFFFFF AND PUSH20 0xFFFFFFFFFFFFFFFFFFFFFFFFFFFFFFFFFFFFFFFF AND DUP2 MSTORE PUSH1 0x20 ADD SWAP1 DUP2 MSTORE PUSH1 0x20 ADD PUSH1 0x0 KECCAK256 SLOAD SWAP1 POP SWAP3 SWAP2 POP POP JUMP JUMPDEST PUSH1 0x0 PUSH1 0x7 PUSH1 0x0 SWAP1 SLOAD SWAP1 PUSH2 0x100 EXP SWAP1 DIV PUSH20 0xFFFFFFFFFFFFFFFFFFFFFFFFFFFFFFFFFFFFFFFF AND PUSH20 0xFFFFFFFFFFFFFFFFFFFFFFFFFFFFFFFFFFFFFFFF AND CALLER PUSH20 0xFFFFFFFFFFFFFFFFFFFFFFFFFFFFFFFFFFFFFFFF AND EQ PUSH2 0xEBA JUMPI PUSH1 0x40 MLOAD PUSH32 0x8C379A000000000000000000000000000000000000000000000000000000000 DUP2 MSTORE PUSH1 0x4 ADD PUSH2 0xEB1 SWAP1 PUSH2 0x1481 JUMP JUMPDEST PUSH1 0x40 MLOAD DUP1 SWAP2 SUB SWAP1 REVERT JUMPDEST PUSH1 0x0 CALLVALUE GT PUSH2 0xEFD JUMPI PUSH1 0x40 MLOAD PUSH32 0x8C379A000000000000000000000000000000000000000000000000000000000 DUP2 MSTORE PUSH1 0x4 ADD PUSH2 0xEF4 SWAP1 PUSH2 0x1461 JUMP JUMPDEST PUSH1 0x40 MLOAD DUP1 SWAP2 SUB SWAP1 REVERT JUMPDEST PUSH1 0x0 PUSH1 0xA SLOAD PUSH1 0x40 MLOAD PUSH1 0x20 ADD PUSH2 0xF12 SWAP2 SWAP1 PUSH2 0x1347 JUMP JUMPDEST PUSH1 0x40 MLOAD PUSH1 0x20 DUP2 DUP4 SUB SUB DUP2 MSTORE SWAP1 PUSH1 0x40 MSTORE SWAP1 POP PUSH1 0x0 PUSH1 0xB SLOAD PUSH1 0x40 MLOAD PUSH1 0x20 ADD PUSH2 0xF38 SWAP2 SWAP1 PUSH2 0x136D JUMP JUMPDEST PUSH1 0x40 MLOAD PUSH1 0x20 DUP2 DUP4 SUB SUB DUP2 MSTORE SWAP1 PUSH1 0x40 MSTORE SWAP1 POP PUSH1 0x0 DUP3 DUP3 PUSH1 0x40 MLOAD PUSH1 0x20 ADD PUSH2 0xF5E SWAP3 SWAP2 SWAP1 PUSH2 0x1323 JUMP JUMPDEST PUSH1 0x40 MLOAD PUSH1 0x20 DUP2 DUP4 SUB SUB DUP2 MSTORE SWAP1 PUSH1 0x40 MSTORE SWAP1 POP PUSH1 0xA SLOAD CALLVALUE LT ISZERO DUP1 ISZERO PUSH2 0xF83 JUMPI POP PUSH1 0xB SLOAD CALLVALUE GT ISZERO JUMPDEST DUP2 SWAP1 PUSH2 0xFC5 JUMPI PUSH1 0x40 MLOAD PUSH32 0x8C379A000000000000000000000000000000000000000000000000000000000 DUP2 MSTORE PUSH1 0x4 ADD PUSH2 0xFBC SWAP2 SWAP1 PUSH2 0x13FF JUMP JUMPDEST PUSH1 0x40 MLOAD DUP1 SWAP2 SUB SWAP1 REVERT JUMPDEST POP POP POP POP SWAP1 JUMP JUMPDEST PUSH1 0x7 PUSH1 0x0 SWAP1 SLOAD SWAP1 PUSH2 0x100 EXP SWAP1 DIV PUSH20 0xFFFFFFFFFFFFFFFFFFFFFFFFFFFFFFFFFFFFFFFF AND DUP2 JUMP JUMPDEST PUSH1 0x0 DUP2 CALLDATALOAD SWAP1 POP PUSH2 0x1001 DUP2 PUSH2 0x19A1 JUMP JUMPDEST SWAP3 SWAP2 POP POP JUMP JUMPDEST PUSH1 0x0 DUP2 CALLDATALOAD SWAP1 POP PUSH2 0x1016 DUP2 PUSH2 0x19B8 JUMP JUMPDEST SWAP3 SWAP2 POP POP JUMP JUMPDEST PUSH1 0x0 PUSH1 0x20 DUP3 DUP5 SUB SLT ISZERO PUSH2 0x1032 JUMPI PUSH2 0x1031 PUSH2 0x1748 JUMP JUMPDEST JUMPDEST PUSH1 0x0 PUSH2 0x1040 DUP5 DUP3 DUP6 ADD PUSH2 0xFF2 JUMP JUMPDEST SWAP2 POP POP SWAP3 SWAP2 POP POP JUMP JUMPDEST PUSH1 0x0 DUP1 PUSH1 0x40 DUP4 DUP6 SUB SLT ISZERO PUSH2 0x1060 JUMPI PUSH2 0x105F PUSH2 0x1748 JUMP JUMPDEST JUMPDEST PUSH1 0x0 PUSH2 0x106E DUP6 DUP3 DUP7 ADD PUSH2 0xFF2 JUMP JUMPDEST SWAP3 POP POP PUSH1 0x20 PUSH2 0x107F DUP6 DUP3 DUP7 ADD PUSH2 0xFF2 JUMP JUMPDEST SWAP2 POP POP SWAP3 POP SWAP3 SWAP1 POP JUMP JUMPDEST PUSH1 0x0 DUP1 PUSH1 0x0 PUSH1 0x60 DUP5 DUP7 SUB SLT ISZERO PUSH2 0x10A2 JUMPI PUSH2 0x10A1 PUSH2 0x1748 JUMP JUMPDEST JUMPDEST PUSH1 0x0 PUSH2 0x10B0 DUP7 DUP3 DUP8 ADD PUSH2 0xFF2 JUMP JUMPDEST SWAP4 POP POP PUSH1 0x20 PUSH2 0x10C1 DUP7 DUP3 DUP8 ADD PUSH2 0xFF2 JUMP JUMPDEST SWAP3 POP POP PUSH1 0x40 PUSH2 0x10D2 DUP7 DUP3 DUP8 ADD PUSH2 0x1007 JUMP JUMPDEST SWAP2 POP POP SWAP3 POP SWAP3 POP SWAP3 JUMP JUMPDEST PUSH1 0x0 DUP1 PUSH1 0x40 DUP4 DUP6 SUB SLT ISZERO PUSH2 0x10F3 JUMPI PUSH2 0x10F2 PUSH2 0x1748 JUMP JUMPDEST JUMPDEST PUSH1 0x0 PUSH2 0x1101 DUP6 DUP3 DUP7 ADD PUSH2 0xFF2 JUMP JUMPDEST SWAP3 POP POP PUSH1 0x20 PUSH2 0x1112 DUP6 DUP3 DUP7 ADD PUSH2 0x1007 JUMP JUMPDEST SWAP2 POP POP SWAP3 POP SWAP3 SWAP1 POP JUMP JUMPDEST PUSH2 0x1125 DUP2 PUSH2 0x15DF JUMP JUMPDEST DUP3 MSTORE POP POP JUMP JUMPDEST PUSH2 0x1134 DUP2 PUSH2 0x15CD JUMP JUMPDEST DUP3 MSTORE POP POP JUMP JUMPDEST PUSH2 0x1143 DUP2 PUSH2 0x15F1 JUMP JUMPDEST DUP3 MSTORE POP POP JUMP JUMPDEST PUSH2 0x1152 DUP2 PUSH2 0x163A JUMP JUMPDEST DUP3 MSTORE POP POP JUMP JUMPDEST PUSH1 0x0 PUSH2 0x1163 DUP3 PUSH2 0x151C JUMP JUMPDEST PUSH2 0x116D DUP2 DUP6 PUSH2 0x1527 JUMP JUMPDEST SWAP4 POP PUSH2 0x117D DUP2 DUP6 PUSH1 0x20 DUP7 ADD PUSH2 0x164C JUMP JUMPDEST PUSH2 0x1186 DUP2 PUSH2 0x174D JUMP JUMPDEST DUP5 ADD SWAP2 POP POP SWAP3 SWAP2 POP POP JUMP JUMPDEST PUSH1 0x0 PUSH2 0x119C DUP3 PUSH2 0x151C JUMP JUMPDEST PUSH2 0x11A6 DUP2 DUP6 PUSH2 0x1538 JUMP JUMPDEST SWAP4 POP PUSH2 0x11B6 DUP2 DUP6 PUSH1 0x20 DUP7 ADD PUSH2 0x164C JUMP JUMPDEST DUP1 DUP5 ADD SWAP2 POP POP SWAP3 SWAP2 POP POP JUMP JUMPDEST PUSH1 0x0 PUSH2 0x11CF PUSH1 0x30 DUP4 PUSH2 0x1527 JUMP JUMPDEST SWAP2 POP PUSH2 0x11DA DUP3 PUSH2 0x175E JUMP JUMPDEST PUSH1 0x40 DUP3 ADD SWAP1 POP SWAP2 SWAP1 POP JUMP JUMPDEST PUSH1 0x0 PUSH2 0x11F2 PUSH1 0x22 DUP4 PUSH2 0x1527 JUMP JUMPDEST SWAP2 POP PUSH2 0x11FD DUP3 PUSH2 0x17AD JUMP JUMPDEST PUSH1 0x40 DUP3 ADD SWAP1 POP SWAP2 SWAP1 POP JUMP JUMPDEST PUSH1 0x0 PUSH2 0x1215 PUSH1 0x20 DUP4 PUSH2 0x1527 JUMP JUMPDEST SWAP2 POP PUSH2 0x1220 DUP3 PUSH2 0x17FC JUMP JUMPDEST PUSH1 0x20 DUP3 ADD SWAP1 POP SWAP2 SWAP1 POP JUMP JUMPDEST PUSH1 0x0 PUSH2 0x1238 PUSH1 0x1F DUP4 PUSH2 0x1538 JUMP JUMPDEST SWAP2 POP PUSH2 0x1243 DUP3 PUSH2 0x1825 JUMP JUMPDEST PUSH1 0x1F DUP3 ADD SWAP1 POP SWAP2 SWAP1 POP JUMP JUMPDEST PUSH1 0x0 PUSH2 0x125B PUSH1 0x22 DUP4 PUSH2 0x1527 JUMP JUMPDEST SWAP2 POP PUSH2 0x1266 DUP3 PUSH2 0x184E JUMP JUMPDEST PUSH1 0x40 DUP3 ADD SWAP1 POP SWAP2 SWAP1 POP JUMP JUMPDEST PUSH1 0x0 PUSH2 0x127E PUSH1 0x30 DUP4 PUSH2 0x1527 JUMP JUMPDEST SWAP2 POP PUSH2 0x1289 DUP3 PUSH2 0x189D JUMP JUMPDEST PUSH1 0x40 DUP3 ADD SWAP1 POP SWAP2 SWAP1 POP JUMP JUMPDEST PUSH1 0x0 PUSH2 0x12A1 PUSH1 0x21 DUP4 PUSH2 0x1538 JUMP JUMPDEST SWAP2 POP PUSH2 0x12AC DUP3 PUSH2 0x18EC JUMP JUMPDEST PUSH1 0x21 DUP3 ADD SWAP1 POP SWAP2 SWAP1 POP JUMP JUMPDEST PUSH1 0x0 PUSH2 0x12C4 PUSH1 0x1C DUP4 PUSH2 0x1527 JUMP JUMPDEST SWAP2 POP PUSH2 0x12CF DUP3 PUSH2 0x193B JUMP JUMPDEST PUSH1 0x20 DUP3 ADD SWAP1 POP SWAP2 SWAP1 POP JUMP JUMPDEST PUSH1 0x0 PUSH2 0x12E7 PUSH1 0x12 DUP4 PUSH2 0x1527 JUMP JUMPDEST SWAP2 POP PUSH2 0x12F2 DUP3 PUSH2 0x1964 JUMP JUMPDEST PUSH1 0x20 DUP3 ADD SWAP1 POP SWAP2 SWAP1 POP JUMP JUMPDEST PUSH2 0x1306 DUP2 PUSH2 0x1630 JUMP JUMPDEST DUP3 MSTORE POP POP JUMP JUMPDEST PUSH2 0x131D PUSH2 0x1318 DUP3 PUSH2 0x1630 JUMP JUMPDEST PUSH2 0x16B1 JUMP JUMPDEST DUP3 MSTORE POP POP JUMP JUMPDEST PUSH1 0x0 PUSH2 0x132F DUP3 DUP6 PUSH2 0x1191 JUMP JUMPDEST SWAP2 POP PUSH2 0x133B DUP3 DUP5 PUSH2 0x1191 JUMP JUMPDEST SWAP2 POP DUP2 SWAP1 POP SWAP4 SWAP3 POP POP POP JUMP JUMPDEST PUSH1 0x0 PUSH2 0x1352 DUP3 PUSH2 0x122B JUMP JUMPDEST SWAP2 POP PUSH2 0x135E DUP3 DUP5 PUSH2 0x130C JUMP JUMPDEST PUSH1 0x20 DUP3 ADD SWAP2 POP DUP2 SWAP1 POP SWAP3 SWAP2 POP POP JUMP JUMPDEST PUSH1 0x0 PUSH2 0x1378 DUP3 PUSH2 0x1294 JUMP JUMPDEST SWAP2 POP PUSH2 0x1384 DUP3 DUP5 PUSH2 0x130C JUMP JUMPDEST PUSH1 0x20 DUP3 ADD SWAP2 POP DUP2 SWAP1 POP SWAP3 SWAP2 POP POP JUMP JUMPDEST PUSH1 0x0 PUSH1 0x20 DUP3 ADD SWAP1 POP PUSH2 0x13A8 PUSH1 0x0 DUP4 ADD DUP5 PUSH2 0x112B JUMP JUMPDEST SWAP3 SWAP2 POP POP JUMP JUMPDEST PUSH1 0x0 PUSH1 0x20 DUP3 ADD SWAP1 POP PUSH2 0x13C3 PUSH1 0x0 DUP4 ADD DUP5 PUSH2 0x111C JUMP JUMPDEST SWAP3 SWAP2 POP POP JUMP JUMPDEST PUSH1 0x0 PUSH1 0x20 DUP3 ADD SWAP1 POP PUSH2 0x13DE PUSH1 0x0 DUP4 ADD DUP5 PUSH2 0x113A JUMP JUMPDEST SWAP3 SWAP2 POP POP JUMP JUMPDEST PUSH1 0x0 PUSH1 0x20 DUP3 ADD SWAP1 POP PUSH2 0x13F9 PUSH1 0x0 DUP4 ADD DUP5 PUSH2 0x1149 JUMP JUMPDEST SWAP3 SWAP2 POP POP JUMP JUMPDEST PUSH1 0x0 PUSH1 0x20 DUP3 ADD SWAP1 POP DUP2 DUP2 SUB PUSH1 0x0 DUP4 ADD MSTORE PUSH2 0x1419 DUP2 DUP5 PUSH2 0x1158 JUMP JUMPDEST SWAP1 POP SWAP3 SWAP2 POP POP JUMP JUMPDEST PUSH1 0x0 PUSH1 0x20 DUP3 ADD SWAP1 POP DUP2 DUP2 SUB PUSH1 0x0 DUP4 ADD MSTORE PUSH2 0x143A DUP2 PUSH2 0x11C2 JUMP JUMPDEST SWAP1 POP SWAP2 SWAP1 POP JUMP JUMPDEST PUSH1 0x0 PUSH1 0x20 DUP3 ADD SWAP1 POP DUP2 DUP2 SUB PUSH1 0x0 DUP4 ADD MSTORE PUSH2 0x145A DUP2 PUSH2 0x11E5 JUMP JUMPDEST SWAP1 POP SWAP2 SWAP1 POP JUMP JUMPDEST PUSH1 0x0 PUSH1 0x20 DUP3 ADD SWAP1 POP DUP2 DUP2 SUB PUSH1 0x0 DUP4 ADD MSTORE PUSH2 0x147A DUP2 PUSH2 0x1208 JUMP JUMPDEST SWAP1 POP SWAP2 SWAP1 POP JUMP JUMPDEST PUSH1 0x0 PUSH1 0x20 DUP3 ADD SWAP1 POP DUP2 DUP2 SUB PUSH1 0x0 DUP4 ADD MSTORE PUSH2 0x149A DUP2 PUSH2 0x124E JUMP JUMPDEST SWAP1 POP SWAP2 SWAP1 POP JUMP JUMPDEST PUSH1 0x0 PUSH1 0x20 DUP3 ADD SWAP1 POP DUP2 DUP2 SUB PUSH1 0x0 DUP4 ADD MSTORE PUSH2 0x14BA DUP2 PUSH2 0x1271 JUMP JUMPDEST SWAP1 POP SWAP2 SWAP1 POP JUMP JUMPDEST PUSH1 0x0 PUSH1 0x20 DUP3 ADD SWAP1 POP DUP2 DUP2 SUB PUSH1 0x0 DUP4 ADD MSTORE PUSH2 0x14DA DUP2 PUSH2 0x12B7 JUMP JUMPDEST SWAP1 POP SWAP2 SWAP1 POP JUMP JUMPDEST PUSH1 0x0 PUSH1 0x20 DUP3 ADD SWAP1 POP DUP2 DUP2 SUB PUSH1 0x0 DUP4 ADD MSTORE PUSH2 0x14FA DUP2 PUSH2 0x12DA JUMP JUMPDEST SWAP1 POP SWAP2 SWAP1 POP JUMP JUMPDEST PUSH1 0x0 PUSH1 0x20 DUP3 ADD SWAP1 POP PUSH2 0x1516 PUSH1 0x0 DUP4 ADD DUP5 PUSH2 0x12FD JUMP JUMPDEST SWAP3 SWAP2 POP POP JUMP JUMPDEST PUSH1 0x0 DUP2 MLOAD SWAP1 POP SWAP2 SWAP1 POP JUMP JUMPDEST PUSH1 0x0 DUP3 DUP3 MSTORE PUSH1 0x20 DUP3 ADD SWAP1 POP SWAP3 SWAP2 POP POP JUMP JUMPDEST PUSH1 0x0 DUP2 SWAP1 POP SWAP3 SWAP2 POP POP JUMP JUMPDEST PUSH1 0x0 PUSH2 0x154E DUP3 PUSH2 0x1630 JUMP JUMPDEST SWAP2 POP PUSH2 0x1559 DUP4 PUSH2 0x1630 JUMP JUMPDEST SWAP3 POP DUP3 PUSH32 0xFFFFFFFFFFFFFFFFFFFFFFFFFFFFFFFFFFFFFFFFFFFFFFFFFFFFFFFFFFFFFFFF SUB DUP3 GT ISZERO PUSH2 0x158E JUMPI PUSH2 0x158D PUSH2 0x16BB JUMP JUMPDEST JUMPDEST DUP3 DUP3 ADD SWAP1 POP SWAP3 SWAP2 POP POP JUMP JUMPDEST PUSH1 0x0 PUSH2 0x15A4 DUP3 PUSH2 0x1630 JUMP JUMPDEST SWAP2 POP PUSH2 0x15AF DUP4 PUSH2 0x1630 JUMP JUMPDEST SWAP3 POP DUP3 DUP3 LT ISZERO PUSH2 0x15C2 JUMPI PUSH2 0x15C1 PUSH2 0x16BB JUMP JUMPDEST JUMPDEST DUP3 DUP3 SUB SWAP1 POP SWAP3 SWAP2 POP POP JUMP JUMPDEST PUSH1 0x0 PUSH2 0x15D8 DUP3 PUSH2 0x1610 JUMP JUMPDEST SWAP1 POP SWAP2 SWAP1 POP JUMP JUMPDEST PUSH1 0x0 PUSH2 0x15EA DUP3 PUSH2 0x1610 JUMP JUMPDEST SWAP1 POP SWAP2 SWAP1 POP JUMP JUMPDEST PUSH1 0x0 DUP2 ISZERO ISZERO SWAP1 POP SWAP2 SWAP1 POP JUMP JUMPDEST PUSH1 0x0 DUP2 SWAP1 POP PUSH2 0x160B DUP3 PUSH2 0x198D JUMP JUMPDEST SWAP2 SWAP1 POP JUMP JUMPDEST PUSH1 0x0 PUSH20 0xFFFFFFFFFFFFFFFFFFFFFFFFFFFFFFFFFFFFFFFF DUP3 AND SWAP1 POP SWAP2 SWAP1 POP JUMP JUMPDEST PUSH1 0x0 DUP2 SWAP1 POP SWAP2 SWAP1 POP JUMP JUMPDEST PUSH1 0x0 PUSH2 0x1645 DUP3 PUSH2 0x15FD JUMP JUMPDEST SWAP1 POP SWAP2 SWAP1 POP JUMP JUMPDEST PUSH1 0x0 JUMPDEST DUP4 DUP2 LT ISZERO PUSH2 0x166A JUMPI DUP1 DUP3 ADD MLOAD DUP2 DUP5 ADD MSTORE PUSH1 0x20 DUP2 ADD SWAP1 POP PUSH2 0x164F JUMP JUMPDEST DUP4 DUP2 GT ISZERO PUSH2 0x1679 JUMPI PUSH1 0x0 DUP5 DUP5 ADD MSTORE JUMPDEST POP POP POP POP JUMP JUMPDEST PUSH1 0x0 PUSH1 0x2 DUP3 DIV SWAP1 POP PUSH1 0x1 DUP3 AND DUP1 PUSH2 0x1697 JUMPI PUSH1 0x7F DUP3 AND SWAP2 POP JUMPDEST PUSH1 0x20 DUP3 LT DUP2 EQ ISZERO PUSH2 0x16AB JUMPI PUSH2 0x16AA PUSH2 0x1719 JUMP JUMPDEST JUMPDEST POP SWAP2 SWAP1 POP JUMP JUMPDEST PUSH1 0x0 DUP2 SWAP1 POP SWAP2 SWAP1 POP JUMP JUMPDEST PUSH32 0x4E487B7100000000000000000000000000000000000000000000000000000000 PUSH1 0x0 MSTORE PUSH1 0x11 PUSH1 0x4 MSTORE PUSH1 0x24 PUSH1 0x0 REVERT JUMPDEST PUSH32 0x4E487B7100000000000000000000000000000000000000000000000000000000 PUSH1 0x0 MSTORE PUSH1 0x21 PUSH1 0x4 MSTORE PUSH1 0x24 PUSH1 0x0 REVERT JUMPDEST PUSH32 0x4E487B7100000000000000000000000000000000000000000000000000000000 PUSH1 0x0 MSTORE PUSH1 0x22 PUSH1 0x4 MSTORE PUSH1 0x24 PUSH1 0x0 REVERT JUMPDEST PUSH1 0x0 DUP1 REVERT JUMPDEST PUSH1 0x0 PUSH1 0x1F NOT PUSH1 0x1F DUP4 ADD AND SWAP1 POP SWAP2 SWAP1 POP JUMP JUMPDEST PUSH32 0x546F6B656E2076616C75652069732067726561746572207468616E2074686520 PUSH1 0x0 DUP3 ADD MSTORE PUSH32 0x617070726F7665642062616C616E636500000000000000000000000000000000 PUSH1 0x20 DUP3 ADD MSTORE POP JUMP JUMPDEST PUSH32 0x546F6B656E2076616C7565206D7573742062652067726561746572207468616E PUSH1 0x0 DUP3 ADD MSTORE PUSH32 0x2030000000000000000000000000000000000000000000000000000000000000 PUSH1 0x20 DUP3 ADD MSTORE POP JUMP JUMPDEST PUSH32 0x416D6F756E74206D7573742062652067726561746572207468616E207A65726F PUSH1 0x0 DUP3 ADD MSTORE POP JUMP JUMPDEST PUSH32 0x416D6F756E742063616E6E6F74206E6F74206265206C6F776572207468616E00 PUSH1 0x0 DUP3 ADD MSTORE POP JUMP JUMPDEST PUSH32 0x4163636573732064656E6965642C20796F75206165206E6F7420616E2061646D PUSH1 0x0 DUP3 ADD MSTORE PUSH32 0x696E000000000000000000000000000000000000000000000000000000000000 PUSH1 0x20 DUP3 ADD MSTORE POP JUMP JUMPDEST PUSH32 0x546F6B656E2076616C75652069732067726561746572207468616E20796F7572 PUSH1 0x0 DUP3 ADD MSTORE PUSH32 0x2063757272656E7420686F6C64696E6700000000000000000000000000000000 PUSH1 0x20 DUP3 ADD MSTORE POP JUMP JUMPDEST PUSH32 0x416D6F756E742063616E6E6F74206E6F74206265206869676768657220746861 PUSH1 0x0 DUP3 ADD MSTORE PUSH32 0x6E00000000000000000000000000000000000000000000000000000000000000 PUSH1 0x20 DUP3 ADD MSTORE POP JUMP JUMPDEST PUSH32 0x496E73756666696369656E74204163636F756E742042616C616E636500000000 PUSH1 0x0 DUP3 ADD MSTORE POP JUMP JUMPDEST PUSH32 0x496E737566696369656E742042616C6E63650000000000000000000000000000 PUSH1 0x0 DUP3 ADD MSTORE POP JUMP JUMPDEST PUSH1 0x4 DUP2 LT PUSH2 0x199E JUMPI PUSH2 0x199D PUSH2 0x16EA JUMP JUMPDEST JUMPDEST POP JUMP JUMPDEST PUSH2 0x19AA DUP2 PUSH2 0x15CD JUMP JUMPDEST DUP2 EQ PUSH2 0x19B5 JUMPI PUSH1 0x0 DUP1 REVERT JUMPDEST POP JUMP JUMPDEST PUSH2 0x19C1 DUP2 PUSH2 0x1630 JUMP JUMPDEST DUP2 EQ PUSH2 0x19CC JUMPI PUSH1 0x0 DUP1 REVERT JUMPDEST POP JUMP INVALID LOG2 PUSH5 0x6970667358 0x22 SLT KECCAK256 0xC1 0xC DUP3 SLT PUSH12 0x99F73E40513BE9EB3903C579 EXP 0xAD 0xE1 DUP16 SWAP8 CALLER 0xD5 JUMP PUSH32 0x85C1486E0D6E64736F6C63430008070033000000000000000000000000000000 "
				},
				"gasEstimates": {
					"creation": {
						"codeDepositCost": "1332200",
						"executionCost": "infinite",
						"totalCost": "infinite"
					},
					"external": {
						"admin()": "2624",
						"allowance(address,address)": "infinite",
						"allowed(address,address)": "infinite",
						"approve(address,uint256)": "infinite",
						"balanceOf(address)": "2886",
						"balances(address)": "2926",
						"decimals()": "2474",
						"depositAddress()": "2587",
						"endTime()": "2496",
						"founder()": "2625",
						"icoState()": "2649",
						"invest()": "infinite",
						"maximumAmount()": "2451",
						"minimumAmount()": "2473",
						"name()": "infinite",
						"startTime()": "2496",
						"symbol()": "infinite",
						"totalSupply()": "2497",
						"transfer(address,uint256)": "infinite",
						"transferFrom(address,address,uint256)": "infinite"
					}
				},
				"methodIdentifiers": {
					"admin()": "f851a440",
					"allowance(address,address)": "dd62ed3e",
					"allowed(address,address)": "5c658165",
					"approve(address,uint256)": "095ea7b3",
					"balanceOf(address)": "70a08231",
					"balances(address)": "27e235e3",
					"decimals()": "313ce567",
					"depositAddress()": "28f833b7",
					"endTime()": "3197cbb6",
					"founder()": "4d853ee5",
					"icoState()": "44f38756",
					"invest()": "e8b5e51f",
					"maximumAmount()": "a9bcea61",
					"minimumAmount()": "bb0c8298",
					"name()": "06fdde03",
					"startTime()": "78e97925",
					"symbol()": "95d89b41",
					"totalSupply()": "18160ddd",
					"transfer(address,uint256)": "a9059cbb",
					"transferFrom(address,address,uint256)": "23b872dd"
				}
			},
			"storageLayout": {
				"storage": [
					{
						"astId": 73,
						"contract": "contracts/Erc20token.sol:icoContract",
						"label": "name",
						"offset": 0,
						"slot": "0",
						"type": "t_string_storage"
					},
					{
						"astId": 76,
						"contract": "contracts/Erc20token.sol:icoContract",
						"label": "symbol",
						"offset": 0,
						"slot": "1",
						"type": "t_string_storage"
					},
					{
						"astId": 79,
						"contract": "contracts/Erc20token.sol:icoContract",
						"label": "decimals",
						"offset": 0,
						"slot": "2",
						"type": "t_uint256"
					},
					{
						"astId": 81,
						"contract": "contracts/Erc20token.sol:icoContract",
						"label": "founder",
						"offset": 0,
						"slot": "3",
						"type": "t_address"
					},
					{
						"astId": 84,
						"contract": "contracts/Erc20token.sol:icoContract",
						"label": "totalSupply",
						"offset": 0,
						"slot": "4",
						"type": "t_uint256"
					},
					{
						"astId": 88,
						"contract": "contracts/Erc20token.sol:icoContract",
						"label": "balances",
						"offset": 0,
						"slot": "5",
						"type": "t_mapping(t_address,t_uint256)"
					},
					{
						"astId": 94,
						"contract": "contracts/Erc20token.sol:icoContract",
						"label": "allowed",
						"offset": 0,
						"slot": "6",
						"type": "t_mapping(t_address,t_mapping(t_address,t_uint256))"
					},
					{
						"astId": 307,
						"contract": "contracts/Erc20token.sol:icoContract",
						"label": "admin",
						"offset": 0,
						"slot": "7",
						"type": "t_address"
					},
					{
						"astId": 316,
						"contract": "contracts/Erc20token.sol:icoContract",
						"label": "startTime",
						"offset": 0,
						"slot": "8",
						"type": "t_uint256"
					},
					{
						"astId": 318,
						"contract": "contracts/Erc20token.sol:icoContract",
						"label": "endTime",
						"offset": 0,
						"slot": "9",
						"type": "t_uint256"
					},
					{
						"astId": 321,
						"contract": "contracts/Erc20token.sol:icoContract",
						"label": "minimumAmount",
						"offset": 0,
						"slot": "10",
						"type": "t_uint256"
					},
					{
						"astId": 324,
						"contract": "contracts/Erc20token.sol:icoContract",
						"label": "maximumAmount",
						"offset": 0,
						"slot": "11",
						"type": "t_uint256"
					},
					{
						"astId": 327,
						"contract": "contracts/Erc20token.sol:icoContract",
						"label": "icoState",
						"offset": 0,
						"slot": "12",
						"type": "t_enum(State)312"
					},
					{
						"astId": 329,
						"contract": "contracts/Erc20token.sol:icoContract",
						"label": "depositAddress",
						"offset": 1,
						"slot": "12",
						"type": "t_address_payable"
					}
				],
				"types": {
					"t_address": {
						"encoding": "inplace",
						"label": "address",
						"numberOfBytes": "20"
					},
					"t_address_payable": {
						"encoding": "inplace",
						"label": "address payable",
						"numberOfBytes": "20"
					},
					"t_enum(State)312": {
						"encoding": "inplace",
						"label": "enum icoContract.State",
						"numberOfBytes": "1"
					},
					"t_mapping(t_address,t_mapping(t_address,t_uint256))": {
						"encoding": "mapping",
						"key": "t_address",
						"label": "mapping(address => mapping(address => uint256))",
						"numberOfBytes": "32",
						"value": "t_mapping(t_address,t_uint256)"
					},
					"t_mapping(t_address,t_uint256)": {
						"encoding": "mapping",
						"key": "t_address",
						"label": "mapping(address => uint256)",
						"numberOfBytes": "32",
						"value": "t_uint256"
					},
					"t_string_storage": {
						"encoding": "bytes",
						"label": "string",
						"numberOfBytes": "32"
					},
					"t_uint256": {
						"encoding": "inplace",
						"label": "uint256",
						"numberOfBytes": "32"
					}
				}
			},
			"userdoc": {
				"kind": "user",
				"methods": {},
				"version": 1
			}
		}
	}
}