{
	"contracts/Crowdfunding.sol": {
		"CrowdFunding": {
			"abi": [
				{
					"inputs": [
						{
							"internalType": "uint256",
							"name": "_goal",
							"type": "uint256"
						},
						{
							"internalType": "uint256",
							"name": "_deadLine",
							"type": "uint256"
						}
					],
					"stateMutability": "nonpayable",
					"type": "constructor"
				},
				{
					"inputs": [],
					"name": "admin",
					"outputs": [
						{
							"internalType": "address",
							"name": "",
							"type": "address"
						}
					],
					"stateMutability": "view",
					"type": "function"
				},
				{
					"inputs": [],
					"name": "contribute",
					"outputs": [],
					"stateMutability": "payable",
					"type": "function"
				},
				{
					"inputs": [
						{
							"internalType": "address",
							"name": "",
							"type": "address"
						}
					],
					"name": "contributors",
					"outputs": [
						{
							"internalType": "uint256",
							"name": "",
							"type": "uint256"
						}
					],
					"stateMutability": "view",
					"type": "function"
				},
				{
					"inputs": [
						{
							"internalType": "string",
							"name": "_description",
							"type": "string"
						},
						{
							"internalType": "uint256",
							"name": "_amount",
							"type": "uint256"
						},
						{
							"internalType": "address payable",
							"name": "receiptient",
							"type": "address"
						}
					],
					"name": "createRequest",
					"outputs": [],
					"stateMutability": "nonpayable",
					"type": "function"
				},
				{
					"inputs": [],
					"name": "deadLine",
					"outputs": [
						{
							"internalType": "uint256",
							"name": "",
							"type": "uint256"
						}
					],
					"stateMutability": "view",
					"type": "function"
				},
				{
					"inputs": [],
					"name": "getBalance",
					"outputs": [
						{
							"internalType": "uint256",
							"name": "",
							"type": "uint256"
						}
					],
					"stateMutability": "view",
					"type": "function"
				},
				{
					"inputs": [],
					"name": "getRefund",
					"outputs": [],
					"stateMutability": "nonpayable",
					"type": "function"
				},
				{
					"inputs": [],
					"name": "goal",
					"outputs": [
						{
							"internalType": "uint256",
							"name": "",
							"type": "uint256"
						}
					],
					"stateMutability": "view",
					"type": "function"
				},
				{
					"inputs": [
						{
							"internalType": "uint256",
							"name": "_requestIndex",
							"type": "uint256"
						}
					],
					"name": "makePayment",
					"outputs": [],
					"stateMutability": "payable",
					"type": "function"
				},
				{
					"inputs": [],
					"name": "minimumAmount",
					"outputs": [
						{
							"internalType": "uint256",
							"name": "",
							"type": "uint256"
						}
					],
					"stateMutability": "view",
					"type": "function"
				},
				{
					"inputs": [],
					"name": "noOfRequests",
					"outputs": [
						{
							"internalType": "uint256",
							"name": "",
							"type": "uint256"
						}
					],
					"stateMutability": "view",
					"type": "function"
				},
				{
					"inputs": [],
					"name": "numberOfContributors",
					"outputs": [
						{
							"internalType": "uint256",
							"name": "",
							"type": "uint256"
						}
					],
					"stateMutability": "view",
					"type": "function"
				},
				{
					"inputs": [
						{
							"internalType": "uint256",
							"name": "",
							"type": "uint256"
						}
					],
					"name": "request",
					"outputs": [
						{
							"internalType": "string",
							"name": "description",
							"type": "string"
						},
						{
							"internalType": "uint256",
							"name": "amount",
							"type": "uint256"
						},
						{
							"internalType": "address payable",
							"name": "receiver",
							"type": "address"
						},
						{
							"internalType": "uint256",
							"name": "createdAt",
							"type": "uint256"
						},
						{
							"internalType": "uint256",
							"name": "noOfVoters",
							"type": "uint256"
						},
						{
							"internalType": "bool",
							"name": "fundReleaseStatus",
							"type": "bool"
						}
					],
					"stateMutability": "view",
					"type": "function"
				},
				{
					"inputs": [],
					"name": "totalAmount",
					"outputs": [
						{
							"internalType": "uint256",
							"name": "",
							"type": "uint256"
						}
					],
					"stateMutability": "view",
					"type": "function"
				},
				{
					"inputs": [
						{
							"internalType": "uint256",
							"name": "_requestIndex",
							"type": "uint256"
						}
					],
					"name": "vote",
					"outputs": [],
					"stateMutability": "nonpayable",
					"type": "function"
				},
				{
					"stateMutability": "payable",
					"type": "receive"
				}
			],
			"devdoc": {
				"kind": "dev",
				"methods": {},
				"version": 1
			},
			"evm": {
				"assembly": "    /* \"contracts/Crowdfunding.sol\":74:4124  contract CrowdFunding{\r... */\n  mstore(0x40, 0x80)\n    /* \"contracts/Crowdfunding.sol\":1003:1185  constructor(uint _goal, uint _deadLine){\r... */\n  callvalue\n  dup1\n  iszero\n  tag_1\n  jumpi\n  0x00\n  dup1\n  revert\ntag_1:\n  pop\n  mload(0x40)\n  sub(codesize, bytecodeSize)\n  dup1\n  bytecodeSize\n  dup4\n  codecopy\n  dup2\n  dup2\n  add\n  0x40\n  mstore\n  dup2\n  add\n  swap1\n  tag_2\n  swap2\n  swap1\n  tag_3\n  jump\t// in\ntag_2:\n    /* \"contracts/Crowdfunding.sol\":1060:1065  _goal */\n  dup2\n    /* \"contracts/Crowdfunding.sol\":1053:1057  goal */\n  0x02\n    /* \"contracts/Crowdfunding.sol\":1053:1065  goal = _goal */\n  dup2\n  swap1\n  sstore\n  pop\n    /* \"contracts/Crowdfunding.sol\":1105:1114  _deadLine */\n  dup1\n    /* \"contracts/Crowdfunding.sol\":1087:1102  block.timestamp */\n  timestamp\n    /* \"contracts/Crowdfunding.sol\":1087:1114  block.timestamp + _deadLine */\n  tag_6\n  swap2\n  swap1\n  tag_7\n  jump\t// in\ntag_6:\n    /* \"contracts/Crowdfunding.sol\":1076:1084  deadLine */\n  0x03\n    /* \"contracts/Crowdfunding.sol\":1076:1114  deadLine = block.timestamp + _deadLine */\n  dup2\n  swap1\n  sstore\n  pop\n    /* \"contracts/Crowdfunding.sol\":1133:1143  msg.sender */\n  caller\n    /* \"contracts/Crowdfunding.sol\":1125:1130  admin */\n  0x01\n  0x00\n    /* \"contracts/Crowdfunding.sol\":1125:1143  admin = msg.sender */\n  0x0100\n  exp\n  dup2\n  sload\n  dup2\n  0xffffffffffffffffffffffffffffffffffffffff\n  mul\n  not\n  and\n  swap1\n  dup4\n  0xffffffffffffffffffffffffffffffffffffffff\n  and\n  mul\n  or\n  swap1\n  sstore\n  pop\n    /* \"contracts/Crowdfunding.sol\":1170:1177  1 ether */\n  0x0de0b6b3a7640000\n    /* \"contracts/Crowdfunding.sol\":1154:1167  minimumAmount */\n  0x04\n    /* \"contracts/Crowdfunding.sol\":1154:1177  minimumAmount = 1 ether */\n  dup2\n  swap1\n  sstore\n  pop\n    /* \"contracts/Crowdfunding.sol\":1003:1185  constructor(uint _goal, uint _deadLine){\r... */\n  pop\n  pop\n    /* \"contracts/Crowdfunding.sol\":74:4124  contract CrowdFunding{\r... */\n  jump(tag_8)\n    /* \"#utility.yul\":7:150   */\ntag_10:\n    /* \"#utility.yul\":64:69   */\n  0x00\n    /* \"#utility.yul\":95:101   */\n  dup2\n    /* \"#utility.yul\":89:102   */\n  mload\n    /* \"#utility.yul\":80:102   */\n  swap1\n  pop\n    /* \"#utility.yul\":111:144   */\n  tag_12\n    /* \"#utility.yul\":138:143   */\n  dup2\n    /* \"#utility.yul\":111:144   */\n  tag_13\n  jump\t// in\ntag_12:\n    /* \"#utility.yul\":7:150   */\n  swap3\n  swap2\n  pop\n  pop\n  jump\t// out\n    /* \"#utility.yul\":156:663   */\ntag_3:\n    /* \"#utility.yul\":235:241   */\n  0x00\n    /* \"#utility.yul\":243:249   */\n  dup1\n    /* \"#utility.yul\":292:294   */\n  0x40\n    /* \"#utility.yul\":280:289   */\n  dup4\n    /* \"#utility.yul\":271:278   */\n  dup6\n    /* \"#utility.yul\":267:290   */\n  sub\n    /* \"#utility.yul\":263:295   */\n  slt\n    /* \"#utility.yul\":260:379   */\n  iszero\n  tag_15\n  jumpi\n    /* \"#utility.yul\":298:377   */\n  tag_16\n  tag_17\n  jump\t// in\ntag_16:\n    /* \"#utility.yul\":260:379   */\ntag_15:\n    /* \"#utility.yul\":418:419   */\n  0x00\n    /* \"#utility.yul\":443:507   */\n  tag_18\n    /* \"#utility.yul\":499:506   */\n  dup6\n    /* \"#utility.yul\":490:496   */\n  dup3\n    /* \"#utility.yul\":479:488   */\n  dup7\n    /* \"#utility.yul\":475:497   */\n  add\n    /* \"#utility.yul\":443:507   */\n  tag_10\n  jump\t// in\ntag_18:\n    /* \"#utility.yul\":433:507   */\n  swap3\n  pop\n    /* \"#utility.yul\":389:517   */\n  pop\n    /* \"#utility.yul\":556:558   */\n  0x20\n    /* \"#utility.yul\":582:646   */\n  tag_19\n    /* \"#utility.yul\":638:645   */\n  dup6\n    /* \"#utility.yul\":629:635   */\n  dup3\n    /* \"#utility.yul\":618:627   */\n  dup7\n    /* \"#utility.yul\":614:636   */\n  add\n    /* \"#utility.yul\":582:646   */\n  tag_10\n  jump\t// in\ntag_19:\n    /* \"#utility.yul\":572:646   */\n  swap2\n  pop\n    /* \"#utility.yul\":527:656   */\n  pop\n    /* \"#utility.yul\":156:663   */\n  swap3\n  pop\n  swap3\n  swap1\n  pop\n  jump\t// out\n    /* \"#utility.yul\":750:1055   */\ntag_7:\n    /* \"#utility.yul\":790:793   */\n  0x00\n    /* \"#utility.yul\":809:829   */\n  tag_23\n    /* \"#utility.yul\":827:828   */\n  dup3\n    /* \"#utility.yul\":809:829   */\n  tag_24\n  jump\t// in\ntag_23:\n    /* \"#utility.yul\":804:829   */\n  swap2\n  pop\n    /* \"#utility.yul\":843:863   */\n  tag_25\n    /* \"#utility.yul\":861:862   */\n  dup4\n    /* \"#utility.yul\":843:863   */\n  tag_24\n  jump\t// in\ntag_25:\n    /* \"#utility.yul\":838:863   */\n  swap3\n  pop\n    /* \"#utility.yul\":997:998   */\n  dup3\n    /* \"#utility.yul\":929:995   */\n  0xffffffffffffffffffffffffffffffffffffffffffffffffffffffffffffffff\n    /* \"#utility.yul\":925:999   */\n  sub\n    /* \"#utility.yul\":922:923   */\n  dup3\n    /* \"#utility.yul\":919:1000   */\n  gt\n    /* \"#utility.yul\":916:1023   */\n  iszero\n  tag_26\n  jumpi\n    /* \"#utility.yul\":1003:1021   */\n  tag_27\n  tag_28\n  jump\t// in\ntag_27:\n    /* \"#utility.yul\":916:1023   */\ntag_26:\n    /* \"#utility.yul\":1047:1048   */\n  dup3\n    /* \"#utility.yul\":1044:1045   */\n  dup3\n    /* \"#utility.yul\":1040:1049   */\n  add\n    /* \"#utility.yul\":1033:1049   */\n  swap1\n  pop\n    /* \"#utility.yul\":750:1055   */\n  swap3\n  swap2\n  pop\n  pop\n  jump\t// out\n    /* \"#utility.yul\":1061:1138   */\ntag_24:\n    /* \"#utility.yul\":1098:1105   */\n  0x00\n    /* \"#utility.yul\":1127:1132   */\n  dup2\n    /* \"#utility.yul\":1116:1132   */\n  swap1\n  pop\n    /* \"#utility.yul\":1061:1138   */\n  swap2\n  swap1\n  pop\n  jump\t// out\n    /* \"#utility.yul\":1144:1324   */\ntag_28:\n    /* \"#utility.yul\":1192:1269   */\n  0x4e487b7100000000000000000000000000000000000000000000000000000000\n    /* \"#utility.yul\":1189:1190   */\n  0x00\n    /* \"#utility.yul\":1182:1270   */\n  mstore\n    /* \"#utility.yul\":1289:1293   */\n  0x11\n    /* \"#utility.yul\":1286:1287   */\n  0x04\n    /* \"#utility.yul\":1279:1294   */\n  mstore\n    /* \"#utility.yul\":1313:1317   */\n  0x24\n    /* \"#utility.yul\":1310:1311   */\n  0x00\n    /* \"#utility.yul\":1303:1318   */\n  revert\n    /* \"#utility.yul\":1453:1570   */\ntag_17:\n    /* \"#utility.yul\":1562:1563   */\n  0x00\n    /* \"#utility.yul\":1559:1560   */\n  dup1\n    /* \"#utility.yul\":1552:1564   */\n  revert\n    /* \"#utility.yul\":1576:1698   */\ntag_13:\n    /* \"#utility.yul\":1649:1673   */\n  tag_35\n    /* \"#utility.yul\":1667:1672   */\n  dup2\n    /* \"#utility.yul\":1649:1673   */\n  tag_24\n  jump\t// in\ntag_35:\n    /* \"#utility.yul\":1642:1647   */\n  dup2\n    /* \"#utility.yul\":1639:1674   */\n  eq\n    /* \"#utility.yul\":1629:1692   */\n  tag_36\n  jumpi\n    /* \"#utility.yul\":1688:1689   */\n  0x00\n    /* \"#utility.yul\":1685:1686   */\n  dup1\n    /* \"#utility.yul\":1678:1690   */\n  revert\n    /* \"#utility.yul\":1629:1692   */\ntag_36:\n    /* \"#utility.yul\":1576:1698   */\n  pop\n  jump\t// out\n    /* \"contracts/Crowdfunding.sol\":74:4124  contract CrowdFunding{\r... */\ntag_8:\n  dataSize(sub_0)\n  dup1\n  dataOffset(sub_0)\n  0x00\n  codecopy\n  0x00\n  return\nstop\n\nsub_0: assembly {\n        /* \"contracts/Crowdfunding.sol\":74:4124  contract CrowdFunding{\r... */\n      mstore(0x40, 0x80)\n      jumpi(tag_1, lt(calldatasize, 0x04))\n      shr(0xe0, calldataload(0x00))\n      dup1\n      0x8a9cfd55\n      gt\n      tag_18\n      jumpi\n      dup1\n      0xc1f11b4c\n      gt\n      tag_19\n      jumpi\n      dup1\n      0xc1f11b4c\n      eq\n      tag_14\n      jumpi\n      dup1\n      0xd7bb99ba\n      eq\n      tag_15\n      jumpi\n      dup1\n      0xd845a4b3\n      eq\n      tag_16\n      jumpi\n      dup1\n      0xf851a440\n      eq\n      tag_17\n      jumpi\n      jump(tag_2)\n    tag_19:\n      dup1\n      0x8a9cfd55\n      eq\n      tag_10\n      jumpi\n      dup1\n      0xb2d5ae44\n      eq\n      tag_11\n      jumpi\n      dup1\n      0xbb0c8298\n      eq\n      tag_12\n      jumpi\n      dup1\n      0xbef3a083\n      eq\n      tag_13\n      jumpi\n      jump(tag_2)\n    tag_18:\n      dup1\n      0x1f6d4942\n      gt\n      tag_20\n      jumpi\n      dup1\n      0x1f6d4942\n      eq\n      tag_6\n      jumpi\n      dup1\n      0x40193883\n      eq\n      tag_7\n      jumpi\n      dup1\n      0x4377cf65\n      eq\n      tag_8\n      jumpi\n      dup1\n      0x5114cb52\n      eq\n      tag_9\n      jumpi\n      jump(tag_2)\n    tag_20:\n      dup1\n      0x0121b93f\n      eq\n      tag_3\n      jumpi\n      dup1\n      0x12065fe0\n      eq\n      tag_4\n      jumpi\n      dup1\n      0x1a39d8ef\n      eq\n      tag_5\n      jumpi\n      jump(tag_2)\n    tag_1:\n      jumpi(tag_2, calldatasize)\n        /* \"contracts/Crowdfunding.sol\":2017:2029  contribute() */\n      tag_23\n        /* \"contracts/Crowdfunding.sol\":2017:2027  contribute */\n      tag_24\n        /* \"contracts/Crowdfunding.sol\":2017:2029  contribute() */\n      jump\t// in\n    tag_23:\n        /* \"contracts/Crowdfunding.sol\":74:4124  contract CrowdFunding{\r... */\n      stop\n    tag_2:\n      0x00\n      dup1\n      revert\n        /* \"contracts/Crowdfunding.sol\":3098:3645  function vote(uint _requestIndex) public {\r... */\n    tag_3:\n      callvalue\n      dup1\n      iszero\n      tag_25\n      jumpi\n      0x00\n      dup1\n      revert\n    tag_25:\n      pop\n      tag_26\n      0x04\n      dup1\n      calldatasize\n      sub\n      dup2\n      add\n      swap1\n      tag_27\n      swap2\n      swap1\n      tag_28\n      jump\t// in\n    tag_27:\n      tag_29\n      jump\t// in\n    tag_26:\n      stop\n        /* \"contracts/Crowdfunding.sol\":2045:2139  function getBalance() public view returns(uint){\r... */\n    tag_4:\n      callvalue\n      dup1\n      iszero\n      tag_30\n      jumpi\n      0x00\n      dup1\n      revert\n    tag_30:\n      pop\n      tag_31\n      tag_32\n      jump\t// in\n    tag_31:\n      mload(0x40)\n      tag_33\n      swap2\n      swap1\n      tag_34\n      jump\t// in\n    tag_33:\n      mload(0x40)\n      dup1\n      swap2\n      sub\n      swap1\n      return\n        /* \"contracts/Crowdfunding.sol\":573:596  uint public totalAmount */\n    tag_5:\n      callvalue\n      dup1\n      iszero\n      tag_35\n      jumpi\n      0x00\n      dup1\n      revert\n    tag_35:\n      pop\n      tag_36\n      tag_37\n      jump\t// in\n    tag_36:\n      mload(0x40)\n      tag_38\n      swap2\n      swap1\n      tag_34\n      jump\t// in\n    tag_38:\n      mload(0x40)\n      dup1\n      swap2\n      sub\n      swap1\n      return\n        /* \"contracts/Crowdfunding.sol\":161:205  mapping(address => uint) public contributors */\n    tag_6:\n      callvalue\n      dup1\n      iszero\n      tag_39\n      jumpi\n      0x00\n      dup1\n      revert\n    tag_39:\n      pop\n      tag_40\n      0x04\n      dup1\n      calldatasize\n      sub\n      dup2\n      add\n      swap1\n      tag_41\n      swap2\n      swap1\n      tag_42\n      jump\t// in\n    tag_41:\n      tag_43\n      jump\t// in\n    tag_40:\n      mload(0x40)\n      tag_44\n      swap2\n      swap1\n      tag_34\n      jump\t// in\n    tag_44:\n      mload(0x40)\n      dup1\n      swap2\n      sub\n      swap1\n      return\n        /* \"contracts/Crowdfunding.sol\":354:370  uint public goal */\n    tag_7:\n      callvalue\n      dup1\n      iszero\n      tag_45\n      jumpi\n      0x00\n      dup1\n      revert\n    tag_45:\n      pop\n      tag_46\n      tag_47\n      jump\t// in\n    tag_46:\n      mload(0x40)\n      tag_48\n      swap2\n      swap1\n      tag_34\n      jump\t// in\n    tag_48:\n      mload(0x40)\n      dup1\n      swap2\n      sub\n      swap1\n      return\n        /* \"contracts/Crowdfunding.sol\":633:665  uint public numberOfContributors */\n    tag_8:\n      callvalue\n      dup1\n      iszero\n      tag_49\n      jumpi\n      0x00\n      dup1\n      revert\n    tag_49:\n      pop\n      tag_50\n      tag_51\n      jump\t// in\n    tag_50:\n      mload(0x40)\n      tag_52\n      swap2\n      swap1\n      tag_34\n      jump\t// in\n    tag_52:\n      mload(0x40)\n      dup1\n      swap2\n      sub\n      swap1\n      return\n        /* \"contracts/Crowdfunding.sol\":3653:4119  function makePayment(uint _requestIndex) public payable onlyAdmin {\r... */\n    tag_9:\n      tag_53\n      0x04\n      dup1\n      calldatasize\n      sub\n      dup2\n      add\n      swap1\n      tag_54\n      swap2\n      swap1\n      tag_28\n      jump\t// in\n    tag_54:\n      tag_55\n      jump\t// in\n    tag_53:\n      stop\n        /* \"contracts/Crowdfunding.sol\":2681:3090  function createRequest(string memory _description, uint _amount, address payable receiptient) public onlyAdmin {\r... */\n    tag_10:\n      callvalue\n      dup1\n      iszero\n      tag_56\n      jumpi\n      0x00\n      dup1\n      revert\n    tag_56:\n      pop\n      tag_57\n      0x04\n      dup1\n      calldatasize\n      sub\n      dup2\n      add\n      swap1\n      tag_58\n      swap2\n      swap1\n      tag_59\n      jump\t// in\n    tag_58:\n      tag_60\n      jump\t// in\n    tag_57:\n      stop\n        /* \"contracts/Crowdfunding.sol\":2147:2585  function getRefund() public  {\r... */\n    tag_11:\n      callvalue\n      dup1\n      iszero\n      tag_61\n      jumpi\n      0x00\n      dup1\n      revert\n    tag_61:\n      pop\n      tag_62\n      tag_63\n      jump\t// in\n    tag_62:\n      stop\n        /* \"contracts/Crowdfunding.sol\":500:525  uint public minimumAmount */\n    tag_12:\n      callvalue\n      dup1\n      iszero\n      tag_64\n      jumpi\n      0x00\n      dup1\n      revert\n    tag_64:\n      pop\n      tag_65\n      tag_66\n      jump\t// in\n    tag_65:\n      mload(0x40)\n      tag_67\n      swap2\n      swap1\n      tag_34\n      jump\t// in\n    tag_67:\n      mload(0x40)\n      dup1\n      swap2\n      sub\n      swap1\n      return\n        /* \"contracts/Crowdfunding.sol\":420:440  uint public deadLine */\n    tag_13:\n      callvalue\n      dup1\n      iszero\n      tag_68\n      jumpi\n      0x00\n      dup1\n      revert\n    tag_68:\n      pop\n      tag_69\n      tag_70\n      jump\t// in\n    tag_69:\n      mload(0x40)\n      tag_71\n      swap2\n      swap1\n      tag_34\n      jump\t// in\n    tag_71:\n      mload(0x40)\n      dup1\n      swap2\n      sub\n      swap1\n      return\n        /* \"contracts/Crowdfunding.sol\":924:948  uint public noOfRequests */\n    tag_14:\n      callvalue\n      dup1\n      iszero\n      tag_72\n      jumpi\n      0x00\n      dup1\n      revert\n    tag_72:\n      pop\n      tag_73\n      tag_74\n      jump\t// in\n    tag_73:\n      mload(0x40)\n      tag_75\n      swap2\n      swap1\n      tag_34\n      jump\t// in\n    tag_75:\n      mload(0x40)\n      dup1\n      swap2\n      sub\n      swap1\n      return\n        /* \"contracts/Crowdfunding.sol\":1193:1971  function contribute() public payable{\r... */\n    tag_15:\n      tag_76\n      tag_24\n      jump\t// in\n    tag_76:\n      stop\n        /* \"contracts/Crowdfunding.sol\":955:994  mapping(uint => Request) public request */\n    tag_16:\n      callvalue\n      dup1\n      iszero\n      tag_77\n      jumpi\n      0x00\n      dup1\n      revert\n    tag_77:\n      pop\n      tag_78\n      0x04\n      dup1\n      calldatasize\n      sub\n      dup2\n      add\n      swap1\n      tag_79\n      swap2\n      swap1\n      tag_28\n      jump\t// in\n    tag_79:\n      tag_80\n      jump\t// in\n    tag_78:\n      mload(0x40)\n      tag_81\n      swap7\n      swap6\n      swap5\n      swap4\n      swap3\n      swap2\n      swap1\n      tag_82\n      jump\t// in\n    tag_81:\n      mload(0x40)\n      dup1\n      swap2\n      sub\n      swap1\n      return\n        /* \"contracts/Crowdfunding.sol\":240:260  address public admin */\n    tag_17:\n      callvalue\n      dup1\n      iszero\n      tag_83\n      jumpi\n      0x00\n      dup1\n      revert\n    tag_83:\n      pop\n      tag_84\n      tag_85\n      jump\t// in\n    tag_84:\n      mload(0x40)\n      tag_86\n      swap2\n      swap1\n      tag_87\n      jump\t// in\n    tag_86:\n      mload(0x40)\n      dup1\n      swap2\n      sub\n      swap1\n      return\n        /* \"contracts/Crowdfunding.sol\":1193:1971  function contribute() public payable{\r... */\n    tag_24:\n        /* \"contracts/Crowdfunding.sol\":1346:1359  minimumAmount */\n      sload(0x04)\n        /* \"contracts/Crowdfunding.sol\":1333:1342  msg.value */\n      callvalue\n        /* \"contracts/Crowdfunding.sol\":1333:1359  msg.value >= minimumAmount */\n      lt\n      iszero\n        /* \"contracts/Crowdfunding.sol\":1325:1410  require(msg.value >= minimumAmount, \"Amount must be greater than the minimum amount\") */\n      tag_89\n      jumpi\n      mload(0x40)\n      0x08c379a000000000000000000000000000000000000000000000000000000000\n      dup2\n      mstore\n      0x04\n      add\n      tag_90\n      swap1\n      tag_91\n      jump\t// in\n    tag_90:\n      mload(0x40)\n      dup1\n      swap2\n      sub\n      swap1\n      revert\n    tag_89:\n        /* \"contracts/Crowdfunding.sol\":1494:1498  goal */\n      sload(0x02)\n        /* \"contracts/Crowdfunding.sol\":1480:1491  totalAmount */\n      sload(0x05)\n        /* \"contracts/Crowdfunding.sol\":1480:1498  totalAmount < goal */\n      lt\n        /* \"contracts/Crowdfunding.sol\":1472:1536  require(totalAmount < goal, \"Goal for funding has been reached\") */\n      tag_92\n      jumpi\n      mload(0x40)\n      0x08c379a000000000000000000000000000000000000000000000000000000000\n      dup2\n      mstore\n      0x04\n      add\n      tag_93\n      swap1\n      tag_94\n      jump\t// in\n    tag_93:\n      mload(0x40)\n      dup1\n      swap2\n      sub\n      swap1\n      revert\n    tag_92:\n        /* \"contracts/Crowdfunding.sol\":1608:1616  deadLine */\n      sload(0x03)\n        /* \"contracts/Crowdfunding.sol\":1590:1605  block.timestamp */\n      timestamp\n        /* \"contracts/Crowdfunding.sol\":1590:1616  block.timestamp < deadLine */\n      lt\n        /* \"contracts/Crowdfunding.sol\":1582:1659  require(block.timestamp < deadLine, \"Time frame set for funding has elasped\") */\n      tag_95\n      jumpi\n      mload(0x40)\n      0x08c379a000000000000000000000000000000000000000000000000000000000\n      dup2\n      mstore\n      0x04\n      add\n      tag_96\n      swap1\n      tag_97\n      jump\t// in\n    tag_96:\n      mload(0x40)\n      dup1\n      swap2\n      sub\n      swap1\n      revert\n    tag_95:\n        /* \"contracts/Crowdfunding.sol\":1711:1712  0 */\n      0x00\n        /* \"contracts/Crowdfunding.sol\":1683:1695  contributors */\n      dup1\n        /* \"contracts/Crowdfunding.sol\":1683:1707  contributors[msg.sender] */\n      0x00\n        /* \"contracts/Crowdfunding.sol\":1696:1706  msg.sender */\n      caller\n        /* \"contracts/Crowdfunding.sol\":1683:1707  contributors[msg.sender] */\n      0xffffffffffffffffffffffffffffffffffffffff\n      and\n      0xffffffffffffffffffffffffffffffffffffffff\n      and\n      dup2\n      mstore\n      0x20\n      add\n      swap1\n      dup2\n      mstore\n      0x20\n      add\n      0x00\n      keccak256\n      sload\n        /* \"contracts/Crowdfunding.sol\":1683:1712  contributors[msg.sender] == 0 */\n      eq\n        /* \"contracts/Crowdfunding.sol\":1680:1762  if(contributors[msg.sender] == 0){\r... */\n      iszero\n      tag_98\n      jumpi\n        /* \"contracts/Crowdfunding.sol\":1728:1748  numberOfContributors */\n      0x06\n      0x00\n        /* \"contracts/Crowdfunding.sol\":1728:1750  numberOfContributors++ */\n      dup2\n      sload\n      dup1\n      swap3\n      swap2\n      swap1\n      tag_99\n      swap1\n      tag_100\n      jump\t// in\n    tag_99:\n      swap2\n      swap1\n      pop\n      sstore\n      pop\n        /* \"contracts/Crowdfunding.sol\":1680:1762  if(contributors[msg.sender] == 0){\r... */\n    tag_98:\n        /* \"contracts/Crowdfunding.sol\":1853:1862  msg.value */\n      callvalue\n        /* \"contracts/Crowdfunding.sol\":1825:1837  contributors */\n      0x00\n        /* \"contracts/Crowdfunding.sol\":1825:1849  contributors[msg.sender] */\n      dup1\n        /* \"contracts/Crowdfunding.sol\":1838:1848  msg.sender */\n      caller\n        /* \"contracts/Crowdfunding.sol\":1825:1849  contributors[msg.sender] */\n      0xffffffffffffffffffffffffffffffffffffffff\n      and\n      0xffffffffffffffffffffffffffffffffffffffff\n      and\n      dup2\n      mstore\n      0x20\n      add\n      swap1\n      dup2\n      mstore\n      0x20\n      add\n      0x00\n      keccak256\n      0x00\n        /* \"contracts/Crowdfunding.sol\":1825:1862  contributors[msg.sender] += msg.value */\n      dup3\n      dup3\n      sload\n      tag_101\n      swap2\n      swap1\n      tag_102\n      jump\t// in\n    tag_101:\n      swap3\n      pop\n      pop\n      dup2\n      swap1\n      sstore\n      pop\n        /* \"contracts/Crowdfunding.sol\":1952:1961  msg.value */\n      callvalue\n        /* \"contracts/Crowdfunding.sol\":1937:1948  totalAmount */\n      0x05\n      0x00\n        /* \"contracts/Crowdfunding.sol\":1937:1961  totalAmount += msg.value */\n      dup3\n      dup3\n      sload\n      tag_103\n      swap2\n      swap1\n      tag_102\n      jump\t// in\n    tag_103:\n      swap3\n      pop\n      pop\n      dup2\n      swap1\n      sstore\n      pop\n        /* \"contracts/Crowdfunding.sol\":1193:1971  function contribute() public payable{\r... */\n      jump\t// out\n        /* \"contracts/Crowdfunding.sol\":3098:3645  function vote(uint _requestIndex) public {\r... */\n    tag_29:\n        /* \"contracts/Crowdfunding.sol\":3244:3245  0 */\n      0x00\n        /* \"contracts/Crowdfunding.sol\":3217:3229  contributors */\n      dup1\n        /* \"contracts/Crowdfunding.sol\":3217:3241  contributors[msg.sender] */\n      0x00\n        /* \"contracts/Crowdfunding.sol\":3230:3240  msg.sender */\n      caller\n        /* \"contracts/Crowdfunding.sol\":3217:3241  contributors[msg.sender] */\n      0xffffffffffffffffffffffffffffffffffffffff\n      and\n      0xffffffffffffffffffffffffffffffffffffffff\n      and\n      dup2\n      mstore\n      0x20\n      add\n      swap1\n      dup2\n      mstore\n      0x20\n      add\n      0x00\n      keccak256\n      sload\n        /* \"contracts/Crowdfunding.sol\":3217:3245  contributors[msg.sender] > 0 */\n      gt\n        /* \"contracts/Crowdfunding.sol\":3209:3294  require(contributors[msg.sender] > 0, \"You must be a contributor to be able to vote\") */\n      tag_105\n      jumpi\n      mload(0x40)\n      0x08c379a000000000000000000000000000000000000000000000000000000000\n      dup2\n      mstore\n      0x04\n      add\n      tag_106\n      swap1\n      tag_107\n      jump\t// in\n    tag_106:\n      mload(0x40)\n      dup1\n      swap2\n      sub\n      swap1\n      revert\n    tag_105:\n        /* \"contracts/Crowdfunding.sol\":3307:3336  Request storage requestObject */\n      0x00\n        /* \"contracts/Crowdfunding.sol\":3339:3346  request */\n      0x08\n        /* \"contracts/Crowdfunding.sol\":3339:3361  request[_requestIndex] */\n      0x00\n        /* \"contracts/Crowdfunding.sol\":3347:3360  _requestIndex */\n      dup4\n        /* \"contracts/Crowdfunding.sol\":3339:3361  request[_requestIndex] */\n      dup2\n      mstore\n      0x20\n      add\n      swap1\n      dup2\n      mstore\n      0x20\n      add\n      0x00\n      keccak256\n        /* \"contracts/Crowdfunding.sol\":3307:3361  Request storage requestObject = request[_requestIndex] */\n      swap1\n      pop\n        /* \"contracts/Crowdfunding.sol\":3470:3475  false */\n      0x00\n        /* \"contracts/Crowdfunding.sol\":3427:3475  requestObject.votingDetails[msg.sender] == false */\n      iszero\n      iszero\n        /* \"contracts/Crowdfunding.sol\":3427:3440  requestObject */\n      dup2\n        /* \"contracts/Crowdfunding.sol\":3427:3454  requestObject.votingDetails */\n      0x06\n      add\n        /* \"contracts/Crowdfunding.sol\":3427:3466  requestObject.votingDetails[msg.sender] */\n      0x00\n        /* \"contracts/Crowdfunding.sol\":3455:3465  msg.sender */\n      caller\n        /* \"contracts/Crowdfunding.sol\":3427:3466  requestObject.votingDetails[msg.sender] */\n      0xffffffffffffffffffffffffffffffffffffffff\n      and\n      0xffffffffffffffffffffffffffffffffffffffff\n      and\n      dup2\n      mstore\n      0x20\n      add\n      swap1\n      dup2\n      mstore\n      0x20\n      add\n      0x00\n      keccak256\n      0x00\n      swap1\n      sload\n      swap1\n      0x0100\n      exp\n      swap1\n      div\n      0xff\n      and\n        /* \"contracts/Crowdfunding.sol\":3427:3475  requestObject.votingDetails[msg.sender] == false */\n      iszero\n      iszero\n      eq\n        /* \"contracts/Crowdfunding.sol\":3419:3476  require(requestObject.votingDetails[msg.sender] == false) */\n      tag_108\n      jumpi\n      0x00\n      dup1\n      revert\n    tag_108:\n        /* \"contracts/Crowdfunding.sol\":3531:3535  true */\n      0x01\n        /* \"contracts/Crowdfunding.sol\":3489:3502  requestObject */\n      dup2\n        /* \"contracts/Crowdfunding.sol\":3489:3516  requestObject.votingDetails */\n      0x06\n      add\n        /* \"contracts/Crowdfunding.sol\":3489:3528  requestObject.votingDetails[msg.sender] */\n      0x00\n        /* \"contracts/Crowdfunding.sol\":3517:3527  msg.sender */\n      caller\n        /* \"contracts/Crowdfunding.sol\":3489:3528  requestObject.votingDetails[msg.sender] */\n      0xffffffffffffffffffffffffffffffffffffffff\n      and\n      0xffffffffffffffffffffffffffffffffffffffff\n      and\n      dup2\n      mstore\n      0x20\n      add\n      swap1\n      dup2\n      mstore\n      0x20\n      add\n      0x00\n      keccak256\n      0x00\n        /* \"contracts/Crowdfunding.sol\":3489:3535  requestObject.votingDetails[msg.sender] = true */\n      0x0100\n      exp\n      dup2\n      sload\n      dup2\n      0xff\n      mul\n      not\n      and\n      swap1\n      dup4\n      iszero\n      iszero\n      mul\n      or\n      swap1\n      sstore\n      pop\n        /* \"contracts/Crowdfunding.sol\":3561:3574  requestObject */\n      dup1\n        /* \"contracts/Crowdfunding.sol\":3561:3585  requestObject.noOfVoters */\n      0x04\n      add\n      0x00\n        /* \"contracts/Crowdfunding.sol\":3561:3587  requestObject.noOfVoters++ */\n      dup2\n      sload\n      dup1\n      swap3\n      swap2\n      swap1\n      tag_109\n      swap1\n      tag_100\n      jump\t// in\n    tag_109:\n      swap2\n      swap1\n      pop\n      sstore\n      pop\n        /* \"contracts/Crowdfunding.sol\":3139:3645  {\r... */\n      pop\n        /* \"contracts/Crowdfunding.sol\":3098:3645  function vote(uint _requestIndex) public {\r... */\n      pop\n      jump\t// out\n        /* \"contracts/Crowdfunding.sol\":2045:2139  function getBalance() public view returns(uint){\r... */\n    tag_32:\n        /* \"contracts/Crowdfunding.sol\":2087:2091  uint */\n      0x00\n        /* \"contracts/Crowdfunding.sol\":2110:2131  address(this).balance */\n      selfbalance\n        /* \"contracts/Crowdfunding.sol\":2103:2131  return address(this).balance */\n      swap1\n      pop\n        /* \"contracts/Crowdfunding.sol\":2045:2139  function getBalance() public view returns(uint){\r... */\n      swap1\n      jump\t// out\n        /* \"contracts/Crowdfunding.sol\":573:596  uint public totalAmount */\n    tag_37:\n      sload(0x05)\n      dup2\n      jump\t// out\n        /* \"contracts/Crowdfunding.sol\":161:205  mapping(address => uint) public contributors */\n    tag_43:\n      mstore(0x20, 0x00)\n      dup1\n      0x00\n      mstore\n      keccak256(0x00, 0x40)\n      0x00\n      swap2\n      pop\n      swap1\n      pop\n      sload\n      dup2\n      jump\t// out\n        /* \"contracts/Crowdfunding.sol\":354:370  uint public goal */\n    tag_47:\n      sload(0x02)\n      dup2\n      jump\t// out\n        /* \"contracts/Crowdfunding.sol\":633:665  uint public numberOfContributors */\n    tag_51:\n      sload(0x06)\n      dup2\n      jump\t// out\n        /* \"contracts/Crowdfunding.sol\":3653:4119  function makePayment(uint _requestIndex) public payable onlyAdmin {\r... */\n    tag_55:\n        /* \"contracts/Crowdfunding.sol\":2647:2652  admin */\n      0x01\n      0x00\n      swap1\n      sload\n      swap1\n      0x0100\n      exp\n      swap1\n      div\n      0xffffffffffffffffffffffffffffffffffffffff\n      and\n        /* \"contracts/Crowdfunding.sol\":2633:2652  msg.sender == admin */\n      0xffffffffffffffffffffffffffffffffffffffff\n      and\n        /* \"contracts/Crowdfunding.sol\":2633:2643  msg.sender */\n      caller\n        /* \"contracts/Crowdfunding.sol\":2633:2652  msg.sender == admin */\n      0xffffffffffffffffffffffffffffffffffffffff\n      and\n      eq\n        /* \"contracts/Crowdfunding.sol\":2625:2653  require(msg.sender == admin) */\n      tag_112\n      jumpi\n      0x00\n      dup1\n      revert\n    tag_112:\n        /* \"contracts/Crowdfunding.sol\":3732:3761  Request storage requestObject */\n      0x00\n        /* \"contracts/Crowdfunding.sol\":3764:3771  request */\n      0x08\n        /* \"contracts/Crowdfunding.sol\":3764:3786  request[_requestIndex] */\n      0x00\n        /* \"contracts/Crowdfunding.sol\":3772:3785  _requestIndex */\n      dup4\n        /* \"contracts/Crowdfunding.sol\":3764:3786  request[_requestIndex] */\n      dup2\n      mstore\n      0x20\n      add\n      swap1\n      dup2\n      mstore\n      0x20\n      add\n      0x00\n      keccak256\n        /* \"contracts/Crowdfunding.sol\":3732:3786  Request storage requestObject = request[_requestIndex] */\n      swap1\n      pop\n        /* \"contracts/Crowdfunding.sol\":3855:3856  2 */\n      0x02\n        /* \"contracts/Crowdfunding.sol\":3834:3854  numberOfContributors */\n      sload(0x06)\n        /* \"contracts/Crowdfunding.sol\":3834:3856  numberOfContributors/2 */\n      tag_114\n      swap2\n      swap1\n      tag_115\n      jump\t// in\n    tag_114:\n        /* \"contracts/Crowdfunding.sol\":3807:3820  requestObject */\n      dup2\n        /* \"contracts/Crowdfunding.sol\":3807:3831  requestObject.noOfVoters */\n      0x04\n      add\n      sload\n        /* \"contracts/Crowdfunding.sol\":3807:3856  requestObject.noOfVoters > numberOfContributors/2 */\n      gt\n        /* \"contracts/Crowdfunding.sol\":3799:3857  require(requestObject.noOfVoters > numberOfContributors/2) */\n      tag_116\n      jumpi\n      0x00\n      dup1\n      revert\n    tag_116:\n        /* \"contracts/Crowdfunding.sol\":4008:4013  false */\n      0x00\n        /* \"contracts/Crowdfunding.sol\":3973:4013  requestObject.fundReleaseStatus == false */\n      iszero\n      iszero\n        /* \"contracts/Crowdfunding.sol\":3973:3986  requestObject */\n      dup2\n        /* \"contracts/Crowdfunding.sol\":3973:4004  requestObject.fundReleaseStatus */\n      0x05\n      add\n      0x00\n      swap1\n      sload\n      swap1\n      0x0100\n      exp\n      swap1\n      div\n      0xff\n      and\n        /* \"contracts/Crowdfunding.sol\":3973:4013  requestObject.fundReleaseStatus == false */\n      iszero\n      iszero\n      eq\n        /* \"contracts/Crowdfunding.sol\":3965:4014  require(requestObject.fundReleaseStatus == false) */\n      tag_117\n      jumpi\n      0x00\n      dup1\n      revert\n    tag_117:\n        /* \"contracts/Crowdfunding.sol\":4056:4069  requestObject */\n      dup1\n        /* \"contracts/Crowdfunding.sol\":4056:4078  requestObject.receiver */\n      0x02\n      add\n      0x00\n      swap1\n      sload\n      swap1\n      0x0100\n      exp\n      swap1\n      div\n      0xffffffffffffffffffffffffffffffffffffffff\n      and\n        /* \"contracts/Crowdfunding.sol\":4056:4087  requestObject.receiver.transfer */\n      0xffffffffffffffffffffffffffffffffffffffff\n      and\n        /* \"contracts/Crowdfunding.sol\":4056:4109  requestObject.receiver.transfer(requestObject.amount) */\n      0x08fc\n        /* \"contracts/Crowdfunding.sol\":4088:4101  requestObject */\n      dup3\n        /* \"contracts/Crowdfunding.sol\":4088:4108  requestObject.amount */\n      0x01\n      add\n      sload\n        /* \"contracts/Crowdfunding.sol\":4056:4109  requestObject.receiver.transfer(requestObject.amount) */\n      swap1\n      dup2\n      iszero\n      mul\n      swap1\n      mload(0x40)\n      0x00\n      mload(0x40)\n      dup1\n      dup4\n      sub\n      dup2\n      dup6\n      dup9\n      dup9\n      call\n      swap4\n      pop\n      pop\n      pop\n      pop\n      iszero\n      dup1\n      iszero\n      tag_119\n      jumpi\n      returndatasize\n      0x00\n      dup1\n      returndatacopy\n      revert(0x00, returndatasize)\n    tag_119:\n      pop\n        /* \"contracts/Crowdfunding.sol\":3719:4119  {\r... */\n      pop\n        /* \"contracts/Crowdfunding.sol\":3653:4119  function makePayment(uint _requestIndex) public payable onlyAdmin {\r... */\n      pop\n      jump\t// out\n        /* \"contracts/Crowdfunding.sol\":2681:3090  function createRequest(string memory _description, uint _amount, address payable receiptient) public onlyAdmin {\r... */\n    tag_60:\n        /* \"contracts/Crowdfunding.sol\":2647:2652  admin */\n      0x01\n      0x00\n      swap1\n      sload\n      swap1\n      0x0100\n      exp\n      swap1\n      div\n      0xffffffffffffffffffffffffffffffffffffffff\n      and\n        /* \"contracts/Crowdfunding.sol\":2633:2652  msg.sender == admin */\n      0xffffffffffffffffffffffffffffffffffffffff\n      and\n        /* \"contracts/Crowdfunding.sol\":2633:2643  msg.sender */\n      caller\n        /* \"contracts/Crowdfunding.sol\":2633:2652  msg.sender == admin */\n      0xffffffffffffffffffffffffffffffffffffffff\n      and\n      eq\n        /* \"contracts/Crowdfunding.sol\":2625:2653  require(msg.sender == admin) */\n      tag_121\n      jumpi\n      0x00\n      dup1\n      revert\n    tag_121:\n        /* \"contracts/Crowdfunding.sol\":2803:2834  Request storage _requestDetails */\n      0x00\n        /* \"contracts/Crowdfunding.sol\":2837:2844  request */\n      0x08\n        /* \"contracts/Crowdfunding.sol\":2837:2858  request[noOfRequests] */\n      0x00\n        /* \"contracts/Crowdfunding.sol\":2845:2857  noOfRequests */\n      sload(0x07)\n        /* \"contracts/Crowdfunding.sol\":2837:2858  request[noOfRequests] */\n      dup2\n      mstore\n      0x20\n      add\n      swap1\n      dup2\n      mstore\n      0x20\n      add\n      0x00\n      keccak256\n        /* \"contracts/Crowdfunding.sol\":2803:2858  Request storage _requestDetails = request[noOfRequests] */\n      swap1\n      pop\n        /* \"contracts/Crowdfunding.sol\":2899:2911  _description */\n      dup4\n        /* \"contracts/Crowdfunding.sol\":2869:2884  _requestDetails */\n      dup2\n        /* \"contracts/Crowdfunding.sol\":2869:2896  _requestDetails.description */\n      0x00\n      add\n        /* \"contracts/Crowdfunding.sol\":2869:2911  _requestDetails.description = _description */\n      swap1\n      dup1\n      mload\n      swap1\n      0x20\n      add\n      swap1\n      tag_123\n      swap3\n      swap2\n      swap1\n      tag_124\n      jump\t// in\n    tag_123:\n      pop\n        /* \"contracts/Crowdfunding.sol\":2947:2954  _amount */\n      dup3\n        /* \"contracts/Crowdfunding.sol\":2922:2937  _requestDetails */\n      dup2\n        /* \"contracts/Crowdfunding.sol\":2922:2944  _requestDetails.amount */\n      0x01\n      add\n        /* \"contracts/Crowdfunding.sol\":2922:2954  _requestDetails.amount = _amount */\n      dup2\n      swap1\n      sstore\n      pop\n        /* \"contracts/Crowdfunding.sol\":3001:3006  false */\n      0x00\n        /* \"contracts/Crowdfunding.sol\":2965:2980  _requestDetails */\n      dup2\n        /* \"contracts/Crowdfunding.sol\":2965:2998  _requestDetails.fundReleaseStatus */\n      0x05\n      add\n      0x00\n        /* \"contracts/Crowdfunding.sol\":2965:3006  _requestDetails.fundReleaseStatus = false */\n      0x0100\n      exp\n      dup2\n      sload\n      dup2\n      0xff\n      mul\n      not\n      and\n      swap1\n      dup4\n      iszero\n      iszero\n      mul\n      or\n      swap1\n      sstore\n      pop\n        /* \"contracts/Crowdfunding.sol\":3044:3055  receiptient */\n      dup2\n        /* \"contracts/Crowdfunding.sol\":3017:3032  _requestDetails */\n      dup2\n        /* \"contracts/Crowdfunding.sol\":3017:3041  _requestDetails.receiver */\n      0x02\n      add\n      0x00\n        /* \"contracts/Crowdfunding.sol\":3017:3055  _requestDetails.receiver = receiptient */\n      0x0100\n      exp\n      dup2\n      sload\n      dup2\n      0xffffffffffffffffffffffffffffffffffffffff\n      mul\n      not\n      and\n      swap1\n      dup4\n      0xffffffffffffffffffffffffffffffffffffffff\n      and\n      mul\n      or\n      swap1\n      sstore\n      pop\n        /* \"contracts/Crowdfunding.sol\":3068:3080  noOfRequests */\n      0x07\n      0x00\n        /* \"contracts/Crowdfunding.sol\":3068:3082  noOfRequests++ */\n      dup2\n      sload\n      dup1\n      swap3\n      swap2\n      swap1\n      tag_125\n      swap1\n      tag_100\n      jump\t// in\n    tag_125:\n      swap2\n      swap1\n      pop\n      sstore\n      pop\n        /* \"contracts/Crowdfunding.sol\":2792:3090  {\r... */\n      pop\n        /* \"contracts/Crowdfunding.sol\":2681:3090  function createRequest(string memory _description, uint _amount, address payable receiptient) public onlyAdmin {\r... */\n      pop\n      pop\n      pop\n      jump\t// out\n        /* \"contracts/Crowdfunding.sol\":2147:2585  function getRefund() public  {\r... */\n    tag_63:\n        /* \"contracts/Crowdfunding.sol\":2222:2223  0 */\n      0x00\n        /* \"contracts/Crowdfunding.sol\":2195:2207  contributors */\n      dup1\n        /* \"contracts/Crowdfunding.sol\":2195:2219  contributors[msg.sender] */\n      0x00\n        /* \"contracts/Crowdfunding.sol\":2208:2218  msg.sender */\n      caller\n        /* \"contracts/Crowdfunding.sol\":2195:2219  contributors[msg.sender] */\n      0xffffffffffffffffffffffffffffffffffffffff\n      and\n      0xffffffffffffffffffffffffffffffffffffffff\n      and\n      dup2\n      mstore\n      0x20\n      add\n      swap1\n      dup2\n      mstore\n      0x20\n      add\n      0x00\n      keccak256\n      sload\n        /* \"contracts/Crowdfunding.sol\":2195:2223  contributors[msg.sender] > 0 */\n      gt\n        /* \"contracts/Crowdfunding.sol\":2187:2263  require(contributors[msg.sender] > 0, \"You are not an existing contributor\") */\n      tag_127\n      jumpi\n      mload(0x40)\n      0x08c379a000000000000000000000000000000000000000000000000000000000\n      dup2\n      mstore\n      0x04\n      add\n      tag_128\n      swap1\n      tag_129\n      jump\t// in\n    tag_128:\n      mload(0x40)\n      dup1\n      swap2\n      sub\n      swap1\n      revert\n    tag_127:\n        /* \"contracts/Crowdfunding.sol\":2375:2383  deadLine */\n      sload(0x03)\n        /* \"contracts/Crowdfunding.sol\":2356:2371  block.timestamp */\n      timestamp\n        /* \"contracts/Crowdfunding.sol\":2356:2383  block.timestamp >= deadLine */\n      lt\n      iszero\n        /* \"contracts/Crowdfunding.sol\":2356:2405  block.timestamp >= deadLine && totalAmount < goal */\n      dup1\n      iszero\n      tag_130\n      jumpi\n      pop\n        /* \"contracts/Crowdfunding.sol\":2401:2405  goal */\n      sload(0x02)\n        /* \"contracts/Crowdfunding.sol\":2387:2398  totalAmount */\n      sload(0x05)\n        /* \"contracts/Crowdfunding.sol\":2387:2405  totalAmount < goal */\n      lt\n        /* \"contracts/Crowdfunding.sol\":2356:2405  block.timestamp >= deadLine && totalAmount < goal */\n    tag_130:\n        /* \"contracts/Crowdfunding.sol\":2348:2445  require(block.timestamp >= deadLine && totalAmount < goal, \"Funding time frame is yet to expire\") */\n      tag_131\n      jumpi\n      mload(0x40)\n      0x08c379a000000000000000000000000000000000000000000000000000000000\n      dup2\n      mstore\n      0x04\n      add\n      tag_132\n      swap1\n      tag_133\n      jump\t// in\n    tag_132:\n      mload(0x40)\n      dup1\n      swap2\n      sub\n      swap1\n      revert\n    tag_131:\n        /* \"contracts/Crowdfunding.sol\":2490:2500  msg.sender */\n      caller\n        /* \"contracts/Crowdfunding.sol\":2482:2510  payable(msg.sender).transfer */\n      0xffffffffffffffffffffffffffffffffffffffff\n      and\n        /* \"contracts/Crowdfunding.sol\":2482:2536  payable(msg.sender).transfer(contributors[msg.sender]) */\n      0x08fc\n        /* \"contracts/Crowdfunding.sol\":2511:2523  contributors */\n      0x00\n        /* \"contracts/Crowdfunding.sol\":2511:2535  contributors[msg.sender] */\n      dup1\n        /* \"contracts/Crowdfunding.sol\":2524:2534  msg.sender */\n      caller\n        /* \"contracts/Crowdfunding.sol\":2511:2535  contributors[msg.sender] */\n      0xffffffffffffffffffffffffffffffffffffffff\n      and\n      0xffffffffffffffffffffffffffffffffffffffff\n      and\n      dup2\n      mstore\n      0x20\n      add\n      swap1\n      dup2\n      mstore\n      0x20\n      add\n      0x00\n      keccak256\n      sload\n        /* \"contracts/Crowdfunding.sol\":2482:2536  payable(msg.sender).transfer(contributors[msg.sender]) */\n      swap1\n      dup2\n      iszero\n      mul\n      swap1\n      mload(0x40)\n      0x00\n      mload(0x40)\n      dup1\n      dup4\n      sub\n      dup2\n      dup6\n      dup9\n      dup9\n      call\n      swap4\n      pop\n      pop\n      pop\n      pop\n      iszero\n      dup1\n      iszero\n      tag_135\n      jumpi\n      returndatasize\n      0x00\n      dup1\n      returndatacopy\n      revert(0x00, returndatasize)\n    tag_135:\n      pop\n        /* \"contracts/Crowdfunding.sol\":2576:2577  0 */\n      0x00\n        /* \"contracts/Crowdfunding.sol\":2549:2561  contributors */\n      dup1\n        /* \"contracts/Crowdfunding.sol\":2549:2573  contributors[msg.sender] */\n      0x00\n        /* \"contracts/Crowdfunding.sol\":2562:2572  msg.sender */\n      caller\n        /* \"contracts/Crowdfunding.sol\":2549:2573  contributors[msg.sender] */\n      0xffffffffffffffffffffffffffffffffffffffff\n      and\n      0xffffffffffffffffffffffffffffffffffffffff\n      and\n      dup2\n      mstore\n      0x20\n      add\n      swap1\n      dup2\n      mstore\n      0x20\n      add\n      0x00\n      keccak256\n        /* \"contracts/Crowdfunding.sol\":2549:2577  contributors[msg.sender] = 0 */\n      dup2\n      swap1\n      sstore\n      pop\n        /* \"contracts/Crowdfunding.sol\":2147:2585  function getRefund() public  {\r... */\n      jump\t// out\n        /* \"contracts/Crowdfunding.sol\":500:525  uint public minimumAmount */\n    tag_66:\n      sload(0x04)\n      dup2\n      jump\t// out\n        /* \"contracts/Crowdfunding.sol\":420:440  uint public deadLine */\n    tag_70:\n      sload(0x03)\n      dup2\n      jump\t// out\n        /* \"contracts/Crowdfunding.sol\":924:948  uint public noOfRequests */\n    tag_74:\n      sload(0x07)\n      dup2\n      jump\t// out\n        /* \"contracts/Crowdfunding.sol\":955:994  mapping(uint => Request) public request */\n    tag_80:\n      mstore(0x20, 0x08)\n      dup1\n      0x00\n      mstore\n      keccak256(0x00, 0x40)\n      0x00\n      swap2\n      pop\n      swap1\n      pop\n      dup1\n      0x00\n      add\n      dup1\n      sload\n      tag_136\n      swap1\n      tag_137\n      jump\t// in\n    tag_136:\n      dup1\n      0x1f\n      add\n      0x20\n      dup1\n      swap2\n      div\n      mul\n      0x20\n      add\n      mload(0x40)\n      swap1\n      dup2\n      add\n      0x40\n      mstore\n      dup1\n      swap3\n      swap2\n      swap1\n      dup2\n      dup2\n      mstore\n      0x20\n      add\n      dup3\n      dup1\n      sload\n      tag_138\n      swap1\n      tag_137\n      jump\t// in\n    tag_138:\n      dup1\n      iszero\n      tag_139\n      jumpi\n      dup1\n      0x1f\n      lt\n      tag_140\n      jumpi\n      0x0100\n      dup1\n      dup4\n      sload\n      div\n      mul\n      dup4\n      mstore\n      swap2\n      0x20\n      add\n      swap2\n      jump(tag_139)\n    tag_140:\n      dup3\n      add\n      swap2\n      swap1\n      0x00\n      mstore\n      keccak256(0x00, 0x20)\n      swap1\n    tag_141:\n      dup2\n      sload\n      dup2\n      mstore\n      swap1\n      0x01\n      add\n      swap1\n      0x20\n      add\n      dup1\n      dup4\n      gt\n      tag_141\n      jumpi\n      dup3\n      swap1\n      sub\n      0x1f\n      and\n      dup3\n      add\n      swap2\n    tag_139:\n      pop\n      pop\n      pop\n      pop\n      pop\n      swap1\n      dup1\n      0x01\n      add\n      sload\n      swap1\n      dup1\n      0x02\n      add\n      0x00\n      swap1\n      sload\n      swap1\n      0x0100\n      exp\n      swap1\n      div\n      0xffffffffffffffffffffffffffffffffffffffff\n      and\n      swap1\n      dup1\n      0x03\n      add\n      sload\n      swap1\n      dup1\n      0x04\n      add\n      sload\n      swap1\n      dup1\n      0x05\n      add\n      0x00\n      swap1\n      sload\n      swap1\n      0x0100\n      exp\n      swap1\n      div\n      0xff\n      and\n      swap1\n      pop\n      dup7\n      jump\t// out\n        /* \"contracts/Crowdfunding.sol\":240:260  address public admin */\n    tag_85:\n      0x01\n      0x00\n      swap1\n      sload\n      swap1\n      0x0100\n      exp\n      swap1\n      div\n      0xffffffffffffffffffffffffffffffffffffffff\n      and\n      dup2\n      jump\t// out\n    tag_124:\n      dup3\n      dup1\n      sload\n      tag_142\n      swap1\n      tag_137\n      jump\t// in\n    tag_142:\n      swap1\n      0x00\n      mstore\n      keccak256(0x00, 0x20)\n      swap1\n      0x1f\n      add\n      0x20\n      swap1\n      div\n      dup2\n      add\n      swap3\n      dup3\n      tag_144\n      jumpi\n      0x00\n      dup6\n      sstore\n      jump(tag_143)\n    tag_144:\n      dup3\n      0x1f\n      lt\n      tag_145\n      jumpi\n      dup1\n      mload\n      not(0xff)\n      and\n      dup4\n      dup1\n      add\n      or\n      dup6\n      sstore\n      jump(tag_143)\n    tag_145:\n      dup3\n      dup1\n      add\n      0x01\n      add\n      dup6\n      sstore\n      dup3\n      iszero\n      tag_143\n      jumpi\n      swap2\n      dup3\n      add\n    tag_146:\n      dup3\n      dup2\n      gt\n      iszero\n      tag_147\n      jumpi\n      dup3\n      mload\n      dup3\n      sstore\n      swap2\n      0x20\n      add\n      swap2\n      swap1\n      0x01\n      add\n      swap1\n      jump(tag_146)\n    tag_147:\n    tag_143:\n      pop\n      swap1\n      pop\n      tag_148\n      swap2\n      swap1\n      tag_149\n      jump\t// in\n    tag_148:\n      pop\n      swap1\n      jump\t// out\n    tag_149:\n    tag_150:\n      dup1\n      dup3\n      gt\n      iszero\n      tag_151\n      jumpi\n      0x00\n      dup2\n      0x00\n      swap1\n      sstore\n      pop\n      0x01\n      add\n      jump(tag_150)\n    tag_151:\n      pop\n      swap1\n      jump\t// out\n        /* \"#utility.yul\":7:419   */\n    tag_153:\n        /* \"#utility.yul\":85:90   */\n      0x00\n        /* \"#utility.yul\":110:176   */\n      tag_155\n        /* \"#utility.yul\":126:175   */\n      tag_156\n        /* \"#utility.yul\":168:174   */\n      dup5\n        /* \"#utility.yul\":126:175   */\n      tag_157\n      jump\t// in\n    tag_156:\n        /* \"#utility.yul\":110:176   */\n      tag_158\n      jump\t// in\n    tag_155:\n        /* \"#utility.yul\":101:176   */\n      swap1\n      pop\n        /* \"#utility.yul\":199:205   */\n      dup3\n        /* \"#utility.yul\":192:197   */\n      dup2\n        /* \"#utility.yul\":185:206   */\n      mstore\n        /* \"#utility.yul\":237:241   */\n      0x20\n        /* \"#utility.yul\":230:235   */\n      dup2\n        /* \"#utility.yul\":226:242   */\n      add\n        /* \"#utility.yul\":275:278   */\n      dup5\n        /* \"#utility.yul\":266:272   */\n      dup5\n        /* \"#utility.yul\":261:264   */\n      dup5\n        /* \"#utility.yul\":257:273   */\n      add\n        /* \"#utility.yul\":254:279   */\n      gt\n        /* \"#utility.yul\":251:363   */\n      iszero\n      tag_159\n      jumpi\n        /* \"#utility.yul\":282:361   */\n      tag_160\n      tag_161\n      jump\t// in\n    tag_160:\n        /* \"#utility.yul\":251:363   */\n    tag_159:\n        /* \"#utility.yul\":372:413   */\n      tag_162\n        /* \"#utility.yul\":406:412   */\n      dup5\n        /* \"#utility.yul\":401:404   */\n      dup3\n        /* \"#utility.yul\":396:399   */\n      dup6\n        /* \"#utility.yul\":372:413   */\n      tag_163\n      jump\t// in\n    tag_162:\n        /* \"#utility.yul\":91:419   */\n      pop\n        /* \"#utility.yul\":7:419   */\n      swap4\n      swap3\n      pop\n      pop\n      pop\n      jump\t// out\n        /* \"#utility.yul\":425:564   */\n    tag_164:\n        /* \"#utility.yul\":471:476   */\n      0x00\n        /* \"#utility.yul\":509:515   */\n      dup2\n        /* \"#utility.yul\":496:516   */\n      calldataload\n        /* \"#utility.yul\":487:516   */\n      swap1\n      pop\n        /* \"#utility.yul\":525:558   */\n      tag_166\n        /* \"#utility.yul\":552:557   */\n      dup2\n        /* \"#utility.yul\":525:558   */\n      tag_167\n      jump\t// in\n    tag_166:\n        /* \"#utility.yul\":425:564   */\n      swap3\n      swap2\n      pop\n      pop\n      jump\t// out\n        /* \"#utility.yul\":570:725   */\n    tag_168:\n        /* \"#utility.yul\":624:629   */\n      0x00\n        /* \"#utility.yul\":662:668   */\n      dup2\n        /* \"#utility.yul\":649:669   */\n      calldataload\n        /* \"#utility.yul\":640:669   */\n      swap1\n      pop\n        /* \"#utility.yul\":678:719   */\n      tag_170\n        /* \"#utility.yul\":713:718   */\n      dup2\n        /* \"#utility.yul\":678:719   */\n      tag_171\n      jump\t// in\n    tag_170:\n        /* \"#utility.yul\":570:725   */\n      swap3\n      swap2\n      pop\n      pop\n      jump\t// out\n        /* \"#utility.yul\":745:1085   */\n    tag_172:\n        /* \"#utility.yul\":801:806   */\n      0x00\n        /* \"#utility.yul\":850:853   */\n      dup3\n        /* \"#utility.yul\":843:847   */\n      0x1f\n        /* \"#utility.yul\":835:841   */\n      dup4\n        /* \"#utility.yul\":831:848   */\n      add\n        /* \"#utility.yul\":827:854   */\n      slt\n        /* \"#utility.yul\":817:939   */\n      tag_174\n      jumpi\n        /* \"#utility.yul\":858:937   */\n      tag_175\n      tag_176\n      jump\t// in\n    tag_175:\n        /* \"#utility.yul\":817:939   */\n    tag_174:\n        /* \"#utility.yul\":975:981   */\n      dup2\n        /* \"#utility.yul\":962:982   */\n      calldataload\n        /* \"#utility.yul\":1000:1079   */\n      tag_177\n        /* \"#utility.yul\":1075:1078   */\n      dup5\n        /* \"#utility.yul\":1067:1073   */\n      dup3\n        /* \"#utility.yul\":1060:1064   */\n      0x20\n        /* \"#utility.yul\":1052:1058   */\n      dup7\n        /* \"#utility.yul\":1048:1065   */\n      add\n        /* \"#utility.yul\":1000:1079   */\n      tag_153\n      jump\t// in\n    tag_177:\n        /* \"#utility.yul\":991:1079   */\n      swap2\n      pop\n        /* \"#utility.yul\":807:1085   */\n      pop\n        /* \"#utility.yul\":745:1085   */\n      swap3\n      swap2\n      pop\n      pop\n      jump\t// out\n        /* \"#utility.yul\":1091:1230   */\n    tag_178:\n        /* \"#utility.yul\":1137:1142   */\n      0x00\n        /* \"#utility.yul\":1175:1181   */\n      dup2\n        /* \"#utility.yul\":1162:1182   */\n      calldataload\n        /* \"#utility.yul\":1153:1182   */\n      swap1\n      pop\n        /* \"#utility.yul\":1191:1224   */\n      tag_180\n        /* \"#utility.yul\":1218:1223   */\n      dup2\n        /* \"#utility.yul\":1191:1224   */\n      tag_181\n      jump\t// in\n    tag_180:\n        /* \"#utility.yul\":1091:1230   */\n      swap3\n      swap2\n      pop\n      pop\n      jump\t// out\n        /* \"#utility.yul\":1236:1565   */\n    tag_42:\n        /* \"#utility.yul\":1295:1301   */\n      0x00\n        /* \"#utility.yul\":1344:1346   */\n      0x20\n        /* \"#utility.yul\":1332:1341   */\n      dup3\n        /* \"#utility.yul\":1323:1330   */\n      dup5\n        /* \"#utility.yul\":1319:1342   */\n      sub\n        /* \"#utility.yul\":1315:1347   */\n      slt\n        /* \"#utility.yul\":1312:1431   */\n      iszero\n      tag_183\n      jumpi\n        /* \"#utility.yul\":1350:1429   */\n      tag_184\n      tag_185\n      jump\t// in\n    tag_184:\n        /* \"#utility.yul\":1312:1431   */\n    tag_183:\n        /* \"#utility.yul\":1470:1471   */\n      0x00\n        /* \"#utility.yul\":1495:1548   */\n      tag_186\n        /* \"#utility.yul\":1540:1547   */\n      dup5\n        /* \"#utility.yul\":1531:1537   */\n      dup3\n        /* \"#utility.yul\":1520:1529   */\n      dup6\n        /* \"#utility.yul\":1516:1538   */\n      add\n        /* \"#utility.yul\":1495:1548   */\n      tag_164\n      jump\t// in\n    tag_186:\n        /* \"#utility.yul\":1485:1548   */\n      swap2\n      pop\n        /* \"#utility.yul\":1441:1558   */\n      pop\n        /* \"#utility.yul\":1236:1565   */\n      swap3\n      swap2\n      pop\n      pop\n      jump\t// out\n        /* \"#utility.yul\":1571:2386   */\n    tag_59:\n        /* \"#utility.yul\":1666:1672   */\n      0x00\n        /* \"#utility.yul\":1674:1680   */\n      dup1\n        /* \"#utility.yul\":1682:1688   */\n      0x00\n        /* \"#utility.yul\":1731:1733   */\n      0x60\n        /* \"#utility.yul\":1719:1728   */\n      dup5\n        /* \"#utility.yul\":1710:1717   */\n      dup7\n        /* \"#utility.yul\":1706:1729   */\n      sub\n        /* \"#utility.yul\":1702:1734   */\n      slt\n        /* \"#utility.yul\":1699:1818   */\n      iszero\n      tag_188\n      jumpi\n        /* \"#utility.yul\":1737:1816   */\n      tag_189\n      tag_185\n      jump\t// in\n    tag_189:\n        /* \"#utility.yul\":1699:1818   */\n    tag_188:\n        /* \"#utility.yul\":1885:1886   */\n      0x00\n        /* \"#utility.yul\":1874:1883   */\n      dup5\n        /* \"#utility.yul\":1870:1887   */\n      add\n        /* \"#utility.yul\":1857:1888   */\n      calldataload\n        /* \"#utility.yul\":1915:1933   */\n      0xffffffffffffffff\n        /* \"#utility.yul\":1907:1913   */\n      dup2\n        /* \"#utility.yul\":1904:1934   */\n      gt\n        /* \"#utility.yul\":1901:2018   */\n      iszero\n      tag_190\n      jumpi\n        /* \"#utility.yul\":1937:2016   */\n      tag_191\n      tag_192\n      jump\t// in\n    tag_191:\n        /* \"#utility.yul\":1901:2018   */\n    tag_190:\n        /* \"#utility.yul\":2042:2105   */\n      tag_193\n        /* \"#utility.yul\":2097:2104   */\n      dup7\n        /* \"#utility.yul\":2088:2094   */\n      dup3\n        /* \"#utility.yul\":2077:2086   */\n      dup8\n        /* \"#utility.yul\":2073:2095   */\n      add\n        /* \"#utility.yul\":2042:2105   */\n      tag_172\n      jump\t// in\n    tag_193:\n        /* \"#utility.yul\":2032:2105   */\n      swap4\n      pop\n        /* \"#utility.yul\":1828:2115   */\n      pop\n        /* \"#utility.yul\":2154:2156   */\n      0x20\n        /* \"#utility.yul\":2180:2233   */\n      tag_194\n        /* \"#utility.yul\":2225:2232   */\n      dup7\n        /* \"#utility.yul\":2216:2222   */\n      dup3\n        /* \"#utility.yul\":2205:2214   */\n      dup8\n        /* \"#utility.yul\":2201:2223   */\n      add\n        /* \"#utility.yul\":2180:2233   */\n      tag_178\n      jump\t// in\n    tag_194:\n        /* \"#utility.yul\":2170:2233   */\n      swap3\n      pop\n        /* \"#utility.yul\":2125:2243   */\n      pop\n        /* \"#utility.yul\":2282:2284   */\n      0x40\n        /* \"#utility.yul\":2308:2369   */\n      tag_195\n        /* \"#utility.yul\":2361:2368   */\n      dup7\n        /* \"#utility.yul\":2352:2358   */\n      dup3\n        /* \"#utility.yul\":2341:2350   */\n      dup8\n        /* \"#utility.yul\":2337:2359   */\n      add\n        /* \"#utility.yul\":2308:2369   */\n      tag_168\n      jump\t// in\n    tag_195:\n        /* \"#utility.yul\":2298:2369   */\n      swap2\n      pop\n        /* \"#utility.yul\":2253:2379   */\n      pop\n        /* \"#utility.yul\":1571:2386   */\n      swap3\n      pop\n      swap3\n      pop\n      swap3\n      jump\t// out\n        /* \"#utility.yul\":2392:2721   */\n    tag_28:\n        /* \"#utility.yul\":2451:2457   */\n      0x00\n        /* \"#utility.yul\":2500:2502   */\n      0x20\n        /* \"#utility.yul\":2488:2497   */\n      dup3\n        /* \"#utility.yul\":2479:2486   */\n      dup5\n        /* \"#utility.yul\":2475:2498   */\n      sub\n        /* \"#utility.yul\":2471:2503   */\n      slt\n        /* \"#utility.yul\":2468:2587   */\n      iszero\n      tag_197\n      jumpi\n        /* \"#utility.yul\":2506:2585   */\n      tag_198\n      tag_185\n      jump\t// in\n    tag_198:\n        /* \"#utility.yul\":2468:2587   */\n    tag_197:\n        /* \"#utility.yul\":2626:2627   */\n      0x00\n        /* \"#utility.yul\":2651:2704   */\n      tag_199\n        /* \"#utility.yul\":2696:2703   */\n      dup5\n        /* \"#utility.yul\":2687:2693   */\n      dup3\n        /* \"#utility.yul\":2676:2685   */\n      dup6\n        /* \"#utility.yul\":2672:2694   */\n      add\n        /* \"#utility.yul\":2651:2704   */\n      tag_178\n      jump\t// in\n    tag_199:\n        /* \"#utility.yul\":2641:2704   */\n      swap2\n      pop\n        /* \"#utility.yul\":2597:2714   */\n      pop\n        /* \"#utility.yul\":2392:2721   */\n      swap3\n      swap2\n      pop\n      pop\n      jump\t// out\n        /* \"#utility.yul\":2727:2869   */\n    tag_200:\n        /* \"#utility.yul\":2830:2862   */\n      tag_202\n        /* \"#utility.yul\":2856:2861   */\n      dup2\n        /* \"#utility.yul\":2830:2862   */\n      tag_203\n      jump\t// in\n    tag_202:\n        /* \"#utility.yul\":2825:2828   */\n      dup3\n        /* \"#utility.yul\":2818:2863   */\n      mstore\n        /* \"#utility.yul\":2727:2869   */\n      pop\n      pop\n      jump\t// out\n        /* \"#utility.yul\":2875:2993   */\n    tag_204:\n        /* \"#utility.yul\":2962:2986   */\n      tag_206\n        /* \"#utility.yul\":2980:2985   */\n      dup2\n        /* \"#utility.yul\":2962:2986   */\n      tag_207\n      jump\t// in\n    tag_206:\n        /* \"#utility.yul\":2957:2960   */\n      dup3\n        /* \"#utility.yul\":2950:2987   */\n      mstore\n        /* \"#utility.yul\":2875:2993   */\n      pop\n      pop\n      jump\t// out\n        /* \"#utility.yul\":2999:3108   */\n    tag_208:\n        /* \"#utility.yul\":3080:3101   */\n      tag_210\n        /* \"#utility.yul\":3095:3100   */\n      dup2\n        /* \"#utility.yul\":3080:3101   */\n      tag_211\n      jump\t// in\n    tag_210:\n        /* \"#utility.yul\":3075:3078   */\n      dup3\n        /* \"#utility.yul\":3068:3102   */\n      mstore\n        /* \"#utility.yul\":2999:3108   */\n      pop\n      pop\n      jump\t// out\n        /* \"#utility.yul\":3114:3478   */\n    tag_212:\n        /* \"#utility.yul\":3202:3205   */\n      0x00\n        /* \"#utility.yul\":3230:3269   */\n      tag_214\n        /* \"#utility.yul\":3263:3268   */\n      dup3\n        /* \"#utility.yul\":3230:3269   */\n      tag_215\n      jump\t// in\n    tag_214:\n        /* \"#utility.yul\":3285:3356   */\n      tag_216\n        /* \"#utility.yul\":3349:3355   */\n      dup2\n        /* \"#utility.yul\":3344:3347   */\n      dup6\n        /* \"#utility.yul\":3285:3356   */\n      tag_217\n      jump\t// in\n    tag_216:\n        /* \"#utility.yul\":3278:3356   */\n      swap4\n      pop\n        /* \"#utility.yul\":3365:3417   */\n      tag_218\n        /* \"#utility.yul\":3410:3416   */\n      dup2\n        /* \"#utility.yul\":3405:3408   */\n      dup6\n        /* \"#utility.yul\":3398:3402   */\n      0x20\n        /* \"#utility.yul\":3391:3396   */\n      dup7\n        /* \"#utility.yul\":3387:3403   */\n      add\n        /* \"#utility.yul\":3365:3417   */\n      tag_219\n      jump\t// in\n    tag_218:\n        /* \"#utility.yul\":3442:3471   */\n      tag_220\n        /* \"#utility.yul\":3464:3470   */\n      dup2\n        /* \"#utility.yul\":3442:3471   */\n      tag_221\n      jump\t// in\n    tag_220:\n        /* \"#utility.yul\":3437:3440   */\n      dup5\n        /* \"#utility.yul\":3433:3472   */\n      add\n        /* \"#utility.yul\":3426:3472   */\n      swap2\n      pop\n        /* \"#utility.yul\":3206:3478   */\n      pop\n        /* \"#utility.yul\":3114:3478   */\n      swap3\n      swap2\n      pop\n      pop\n      jump\t// out\n        /* \"#utility.yul\":3484:3850   */\n    tag_222:\n        /* \"#utility.yul\":3626:3629   */\n      0x00\n        /* \"#utility.yul\":3647:3714   */\n      tag_224\n        /* \"#utility.yul\":3711:3713   */\n      0x21\n        /* \"#utility.yul\":3706:3709   */\n      dup4\n        /* \"#utility.yul\":3647:3714   */\n      tag_217\n      jump\t// in\n    tag_224:\n        /* \"#utility.yul\":3640:3714   */\n      swap2\n      pop\n        /* \"#utility.yul\":3723:3816   */\n      tag_225\n        /* \"#utility.yul\":3812:3815   */\n      dup3\n        /* \"#utility.yul\":3723:3816   */\n      tag_226\n      jump\t// in\n    tag_225:\n        /* \"#utility.yul\":3841:3843   */\n      0x40\n        /* \"#utility.yul\":3836:3839   */\n      dup3\n        /* \"#utility.yul\":3832:3844   */\n      add\n        /* \"#utility.yul\":3825:3844   */\n      swap1\n      pop\n        /* \"#utility.yul\":3484:3850   */\n      swap2\n      swap1\n      pop\n      jump\t// out\n        /* \"#utility.yul\":3856:4222   */\n    tag_227:\n        /* \"#utility.yul\":3998:4001   */\n      0x00\n        /* \"#utility.yul\":4019:4086   */\n      tag_229\n        /* \"#utility.yul\":4083:4085   */\n      0x2c\n        /* \"#utility.yul\":4078:4081   */\n      dup4\n        /* \"#utility.yul\":4019:4086   */\n      tag_217\n      jump\t// in\n    tag_229:\n        /* \"#utility.yul\":4012:4086   */\n      swap2\n      pop\n        /* \"#utility.yul\":4095:4188   */\n      tag_230\n        /* \"#utility.yul\":4184:4187   */\n      dup3\n        /* \"#utility.yul\":4095:4188   */\n      tag_231\n      jump\t// in\n    tag_230:\n        /* \"#utility.yul\":4213:4215   */\n      0x40\n        /* \"#utility.yul\":4208:4211   */\n      dup3\n        /* \"#utility.yul\":4204:4216   */\n      add\n        /* \"#utility.yul\":4197:4216   */\n      swap1\n      pop\n        /* \"#utility.yul\":3856:4222   */\n      swap2\n      swap1\n      pop\n      jump\t// out\n        /* \"#utility.yul\":4228:4594   */\n    tag_232:\n        /* \"#utility.yul\":4370:4373   */\n      0x00\n        /* \"#utility.yul\":4391:4458   */\n      tag_234\n        /* \"#utility.yul\":4455:4457   */\n      0x23\n        /* \"#utility.yul\":4450:4453   */\n      dup4\n        /* \"#utility.yul\":4391:4458   */\n      tag_217\n      jump\t// in\n    tag_234:\n        /* \"#utility.yul\":4384:4458   */\n      swap2\n      pop\n        /* \"#utility.yul\":4467:4560   */\n      tag_235\n        /* \"#utility.yul\":4556:4559   */\n      dup3\n        /* \"#utility.yul\":4467:4560   */\n      tag_236\n      jump\t// in\n    tag_235:\n        /* \"#utility.yul\":4585:4587   */\n      0x40\n        /* \"#utility.yul\":4580:4583   */\n      dup3\n        /* \"#utility.yul\":4576:4588   */\n      add\n        /* \"#utility.yul\":4569:4588   */\n      swap1\n      pop\n        /* \"#utility.yul\":4228:4594   */\n      swap2\n      swap1\n      pop\n      jump\t// out\n        /* \"#utility.yul\":4600:4966   */\n    tag_237:\n        /* \"#utility.yul\":4742:4745   */\n      0x00\n        /* \"#utility.yul\":4763:4830   */\n      tag_239\n        /* \"#utility.yul\":4827:4829   */\n      0x23\n        /* \"#utility.yul\":4822:4825   */\n      dup4\n        /* \"#utility.yul\":4763:4830   */\n      tag_217\n      jump\t// in\n    tag_239:\n        /* \"#utility.yul\":4756:4830   */\n      swap2\n      pop\n        /* \"#utility.yul\":4839:4932   */\n      tag_240\n        /* \"#utility.yul\":4928:4931   */\n      dup3\n        /* \"#utility.yul\":4839:4932   */\n      tag_241\n      jump\t// in\n    tag_240:\n        /* \"#utility.yul\":4957:4959   */\n      0x40\n        /* \"#utility.yul\":4952:4955   */\n      dup3\n        /* \"#utility.yul\":4948:4960   */\n      add\n        /* \"#utility.yul\":4941:4960   */\n      swap1\n      pop\n        /* \"#utility.yul\":4600:4966   */\n      swap2\n      swap1\n      pop\n      jump\t// out\n        /* \"#utility.yul\":4972:5338   */\n    tag_242:\n        /* \"#utility.yul\":5114:5117   */\n      0x00\n        /* \"#utility.yul\":5135:5202   */\n      tag_244\n        /* \"#utility.yul\":5199:5201   */\n      0x2e\n        /* \"#utility.yul\":5194:5197   */\n      dup4\n        /* \"#utility.yul\":5135:5202   */\n      tag_217\n      jump\t// in\n    tag_244:\n        /* \"#utility.yul\":5128:5202   */\n      swap2\n      pop\n        /* \"#utility.yul\":5211:5304   */\n      tag_245\n        /* \"#utility.yul\":5300:5303   */\n      dup3\n        /* \"#utility.yul\":5211:5304   */\n      tag_246\n      jump\t// in\n    tag_245:\n        /* \"#utility.yul\":5329:5331   */\n      0x40\n        /* \"#utility.yul\":5324:5327   */\n      dup3\n        /* \"#utility.yul\":5320:5332   */\n      add\n        /* \"#utility.yul\":5313:5332   */\n      swap1\n      pop\n        /* \"#utility.yul\":4972:5338   */\n      swap2\n      swap1\n      pop\n      jump\t// out\n        /* \"#utility.yul\":5344:5710   */\n    tag_247:\n        /* \"#utility.yul\":5486:5489   */\n      0x00\n        /* \"#utility.yul\":5507:5574   */\n      tag_249\n        /* \"#utility.yul\":5571:5573   */\n      0x26\n        /* \"#utility.yul\":5566:5569   */\n      dup4\n        /* \"#utility.yul\":5507:5574   */\n      tag_217\n      jump\t// in\n    tag_249:\n        /* \"#utility.yul\":5500:5574   */\n      swap2\n      pop\n        /* \"#utility.yul\":5583:5676   */\n      tag_250\n        /* \"#utility.yul\":5672:5675   */\n      dup3\n        /* \"#utility.yul\":5583:5676   */\n      tag_251\n      jump\t// in\n    tag_250:\n        /* \"#utility.yul\":5701:5703   */\n      0x40\n        /* \"#utility.yul\":5696:5699   */\n      dup3\n        /* \"#utility.yul\":5692:5704   */\n      add\n        /* \"#utility.yul\":5685:5704   */\n      swap1\n      pop\n        /* \"#utility.yul\":5344:5710   */\n      swap2\n      swap1\n      pop\n      jump\t// out\n        /* \"#utility.yul\":5716:5834   */\n    tag_252:\n        /* \"#utility.yul\":5803:5827   */\n      tag_254\n        /* \"#utility.yul\":5821:5826   */\n      dup2\n        /* \"#utility.yul\":5803:5827   */\n      tag_255\n      jump\t// in\n    tag_254:\n        /* \"#utility.yul\":5798:5801   */\n      dup3\n        /* \"#utility.yul\":5791:5828   */\n      mstore\n        /* \"#utility.yul\":5716:5834   */\n      pop\n      pop\n      jump\t// out\n        /* \"#utility.yul\":5840:6062   */\n    tag_87:\n        /* \"#utility.yul\":5933:5937   */\n      0x00\n        /* \"#utility.yul\":5971:5973   */\n      0x20\n        /* \"#utility.yul\":5960:5969   */\n      dup3\n        /* \"#utility.yul\":5956:5974   */\n      add\n        /* \"#utility.yul\":5948:5974   */\n      swap1\n      pop\n        /* \"#utility.yul\":5984:6055   */\n      tag_257\n        /* \"#utility.yul\":6052:6053   */\n      0x00\n        /* \"#utility.yul\":6041:6050   */\n      dup4\n        /* \"#utility.yul\":6037:6054   */\n      add\n        /* \"#utility.yul\":6028:6034   */\n      dup5\n        /* \"#utility.yul\":5984:6055   */\n      tag_204\n      jump\t// in\n    tag_257:\n        /* \"#utility.yul\":5840:6062   */\n      swap3\n      swap2\n      pop\n      pop\n      jump\t// out\n        /* \"#utility.yul\":6068:6954   */\n    tag_82:\n        /* \"#utility.yul\":6331:6335   */\n      0x00\n        /* \"#utility.yul\":6369:6372   */\n      0xc0\n        /* \"#utility.yul\":6358:6367   */\n      dup3\n        /* \"#utility.yul\":6354:6373   */\n      add\n        /* \"#utility.yul\":6346:6373   */\n      swap1\n      pop\n        /* \"#utility.yul\":6419:6428   */\n      dup2\n        /* \"#utility.yul\":6413:6417   */\n      dup2\n        /* \"#utility.yul\":6409:6429   */\n      sub\n        /* \"#utility.yul\":6405:6406   */\n      0x00\n        /* \"#utility.yul\":6394:6403   */\n      dup4\n        /* \"#utility.yul\":6390:6407   */\n      add\n        /* \"#utility.yul\":6383:6430   */\n      mstore\n        /* \"#utility.yul\":6447:6525   */\n      tag_259\n        /* \"#utility.yul\":6520:6524   */\n      dup2\n        /* \"#utility.yul\":6511:6517   */\n      dup10\n        /* \"#utility.yul\":6447:6525   */\n      tag_212\n      jump\t// in\n    tag_259:\n        /* \"#utility.yul\":6439:6525   */\n      swap1\n      pop\n        /* \"#utility.yul\":6535:6607   */\n      tag_260\n        /* \"#utility.yul\":6603:6605   */\n      0x20\n        /* \"#utility.yul\":6592:6601   */\n      dup4\n        /* \"#utility.yul\":6588:6606   */\n      add\n        /* \"#utility.yul\":6579:6585   */\n      dup9\n        /* \"#utility.yul\":6535:6607   */\n      tag_252\n      jump\t// in\n    tag_260:\n        /* \"#utility.yul\":6617:6705   */\n      tag_261\n        /* \"#utility.yul\":6701:6703   */\n      0x40\n        /* \"#utility.yul\":6690:6699   */\n      dup4\n        /* \"#utility.yul\":6686:6704   */\n      add\n        /* \"#utility.yul\":6677:6683   */\n      dup8\n        /* \"#utility.yul\":6617:6705   */\n      tag_200\n      jump\t// in\n    tag_261:\n        /* \"#utility.yul\":6715:6787   */\n      tag_262\n        /* \"#utility.yul\":6783:6785   */\n      0x60\n        /* \"#utility.yul\":6772:6781   */\n      dup4\n        /* \"#utility.yul\":6768:6786   */\n      add\n        /* \"#utility.yul\":6759:6765   */\n      dup7\n        /* \"#utility.yul\":6715:6787   */\n      tag_252\n      jump\t// in\n    tag_262:\n        /* \"#utility.yul\":6797:6870   */\n      tag_263\n        /* \"#utility.yul\":6865:6868   */\n      0x80\n        /* \"#utility.yul\":6854:6863   */\n      dup4\n        /* \"#utility.yul\":6850:6869   */\n      add\n        /* \"#utility.yul\":6841:6847   */\n      dup6\n        /* \"#utility.yul\":6797:6870   */\n      tag_252\n      jump\t// in\n    tag_263:\n        /* \"#utility.yul\":6880:6947   */\n      tag_264\n        /* \"#utility.yul\":6942:6945   */\n      0xa0\n        /* \"#utility.yul\":6931:6940   */\n      dup4\n        /* \"#utility.yul\":6927:6946   */\n      add\n        /* \"#utility.yul\":6918:6924   */\n      dup5\n        /* \"#utility.yul\":6880:6947   */\n      tag_208\n      jump\t// in\n    tag_264:\n        /* \"#utility.yul\":6068:6954   */\n      swap8\n      swap7\n      pop\n      pop\n      pop\n      pop\n      pop\n      pop\n      pop\n      jump\t// out\n        /* \"#utility.yul\":6960:7379   */\n    tag_94:\n        /* \"#utility.yul\":7126:7130   */\n      0x00\n        /* \"#utility.yul\":7164:7166   */\n      0x20\n        /* \"#utility.yul\":7153:7162   */\n      dup3\n        /* \"#utility.yul\":7149:7167   */\n      add\n        /* \"#utility.yul\":7141:7167   */\n      swap1\n      pop\n        /* \"#utility.yul\":7213:7222   */\n      dup2\n        /* \"#utility.yul\":7207:7211   */\n      dup2\n        /* \"#utility.yul\":7203:7223   */\n      sub\n        /* \"#utility.yul\":7199:7200   */\n      0x00\n        /* \"#utility.yul\":7188:7197   */\n      dup4\n        /* \"#utility.yul\":7184:7201   */\n      add\n        /* \"#utility.yul\":7177:7224   */\n      mstore\n        /* \"#utility.yul\":7241:7372   */\n      tag_266\n        /* \"#utility.yul\":7367:7371   */\n      dup2\n        /* \"#utility.yul\":7241:7372   */\n      tag_222\n      jump\t// in\n    tag_266:\n        /* \"#utility.yul\":7233:7372   */\n      swap1\n      pop\n        /* \"#utility.yul\":6960:7379   */\n      swap2\n      swap1\n      pop\n      jump\t// out\n        /* \"#utility.yul\":7385:7804   */\n    tag_107:\n        /* \"#utility.yul\":7551:7555   */\n      0x00\n        /* \"#utility.yul\":7589:7591   */\n      0x20\n        /* \"#utility.yul\":7578:7587   */\n      dup3\n        /* \"#utility.yul\":7574:7592   */\n      add\n        /* \"#utility.yul\":7566:7592   */\n      swap1\n      pop\n        /* \"#utility.yul\":7638:7647   */\n      dup2\n        /* \"#utility.yul\":7632:7636   */\n      dup2\n        /* \"#utility.yul\":7628:7648   */\n      sub\n        /* \"#utility.yul\":7624:7625   */\n      0x00\n        /* \"#utility.yul\":7613:7622   */\n      dup4\n        /* \"#utility.yul\":7609:7626   */\n      add\n        /* \"#utility.yul\":7602:7649   */\n      mstore\n        /* \"#utility.yul\":7666:7797   */\n      tag_268\n        /* \"#utility.yul\":7792:7796   */\n      dup2\n        /* \"#utility.yul\":7666:7797   */\n      tag_227\n      jump\t// in\n    tag_268:\n        /* \"#utility.yul\":7658:7797   */\n      swap1\n      pop\n        /* \"#utility.yul\":7385:7804   */\n      swap2\n      swap1\n      pop\n      jump\t// out\n        /* \"#utility.yul\":7810:8229   */\n    tag_133:\n        /* \"#utility.yul\":7976:7980   */\n      0x00\n        /* \"#utility.yul\":8014:8016   */\n      0x20\n        /* \"#utility.yul\":8003:8012   */\n      dup3\n        /* \"#utility.yul\":7999:8017   */\n      add\n        /* \"#utility.yul\":7991:8017   */\n      swap1\n      pop\n        /* \"#utility.yul\":8063:8072   */\n      dup2\n        /* \"#utility.yul\":8057:8061   */\n      dup2\n        /* \"#utility.yul\":8053:8073   */\n      sub\n        /* \"#utility.yul\":8049:8050   */\n      0x00\n        /* \"#utility.yul\":8038:8047   */\n      dup4\n        /* \"#utility.yul\":8034:8051   */\n      add\n        /* \"#utility.yul\":8027:8074   */\n      mstore\n        /* \"#utility.yul\":8091:8222   */\n      tag_270\n        /* \"#utility.yul\":8217:8221   */\n      dup2\n        /* \"#utility.yul\":8091:8222   */\n      tag_232\n      jump\t// in\n    tag_270:\n        /* \"#utility.yul\":8083:8222   */\n      swap1\n      pop\n        /* \"#utility.yul\":7810:8229   */\n      swap2\n      swap1\n      pop\n      jump\t// out\n        /* \"#utility.yul\":8235:8654   */\n    tag_129:\n        /* \"#utility.yul\":8401:8405   */\n      0x00\n        /* \"#utility.yul\":8439:8441   */\n      0x20\n        /* \"#utility.yul\":8428:8437   */\n      dup3\n        /* \"#utility.yul\":8424:8442   */\n      add\n        /* \"#utility.yul\":8416:8442   */\n      swap1\n      pop\n        /* \"#utility.yul\":8488:8497   */\n      dup2\n        /* \"#utility.yul\":8482:8486   */\n      dup2\n        /* \"#utility.yul\":8478:8498   */\n      sub\n        /* \"#utility.yul\":8474:8475   */\n      0x00\n        /* \"#utility.yul\":8463:8472   */\n      dup4\n        /* \"#utility.yul\":8459:8476   */\n      add\n        /* \"#utility.yul\":8452:8499   */\n      mstore\n        /* \"#utility.yul\":8516:8647   */\n      tag_272\n        /* \"#utility.yul\":8642:8646   */\n      dup2\n        /* \"#utility.yul\":8516:8647   */\n      tag_237\n      jump\t// in\n    tag_272:\n        /* \"#utility.yul\":8508:8647   */\n      swap1\n      pop\n        /* \"#utility.yul\":8235:8654   */\n      swap2\n      swap1\n      pop\n      jump\t// out\n        /* \"#utility.yul\":8660:9079   */\n    tag_91:\n        /* \"#utility.yul\":8826:8830   */\n      0x00\n        /* \"#utility.yul\":8864:8866   */\n      0x20\n        /* \"#utility.yul\":8853:8862   */\n      dup3\n        /* \"#utility.yul\":8849:8867   */\n      add\n        /* \"#utility.yul\":8841:8867   */\n      swap1\n      pop\n        /* \"#utility.yul\":8913:8922   */\n      dup2\n        /* \"#utility.yul\":8907:8911   */\n      dup2\n        /* \"#utility.yul\":8903:8923   */\n      sub\n        /* \"#utility.yul\":8899:8900   */\n      0x00\n        /* \"#utility.yul\":8888:8897   */\n      dup4\n        /* \"#utility.yul\":8884:8901   */\n      add\n        /* \"#utility.yul\":8877:8924   */\n      mstore\n        /* \"#utility.yul\":8941:9072   */\n      tag_274\n        /* \"#utility.yul\":9067:9071   */\n      dup2\n        /* \"#utility.yul\":8941:9072   */\n      tag_242\n      jump\t// in\n    tag_274:\n        /* \"#utility.yul\":8933:9072   */\n      swap1\n      pop\n        /* \"#utility.yul\":8660:9079   */\n      swap2\n      swap1\n      pop\n      jump\t// out\n        /* \"#utility.yul\":9085:9504   */\n    tag_97:\n        /* \"#utility.yul\":9251:9255   */\n      0x00\n        /* \"#utility.yul\":9289:9291   */\n      0x20\n        /* \"#utility.yul\":9278:9287   */\n      dup3\n        /* \"#utility.yul\":9274:9292   */\n      add\n        /* \"#utility.yul\":9266:9292   */\n      swap1\n      pop\n        /* \"#utility.yul\":9338:9347   */\n      dup2\n        /* \"#utility.yul\":9332:9336   */\n      dup2\n        /* \"#utility.yul\":9328:9348   */\n      sub\n        /* \"#utility.yul\":9324:9325   */\n      0x00\n        /* \"#utility.yul\":9313:9322   */\n      dup4\n        /* \"#utility.yul\":9309:9326   */\n      add\n        /* \"#utility.yul\":9302:9349   */\n      mstore\n        /* \"#utility.yul\":9366:9497   */\n      tag_276\n        /* \"#utility.yul\":9492:9496   */\n      dup2\n        /* \"#utility.yul\":9366:9497   */\n      tag_247\n      jump\t// in\n    tag_276:\n        /* \"#utility.yul\":9358:9497   */\n      swap1\n      pop\n        /* \"#utility.yul\":9085:9504   */\n      swap2\n      swap1\n      pop\n      jump\t// out\n        /* \"#utility.yul\":9510:9732   */\n    tag_34:\n        /* \"#utility.yul\":9603:9607   */\n      0x00\n        /* \"#utility.yul\":9641:9643   */\n      0x20\n        /* \"#utility.yul\":9630:9639   */\n      dup3\n        /* \"#utility.yul\":9626:9644   */\n      add\n        /* \"#utility.yul\":9618:9644   */\n      swap1\n      pop\n        /* \"#utility.yul\":9654:9725   */\n      tag_278\n        /* \"#utility.yul\":9722:9723   */\n      0x00\n        /* \"#utility.yul\":9711:9720   */\n      dup4\n        /* \"#utility.yul\":9707:9724   */\n      add\n        /* \"#utility.yul\":9698:9704   */\n      dup5\n        /* \"#utility.yul\":9654:9725   */\n      tag_252\n      jump\t// in\n    tag_278:\n        /* \"#utility.yul\":9510:9732   */\n      swap3\n      swap2\n      pop\n      pop\n      jump\t// out\n        /* \"#utility.yul\":9738:9867   */\n    tag_158:\n        /* \"#utility.yul\":9772:9778   */\n      0x00\n        /* \"#utility.yul\":9799:9819   */\n      tag_280\n      tag_281\n      jump\t// in\n    tag_280:\n        /* \"#utility.yul\":9789:9819   */\n      swap1\n      pop\n        /* \"#utility.yul\":9828:9861   */\n      tag_282\n        /* \"#utility.yul\":9856:9860   */\n      dup3\n        /* \"#utility.yul\":9848:9854   */\n      dup3\n        /* \"#utility.yul\":9828:9861   */\n      tag_283\n      jump\t// in\n    tag_282:\n        /* \"#utility.yul\":9738:9867   */\n      swap2\n      swap1\n      pop\n      jump\t// out\n        /* \"#utility.yul\":9873:9948   */\n    tag_281:\n        /* \"#utility.yul\":9906:9912   */\n      0x00\n        /* \"#utility.yul\":9939:9941   */\n      0x40\n        /* \"#utility.yul\":9933:9942   */\n      mload\n        /* \"#utility.yul\":9923:9942   */\n      swap1\n      pop\n        /* \"#utility.yul\":9873:9948   */\n      swap1\n      jump\t// out\n        /* \"#utility.yul\":9954:10262   */\n    tag_157:\n        /* \"#utility.yul\":10016:10020   */\n      0x00\n        /* \"#utility.yul\":10106:10124   */\n      0xffffffffffffffff\n        /* \"#utility.yul\":10098:10104   */\n      dup3\n        /* \"#utility.yul\":10095:10125   */\n      gt\n        /* \"#utility.yul\":10092:10148   */\n      iszero\n      tag_286\n      jumpi\n        /* \"#utility.yul\":10128:10146   */\n      tag_287\n      tag_288\n      jump\t// in\n    tag_287:\n        /* \"#utility.yul\":10092:10148   */\n    tag_286:\n        /* \"#utility.yul\":10166:10195   */\n      tag_289\n        /* \"#utility.yul\":10188:10194   */\n      dup3\n        /* \"#utility.yul\":10166:10195   */\n      tag_221\n      jump\t// in\n    tag_289:\n        /* \"#utility.yul\":10158:10195   */\n      swap1\n      pop\n        /* \"#utility.yul\":10250:10254   */\n      0x20\n        /* \"#utility.yul\":10244:10248   */\n      dup2\n        /* \"#utility.yul\":10240:10255   */\n      add\n        /* \"#utility.yul\":10232:10255   */\n      swap1\n      pop\n        /* \"#utility.yul\":9954:10262   */\n      swap2\n      swap1\n      pop\n      jump\t// out\n        /* \"#utility.yul\":10268:10367   */\n    tag_215:\n        /* \"#utility.yul\":10320:10326   */\n      0x00\n        /* \"#utility.yul\":10354:10359   */\n      dup2\n        /* \"#utility.yul\":10348:10360   */\n      mload\n        /* \"#utility.yul\":10338:10360   */\n      swap1\n      pop\n        /* \"#utility.yul\":10268:10367   */\n      swap2\n      swap1\n      pop\n      jump\t// out\n        /* \"#utility.yul\":10373:10542   */\n    tag_217:\n        /* \"#utility.yul\":10457:10468   */\n      0x00\n        /* \"#utility.yul\":10491:10497   */\n      dup3\n        /* \"#utility.yul\":10486:10489   */\n      dup3\n        /* \"#utility.yul\":10479:10498   */\n      mstore\n        /* \"#utility.yul\":10531:10535   */\n      0x20\n        /* \"#utility.yul\":10526:10529   */\n      dup3\n        /* \"#utility.yul\":10522:10536   */\n      add\n        /* \"#utility.yul\":10507:10536   */\n      swap1\n      pop\n        /* \"#utility.yul\":10373:10542   */\n      swap3\n      swap2\n      pop\n      pop\n      jump\t// out\n        /* \"#utility.yul\":10548:10853   */\n    tag_102:\n        /* \"#utility.yul\":10588:10591   */\n      0x00\n        /* \"#utility.yul\":10607:10627   */\n      tag_293\n        /* \"#utility.yul\":10625:10626   */\n      dup3\n        /* \"#utility.yul\":10607:10627   */\n      tag_255\n      jump\t// in\n    tag_293:\n        /* \"#utility.yul\":10602:10627   */\n      swap2\n      pop\n        /* \"#utility.yul\":10641:10661   */\n      tag_294\n        /* \"#utility.yul\":10659:10660   */\n      dup4\n        /* \"#utility.yul\":10641:10661   */\n      tag_255\n      jump\t// in\n    tag_294:\n        /* \"#utility.yul\":10636:10661   */\n      swap3\n      pop\n        /* \"#utility.yul\":10795:10796   */\n      dup3\n        /* \"#utility.yul\":10727:10793   */\n      0xffffffffffffffffffffffffffffffffffffffffffffffffffffffffffffffff\n        /* \"#utility.yul\":10723:10797   */\n      sub\n        /* \"#utility.yul\":10720:10721   */\n      dup3\n        /* \"#utility.yul\":10717:10798   */\n      gt\n        /* \"#utility.yul\":10714:10821   */\n      iszero\n      tag_295\n      jumpi\n        /* \"#utility.yul\":10801:10819   */\n      tag_296\n      tag_297\n      jump\t// in\n    tag_296:\n        /* \"#utility.yul\":10714:10821   */\n    tag_295:\n        /* \"#utility.yul\":10845:10846   */\n      dup3\n        /* \"#utility.yul\":10842:10843   */\n      dup3\n        /* \"#utility.yul\":10838:10847   */\n      add\n        /* \"#utility.yul\":10831:10847   */\n      swap1\n      pop\n        /* \"#utility.yul\":10548:10853   */\n      swap3\n      swap2\n      pop\n      pop\n      jump\t// out\n        /* \"#utility.yul\":10859:11044   */\n    tag_115:\n        /* \"#utility.yul\":10899:10900   */\n      0x00\n        /* \"#utility.yul\":10916:10936   */\n      tag_299\n        /* \"#utility.yul\":10934:10935   */\n      dup3\n        /* \"#utility.yul\":10916:10936   */\n      tag_255\n      jump\t// in\n    tag_299:\n        /* \"#utility.yul\":10911:10936   */\n      swap2\n      pop\n        /* \"#utility.yul\":10950:10970   */\n      tag_300\n        /* \"#utility.yul\":10968:10969   */\n      dup4\n        /* \"#utility.yul\":10950:10970   */\n      tag_255\n      jump\t// in\n    tag_300:\n        /* \"#utility.yul\":10945:10970   */\n      swap3\n      pop\n        /* \"#utility.yul\":10989:10990   */\n      dup3\n        /* \"#utility.yul\":10979:11014   */\n      tag_301\n      jumpi\n        /* \"#utility.yul\":10994:11012   */\n      tag_302\n      tag_303\n      jump\t// in\n    tag_302:\n        /* \"#utility.yul\":10979:11014   */\n    tag_301:\n        /* \"#utility.yul\":11036:11037   */\n      dup3\n        /* \"#utility.yul\":11033:11034   */\n      dup3\n        /* \"#utility.yul\":11029:11038   */\n      div\n        /* \"#utility.yul\":11024:11038   */\n      swap1\n      pop\n        /* \"#utility.yul\":10859:11044   */\n      swap3\n      swap2\n      pop\n      pop\n      jump\t// out\n        /* \"#utility.yul\":11050:11146   */\n    tag_207:\n        /* \"#utility.yul\":11087:11094   */\n      0x00\n        /* \"#utility.yul\":11116:11140   */\n      tag_305\n        /* \"#utility.yul\":11134:11139   */\n      dup3\n        /* \"#utility.yul\":11116:11140   */\n      tag_306\n      jump\t// in\n    tag_305:\n        /* \"#utility.yul\":11105:11140   */\n      swap1\n      pop\n        /* \"#utility.yul\":11050:11146   */\n      swap2\n      swap1\n      pop\n      jump\t// out\n        /* \"#utility.yul\":11152:11256   */\n    tag_203:\n        /* \"#utility.yul\":11197:11204   */\n      0x00\n        /* \"#utility.yul\":11226:11250   */\n      tag_308\n        /* \"#utility.yul\":11244:11249   */\n      dup3\n        /* \"#utility.yul\":11226:11250   */\n      tag_306\n      jump\t// in\n    tag_308:\n        /* \"#utility.yul\":11215:11250   */\n      swap1\n      pop\n        /* \"#utility.yul\":11152:11256   */\n      swap2\n      swap1\n      pop\n      jump\t// out\n        /* \"#utility.yul\":11262:11352   */\n    tag_211:\n        /* \"#utility.yul\":11296:11303   */\n      0x00\n        /* \"#utility.yul\":11339:11344   */\n      dup2\n        /* \"#utility.yul\":11332:11345   */\n      iszero\n        /* \"#utility.yul\":11325:11346   */\n      iszero\n        /* \"#utility.yul\":11314:11346   */\n      swap1\n      pop\n        /* \"#utility.yul\":11262:11352   */\n      swap2\n      swap1\n      pop\n      jump\t// out\n        /* \"#utility.yul\":11358:11484   */\n    tag_306:\n        /* \"#utility.yul\":11395:11402   */\n      0x00\n        /* \"#utility.yul\":11435:11477   */\n      0xffffffffffffffffffffffffffffffffffffffff\n        /* \"#utility.yul\":11428:11433   */\n      dup3\n        /* \"#utility.yul\":11424:11478   */\n      and\n        /* \"#utility.yul\":11413:11478   */\n      swap1\n      pop\n        /* \"#utility.yul\":11358:11484   */\n      swap2\n      swap1\n      pop\n      jump\t// out\n        /* \"#utility.yul\":11490:11567   */\n    tag_255:\n        /* \"#utility.yul\":11527:11534   */\n      0x00\n        /* \"#utility.yul\":11556:11561   */\n      dup2\n        /* \"#utility.yul\":11545:11561   */\n      swap1\n      pop\n        /* \"#utility.yul\":11490:11567   */\n      swap2\n      swap1\n      pop\n      jump\t// out\n        /* \"#utility.yul\":11573:11727   */\n    tag_163:\n        /* \"#utility.yul\":11657:11663   */\n      dup3\n        /* \"#utility.yul\":11652:11655   */\n      dup2\n        /* \"#utility.yul\":11647:11650   */\n      dup4\n        /* \"#utility.yul\":11634:11664   */\n      calldatacopy\n        /* \"#utility.yul\":11719:11720   */\n      0x00\n        /* \"#utility.yul\":11710:11716   */\n      dup4\n        /* \"#utility.yul\":11705:11708   */\n      dup4\n        /* \"#utility.yul\":11701:11717   */\n      add\n        /* \"#utility.yul\":11694:11721   */\n      mstore\n        /* \"#utility.yul\":11573:11727   */\n      pop\n      pop\n      pop\n      jump\t// out\n        /* \"#utility.yul\":11733:12040   */\n    tag_219:\n        /* \"#utility.yul\":11801:11802   */\n      0x00\n        /* \"#utility.yul\":11811:11924   */\n    tag_314:\n        /* \"#utility.yul\":11825:11831   */\n      dup4\n        /* \"#utility.yul\":11822:11823   */\n      dup2\n        /* \"#utility.yul\":11819:11832   */\n      lt\n        /* \"#utility.yul\":11811:11924   */\n      iszero\n      tag_316\n      jumpi\n        /* \"#utility.yul\":11910:11911   */\n      dup1\n        /* \"#utility.yul\":11905:11908   */\n      dup3\n        /* \"#utility.yul\":11901:11912   */\n      add\n        /* \"#utility.yul\":11895:11913   */\n      mload\n        /* \"#utility.yul\":11891:11892   */\n      dup2\n        /* \"#utility.yul\":11886:11889   */\n      dup5\n        /* \"#utility.yul\":11882:11893   */\n      add\n        /* \"#utility.yul\":11875:11914   */\n      mstore\n        /* \"#utility.yul\":11847:11849   */\n      0x20\n        /* \"#utility.yul\":11844:11845   */\n      dup2\n        /* \"#utility.yul\":11840:11850   */\n      add\n        /* \"#utility.yul\":11835:11850   */\n      swap1\n      pop\n        /* \"#utility.yul\":11811:11924   */\n      jump(tag_314)\n    tag_316:\n        /* \"#utility.yul\":11942:11948   */\n      dup4\n        /* \"#utility.yul\":11939:11940   */\n      dup2\n        /* \"#utility.yul\":11936:11949   */\n      gt\n        /* \"#utility.yul\":11933:12034   */\n      iszero\n      tag_317\n      jumpi\n        /* \"#utility.yul\":12022:12023   */\n      0x00\n        /* \"#utility.yul\":12013:12019   */\n      dup5\n        /* \"#utility.yul\":12008:12011   */\n      dup5\n        /* \"#utility.yul\":12004:12020   */\n      add\n        /* \"#utility.yul\":11997:12024   */\n      mstore\n        /* \"#utility.yul\":11933:12034   */\n    tag_317:\n        /* \"#utility.yul\":11782:12040   */\n      pop\n        /* \"#utility.yul\":11733:12040   */\n      pop\n      pop\n      pop\n      jump\t// out\n        /* \"#utility.yul\":12046:12366   */\n    tag_137:\n        /* \"#utility.yul\":12090:12096   */\n      0x00\n        /* \"#utility.yul\":12127:12128   */\n      0x02\n        /* \"#utility.yul\":12121:12125   */\n      dup3\n        /* \"#utility.yul\":12117:12129   */\n      div\n        /* \"#utility.yul\":12107:12129   */\n      swap1\n      pop\n        /* \"#utility.yul\":12174:12175   */\n      0x01\n        /* \"#utility.yul\":12168:12172   */\n      dup3\n        /* \"#utility.yul\":12164:12176   */\n      and\n        /* \"#utility.yul\":12195:12213   */\n      dup1\n        /* \"#utility.yul\":12185:12266   */\n      tag_319\n      jumpi\n        /* \"#utility.yul\":12251:12255   */\n      0x7f\n        /* \"#utility.yul\":12243:12249   */\n      dup3\n        /* \"#utility.yul\":12239:12256   */\n      and\n        /* \"#utility.yul\":12229:12256   */\n      swap2\n      pop\n        /* \"#utility.yul\":12185:12266   */\n    tag_319:\n        /* \"#utility.yul\":12313:12315   */\n      0x20\n        /* \"#utility.yul\":12305:12311   */\n      dup3\n        /* \"#utility.yul\":12302:12316   */\n      lt\n        /* \"#utility.yul\":12282:12300   */\n      dup2\n        /* \"#utility.yul\":12279:12317   */\n      eq\n        /* \"#utility.yul\":12276:12360   */\n      iszero\n      tag_320\n      jumpi\n        /* \"#utility.yul\":12332:12350   */\n      tag_321\n      tag_322\n      jump\t// in\n    tag_321:\n        /* \"#utility.yul\":12276:12360   */\n    tag_320:\n        /* \"#utility.yul\":12097:12366   */\n      pop\n        /* \"#utility.yul\":12046:12366   */\n      swap2\n      swap1\n      pop\n      jump\t// out\n        /* \"#utility.yul\":12372:12653   */\n    tag_283:\n        /* \"#utility.yul\":12455:12482   */\n      tag_324\n        /* \"#utility.yul\":12477:12481   */\n      dup3\n        /* \"#utility.yul\":12455:12482   */\n      tag_221\n      jump\t// in\n    tag_324:\n        /* \"#utility.yul\":12447:12453   */\n      dup2\n        /* \"#utility.yul\":12443:12483   */\n      add\n        /* \"#utility.yul\":12585:12591   */\n      dup2\n        /* \"#utility.yul\":12573:12583   */\n      dup2\n        /* \"#utility.yul\":12570:12592   */\n      lt\n        /* \"#utility.yul\":12549:12567   */\n      0xffffffffffffffff\n        /* \"#utility.yul\":12537:12547   */\n      dup3\n        /* \"#utility.yul\":12534:12568   */\n      gt\n        /* \"#utility.yul\":12531:12593   */\n      or\n        /* \"#utility.yul\":12528:12616   */\n      iszero\n      tag_325\n      jumpi\n        /* \"#utility.yul\":12596:12614   */\n      tag_326\n      tag_288\n      jump\t// in\n    tag_326:\n        /* \"#utility.yul\":12528:12616   */\n    tag_325:\n        /* \"#utility.yul\":12636:12646   */\n      dup1\n        /* \"#utility.yul\":12632:12634   */\n      0x40\n        /* \"#utility.yul\":12625:12647   */\n      mstore\n        /* \"#utility.yul\":12415:12653   */\n      pop\n        /* \"#utility.yul\":12372:12653   */\n      pop\n      pop\n      jump\t// out\n        /* \"#utility.yul\":12659:12892   */\n    tag_100:\n        /* \"#utility.yul\":12698:12701   */\n      0x00\n        /* \"#utility.yul\":12721:12745   */\n      tag_328\n        /* \"#utility.yul\":12739:12744   */\n      dup3\n        /* \"#utility.yul\":12721:12745   */\n      tag_255\n      jump\t// in\n    tag_328:\n        /* \"#utility.yul\":12712:12745   */\n      swap2\n      pop\n        /* \"#utility.yul\":12767:12833   */\n      0xffffffffffffffffffffffffffffffffffffffffffffffffffffffffffffffff\n        /* \"#utility.yul\":12760:12765   */\n      dup3\n        /* \"#utility.yul\":12757:12834   */\n      eq\n        /* \"#utility.yul\":12754:12857   */\n      iszero\n      tag_329\n      jumpi\n        /* \"#utility.yul\":12837:12855   */\n      tag_330\n      tag_297\n      jump\t// in\n    tag_330:\n        /* \"#utility.yul\":12754:12857   */\n    tag_329:\n        /* \"#utility.yul\":12884:12885   */\n      0x01\n        /* \"#utility.yul\":12877:12882   */\n      dup3\n        /* \"#utility.yul\":12873:12886   */\n      add\n        /* \"#utility.yul\":12866:12886   */\n      swap1\n      pop\n        /* \"#utility.yul\":12659:12892   */\n      swap2\n      swap1\n      pop\n      jump\t// out\n        /* \"#utility.yul\":12898:13078   */\n    tag_297:\n        /* \"#utility.yul\":12946:13023   */\n      0x4e487b7100000000000000000000000000000000000000000000000000000000\n        /* \"#utility.yul\":12943:12944   */\n      0x00\n        /* \"#utility.yul\":12936:13024   */\n      mstore\n        /* \"#utility.yul\":13043:13047   */\n      0x11\n        /* \"#utility.yul\":13040:13041   */\n      0x04\n        /* \"#utility.yul\":13033:13048   */\n      mstore\n        /* \"#utility.yul\":13067:13071   */\n      0x24\n        /* \"#utility.yul\":13064:13065   */\n      0x00\n        /* \"#utility.yul\":13057:13072   */\n      revert\n        /* \"#utility.yul\":13084:13264   */\n    tag_303:\n        /* \"#utility.yul\":13132:13209   */\n      0x4e487b7100000000000000000000000000000000000000000000000000000000\n        /* \"#utility.yul\":13129:13130   */\n      0x00\n        /* \"#utility.yul\":13122:13210   */\n      mstore\n        /* \"#utility.yul\":13229:13233   */\n      0x12\n        /* \"#utility.yul\":13226:13227   */\n      0x04\n        /* \"#utility.yul\":13219:13234   */\n      mstore\n        /* \"#utility.yul\":13253:13257   */\n      0x24\n        /* \"#utility.yul\":13250:13251   */\n      0x00\n        /* \"#utility.yul\":13243:13258   */\n      revert\n        /* \"#utility.yul\":13270:13450   */\n    tag_322:\n        /* \"#utility.yul\":13318:13395   */\n      0x4e487b7100000000000000000000000000000000000000000000000000000000\n        /* \"#utility.yul\":13315:13316   */\n      0x00\n        /* \"#utility.yul\":13308:13396   */\n      mstore\n        /* \"#utility.yul\":13415:13419   */\n      0x22\n        /* \"#utility.yul\":13412:13413   */\n      0x04\n        /* \"#utility.yul\":13405:13420   */\n      mstore\n        /* \"#utility.yul\":13439:13443   */\n      0x24\n        /* \"#utility.yul\":13436:13437   */\n      0x00\n        /* \"#utility.yul\":13429:13444   */\n      revert\n        /* \"#utility.yul\":13456:13636   */\n    tag_288:\n        /* \"#utility.yul\":13504:13581   */\n      0x4e487b7100000000000000000000000000000000000000000000000000000000\n        /* \"#utility.yul\":13501:13502   */\n      0x00\n        /* \"#utility.yul\":13494:13582   */\n      mstore\n        /* \"#utility.yul\":13601:13605   */\n      0x41\n        /* \"#utility.yul\":13598:13599   */\n      0x04\n        /* \"#utility.yul\":13591:13606   */\n      mstore\n        /* \"#utility.yul\":13625:13629   */\n      0x24\n        /* \"#utility.yul\":13622:13623   */\n      0x00\n        /* \"#utility.yul\":13615:13630   */\n      revert\n        /* \"#utility.yul\":13642:13759   */\n    tag_176:\n        /* \"#utility.yul\":13751:13752   */\n      0x00\n        /* \"#utility.yul\":13748:13749   */\n      dup1\n        /* \"#utility.yul\":13741:13753   */\n      revert\n        /* \"#utility.yul\":13765:13882   */\n    tag_161:\n        /* \"#utility.yul\":13874:13875   */\n      0x00\n        /* \"#utility.yul\":13871:13872   */\n      dup1\n        /* \"#utility.yul\":13864:13876   */\n      revert\n        /* \"#utility.yul\":13888:14005   */\n    tag_192:\n        /* \"#utility.yul\":13997:13998   */\n      0x00\n        /* \"#utility.yul\":13994:13995   */\n      dup1\n        /* \"#utility.yul\":13987:13999   */\n      revert\n        /* \"#utility.yul\":14011:14128   */\n    tag_185:\n        /* \"#utility.yul\":14120:14121   */\n      0x00\n        /* \"#utility.yul\":14117:14118   */\n      dup1\n        /* \"#utility.yul\":14110:14122   */\n      revert\n        /* \"#utility.yul\":14134:14236   */\n    tag_221:\n        /* \"#utility.yul\":14175:14181   */\n      0x00\n        /* \"#utility.yul\":14226:14228   */\n      0x1f\n        /* \"#utility.yul\":14222:14229   */\n      not\n        /* \"#utility.yul\":14217:14219   */\n      0x1f\n        /* \"#utility.yul\":14210:14215   */\n      dup4\n        /* \"#utility.yul\":14206:14220   */\n      add\n        /* \"#utility.yul\":14202:14230   */\n      and\n        /* \"#utility.yul\":14192:14230   */\n      swap1\n      pop\n        /* \"#utility.yul\":14134:14236   */\n      swap2\n      swap1\n      pop\n      jump\t// out\n        /* \"#utility.yul\":14242:14462   */\n    tag_226:\n        /* \"#utility.yul\":14382:14416   */\n      0x476f616c20666f722066756e64696e6720686173206265656e20726561636865\n        /* \"#utility.yul\":14378:14379   */\n      0x00\n        /* \"#utility.yul\":14370:14376   */\n      dup3\n        /* \"#utility.yul\":14366:14380   */\n      add\n        /* \"#utility.yul\":14359:14417   */\n      mstore\n        /* \"#utility.yul\":14451:14454   */\n      0x6400000000000000000000000000000000000000000000000000000000000000\n        /* \"#utility.yul\":14446:14448   */\n      0x20\n        /* \"#utility.yul\":14438:14444   */\n      dup3\n        /* \"#utility.yul\":14434:14449   */\n      add\n        /* \"#utility.yul\":14427:14455   */\n      mstore\n        /* \"#utility.yul\":14242:14462   */\n      pop\n      jump\t// out\n        /* \"#utility.yul\":14468:14699   */\n    tag_231:\n        /* \"#utility.yul\":14608:14642   */\n      0x596f75206d757374206265206120636f6e7472696275746f7220746f20626520\n        /* \"#utility.yul\":14604:14605   */\n      0x00\n        /* \"#utility.yul\":14596:14602   */\n      dup3\n        /* \"#utility.yul\":14592:14606   */\n      add\n        /* \"#utility.yul\":14585:14643   */\n      mstore\n        /* \"#utility.yul\":14677:14691   */\n      0x61626c6520746f20766f74650000000000000000000000000000000000000000\n        /* \"#utility.yul\":14672:14674   */\n      0x20\n        /* \"#utility.yul\":14664:14670   */\n      dup3\n        /* \"#utility.yul\":14660:14675   */\n      add\n        /* \"#utility.yul\":14653:14692   */\n      mstore\n        /* \"#utility.yul\":14468:14699   */\n      pop\n      jump\t// out\n        /* \"#utility.yul\":14705:14927   */\n    tag_236:\n        /* \"#utility.yul\":14845:14879   */\n      0x46756e64696e672074696d65206672616d652069732079657420746f20657870\n        /* \"#utility.yul\":14841:14842   */\n      0x00\n        /* \"#utility.yul\":14833:14839   */\n      dup3\n        /* \"#utility.yul\":14829:14843   */\n      add\n        /* \"#utility.yul\":14822:14880   */\n      mstore\n        /* \"#utility.yul\":14914:14919   */\n      0x6972650000000000000000000000000000000000000000000000000000000000\n        /* \"#utility.yul\":14909:14911   */\n      0x20\n        /* \"#utility.yul\":14901:14907   */\n      dup3\n        /* \"#utility.yul\":14897:14912   */\n      add\n        /* \"#utility.yul\":14890:14920   */\n      mstore\n        /* \"#utility.yul\":14705:14927   */\n      pop\n      jump\t// out\n        /* \"#utility.yul\":14933:15155   */\n    tag_241:\n        /* \"#utility.yul\":15073:15107   */\n      0x596f7520617265206e6f7420616e206578697374696e6720636f6e7472696275\n        /* \"#utility.yul\":15069:15070   */\n      0x00\n        /* \"#utility.yul\":15061:15067   */\n      dup3\n        /* \"#utility.yul\":15057:15071   */\n      add\n        /* \"#utility.yul\":15050:15108   */\n      mstore\n        /* \"#utility.yul\":15142:15147   */\n      0x746f720000000000000000000000000000000000000000000000000000000000\n        /* \"#utility.yul\":15137:15139   */\n      0x20\n        /* \"#utility.yul\":15129:15135   */\n      dup3\n        /* \"#utility.yul\":15125:15140   */\n      add\n        /* \"#utility.yul\":15118:15148   */\n      mstore\n        /* \"#utility.yul\":14933:15155   */\n      pop\n      jump\t// out\n        /* \"#utility.yul\":15161:15394   */\n    tag_246:\n        /* \"#utility.yul\":15301:15335   */\n      0x416d6f756e74206d7573742062652067726561746572207468616e2074686520\n        /* \"#utility.yul\":15297:15298   */\n      0x00\n        /* \"#utility.yul\":15289:15295   */\n      dup3\n        /* \"#utility.yul\":15285:15299   */\n      add\n        /* \"#utility.yul\":15278:15336   */\n      mstore\n        /* \"#utility.yul\":15370:15386   */\n      0x6d696e696d756d20616d6f756e74000000000000000000000000000000000000\n        /* \"#utility.yul\":15365:15367   */\n      0x20\n        /* \"#utility.yul\":15357:15363   */\n      dup3\n        /* \"#utility.yul\":15353:15368   */\n      add\n        /* \"#utility.yul\":15346:15387   */\n      mstore\n        /* \"#utility.yul\":15161:15394   */\n      pop\n      jump\t// out\n        /* \"#utility.yul\":15400:15625   */\n    tag_251:\n        /* \"#utility.yul\":15540:15574   */\n      0x54696d65206672616d652073657420666f722066756e64696e67206861732065\n        /* \"#utility.yul\":15536:15537   */\n      0x00\n        /* \"#utility.yul\":15528:15534   */\n      dup3\n        /* \"#utility.yul\":15524:15538   */\n      add\n        /* \"#utility.yul\":15517:15575   */\n      mstore\n        /* \"#utility.yul\":15609:15617   */\n      0x6c61737065640000000000000000000000000000000000000000000000000000\n        /* \"#utility.yul\":15604:15606   */\n      0x20\n        /* \"#utility.yul\":15596:15602   */\n      dup3\n        /* \"#utility.yul\":15592:15607   */\n      add\n        /* \"#utility.yul\":15585:15618   */\n      mstore\n        /* \"#utility.yul\":15400:15625   */\n      pop\n      jump\t// out\n        /* \"#utility.yul\":15631:15753   */\n    tag_167:\n        /* \"#utility.yul\":15704:15728   */\n      tag_347\n        /* \"#utility.yul\":15722:15727   */\n      dup2\n        /* \"#utility.yul\":15704:15728   */\n      tag_207\n      jump\t// in\n    tag_347:\n        /* \"#utility.yul\":15697:15702   */\n      dup2\n        /* \"#utility.yul\":15694:15729   */\n      eq\n        /* \"#utility.yul\":15684:15747   */\n      tag_348\n      jumpi\n        /* \"#utility.yul\":15743:15744   */\n      0x00\n        /* \"#utility.yul\":15740:15741   */\n      dup1\n        /* \"#utility.yul\":15733:15745   */\n      revert\n        /* \"#utility.yul\":15684:15747   */\n    tag_348:\n        /* \"#utility.yul\":15631:15753   */\n      pop\n      jump\t// out\n        /* \"#utility.yul\":15759:15897   */\n    tag_171:\n        /* \"#utility.yul\":15840:15872   */\n      tag_350\n        /* \"#utility.yul\":15866:15871   */\n      dup2\n        /* \"#utility.yul\":15840:15872   */\n      tag_203\n      jump\t// in\n    tag_350:\n        /* \"#utility.yul\":15833:15838   */\n      dup2\n        /* \"#utility.yul\":15830:15873   */\n      eq\n        /* \"#utility.yul\":15820:15891   */\n      tag_351\n      jumpi\n        /* \"#utility.yul\":15887:15888   */\n      0x00\n        /* \"#utility.yul\":15884:15885   */\n      dup1\n        /* \"#utility.yul\":15877:15889   */\n      revert\n        /* \"#utility.yul\":15820:15891   */\n    tag_351:\n        /* \"#utility.yul\":15759:15897   */\n      pop\n      jump\t// out\n        /* \"#utility.yul\":15903:16025   */\n    tag_181:\n        /* \"#utility.yul\":15976:16000   */\n      tag_353\n        /* \"#utility.yul\":15994:15999   */\n      dup2\n        /* \"#utility.yul\":15976:16000   */\n      tag_255\n      jump\t// in\n    tag_353:\n        /* \"#utility.yul\":15969:15974   */\n      dup2\n        /* \"#utility.yul\":15966:16001   */\n      eq\n        /* \"#utility.yul\":15956:16019   */\n      tag_354\n      jumpi\n        /* \"#utility.yul\":16015:16016   */\n      0x00\n        /* \"#utility.yul\":16012:16013   */\n      dup1\n        /* \"#utility.yul\":16005:16017   */\n      revert\n        /* \"#utility.yul\":15956:16019   */\n    tag_354:\n        /* \"#utility.yul\":15903:16025   */\n      pop\n      jump\t// out\n\n    auxdata: 0xa264697066735822122029f55d66f2eccb06aae0a87f30a32a34fae92c7f10d12e2a3eb40e402f3baad664736f6c63430008070033\n}\n",
				"bytecode": {
					"linkReferences": {},
					"object": "60806040523480156200001157600080fd5b50604051620017aa380380620017aa8339818101604052810190620000379190620000c1565b8160028190555080426200004c919062000108565b60038190555033600160006101000a81548173ffffffffffffffffffffffffffffffffffffffff021916908373ffffffffffffffffffffffffffffffffffffffff160217905550670de0b6b3a76400006004819055505050620001bd565b600081519050620000bb81620001a3565b92915050565b60008060408385031215620000db57620000da6200019e565b5b6000620000eb85828601620000aa565b9250506020620000fe85828601620000aa565b9150509250929050565b6000620001158262000165565b9150620001228362000165565b9250827fffffffffffffffffffffffffffffffffffffffffffffffffffffffffffffffff038211156200015a57620001596200016f565b5b828201905092915050565b6000819050919050565b7f4e487b7100000000000000000000000000000000000000000000000000000000600052601160045260246000fd5b600080fd5b620001ae8162000165565b8114620001ba57600080fd5b50565b6115dd80620001cd6000396000f3fe6080604052600436106100ec5760003560e01c80638a9cfd551161008a578063c1f11b4c11610059578063c1f11b4c146102c4578063d7bb99ba146102ef578063d845a4b3146102f9578063f851a4401461033b576100fb565b80638a9cfd551461022e578063b2d5ae4414610257578063bb0c82981461026e578063bef3a08314610299576100fb565b80631f6d4942116100c65780631f6d49421461017f57806340193883146101bc5780634377cf65146101e75780635114cb5214610212576100fb565b80630121b93f1461010057806312065fe0146101295780631a39d8ef14610154576100fb565b366100fb576100f9610366565b005b600080fd5b34801561010c57600080fd5b5061012760048036038101906101229190610d94565b610505565b005b34801561013557600080fd5b5061013e610674565b60405161014b919061104b565b60405180910390f35b34801561016057600080fd5b5061016961067c565b604051610176919061104b565b60405180910390f35b34801561018b57600080fd5b506101a660048036038101906101a19190610cf8565b610682565b6040516101b3919061104b565b60405180910390f35b3480156101c857600080fd5b506101d161069a565b6040516101de919061104b565b60405180910390f35b3480156101f357600080fd5b506101fc6106a0565b604051610209919061104b565b60405180910390f35b61022c60048036038101906102279190610d94565b6106a6565b005b34801561023a57600080fd5b5061025560048036038101906102509190610d25565b6107ca565b005b34801561026357600080fd5b5061026c6108dd565b005b34801561027a57600080fd5b50610283610a7d565b604051610290919061104b565b60405180910390f35b3480156102a557600080fd5b506102ae610a83565b6040516102bb919061104b565b60405180910390f35b3480156102d057600080fd5b506102d9610a89565b6040516102e6919061104b565b60405180910390f35b6102f7610366565b005b34801561030557600080fd5b50610320600480360381019061031b9190610d94565b610a8f565b60405161033296959493929190610f23565b60405180910390f35b34801561034757600080fd5b50610350610b80565b60405161035d9190610f08565b60405180910390f35b6004543410156103ab576040517f08c379a00000000000000000000000000000000000000000000000000000000081526004016103a29061100b565b60405180910390fd5b600254600554106103f1576040517f08c379a00000000000000000000000000000000000000000000000000000000081526004016103e890610f8b565b60405180910390fd5b6003544210610435576040517f08c379a000000000000000000000000000000000000000000000000000000000815260040161042c9061102b565b60405180910390fd5b60008060003373ffffffffffffffffffffffffffffffffffffffff1673ffffffffffffffffffffffffffffffffffffffff168152602001908152602001600020541415610495576006600081548092919061048f9061125e565b91905055505b346000803373ffffffffffffffffffffffffffffffffffffffff1673ffffffffffffffffffffffffffffffffffffffff16815260200190815260200160002060008282546104e391906110d8565b9250508190555034600560008282546104fc91906110d8565b92505081905550565b60008060003373ffffffffffffffffffffffffffffffffffffffff1673ffffffffffffffffffffffffffffffffffffffff1681526020019081526020016000205411610586576040517f08c379a000000000000000000000000000000000000000000000000000000000815260040161057d90610fab565b60405180910390fd5b6000600860008381526020019081526020016000209050600015158160060160003373ffffffffffffffffffffffffffffffffffffffff1673ffffffffffffffffffffffffffffffffffffffff16815260200190815260200160002060009054906101000a900460ff161515146105fc57600080fd5b60018160060160003373ffffffffffffffffffffffffffffffffffffffff1673ffffffffffffffffffffffffffffffffffffffff16815260200190815260200160002060006101000a81548160ff02191690831515021790555080600401600081548092919061066b9061125e565b91905055505050565b600047905090565b60055481565b60006020528060005260406000206000915090505481565b60025481565b60065481565b600160009054906101000a900473ffffffffffffffffffffffffffffffffffffffff1673ffffffffffffffffffffffffffffffffffffffff163373ffffffffffffffffffffffffffffffffffffffff161461070057600080fd5b60006008600083815260200190815260200160002090506002600654610726919061112e565b81600401541161073557600080fd5b600015158160050160009054906101000a900460ff1615151461075757600080fd5b8060020160009054906101000a900473ffffffffffffffffffffffffffffffffffffffff1673ffffffffffffffffffffffffffffffffffffffff166108fc82600101549081150290604051600060405180830381858888f193505050501580156107c5573d6000803e3d6000fd5b505050565b600160009054906101000a900473ffffffffffffffffffffffffffffffffffffffff1673ffffffffffffffffffffffffffffffffffffffff163373ffffffffffffffffffffffffffffffffffffffff161461082457600080fd5b6000600860006007548152602001908152602001600020905083816000019080519060200190610855929190610ba6565b5082816001018190555060008160050160006101000a81548160ff021916908315150217905550818160020160006101000a81548173ffffffffffffffffffffffffffffffffffffffff021916908373ffffffffffffffffffffffffffffffffffffffff160217905550600760008154809291906108d29061125e565b919050555050505050565b60008060003373ffffffffffffffffffffffffffffffffffffffff1673ffffffffffffffffffffffffffffffffffffffff168152602001908152602001600020541161095e576040517f08c379a000000000000000000000000000000000000000000000000000000000815260040161095590610feb565b60405180910390fd5b60035442101580156109735750600254600554105b6109b2576040517f08c379a00000000000000000000000000000000000000000000000000000000081526004016109a990610fcb565b60405180910390fd5b3373ffffffffffffffffffffffffffffffffffffffff166108fc6000803373ffffffffffffffffffffffffffffffffffffffff1673ffffffffffffffffffffffffffffffffffffffff168152602001908152602001600020549081150290604051600060405180830381858888f19350505050158015610a36573d6000803e3d6000fd5b5060008060003373ffffffffffffffffffffffffffffffffffffffff1673ffffffffffffffffffffffffffffffffffffffff16815260200190815260200160002081905550565b60045481565b60035481565b60075481565b6008602052806000526040600020600091509050806000018054610ab2906111fb565b80601f0160208091040260200160405190810160405280929190818152602001828054610ade906111fb565b8015610b2b5780601f10610b0057610100808354040283529160200191610b2b565b820191906000526020600020905b815481529060010190602001808311610b0e57829003601f168201915b5050505050908060010154908060020160009054906101000a900473ffffffffffffffffffffffffffffffffffffffff16908060030154908060040154908060050160009054906101000a900460ff16905086565b600160009054906101000a900473ffffffffffffffffffffffffffffffffffffffff1681565b828054610bb2906111fb565b90600052602060002090601f016020900481019282610bd45760008555610c1b565b82601f10610bed57805160ff1916838001178555610c1b565b82800160010185558215610c1b579182015b82811115610c1a578251825591602001919060010190610bff565b5b509050610c289190610c2c565b5090565b5b80821115610c45576000816000905550600101610c2d565b5090565b6000610c5c610c578461108b565b611066565b905082815260208101848484011115610c7857610c77611368565b5b610c838482856111b9565b509392505050565b600081359050610c9a81611562565b92915050565b600081359050610caf81611579565b92915050565b600082601f830112610cca57610cc9611363565b5b8135610cda848260208601610c49565b91505092915050565b600081359050610cf281611590565b92915050565b600060208284031215610d0e57610d0d611372565b5b6000610d1c84828501610c8b565b91505092915050565b600080600060608486031215610d3e57610d3d611372565b5b600084013567ffffffffffffffff811115610d5c57610d5b61136d565b5b610d6886828701610cb5565b9350506020610d7986828701610ce3565b9250506040610d8a86828701610ca0565b9150509250925092565b600060208284031215610daa57610da9611372565b5b6000610db884828501610ce3565b91505092915050565b610dca81611171565b82525050565b610dd98161115f565b82525050565b610de881611183565b82525050565b6000610df9826110bc565b610e0381856110c7565b9350610e138185602086016111c8565b610e1c81611377565b840191505092915050565b6000610e346021836110c7565b9150610e3f82611388565b604082019050919050565b6000610e57602c836110c7565b9150610e62826113d7565b604082019050919050565b6000610e7a6023836110c7565b9150610e8582611426565b604082019050919050565b6000610e9d6023836110c7565b9150610ea882611475565b604082019050919050565b6000610ec0602e836110c7565b9150610ecb826114c4565b604082019050919050565b6000610ee36026836110c7565b9150610eee82611513565b604082019050919050565b610f02816111af565b82525050565b6000602082019050610f1d6000830184610dd0565b92915050565b600060c0820190508181036000830152610f3d8189610dee565b9050610f4c6020830188610ef9565b610f596040830187610dc1565b610f666060830186610ef9565b610f736080830185610ef9565b610f8060a0830184610ddf565b979650505050505050565b60006020820190508181036000830152610fa481610e27565b9050919050565b60006020820190508181036000830152610fc481610e4a565b9050919050565b60006020820190508181036000830152610fe481610e6d565b9050919050565b6000602082019050818103600083015261100481610e90565b9050919050565b6000602082019050818103600083015261102481610eb3565b9050919050565b6000602082019050818103600083015261104481610ed6565b9050919050565b60006020820190506110606000830184610ef9565b92915050565b6000611070611081565b905061107c828261122d565b919050565b6000604051905090565b600067ffffffffffffffff8211156110a6576110a5611334565b5b6110af82611377565b9050602081019050919050565b600081519050919050565b600082825260208201905092915050565b60006110e3826111af565b91506110ee836111af565b9250827fffffffffffffffffffffffffffffffffffffffffffffffffffffffffffffffff03821115611123576111226112a7565b5b828201905092915050565b6000611139826111af565b9150611144836111af565b925082611154576111536112d6565b5b828204905092915050565b600061116a8261118f565b9050919050565b600061117c8261118f565b9050919050565b60008115159050919050565b600073ffffffffffffffffffffffffffffffffffffffff82169050919050565b6000819050919050565b82818337600083830152505050565b60005b838110156111e65780820151818401526020810190506111cb565b838111156111f5576000848401525b50505050565b6000600282049050600182168061121357607f821691505b6020821081141561122757611226611305565b5b50919050565b61123682611377565b810181811067ffffffffffffffff8211171561125557611254611334565b5b80604052505050565b6000611269826111af565b91507fffffffffffffffffffffffffffffffffffffffffffffffffffffffffffffffff82141561129c5761129b6112a7565b5b600182019050919050565b7f4e487b7100000000000000000000000000000000000000000000000000000000600052601160045260246000fd5b7f4e487b7100000000000000000000000000000000000000000000000000000000600052601260045260246000fd5b7f4e487b7100000000000000000000000000000000000000000000000000000000600052602260045260246000fd5b7f4e487b7100000000000000000000000000000000000000000000000000000000600052604160045260246000fd5b600080fd5b600080fd5b600080fd5b600080fd5b6000601f19601f8301169050919050565b7f476f616c20666f722066756e64696e6720686173206265656e2072656163686560008201527f6400000000000000000000000000000000000000000000000000000000000000602082015250565b7f596f75206d757374206265206120636f6e7472696275746f7220746f2062652060008201527f61626c6520746f20766f74650000000000000000000000000000000000000000602082015250565b7f46756e64696e672074696d65206672616d652069732079657420746f2065787060008201527f6972650000000000000000000000000000000000000000000000000000000000602082015250565b7f596f7520617265206e6f7420616e206578697374696e6720636f6e747269627560008201527f746f720000000000000000000000000000000000000000000000000000000000602082015250565b7f416d6f756e74206d7573742062652067726561746572207468616e207468652060008201527f6d696e696d756d20616d6f756e74000000000000000000000000000000000000602082015250565b7f54696d65206672616d652073657420666f722066756e64696e6720686173206560008201527f6c61737065640000000000000000000000000000000000000000000000000000602082015250565b61156b8161115f565b811461157657600080fd5b50565b61158281611171565b811461158d57600080fd5b50565b611599816111af565b81146115a457600080fd5b5056fea264697066735822122029f55d66f2eccb06aae0a87f30a32a34fae92c7f10d12e2a3eb40e402f3baad664736f6c63430008070033",
					"opcodes": "PUSH1 0x80 PUSH1 0x40 MSTORE CALLVALUE DUP1 ISZERO PUSH3 0x11 JUMPI PUSH1 0x0 DUP1 REVERT JUMPDEST POP PUSH1 0x40 MLOAD PUSH3 0x17AA CODESIZE SUB DUP1 PUSH3 0x17AA DUP4 CODECOPY DUP2 DUP2 ADD PUSH1 0x40 MSTORE DUP2 ADD SWAP1 PUSH3 0x37 SWAP2 SWAP1 PUSH3 0xC1 JUMP JUMPDEST DUP2 PUSH1 0x2 DUP2 SWAP1 SSTORE POP DUP1 TIMESTAMP PUSH3 0x4C SWAP2 SWAP1 PUSH3 0x108 JUMP JUMPDEST PUSH1 0x3 DUP2 SWAP1 SSTORE POP CALLER PUSH1 0x1 PUSH1 0x0 PUSH2 0x100 EXP DUP2 SLOAD DUP2 PUSH20 0xFFFFFFFFFFFFFFFFFFFFFFFFFFFFFFFFFFFFFFFF MUL NOT AND SWAP1 DUP4 PUSH20 0xFFFFFFFFFFFFFFFFFFFFFFFFFFFFFFFFFFFFFFFF AND MUL OR SWAP1 SSTORE POP PUSH8 0xDE0B6B3A7640000 PUSH1 0x4 DUP2 SWAP1 SSTORE POP POP POP PUSH3 0x1BD JUMP JUMPDEST PUSH1 0x0 DUP2 MLOAD SWAP1 POP PUSH3 0xBB DUP2 PUSH3 0x1A3 JUMP JUMPDEST SWAP3 SWAP2 POP POP JUMP JUMPDEST PUSH1 0x0 DUP1 PUSH1 0x40 DUP4 DUP6 SUB SLT ISZERO PUSH3 0xDB JUMPI PUSH3 0xDA PUSH3 0x19E JUMP JUMPDEST JUMPDEST PUSH1 0x0 PUSH3 0xEB DUP6 DUP3 DUP7 ADD PUSH3 0xAA JUMP JUMPDEST SWAP3 POP POP PUSH1 0x20 PUSH3 0xFE DUP6 DUP3 DUP7 ADD PUSH3 0xAA JUMP JUMPDEST SWAP2 POP POP SWAP3 POP SWAP3 SWAP1 POP JUMP JUMPDEST PUSH1 0x0 PUSH3 0x115 DUP3 PUSH3 0x165 JUMP JUMPDEST SWAP2 POP PUSH3 0x122 DUP4 PUSH3 0x165 JUMP JUMPDEST SWAP3 POP DUP3 PUSH32 0xFFFFFFFFFFFFFFFFFFFFFFFFFFFFFFFFFFFFFFFFFFFFFFFFFFFFFFFFFFFFFFFF SUB DUP3 GT ISZERO PUSH3 0x15A JUMPI PUSH3 0x159 PUSH3 0x16F JUMP JUMPDEST JUMPDEST DUP3 DUP3 ADD SWAP1 POP SWAP3 SWAP2 POP POP JUMP JUMPDEST PUSH1 0x0 DUP2 SWAP1 POP SWAP2 SWAP1 POP JUMP JUMPDEST PUSH32 0x4E487B7100000000000000000000000000000000000000000000000000000000 PUSH1 0x0 MSTORE PUSH1 0x11 PUSH1 0x4 MSTORE PUSH1 0x24 PUSH1 0x0 REVERT JUMPDEST PUSH1 0x0 DUP1 REVERT JUMPDEST PUSH3 0x1AE DUP2 PUSH3 0x165 JUMP JUMPDEST DUP2 EQ PUSH3 0x1BA JUMPI PUSH1 0x0 DUP1 REVERT JUMPDEST POP JUMP JUMPDEST PUSH2 0x15DD DUP1 PUSH3 0x1CD PUSH1 0x0 CODECOPY PUSH1 0x0 RETURN INVALID PUSH1 0x80 PUSH1 0x40 MSTORE PUSH1 0x4 CALLDATASIZE LT PUSH2 0xEC JUMPI PUSH1 0x0 CALLDATALOAD PUSH1 0xE0 SHR DUP1 PUSH4 0x8A9CFD55 GT PUSH2 0x8A JUMPI DUP1 PUSH4 0xC1F11B4C GT PUSH2 0x59 JUMPI DUP1 PUSH4 0xC1F11B4C EQ PUSH2 0x2C4 JUMPI DUP1 PUSH4 0xD7BB99BA EQ PUSH2 0x2EF JUMPI DUP1 PUSH4 0xD845A4B3 EQ PUSH2 0x2F9 JUMPI DUP1 PUSH4 0xF851A440 EQ PUSH2 0x33B JUMPI PUSH2 0xFB JUMP JUMPDEST DUP1 PUSH4 0x8A9CFD55 EQ PUSH2 0x22E JUMPI DUP1 PUSH4 0xB2D5AE44 EQ PUSH2 0x257 JUMPI DUP1 PUSH4 0xBB0C8298 EQ PUSH2 0x26E JUMPI DUP1 PUSH4 0xBEF3A083 EQ PUSH2 0x299 JUMPI PUSH2 0xFB JUMP JUMPDEST DUP1 PUSH4 0x1F6D4942 GT PUSH2 0xC6 JUMPI DUP1 PUSH4 0x1F6D4942 EQ PUSH2 0x17F JUMPI DUP1 PUSH4 0x40193883 EQ PUSH2 0x1BC JUMPI DUP1 PUSH4 0x4377CF65 EQ PUSH2 0x1E7 JUMPI DUP1 PUSH4 0x5114CB52 EQ PUSH2 0x212 JUMPI PUSH2 0xFB JUMP JUMPDEST DUP1 PUSH4 0x121B93F EQ PUSH2 0x100 JUMPI DUP1 PUSH4 0x12065FE0 EQ PUSH2 0x129 JUMPI DUP1 PUSH4 0x1A39D8EF EQ PUSH2 0x154 JUMPI PUSH2 0xFB JUMP JUMPDEST CALLDATASIZE PUSH2 0xFB JUMPI PUSH2 0xF9 PUSH2 0x366 JUMP JUMPDEST STOP JUMPDEST PUSH1 0x0 DUP1 REVERT JUMPDEST CALLVALUE DUP1 ISZERO PUSH2 0x10C JUMPI PUSH1 0x0 DUP1 REVERT JUMPDEST POP PUSH2 0x127 PUSH1 0x4 DUP1 CALLDATASIZE SUB DUP2 ADD SWAP1 PUSH2 0x122 SWAP2 SWAP1 PUSH2 0xD94 JUMP JUMPDEST PUSH2 0x505 JUMP JUMPDEST STOP JUMPDEST CALLVALUE DUP1 ISZERO PUSH2 0x135 JUMPI PUSH1 0x0 DUP1 REVERT JUMPDEST POP PUSH2 0x13E PUSH2 0x674 JUMP JUMPDEST PUSH1 0x40 MLOAD PUSH2 0x14B SWAP2 SWAP1 PUSH2 0x104B JUMP JUMPDEST PUSH1 0x40 MLOAD DUP1 SWAP2 SUB SWAP1 RETURN JUMPDEST CALLVALUE DUP1 ISZERO PUSH2 0x160 JUMPI PUSH1 0x0 DUP1 REVERT JUMPDEST POP PUSH2 0x169 PUSH2 0x67C JUMP JUMPDEST PUSH1 0x40 MLOAD PUSH2 0x176 SWAP2 SWAP1 PUSH2 0x104B JUMP JUMPDEST PUSH1 0x40 MLOAD DUP1 SWAP2 SUB SWAP1 RETURN JUMPDEST CALLVALUE DUP1 ISZERO PUSH2 0x18B JUMPI PUSH1 0x0 DUP1 REVERT JUMPDEST POP PUSH2 0x1A6 PUSH1 0x4 DUP1 CALLDATASIZE SUB DUP2 ADD SWAP1 PUSH2 0x1A1 SWAP2 SWAP1 PUSH2 0xCF8 JUMP JUMPDEST PUSH2 0x682 JUMP JUMPDEST PUSH1 0x40 MLOAD PUSH2 0x1B3 SWAP2 SWAP1 PUSH2 0x104B JUMP JUMPDEST PUSH1 0x40 MLOAD DUP1 SWAP2 SUB SWAP1 RETURN JUMPDEST CALLVALUE DUP1 ISZERO PUSH2 0x1C8 JUMPI PUSH1 0x0 DUP1 REVERT JUMPDEST POP PUSH2 0x1D1 PUSH2 0x69A JUMP JUMPDEST PUSH1 0x40 MLOAD PUSH2 0x1DE SWAP2 SWAP1 PUSH2 0x104B JUMP JUMPDEST PUSH1 0x40 MLOAD DUP1 SWAP2 SUB SWAP1 RETURN JUMPDEST CALLVALUE DUP1 ISZERO PUSH2 0x1F3 JUMPI PUSH1 0x0 DUP1 REVERT JUMPDEST POP PUSH2 0x1FC PUSH2 0x6A0 JUMP JUMPDEST PUSH1 0x40 MLOAD PUSH2 0x209 SWAP2 SWAP1 PUSH2 0x104B JUMP JUMPDEST PUSH1 0x40 MLOAD DUP1 SWAP2 SUB SWAP1 RETURN JUMPDEST PUSH2 0x22C PUSH1 0x4 DUP1 CALLDATASIZE SUB DUP2 ADD SWAP1 PUSH2 0x227 SWAP2 SWAP1 PUSH2 0xD94 JUMP JUMPDEST PUSH2 0x6A6 JUMP JUMPDEST STOP JUMPDEST CALLVALUE DUP1 ISZERO PUSH2 0x23A JUMPI PUSH1 0x0 DUP1 REVERT JUMPDEST POP PUSH2 0x255 PUSH1 0x4 DUP1 CALLDATASIZE SUB DUP2 ADD SWAP1 PUSH2 0x250 SWAP2 SWAP1 PUSH2 0xD25 JUMP JUMPDEST PUSH2 0x7CA JUMP JUMPDEST STOP JUMPDEST CALLVALUE DUP1 ISZERO PUSH2 0x263 JUMPI PUSH1 0x0 DUP1 REVERT JUMPDEST POP PUSH2 0x26C PUSH2 0x8DD JUMP JUMPDEST STOP JUMPDEST CALLVALUE DUP1 ISZERO PUSH2 0x27A JUMPI PUSH1 0x0 DUP1 REVERT JUMPDEST POP PUSH2 0x283 PUSH2 0xA7D JUMP JUMPDEST PUSH1 0x40 MLOAD PUSH2 0x290 SWAP2 SWAP1 PUSH2 0x104B JUMP JUMPDEST PUSH1 0x40 MLOAD DUP1 SWAP2 SUB SWAP1 RETURN JUMPDEST CALLVALUE DUP1 ISZERO PUSH2 0x2A5 JUMPI PUSH1 0x0 DUP1 REVERT JUMPDEST POP PUSH2 0x2AE PUSH2 0xA83 JUMP JUMPDEST PUSH1 0x40 MLOAD PUSH2 0x2BB SWAP2 SWAP1 PUSH2 0x104B JUMP JUMPDEST PUSH1 0x40 MLOAD DUP1 SWAP2 SUB SWAP1 RETURN JUMPDEST CALLVALUE DUP1 ISZERO PUSH2 0x2D0 JUMPI PUSH1 0x0 DUP1 REVERT JUMPDEST POP PUSH2 0x2D9 PUSH2 0xA89 JUMP JUMPDEST PUSH1 0x40 MLOAD PUSH2 0x2E6 SWAP2 SWAP1 PUSH2 0x104B JUMP JUMPDEST PUSH1 0x40 MLOAD DUP1 SWAP2 SUB SWAP1 RETURN JUMPDEST PUSH2 0x2F7 PUSH2 0x366 JUMP JUMPDEST STOP JUMPDEST CALLVALUE DUP1 ISZERO PUSH2 0x305 JUMPI PUSH1 0x0 DUP1 REVERT JUMPDEST POP PUSH2 0x320 PUSH1 0x4 DUP1 CALLDATASIZE SUB DUP2 ADD SWAP1 PUSH2 0x31B SWAP2 SWAP1 PUSH2 0xD94 JUMP JUMPDEST PUSH2 0xA8F JUMP JUMPDEST PUSH1 0x40 MLOAD PUSH2 0x332 SWAP7 SWAP6 SWAP5 SWAP4 SWAP3 SWAP2 SWAP1 PUSH2 0xF23 JUMP JUMPDEST PUSH1 0x40 MLOAD DUP1 SWAP2 SUB SWAP1 RETURN JUMPDEST CALLVALUE DUP1 ISZERO PUSH2 0x347 JUMPI PUSH1 0x0 DUP1 REVERT JUMPDEST POP PUSH2 0x350 PUSH2 0xB80 JUMP JUMPDEST PUSH1 0x40 MLOAD PUSH2 0x35D SWAP2 SWAP1 PUSH2 0xF08 JUMP JUMPDEST PUSH1 0x40 MLOAD DUP1 SWAP2 SUB SWAP1 RETURN JUMPDEST PUSH1 0x4 SLOAD CALLVALUE LT ISZERO PUSH2 0x3AB JUMPI PUSH1 0x40 MLOAD PUSH32 0x8C379A000000000000000000000000000000000000000000000000000000000 DUP2 MSTORE PUSH1 0x4 ADD PUSH2 0x3A2 SWAP1 PUSH2 0x100B JUMP JUMPDEST PUSH1 0x40 MLOAD DUP1 SWAP2 SUB SWAP1 REVERT JUMPDEST PUSH1 0x2 SLOAD PUSH1 0x5 SLOAD LT PUSH2 0x3F1 JUMPI PUSH1 0x40 MLOAD PUSH32 0x8C379A000000000000000000000000000000000000000000000000000000000 DUP2 MSTORE PUSH1 0x4 ADD PUSH2 0x3E8 SWAP1 PUSH2 0xF8B JUMP JUMPDEST PUSH1 0x40 MLOAD DUP1 SWAP2 SUB SWAP1 REVERT JUMPDEST PUSH1 0x3 SLOAD TIMESTAMP LT PUSH2 0x435 JUMPI PUSH1 0x40 MLOAD PUSH32 0x8C379A000000000000000000000000000000000000000000000000000000000 DUP2 MSTORE PUSH1 0x4 ADD PUSH2 0x42C SWAP1 PUSH2 0x102B JUMP JUMPDEST PUSH1 0x40 MLOAD DUP1 SWAP2 SUB SWAP1 REVERT JUMPDEST PUSH1 0x0 DUP1 PUSH1 0x0 CALLER PUSH20 0xFFFFFFFFFFFFFFFFFFFFFFFFFFFFFFFFFFFFFFFF AND PUSH20 0xFFFFFFFFFFFFFFFFFFFFFFFFFFFFFFFFFFFFFFFF AND DUP2 MSTORE PUSH1 0x20 ADD SWAP1 DUP2 MSTORE PUSH1 0x20 ADD PUSH1 0x0 KECCAK256 SLOAD EQ ISZERO PUSH2 0x495 JUMPI PUSH1 0x6 PUSH1 0x0 DUP2 SLOAD DUP1 SWAP3 SWAP2 SWAP1 PUSH2 0x48F SWAP1 PUSH2 0x125E JUMP JUMPDEST SWAP2 SWAP1 POP SSTORE POP JUMPDEST CALLVALUE PUSH1 0x0 DUP1 CALLER PUSH20 0xFFFFFFFFFFFFFFFFFFFFFFFFFFFFFFFFFFFFFFFF AND PUSH20 0xFFFFFFFFFFFFFFFFFFFFFFFFFFFFFFFFFFFFFFFF AND DUP2 MSTORE PUSH1 0x20 ADD SWAP1 DUP2 MSTORE PUSH1 0x20 ADD PUSH1 0x0 KECCAK256 PUSH1 0x0 DUP3 DUP3 SLOAD PUSH2 0x4E3 SWAP2 SWAP1 PUSH2 0x10D8 JUMP JUMPDEST SWAP3 POP POP DUP2 SWAP1 SSTORE POP CALLVALUE PUSH1 0x5 PUSH1 0x0 DUP3 DUP3 SLOAD PUSH2 0x4FC SWAP2 SWAP1 PUSH2 0x10D8 JUMP JUMPDEST SWAP3 POP POP DUP2 SWAP1 SSTORE POP JUMP JUMPDEST PUSH1 0x0 DUP1 PUSH1 0x0 CALLER PUSH20 0xFFFFFFFFFFFFFFFFFFFFFFFFFFFFFFFFFFFFFFFF AND PUSH20 0xFFFFFFFFFFFFFFFFFFFFFFFFFFFFFFFFFFFFFFFF AND DUP2 MSTORE PUSH1 0x20 ADD SWAP1 DUP2 MSTORE PUSH1 0x20 ADD PUSH1 0x0 KECCAK256 SLOAD GT PUSH2 0x586 JUMPI PUSH1 0x40 MLOAD PUSH32 0x8C379A000000000000000000000000000000000000000000000000000000000 DUP2 MSTORE PUSH1 0x4 ADD PUSH2 0x57D SWAP1 PUSH2 0xFAB JUMP JUMPDEST PUSH1 0x40 MLOAD DUP1 SWAP2 SUB SWAP1 REVERT JUMPDEST PUSH1 0x0 PUSH1 0x8 PUSH1 0x0 DUP4 DUP2 MSTORE PUSH1 0x20 ADD SWAP1 DUP2 MSTORE PUSH1 0x20 ADD PUSH1 0x0 KECCAK256 SWAP1 POP PUSH1 0x0 ISZERO ISZERO DUP2 PUSH1 0x6 ADD PUSH1 0x0 CALLER PUSH20 0xFFFFFFFFFFFFFFFFFFFFFFFFFFFFFFFFFFFFFFFF AND PUSH20 0xFFFFFFFFFFFFFFFFFFFFFFFFFFFFFFFFFFFFFFFF AND DUP2 MSTORE PUSH1 0x20 ADD SWAP1 DUP2 MSTORE PUSH1 0x20 ADD PUSH1 0x0 KECCAK256 PUSH1 0x0 SWAP1 SLOAD SWAP1 PUSH2 0x100 EXP SWAP1 DIV PUSH1 0xFF AND ISZERO ISZERO EQ PUSH2 0x5FC JUMPI PUSH1 0x0 DUP1 REVERT JUMPDEST PUSH1 0x1 DUP2 PUSH1 0x6 ADD PUSH1 0x0 CALLER PUSH20 0xFFFFFFFFFFFFFFFFFFFFFFFFFFFFFFFFFFFFFFFF AND PUSH20 0xFFFFFFFFFFFFFFFFFFFFFFFFFFFFFFFFFFFFFFFF AND DUP2 MSTORE PUSH1 0x20 ADD SWAP1 DUP2 MSTORE PUSH1 0x20 ADD PUSH1 0x0 KECCAK256 PUSH1 0x0 PUSH2 0x100 EXP DUP2 SLOAD DUP2 PUSH1 0xFF MUL NOT AND SWAP1 DUP4 ISZERO ISZERO MUL OR SWAP1 SSTORE POP DUP1 PUSH1 0x4 ADD PUSH1 0x0 DUP2 SLOAD DUP1 SWAP3 SWAP2 SWAP1 PUSH2 0x66B SWAP1 PUSH2 0x125E JUMP JUMPDEST SWAP2 SWAP1 POP SSTORE POP POP POP JUMP JUMPDEST PUSH1 0x0 SELFBALANCE SWAP1 POP SWAP1 JUMP JUMPDEST PUSH1 0x5 SLOAD DUP2 JUMP JUMPDEST PUSH1 0x0 PUSH1 0x20 MSTORE DUP1 PUSH1 0x0 MSTORE PUSH1 0x40 PUSH1 0x0 KECCAK256 PUSH1 0x0 SWAP2 POP SWAP1 POP SLOAD DUP2 JUMP JUMPDEST PUSH1 0x2 SLOAD DUP2 JUMP JUMPDEST PUSH1 0x6 SLOAD DUP2 JUMP JUMPDEST PUSH1 0x1 PUSH1 0x0 SWAP1 SLOAD SWAP1 PUSH2 0x100 EXP SWAP1 DIV PUSH20 0xFFFFFFFFFFFFFFFFFFFFFFFFFFFFFFFFFFFFFFFF AND PUSH20 0xFFFFFFFFFFFFFFFFFFFFFFFFFFFFFFFFFFFFFFFF AND CALLER PUSH20 0xFFFFFFFFFFFFFFFFFFFFFFFFFFFFFFFFFFFFFFFF AND EQ PUSH2 0x700 JUMPI PUSH1 0x0 DUP1 REVERT JUMPDEST PUSH1 0x0 PUSH1 0x8 PUSH1 0x0 DUP4 DUP2 MSTORE PUSH1 0x20 ADD SWAP1 DUP2 MSTORE PUSH1 0x20 ADD PUSH1 0x0 KECCAK256 SWAP1 POP PUSH1 0x2 PUSH1 0x6 SLOAD PUSH2 0x726 SWAP2 SWAP1 PUSH2 0x112E JUMP JUMPDEST DUP2 PUSH1 0x4 ADD SLOAD GT PUSH2 0x735 JUMPI PUSH1 0x0 DUP1 REVERT JUMPDEST PUSH1 0x0 ISZERO ISZERO DUP2 PUSH1 0x5 ADD PUSH1 0x0 SWAP1 SLOAD SWAP1 PUSH2 0x100 EXP SWAP1 DIV PUSH1 0xFF AND ISZERO ISZERO EQ PUSH2 0x757 JUMPI PUSH1 0x0 DUP1 REVERT JUMPDEST DUP1 PUSH1 0x2 ADD PUSH1 0x0 SWAP1 SLOAD SWAP1 PUSH2 0x100 EXP SWAP1 DIV PUSH20 0xFFFFFFFFFFFFFFFFFFFFFFFFFFFFFFFFFFFFFFFF AND PUSH20 0xFFFFFFFFFFFFFFFFFFFFFFFFFFFFFFFFFFFFFFFF AND PUSH2 0x8FC DUP3 PUSH1 0x1 ADD SLOAD SWAP1 DUP2 ISZERO MUL SWAP1 PUSH1 0x40 MLOAD PUSH1 0x0 PUSH1 0x40 MLOAD DUP1 DUP4 SUB DUP2 DUP6 DUP9 DUP9 CALL SWAP4 POP POP POP POP ISZERO DUP1 ISZERO PUSH2 0x7C5 JUMPI RETURNDATASIZE PUSH1 0x0 DUP1 RETURNDATACOPY RETURNDATASIZE PUSH1 0x0 REVERT JUMPDEST POP POP POP JUMP JUMPDEST PUSH1 0x1 PUSH1 0x0 SWAP1 SLOAD SWAP1 PUSH2 0x100 EXP SWAP1 DIV PUSH20 0xFFFFFFFFFFFFFFFFFFFFFFFFFFFFFFFFFFFFFFFF AND PUSH20 0xFFFFFFFFFFFFFFFFFFFFFFFFFFFFFFFFFFFFFFFF AND CALLER PUSH20 0xFFFFFFFFFFFFFFFFFFFFFFFFFFFFFFFFFFFFFFFF AND EQ PUSH2 0x824 JUMPI PUSH1 0x0 DUP1 REVERT JUMPDEST PUSH1 0x0 PUSH1 0x8 PUSH1 0x0 PUSH1 0x7 SLOAD DUP2 MSTORE PUSH1 0x20 ADD SWAP1 DUP2 MSTORE PUSH1 0x20 ADD PUSH1 0x0 KECCAK256 SWAP1 POP DUP4 DUP2 PUSH1 0x0 ADD SWAP1 DUP1 MLOAD SWAP1 PUSH1 0x20 ADD SWAP1 PUSH2 0x855 SWAP3 SWAP2 SWAP1 PUSH2 0xBA6 JUMP JUMPDEST POP DUP3 DUP2 PUSH1 0x1 ADD DUP2 SWAP1 SSTORE POP PUSH1 0x0 DUP2 PUSH1 0x5 ADD PUSH1 0x0 PUSH2 0x100 EXP DUP2 SLOAD DUP2 PUSH1 0xFF MUL NOT AND SWAP1 DUP4 ISZERO ISZERO MUL OR SWAP1 SSTORE POP DUP2 DUP2 PUSH1 0x2 ADD PUSH1 0x0 PUSH2 0x100 EXP DUP2 SLOAD DUP2 PUSH20 0xFFFFFFFFFFFFFFFFFFFFFFFFFFFFFFFFFFFFFFFF MUL NOT AND SWAP1 DUP4 PUSH20 0xFFFFFFFFFFFFFFFFFFFFFFFFFFFFFFFFFFFFFFFF AND MUL OR SWAP1 SSTORE POP PUSH1 0x7 PUSH1 0x0 DUP2 SLOAD DUP1 SWAP3 SWAP2 SWAP1 PUSH2 0x8D2 SWAP1 PUSH2 0x125E JUMP JUMPDEST SWAP2 SWAP1 POP SSTORE POP POP POP POP POP JUMP JUMPDEST PUSH1 0x0 DUP1 PUSH1 0x0 CALLER PUSH20 0xFFFFFFFFFFFFFFFFFFFFFFFFFFFFFFFFFFFFFFFF AND PUSH20 0xFFFFFFFFFFFFFFFFFFFFFFFFFFFFFFFFFFFFFFFF AND DUP2 MSTORE PUSH1 0x20 ADD SWAP1 DUP2 MSTORE PUSH1 0x20 ADD PUSH1 0x0 KECCAK256 SLOAD GT PUSH2 0x95E JUMPI PUSH1 0x40 MLOAD PUSH32 0x8C379A000000000000000000000000000000000000000000000000000000000 DUP2 MSTORE PUSH1 0x4 ADD PUSH2 0x955 SWAP1 PUSH2 0xFEB JUMP JUMPDEST PUSH1 0x40 MLOAD DUP1 SWAP2 SUB SWAP1 REVERT JUMPDEST PUSH1 0x3 SLOAD TIMESTAMP LT ISZERO DUP1 ISZERO PUSH2 0x973 JUMPI POP PUSH1 0x2 SLOAD PUSH1 0x5 SLOAD LT JUMPDEST PUSH2 0x9B2 JUMPI PUSH1 0x40 MLOAD PUSH32 0x8C379A000000000000000000000000000000000000000000000000000000000 DUP2 MSTORE PUSH1 0x4 ADD PUSH2 0x9A9 SWAP1 PUSH2 0xFCB JUMP JUMPDEST PUSH1 0x40 MLOAD DUP1 SWAP2 SUB SWAP1 REVERT JUMPDEST CALLER PUSH20 0xFFFFFFFFFFFFFFFFFFFFFFFFFFFFFFFFFFFFFFFF AND PUSH2 0x8FC PUSH1 0x0 DUP1 CALLER PUSH20 0xFFFFFFFFFFFFFFFFFFFFFFFFFFFFFFFFFFFFFFFF AND PUSH20 0xFFFFFFFFFFFFFFFFFFFFFFFFFFFFFFFFFFFFFFFF AND DUP2 MSTORE PUSH1 0x20 ADD SWAP1 DUP2 MSTORE PUSH1 0x20 ADD PUSH1 0x0 KECCAK256 SLOAD SWAP1 DUP2 ISZERO MUL SWAP1 PUSH1 0x40 MLOAD PUSH1 0x0 PUSH1 0x40 MLOAD DUP1 DUP4 SUB DUP2 DUP6 DUP9 DUP9 CALL SWAP4 POP POP POP POP ISZERO DUP1 ISZERO PUSH2 0xA36 JUMPI RETURNDATASIZE PUSH1 0x0 DUP1 RETURNDATACOPY RETURNDATASIZE PUSH1 0x0 REVERT JUMPDEST POP PUSH1 0x0 DUP1 PUSH1 0x0 CALLER PUSH20 0xFFFFFFFFFFFFFFFFFFFFFFFFFFFFFFFFFFFFFFFF AND PUSH20 0xFFFFFFFFFFFFFFFFFFFFFFFFFFFFFFFFFFFFFFFF AND DUP2 MSTORE PUSH1 0x20 ADD SWAP1 DUP2 MSTORE PUSH1 0x20 ADD PUSH1 0x0 KECCAK256 DUP2 SWAP1 SSTORE POP JUMP JUMPDEST PUSH1 0x4 SLOAD DUP2 JUMP JUMPDEST PUSH1 0x3 SLOAD DUP2 JUMP JUMPDEST PUSH1 0x7 SLOAD DUP2 JUMP JUMPDEST PUSH1 0x8 PUSH1 0x20 MSTORE DUP1 PUSH1 0x0 MSTORE PUSH1 0x40 PUSH1 0x0 KECCAK256 PUSH1 0x0 SWAP2 POP SWAP1 POP DUP1 PUSH1 0x0 ADD DUP1 SLOAD PUSH2 0xAB2 SWAP1 PUSH2 0x11FB JUMP JUMPDEST DUP1 PUSH1 0x1F ADD PUSH1 0x20 DUP1 SWAP2 DIV MUL PUSH1 0x20 ADD PUSH1 0x40 MLOAD SWAP1 DUP2 ADD PUSH1 0x40 MSTORE DUP1 SWAP3 SWAP2 SWAP1 DUP2 DUP2 MSTORE PUSH1 0x20 ADD DUP3 DUP1 SLOAD PUSH2 0xADE SWAP1 PUSH2 0x11FB JUMP JUMPDEST DUP1 ISZERO PUSH2 0xB2B JUMPI DUP1 PUSH1 0x1F LT PUSH2 0xB00 JUMPI PUSH2 0x100 DUP1 DUP4 SLOAD DIV MUL DUP4 MSTORE SWAP2 PUSH1 0x20 ADD SWAP2 PUSH2 0xB2B JUMP JUMPDEST DUP3 ADD SWAP2 SWAP1 PUSH1 0x0 MSTORE PUSH1 0x20 PUSH1 0x0 KECCAK256 SWAP1 JUMPDEST DUP2 SLOAD DUP2 MSTORE SWAP1 PUSH1 0x1 ADD SWAP1 PUSH1 0x20 ADD DUP1 DUP4 GT PUSH2 0xB0E JUMPI DUP3 SWAP1 SUB PUSH1 0x1F AND DUP3 ADD SWAP2 JUMPDEST POP POP POP POP POP SWAP1 DUP1 PUSH1 0x1 ADD SLOAD SWAP1 DUP1 PUSH1 0x2 ADD PUSH1 0x0 SWAP1 SLOAD SWAP1 PUSH2 0x100 EXP SWAP1 DIV PUSH20 0xFFFFFFFFFFFFFFFFFFFFFFFFFFFFFFFFFFFFFFFF AND SWAP1 DUP1 PUSH1 0x3 ADD SLOAD SWAP1 DUP1 PUSH1 0x4 ADD SLOAD SWAP1 DUP1 PUSH1 0x5 ADD PUSH1 0x0 SWAP1 SLOAD SWAP1 PUSH2 0x100 EXP SWAP1 DIV PUSH1 0xFF AND SWAP1 POP DUP7 JUMP JUMPDEST PUSH1 0x1 PUSH1 0x0 SWAP1 SLOAD SWAP1 PUSH2 0x100 EXP SWAP1 DIV PUSH20 0xFFFFFFFFFFFFFFFFFFFFFFFFFFFFFFFFFFFFFFFF AND DUP2 JUMP JUMPDEST DUP3 DUP1 SLOAD PUSH2 0xBB2 SWAP1 PUSH2 0x11FB JUMP JUMPDEST SWAP1 PUSH1 0x0 MSTORE PUSH1 0x20 PUSH1 0x0 KECCAK256 SWAP1 PUSH1 0x1F ADD PUSH1 0x20 SWAP1 DIV DUP2 ADD SWAP3 DUP3 PUSH2 0xBD4 JUMPI PUSH1 0x0 DUP6 SSTORE PUSH2 0xC1B JUMP JUMPDEST DUP3 PUSH1 0x1F LT PUSH2 0xBED JUMPI DUP1 MLOAD PUSH1 0xFF NOT AND DUP4 DUP1 ADD OR DUP6 SSTORE PUSH2 0xC1B JUMP JUMPDEST DUP3 DUP1 ADD PUSH1 0x1 ADD DUP6 SSTORE DUP3 ISZERO PUSH2 0xC1B JUMPI SWAP2 DUP3 ADD JUMPDEST DUP3 DUP2 GT ISZERO PUSH2 0xC1A JUMPI DUP3 MLOAD DUP3 SSTORE SWAP2 PUSH1 0x20 ADD SWAP2 SWAP1 PUSH1 0x1 ADD SWAP1 PUSH2 0xBFF JUMP JUMPDEST JUMPDEST POP SWAP1 POP PUSH2 0xC28 SWAP2 SWAP1 PUSH2 0xC2C JUMP JUMPDEST POP SWAP1 JUMP JUMPDEST JUMPDEST DUP1 DUP3 GT ISZERO PUSH2 0xC45 JUMPI PUSH1 0x0 DUP2 PUSH1 0x0 SWAP1 SSTORE POP PUSH1 0x1 ADD PUSH2 0xC2D JUMP JUMPDEST POP SWAP1 JUMP JUMPDEST PUSH1 0x0 PUSH2 0xC5C PUSH2 0xC57 DUP5 PUSH2 0x108B JUMP JUMPDEST PUSH2 0x1066 JUMP JUMPDEST SWAP1 POP DUP3 DUP2 MSTORE PUSH1 0x20 DUP2 ADD DUP5 DUP5 DUP5 ADD GT ISZERO PUSH2 0xC78 JUMPI PUSH2 0xC77 PUSH2 0x1368 JUMP JUMPDEST JUMPDEST PUSH2 0xC83 DUP5 DUP3 DUP6 PUSH2 0x11B9 JUMP JUMPDEST POP SWAP4 SWAP3 POP POP POP JUMP JUMPDEST PUSH1 0x0 DUP2 CALLDATALOAD SWAP1 POP PUSH2 0xC9A DUP2 PUSH2 0x1562 JUMP JUMPDEST SWAP3 SWAP2 POP POP JUMP JUMPDEST PUSH1 0x0 DUP2 CALLDATALOAD SWAP1 POP PUSH2 0xCAF DUP2 PUSH2 0x1579 JUMP JUMPDEST SWAP3 SWAP2 POP POP JUMP JUMPDEST PUSH1 0x0 DUP3 PUSH1 0x1F DUP4 ADD SLT PUSH2 0xCCA JUMPI PUSH2 0xCC9 PUSH2 0x1363 JUMP JUMPDEST JUMPDEST DUP2 CALLDATALOAD PUSH2 0xCDA DUP5 DUP3 PUSH1 0x20 DUP7 ADD PUSH2 0xC49 JUMP JUMPDEST SWAP2 POP POP SWAP3 SWAP2 POP POP JUMP JUMPDEST PUSH1 0x0 DUP2 CALLDATALOAD SWAP1 POP PUSH2 0xCF2 DUP2 PUSH2 0x1590 JUMP JUMPDEST SWAP3 SWAP2 POP POP JUMP JUMPDEST PUSH1 0x0 PUSH1 0x20 DUP3 DUP5 SUB SLT ISZERO PUSH2 0xD0E JUMPI PUSH2 0xD0D PUSH2 0x1372 JUMP JUMPDEST JUMPDEST PUSH1 0x0 PUSH2 0xD1C DUP5 DUP3 DUP6 ADD PUSH2 0xC8B JUMP JUMPDEST SWAP2 POP POP SWAP3 SWAP2 POP POP JUMP JUMPDEST PUSH1 0x0 DUP1 PUSH1 0x0 PUSH1 0x60 DUP5 DUP7 SUB SLT ISZERO PUSH2 0xD3E JUMPI PUSH2 0xD3D PUSH2 0x1372 JUMP JUMPDEST JUMPDEST PUSH1 0x0 DUP5 ADD CALLDATALOAD PUSH8 0xFFFFFFFFFFFFFFFF DUP2 GT ISZERO PUSH2 0xD5C JUMPI PUSH2 0xD5B PUSH2 0x136D JUMP JUMPDEST JUMPDEST PUSH2 0xD68 DUP7 DUP3 DUP8 ADD PUSH2 0xCB5 JUMP JUMPDEST SWAP4 POP POP PUSH1 0x20 PUSH2 0xD79 DUP7 DUP3 DUP8 ADD PUSH2 0xCE3 JUMP JUMPDEST SWAP3 POP POP PUSH1 0x40 PUSH2 0xD8A DUP7 DUP3 DUP8 ADD PUSH2 0xCA0 JUMP JUMPDEST SWAP2 POP POP SWAP3 POP SWAP3 POP SWAP3 JUMP JUMPDEST PUSH1 0x0 PUSH1 0x20 DUP3 DUP5 SUB SLT ISZERO PUSH2 0xDAA JUMPI PUSH2 0xDA9 PUSH2 0x1372 JUMP JUMPDEST JUMPDEST PUSH1 0x0 PUSH2 0xDB8 DUP5 DUP3 DUP6 ADD PUSH2 0xCE3 JUMP JUMPDEST SWAP2 POP POP SWAP3 SWAP2 POP POP JUMP JUMPDEST PUSH2 0xDCA DUP2 PUSH2 0x1171 JUMP JUMPDEST DUP3 MSTORE POP POP JUMP JUMPDEST PUSH2 0xDD9 DUP2 PUSH2 0x115F JUMP JUMPDEST DUP3 MSTORE POP POP JUMP JUMPDEST PUSH2 0xDE8 DUP2 PUSH2 0x1183 JUMP JUMPDEST DUP3 MSTORE POP POP JUMP JUMPDEST PUSH1 0x0 PUSH2 0xDF9 DUP3 PUSH2 0x10BC JUMP JUMPDEST PUSH2 0xE03 DUP2 DUP6 PUSH2 0x10C7 JUMP JUMPDEST SWAP4 POP PUSH2 0xE13 DUP2 DUP6 PUSH1 0x20 DUP7 ADD PUSH2 0x11C8 JUMP JUMPDEST PUSH2 0xE1C DUP2 PUSH2 0x1377 JUMP JUMPDEST DUP5 ADD SWAP2 POP POP SWAP3 SWAP2 POP POP JUMP JUMPDEST PUSH1 0x0 PUSH2 0xE34 PUSH1 0x21 DUP4 PUSH2 0x10C7 JUMP JUMPDEST SWAP2 POP PUSH2 0xE3F DUP3 PUSH2 0x1388 JUMP JUMPDEST PUSH1 0x40 DUP3 ADD SWAP1 POP SWAP2 SWAP1 POP JUMP JUMPDEST PUSH1 0x0 PUSH2 0xE57 PUSH1 0x2C DUP4 PUSH2 0x10C7 JUMP JUMPDEST SWAP2 POP PUSH2 0xE62 DUP3 PUSH2 0x13D7 JUMP JUMPDEST PUSH1 0x40 DUP3 ADD SWAP1 POP SWAP2 SWAP1 POP JUMP JUMPDEST PUSH1 0x0 PUSH2 0xE7A PUSH1 0x23 DUP4 PUSH2 0x10C7 JUMP JUMPDEST SWAP2 POP PUSH2 0xE85 DUP3 PUSH2 0x1426 JUMP JUMPDEST PUSH1 0x40 DUP3 ADD SWAP1 POP SWAP2 SWAP1 POP JUMP JUMPDEST PUSH1 0x0 PUSH2 0xE9D PUSH1 0x23 DUP4 PUSH2 0x10C7 JUMP JUMPDEST SWAP2 POP PUSH2 0xEA8 DUP3 PUSH2 0x1475 JUMP JUMPDEST PUSH1 0x40 DUP3 ADD SWAP1 POP SWAP2 SWAP1 POP JUMP JUMPDEST PUSH1 0x0 PUSH2 0xEC0 PUSH1 0x2E DUP4 PUSH2 0x10C7 JUMP JUMPDEST SWAP2 POP PUSH2 0xECB DUP3 PUSH2 0x14C4 JUMP JUMPDEST PUSH1 0x40 DUP3 ADD SWAP1 POP SWAP2 SWAP1 POP JUMP JUMPDEST PUSH1 0x0 PUSH2 0xEE3 PUSH1 0x26 DUP4 PUSH2 0x10C7 JUMP JUMPDEST SWAP2 POP PUSH2 0xEEE DUP3 PUSH2 0x1513 JUMP JUMPDEST PUSH1 0x40 DUP3 ADD SWAP1 POP SWAP2 SWAP1 POP JUMP JUMPDEST PUSH2 0xF02 DUP2 PUSH2 0x11AF JUMP JUMPDEST DUP3 MSTORE POP POP JUMP JUMPDEST PUSH1 0x0 PUSH1 0x20 DUP3 ADD SWAP1 POP PUSH2 0xF1D PUSH1 0x0 DUP4 ADD DUP5 PUSH2 0xDD0 JUMP JUMPDEST SWAP3 SWAP2 POP POP JUMP JUMPDEST PUSH1 0x0 PUSH1 0xC0 DUP3 ADD SWAP1 POP DUP2 DUP2 SUB PUSH1 0x0 DUP4 ADD MSTORE PUSH2 0xF3D DUP2 DUP10 PUSH2 0xDEE JUMP JUMPDEST SWAP1 POP PUSH2 0xF4C PUSH1 0x20 DUP4 ADD DUP9 PUSH2 0xEF9 JUMP JUMPDEST PUSH2 0xF59 PUSH1 0x40 DUP4 ADD DUP8 PUSH2 0xDC1 JUMP JUMPDEST PUSH2 0xF66 PUSH1 0x60 DUP4 ADD DUP7 PUSH2 0xEF9 JUMP JUMPDEST PUSH2 0xF73 PUSH1 0x80 DUP4 ADD DUP6 PUSH2 0xEF9 JUMP JUMPDEST PUSH2 0xF80 PUSH1 0xA0 DUP4 ADD DUP5 PUSH2 0xDDF JUMP JUMPDEST SWAP8 SWAP7 POP POP POP POP POP POP POP JUMP JUMPDEST PUSH1 0x0 PUSH1 0x20 DUP3 ADD SWAP1 POP DUP2 DUP2 SUB PUSH1 0x0 DUP4 ADD MSTORE PUSH2 0xFA4 DUP2 PUSH2 0xE27 JUMP JUMPDEST SWAP1 POP SWAP2 SWAP1 POP JUMP JUMPDEST PUSH1 0x0 PUSH1 0x20 DUP3 ADD SWAP1 POP DUP2 DUP2 SUB PUSH1 0x0 DUP4 ADD MSTORE PUSH2 0xFC4 DUP2 PUSH2 0xE4A JUMP JUMPDEST SWAP1 POP SWAP2 SWAP1 POP JUMP JUMPDEST PUSH1 0x0 PUSH1 0x20 DUP3 ADD SWAP1 POP DUP2 DUP2 SUB PUSH1 0x0 DUP4 ADD MSTORE PUSH2 0xFE4 DUP2 PUSH2 0xE6D JUMP JUMPDEST SWAP1 POP SWAP2 SWAP1 POP JUMP JUMPDEST PUSH1 0x0 PUSH1 0x20 DUP3 ADD SWAP1 POP DUP2 DUP2 SUB PUSH1 0x0 DUP4 ADD MSTORE PUSH2 0x1004 DUP2 PUSH2 0xE90 JUMP JUMPDEST SWAP1 POP SWAP2 SWAP1 POP JUMP JUMPDEST PUSH1 0x0 PUSH1 0x20 DUP3 ADD SWAP1 POP DUP2 DUP2 SUB PUSH1 0x0 DUP4 ADD MSTORE PUSH2 0x1024 DUP2 PUSH2 0xEB3 JUMP JUMPDEST SWAP1 POP SWAP2 SWAP1 POP JUMP JUMPDEST PUSH1 0x0 PUSH1 0x20 DUP3 ADD SWAP1 POP DUP2 DUP2 SUB PUSH1 0x0 DUP4 ADD MSTORE PUSH2 0x1044 DUP2 PUSH2 0xED6 JUMP JUMPDEST SWAP1 POP SWAP2 SWAP1 POP JUMP JUMPDEST PUSH1 0x0 PUSH1 0x20 DUP3 ADD SWAP1 POP PUSH2 0x1060 PUSH1 0x0 DUP4 ADD DUP5 PUSH2 0xEF9 JUMP JUMPDEST SWAP3 SWAP2 POP POP JUMP JUMPDEST PUSH1 0x0 PUSH2 0x1070 PUSH2 0x1081 JUMP JUMPDEST SWAP1 POP PUSH2 0x107C DUP3 DUP3 PUSH2 0x122D JUMP JUMPDEST SWAP2 SWAP1 POP JUMP JUMPDEST PUSH1 0x0 PUSH1 0x40 MLOAD SWAP1 POP SWAP1 JUMP JUMPDEST PUSH1 0x0 PUSH8 0xFFFFFFFFFFFFFFFF DUP3 GT ISZERO PUSH2 0x10A6 JUMPI PUSH2 0x10A5 PUSH2 0x1334 JUMP JUMPDEST JUMPDEST PUSH2 0x10AF DUP3 PUSH2 0x1377 JUMP JUMPDEST SWAP1 POP PUSH1 0x20 DUP2 ADD SWAP1 POP SWAP2 SWAP1 POP JUMP JUMPDEST PUSH1 0x0 DUP2 MLOAD SWAP1 POP SWAP2 SWAP1 POP JUMP JUMPDEST PUSH1 0x0 DUP3 DUP3 MSTORE PUSH1 0x20 DUP3 ADD SWAP1 POP SWAP3 SWAP2 POP POP JUMP JUMPDEST PUSH1 0x0 PUSH2 0x10E3 DUP3 PUSH2 0x11AF JUMP JUMPDEST SWAP2 POP PUSH2 0x10EE DUP4 PUSH2 0x11AF JUMP JUMPDEST SWAP3 POP DUP3 PUSH32 0xFFFFFFFFFFFFFFFFFFFFFFFFFFFFFFFFFFFFFFFFFFFFFFFFFFFFFFFFFFFFFFFF SUB DUP3 GT ISZERO PUSH2 0x1123 JUMPI PUSH2 0x1122 PUSH2 0x12A7 JUMP JUMPDEST JUMPDEST DUP3 DUP3 ADD SWAP1 POP SWAP3 SWAP2 POP POP JUMP JUMPDEST PUSH1 0x0 PUSH2 0x1139 DUP3 PUSH2 0x11AF JUMP JUMPDEST SWAP2 POP PUSH2 0x1144 DUP4 PUSH2 0x11AF JUMP JUMPDEST SWAP3 POP DUP3 PUSH2 0x1154 JUMPI PUSH2 0x1153 PUSH2 0x12D6 JUMP JUMPDEST JUMPDEST DUP3 DUP3 DIV SWAP1 POP SWAP3 SWAP2 POP POP JUMP JUMPDEST PUSH1 0x0 PUSH2 0x116A DUP3 PUSH2 0x118F JUMP JUMPDEST SWAP1 POP SWAP2 SWAP1 POP JUMP JUMPDEST PUSH1 0x0 PUSH2 0x117C DUP3 PUSH2 0x118F JUMP JUMPDEST SWAP1 POP SWAP2 SWAP1 POP JUMP JUMPDEST PUSH1 0x0 DUP2 ISZERO ISZERO SWAP1 POP SWAP2 SWAP1 POP JUMP JUMPDEST PUSH1 0x0 PUSH20 0xFFFFFFFFFFFFFFFFFFFFFFFFFFFFFFFFFFFFFFFF DUP3 AND SWAP1 POP SWAP2 SWAP1 POP JUMP JUMPDEST PUSH1 0x0 DUP2 SWAP1 POP SWAP2 SWAP1 POP JUMP JUMPDEST DUP3 DUP2 DUP4 CALLDATACOPY PUSH1 0x0 DUP4 DUP4 ADD MSTORE POP POP POP JUMP JUMPDEST PUSH1 0x0 JUMPDEST DUP4 DUP2 LT ISZERO PUSH2 0x11E6 JUMPI DUP1 DUP3 ADD MLOAD DUP2 DUP5 ADD MSTORE PUSH1 0x20 DUP2 ADD SWAP1 POP PUSH2 0x11CB JUMP JUMPDEST DUP4 DUP2 GT ISZERO PUSH2 0x11F5 JUMPI PUSH1 0x0 DUP5 DUP5 ADD MSTORE JUMPDEST POP POP POP POP JUMP JUMPDEST PUSH1 0x0 PUSH1 0x2 DUP3 DIV SWAP1 POP PUSH1 0x1 DUP3 AND DUP1 PUSH2 0x1213 JUMPI PUSH1 0x7F DUP3 AND SWAP2 POP JUMPDEST PUSH1 0x20 DUP3 LT DUP2 EQ ISZERO PUSH2 0x1227 JUMPI PUSH2 0x1226 PUSH2 0x1305 JUMP JUMPDEST JUMPDEST POP SWAP2 SWAP1 POP JUMP JUMPDEST PUSH2 0x1236 DUP3 PUSH2 0x1377 JUMP JUMPDEST DUP2 ADD DUP2 DUP2 LT PUSH8 0xFFFFFFFFFFFFFFFF DUP3 GT OR ISZERO PUSH2 0x1255 JUMPI PUSH2 0x1254 PUSH2 0x1334 JUMP JUMPDEST JUMPDEST DUP1 PUSH1 0x40 MSTORE POP POP POP JUMP JUMPDEST PUSH1 0x0 PUSH2 0x1269 DUP3 PUSH2 0x11AF JUMP JUMPDEST SWAP2 POP PUSH32 0xFFFFFFFFFFFFFFFFFFFFFFFFFFFFFFFFFFFFFFFFFFFFFFFFFFFFFFFFFFFFFFFF DUP3 EQ ISZERO PUSH2 0x129C JUMPI PUSH2 0x129B PUSH2 0x12A7 JUMP JUMPDEST JUMPDEST PUSH1 0x1 DUP3 ADD SWAP1 POP SWAP2 SWAP1 POP JUMP JUMPDEST PUSH32 0x4E487B7100000000000000000000000000000000000000000000000000000000 PUSH1 0x0 MSTORE PUSH1 0x11 PUSH1 0x4 MSTORE PUSH1 0x24 PUSH1 0x0 REVERT JUMPDEST PUSH32 0x4E487B7100000000000000000000000000000000000000000000000000000000 PUSH1 0x0 MSTORE PUSH1 0x12 PUSH1 0x4 MSTORE PUSH1 0x24 PUSH1 0x0 REVERT JUMPDEST PUSH32 0x4E487B7100000000000000000000000000000000000000000000000000000000 PUSH1 0x0 MSTORE PUSH1 0x22 PUSH1 0x4 MSTORE PUSH1 0x24 PUSH1 0x0 REVERT JUMPDEST PUSH32 0x4E487B7100000000000000000000000000000000000000000000000000000000 PUSH1 0x0 MSTORE PUSH1 0x41 PUSH1 0x4 MSTORE PUSH1 0x24 PUSH1 0x0 REVERT JUMPDEST PUSH1 0x0 DUP1 REVERT JUMPDEST PUSH1 0x0 DUP1 REVERT JUMPDEST PUSH1 0x0 DUP1 REVERT JUMPDEST PUSH1 0x0 DUP1 REVERT JUMPDEST PUSH1 0x0 PUSH1 0x1F NOT PUSH1 0x1F DUP4 ADD AND SWAP1 POP SWAP2 SWAP1 POP JUMP JUMPDEST PUSH32 0x476F616C20666F722066756E64696E6720686173206265656E20726561636865 PUSH1 0x0 DUP3 ADD MSTORE PUSH32 0x6400000000000000000000000000000000000000000000000000000000000000 PUSH1 0x20 DUP3 ADD MSTORE POP JUMP JUMPDEST PUSH32 0x596F75206D757374206265206120636F6E7472696275746F7220746F20626520 PUSH1 0x0 DUP3 ADD MSTORE PUSH32 0x61626C6520746F20766F74650000000000000000000000000000000000000000 PUSH1 0x20 DUP3 ADD MSTORE POP JUMP JUMPDEST PUSH32 0x46756E64696E672074696D65206672616D652069732079657420746F20657870 PUSH1 0x0 DUP3 ADD MSTORE PUSH32 0x6972650000000000000000000000000000000000000000000000000000000000 PUSH1 0x20 DUP3 ADD MSTORE POP JUMP JUMPDEST PUSH32 0x596F7520617265206E6F7420616E206578697374696E6720636F6E7472696275 PUSH1 0x0 DUP3 ADD MSTORE PUSH32 0x746F720000000000000000000000000000000000000000000000000000000000 PUSH1 0x20 DUP3 ADD MSTORE POP JUMP JUMPDEST PUSH32 0x416D6F756E74206D7573742062652067726561746572207468616E2074686520 PUSH1 0x0 DUP3 ADD MSTORE PUSH32 0x6D696E696D756D20616D6F756E74000000000000000000000000000000000000 PUSH1 0x20 DUP3 ADD MSTORE POP JUMP JUMPDEST PUSH32 0x54696D65206672616D652073657420666F722066756E64696E67206861732065 PUSH1 0x0 DUP3 ADD MSTORE PUSH32 0x6C61737065640000000000000000000000000000000000000000000000000000 PUSH1 0x20 DUP3 ADD MSTORE POP JUMP JUMPDEST PUSH2 0x156B DUP2 PUSH2 0x115F JUMP JUMPDEST DUP2 EQ PUSH2 0x1576 JUMPI PUSH1 0x0 DUP1 REVERT JUMPDEST POP JUMP JUMPDEST PUSH2 0x1582 DUP2 PUSH2 0x1171 JUMP JUMPDEST DUP2 EQ PUSH2 0x158D JUMPI PUSH1 0x0 DUP1 REVERT JUMPDEST POP JUMP JUMPDEST PUSH2 0x1599 DUP2 PUSH2 0x11AF JUMP JUMPDEST DUP2 EQ PUSH2 0x15A4 JUMPI PUSH1 0x0 DUP1 REVERT JUMPDEST POP JUMP INVALID LOG2 PUSH5 0x6970667358 0x22 SLT KECCAK256 0x29 CREATE2 0x5D PUSH7 0xF2ECCB06AAE0A8 PUSH32 0x30A32A34FAE92C7F10D12E2A3EB40E402F3BAAD664736F6C6343000807003300 "
				},
				"gasEstimates": {
					"creation": {
						"codeDepositCost": "1119400",
						"executionCost": "infinite",
						"totalCost": "infinite"
					},
					"external": {
						"admin()": "2602",
						"contribute()": "infinite",
						"contributors(address)": "2837",
						"createRequest(string,uint256,address)": "infinite",
						"deadLine()": "2518",
						"getBalance()": "385",
						"getRefund()": "infinite",
						"goal()": "2474",
						"makePayment(uint256)": "infinite",
						"minimumAmount()": "2496",
						"noOfRequests()": "2451",
						"numberOfContributors()": "2496",
						"request(uint256)": "infinite",
						"totalAmount()": "2497",
						"vote(uint256)": "infinite"
					}
				},
				"methodIdentifiers": {
					"admin()": "f851a440",
					"contribute()": "d7bb99ba",
					"contributors(address)": "1f6d4942",
					"createRequest(string,uint256,address)": "8a9cfd55",
					"deadLine()": "bef3a083",
					"getBalance()": "12065fe0",
					"getRefund()": "b2d5ae44",
					"goal()": "40193883",
					"makePayment(uint256)": "5114cb52",
					"minimumAmount()": "bb0c8298",
					"noOfRequests()": "c1f11b4c",
					"numberOfContributors()": "4377cf65",
					"request(uint256)": "d845a4b3",
					"totalAmount()": "1a39d8ef",
					"vote(uint256)": "0121b93f"
				}
			},
			"storageLayout": {
				"storage": [
					{
						"astId": 5,
						"contract": "contracts/Crowdfunding.sol:CrowdFunding",
						"label": "contributors",
						"offset": 0,
						"slot": "0",
						"type": "t_mapping(t_address,t_uint256)"
					},
					{
						"astId": 7,
						"contract": "contracts/Crowdfunding.sol:CrowdFunding",
						"label": "admin",
						"offset": 0,
						"slot": "1",
						"type": "t_address"
					},
					{
						"astId": 9,
						"contract": "contracts/Crowdfunding.sol:CrowdFunding",
						"label": "goal",
						"offset": 0,
						"slot": "2",
						"type": "t_uint256"
					},
					{
						"astId": 11,
						"contract": "contracts/Crowdfunding.sol:CrowdFunding",
						"label": "deadLine",
						"offset": 0,
						"slot": "3",
						"type": "t_uint256"
					},
					{
						"astId": 13,
						"contract": "contracts/Crowdfunding.sol:CrowdFunding",
						"label": "minimumAmount",
						"offset": 0,
						"slot": "4",
						"type": "t_uint256"
					},
					{
						"astId": 15,
						"contract": "contracts/Crowdfunding.sol:CrowdFunding",
						"label": "totalAmount",
						"offset": 0,
						"slot": "5",
						"type": "t_uint256"
					},
					{
						"astId": 17,
						"contract": "contracts/Crowdfunding.sol:CrowdFunding",
						"label": "numberOfContributors",
						"offset": 0,
						"slot": "6",
						"type": "t_uint256"
					},
					{
						"astId": 36,
						"contract": "contracts/Crowdfunding.sol:CrowdFunding",
						"label": "noOfRequests",
						"offset": 0,
						"slot": "7",
						"type": "t_uint256"
					},
					{
						"astId": 41,
						"contract": "contracts/Crowdfunding.sol:CrowdFunding",
						"label": "request",
						"offset": 0,
						"slot": "8",
						"type": "t_mapping(t_uint256,t_struct(Request)34_storage)"
					}
				],
				"types": {
					"t_address": {
						"encoding": "inplace",
						"label": "address",
						"numberOfBytes": "20"
					},
					"t_address_payable": {
						"encoding": "inplace",
						"label": "address payable",
						"numberOfBytes": "20"
					},
					"t_bool": {
						"encoding": "inplace",
						"label": "bool",
						"numberOfBytes": "1"
					},
					"t_mapping(t_address,t_bool)": {
						"encoding": "mapping",
						"key": "t_address",
						"label": "mapping(address => bool)",
						"numberOfBytes": "32",
						"value": "t_bool"
					},
					"t_mapping(t_address,t_uint256)": {
						"encoding": "mapping",
						"key": "t_address",
						"label": "mapping(address => uint256)",
						"numberOfBytes": "32",
						"value": "t_uint256"
					},
					"t_mapping(t_uint256,t_struct(Request)34_storage)": {
						"encoding": "mapping",
						"key": "t_uint256",
						"label": "mapping(uint256 => struct CrowdFunding.Request)",
						"numberOfBytes": "32",
						"value": "t_struct(Request)34_storage"
					},
					"t_string_storage": {
						"encoding": "bytes",
						"label": "string",
						"numberOfBytes": "32"
					},
					"t_struct(Request)34_storage": {
						"encoding": "inplace",
						"label": "struct CrowdFunding.Request",
						"members": [
							{
								"astId": 19,
								"contract": "contracts/Crowdfunding.sol:CrowdFunding",
								"label": "description",
								"offset": 0,
								"slot": "0",
								"type": "t_string_storage"
							},
							{
								"astId": 21,
								"contract": "contracts/Crowdfunding.sol:CrowdFunding",
								"label": "amount",
								"offset": 0,
								"slot": "1",
								"type": "t_uint256"
							},
							{
								"astId": 23,
								"contract": "contracts/Crowdfunding.sol:CrowdFunding",
								"label": "receiver",
								"offset": 0,
								"slot": "2",
								"type": "t_address_payable"
							},
							{
								"astId": 25,
								"contract": "contracts/Crowdfunding.sol:CrowdFunding",
								"label": "createdAt",
								"offset": 0,
								"slot": "3",
								"type": "t_uint256"
							},
							{
								"astId": 27,
								"contract": "contracts/Crowdfunding.sol:CrowdFunding",
								"label": "noOfVoters",
								"offset": 0,
								"slot": "4",
								"type": "t_uint256"
							},
							{
								"astId": 29,
								"contract": "contracts/Crowdfunding.sol:CrowdFunding",
								"label": "fundReleaseStatus",
								"offset": 0,
								"slot": "5",
								"type": "t_bool"
							},
							{
								"astId": 33,
								"contract": "contracts/Crowdfunding.sol:CrowdFunding",
								"label": "votingDetails",
								"offset": 0,
								"slot": "6",
								"type": "t_mapping(t_address,t_bool)"
							}
						],
						"numberOfBytes": "224"
					},
					"t_uint256": {
						"encoding": "inplace",
						"label": "uint256",
						"numberOfBytes": "32"
					}
				}
			},
			"userdoc": {
				"kind": "user",
				"methods": {},
				"version": 1
			}
		}
	}
}