{
	"contracts/artifacts/functionsVariables.sol": {
		"functionsVariable": {
			"abi": [
				{
					"inputs": [
						{
							"internalType": "int256",
							"name": "_price",
							"type": "int256"
						},
						{
							"internalType": "string",
							"name": "_location",
							"type": "string"
						}
					],
					"stateMutability": "nonpayable",
					"type": "constructor"
				},
				{
					"inputs": [],
					"name": "area",
					"outputs": [
						{
							"internalType": "int256",
							"name": "",
							"type": "int256"
						}
					],
					"stateMutability": "view",
					"type": "function"
				},
				{
					"inputs": [],
					"name": "location",
					"outputs": [
						{
							"internalType": "string",
							"name": "",
							"type": "string"
						}
					],
					"stateMutability": "view",
					"type": "function"
				},
				{
					"inputs": [],
					"name": "owner",
					"outputs": [
						{
							"internalType": "address",
							"name": "",
							"type": "address"
						}
					],
					"stateMutability": "view",
					"type": "function"
				},
				{
					"inputs": [],
					"name": "price",
					"outputs": [
						{
							"internalType": "int256",
							"name": "",
							"type": "int256"
						}
					],
					"stateMutability": "view",
					"type": "function"
				}
			],
			"devdoc": {
				"kind": "dev",
				"methods": {},
				"version": 1
			},
			"evm": {
				"assembly": "    /* \"contracts/artifacts/functionsVariables.sol\":0:463  contract functionsVariable{\r... */\n  mstore(0x40, 0xa0)\n    /* \"contracts/artifacts/functionsVariables.sol\":369:458  constructor(int _price, string memory _location){\r... */\n  callvalue\n  dup1\n  iszero\n  tag_1\n  jumpi\n  0x00\n  dup1\n  revert\ntag_1:\n  pop\n  mload(0x40)\n  sub(codesize, bytecodeSize)\n  dup1\n  bytecodeSize\n  dup4\n  codecopy\n  dup2\n  dup2\n  add\n  0x40\n  mstore\n  dup2\n  add\n  swap1\n  tag_2\n  swap2\n  swap1\n  tag_3\n  jump\t// in\ntag_2:\n    /* \"contracts/artifacts/functionsVariables.sol\":436:446  msg.sender */\n  caller\n    /* \"contracts/artifacts/functionsVariables.sol\":428:446  owner = msg.sender */\n  0xffffffffffffffffffffffffffffffffffffffff\n  and\n  0x80\n  dup2\n  0xffffffffffffffffffffffffffffffffffffffff\n  and\n  0x60\n  shl\n  dup2\n  mstore\n  pop\n  pop\n    /* \"contracts/artifacts/functionsVariables.sol\":369:458  constructor(int _price, string memory _location){\r... */\n  pop\n  pop\n    /* \"contracts/artifacts/functionsVariables.sol\":0:463  contract functionsVariable{\r... */\n  jump(tag_6)\n    /* \"#utility.yul\":7:428   */\ntag_8:\n    /* \"#utility.yul\":96:101   */\n  0x00\n    /* \"#utility.yul\":121:187   */\n  tag_10\n    /* \"#utility.yul\":137:186   */\n  tag_11\n    /* \"#utility.yul\":179:185   */\n  dup5\n    /* \"#utility.yul\":137:186   */\n  tag_12\n  jump\t// in\ntag_11:\n    /* \"#utility.yul\":121:187   */\n  tag_13\n  jump\t// in\ntag_10:\n    /* \"#utility.yul\":112:187   */\n  swap1\n  pop\n    /* \"#utility.yul\":210:216   */\n  dup3\n    /* \"#utility.yul\":203:208   */\n  dup2\n    /* \"#utility.yul\":196:217   */\n  mstore\n    /* \"#utility.yul\":248:252   */\n  0x20\n    /* \"#utility.yul\":241:246   */\n  dup2\n    /* \"#utility.yul\":237:253   */\n  add\n    /* \"#utility.yul\":286:289   */\n  dup5\n    /* \"#utility.yul\":277:283   */\n  dup5\n    /* \"#utility.yul\":272:275   */\n  dup5\n    /* \"#utility.yul\":268:284   */\n  add\n    /* \"#utility.yul\":265:290   */\n  gt\n    /* \"#utility.yul\":262:374   */\n  iszero\n  tag_14\n  jumpi\n    /* \"#utility.yul\":293:372   */\n  tag_15\n  tag_16\n  jump\t// in\ntag_15:\n    /* \"#utility.yul\":262:374   */\ntag_14:\n    /* \"#utility.yul\":383:422   */\n  tag_17\n    /* \"#utility.yul\":415:421   */\n  dup5\n    /* \"#utility.yul\":410:413   */\n  dup3\n    /* \"#utility.yul\":405:408   */\n  dup6\n    /* \"#utility.yul\":383:422   */\n  tag_18\n  jump\t// in\ntag_17:\n    /* \"#utility.yul\":102:428   */\n  pop\n    /* \"#utility.yul\":7:428   */\n  swap4\n  swap3\n  pop\n  pop\n  pop\n  jump\t// out\n    /* \"#utility.yul\":434:575   */\ntag_19:\n    /* \"#utility.yul\":490:495   */\n  0x00\n    /* \"#utility.yul\":521:527   */\n  dup2\n    /* \"#utility.yul\":515:528   */\n  mload\n    /* \"#utility.yul\":506:528   */\n  swap1\n  pop\n    /* \"#utility.yul\":537:569   */\n  tag_21\n    /* \"#utility.yul\":563:568   */\n  dup2\n    /* \"#utility.yul\":537:569   */\n  tag_22\n  jump\t// in\ntag_21:\n    /* \"#utility.yul\":434:575   */\n  swap3\n  swap2\n  pop\n  pop\n  jump\t// out\n    /* \"#utility.yul\":595:950   */\ntag_23:\n    /* \"#utility.yul\":662:667   */\n  0x00\n    /* \"#utility.yul\":711:714   */\n  dup3\n    /* \"#utility.yul\":704:708   */\n  0x1f\n    /* \"#utility.yul\":696:702   */\n  dup4\n    /* \"#utility.yul\":692:709   */\n  add\n    /* \"#utility.yul\":688:715   */\n  slt\n    /* \"#utility.yul\":678:800   */\n  tag_25\n  jumpi\n    /* \"#utility.yul\":719:798   */\n  tag_26\n  tag_27\n  jump\t// in\ntag_26:\n    /* \"#utility.yul\":678:800   */\ntag_25:\n    /* \"#utility.yul\":829:835   */\n  dup2\n    /* \"#utility.yul\":823:836   */\n  mload\n    /* \"#utility.yul\":854:944   */\n  tag_28\n    /* \"#utility.yul\":940:943   */\n  dup5\n    /* \"#utility.yul\":932:938   */\n  dup3\n    /* \"#utility.yul\":925:929   */\n  0x20\n    /* \"#utility.yul\":917:923   */\n  dup7\n    /* \"#utility.yul\":913:930   */\n  add\n    /* \"#utility.yul\":854:944   */\n  tag_8\n  jump\t// in\ntag_28:\n    /* \"#utility.yul\":845:944   */\n  swap2\n  pop\n    /* \"#utility.yul\":668:950   */\n  pop\n    /* \"#utility.yul\":595:950   */\n  swap3\n  swap2\n  pop\n  pop\n  jump\t// out\n    /* \"#utility.yul\":956:1634   */\ntag_3:\n    /* \"#utility.yul\":1044:1050   */\n  0x00\n    /* \"#utility.yul\":1052:1058   */\n  dup1\n    /* \"#utility.yul\":1101:1103   */\n  0x40\n    /* \"#utility.yul\":1089:1098   */\n  dup4\n    /* \"#utility.yul\":1080:1087   */\n  dup6\n    /* \"#utility.yul\":1076:1099   */\n  sub\n    /* \"#utility.yul\":1072:1104   */\n  slt\n    /* \"#utility.yul\":1069:1188   */\n  iszero\n  tag_30\n  jumpi\n    /* \"#utility.yul\":1107:1186   */\n  tag_31\n  tag_32\n  jump\t// in\ntag_31:\n    /* \"#utility.yul\":1069:1188   */\ntag_30:\n    /* \"#utility.yul\":1227:1228   */\n  0x00\n    /* \"#utility.yul\":1252:1315   */\n  tag_33\n    /* \"#utility.yul\":1307:1314   */\n  dup6\n    /* \"#utility.yul\":1298:1304   */\n  dup3\n    /* \"#utility.yul\":1287:1296   */\n  dup7\n    /* \"#utility.yul\":1283:1305   */\n  add\n    /* \"#utility.yul\":1252:1315   */\n  tag_19\n  jump\t// in\ntag_33:\n    /* \"#utility.yul\":1242:1315   */\n  swap3\n  pop\n    /* \"#utility.yul\":1198:1325   */\n  pop\n    /* \"#utility.yul\":1385:1387   */\n  0x20\n    /* \"#utility.yul\":1374:1383   */\n  dup4\n    /* \"#utility.yul\":1370:1388   */\n  add\n    /* \"#utility.yul\":1364:1389   */\n  mload\n    /* \"#utility.yul\":1416:1434   */\n  0xffffffffffffffff\n    /* \"#utility.yul\":1408:1414   */\n  dup2\n    /* \"#utility.yul\":1405:1435   */\n  gt\n    /* \"#utility.yul\":1402:1519   */\n  iszero\n  tag_34\n  jumpi\n    /* \"#utility.yul\":1438:1517   */\n  tag_35\n  tag_36\n  jump\t// in\ntag_35:\n    /* \"#utility.yul\":1402:1519   */\ntag_34:\n    /* \"#utility.yul\":1543:1617   */\n  tag_37\n    /* \"#utility.yul\":1609:1616   */\n  dup6\n    /* \"#utility.yul\":1600:1606   */\n  dup3\n    /* \"#utility.yul\":1589:1598   */\n  dup7\n    /* \"#utility.yul\":1585:1607   */\n  add\n    /* \"#utility.yul\":1543:1617   */\n  tag_23\n  jump\t// in\ntag_37:\n    /* \"#utility.yul\":1533:1617   */\n  swap2\n  pop\n    /* \"#utility.yul\":1335:1627   */\n  pop\n    /* \"#utility.yul\":956:1634   */\n  swap3\n  pop\n  swap3\n  swap1\n  pop\n  jump\t// out\n    /* \"#utility.yul\":1640:1769   */\ntag_13:\n    /* \"#utility.yul\":1674:1680   */\n  0x00\n    /* \"#utility.yul\":1701:1721   */\n  tag_39\n  tag_40\n  jump\t// in\ntag_39:\n    /* \"#utility.yul\":1691:1721   */\n  swap1\n  pop\n    /* \"#utility.yul\":1730:1763   */\n  tag_41\n    /* \"#utility.yul\":1758:1762   */\n  dup3\n    /* \"#utility.yul\":1750:1756   */\n  dup3\n    /* \"#utility.yul\":1730:1763   */\n  tag_42\n  jump\t// in\ntag_41:\n    /* \"#utility.yul\":1640:1769   */\n  swap2\n  swap1\n  pop\n  jump\t// out\n    /* \"#utility.yul\":1775:1850   */\ntag_40:\n    /* \"#utility.yul\":1808:1814   */\n  0x00\n    /* \"#utility.yul\":1841:1843   */\n  0x40\n    /* \"#utility.yul\":1835:1844   */\n  mload\n    /* \"#utility.yul\":1825:1844   */\n  swap1\n  pop\n    /* \"#utility.yul\":1775:1850   */\n  swap1\n  jump\t// out\n    /* \"#utility.yul\":1856:2164   */\ntag_12:\n    /* \"#utility.yul\":1918:1922   */\n  0x00\n    /* \"#utility.yul\":2008:2026   */\n  0xffffffffffffffff\n    /* \"#utility.yul\":2000:2006   */\n  dup3\n    /* \"#utility.yul\":1997:2027   */\n  gt\n    /* \"#utility.yul\":1994:2050   */\n  iszero\n  tag_45\n  jumpi\n    /* \"#utility.yul\":2030:2048   */\n  tag_46\n  tag_47\n  jump\t// in\ntag_46:\n    /* \"#utility.yul\":1994:2050   */\ntag_45:\n    /* \"#utility.yul\":2068:2097   */\n  tag_48\n    /* \"#utility.yul\":2090:2096   */\n  dup3\n    /* \"#utility.yul\":2068:2097   */\n  tag_49\n  jump\t// in\ntag_48:\n    /* \"#utility.yul\":2060:2097   */\n  swap1\n  pop\n    /* \"#utility.yul\":2152:2156   */\n  0x20\n    /* \"#utility.yul\":2146:2150   */\n  dup2\n    /* \"#utility.yul\":2142:2157   */\n  add\n    /* \"#utility.yul\":2134:2157   */\n  swap1\n  pop\n    /* \"#utility.yul\":1856:2164   */\n  swap2\n  swap1\n  pop\n  jump\t// out\n    /* \"#utility.yul\":2170:2246   */\ntag_50:\n    /* \"#utility.yul\":2206:2213   */\n  0x00\n    /* \"#utility.yul\":2235:2240   */\n  dup2\n    /* \"#utility.yul\":2224:2240   */\n  swap1\n  pop\n    /* \"#utility.yul\":2170:2246   */\n  swap2\n  swap1\n  pop\n  jump\t// out\n    /* \"#utility.yul\":2252:2559   */\ntag_18:\n    /* \"#utility.yul\":2320:2321   */\n  0x00\n    /* \"#utility.yul\":2330:2443   */\ntag_53:\n    /* \"#utility.yul\":2344:2350   */\n  dup4\n    /* \"#utility.yul\":2341:2342   */\n  dup2\n    /* \"#utility.yul\":2338:2351   */\n  lt\n    /* \"#utility.yul\":2330:2443   */\n  iszero\n  tag_55\n  jumpi\n    /* \"#utility.yul\":2429:2430   */\n  dup1\n    /* \"#utility.yul\":2424:2427   */\n  dup3\n    /* \"#utility.yul\":2420:2431   */\n  add\n    /* \"#utility.yul\":2414:2432   */\n  mload\n    /* \"#utility.yul\":2410:2411   */\n  dup2\n    /* \"#utility.yul\":2405:2408   */\n  dup5\n    /* \"#utility.yul\":2401:2412   */\n  add\n    /* \"#utility.yul\":2394:2433   */\n  mstore\n    /* \"#utility.yul\":2366:2368   */\n  0x20\n    /* \"#utility.yul\":2363:2364   */\n  dup2\n    /* \"#utility.yul\":2359:2369   */\n  add\n    /* \"#utility.yul\":2354:2369   */\n  swap1\n  pop\n    /* \"#utility.yul\":2330:2443   */\n  jump(tag_53)\ntag_55:\n    /* \"#utility.yul\":2461:2467   */\n  dup4\n    /* \"#utility.yul\":2458:2459   */\n  dup2\n    /* \"#utility.yul\":2455:2468   */\n  gt\n    /* \"#utility.yul\":2452:2553   */\n  iszero\n  tag_56\n  jumpi\n    /* \"#utility.yul\":2541:2542   */\n  0x00\n    /* \"#utility.yul\":2532:2538   */\n  dup5\n    /* \"#utility.yul\":2527:2530   */\n  dup5\n    /* \"#utility.yul\":2523:2539   */\n  add\n    /* \"#utility.yul\":2516:2543   */\n  mstore\n    /* \"#utility.yul\":2452:2553   */\ntag_56:\n    /* \"#utility.yul\":2301:2559   */\n  pop\n    /* \"#utility.yul\":2252:2559   */\n  pop\n  pop\n  pop\n  jump\t// out\n    /* \"#utility.yul\":2565:2846   */\ntag_42:\n    /* \"#utility.yul\":2648:2675   */\n  tag_58\n    /* \"#utility.yul\":2670:2674   */\n  dup3\n    /* \"#utility.yul\":2648:2675   */\n  tag_49\n  jump\t// in\ntag_58:\n    /* \"#utility.yul\":2640:2646   */\n  dup2\n    /* \"#utility.yul\":2636:2676   */\n  add\n    /* \"#utility.yul\":2778:2784   */\n  dup2\n    /* \"#utility.yul\":2766:2776   */\n  dup2\n    /* \"#utility.yul\":2763:2785   */\n  lt\n    /* \"#utility.yul\":2742:2760   */\n  0xffffffffffffffff\n    /* \"#utility.yul\":2730:2740   */\n  dup3\n    /* \"#utility.yul\":2727:2761   */\n  gt\n    /* \"#utility.yul\":2724:2786   */\n  or\n    /* \"#utility.yul\":2721:2809   */\n  iszero\n  tag_59\n  jumpi\n    /* \"#utility.yul\":2789:2807   */\n  tag_60\n  tag_47\n  jump\t// in\ntag_60:\n    /* \"#utility.yul\":2721:2809   */\ntag_59:\n    /* \"#utility.yul\":2829:2839   */\n  dup1\n    /* \"#utility.yul\":2825:2827   */\n  0x40\n    /* \"#utility.yul\":2818:2840   */\n  mstore\n    /* \"#utility.yul\":2608:2846   */\n  pop\n    /* \"#utility.yul\":2565:2846   */\n  pop\n  pop\n  jump\t// out\n    /* \"#utility.yul\":2852:3032   */\ntag_47:\n    /* \"#utility.yul\":2900:2977   */\n  0x4e487b7100000000000000000000000000000000000000000000000000000000\n    /* \"#utility.yul\":2897:2898   */\n  0x00\n    /* \"#utility.yul\":2890:2978   */\n  mstore\n    /* \"#utility.yul\":2997:3001   */\n  0x41\n    /* \"#utility.yul\":2994:2995   */\n  0x04\n    /* \"#utility.yul\":2987:3002   */\n  mstore\n    /* \"#utility.yul\":3021:3025   */\n  0x24\n    /* \"#utility.yul\":3018:3019   */\n  0x00\n    /* \"#utility.yul\":3011:3026   */\n  revert\n    /* \"#utility.yul\":3038:3155   */\ntag_27:\n    /* \"#utility.yul\":3147:3148   */\n  0x00\n    /* \"#utility.yul\":3144:3145   */\n  dup1\n    /* \"#utility.yul\":3137:3149   */\n  revert\n    /* \"#utility.yul\":3161:3278   */\ntag_16:\n    /* \"#utility.yul\":3270:3271   */\n  0x00\n    /* \"#utility.yul\":3267:3268   */\n  dup1\n    /* \"#utility.yul\":3260:3272   */\n  revert\n    /* \"#utility.yul\":3284:3401   */\ntag_36:\n    /* \"#utility.yul\":3393:3394   */\n  0x00\n    /* \"#utility.yul\":3390:3391   */\n  dup1\n    /* \"#utility.yul\":3383:3395   */\n  revert\n    /* \"#utility.yul\":3407:3524   */\ntag_32:\n    /* \"#utility.yul\":3516:3517   */\n  0x00\n    /* \"#utility.yul\":3513:3514   */\n  dup1\n    /* \"#utility.yul\":3506:3518   */\n  revert\n    /* \"#utility.yul\":3530:3632   */\ntag_49:\n    /* \"#utility.yul\":3571:3577   */\n  0x00\n    /* \"#utility.yul\":3622:3624   */\n  0x1f\n    /* \"#utility.yul\":3618:3625   */\n  not\n    /* \"#utility.yul\":3613:3615   */\n  0x1f\n    /* \"#utility.yul\":3606:3611   */\n  dup4\n    /* \"#utility.yul\":3602:3616   */\n  add\n    /* \"#utility.yul\":3598:3626   */\n  and\n    /* \"#utility.yul\":3588:3626   */\n  swap1\n  pop\n    /* \"#utility.yul\":3530:3632   */\n  swap2\n  swap1\n  pop\n  jump\t// out\n    /* \"#utility.yul\":3638:3758   */\ntag_22:\n    /* \"#utility.yul\":3710:3733   */\n  tag_68\n    /* \"#utility.yul\":3727:3732   */\n  dup2\n    /* \"#utility.yul\":3710:3733   */\n  tag_50\n  jump\t// in\ntag_68:\n    /* \"#utility.yul\":3703:3708   */\n  dup2\n    /* \"#utility.yul\":3700:3734   */\n  eq\n    /* \"#utility.yul\":3690:3752   */\n  tag_69\n  jumpi\n    /* \"#utility.yul\":3748:3749   */\n  0x00\n    /* \"#utility.yul\":3745:3746   */\n  dup1\n    /* \"#utility.yul\":3738:3750   */\n  revert\n    /* \"#utility.yul\":3690:3752   */\ntag_69:\n    /* \"#utility.yul\":3638:3758   */\n  pop\n  jump\t// out\n    /* \"contracts/artifacts/functionsVariables.sol\":0:463  contract functionsVariable{\r... */\ntag_6:\n  shr(0x60, mload(0x80))\n  codecopy(0x00, dataOffset(sub_0), dataSize(sub_0))\n  0x00\n  assignImmutable(\"0xe455bf8ea6e7463a1046a0b52804526e119b4bf5136279614e0b1e8e296a4e2d\")\n  return(0x00, dataSize(sub_0))\nstop\n\nsub_0: assembly {\n        /* \"contracts/artifacts/functionsVariables.sol\":0:463  contract functionsVariable{\r... */\n      mstore(0x40, 0x80)\n      callvalue\n      dup1\n      iszero\n      tag_1\n      jumpi\n      0x00\n      dup1\n      revert\n    tag_1:\n      pop\n      jumpi(tag_2, lt(calldatasize, 0x04))\n      shr(0xe0, calldataload(0x00))\n      dup1\n      0x4d41892f\n      eq\n      tag_3\n      jumpi\n      dup1\n      0x516f279e\n      eq\n      tag_4\n      jumpi\n      dup1\n      0x8da5cb5b\n      eq\n      tag_5\n      jumpi\n      dup1\n      0xa035b1fe\n      eq\n      tag_6\n      jumpi\n    tag_2:\n      0x00\n      dup1\n      revert\n        /* \"contracts/artifacts/functionsVariables.sol\":330:360  int constant public area = 100 */\n    tag_3:\n      tag_7\n      tag_8\n      jump\t// in\n    tag_7:\n      mload(0x40)\n      tag_9\n      swap2\n      swap1\n      tag_10\n      jump\t// in\n    tag_9:\n      mload(0x40)\n      dup1\n      swap2\n      sub\n      swap1\n      return\n        /* \"contracts/artifacts/functionsVariables.sol\":77:99  string public location */\n    tag_4:\n      tag_11\n      tag_12\n      jump\t// in\n    tag_11:\n      mload(0x40)\n      tag_13\n      swap2\n      swap1\n      tag_14\n      jump\t// in\n    tag_13:\n      mload(0x40)\n      dup1\n      swap2\n      sub\n      swap1\n      return\n        /* \"contracts/artifacts/functionsVariables.sol\":218:248  address immutable public owner */\n    tag_5:\n      tag_15\n      tag_16\n      jump\t// in\n    tag_15:\n      mload(0x40)\n      tag_17\n      swap2\n      swap1\n      tag_18\n      jump\t// in\n    tag_17:\n      mload(0x40)\n      dup1\n      swap2\n      sub\n      swap1\n      return\n        /* \"contracts/artifacts/functionsVariables.sol\":35:51  int public price */\n    tag_6:\n      tag_19\n      tag_20\n      jump\t// in\n    tag_19:\n      mload(0x40)\n      tag_21\n      swap2\n      swap1\n      tag_10\n      jump\t// in\n    tag_21:\n      mload(0x40)\n      dup1\n      swap2\n      sub\n      swap1\n      return\n        /* \"contracts/artifacts/functionsVariables.sol\":330:360  int constant public area = 100 */\n    tag_8:\n        /* \"contracts/artifacts/functionsVariables.sol\":357:360  100 */\n      0x64\n        /* \"contracts/artifacts/functionsVariables.sol\":330:360  int constant public area = 100 */\n      dup2\n      jump\t// out\n        /* \"contracts/artifacts/functionsVariables.sol\":77:99  string public location */\n    tag_12:\n      0x01\n      dup1\n      sload\n      tag_22\n      swap1\n      tag_23\n      jump\t// in\n    tag_22:\n      dup1\n      0x1f\n      add\n      0x20\n      dup1\n      swap2\n      div\n      mul\n      0x20\n      add\n      mload(0x40)\n      swap1\n      dup2\n      add\n      0x40\n      mstore\n      dup1\n      swap3\n      swap2\n      swap1\n      dup2\n      dup2\n      mstore\n      0x20\n      add\n      dup3\n      dup1\n      sload\n      tag_24\n      swap1\n      tag_23\n      jump\t// in\n    tag_24:\n      dup1\n      iszero\n      tag_25\n      jumpi\n      dup1\n      0x1f\n      lt\n      tag_26\n      jumpi\n      0x0100\n      dup1\n      dup4\n      sload\n      div\n      mul\n      dup4\n      mstore\n      swap2\n      0x20\n      add\n      swap2\n      jump(tag_25)\n    tag_26:\n      dup3\n      add\n      swap2\n      swap1\n      0x00\n      mstore\n      keccak256(0x00, 0x20)\n      swap1\n    tag_27:\n      dup2\n      sload\n      dup2\n      mstore\n      swap1\n      0x01\n      add\n      swap1\n      0x20\n      add\n      dup1\n      dup4\n      gt\n      tag_27\n      jumpi\n      dup3\n      swap1\n      sub\n      0x1f\n      and\n      dup3\n      add\n      swap2\n    tag_25:\n      pop\n      pop\n      pop\n      pop\n      pop\n      dup2\n      jump\t// out\n        /* \"contracts/artifacts/functionsVariables.sol\":218:248  address immutable public owner */\n    tag_16:\n      immutable(\"0xe455bf8ea6e7463a1046a0b52804526e119b4bf5136279614e0b1e8e296a4e2d\")\n      dup2\n      jump\t// out\n        /* \"contracts/artifacts/functionsVariables.sol\":35:51  int public price */\n    tag_20:\n      sload(0x00)\n      dup2\n      jump\t// out\n        /* \"#utility.yul\":7:125   */\n    tag_29:\n        /* \"#utility.yul\":94:118   */\n      tag_31\n        /* \"#utility.yul\":112:117   */\n      dup2\n        /* \"#utility.yul\":94:118   */\n      tag_32\n      jump\t// in\n    tag_31:\n        /* \"#utility.yul\":89:92   */\n      dup3\n        /* \"#utility.yul\":82:119   */\n      mstore\n        /* \"#utility.yul\":7:125   */\n      pop\n      pop\n      jump\t// out\n        /* \"#utility.yul\":131:246   */\n    tag_33:\n        /* \"#utility.yul\":216:239   */\n      tag_35\n        /* \"#utility.yul\":233:238   */\n      dup2\n        /* \"#utility.yul\":216:239   */\n      tag_36\n      jump\t// in\n    tag_35:\n        /* \"#utility.yul\":211:214   */\n      dup3\n        /* \"#utility.yul\":204:240   */\n      mstore\n        /* \"#utility.yul\":131:246   */\n      pop\n      pop\n      jump\t// out\n        /* \"#utility.yul\":252:616   */\n    tag_37:\n        /* \"#utility.yul\":340:343   */\n      0x00\n        /* \"#utility.yul\":368:407   */\n      tag_39\n        /* \"#utility.yul\":401:406   */\n      dup3\n        /* \"#utility.yul\":368:407   */\n      tag_40\n      jump\t// in\n    tag_39:\n        /* \"#utility.yul\":423:494   */\n      tag_41\n        /* \"#utility.yul\":487:493   */\n      dup2\n        /* \"#utility.yul\":482:485   */\n      dup6\n        /* \"#utility.yul\":423:494   */\n      tag_42\n      jump\t// in\n    tag_41:\n        /* \"#utility.yul\":416:494   */\n      swap4\n      pop\n        /* \"#utility.yul\":503:555   */\n      tag_43\n        /* \"#utility.yul\":548:554   */\n      dup2\n        /* \"#utility.yul\":543:546   */\n      dup6\n        /* \"#utility.yul\":536:540   */\n      0x20\n        /* \"#utility.yul\":529:534   */\n      dup7\n        /* \"#utility.yul\":525:541   */\n      add\n        /* \"#utility.yul\":503:555   */\n      tag_44\n      jump\t// in\n    tag_43:\n        /* \"#utility.yul\":580:609   */\n      tag_45\n        /* \"#utility.yul\":602:608   */\n      dup2\n        /* \"#utility.yul\":580:609   */\n      tag_46\n      jump\t// in\n    tag_45:\n        /* \"#utility.yul\":575:578   */\n      dup5\n        /* \"#utility.yul\":571:610   */\n      add\n        /* \"#utility.yul\":564:610   */\n      swap2\n      pop\n        /* \"#utility.yul\":344:616   */\n      pop\n        /* \"#utility.yul\":252:616   */\n      swap3\n      swap2\n      pop\n      pop\n      jump\t// out\n        /* \"#utility.yul\":622:844   */\n    tag_18:\n        /* \"#utility.yul\":715:719   */\n      0x00\n        /* \"#utility.yul\":753:755   */\n      0x20\n        /* \"#utility.yul\":742:751   */\n      dup3\n        /* \"#utility.yul\":738:756   */\n      add\n        /* \"#utility.yul\":730:756   */\n      swap1\n      pop\n        /* \"#utility.yul\":766:837   */\n      tag_48\n        /* \"#utility.yul\":834:835   */\n      0x00\n        /* \"#utility.yul\":823:832   */\n      dup4\n        /* \"#utility.yul\":819:836   */\n      add\n        /* \"#utility.yul\":810:816   */\n      dup5\n        /* \"#utility.yul\":766:837   */\n      tag_29\n      jump\t// in\n    tag_48:\n        /* \"#utility.yul\":622:844   */\n      swap3\n      swap2\n      pop\n      pop\n      jump\t// out\n        /* \"#utility.yul\":850:1068   */\n    tag_10:\n        /* \"#utility.yul\":941:945   */\n      0x00\n        /* \"#utility.yul\":979:981   */\n      0x20\n        /* \"#utility.yul\":968:977   */\n      dup3\n        /* \"#utility.yul\":964:982   */\n      add\n        /* \"#utility.yul\":956:982   */\n      swap1\n      pop\n        /* \"#utility.yul\":992:1061   */\n      tag_50\n        /* \"#utility.yul\":1058:1059   */\n      0x00\n        /* \"#utility.yul\":1047:1056   */\n      dup4\n        /* \"#utility.yul\":1043:1060   */\n      add\n        /* \"#utility.yul\":1034:1040   */\n      dup5\n        /* \"#utility.yul\":992:1061   */\n      tag_33\n      jump\t// in\n    tag_50:\n        /* \"#utility.yul\":850:1068   */\n      swap3\n      swap2\n      pop\n      pop\n      jump\t// out\n        /* \"#utility.yul\":1074:1387   */\n    tag_14:\n        /* \"#utility.yul\":1187:1191   */\n      0x00\n        /* \"#utility.yul\":1225:1227   */\n      0x20\n        /* \"#utility.yul\":1214:1223   */\n      dup3\n        /* \"#utility.yul\":1210:1228   */\n      add\n        /* \"#utility.yul\":1202:1228   */\n      swap1\n      pop\n        /* \"#utility.yul\":1274:1283   */\n      dup2\n        /* \"#utility.yul\":1268:1272   */\n      dup2\n        /* \"#utility.yul\":1264:1284   */\n      sub\n        /* \"#utility.yul\":1260:1261   */\n      0x00\n        /* \"#utility.yul\":1249:1258   */\n      dup4\n        /* \"#utility.yul\":1245:1262   */\n      add\n        /* \"#utility.yul\":1238:1285   */\n      mstore\n        /* \"#utility.yul\":1302:1380   */\n      tag_52\n        /* \"#utility.yul\":1375:1379   */\n      dup2\n        /* \"#utility.yul\":1366:1372   */\n      dup5\n        /* \"#utility.yul\":1302:1380   */\n      tag_37\n      jump\t// in\n    tag_52:\n        /* \"#utility.yul\":1294:1380   */\n      swap1\n      pop\n        /* \"#utility.yul\":1074:1387   */\n      swap3\n      swap2\n      pop\n      pop\n      jump\t// out\n        /* \"#utility.yul\":1393:1492   */\n    tag_40:\n        /* \"#utility.yul\":1445:1451   */\n      0x00\n        /* \"#utility.yul\":1479:1484   */\n      dup2\n        /* \"#utility.yul\":1473:1485   */\n      mload\n        /* \"#utility.yul\":1463:1485   */\n      swap1\n      pop\n        /* \"#utility.yul\":1393:1492   */\n      swap2\n      swap1\n      pop\n      jump\t// out\n        /* \"#utility.yul\":1498:1667   */\n    tag_42:\n        /* \"#utility.yul\":1582:1593   */\n      0x00\n        /* \"#utility.yul\":1616:1622   */\n      dup3\n        /* \"#utility.yul\":1611:1614   */\n      dup3\n        /* \"#utility.yul\":1604:1623   */\n      mstore\n        /* \"#utility.yul\":1656:1660   */\n      0x20\n        /* \"#utility.yul\":1651:1654   */\n      dup3\n        /* \"#utility.yul\":1647:1661   */\n      add\n        /* \"#utility.yul\":1632:1661   */\n      swap1\n      pop\n        /* \"#utility.yul\":1498:1667   */\n      swap3\n      swap2\n      pop\n      pop\n      jump\t// out\n        /* \"#utility.yul\":1673:1769   */\n    tag_32:\n        /* \"#utility.yul\":1710:1717   */\n      0x00\n        /* \"#utility.yul\":1739:1763   */\n      tag_56\n        /* \"#utility.yul\":1757:1762   */\n      dup3\n        /* \"#utility.yul\":1739:1763   */\n      tag_57\n      jump\t// in\n    tag_56:\n        /* \"#utility.yul\":1728:1763   */\n      swap1\n      pop\n        /* \"#utility.yul\":1673:1769   */\n      swap2\n      swap1\n      pop\n      jump\t// out\n        /* \"#utility.yul\":1775:1851   */\n    tag_36:\n        /* \"#utility.yul\":1811:1818   */\n      0x00\n        /* \"#utility.yul\":1840:1845   */\n      dup2\n        /* \"#utility.yul\":1829:1845   */\n      swap1\n      pop\n        /* \"#utility.yul\":1775:1851   */\n      swap2\n      swap1\n      pop\n      jump\t// out\n        /* \"#utility.yul\":1857:1983   */\n    tag_57:\n        /* \"#utility.yul\":1894:1901   */\n      0x00\n        /* \"#utility.yul\":1934:1976   */\n      0xffffffffffffffffffffffffffffffffffffffff\n        /* \"#utility.yul\":1927:1932   */\n      dup3\n        /* \"#utility.yul\":1923:1977   */\n      and\n        /* \"#utility.yul\":1912:1977   */\n      swap1\n      pop\n        /* \"#utility.yul\":1857:1983   */\n      swap2\n      swap1\n      pop\n      jump\t// out\n        /* \"#utility.yul\":1989:2296   */\n    tag_44:\n        /* \"#utility.yul\":2057:2058   */\n      0x00\n        /* \"#utility.yul\":2067:2180   */\n    tag_61:\n        /* \"#utility.yul\":2081:2087   */\n      dup4\n        /* \"#utility.yul\":2078:2079   */\n      dup2\n        /* \"#utility.yul\":2075:2088   */\n      lt\n        /* \"#utility.yul\":2067:2180   */\n      iszero\n      tag_63\n      jumpi\n        /* \"#utility.yul\":2166:2167   */\n      dup1\n        /* \"#utility.yul\":2161:2164   */\n      dup3\n        /* \"#utility.yul\":2157:2168   */\n      add\n        /* \"#utility.yul\":2151:2169   */\n      mload\n        /* \"#utility.yul\":2147:2148   */\n      dup2\n        /* \"#utility.yul\":2142:2145   */\n      dup5\n        /* \"#utility.yul\":2138:2149   */\n      add\n        /* \"#utility.yul\":2131:2170   */\n      mstore\n        /* \"#utility.yul\":2103:2105   */\n      0x20\n        /* \"#utility.yul\":2100:2101   */\n      dup2\n        /* \"#utility.yul\":2096:2106   */\n      add\n        /* \"#utility.yul\":2091:2106   */\n      swap1\n      pop\n        /* \"#utility.yul\":2067:2180   */\n      jump(tag_61)\n    tag_63:\n        /* \"#utility.yul\":2198:2204   */\n      dup4\n        /* \"#utility.yul\":2195:2196   */\n      dup2\n        /* \"#utility.yul\":2192:2205   */\n      gt\n        /* \"#utility.yul\":2189:2290   */\n      iszero\n      tag_64\n      jumpi\n        /* \"#utility.yul\":2278:2279   */\n      0x00\n        /* \"#utility.yul\":2269:2275   */\n      dup5\n        /* \"#utility.yul\":2264:2267   */\n      dup5\n        /* \"#utility.yul\":2260:2276   */\n      add\n        /* \"#utility.yul\":2253:2280   */\n      mstore\n        /* \"#utility.yul\":2189:2290   */\n    tag_64:\n        /* \"#utility.yul\":2038:2296   */\n      pop\n        /* \"#utility.yul\":1989:2296   */\n      pop\n      pop\n      pop\n      jump\t// out\n        /* \"#utility.yul\":2302:2622   */\n    tag_23:\n        /* \"#utility.yul\":2346:2352   */\n      0x00\n        /* \"#utility.yul\":2383:2384   */\n      0x02\n        /* \"#utility.yul\":2377:2381   */\n      dup3\n        /* \"#utility.yul\":2373:2385   */\n      div\n        /* \"#utility.yul\":2363:2385   */\n      swap1\n      pop\n        /* \"#utility.yul\":2430:2431   */\n      0x01\n        /* \"#utility.yul\":2424:2428   */\n      dup3\n        /* \"#utility.yul\":2420:2432   */\n      and\n        /* \"#utility.yul\":2451:2469   */\n      dup1\n        /* \"#utility.yul\":2441:2522   */\n      tag_66\n      jumpi\n        /* \"#utility.yul\":2507:2511   */\n      0x7f\n        /* \"#utility.yul\":2499:2505   */\n      dup3\n        /* \"#utility.yul\":2495:2512   */\n      and\n        /* \"#utility.yul\":2485:2512   */\n      swap2\n      pop\n        /* \"#utility.yul\":2441:2522   */\n    tag_66:\n        /* \"#utility.yul\":2569:2571   */\n      0x20\n        /* \"#utility.yul\":2561:2567   */\n      dup3\n        /* \"#utility.yul\":2558:2572   */\n      lt\n        /* \"#utility.yul\":2538:2556   */\n      dup2\n        /* \"#utility.yul\":2535:2573   */\n      eq\n        /* \"#utility.yul\":2532:2616   */\n      iszero\n      tag_67\n      jumpi\n        /* \"#utility.yul\":2588:2606   */\n      tag_68\n      tag_69\n      jump\t// in\n    tag_68:\n        /* \"#utility.yul\":2532:2616   */\n    tag_67:\n        /* \"#utility.yul\":2353:2622   */\n      pop\n        /* \"#utility.yul\":2302:2622   */\n      swap2\n      swap1\n      pop\n      jump\t// out\n        /* \"#utility.yul\":2628:2808   */\n    tag_69:\n        /* \"#utility.yul\":2676:2753   */\n      0x4e487b7100000000000000000000000000000000000000000000000000000000\n        /* \"#utility.yul\":2673:2674   */\n      0x00\n        /* \"#utility.yul\":2666:2754   */\n      mstore\n        /* \"#utility.yul\":2773:2777   */\n      0x22\n        /* \"#utility.yul\":2770:2771   */\n      0x04\n        /* \"#utility.yul\":2763:2778   */\n      mstore\n        /* \"#utility.yul\":2797:2801   */\n      0x24\n        /* \"#utility.yul\":2794:2795   */\n      0x00\n        /* \"#utility.yul\":2787:2802   */\n      revert\n        /* \"#utility.yul\":2814:2916   */\n    tag_46:\n        /* \"#utility.yul\":2855:2861   */\n      0x00\n        /* \"#utility.yul\":2906:2908   */\n      0x1f\n        /* \"#utility.yul\":2902:2909   */\n      not\n        /* \"#utility.yul\":2897:2899   */\n      0x1f\n        /* \"#utility.yul\":2890:2895   */\n      dup4\n        /* \"#utility.yul\":2886:2900   */\n      add\n        /* \"#utility.yul\":2882:2910   */\n      and\n        /* \"#utility.yul\":2872:2910   */\n      swap1\n      pop\n        /* \"#utility.yul\":2814:2916   */\n      swap2\n      swap1\n      pop\n      jump\t// out\n\n    auxdata: 0xa2646970667358221220b79cb24fb1bc5c7cb0f4fbf2422930c7a6fef1c35df6ea63c88fa5fc418c6bfa64736f6c63430008070033\n}\n",
				"bytecode": {
					"linkReferences": {},
					"object": "60a060405234801561001057600080fd5b50604051610606380380610606833981810160405281019061003291906100f5565b3373ffffffffffffffffffffffffffffffffffffffff1660808173ffffffffffffffffffffffffffffffffffffffff1660601b815250505050610280565b600061008361007e84610176565b610151565b90508281526020810184848401111561009f5761009e610249565b5b6100aa8482856101b1565b509392505050565b6000815190506100c181610269565b92915050565b600082601f8301126100dc576100db610244565b5b81516100ec848260208601610070565b91505092915050565b6000806040838503121561010c5761010b610253565b5b600061011a858286016100b2565b925050602083015167ffffffffffffffff81111561013b5761013a61024e565b5b610147858286016100c7565b9150509250929050565b600061015b61016c565b905061016782826101e4565b919050565b6000604051905090565b600067ffffffffffffffff82111561019157610190610215565b5b61019a82610258565b9050602081019050919050565b6000819050919050565b60005b838110156101cf5780820151818401526020810190506101b4565b838111156101de576000848401525b50505050565b6101ed82610258565b810181811067ffffffffffffffff8211171561020c5761020b610215565b5b80604052505050565b7f4e487b7100000000000000000000000000000000000000000000000000000000600052604160045260246000fd5b600080fd5b600080fd5b600080fd5b600080fd5b6000601f19601f8301169050919050565b610272816101a7565b811461027d57600080fd5b50565b60805160601c61036861029e600039600061015e01526103686000f3fe608060405234801561001057600080fd5b506004361061004c5760003560e01c80634d41892f14610051578063516f279e1461006f5780638da5cb5b1461008d578063a035b1fe146100ab575b600080fd5b6100596100c9565b60405161006691906101f8565b60405180910390f35b6100776100ce565b6040516100849190610213565b60405180910390f35b61009561015c565b6040516100a291906101dd565b60405180910390f35b6100b3610180565b6040516100c091906101f8565b60405180910390f35b606481565b600180546100db906102c0565b80601f0160208091040260200160405190810160405280929190818152602001828054610107906102c0565b80156101545780601f1061012957610100808354040283529160200191610154565b820191906000526020600020905b81548152906001019060200180831161013757829003601f168201915b505050505081565b7f000000000000000000000000000000000000000000000000000000000000000081565b60005481565b61018f81610251565b82525050565b61019e81610263565b82525050565b60006101af82610235565b6101b98185610240565b93506101c981856020860161028d565b6101d281610321565b840191505092915050565b60006020820190506101f26000830184610186565b92915050565b600060208201905061020d6000830184610195565b92915050565b6000602082019050818103600083015261022d81846101a4565b905092915050565b600081519050919050565b600082825260208201905092915050565b600061025c8261026d565b9050919050565b6000819050919050565b600073ffffffffffffffffffffffffffffffffffffffff82169050919050565b60005b838110156102ab578082015181840152602081019050610290565b838111156102ba576000848401525b50505050565b600060028204905060018216806102d857607f821691505b602082108114156102ec576102eb6102f2565b5b50919050565b7f4e487b7100000000000000000000000000000000000000000000000000000000600052602260045260246000fd5b6000601f19601f830116905091905056fea2646970667358221220b79cb24fb1bc5c7cb0f4fbf2422930c7a6fef1c35df6ea63c88fa5fc418c6bfa64736f6c63430008070033",
					"opcodes": "PUSH1 0xA0 PUSH1 0x40 MSTORE CALLVALUE DUP1 ISZERO PUSH2 0x10 JUMPI PUSH1 0x0 DUP1 REVERT JUMPDEST POP PUSH1 0x40 MLOAD PUSH2 0x606 CODESIZE SUB DUP1 PUSH2 0x606 DUP4 CODECOPY DUP2 DUP2 ADD PUSH1 0x40 MSTORE DUP2 ADD SWAP1 PUSH2 0x32 SWAP2 SWAP1 PUSH2 0xF5 JUMP JUMPDEST CALLER PUSH20 0xFFFFFFFFFFFFFFFFFFFFFFFFFFFFFFFFFFFFFFFF AND PUSH1 0x80 DUP2 PUSH20 0xFFFFFFFFFFFFFFFFFFFFFFFFFFFFFFFFFFFFFFFF AND PUSH1 0x60 SHL DUP2 MSTORE POP POP POP POP PUSH2 0x280 JUMP JUMPDEST PUSH1 0x0 PUSH2 0x83 PUSH2 0x7E DUP5 PUSH2 0x176 JUMP JUMPDEST PUSH2 0x151 JUMP JUMPDEST SWAP1 POP DUP3 DUP2 MSTORE PUSH1 0x20 DUP2 ADD DUP5 DUP5 DUP5 ADD GT ISZERO PUSH2 0x9F JUMPI PUSH2 0x9E PUSH2 0x249 JUMP JUMPDEST JUMPDEST PUSH2 0xAA DUP5 DUP3 DUP6 PUSH2 0x1B1 JUMP JUMPDEST POP SWAP4 SWAP3 POP POP POP JUMP JUMPDEST PUSH1 0x0 DUP2 MLOAD SWAP1 POP PUSH2 0xC1 DUP2 PUSH2 0x269 JUMP JUMPDEST SWAP3 SWAP2 POP POP JUMP JUMPDEST PUSH1 0x0 DUP3 PUSH1 0x1F DUP4 ADD SLT PUSH2 0xDC JUMPI PUSH2 0xDB PUSH2 0x244 JUMP JUMPDEST JUMPDEST DUP2 MLOAD PUSH2 0xEC DUP5 DUP3 PUSH1 0x20 DUP7 ADD PUSH2 0x70 JUMP JUMPDEST SWAP2 POP POP SWAP3 SWAP2 POP POP JUMP JUMPDEST PUSH1 0x0 DUP1 PUSH1 0x40 DUP4 DUP6 SUB SLT ISZERO PUSH2 0x10C JUMPI PUSH2 0x10B PUSH2 0x253 JUMP JUMPDEST JUMPDEST PUSH1 0x0 PUSH2 0x11A DUP6 DUP3 DUP7 ADD PUSH2 0xB2 JUMP JUMPDEST SWAP3 POP POP PUSH1 0x20 DUP4 ADD MLOAD PUSH8 0xFFFFFFFFFFFFFFFF DUP2 GT ISZERO PUSH2 0x13B JUMPI PUSH2 0x13A PUSH2 0x24E JUMP JUMPDEST JUMPDEST PUSH2 0x147 DUP6 DUP3 DUP7 ADD PUSH2 0xC7 JUMP JUMPDEST SWAP2 POP POP SWAP3 POP SWAP3 SWAP1 POP JUMP JUMPDEST PUSH1 0x0 PUSH2 0x15B PUSH2 0x16C JUMP JUMPDEST SWAP1 POP PUSH2 0x167 DUP3 DUP3 PUSH2 0x1E4 JUMP JUMPDEST SWAP2 SWAP1 POP JUMP JUMPDEST PUSH1 0x0 PUSH1 0x40 MLOAD SWAP1 POP SWAP1 JUMP JUMPDEST PUSH1 0x0 PUSH8 0xFFFFFFFFFFFFFFFF DUP3 GT ISZERO PUSH2 0x191 JUMPI PUSH2 0x190 PUSH2 0x215 JUMP JUMPDEST JUMPDEST PUSH2 0x19A DUP3 PUSH2 0x258 JUMP JUMPDEST SWAP1 POP PUSH1 0x20 DUP2 ADD SWAP1 POP SWAP2 SWAP1 POP JUMP JUMPDEST PUSH1 0x0 DUP2 SWAP1 POP SWAP2 SWAP1 POP JUMP JUMPDEST PUSH1 0x0 JUMPDEST DUP4 DUP2 LT ISZERO PUSH2 0x1CF JUMPI DUP1 DUP3 ADD MLOAD DUP2 DUP5 ADD MSTORE PUSH1 0x20 DUP2 ADD SWAP1 POP PUSH2 0x1B4 JUMP JUMPDEST DUP4 DUP2 GT ISZERO PUSH2 0x1DE JUMPI PUSH1 0x0 DUP5 DUP5 ADD MSTORE JUMPDEST POP POP POP POP JUMP JUMPDEST PUSH2 0x1ED DUP3 PUSH2 0x258 JUMP JUMPDEST DUP2 ADD DUP2 DUP2 LT PUSH8 0xFFFFFFFFFFFFFFFF DUP3 GT OR ISZERO PUSH2 0x20C JUMPI PUSH2 0x20B PUSH2 0x215 JUMP JUMPDEST JUMPDEST DUP1 PUSH1 0x40 MSTORE POP POP POP JUMP JUMPDEST PUSH32 0x4E487B7100000000000000000000000000000000000000000000000000000000 PUSH1 0x0 MSTORE PUSH1 0x41 PUSH1 0x4 MSTORE PUSH1 0x24 PUSH1 0x0 REVERT JUMPDEST PUSH1 0x0 DUP1 REVERT JUMPDEST PUSH1 0x0 DUP1 REVERT JUMPDEST PUSH1 0x0 DUP1 REVERT JUMPDEST PUSH1 0x0 DUP1 REVERT JUMPDEST PUSH1 0x0 PUSH1 0x1F NOT PUSH1 0x1F DUP4 ADD AND SWAP1 POP SWAP2 SWAP1 POP JUMP JUMPDEST PUSH2 0x272 DUP2 PUSH2 0x1A7 JUMP JUMPDEST DUP2 EQ PUSH2 0x27D JUMPI PUSH1 0x0 DUP1 REVERT JUMPDEST POP JUMP JUMPDEST PUSH1 0x80 MLOAD PUSH1 0x60 SHR PUSH2 0x368 PUSH2 0x29E PUSH1 0x0 CODECOPY PUSH1 0x0 PUSH2 0x15E ADD MSTORE PUSH2 0x368 PUSH1 0x0 RETURN INVALID PUSH1 0x80 PUSH1 0x40 MSTORE CALLVALUE DUP1 ISZERO PUSH2 0x10 JUMPI PUSH1 0x0 DUP1 REVERT JUMPDEST POP PUSH1 0x4 CALLDATASIZE LT PUSH2 0x4C JUMPI PUSH1 0x0 CALLDATALOAD PUSH1 0xE0 SHR DUP1 PUSH4 0x4D41892F EQ PUSH2 0x51 JUMPI DUP1 PUSH4 0x516F279E EQ PUSH2 0x6F JUMPI DUP1 PUSH4 0x8DA5CB5B EQ PUSH2 0x8D JUMPI DUP1 PUSH4 0xA035B1FE EQ PUSH2 0xAB JUMPI JUMPDEST PUSH1 0x0 DUP1 REVERT JUMPDEST PUSH2 0x59 PUSH2 0xC9 JUMP JUMPDEST PUSH1 0x40 MLOAD PUSH2 0x66 SWAP2 SWAP1 PUSH2 0x1F8 JUMP JUMPDEST PUSH1 0x40 MLOAD DUP1 SWAP2 SUB SWAP1 RETURN JUMPDEST PUSH2 0x77 PUSH2 0xCE JUMP JUMPDEST PUSH1 0x40 MLOAD PUSH2 0x84 SWAP2 SWAP1 PUSH2 0x213 JUMP JUMPDEST PUSH1 0x40 MLOAD DUP1 SWAP2 SUB SWAP1 RETURN JUMPDEST PUSH2 0x95 PUSH2 0x15C JUMP JUMPDEST PUSH1 0x40 MLOAD PUSH2 0xA2 SWAP2 SWAP1 PUSH2 0x1DD JUMP JUMPDEST PUSH1 0x40 MLOAD DUP1 SWAP2 SUB SWAP1 RETURN JUMPDEST PUSH2 0xB3 PUSH2 0x180 JUMP JUMPDEST PUSH1 0x40 MLOAD PUSH2 0xC0 SWAP2 SWAP1 PUSH2 0x1F8 JUMP JUMPDEST PUSH1 0x40 MLOAD DUP1 SWAP2 SUB SWAP1 RETURN JUMPDEST PUSH1 0x64 DUP2 JUMP JUMPDEST PUSH1 0x1 DUP1 SLOAD PUSH2 0xDB SWAP1 PUSH2 0x2C0 JUMP JUMPDEST DUP1 PUSH1 0x1F ADD PUSH1 0x20 DUP1 SWAP2 DIV MUL PUSH1 0x20 ADD PUSH1 0x40 MLOAD SWAP1 DUP2 ADD PUSH1 0x40 MSTORE DUP1 SWAP3 SWAP2 SWAP1 DUP2 DUP2 MSTORE PUSH1 0x20 ADD DUP3 DUP1 SLOAD PUSH2 0x107 SWAP1 PUSH2 0x2C0 JUMP JUMPDEST DUP1 ISZERO PUSH2 0x154 JUMPI DUP1 PUSH1 0x1F LT PUSH2 0x129 JUMPI PUSH2 0x100 DUP1 DUP4 SLOAD DIV MUL DUP4 MSTORE SWAP2 PUSH1 0x20 ADD SWAP2 PUSH2 0x154 JUMP JUMPDEST DUP3 ADD SWAP2 SWAP1 PUSH1 0x0 MSTORE PUSH1 0x20 PUSH1 0x0 KECCAK256 SWAP1 JUMPDEST DUP2 SLOAD DUP2 MSTORE SWAP1 PUSH1 0x1 ADD SWAP1 PUSH1 0x20 ADD DUP1 DUP4 GT PUSH2 0x137 JUMPI DUP3 SWAP1 SUB PUSH1 0x1F AND DUP3 ADD SWAP2 JUMPDEST POP POP POP POP POP DUP2 JUMP JUMPDEST PUSH32 0x0 DUP2 JUMP JUMPDEST PUSH1 0x0 SLOAD DUP2 JUMP JUMPDEST PUSH2 0x18F DUP2 PUSH2 0x251 JUMP JUMPDEST DUP3 MSTORE POP POP JUMP JUMPDEST PUSH2 0x19E DUP2 PUSH2 0x263 JUMP JUMPDEST DUP3 MSTORE POP POP JUMP JUMPDEST PUSH1 0x0 PUSH2 0x1AF DUP3 PUSH2 0x235 JUMP JUMPDEST PUSH2 0x1B9 DUP2 DUP6 PUSH2 0x240 JUMP JUMPDEST SWAP4 POP PUSH2 0x1C9 DUP2 DUP6 PUSH1 0x20 DUP7 ADD PUSH2 0x28D JUMP JUMPDEST PUSH2 0x1D2 DUP2 PUSH2 0x321 JUMP JUMPDEST DUP5 ADD SWAP2 POP POP SWAP3 SWAP2 POP POP JUMP JUMPDEST PUSH1 0x0 PUSH1 0x20 DUP3 ADD SWAP1 POP PUSH2 0x1F2 PUSH1 0x0 DUP4 ADD DUP5 PUSH2 0x186 JUMP JUMPDEST SWAP3 SWAP2 POP POP JUMP JUMPDEST PUSH1 0x0 PUSH1 0x20 DUP3 ADD SWAP1 POP PUSH2 0x20D PUSH1 0x0 DUP4 ADD DUP5 PUSH2 0x195 JUMP JUMPDEST SWAP3 SWAP2 POP POP JUMP JUMPDEST PUSH1 0x0 PUSH1 0x20 DUP3 ADD SWAP1 POP DUP2 DUP2 SUB PUSH1 0x0 DUP4 ADD MSTORE PUSH2 0x22D DUP2 DUP5 PUSH2 0x1A4 JUMP JUMPDEST SWAP1 POP SWAP3 SWAP2 POP POP JUMP JUMPDEST PUSH1 0x0 DUP2 MLOAD SWAP1 POP SWAP2 SWAP1 POP JUMP JUMPDEST PUSH1 0x0 DUP3 DUP3 MSTORE PUSH1 0x20 DUP3 ADD SWAP1 POP SWAP3 SWAP2 POP POP JUMP JUMPDEST PUSH1 0x0 PUSH2 0x25C DUP3 PUSH2 0x26D JUMP JUMPDEST SWAP1 POP SWAP2 SWAP1 POP JUMP JUMPDEST PUSH1 0x0 DUP2 SWAP1 POP SWAP2 SWAP1 POP JUMP JUMPDEST PUSH1 0x0 PUSH20 0xFFFFFFFFFFFFFFFFFFFFFFFFFFFFFFFFFFFFFFFF DUP3 AND SWAP1 POP SWAP2 SWAP1 POP JUMP JUMPDEST PUSH1 0x0 JUMPDEST DUP4 DUP2 LT ISZERO PUSH2 0x2AB JUMPI DUP1 DUP3 ADD MLOAD DUP2 DUP5 ADD MSTORE PUSH1 0x20 DUP2 ADD SWAP1 POP PUSH2 0x290 JUMP JUMPDEST DUP4 DUP2 GT ISZERO PUSH2 0x2BA JUMPI PUSH1 0x0 DUP5 DUP5 ADD MSTORE JUMPDEST POP POP POP POP JUMP JUMPDEST PUSH1 0x0 PUSH1 0x2 DUP3 DIV SWAP1 POP PUSH1 0x1 DUP3 AND DUP1 PUSH2 0x2D8 JUMPI PUSH1 0x7F DUP3 AND SWAP2 POP JUMPDEST PUSH1 0x20 DUP3 LT DUP2 EQ ISZERO PUSH2 0x2EC JUMPI PUSH2 0x2EB PUSH2 0x2F2 JUMP JUMPDEST JUMPDEST POP SWAP2 SWAP1 POP JUMP JUMPDEST PUSH32 0x4E487B7100000000000000000000000000000000000000000000000000000000 PUSH1 0x0 MSTORE PUSH1 0x22 PUSH1 0x4 MSTORE PUSH1 0x24 PUSH1 0x0 REVERT JUMPDEST PUSH1 0x0 PUSH1 0x1F NOT PUSH1 0x1F DUP4 ADD AND SWAP1 POP SWAP2 SWAP1 POP JUMP INVALID LOG2 PUSH5 0x6970667358 0x22 SLT KECCAK256 0xB7 SWAP13 0xB2 0x4F 0xB1 0xBC 0x5C PUSH29 0xB0F4FBF2422930C7A6FEF1C35DF6EA63C88FA5FC418C6BFA64736F6C63 NUMBER STOP ADDMOD SMOD STOP CALLER "
				},
				"gasEstimates": {
					"creation": {
						"codeDepositCost": "174400",
						"executionCost": "infinite",
						"totalCost": "infinite"
					},
					"external": {
						"area()": "307",
						"location()": "infinite",
						"owner()": "infinite",
						"price()": "2473"
					}
				},
				"methodIdentifiers": {
					"area()": "4d41892f",
					"location()": "516f279e",
					"owner()": "8da5cb5b",
					"price()": "a035b1fe"
				}
			},
			"storageLayout": {
				"storage": [
					{
						"astId": 2,
						"contract": "contracts/artifacts/functionsVariables.sol:functionsVariable",
						"label": "price",
						"offset": 0,
						"slot": "0",
						"type": "t_int256"
					},
					{
						"astId": 4,
						"contract": "contracts/artifacts/functionsVariables.sol:functionsVariable",
						"label": "location",
						"offset": 0,
						"slot": "1",
						"type": "t_string_storage"
					}
				],
				"types": {
					"t_int256": {
						"encoding": "inplace",
						"label": "int256",
						"numberOfBytes": "32"
					},
					"t_string_storage": {
						"encoding": "bytes",
						"label": "string",
						"numberOfBytes": "32"
					}
				}
			},
			"userdoc": {
				"kind": "user",
				"methods": {},
				"version": 1
			}
		}
	}
}