{
	"data": {
		"bytecode": {
			"linkReferences": {},
			"object": "608060405260ff600060016101000a81548160ff021916908360ff16021790555034801561002c57600080fd5b5061012a8061003c6000396000f3fe6080604052348015600f57600080fd5b506004361060325760003560e01c8063200d2ed2146037578063fb68540a146051575b600080fd5b603d606b565b6040516048919060a9565b60405180910390f35b6057607c565b6040516062919060c2565b60405180910390f35b60008054906101000a900460ff1681565b600060019054906101000a900460ff1681565b60968160db565b82525050565b60a38160e7565b82525050565b600060208201905060bc6000830184608f565b92915050565b600060208201905060d56000830184609c565b92915050565b60008115159050919050565b600060ff8216905091905056fea2646970667358221220a7d6b6a0dcb108f4c060070919de0ebcb2a5714f0ff604b727598153a44d128d64736f6c63430008070033",
			"opcodes": "PUSH1 0x80 PUSH1 0x40 MSTORE PUSH1 0xFF PUSH1 0x0 PUSH1 0x1 PUSH2 0x100 EXP DUP2 SLOAD DUP2 PUSH1 0xFF MUL NOT AND SWAP1 DUP4 PUSH1 0xFF AND MUL OR SWAP1 SSTORE POP CALLVALUE DUP1 ISZERO PUSH2 0x2C JUMPI PUSH1 0x0 DUP1 REVERT JUMPDEST POP PUSH2 0x12A DUP1 PUSH2 0x3C PUSH1 0x0 CODECOPY PUSH1 0x0 RETURN INVALID PUSH1 0x80 PUSH1 0x40 MSTORE CALLVALUE DUP1 ISZERO PUSH1 0xF JUMPI PUSH1 0x0 DUP1 REVERT JUMPDEST POP PUSH1 0x4 CALLDATASIZE LT PUSH1 0x32 JUMPI PUSH1 0x0 CALLDATALOAD PUSH1 0xE0 SHR DUP1 PUSH4 0x200D2ED2 EQ PUSH1 0x37 JUMPI DUP1 PUSH4 0xFB68540A EQ PUSH1 0x51 JUMPI JUMPDEST PUSH1 0x0 DUP1 REVERT JUMPDEST PUSH1 0x3D PUSH1 0x6B JUMP JUMPDEST PUSH1 0x40 MLOAD PUSH1 0x48 SWAP2 SWAP1 PUSH1 0xA9 JUMP JUMPDEST PUSH1 0x40 MLOAD DUP1 SWAP2 SUB SWAP1 RETURN JUMPDEST PUSH1 0x57 PUSH1 0x7C JUMP JUMPDEST PUSH1 0x40 MLOAD PUSH1 0x62 SWAP2 SWAP1 PUSH1 0xC2 JUMP JUMPDEST PUSH1 0x40 MLOAD DUP1 SWAP2 SUB SWAP1 RETURN JUMPDEST PUSH1 0x0 DUP1 SLOAD SWAP1 PUSH2 0x100 EXP SWAP1 DIV PUSH1 0xFF AND DUP2 JUMP JUMPDEST PUSH1 0x0 PUSH1 0x1 SWAP1 SLOAD SWAP1 PUSH2 0x100 EXP SWAP1 DIV PUSH1 0xFF AND DUP2 JUMP JUMPDEST PUSH1 0x96 DUP2 PUSH1 0xDB JUMP JUMPDEST DUP3 MSTORE POP POP JUMP JUMPDEST PUSH1 0xA3 DUP2 PUSH1 0xE7 JUMP JUMPDEST DUP3 MSTORE POP POP JUMP JUMPDEST PUSH1 0x0 PUSH1 0x20 DUP3 ADD SWAP1 POP PUSH1 0xBC PUSH1 0x0 DUP4 ADD DUP5 PUSH1 0x8F JUMP JUMPDEST SWAP3 SWAP2 POP POP JUMP JUMPDEST PUSH1 0x0 PUSH1 0x20 DUP3 ADD SWAP1 POP PUSH1 0xD5 PUSH1 0x0 DUP4 ADD DUP5 PUSH1 0x9C JUMP JUMPDEST SWAP3 SWAP2 POP POP JUMP JUMPDEST PUSH1 0x0 DUP2 ISZERO ISZERO SWAP1 POP SWAP2 SWAP1 POP JUMP JUMPDEST PUSH1 0x0 PUSH1 0xFF DUP3 AND SWAP1 POP SWAP2 SWAP1 POP JUMP INVALID LOG2 PUSH5 0x6970667358 0x22 SLT KECCAK256 0xA7 0xD6 0xB6 LOG0 0xDC 0xB1 ADDMOD DELEGATECALL 0xC0 PUSH1 0x7 MULMOD NOT 0xDE 0xE 0xBC 0xB2 0xA5 PUSH18 0x4F0FF604B727598153A44D128D64736F6C63 NUMBER STOP ADDMOD SMOD STOP CALLER "
		},
		"gasEstimates": {
			"creation": {
				"codeDepositCost": "59600",
				"executionCost": "24428",
				"totalCost": "84028"
			},
			"external": {
				"status()": "2446",
				"theNumber()": "2521"
			}
		},
		"methodIdentifiers": {
			"status()": "200d2ed2",
			"theNumber()": "fb68540a"
		}
	},
	"abi": [
		{
			"inputs": [],
			"name": "status",
			"outputs": [
				{
					"internalType": "bool",
					"name": "",
					"type": "bool"
				}
			],
			"stateMutability": "view",
			"type": "function"
		},
		{
			"inputs": [],
			"name": "theNumber",
			"outputs": [
				{
					"internalType": "uint8",
					"name": "",
					"type": "uint8"
				}
			],
			"stateMutability": "view",
			"type": "function"
		}
	]
}