{
	"data": {
		"bytecode": {
			"linkReferences": {},
			"object": "608060405234801561001057600080fd5b5061048a806100206000396000f3fe608060405234801561001057600080fd5b50600436106100415760003560e01c80634f2be91f146100465780637b8d56e314610064578063e449c52a14610080575b600080fd5b61004e6100b0565b60405161005b919061025a565b60405180910390f35b61007e600480360381019061007991906101b0565b6100c6565b005b61009a60048036038101906100959190610167565b6100d8565b6040516100a79190610238565b60405180910390f35b600080546001546100c191906102e7565b905090565b81600081905550806001819055505050565b6060819050919050565b60006100f56100f08461029a565b610275565b9050828152602081018484840111156101115761011061041d565b5b61011c848285610347565b509392505050565b600082601f83011261013957610138610418565b5b81356101498482602086016100e2565b91505092915050565b6000813590506101618161043d565b92915050565b60006020828403121561017d5761017c610427565b5b600082013567ffffffffffffffff81111561019b5761019a610422565b5b6101a784828501610124565b91505092915050565b600080604083850312156101c7576101c6610427565b5b60006101d585828601610152565b92505060206101e685828601610152565b9150509250929050565b60006101fb826102cb565b61020581856102d6565b9350610215818560208601610356565b61021e8161042c565b840191505092915050565b6102328161033d565b82525050565b6000602082019050818103600083015261025281846101f0565b905092915050565b600060208201905061026f6000830184610229565b92915050565b600061027f610290565b905061028b8282610389565b919050565b6000604051905090565b600067ffffffffffffffff8211156102b5576102b46103e9565b5b6102be8261042c565b9050602081019050919050565b600081519050919050565b600082825260208201905092915050565b60006102f28261033d565b91506102fd8361033d565b9250827fffffffffffffffffffffffffffffffffffffffffffffffffffffffffffffffff03821115610332576103316103ba565b5b828201905092915050565b6000819050919050565b82818337600083830152505050565b60005b83811015610374578082015181840152602081019050610359565b83811115610383576000848401525b50505050565b6103928261042c565b810181811067ffffffffffffffff821117156103b1576103b06103e9565b5b80604052505050565b7f4e487b7100000000000000000000000000000000000000000000000000000000600052601160045260246000fd5b7f4e487b7100000000000000000000000000000000000000000000000000000000600052604160045260246000fd5b600080fd5b600080fd5b600080fd5b600080fd5b6000601f19601f8301169050919050565b6104468161033d565b811461045157600080fd5b5056fea2646970667358221220528be9a692739cbadf7620f5164d10a42f72799f2dfd175a56702a9b18e36c0b64736f6c63430008070033",
			"opcodes": "PUSH1 0x80 PUSH1 0x40 MSTORE CALLVALUE DUP1 ISZERO PUSH2 0x10 JUMPI PUSH1 0x0 DUP1 REVERT JUMPDEST POP PUSH2 0x48A DUP1 PUSH2 0x20 PUSH1 0x0 CODECOPY PUSH1 0x0 RETURN INVALID PUSH1 0x80 PUSH1 0x40 MSTORE CALLVALUE DUP1 ISZERO PUSH2 0x10 JUMPI PUSH1 0x0 DUP1 REVERT JUMPDEST POP PUSH1 0x4 CALLDATASIZE LT PUSH2 0x41 JUMPI PUSH1 0x0 CALLDATALOAD PUSH1 0xE0 SHR DUP1 PUSH4 0x4F2BE91F EQ PUSH2 0x46 JUMPI DUP1 PUSH4 0x7B8D56E3 EQ PUSH2 0x64 JUMPI DUP1 PUSH4 0xE449C52A EQ PUSH2 0x80 JUMPI JUMPDEST PUSH1 0x0 DUP1 REVERT JUMPDEST PUSH2 0x4E PUSH2 0xB0 JUMP JUMPDEST PUSH1 0x40 MLOAD PUSH2 0x5B SWAP2 SWAP1 PUSH2 0x25A JUMP JUMPDEST PUSH1 0x40 MLOAD DUP1 SWAP2 SUB SWAP1 RETURN JUMPDEST PUSH2 0x7E PUSH1 0x4 DUP1 CALLDATASIZE SUB DUP2 ADD SWAP1 PUSH2 0x79 SWAP2 SWAP1 PUSH2 0x1B0 JUMP JUMPDEST PUSH2 0xC6 JUMP JUMPDEST STOP JUMPDEST PUSH2 0x9A PUSH1 0x4 DUP1 CALLDATASIZE SUB DUP2 ADD SWAP1 PUSH2 0x95 SWAP2 SWAP1 PUSH2 0x167 JUMP JUMPDEST PUSH2 0xD8 JUMP JUMPDEST PUSH1 0x40 MLOAD PUSH2 0xA7 SWAP2 SWAP1 PUSH2 0x238 JUMP JUMPDEST PUSH1 0x40 MLOAD DUP1 SWAP2 SUB SWAP1 RETURN JUMPDEST PUSH1 0x0 DUP1 SLOAD PUSH1 0x1 SLOAD PUSH2 0xC1 SWAP2 SWAP1 PUSH2 0x2E7 JUMP JUMPDEST SWAP1 POP SWAP1 JUMP JUMPDEST DUP2 PUSH1 0x0 DUP2 SWAP1 SSTORE POP DUP1 PUSH1 0x1 DUP2 SWAP1 SSTORE POP POP POP JUMP JUMPDEST PUSH1 0x60 DUP2 SWAP1 POP SWAP2 SWAP1 POP JUMP JUMPDEST PUSH1 0x0 PUSH2 0xF5 PUSH2 0xF0 DUP5 PUSH2 0x29A JUMP JUMPDEST PUSH2 0x275 JUMP JUMPDEST SWAP1 POP DUP3 DUP2 MSTORE PUSH1 0x20 DUP2 ADD DUP5 DUP5 DUP5 ADD GT ISZERO PUSH2 0x111 JUMPI PUSH2 0x110 PUSH2 0x41D JUMP JUMPDEST JUMPDEST PUSH2 0x11C DUP5 DUP3 DUP6 PUSH2 0x347 JUMP JUMPDEST POP SWAP4 SWAP3 POP POP POP JUMP JUMPDEST PUSH1 0x0 DUP3 PUSH1 0x1F DUP4 ADD SLT PUSH2 0x139 JUMPI PUSH2 0x138 PUSH2 0x418 JUMP JUMPDEST JUMPDEST DUP2 CALLDATALOAD PUSH2 0x149 DUP5 DUP3 PUSH1 0x20 DUP7 ADD PUSH2 0xE2 JUMP JUMPDEST SWAP2 POP POP SWAP3 SWAP2 POP POP JUMP JUMPDEST PUSH1 0x0 DUP2 CALLDATALOAD SWAP1 POP PUSH2 0x161 DUP2 PUSH2 0x43D JUMP JUMPDEST SWAP3 SWAP2 POP POP JUMP JUMPDEST PUSH1 0x0 PUSH1 0x20 DUP3 DUP5 SUB SLT ISZERO PUSH2 0x17D JUMPI PUSH2 0x17C PUSH2 0x427 JUMP JUMPDEST JUMPDEST PUSH1 0x0 DUP3 ADD CALLDATALOAD PUSH8 0xFFFFFFFFFFFFFFFF DUP2 GT ISZERO PUSH2 0x19B JUMPI PUSH2 0x19A PUSH2 0x422 JUMP JUMPDEST JUMPDEST PUSH2 0x1A7 DUP5 DUP3 DUP6 ADD PUSH2 0x124 JUMP JUMPDEST SWAP2 POP POP SWAP3 SWAP2 POP POP JUMP JUMPDEST PUSH1 0x0 DUP1 PUSH1 0x40 DUP4 DUP6 SUB SLT ISZERO PUSH2 0x1C7 JUMPI PUSH2 0x1C6 PUSH2 0x427 JUMP JUMPDEST JUMPDEST PUSH1 0x0 PUSH2 0x1D5 DUP6 DUP3 DUP7 ADD PUSH2 0x152 JUMP JUMPDEST SWAP3 POP POP PUSH1 0x20 PUSH2 0x1E6 DUP6 DUP3 DUP7 ADD PUSH2 0x152 JUMP JUMPDEST SWAP2 POP POP SWAP3 POP SWAP3 SWAP1 POP JUMP JUMPDEST PUSH1 0x0 PUSH2 0x1FB DUP3 PUSH2 0x2CB JUMP JUMPDEST PUSH2 0x205 DUP2 DUP6 PUSH2 0x2D6 JUMP JUMPDEST SWAP4 POP PUSH2 0x215 DUP2 DUP6 PUSH1 0x20 DUP7 ADD PUSH2 0x356 JUMP JUMPDEST PUSH2 0x21E DUP2 PUSH2 0x42C JUMP JUMPDEST DUP5 ADD SWAP2 POP POP SWAP3 SWAP2 POP POP JUMP JUMPDEST PUSH2 0x232 DUP2 PUSH2 0x33D JUMP JUMPDEST DUP3 MSTORE POP POP JUMP JUMPDEST PUSH1 0x0 PUSH1 0x20 DUP3 ADD SWAP1 POP DUP2 DUP2 SUB PUSH1 0x0 DUP4 ADD MSTORE PUSH2 0x252 DUP2 DUP5 PUSH2 0x1F0 JUMP JUMPDEST SWAP1 POP SWAP3 SWAP2 POP POP JUMP JUMPDEST PUSH1 0x0 PUSH1 0x20 DUP3 ADD SWAP1 POP PUSH2 0x26F PUSH1 0x0 DUP4 ADD DUP5 PUSH2 0x229 JUMP JUMPDEST SWAP3 SWAP2 POP POP JUMP JUMPDEST PUSH1 0x0 PUSH2 0x27F PUSH2 0x290 JUMP JUMPDEST SWAP1 POP PUSH2 0x28B DUP3 DUP3 PUSH2 0x389 JUMP JUMPDEST SWAP2 SWAP1 POP JUMP JUMPDEST PUSH1 0x0 PUSH1 0x40 MLOAD SWAP1 POP SWAP1 JUMP JUMPDEST PUSH1 0x0 PUSH8 0xFFFFFFFFFFFFFFFF DUP3 GT ISZERO PUSH2 0x2B5 JUMPI PUSH2 0x2B4 PUSH2 0x3E9 JUMP JUMPDEST JUMPDEST PUSH2 0x2BE DUP3 PUSH2 0x42C JUMP JUMPDEST SWAP1 POP PUSH1 0x20 DUP2 ADD SWAP1 POP SWAP2 SWAP1 POP JUMP JUMPDEST PUSH1 0x0 DUP2 MLOAD SWAP1 POP SWAP2 SWAP1 POP JUMP JUMPDEST PUSH1 0x0 DUP3 DUP3 MSTORE PUSH1 0x20 DUP3 ADD SWAP1 POP SWAP3 SWAP2 POP POP JUMP JUMPDEST PUSH1 0x0 PUSH2 0x2F2 DUP3 PUSH2 0x33D JUMP JUMPDEST SWAP2 POP PUSH2 0x2FD DUP4 PUSH2 0x33D JUMP JUMPDEST SWAP3 POP DUP3 PUSH32 0xFFFFFFFFFFFFFFFFFFFFFFFFFFFFFFFFFFFFFFFFFFFFFFFFFFFFFFFFFFFFFFFF SUB DUP3 GT ISZERO PUSH2 0x332 JUMPI PUSH2 0x331 PUSH2 0x3BA JUMP JUMPDEST JUMPDEST DUP3 DUP3 ADD SWAP1 POP SWAP3 SWAP2 POP POP JUMP JUMPDEST PUSH1 0x0 DUP2 SWAP1 POP SWAP2 SWAP1 POP JUMP JUMPDEST DUP3 DUP2 DUP4 CALLDATACOPY PUSH1 0x0 DUP4 DUP4 ADD MSTORE POP POP POP JUMP JUMPDEST PUSH1 0x0 JUMPDEST DUP4 DUP2 LT ISZERO PUSH2 0x374 JUMPI DUP1 DUP3 ADD MLOAD DUP2 DUP5 ADD MSTORE PUSH1 0x20 DUP2 ADD SWAP1 POP PUSH2 0x359 JUMP JUMPDEST DUP4 DUP2 GT ISZERO PUSH2 0x383 JUMPI PUSH1 0x0 DUP5 DUP5 ADD MSTORE JUMPDEST POP POP POP POP JUMP JUMPDEST PUSH2 0x392 DUP3 PUSH2 0x42C JUMP JUMPDEST DUP2 ADD DUP2 DUP2 LT PUSH8 0xFFFFFFFFFFFFFFFF DUP3 GT OR ISZERO PUSH2 0x3B1 JUMPI PUSH2 0x3B0 PUSH2 0x3E9 JUMP JUMPDEST JUMPDEST DUP1 PUSH1 0x40 MSTORE POP POP POP JUMP JUMPDEST PUSH32 0x4E487B7100000000000000000000000000000000000000000000000000000000 PUSH1 0x0 MSTORE PUSH1 0x11 PUSH1 0x4 MSTORE PUSH1 0x24 PUSH1 0x0 REVERT JUMPDEST PUSH32 0x4E487B7100000000000000000000000000000000000000000000000000000000 PUSH1 0x0 MSTORE PUSH1 0x41 PUSH1 0x4 MSTORE PUSH1 0x24 PUSH1 0x0 REVERT JUMPDEST PUSH1 0x0 DUP1 REVERT JUMPDEST PUSH1 0x0 DUP1 REVERT JUMPDEST PUSH1 0x0 DUP1 REVERT JUMPDEST PUSH1 0x0 DUP1 REVERT JUMPDEST PUSH1 0x0 PUSH1 0x1F NOT PUSH1 0x1F DUP4 ADD AND SWAP1 POP SWAP2 SWAP1 POP JUMP JUMPDEST PUSH2 0x446 DUP2 PUSH2 0x33D JUMP JUMPDEST DUP2 EQ PUSH2 0x451 JUMPI PUSH1 0x0 DUP1 REVERT JUMPDEST POP JUMP INVALID LOG2 PUSH5 0x6970667358 0x22 SLT KECCAK256 MSTORE DUP12 0xE9 0xA6 SWAP3 PUSH20 0x9CBADF7620F5164D10A42F72799F2DFD175A5670 0x2A SWAP12 XOR 0xE3 PUSH13 0xB64736F6C6343000807003300 "
		},
		"gasEstimates": {
			"creation": {
				"codeDepositCost": "232400",
				"executionCost": "275",
				"totalCost": "232675"
			},
			"external": {
				"add()": "infinite",
				"getStr(string)": "infinite",
				"setValue(uint256,uint256)": "infinite"
			}
		},
		"methodIdentifiers": {
			"add()": "4f2be91f",
			"getStr(string)": "e449c52a",
			"setValue(uint256,uint256)": "7b8d56e3"
		}
	},
	"abi": [
		{
			"inputs": [],
			"name": "add",
			"outputs": [
				{
					"internalType": "uint256",
					"name": "",
					"type": "uint256"
				}
			],
			"stateMutability": "view",
			"type": "function"
		},
		{
			"inputs": [
				{
					"internalType": "string",
					"name": "_strIn",
					"type": "string"
				}
			],
			"name": "getStr",
			"outputs": [
				{
					"internalType": "string",
					"name": "",
					"type": "string"
				}
			],
			"stateMutability": "view",
			"type": "function"
		},
		{
			"inputs": [
				{
					"internalType": "uint256",
					"name": "_in1",
					"type": "uint256"
				},
				{
					"internalType": "uint256",
					"name": "_in2",
					"type": "uint256"
				}
			],
			"name": "setValue",
			"outputs": [],
			"stateMutability": "nonpayable",
			"type": "function"
		}
	]
}